CMD     3 JUL, 1982	MACRO %53B(1156)-1 12:06  8-Mar-85 Page 1
COM	MAC	15-Oct-73 17:37

     1					;COM	Nov 5, 1982
     2			000007		VERSION==7
     3			000026		VERPAT==26
     4
     5			000000		R0=     0
     6			000001		R1=     1
     7			000002		R2=     2
     8			000003		R3=     3
     9			000004		CH==    4                       ;CURRENT CHARACTER
    10			000007		CT==    7                       ;CURRENT CHARACTER'S TYPE
    11			000010		I=10
    12			000013		LP==    13
    13			000017		P=      17
    14
    15			000001		LCHAN== 1			;CHANNEL FOR READING LUD.SYS
    16			000002		SCHAN== 2			;CHANNEL FOR READING PERP.SYS
    17
    18			000056		DOTCHR= 56
    19			000054		COMCHR= 54
    20			000012		LFCHR=  12
    21			000015		CRCHR=  15
    22			000040		SPACE=  40
    23			000000		EOLIT== 0
    24			000137		BARROW=137
    25					        SALL                    ;SUPPRESS ALL MACRO EXPANSIONS
    26					IFDEF   UUOFLG  <UUOTAB: BLOCK 0>
    27					DEFINE  OPD     (A,B) <X==X+1
    28					OPDEF A [X*1000000000]
    29					IFDEF UUOFLG<JRST B>>
    30			000000		X==0
    31					        OPD     TCI,TCIUUO;    001
    32					        OPD     TCL,TCLUUO;    002
    33					        OPD     RDLINE,RDUUO;  003
    34					        OPD     GCI,GCIUUO;    004
    35					        OPD     GCD,GCDUUO;    005
    36					        OPD     WCI,WCIUUO;    006
    37					        OPD     WCD,WCDUUO;    007
    38					        OPD     TCO,TCOUU ;    010
    39					        OPD     DCR,DCRUUO;    011
    40					        OPD     TYPE,TYPUUO;   012
    41					        OPD     CLRIN,CLRUUO;  013
    42					        OPD     SETTTY,TTYUUO; 014
    43					        OPD     ERROR,ERRUUO;  015
    44					        OPD     ENABLE,ENUUO;  016
    45					        OPD     DISABL,DISUUO; 017
    46					        OPD     SSKE,SSKUUO;   020
    47					        OPD     TAB,TABUUO;    021
CMD     3 JUL, 1982	MACRO %53B(1156)-1 12:06  8-Mar-85 Page 2
CHR	MAC	15-Oct-73 17:37

    48					;CHR    SEP 17, 1974
    49					DEFINE  CHARDO(A) <CHARC=0
    50					A'IC;;      ILLEGAL CHARACTER
    51					A'AL;;      ALPHABETIC CHARACTER
    52					A'NU;;      NUMERIC CHARACTER
    53					A'RP;;      LEAVE USER MODE ")"
    54					A'IG;;      IGNORED CHARACTER
    55					A'QQ;;      ENTER USER NAME MODE "("
    56					A'AS;;      ALL FILES CHAR (*)
    57					A'EX;;      FILE EXTENSION DELIMITER (.)
    58					A'AT;;      COMMAND FILE CHAR (@)
    59					A'CO;;      COMMA
    60					A'TE;;      LINE TERMINATION (CR LF)
    61					A'SP;;      SPACE
    62					A'PO;;      POUND SIGN (#)
    63					A'QU;;      QUESTION MARK (?)
    64					A'PU;;      PUNCTUATION ALLOWED IN USER NAMES (/ ' $)
    65					A'DA>;      DASH (-)
    66					DEFINE  CHRDEF(C) <C=CHARC
    67					CHARC=CHARC+1>
    68			000020		        CHARDO  <CHRDEF >
CMD     3 JUL, 1982	MACRO %53B(1156)-1 12:06  8-Mar-85 Page 3
CHR	MAC	15-Oct-73 17:37

    69
    70					        TITLE   CMD     3 JUL, 1982
    71
    72			000072		COLON==72
    73					;COMMAND DISPATCHER
    74	000000'	200 17 0 00 000270'	CDISP:: MOVE    P,STACK ;
    75					        EXTERN DFRSW
    76	000001'	402 00 0 00 000000*	        SETZM   DFRSW           ;SET DFR SWITCH TO NO DEFER 8/6/76 CLC
    77	000002'	402 00 0 00 000266'	        SETZM   NUMFL
    78	000003'	010 00 0 00 000705'	        TCO     [CRCHR]         ;BE SURE YOU ARE AT RIGHT MARGIN
    79	000004'	010 00 0 00 000706'	        TCO     [COLON]         ;SEND A PROMPT
    80	000005'	260 17 0 00 000216'	        PUSHJ   P,GTWD          ;GET A WORD
    81	000006'	254 00 0 00 000024'	        JRST    CMDER           ;BAD INPUT OR QUESTIONMARK
    82	000007'	332 00 0 00 000266'	        SKIPE   NUMFL           ;CHECK IF LAST CHAR WAS A NUMBER
    83	000010'	254 00 0 00 000026'	        JRST    CMDER1          ;NOT WHAT WAS EXPECTED
    84	000011'	200 01 0 00 000707'	        MOVE    R1,[CMDTAB]     ;GET ADDR OF TABLE
    85	000012'	260 17 0 00 000523'	        PUSHJ   P,LOCATE        ;FIND THE COMMAND
    86	000013'	254 00 0 00 000020'	        JRST    CMDERR          ;COMMAND NOT FOUND
    87	000014'	306 07 0 00 000012 	        CAIN    CT,TE
    88	000015'	001 07 0 00 000004 	        TCI     CT,CH
    89	000016'	476 00 0 00 000000*	        SETOM   SWLWD##
    90	000017'	324 00 1 00 000001 	        JUMPA   @R1             ;GO DO IT
    91	000020'	012 00 0 00 000256'	CMDERR: TYPE    CBUFF            ;TYPE OUT THE COMMAND
    92	000021'	012 00 0 00 000710'	        TYPE    [ASCIZ ' IS NOT A COMMAND$']
    93	000022'	013 00 0 00 000000 	        CLRIN                   ;CLEAR INPUT STRING
    94	000023'	324 00 0 00 000000'	        JUMPA   CDISP
    95	000024'	306 07 0 00 000015 	CMDER:  CAIN    CT,QU           ;IS IT A QUESTION MARK
    96	000025'	324 00 0 00 000031'	        JUMPA   HELP            ;IF SO THEN DO THE HELP COMMAND
    97	000026'	012 00 0 00 000714'	CMDER1: TYPE    [ASCIZ' NOT A VALID COMMAND']
    98	000027'	013 00 0 00 000000 	        CLRIN
    99	000030'	254 00 0 00 000000'	        JRST    CDISP           ;GO BACK TO DISPATECHER
   100					;
   101					;       THESE ARE THE ROUTINES THAT ARE USED BY EACH
   102					;       COMMAND IN PERP.
   103					;
   104	000031'	012 00 0 00 000033'	HELP::  TYPE HELPM
   105	000032'	254 00 0 00 000000'	        JRST CDISP
   106	000033'				HELPM:  ASCIZ   '
   107	000033'	015 012 104 101 124 	DATES    TAKES A DATE EXPRESSION
   108	000034'	105 123 040 040 040
   109	000035'	040 124 101 113 105
   110	000036'	123 040 101 040 104
   111	000037'	101 124 105 040 105
   112	000040'	130 120 122 105 123
   113	000041'	123 111 117 116 015
   114	000042'	012 111 116 123 105 	INSERT   INSERTS PREVIOUS DATE EXPRESSION INTO JOB LIST
   115	000043'	122 124 040 040 040
   116	000044'	111 116 123 105 122
   117	000045'	124 123 040 120 122
   118	000046'	105 126 111 117 125
   119	000047'	123 040 104 101 124
   120	000050'	105 040 105 130 120
   121	000051'	122 105 123 123 111
   122	000052'	117 116 040 111 116
   123	000053'	124 117 040 112 117
CMD     3 JUL, 1982	MACRO %53B(1156)-1 12:06  8-Mar-85 Page 1
CMD	MAC	15-Oct-73 17:37

   124	000054'	102 040 114 111 123
   125	000055'	124 015 012 104 111 	DISPLAY  DISPLAYS ALL DATES ASSOCIATED WITH DATE EXPRESSION
   126	000056'	123 120 114 101 131
   127	000057'	040 040 104 111 123
   128	000060'	120 114 101 131 123
   129	000061'	040 101 114 114 040
   130	000062'	104 101 124 105 123
   131	000063'	040 101 123 123 117
   132	000064'	103 111 101 124 105
   133	000065'	104 040 127 111 124
   134	000066'	110 040 104 101 124
   135	000067'	105 040 105 130 120
   136	000070'	122 105 123 123 111
   137	000071'	117 116 015 012 105 	EXPRESS  REPHRASES THE DATE EXPRESSION
   138	000072'	130 120 122 105 123
   139	000073'	123 040 040 122 105
   140	000074'	120 110 122 101 123
   141	000075'	105 123 040 124 110
   142	000076'	105 040 104 101 124
   143	000077'	105 040 105 130 120
   144	000100'	122 105 123 123 111
   145	000101'	117 116 015 012 124 	TEST     EXECUTES BOTH EXPRESS AND DISPLAY COMMANDS
   146	000102'	105 123 124 040 040
   147	000103'	040 040 040 105 130
   148	000104'	105 103 125 124 105
   149	000105'	123 040 102 117 124
   150	000106'	110 040 105 130 120
   151	000107'	122 105 123 123 040
   152	000110'	101 116 104 040 104
   153	000111'	111 123 120 114 101
   154	000112'	131 040 103 117 115
   155	000113'	115 101 116 104 123
   156	000114'	015 012 104 105 114 	DELETE   DELETES SPECIFIED JOB
   157	000115'	105 124 105 040 040
   158	000116'	040 104 105 114 105
   159	000117'	124 105 123 040 123
   160	000120'	120 105 103 111 106
   161	000121'	111 105 104 040 112
   162	000122'	117 102 015 012 123 	STATUS   TYPES STATUS OF SPECIFIED JOB BELONGING TO USER
   163	000123'	124 101 124 125 123
   164	000124'	040 040 040 124 131
   165	000125'	120 105 123 040 123
   166	000126'	124 101 124 125 123
   167	000127'	040 117 106 040 123
   168	000130'	120 105 103 111 106
   169	000131'	111 105 104 040 112
   170	000132'	117 102 040 102 105
   171	000133'	114 117 116 107 111
   172	000134'	116 107 040 124 117
   173	000135'	040 125 123 105 122
   174	000136'	015 012 114 111 123 	LIST     LISTS ALL JOBS FOR THIS USER
   175	000137'	124 040 040 040 040
   176	000140'	040 114 111 123 124
   177	000141'	123 040 101 114 114
   178	000142'	040 112 117 102 123
CMD     3 JUL, 1982	MACRO %53B(1156)-1 12:06  8-Mar-85 Page 1-1
CMD	MAC	15-Oct-73 17:37

   179	000143'	040 106 117 122 040
   180	000144'	124 110 111 123 040
   181	000145'	125 123 105 122 015
   182	000146'	012 107 105 124 040 	GET      GETS ENTRY BACK FROM JOB LIST
   183	000147'	040 040 040 040 040
   184	000150'	107 105 124 123 040
   185	000151'	105 116 124 122 131
   186	000152'	040 102 101 103 113
   187	000153'	040 106 122 117 115
   188	000154'	040 112 117 102 040
   189	000155'	114 111 123 124 015
   190	000156'	012 126 105 122 123 	VERSION  TYPE VERSION NUMBER
   191	000157'	111 117 116 040 040
   192	000160'	124 131 120 105 040
   193	000161'	126 105 122 123 111
   194	000162'	117 116 040 116 125
   195	000163'	115 102 105 122 015
   196	000164'	012 121 125 111 124 	QUIT     RETURNS TO EXEC
   197	000165'	040 040 040 040 040
   198	000166'	122 105 124 125 122
   199	000167'	116 123 040 124 117
   200	000170'	040 105 130 105 103
   201	000171'	015 012 110 105 114 	HELP     TYPES THIS MESSAGE'
   202	000172'	120 040 040 040 040
   203	000173'	040 124 131 120 105
   204	000174'	123 040 124 110 111
   205	000175'	123 040 115 105 123
   206	000176'	123 101 107 105 000
   207	000177'	012 00 0 00 000212'	VERS::  TYPE    VERMS
   208	000200'	201 00 0 00 000007 	        MOVEI   R0,VERSION
   209	000201'	260 17 0 00 000000*	        PUSHJ   P,PRONUM##
   210	000202'	010 00 0 00 000721'	        TCO     [DOTCHR]
   211	000203'	201 00 0 00 000026 	        MOVEI   R0,VERPAT
   212	000204'	260 17 0 00 000201*	        PUSHJ   P,PRONUM##
   213	000205'	010 00 0 00 000705'	        TCO     [CRCHR]
   214	000206'	254 00 0 00 000000'	        JRST    CDISP
   215	000207'	200 01 0 00 000722'	QUIT::  MOVE    1,[-1]
   216	000210'	047 01 0 00 777733 	        ZAPCIR  1,
   217	000211'	047 01 0 00 000012 	        EXIT    1,
   218
   219	000212'	120 105 122 120 055 	VERMS:	ASCIZ   'PERP-10 VERSION '
   220	000213'	061 060 040 126 105
   221	000214'	122 123 111 117 116
   222	000215'	040 000 000 000 000
   223
   224	000216'	002 07 0 00 000004 	GTWD:   TCL     CT,CH           ;LOOK AT THE FIRST CHARACTER
   225	000217'	302 07 0 00 000001 	GTWD1A: CAIE    CT,AL           ;CHECK TO SEE IF IT IS ALPHA
   226	000220'	254 00 0 00 000232'	        JRST    GTWD1           ;IF NOT THEN CHECK ELSEWHERE
   227	000221'	001 07 0 00 000004 	        TCI     CT,CH           ;GET THE CHARACTER
   228	000222'	200 00 0 00 000255'	        MOVE    R0,CMDP          ;MOVE THE POINTER TO R0
   229	000223'	137 04 0 00 000000 	        DPB     CH,R0           ;PUT IT IN THE BUFFER
   230	000224'	002 07 0 00 000004 	GTWD2:  TCL     CT,CH
   231	000225'	302 07 0 00 000001 	        CAIE    CT,AL
   232	000226'	254 00 0 00 000251'	        JRST    GTWDD           ;IF NOT ALPHA THEN DONE
   233	000227'	001 07 0 00 000004 	        TCI     CT,CH
CMD     3 JUL, 1982	MACRO %53B(1156)-1 12:06  8-Mar-85 Page 1-2
CMD	MAC	15-Oct-73 17:37

   234	000230'	136 04 0 00 000000 	        IDPB    CH,R0
   235	000231'	254 00 0 00 000224'	        JRST    GTWD2           ;LOOP
   236	000232'	302 07 0 00 000002 	GTWD1:  CAIE    CT,NU           ;CHECK TO SEE IF IT IS A NUMBER
   237	000233'	254 00 0 00 000242'	        JRST    GTWDF           ;NO THEN WE FAIL
   238	000234'	260 17 0 00 000000*	        PUSHJ   P,RDDNUM##      ;READ THE DECIMAL NUMBER
   239	000235'	202 00 0 00 000267'	        MOVEM   R0,NUMBER       ;STORE THE NUMBER
   240	000236'	302 07 0 00 000001 	        CAIE    CT,AL           ;IS THE TERMINATING CHARACTER ALPHA
   241	000237'	350 00 0 17 000000 	        AOS     (P)             ;IF IT ISNT THEN GIVE SKIP RETURN
   242	000240'	476 00 0 00 000266'	        SETOM   NUMFL           ;SET THE NUMBER FLAG
   243	000241'	254 00 0 00 000217'	        JRST    GTWD1A          ;TAKE CARE OF ANY CHARACTERS
   244	000242'	302 07 0 00 000012 	GTWDF:  CAIE    CT,TE           ;IS IT A TERMINATINC CHARACTER
   245	000243'	306 07 0 00 000013 	        CAIN    CT,SP           ;OR A SPACE
   246	000244'	254 00 0 00 000247'	        JRST    GTWDF1          ;THEN TAKE CARE OF IT
   247	000245'	001 07 0 00 000004 	        TCI     CT,CH           ;READ THE CHARACTER IN
   248	000246'	263 17 0 00 000000 	        POPJ    P,                 ;THEN RETURN
   249	000247'	001 07 0 00 000004 	GTWDF1: TCI     CT,CH           ;GET IT OUT OF THE BUUFER
   250	000250'	254 00 0 00 000216'	        JRST    GTWD
   251	000251'	400 01 0 00 000000 	GTWDD:  SETZ    R1,
   252	000252'	136 01 0 00 000000 	        IDPB    R1,R0           ;ZERO THE LAST CHARACER
   253	000253'	350 00 0 17 000000 	        AOS     (P)             ;SKIP RETURN
   254	000254'	263 17 0 00 000000 	        POPJ    P,              ;RETURN
   255	000255'	35 07 0 00 000256'	CMDP:    POINT   7,CBUFF,6
   256	000256'				CBUFF:  BLOCK   10
   257	000266'	000000	000000		NUMFL:  0
   258	000267'	000000	000000		NUMBER: 0
   259			000200		STACKL= 200			;for 200B words of stack space
   260	000270'	777600	000270'		STACK:: XWD     -STACKL,.
   261	000271'				        BLOCK   STACKL
   262	000471'	000000	000000		STACKE: 0
   263
   264
   265					;COMMAND WORDS ARE SET UP AS FOLLOWS
   266					;       .........................................
   267					;       . FLAGS            |   ROUTINE ADDR     .
   268					;       .........................................
   269					;       . BYTE POINTER TO ASCIZ COMMAND         .
   270					;       .........................................
   271					        DEFINE CMD(C,R,F)
   272					        <XWD F,R
   273					        POINT 7,[ASCIZ "C'"],6>
   274	000472'				CMDTAB: BLOCK 0
   275	000472'	000000	000031'		        CMD     HELP,HELP,0
   276	000473'	35 07 0 00 000723'
   277	000474'	000000	000207'		        CMD     QUIT,QUIT,0
   278	000475'	35 07 0 00 000724'
   279	000476'	000000	000000*		        CMD     DATES,DATES##,0
   280	000477'	35 07 0 00 000725'
   281	000500'	000000	000000*		        CMD     INSERT,INS##,0
   282	000501'	35 07 0 00 000727'
   283	000502'	000000	000000*		        CMD     DISPLAY,DIS##
   284	000503'	35 07 0 00 000731'
   285	000504'	000000	000000*		        CMD     EXPRESS,EXP##,0
   286	000505'	35 07 0 00 000733'
   287	000506'	000000	000000*		        CMD     DELETE,DELETE##,0
   288	000507'	35 07 0 00 000735'
CMD     3 JUL, 1982	MACRO %53B(1156)-1 12:06  8-Mar-85 Page 1-3
CMD	MAC	15-Oct-73 17:37

   289	000510'	000000	000000*		        CMD     STATUS,STATUS##,0
   290	000511'	35 07 0 00 000737'
   291	000512'	000000	000000*		        CMD     GET,GET##,0
   292	000513'	35 07 0 00 000741'
   293	000514'	000000	000000*		        CMD     TEST,TEST##,0
   294	000515'	35 07 0 00 000742'
   295	000516'	000000	000177'		        CMD     VERSION,VERS,0
   296	000517'	35 07 0 00 000743'
   297	000520'	000000	000000*		        CMD     LIST,DOLIST##,0
   298	000521'	35 07 0 00 000745'
   299	000522'	000000	000000		        0
   300
   301					;ROUTINE TO LOCATE A WORD OUT OF A TABLE POINTED TO BY R1
   302					;
   303	000523'	260 17 0 00 000535'	LOCATE: PUSHJ   P,GWP   ;BYTE POINTER INTO R0
   304	000524'	200 01 0 00 000255'	LOC1:   MOVE    R1,CMDP ;SET UP FOR SSKE
   305	000525'	020 01 1 00 000000 	        SSKE    R1,@R0
   306	000526'	324 00 0 00 000532'	        JUMPA   LOC2
   307	000527'	260 17 0 00 000550'	        PUSHJ   P,GRP   ;FOUND NOW GET ROUTINE POINTER INTO R1
   308	000530'	350 00 0 17 000000 	        AOS     (P)     ;SKIP RETURN
   309	000531'	263 17 0 00 000000 	        POPJ    P,      ;RETURN
   310	000532'	260 17 0 00 000540'	LOC2:   PUSHJ   P,NWP   ;GET NEXT BYPE POINTER INTO R0
   311	000533'	263 17 0 00 000000 	        POPJ    P,      ;END OF LIST RETURN
   312	000534'	324 00 0 00 000524'	        JUMPA   LOC1    ;GET THE NEXT ONE
   313					;
   314					;TAKE R1 AND MAKE IT INTO START OF LIST, RETURN POINTER IN R0
   315					;
   316	000535'	202 01 0 00 000554'	GWP:    MOVEM   R1,WP   ;STORE WORD POINTER
   317	000536'	200 00 0 01 000001 	        MOVE    R0,1(R1);GET BYPE POINTER
   318	000537'	263 17 0 00 000000 	        POPJ    P,      ;RETURN
   319					;GET NEXT WORD POINTER, SKIPS IF ONE EXISTS
   320	000540'	200 01 0 00 000554'	NWP:    MOVE    R1,WP
   321	000541'	271 01 0 00 000002 	        ADDI    R1,2
   322	000542'	336 00 0 01 000000 	        SKIPN   (R1)    ;CHECK IF IT EXITSTS
   323	000543'	324 00 0 00 000546'	        JUMPA   NWPF    ;NO
   324	000544'	350 00 0 17 000000 	        AOS     (P)     ;SET UP SKIP RETURN
   325	000545'	324 00 0 00 000535'	        JUMPA   GWP
   326	000546'	400 01 0 00 000000 	NWPF:   SETZ    R1,     ;CLEAR POINTER
   327	000547'	263 17 0 00 000000 	        POPJ    P,      ;FAIL RETURN
   328					;GETS THE ROUTINE POINTER IN R1
   329					;ACCORDING TO LAST WP THAT WAS VALID
   330	000550'	550 01 1 00 000554'	GRP:    HRRZ    R1,@WP
   331	000551'	263 17 0 00 000000 	        POPJ    P,
   332					;GETS FLAGS INTO R0
   333	000552'	554 00 1 00 000554'	GFP:    HLRZ    R0,@WP
   334	000553'	263 17 0 00 000000 	        POPJ    P,
   335	000554'	000000	000000		WP:     0
   336	000555'	051 12 0 00 000000 	ESCR::  CLRBFO          ;CLEAR OUTPUT BUFFER
   337	000556'	013 00 0 00 000000 	        CLRIN           ;CLEAR INPUT BUFFER
   338	000557'	201 01 0 00 000573'	BEG::   MOVEI   R1,INTTAB
   339	000560'	505 01 0 00 000006 	        HRLI    R1,6
   340	000561'	047 01 0 00 777745 	        INTADR  R1,
   341	000562'	255 00 0 00 000000 	        JFCL
   342	000563'	474 01 0 00 000000 	        SETO    R1,
   343	000564'	505 01 0 00 000004 	        HRLI    R1,4
CMD     3 JUL, 1982	MACRO %53B(1156)-1 12:06  8-Mar-85 Page 1-4
CMD	MAC	15-Oct-73 17:37

   344	000047 01 0 00 777736 	        TINASS  R1,
   345	000566'	255 00 0 00 000000 	        JFCL
   346	000567'	205 01 0 00 420000 	        MOVSI  R1,420000
   347	000570'	047 01 0 00 777744 	        INTENB  R1,
   348	000571'	255 00 0 00 000000 	        JFCL
   349	000572'	254 00 0 00 000000'	        JRST    CDISP
   350	000573'	000000	000000		INTTAB: DEC 0,0
   351	000574'	000000	000000
   352	000575'	000000	000000		        DEC 0,0
   353	000576'	000000	000000
   354	000577'	000000	000000		        DEC 0,0
   355	000600'	000000	000000
   356	000601'	000000	000000		        0
   357	000602'	000000	000555'		        ESCR            ;WHERE ESCAPES GO TO
   358	000603'	000000	000000		        EXP     0,0
   359	000604'	000000	000000
   360	000605'	000000	000000		        EXP     0,TIMOUT##
   361	000606'	000000000000#
   362	000607'				        BLOCK   ^D62
   363			000557'		        END     BEG

NO ERRORS DETECTED

PROGRAM BREAK IS 000746
CPU TIME USED 01:29.375

10P CORE USED
CMD     3 JUL, 1982	MACRO %53B(1156)-1 12:06  8-Mar-85 Page S-1
CMD	MAC	15-Oct-73 17:37		SYMBOL TABLE

AL		000001		INS		000500'	ext	X		000021	spd
AS		000006		INTADR	047000	777745		ZAPCIR	047000	777733
AT		000010		INTENB	047000	777744
BARROW		000137		INTTAB		000573'
BEG		000557'	int	LCHAN		000001	spd
CBUFF		000256'		LFCHR		000012
CDISP		000000'	int	LOC1		000524'
CH		000004	spd	LOC2		000532'
CHARC		000020		LOCATE		000523'
CLRBFO	051500	000000		LP		000013	spd
CLRIN	013000	000000		NU		000002
CMDER		000024'		NUMBER		000267'
CMDER1		000026'		NUMFL		000266'
CMDERR		000020'		NWP		000540'
CMDP		000255'		NWPF		000546'
CMDTAB		000472'		P		000017
CO		000011		PO		000014
COLON		000072	spd	PRONUM		000204'	ext
COMCHR		000054		PU		000016
CRCHR		000015		QQ		000005
CT		000007	spd	QU		000015
DA		000017		QUIT		000207'	int
DATES		000476'	ext	R0		000000
DCR	011000	000000		R1		000001
DELETE		000506'	ext	R2		000002
DFRSW		000001'	ext	R3		000003
DIS		000502'	ext	RDDNUM		000234'	ext
DISABL	017000	000000		RDLINE	003000	000000
DOLIST		000520'	ext	RP		000003
DOTCHR		000056		SCHAN		000002	spd
ENABLE	016000	000000		SETTTY	014000	000000
EOLIT		000000	spd	SP		000013
ERROR	015000	000000		SPACE		000040
ESCR		000555'	int	SSKE	020000	000000
EX		000007		STACK		000270'	int
EXIT	047000	000012		STACKE		000471'
EXP		000504'	ext	STACKL		000200
GCD	005000	000000		STATUS		000510'	ext
GCI	004000	000000		SWLWD		000016'	ext
GET		000512'	ext	TAB	021000	000000
GFP		000552'		TCI	001000	000000
GRP		000550'		TCL	002000	000000
GTWD		000216'		TCO	010000	000000
GTWD1		000232'		TE		000012
GTWD1A		000217'		TEST		000514'	ext
GTWD2		000224'		TIMOUT		000000	ext
GTWDD		000251'		TINASS	047000	777736
GTWDF		000242'		TYPE	012000	000000
GTWDF1		000247'		VERMS		000212'
GWP		000535'		VERPAT		000026	spd
HELP		000031'	int	VERS		000177'	int
HELPM		000033'		VERSIO		000007	spd
I		000010		WCD	007000	000000
IC		000000		WCI	006000	000000
IG		000004		WP		000554'

CMD     3 JUL, 1982	MACRO %53B(1156)-1 12:06  8-Mar-85 Page 1
COM	MAC	15-Oct-73 17:37


Symbol cross reference

AL	    68#	   225	   231	   240
AS	    68#
AT	    68#
BARROW	    24#
BEG	   338#	   363
CBUFF	    91	   255	   256#
CDISP	    74#	    94	    99	   105	   214	   349
CH	     9#	    88	   224	   227	   229	   230	   233	   234	   247	   249
CHARC	    68#	    68
CMDER	    81	    95#
CMDER1	    83	    97#
CMDERR	    86	    91#
CMDP	   228	   255#	   304
CMDTAB	    84	   274#
CO	    68#
COLON	    72#	    79
COMCHR	    19#
CRCHR	    21#	    78	   213
CT	    10#	    87	    88	    95	   224	   225	   227	   230	   231	   233	   236	   240	   244	   245
	   247	   249
DA	    68#
DATES	   279
DELETE	   287
DFRSW	    75#	    76
DIS	   283
DOLIST	   297
DOTCHR	    18#	   210
EOLIT	    23#
ESCR	   336#	   357
EX	    68#
EXP	   285
GET	   291
GFP	   333#
GRP	   307	   330#
GTWD	    80	   224#	   250
GTWD1	   226	   236#
GTWD1A	   225#	   243
GTWD2	   230#	   235
GTWDD	   232	   251#
GTWDF	   237	   244#
GTWDF1	   246	   249#
GWP	   303	   316#	   325
HELP	    96	   104#	   275
HELPM	   104	   106#
I	    11#
IC	    68#
IG	    68#
INS	   281
INTTAB	   338	   350#
LCHAN	    15#
CMD     3 JUL, 1982	MACRO %53B(1156)-1 12:06  8-Mar-85 Page 1
COM	MAC	15-Oct-73 17:37


Symbol cross reference

LFCHR	    20#
LOC1	   304#	   312
LOC2	   306	   310#
LOCATE	    85	   303#
LP	    12#
NU	    68#	   236
NUMBER	   239	   258#
NUMFL	    77	    82	   242	   257#
NWP	   310	   320#
NWPF	   323	   326#
P	    13#	    74	    80	    85	   209	   212	   238	   241	   248	   253	   254	   303	   307	   308
	   309	   310	   311	   318	   324	   327	   331	   334
PO	    68#
PRONUM	   209	   212
PU	    68#
QQ	    68#
QU	    68#	    95
QUIT	   215#	   277
R0	     5#	   208	   211	   228	   229	   234	   239	   252	   305	   317	   333
R1	     6#	    84	    90	   251	   252	   304	   305	   316	   317	   320	   321	   322	   326	   330
	   338	   339	   340	   342	   343	   344	   346	   347
R2	     7#
R3	     8#
RDDNUM	   238
RP	    68#
SCHAN	    16#
SP	    68#	   245
SPACE	    22#
STACK	    74	   260#
STACKE	   262#
STACKL	   259#	   260	   261
STATUS	   289
SWLWD	    89
TE	    68#	    87	   244
TEST	   293
TIMOUT	   360
UUOFLG	    26	    31	    32	    33	    34	    35	    36	    37	    38	    39	    40	    41	    42	    43
	    44	    45	    46	    47
VERMS	   207	   219#
VERPAT	     3#	   211
VERS	   207#	   295
VERSIO	     2#	   208
WP	   316	   320	   330	   333	   335#
X	    30#	    31	    31#	    32	    32#	    33	    33#	    34	    34#	    35	    35#	    36	    36#	    37
	    37#	    38	    38#	    39	    39#	    40	    40#	    41	    41#	    42	    42#	    43	    43#	    44
	    44#	    45	    45#	    46	    46#	    47	    47#
CMD     3 JUL, 1982	MACRO %53B(1156)-1 12:06  8-Mar-85 Page 1
COM	MAC	15-Oct-73 17:37


Macro/Opdef cross reference

CHARDO	    49#	    68
CHRDEF	    66#	    68
CLRBFO	   336
CLRIN	    41#	    93	    98	   337
CMD	   272#	   275	   277	   279	   281	   283	   285	   287	   289	   291	   293	   295	   297
DCR	    39#
DISABL	    45#
ENABLE	    44#
ERROR	    43#
EXIT	   217
GCD	    35#
GCI	    34#
INTADR	   340
INTENB	   347
OPD	    27#	    31	    32	    33	    34	    35	    36	    37	    38	    39	    40	    41	    42	    43
	    44	    45	    46	    47
RDLINE	    33#
SETTTY	    42#
SSKE	    46#	   305
TAB	    47#
TCI	    31#	    88	   227	   233	   247	   249
TCL	    32#	   224	   230
TCO	    38#	    78	    79	   210	   213
TINASS	   344
TYPE	    40#	    91	    92	    97	   104	   207
WCD	    37#
WCI	    36#
ZAPCIR	   216]Yç