DAT             Dec 13, 1980	MACRO %53B(1156)-1 12:06  8-Mar-85 Page 1
COM	MAC	15-Oct-73 17:37

     1					;COM	Nov 5, 1982
     2			000007		VERSION==7
     3			000026		VERPAT==26
     4
     5			000000		R0=     0
     6			000001		R1=     1
     7			000002		R2=     2
     8			000003		R3=     3
     9			000004		CH==    4                       ;CURRENT CHARACTER
    10			000007		CT==    7                       ;CURRENT CHARACTER'S TYPE
    11			000010		I=10
    12			000013		LP==    13
    13			000017		P=      17
    14
    15			000001		LCHAN== 1			;CHANNEL FOR READING LUD.SYS
    16			000002		SCHAN== 2			;CHANNEL FOR READING PERP.SYS
    17
    18			000056		DOTCHR= 56
    19			000054		COMCHR= 54
    20			000012		LFCHR=  12
    21			000015		CRCHR=  15
    22			000040		SPACE=  40
    23			000000		EOLIT== 0
    24			000137		BARROW=137
    25					        SALL                    ;SUPPRESS ALL MACRO EXPANSIONS
    26					IFDEF   UUOFLG  <UUOTAB: BLOCK 0>
    27					DEFINE  OPD     (A,B) <X==X+1
    28					OPDEF A [X*1000000000]
    29					IFDEF UUOFLG<JRST B>>
    30			000000		X==0
    31					        OPD     TCI,TCIUUO;    001
    32					        OPD     TCL,TCLUUO;    002
    33					        OPD     RDLINE,RDUUO;  003
    34					        OPD     GCI,GCIUUO;    004
    35					        OPD     GCD,GCDUUO;    005
    36					        OPD     WCI,WCIUUO;    006
    37					        OPD     WCD,WCDUUO;    007
    38					        OPD     TCO,TCOUU ;    010
    39					        OPD     DCR,DCRUUO;    011
    40					        OPD     TYPE,TYPUUO;   012
    41					        OPD     CLRIN,CLRUUO;  013
    42					        OPD     SETTTY,TTYUUO; 014
    43					        OPD     ERROR,ERRUUO;  015
    44					        OPD     ENABLE,ENUUO;  016
    45					        OPD     DISABL,DISUUO; 017
    46					        OPD     SSKE,SSKUUO;   020
    47					        OPD     TAB,TABUUO;    021
DAT             Dec 13, 1980	MACRO %53B(1156)-1 12:06  8-Mar-85 Page 2
CHR	MAC	15-Oct-73 17:37

    48					;CHR    SEP 17, 1974
    49					DEFINE  CHARDO(A) <CHARC=0
    50					A'IC;;      ILLEGAL CHARACTER
    51					A'AL;;      ALPHABETIC CHARACTER
    52					A'NU;;      NUMERIC CHARACTER
    53					A'RP;;      LEAVE USER MODE ")"
    54					A'IG;;      IGNORED CHARACTER
    55					A'QQ;;      ENTER USER NAME MODE "("
    56					A'AS;;      ALL FILES CHAR (*)
    57					A'EX;;      FILE EXTENSION DELIMITER (.)
    58					A'AT;;      COMMAND FILE CHAR (@)
    59					A'CO;;      COMMA
    60					A'TE;;      LINE TERMINATION (CR LF)
    61					A'SP;;      SPACE
    62					A'PO;;      POUND SIGN (#)
    63					A'QU;;      QUESTION MARK (?)
    64					A'PU;;      PUNCTUATION ALLOWED IN USER NAMES (/ ' $)
    65					A'DA>;      DASH (-)
    66					DEFINE  CHRDEF(C) <C=CHARC
    67					CHARC=CHARC+1>
    68			000020		        CHARDO  <CHRDEF >
DAT             Dec 13, 1980	MACRO %53B(1156)-1 12:06  8-Mar-85 Page 3
CHR	MAC	15-Oct-73 17:37

    69
    70					        TITLE   DAT             Dec 13, 1980
    71					;THE FOLLOWING ARE ROUTINES THAT ARE USED IN THE DATE COMMAND
    72					;TO GENERATE THE PROPER BIT CONFIGURATIONS
    73					;
    74					;       DAY OF THE WEEK
    75	000000'	260 17 0 00 000020'	DWK:    PUSHJ   P,DWKS
    76	000001'	202 01 0 00 001040'	        MOVEM   R1,T1#
    77	000002'	200 01 0 00 001034'	        MOVE    R1,CCM#
    78	000003'	242 01 0 00 777761 	        LSH     R1,-17
    79	000004'	434 01 0 00 001040'	        OR      R1,T1
    80	000005'	434 01 0 00 001044'	        OR      R1,[3B14]
    81	000006'	202 01 1 00 000013 	        MOVEM   R1,@LP
    82	000007'	331 00 0 00 001037'	        SKIPL   NUMSW#
    83	000010'	263 17 0 00 000000 	        POPJ    P,
    84	000011'	200 01 0 00 001035'	        MOVE    R1,ESW#
    85	000012'	312 01 0 00 001045'	        CAME    R1,[-2]
    86	000013'	263 17 0 00 000000 	        POPJ    P,
    87	000014'	200 01 1 00 000013 	        MOVE    R1,@LP
    88	000015'	434 01 0 00 001046'	        OR      R1,[2B20]
    89	000016'	202 01 1 00 000013 	        MOVEM   R1,@LP          ;STORE WITH ONCE ONLY BIT ON
    90	000017'	263 17 0 00 000000 	        POPJ    P,
    91					;
    92	000020'	200 01 1 00 000013 	DWKS:   MOVE    R1,@LP
    93	000021'	332 00 0 00 000001 	        SKIPE   R1
    94	000022'	260 17 0 00 000031'	        PUSHJ   P,DWKS1
    95	000023'	250 01 0 00 001032'	        EXCH    R1,NUMBER
    96	000024'	337 00 0 00 000001 	        SKIPG   R1
    97	000025'	201 01 0 00 000001 	        MOVEI   R1,1
    98	000026'	242 01 0 00 000003 	        LSH     R1,3
    99	000027'	263 17 0 00 000000 	        POPJ    P,
   100	000030'	015 00 0 00 001047'	DWKE:   ERROR   [ASCIZ 'CONFLICTING DAYS IN YOUR EXPRESSION']
   101	000031'	350 00 0 00 000013 	DWKS1:  AOS     LP
   102	000032'	400 01 0 00 000000 	        SETZ    R1,
   103	000033'	263 17 0 00 000000 	        POPJ    P,
   104
   105
   106					;MONTH FOR A DATE
   107	000034'	200 01 1 00 000013 	SMON:   MOVE    R1,@LP
   108	000035'	332 00 0 00 000001 	        SKIPE   R1
   109	000036'	015 00 0 00 001057'	SME:    ERROR   [ASCIZ 'DATE USED WITHOUT A VALID SEPARATOR']
   110	000037'	260 17 0 00 000053'	        PUSHJ   P,GD
   111	000040'	434 01 0 00 001067'	        OR      R1,[2B14]
   112	000041'	202 01 1 00 000013 	        MOVEM   R1,@LP
   113	000042'	200 01 0 00 001043'	        MOVE    R1,TC#
   114	000043'	302 01 0 00 000012 	        CAIE    R1,LFCHR
   115	000044'	254 00 0 00 000047'	        JRST    .+3
   116	000045'	260 17 0 00 000260'	        PUSHJ   P,OR
   117	000046'	263 17 0 00 000000 	        POPJ    P,
   118	000047'	302 01 0 00 000054 	        CAIE    R1,COMCHR
   119	000050'	263 17 0 00 000000 	        POPJ    P,
   120	000051'	260 17 0 00 000260'	        PUSHJ   P,OR
   121	000052'	263 17 0 00 000000 	        POPJ    P,
   122
   123					;GET DATE
DAT             Dec 13, 1980	MACRO %53B(1156)-1 12:06  8-Mar-85 Page 1
DATES	MAC	15-Oct-73 17:37

   124	000053'	200 01 0 00 001034'	GD:     MOVE    R1,CCM
   125	000054'	404 01 0 00 001070'	        AND     R1,[77B20]
   126	000055'	246 01 0 00 777766 	        LSHC    R1,-12
   127	000056'	302 01 0 00 000740 	        CAIE    R1,740
   128	000057'	254 00 0 00 000062'	        JRST    .+3
   129	000060'	200 01 0 00 001071'	        MOVE    R1,[17001]
   130	000061'	263 17 0 00 000000 	        POPJ    P,
   131	000062'	202 01 0 00 001040'	        MOVEM   R1,T1
   132	000063'	260 17 0 00 000104'	        PUSHJ   P,GDS
   133	000064'	307 01 0 00 000037 	        CAIG    R1,^D31
   134	000065'	337 00 0 00 000001 	        SKIPG   R1
   135	000066'	015 00 0 00 001072'	GDE1:   ERROR   [ASCIZ 'DATE MUST BE IN FORM MONTH DAY,YEAR']
   136	000067'	272 01 0 00 001040'	        ADDM    R1,T1
   137	000070'	260 17 0 00 000104'	        PUSHJ   P,GDS
   138	000071'	303 01 0 00 000144 	        CAILE   R1,^D100
   139	000072'	275 01 0 00 003554 	        SUBI    R1,^D1900
   140	000073'	275 01 0 00 000110 	        SUBI    R1,^D72
   141	000074'	303 01 0 00 000016 	        CAILE   R1,16
   142	000075'	015 00 0 00 001102'	        ERROR   [ASCIZ 'DATE MUST BE BEFORE 1987']
   143	000076'	335 00 0 00 000001 	        SKIPGE  R1
   144	000077'	015 00 0 00 001107'	        ERROR   [ASCIZ 'DATE MUST BE AFTER 1972']
   145	000100'	400 02 0 00 000000 	        SETZ    R2,
   146	000101'	246 01 0 00 000011 	        LSHC    R1,11
   147	000102'	434 01 0 00 001040'	        OR      R1,T1
   148	000103'	263 17 0 00 000000 	        POPJ    P,
   149	000104'	260 17 0 00 000401'	GDS:    PUSHJ   P,GWD
   150	000105'	254 00 0 00 000066'	        JRST    GDE1
   151
   152	000106'	260 17 0 00 000447'	        PUSHJ   P,SLKUP
   153	000107'	302 00 0 00 000066'	        CAIE    GDE1
   154	000110'	302 01 0 00 000604'	        CAIE    R1,NUM
   155	000111'	254 00 0 00 000066'	        JRST    GDE1
   156	000112'	400 01 0 00 000000 	        SETZ    R1,
   157	000113'	250 01 0 00 001032'	        EXCH    R1,NUMBER
   158	000114'	263 17 0 00 000000 	        POPJ    P,
   159					;
   160					;GET A NUMBER
   161	000115'	350 00 0 00 001037'	SNUM:   AOS     NUMSW
   162	000116'	200 01 0 00 001032'	        MOVE    R1,NUMBER
   163	000117'	332 00 0 00 000001 	        SKIPE   R1
   164	000120'	015 00 0 00 001114'	        ERROR   [ASCIZ 'TWO NUMBER EXPRESSIONS TOGETHER']
   165	000121'	200 01 0 00 001034'	        MOVE    R1,CCM
   166	000122'	242 01 0 00 777761 	        LSH     R1,-17
   167	000123'	202 01 0 00 001032'	        MOVEM   R1,NUMBER
   168	000124'	263 17 0 00 000000 	        POPJ    P,
   169
   170	000125'	260 17 0 00 000020'	DAYS:   PUSHJ   P,DWKS
   171	000126'	434 01 0 00 001044'	        OR      R1,[3B14]
   172	000127'	202 01 1 00 000013 	        MOVEM   R1,@LP
   173	000130'	263 17 0 00 000000 	        POPJ    P,
   174
   175	000131'	400 01 0 00 000000 	MONTHS: SETZ    R1,
   176	000132'	250 01 0 00 001032'	        EXCH    R1,NUMBER
   177	000133'	337 00 0 00 000001 	        SKIPG   R1
   178	000134'	201 01 0 00 000001 	        MOVEI   R1,1
DAT             Dec 13, 1980	MACRO %53B(1156)-1 12:06  8-Mar-85 Page 1-1
DATES	MAC	15-Oct-73 17:37

   179	000135'	242 01 0 00 000014 	        LSH     R1,14
   180	000136'	202 01 0 00 001040'	        MOVEM   R1,T1
   181	000137'	200 01 1 00 000013 	        MOVE    R1,@LP
   182	000140'	332 00 0 00 000001 	        SKIPE   R1
   183	000141'	254 00 0 00 000150'	        JRST    MON1
   184	000142'	200 01 0 00 001040'	        MOVE    R1,T1
   185	000143'	434 01 0 00 001044'	MON2:   OR      R1,[3B14]
   186	000144'	202 01 1 00 000013 	        MOVEM   R1,@LP
   187	000145'	200 01 0 00 001045'	        MOVE    R1,[-2]
   188	000146'	202 01 0 00 001035'	        MOVEM   R1,ESW
   189	000147'	263 17 0 00 000000 	        POPJ    P,
   190	000150'	612 01 0 00 001123'	MON1:   TDNE    R1,[170000]
   191	000151'	015 00 0 00 001124'	        ERROR   [ASCIZ 'NO VALID SEPERATOR BETWEEN MONTH EXPRESSIONS']
   192	000152'	434 01 0 00 001040'	        OR      R1,T1
   193	000153'	331 00 0 00 001035'	        SKIPL   ESW
   194	000154'	015 00 0 00 001135'	        ERROR   [ASCIZ '$UNIPLIMENTED SYNTAX (EVERY...EVERY)']
   195	000155'	254 00 0 00 000143'	        JRST    MON2
   196
   197					;REFERENCE
   198	000156'	200 01 0 00 001034'	SREF:   MOVE    R1,CCM
   199	000157'	202 01 0 00 001042'	        MOVEM   R1,T4#
   200	000160'	404 01 0 00 001145'	        AND     R1,[7B17]
   201	000161'	202 01 0 00 001041'	SREF1:  MOVEM   R1,T3#
   202	000162'	200 01 1 00 000013 	SREF02: MOVE    R1,@LP
   203	000163'	332 00 0 00 000001 	        SKIPE   R1
   204	000164'	254 00 0 00 000177'	        JRST    SREF2
   205	000165'	260 17 0 00 000201'	SREF0:  PUSHJ   P,GDATW
   206	000166'	200 02 0 00 001042'	        MOVE    R2,T4
   207	000167'	612 02 0 00 001146'	        TDNE    R2,[1B20]
   208	000170'	275 01 0 00 000001 	        SUBI    R1,1
   209	000171'	434 01 0 00 001041'	        OR      R1,T3
   210	000172'	434 01 0 00 001147'	        OR      R1,[1B14]
   211	000173'	202 01 1 00 000013 	        MOVEM   R1,@LP
   212	000174'	350 00 0 00 000013 	        AOS     LP
   213	000175'	402 00 1 00 000013 	        SETZM   @LP
   214	000176'	263 17 0 00 000000 	        POPJ    P,
   215	000177'	350 00 0 00 000013 	SREF2:  AOS     LP
   216	000200'	254 00 0 00 000162'	        JRST    SREF02
   217
   218	000201'	260 17 0 00 000401'	GDATW:  PUSHJ   P,GWD
   219	000202'	254 00 0 00 000066'	        JRST    GDE1
   220	000203'	260 17 0 00 000447'	        PUSHJ   P,SLKUP
   221	000204'	254 00 0 00 000201'	        JRST    .-3
   222	000205'	302 03 0 00 000034'	        CAIE    R3,SMON
   223	000206'	254 00 0 00 000066'	        JRST    GDE1
   224	000207'	260 17 0 00 000053'	        PUSHJ   P,GD
   225	000210'	263 17 0 00 000000 	        POPJ    P,
   226
   227					;AFTER BEFORE
   228	000211'	200 01 1 00 000013 	RLDAY:  MOVE    R1,@LP
   229	000212'	332 00 0 00 000001 	        SKIPE   R1
   230	000213'	254 00 0 00 000215'	        JRST    RLD
   231	000214'	015 00 0 00 001150'	        ERROR   [ASCIZ 'AFTER-BEFORE MUST BE PRECEEDED BY A DAY EXPRESSION']
   232	000215'	404 01 0 00 001163'	RLD:    AND     R1,[73B17]
   233	000216'	312 01 0 00 001044'	        CAME    R1,[3B14]
DAT             Dec 13, 1980	MACRO %53B(1156)-1 12:06  8-Mar-85 Page 1-2
DATES	MAC	15-Oct-73 17:37

   234	000217'	254 00 0 00 000221'	        JRST    .+2
   235	000220'	254 00 0 00 000223'	        JRST    .+3
   236	000221'	312 01 0 00 001067'	        CAME    R1,[2B14]
   237	000222'	015 00 0 00 001164'	RLDE:   ERROR   [ASCIZ 'AFTER-BEFORE INCONSISTENCY']
   238	000223'	200 01 0 00 001034'	        MOVE    R1,CCM
   239	000224'	404 01 0 00 001172'	        AND     R1,[3B17]
   240	000225'	436 01 1 00 000013 	        ORM     R1,@LP
   241	000226'	350 00 0 00 000013 	        AOS     LP
   242	000227'	403 01 1 00 000013 	        SETZB   R1,@LP
   243	000230'	263 17 0 00 000000 	        POPJ    P,
   244
   245					;SETS INITIAL FLAG WORD
   246	000231'	200 01 1 00 000013 	SFLAG:  MOVE    R1,@LP
   247	000232'	332 00 0 00 000001 	        SKIPE   R1
   248	000233'	254 00 0 00 000243'	        JRST    SFLGE
   249	000234'	200 01 0 00 001034'	        MOVE    R1,CCM
   250	000235'	404 01 0 00 001145'	        AND     R1,[7B17]
   251	000236'	434 01 0 00 001147'	        OR      R1,[1B14]
   252	000237'	202 01 1 00 000013 	        MOVEM   R1,@LP
   253	000240'	350 00 0 00 000013 	        AOS     LP
   254	000241'	403 01 1 00 000013 	        SETZB   R1,@LP
   255	000242'	263 17 0 00 000000 	        POPJ    P,
   256	000243'	350 00 0 00 000013 	SFLGE:  AOS     LP
   257	000244'	254 00 0 00 000231'	        JRST    SFLAG
   258
   259					;STARTING
   260	000245'	331 00 0 00 000000*	STARTI: SKIPL   SDATE
   261	000246'	254 00 0 00 000255'	        JRST    SST             ;ALREADY HAVE ONE DATE
   262	000247'	200 01 0 00 000013 	        MOVE    R1,LP
   263	000250'	302 01 0 00 000000*	        CAIE    R1,LIST##
   264	000251'	254 00 0 00 000255'	        JRST    SST
   265	000252'	260 17 0 00 000201'	        PUSHJ   P,GDATW
   266	000253'	202 01 0 00 000245*	        MOVEM   R1,SDATE
   267	000254'	263 17 0 00 000000 	        POPJ    P,
   268	000255'	200 01 0 00 001173'	SST:    MOVE    R1,[5B17]
   269	000256'	202 01 0 00 001042'	        MOVEM   R1,T4
   270	000257'	254 00 0 00 000161'	        JRST    SREF1
   271
   272					;OR
   273	000260'	200 01 1 00 000013 	OR:     MOVE    R1,@LP
   274	000261'	336 00 0 00 000001 	        SKIPN   R1
   275	000262'	015 00 0 00 001174'	        ERROR   [ASCIZ 'CONNECTING WORD WITHOUT DAY OR DATE BEFORE']
   276	000263'	260 17 0 00 000265'	        PUSHJ   P,ENGRP
   277	000264'	263 17 0 00 000000 	        POPJ    P,
   278
   279	000265'	476 00 0 00 001037'	ENGRP:  SETOM   NUMSW
   280	000266'	200 01 0 00 001045'	        MOVE    R1,[-2]
   281	000267'	202 01 0 00 001035'	        MOVEM   R1,ESW
   282	000270'	200 01 0 00 001032'	        MOVE    R1,NUMBER
   283	000271'	332 00 0 00 000001 	        SKIPE   R1
   284	000272'	254 00 0 00 000302'	        JRST    ENGE1
   285	000273'	331 00 0 00 001033'	        SKIPL   ANDSW#
   286	000274'	254 00 0 00 000300'	        JRST    ENGE
   287	000275'	350 00 0 00 000013 	        AOS     LP
   288	000276'	403 01 1 00 000013 	        SETZB   R1,@LP
DAT             Dec 13, 1980	MACRO %53B(1156)-1 12:06  8-Mar-85 Page 1-3
DATES	MAC	15-Oct-73 17:37

   289	000277'	263 17 0 00 000000 	        POPJ    P,
   290	000300'	476 00 0 00 001033'	ENGE:   SETOM   ANDSW
   291					        ERROR   [ASCIZ 'CANNOT USE "AND" BETWEEN DAY EXPRESSIONS WITHOUT TERMINATING THE GRO
   292	000301'	015 00 0 00 001205'	UP EXPRESSION WITH A REFERENCE DATE']
   293	000302'	402 00 0 00 001032'	ENGE1:  SETZM   NUMBER
   294	000303'	015 00 0 00 001232'	        ERROR   [ASCIZ 'NUMBER OF WHAT$ (INAPPROPRIATE NUMBER USED)']
   295
   296	000304'	350 00 0 00 001035'	EVERY:  AOS     ESW
   297	000305'	263 17 0 00 000000 	        POPJ    P,
   298
   299	000306'	200 01 1 00 000013 	END:    MOVE    R1,@LP
   300	000307'	332 00 0 00 000001 	        SKIPE   R1
   301	000310'	015 00 0 00 001243'	        ERROR   [ASCIZ 'CANNOT USE MONTHS IN RELATION TO END OF MONTH']
   302	000311'	200 03 0 00 000013 	        MOVE    R3,LP
   303	000312'	200 01 0 03 777777 	        MOVE    R1,-1(R3)
   304	000313'	612 01 0 00 001123'	        TDNE    R1,[170000]
   305	000314'	254 00 0 00 000322'	        JRST    END1
   306	000315'	370 00 0 00 000013 	        SOS     LP
   307	000316'	434 01 0 00 001255'	        OR      R1,[4B17]
   308	000317'	612 01 0 00 001256'	        TDNE    R1,[2B17]
   309	000320'	430 01 0 00 001256'	        XOR     R1,[2B17]       ;REMOVE IT IF IT WERE THERE
   310	000321'	202 01 1 00 000013 	        MOVEM   R1,@LP
   311	000322'	200 01 0 00 001257'	END1:   MOVE    R1,[34000010]    ;FOR END OF MONTH
   312	000323'	200 01 1 00 000013 	        MOVE    R1,@LP
   313	000324'	263 17 0 00 000000 	        POPJ    P,
   314
   315
   316	000325'	400 02 0 00 000000 	WEK:    SETZ    R2,
   317	000326'	200 01 0 02 000335'	        MOVE    R1,WEKT(R2)
   318	000327'	202 01 1 00 000013 	        MOVEM   R1,@LP
   319	000330'	350 00 0 00 000013 	        AOS     LP
   320	000331'	350 00 0 00 000002 	        AOS     R2
   321	000332'	307 02 0 00 000004 	        CAIG    R2,4
   322	000333'	254 00 0 00 000326'	        JRST    .-5
   323	000334'	263 17 0 00 000000 	        POPJ    P,
   324
   325	000335'	000030	000012		WEKT:   30000012
   326	000336'	000030	000013		        30000013
   327	000337'	000030	000014		        30000014
   328	000340'	000030	000015		        30000015
   329	000341'	000030	000016		        30000016
   330	000342'	000000	000000		        00000000
   331					;LAST
   332	000343'	260 17 0 00 000401'	LAST:   PUSHJ   P,GWD
   333	000344'	015 00 0 00 001260'	LASTE:  ERROR   [ASCIZ 'LAST MUST BE FOLLOWED BY DAY OF WEEK OR DAY']
   334	000345'	260 17 0 00 000447'	        PUSHJ   P,SLKUP
   335	000346'	254 00 0 00 000344'	        JRST    LASTE
   336	000347'	306 03 0 00 000000'	        CAIN    R3,DWK
   337	000350'	254 00 0 00 000353'	           LAST1
   338	000351'	302 01 0 00 000125'	        CAIE    R1,DAYS
   339	000352'	254 00 0 00 000344'	        JRST    LASTE
   340	000353'	350 00 0 00 001037'	LAST1:  AOS     NUMSW
   341	000354'	405 03 0 00 037777 	        ANDI    R3,37777
   342	000355'	260 17 1 00 000003 	        PUSHJ   P,@R3
   343	000356'	434 01 0 00 001255'	        OR      R1,[4B17]
DAT             Dec 13, 1980	MACRO %53B(1156)-1 12:06  8-Mar-85 Page 1-4
DATES	MAC	15-Oct-73 17:37

   344	000357'	202 01 1 00 000013 	        MOVEM   R1,@LP
   345	000360'	263 17 0 00 000000 	        POPJ    P,
   346					;
   347	000361'	200 01 1 00 000013 	TODAY:  MOVE    R1,@LP
   348	000362'	332 00 0 00 000001 	        SKIPE   R1
   349	000363'	254 00 0 00 000036'	        JRST    SME
   350	000364'	260 17 0 00 000512'	        PUSHJ   P,BRS176
   351	000365'	434 01 0 00 001067'	        OR      R1,[2B14]
   352	000366'	202 01 1 00 000013 	        MOVEM   R1,@LP
   353	000367'	263 17 0 00 000000 	        POPJ    P,
   354	000370'	200 01 1 00 000013 	TOMRW:  MOVE    R1,@LP
   355	000371'	332 00 0 00 000001 	        SKIPE   R1
   356	000372'	254 00 0 00 000036'	        JRST    SME
   357	000373'	260 17 0 00 000512'	        PUSHJ   P,BRS176
   358	000374'	340 01 0 00 000000 	        AOJ     R1,
   359	000375'	260 17 0 00 000526'	        PUSHJ   P,REDATE
   360	000376'	434 01 0 00 001067'	        OR      R1,[2B14]
   361	000377'	202 01 1 00 000013 	        MOVEM   R1,@LP
   362	000400'	263 17 0 00 000000 	        POPJ    P,
   363	000401'	331 00 0 00 001031'	GWD::   SKIPL   SWLWD
   364	000402'	254 00 0 00 000436'	        JRST    GWD4
   365	000403'	350 00 0 17 000000 	        AOS     (P)
   366	000404'	402 00 0 00 000442'	GWD0:   SETZM   CURW
   367	000405'	200 15 0 00 001271'	        MOVE    15,[POINT 7,CURW,6]
   368	000406'	001 07 0 00 000004 	        TCI     CT,CH
   369	000407'	306 07 0 00 000013 	        CAIN    CT,SP           ;IS IT A SPACE
   370	000410'	254 00 0 00 000404'	        JRST    GWD0            ;IF SO KEEP GETTING CHARS
   371	000411'	306 04 0 00 000015 	        CAIN    CH,CRCHR
   372	000412'	254 00 0 00 000404'	        JRST    GWD0
   373	000413'	302 07 0 00 000007 	        CAIE    CT,EX
   374	000414'	254 00 0 00 000417'	        JRST    .+3
   375	000415'	370 00 0 17 000000 	        SOS     (P)             ;GET RID OF SKIP RETURN
   376	000416'	254 00 0 00 000436'	        JRST    GWD4
   377	000417'	202 04 0 00 001036'	        MOVEM   CH,FCH# ;STORE THE FIRST CHARACTER
   378	000420'	137 04 0 00 000015 	GWD2:   DPB     CH,15
   379	000421'	133 00 0 00 000015 	        IBP     15
   380	000422'	001 07 0 00 000004 	        TCI     CT,CH
   381	000423'	306 07 0 00 000013 	        CAIN    CT,SP           ;IS IT A SPACE
   382	000424'	254 00 0 00 000436'	        JRST    GWD4
   383	000425'	306 07 0 00 000012 	        CAIN    CT,TE           ;CARRIAGE RETURN OR LINE FEED
   384	000426'	254 00 0 00 000436'	        JRST    GWD4
   385	000427'	306 07 0 00 000011 	        CAIN    CT,CO           ;COMMA
   386	000430'	254 00 0 00 000436'	        JRST    GWD4
   387	000431'	306 07 0 00 000017 	        CAIN    CT,DA           ;DASH
   388	000432'	254 00 0 00 000436'	        JRST    GWD4
   389	000433'	302 07 0 00 000007 	        CAIE    CT,EX           ;PERIOD
   390	000434'	254 00 0 00 000420'	        JRST    GWD2
   391	000435'	202 04 0 00 001031'	GWD3:   MOVEM   CH,SWLWD
   392	000436'	202 04 0 00 001043'	GWD4:   MOVEM   CH,TC
   393	000437'	200 04 0 00 001056'	        MOVE    CH,[EOLIT]
   394	000440'	137 04 0 00 000015 	        DPB     CH,15
   395	000441'	263 17 0 00 000000 	        POPJ    P,
   396	000442'				CURW:   BLOCK   5
   397
   398	000447'	201 05 0 00 000605'	SLKUP:  MOVEI   5,STAB#
DAT             Dec 13, 1980	MACRO %53B(1156)-1 12:06  8-Mar-85 Page 1-5
DATES	MAC	15-Oct-73 17:37

   399	000450'	200 06 0 00 001271'	LKUP::  MOVE    6,[POINT 7,CURW,6]
   400	000451'	200 01 0 00 001036'	        MOVE    R1,FCH
   401	000452'	307 01 0 00 000071 	        CAIG    R1,71           ;IS IT GREATER THAN 9
   402	000453'	305 01 0 00 000060 	        CAIGE   R1,60           ;OR 0
   403	000454'	254 00 0 00 000473'	        JRST    LK              ;NOT A NUMBER
   404					        ;                       PROCESS A NUMBER
   405	000455'	275 01 0 00 000060 	        SUBI    R1,60
   406	000456'	202 01 0 00 001032'	        MOVEM   R1,NUMBER
   407	000457'	134 01 0 00 000006 	LK7:    ILDB    1,6                     ;GET THE NEXT CHAR
   408	000460'	307 01 0 00 000071 	        CAIG    R1,71
   409	000461'	305 01 0 00 000060 	        CAIGE   R1,60
   410	000462'	254 00 0 00 000470'	        JRST    LK6
   411	000463'	275 01 0 00 000060 	        SUBI    R1,60
   412	000464'	250 01 0 00 001032'	        EXCH    R1,NUMBER
   413	000465'	221 01 0 00 000012 	        IMULI   R1,12
   414	000466'	272 01 0 00 001032'	        ADDM    R1,NUMBER
   415	000467'	254 00 0 00 000457'	        JRST    LK7
   416	000470'	201 03 0 00 000604'	LK6:    MOVEI   R3,NUM
   417	000471'	200 01 0 00 000003 	        MOVE    R1,R3
   418	000472'	254 00 0 00 000510'	        JRST    SKIPRT
   419	000473'	200 01 0 00 000006 	LK:     MOVE    R1,6
   420	000474'	200 02 1 00 000005 	        MOVE    R2,@5
   421	000475'	020 01 1 00 000002 	        SSKE    R1,@2
   422	000476'	254 00 0 00 000504'	        JRST    LKN
   423	000477'	200 03 0 05 000001 	        MOVE    R3,1(5)
   424	000500'	200 01 0 00 000003 	        MOVE    R1,R3
   425	000501'	202 01 0 00 001034'	        MOVEM   R1,CCM
   426	000502'	405 03 0 00 037777 	        ANDI    R3,37777
   427	000503'	254 00 0 00 000510'	        JRST    SKIPRT
   428	000504'	271 05 0 00 000002 	LKN:    ADDI    5,2
   429	000505'	336 00 1 00 000005 	        SKIPN   @5
   430	000506'	263 17 0 00 000000 	        POPJ    P,
   431	000507'	254 00 0 00 000473'	        JRST    LK
   432	000510'	350 00 0 17 000000 	SKIPRT: AOS     (P)
   433	000511'	263 17 0 00 000000 	        POPJ    P,
   434
   435
   436	000512'	047 01 0 00 000014 	BRS176:  DATE    R1,             ;GET THE DATE
   437	000513'	271 01 0 00 000001 	        ADDI    R1,1            ;TO GET THE RIGHT NUMBER
   438	000514'	231 01 0 00 000037 	        IDIVI   R1,^D31
   439	000515'	202 02 0 00 000602'	        MOVEM   R2,DANO
   440	000516'	231 01 0 00 000014 	        IDIVI   R1,^D12
   441	000517'	202 02 0 00 000601'	        MOVEM   R2,MTH
   442	000520'	275 01 0 00 000010 	        SUBI    R1,10
   443	000521'	242 01 0 00 000004 	        LSH     R1,4
   444	000522'	434 01 0 00 000601'	        OR      R1,MTH
   445	000523'	242 01 0 00 000005 	        LSH     R1,5
   446	000524'	434 01 0 00 000602'	        OR      R1,DANO
   447	000525'	263 17 0 00 000000 	        POPJ    P,
   448	000526'	200 02 0 00 000001 	REDATE: MOVE    R2,R1
   449	000527'	405 02 0 00 777000 	        ANDI    R2,777000
   450	000530'	242 02 0 00 777767 	        LSH     R2,-11
   451	000531'	202 02 0 00 000603'	        MOVEM   R2,YR
   452	000532'	200 02 0 00 000001 	        MOVE    R2,R1
   453	000533'	405 02 0 00 000740 	        ANDI    R2,740
DAT             Dec 13, 1980	MACRO %53B(1156)-1 12:06  8-Mar-85 Page 1-6
DATES	MAC	15-Oct-73 17:37

   454	000534'	242 02 0 00 777773 	        LSH     R2,-5
   455	000535'	202 02 0 00 000601'	        MOVEM   R2,MTH
   456	000536'	200 00 0 00 000001 	        MOVE    R0,R1
   457	000537'	405 00 0 00 000037 	        ANDI    R0,37
   458	000540'	202 00 0 00 000602'	        MOVEM   R0,DANO
   459	000541'	317 00 0 02 000565'	DC:     CAMG    R0,MLTAB(R2)
   460	000542'	254 00 0 00 000554'	        JRST    MT
   461	000543'	274 00 0 02 000565'	        SUB     R0,MLTAB(R2)
   462	000544'	350 00 0 00 000601'	        AOS     MTH
   463	000545'	340 00 0 00 000002 	        AOJ     R2
   464	000546'	305 02 0 00 000014 	        CAIGE   R2,^D12
   465	000547'	254 00 0 00 000541'	        JRST    DC
   466	000550'	275 02 0 00 000014 	MC:     SUBI    R2,^D12
   467	000551'	202 02 0 00 000601'	        MOVEM   R2,MTH
   468	000552'	350 00 0 00 000603'	        AOS     YR
   469	000553'	254 00 0 00 000541'	        JRST    DC
   470	000554'	301 02 0 00 000014 	MT:     CAIL    R2,^D12
   471	000555'	254 00 0 00 000550'	        JRST    MC
   472	000556'	400 00 0 00 000001 	        SETZ    R1
   473	000557'	200 01 0 00 000603'	        MOVE    R1,YR
   474	000560'	242 01 0 00 000004 	        LSH     R1,4
   475	000561'	434 01 0 00 000601'	        OR      R1,MTH
   476	000562'	242 01 0 00 000005 	        LSH     R1,5
   477	000563'	434 01 0 00 000602'	        OR      R1,DANO
   478	000564'	263 17 0 00 000000 	        POPJ    P,
   479	000565'	000000	000037		MLTAB:  DEC 31,28,31,30,31,30,31,31,30,31,30,31
   480	000566'	000000	000034
   481	000567'	000000	000037
   482	000570'	000000	000036
   483	000571'	000000	000037
   484	000572'	000000	000036
   485	000573'	000000	000037
   486	000574'	000000	000037
   487	000575'	000000	000036
   488	000576'	000000	000037
   489	000577'	000000	000036
   490	000600'	000000	000037
   491	000601'	000 00 0 00 000000 	MTH:    Z
   492	000602'	000 00 0 00 000000 	DANO:    Z
   493	000603'	000 00 0 00 000000 	YR:     Z
   494
   495	000604'	263 17 0 00 000000 	NUM:    POPJ    P,
   496					LALL
   497					DEFINE DEF(W,I,T) <[ASCIZ "W'"]
   498					        <I>B20+T>
   499	000605'				STAB:   BLOCK 0
   500	000605'	000000	001272'		DEF SUNDAYS,1,DWK^[ASCIZ "SUNDAYS"]
   501	000606'	000000	100000'		        <1>B20+DWK^
   502	000607'	000000	001274'		DEF MONDAYS,2,DWK^[ASCIZ "MONDAYS"]
   503	000610'	000000	200000'		        <2>B20+DWK^
   504	000611'	000000	001276'		DEF TUESDAYS,3,DWK^[ASCIZ "TUESDAYS"]
   505	000612'	000000	300000'		        <3>B20+DWK^
   506	000613'	000000	001300'		DEF WEDNESDAYS,4,DWK^[ASCIZ "WEDNESDAYS"]
   507	000614'	000000	400000'		        <4>B20+DWK^
   508	000615'	000000	001303'		DEF THURSDAYS,5,DWK^[ASCIZ "THURSDAYS"]
DAT             Dec 13, 1980	MACRO %53B(1156)-1 12:06  8-Mar-85 Page 1-7
DATES	MAC	15-Oct-73 17:37

   509	000616'	000000	500000'		        <5>B20+DWK^
   510	000617'	000000	001305'		DEF FRIDAYS,6,DWK^[ASCIZ "FRIDAYS"]
   511	000620'	000000	600000'		        <6>B20+DWK^
   512	000621'	000000	001307'		DEF SATURDAYS,7,DWK^[ASCIZ "SATURDAYS"]
   513	000622'	000000	700000'		        <7>B20+DWK^
   514	000623'	000000	001311'		DEF JANUARY,,SMON^[ASCIZ "JANUARY"]
   515	000624'	000000	000034'		        <>B20+SMON^
   516	000625'	000000	001313'		DEF FEBRUARY,1,SMON^[ASCIZ "FEBRUARY"]
   517	000626'	000000	100034'		        <1>B20+SMON^
   518	000627'	000000	001315'		DEF MARCH,2,SMON^[ASCIZ "MARCH"]
   519	000630'	000000	200034'		        <2>B20+SMON^
   520	000631'	000000	001317'		DEF APRIL,3,SMON^[ASCIZ "APRIL"]
   521	000632'	000000	300034'		        <3>B20+SMON^
   522	000633'	000000	001321'		DEF MAY,4,SMON^[ASCIZ "MAY"]
   523	000634'	000000	400034'		        <4>B20+SMON^
   524	000635'	000000	001322'		DEF JUNE,5,SMON^[ASCIZ "JUNE"]
   525	000636'	000000	500034'		        <5>B20+SMON^
   526	000637'	000000	001323'		DEF JULY,6,SMON^[ASCIZ "JULY"]
   527	000640'	000000	600034'		        <6>B20+SMON^
   528	000641'	000000	001324'		DEF AUGUST,7,SMON^[ASCIZ "AUGUST"]
   529	000642'	000000	700034'		        <7>B20+SMON^
   530	000643'	000000	001326'		DEF SEPTEMBER,10,SMON^[ASCIZ "SEPTEMBER"]
   531	000644'	000001	000034'		        <10>B20+SMON^
   532	000645'	000000	001330'		DEF OCTOBER,11,SMON^[ASCIZ "OCTOBER"]
   533	000646'	000001	100034'		        <11>B20+SMON^
   534	000647'	000000	001332'		DEF NOVEMBER,12,SMON^[ASCIZ "NOVEMBER"]
   535	000650'	000001	200034'		        <12>B20+SMON^
   536	000651'	000000	001334'		DEF DECEMBER,13,SMON^[ASCIZ "DECEMBER"]
   537	000652'	000001	300034'		        <13>B20+SMON^
   538	000653'	000000	001304'		DEF DAYS,,DAYS^[ASCIZ "DAYS"]
   539	000654'	000000	000125'		        <>B20+DAYS^
   540	000655'	000000	001336'		DEF DAILY,,DAYS^[ASCIZ "DAILY"]
   541	000656'	000000	000125'		        <>B20+DAYS^
   542	000657'	000000	001340'		DEF MONTHS,,MONTHS^[ASCIZ "MONTHS"]
   543	000660'	000000	000131'		        <>B20+MONTHS^
   544	000661'	000000	001342'		DEF MONTHLY,,MONTHS^[ASCIZ "MONTHLY"]
   545	000662'	000000	000131'		        <>B20+MONTHS^
   546	000663'	000000	001344'		DEF FIRST,1,SNUM^[ASCIZ "FIRST"]
   547	000664'	000000	100115'		        <1>B20+SNUM^
   548	000665'	000000	001346'		DEF OTHER,2,SNUM^[ASCIZ "OTHER"]
   549	000666'	000000	200115'		        <2>B20+SNUM^
   550	000667'	000000	001350'		DEF SECOND,2,SNUM^[ASCIZ "SECOND"]
   551	000670'	000000	200115'		        <2>B20+SNUM^
   552	000671'	000000	001352'		DEF THIRD,3,SNUM^[ASCIZ "THIRD"]
   553	000672'	000000	300115'		        <3>B20+SNUM^
   554	000673'	000000	001354'		DEF FOURTH,4,SNUM^[ASCIZ "FOURTH"]
   555	000674'	000000	400115'		        <4>B20+SNUM^
   556	000675'	000000	001356'		DEF FIFTH,5,SNUM^[ASCIZ "FIFTH"]
   557	000676'	000000	500115'		        <5>B20+SNUM^
   558	000677'	000000	001360'		DEF SIXTH,6,SNUM^[ASCIZ "SIXTH"]
   559	000700'	000000	600115'		        <6>B20+SNUM^
   560	000701'	000000	001362'		DEF SEVENTH,7,SNUM^[ASCIZ "SEVENTH"]
   561	000702'	000000	700115'		        <7>B20+SNUM^
   562	000703'	000000	001364'		DEF EIGHTH,8,SNUM^[ASCIZ "EIGHTH"]
   563	000704'	000001	000115'		        <8>B20+SNUM^
DAT             Dec 13, 1980	MACRO %53B(1156)-1 12:06  8-Mar-85 Page 1-8
DATES	MAC	15-Oct-73 17:37

   564	000705'	000000	001366'		DEF NINTH,9,SNUM^[ASCIZ "NINTH"]
   565	000706'	000001	100115'		        <9>B20+SNUM^
   566	000707'	000000	001370'		DEF TENTH,10,SNUM^[ASCIZ "TENTH"]
   567	000710'	000001	000115'		        <10>B20+SNUM^
   568	000711'	000000	001372'		DEF EARLIEST,,SFLAG^[ASCIZ "EARLIEST"]
   569	000712'	000000	000231'		        <>B20+SFLAG^
   570	000713'	000000	001374'		DEF LATEST,10,SFLAG^[ASCIZ "LATEST"]
   571	000714'	000001	000231'		        <10>B20+SFLAG^
   572	000715'	000000	001376'		DEF UNTIL,41,SREF^[ASCIZ "UNTIL"]
   573	000716'	000004	100156'		        <41>B20+SREF^
   574	000717'	000000	001400'		DEF THROUGH,40,SREF^[ASCIZ "THROUGH"]
   575	000720'	000004	000156'		        <40>B20+SREF^
   576	000721'	000000	001402'		DEF EXCEPT,30,SFLAG^[ASCIZ "EXCEPT"]
   577	000722'	000003	000231'		        <30>B20+SFLAG^
   578	000723'	000000	001404'		DEF AFTER,10,RLDAY^[ASCIZ "AFTER"]
   579	000724'	000001	000211'		        <10>B20+RLDAY^
   580	000725'	000000	001406'		DEF BEFORE,20,RLDAY^[ASCIZ "BEFORE"]
   581	000726'	000002	000211'		        <20>B20+RLDAY^
   582	000727'	000000	001410'		DEF END,,END^[ASCIZ "END"]
   583	000730'	000000	000306'		        <>B20+END^
   584	000731'	000000	001411'		DEF ENDING,40,SREF^[ASCIZ "ENDING"]
   585	000732'	000004	000156'		        <40>B20+SREF^
   586	000733'	000000	001413'		DEF REFERENCE,,SREF^[ASCIZ "REFERENCE"]
   587	000734'	000000	000156'		        <>B20+SREF^
   588	000735'	000000	001415'		DEF BASED,,SREF^[ASCIZ "BASED"]
   589	000736'	000000	000156'		        <>B20+SREF^
   590	000737'	000000	001417'		DEF STARTING,,STARTI^[ASCIZ "STARTING"]
   591	000740'	000000	000245'		        <>B20+STARTI^
   592	000741'	000000	001421'		DEF AND,,OR^[ASCIZ "AND"]
   593	000742'	000000	000260'		        <>B20+OR^
   594	000743'	000000	001422'		DEF OR,,OR^[ASCIZ "OR"]
   595	000744'	000000	000260'		        <>B20+OR^
   596	000745'	000000	001423'		DEF ORDER,20,SFLAG^[ASCIZ "ORDER"]
   597	000746'	000002	000231'		        <20>B20+SFLAG^
   598	000747'	000000	001425'		DEF EVERY,,EVERY^[ASCIZ "EVERY"]
   599	000750'	000000	000304'		        <>B20+EVERY^
   600	000751'	000000	001427'		DEF EACH,,EVERY^[ASCIZ "EACH"]
   601	000752'	000000	000304'		        <>B20+EVERY^
   602	000753'	000000	001430'		DEF FOREVER,17,SMON^[ASCIZ "FOREVER"]
   603	000754'	000001	700034'		        <17>B20+SMON^
   604	000755'	000000	001432'		DEF LAST,,LAST^[ASCIZ "LAST"]
   605	000756'	000000	000343'		        <>B20+LAST^
   606	000757'	000000	001433'		DEF TODAY,,TODAY^[ASCIZ "TODAY"]
   607	000760'	000000	000361'		        <>B20+TODAY^
   608	000761'	000000	001435'		DEF TOMORROW,,TOMRW^[ASCIZ "TOMORROW"]
   609	000762'	000000	000370'		        <>B20+TOMRW^
   610	000763'	000000	001437'		DEF WEEKDAYS,,WEK^[ASCIZ "WEEKDAYS"]
   611	000764'	000000	000325'		        <>B20+WEK^
   612	000765'	000000	000000		0
   613	000766'				TT::    BLOCK 0
   614	000766'	000000	001441'		        DEF ANY,,ANY##^[ASCIZ "ANY"]
   615	000767'	000000000000#		        <>B20+ANY##^
   616	000770'	000000	001442'		        DEF NOT,,NOT##^[ASCIZ "NOT"]
   617	000771'	000000000000#		        <>B20+NOT##^
   618	000772'	000000	001404'		        DEF AFTER,,TAFTER##^[ASCIZ "AFTER"]
DAT             Dec 13, 1980	MACRO %53B(1156)-1 12:06  8-Mar-85 Page 1-9
DATES	MAC	15-Oct-73 17:37

   619	000773'	000000000000#		        <>B20+TAFTER##^
   620	000774'	000000	001406'		        DEF     BEFORE,,TBEFR##^[ASCIZ "BEFORE"]
   621	000775'	000000000000#		        <>B20+TBEFR##^
   622	000776'	000000	001443'		        DEF     HELP,,RTER##^[ASCIZ "HELP"]
   623	000777'	000000000000#		        <>B20+RTER##^
   624	001000'	000000	001444'		        DEF     DEFERRED,,DFRD##^[ASCIZ "DEFERRED"]
   625	001001'	000000000000#		        <>B20+DFRD##^
   626	001002'	000000	000000		0
   627
   628					PAGE
DAT             Dec 13, 1980	MACRO %53B(1156)-1 12:06  8-Mar-85 Page 1-10
DATES	MAC	15-Oct-73 17:37

   629
   630
   631	001003'	200 01 0 00 001045'	DATES:: MOVE    R1,[-2]
   632	001004'	202 01 0 00 001035'	        MOVEM   R1,ESW
   633	001005'	476 00 0 00 001031'	        SETOM   SWLWD
   634	001006'	476 00 0 00 001033'	        SETOM   ANDSW
   635	001007'	476 00 0 00 001037'	        SETOM   NUMSW
   636	001010'	476 00 0 00 000253*	        SETOM   SDATE##
   637	001011'	200 03 0 00 001446'	        MOVE    R3,[-100]
   638	001012'	402 00 0 03 000000#	        SETZM   LIST+100(R3)
   639	001013'	341 03 0 00 001012'	        AOJL    R3,.-1
   640	001014'	402 00 0 00 001032'	        SETZM   NUMBER
   641	001015'	201 01 0 00 000250*	        MOVEI   R1,LIST
   642	001016'	202 01 0 00 000013 	        MOVEM   R1,LP
   643	001017'	012 00 0 00 001447'	        TYPE    [ASCIZ '$ENTER YOUR DATE PERIOD$']
   644	001020'	260 17 0 00 000401'	R:      PUSHJ   P,GWD;
   645	001021'	254 00 0 00 001027'	        JRST    REN
   646	001022'	260 17 0 00 000447'	        PUSHJ   P,SLKUP
   647	001023'	254 00 0 00 001020'	        JRST    R
   648	001024'	405 03 0 00 037777 	        ANDI    R3,37777
   649	001025'	260 17 1 00 000003 	        PUSHJ   P,@3
   650	001026'	254 00 0 00 001020'	        JRST    R
   651	001027'	260 17 0 00 000265'	REN:    PUSHJ   P,ENGRP
   652	001030'	254 00 0 00 000000*	        JRST    CDISP##
   653	001031'	000 00 0 00 000000 	SWLWD:: Z
   654
   655	001032'	000 00 0 00 000000 	NUMBER::        Z
   656
   657					        END

NO ERRORS DETECTED

PROGRAM BREAK IS 001454
CPU TIME USED 03:12.778

12P CORE USED
DAT             Dec 13, 1980	MACRO %53B(1156)-1 12:06  8-Mar-85 Page S-1
DATES	MAC	15-Oct-73 17:37		SYMBOL TABLE

AL		000001		IC		000000		SP		000013
ANDSW		001033'		IG		000004		SPACE		000040
ANY		000000	ext	LAST		000343'		SREF		000156'
AS		000006		LAST1		000353'		SREF0		000165'
AT		000010		LASTE		000344'		SREF02		000162'
BARROW		000137		LCHAN		000001	spd	SREF1		000161'
BRS176		000512'		LFCHR		000012		SREF2		000177'
CCM		001034'		LIST		001015'	ext	SSKE	020000	000000
CDISP		001030'	ext	LK		000473'		SST		000255'
CH		000004	spd	LK6		000470'		STAB		000605'
CHARC		000020		LK7		000457'		STARTI		000245'
CLRIN	013000	000000		LKN		000504'		SWLWD		001031'	int
CO		000011		LKUP		000450'	int	T1		001040'
COMCHR		000054		LP		000013	spd	T3		001041'
CRCHR		000015		MC		000550'		T4		001042'
CT		000007	spd	MLTAB		000565'		TAB	021000	000000
CURW		000442'		MON1		000150'		TAFTER		000000	ext
DA		000017		MON2		000143'		TBEFR		000000	ext
DANO		000602'		MONTHS		000131'		TC		001043'
DATE	047000	000014		MT		000554'		TCI	001000	000000
DATES		001003'	int	MTH		000601'		TCL	002000	000000
DAYS		000125'		NOT		000000	ext	TCO	010000	000000
DC		000541'		NU		000002		TE		000012
DCR	011000	000000		NUM		000604'		TODAY		000361'
DFRD		000000	ext	NUMBER		001032'	int	TOMRW		000370'
DISABL	017000	000000		NUMSW		001037'		TT		000766'	int
DOTCHR		000056		OR		000260'		TYPE	012000	000000
DWK		000000'		P		000017		VERPAT		000026	spd
DWKE		000030'		PO		000014		VERSIO		000007	spd
DWKS		000020'		PU		000016		WCD	007000	000000
DWKS1		000031'		QQ		000005		WCI	006000	000000
ENABLE	016000	000000		QU		000015		WEK		000325'
END		000306'		R		001020'		WEKT		000335'
END1		000322'		R0		000000		X		000021	spd
ENGE		000300'		R1		000001		YR		000603'
ENGE1		000302'		R2		000002
ENGRP		000265'		R3		000003
EOLIT		000000	spd	RDLINE	003000	000000
ERROR	015000	000000		REDATE		000526'
ESW		001035'		REN		001027'
EVERY		000304'		RLD		000215'
EX		000007		RLDAY		000211'
FCH		001036'		RLDE		000222'
GCD	005000	000000		RP		000003
GCI	004000	000000		RTER		000000	ext
GD		000053'		SCHAN		000002	spd
GDATW		000201'		SDATE		001010'	ext
GDE1		000066'		SETTTY	014000	000000
GDS		000104'		SFLAG		000231'
GWD		000401'	int	SFLGE		000243'
GWD0		000404'		SKIPRT		000510'
GWD2		000420'		SLKUP		000447'
GWD3		000435'		SME		000036'
GWD4		000436'		SMON		000034'
I		000010		SNUM		000115'

DAT             Dec 13, 1980	MACRO %53B(1156)-1 12:06  8-Mar-85 Page 1
COM	MAC	15-Oct-73 17:37


Symbol cross reference

AL	    68#
ANDSW	   285#	   285	   290	   634
ANY	   615
AS	    68#
AT	    68#
BARROW	    24#
BRS176	   350	   357	   436#
CCM	    77#	    77	   124	   165	   198	   238	   249	   425
CDISP	   652
CH	     9#	   368	   371	   377	   378	   380	   391	   392	   393	   394
CHARC	    68#	    68
CO	    68#	   385
COMCHR	    19#	   118
CRCHR	    21#	   371
CT	    10#	   368	   369	   373	   380	   381	   383	   385	   387	   389
CURW	   366	   367	   396#	   399
DA	    68#	   387
DANO	   439	   446	   458	   477	   492#
DATES	   631#
DAYS	   170#	   338	   539	   541
DC	   459#	   465	   469
DFRD	   625
DOTCHR	    18#
DWK	    75#	   336	   501	   503	   505	   507	   509	   511	   513
DWKE	   100#
DWKS	    75	    92#	   170
DWKS1	    94	   101#
END	   299#	   583
END1	   305	   311#
ENGE	   286	   290#
ENGE1	   284	   293#
ENGRP	   276	   279#	   651
EOLIT	    23#	   393
ESW	    84#	    84	   188	   193	   281	   296	   632
EVERY	   296#	   599	   601
EX	    68#	   373	   389
FCH	   377#	   377	   400
GD	   110	   124#	   224
GDATW	   205	   218#	   265
GDE1	   135#	   150	   153	   155	   219	   223
GDS	   132	   137	   149#
GWD	   149	   218	   332	   363#	   644
GWD0	   366#	   370	   372
GWD2	   378#	   390
GWD3	   391#
GWD4	   364	   376	   382	   384	   386	   388	   392#
I	    11#
IC	    68#
IG	    68#
LAST	   332#	   605
DAT             Dec 13, 1980	MACRO %53B(1156)-1 12:06  8-Mar-85 Page 1
COM	MAC	15-Oct-73 17:37


Symbol cross reference

LAST1	   337	   340#
LASTE	   333#	   335	   339
LCHAN	    15#
LFCHR	    20#	   114
LIST	   263	   638	   641
LK	   403	   419#	   431
LK6	   410	   416#
LK7	   407#	   415
LKN	   422	   428#
LKUP	   399#
LP	    12#	    81	    87	    89	    92	   101	   107	   112	   172	   181	   186	   202	   211	   212
	   213	   215	   228	   240	   241	   242	   246	   252	   253	   254	   256	   262	   273	   287
	   288	   299	   302	   306	   310	   312	   318	   319	   344	   347	   352	   354	   361	   642
MC	   466#	   471
MLTAB	   459	   461	   479#
MON1	   183	   190#
MON2	   185#	   195
MONTHS	   175#	   543	   545
MT	   460	   470#
MTH	   441	   444	   455	   462	   467	   475	   491#
NOT	   617
NU	    68#
NUM	   154	   416	   495#
NUMBER	    95	   157	   162	   167	   176	   282	   293	   406	   412	   414	   640	   655#
NUMSW	    82#	    82	   161	   279	   340	   635
OR	   116	   120	   273#	   593	   595
P	    13#	    75	    83	    86	    90	    94	    99	   103	   110	   116	   117	   119	   120	   121
	   130	   132	   137	   148	   149	   152	   158	   168	   170	   173	   189	   205	   214	   218
	   220	   224	   225	   243	   255	   265	   267	   276	   277	   289	   297	   313	   323	   332
	   334	   342	   345	   350	   353	   357	   359	   362	   365	   375	   395	   430	   432	   433
	   447	   478	   495	   644	   646	   649	   651
PO	    68#
PU	    68#
QQ	    68#
QU	    68#
R	   644#	   647	   650
R0	     5#	   456	   457	   458	   459	   461
R1	     6#	    76	    77	    78	    79	    80	    81	    84	    85	    87	    88	    89	    92	    93
	    95	    96	    97	    98	   102	   107	   108	   111	   112	   113	   114	   118	   124	   125
	   126	   127	   129	   131	   133	   134	   136	   138	   139	   140	   141	   143	   146	   147
	   154	   156	   157	   162	   163	   165	   166	   167	   171	   172	   175	   176	   177	   178
	   179	   180	   181	   182	   184	   185	   186	   187	   188	   190	   192	   198	   199	   200
	   201	   202	   203	   208	   209	   210	   211	   228	   229	   232	   233	   236	   238	   239
	   240	   242	   246	   247	   249	   250	   251	   252	   254	   262	   263	   266	   268	   269
	   273	   274	   280	   281	   282	   283	   288	   299	   300	   303	   304	   307	   308	   309
	   310	   311	   312	   317	   318	   338	   343	   344	   347	   348	   351	   352	   354	   355
	   358	   360	   361	   400	   401	   402	   405	   406	   408	   409	   411	   412	   413	   414
	   417	   419	   421	   424	   425	   436	   437	   438	   440	   442	   443	   444	   445	   446
	   448	   452	   456	   472	   473	   474	   475	   476	   477	   631	   632	   641	   642
R2	     7#	   145	   206	   207	   316	   317	   320	   321	   420	   439	   441	   448	   449	   450
DAT             Dec 13, 1980	MACRO %53B(1156)-1 12:06  8-Mar-85 Page 1
COM	MAC	15-Oct-73 17:37


Symbol cross reference

	   451	   452	   453	   454	   455	   459	   461	   463	   464	   466	   467	   470
R3	     8#	   222	   302	   303	   336	   341	   342	   416	   417	   423	   424	   426	   637	   638
	   639	   648
REDATE	   359	   448#
REN	   645	   651#
RLD	   230	   232#
RLDAY	   228#	   579	   581
RLDE	   237#
RP	    68#
RTER	   623
SCHAN	    16#
SDATE	   260	   266	   636
SFLAG	   246#	   257	   569	   571	   577	   597
SFLGE	   248	   256#
SKIPRT	   418	   427	   432#
SLKUP	   152	   220	   334	   398#	   646
SME	   109#	   349	   356
SMON	   107#	   222	   515	   517	   519	   521	   523	   525	   527	   529	   531	   533	   535	   537
	   603
SNUM	   161#	   547	   549	   551	   553	   555	   557	   559	   561	   563	   565	   567
SP	    68#	   369	   381
SPACE	    22#
SREF	   198#	   573	   575	   585	   587	   589
SREF0	   205#
SREF02	   202#	   216
SREF1	   201#	   270
SREF2	   204	   215#
SST	   261	   264	   268#
STAB	   398#	   398	   499#
STARTI	   260#	   591
SWLWD	   363	   391	   633	   653#
T1	    76#	    76	    79	   131	   136	   147	   180	   184	   192
T3	   201#	   201	   209
T4	   199#	   199	   206	   269
TAFTER	   619
TBEFR	   621
TC	   113#	   113	   392
TE	    68#	   383
TODAY	   347#	   607
TOMRW	   354#	   609
TT	   613#
UUOFLG	    26	    31	    32	    33	    34	    35	    36	    37	    38	    39	    40	    41	    42	    43
	    44	    45	    46	    47
VERPAT	     3#
VERSIO	     2#
WEK	   316#	   611
WEKT	   317	   325#
X	    30#	    31	    31#	    32	    32#	    33	    33#	    34	    34#	    35	    35#	    36	    36#	    37
	    37#	    38	    38#	    39	    39#	    40	    40#	    41	    41#	    42	    42#	    43	    43#	    44
	    44#	    45	    45#	    46	    46#	    47	    47#
DAT             Dec 13, 1980	MACRO %53B(1156)-1 12:06  8-Mar-85 Page 1
COM	MAC	15-Oct-73 17:37


Symbol cross reference

YR	   451	   468	   473	   493#
DAT             Dec 13, 1980	MACRO %53B(1156)-1 12:06  8-Mar-85 Page 1
COM	MAC	15-Oct-73 17:37


Macro/Opdef cross reference

CHARDO	    49#	    68
CHRDEF	    66#	    68
CLRIN	    41#
DATE	   436
DCR	    39#
DEF	   497#	   500	   502	   504	   506	   508	   510	   512	   514	   516	   518	   520	   522	   524
	   526	   528	   530	   532	   534	   536	   538	   540	   542	   544	   546	   548	   550	   552
	   554	   556	   558	   560	   562	   564	   566	   568	   570	   572	   574	   576	   578	   580
	   582	   584	   586	   588	   590	   592	   594	   596	   598	   600	   602	   604	   606	   608
	   610	   614	   616	   618	   620	   622	   624
DISABL	    45#
ENABLE	    44#
ERROR	    43#	   100	   109	   135	   142	   144	   164	   191	   194	   231	   237	   275	   291	   294
	   301	   333
GCD	    35#
GCI	    34#
OPD	    27#	    31	    32	    33	    34	    35	    36	    37	    38	    39	    40	    41	    42	    43
	    44	    45	    46	    47
RDLINE	    33#
SETTTY	    42#
SSKE	    46#	   421
TAB	    47#
TCI	    31#	   368	   380
TCL	    32#
TCO	    38#
TYPE	    40#	   643
WCD	    37#
WCI	    36#r@7½