EXP             Dec 13, 1980	MACRO %53B(1156)-1 12:06  8-Mar-85 Page 1
COM	MAC	15-Oct-73 17:37

     1					;COM	Nov 5, 1982
     2			000007		VERSION==7
     3			000026		VERPAT==26
     4
     5			000000		R0=     0
     6			000001		R1=     1
     7			000002		R2=     2
     8			000003		R3=     3
     9			000004		CH==    4                       ;CURRENT CHARACTER
    10			000007		CT==    7                       ;CURRENT CHARACTER'S TYPE
    11			000010		I=10
    12			000013		LP==    13
    13			000017		P=      17
    14
    15			000001		LCHAN== 1			;CHANNEL FOR READING LUD.SYS
    16			000002		SCHAN== 2			;CHANNEL FOR READING PERP.SYS
    17
    18			000056		DOTCHR= 56
    19			000054		COMCHR= 54
    20			000012		LFCHR=  12
    21			000015		CRCHR=  15
    22			000040		SPACE=  40
    23			000000		EOLIT== 0
    24			000137		BARROW=137
    25					        SALL                    ;SUPPRESS ALL MACRO EXPANSIONS
    26					IFDEF   UUOFLG  <UUOTAB: BLOCK 0>
    27					DEFINE  OPD     (A,B) <X==X+1
    28					OPDEF A [X*1000000000]
    29					IFDEF UUOFLG<JRST B>>
    30			000000		X==0
    31					        OPD     TCI,TCIUUO;    001
    32					        OPD     TCL,TCLUUO;    002
    33					        OPD     RDLINE,RDUUO;  003
    34					        OPD     GCI,GCIUUO;    004
    35					        OPD     GCD,GCDUUO;    005
    36					        OPD     WCI,WCIUUO;    006
    37					        OPD     WCD,WCDUUO;    007
    38					        OPD     TCO,TCOUU ;    010
    39					        OPD     DCR,DCRUUO;    011
    40					        OPD     TYPE,TYPUUO;   012
    41					        OPD     CLRIN,CLRUUO;  013
    42					        OPD     SETTTY,TTYUUO; 014
    43					        OPD     ERROR,ERRUUO;  015
    44					        OPD     ENABLE,ENUUO;  016
    45					        OPD     DISABL,DISUUO; 017
    46					        OPD     SSKE,SSKUUO;   020
    47					        OPD     TAB,TABUUO;    021
EXP             Dec 13, 1980	MACRO %53B(1156)-1 12:06  8-Mar-85 Page 2
CHR	MAC	15-Oct-73 17:37

    48					;CHR    SEP 17, 1974
    49					DEFINE  CHARDO(A) <CHARC=0
    50					A'IC;;      ILLEGAL CHARACTER
    51					A'AL;;      ALPHABETIC CHARACTER
    52					A'NU;;      NUMERIC CHARACTER
    53					A'RP;;      LEAVE USER MODE ")"
    54					A'IG;;      IGNORED CHARACTER
    55					A'QQ;;      ENTER USER NAME MODE "("
    56					A'AS;;      ALL FILES CHAR (*)
    57					A'EX;;      FILE EXTENSION DELIMITER (.)
    58					A'AT;;      COMMAND FILE CHAR (@)
    59					A'CO;;      COMMA
    60					A'TE;;      LINE TERMINATION (CR LF)
    61					A'SP;;      SPACE
    62					A'PO;;      POUND SIGN (#)
    63					A'QU;;      QUESTION MARK (?)
    64					A'PU;;      PUNCTUATION ALLOWED IN USER NAMES (/ ' $)
    65					A'DA>;      DASH (-)
    66					DEFINE  CHRDEF(C) <C=CHARC
    67					CHARC=CHARC+1>
    68			000020		        CHARDO  <CHRDEF >
EXP             Dec 13, 1980	MACRO %53B(1156)-1 12:06  8-Mar-85 Page 3
CHR	MAC	15-Oct-73 17:37

    69
    70					        TITLE   EXP             Dec 13, 1980
    71
    72			012545		LASTDT=:^D5477			;through Dec 31 1986, after which there
    73									;may be date problems
    74	000000'	260 17 0 00 000002'	EXP::   PUSHJ   P,EXA
    75	000001'	254 00 0 00 000000*	        JRST    CDISP##
    76
    77	000002'	476 00 0 00 002176'	EXA:    SETOM 	T3#
    78	000003'	336 00 0 00 001746'	        SKIPN 	LIST
    79	000004'	015 00 0 00 002207'	EXER:   ERROR   [ASCIZ "NO REQUEST HAS BEEN ENTERED"]
    80	000005'	333 00 0 00 002150'	        SKIPLE  SDATE
    81	000006'	260 17 0 00 000027'		PUSHJ   P,EX1
    82	000007'	201 01 0 00 001746'		MOVEI 	R1,LIST
    83	000010'	202 01 0 00 000013 		MOVEM 	R1,LP#
    84	000011'	200 01 1 00 000013 	EX2: 	MOVE 	R1,@LP
    85	000012'	322 01 0 00 000143'		JUMPE 	R1,EXD3A
    86	000013'	135 03 0 00 002215'		LDB 	R3,[POINT 3,R1,14]
    87	000014'	302 03 0 00 000001 		CAIE 	R3,1
    88	000015'	254 00 0 00 000065'		JRST 	EXD
    89	000016'	612 01 0 00 002216'	        TDNE    R1,[17777]
    90	000017'	254 00 0 00 000044'	        JRST 	EXFD		;FOUND A DATE
    91	000020'	612 01 0 00 002217'	EX3:    TDNE    R1,[2B17]
    92	000021'	254 00 0 00 000036'		JRST 	EXFS
    93	000022'	612 01 0 00 002220'	        TDNE    R1,[1B17]
    94	000023'	254 00 0 00 000034'		JRST 	EXFL
    95	000024'	012 00 0 00 002221'	        TYPE    [ASCIZ 'THE EARLIEST OF: ']
    96	000025'	350 00 0 00 000013 	EXN: 	AOS 	LP
    97	000026'	254 00 0 00 000011'		JRST 	EX2
    98	000027'	012 00 0 00 002225'	EX1:    TYPE [ASCIZ '$STARTING ']
    99	000030'	201 01 0 00 002150'	        MOVEI 	R1,SDATE
   100	000031'	202 01 0 00 000013 	        MOVEM   R1,LP
   101	000032'	260 17 0 00 000271'	        PUSHJ   P,PDATE
   102	000033'	263 17 0 00 000000 	        POPJ    P,
   103	000034'	012 00 0 00 002230'	EXFL: 	TYPE	[ASCIZ 'THE LATEST OF:']
   104	000035'	254 00 0 00 000025'		JRST 	EXN
   105	000036'	612 01 0 00 002220'	EXFS:   TDNE    R1,[1B17]
   106	000037'	254 00 0 00 000042'	        JRST 	EXFA
   107	000040'	012 00 0 00 002233'		TYPE 	[ASCIZ "DO IN ORDER: (ONCE ONLY)"]
   108	000041'	254 00 0 00 000025'		JRST 	EXN
   109	000042'	012 00 0 00 002240'	EXFA: 	TYPE 	[ASCIZ 'EXCEPT THE FOLLOWING ']
   110	000043'	254 00 0 00 000025'		JRST 	EXN
   111	000044'	612 01 0 00 002245'	EXFD:   TDNE    R1,[4B17]
   112	000045'	254 00 0 00 000052'	        JRST 	EXFD2
   113	000046'	202 01 0 00 002176'		MOVEM 	R1,T3
   114	000047'	012 00 0 00 002246'		TYPE 	[ASCIZ 'USING THE REFERENCE DATE OF ']
   115	000050'	260 17 0 00 000271'	EXFD1:  PUSHJ   P,PDATE
   116	000051'	254 00 0 00 000025'		JRST 	EXN
   117	000052'	612 01 0 00 002220'	EXFD2:  TDNE    R1,[1B17]
   118	000053'	254 00 0 00 000063'		JRST 	EXFST
   119	000054'	012 00 0 00 002254'	EXFU: 	TYPE 	[ASCIZ "UNTIL "]
   120	000055'	260 17 0 00 000060'	        PUSHJ   P,UPDATE
   121	000056'	200 01 1 00 000013 		MOVE 	R1,@LP
   122	000057'	254 00 0 00 000020'		JRST 	EX3
   123	000060'	200 01 1 00 000013 	UPDATE: MOVE 	R1,@LP
EXP             Dec 13, 1980	MACRO %53B(1156)-1 12:06  8-Mar-85 Page 1
EXP	MAC	15-Oct-73 17:36

   124	000061'	350 00 0 00 000001 		AOS 	R1
   125	000062'	254 00 0 00 000272'	        JRST    PDATE+1
   126	000063'	012 00 0 00 002256'	EXFST: 	TYPE 	[ASCIZ 'STARTING ']
   127	000064'	254 00 0 00 000050'		JRST 	EXFD1
   128	000065'	302 03 0 00 000003 	EXD: 	CAIE 	R3,3
   129	000066'	254 00 0 00 000213'		JRST 	EXDN
   130	000067'	200 01 1 00 000013 	EXD00:	MOVE 	R1,@LP
   131	000070'	612 01 0 00 002260'		TDNE 	R1,[7]
   132	000071'	254 00 0 00 000160'		JRST 	EXDW
   133	000072'	612 01 0 00 002261'		TDNE 	R1,[7770]
   134	000073'	254 00 0 00 000203'		JRST 	EXDY
   135	000074'	242 01 0 00 777764 	EXD0: 	LSH 	R1,-14
   136	000075'	405 01 0 00 000017 		ANDI 	R1,17
   137	000076'	323 01 0 00 000157'		JUMPLE 	R1,EXDER
   138	000077'	200 01 1 00 000013 		MOVE 	R1,@LP
   139	000100'	404 01 0 00 002262'	        AND 	R1,[3B17]
   140	000101'	317 01 0 00 002217'		CAMG 	R1,[2B17]
   141	000102'	337 00 0 00 000001 		SKIPG 	R1
   142	000103'	254 00 0 00 000116'		JRST 	EXD01
   143	000104'	012 00 0 00 002263'		TYPE 	[ASCIZ 'THE ']
   144	000105'	200 01 1 00 000013 		MOVE 	R1,@LP
   145	000106'	242 01 0 00 777764 		LSH 	R1,-14
   146	000107'	405 01 0 00 000017 		ANDI 	R1,17
   147	000110'	302 01 0 00 000001 		CAIE 	R1,1
   148	000111'	254 00 0 00 000114'		JRST 	EXD02
   149	000112'	012 00 0 00 002264'	EXD03: 	TYPE 	[ASCIZ 'MONTH']
   150	000113'	254 00 0 00 000126'		JRST 	EXD04
   151	000114'	254 00 0 00 000217'	EXD02: 	JRST 	EXNM
   152	000115'	254 00 0 00 000112'		JRST 	EXD03
   153	000116'	012 00 0 00 002266'	EXD01: 	TYPE 	[ASCIZ 'EVERY ']
   154	000117'	200 01 1 00 000013 		MOVE 	R1,@LP
   155	000120'	242 01 0 00 777764 		LSH 	R1,-14
   156	000121'	405 01 0 00 000017 		ANDI 	R1,17
   157	000122'	307 01 0 00 000001 		CAIG 	R1,1
   158	000123'	254 00 0 00 000112'		JRST 	EXD03
   159	000124'	260 17 0 00 001644'	        PUSHJ   P,PDNO
   160	000125'	012 00 0 00 002270'		TYPE 	[ASCIZ ' MONTHS']
   161	000126'	200 01 1 00 000013 	EXD04: 	MOVE 	R1,@LP
   162	000127'	135 03 0 00 002272'		LDB 	R3,[POINT 2,R1,17]
   163	000130'	302 03 0 00 000003 		CAIE 	R3,3
   164	000131'	254 00 0 00 000134'		JRST 	EXD1A
   165	000132'	254 00 0 00 000140'		JRST 	EXD3B
   166	000133'	200 01 1 00 000013 	EXD1: 	MOVE 	R1,@LP
   167	000134'	612 01 0 00 002273'	EXD1A: 	TDNE 	R1,[2B20]
   168	000135'	254 00 0 00 000155'		JRST 	EXD2
   169	000136'	612 01 0 00 002262'	EXD3: 	TDNE 	R1,[3B17]
   170	000137'	254 00 0 00 000147'		JRST 	EXD4
   171	000140'	350 00 0 00 000013 	EXD3B: 	AOS 	LP
   172	000141'	200 01 1 00 000013 		MOVE 	R1,@LP
   173	000142'	326 01 0 00 000145'	        JUMPN   R1,EXD5
   174	000143'	010 00 0 00 002274'	EXD3A: 	TCO 	[CRCHR]
   175	000144'	263 17 0 00 000000 	EXEX: 	POPJ 	P,
   176	000145'	012 00 0 00 002275'	EXD5: 	TYPE 	[ASCIZ '$OR ']
   177	000146'	254 00 0 00 000011'		JRST 	EX2
   178	000147'	612 01 0 00 002217'	EXD4: 	TDNE 	R1,[2B17]
EXP             Dec 13, 1980	MACRO %53B(1156)-1 12:06  8-Mar-85 Page 1-1
EXP	MAC	15-Oct-73 17:36

   179	000150'	254 00 0 00 000153'		JRST 	EXD7
   180	000151'	012 00 0 00 002276'	EXD6: 	TYPE 	[ASCIZ '$AFTER ']
   181	000152'	254 00 0 00 000025'		JRST 	EXN
   182	000153'	012 00 0 00 002300'	EXD7:   TYPE    [ASCIZ '$BEFORE ']
   183	000154'	254 00 0 00 000025'		JRST 	EXN
   184	000155'	012 00 0 00 002302'	EXD2: 	TYPE 	[ASCIZ '(ONCE ONLY)']
   185	000156'	254 00 0 00 000140'		JRST 	EXD3B
   186	000157'	015 00 0 00 002305'	EXDER: 	ERROR 	[ASCIZ 'NO DAY OR MONTH INDICATED$']
   187	000160'	612 01 0 00 002261'	EXDW: 	TDNE 	R1,[7770]
   188	000161'	254 00 0 00 000163'		JRST 	EXDW1
   189	000162'	015 00 0 00 002313'		ERROR 	[ASCIZ 'DAY OF WEEK WITH NO COUNT']
   190	000163'	260 17 0 00 000236'	EXDW1:  PUSHJ   P,EXNMS
   191	000164'	200 01 1 00 000013 		MOVE 	R1,@LP
   192	000165'	405 01 0 00 000007 		ANDI 	R1,7
   193	000166'	200 01 0 01 000321'		MOVE 	R1,DWKM(R1)
   194	000167'	260 17 0 00 001641'	        PUSHJ   P,PMSG
   195	000170'	200 01 1 00 000013 	EXDW2: 	MOVE 	R1,@LP
   196	000171'	612 01 0 00 002321'		TDNE 	R1,[17B23]
   197	000172'	254 00 0 00 000174'		JRST 	EXDW2B
   198	000173'	254 00 0 00 000133'		JRST 	EXD1
   199	000174'	612 01 0 00 002245'	EXDW2B:	TDNE 	R1,[4B17]
   200	000175'	254 00 0 00 000201'		JRST 	EXDW3
   201	000176'	012 00 0 00 002253'	        TYPE    [ASCIZ 'OF ']
   202	000177'	200 01 1 00 000013 	EXDW2A: MOVE 	R1,@LP
   203	000200'	254 00 0 00 000074'		JRST 	EXD0
   204	000201'	012 00 0 00 002322'	EXDW3:  TYPE 	[ASCIZ 'BEFORE THE END OF ']
   205	000202'	254 00 0 00 000177'		JRST 	EXDW2A
   206	000203'	260 17 0 00 000236'	EXDY: 	PUSHJ 	P,EXNMS
   207	000204'	012 00 0 00 002326'		TYPE 	[ASCIZ 'DAY ']
   208	000205'	254 00 0 00 000170'		JRST 	EXDW2
   209	000206'	260 17 0 00 000271'	EXDT2: 	PUSHJ 	P,PDATE
   210	000207'	350 00 0 00 000013 	EXDT2A: AOS 	LP
   211	000210'	200 01 1 00 000013 		MOVE 	R1,@LP
   212	000211'	322 01 0 00 000143'		JUMPE 	R1,EXD3A
   213	000212'	254 00 0 00 000011'		JRST 	EX2
   214	000213'	306 03 0 00 000002 	EXDN: 	CAIN 	R3,2
   215	000214'	254 00 0 00 000206'		JRST 	EXDT2
   216	000215'	012 00 0 00 002327'	        TYPE    [ASCIZ ' INVALID DATE ']
   217	000216'	254 00 0 00 000207'		JRST 	EXDT2A
   218	000217'	302 01 0 00 000001 	EXNM: 	CAIE 	R1,1
   219	000220'	254 00 0 00 000223'		JRST 	EXNM1
   220	000221'	012 00 0 00 002332'		TYPE 	[ASCIZ 'FIRST ']
   221	000222'	263 17 0 00 000000 	EXNM9: 	POPJ 	P,
   222	000223'	302 01 0 00 000002 	EXNM1: 	CAIE 	R1,2
   223	000224'	254 00 0 00 000227'		JRST 	EXNM2
   224	000225'	012 00 0 00 002334'		TYPE 	[ASCIZ '2ND ']
   225	000226'	263 17 0 00 000000 		POPJ 	P,
   226	000227'	302 01 0 00 000003 	EXNM2: 	CAIE 	R1,3
   227	000230'	254 00 0 00 000233'		JRST 	EXNM3
   228	000231'	012 00 0 00 002335'		TYPE 	[ASCIZ '3RD ']
   229	000232'	263 17 0 00 000000 		POPJ 	P,
   230	000233'	260 17 0 00 001644'	EXNM3: 	PUSHJ 	P,PDNO
   231	000234'	012 00 0 00 002336'		TYPE 	[ASCIZ 'TH ']
   232	000235'	263 17 0 00 000000 		POPJ 	P,
   233
EXP             Dec 13, 1980	MACRO %53B(1156)-1 12:06  8-Mar-85 Page 1-2
EXP	MAC	15-Oct-73 17:36

   234	000236'	135 03 0 00 002272'	EXNMS: 	LDB 	R3,[POINT 2,R1,17]
   235	000237'	306 02 0 00 000003 		CAIN 	2,3
   236	000240'	254 00 0 00 000245'		JRST 	EXNMS0
   237	000241'	612 01 0 00 002273'		TDNE 	R1,[2B20]
   238	000242'	263 17 0 00 000000 		POPJ 	P,
   239	000243'	612 01 0 00 002321'		TDNE 	R1,[17B23]
   240	000244'	254 00 0 00 000255'		JRST 	EXNMS1
   241	000245'	012 00 0 00 002266'	EXNMS0: TYPE 	[ASCIZ 'EVERY ']
   242	000246'	200 01 1 00 000013 		MOVE 	R1,@LP
   243	000247'	242 01 0 00 777775 		LSH 	R1,-3
   244	000250'	405 01 0 00 000777 		ANDI 	R1,777
   245	000251'	307 01 0 00 000001 		CAIG 	R1,1
   246	000252'	263 17 0 00 000000 		POPJ 	P,
   247	000253'	260 17 0 00 000217'	EXNMS2: PUSHJ 	P,EXNM
   248	000254'	263 17 0 00 000000 		POPJ 	P,
   249	000255'	331 00 0 00 002176'	EXNMS1: SKIPL 	T3
   250	000256'	254 00 0 00 000266'		JRST 	EXNMS4
   251	000257'	612 01 0 00 002337'		TDNE 	R1,[4B20]
   252	000260'	254 00 0 00 000266'		JRST 	EXNMS4
   253	000261'	012 00 0 00 002263'	EXNMS3: TYPE 	[ASCIZ 'THE ']
   254	000262'	200 01 1 00 000013 		MOVE 	R1,@LP
   255	000263'	242 01 0 00 777775 		LSH 	R1,-3
   256	000264'	405 01 0 00 000777 		ANDI 	R1,777
   257	000265'	254 00 0 00 000253'		JRST 	EXNMS2
   258	000266'	612 01 0 00 002321'	EXNMS4: TDNE 	R1,[17B23]
   259	000267'	254 00 0 00 000261'		JRST 	EXNMS3
   260	000270'	254 00 0 00 000245'		JRST 	EXNMS0
   261
   262	000271'	200 01 1 00 000013 	PDATE: 	MOVE 	R1,@LP
   263	000272'	202 01 0 00 002174'		MOVEM 	R1,T1#
   264	000273'	242 01 0 00 777773 		LSH 	R1,-5
   265	000274'	405 01 0 00 000017 		ANDI 	R1,17
   266	000275'	200 01 0 01 000356'		MOVE 	R1,MONM(R1)
   267	000276'	260 17 0 00 001641'		PUSHJ 	P,PMSG
   268	000277'	200 01 0 00 002174'		MOVE 	R1,T1
   269	000300'	405 01 0 00 000037 		ANDI 	R1,37
   270	000301'	260 17 0 00 001644'		PUSHJ 	P,PDNO
   271	000302'	010 00 0 00 002340'		TCO 	[COMCHR]
   272	000303'	010 00 0 00 002341'	        TCO 	[SPACE]
   273	000304'	012 00 0 00 002342'		TYPE 	[ASCIZ '19']
   274	000305'	200 01 0 00 002174'		MOVE 	R1,T1
   275	000306'	242 01 0 00 777767 		LSH 	R1,-9
   276	000307'	405 01 0 00 000017 		ANDI 	R1,17
   277	000310'	302 01 0 00 000017 		CAIE 	R1,17
   278	000311'	275 01 0 00 000014 		SUBI 	R1,^D99-17-^D72
   279	000312'	271 01 0 00 000124 	        ADDI    R1,^D99-17
   280	000313'	260 17 0 00 001644'		PUSHJ 	P,PDNO
   281	000314'	200 03 0 00 000013 		MOVE 	R3,LP
   282	000315'	332 00 0 03 000001 		SKIPE 	1(R3)
   283	000316'	010 00 0 00 002340'		TCO 	[COMCHR]
   284	000317'	010 00 0 00 002274'		TCO 	[CRCHR]
   285	000320'	263 17 0 00 000000 		POPJ 	P,
   286
   287	000321'	000 00 0 00 000000 	DWKM: 	Z
   288	000322'	000000	000331'		        DWM
EXP             Dec 13, 1980	MACRO %53B(1156)-1 12:06  8-Mar-85 Page 1-3
EXP	MAC	15-Oct-73 17:36

   289	000323'	000000	000334'			DWM1
   290	000324'	000000	000337'			DWM2
   291	000325'	000000	000342'			DWM3
   292	000326'	000000	000345'			DWM4
   293	000327'	000000	000350'			DWM5
   294	000330'	000000	000353'			DWM6
   295	000331'	123 125 116 104 101 	DWM:    ASCIZ   'SUNDAY    '
   296	000332'	131 040 040 040 040
   297	000333'	000 000 000 000 000
   298	000334'	115 117 116 104 101 	DWM1:   ASCIZ   'MONDAY    '
   299	000335'	131 040 040 040 040
   300	000336'	000 000 000 000 000
   301	000337'	124 125 105 123 104 	DWM2:   ASCIZ   'TUESDAY   '
   302	000340'	101 131 040 040 040
   303	000341'	000 000 000 000 000
   304	000342'	127 105 104 116 105 	DWM3:   ASCIZ   'WEDNESDAY '
   305	000343'	123 104 101 131 040
   306	000344'	000 000 000 000 000
   307	000345'	124 110 125 122 123 	DWM4:   ASCIZ   'THURSDAY  '
   308	000346'	104 101 131 040 040
   309	000347'	000 000 000 000 000
   310	000350'	106 122 111 104 101 	DWM5:   ASCIZ   'FRIDAY    '
   311	000351'	131 040 040 040 040
   312	000352'	000 000 000 000 000
   313	000353'	123 101 124 125 122 	DWM6:   ASCIZ   'SATURDAY  '
   314	000354'	104 101 131 040 040
   315	000355'	000 000 000 000 000
   316	000356'	000000	000372'		MONM:   MM1
   317	000357'	000000	000373'		        MM2
   318	000360'	000000	000374'		        MM3
   319	000361'	000000	000375'		        MM4
   320	000362'	000000	000376'		        MM5
   321	000363'	000000	000377'		        MM6
   322	000364'	000000	000400'		        MM7
   323	000365'	000000	000401'		        MM8
   324	000366'	000000	000402'		        MM9
   325	000367'	000000	000403'		        MM10
   326	000370'	000000	000404'		        MM11
   327	000371'	000000	000405'		        MM12
   328	000372'	112 101 116 040 000 	MM1:    ASCIZ   'JAN '
   329	000373'	106 105 102 040 000 	MM2:    ASCIZ   'FEB '
   330	000374'	115 101 122 040 000 	MM3:    ASCIZ   'MAR '
   331	000375'	101 120 122 040 000 	MM4:    ASCIZ   'APR '
   332	000376'	115 101 131 040 000 	MM5:    ASCIZ   'MAY '
   333	000377'	112 125 116 040 000 	MM6:    ASCIZ   'JUN '
   334	000400'	112 125 114 040 000 	MM7:    ASCIZ   'JUL '
   335	000401'	101 125 107 040 000 	MM8:    ASCIZ   'AUG '
   336	000402'	123 105 120 040 000 	MM9:    ASCIZ   'SEP '
   337	000403'	117 103 124 040 000 	MM10:   ASCIZ   'OCT '
   338	000404'	116 117 126 040 000 	MM11:   ASCIZ   'NOV '
   339	000405'	104 105 103 040 000 	MM12:   ASCIZ   'DEC '
   340	000406'	264 00 0 00 000412'	DIS::   JSR     DS
   341	000407'	254 00 0 00 000001*	        JRST    CDISP
   342	000410'	260 17 0 00 000002'	TEST::  PUSHJ   P,EXA
   343	000411'	254 00 0 00 000406'	        JRST    DIS
EXP             Dec 13, 1980	MACRO %53B(1156)-1 12:06  8-Mar-85 Page 1-4
EXP	MAC	15-Oct-73 17:36

   344
   345					;DISPLAY ALL DATES
   346	000412'	000 00 0 00 000000 	DS:     Z
   347	000413'	336 00 0 00 001746'	        SKIPN   LIST
   348	000414'	254 00 0 00 000004'	        JRST    EXER            ;N LIST EXISTS
   349	000415'	264 00 0 00 000420'	        JSR     DSX
   350	000416'	010 00 0 00 002274'	        TCO     [CRCHR]
   351	000417'	254 00 0 00 000437'	        JRST    DSST
   3  353	000420'	000 00 0 00 000000 	DSX::   Z
   354	000421'	260 17 0 00 001614'	        PUSHJ   P,GCRDT
   355	000422'	200 01 0 00 002150'	        MOVE    R1,SDATE
   356	000423'	612 01 0 00 002343'	        TDNE    R1,[4B13]
   357	000424'	254 00 0 00 000427'	        JRST    .+3
   358	000425'	260 17 0 00 001565'	        PUSHJ   P,DATCV
   359	000426'	337 00 0 00 000001 	        SKIPG   R1
   360	000427'	200 01 0 00 002176'	        MOVE    R1,T3
   361	000430'	202 01 0 00 002163'	        MOVEM   R1,CURDT#
   362	000431'	200 03 0 00 002344'	        MOVE    R3,[-100]
   363	000432'	200 01 0 03 002046'	        MOVE    R1,LIST+100(R3)
   364	000433'	202 01 0 03 002146'	        MOVEM   R1,TLIST+100(R3)
   365	000434'	322 01 0 00 000436'	        JUMPE   R1,.+2
   366	000435'	341 03 0 00 000432'	        AOJL    R3,.-3
   367	000436'	254 00 1 00 000420'	        JRST    @DSX
   368
   369	000437'	264 00 0 00 000447'	DSST:   JSR     DS0
   370	000440'	317 01 0 00 002345'	DSST1:  CAMG    R1,[LASTDT]
   371	000441'	337 00 0 00 000001 	        SKIPG   R1
   372	000442'	254 00 0 00 001136'	        JRST    DSER
   373	000443'	202 01 0 00 002163'	        MOVEM   R1,CURDT
   374	000444'	260 17 0 00 001647'	        PUSHJ   P,PBNDT         ;PRINT DATE IN R1
   375	000445'	010 00 0 00 002274'	        TCO     [CRCHR]
   376	000446'	254 00 0 00 000437'	        JRST    DSST
   377
   378	000447'	000 00 0 00 000000 	DS0::   Z
   379	000450'	201 01 0 00 002046'	        MOVEI   R1,TLIST
   380	000451'	202 01 0 00 000013 	        MOVEM   R1,LP
   381	000452'	400 01 0 00 000000 		setz	r1,
   382	000453'	202 01 0 00 002200'		movem	r1,tlp#
   383	000454'	202 01 0 00 002206'		movem	r1,xlp#
   384	000455'	474 01 0 00 000000 	DS1:    SETO    R1,
   385	000456'	202 01 0 00 002172'	        MOVEM   R1,REFDT#
   386	000457'	202 01 0 00 002204'	        MOVEM   R1,UNTDT#
   387	000460'	202 01 0 00 002205'	        MOVEM   R1,XDATE#
   388	000461'	202 01 0 00 002170'	        MOVEM   R1,LATSW#
   389	000462'	202 01 0 00 002171'	        MOVEM   R1,ORDSW#
   390	000463'	202 01 0 00 002167'	        MOVEM   R1,GRPDT#
   391	000464'	202 01 0 00 002177'	        MOVEM   R1,TCRDT#
   392	000465'	200 01 1 00 000013 	DS2:    MOVE    R1,@LP
   393	000466'	135 03 0 00 002215'	        LDB     R3,[POINT 3,R1,14]
   394	000467'	302 03 0 00 000001 	        CAIE    R3,1
   395	000470'	254 00 0 00 000545'	        JRST    DSD
   396	000471'	264 00 0 00 000473'	        JSR     DSF
   397	000472'	254 00 0 00 000465'	        JRST    DS2
   398
EXP             Dec 13, 1980	MACRO %53B(1156)-1 12:06  8-Mar-85 Page 1-5
EXP	MAC	15-Oct-73 17:36

   399					;FLAG WORD
   400	000473'	000 00 0 00 000000 	DSF:    Z
   401	000474'	612 01 0 00 002216'	        TDNE    R1,[17777]
   402	000475'	254 00 0 00 000517'	        JRST    DSFD            ;HAVE A DATE
   403	000476'	612 01 0 00 002217'	DS3:    TDNE    R1,[2B17]
   404	000477'	254 00 0 00 000512'	        JRST    DSFS
   405	000500'	612 01 0 00 002220'	        TDNE    R1,[1B17]
   406	000501'	254 00 0 00 000506'	        JRST    DSFL
   407	000502'	474 01 0 00 000000 	        SETO    R1,
   408	000503'	254 00 0 00 000506'	        JRST    DSFL
   409	000504'	350 00 0 00 000013 	DSN:    AOS     LP
   410	000505'	254 00 1 00 000473'	        JRST    @DSF
   411	000506'	202 01 0 00 002170'	DSFL:   MOVEM   R1,LATSW
   412	000507'	474 01 0 00 000000 	        SETO    R1,
   413	000510'	202 01 0 00 002171'	        MOVEM   R1,ORDSW
   414	000511'	254 00 0 00 000504'	        JRST    DSN
   415	000512'	612 01 0 00 002220'	DSFS:   TDNE    R1,[1B17]
   416	000513'	254 00 0 00 000516'	        JRST    DSFA
   417	000514'	202 01 0 00 002171'	        MOVEM   R1,ORDSW
   418	000515'	254 00 0 00 000504'	        JRST    DSN
   419	000516'	015 00 0 00 002346'	DSFA:   ERROR   [ASCIZ 'EXCEPT USED WITHOUT A LIST OF DATES$']
   420
   421					;PROCESS A FLAG WORD WITH DATE
   422	000517'	612 01 0 00 002245'	DSFD:   TDNE    R1,[4B17]
   423	000520'	254 00 0 00 000526'	        JRST    DSFD2           ;UNLESS
   424	000521'	260 17 0 00 001565'	        PUSHJ   P,DATCV
   425	000522'	202 01 0 00 002172'	        MOVEM   R1,REFDT
   426	000523'	202 01 0 00 002202'	        MOVEM   R1,TSTDT#
   427	000524'	200 01 1 00 000013 	DSFD1:  MOVE    R1,@LP
   428	000525'	254 00 0 00 000476'	        JRST    DS3
   429	000526'	612 01 0 00 002220'	DSFD2:  TDNE    R1,[1B17]
   430	000527'	254 00 0 00 000540'	        JRST    DSFST
   431	000530'	312 01 0 00 002356'	DSFU:   CAME    R1,[14017000]
   432	000531'	254 00 0 00 000534'	        JRST    .+3
   433	000532'	474 01 0 00 000000 	        SETO    R1,
   434	000533'	254 00 0 00 000535'	        JRST    .+2
   435	000534'	260 17 0 00 001565'	        PUSHJ   P,DATCV
   436	000535'	202 01 0 00 002204'	        MOVEM   R1,UNTDT
   437	000536'	202 01 0 00 002203'	        MOVEM   R1,TUNDT#
   438	000537'	254 00 0 00 000504'	        JRST    DSN
   439	000540'	260 17 0 00 001565'	DSFST:  PUSHJ   P,DATCV
   440	000541'	317 01 0 00 002163'	        CAMG    R1,CURDT
   441	000542'	254 00 0 00 000504'	        JRST    DSN
   442	000543'	202 01 0 00 002177'	        MOVEM   R1,TCRDT
   443	000544'	254 00 0 00 000504'	        JRST    DSN
   444
   445					;*PROCESS DATE LIST
   446	000545'	200 01 0 00 000013 	DSD:    MOVE    R1,LP
   447	000546'	202 01 0 00 002157'	        MOVEM   R1,BGLIS#
   448	000547'	474 01 0 00 000000 	DSD0A:  SETO    R1,
   449	000550'	202 01 0 00 002205'	        MOVEM   R1,XDATE
   450	000551'	202 01 0 00 002166'	        MOVEM   R1,EXCSW#
   451	000552'	264 00 0 00 000667'	DSDS:   JSR     DSGD
   452	000553'	254 00 0 00 000617'	        JRST    DSDEN           ;END OF LIST
   453	000554'	331 00 0 00 002171'	        SKIPL   ORDSW
EXP             Dec 13, 1980	MACRO %53B(1156)-1 12:06  8-Mar-85 Page 1-6
EXP	MAC	15-Oct-73 17:36

   454	000555'	254 00 0 00 000561'	        JRST    DSDS2
   455	000556'	264 00 0 00 000567'	        JSR     DSDT
   456	000557'	254 00 0 00 000552'	        JRST    DSDS
   457	000560'	254 00 0 00 000552'	        JRST    DSDS
   458	000561'	200 03 0 00 000013 	DSDS2:  MOVE    R3,LP
   459	000562'	474 02 0 00 000000 	        SETO    R2,
   460	000563'	202 02 0 03 777777 	        MOVEM   R2,-1(R3)
   461	000564'	264 00 0 00 000567'	        JSR     DSDT
   462	000565'	254 00 0 00 000552'	        JRST    DSDS
   463	000566'	254 00 0 00 000617'	        JRST    DSDEN
   464
   465					;*ERROR RETURN IF FOUND NO VALID DATE
   466	000567'	000 00 0 00 000000 	DSDT:   Z
   467	000570'	331 00 0 00 002203'	        SKIPL   TUNDT
   468	000571'	317 01 0 00 002203'	        CAMG 	R1,TUNDT
   469	000572'	254 00 0 00 000574'	        JRST    .+2
   470	000573'	254 00 1 00 000567'	        JRST    @DSDT
   471	000574'	317 01 0 00 002177'	        CAMG    R1,TCRDT
   472	000575'	254 00 1 00 000567'	        JRST    @DSDT
   473	000576'	317 01 0 00 002163'	        CAMG    R1,CURDT
   474	000577'	254 00 1 00 000567'	        JRST    @DSDT
   475	000600'	331 00 0 00 002205'	        SKIPL   XDATE
   476	000601'	254 00 0 00 000607'	        JRST    DSDT2
   477	000602'	202 01 0 00 002205'	DSDT1:  MOVEM   R1,XDATE
   478	000603'	200 01 0 00 002200'	        MOVE    R1,TLP
   479	000604'	202 01 0 00 002206'	        MOVEM   R1,XLP
   480	000605'	350 00 0 00 000567'	        AOS     DSDT
   481	000606'	254 00 1 00 000567'	        JRST    @DSDT
   482	000607'	331 00 0 00 002170'	DSDT2:  SKIPL   LATSW
   483	000610'	254 00 0 00 000614'	        JRST    .+4
   484	000611'	317 01 0 00 002205'	        CAMG    R1,XDATE
   485	000612'	254 00 0 00 000602'	        JRST    DSDT1
   486	000613'	254 00 1 00 000567'	        JRST    @DSDT
   487	000614'	317 01 0 00 002205'	        CAMG    R1,XDATE
   488	000615'	254 00 1 00 000567'	        JRST    @DSDT
   489	000616'	254 00 0 00 000602'	        JRST    DSDT1
   490
   491					;END OF LIST
   492	000617'	200 01 0 00 002205'	DSDEN:  MOVE    R1,XDATE
   493	000620'	323 01 0 00 000650'	        JUMPLE  R1,DSDEN1
   494	000621'	202 01 0 00 002163'	        MOVEM   R1,CURDT
   495	000622'	331 00 0 00 002166'	        SKIPL   EXCSW
   496	000623'	254 00 0 00 000633'	        JRST    DSDEN5
   497	000624'	200 01 1 00 002206'	        MOVE    R1,@XLP
   498	000625'	616 01 0 00 002273'	        TDNN    R1,[2B20]
   499	000626'	254 00 0 00 000631'	        JRST    .+3
   500	000627'	474 01 0 00 000000 	        SETO    R1,
   501	000630'	202 01 1 00 002206'	        MOVEM   R1,@XLP
   502	000631'	200 01 0 00 002205'	        MOVE    R1,XDATE
   503	000632'	254 00 1 00 000447'	        JRST    @DS0
   504
   505					;* PROCESS 'EXCEPT'
   506	000633'	371 00 0 00 002163'	DSDEN5: SOSL    CURDT
   507	000634'	264 00 0 00 000667'	DSDEN2: JSR     DSGD
   508	000635'	254 00 0 00 000645'	        JRST    DSEXN
EXP             Dec 13, 1980	MACRO %53B(1156)-1 12:06  8-Mar-85 Page 1-7
EXP	MAC	15-Oct-73 17:36

   509	000636'	275 01 0 00 000001 	        SUBI    R1,1
   510	000637'	312 01 0 00 002163'	        CAME    R1,CURDT
   511	000640'	254 00 0 00 000634'	        JRST    DSDEN2
   512	000641'	350 00 0 00 002163'	        AOS     CURDT
   513	000642'	200 01 0 00 002157'	        MOVE    R1,BGLIS
   514	000643'	202 01 0 00 000013 	        MOVEM   R1,LP
   515	000644'	254 00 0 00 000547'	        JRST    DSD0A
   516	000645'	350 00 0 00 002163'	DSEXN:  AOS     CURDT
   517	000646'	200 01 0 00 002163'	        MOVE    R1,CURDT
   518	000647'	254 00 1 00 000447'	        JRST    @DS0
   519	000650'	331 00 0 00 002177'	DSDEN1: SKIPL   TCRDT
   520	000651'	254 00 0 00 000662'	        JRST    DSDEN4
   521	000652'	400 01 0 00 000000 	DSDEN3: SETZ    R1,
   522	000653'	331 00 0 00 002166'	        SKIPL   EXCSW
   523	000654'	254 00 1 00 000447'	        JRST    @DS0
   524	000655'	332 00 1 00 000013 	        SKIPE   @LP
   525	000656'	200 01 1 00 000013 	        MOVE    R1,@LP
   526	000657'	332 00 1 00 000013 	        SKIPE   @LP
   527	000660'	254 00 0 00 000455'	        JRST    DS1
   528	000661'	254 00 1 00 000447'	        JRST    @DS0
   529	000662'	200 01 0 00 002177'	DSDEN4: MOVE    R1,TCRDT
   530	000663'	317 01 0 00 002163'	        CAMG    R1,CURDT
   531	000664'	254 00 0 00 000652'	        JRST    DSDEN3
   532	000665'	202 01 0 00 002163'	        MOVEM   R1,CURDT
   533	000666'	254 00 0 00 000450'	        JRST    DS0+1
   534
   535					;GETS A DATE FROM A GROUP
   536	000667'	000 00 0 00 000000 	DSGD:   Z
   537	000670'	200 01 0 00 000013 	DSGD2:  MOVE    R1,LP
   538	000671'	202 01 0 00 002156'	        MOVEM   R1,BGGRP#
   539	000672'	200 01 0 00 002172'	        MOVE    R1,REFDT
   540	000673'	337 00 0 00 002172'	        SKIPG   REFDT
   541	000674'	200 01 0 00 002163'	        MOVE    R1,CURDT
   542	000675'	202 01 0 00 002202'	        MOVEM   R1,TSTDT
   543	000676'	200 01 0 00 002204'	        MOVE    R1,UNTDT
   544	000677'	202 01 0 00 002203'	        MOVEM   R1,TUNDT
   545	000700'	474 01 0 00 000000 	        SETO    R1,
   546	000701'	202 01 0 00 002167'	        MOVEM   R1,GRPDT
   547	000702'	202 01 0 00 002153'	        MOVEM   R1,AFTSW
   548	000703'	202 01 0 00 002152'	        MOVEM   R1,AFTDT#
   549	000704'	202 01 0 00 002155'	        MOVEM   R1,BEFDT#
   550	000705'	202 01 0 00 002154'	        MOVEM   R1,ASW#
   551	000706'	202 01 0 00 002160'	        MOVEM   R1,BSW#
   552	000707'	200 01 1 00 000013 	        MOVE    R1,@LP
   553	000710'	312 01 0 00 002357'	DSGD2A: CAME    R1,[-1]
   554	000711'	254 00 0 00 000714'	        JRST    .+3
   555	000712'	350 00 0 00 000013 	DSGDN:  AOS     LP
   556	000713'	254 00 0 00 000670'	        JRST    DSGD2
   557	000714'	322 01 1 00 000667'	        JUMPE   R1,@DSGD
   558	000715'	135 03 0 00 002215'	        LDB     R3,[POINT 3,R1,14]
   559	000716'	302 03 0 00 000001 	        CAIE    R3,1
   560	000717'	254 00 0 00 000730'	        JRST    DSGD3
   561	000720'	135 03 0 00 002360'	        LDB     R3,[POINT 3,R1,17]
   562	000721'	302 03 0 00 000003 	        CAIE    R3,3
   563	000722'	254 00 0 00 000726'	        JRST    DSGF
EXP             Dec 13, 1980	MACRO %53B(1156)-1 12:06  8-Mar-85 Page 1-8
EXP	MAC	15-Oct-73 17:36

   564	000723'	350 00 0 00 000013 	        AOS     LP
   565	000724'	350 00 0 00 002166'	        AOS     EXCSW
   566	000725'	254 00 1 00 000667'	        JRST    @DSGD
   567	000726'	264 00 0 00 000473'	DSGF:   JSR     DSF
   568	000727'	254 00 0 00 000670'	        JRST    DSGD2
   569	000730'	331 00 0 00 002203'	DSGD3:  SKIPL   TUNDT
   570	000731'	254 00 0 00 001075'	        JRST    D14
   571	000732'	200 01 0 00 002163'	        MOVE    R1,CURDT
   572	000733'	313 01 0 00 002345'	        CAMLE   R1,[LASTDT]
   573	000734'	254 00 0 00 000712'	        JRST    DSGDN
   574	000735'	200 01 1 00 000013 	        MOVE    R1,@LP
   575	000736'	302 03 0 00 000002 	DSGD3A: CAIE    R3,2
   576	000737'	254 00 0 00 000746'	        JRST    DSGD4
   577					;TYPE DATE WORD
   578	000740'	260 17 0 00 001565'	        PUSHJ   P,DATCV
   579	000741'	317 01 0 00 002163'	        CAMG    R1,CURDT
   580	000742'	254 00 0 00 000712'	        JRST    DSGDN
   581	000743'	350 00 0 00 000013 	DEX:    AOS     LP
   582	000744'	350 00 0 00 000667'	        AOS     DSGD
   583	000745'	254 00 1 00 000667'	        JRST    @DSGD
   584	000746'	302 03 0 00 000003 	DSGD4:  CAIE    R3,3
   585	000747'	254 00 0 00 001140'	        JRST    ER1
   586	000750'	404 01 0 00 002262'	        AND     R1,[3B17]
   587	000751'	317 01 0 00 002217'	        CAMG    R1,[2B17]
   588	000752'	337 00 0 00 000001 	        SKIPG   R1
   589	000753'	254 00 0 00 001072'	        JRST    D2
   590	000754'	350 00 0 00 002153'	        AOS     AFTSW#
   591	000755'	350 00 0 00 000013 	D1:     AOS     LP
   592	000756'	200 01 1 00 000013 	        MOVE    R1,@LP
   593	000757'	337 00 0 00 000001 	        SKIPG   R1
   594	000760'	254 00 0 00 000710'	        JRST    DSGD2A
   595	000761'	135 03 0 00 002215'	        LDB     R3,[POINT 3,R1,14]
   596	000762'	306 03 0 00 000001 	        CAIN    R3,1
   597	000763'	254 00 0 00 001141'	        JRST    ER2
   598	000764'	302 03 0 00 000002 	        CAIE    R3,2
   599	000765'	254 00 0 00 001032'	        JRST    D3
   600					;PROCESS DATE WORD
   601	000766'	336 00 0 00 002153'	        SKIPN   AFTSW
   602	000767'	254 00 0 00 001017'	        JRST    D7              ;FOR SOME AFTER DATE
   603	000770'	612 01 0 00 002245'	D11:    TDNE    R1,[4B17]
   604	000771'	254 00 0 00 001062'	        JRST    D8              ;FOR UNTIL
   605	000772'	260 17 0 00 001565'	        PUSHJ   P,DATCV         ;CONVERT THE DATE
   606	000773'	202 01 0 00 002202'	        MOVEM   R1,TSTDT
   607	000774'	200 01 1 00 000013 	D12:    MOVE    R1,@LP
   608	000775'	612 01 0 00 002337'	        TDNE    R1,[4B20]
   609	000776'	254 00 0 00 001024'	        JRST    D9              ;DATE CONTINUES
   610	000777'	200 01 0 00 000013 	        MOVE    R1,LP
   611	001000'	202 01 0 00 002165'	        MOVEM   R1,ENGRP#
   612					;SEARCH BACK FOR LAST FOUND DAY WORD
   613	001001'	370 00 0 00 000013 	D10:    SOS     LP
   614	001002'	200 01 1 00 000013 	        MOVE    R1,@LP
   615	001003'	135 03 0 00 002215'	        LDB     R3,[POINT 3,R1,14]
   616	001004'	302 03 0 00 000003 	        CAIE    R3,3
   617	001005'	254 00 0 00 001001'	        JRST    D10
   618	001006'	254 00 0 00 001010'	        JRST    .+2
EXP             Dec 13, 1980	MACRO %53B(1156)-1 12:06  8-Mar-85 Page 1-9
EXP	MAC	15-Oct-73 17:36

   619	001007'	370 00 0 00 000013 	        SOS     LP
   620	001010'	264 00 0 00 001143'	        JSR     GTD
   621	001011'	200 01 0 00 000013 	        MOVE    R1,LP
   622	001012'	312 01 0 00 002156'	        CAME    R1,BGGRP
   623	001013'	254 00 0 00 001007'	        JRST    .-4
   624	001014'	200 01 0 00 002165'	        MOVE    R1,ENGRP
   625	001015'	202 01 0 00 000013 	        MOVEM   R1,LP
   626	001016'	254 00 0 00 001124'	        JRST    DJ4
   627
   628					;FOR DAT AFTER 'AFTER'
   629
   630	001017'	612 01 0 00 002245'	D7:     TDNE    R1,[4B17]
   631	001020'	254 00 0 00 001142'	        JRST    ER3             ;CANT HAVE UNTIL
   632	001021'	260 17 0 00 001565'	        PUSHJ   P,DATCV
   633	001022'	202 01 0 00 002167'	        MOVEM   R1,GRPDT
   634	001023'	254 00 0 00 000774'	        JRST    D12
   635
   636					;POSSIBLE CONTINUATION AFTER DATE
   637
   638	001024'	350 00 0 00 000013 	D9:     AOS     LP
   639	001025'	200 01 1 00 000013 	        MOVE    R1,@LP
   640	001026'	135 03 0 00 002215'	        LDB     R3,[POINT 3,R1,14]
   641	001027'	302 03 0 00 000002 	        CAIE    R3,2
   642	001030'	254 00 0 00 001142'	        JRST    ER3             ;TROUBLE
   643	001031'	254 00 0 00 000770'	        JRST    D11
   644	001032'	302 03 0 00 000003 	D3:     CAIE    R3,3
   645	001033'	254 00 0 00 001140'	        JRST    ER1             ;NOT A VALID WORD
   646
   647					;DAY WORD AFTER CONTINUATION
   648
   649	001034'	612 01 0 00 002337'	        TDNE    R1,[4B20]
   650	001035'	254 00 0 00 001067'	        JRST    D4              ;CONTINUES WITH AN AND
   651	001036'	404 01 0 00 002262'	        AND     R1,[3B17]
   652	001037'	317 01 0 00 002217'	        CAMG    R1,[2B17]
   653	001040'	337 00 0 00 000001 	        SKIPG   R1
   654	001041'	254 00 0 00 001044'	        JRST    D5              ;NO MORE CONTINUE
   655
   656					;AFTER-BEFORE CONTINUE
   657
   658	001042'	350 00 0 00 002153'	        AOS     AFTSW
   659	001043'	254 00 0 00 000755'	        JRST    D1
   660	001044'	474 01 0 00 000000 	D5:     SETO    R1,
   661	001045'	202 00 0 00 002153'	        MOVEM   AFTSW
   662	001046'	200 01 0 00 000013 	        MOVE    R1,LP
   663	001047'	202 01 0 00 002165'	        MOVEM   R1,ENGRP
   664	001050'	264 00 0 00 001143'	        JSR     GTD
   665	001051'	370 00 0 00 000013 	D6:     SOS     LP
   666	001052'	264 00 0 00 001143'	D6A:    JSR     GTD
   667	001053'	200 01 0 00 000013 	        MOVE    R1,LP
   668	001054'	312 01 0 00 002156'	        CAME    R1,BGGRP
   669	001055'	254 00 0 00 001051'	        JRST    D6
   670	001056'	200 01 0 00 002165'	        MOVE    R1,ENGRP
   671	001057'	202 01 0 00 000013 	        MOVEM   R1,LP
   672	001060'	264 00 0 00 001102'	        JSR     DJ
   673	001061'	254 00 0 00 001052'	        JRST    D6A
EXP             Dec 13, 1980	MACRO %53B(1156)-1 12:06  8-Mar-85 Page 1-10
EXP	MAC	15-Oct-73 17:36

   674
   675	001062'	260 17 0 00 001565'	D8:     PUSHJ   P,DATCV
   676	001063'	331 00 0 00 002203'	        SKIPL   TUNDT
   677	001064'	317 00 0 00 002203'	        CAMG    TUNDT
   678	001065'	202 01 0 00 002203'	        MOVEM   R1,TUNDT
   679	001066'	254 00 0 00 000774'	        JRST    D12
   680	001067'	474 01 0 00 000000 	D4:     SETO    R1,
   681	001070'	202 01 0 00 002153'	        MOVEM   R1,AFTSW
   682	001071'	254 00 0 00 000755'	        JRST    D1
   683
   684	001072'	264 00 0 00 001143'	D2:     JSR     GTD
   685	001073'	264 00 0 00 001102'	        JSR     DJ
   686	001074'	254 00 0 00 001072'	        JRST    D2
   687
   688	001075'	200 01 0 00 002163'	D14:    MOVE    R1,CURDT
   689	001076'	313 01 0 00 002203'	        CAMLE   R1,TUNDT
   690	001077'	254 00 0 00 000712'	        JRST    DSGDN           ;CUR PAST UNTIL
   691	001100'	200 01 1 00 000013 	        MOVE    R1,@LP
   692
   693	001101'	254 00 0 00 000736'	       JRST    DSGD3A
   694
   695					;
   696					;DATE ADJUST
   697					;
   698	001102'	000 00 0 00 000000 	DJ:     Z
   699	001103'	200 01 0 00 002167'	        MOVE    R1,GRPDT
   700	001104'	317 01 0 00 002163'	        CAMG    R1,CURDT
   701	001105'	254 00 0 00 001115'	        JRST    DJ1
   702	001106'	331 00 0 00 002155'	        SKIPL   BEFDT
   703	001107'	254 00 0 00 001124'	        JRST    DJ4
   704	001110'	202 01 0 00 002152'	        MOVEM   R1,AFTDT
   705	001111'	350 00 0 00 002160'	        AOS     BSW             ;FORCE BACKUP
   706	001112'	474 01 0 00 000000 	DJ2:    SETO    R1,
   707	001113'	202 01 0 00 002167'	        MOVEM   R1,GRPDT
   708	001114'	254 00 1 00 001102'	        JRST    @DJ
   709	001115'	331 00 0 00 002152'	DJ1:    SKIPL   AFTDT
   710	001116'	254 00 0 00 001122'	        JRST    DJ3
   711	001117'	202 01 0 00 002155'	        MOVEM   R1,BEFDT
   712	001120'	350 00 0 00 002154'	        AOS     ASW
   713	001121'	254 00 0 00 001112'	        JRST    DJ2
   714	001122'	200 01 0 00 002152'	DJ3:    MOVE    R1,AFTDT
   715	001123'	202 01 0 00 002167'	        MOVEM   R1,GRPDT
   716	001124'	474 02 0 00 000000 	DJ4:    SETO    R2,
   717	001125'	200 01 1 00 000013 	        MOVE    R1,@LP
   718	001126'	612 01 0 00 002273'	        TDNE    R1,[2B20]
   719	001127'	254 00 0 00 001132'	        JRST    DJ5
   720	001130'	200 01 0 00 002167'	        MOVE    R1,GRPDT
   721	001131'	254 00 0 00 000743'	        JRST    DEX
   722	001132'	200 01 0 00 000013 	DJ5:    MOVE    R1,LP
   723	001133'	202 01 0 00 002200'	        MOVEM   R1,TLP
   724	001134'	200 01 0 00 002167'	        MOVE    R1,GRPDT
   725	001135'	254 00 0 00 000743'	        JRST    DEX
   726
   727	001136'	012 00 0 00 002361'	DSER:   TYPE    [ASCIZ '$NO FURTHER DATES']
   728	001137'	254 00 1 00 000412'	        JRST    @DS
EXP             Dec 13, 1980	MACRO %53B(1156)-1 12:06  8-Mar-85 Page 1-11
EXP	MAC	15-Oct-73 17:36

   729	001140'	015 00 0 00 002365'	ER1:    ERROR   [ASCIZ '$INVALID WORD OR GARBAGE FOUND IN LIST']
   730	001141'	015 00 0 00 002375'	ER2:    ERROR   [ASCIZ '$CONTINUATION WITH AND-AFTER-BEFORE DOES NOT END']
   731	001142'	015 00 0 00 002407'	ER3:    ERROR   [ASCIZ '$CONTINUATION FROM DATE WORD WITH NO DATE WORD AFTER']
   732
   733					;GETS DATE FOR DAY WORD SETS GRPDT AND RETURNS IN R1
   734	001143'	000 00 0 00 000000 	GTD:    Z
   735	001144'	200 01 1 00 000013 	        MOVE    R1,@LP
   736	001145'	135 03 0 00 002215'	        LDB     R3,[POINT 3,R1,14]
   737	001146'	302 03 0 00 000003 	        CAIE    R3,3
   738	001147'	264 00 0 00 002146'	        JSR     HLTER           ;MUST BE A DAY WORD
   739	001150'	202 01 0 00 002151'	        MOVEM   R1,ABSW#
   740	001151'	612 01 0 00 002262'	        TDNE    R1,[3B17]
   741	001152'	254 00 0 00 001236'	        JRST    G1
   742	001153'	331 00 0 00 002167'	G01:    SKIPL   GRPDT
   743	001154'	264 00 0 00 002146'	        JSR     HLTER           ;CANT ALREADY HAVE DATE W.O BEF-AFT
   744	001155'	434 01 0 00 002220'	        OR      R1,[1B17]
   745	001156'	202 01 0 00 002151'	        MOVEM   R1,ABSW         ;FORCE AFTER
   746	001157'	612 01 0 00 002321'	        TDNE    R1,[170000]
   747	001160'	254 00 0 00 001421'	        JRST    G12             ;HAVE MONTH
   748					;NON BEFORE AFTER LOGIC
   749	001161'	200 01 0 00 002151'	G03:    MOVE    R1,ABSW
   750	001162'	612 01 0 00 002260'	        TDNE    R1,[7]
   751	001163'	254 00 0 00 001370'	        JRST    G4              ;HAVE DAY OF THE WEEK
   752	001164'	616 01 0 00 002261'	        TDNN    R1,[7770]
   753	001165'	264 00 0 00 002146'	        JSR     HLTER           ;ERROR
   754					;PROCESS NUMBER OF DAY CYCLE
   755	001166'	242 01 0 00 777775 	        LSH     R1,-3
   756	001167'	404 01 0 00 002422'	        AND     R1,[777]
   757	001170'	202 01 0 00 002164'	        MOVEM   R1,CYCLE#
   758	001171'	200 01 0 00 002202'	        MOVE    R1,TSTDT
   759	001172'	312 01 0 00 002163'	        CAME    R1,CURDT
   760	001173'	254 00 0 00 001176'	        JRST    .+3
   761	001174'	200 01 0 00 002164'	        MOVE    R1,CYCLE
   762	001175'	254 00 0 00 001213'	        JRST    G04A
   763	001176'	230 01 0 00 002164'	        IDIV    R1,CYCLE
   764	001177'	202 02 0 00 002173'	        MOVEM   R2,RMNDR#
   765	001200'	200 01 0 00 002163'	G04:    MOVE    R1,CURDT
   766	001201'	230 01 0 00 002164'	        IDIV    R1,CYCLE
   767	001202'	210 01 0 00 000002 	        MOVN    R1,R2
   768	001203'	270 01 0 00 002173'	        ADD     R1,RMNDR
   769	001204'	200 02 0 00 002151'	        MOVE    R2,ABSW
   770	001205'	612 02 0 00 002217'	        TDNE    R2,[2B17]
   771	001206'	213 00 0 00 000001 	        MOVNS   R1
   772	001207'	307 01 0 00 000000 	        CAIG    R1,0
   773	001210'	270 01 0 00 002164'	        ADD     R1,CYCLE
   774	001211'	612 02 0 00 002217'	        TDNE    R2,[2B17]
   775	001212'	213 00 0 00 000001 	        MOVNS   R1
   776	001213'	270 01 0 00 002163'	G04A:   ADD     R1,CURDT
   777	001214'	331 00 0 00 002154'	        SKIPL   ASW
   778	001215'	254 00 0 00 001222'	        JRST    G06
   779	001216'	331 00 0 00 002160'	        SKIPL   BSW
   780	001217'	254 00 0 00 001230'	        JRST    G07
   781	001220'	202 01 0 00 002167'	G05:    MOVEM   R1,GRPDT
   782	001221'	254 00 1 00 001143'	        JRST    @GTD
   783	001222'	200 02 0 00 002154'	G06:    MOVE    R2,ASW
EXP             Dec 13, 1980	MACRO %53B(1156)-1 12:06  8-Mar-85 Page 1-12
EXP	MAC	15-Oct-73 17:36

   784	001223'	202 02 0 00 002175'	        MOVEM   R2,T2#
   785	001224'	270 01 0 00 002164'	        ADD     R1,CYCLE
   786	001225'	371 00 0 00 002175'	        SOSL    T2
   787	001226'	254 00 0 00 001224'	        JRST    .-2
   788	001227'	254 00 0 00 001220'	        JRST    G05
   789	001230'	200 02 0 00 002160'	G07:    MOVE    R2,BSW
   790	001231'	202 02 0 00 002175'	        MOVEM   R2,T2
   791	001232'	274 01 0 00 002164'	        SUB     R1,CYCLE
   792	001233'	371 00 0 00 002175'	        SOSL    T2
   793	001234'	254 00 0 00 001232'	        JRST    .-2
   794	001235'	254 00 0 00 001220'	        JRST    G05
   795
   796					;POSSIBLE AFTER/BEFORE FLAGS
   797	001236'	135 03 0 00 002272'	G1:     LDB     R3,[POINT 2,R1,17]
   798	001237'	306 03 0 00 000003 	        CAIN    R3,3
   799	001240'	264 00 0 00 002146'	        JSR     HLTER
   800					;       START BEFORE AFTER PROCESSING
   801					;
   802	001241'	612 01 0 00 002321'	G1B:    TDNE    R1,[170000]
   803	001242'	254 00 0 00 001264'	        JRST    G2              ;HAVE MONTH
   804	001243'	612 01 0 00 002260'	G1A:    TDNE    R1,[7]
   805	001244'	254 00 0 00 001344'	        JRST    G3              ;HAVE DAY OF THE WEEK
   806	001245'	616 01 0 00 002261'	        TDNN    R1,[7770]
   807	001246'	264 00 0 00 002146'	        JSR     HLTER
   808	001247'	242 01 0 00 777775 	        LSH     R1,-3
   809	001250'	404 01 0 00 002422'	        AND     R1,[777]
   810	001251'	202 01 0 00 002164'	        MOVEM   R1,CYCLE
   811	001252'	200 02 0 00 002151'	        MOVE    R2,ABSW
   812	001253'	200 01 0 00 002167'	        MOVE    R1,GRPDT
   813	001254'	612 02 0 00 002220'	        TDNE    R2,[1B17]
   814	001255'	270 01 0 00 002164'	        ADD     R1,CYCLE
   815	001256'	612 02 0 00 002217'	        TDNE    R2,[2B17]
   816	001257'	274 01 0 00 002164'	        SUB     R1,CYCLE
   817	001260'	612 01 0 00 002423'	        TDNE    R1,[4B14]
   818	001261'	400 01 0 00 000000 	        SETZ    R1,
   819	001262'	202 01 0 00 002167'	        MOVEM   R1,GRPDT
   820	001263'	254 00 1 00 001143'	        JRST    @GTD
   821					;PROCESS MONTH FOR AFTER/BEFORE
   822	001264'	242 01 0 00 777764 	G2:     LSH     R1,-14
   823	001265'	404 01 0 00 002424'	        AND     R1,[17]
   824	001266'	202 01 0 00 002174'	        MOVEM   R1,T1
   825	001267'	200 01 0 00 002167'	        MOVE    R1,GRPDT
   826	001270'	264 00 0 00 001512'	        JSR     FDMN            ;GETS YEAR/MONTH
   827	001271'	200 01 0 00 002151'	        MOVE    R1,ABSW
   828	001272'	612 01 0 00 002220'	        TDNE    R1,[1B17]
   829	001273'	254 00 0 00 001326'	        JRST    G6              ;AFTER
   830					;BEFORE
   831	001274'	200 01 0 00 000000*	        MOVE    R1,MN##
   832	001275'	274 01 0 00 002174'	        SUB     R1,T1
   833	001276'	317 01 0 00 002357'	        CAMG    R1,[-1]
   834	001277'	254 00 0 00 001311'	        JRST    G7
   835	001300'	202 01 0 00 001274*	G8:     MOVEM   R1,MN
   836	001301'	200 01 0 00 002151'	G8A:    MOVE    R1,ABSW
   837	001302'	612 01 0 00 002425'	        TDNE    R1,[7777]
   838	001303'	254 00 0 00 001314'	        JRST    G9              ;HAVE SOMETHING ELSE
EXP             Dec 13, 1980	MACRO %53B(1156)-1 12:06  8-Mar-85 Page 1-13
EXP	MAC	15-Oct-73 17:36

   839	001304'	201 01 0 00 000001 	        MOVEI   R1,1
   840	001305'	202 01 0 00 000000*	        MOVEM   R1,DY##
   841	001306'	264 00 0 00 001545'	        JSR     GBNDT
   842	001307'	202 01 0 00 002167'	        MOVEM   R1,GRPDT
   843	001310'	254 00 1 00 001143'	        JRST    @GTD
   844	001311'	271 01 0 00 000014 	G7:     ADDI    R1,14
   845	001312'	370 00 0 00 000000*	        SOS     YR##
   846	001313'	254 00 0 00 001300'	        JRST    G8
   847	001314'	612 01 0 00 002245'	G9:     TDNE    R1,[4B17]
   848	001315'	254 00 0 00 001335'	        JRST    G10
   849	001316'	400 01 0 00 000000 	        SETZ    R1,
   850	001317'	202 01 0 00 001305*	        MOVEM   R1,DY
   851	001320'	264 00 0 00 001545'	        JSR     GBNDT
   852	001321'	202 01 0 00 002167'	        MOVEM   R1,GRPDT        ;FOR REFERENCE
   853	001322'	200 01 0 00 002220'	        MOVE    R1,[1B17]       ;AFTER
   854	001323'	202 01 0 00 002151'	G9A:    MOVEM   R1,ABSW
   855	001324'	200 01 1 00 000013 	        MOVE    R1,@LP
   856	001325'	254 00 0 00 001243'	        JRST    G1A
   857					;MONTH AFTER
   858	001326'	200 01 0 00 001300*	G6:     MOVE    R1,MN
   859	001327'	270 01 0 00 002174'	        ADD     R1,T1
   860	001330'	307 01 0 00 000013 	        CAIG    R1,13		;fixes bug in ver 7 14
   861	001331'	254 00 0 00 001300'	        JRST    G8
   862	001332'	275 01 0 00 000014 	        SUBI    R1,14
   863	001333'	350 00 0 00 001312*	        AOS     YR
   864	001334'	254 00 0 00 001300'	        JRST    G8
   865					;PREPARE FOR BEFORE END OF MONTH BY SETTING 1ST NEXT MONTH
   866	001335'	201 01 0 00 000001 	G10:    MOVEI   R1,1
   867	001336'	202 01 0 00 001317*	        MOVEM   R1,DY
   868	001337'	350 00 0 00 001326*	        AOS     MN
   869	001340'	264 00 0 00 001545'	        JSR     GBNDT
   870	001341'	202 01 0 00 002167'	        MOVEM   R1,GRPDT
   871	001342'	200 01 0 00 002217'	        MOVE    R1,[2B17]
   872	001343'	254 00 0 00 001323'	        JRST    G9A
   873					;PROCESS DAY OF WEEK FOR AFTER/BEFORE
   874	001344'	264 00 0 00 001405'	G3:     JSR     GDWK
   875	001345'	200 01 0 00 002167'	        MOVE    R1,GRPDT
   876	001346'	231 01 0 00 000007 	        IDIVI   R1,7
   877	001347'	200 01 0 00 000002 	        MOVE    R1,R2
   878	001350'	274 01 0 00 002173'	        SUB     R1,RMNDR
   879	001351'	200 02 0 00 002151'	        MOVE    R2,ABSW
   880	001352'	612 02 0 00 002217'	        TDNE    R2,[2B17]
   881	001353'	254 00 0 00 001363'	        JRST    G3A
   882	001354'	317 01 0 00 002357'	        CAMG    R1,[-1]
   883	001355'	271 01 0 00 000007 	        ADDI    R1,7
   884	001356'	213 00 0 00 000001 	        MOVNS   R1
   885	001357'	270 01 0 00 002164'	        ADD     R1,CYCLE
   886	001360'	270 01 0 00 002167'	G3B:    ADD     R1,GRPDT
   887	001361'	202 01 0 00 002167'	        MOVEM   R1,GRPDT
   888	001362'	254 00 1 00 001143'	        JRST    @GTD
   889	001363'	303 01 0 00 000000 	G3A:    CAILE   R1,0
   890	001364'	275 01 0 00 000007 	        SUBI    R1,7
   891	001365'	270 01 0 00 002164'	        ADD     R1,CYCLE
   892	001366'	213 00 0 00 000001 	        MOVNS   R1
   893	001367'	254 00 0 00 001360'	        JRST    G3B
EXP             Dec 13, 1980	MACRO %53B(1156)-1 12:06  8-Mar-85 Page 1-14
EXP	MAC	15-Oct-73 17:36

   894
   895					;PROCESS DAY OF WEEK, NOT AFTER/BEFORE
   896	001370'	264 00 0 00 001405'	G4:     JSR     GDWK
   897	001371'	200 01 0 00 002202'	        MOVE    R1,TSTDT
   898	001372'	230 01 0 00 002164'	        IDIV    R1,CYCLE
   899	001373'	202 02 0 00 002174'	        MOVEM   R2,T1
   900	001374'	200 01 0 00 002173'	        MOVE    R1,RMNDR
   901	001375'	312 01 0 00 002174'	G4A:    CAME    R1,T1
   902	001376'	254 00 0 00 001401'	        JRST    G4C
   903	001377'	202 01 0 00 002173'	G4B:    MOVEM   R1,RMNDR
   904	001400'	254 00 0 00 001200'	        JRST    G04
   905	001401'	313 01 0 00 002174'	G4C:    CAMLE   R1,T1
   906	001402'	254 00 0 00 001377'	        JRST    G4B
   907	001403'	271 01 0 00 000007 	        ADDI    R1,7
   908	001404'	254 00 0 00 001375'	        JRST    G4A
   909
   910	001405'	000 00 0 00 000000 	GDWK:   Z
   911	001406'	242 01 0 00 777775 	        LSH     R1,-3
   912	001407'	405 01 0 00 000777 	        ANDI    R1,777
   913	001410'	307 01 0 00 000000 	        CAIG    R1,0
   914	001411'	201 01 0 00 000001 	        MOVEI   R1,1
   915	001412'	221 01 0 00 000007 	        IMULI   R1,7
   916	001413'	202 01 0 00 002164'	        MOVEM   R1,CYCLE
   917	001414'	200 01 1 00 000013 	        MOVE    R1,@LP
   918	001415'	405 01 0 00 000007 	        ANDI    R1,7
   919	001416'	275 01 0 00 000001 	        SUBI    R1,1
   920	001417'	202 01 0 00 002173'	        MOVEM   R1,RMNDR
   921	001420'	254 00 1 00 001405'	        JRST    @GDWK
   922
   923					;PROCESS MONTH
   924	001421'	242 01 0 00 777764 	G12:    LSH     R1,-14
   925	001422'	405 01 0 00 000017 	        ANDI    R1,17
   926	001423'	202 01 0 00 002174'	        MOVEM   R1,T1
   927	001424'	200 01 0 00 002163'	        MOVE    R1,CURDT
   928	001425'	264 00 0 00 001512'	        JSR     FDMN
   929	001426'	200 01 0 00 001333*	        MOVE    R1,YR
   930	001427'	202 01 0 00 002162'	        MOVEM   R1,CRYR#
   931	001430'	200 02 0 00 001337*	        MOVE    R2,MN
   932	001431'	202 02 0 00 002161'	        MOVEM   R2,CRMN#
   933	001432'	200 01 0 00 002202'	        MOVE    R1,TSTDT
   934	001433'	264 00 0 00 001512'	        JSR     FDMN
   935	001434'	254 00 0 00 001444'	        JRST    G13B
   936	001435'	200 01 0 00 001430*	G13:    MOVE    R1,MN
   937	001436'	270 01 0 00 002174'	G13A:   ADD     R1,T1
   938	001437'	307 01 0 00 000013 	        CAIG    R1,13
   939	001440'	254 00 0 00 001443'	        JRST    .+3
   940	001441'	275 01 0 00 000014 	        SUBI    R1,14
   941	001442'	350 00 0 00 001426*	        AOS     YR
   942	001443'	202 01 0 00 001435*	        MOVEM   R1,MN
   943	001444'	200 01 0 00 001442*	G13B:   MOVE    R1,YR
   944	001445'	317 01 0 00 002162'	        CAMG    R1,CRYR
   945	001446'	254 00 0 00 001502'	        JRST    G14
   946	001447'	331 00 0 00 002154'	G15:    SKIPL   ASW
   947	001450'	254 00 0 00 001467'	        JRST    G17
   948	001451'	335 00 0 00 002160'	        SKIPGE  BSW
EXP             Dec 13, 1980	MACRO %53B(1156)-1 12:06  8-Mar-85 Page 1-15
EXP	MAC	15-Oct-73 17:36

   949	001452'	254 00 0 00 001301'	        JRST    G8A
   950	001453'	200 01 0 00 002160'	        MOVE    R1,BSW
   951	001454'	202 01 0 00 002175'	        MOVEM   R1,T2
   952	001455'	200 01 0 00 001443*	        MOVE    R1,MN
   953	001456'	274 01 0 00 002174'	        SUB     R1,T1
   954	001457'	371 00 0 00 002175'	        SOSL    T2
   955	001460'	254 00 0 00 001456'	        JRST    .-2
   956	001461'	313 01 0 00 002357'	        CAMLE   R1,[-1]
   957	001462'	254 00 0 00 001465'	        JRST    G16
   958	001463'	271 01 0 00 000014 	        ADDI    R1,14
   959	001464'	370 00 0 00 001444*	        SOS     YR
   960	001465'	202 01 0 00 001455*	G16:    MOVEM   R1,MN
   961	001466'	254 00 0 00 001301'	        JRST    G8A
   962	001467'	200 01 0 00 002154'	G17:    MOVE    R1,ASW
   963	001470'	202 01 0 00 002175'	        MOVEM   R1,T2
   964	001471'	200 01 0 00 001465*	        MOVE    R1,MN
   965	001472'	270 01 0 00 002174'	        ADD     R1,T1
   966	001473'	371 00 0 00 002175'	        SOSL    T2
   967	001474'	254 00 0 00 001472'	        JRST    .-2
   968	001475'	307 01 0 00 000013 	        CAIG    R1,13
   969	001476'	254 00 0 00 001465'	        JRST    G16
   970	001477'	275 01 0 00 000014 	        SUBI    R1,14
   971	001500'	350 00 0 00 001464*	        AOS     YR
   972	001501'	254 00 0 00 001465'	        JRST    G16
   973	001502'	312 01 0 00 002162'	G14:    CAME    R1,CRYR
   974	001503'	254 00 0 00 001435'	        JRST    G13
   975	001504'	200 01 0 00 001471*	        MOVE    R1,MN
   976	001505'	313 00 0 00 002161'	        CAMLE   CRMN
   977	001506'	254 00 0 00 001447'	        JRST    G15
   978	001507'	312 01 0 00 002161'	        CAME    R1,CRMN
   979	001510'	254 00 0 00 001436'	        JRST    G13A
   980	001511'	254 00 0 00 001447'	        JRST    G15
   981
   982					;TAKES BINARY DATE AND CONVERTS TO MONTH DAY YEAR
   983	001512'	000 00 0 00 000000 	FDMN::  Z
   984	001513'	400 03 0 00 000000 	        SETZ    R3,
   985	001514'	317 01 0 03 001675'	        CAMG    R1,YTB+1(R3)
   986	001515'	254 00 0 00 001520'	        JRST    .+3
   987	001516'	350 00 0 00 000003 	        AOS     R3
   988	001517'	254 00 0 00 001514'	        JRST    .-3
   989	001520'	202 03 0 00 001500*	        MOVEM   R3,YR
   990	001521'	274 01 0 03 001674'	        SUB     R1,YTB(R3)
   991	001522'	606 03 0 00 000003 		trnn	r3,3		;test to see if year divisible by 4
   992	001523'	254 00 0 00 001534'		jrst	FdmnLy		;yes, so use month table for leap years
   993	001524'	400 03 0 00 000000 	        SETZ    R3,
   994	001525'	317 01 0 03 001715'	        CAMG    R1,MTB+1(R3)
   995	001526'	254 00 0 00 001531'	        JRST    .+3
   996	001527'	350 00 0 00 000003 	        AOS     R3
   997	001530'	254 00 0 00 001525'	        JRST    .-3
   998	001531'	202 03 0 00 001504*	        MOVEM   R3,MN
   999	001532'	274 01 0 03 001714'	        SUB     R1,MTB(R3)
  1000	001533'	254 00 0 00 001543'	        JRST    fdmnrt
  1001	001534'	400 03 0 00 000000 	fdmnly: setz	r3,
  1002	001535'	317 01 0 03 001732'		camg	r1,MtbLy+1(r3)
  1003	001536'	254 00 0 00 001541'	        jrst    .+3
EXP             Dec 13, 1980	MACRO %53B(1156)-1 12:06  8-Mar-85 Page 1-16
EXP	MAC	15-Oct-73 17:36

  1004	001537'	350 00 0 00 000003 		aos	r3
  1005	001540'	254 00 0 00 001535'		jrst	.-3
  1006	001541'	202 03 0 00 001531*	        movem   r3,mn
  1007	001542'	274 01 0 03 001731'	        sub     r1,MtbLy(r3)
  1008	001543'	202 01 0 00 001336*	fdmnrt: MOVEM   R1,DY
  1009	001544'	254 00 1 00 001512'	        JRST    @FDMN
  1010
  1011					;TAKES YR MN DY AND CONVERTS BACK TO BINARY
  1012	001545'	000 00 0 00 000000 	GBNDT:  Z
  1013	001546'	331 00 0 00 001520*	        SKIPL   YR
  1014	001547'	254 00 0 00 001552'	        JRST    .+3
  1015	001550'	400 01 0 00 000000 	        SETZ    R1,
  1016	001551'	254 00 1 00 001545'	        JRST   @GBNDT
  1017	001552'	200 03 0 00 001541*		move	r3,mn
  1018	001553'	200 01 0 00 001546*		move	r1,yr
  1019	001554'	602 01 0 00 000003 		trne	r1,3
  1020	001555'	254 00 0 00 001560'		jrst	.+3		; not a leap year so use regular table
  1021	001556'	200 01 0 03 001731'		move	r1,MtbLy(r3)
  1022	001557'	334 00 0 00 000000 		skipa
  1023	001560'	200 01 0 03 001714'		move	r1,mtb(r3)
  1024	001561'	200 03 0 00 001553*		move	r3,yr
  1025	001562'	270 01 0 03 001674'		add	r1,ytb(r3)	; add in no. of days up to begin of year
  1026	001563'	270 01 0 00 001543*	        ADD     R1,DY		; add in no. of days since 1st of month
  1027	001564'	254 00 1 00 001545'	        JRST    @GBNDT
  1028
  1029					;CONVERTS DATE WORD FROM TO BINARY FORM
  1030
  1031	001565'	202 01 0 00 002174'	DATCV:  MOVEM   R1,T1
  1032	001566'	246 01 0 00 777767 	        LSHC    R1,-11
  1033	001567'	405 01 0 00 000017 	        ANDI    R1,17
  1034	001570'	200 03 0 00 000001 	        MOVE    R3,R1
  1035	001571'	200 01 0 03 001674'	        MOVE    R1,YTB(R3)
  1036	001572'	202 01 0 00 002175'	        MOVEM   R1,T2
  1037	001573'	200 01 0 00 000003 		move	r1,r3
  1038	001574'	602 01 0 00 000003 		trne	r1,3
  1039	001575'	254 00 0 00 001603'		jrst	datcv1		;not a leap year so use regular table
  1040	001576'	400 01 0 00 000000 	        SETZ    R1,
  1041	001577'	246 01 0 00 000004 	        LSHC    R1,4
  1042	001600'	200 03 0 00 000001 	        MOVE    R3,R1
  1043	001601'	200 01 0 03 001731'	        MOVE    R1,MTBly(R3)
  1044	001602'	254 00 0 00 001607'		jrst	datcv2
  1045	001603'	400 01 0 00 000000 	datcv1: setz	r1,
  1046	001604'	246 01 0 00 000004 		lshc	r1,4
  1047	001605'	200 03 0 00 000001 		move	r3,r1
  1048	001606'	200 01 0 03 001714'		move	r1,mtb(r3)
  1049	001607'	272 01 0 00 002175'	datcv2: ADDM    R1,T2
  1050	001610'	400 01 0 00 000000 	        SETZ    R1,
  1051	001611'	246 01 0 00 000005 	        LSHC    R1,5
  1052	001612'	270 01 0 00 002175'	        ADD     R1,T2
  1053	001613'	263 17 0 00 000000 	        POPJ    P,
  1054
  1055	001614'	047 01 0 00 000014 	GCRDT:  DATE    R1,     ;READ DATE TO R1
  1056	001615'	260 17 0 00 001621'	        PUSHJ   P,GCRDTS
  1057	001616'	370 00 0 00 000001 	        SOS     R1
  1058	001617'	370 00 0 00 002176'	        SOS     T3
EXP             Dec 13, 1980	MACRO %53B(1156)-1 12:06  8-Mar-85 Page 1-17
EXP	MAC	15-Oct-73 17:36

  1059	001620'	263 17 0 00 000000 	        POPJ    P,
  1060	001621'	231 01 0 00 000037 	GCRDTS: IDIVI   R1,^D31
  1061	001622'	350 00 0 00 000002 	        AOS     R2
  1062	001623'	202 02 0 00 001563*	        MOVEM   R2,DY
  1063	001624'	231 01 0 00 000014 	        IDIVI   R1,^D12
  1064	001625'	202 02 0 00 001552*	        MOVEM   R2,MN
  1065	001626'	275 01 0 00 000010 	        SUBI    R1,10
  1066	001627'	200 03 0 01 001674'	        MOVE    R3,YTB(R1)
  1067	001630'	602 01 0 00 000003 		trne	r1,3		;skip if this IS a leap year
  1068	001631'	254 00 0 00 001634'		jrst	.+3
  1069	001632'	270 03 0 02 001731'		add	r3,MtbLy(r2)
  1070	001633'	334 00 0 00 000000 		skipa
  1071	001634'	270 03 0 02 001714'	        ADD     R3,MTB(R2)
  1072	001635'	270 03 0 00 001623*	        ADD     R3,DY
  1073	001636'	200 01 0 00 000003 	        MOVE    R1,R3
  1074	001637'	202 01 0 00 002176'	        MOVEM   R1,T3
  1075	001640'	263 17 0 00 000000 	        POPJ    P,
  1076
  1077	001641'	202 01 0 00 002201'	PMSG::  MOVEM   R1,TPMSG#
  1078	001642'	012 00 1 00 002201'	        TYPE    @TPMSG
  1079	001643'	263 17 0 00 000000 	        POPJ    P,
  1080	001644'	200 00 0 00 000001 	PDNO::  MOVE    R0,R1
  1081	001645'	260 17 0 00 000000*	        PUSHJ   P,PRDNUM##
  1082	001646'	263 17 0 00 000000 	        POPJ    P,
  1083					;TAKES BINARY DAY AND PRINTS
  1084	001647'	202 01 0 00 002174'	PBNDT:: MOVEM   R1,T1
  1085	001650'	264 00 0 00 001512'	        JSR     FDMN
  1086	001651'	200 03 0 00 001625*	        MOVE    R3,MN
  1087	001652'	200 01 0 03 000356'	        MOVE    R1,MONM(R3)
  1088	001653'	260 17 0 00 001641'	        PUSHJ   P,PMSG
  1089	001654'	010 00 0 00 002341'	        TCO     [SPACE]
  1090	001655'	200 01 0 00 001635*	        MOVE    R1,DY
  1091	001656'	307 01 0 00 000011 	        CAIG    R1,9
  1092	001657'	010 00 0 00 002341'	        TCO     [SPACE]
  1093	001660'	260 17 0 00 001644'	        PUSHJ   P,PDNO
  1094	001661'	010 00 0 00 002340'	        TCO     [COMCHR]
  1095	001662'	010 00 0 00 002341'	        TCO     [SPACE]
  1096	001663'	200 01 0 00 001561*	        MOVE    R1,YR
  1097	001664'	271 01 0 00 003664 	        ADDI    R1,^D1972
  1098	001665'	260 17 0 00 001644'	        PUSHJ   P,PDNO
  1099	001666'	010 00 0 00 002341'	        TCO     [SPACE]
  1100	001667'	200 01 0 00 002174'	        MOVE    R1,T1
  1101	001670'	231 01 0 00 000007 	        IDIVI   R1,7
  1102	001671'	200 01 0 02 000322'	        MOVE    R1,DWKM+1(R2)
  1103	001672'	260 17 0 00 001641'	        PUSHJ   P,PMSG
  1104	001673'	263 17 0 00 000000 	        POPJ    P,
  1105
  1106	001674'	777777	777777		YTB:    DEC     -1,364,729,1094,1459,1825,2190,2555,2920,3286,3651,4016
  1107	001675'	000000	000554
  1108	001676'	000000	001331
  1109	001677'	000000	002106
  1110	001700'	000000	002663
  1111	001701'	000000	003441
  1112	001702'	000000	004216
  1113	001703'	000000	004773
EXP             Dec 13, 1980	MACRO %53B(1156)-1 12:06  8-Mar-85 Page 1-18
EXP	MAC	15-Oct-73 17:36

  1114	001704'	000000	005550
  1115	001705'	000000	006326
  1116	001706'	000000	007103
  1117	001707'	000000	007660
  1118	001710'	000000	010435		        DEC     4381,4747,5112,5477
  1119	001711'	000000	011213
  1120	001712'	000000	011770
  1121	001713'	000000	012545
  1122	001714'	000000	000000		MTB:    DEC     0,31,59,90,120,151,181,212,243,273,304,334,365
  1123	001715'	000000	000037
  1124	001716'	000000	000073
  1125	001717'	000000	000132
  1126	001720'	000000	000170
  1127	001721'	000000	000227
  1128	001722'	000000	000265
  1129	001723'	000000	000324
  1130	001724'	000000	000363
  1131	001725'	000000	000421
  1132	001726'	000000	000460
  1133	001727'	000000	000516
  1134	001730'	000000	000555
  1135	001731'	000000	000000		MtbLy: DEC     0,31,60,91,121,152,182,213,244,274,305,335,366
  1136	001732'	000000	000037
  1137	001733'	000000	000074
  1138	001734'	000000	000133
  1139	001735'	000000	000171
  1140	001736'	000000	000230
  1141	001737'	000000	000266
  1142	001740'	000000	000325
  1143	001741'	000000	000364
  1144	001742'	000000	000422
  1145	001743'	000000	000461
  1146	001744'	000000	000517
  1147	001745'	000000	000556
  1148	001746'				LIST::  BLOCK   100
  1149	002046'				TLIST:  BLOCK   100
  1150	002146'	000000	000000		HLTER:  EXP 0,0
  1151	002147'	000000	000000
  1152	002150'	777777	777777		SDATE:: -1
  1153					        END

NO ERRORS DETECTED

PROGRAM BREAK IS 002426
CPU TIME USED 04:47.466

12P CORE USED
EXP             Dec 13, 1980	MACRO %53B(1156)-1 12:06  8-Mar-85 Page S-1
EXP	MAC	15-Oct-73 17:36		SYMBOL TABLE

ABSW		002151'		DS0		000447'	int	ERROR	015000	000000		EXNMS3		000261'
AFTDT		002152'		DS1		000455'		EX		000007		EXNMS4		000266'
AFTSW		002153'		DS2		000465'		EX1		000027'		EXP		000000'	int
AL		000001		DS3		000476'		EX2		000011'		FDMN		001512'	int
AS		000006		DSD		000545'		EX3		000020'		FDMNLY		001534'
ASW		002154'		DSD0A		000547'		EXA		000002'		FDMNRT		001543'
AT		000010		DSDEN		000617'		EXCSW		002166'		G01		001153'
BARROW		000137		DSDEN1		000650'		EXD		000065'		G03		001161'
BEFDT		002155'		DSDEN2		000634'		EXD0		000074'		G04		001200'
BGGRP		002156'		DSDEN3		000652'		EXD00		000067'		G04A		001213'
BGLIS		002157'		DSDEN4		000662'		EXD01		000116'		G05		001220'
BSW		002160'		DSDEN5		000633'		EXD02		000114'		G06		001222'
CDISP		000407'	ext	DSDS		000552'		EXD03		000112'		G07		001230'
CH		000004	spd	DSDS2		000561'		EXD04		000126'		G1		001236'
CHARC		000020		DSDT		000567'		EXD1		000133'		G10		001335'
CLRIN	013000	000000		DSDT1		000602'		EXD1A		000134'		G12		001421'
CO		000011		DSDT2		000607'		EXD2		000155'		G13		001435'
COMCHR		000054		DSER		001136'		EXD3		000136'		G13A		001436'
CRCHR		000015		DSEXN		000645'		EXD3A		000143'		G13B		001444'
CRMN		002161'		DSF		000473'		EXD3B		000140'		G14		001502'
CRYR		002162'		DSFA		000516'		EXD4		000147'		G15		001447'
CT		000007	spd	DSFD		000517'		EXD5		000145'		G16		001465'
CURDT		002163'		DSFD1		000524'		EXD6		000151'		G17		001467'
CYCLE		002164'		DSFD2		000526'		EXD7		000153'		G1A		001243'
D1		000755'		DSFL		000506'		EXDER		000157'		G1B		001241'
D10		001001'		DSFS		000512'		EXDN		000213'		G2		001264'
D11		000770'		DSFST		000540'		EXDT2		000206'		G3		001344'
D12		000774'		DSFU		000530'		EXDT2A		000207'		G3A		001363'
D14		001075'		DSGD		000667'		EXDW		000160'		G3B		001360'
D2		001072'		DSGD2		000670'		EXDW1		000163'		G4		001370'
D3		001032'		DSGD2A		000710'		EXDW2		000170'		G4A		001375'
D4		001067'		DSGD3		000730'		EXDW2A		000177'		G4B		001377'
D5		001044'		DSGD3A		000736'		EXDW2B		000174'		G4C		001401'
D6		001051'		DSGD4		000746'		EXDW3		000201'		G6		001326'
D6A		001052'		DSGDN		000712'		EXDY		000203'		G7		001311'
D7		001017'		DSGF		000726'		EXER		000004'		G8		001300'
D8		001062'		DSN		000504'		EXEX		000144'		G8A		001301'
D9		001024'		DSST		000437'		EXFA		000042'		G9		001314'
DA		000017		DSST1		000440'		EXFD		000044'		G9A		001323'
DATCV		001565'		DSX		000420'	int	EXFD1		000050'		GBNDT		001545'
DATCV1		001603'		DWKM		000321'		EXFD2		000052'		GCD	005000	000000
DATCV2		001607'		DWM		000331'		EXFL		000034'		GCI	004000	000000
DATE	047000	000014		DWM1		000334'		EXFS		000036'		GCRDT		001614'
DCR	011000	000000		DWM2		000337'		EXFST		000063'		GCRDTS		001621'
DEX		000743'		DWM3		000342'		EXFU		000054'		GDWK		001405'
DIS		000406'	int	DWM4		000345'		EXN		000025'		GRPDT		002167'
DISABL	017000	000000		DWM5		000350'		EXNM		000217'		GTD		001143'
DJ		001102'		DWM6		000353'		EXNM1		000223'		HLTER		002146'
DJ1		001115'		DY		001655'	ext	EXNM2		000227'		I		000010
DJ2		001112'		ENABLE	016000	000000		EXNM3		000233'		IC		000000
DJ3		001122'		ENGRP		002165'		EXNM9		000222'		IG		000004
DJ4		001124'		EOLIT		000000	spd	EXNMS		000236'		LASTDT		012545	int
DJ5		001132'		ER1		001140'		EXNMS0		000245'		LATSW		002170'
DOTCHR		000056		ER2		001141'		EXNMS1		000255'		LCHAN		000001	spd
DS		000412'		ER3		001142'		EXNMS2		000253'		LFCHR		000012
EXP             Dec 13, 1980	MACRO %53B(1156)-1 12:06  8-Mar-85 Page S-2
EXP	MAC	15-Oct-73 17:36		SYMBOL TABLE

LIST		001746'	int	TLP		002200'
LP		000013	spd	TPMSG		002201'
MM1		000372'		TSTDT		002202'
MM10		000403'		TUNDT		002203'
MM11		000404'		TYPE	012000	000000
MM12		000405'		UNTDT		002204'
MM2		000373'		UPDATE		000060'
MM3		000374'		VERPAT		000026	spd
MM4		000375'		VERSIO		000007	spd
MM5		000376'		WCD	007000	000000
MM6		000377'		WCI	006000	000000
MM7		000400'		X		000021	spd
MM8		000401'		XDATE		002205'
MM9		000402'		XLP		002206'
MN		001651'	ext	YR		001663'	ext
MONM		000356'		YTB		001674'
MTB		001714'
MTBLY		001731'
NU		000002
ORDSW		002171'
P		000017
PBNDT		001647'	int
PDATE		000271'
PDNO		001644'	int
PMSG		001641'	int
PO		000014
PRDNUM		001645'	ext
PU		000016
QQ		000005
QU		000015
R0		000000
R1		000001
R2		000002
R3		000003
RDLINE	003000	000000
REFDT		002172'
RMNDR		002173'
RP		000003
SCHAN		000002	spd
SDATE		002150'	int
SETTTY	014000	000000
SP		000013
SPACE		000040
SSKE	020000	000000
T1		002174'
T2		002175'
T3		002176'
TAB	021000	000000
TCI	001000	000000
TCL	002000	000000
TCO	010000	000000
TCRDT		002177'
TE		000012
TEST		000410'	int
TLIST		002046'

EXP             Dec 13, 1980	MACRO %53B(1156)-1 12:06  8-Mar-85 Page 1
COM	MAC	15-Oct-73 17:37


Symbol cross reference

ABSW	   739#	   739	   745	   749	   769	   811	   827	   836	   854	   879
AFTDT	   548#	   548	   704	   709	   714
AFTSW	   547	   590#	   590	   601	   658	   661	   681
AL	    68#
AS	    68#
ASW	   550#	   550	   712	   777	   783	   946	   962
AT	    68#
BARROW	    24#
BEFDT	   549#	   549	   702	   711
BGGRP	   538#	   538	   622	   668
BGLIS	   447#	   447	   513
BSW	   551#	   551	   705	   779	   789	   948	   950
CDISP	    75	   341
CH	     9#
CHARC	    68#	    68
CO	    68#
COMCHR	    19#	   271	   283	  1094
CRCHR	    21#	   174	   284	   350	   375
CRMN	   932#	   932	   976	   978
CRYR	   930#	   930	   944	   973
CT	    10#
CURDT	   361#	   361	   373	   440	   473	   494	   506	   510	   512	   516	   517	   530	   532	   541
	   571	   579	   688	   700	   759	   765	   776	   927
CYCLE	   757#	   757	   761	   763	   766	   773	   785	   791	   810	   814	   816	   885	   891	   898
	   916
D1	   591#	   659	   682
D10	   613#	   617
D11	   603#	   643
D12	   607#	   634	   679
D14	   570	   688#
D2	   589	   684#	   686
D3	   599	   644#
D4	   650	   680#
D5	   654	   660#
D6	   665#	   669
D6A	   666#	   673
D7	   602	   630#
D8	   604	   675#
D9	   609	   638#
DA	    68#
DATCV	   358	   424	   435	   439	   578	   605	   632	   675	  1031#
DATCV1	  1039	  1045#
DATCV2	  1044	  1049#
DEX	   581#	   721	   725
DIS	   340#	   343
DJ	   672	   685	   698#	   708
DJ1	   701	   709#
DJ2	   706#	   713
DJ3	   710	   714#
DJ4	   626	   703	   716#
EXP             Dec 13, 1980	MACRO %53B(1156)-1 12:06  8-Mar-85 Page 1
COM	MAC	15-Oct-73 17:37


Symbol cross reference

DJ5	   719	   722#
DOTCHR	    18#
DS	   340	   346#	   728
DS0	   369	   378#	   503	   518	   523	   528	   533
DS1	   384#	   527
DS2	   392#	   397
DS3	   403#	   428
DSD	   395	   446#
DSD0A	   448#	   515
DSDEN	   452	   463	   492#
DSDEN1	   493	   519#
DSDEN2	   507#	   511
DSDEN3	   521#	   531
DSDEN4	   520	   529#
DSDEN5	   496	   506#
DSDS	   451#	   456	   457	   462
DSDS2	   454	   458#
DSDT	   455	   461	   466#	   470	   472	   474	   480	   481	   486	   488
DSDT1	   477#	   485	   489
DSDT2	   476	   482#
DSER	   372	   727#
DSEXN	   508	   516#
DSF	   396	   400#	   410	   567
DSFA	   416	   419#
DSFD	   402	   422#
DSFD1	   427#
DSFD2	   423	   429#
DSFL	   406	   408	   411#
DSFS	   404	   415#
DSFST	   430	   439#
DSFU	   431#
DSGD	   451	   507	   536#	   557	   566	   582	   583
DSGD2	   537#	   556	   568
DSGD2A	   553#	   594
DSGD3	   560	   569#
DSGD3A	   575#	   693
DSGD4	   576	   584#
DSGDN	   555#	   573	   580	   690
DSGF	   563	   567#
DSN	   409#	   414	   418	   438	   441	   443
DSST	   351	   369#	   376
DSST1	   370#
DSX	   349	   353#	   367
DWKM	   193	   287#	  1102
DWM	   288	   295#
DWM1	   289	   298#
DWM2	   290	   301#
DWM3	   291	   304#
DWM4	   292	   307#
DWM5	   293	   310#
EXP             Dec 13, 1980	MACRO %53B(1156)-1 12:06  8-Mar-85 Page 1
COM	MAC	15-Oct-73 17:37


Symbol cross reference

DWM6	   294	   313#
DY	   840	   850	   867	  1008	  1026	  1062	  1072	  1090
ENGRP	   611#	   611	   624	   663	   670
EOLIT	    23#
ER1	   585	   645	   729#
ER2	   597	   730#
ER3	   631	   642	   731#
EX	    68#
EX1	    81	    98#
EX2	    84#	    97	   177	   213
EX3	    91#	   122
EXA	    74	    77#	   342
EXCSW	   450#	   450	   495	   522	   565
EXD	    88	   128#
EXD0	   135#	   203
EXD00	   130#
EXD01	   142	   153#
EXD02	   148	   151#
EXD03	   149#	   152	   158
EXD04	   150	   161#
EXD1	   166#	   198
EXD1A	   164	   167#
EXD2	   168	   184#
EXD3	   169#
EXD3A	    85	   174#	   212
EXD3B	   165	   171#	   185
EXD4	   170	   178#
EXD5	   173	   176#
EXD6	   180#
EXD7	   179	   182#
EXDER	   137	   186#
EXDN	   129	   214#
EXDT2	   209#	   215
EXDT2A	   210#	   217
EXDW	   132	   187#
EXDW1	   188	   190#
EXDW2	   195#	   208
EXDW2A	   202#	   205
EXDW2B	   197	   199#
EXDW3	   200	   204#
EXDY	   134	   206#
EXER	    79#	   348
EXEX	   175#
EXFA	   106	   109#
EXFD	    90	   111#
EXFD1	   115#	   127
EXFD2	   112	   117#
EXFL	    94	   103#
EXFS	    92	   105#
EXFST	   118	   126#
EXP             Dec 13, 1980	MACRO %53B(1156)-1 12:06  8-Mar-85 Page 1
COM	MAC	15-Oct-73 17:37


Symbol cross reference

EXFU	   119#
EXN	    96#	   104	   108	   110	   116	   181	   183
EXNM	   151	   218#	   247
EXNM1	   219	   222#
EXNM2	   223	   226#
EXNM3	   227	   230#
EXNM9	   221#
EXNMS	   190	   206	   234#
EXNMS0	   236	   241#	   260
EXNMS1	   240	   249#
EXNMS2	   247#	   257
EXNMS3	   253#	   259
EXNMS4	   250	   252	   258#
EXP	    74#
FDMN	   826	   928	   934	   983#	  1009	  1085
FDMNLY	   992	  1001#
FDMNRT	  1000	  1008#
G01	   742#
G03	   749#
G04	   765#	   904
G04A	   762	   776#
G05	   781#	   788	   794
G06	   778	   783#
G07	   780	   789#
G1	   741	   797#
G10	   848	   866#
G12	   747	   924#
G13	   936#	   974
G13A	   937#	   979
G13B	   935	   943#
G14	   945	   973#
G15	   946#	   977	   980
G16	   957	   960#	   969	   972
G17	   947	   962#
G1A	   804#	   856
G1B	   802#
G2	   803	   822#
G3	   805	   874#
G3A	   881	   889#
G3B	   886#	   893
G4	   751	   896#
G4A	   901#	   908
G4B	   903#	   906
G4C	   902	   905#
G6	   829	   858#
G7	   834	   844#
G8	   835#	   846	   861	   864
G8A	   836#	   949	   961
G9	   838	   847#
G9A	   854#	   872
EXP             Dec 13, 1980	MACRO %53B(1156)-1 12:06  8-Mar-85 Page 1
COM	MAC	15-Oct-73 17:37


Symbol cross reference

GBNDT	   841	   851	   869	  1012#	  1016	  1027
GCRDT	   354	  1055#
GCRDTS	  1056	  1060#
GDWK	   874	   896	   910#	   921
GRPDT	   390#	   390	   546	   633	   699	   707	   715	   720	   724	   742	   781	   812	   819	   825
	   842	   852	   870	   875	   886	   887
GTD	   620	   664	   666	   684	   734#	   782	   820	   843	   888
HLTER	   738	   743	   753	   799	   807	  1150#
I	    11#
IC	    68#
IG	    68#
LASTDT	    72#	   370	   572
LATSW	   388#	   388	   411	   482
LCHAN	    15#
LFCHR	    20#
LIST	    78	    82	   347	   363	  1148#
LP	    12#	    83#	    83	    84	    96	   100	   121	   123	   130	   138	   144	   154	   161	   166
	   171	   172	   191	   195	   202	   210	   211	   242	   254	   262	   281	   380	   392	   409
	   427	   446	   458	   514	   524	   525	   526	   537	   552	   555	   564	   574	   581	   591
	   592	   607	   610	   613	   614	   619	   621	   625	   638	   639	   662	   665	   667	   671
	   691	   717	   722	   735	   855	   917
MM1	   316	   328#
MM10	   325	   337#
MM11	   326	   338#
MM12	   327	   339#
MM2	   317	   329#
MM3	   318	   330#
MM4	   319	   331#
MM5	   320	   332#
MM6	   321	   333#
MM7	   322	   334#
MM8	   323	   335#
MM9	   324	   336#
MN	   831	   835	   858	   868	   931	   936	   942	   952	   960	   964	   975	   998	  1006	  1017
	  1064	  1086
MONM	   266	   316#	  1087
MTB	   994	   999	  1023	  1048	  1071	  1122#
MTBLY	  1002	  1007	  1021	  1043	  1069	  1135#
NU	    68#
ORDSW	   389#	   389	   413	   417	   453
P	    13#	    74	    81	   101	   102	   115	   120	   159	   175	   190	   194	   206	   209	   221
	   225	   229	   230	   232	   238	   246	   247	   248	   267	   270	   280	   285	   342	   354
	   358	   374	   424	   435	   439	   578	   605	   632	   675	  1053	  1056	  1059	  1075	  1079
	  1081	  1082	  1088	  1093	  1098	  1103	  1104
PBNDT	   374	  1084#
PDATE	   101	   115	   125	   209	   262#
PDNO	   159	   230	   270	   280	  1080#	  1093	  1098
PMSG	   194	   267	  1077#	  1088	  1103
PO	    68#
PRDNUM	  1081
EXP             Dec 13, 1980	MACRO %53B(1156)-1 12:06  8-Mar-85 Page 1
COM	MAC	15-Oct-73 17:37


Symbol cross reference

PU	    68#
QQ	    68#
QU	    68#
R0	     5#	  1080
R1	     6#	    82	    83	    84	    85	    86	    89	    91	    93	    99	   100	   105	   111	   113
	   117	   121	   123	   124	   130	   131	   133	   135	   136	   137	   138	   139	   140	   141
	   144	   145	   146	   147	   154	   155	   156	   157	   161	   162	   166	   167	   169	   172
	   173	   178	   187	   191	   192	   193	   195	   196	   199	   202	   211	   212	   218	   222
	   226	   234	   237	   239	   242	   243	   244	   245	   251	   254	   255	   256	   258	   262
	   263	   264	   265	   266	   268	   269	   274	   275	   276	   277	   278	   279	   355	   356
	   359	   360	   361	   363	   364	   365	   370	   371	   373	   379	   380	   381	   382	   383
	   384	   385	   386	   387	   388	   389	   390	   391	   392	   393	   401	   403	   405	   407
	   411	   412	   413	   415	   417	   422	   425	   426	   427	   429	   431	   433	   436	   437
	   440	   442	   446	   447	   448	   449	   450	   468	   471	   473	   477	   478	   479	   484
	   487	   492	   493	   494	   497	   498	   500	   501	   502	   509	   510	   513	   514	   517
	   521	   525	   529	   530	   532	   537	   538	   539	   541	   542	   543	   544	   545	   546
	   547	   548	   549	   550	   551	   552	   553	   557	   558	   561	   571	   572	   574	   579
	   586	   587	   588	   592	   593	   595	   603	   606	   607	   608	   610	   611	   614	   615
	   621	   622	   624	   625	   630	   633	   639	   640	   649	   651	   652	   653	   660	   662
	   663	   667	   668	   670	   671	   678	   680	   681	   688	   689	   691	   699	   700	   704
	   706	   707	   711	   714	   715	   717	   718	   720	   722	   723	   724	   735	   736	   739
	   740	   744	   745	   746	   749	   750	   752	   755	   756	   757	   758	   759	   761	   763
	   765	   766	   767	   768	   771	   772	   773	   775	   776	   781	   785	   791	   797	   802
	   804	   806	   808	   809	   810	   812	   814	   816	   817	   818	   819	   822	   823	   824
	   825	   827	   828	   831	   832	   833	   835	   836	   837	   839	   840	   842	   844	   847
	   849	   850	   852	   853	   854	   855	   858	   859	   860	   862	   866	   867	   870	   871
	   875	   876	   877	   878	   882	   883	   884	   885	   886	   887	   889	   890	   891	   892
	   897	   898	   900	   901	   903	   905	   907	   911	   912	   913	   914	   915	   916	   917
	   918	   919	   920	   924	   925	   926	   927	   929	   930	   933	   936	   937	   938	   940
	   942	   943	   944	   950	   951	   952	   953	   956	   958	   960	   962	   963	   964	   965
	   968	   970	   973	   975	   978	   985	   990	   994	   999	  1002	  1007	  1008	  1015	  1018
	  1019	  1021	  1023	  1025	  1026	  1031	  1032	  1033	  1034	  1035	  1036	  1037	  1038	  1040
	  1041	  1042	  1043	  1045	  1046	  1047	  1048	  1049	  1050	  1051	  1052	  1055	  1057	  1060
	  1063	  1065	  1066	  1067	  1073	  1074	  1077	  1080	  1084	  1087	  1090	  1091	  1096	  1097
	  1100	  1101	  1102
R2	     7#	   459	   460	   716	   764	   767	   769	   770	   774	   783	   784	   789	   790	   811
	   813	   815	   877	   879	   880	   899	   931	   932	  1061	  1062	  1064	  1069	  1071	  1102
R3	     8#	    86	    87	   128	   162	   163	   214	   234	   281	   282	   362	   363	   364	   366
	   393	   394	   458	   460	   558	   559	   561	   562	   575	   584	   595	   596	   598	   615
	   616	   640	   641	   644	   736	   737	   797	   798	   984	   985	   987	   989	   990	   991
	   993	   994	   996	   998	   999	  1001	  1002	  1004	  1006	  1007	  1017	  1021	  1023	  1024
	  1025	  1034	  1035	  1037	  1042	  1043	  1047	  1048	  1066	  1069	  1071	  1072	  1073	  1086
	  1087
REFDT	   385#	   385	   425	   539	   540
RMNDR	   764#	   764	   768	   878	   900	   903	   920
RP	    68#
SCHAN	    16#
SDATE	    80	    99	   355	  1152#
SP	    68#
SPACE	    22#	   272	  1089	  1092	  1095	  1099
EXP             Dec 13, 1980	MACRO %53B(1156)-1 12:06  8-Mar-85 Page 1
COM	MAC	15-Oct-73 17:37


Symbol cross reference

T1	   263#	   263	   268	   274	   824	   832	   859	   899	   901	   905	   926	   937	   953	   965
	  1031	  1084	  1100
T2	   784#	   784	   786	   790	   792	   951	   954	   963	   966	  1036	  1049	  1052
T3	    77#	    77	   113	   249	   360	  1058	  1074
TCRDT	   391#	   391	   442	   471	   519	   529
TE	    68#
TEST	   342#
TLIST	   364	   379	  1149#
TLP	   382#	   382	   478	   723
TPMSG	  1077#	  1077	  1078
TSTDT	   426#	   426	   542	   606	   758	   897	   933
TUNDT	   437#	   437	   467	   468	   544	   569	   676	   677	   678	   689
UNTDT	   386#	   386	   436	   543
UPDATE	   120	   123#
UUOFLG	    26	    31	    32	    33	    34	    35	    36	    37	    38	    39	    40	    41	    42	    43
	    44	    45	    46	    47
VERPAT	     3#
VERSIO	     2#
X	    30#	    31	    31#	    32	    32#	    33	    33#	    34	    34#	    35	    35#	    36	    36#	    37
	    37#	    38	    38#	    39	    39#	    40	    40#	    41	    41#	    42	    42#	    43	    43#	    44
	    44#	    45	    45#	    46	    46#	    47	    47#
XDATE	   387#	   387	   449	   475	   477	   484	   487	   492	   502
XLP	   383#	   383	   479	   497	   501
YR	   845	   863	   929	   941	   943	   959	   971	   989	  1013	  1018	  1024	  1096
YTB	   985	   990	  1025	  1035	  1066	  1106#
EXP             Dec 13, 1980	MACRO %53B(1156)-1 12:06  8-Mar-85 Page 1
COM	MAC	15-Oct-73 17:37


Macro/Opdef cross reference

CHARDO	    49#	    68
CHRDEF	    66#	    68
CLRIN	    41#
DATE	  1055
DCR	    39#
DISABL	    45#
ENABLE	    44#
ERROR	    43#	    79	   186	   189	   419	   729	   730	   731
GCD	    35#
GCI	    34#
OPD	    27#	    31	    32	    33	    34	    35	    36	    37	    38	    39	    40	    41	    42	    43
	    44	    45	    46	    47
RDLINE	    33#
SETTTY	    42#
SSKE	    46#
TAB	    47#
TCI	    31#
TCL	    32#
TCO	    38#	   174	   271	   272	   283	   284	   350	   375	  1089	  1092	  1094	  1095	  1099
TYPE	    40#	    95	    98	   103	   107	   109	   114	   119	   126	   143	   149	   153	   160	   176
	   180	   182	   184	   201	   204	   207	   216	   220	   224	   228	   231	   241	   253	   273
	   727	  1078
WCD	    37#
WCI	    36#H