INSERT          3 Nov 1982	MACRO %53B(1156)-1 12:06  8-Mar-85 Page 1
COM	MAC	15-Oct-73 17:37

     1					;COM	Nov 5, 1982
     2			000007		VERSION==7
     3			000026		VERPAT==26
     4
     5			000000		R0=     0
     6			000001		R1=     1
     7			000002		R2=     2
     8			000003		R3=     3
     9			000004		CH==    4                       ;CURRENT CHARACTER
    10			000007		CT==    7                       ;CURRENT CHARACTER'S TYPE
    11			000010		I=10
    12			000013		LP==    13
    13			000017		P=      17
    14
    15			000001		LCHAN== 1			;CHANNEL FOR READING LUD.SYS
    16			000002		SCHAN== 2			;CHANNEL FOR READING PERP.SYS
    17
    18			000056		DOTCHR= 56
    19			000054		COMCHR= 54
    20			000012		LFCHR=  12
    21			000015		CRCHR=  15
    22			000040		SPACE=  40
    23			000000		EOLIT== 0
    24			000137		BARROW=137
    25					        SALL                    ;SUPPRESS ALL MACRO EXPANSIONS
    26					IFDEF   UUOFLG  <UUOTAB: BLOCK 0>
    27					DEFINE  OPD     (A,B) <X==X+1
    28					OPDEF A [X*1000000000]
    29					IFDEF UUOFLG<JRST B>>
    30			000000		X==0
    31					        OPD     TCI,TCIUUO;    001
    32					        OPD     TCL,TCLUUO;    002
    33					        OPD     RDLINE,RDUUO;  003
    34					        OPD     GCI,GCIUUO;    004
    35					        OPD     GCD,GCDUUO;    005
    36					        OPD     WCI,WCIUUO;    006
    37					        OPD     WCD,WCDUUO;    007
    38					        OPD     TCO,TCOUU ;    010
    39					        OPD     DCR,DCRUUO;    011
    40					        OPD     TYPE,TYPUUO;   012
    41					        OPD     CLRIN,CLRUUO;  013
    42					        OPD     SETTTY,TTYUUO; 014
    43					        OPD     ERROR,ERRUUO;  015
    44					        OPD     ENABLE,ENUUO;  016
    45					        OPD     DISABL,DISUUO; 017
    46					        OPD     SSKE,SSKUUO;   020
    47					        OPD     TAB,TABUUO;    021
INSERT          3 Nov 1982	MACRO %53B(1156)-1 12:06  8-Mar-85 Page 2
CHR	MAC	15-Oct-73 17:37

    48					;CHR    SEP 17, 1974
    49					DEFINE  CHARDO(A) <CHARC=0
    50					A'IC;;      ILLEGAL CHARACTER
    51					A'AL;;      ALPHABETIC CHARACTER
    52					A'NU;;      NUMERIC CHARACTER
    53					A'RP;;      LEAVE USER MODE ")"
    54					A'IG;;      IGNORED CHARACTER
    55					A'QQ;;      ENTER USER NAME MODE "("
    56					A'AS;;      ALL FILES CHAR (*)
    57					A'EX;;      FILE EXTENSION DELIMITER (.)
    58					A'AT;;      COMMAND FILE CHAR (@)
    59					A'CO;;      COMMA
    60					A'TE;;      LINE TERMINATION (CR LF)
    61					A'SP;;      SPACE
    62					A'PO;;      POUND SIGN (#)
    63					A'QU;;      QUESTION MARK (?)
    64					A'PU;;      PUNCTUATION ALLOWED IN USER NAMES (/ ' $)
    65					A'DA>;      DASH (-)
    66					DEFINE  CHRDEF(C) <C=CHARC
    67					CHARC=CHARC+1>
    68			000020		        CHARDO  <CHRDEF >
INSERT          3 Nov 1982	MACRO %53B(1156)-1 12:06  8-Mar-85 Page 3
CHR	MAC	15-Oct-73 17:37

    69
    70					        TITLE   INSERT          3 Nov 1982
    71
    72			000054		COMMA=54
    73	000000'	336 00 0 00 000000*	INS::   SKIPN   LIST##          ;BE SURE THER IS SOMETHING IN THE LIST
    74	000001'	015 00 0 00 003167'	        ERROR   [ASCIZ '$MUST USE DATE COMMAND FIRST$']
    75	000002'	402 00 0 00 003162'	RT:     SETZM   TMWD
    76	000003'	012 00 0 00 003175'	        TYPE    [ASCIZ '$WHAT HOUR (0 TO 23) ']
    77	000004'	260 17 0 00 000000*	RT00:   PUSHJ   P,GWD##
    78	000005'	255 00 0 00 000000 	        JFCL
    79	000006'	201 05 0 00 000000*	        MOVEI   5,TT
    80	000007'	260 17 0 00 000000*	        PUSHJ   P,LKUP##
    81	000010'	254 00 0 00 000004'	        JRST    .-4
    82	000011'	260 17 1 00 000003 	        PUSHJ   P,@R3
    83	000012'	331 00 0 00 000000*	        SKIPL   NUMBER##
    84	000013'	254 00 0 00 000015'	        JRST    RTN
    85	000014'	254 00 0 00 000200'	RT0:    JRST    RQ
    86	000015'	200 01 0 00 000012*	RTN:    MOVE    R1,NUMBER
    87	000016'	307 01 0 00 000027 	        CAIG    R1,^D23
    88	000017'	305 01 0 00 000000 	        CAIGE   R1,0
    89	000020'	254 00 0 00 000171'	        JRST    RTNER
    90	000021'	302 07 0 00 000017 	        CAIE    CT,DA
    91	000022'	254 00 0 00 000050'	        JRST    RTN2
    92	000023'	200 01 0 00 000015*	        MOVE    R1,NUMBER
    93	000024'	242 01 0 00 000005 	        LSH     R1,5
    94	000025'	202 01 0 00 003156'	        MOVEM   R1,T1#
    95	000026'	200 01 0 00 003162'	        MOVE    R1,TMWD#
    96	000027'	612 01 0 00 003202'	        TDNE    R1,[1740]
    97	000030'	254 00 0 00 000173'	        JRST    RTNER1
    98	000031'	434 01 0 00 003156'	        OR      R1,T1
    99	000032'	434 01 0 00 003203'	        OR      R1,[14B17]
   100	000033'	202 01 0 00 003162'	RTN1:   MOVEM   R1,TMWD
   101	000034'	200 01 0 00 000023*	        MOVE    R1,NUMBER
   102	000035'	260 17 0 00 000004*	        PUSHJ   P,GWD
   103	000036'	255 00 0 00 000000 	        JFCL
   104	000037'	201 01 0 00 000006*	        MOVEI   R1,TT##
   105	000040'	260 17 0 00 000007*	        PUSHJ   P,LKUP
   106	000041'	254 00 0 00 000101'	        JRST    RTER
   107	000042'	335 00 0 00 000034*	        SKIPGE  NUMBER
   108	000043'	254 00 0 00 000175'	        JRST    RTNER2
   109	000044'	302 07 0 00 000017 	        CAIE    CT,DA
   110	000045'	254 00 0 00 000050'	        JRST    RTN2
   111	000046'	012 00 0 00 003204'	        TYPE    [ASCIZ '$DASH CAN ONLY BE USED ONCE$']
   112	000047'	254 00 0 00 000002'	        JRST    RT
   113	000050'	200 01 0 00 000042*	RTN2:   MOVE    R1,NUMBER
   114	000051'	307 01 0 00 000027 	        CAIG    R1,^D23
   115	000052'	305 01 0 00 000000 	        CAIGE   R1,0
   116	000053'	254 00 0 00 000171'	        JRST    RTNER
   117	000054'	200 01 0 00 003162'	        MOVE    R1,TMWD
   118	000055'	612 01 0 00 003212'	        TDNE    R1,[37]
   119	000056'	254 00 0 00 000173'	        JRST    RTNER1
   120	000057'	434 01 0 00 000050*	        OR      R1,NUMBER
   121	000060'	202 01 0 00 003162'	        MOVEM   R1,TMWD
   122	000061'	254 00 0 00 000014'	        JRST    RT0
   123	000062'	200 01 0 00 003162'	NOT::   MOVE    R1,TMWD
INSERT          3 Nov 1982	MACRO %53B(1156)-1 12:06  8-Mar-85 Page 1
INS	MAC	15-Oct-73 17:36

   124	000063'	430 01 0 00 003213'	        XOR     R1,[2B14]
   125	000064'	202 01 0 00 003162'	        MOVEM   R1,TMWD
   126	000065'	254 00 0 00 000004'	        JRST    RT00
   127	000066'	200 01 0 00 003162'	TBEFR:: MOVE    R1,TMWD
   128	000067'	434 01 0 00 003214'	        OR      R1,[1B14]
   129	000070'	254 00 0 00 000033'	        JRST    RTN1
   130	000071'	254 00 0 00 000014'	ANY::   JRST    RT0
   131	000072'	200 01 0 00 003162'	TAFTER:: MOVE    R1,TMWD
   132	000073'	434 01 0 00 003215'	        OR      R1,[4B17]
   133	000074'	254 00 0 00 000033'	        JRST    RTN1
   134	000075'	200 01 0 00 003216'	DFRD::  MOVE    R1,[14001244]
   135	000076'	202 01 0 00 003162'	        MOVEM   R1,TMWD
   136					        INTERN  DFRSW
   137	000077'	476 00 0 00 003147'	        SETOM   DFRSW#          ;SET TO 1'S IF WE DOING DEFER
   138	000100'	254 00 0 00 000014'	        JRST    RT0
   139	000101'	012 00 0 00 000103'	RTER::  TYPE    RNERM
   140	000102'	254 00 0 00 000002'	        JRST    RT
   141	000103'	126 101 114 111 104 	RNERM:  ASCIZ   'VALID EXPRESSIONS ARE:
   142	000104'	040 105 130 120 122
   143	000105'	105 123 123 111 117
   144	000106'	116 123 040 101 122
   145	000107'	105 072 015 012 040 	        ANY     TO RUN ANY TIME
   146	000110'	040 040 040 040 040
   147	000111'	040 040 101 116 131
   148	000112'	040 040 040 040 040
   149	000113'	124 117 040 122 125
   150	000114'	116 040 101 116 131
   151	000115'	040 124 111 115 105
   152	000116'	015 012 040 040 040 	        DEFER   TO RUN AFTER 2200
   153	000117'	040 040 040 040 040
   154	000120'	104 105 106 105 122
   155	000121'	040 040 040 124 117
   156	000122'	040 122 125 116 040
   157	000123'	101 106 124 105 122
   158	000124'	040 062 062 060 060
   159	000125'	015 012 040 040 040 	        A NUMBER 0 TO 23
   160	000126'	040 040 040 040 040
   161	000127'	101 040 116 125 115
   162	000130'	102 105 122 040 060
   163	000131'	040 124 117 040 062
   164	000132'	063 015 012 040 040 	        A RANGE AS 4-16
   165	000133'	040 040 040 040 040
   166	000134'	040 101 040 122 101
   167	000135'	116 107 105 040 101
   168	000136'	123 040 064 055 061
   169	000137'	066 015 012 040 040 	        THE WORDS "AFTER" OR "BEFORE" FOLLOWED BY 0 TO 23
   170	000140'	040 040 040 040 040
   171	000141'	040 124 110 105 040
   172	000142'	127 117 122 104 123
   173	000143'	040 042 101 106 124
   174	000144'	105 122 042 040 117
   175	000145'	122 040 042 102 105
   176	000146'	106 117 122 105 042
   177	000147'	040 106 117 114 114
   178	000150'	117 127 105 104 040
INSERT          3 Nov 1982	MACRO %53B(1156)-1 12:06  8-Mar-85 Page 1-1
INS	MAC	15-Oct-73 17:36

   179	000151'	102 131 040 060 040
   180	000152'	124 117 040 062 063
   181	000153'	015 012 040 040 040 	        OR THE WORD NOT BEFORE THE RANGE, "AFTER", OR "BEFORE"$'
   182	000154'	040 040 040 040 040
   183	000155'	117 122 040 124 110
   184	000156'	105 040 127 117 122
   185	000157'	104 040 116 117 124
   186	000160'	040 102 105 106 117
   187	000161'	122 105 040 124 110
   188	000162'	105 040 122 101 116
   189	000163'	107 105 054 040 042
   190	000164'	101 106 124 105 122
   191	000165'	042 054 040 117 122
   192	000166'	040 042 102 105 106
   193	000167'	117 122 105 042 044
   194	000170'	000 000 000 000 000
   195	000171'	012 00 0 00 003217'	RTNER:  TYPE    [ASCIZ '$TIME MUST BE AN HOUR BETWEEN 0 AND 23$']
   196	000172'	254 00 0 00 000002'	        JRST    RT
   197	000173'	012 00 0 00 003227'	RTNER1: TYPE    [ASCIZ '$CONFUSING TIME EXPRESSION$']
   198	000174'	254 00 0 00 000002'	        JRST    RT
   199	000175'	012 00 0 00 003235'	RTNER2: TYPE    [ASCIZ '$REQUIRE NUMBER AFTER DASH$']
   200	000176'	254 00 0 00 000002'	        JRST    RT
   201	000177'	000000	000000		USFLG:  0
   202	000200'	260 17 0 00 000216'	RQ:     PUSHJ   P,RQS
   203	000201'	260 17 0 00 000404'	INS1:   PUSHJ   P,GNXD
   204	000202'	200 01 0 00 000753'	        MOVE    R1,.INS
   205	000203'	260 17 0 00 000765'	        PUSHJ   P,OPCH
   206	000204'	200 01 0 00 003162'	        MOVE    R1,TMWD
   207	000205'	260 17 0 00 001207'	        PUSHJ   P,SWD
   208	000206'	200 01 0 00 000752'	        MOVE    R1,NXD
   209	000207'	260 17 0 00 001207'	        PUSHJ   P,SWD
   210	000210'	260 17 0 00 001266'	        PUSHJ   P,XRQS          ;SENDS RQS DATA
   211	000211'	260 17 0 00 001263'	        PUSHJ   P,SLIST
   212	000212'	260 17 0 00 001223'	XINS1:  PUSHJ   P,GWDA
   213	000213'	312 01 0 00 000754'	        CAME    R1,.EJB
   214	000214'	015 00 0 00 003243'	        ERROR   [ASCIZ 'SYSTEM ERROR']
   215	000215'	254 00 0 00 000000*	        JRST    CDISP##
   216
   217	000216'	201 00 0 00 000130 	RQS::   MOVEI   R0,^D88         ; FOR LOCKHEED DO NOT REQUEST COMPTR
   218					        IFNDEF  LOCHSW,<
   219	000217'	012 00 0 00 003246'	        TYPE    [ASCIZ '$COMPUTER ']
   220	000220'	260 17 0 00 000000*	        PUSHJ   P,RDDNUM##
   221	000221'	302 04 0 00 000015 	        CAIE    CH,CRCHR
   222	000222'	254 00 0 00 000347'	        JRST    RQE
   223	000223'	331 00 0 00 000000 		SKIPL	R0		; Must be positive!
   224	000224'	301 00 0 00 000400 	        CAIL	R0,^D256	; Maximum system # is 255.
   225	000225'	254 00 0 00 000352'	         JRST	RQRE>		; Do range-error message.
   226	000226'	202 00 0 00 000763'	        MOVEM   R0,CPN
   227	000227'	260 17 0 00 000312'	        PUSHJ   P,GUSNM
   228	000230'	012 00 0 00 003251'	        TYPE    [ASCIZ '$PROJECT CODE ']
   229	000231'	001 07 0 00 000004 	        TCI     CT,CH
   230	000232'	306 07 0 00 000012 	        CAIN    CT,TE
   231	000233'	254 00 0 00 000256'	        JRST    RQS1            ;NO PROJECT CODE
   232	000234'	201 00 0 00 000033 	        MOVEI   R0,33
   233	000235'	260 17 0 00 000355'	        PUSHJ   P,WCHI
INSERT          3 Nov 1982	MACRO %53B(1156)-1 12:06  8-Mar-85 Page 1-2
INS	MAC	15-Oct-73 17:36

   234	000236'	200 00 0 00 000004 	        MOVE    R0,CH
   235	000237'	271 00 0 00 000140 	        ADDI    R0,140
   236	000240'	405 00 0 00 000177 	        ANDI    R0,177
   237	000241'	260 17 0 00 000355'	        PUSHJ   P,WCHI
   238	000242'	211 03 0 00 000011 	        MOVNI   R3,11
   239	000243'	001 07 0 00 000004 	        TCI     CT,CH
   240	000244'	306 07 0 00 000012 	        CAIN    CT,TE
   241	000245'	254 00 0 00 000256'	        JRST    RQS1
   242	000246'	200 00 0 00 000004 	        MOVE    R0,CH
   243	000247'	271 00 0 00 000140 	        ADDI    R0,140
   244	000250'	405 00 0 00 000177 	        ANDI    R0,177
   245	000251'	260 17 0 00 000355'	        PUSHJ   P,WCHI
   246	000252'	341 03 0 00 000243'	        AOJL    R3,.-7
   247	000253'	012 00 0 00 003254'	        TYPE    [ASCIZ '$PROJECT CODE TOO LONG$']
   248	000254'	013 00 0 00 000000 	        CLRIN
   249	000255'	254 00 0 00 000216'	        JRST    RQS
   250	000256'	201 00 0 00 000032 	RQS1:   MOVEI   R0,32           ;COLON
   251	000257'	260 17 0 00 000355'	        PUSHJ   P,WCHI
   252	000260'	012 00 0 00 003261'	CO0:    TYPE    [ASCIZ '$COMMAND FILE NAME ']
   253	000261'	001 07 0 00 000004 	CO1:    TCI     CT,CH
   254	000262'	306 07 0 00 000013 	        CAIN    CT,SP
   255	000263'	254 00 0 00 000261'	        JRST    CO1
   256	000264'	306 07 0 00 000012 	        CAIN    CT,TE
   257	000265'	254 00 0 00 000260'	        JRST    CO0
   258	000266'	254 00 0 00 000270'	        JRST    CO2
   259	000267'	001 07 0 00 000004 	COM1:   TCI     CT,CH
   260	000270'	306 07 0 00 000012 	CO2:    CAIN    CT,TE
   261	000271'	254 00 0 00 000303'	        JRST    RQS2
   262	000272'	302 07 0 00 000013 	        CAIE    CT,SP
   263	000273'	254 00 0 00 000276'	        JRST    COM2
   264	000274'	051 11 0 00 000000 	        CLRBFI
   265	000275'	254 00 0 00 000303'	        JRST    RQS2
   266	000276'	200 00 0 00 000004 	COM2:   MOVE    R0,CH
   267	000277'	271 00 0 00 000140 	        ADDI    R0,140
   268	000300'	405 00 0 00 000177 	        ANDI    R0,177
   269	000301'	260 17 0 00 000355'	        PUSHJ   P,WCHI
   270	000302'	254 00 0 00 000267'	        JRST    COM1
   271	000303'	201 00 0 00 000155 	RQS2:   MOVEI   R0,155
   272	000304'	260 17 0 00 000355'	        PUSHJ   P,WCHI
   273	000305'	211 03 0 00 000006 	        MOVNI   R3,6
   274	000306'	400 00 0 00 000000 	        SETZ    R0,
   275	000307'	260 17 0 00 000355'	        PUSHJ   P,WCHI
   276	000310'	341 03 0 00 000307'	        AOJL    R3,.-1
   277	000311'	263 17 0 00 000000 	        POPJ    P,
   278	000312'	200 01 0 00 003265'	GUSNM:: MOVE    R1,[XWD -1,-22]
   279	000313'	047 01 0 00 000041 	        GETTAB  R1,
   280	000314'	255 00 0 00 000000 	        JFCL
   281	000315'	202 01 0 00 003163'	        MOVEM   R1,UN1#
   282	000316'	200 01 0 00 003266'	        MOVE    R1,[XWD -1,-21]
   283	000317'	047 01 0 00 000041 	        GETTAB  R1,
   284	000320'	255 00 0 00 000000 	        JFCL
   285	000321'	202 01 0 00 003164'	        MOVEM   R1,UN2#
   286	000322'	200 10 0 00 000403'	        MOVE    I,NMP
   287	000323'	200 01 0 00 003163'	        MOVE    R1,UN1
   288	000324'	211 03 0 00 000006 	        MOVNI   R3,6
INSERT          3 Nov 1982	MACRO %53B(1156)-1 12:06  8-Mar-85 Page 1-3
INS	MAC	15-Oct-73 17:36

   289	000325'	402 00 0 00 003155'	        SETZM   NCOUNT
   290	000326'	400 00 0 00 000000 	        SETZ    R0,
   291	000327'	246 00 0 00 000006 	        LSHC    R0,6
   292	000330'	337 00 0 00 000000 	        SKIPG   R0
   293	000331'	263 17 0 00 000000 	        POPJ    P,
   294	000332'	260 17 0 00 000355'	        PUSHJ   P,WCHI
   295	000333'	350 00 0 00 003155'	        AOS     NCOUNT#
   296	000334'	341 03 0 00 000326'	        AOJL    R3,.-6
   297	000335'	211 03 0 00 000006 	        MOVNI   R3,6
   298	000336'	200 01 0 00 003164'	        MOVE    R1,UN2
   299	000337'	400 00 0 00 000000 	        SETZ    R0
   300	000340'	246 00 0 00 000006 	        LSHC    R0,6
   301	000341'	337 00 0 00 000000 	        SKIPG   R0
   302	000342'	263 17 0 00 000000 	        POPJ    P,
   303	000343'	260 17 0 00 000355'	        PUSHJ   P,WCHI
   304	000344'	350 00 0 00 003155'	        AOS     NCOUNT
   305	000345'	341 03 0 00 000337'	        AOJL    R3,.-6
   306	000346'	263 17 0 00 000000 	        POPJ    P,
   307	000347'	012 00 0 00 003267'	RQE:    TYPE    [ASCIZ '$INVALID TERMINATOR$']
   308	000350'	013 00 0 00 000000 	        CLRIN
   309	000351'	254 00 0 00 000216'	        JRST    RQS
   310					RQRE:	TYPE	[ASCIZ '$COMPUTER NUMBER OUT OF RANGE,
   311	000352'	012 00 0 00 003274'	COMPUTER NUMBER MUST BE BETWEEN 1 AND 255.$']
   312	000353'	013 00 0 00 000000 		CLRIN
   313	000354'	254 00 0 00 000216'		JRST	RQS
   314
   315	000355'	137 00 0 00 000010 	WCHI:   DPB     R0,I
   316	000356'	133 00 0 00 000010 	        IBP     I
   317	000357'	554 02 0 00 000010 	        HLRZ    R2,I
   318	000360'	306 02 0 00 341000 	        CAIN    R2,341000
   319	000361'	505 10 0 00 201000 	        HRLI    I,201000
   320	000362'	263 17 0 00 000000 	        POPJ    P,
   321	000363'				NMT::   BLOCK   20
   322	000403'	20 10 0 00 000363'	NMP:    POINT   8,NMT,19
   323
   324	000404'	260 17 0 00 001461'	GNXD:   PUSHJ   P,GTUZ
   325	000405'	336 00 0 00 003147'	        SKIPN   DFRSW           ;DEFER? 8/6/76 CLC
   326	000406'	254 00 0 00 000411'	        JRST    REG             ;NO
   327	000407'	201 01 0 00 002371 	        MOVEI   R1,25*74+15     ;DEFER START @21:15
   328	000410'	254 00 0 00 000415'	        JRST    GNX             ;CONTINUE END 8/6/76
   329	000411'	200 01 0 00 003162'	REG:    MOVE    R1,TMWD
   330	000412'	612 01 0 00 003314'	        TDNE    R1,[34000077]
   331	000413'	254 00 0 00 000442'	        JRST    GNX1
   332	000414'	400 01 0 00 000000 	GNX0:   SETZ    R1,
   333	000415'	202 01 0 00 000752'	GNX:    MOVEM   R1,NXD
   334	000416'	264 00 0 00 000000*	        JSR     DSX##
   335	000417'	264 00 0 00 000000*	   JSR     DS0##
   336	000420'	337 00 0 00 000001 	        SKIPG   R1
   337	000421'	015 00 0 00 003315'	        ERROR   [ASCIZ 'ERROR IN DATE ROUTINE']
   338	000422'	313 01 0 00 003322'		camle	R1,[lastdt##]	; skip if our run date is in bounds
   339	000423'	015 00 0 00 003323'		error	[asciz 'NO MORE DATES']
   340	000424'	264 00 0 00 000000*	        JSR     FDMN##
   341	000425'	200 01 0 00 000751'	        MOVE    R1,DY
   342	000426'	370 00 0 00 000001 	        SOS     R1
   343	000427'	221 01 0 00 002640 	        IMULI   R1,^D1440
INSERT          3 Nov 1982	MACRO %53B(1156)-1 12:06  8-Mar-85 Page 1-4
INS	MAC	15-Oct-73 17:36

   344	000430'	272 01 0 00 000752'	        ADDM    R1,NXD
   345	000431'	200 01 0 00 000750'	        MOVE    R1,MN
   346	000432'	242 01 0 00 000020 	        LSH     R1,20
   347	000433'	272 01 0 00 000752'	        ADDM    R1,NXD
   348	000434'	200 01 0 00 000747'	        MOVE    R1,YR
   349	000435'	242 01 0 00 000024 	        LSH     R1,24
   350	000436'	270 01 0 00 000752'	        ADD     R1,NXD
   351	000437'	260 17 0 00 001321'	        PUSHJ   P,CUBS
   352	000440'	202 01 0 00 000752'	        MOVEM   R1,NXD
   353	000441'	263 17 0 00 000000 	        POPJ    P,
   354	000442'	612 01 0 00 003213'	GNX1:   TDNE    R1,[2B14]
   355	000443'	254 00 0 00 000453'	        JRST    GNX2
   356	000444'	612 01 0 00 003215'	        TDNE    R1,[4B17]
   357	000445'	254 00 0 00 000456'	        JRST    GNX4
   358	000446'	612 01 0 00 003214'	        TDNE    R1,[1B14]
   359	000447'	254 00 0 00 000414'	        JRST    GNX0
   360	000450'	405 01 0 00 000037 	GNX3:   ANDI    R1,37
   361	000451'	221 01 0 00 000074 	        IMULI   R1,74
   362	000452'	254 00 0 00 000415'	        JRST    GNX
   363	000453'	612 01 0 00 003214'	GNX2:   TDNE    R1,[1B14]
   364	000454'	254 00 0 00 000450'	        JRST    GNX3
   365	000455'	254 00 0 00 000414'	        JRST    GNX0
   366	000456'	242 01 0 00 777773 	GNX4:   LSH     R1,-5
   367	000457'	254 00 0 00 000450'	        JRST    GNX3
   368
   369	000460'	260 17 0 00 000216'	GET::   PUSHJ   P,RQS
   370	000461'	200 01 0 00 000756'	        MOVE    R1,.GET
   371	000462'	260 17 0 00 000765'	        PUSHJ   P,OPCH
   372	000463'	260 17 0 00 001266'	        PUSHJ   P,XRQS
   373	000464'	260 17 0 00 001223'	        PUSHJ   P,GWDA
   374	000465'	316 01 0 00 000761'	        CAMN    R1,.NJB
   375	000466'	254 00 0 00 000627'	        JRST    RERR
   376	000467'	201 02 0 00 000000*	        MOVEI   R2,LIST
   377	000470'	202 02 0 00 003157'	        MOVEM   R2,T2#
   378	000471'	202 01 1 00 003157'	XGET1:  MOVEM   R1,@T2
   379	000472'	336 00 0 00 000001 	        SKIPN   R1
   380	000473'	254 00 0 00 000215*	        JRST    CDISP
   381	000474'	350 00 0 00 003157'	        AOS     T2
   382	000475'	260 17 0 00 001223'	        PUSHJ   P,GWDA
   383	000476'	254 00 0 00 000471'	        JRST    XGET1
   384
   385	000477'	260 17 0 00 000312'	DOLIST:: PUSHJ  P,GUSNM
   386	000500'	200 01 0 00 000760'	        MOVE    R1,.LIS
   387	000501'	260 17 0 00 000765'	        PUSHJ   P,OPCH
   388	000502'	260 17 0 00 000571'	        PUSHJ   P,SUSNM
   389	000503'	201 01 0 00 002443'	        MOVEI   R1,DOBUFF
   390	000504'	202 01 0 00 003157'	        MOVEM   R1,T2
   391	000505'	260 17 0 00 001223'	        PUSHJ   P,GWDA
   392	000506'	202 01 1 00 003157'	        MOVEM   R1,@T2
   393	000507'	350 00 0 00 003157'	        AOS     T2
   394	000510'	332 00 0 00 000001 	        SKIPE   R1
   395	000511'	254 00 0 00 000505'	        JRST    .-4
   396	000512'	200 01 0 00 003157'	        MOVE    R1,T2
   397	000513'	202 01 0 00 003156'	        MOVEM   R1,T1
   398	000514'	260 17 0 00 001223'	        PUSHJ   P,GWDA                  ;CLEAR THE EJB
INSERT          3 Nov 1982	MACRO %53B(1156)-1 12:06  8-Mar-85 Page 1-5
INS	MAC	15-Oct-73 17:36

   399	000515'	312 01 0 00 000754'	        CAME    R1,.EJB
   400	000516'	015 00 0 00 001034'	        ERROR   SYSER
   401	000517'	201 01 0 00 002443'	XDOLR:  MOVEI   R1,DOBUFF
   402	000520'	312 01 0 00 003156'	        CAME    R1,T1
   403	000521'	254 00 0 00 000524'	        JRST    LEN1
   404	000522'	012 00 0 00 003326'	        TYPE    [ASCIZ '$JOB LIST EMPTY$']
   405	000523'	254 00 0 00 000473*	        JRST    CDISP
   406	000524'	202 01 0 00 003165'	LEN1:   MOVEM   R1,XPOS#
   407	000525'	200 01 1 00 003165'	        MOVE    R1,@XPOS
   408	000526'	332 00 0 00 000001 	        SKIPE   R1
   409	000527'	254 00 0 00 000532'	        JRST    LEN2
   410	000530'	012 00 0 00 003332'	        TYPE    [ASCIZ '$END OF JOB $']
   411	000531'	254 00 0 00 000523*	        JRST    CDISP
   412	000532'	260 17 0 00 000633'	LEN2:   PUSHJ   P,PDMDT
   413	000533'	012 00 0 00 003335'	        TYPE    [ASCIZ ', CPN: ']
   414	000534'	350 00 0 00 003165'	        AOS     XPOS
   415	000535'	200 00 1 00 003165'	        MOVE    R0,@XPOS
   416	000536'	350 00 0 00 003165'	        AOS     XPOS
   417	000537'	405 00 0 00 007777 	        ANDI    R0,7777		; extract the system number
   418	000540'	260 17 0 00 000000*	        PUSHJ   P,PRDNUM
   419	000541'	010 00 0 00 003337'	        TCO     [COMMA]
   420	000542'	010 00 0 00 003340'	        TCO     [SPACE]
   421	000543'	200 01 1 00 003165'	        MOVE    R1,@XPOS
   422
   423	000544'	350 00 0 00 003165'	        AOS     XPOS
   424	000545'	260 17 0 00 000550'	        PUSHJ   P,PWD
   425	000546'	254 00 0 00 000543'	        JRST    .-3
   426	000547'	254 00 0 00 000525'	        JRST    LEN1+1
   427
   428	000550'	400 00 0 00 000000 	PWD:    SETZ    R0
   429	000551'	246 00 0 00 000024 	        LSHC    R0,^D20
   430	000552'	260 17 0 00 000563'	        PUSHJ   P,PCH
   431	000553'	254 00 0 00 000561'	        JRST    SKIPRT
   432	000554'	246 00 0 00 000010 	        LSHC    R0,8
   433	000555'	260 17 0 00 000563'	        PUSHJ   P,PCH
   434	000556'	254 00 0 00 000561'	        JRST    SKIPRT
   435	000557'	246 00 0 00 000010 	        LSHC    R0,8
   436	000560'	260 17 0 00 000563'	        PUSHJ   P,PCH
   437	000561'	350 00 0 17 000000 	SKIPRT: AOS     (P)
   438	000562'	263 17 0 00 000000 	        POPJ    P,
   439
   440	000563'	271 00 0 00 000040 	PCH:    ADDI    R0,40
   441	000564'	405 00 0 00 000177 	        ANDI    R0,177
   442	000565'	010 00 0 00 000000 	        TCO     R0
   443	000566'	302 00 0 00 000015 	        CAIE    R0,CRCHR
   444	000567'	350 00 0 17 000000 	        AOS     (P)
   445	000570'	263 17 0 00 000000 	        POPJ    P,
   446
   447	000571'	200 01 0 00 003155'	SUSNM:  MOVE    R1,NCOUNT
   448	000572'	201 02 0 00 000003 	        MOVEI   R2,3
   449	000573'	504 02 0 00 003144'	        HRL     R2,AUX
   450	000574'	042 02 0 00 000001 	        AUXCAL  R2,R1
   451	000575'	200 01 0 00 003163'	        MOVE    R1,UN1
   452	000576'	400 00 0 00 000000 	        SETZ    R0,
   453	000577'	246 00 0 00 000006 	        LSHC    R0,6
INSERT          3 Nov 1982	MACRO %53B(1156)-1 12:06  8-Mar-85 Page 1-6
INS	MAC	15-Oct-73 17:36

   454	000600'	336 00 0 00 000000 	        SKIPN   R0
   455	000601'	254 00 0 00 000605'	        JRST    SUSNM1
   456	000602'	042 02 0 00 000000 	        AUXCAL  R2,R0
   457	000603'	370 00 0 00 003155'	        SOS     NCOUNT
   458	000604'	254 00 0 00 000576'	        JRST    .-6
   459	000605'	337 00 0 00 003155'	SUSNM1: SKIPG   NCOUNT
   460	000606'	263 17 0 00 000000 	        POPJ    P,
   461	000607'	200 01 0 00 003164'	        MOVE    R1,UN2
   462	000610'	400 00 0 00 000000 	        SETZ    R0,
   463	000611'	246 00 0 00 000006 	        LSHC    R0,6
   464	000612'	336 00 0 00 000000 	        SKIPN   R0
   465	000613'	263 17 0 00 000000 	        POPJ    P,
   466	000614'	042 02 0 00 000000 	        AUXCAL  R2,R0
   467	000615'	370 00 0 00 003155'	        SOS     NCOUNT
   468	000616'	254 00 0 00 000610'	        JRST    .-6
   469
   470	000617'	260 17 0 00 000216'	STATUS:: PUSHJ  P,RQS
   471	000620'	200 01 0 00 000755'	        MOVE    R1,.STA
   472	000621'	260 17 0 00 000765'	        PUSHJ   P,OPCH
   473	000622'	260 17 0 00 001266'	        PUSHJ   P,XRQS
   474	000623'	260 17 0 00 001223'	        PUSHJ   P,GWDA
   475	000624'	316 01 0 00 000762'	        CAMN    R1,.STAR
   476	000625'	015 00 0 00 001034'	        ERROR   SYSER
   477	000626'	316 01 0 00 000761'	        CAMN    R1,.NJB
   478	000627'	015 00 0 00 003341'	RERR:   ERROR   [ASCIZ 'JOB NOT IN LIST$']
   479	000630'	260 17 0 00 000633'	        PUSHJ   P,PDMDT
   480	000631'	010 00 0 00 003345'	        TCO     [CRCHR]
   481	000632'	254 00 0 00 000531*	        JRST    CDISP
   482	000633'	224 01 0 00 003346'	PDMDT:  MUL     1,[^D100000000]
   483	000634'	234 01 0 00 003347'	        DIV     1,[^D178813930]
   484	000635'	231 01 0 00 002640 	        IDIVI   1,^D1440                ;LEAVE IN 1 NUMBER OF DAYS
   485	000636'	231 02 0 00 000074 	        IDIVI   2,^D60                  ;SINCE FEB 29, 72 AND IN 2
   486					                                        ;THE NUMBER OF HOURS, 3=MIN
   487	000637'	202 02 0 00 003153'	        MOVEM   2,HRS#
   488	000640'	202 03 0 00 003154'	        MOVEM   3,MIN#
   489	000641'	271 01 0 00 000072 	        ADDI    1,^D58                  ;CONVERT IT TO START OF 1972
   490	000642'	202 01 0 00 003151'	        MOVEM   1,ETAD#
   491	000643'	260 17 0 00 001461'	        PUSHJ   P,GTUZ
   492	000644'	200 01 0 00 002442'	        MOVE    R1,UZ
   493	000645'	200 02 0 00 003151'	        MOVE    R2,ETAD
   494	000646'	626 01 0 00 000040 		trzn	r1,40			;turn off DST bit if on
   495	000647'	254 00 0 00 000660'		jrst	sc2			;wasn't on--no DST fix needed
   496	000650'	400 03 0 00 000000 	        setz 	r3,
   497	000651'	317 02 0 03 000711'	SC3:    CAMG    2,DSTD(R3)
   498	000652'	254 00 0 00 000657'	        JRST    SC1             	;DST in effect
   499	000653'	350 00 0 00 000003 	        AOS     R3
   500	000654'	317 02 0 03 000711'	        CAMG    R2,DSTD(R3)
   501	000655'	254 00 0 00 000660'	        JRST    SC2			;DST not in effect
   502	000656'	344 03 0 00 000651'	        AOJA    3,SC3           	;CONTINUE ON
   503	000657'	350 00 0 00 000001 	sc1:    aos	r1 			;fix up for daylight savings
   504	000660'	275 01 0 00 000020 	sc2:    subi	r1,20			;get offset to GMT
   505	000661'	272 01 0 00 003153'	        addm	r1,hrs			;now it's corrected to GMT
   506	000662'	200 02 0 00 003153'		move	r2,hrs			;put it in an AC for checking
   507	000663'	301 02 0 00 000030 	        CAIL    R2,^D24			;see if hr is geq 24
   508	000664'	254 00 0 00 000706'	        JRST    SLOW			;yep--go fix up hrs and days
INSERT          3 Nov 1982	MACRO %53B(1156)-1 12:06  8-Mar-85 Page 1-7
INS	MAC	15-Oct-73 17:36

   509	000665'	335 00 0 00 000002 	        skipge  r2
   510	000666'	254 00 0 00 000703'	        JRST    SHI			;oops--hr is < 0, so fix up
   511	000667'	202 02 0 00 003153'	SC:     MOVEM   R2,HRS
   512	000670'	200 01 0 00 003151'	        MOVE    R1,ETAD
   513	000671'	260 17 0 00 000000*	        PUSHJ   P,PBNDT##       ;PRINT THE DATE
   514	000672'	010 00 0 00 003340'	        TCO     [SPACE]
   515	000673'	010 00 0 00 003340'	        TCO     [SPACE]
   516	000674'	200 00 0 00 003153'	        MOVE    R0,HRS
   517	000675'	260 17 0 00 000540*	        PUSHJ   P,PRDNUM##
   518	000676'	010 00 0 00 003350'	        TCO     [72]            ;COLON
   519	000677'	200 00 0 00 003154'	        MOVE    R0,MIN
   520	000700'	260 17 0 00 000000*	        PUSHJ   P,PRD2N##
   521	000701'	255 00 0 00 000000 	        JFCL
   522	000702'	263 17 0 00 000000 	        POPJ    P,
   523	000703'	271 02 0 00 000030 	SHI:    ADDI    R2,^D24
   524	000704'	370 00 0 00 003151'	        SOS     ETAD
   525	000705'	254 00 0 00 000667'	        JRST    SC
   526	000706'	275 02 0 00 000030 	SLOW:   SUBI    R2,^D24
   527	000707'	350 00 0 00 003151'	        AOS     ETAD
   528	000710'	254 00 0 00 000667'	        JRST    SC
   529					                        ;THE next table gives STARTING DATES AND ENDING
   530					                        ;DATES FOR DAYLIGHT SAVINGS TIME IN DAYS SINCE
   531					                        ;JAN 1, 1972. CALCULATED AS THE LAST SUNDAY
   532					                        ;OF April AND OCTOBER.
   533	000711'	000000	000000		DSTD:   DEC     0
   534	000712'	000000	002175			DEC	1149
   535	000713'	000000	002561			DEC	1393
   536	000714'	000000	002757			DEC	1519
   537	000715'	000000	003344			DEC	1764
   538	000716'	000000	003622			DEC	1938
   539	000717'	000000	004120			DEC	2128
   540	000720'	000000	004376			DEC	2302
   541	000721'	000000	004674			DEC	2492
   542	000722'	000000	005152			DEC	2666
   543	000723'	000000	005450			DEC	2856
   544	000724'	000000	005735			DEC	3037
   545	000725'	000000	006224			DEC	3220
   546	000726'	000000	006511			DEC	3401
   547	000727'	000000	007000			DEC	3584
   548	000730'	000000	007265			DEC	3765
   549	000731'	000000	007563			DEC	3955
   550	000732'	000000	010042			DEC	4130
   551	000733'	777777	777777		        -1				;indicates end of table
   552
   553	000734'	260 17 0 00 000216'	DELETE:: PUSHJ  P,RQS
   554	000735'	200 01 0 00 000757'	        MOVE    R1,.DEL
   555	000736'	260 17 0 00 000765'	        PUSHJ   P,OPCH
   556	000737'	260 17 0 00 001266'	        PUSHJ   P,XRQS
   557	000740'	260 17 0 00 001223'	        PUSHJ   P,GWDA
   558	000741'	316 01 0 00 000761'	        CAMN    R1,.NJB
   559	000742'	254 00 0 00 000627'	        JRST    RERR            ;ASSUME THAT NJB MEANS CANNOT FIND JOB
   560	000743'	312 01 0 00 000754'	        CAME    R1,.EJB
   561	000744'	015 00 0 00 001034'	        ERROR   SYSER
   562	000745'	012 00 0 00 003351'	        TYPE    [ASCIZ '$DELETED$']
   563	000746'	254 00 0 00 000632*	        JRST    CDISP
INSERT          3 Nov 1982	MACRO %53B(1156)-1 12:06  8-Mar-85 Page 1-8
INS	MAC	15-Oct-73 17:36

   564
   565	000747'	000 00 0 00 000000 	YR::    Z
   566	000750'	000 00 0 00 000000 	MN::    Z
   567	000751'	000 00 0 00 000000 	DY::    Z
   568	000752'	000 00 0 00 000000 	NXD::   Z
   569	000753'	000012	227063		.INS:   12227063
   570	000754'	000011	225042		.EJB::  11225042
   571	000755'	000014	632041		.STA::  14632041
   572	000756'	000011	622464		.GET::  11622464
   573	000757'	000011	022454		.DEL::  11022454
   574	000760'	000013	024463		.LIS::  13024463
   575	000761'	000013	425042		.NJB::  13425042
   576	000762'	000002	405012		.STAR:: 2405012
   577	000763'	000 00 0 00 000000 	CPN::   Z
   578	000764'	000 00 0 00 000000 	OMPS:	Z
   579	000765'	202 01 0 00 003146'	OPCH::  MOVEM   R1,CMD
   580	000766'	260 17 0 00 001041'	        PUSHJ   P,GETSNO        	; GET MASTER PERP SYSTEM # IN R1
   581					SNOERR:	  ERROR	[ASCIZ '$ERROR READING MASTER SYSTEM LIST: (SYS)PERP.SYS
   582	000767'	015 00 0 00 003353'	CALL QUALITY ASSURANCE IMMEDIATELY$']
   583	000770'	333 00 0 00 003144'	        SKIPLE	AUX			; Circuit already built?
   584	000771'	312 01 0 00 000764'		 CAME	R1,OMPS			; Same as Old Master Perp System?
   585	000772'	304 00 0 00 000000 	        Caia				; No circuit - or - No match
   586	000773'	254 00 0 00 001200'		  Jrst	SGCMD			; Same-Same -- Send command
   587	000774'	474 01 0 00 000000 		Seto	R1,			; Set to -1
   588	000775'	333 00 0 00 003144'		Skiple	AUX			; Skip if no circuit.
   589	000776'	047 01 0 00 777733 		 ZapCir	R1,			; Zap the old circuit (Wrong master)
   590	000777'	402 00 0 00 003144'		Setzm	AUX			; Make sure flagged as OFF
   591	001000'	012 00 0 00 003375'		TYPE    [ASCIZ '$BUILDING CIRCUIT TO MASTER PERP SYSTEM$']
   592	001001'	260 17 0 00 001275'	        PUSHJ   P,SETIM
   593	001002'	260 17 0 00 001041'		PUSHJ	P,GETSNO        	; GET MASTER PERP SYSTEM # IN R1
   594	001003'	254 00 0 00 000767'		 Jrst	SNOERR			; Can't find good data in file
   595	001004'	202 01 0 00 000764'		MOVEM	R1,OMPS			; Save Master Perp System #
   596	001005'	260 17 0 00 001101'		PUSHJ	P,CNVSNO		; R1_ addr of [ASCIZ 'DUPJOB:##-;']
   597	001006'	047 01 0 00 777734 	        CREAUX  R1,
   598	001007'	254 00 0 00 001016'	        JRST    OPCHER
   599	001010'	202 01 0 00 003144'	        MOVEM   R1,AUX#
   600	001011'	201 01 0 00 000004 	        MOVEI   R1,4
   601	001012'	504 01 0 00 003144'	        HRL     R1,AUX
   602	001013'	042 01 0 00 000015 	        AUXCAL  R1,15
   603	001014'	042 01 0 00 000015 	        AUXCAL  R1,15
   604	001015'	254 00 0 00 001136'	        JRST    INIT
   605	001016'	204 02 0 00 000001 	OPCHER: MOVS    R2,R1
   606	001017'	254 00 0 02 001020'	        JRST    ER(R2)
   607	001020'	254 00 0 00 001030'	ER:     JRST    SUPERR          ;SUPERVISOR ERROR
   608	001021'	015 00 0 00 001034'	        ERROR   SYSER
   609	001022'	015 00 0 00 001034'	        ERROR   SYSER
   610	001023'	015 00 0 00 003406'	        ERROR   [ASCIZ '$UNABLE TO BUILD CIRCUIT, TRY LATER$']
   611	001024'	015 00 0 00 003416'	        ERROR   [ASCIZ '$MASTER PERP SYSTEM UNAVAILABLE- PLEASE REENTER LATER$']
   612	001025'	015 00 0 00 001034'	        ERROR   SYSER
   613	001026'	015 00 0 00 001034'	        ERROR   SYSER
   614	001027'	015 00 0 00 001034'	        ERROR   SYSER
   615	001030'	405 01 0 00 000017 	SUPERR: ANDI    R1,17
   616	001031'	306 01 0 00 000004 	        CAIN    R1,4
   617	001032'	015 00 0 00 003416'	        ERROR   [ASCIZ '$MASTER PERP SYSTEM UNAVAILABLE- PLEASE REENTER LATER$']
   618	001033'	015 00 0 00 001034'	        ERROR   SYSER
INSERT          3 Nov 1982	MACRO %53B(1156)-1 12:06  8-Mar-85 Page 1-9
INS	MAC	15-Oct-73 17:36

   619	001034'	044 123 131 123 124 	SYSER:: ASCIZ '$SYSTEM ERROR$'
   620	001035'	105 115 040 105 122
   621	001036'	122 117 122 044 000
   622	001037'	015 00 0 00 001034'	SYSERR: ERROR   SYSER
   623					SNMERR:	ERROR	[ASCIZ '$ERROR READING CURRENT SYSTEM NUMBER,
   624					PLEASE RE-ENTER REQUEST WITH CORRECT COMPUTER NUMBER
   625	001040'	015 00 0 00 003431'	OR CALL QUALITY ASSURANCE TO EXPLAIN YOUR PROBLEM$']
   626
   627					;
   628					;       THIS ROUTINE SETS UP R1 FOR CORRECT COMPUTER NUMBER
   629					;	{Historically:}
   630					;
   631					;	   DUPJOB:10 IF USER IS TO RUN ON  SYSTEMS 35 OR 36
   632					;	   DUPJOB:8  IF USER IS TO RUN ON  SYSTEMS 31,32,33,34,37,38,88
   633					;	   DUPJOB:14 IF USER IS IN DISTRICT 30-39, 70-79, 180-199
   634					;	   DUPJOB:2  IF USER IS TYMSHARE
   635					;	   DUPJOB:3  IF USER IS TO RUN ON  AN OVERFLOW SYSTEM
   636					;        ALL IX USERS GO TO SYSTEM 10 except MDSI who go to 20
   637					;
   638					;	Currently, the system number obtained by indexing into the file
   639					;	(SYS)PERP.SYS via the execution system number.  Location 0
   640					;	contains SIXBIT /#PERP#/ for file validation.  If this file is
   641					;	missing, an error message will be generated for both PERP and
   642					;	DEFER.  The entry format for each word is:
   643					;		Byte (9)  <0>, <french>, <tymshare>, <default>
   644					;	   e.g.
   645					;		System 34/  Byte (9)  0, ^D14,  ^D2,  ^D8
   646					;		System 35/  Byte (9)  0, ^D14,  ^D2, ^D10
   647					;		System 70/  Byte (9)  0,  ^D3,  ^D3,  ^D3
   648					;
   649
   650	001041'	332 00 0 00 002002'	GETSNO:	Skipe	SYSBLK			; Anything in SYSBLK?
   651	001042'	254 00 0 00 001054'		  Jrst	GOTSNO			; Yes, Don't need to read file
   652	001043'	041 02 0 00 000017 		INIT	SCHAN,17		; Mode 17
   653	001044'	63 71 63 00 00 00 		Sixbit	/SYS/			; Device 'SYS'
   654	001045'	000000	000000			Exp	0			; No buffer headers
   655	001046'	263 17 0 00 000000 		 POPJ	P,			;  Error Return - SYS not there?
   656	001047'	076 02 0 00 001776'		Lookup	SCHAN,SBLK		; Look for (SYS)PERP.SYS.
   657	001050'	263 17 0 00 000000 		 POPJ	P,			; Error Return - File Not Found?
   658	001051'	066 02 0 00 002402'		Input	SCHAN,SYSLST		; Read the file (Ignore errors).
   659	001052'	070 02 0 00 000000 		Close	SCHAN,			; Once read in, we are done
   660	001053'	071 02 0 00 000000 		Releas	SCHAN,			;  so finish up channel stuff.
   661	001054'	200 01 0 00 003466'	GOTSNO:	Move	R1,[SIXBIT/#PERP#/]	; Make sure we got good data
   662	001055'	312 01 0 00 002002'		Came	R1,SYSBLK		;  by checking first word.
   663	001056'	263 17 0 00 000000 		 POPJ	P,			;  Error Return - Bad file?
   664	001057'	337 02 0 00 000763'		Skipg	R2,CPN			; Get the execution CPU.
   665	001060'	260 17 0 00 001132'		  Pushj	P,GETTHS		; Get my system # since CPN leq 0
   666	001061'	322 02 0 00 001040'		Jumpe	R2,SNMERR		; System number error if 0
   667	001062'	202 02 0 00 000763'		Movem	R2,CPN			; Store for later (might want it)
   668	001063'	336 00 0 02 002002'		Skipn	SYSBLK(R2)		; Check for non-zero data.
   669	001064'	263 17 0 00 000000 		 POPJ	P,			;  Error Return - Incorrect data?
   670	001065'	135 01 0 00 003467'		Ldb	R1,[Point 9,SYSBLK(R2),35] ; Default master system #.
   671	001066'	335 00 0 00 000177'		Skipge	USFLG			; French district?
   672	001067'	135 01 0 00 003470'		  Ldb	R1,[Point 9,SYSBLK(R2),17] ; Yes, use this one instead.
   673	001070'	261 17 0 00 000000 		Push	P,R0			; Save a register
INSERT          3 Nov 1982	MACRO %53B(1156)-1 12:06  8-Mar-85 Page 1-10
INS	MAC	15-Oct-73 17:36

   674	001071'	561 00 0 00 000006 		Hrroi	R0,6			; !GTPRV - privilage word
   675	001072'	047 00 0 00 000041 		Gettab	R0,			; Get priv word.
   676	001073'	400 00 0 00 000000 		 Setz	R0,			;  Clear bits if error
   677	001074'	602 00 0 00 040000 		Trne	R0,40000		; Check Tymshare bit
   678	001075'	135 01 0 00 003471'		  Ldb	R1,[Point 9,SYSBLK(R2),26] ; Yes, use this one instead.
   679	001076'	262 17 0 00 000000 		Pop	P,R0			; Restore register R0
   680	001077'	350 00 0 17 000000 		Aos	(P)			; Set Skip Return
   681	001100'	263 17 0 00 000000 		Popj	P,			; And return
   682
   683	001101'	261 17 0 00 000000 	CNVSNO:	Push	P,R0			; Save a register
   684	001102'	201 00 0 00 003472'		Movei   R0,[Asciz 'DUPJOB:##-;']; Get literal address in R0.
   685	001103'	260 17 0 00 001115'		Pushj	P,SETSNO		; Setup ##...
   686	001104'	201 02 0 00 000055 		Movei	R2,"-"			; Get dash...
   687	001105'	136 02 0 00 000001 		Idpb	R2,R1			; Store it.
   688	001106'	201 02 0 00 000073 		Movei	R2,";"			; Get semi...
   689	001107'	136 02 0 00 000001 		Idpb	R2,R1			; Store it.
   690	001110'	201 02 0 00 000000 		Movei	R2,0			; Null!
   691	001111'	136 02 0 00 000001 		Idpb	R2,R1			; Store it.
   692	001112'	200 01 0 00 000000 		Move	R1,R0			; Copy pointer (nice an' easy)
   693	001113'	262 17 0 00 000000 		Pop	P,R0			; Restore register R0
   694	001114'	263 17 0 00 000000 		Popj	P,			; Return with ASCIZ 'DUPJOB:nn-;'
   695
   696	001115'	231 01 0 00 000012 	SETSNO:	Idivi	R1,^D10			; Simple numeric parse
   697	001116'	506 02 0 17 000000 		Hrlm	R2,(P)			;  depends on "PUSHJ P,SETSNO"
   698	001117'	332 00 0 00 000001 		Skipe	R1			; Done?
   699	001120'	260 17 0 00 001115'		  Pushj	P,SETSNO		;  Not yet...loop
   700	001121'	332 00 0 00 000001 		Skipe	R1			; First time?
   701	001122'	254 00 0 00 001126'		  Jrst	SETSN0			; No... skip a few
   702	001123'	200 01 0 00 003475'		Move	R1,[Point 7,0,13]	; Yes, setup pointer.
   703	001124'	540 01 0 00 000000 		Hrr	R1,R0			; Get String address
   704	001125'	340 01 0 00 000000 		Aoj	R1,			; Increment to right place
   705	001126'	554 02 0 17 000000 	SetSN0:	Hlrz	R2,(P)			; Get number
   706	001127'	201 02 0 02 000060 		Movei	R2,"0"(R2)		; Make ASCII
   707	001130'	136 02 0 00 000001 		Idpb	R2,R1			; Deposit it in string
   708	001131'	263 17 0 00 000000 		Popj	P,			; Return (Loop)
   709
   710	001132'	200 02 0 00 003476'	GETTHS:	Move	R2,[33,,11]		; .CNSYS,,.GTCNF  = %CNSYS
   711	001133'	047 02 0 00 000041 		Gettab	R2,			; Get system Number
   712						  Jrst	[PUSH   P,R1		; Above method fails on P032/Q
   713							 MOVEI  R1,11		; ...So use old method and assume
   714							 GETTAB R1,		;    we will never have a 3-digit
   715							  JFCL			; (Lose really big, some negative #)!
   716							 LDB    R2,[POINT 7,R1,13]
   717							 SUBI   R2,"0"		; system running such an OLD
   718							 IMULI  R2,^D10		; monitor.  /CARL
   719							 LDB    R1,[POINT 7,R1,20]
   720							 ADDI   R2,-"0"(R1)
   721							 POP    P,R1
   722	001134'	254 00 0 00 003501'			 POPJ   P,]		; Done -- doing it the "old" way.
   723	001135'	263 17 0 00 000000 		Popj	P,			; Return with Result in R1
   724
   725
   726	001136'	200 01 0 00 003514'	INIT:   MOVE    R1,[POINT 7,GOMES]
   727	001137'	201 02 0 00 000005 	        MOVEI   R2,5
   728	001140'	504 02 0 00 003144'	        HRL     R2,AUX
INSERT          3 Nov 1982	MACRO %53B(1156)-1 12:06  8-Mar-85 Page 1-11
INS	MAC	15-Oct-73 17:36

   729	001141'	042 02 0 00 000001 	        AUXCAL  R2,R1
   730	001142'	260 17 0 00 001236'	        PUSHJ   P,GCHA
   731	001143'	302 01 0 00 000377 	        CAIE    R1,377
   732	001144'	254 00 0 00 001142'	        JRST    .-2
   733	001145'	400 01 0 00 000000 	ICM:    SETZ    R1,
   734	001146'	202 01 0 00 003160'	        MOVEM   R1,T3
   735	001147'	211 03 0 00 000005 	        MOVNI   R3,5
   736	001150'	350 00 0 00 003160'	        AOS     T3
   737	001151'	201 01 0 00 000003 	        MOVEI   R1,3
   738	001152'	504 01 0 00 003144'	        HRL     R1,AUX
   739	001153'	042 01 0 00 003160'	        AUXCAL  R1,T3
   740	001154'	341 03 0 00 001150'	        AOJL    R3,.-4
   741	001155'	200 01 0 00 003157'	ICM1:   MOVE    R1,T2#
   742	001156'	202 01 0 00 003156'	        MOVEM   R1,T1#
   743	001157'	260 17 0 00 001236'	        PUSHJ   P,GCHA
   744	001160'	200 04 0 00 000001 	        MOVE    CH,R1
   745	001161'	202 04 0 00 003157'	        MOVEM   CH,T2
   746	001162'	274 04 0 00 003156'	        SUB     CH,T1
   747	001163'	302 04 0 00 000001 	        CAIE    CH,1
   748	001164'	254 00 0 00 001155'	        JRST    ICM1
   749	001165'	200 01 0 00 003157'	        MOVE    R1,T2
   750	001166'	202 01 0 00 003156'	ICM2:   MOVEM   R1,T1
   751	001167'	260 17 0 00 001236'	ICM3:   PUSHJ   P,GCHA
   752	001170'	200 04 0 00 000001 	        MOVE    CH,R1
   753	001171'	202 04 0 00 003157'	        MOVEM   CH,T2
   754	001172'	274 04 0 00 003156'	        SUB     CH,T1
   755	001173'	302 04 0 00 000001 	        CAIE    CH,1
   756	001174'	254 00 0 00 001155'	        JRST    ICM1
   757	001175'	200 01 0 00 003157'	        MOVE    R1,T2
   758	001176'	312 01 0 00 003160'	        CAME    R1,T3#
   759	001177'	254 00 0 00 001166'	        JRST    ICM2
   760					;
   761					;       SENC COMMAND WORD
   762					;
   763	001200'	200 01 0 00 003146'	SGCMD:	MOVE    R1,CMD#		; First copy command to send
   764	001201'	260 17 0 00 001207'	SCMD:   PUSHJ   P,SWD
   765	001202'	260 17 0 00 001223'	        PUSHJ   P,GWDA
   766	001203'	312 01 0 00 003146'	        CAME    R1,CMD
   767	001204'	015 00 0 00 001034'	        ERROR   SYSER
   768	001205'	260 17 0 00 001311'	        PUSHJ   P,CLTIM
   769	001206'	263 17 0 00 000000 	        POPJ    P,
   770
   771	001207'	201 02 0 00 000003 	SWD::   MOVEI   R2,3
   772	001210'	504 02 0 00 003144'	        HRL     R2,AUX
   773	001211'	400 00 0 00 000000 	        SETZ    R0,
   774	001212'	246 00 0 00 000024 	        LSHC    R0,24
   775	001213'	042 02 0 00 000000 	        AUXCAL  R2,R0
   776
   777	001214'	400 00 0 00 000000 	        SETZ    R0,
   778	001215'	246 00 0 00 000010 	        LSHC    R0,10
   779	001216'	042 02 0 00 000000 	        AUXCAL  R2,R0
   780
   781	001217'	400 00 0 00 000000 	        SETZ    R0,
   782	001220'	246 00 0 00 000010 	        LSHC    R0,10
   783	001221'	042 02 0 00 000000 	        AUXCAL  R2,R0
INSERT          3 Nov 1982	MACRO %53B(1156)-1 12:06  8-Mar-85 Page 1-12
INS	MAC	15-Oct-73 17:36

   784
   785	001222'	263 17 0 00 000000 	        POPJ    P,
   786
   787	001223'	514 02 0 00 003144'	GWDA::   HRLZ    R2,AUX
   788	001224'	400 00 0 00 000000 	        SETZ    R0,
   789	001225'	260 17 0 00 001236'	        PUSHJ   P,GCHA
   790	001226'	434 00 0 00 000001 	        OR      R0,R1
   791	001227'	242 00 0 00 000010 	        LSH     R0,10
   792	001230'	260 17 0 00 001236'	        PUSHJ   P,GCHA
   793	001231'	434 00 0 00 000001 	        OR      R0,R1
   794	001232'	242 00 0 00 000010 	        LSH     R0,10
   795	001233'	260 17 0 00 001236'	        PUSHJ   P,GCHA
   796	001234'	434 01 0 00 000000 	        OR      R1,R0
   797	001235'	263 17 0 00 000000 	        POPJ    P,
   798
   799	001236'	201 02 0 00 000010 	GCHA:   MOVEI   R2,10
   800	001237'	504 02 0 00 003144'	        HRL     R2,AUX
   801	001240'	541 02 0 00 000002 	        HRRI    R2,2
   802	001241'	042 02 0 00 000001 	        AUXCAL  R2,R1
   803	001242'	015 00 0 00 001034'	        ERROR   SYSER
   804	001243'	263 17 0 00 000000 	        POPJ    P,
   805	001244'	201 02 0 00 001000 	GCHA1:  MOVEI   R2,1000
   806	001245'	047 02 0 00 000031 	        SLEEP   R2,
   807	001246'	254 00 0 00 001236'	        JRST    GCHA
   808	001247'	202 01 0 00 003156'	MVSUB:  MOVEM   R1,T1
   809	001250'	200 01 1 00 003156'	        MOVE    R1,@T1
   810	001251'	332 00 0 00 000001 	        SKIPE   R1
   811	001252'	254 00 0 00 001254'	        JRST    MVSUB1
   812	001253'	015 00 0 00 003515'	        ERROR   [ASCIZ 'INCOMPLETE INPUT DATA']
   813	001254'	260 17 0 00 001207'	MVSUB1: PUSHJ   P,SWD
   814	001255'	350 00 0 00 003156'	        AOS     T1
   815	001256'	200 01 1 00 003156'	        MOVE    R1,@T1
   816	001257'	332 00 0 00 000001 	        SKIPE   R1
   817	001260'	254 00 0 00 001254'	        JRST    MVSUB1
   818	001261'	260 17 0 00 001207'	        PUSHJ   P,SWD
   819	001262'	263 17 0 00 000000 	        POPJ    P,
   820
   821	001263'	201 01 0 00 000467*	SLIST:: MOVEI   R1,LIST
   822	001264'	260 17 0 00 001247'	        PUSHJ   P,MVSUB
   823	001265'	263 17 0 00 000000 	        POPJ    P,
   824
   825	001266'	200 01 0 00 002442'	XRQS::  MOVE    R1,UZ
   826	001267'	242 01 0 00 000014 	        LSH     R1,14
   827	001270'	434 01 0 00 000763'	        OR      R1,CPN
   828	001271'	260 17 0 00 001207'	        PUSHJ   P,SWD
   829	001272'	201 01 0 00 000363'	        MOVEI   R1,NMT
   830	001273'	260 17 0 00 001247'	        PUSHJ   P,MVSUB
   831	001274'	263 17 0 00 000000 	        POPJ    P,
   832	001275'	201 01 0 00 000000 	SETIM:  MOVEI   R1,0
   833	001276'	047 01 0 00 777741 	        SETTIM  R1,
   834	001277'	255 00 0 00 000000 	        JFCL
   835	001300'	201 01 0 00 000006 	        MOVEI   R1,6
   836	001301'	505 01 0 00 000004 	        HRLI    R1,4
   837	001302'	047 01 0 00 777742 	        INTASS  R1,
   838	001303'	255 00 0 00 000000 	        JFCL
INSERT          3 Nov 1982	MACRO %53B(1156)-1 12:06  8-Mar-85 Page 1-13
INS	MAC	15-Oct-73 17:36

   839	001304'	201 01 0 00 000264 	        MOVEI   R1,^D180
   840	001305'	505 01 0 00 000001 	        HRLI    R1,1
   841	001306'	047 01 0 00 777741 	        SETTIM  R1,
   842	001307'	255 00 0 00 000000 	        JFCL
   843	001310'	263 17 0 00 000000 	        POPJ    P,
   844
   845	001311'	201 01 0 00 000000 	CLTIM:  MOVEI   R1,0
   846	001312'	047 01 0 00 777741 	        SETTIM  R1,
   847	001313'	255 00 0 00 000000 	        JFCL
   848	001314'	263 17 0 00 000000 	        POPJ    P,
   849	001315'	015 00 0 00 003522'	TIMOUT:: ERROR  [ASCIZ '$SYSTEM TIMEOUT- TRY AGAIN LATER$']
   850	001316'				GOMES:  ASCIZ /
   851	001316'	015 012 061 107 120 	1GPERP
   852	001317'	105 122 120 015 012 	/
   853	001320'	000 000 000 000 000
   854
   855					;this routine converts a DMIN date (see the 940 BRS manual) to CUBS
   856					;assumes the date is in R1 and returns the CUBS date (in GMT!) in R1
   857
   858	001321'	202 01 0 00 003161'	CUBS:   MOVEM   R1,TEMP#	; save the DMIN date for later
   859	001322'	260 17 0 00 001461'	        PUSHJ   P,GTUZ		; look up user's time zone
   860	001323'	200 03 0 00 002442'	        MOVE    r3,UZ		; put time zone in R3
   861	001324'	200 02 0 00 003161'	        MOVE    R2,TEMP		; get the date we are converting
   862	001325'	626 03 0 00 000040 		trzn	r3,40		; test for DST bit and turn off if on
   863	001326'	254 00 0 00 001334'		jrst	cubs1		; user not subject to DST
   864	001327'	400 01 0 00 000000 	        setz    r1,		; clear r1 to use as an index
   865	001330'	311 02 0 01 001376'		caml	r2,dstab(r1)	; find next day that DST stops
   866	001331'	344 01 0 00 001330'		aoja	r1,.-1
   867	001332'	313 02 0 01 001417'		camle	r2,dstab1(r1)	; see if DST has already started
   868	001333'	350 00 0 00 000003 		aos	r3		; yes, so adjust the time zone by 1
   869	001334'	210 03 0 00 000003 	cubs1:	movn	r3,r3		; get negative of tz
   870	001335'	271 03 0 00 000020 		addi	r3,20		; and make it the offset to GMT
   871	001336'	221 03 0 00 000074 		imuli	r3,^d60		; convert it to minutes
   872	001337'	202 03 0 00 003166'		movem	r3,zmin#	; and save the correction for later
   873	001340'	400 01 0 00 000000 		setz	r1,		; clear r1 before shifting
   874	001341'	246 01 0 00 000020 		lshc	r1,^d16		; right-justify year field in r1
   875	001342'	246 02 0 00 777740 		lshc	r2,-^d32	; right-justify month field in r2
   876	001343'	242 03 0 00 777754 		lsh	r3,-^d20	; right-justify minutes of month in r3
   877	001344'	272 03 0 00 003166'		addm	r3,zmin		; add the offset to GMT
   878	001345'	200 03 0 02 001362'		move	r3,zak(r2)	; fetch no. of days since begin of year
   879	001346'	270 03 0 01 001440'		add	r3,yrday(r1)	; add in no. of days UP TO begin of year
   880	001347'	602 01 0 00 000003 		trne	r1,3		; test for leap year
   881	001350'	254 00 0 00 001353'		jrst	cubs2		; no leap year fix needed
   882	001351'	602 02 0 00 000016 		trne	r2,16		; skip if mon < 2 (i.e., Jan or Feb)
   883	001352'	350 00 0 00 000003 		aos	r3		; add a day for leap year
   884	001353'	275 03 0 00 000073 	cubs2:	subi	r3,^d59		; make it days since Feb 29, 1972
   885	001354'	221 03 0 00 002640 		imuli	r3,^d1440	; convert days to minutes
   886	001355'	200 01 0 00 000003 		move	r1,r3		; use r1 so as not to zap r4 with ASHC
   887	001356'	270 01 0 00 003166'		add	r1,zmin		; add minutes since 1st of month
   888	001357'	224 01 0 00 003531'		mul	r1,[^d234375]	; 1st part of conversion to CUBS
   889	001360'	244 01 0 00 000022 		ashc	r1,^d18		; finish conversion
   890	001361'	263 17 0 00 000000 		popj	p,
   891
   892					; Zak is the number of days from beginning of year to begin of month
   893
INSERT          3 Nov 1982	MACRO %53B(1156)-1 12:06  8-Mar-85 Page 1-14
INS	MAC	15-Oct-73 17:36

   894	001362'	000000	000000		zak:	DEC	  0		; Jan
   895	001363'	000000	000037			DEC	 31		; Feb
   896	001364'	000000	000073			DEC	 59		; Mar
   897	001365'	000000	000132			DEC	 90		; April
   898	001366'	000000	000170			DEC	120		; May
   899	001367'	000000	000227			DEC	151		; June
   900	001370'	000000	000265			DEC	181		; July
   901	001371'	000000	000324			DEC	212		; Aug
   902	001372'	000000	000363			DEC	243		; Sep
   903	001373'	000000	000421			DEC	273		; Oct
   904	001374'	000000	000460			DEC	304		; Nov
   905	001375'	000000	000516			DEC	334		; Dec
   906
   907					; DsTab gives the DMIN date for END of daylight savings time figured
   908					; 	as 1 AM of last Sunday in October of the indicated year.
   909
   910	001376'	000002	316674		DSTAB:	EXP	   2316674	; 29 OCT 72
   911	001377'	000006	314034			EXP	   6314034	; 28 OCT 73
   912	001400'	000012	311174			EXP	  12311174	; 27 OCT 74
   913	001401'	000016	306334			EXP	  16306334	; 26 OCT 75
   914	001402'	000022	324374			EXP	  22324374	; 31 OCT 76
   915	001403'	000026	321534			EXP	  26321534	; 30 OCT 77
   916	001404'	000032	316674			EXP	  32316674	; 29 OCT 78
   917	001405'	000036	314034			EXP	  36314034	; 28 OCT 79
   918	001406'	000042	306334			EXP	  42306334	; 26 OCT 80
   919	001407'	000046	303474			EXP	  46303474	; 25 OCT 81
   920	001410'	000052	324374			EXP	  52324374	; 31 OCT 82
   921	001411'	000056	321534			EXP	  56321534	; 30 OCT 83
   922	001412'	000062	314034			EXP	  62314034	; 28 OCT 84
   923	001413'	000066	311174			EXP	  66311174	; 27 OCT 85
   924	001414'	000072	306334			EXP	  72306334	; 26 OCT 86
   925	001415'	000076	303474			EXP	  76303474	; 25 OCT 87
   926	001416'	003777	777777			EXP	3777777777	; dummy entry to indicate end of table
   927
   928					; DsTab1 gives the DMIN date for START of daylight savings time figured
   929					;	 as 2 AM of last Sunday in April of the indicated year.
   930
   931	001417'	000000	721630		DSTAB1: EXP	  721630	; 30 APR 72
   932	001420'	000004	716770			EXP	 4716770	; 29 APR 73
   933	001421'	000010	016230		 	EXP	10016230	;  6 JAN 74 (special date this year)
   934	001422'	000014	276070		 	EXP	14276070	; 23 FEB 75 (again a special date)
   935	001423'	000020	703570		 	EXP	20703570	; 25 APR 76 (no special law this year)
   936	001424'	000024	700730		 	EXP	24700730	; 24 APR 77
   937	001425'	000030	721630		  	EXP	30721630	; 30 APR 78
   938	001426'	000034	716770			EXP	34716770	; 29 APR 79
   939	001427'	000040	711270			EXP	40711270	; 27 APR 80
   940	001430'	000044	706430			EXP	44706430	; 26 APR 81
   941	001431'	000050	703570			EXP	50703570	; 25 APR 82
   942	001432'	000054	700730			EXP	54700730	; 24 APR 83
   943	001433'	000060	716770			EXP	60716770	; 29 APR 84
   944	001434'	000064	714130			EXP	64714130	; 28 APR 85
   945	001435'	000070	711270			EXP	70711270	; 27 APR 86
   946	001436'	000074	706430			EXP	74706430	; 26 APR 87
   947	001437'	003777	777777			EXP	3777777777	; dummy entry to indicate end of table
   948
INSERT          3 Nov 1982	MACRO %53B(1156)-1 12:06  8-Mar-85 Page 1-15
INS	MAC	15-Oct-73 17:36

   949					; the following table gives no. of days up to BEGINNING of the year
   950
   951	001440'	000000	000000		YrDay:	DEC	   0		;1972
   952	001441'	000000	000556			DEC	 366		;1973
   953	001442'	000000	001333			DEC	 731		;1974
   954	001443'	000000	002110			DEC	1096		;1975
   955	001444'	000000	002665			DEC	1461		;1976
   956	001445'	000000	003443			DEC	1827		;1977
   957	001446'	000000	004220			DEC	2192		;1978
   958	001447'	000000	004775			DEC	2557		;1979
   959	001450'	000000	005552			DEC	2922		;1980
   960	001451'	000000	006330			DEC	3288		;1981
   961	001452'	000000	007105			DEC	3653		;1982
   962	001453'	000000	007662			DEC	4018		;1983
   963	001454'	000000	010437			DEC	4383		;1984
   964	001455'	000000	011215			DEC	4749		;1985
   965	001456'	000000	011772			DEC	5114		;1986
   966	001457'	000000	012547			DEC	5479		;1987
   967	001460'	000000	000000			DEC	   0		; Obvious error if 1972!
   968
   969	001461'	200 01 0 00 003532'	GTUZ::  MOVE    R1,[XWD -1,-23] ;12/26/76 CLC
   970	001462'	047 01 0 00 000041 	        GETTAB  R1,
   971	001463'	255 00 0 00 000000 	        JFCL
   972	001464'	202 01 0 00 003143'	        MOVEM   R1,AUN#
   973	001465'	200 01 0 00 003265'	        MOVE    R1,[XWD -1,-22]
   974	001466'	047 01 0 00 000041 	        GETTAB  R1,
   975	001467'	255 00 0 00 000000 	        JFCL
   976	001470'	202 01 0 00 003163'	        MOVEM   R1,UN1#
   977	001471'	200 02 0 00 003266'	        MOVE    R2,[XWD -1,-21]
   978	001472'	047 02 0 00 000041 	        GETTAB  R2,
   979	001473'	255 00 0 00 000000 	        JFCL
   980	001474'	202 02 0 00 003164'	        MOVEM   R2,UN2#
   981	001475'	260 17 0 00 002404'	        PUSHJ   P,HASH          ;GET THE HASH FUNCTION
   982	001476'	202 01 0 00 003152'	        MOVEM   R1,HNAME#
   983	001477'	202 02 0 00 003145'	        MOVEM   R2,BLK#
   984	001500'	041 01 0 00 000017 	        INIT    LCHAN,17
   985	001501'	63 71 63 00 00 00 	        SIXBIT/SYS/
   986	001502'	000000	000000		        0
   987	001503'	254 00 0 00 001567'	        JRST    ERR
   988	001504'	076 01 0 00 001570'	        LOOKUP  LCHAN,LBLK
   989	001505'	254 00 0 00 001567'	        JRST    ERR
   990	001506'	074 01 1 00 003145'	RDLD:   USETI   LCHAN,@BLK          ;POSITION
   991	001507'	066 01 0 00 001774'	        INPUT   LCHAN,LUDLST
   992	001510'	400 01 0 00 000000 	        SETZ    R1,
   993	001511'	200 02 0 00 003143'	        MOVE    R2,AUN
   994	001512'	316 02 0 01 001574'	LOP:     CAMN    R2,LUDBLK(R1)
   995	001513'	254 00 0 00 001527'	        JRST    FOUND
   996	001514'	336 00 0 01 001574'	        SKIPN   LUDBLK(R1)
   997	001515'	254 00 0 00 001567'	        JRST    ERR
   998	001516'	337 00 0 01 001574'	        SKIPG   LUDBLK(R1)
   999	001517'	254 00 0 00 001524'	        JRST    OVFL
  1000	001520'	200 03 0 01 001576'	        MOVE    R3,LUDBLK+2(R1)
  1001	001521'	405 03 0 00 000177 	        ANDI    R3,177
  1002	001522'	270 01 0 00 000003 	        ADD     R1,R3
  1003	001523'	254 00 0 00 001512'	        JRST    LOP
INSERT          3 Nov 1982	MACRO %53B(1156)-1 12:06  8-Mar-85 Page 1-16
INS	MAC	15-Oct-73 17:36

  1004	001524'	550 02 0 01 001574'	OVFL:   HRRZ    R2,LUDBLK(R1)
  1005	001525'	202 02 0 00 003145'	        MOVEM   R2,BLK
  1006	001526'	254 00 0 00 001506'	        JRST    RDLD
  1007	001527'	200 02 0 00 000001 	FOUND:  MOVE    R2,R1
  1008	001530'	204 01 0 01 001577'	        MOVS    R1,LUDBLK+3(R1)
  1009	001531'	242 01 0 00 777766 	        LSH     R1,-12
  1010	001532'	405 01 0 00 000077 	        ANDI    R1,77
  1011	001533'	332 00 0 00 000177'	        SKIPE   USFLG
  1012	001534'	254 00 0 00 001537'	        JRST    FOU1
  1013	001535'	332 00 0 00 003147'	        SKIPE   DFRSW   ;DEFER?
  1014	001536'	254 00 0 00 001540'	        JRST    PSTSET
  1015	001537'	336 00 0 00 000001 	FOU1:   SKIPN   R1
  1016	001540'	201 01 0 00 000050 	PSTSET:: MOVEI   R1,50
  1017	001541'	202 01 0 00 002442'	        MOVEM   R1,UZ
  1018	001542'	070 01 0 00 000000 	        CLOSE   LCHAN,
  1019	001543'	071 01 0 00 000000 	        RELEASE LCHAN,
  1020	001544'	200 02 0 02 001575'	        MOVE    R2,LUDBLK+1(R2)
  1021	001545'	202 02 0 00 003150'	        MOVEM   R2,DISTNO#
  1022	001546'	307 02 0 00 000035 	        CAIG    R2,^D29         ; CHECK FOR BELGIUM
  1023	001547'	254 00 0 00 001564'	        JRST    US
  1024	001550'	307 02 0 00 000047 	        CAIG    R2,^D39         ; CHECK FOR BELGIUM
  1025	001551'	254 00 0 00 001562'	        JRST    P14             ; AREA 3 IS FOREIGN
  1026	001552'	307 02 0 00 000105 	        CAIG    R2,^D69
  1027	001553'	254 00 0 00 001564'	        JRST    US
  1028	001554'	307 02 0 00 000117 	        CAIG    R2,^D79
  1029	001555'	254 00 0 00 001562'	        JRST    P14
  1030	001556'	305 02 0 00 000264 	        CAIGE   R2,^D180
  1031	001557'	254 00 0 00 001564'	        JRST    US
  1032	001560'	301 02 0 00 000310 	        CAIL    R2,^D200
  1033	001561'	254 00 0 00 001564'	        JRST    US
  1034	001562'	476 00 0 00 000177'	P14:    SETOM   USFLG
  1035	001563'	263 17 0 00 000000 	        POPJ    P,
  1036	001564'	402 00 0 00 000177'	US:     SETZM   USFLG
  1037	001565'	263 17 0 00 000000 	        POPJ    P,
  1038	001566'	263 17 0 00 000000 	        POPJ    P,
  1039					ERR:    ERROR   [ASCIZ 'TROUBLE IN READING TIME ZONE
  1040	001567'	015 00 0 00 003533'	        CALL QUALITY ASSURANCE']
  1041	001570'	54 65 44 00 00 00 	LBLK:   SIXBIT/LUD/
  1042	001571'	63 71 63 00 00 00 	        SIXBIT/SYS/
  1043	001572'	000000	000000		        0
  1044	001573'	000000	000000		        0
  1045	001574'				LUDBLK: BLOCK   200
  1046	001774'	777600	001573'		LUDLST: IOWD    200,LUDBLK
  1047	001775'	000000	000000		        0
  1048
  1049	001776'	60 45 62 60 00 00 	SBLK:	SIXBIT	/PERP/
  1050	001777'	63 71 63 00 00 00 		SIXBIT	/SYS/
  1051	002000'	000000	000000			0
  1052	002001'	000000	000000			0
  1053	002002'				SYSBLK:	BLOCK	^D256
  1054	002402'	777400	002001'		SYSLST:	IOWD	^D256,SYSBLK
  1055	002403'	000000	000000			0
  1056
  1057	002404'	201 06 0 00 000000 	HASH:   MOVEI   6,0
  1058	002405'	200 03 0 00 003550'	        MOVE    3,[555555555555]
INSERT          3 Nov 1982	MACRO %53B(1156)-1 12:06  8-Mar-85 Page 1-17
INS	MAC	15-Oct-73 17:36

  1059	002406'	200 04 0 00 003551'	        MOVE    4,[361275431652]
  1060	002407'	200 05 0 00 003552'	        MOVE    5,[612754316523]
  1061	002410'	260 17 0 00 002424'	        PUSHJ   P,RND
  1062	002411'	260 17 0 00 002424'	        PUSHJ   P,RND
  1063	002412'	260 17 0 00 002424'	        PUSHJ   P,RND
  1064	002413'	260 17 0 00 002424'	        PUSHJ   P,RND
  1065	002414'	430 05 0 00 000004 	        XOR     5,4
  1066	002415'	200 01 0 00 000005 	        MOVE    R1,5
  1067	002416'	621 01 0 00 400000 	        TLZ     R1,400000
  1068	002417'	231 01 0 00 001567 	        IDIVI   R1,^D887
  1069	002420'	271 02 0 00 000001 	        ADDI    R2,1
  1070	002421'	430 03 0 00 000005 	        XOR     3,5
  1071	002422'	200 01 0 00 000003 	        MOVE    R1,3
  1072	002423'	263 17 0 00 000000 	        POPJ    P,
  1073
  1074	002424'	270 04 0 00 000001 	RND:    ADD     4,R1
  1075	002425'	245 01 0 00 777756 	        ROTC    R1,-22
  1076	002426'	201 07 0 00 000005 	        MOVEI   7,5
  1077	002427'	200 10 0 06 000004 	RND1:   MOVE    10,4(6)
  1078	002430'	224 10 0 00 003553'	        MUL     10,[5*5*5*5*5*5*5*5*5*5*5*5*5*5*5]
  1079	002431'	272 11 0 06 000005 	        ADDM    11,5(6)
  1080	002432'	342 06 0 00 002440'	        AOJE    6,RND2
  1081	002433'	211 06 0 00 000001 	        MOVNI   6,1
  1082	002434'	602 04 0 00 000001 	        TRNE 4,1
  1083	002435'	331 00 0 00 000005 	        SKIPL   5
  1084	002436'	201 06 0 00 000000 	        MOVEI   6,0
  1085	002437'	250 03 0 00 000005 	        EXCH    3,5
  1086	002440'	367 07 0 00 002427'	RND2:   SOJG    7,RND1
  1087	002441'	263 17 0 00 000000 	        POPJ    P,
  1088	002442'	000 00 0 00 000000 	UZ::    Z
  1089	002443'				DOBUFF: BLOCK   500
  1090					        END

NO ERRORS DETECTED

PROGRAM BREAK IS 003554
CPU TIME USED 04:52.493

12P CORE USED
INSERT          3 Nov 1982	MACRO %53B(1156)-1 12:06  8-Mar-85 Page S-1
INS	MAC	15-Oct-73 17:36		SYMBOL TABLE

AL		000001		FOU1		001537'		NMT		000363'	int	SC2		000660'
ANY		000071'	int	FOUND		001527'		NOT		000062'	int	SC3		000651'
AS		000006		GCD	005000	000000		NU		000002		SCHAN		000002	spd
AT		000010		GCHA		001236'		NUMBER		000057'	ext	SCMD		001201'
AUN		003143'		GCHA1		001244'		NXD		000752'	int	SETIM		001275'
AUX		003144'		GCI	004000	000000		OMPS		000764'		SETSN0		001126'
BARROW		000137		GET		000460'	int	OPCH		000765'	int	SETSNO		001115'
BLK		003145'		GETSNO		001041'		OPCHER		001016'		SETTIM	047000	777741
CDISP		000746'	ext	GETTAB	047000	000041		OVFL		001524'		SETTTY	014000	000000
CH		000004	spd	GETTHS		001132'		P		000017		SGCMD		001200'
CHARC		000020		GNX		000415'		P14		001562'		SHI		000703'
CLRBFI	051440	000000		GNX0		000414'		PBNDT		000671'	ext	SKIPRT		000561'
CLRIN	013000	000000		GNX1		000442'		PCH		000563'		SLEEP	047000	000031
CLTIM		001311'		GNX2		000453'		PDMDT		000633'		SLIST		001263'	int
CMD		003146'		GNX3		000450'		PO		000014		SLOW		000706'
CNVSNO		001101'		GNX4		000456'		PRD2N		000700'	ext	SNMERR		001040'
CO		000011		GNXD		000404'		PRDNUM		000675'	ext	SNOERR		000767'
CO0		000260'		GOMES		001316'		PSTSET		001540'	int	SP		000013
CO1		000261'		GOTSNO		001054'		PU		000016		SPACE		000040
CO2		000270'		GTUZ		001461'	int	PWD		000550'		SSKE	020000	000000
COM1		000267'		GUSNM		000312'	int	QQ		000005		STATUS		000617'	int
COM2		000276'		GWD		000035'	ext	QU		000015		SUPERR		001030'
COMCHR		000054		GWDA		001223'	int	R0		000000		SUSNM		000571'
COMMA		000054		HASH		002404'		R1		000001		SUSNM1		000605'
CPN		000763'	int	HNAME		003152'		R2		000002		SWD		001207'	int
CRCHR		000015		HRS		003153'		R3		000003		SYSBLK		002002'
CREAUX	047000	777734		I		000010		RDDNUM		000220'	ext	SYSER		001034'	int
CT		000007	spd	IC		000000		RDLD		001506'		SYSERR		001037'
CUBS		001321'		ICM		001145'		RDLINE	003000	000000		SYSLST		002402'
CUBS1		001334'		ICM1		001155'		REG		000411'		T1		003156'
CUBS2		001353'		ICM2		001166'		RERR		000627'		T2		003157'
DA		000017		ICM3		001167'		RND		002424'		T3		003160'
DCR	011000	000000		IG		000004		RND1		002427'		TAB	021000	000000
DELETE		000734'	int	INIT		001136'		RND2		002440'		TAFTER		000072'	int
DFRD		000075'	int	INS		000000'	int	RNERM		000103'		TBEFR		000066'	int
DFRSW		003147'	int	INS1		000201'		RP		000003		TCI	001000	000000
DISABL	017000	000000		INTASS	047000	777742		RQ		000200'		TCL	002000	000000
DISTNO		003150'		LASTDT		000000	ext	RQE		000347'		TCO	010000	000000
DOBUFF		002443'		LBLK		001570'		RQRE		000352'		TE		000012
DOLIST		000477'	int	LCHAN		000001	spd	RQS		000216'	int	TEMP		003161'
DOTCHR		000056		LEN1		000524'		RQS1		000256'		TIMOUT		001315'	int
DS0		000417'	ext	LEN2		000532'		RQS2		000303'		TMWD		003162'
DSTAB		001376'		LFCHR		000012		RT		000002'		TT		000037'	ext
DSTAB1		001417'		LIST		001263'	ext	RT0		000014'		TYPE	012000	000000
DSTD		000711'		LKUP		000040'	ext	RT00		000004'		UN1		003163'
DSX		000416'	ext	LOP		001512'		RTER		000101'	int	UN2		003164'
DY		000751'	int	LP		000013	spd	RTN		000015'		US		001564'
ENABLE	016000	000000		LUDBLK		001574'		RTN1		000033'		USFLG		000177'
EOLIT		000000	spd	LUDLST		001774'		RTN2		000050'		UZ		002442'	int
ER		001020'		MIN		003154'		RTNER		000171'		VERPAT		000026	spd
ERR		001567'		MN		000750'	int	RTNER1		000173'		VERSIO		000007	spd
ERROR	015000	000000		MVSUB		001247'		RTNER2		000175'		WCD	007000	000000
ETAD		003151'		MVSUB1		001254'		SBLK		001776'		WCHI		000355'
EX		000007		NCOUNT		003155'		SC		000667'		WCI	006000	000000
FDMN		000424'	ext	NMP		000403'		SC1		000657'		X		000021	spd
INSERT          3 Nov 1982	MACRO %53B(1156)-1 12:06  8-Mar-85 Page S-2
INS	MAC	15-Oct-73 17:36		SYMBOL TABLE

XDOLR		000517'
XGET1		000471'
XINS1		000212'
XPOS		003165'
XRQS		001266'	int
YR		000747'	int
YRDAY		001440'
ZAK		001362'
ZAPCIR	047000	777733
ZMIN		003166'
.DEL		000757'	int
.EJB		000754'	int
.GET		000756'	int
.INS		000753'
.LIS		000760'	int
.NJB		000761'	int
.STA		000755'	int
.STAR		000762'	int


INSERT          3 Nov 1982	MACRO %53B(1156)-1 12:06  8-Mar-85 Page 1
COM	MAC	15-Oct-73 17:37


Symbol cross reference

AL	    68#
ANY	   130#
AS	    68#
AT	    68#
AUN	   972#	   972	   993
AUX	   449	   583	   588	   590	   599#	   599	   601	   728	   738	   772	   787	   800
BARROW	    24#
BLK	   983#	   983	   990	  1005
CDISP	   215	   380	   405	   411	   481	   563
CH	     9#	   221	   229	   234	   239	   242	   253	   259	   266	   744	   745	   746	   747	   752
	   753	   754	   755
CHARC	    68#	    68
CLTIM	   768	   845#
CMD	   579	   763#	   763	   766
CNVSNO	   596	   683#
CO	    68#
CO0	   252#	   257
CO1	   253#	   255
CO2	   258	   260#
COM1	   259#	   270
COM2	   263	   266#
COMCHR	    19#
COMMA	    72#	   419
CPN	   226	   577#	   664	   667	   827
CRCHR	    21#	   221	   443	   480
CT	    10#	    90	   109	   229	   230	   239	   240	   253	   254	   256	   259	   260	   262
CUBS	   351	   858#
CUBS1	   863	   869#
CUBS2	   881	   884#
DA	    68#	    90	   109
DELETE	   553#
DFRD	   134#
DFRSW	   136	   137#	   137	   325	  1013
DISTNO	  1021#	  1021
DOBUFF	   389	   401	  1089#
DOLIST	   385#
DOTCHR	    18#
DS0	   335
DSTAB	   865	   910#
DSTAB1	   867	   931#
DSTD	   497	   500	   533#
DSX	   334
DY	   341	   567#
EOLIT	    23#
ER	   606	   607#
ERR	   987	   989	   997	  1039#
ETAD	   490#	   490	   493	   512	   524	   527
EX	    68#
FDMN	   340
FOU1	  1012	  1015#
INSERT          3 Nov 1982	MACRO %53B(1156)-1 12:06  8-Mar-85 Page 1
COM	MAC	15-Oct-73 17:37


Symbol cross reference

FOUND	   995	  1007#
GCHA	   730	   743	   751	   789	   792	   795	   799#	   807
GCHA1	   805#
GET	   369#
GETSNO	   580	   593	   650#
GETTHS	   665	   710#
GNX	   328	   333#	   362
GNX0	   332#	   359	   365
GNX1	   331	   354#
GNX2	   355	   363#
GNX3	   360#	   364	   367
GNX4	   357	   366#
GNXD	   203	   324#
GOMES	   726	   850#
GOTSNO	   651	   661#
GTUZ	   324	   491	   859	   969#
GUSNM	   227	   278#	   385
GWD	    77	   102
GWDA	   212	   373	   382	   391	   398	   474	   557	   765	   787#
HASH	   981	  1057#
HNAME	   982#	   982
HRS	   487#	   487	   505	   506	   511	   516
I	    11#	   286	   315	   316	   317	   319
IC	    68#
ICM	   733#
ICM1	   741#	   748	   756
ICM2	   750#	   759
ICM3	   751#
IG	    68#
INIT	   604	   726#
INS	    73#
INS1	   203#
LASTDT	   338
LBLK	   988	  1041#
LCHAN	    15#	   984	   988	   990	   991	  1018	  1019
LEN1	   403	   406#	   426
LEN2	   409	   412#
LFCHR	    20#
LIST	    73	   376	   821
LKUP	    80	   105
LOCHSW	   218
LOP	   994#	  1003
LP	    12#
LUDBLK	   994	   996	   998	  1000	  1004	  1008	  1020	  1045#	  1046
LUDLST	   991	  1046#
MIN	   488#	   488	   519
MN	   345	   566#
MVSUB	   808#	   822	   830
MVSUB1	   811	   813#	   817
NCOUNT	   289	   295#	   295	   304	   447	   457	   459	   467
INSERT          3 Nov 1982	MACRO %53B(1156)-1 12:06  8-Mar-85 Page 1
COM	MAC	15-Oct-73 17:37


Symbol cross reference

NMP	   286	   322#
NMT	   321#	   322	   829
NOT	   123#
NU	    68#
NUMBER	    83	    86	    92	   101	   107	   113	   120
NXD	   208	   333	   344	   347	   350	   352	   568#
OMPS	   578#	   584	   595
OPCH	   205	   371	   387	   472	   555	   579#
OPCHER	   598	   605#
OVFL	   999	  1004#
P	    13#	    77	    80	    82	   102	   105	   202	   203	   205	   207	   209	   210	   211	   212
	   220	   227	   233	   237	   245	   251	   269	   272	   275	   277	   293	   294	   302	   303
	   306	   320	   324	   351	   353	   369	   371	   372	   373	   382	   385	   387	   388	   391
	   398	   412	   418	   424	   430	   433	   436	   437	   438	   444	   445	   460	   465	   470
	   472	   473	   474	   479	   491	   513	   517	   520	   522	   553	   555	   556	   557	   580
	   592	   593	   596	   655	   657	   663	   665	   669	   673	   679	   680	   681	   683	   685
	   693	   694	   697	   699	   705	   708	   712	   721	   722	   723	   730	   743	   751	   764
	   765	   768	   769	   785	   789	   792	   795	   797	   804	   813	   818	   819	   822	   823
	   828	   830	   831	   843	   848	   859	   890	   981	  1035	  1037	  1038	  1061	  1062	  1063
	  1064	  1072	  1087
P14	  1025	  1029	  1034#
PBNDT	   513
PCH	   430	   433	   436	   440#
PDMDT	   412	   479	   482#
PO	    68#
PRD2N	   520
PRDNUM	   418	   517
PSTSET	  1014	  1016#
PU	    68#
PWD	   424	   428#
QQ	    68#
QU	    68#
R0	     5#	   217	   223	   224	   226	   232	   234	   235	   236	   242	   243	   244	   250	   266
	   267	   268	   271	   274	   290	   291	   292	   299	   300	   301	   315	   415	   417	   428
	   429	   432	   435	   440	   441	   442	   443	   452	   453	   454	   456	   462	   463	   464
	   466	   516	   519	   673	   674	   675	   676	   677	   679	   683	   684	   692	   693	   703
	   773	   774	   775	   777	   778	   779	   781	   782	   783	   788	   790	   791	   793	   794
	   796
R1	     6#	    86	    87	    88	    92	    93	    94	    95	    96	    98	    99	   100	   101	   104
	   113	   114	   115	   117	   118	   120	   121	   123	   124	   125	   127	   128	   131	   132
	   134	   135	   204	   206	   208	   213	   278	   279	   281	   282	   283	   285	   287	   298
	   327	   329	   330	   332	   333	   336	   338	   341	   342	   343	   344	   345	   346	   347
	   348	   349	   350	   352	   354	   356	   358	   360	   361	   363	   366	   370	   374	   378
	   379	   386	   389	   390	   392	   394	   396	   397	   399	   401	   402	   406	   407	   408
	   421	   447	   450	   451	   461	   471	   475	   477	   492	   494	   503	   504	   505	   512
	   554	   558	   560	   579	   584	   587	   589	   595	   597	   599	   600	   601	   602	   603
	   605	   615	   616	   661	   662	   670	   672	   678	   687	   689	   691	   692	   696	   698
	   700	   702	   703	   704	   707	   712	   713	   714	   716	   719	   720	   721	   726	   729
	   731	   733	   734	   737	   738	   739	   741	   742	   744	   749	   750	   752	   757	   758
	   763	   766	   790	   793	   796	   802	   808	   809	   810	   815	   816	   821	   825	   826
INSERT          3 Nov 1982	MACRO %53B(1156)-1 12:06  8-Mar-85 Page 1
COM	MAC	15-Oct-73 17:37


Symbol cross reference

	   827	   829	   832	   833	   835	   836	   837	   839	   840	   841	   845	   846	   858	   864	   865
	   866	   867	   873	   874	   879	   880	   886	   887	   888	   889	   969	   970	   972	   973
	   974	   976	   982	   992	   994	   996	   998	  1000	  1002	  1004	  1007	  1008	  1009	  1010
	  1015	  1016	  1017	  1066	  1067	  1068	  1071	  1074	  1075
R2	     7#	   317	   318	   376	   377	   448	   449	   450	   456	   466	   493	   500	   506	   507
	   509	   511	   523	   526	   605	   606	   664	   666	   667	   668	   670	   672	   678	   686
	   687	   688	   689	   690	   691	   697	   705	   706	   707	   710	   711	   716	   717	   718
	   720	   727	   728	   729	   771	   772	   775	   779	   783	   787	   799	   800	   801	   802
	   805	   806	   861	   865	   867	   875	   878	   882	   977	   978	   980	   983	   993	   994
	  1004	  1005	  1007	  1020	  1021	  1022	  1024	  1026	  1028	  1030	  1032	  1069
R3	     8#	    82	   238	   246	   273	   276	   288	   296	   297	   305	   496	   497	   499	   500
	   735	   740	   860	   862	   868	   869	   870	   871	   872	   876	   877	   878	   879	   883
	   884	   885	   886	  1000	  1001	  1002
RDDNUM	   220
RDLD	   990#	  1006
REG	   326	   329#
RERR	   375	   478#	   559
RND	  1061	  1062	  1063	  1064	  1074#
RND1	  1077#	  1086
RND2	  1080	  1086#
RNERM	   139	   141#
RP	    68#
RQ	    85	   202#
RQE	   222	   307#
RQRE	   225	   310#
RQS	   202	   217#	   249	   309	   313	   369	   470	   553
RQS1	   231	   241	   250#
RQS2	   261	   265	   271#
RT	    75#	   112	   140	   196	   198	   200
RT0	    85#	   122	   130	   138
RT00	    77#	   126
RTER	   106	   139#
RTN	    84	    86#
RTN1	   100#	   129	   133
RTN2	    91	   110	   113#
RTNER	    89	   116	   195#
RTNER1	    97	   119	   197#
RTNER2	   108	   199#
SBLK	   656	  1049#
SC	   511#	   525	   528
SC1	   498	   503#
SC2	   495	   501	   504#
SC3	   497#	   502
SCHAN	    16#	   652	   656	   658	   659	   660
SCMD	   764#
SETIM	   592	   832#
SETSN0	   701	   705#
SETSNO	   685	   696#	   699
SGCMD	   586	   763#
SHI	   510	   523#
INSERT          3 Nov 1982	MACRO %53B(1156)-1 12:06  8-Mar-85 Page 1
COM	MAC	15-Oct-73 17:37


Symbol cross reference

SKIPRT	   431	   434	   437#
SLIST	   211	   821#
SLOW	   508	   526#
SNMERR	   623#	   666
SNOERR	   581#	   594
SP	    68#	   254	   262
SPACE	    22#	   420	   514	   515
STATUS	   470#
SUPERR	   607	   615#
SUSNM	   388	   447#
SUSNM1	   455	   459#
SWD	   207	   209	   764	   771#	   813	   818	   828
SYSBLK	   650	   662	   668	   670	   672	   678	  1053#	  1054
SYSER	   400	   476	   561	   608	   609	   612	   613	   614	   618	   619#	   622	   767	   803
SYSERR	   622#
SYSLST	   658	  1054#
T1	    94#	    94	    98	   397	   402	   742#	   742	   746	   750	   754	   808	   809	   814	   815
T2	   377#	   377	   378	   381	   390	   392	   393	   396	   741#	   741	   745	   749	   753	   757
T3	   734	   736	   739	   758#	   758
TAFTER	   131#
TBEFR	   127#
TE	    68#	   230	   240	   256	   260
TEMP	   858#	   858	   861
TIMOUT	   849#
TMWD	    75	    95#	    95	   100	   117	   121	   123	   125	   127	   131	   135	   206	   329
TT	    79	   104
UN1	   281#	   281	   287	   451	   976#	   976
UN2	   285#	   285	   298	   461	   980#	   980
US	  1023	  1027	  1031	  1033	  1036#
USFLG	   201#	   671	  1011	  1034	  1036
UUOFLG	    26	    31	    32	    33	    34	    35	    36	    37	    38	    39	    40	    41	    42	    43
	    44	    45	    46	    47
UZ	   492	   825	   860	  1017	  1088#
VERPAT	     3#
VERSIO	     2#
WCHI	   233	   237	   245	   251	   269	   272	   275	   294	   303	   315#
X	    30#	    31	    31#	    32	    32#	    33	    33#	    34	    34#	    35	    35#	    36	    36#	    37
	    37#	    38	    38#	    39	    39#	    40	    40#	    41	    41#	    42	    42#	    43	    43#	    44
	    44#	    45	    45#	    46	    46#	    47	    47#
XDOLR	   401#
XGET1	   378#	   383
XINS1	   212#
XPOS	   406#	   406	   407	   414	   415	   416	   421	   423
XRQS	   210	   372	   473	   556	   825#
YR	   348	   565#
YRDAY	   879	   951#
ZAK	   878	   894#
ZMIN	   872#	   872	   877	   887
.DEL	   554	   573#
.EJB	   213	   399	   560	   570#
INSERT          3 Nov 1982	MACRO %53B(1156)-1 12:06  8-Mar-85 Page 1
COM	MAC	15-Oct-73 17:37


Symbol cross reference

.GET	   370	   572#
.INS	   204	   569#
.LIS	   386	   574#
.NJB	   374	   477	   558	   575#
.STA	   471	   571#
.STAR	   475	   576#
INSERT          3 Nov 1982	MACRO %53B(1156)-1 12:06  8-Mar-85 Page 1
COM	MAC	15-Oct-73 17:37


Macro/Opdef cross reference

CHARDO	    49#	    68
CHRDEF	    66#	    68
CLRBFI	   264
CLRIN	    41#	   248	   308	   312
CREAUX	   597
DCR	    39#
DISABL	    45#
ENABLE	    44#
ERROR	    43#	    74	   214	   337	   339	   400	   476	   478	   561	   581	   608	   609	   610	   611
	   612	   613	   614	   617	   618	   622	   623	   767	   803	   812	   849	  1039
GCD	    35#
GCI	    34#
GETTAB	   279	   283	   675	   711	   714	   970	   974	   978
INTASS	   837
OPD	    27#	    31	    32	    33	    34	    35	    36	    37	    38	    39	    40	    41	    42	    43
	    44	    45	    46	    47
RDLINE	    33#
SETTIM	   833	   841	   846
SETTTY	    42#
SLEEP	   806
SSKE	    46#
TAB	    47#
TCI	    31#	   229	   239	   253	   259
TCL	    32#
TCO	    38#	   419	   420	   442	   480	   514	   515	   518
TYPE	    40#	    76	   111	   139	   195	   197	   199	   219	   228	   247	   252	   307	   310	   404
	   410	   413	   562	   591
WCD	    37#
WCI	    36#
ZAPCIR	   589t~>