UUO     SEP 17, 1974	MACRO %53B(1156)-1 12:06  8-Mar-85 Page 1
UUOFLG	MAC	15-Oct-73 17:37

     1			000001		UUOFLG=1
     2					;COM	Nov 5, 1982
     3			000007		VERSION==7
     4			000026		VERPAT==26
     5
     6			000000		R0=     0
     7			000001		R1=     1
     8			000002		R2=     2
     9			000003		R3=     3
    10			000004		CH==    4                       ;CURRENT CHARACTER
    11			000007		CT==    7                       ;CURRENT CHARACTER'S TYPE
    12			000010		I=10
    13			000013		LP==    13
    14			000017		P=      17
    15
    16			000001		LCHAN== 1			;CHANNEL FOR READING LUD.SYS
    17			000002		SCHAN== 2			;CHANNEL FOR READING PERP.SYS
    18
    19			000056		DOTCHR= 56
    20			000054		COMCHR= 54
    21			000012		LFCHR=  12
    22			000015		CRCHR=  15
    23			000040		SPACE=  40
    24			000000		EOLIT== 0
    25			000137		BARROW=137
    26					        SALL                    ;SUPPRESS ALL MACRO EXPANSIONS
    27	000000'				IFDEF   UUOFLG  <UUOTAB: BLOCK 0>
    28					DEFINE  OPD     (A,B) <X==X+1
    29					OPDEF A [X*1000000000]
    30					IFDEF UUOFLG<JRST B>>
    31			000000		X==0
    32	000000'	254 00 0 00 000233'	        OPD     TCI,TCIUUO;    001
    33	000001'	254 00 0 00 000266'	        OPD     TCL,TCLUUO;    002
    34	000002'	254 00 0 00 000425'	        OPD     RDLINE,RDUUO;  003
    35	000003'	254 00 0 00 000340'	        OPD     GCI,GCIUUO;    004
    36	000004'	254 00 0 00 000356'	        OPD     GCD,GCDUUO;    005
    37	000005'	254 00 0 00 000367'	        OPD     WCI,WCIUUO;    006
    38	000006'	254 00 0 00 000407'	        OPD     WCD,WCDUUO;    007
    39	000007'	254 00 0 00 000772'	        OPD     TCO,TCOUU ;    010
    40	000010'	254 00 0 00 001037'	        OPD     DCR,DCRUUO;    011
    41	000011'	254 00 0 00 001053'	        OPD     TYPE,TYPUUO;   012
    42	000012'	254 00 0 00 001072'	        OPD     CLRIN,CLRUUO;  013
    43	000013'	254 00 0 00 001105'	        OPD     SETTTY,TTYUUO; 014
    44	000014'	254 00 0 00 001137'	        OPD     ERROR,ERRUUO;  015
    45	000015'	254 00 0 00 001144'	        OPD     ENABLE,ENUUO;  016
    46	000016'	254 00 0 00 001151'	        OPD     DISABL,DISUUO; 017
    47	000017'	254 00 0 00 000207'	        OPD     SSKE,SSKUUO;   020
    48	000020'	254 00 0 00 000333'	        OPD     TAB,TABUUO;    021
UUO     SEP 17, 1974	MACRO %53B(1156)-1 12:06  8-Mar-85 Page 2
CHR	MAC	15-Oct-73 17:37

    49					;CHR    SEP 17, 1974
    50					DEFINE  CHARDO(A) <CHARC=0
    51					A'IC;;      ILLEGAL CHARACTER
    52					A'AL;;      ALPHABETIC CHARACTER
    53					A'NU;;      NUMERIC CHARACTER
    54					A'RP;;      LEAVE USER MODE ")"
    55					A'IG;;      IGNORED CHARACTER
    56					A'QQ;;      ENTER USER NAME MODE "("
    57					A'AS;;      ALL FILES CHAR (*)
    58					A'EX;;      FILE EXTENSION DELIMITER (.)
    59					A'AT;;      COMMAND FILE CHAR (@)
    60					A'CO;;      COMMA
    61					A'TE;;      LINE TERMINATION (CR LF)
    62					A'SP;;      SPACE
    63					A'PO;;      POUND SIGN (#)
    64					A'QU;;      QUESTION MARK (?)
    65					A'PU;;      PUNCTUATION ALLOWED IN USER NAMES (/ ' $)
    66					A'DA>;      DASH (-)
    67					DEFINE  CHRDEF(C) <C=CHARC
    68					CHARC=CHARC+1>
    69			000020		        CHARDO  <CHRDEF >
UUO     SEP 17, 1974	MACRO %53B(1156)-1 12:06  8-Mar-85 Page 3
CHR	MAC	15-Oct-73 17:37

    70
    71					TITLE   UUO     SEP 17, 1974
    72					;*LAST LINE EDITING WOULD BE NICE
    73					;*REDO RDLINE ROUTINE TO USE TABLE
    74					;
    75					;
    76					; THIS PACKAGE CONTAINS A UUO DISPATCHER AND SOME TELETYPE
    77					; UUOS.
    78					;
    79					; IT IS ASSUMED THAT REGISTER P IS SET UP FOR A PUSH STACK.
    80					; IT IS USED EXTENSIVELY BY THIS CODE BUT IS NOT SET UP.
    81					;
    82					; IT IS ASSUMED THAT LOCATION 41 OCTAL CONTAINS THE INSTRUCTION
    83					; 'PUSHJ P,UUO'.
    84					;
    85					; TO ADD NEW UUOS, PUT THE UUO NAME AND ROUTINE ADDRESS INTO
    86					; THE TABLE 'UUOTAB'. THE FORMAT OF AN ENTRY IS:
    87					; NAME,ROUTINE. THE LOCATIION OF THE UUO IN THE TABLE
    88					; DEFINES IT'S OPCODE FIELD. IN OTHER WORDS, THE FIRST ENTRY
    89					; IN THE TABLE HAS OPCODE 1, THE SECOND ENTRY HAS OPCODE 2.
    90					; IN GENERAL, THE NTH ENTRY IN THE TABLE HAS OPCODE N.
    91					; UNUSED ENTRIES SHOULD BE ZERO.
    92					;
    93					; WHEN THE UUO DISPATCHER BRANCHES TO THE UUO ROUTINE,
    94					; THE RETURN ADDRESS AND THE ORIGINAL CONTENTS OF REGISTER ZERO
    95					; WILL HAVE BEEN PUSHED ONTO THE STACK. CELL ZERO IS ON THE
    96					; TOP OF THE STACK. THE RETURN ADDRESS IS NEXT. CELL ZERO
    97					; WILL HAVE BEEN CLOBBERED.
    98					        EXTERNAL CDISP,ESCR
    99
   100			000001		SAVBEG=1
   101			000016		SAVEND=16
   102			000040		FORTY=40
   103
   104			000133		LBRACK==133
   105			000135		RBRACK==135
   106			000131		YCHR=   131
   107			000012		LFCHR=12
   108			000007		BELCHR=7
   109			000134		BSLASH=134
   110			000136		UARROW=136
   111			000377		RUBOUT=377
   112			000177		RUB177=177
   113			000141		LOWERA=141
   114			000172		LOWERZ=172
   115			000021		CTRLQ=21
   116			000072		COLON==72
   117			000055		DASH==55
   118			000054		COMMA=54
   119			000044		DOLLAR=44
   120
   121			000041		FORTY1= 41
   122	000041				        LOC     FORTY1
   123	000041	260 17 0 00 000165'	        PUSHJ   P,UUO                   ;SET UP BRANCH TO UUOS IN LOC 41
   124	000137				        LOC     137
UUO     SEP 17, 1974	MACRO %53B(1156)-1 12:06  8-Mar-85 Page 1
UUO	MAC	15-Oct-73 17:37

   125	000137	000007	000026		        XWD     VERSION,VERPAT
   126	000021'				        RELOC
   127
   128	000021'				SAVR1:  BLOCK   SAVEND-SAVBEG
   129	000036'				SAVR1E: BLOCK   1
   130	000037'				SAVR2:  BLOCK   SAVEND-SAVBEG
   131	000054'				SAVR2E: BLOCK   1
   132	000055'				SPTR:   BLOCK   3
   133	000060'				LBUFF:  BLOCK   64
   134	000144'	000000	000000		SAVE1:  0
   135	000145'	000000	000000		SAVE2:  0
   136	000146'	000000	000000		SAVE3:  0
   137	000147'	000000	000000		CTEST2: 0
   138	000150'	000000	000000		CTEST:  0
   139	000151'	000000	000000		TTYSTA: 0
   140	000152'	000000	000000		TTYFLG: 0
   141	000153'	000000	000000		CHRCNT::        0               ;CHAR COUNT FOR TCO UUO
   142	000154'	000000	000000		CNT:    0
   143	000155'	000000	000000		ESCFLG: 0
   144	000156'	000000	000000		SAVESC: 0
   145	000157'	263 17 0 00 000000 	CLIN:   POPJ    P,              ;*CHANGE THIS*
   146	000160'	263 17 0 00 000000 	CLOUT:  POPJ    P,              ;*CHANGE THIS*
   147	000161'	000000	000000		FERR::  0
   148	000162'	000000	000000		CIN::   0
   149	000163'	000000	000000		COUT::  0
   150	000164'	000000	000000		SCHAR:  0
   151	000165'	250 00 0 00 001221'	UUO:    EXCH    R0,STKCNT#      ;EXCHANGE R0 AND STACK CONTENTS OF UUO
   152	000166'	553 00 0 17 000000 	        HRRZS   (P)             ;SET ALL FLAGS TO ZERO
   153	000167'	250 17 0 00 001222'	        EXCH    P,STKPTR        ;EXCHANGE OLD AND NEW STACK POINTERS
   154	000170'	315 17 0 00 001222'	        CAMGE   P,STKPTR#       ;SKIP IF LOWER OR SAME LEVEL UUO CALL
   155	000171'	312 00 0 17 000000 	        CAME    R0,(P)          ;SKIP IF NOT A NEW UUO CALL
   156	000172'	200 17 0 00 001222'	        MOVE    P,STKPTR        ;SAVE NEW STACK POINTER
   157	000173'	316 17 0 00 001222'	        CAMN    P,STKPTR        ;SKIP IF NOT A NEW UUO CALL
   158	000174'	200 00 0 17 000000 	        MOVE    R0,(P)          ;SAVE CURRENT CONTENTS OF RETURN CELL
   159	000175'	250 17 0 00 001222'	        EXCH    P,STKPTR        ;RE-EXCHANGE P AND STACK POINTER
   160	000176'	250 00 0 00 001221'	        EXCH    R0,STKCNT       ;RE-EXCHANGE R0 AND STACK CONTENTS
   161	000177'	261 17 0 00 000000 	        PUSH    P,R0
   162	000200'	135 00 0 00 001224'	        LDB     R0,[POINT 9,FORTY,8]
   163	000201'	303 00 0 00 000021 	        CAILE   R0,X            ;SKIP IF UUO NOT TOO BIG
   164	000202'	254 00 0 00 000205'	        JRST    UUOERR          ;GO TO ERROR ROUTINE
   165	000203'	271 00 0 00 777777'	        ADDI    R0,UUOTAB-1
   166	000204'	254 00 1 00 000000 	        JRST    @R0
   167	000205'	402 00 0 00 000205'	UUOERR: SETZM   .               ;EXECUTE THIS ROUTINE ONLY ONCE
   168	000206'	015 00 0 00 001225'	        ERROR   [ASCIZ "ATTEMPT TO EXECUTE AN ILLEGAL UUO"]
UUO     SEP 17, 1974	MACRO %53B(1156)-1 12:06  8-Mar-85 Page 2
UUO	MAC	15-Oct-73 17:37

   169					;THE SSKE UUO SKIPS IF TWO STRINGS ARE EQUAL
   170
   171	000207'				SSKUUO: BLOCK   0
   172	000207'	135 00 0 00 001234'	        LDB     R0,[POINT 4,FORTY,12] ;GET AC FIELD OF UUO
   173	000210'	336 00 0 00 000000 	        SKIPN   R0              ;SKIP IF IT'S NOT ZERO
   174	000211'	540 00 0 00 000017 	        HRR     R0,P            ;POINT TO STACK FOR R0
   175	000212'	550 00 1 00 000000 	        HRRZ    R0,@R0          ;GET ADDRESS OF STRING PTR
   176	000213'	270 00 0 00 001235'	        ADD     R0,[7B11-1]     ;DEC AND MAKE BYTE POINTER FOR 7 BIT
   177	000214'	202 00 0 00 000232'	        MOVEM   R0,SKPT2        ;SAVE POINTER TO STRING
   178	000215'	540 00 0 00 000040 	        HRR     R0,FORTY        ;GET ADDRESS OF FIRST STRING PTR
   179	000216'	275 00 0 00 000001 	        SUBI    R0,1            ;DECREMENT TO POINT TO PRECEDING WORD
   180	000217'	202 00 0 00 000231'	        MOVEM   R0,SKPT1        ;SAVE POINTER TO STRING
   181	000220'	134 00 0 00 000232'	SSKELP: ILDB    R0,SKPT2        ;GET NEXT CHAR FROM SECOND STRING
   182	000221'	306 00 0 00 000000 	        CAIN    R0,EOLIT        ;SKIP IF IT'S NOT THE END OF STRING
   183	000222'	254 00 0 00 000404'	        JRST    UUOSKR          ;EVERYTHING MATCHES SO SKIP RETURN
   184	000223'	202 00 0 00 000230'	        MOVEM   R0,SSKET        ;SAVE THE CHARACTER
   185	000224'	134 00 0 00 000231'	        ILDB    R0,SKPT1        ;GET NEXT CHAR FROM FIRST STRING
   186	000225'	312 00 0 00 000230'	        CAME    R0,SSKET        ;SKIP IF THE CHARACTERS ARE THE SAME
   187	000226'	254 00 0 00 001070'	        JRST    UUORET          ;NOT EQUAL SO RETURN WITHOUT SKIPPING
   188	000227'	254 00 0 00 000220'	        JRST    SSKELP          ;LOOP
   189
   190	000230'	000000	000000		SSKET:  0                       ;TEMP CELL
   191
   192	000231'	000000	000000		SKPT1:  0                       ;ADDRESS OF FIRST STRING
   193
   194	000232'	000000	000000		SKPT2:  0                       ;ADDRESS OF SECOND STRING
UUO     SEP 17, 1974	MACRO %53B(1156)-1 12:06  8-Mar-85 Page 3
UUO	MAC	15-Oct-73 17:37

   195					; THE TCI UUO READS ONE CHARACTER FROM THE TERMINAL. THE CHARACTER
   196					; IS RETURNED IN THE CORE ADDRESS SPECIFIED AND IN THE AC
   197					; SPECIFIED (UNLESS THE AC IS ZERO). CARRIAGE RETURN/LINEFEED
   198					; PAIRS ARE REDUCED TO A SINGLE CARRIAGE RETURN.
   199					; LINEFEEDS ARE ECHOED AS LINEFEED, CARRIAGE RETURN, RUBOUT.
   200					; EDITTING AND BREAK CHARACTERS ARE DEFINED BY THE SETTTY UUO.
   201	000233'	261 17 0 00 000040 	TCIUUO: PUSH    P,FORTY
   202	000234'	331 00 0 00 000150'	        SKIPL   CTEST
   203	000235'	254 00 0 00 000263'	        JRST    TCI3
   204	000236'	350 00 0 00 000150'	        AOS     CTEST
   205	000237'	200 00 0 00 000164'	TCI1:   MOVE    R0,SCHAR
   206	000240'	262 17 0 00 000040 	TCI4:   POP     P,FORTY
   207	000241'	202 00 0 00 000164'	        MOVEM   R0,SCHAR
   208	000242'	260 17 0 00 000273'	        PUSHJ   P,CHATYP        ;GET THE CHARACTER TYPE
   209	000243'	306 00 0 00 000012 	        CAIN    R0,TE           ;SKIP IF NOT A LINE TERMINATOR
   210	000244'	402 00 0 00 000153'	        SETZM   CHRCNT          ;ZERO CHAR COUNT FOR NEW LINE
   211	000245'	261 17 0 00 000000 	        PUSH    P,R0            ;SAVE THE TYPE ON THE STACK
   212	000246'	135 00 0 00 001234'	        LDB     R0,[POINT 4,FORTY,12]
   213	000247'	262 17 1 00 000000 	        POP     P,@R0           ;STORE TYPE IN APPROPRIATE REGISTER
   214	000250'	200 00 0 00 000164'	        MOVE    R0,SCHAR
   215	000251'	250 00 0 17 000000 	        EXCH    R0,0(P)
   216	000252'	262 17 1 00 000040 	        POP     P,@FORTY
   217	000253'	263 17 0 00 000000 	        POPJ    P,
   218	000254'	200 00 0 00 001236'	TCI2:   MOVE    R0,[POINT 7,LBUFF-1,34]
   219	000255'	202 00 0 00 000055'	        MOVEM   R0,SPTR
   220	000256'	202 00 0 00 000056'	        MOVEM   R0,SPTR+1
   221	000257'	201 00 0 00 000404 	        MOVEI   R0,^D260
   222	000260'	202 00 0 00 000057'	        MOVEM   R0,SPTR+2
   223	000261'	003 00 0 00 000055'	        RDLINE  SPTR
   224	000262'	254 00 0 00 000263'	        JRST    .+1
   225	000263'	004 00 0 00 000055'	TCI3:   GCI     R0,SPTR
   226	000264'	254 00 0 00 000254'	        JRST    TCI2
   227	000265'	254 00 0 00 000240'	        JRST    TCI4
   228					; THE TCL UUO IS IDENTICAL TO THE TCI UUO EXCEPT THAT THE
   229					; CHARACTER IS NOT REMOVED FROM THE INPUT STRING.
   230	000266'	261 17 0 00 000040 	TCLUUO: PUSH    P,FORTY
   231	000267'	335 00 0 00 000150'	        SKIPGE  CTEST
   232	000270'	254 00 0 00 000237'	        JRST    TCI1
   233	000271'	370 00 0 00 000150'	        SOS     CTEST
   234	000272'	254 00 0 00 000263'	        JRST    TCI3
   235
   236	000273'	261 17 0 00 000001 	CHATYP: PUSH    P,R1            ;SAVE R1 ON THE STACK
   237	000274'	261 17 0 00 000002 	        PUSH    P,R2            ;SAVE R2 ON THE STACK
   238	000275'	200 01 0 00 000000 	        MOVE    R1,R0           ;GET THE CHAR FROM R0
   239	000276'	231 01 0 00 000011 	        IDIVI   R1,11           ;DIVIDE CHAR BY 9 TO LOOK UP TYPE
   240	000277'	135 00 0 02 000303'	        LDB     R0,FS3(R2)      ;GET THE CHAR TYPE
   241	000300'	262 17 0 00 000002 	        POP     P,R2            ;RESTORE R2 FROM STACK
   242	000301'	262 17 0 00 000001 	        POP     P,R1            ;RESTORE R1 FROM STACK
   243	000302'	263 17 0 00 000000 	        POPJ    P,              ;RETURN FROM SUBROUTINE
   244
   245					;INPUT CHARACTER DISPATCH MATRIX
   246
   247	000303'	40 04 0 01 000314'	FS3:    POINT   4,FS4(R1),3      ;BYTE POINTERS TO CLASSIFICATION TABLE
   248	000304'	34 04 0 01 000314'	        POINT   4,FS4(R1),7
   249	000305'	30 04 0 01 000314'	        POINT   4,FS4(R1),11
UUO     SEP 17, 1974	MACRO %53B(1156)-1 12:06  8-Mar-85 Page 3-1
UUO	MAC	15-Oct-73 17:37

   250	000306'	24 04 0 01 000314'	        POINT   4,FS4(R1),15
   251	000307'	20 04 0 01 000314'	        POINT   4,FS4(R1),19
   252	000310'	14 04 0 01 000314'	        POINT   4,FS4(R1),23
   253	000311'	10 04 0 01 000314'	        POINT   4,FS4(R1),27
   254	000312'	04 04 0 01 000314'	        POINT   4,FS4(R1),31
   255	000313'	00 04 0 01 000314'	        POINT   4,FS4(R1),35
   256
   257					;       CLASSIFICATION TABLE FOR INPUT CHARACTERS
   258					;       SECOND ALPHABET REPRESENTS LOWER CASE CHARACTER CODES
   259
   260	000314'				FS4:    BLOCK   0
   261	000314'	200000	000000		BYTE (4)IG,IC,IC,IC,IC,IC,IC,IC,IC ;NUL SOH STX ETX EOT ENQ ACK BEL BS
   262	000315'	224422	400000		BYTE (4)IG,TE,IG,IG,TE,IC,IC,IC,IC ;HT  LF  VT  FF  CR  SO  SI  DLE DC1
   263	000316'	000000	000000		BYTE (4)IC,IC,IC,IC,IC,IC,IC,IC,IC ;DC2 DC3 DC4 NAK SYN ETB CAN EM  SUB
   264	000317'	000000	130014		BYTE (4)IC,IC,IC,IC,IC,SP,IC,IC,PO ;ESC FS  GS  RS  US  SP  !   "   #
   265	000320'	700072	633011		BYTE (4)PU,IC,IC,PU,LP,RP,AS,IC,CO ;$   %   &   '   (   )   *   +   ,
   266	000321'	757610	421042		BYTE (4)DA,EX,PU,NU,NU,NU,NU,NU,NU ;-   .   /   0   1   2   3   4   5
   267	000322'	104210	000000		BYTE (4)NU,NU,NU,NU,IC,IC,IC,IC,IC ;6   7   8   9   :   ;   <   =   >
   268	000323'	660104	210421		BYTE (4)QU,AT,AL,AL,AL,AL,AL,AL,AL ;?   @   A   B   C   D   E   F   G
   269	000324'	042104	210421		BYTE (4)AL,AL,AL,AL,AL,AL,AL,AL,AL ;H   I   J   K   L   M   N   O   P
   270	000325'	042104	210421		BYTE (4)AL,AL,AL,AL,AL,AL,AL,AL,AL ;Q   R   S   T   U   V   W   X   Y
   271	000326'	066014	000000		BYTE (4)AL,LP,IC,RP,IC,IC,IC,IC,IC ;Z   [   \   ]   ^   _   '   A   B
   272	000327'	000000	000000		BYTE (4)IC,IC,IC,IC,IC,IC,IC,IC,IC ;C   D   E   F   G   H   I   J   K
   273	000330'	000000	000000		BYTE (4)IC,IC,IC,IC,IC,IC,IC,IC,IC ;L   M   N   O   P   Q   R   S   T
   274	000331'	000000	000000		BYTE (4)IC,IC,IC,IC,IC,IC,IC,IC,IC ;U   V   W   X   Y   Z   173 174 175
   275	000332'	00 04 0000000000 	BYTE (4)IC,IG                      ;176 DEL
UUO     SEP 17, 1974	MACRO %53B(1156)-1 12:06  8-Mar-85 Page 4
UUO	MAC	15-Oct-73 17:37

   276
   277	000333'	550 00 0 00 000040 	TABUUO: HRRZ    R0,FORTY
   278	000334'	274 00 0 00 000153'	        SUB     R0,CHRCNT
   279	000335'	361 00 0 00 001070'	TABLP:  SOJL    R0,UUORET
   280	000336'	010 00 0 00 001237'	        TCO     [SPACE]
   281	000337'	254 00 0 00 000335'	        JRST    TABLP
UUO     SEP 17, 1974	MACRO %53B(1156)-1 12:06  8-Mar-85 Page 5
UUO	MAC	15-Oct-73 17:37

   282
   283					; THE GCI UUO READS ONE CHARACTER FROM THE FRONT OF A STRING
   284					; AND INCREMENTS THE FIRST CHARACTER POINTER.
   285					; IT SKIPS IF THE STRING IS NOT EMPTY.
   286					; THE CHARACTER IS RETURNED IN THE SPECIFIED AC.
   287					; THE ADDRESS PORTION OF THE INSTRUCTION POINTS TO A 3 WORD
   288					; STRING POINTER. THE FORMAT OF THE STRING POINTER IS:
   289					;
   290					; PTR:   BYTE POINTER. POINTS TO THE CHARACTER POSITION PRECEEDING
   291					;        THE FIRST CHARACTER IN THE STRING.
   292					; PTR+1: BYTE POINTER. POINTS TO THE LAST CHARACTER IN THE STRING.
   293					; PTR+2: LPTR,,RPTR
   294					;
   295					; LPTR IS THE NUMBER OF CHARACTER POSITIONS TO THE LEFT
   296					; OF THE 1ST CHARACTER IN THE STRING. RPTR IS THE NUMBER
   297					; OF CHARACTER POSITIONS TO THE RIGHT OF THE LAST
   298					; CHARACTER IN THE STRING.
   299	000340'	261 17 0 00 000001 	GCIUUO: PUSH    P,R1
   300	000341'	200 01 0 00 000040 	        MOVE    R1,FORTY
   301	000342'	200 00 0 01 000000 	        MOVE    R0,0(R1)
   302	000343'	316 00 0 01 000001 	        CAMN    R0,1(R1)
   303	000344'	254 00 0 00 001067'	        JRST    UUORE1
   304	000345'	515 00 0 00 000001 	        HRLZI   R0,1
   305	000346'	272 00 0 01 00000      ADDM    R0,2(R1)
   306	000347'	134 00 0 01 000000 	        ILDB    R0,0(R1)
   307	000350'	135 01 0 00 001240'	GCI2:   LDB     R1,[POINT 4,R1,12]
   308	000351'	202 01 0 00 000040 	        MOVEM   R1,FORTY
   309	000352'	262 17 0 00 000001 	        POP     P,R1
   310	000353'	250 00 0 17 000000 	        EXCH    R0,0(P)
   311	000354'	262 17 1 00 000040 	        POP     P,@FORTY
   312	000355'	254 00 0 00 000405'	        JRST    UUOSK1
   313					; THE GCD UUO READS ONE CHARACTER FROM THE END OF A STRING AND
   314					; DECREMENTS THE LAST CHARACTER POINTER. THE CHARACTER IS
   315					; RETURNED IN THE SPECIFIED AC. SEE 'GCI' UUO FOR A
   316					; DESCRIPTION OF STRING POINTER WHICH IS ADDRESSED BY GCL UUO.
   317					; GCL SKIPS IF THE STRING WAS NOT EMPTY.
   318	000356'	261 17 0 00 000001 	GCDUUO: PUSH    P,R1
   319	000357'	200 01 0 00 000040 	        MOVE    R1,FORTY
   320	000360'	200 00 0 01 000000 	        MOVE    R0,0(R1)
   321	000361'	316 00 0 01 000001 	        CAMN    R0,1(R1)
   322	000362'	254 00 0 00 001067'	        JRST    UUORE1
   323	000363'	350 00 0 01 000002 	        AOS     2(R1)
   324	000364'	135 00 0 01 000001 	        LDB     R0,1(R1)
   325	000365'	011 00 0 01 000001 	        DCR     1(R1)
   326	000366'	254 00 0 00 000350'	        JRST    GCI2
   327					; THE WCI UUO WRITES ONE CHARACTER TO THE END OF A STRING.
   328					; IT SKIPS IF THE STRING DOES NOT OVERFLOW.
   329					; THE LAST CHARACTER POINTER IS INCREMENTED.
   330					; THE CHARACTER IS TAKEN FROM THE SPECIFIED AC. THE ADDRESS FIELD
   331					; IS USED TO ADDRESS A SET OF STRING POINTERS.
   332	000367'	261 17 0 00 000001 	WCIUUO: PUSH    P,R1
   333	000370'	200 01 0 00 000040 	        MOVE    R1,FORTY
   334	000371'	200 00 0 01 000002 	        MOVE    R0,2(R1)
   335	000372'	606 00 0 00 777777 	        TRNN    R0,-1
   336	000373'	254 00 0 00 001067'	        JRST    UUORE1
UUO     SEP 17, 1974	MACRO %53B(1156)-1 12:06  8-Mar-85 Page 5-1
UUO	MAC	15-Oct-73 17:37

   337	000374'	370 00 0 01 000002 	        SOS     2(R1)
   338	000375'	350 00 0 00 000040 	        AOS     FORTY
   339	000376'	262 17 0 00 000001 	        POP     P,R1
   340	000377'	135 00 0 00 001234'	        LDB     R0,[POINT 4,FORTY,12]
   341	000400'	202 00 0 17 000001 	        MOVEM   R0,1(P)
   342	000401'	200 00 0 17 000000 	        MOVE    R0,0(P)
   343	000402'	200 00 1 17 000001 	        MOVE    R0,@R1(P)
   344	000403'	136 00 1 00 000040 	        IDPB    R0,@FORTY
   345	000404'	262 17 0 00 000000 	UUOSKR: POP     P,R0
   346	000405'	350 00 0 17 000000 	UUOSK1: AOS     0(P)
   347	000406'	263 17 0 00 000000 	        POPJ    P,
   348					; THE WCD UUO WRITES ONE CHARACTER TO THE FRONT OF A STRING.
   349					; THE FIRST CHARACTER POINTER IS DECREMENTED. THE CHARACTER
   350					; IS TAKEN FROM THE SPECIFIED AC. THE ADDRESS FIELD
   351					; IS USED TO ADDRESS A SET OF STRING POINTERS.
   352					; THE WCD UUO SKIPS IF THE STRING DOES NOT UNDERFLOW.
   353	000407'	261 17 0 00 000001 	WCDUUO: PUSH    P,R1
   354	000410'	200 01 0 00 000040 	        MOVE    R1,FORTY
   355	000411'	607 00 0 00 777777 	        TLNN    R0,-1
   356	000412'	254 00 0 00 000404'	        JRST    UUOSKR
   357	000413'	515 00 0 00 000001 	        HRLZI   R0,1
   358	000414'	276 00 0 01 000002 	        SUBM    2(R1)
   359	000415'	262 17 0 00 000001 	        POP     P,R1
   360	000416'	135 00 0 00 001234'	        LDB     R0,[POINT 4,FORTY,12]
   361	000417'	202 00 0 17 000001 	        MOVEM   R0,1(P)
   362	000420'	200 00 0 17 000000 	        MOVE    R0,0(P)
   363	000421'	200 00 1 17 000001 	        MOVE    R0,@1(P)
   364	000422'	137 00 1 00 000040 	        DPB     R0,@FORTY
   365	000423'	011 00 1 00 000040 	        DCR     @FORTY
   366	000424'	254 00 0 00 000404'	        JRST    UUOSKR
   367					; THE RDLINE UUO READS ONE LINE FROM THE TELETYPE INTO A STRING
   368					; DEFINED BY STRING POINTERS ADDRESSED BY THE UUO.
   369					; EDITTING AND BREAK CHARACTERS ARE DEFINED BY THE SETTTY UUO.
   370					; IF THE STRING OVERFLOWS, IT IS TREATED AS A BREAK CHARACTER.
   371	000425'	261 17 0 00 000001 	RDUUO:  PUSH    P,R1
   372	000426'	261 17 0 00 000002 	        PUSH    P,R2
   373	000427'	550 02 0 00 000040 	        HRRZ    R2,FORTY
   374	000430'	200 00 0 02 000000 	        MOVE    R0,0(R2)
   375	000431'	202 00 0 00 000144'	        MOVEM   R0,SAVE1
   376	000432'	200 00 0 02 000001 	        MOVE    R0,1(R2)
   377	000433'	202 00 0 00 000145'	        MOVEM   R0,SAVE2
   378	000434'	200 00 0 02 000002 	        MOVE    R0,2(R2)
   379	000435'	202 00 0 00 000146'	        MOVEM   R0,SAVE3
   380	000436'	402 00 0 00 000154'	        SETZM   CNT
   381	000437'	331 00 0 00 000152'	        SKIPL   TTYFLG  ;HAS TTY STATUS BEEN SET?
   382	000440'	014 00 0 00 001241'	        SETTTY  [0]     ;INITIALIZE TTY STATUS TO DEFAULT
   383	000441'	260 17 0 00 000734'	RDL1:   PUSHJ   P,GETCHR
   384	000442'	306 00 0 00 000015 	        CAIN    R0,CRCHR
   385	000443'	254 00 0 00 000706'	        JRST    CR
   386	000444'	306 00 0 00 000012 	        CAIN    R0,LFCHR
   387	000445'	254 00 0 00 000675'	        JRST    LF
   388	000446'	200 01 0 00 000151'	        MOVE    R1,TTYSTA
   389	000447'	606 01 0 00 002000 	        TRNN    R1,2000
   390	000450'	254 00 0 00 000454'	        JRST    RDX1
   391	000451'	306 00 0 00 000003 	        CAIN    R0,3
UUO     SEP 17, 1974	MACRO %53B(1156)-1 12:06  8-Mar-85 Page 5-2
UUO	MAC	15-Oct-73 17:37

   392	000452'	254 00 0 00 000461'	        JRST    RDX2
   393	000453'	254 00 0 00 000464'	        JRST    RDX
   394	000454'	515 01 0 00 777775 	RDX1:   HRLZI   R1,-3
   395	000455'	316 00 0 01 000711'	        CAMN    R0,ESCTAB(R1)
   396	000456'	254 00 0 00 000461'	        JRST    .+3
   397	000457'	253 01 0 00 000455'	        AOBJN   R1,.-2
   398	000460'	254 00 0 00 000464'	        JRST    RDX
   399	000461'	331 00 0 00 000155'	RDX2:   SKIPL   ESCFLG
   400	000462'	254 00 0 00 000000*	        JRST    ESCR
   401	000463'	476 00 0 00 000156'	        SETOM   SAVESC
   402	000464'	335 00 0 00 000162'	RDX:    SKIPGE  CIN
   403	000465'	254 00 0 00 000506'	        JRST    RDC
   404	000466'	200 01 0 00 000151'	        MOVE    R1,TTYSTA
   405	000467'	607 01 0 00 040000 	        TLNN    R1,40000
   406	000470'	607 01 0 00 600000 	        TLNN    R1,600000
   407	000471'	254 00 0 00 000506'	        JRST    RDC
   408	000472'	200 01 0 00 000151'	        MOVE    R1,TTYSTA
   409	000473'	606 01 0 00 002000 	        TRNN    R1,2000
   410	000474'	254 00 0 00 000502'	        JRST    RDX3
   411	000475'	306 00 0 00 000025 	        CAIN    R0,25
   412	000476'	254 00 0 00 000556'	        JRST    CQ
   413	000477'	306 00 0 00 000177 	        CAIN    R0,RUB177
   414	000500'	254 00 0 00 000572'	        JRST    CA
   415	000501'	254 00 0 00 000506'	        JRST    RDC
   416	000502'	515 01 0 00 777774 	RDX3:   HRLZI   R1,-4
   417	000503'	316 00 0 01 000724'	        CAMN    R0,CTAB1(R1)
   418	000504'	254 00 1 01 000730'	        JRST    @CTAB2(R1)
   419	000505'	253 01 0 00 000503'	        AOBJN   R1,.-2
   420	000506'	307 00 0 00 000172 	RDC:    CAIG    R0,LOWERZ
   421	000507'	305 00 0 00 000141 	        CAIGE   R0,LOWERA
   422	000510'	254 00 0 00 000514'	        JRST    NCV
   423	000511'	200 01 0 00 000151'	        MOVE    R1,TTYSTA
   424	000512'	602 01 0 00 000400 	        TRNE    R1,400
   425	000513'	275 00 0 00 000040 	        SUBI    R0,40
   426	000514'	006 00 1 00 000002 	NCV:    WCI     R0,@R2
   427	000515'	260 17 0 00 000161'	        PUSHJ   P,FERR
   428	000516'	550 01 0 02 000002 	        HRRZ    R1,2(R2)
   429	000517'	322 01 0 00 000555'	        JUMPE   R1,RDONE+1
   430	000520'	350 00 0 00 000154'	        AOS     CNT
   431	000521'	200 01 0 00 000151'	        MOVE    R1,TTYSTA
   432	000522'	607 01 0 00 440000 	        TLNN    R1,440000
   433	000523'	254 00 0 00 000530'	        JRST    RDC2
   434	000524'	302 00 0 00 000015 	        CAIE    R0,CRCHR
   435	000525'	306 00 0 00 000012 	        CAIN    R0,LFCHR
   436	000526'	254 00 0 00 000554'	        JRST    RDONE
   437	000527'	254 00 0 00 000441'	        JRST    RDL1
   438	000530'	515 01 0 00 777770 	RDC2:   HRLZI   R1,-8
   439	000531'	311 00 0 01 000714'	        CAML    R0,BITTAB(R1)
   440	000532'	254 00 0 00 000534'	        JRST    .+2
   441	000533'	253 01 0 00 000531'	        AOBJN   R1,.-2
   442	000534'	574 01 0 00 000001 	        HLRE    R1,R1
   443	000535'	271 01 0 00 000010 	        ADDI    R1,10
   444	000536'	302 01 0 00 000007 	        CAIE    R1,7
   445	000537'	254 00 0 00 000550'	        JRST    RDC3
   446	000540'	200 01 0 00 000151'	        MOVE    R1,TTYSTA
UUO     SEP 17, 1974	MACRO %53B(1156)-1 12:06  8-Mar-85 Page 5-3
UUO	MAC	15-Oct-73 17:37

   447	000541'	607 01 0 00 200000 	        TLNN    R1,200000
   448	000542'	254 00 0 00 000547'	        JRST    RDC3-1
   449	000543'	515 01 0 00 777774 	        HRLZI   R1,-4
   450	000544'	316 00 0 01 000724'	        CAMN    R0,CTAB1(R1)
   451	000545'	254 00 0 00 000441'	        JRST    RDL1
   452	000546'	253 01 0 00 000544'	        AOBJN   R1,.-2
   453	000547'	201 01 0 00 000007 	        MOVEI   R1,7
   454	000550'	201 00 0 00 000001 	RDC3:   MOVEI   R0,1
   455	000551'	242 00 0 01 000000 	        LSH     0(R1)
   456	000552'	616 00 0 00 000151'	        TDNN    R0,TTYSTA
   457	000553'	254 00 0 00 000441'	        JRST    RDL1
   458	000554'	350 00 0 17 777775 	RDONE:  AOS     -3(P)
   459	000555'	254 00 0 00 001066'	        JRST    UUORE2
   460	000556'	051 01 0 00 001242'	CQ:     OUTCHR  [UARROW]
   461	000557'	051 01 0 00 001243'	        OUTCHR  [CRCHR]
   462	000560'	051 01 0 00 001244'	        OUTCHR  [LFCHR]
   463	000561'	331 00 0 00 000151'	        SKIPL   TTYSTA
   464	000562'	254 00 0 00 000506'	        JRST    RDC
   465	000563'	200 00 0 00 000144'	        MOVE    R0,SAVE1
   466	000564'	202 00 0 02 000000 	        MOVEM   R0,0(R2)
   467	000565'	200 00 0 00 000145'	        MOVE    R0,SAVE2
   468	000566'	202 00 0 02 000001 	        MOVEM   R0,1(R2)
   469	000567'	200 00 0 00 000146'	        MOVE    R0,SAVE3
   470	000570'	202 00 0 02 000002 	        MOVEM   R0,2(R2)
   471	000571'	254 00 0 00 000441'	        JRST    RDL1
   472	000572'	331 00 0 00 000151'	CA:     SKIPL   TTYSTA
   473	000573'	254 00 0 00 000600'	        JRST    CA2
   474	000574'	005 00 1 00 000002 	        GCD     R0,@R2
   475	000575'	254 00 0 00 000673'	        JRST    BELL
   476	000576'	051 01 0 00 001245'	        OUTCHR  [BARROW]
   477	000577'	254 00 0 00 000441'	        JRST    RDL1
   478	000600'	051 01 0 00 001245'	CA2:    OUTCHR  [BARROW]
   479	000601'	254 00 0 00 000506'	        JRST    RDC
   480	000602'	331 00 0 00 000151'	CW:     SKIPL   TTYSTA
   481	000603'	254 00 0 00 000622'	        JRST    CW2
   482	000604'	005 00 1 00 000002 	        GCD     R0,@R2
   483	000605'	254 00 0 00 000673'	        JRST    BELL
   484	000606'	051 01 0 00 001246'	        OUTCHR  [BSLASH]
   485	000607'	254 00 0 00 000612'	        JRST    .+3
   486	000610'	005 00 1 00 000002 	        GCD     R0,@R2
   487	000611'	254 00 0 00 000441'	        JRST    RDL1
   488	000612'	306 00 0 00 000040 	        CAIN    R0,SPACE
   489	000613'	254 00 0 00 000610'	        JRST    .-3
   490	000614'	005 00 1 00 000002 	        GCD     R0,@R2
   491	000615'	254 00 0 00 000441'	        JRST    RDL1
   492	000616'	302 00 0 00 000040 	        CAIE    R0,SPACE
   493	000617'	306 00 0 00 000054 	        CAIN    R0,COMMA
   494	000620'	254 00 0 00 000506'	        JRST    RDC
   495	000621'	254 00 0 00 000614'	        JRST    .-5
   496	000622'	051 01 0 00 001246'	CW2:    OUTCHR  [BSLASH]
   497	000623'	254 00 0 00 000506'	        JRST    RDC
   498	000624'	200 00 0 00 000154'	CI:     MOVE    R0,CNT
   499	000625'	515 01 0 00 777766 	        HRLZI   R1,-12
   500	000626'	315 00 0 01 000661'	        CAMGE   R0,TAB(R1)
   501	000627'	254 00 0 00 000635'	        JRST    CI2
UUO     SEP 17, 1974	MACRO %53B(1156)-1 12:06  8-Mar-85 Page 5-4
UUO	MAC	15-Oct-73 17:37

   502	000630'	253 01 0 00 000626'	        AOBJN   R1,.-2
   503	000631'	271 01 0 00 000010 	        ADDI    R1,10
   504	000632'	311 00 0 00 000001 	        CAML    R0,R1
   505	000633'	254 00 0 00 000631'	        JRST    .-2
   506	000634'	254 00 0 00 000636'	        JRST    .+2
   507	000635'	200 01 0 01 000661'	CI2:    MOVE    R1,TAB(R1)
   508	000636'	274 01 0 00 000154'	        SUB     R1,CNT
   509	000637'	201 00 0 00 000040 	        MOVEI   R0,40
   510	000640'	500 00 0 00 000151'	        HLL     R0,TTYSTA
   511	000641'	621 00 0 00 010000 	        TLZ     R0,10000
   512	000642'	603 00 0 00 400000 	        TLNE    R0,400000
   513	000643'	254 00 0 00 000645'	        JRST    .+2
   514	000644'	603 00 0 00 100000 	        TLNE    R0,100000
   515	000645'	661 00 0 00 010000 	        TLO     R0,10000
   516	000646'	607 00 0 00 010000 	        TLNN    R0,10000
   517	000647'	254 00 0 00 000652'	        JRST    .+3
   518	000650'	006 00 1 00 000002 	        WCI     R0,@R2
   519	000651'	254 00 0 00 000554'	        JRST    RDONE
   520	000652'	350 00 0 00 000154'	        AOS     CNT
   521	000653'	275 01 0 00 000001 	        SUBI    R1,1
   522	000654'	327 01 0 00 000646'	        JUMPG   R1,.-6
   523	000655'	603 00 0 00 010000 	        TLNE    R0,10000
   524	000656'	254 00 0 00 000441'	        JRST    RDL1
   525	000657'	201 00 0 00 000021 	        MOVEI   R0,CTRLQ
   526	000660'	254 00 0 00 000506'	        JRST    RDC
   527	000661'	000000	000010		TAB:    EXP     10,20,30,40,50,60,70,100,110,120
   528	000662'	000000	000020
   529	000663'	000000	000030
   530	000664'	000000	000040
   531	000665'	000000	000050
   532	000666'	000000	000060
   533	000667'	000000	000070
   534	000670'	000000	000100
   535	000671'	000000	000110
   536	000672'	000000	000120
   537	000673'	051 01 0 00 001247'	BELL:   OUTCHR  [BELCHR]
   538	000674'	254 00 0 00 000441'	        JRST    RDL1
   539	000675'	201 00 0 00 000015 	LF:     MOVEI   R0,CRCHR
   540	000676'	260 17 0 00 000756'	        PUSHJ   P,GIVCHR
   541	000677'	201 00 0 00 000012 	        MOVEI   R0,LFCHR
   542	000700'	200 01 0 00 000151'	        MOVE    R1,TTYSTA
   543	000701'	602 01 0 00 001000 	        TRNE    R1,1000
   544	000702'	201 00 0 00 000015 	        MOVEI   R0,CRCHR
   545	000703'	331 00 0 00 000163'	        SKIPL   COUT
   546	000704'	051 01 0 00 001250'	        OUTCHR  [RUBOUT]
   547	000705'	254 00 0 00 000506'	        JRST    RDC
   548	000706'	260 17 0 00 000734'	CR:     PUSHJ   P,GETCHR
   549	000707'	201 00 0 00 000015 	        MOVEI   R0,CRCHR
   550	000710'	254 00 0 00 000506'	        JRST    RDC
   551	000711'	000000	000175		ESCTAB: EXP     175,33,37              ;*DO SOMETHING ABOUT THIS*
   552	000712'	000000	000033
   553	000713'	000000	000037
   554	000714'	000000	000173		BITTAB: EXP     173,141,133,101,72,60,40,0
   555	000715'	000000	000141
   556	000716'	000000	000133
UUO     SEP 17, 1974	MACRO %53B(1156)-1 12:06  8-Mar-85 Page 5-5
UUO	MAC	15-Oct-73 17:37

   557	000717'	000000	000101
   558	000720'	000000	000072
   559	000721'	000000	000060
   560	000722'	000000	000040
   561	000723'	000000	000000
   562	000724'	000000	000001		CTAB1:  EXP     R1,27,21,11
   563	000725'	000000	000027
   564	000726'	000000	000021
   565	000727'	000000	000011
   566	000730'	000000	000572'		CTAB2:  EXP     CA,CW,CQ,CI
   567	000731'	000000	000602'
   568	000732'	000000	000556'
   569	000733'	000000	000624'
   570	000734'	331 00 0 00 000162'	GETCHR: SKIPL   CIN
   571	000735'	254 00 0 00 000744'	        JRST    RDTTY
   572	000736'	015 00 0 00 001251'	        ERROR   [ASCIZ "COMMAND INPUT FILE NOT YET IMPLEMENTED"]
   573	000737'	017 00 0 00 000000 	EOF:    DISABL
   574	000740'	260 17 0 00 000157'	        PUSHJ   P,CLIN
   575	000741'	016 00 0 00 000000 	        ENABLE
   576	000742'	200 00 0 00 001261'	        MOVE    R0,[XWD SAVR1,SAVBEG]
   577	000743'	251 00 0 00 000016 	        BLT     R0,SAVEND
   578	000744'	200 00 0 00 000151'	RDTTY:  MOVE    R0,TTYSTA
   579	000745'	607 00 0 00 040000 	        TLNN    R0,40000
   580	000746'	254 00 0 00 000751'	        JRST    RDTTY2
   581	000747'	051 04 0 00 000000 	        INCHWL  R0
   582
   583	000750'	254 00 0 00 000752'	        JRST    TTYDON
   584	000751'	051 00 0 00 000000 	RDTTY2: INCHRW  R0
   585
   586	000752'	331 00 0 00 000162'	TTYDON: SKIPL   CIN
   587	000753'	335 00 0 00 000163'	        SKIPGE  COUT
   588	000754'	254 00 0 00 000756'	        JRST    GIVCHR          ;SAME AS PUSHJ P,GIVCHR ; POPJ P,
   589	000755'	263 17 0 00 000000 	        POPJ    P,
   590					; THE TCO UUO OUTPUTS ONE CHARACTER TO THE TERMINAL. CARRIAGE
   591					; RETURN AND LINEFEED ARE TREATED SPECIALLY.
   592					; FOR CARRIAGE RETURN, A CARRIAGE RETURN AND LINEFEED ARE SENT.
   593					; FOR LINEFEED, A LINEFEED, CARRIAGE RETURN, AND RUBOUT ARE SENT.
   594					; IF COUT IS NEGATIVE, THE RUBOUT IS NOT SENT. *CHANGE THIS*
   595	000756'	331 00 0 00 000163'	GIVCHR: SKIPL   COUT
   596	000757'	254 00 0 00 000770'	        JRST    WRTTY
   597	000760'	261 17 0 00 000000 	        PUSH    P,R0
   598	000761'	200 00 0 00 001262'	        MOVE    R0,[XWD SAVBEG,SAVR2]
   599	000762'	251 00 0 00 000054'	        BLT     R0,SAVR2E
   600	000763'	260 17 0 00 001030'	        PUSHJ   P,BYO
   601	000764'	015 00 0 00 001263'	        ERROR   [ASCIZ "WRITE ERROR"]
   602	000765'	200 00 0 00 001266'	        MOVE    R0,[XWD SAVR2,SAVBEG]
   603	000766'	251 00 0 00 000016 	        BLT     R0,SAVEND       ;*THIS MAY NOT BE NECESSARY
   604	000767'	254 00 0 00 001070'	        JRST    UUORET          ;RETURN FROM GIVCHR
   605	000770'	051 01 0 00 000000 	WRTTY:  OUTCHR  R0
   606	000771'	263 17 0 00 000000 	        POPJ    P,
UUO     SEP 17, 1974	MACRO %53B(1156)-1 12:06  8-Mar-85 Page 6
UUO	MAC	15-Oct-73 17:37

   607
   608					;NEW TCO UUO 5/28/72
   609	000772'	200 00 0 17 000000 	TCOUU:  MOVE    R0,(P)          ;RESTORE R0 IN CASE IT CONTAINED CHAR
   610	000773'	261 17 0 00 000001 	        PUSH    P,R1            ;STACK R1
   611	000774'	200 00 1 00 000040 	        MOVE    R0,@FORTY       ;LOAD CHAR INTO R0
   612	000775'	405 00 0 00 000177 	        ANDI    R0,177          ;USE ONLY SEVEN BITS
   613	000776'	201 01 0 00 000000 	        MOVEI   R1,0            ;ASSUME WE START IN STATE 0
   614	000777'	350 00 0 00 000153'	        AOS     CHRCNT          ;INCREMENT CHARACTER COUNT
   615	001000'	306 00 0 00 000015 	        CAIN    R0,CRCHR        ;SKIP IF CHAR IS NOT CARRIAGE RETURN
   616	001001'	201 01 0 00 000001 	        MOVEI   R1,1            ;START IN STATE 1 FOR CARRIAGE RETURN
   617	001002'	302 00 0 00 000012 	        CAIE    R0,LFCHR        ;SKIP IF CHAR IS NOT A LINE FEED
   618	001003'	254 00 0 00 001007'	        JRST    TCOUU1          ;NOT A LINE FEED
   619	001004'	376 00 0 00 001223'	        SOSN    TCOSTA          ;SKIP IF LAST CHAR WAS NOT A CR
   620	001005'	254 00 0 00 001067'	        JRST    UUORE1          ;IGNORE A LINE FEED AFTER A CR
   621	001006'	201 01 0 00 000002 	        MOVEI   R1,2            ;START IN STATE 2 FOR LINE FEED
   622	001007'	302 01 0 00 000000 	TCOUU1: CAIE    R1,0            ;SKIP IF NOT END OF LINE
   623	001010'	402 00 0 00 000153'	        SETZM   CHRCNT          ;ZERO THE CHARACTER COUNT
   624	001011'	202 01 0 00 001223'	        MOVEM   R1,TCOSTA#      ;SAVE STATE OF LAST CHAR OUTPUT
   625	001012'	334 00 0 00 000000 	        SKIPA                   ;SKIP TO START OF THE ROUTINE
   626	001013'	135 01 0 00 001267'	TCOLP:  LDB     R1,[POINT 2,TCOTAB(R1),21] ;LOAD NEW STATE
   627	001014'	331 00 0 00 000163'	        SKIPL   COUT            ;SKIP IF OUTPUT NOT TO TERMINAL
   628	001015'	051 01 0 00 000000 	        OUTCHR  R0              ;OUTPUT CHAR TO TERMINAL
   629	001016'	335 00 0 00 000163'	        SKIPGE  COUT            ;DON'T SKIP IF OUTPUT TO FILE
   630	001017'	260 17 0 00 001030'	        PUSHJ   P,BYO           ;OUTPUT CHAR TO FILE
   631	001020'	135 00 0 00 001270'	        LDB     R0,[POINT 7,TCOTAB(R1),17] ;LOAD NEXT CHAR
   632	001021'	331 00 0 01 001024'	        SKIPL   TCOTAB(R1)      ;SKIP IF WE ARE ALL DONE
   633	001022'	254 00 0 00 001013'	        JRST    TCOLP           ;LOOP FOR NEXT CHAR
   634	001023'	254 00 0 00 001067'	        JRST    UUORE1
   635
   636	001024'	777777	000000		TCOTAB: XWD     -1,0            ;STATE 0 - RETURN FROM UUO
   637	001025'	000012	000000		        XWD     LFCHR,0         ;STATE 1 - GO TO STATE 0 AND OUTPUT LF
   638	001026'	003015	000000		        XWD     3000+CRCHR,0    ;STATE 2 - GO TO STATE 3 AND OUTPUT CR
   639	001027'	000377	000000		        XWD     RUBOUT,0        ;STATE 3 - GO TO STATE 0 AND OUTPUT RUBOUT
   640
   641			000002		COF==   2                       ;*THIS SHOULD NOT BE HERE
   642	001030'	377 00 0 00 001220'	BYO:    SOSG    COFHD2#         ;DECREMENT CHAR COUNT - SKIP IF BUFF NOT FULL
   643	001031'	260 17 0 00 001034'	        PUSHJ   P,COFOUT        ;OUTPUT THE BUFFER
   644	001032'	136 00 0 00 001217'	        IDPB    R0,COFHD1#      ;DEPOSIT THE BYTE
   645	001033'	263 17 0 00 000000 	        POPJ    P,              ;RETURN
   646	001034'	057 02 0 00 000000 	COFOUT: OUT     COF,            ;OUTPUT THE BUFFER
   647	001035'	263 17 0 00 000000 	        POPJ    P,              ;SUCCESSFUL SO RETURN
   648	001036'	015 00 0 00 001271'	        ERROR   [ASCIZ "ERROR IN WRITING TO OUTPUT FILE"]
UUO     SEP 17, 1974	MACRO %53B(1156)-1 12:06  8-Mar-85 Page 7
UUO	MAC	15-Oct-73 17:37

   649
   650					; THE DCR UUO DECREMENTS A BYTE POINTER. THE ADDRESS FIELD
   651					; SHOULD ADDRESS A PDP10 BYTE POINTER.
   652	001037'	261 17 0 00 000001 	DCRUUO: PUSH    P,R1
   653	001040'	135 01 0 00 001300'	        LDB     R1,[POINT 6,@FORTY,5]
   654	001041'	135 00 0 00 001301'	        LDB     R0,[POINT 6,@FORTY,11]
   655	001042'	270 01 0 00 000000 	        ADD     R1,R0
   656	001043'	305 01 0 00 000044 	        CAIGE   R1,^D36
   657	001044'	254 00 0 00 001051'	        JRST    DEC2
   658	001045'	200 01 0 00 000000 	        MOVE    R1,R0
   659	001046'	201 00 0 00 000044 	        MOVEI   R0,^D36
   660	001047'	230 00 0 00 000001 	        IDIV    R0,R1
   661	001050'	370 00 1 00 000040 	        SOS     @FORTY
   662	001051'	137 01 0 00 001300'	DEC2:   DPB     R1,[POINT 6,@FORTY,5]
   663	001052'	254 00 0 00 001067'	        JRST    UUORE1
   664					; THE TYPE UUO OUTPUTS A STRING TO THE TERMINAL.
   665					; THE ADDRESS SHOULD POINT TO THE DESIRED MESSAGE.
   666					; DOLLAR SIGNS ARE INTERPRETED AS CARRIAGE RETURNS
   667	001053'	261 17 0 00 000001 	TYPUUO: PUSH    P,R1
   668	001054'	550 01 0 00 000040 	        HRRZ    R1,FORTY
   669	001055'	505 01 0 00 010700 	        HRLI    R1,10700
   670	001056'	275 01 0 00 000001 	        SUBI    R1,1
   671	001057'	134 00 0 00 000001 	TYP1:   ILDB    R0,R1
   672	001060'	306 00 0 00 000044 	        CAIN    R0,DOLLAR
   673	001061'	201 00 0 00 000015 	        MOVEI   R0,CRCHR
   674	001062'	306 00 0 00 000000 	        CAIN    R0,EOLIT        ;SKIP IF NOT END OF STRING
   675	001063'	254 00 0 00 001067'	        JRST    UUORE1
   676	001064'	010 00 0 00 000000 	        TCO     R0
   677	001065'	254 00 0 00 001057'	        JRST    TYP1
   678	001066'	262 17 0 00 000002 	UUORE2::POP     P,R2
   679	001067'	262 17 0 00 000001 	UUORE1: POP     P,R1
   680	001070'	262 17 0 00 000000 	UUORET::POP     P,R0
   681	001071'	263 17 0 00 000000 	        POPJ    P,
UUO     SEP 17, 1974	MACRO %53B(1156)-1 12:06  8-Mar-85 Page 8
UUO	MAC	15-Oct-73 17:37

   682
   683	001072'	051 11 0 00 000000 	CLRUUO: CLRBFI  0              ;*THIS UUO SHOULD ALSO KILL CMD FILES*
   684	001073'	200 00 0 00 001236'	        MOVE    R0,[POINT 7,LBUFF-1,34]
   685	001074'	202 00 0 00 000055'	        MOVEM   R0,SPTR
   686	001075'	202 00 0 00 000056'	        MOVEM   R0,SPTR+1
   687	001076'	201 00 0 00 000404 	        MOVEI   R0,^D260
   688	001077'	202 00 0 00 000057'	        MOVEM   R0,SPTR+2
   689	001100'	402 00 0 00 000150'	        SETZM   CTEST
   690	001101'	402 00 0 00 000147'	        SETZM   CTEST2
   691	001102'	260 17 0 00 000157'	        PUSHJ   P,CLIN
   692	001103'	260 17 0 00 000160'	        PUSHJ   P,CLOUT
   693	001104'	254 00 0 00 001070'	        JRST    UUORET
   694					; THE TTY UUO IS USED TO DEFINE EDITTING AND BREAK CHARACTERS
   695					; FOR TCI, TCL, AND RDLINE. THE ADRESS PORTION SHOULD POINT
   696					; TO THE NEW TTY STATUS WORD. THE OLD ONE IS RETURNED IN THE
   697					; SPECIFIED AC (UNLESS THE AC IS ZERO). IF THE NEW STATUS WORD
   698					; IS ILLEGAL, IT DOES NOT REPLACE THE OLD ONE, BUT THE OLD ONE
   699					; IS STILL RETURNED IN THE SPECIFIED AC. THIS ALLOWS
   700					; READING OF THE STATUS WORD WITHOUT CHANGING IT BY SPECIFYING
   701					; AN ILLEGAL STATUS WORD.
   702					; A STATUS WORD MUST EITHER HAVE BIT 0, BIT 3 OR ANY ONE OF BITS
   703					; 28-35 TURNED ON TO BE LEGAL.
   704					; THE BIT DEFINITIONS ARE:
   705					;  0 - COMMAND EDIT MODE. CONTROL A, W, Q, AND I EDITTING ARE
   706					;      DONE. BREAKS ONLY ON CARRIAGE RETURN OR LINEFEED.
   707					;      CONTROL A ECHOES "_". CONTROL W ECHOES "\". CONTROL Q
   708					;      ECHOES "^", CARRIAGE RETURN, LINEFEED.
   709					;      CONTROL I (TAB) ECHOES THE PROPER NUMBER OF BLANKS WHICH
   710					;      ARE ALSO SENT TO THE PROGRAM.
   711					;  1 - SPECIAL ECHO MODE. THE CONTROL CHARACTERS A, W, AND Q
   712					;      ARE ECHOED AS IN COMMAND EDIT MODE. HOWEVER, NO EDITTING
   713					;      IS DONE. THE EDITTING CHRACTERS ARE PASSED TO THE
   714					;      PROGRAM. BREAKS ACCORDING TO BREAK BITS BUT WILL NOT
   715					;      BREAK ON CONTROL A, W, Q, OR I.
   716					;      CONTROL I STILL SENDS THE PROPER NUMBER OF BLANKS TO THE
   717					;      PROGRAM AND THE CONTROL I IS NOT SENT.
   718					;  2 - SUPPRESS TABS. THIS BIT CAUSED "SPECIAL ECHO" MODE
   719					;      TO SUPPRESS TABS. CONTROL I WILL STILL ECHO BLANKS
   720					;      BUT THE BLANKS WILL NOT BE SENT TO THE PROGRAM. THE
   721					;      CONTROL I WILL BE SENT INSTEAD.
   722					;  3 - SYSTEM EDITTING. EDITTING IS DONE BY THE MONITOR. BREAK
   723					;      CHARACTERS ARE CARRIAGE RETURN AND LINEFEED.
   724					; 25 - PDP10/TYMEX FLAG. NOT SETTABLE BY USER. 1 = PDP10.
   725					;      0 = TYMEX.
   726					; 26 - CONVERT LINEFEEDS TO CARRIAGE RETURNS.
   727					; 27 - CONVERT LOWER CASE ALPHA TO UPPER CASE ALPHA.
   728					; 28 - BREAK ON CONTROL CHARACTERS (001-037).
   729					; 29 - BREAK ON PUNCTUATION GROUP 1 (40-57).
   730					; 30 - BREAK ON NUMBERS (60-71).
   731					; 31 - BREAK ON PUNCTUATION GROUP 2 (72-100).
   732					; 32 - BREAK ON UPPER CASE ALPHA (101-132).
   733					; 33 - BREAK ON PUNCTUATION GROUP 3 (133-140).
   734					; 34 - BREAK ON LOWER CASE ALPHA (141-172).
   735					; 35 - BREAK ON PUNCTUATION GROUP 4 (173-176).
   736					;
UUO     SEP 17, 1974	MACRO %53B(1156)-1 12:06  8-Mar-85 Page 8-1
UUO	MAC	15-Oct-73 17:37

   737					; TTY STATUS IS EFFECTIVEY INITIALIZED AS "40000,,400".
   738	001105'	335 00 0 00 000152'	TTYUUO: SKIPGE  TTYFLG
   739	001106'	254 00 0 00 001115'	        JRST    TTY2
   740	001107'	261 17 0 00 000040 	        PUSH    P,FORTY
   741	001110'	017 00 0 00 000000 	        DISABL
   742	001111'	370 00 0 00 000152'	        SOS     TTYFLG
   743	001112'	014 00 0 00 001302'	        SETTTY  [XWD 40000,400]
   744	001113'	016 00 0 00 000000 	        ENABLE
   745	001114'	262 17 0 00 000040 	        POP     P,FORTY
   746	001115'	261 17 0 00 000001 	TTY2:   PUSH    P,R1
   747	001116'	200 01 0 00 001303'	        MOVE    R1,[XWD -1,6]
   748	001117'	047 01 0 00 000041 	        GETTAB  R1,
   749	001120'	260 17 0 00 000161'	        PUSHJ   P,FERR          ;FATAL ERROR
   750	001121'	200 00 1 00 000040 	        MOVE    R0,@FORTY
   751	001122'	421 00 0 00 002000 	        ANDCMI  R0,2000
   752	001123'	606 01 0 00 000200 	        TRNN    R1,200
   753	001124'	435 00 0 00 002000 	        IORI    R0,2000
   754	001125'	262 17 0 00 000001 	        POP     P,R1
   755	001126'	607 00 0 00 440000 	        TLNN    R0,440000
   756	001127'	602 00 0 00 000377 	        TRNE    R0,377
   757	001130'	254 00 0 00 001132'	        JRST    .+2
   758	001131'	200 00 0 00 000151'	        MOVE    R0,TTYSTA
   759	001132'	250 00 0 00 000151'	        EXCH    R0,TTYSTA
   760	001133'	261 17 0 00 000000 	        PUSH    P,R0
   761	001134'	135 00 0 00 001234'	        LDB     R0,[POINT 4,FORTY,12]
   762	001135'	262 17 1 00 000000 	        POP     P,@R0
   763	001136'	254 00 0 00 001070'	        JRST    UUORET
   764
   765	001137'	200 00 0 00 000040 	ERRUUO: MOVE    R0,FORTY
   766	001140'	402 00 0 00 000163'	        SETZM   COUT            ;*PROBABLY SHOULD CLOSE FILE
   767	001141'	012 00 1 00 000000 	        TYPE    @R0
   768	001142'	013 00 0 00 000000 	        CLRIN                   ;CLEAR INPUT BUFFER
   769	001143'	254 00 0 00 000000*	        JRST    CDISP           ;RETURN TO COMMAND DISPATCHER
   770	001144'	262 17 0 00 000000 	ENUUO:  POP     P,R0
   771	001145'	351 00 0 00 000155'	        AOSL    ESCFLG
   772	001146'	331 00 0 00 000156'	        SKIPL   SAVESC
   773	001147'	263 17 0 00 000000 	        POPJ    P,
   774	001150'	254 00 0 00 000462*	        JRST    ESCR
   775	001151'	370 00 0 00 000155'	DISUUO: SOS     ESCFLG
   776	001152'	254 00 0 00 001070'	        JRST    UUORET
   777
UUO     SEP 17, 1974	MACRO %53B(1156)-1 12:06  8-Mar-85 Page 9
UUO	MAC	15-Oct-73 17:37

   778
   779					;PRINT OCTAL NUMBER ON TERMINAL
   780					; CALL WITH NUMBER IN R0
   781
   782	001153'	506 00 0 17 000000 	PRONUM::HRLM    R0,(P)          ;PUT THAT DIGIT ON THE STACK
   783	001154'	242 00 0 00 777775 	        LSH     R0,-3           ;RIGHT SHIFT THREE
   784	001155'	332 00 0 00 000000 	        SKIPE   R0              ;SKIP IF THERE ARE NO MORE DIGITS
   785	001156'	260 17 0 00 001153'	        PUSHJ   P,PRONUM        ;DO IT AGAIN
   786	001157'	554 00 0 17 000000 	        HLRZ    R0,(P)          ;GET NEXT DIGIT OFF THE STACK
   787	001160'	620 00 0 00 777770 	        TRZ     R0,777770       ;SAVE ONLY RIGHT THREE BITS
   788	001161'	271 00 0 00 000060 	        ADDI    R0,"0"          ;CONVERT IT TO A CHARACTER
   789	001162'	010 00 0 00 000000 	        TCO     R0              ;TYPE IT
   790	001163'	263 17 0 00 000000 	        POPJ    P,              ;TYPE NEXT DIGIT OR RETURN
   791
   792					;PRINT DECIMAL NUMBER ON TERMINAL
   793					; CALL WITH NUMBER IN R0
   794
   795	001164'	231 00 0 00 000012 	PRDNUM::IDIVI   R0,12           ;DIVIDE BY TEN FOR NEXT DIGIT
   796	001165'	506 01 0 17 000000 	        HRLM    R1,(P)          ;STICK THE DIGIT IN THE STACK
   797	001166'	332 00 0 00 000000 	        SKIPE   R0              ;SKIP IF WE'VE GOT ALL THE DIGITS
   798	001167'	260 17 0 00 001164'	        PUSHJ   P,PRDNUM        ;GET THE NEXT DIGIT
   799	001170'	554 00 0 17 000000 	        HLRZ    R0,(P)          ;GET THE NEXT DIGIT FROM THE STACK
   800	001171'	271 00 0 00 000060 	        ADDI    R0,"0"          ;CONVERT NUMBER TO CHARACTER
   801	001172'	010 00 0 00 000000 	        TCO     R0              ;OUTPUT THE CHARACTER
   802	001173'	263 17 0 00 000000 	        POPJ    P,              ;GET NEXT DIGIT OR RETURN
   803
   804					;PRINT A TWO DIGIT DECIMAL NUMBER TO THE TERMINAL
   805					; CALL WITH NUMBER IN R0
   806
   807	001174'	231 00 0 00 000012 	PRD2N:: IDIVI   R0,12           ;DIVIDE BY TEN TO SEPARATE DIGITS
   808	001175'	271 00 0 00 000060 	        ADDI    R0,60           ;CONVERT FIRST NUMBER TO CHARACTER
   809	001176'	010 00 0 00 000000 	        TCO     R0              ;OUTPUT THE CHARACTER
   810	001177'	271 01 0 00 000060 	        ADDI    R1,60           ;CONVERT SECOND NUMBER TO CHARACTER
   811	001200'	010 00 0 00 000001 	        TCO     R1              ;OUTPUT THAT CHARACTER
   812	001201'	263 17 0 00 000000 	        POPJ    P,              ;RETURN
   813
   814					;READ DECIMAL/OCTAL NUMBER
   815					; RETURN NUMBER IN R0, TERMINATING CHAR IN CH, TYPE IN CT
   816					; RETURN NUMBER OF CHARACTERS IN NUMBER IN R1
   817
   818	001202'	334 01 0 00 001304'	RDONUM::SKIPA   R1,[10]         ;SET BASE TO EIGHT
   819	001203'	201 01 0 00 000012 	RDDNUM::MOVEI   R1,12           ;SET BASE TO TEN
   820	001204'	261 17 0 00 000001 	        PUSH    P,R1            ;SAVE BASE ON THE STACK
   821	001205'	403 01 0 00 000000 	        SETZB   R1,R0           ;ZERO THE ACCUMULATOR AND CHAR COUNT
   822	001206'	001 07 0 00 000004 	RDNU1:  TCI     CT,CH           ;READ NEXT CHAR
   823	001207'	302 07 0 00 000002 	        CAIE    CT,NU           ;SKIP IF IT'S A DIGIT
   824	001210'	254 00 0 00 001215'	        JRST    RDNRET          ;ANYTHING ELSE IS A TERMINATOR SO RET
   825	001211'	220 00 0 17 000000 	        IMUL    R0,(P)          ;MULTIPLY ACCUMULATOR BY BASE
   826	001212'	270 00 0 00 000004 	        ADD     R0,CH           ;ADD IN THE NEW DIGIT
   827	001213'	275 00 0 00 000060 	        SUBI    R0,60           ;CONVERT NEW DIGIT FROM CHAR TO NUMBER
   828	001214'	344 01 0 00 001206'	        AOJA    R1,RDNU1        ;INCREMENT CHAR COUNT AND GET NEXT CHAR
   829	001215'	262 17 0 17 000000 	RDNRET: POP     P,(P)           ;POP STACK TO THROW AWAY THE BASE
   830	001216'	263 17 0 00 000000 	        POPJ    P,              ;RETURN FROM RDDNUM OR RDONUM
   831	001217'				        VAR
   832					        END
UUO     SEP 17, 1974	MACRO %53B(1156)-1 12:06  8-Mar-85 Page 9-1
UUO	MAC	15-Oct-73 17:37


NO ERRORS DETECTED

PROGRAM BREAK IS 001305
CPU TIME USED 03:54.846

10P CORE USED
UUO     SEP 17, 1974	MACRO %53B(1156)-1 12:06  8-Mar-85 Page S-1
UUO	MAC	15-Oct-73 17:37		SYMBOL TABLE

AL		000001		ENUUO		001144'		RDL1		000441'		TCOTAB		001024'
AS		000006		EOF		000737'		RDLINE	003000	000000		TCOUU		000772'
AT		000010		EOLIT		000000	spd	RDNRET		001215'		TCOUU1		001007'
BARROW		000137		ERROR	015000	000000		RDNU1		001206'		TE		000012
BELCHR		000007		ERRUUO		001137'		RDONE		000554'		TTY2		001115'
BELL		000673'		ESCFLG		000155'		RDONUM		001202'	int	TTYDON		000752'
BITTAB		000714'		ESCR		001150'	ext	RDTTY		000744'		TTYFLG		000152'
BSLASH		000134		ESCTAB		000711'		RDTTY2		000751'		TTYSTA		000151'
BYO		001030'		EX		000007		RDUUO		000425'		TTYUUO		001105'
CA		000572'		FERR		000161'	int	RDX		000464'		TYP1		001057'
CA2		000600'		FORTY		000040		RDX1		000454'		TYPE	012000	000000
CDISP		001143'	ext	FORTY1		000041		RDX2		000461'		TYPUUO		001053'
CH		000004	spd	FS3		000303'		RDX3		000502'		UARROW		000136
CHARC		000020		FS4		000314'		RP		000003		UUO		000165'
CHATYP		000273'		GCD	005000	000000		RUB177		000177		UUOERR		000205'
CHRCNT		000153'	int	GCDUUO		000356'		RUBOUT		000377		UUOFLG		000001
CI		000624'		GCI	004000	000000		SAVBEG		000001		UUORE1		001067'
CI2		000635'		GCI2		000350'		SAVE1		000144'		UUORE2		001066'	int
CIN		000162'	int	GCIUUO		000340'		SAVE2		000145'		UUORET		001070'	int
CLIN		000157'		GETCHR		000734'		SAVE3		000146'		UUOSK1		000405'
CLOUT		000160'		GETTAB	047000	000041		SAVEND		000016		UUOSKR		000404'
CLRBFI	051440	000000		GIVCHR		000756'		SAVESC		000156'		UUOTAB		000000'
CLRIN	013000	000000		I		000010		SAVR1		000021'		VERPAT		000026	spd
CLRUUO		001072'		IC		000000		SAVR1E		000036'		VERSIO		000007	spd
CNT		000154'		IG		000004		SAVR2		000037'		WCD	007000	000000
CO		000011		INCHRW	051000	000000		SAVR2E		000054'		WCDUUO		000407'
COF		000002	spd	INCHWL	051200	000000		SCHAN		000002	spd	WCI	006000	000000
COFHD1		001217'		LBRACK		000133	spd	SCHAR		000164'		WCIUUO		000367'
COFHD2		001220'		LBUFF		000060'		SETTTY	014000	000000		WRTTY		000770'
COFOUT		001034'		LCHAN		000001	spd	SKPT1		000231'		X		000021	spd
COLON		000072	spd	LF		000675'		SKPT2		000232'		YCHR		000131
COMCHR		000054		LFCHR		000012		SP		000013
COMMA		000054		LOWERA		000141		SPACE		000040
COUT		000163'	int	LOWERZ		000172		SPTR		000055'
CQ		000556'		LP		000013	spd	SSKE	020000	000000
CR		000706'		NCV		000514'		SSKELP		000220'
CRCHR		000015		NU		000002		SSKET		000230'
CT		000007	spd	OUTCHR	051040	000000		SSKUUO		000207'
CTAB1		000724'		P		000017		STKCNT		001221'
CTAB2		000730'		PO		000014		STKPTR		001222'
CTEST		000150'		PRD2N		001174'	int	TAB		000661'
CTEST2		000147'		PRDNUM		001164'	int	TAB	021000	000000
CTRLQ		000021		PRONUM		001153'	int	TABLP		000335'
CW		000602'		PU		000016		TABUUO		000333'
CW2		000622'		QQ		000005		TCI	001000	000000
DA		000017		QU		000015		TCI1		000237'
DASH		000055	spd	R0		000000		TCI2		000254'
DCR	011000	000000		R1		000001		TCI3		000263'
DCRUUO		001037'		R2		000002		TCI4		000240'
DEC2		001051'		R3		000003		TCIUUO		000233'
DISABL	017000	000000		RBRACK		000135	spd	TCL	002000	000000
DISUUO		001151'		RDC		000506'		TCLUUO		000266'
DOLLAR		000044		RDC2		000530'		TCO	010000	000000
DOTCHR		000056		RDC3		000550'		TCOLP		001013'
ENABLE	016000	000000		RDDNUM		001203'	int	TCOSTA		001223'

UUO     SEP 17, 1974	MACRO %53B(1156)-1 12:06  8-Mar-85 Page 1
UUOFLG	MAC	15-Oct-73 17:37


Symbol cross reference

AL	    69#	   268	   269	   270	   271
AS	    69#	   265
AT	    69#	   268
BARROW	    25#	   476	   478
BELCHR	   108#	   537
BELL	   475	   483	   537#
BITTAB	   439	   554#
BSLASH	   109#	   484	   496
BYO	   600	   630	   642#
CA	   414	   472#	   566
CA2	   473	   478#
CDISP	    98#	   769
CH	    10#	   822	   826
CHARC	    69#	    69
CHATYP	   208	   236#
CHRCNT	   141#	   210	   278	   614	   623
CI	   498#	   566
CI2	   501	   507#
CIN	   148#	   402	   570	   586
CLIN	   145#	   574	   691
CLOUT	   146#	   692
CLRUUO	    42	   683#
CNT	   142#	   380	   430	   498	   508	   520
CO	    69#	   265
COF	   641#	   646
COFHD1	   644#	   644
COFHD2	   642#	   642
COFOUT	   643	   646#
COLON	   116#
COMCHR	    20#
COMMA	   118#	   493
COUT	   149#	   545	   587	   595	   627	   629	   766
CQ	   412	   460#	   566
CR	   385	   548#
CRCHR	    22#	   384	   434	   461	   539	   544	   549	   615	   638	   673
CT	    11#	   822	   823
CTAB1	   417	   450	   562#
CTAB2	   418	   566#
CTEST	   138#	   202	   204	   231	   233	   689
CTEST2	   137#	   690
CTRLQ	   115#	   525
CW	   480#	   566
CW2	   481	   496#
DA	    69#	   266
DASH	   117#
DCRUUO	    40	   652#
DEC2	   657	   662#
DISUUO	    46	   775#
DOLLAR	   119#	   672
DOTCHR	    19#
UUO     SEP 17, 1974	MACRO %53B(1156)-1 12:06  8-Mar-85 Page 1
UUOFLG	MAC	15-Oct-73 17:37


Symbol cross reference

ENUUO	    45	   770#
EOF	   573#
EOLIT	    24#	   182	   674
ERRUUO	    44	   765#
ESCFLG	   143#	   399	   771	   775
ESCR	    98#	   400	   774
ESCTAB	   395	   551#
EX	    69#	   266
FERR	   147#	   427	   749
FORTY	   102#	   162	   172	   178	   201	   206	   212	   216	   230	   277	   300	   308	   311	   319
	   333	   338	   340	   344	   354	   360	   364	   365	   373	   611	   653	   654	   661	   662
	   668	   740	   745	   750	   761	   765
FORTY1	   121#	   122
FS3	   240	   247#
FS4	   247	   248	   249	   250	   251	   252	   253	   254	   255	   260#
GCDUUO	    36	   318#
GCI2	   307#	   326
GCIUUO	    35	   299#
GETCHR	   383	   548	   570#
GIVCHR	   540	   588	   595#
I	    12#
IC	    69#	   261	   262	   263	   264	   265	   267	   271	   272	   273	   274	   275
IG	    69#	   261	   262	   275
LBRACK	   104#
LBUFF	   133#	   218	   684
LCHAN	    16#
LF	   387	   539#
LFCHR	    21#	   107#	   386	   435	   462	   541	   617	   637
LOWERA	   113#	   421
LOWERZ	   114#	   420
LP	    13#	   265	   271
NCV	   422	   426#
NU	    69#	   266	   267	   823
P	    14#	   123	   145	   146	   152	   153	   154	   155	   156	   157	   158	   159	   161	   174
	   201	   206	   208	   211	   213	   215	   216	   217	   230	   236	   237	   241	   242	   243
	   299	   309	   310	   311	   318	   332	   339	   341	   342	   343	   345	   346	   347	   353
	   359	   361	   362	   363	   371	   372	   383	   427	   458	   540	   548	   574	   589	   597
	   600	   606	   609	   610	   630	   643	   645	   647	   652	   667	   678	   679	   680	   681
	   691	   692	   740	   745	   746	   749	   754	   760	   762	   770	   773	   782	   785	   786
	   790	   796	   798	   799	   802	   812	   820	   825	   829	   830
PO	    69#	   264
PRD2N	   807#
PRDNUM	   795#	   798
PRONUM	   782#	   785
PU	    69#	   265	   266
QQ	    69#
QU	    69#	   268
R0	     6#	   151	   155	   158	   160	   161	   162	   163	   165	   166	   172	   173	   174	   175
	   176	   177	   178	   179	   180	   181	   182	   184	   185	   186	   205	   207	   209	   211
	   212	   213	   214	   215	   218	   219	   220	   221	   222	   225	   238	   240	   277	   278
UUO     SEP 17, 1974	MACRO %53B(1156)-1 12:06  8-Mar-85 Page 1
UUOFLG	MAC	15-Oct-73 17:37


Symbol cross reference

	   279	   301	   302	   304	   305	   306	   310	   320	   321	   324	   334	   335	   340	   341	   342
	   343	   344	   345	   355	   357	   360	   361	   362	   363	   364	   374	   375	   376	   377
	   378	   379	   384	   386	   391	   395	   411	   413	   417	   420	   421	   425	   426	   434
	   435	   439	   450	   454	   456	   465	   466	   467	   468	   469	   470	   474	   482	   486
	   488	   490	   492	   493	   498	   500	   504	   509	   510	   511	   512	   514	   515	   516
	   518	   523	   525	   539	   541	   544	   549	   576	   577	   578	   579	   581	   584	   597
	   598	   599	   602	   603	   605	   609	   611	   612	   615	   617	   628	   631	   644	   654
	   655	   658	   659	   660	   671	   672	   673	   674	   676	   680	   684	   685	   686	   687
	   688	   750	   751	   753	   755	   756	   758	   759	   760	   761	   762	   765	   767	   770
	   782	   783	   784	   786	   787	   788	   789	   795	   797	   799	   800	   801	   807	   808
	   809	   821	   825	   826	   827
R1	     7#	   236	   238	   239	   242	   247	   248	   249	   250	   251	   252	   253	   254	   255
	   299	   300	   301	   302	   305	   306	   307	   308	   309	   318	   319	   320	   321	   323
	   324	   325	   332	   333	   334	   337	   339	   343	   353	   354	   358	   359	   371	   388
	   389	   394	   395	   397	   404	   405	   406	   408	   409	   416	   417	   418	   419	   423
	   424	   428	   429	   431	   432	   438	   439	   441	   442	   443	   444	   446	   447	   449
	   450	   452	   453	   455	   499	   500	   502	   503	   504	   507	   508	   521	   522	   542
	   543	   562	   610	   613	   616	   621	   622	   624	   626	   631	   632	   652	   653	   655
	   656	   658	   660	   662	   667	   668	   669	   670	   671	   679	   746	   747	   748	   752
	   754	   796	   810	   811	   818	   819	   820	   821	   828
R2	     8#	   237	   240	   241	   372	   373	   374	   376	   378	   426	   428	   466	   468	   470
	   474	   482	   486	   490	   518	   678
R3	     9#
RBRACK	   105#
RDC	   403	   407	   415	   420#	   464	   479	   494	   497	   526	   547	   550
RDC2	   433	   438#
RDC3	   445	   448	   454#
RDDNUM	   819#
RDL1	   383#	   437	   451	   457	   471	   477	   487	   491	   524	   538
RDNRET	   824	   829#
RDNU1	   822#	   828
RDONE	   429	   436	   458#	   519
RDONUM	   818#
RDTTY	   571	   578#
RDTTY2	   580	   584#
RDUUO	    34	   371#
RDX	   393	   398	   402#
RDX1	   390	   394#
RDX2	   392	   399#
RDX3	   410	   416#
RP	    69#	   265	   271
RUB177	   112#	   413
RUBOUT	   111#	   546	   639
SAVBEG	   100#	   128	   130	   576	   598	   602
SAVE1	   134#	   375	   465
SAVE2	   135#	   377	   467
SAVE3	   136#	   379	   469
SAVEND	   101#	   128	   130	   577	   603
SAVESC	   144#	   401	   772
SAVR1	   128#	   576
UUO     SEP 17, 1974	MACRO %53B(1156)-1 12:06  8-Mar-85 Page 1
UUOFLG	MAC	15-Oct-73 17:37


Symbol cross reference

SAVR1E	   129#
SAVR2	   130#	   598	   602
SAVR2E	   131#	   599
SCHAN	    17#
SCHAR	   150#	   205	   207	   214
SKPT1	   180	   185	   192#
SKPT2	   177	   181	   194#
SP	    69#	   264
SPACE	    23#	   280	   488	   492
SPTR	   132#	   219	   220	   222	   223	   225	   685	   686	   688
SSKELP	   181#	   188
SSKET	   184	   186	   190#
SSKUUO	    47	   171#
STKCNT	   151#	   151	   160
STKPTR	   153	   154#	   154	   156	   157	   159
TAB	    48#	   500	   507	   527#
TABLP	   279#	   281
TABUUO	    48	   277#
TCI1	   205#	   232
TCI2	   218#	   226
TCI3	   203	   225#	   234
TCI4	   206#	   227
TCIUUO	    32	   201#
TCLUUO	    33	   230#
TCOLP	   626#	   633
TCOSTA	   619	   624#	   624
TCOTAB	   626	   631	   632	   636#
TCOUU	    39	   609#
TCOUU1	   618	   622#
TE	    69#	   209	   262
TTY2	   739	   746#
TTYDON	   583	   586#
TTYFLG	   140#	   381	   738	   742
TTYSTA	   139#	   388	   404	   408	   423	   431	   446	   456	   463	   472	   480	   510	   542	   578
	   758	   759
TTYUUO	    43	   738#
TYP1	   671#	   677
TYPUUO	    41	   667#
UARROW	   110#	   460
UUO	   123	   151#
UUOERR	   164	   167#
UUOFLG	     1#	    27	    32	    33	    34	    35	    36	    37	    38	    39	    40	    41	    42	    43
	    44	    45	    46	    47	    48
UUORE1	   303	   322	   336	   620	   634	   663	   675	   679#
UUORE2	   459	   678#
UUORET	   187	   279	   604	   680#	   693	   763	   776
UUOSK1	   312	   346#
UUOSKR	   183	   345#	   356	   366
UUOTAB	    27#	   165
VERPAT	     4#	   125
UUO     SEP 17, 1974	MACRO %53B(1156)-1 12:06  8-Mar-85 Page 1
UUOFLG	MAC	15-Oct-73 17:37


Symbol cross reference

VERSIO	     3#	   125
WCDUUO	    38	   353#
WCIUUO	    37	   332#
WRTTY	   596	   605#
X	    31#	    32	    32#	    33	    33#	    34	    34#	    35	    35#	    36	    36#	    37	    37#	    38
	    38#	    39	    39#	    40	    40#	    41	    41#	    42	    42#	    43	    43#	    44	    44#	    45
	    45#	    46	    46#	    47	    47#	    48	    48#	   163
YCHR	   106#
UUO     SEP 17, 1974	MACRO %53B(1156)-1 12:06  8-Mar-85 Page 1
UUOFLG	MAC	15-Oct-73 17:37


Macro/Opdef cross reference

CHARDO	    50#	    69
CHRDEF	    67#	    69
CLRBFI	   683
CLRIN	    42#	   768
DCR	    40#	   325	   365
DISABL	    46#	   573	   741
ENABLE	    45#	   575	   744
ERROR	    44#	   168	   572	   601	   648
GCD	    36#	   474	   482	   486	   490
GCI	    35#	   225
GETTAB	   748
INCHRW	   584
INCHWL	   581
OPD	    28#	    32	    33	    34	    35	    36	    37	    38	    39	    40	    41	    42	    43	    44
	    45	    46	    47	    48
OUTCHR	   460	   461	   462	   476	   478	   484	   496	   537	   546	   605	   628
RDLINE	    34#	   223
SETTTY	    43#	   382	   743
SSKE	    47#
TAB	    48
TCI	    32#	   822
TCL	    33#
TCO	    39#	   280	   676	   789	   801	   809	   811
TYPE	    41#	   767
WCD	    38#
WCI	    37#	   426	   518.v/