SA10 - DIAGNOSTIC FOR SYSTEMS CONCEPTS SA-10 IBM-TO-DEC SUBSYSTEM ADAPTOR	VER 1	MACRO %53B(1155)-2 14:34 14-Feb-86 Page 1
SA10N	MAC	17-Sep-74 22:01

     1			000001		TYMVER=1
     2			000001		SUBVER=A
     3
     4					DEFINE	NAME (X,Y)<
     5					TITLE SA10 - DIAGNOSTIC FOR SYSTEMS CONCEPTS SA-10 IBM-TO-DEC SUBSYSTEM ADAPTOR	VER X,Y>
     6
     7					LALL
     8
     9					NAME	\TYMVER,\SUBVER^
    10					TITLE SA10 - DIAGNOSTIC FOR SYSTEMS CONCEPTS SA-10 IBM-TO-DEC SUBSYSTEM ADAPTOR	VER 1,1^
    11
    12	000137				LOC	137
    13	000137	000001	000001		TYMVER,,SUBVER
    14					SALL
    15
    16			000000		BASE==0	;DEFAULT START OF STATUS BLOCK
    17			000000		IDEV==0	;DEFAULT ADDRESS OF DISK CONTROLLER
    18					IFNDEF NPACKS,NPACKS==^D32	;MAX # OF DRIVES ON DISK CONTROLLER
    19			000000		TUNIT==0	;DEFAULT ADDRESS OF TAPE CONTROLLER
    20			000274		SA0==274	;DEFAULT DEVICE NUMBER OF SA-10
    21			000000		EPT==0
    22			000000		UPT==0
    23			000100		LPDL==100	;LENGTH OF PDL
    24			000777		MAPPG==777	;EXEC PAGE FOR MAPPED ADDRESSING
    25		777777	777777		LNKBUG==-1	;NONZERO TO KLUDGE AROUND LINK'S INABILITY TO LOAD
    26							;ABSOLUTE ASSEMBLIES CORRECTLY
    27			000140		IFN LNKBUG,<LNKORG==140	;LINK'S INITIAL L.C.>
    28			000005		LNPAKS==^D36-^L<NPACKS-1>
    29
    30			000001		A=1
    31			000002		B=2
    32			000003		C=3
    33			000004		D=4
    34			000005		E=5
    35			000006		F=6
    36			000007		G=7
    37			000010		H=10
    38			000011		I=11
    39			000012		J=12
    40			000013		K=13
    41			000014		L=14
    42			000015		DD=15
    43			000016		BF=16		; BUSY FLAGS, FOR LIGHT WATCHERS. B0-7 MEAN DRIVE
    44							;  0-7 WAITING FOR DEVICE END. RH IS MOST RECENT INT DV
    45			000017		P=17		; PUSHDOWN POINTER
    46
    47					IFNDEF CV,<
    48					CV==1>		; 0 FOR B, 1 FOR C (HARDWARE POINTER LAYOUTS)
    49					IFLE CV,<
    50					CNTSFT==2>	;SHIFT IN LH FOR COUNT
    51					IFG CV,<
    52			000006		CNTSFT==6>	; ..
    53			000001		APRCH==1	;PI CH FOR TIME, PAR ERR, AND NXM
    54			000002		SA0CH==2	;PI CHANNEL IN DISK ROUTINE
    55			000020		NBF==20		; # OF BYTES IN RING BUFFER (FIFO) IN EACH CHANNEL
SA10 - DIAGNOSTIC FOR SYSTEMS CONCEPTS SA-10 IBM-TO-DEC SUBSYSTEM ADAPTOR	VER 1	MACRO %53B(1155)-2 14:34 14-Feb-86 Page 1-1
SA10N	MAC	17-Sep-74 22:01

    56			000010		NRETRY==^D8	; TIMES TO REREAD A CORRECTABLE DATA CHECK
    57			000100		NBADSP==100	; NUMBER OF BADSPOTS TO REMEMBER
    58
    59					EXTERN CONFIG	;CONFIG IS WITH UC
    60					INTERN CV	;CHECK AGREEMENT WITH MICROCODE
SA10 - DIAGNOSTIC FOR SYSTEMS CONCEPTS SA-10 IBM-TO-DEC SUBSYSTEM ADAPTOR	VER 1	MACRO %53B(1155)-2 14:34 14-Feb-86 Page 2
SA10N	MAC	17-Sep-74 22:01

    61					;MACROS FOR WORD POINERS DEPENDING ON WHICH KIND OF SA10 (B OR C)
    62
    63					IFLE CV,<
    64						DEFINE IOW(CT,ADR)
    65						<-CT*4,,ADR>
    66						DEFINE IOWC(CT,ADR)
    67						<400000-CT*4,,ADR>>
    68					IFG CV,<
    69						DEFINE IOW(CT,ADR)
    70						<-CT*100,,ADR>
    71						DEFINE IOWC(CT,ADR)
    72						<400000-CT*100,,ADR>>
    73
    74					;BITS FOR CONO
    75			400000		RSTSA==400000	;RESET WHOLE SCHMEER, START CLOCK
    76			200000		CLMERR==200000	;CLEAR MEMORY ERROR FLAGS
    77			001000		SASTEP==1000	;STOP CLOCK IF RUNNING; STEP IT IF STOPPED
    78			001040		SACGO==1040	;START CLOCK
    79			000300		RSTCH==300	;RESET CHANNEL SPECIFIED BY 10 AND 20 BITS
    80			000400		CLBSY==400	;CLEAR BUSY FLAG OF CHANNEL . . .
    81			000440		STBSY==440	;SET BUSY FLAG OF CHANNEL . . .
    82			000500		CLSRQ==500	;CLEAR STATUS REQUEST FLAG OF CHANNEL . . .
    83			000540		STSRQ==540	;SET STATUS REQUEST FLAG OF CHANNEL . . .
    84			000600		CLSTF==600	;CLEAR STATUS FLAG OF CHANNEL . . .
    85			000640		STSTF==640	;SET STATUS FLAG OF CHANNEL . . .
    86			000700		CLPIE==700	;CLEAR PI ENABLE OF CHANNEL . . .
    87			000740		STPIE==740	;SET PI ENABLE OF CHANNEL . . .
    88
    89					;CERTAIN OF ABOVE BITS ALSO SELECT WHAT DIAGNOSTIC WORD WILL
    90					;BE READ BY THE NEXT DATAI TO BE EXECUTED, AS FOLLOWS:
    91
    92			000000		RDCCI==0	;READ CHANNEL SELECTED (BITS 16, 17); CON-
    93							;TENTS OF CBUS (BITS 18-25); MICRO-PROGRAM
    94							;COUNTER (BITS 26-35)
    95			000010		RDMA==10	;READ MEMORY ADDRESS REGISTER (BITS 16-35)
    96			000020		RDMBL==20	;READ CHANNEL REFERENCING MEMORY (BITS 16,
    97							;17); LEFT HALF OF MEMORY BUFFER (BITS 18-
    98							;35).
    99			000030		RDMBR==30	;READ PARITY BIT OF MEMORY BUFFER (BIT 17);
   100							;RIGHT HALF OF MEMORY BUFFER (BITS 18-35)
   101			000040		RDCONI==40	;READ THE "CLOCK RUNNING" BIT (BIT 16); THE
   102							;"MEMORY SUBROUTINE BUSY" BIT (BIT 17); AND
   103							;THE SAME DATA SENSED BY CONI (BITS 18-35)
   104					;CONTINUED ON NEXT PAGE
   105
SA10 - DIAGNOSTIC FOR SYSTEMS CONCEPTS SA-10 IBM-TO-DEC SUBSYSTEM ADAPTOR	VER 1	MACRO %53B(1155)-2 14:34 14-Feb-86 Page 3
SA10N	MAC	17-Sep-74 22:01

   106			000050		RDBITS==50	;READ SOME MISCELLANEOUS BITS:
   107							;BITS 16 AND 17 SPECIFY WHICH CHANNEL IS
   108							;USING THE MEMORY
   109			400000			WRRQ==400000	;CURRENT MEM CYCLE IS A WRITE
   110			200000			MUXACK==200000	;ACKNOWLEDGE FROM MEMORY PORT
   111			100000			MEMACK==100000	;ACKNOWLEDGE FROM MEMORY
   112			040000			MBUSDN==40000	;MEMORY BUS FINISHED
   113			020000			MDNSYN==20000	;MEMORY DONE SYNC
   114			010000			RDDIAG==10000
   115			004000			IOFWR==4000
   116			002000			CHRST==2000
   117			001000			RESET==1000
   118			000400			BRANCH==400	;THE MICRO-INSTRUCTION WHICH IS
   119								;ABOUT TO BE EXECUTED IS GOING TO BRANCH
   120					;LOW 3 BITS ARE PI CHANNEL ASSIGNMENT
   121
   122					;BITS FOR CONI, CONSZ, CONSO
   123			400000		PIRQ==400000	;THIS SA-10 IS REQUESTING AN INTERRUPT
   124			200000		PARERR==200000	;PARITY ERROR IN SOME WORD (COMMAND OR
   125							;DATA) READ FROM MEMORY
   126			100000		NXM==100000	;SA-10 TRIED TO REFERENCE NON-EX MEMORY
   127			040000		PIE0==40000	;PI ENABLE FLAG FOR CHANNEL 0
   128			020000		PIE1==20000	; . . . CHANNEL 1
   129			010000		PIE2==10000	; . . . CHANNEL 2
   130			004000		PIE3==4000	; . . . CHANNEL 3
   131			002000		BSY0==2000	;BUSY FLAG FOR CHANNEL 0
   132			001000		BSY1==1000	; . . . CHANNEL 1
   133			000400		BSY2==400	; . . . CHANNEL 2
   134			000200		BSY3==200	; . . . CHANNEL 3
   135			000100		STF0==100	;STATUS FLAG FOR CHANNEL 0
   136			000040		STF1==40	; . . . CHANNEL 1
   137			000020		STF2==20	; . . . CHANNEL 2
   138			000010		STF3==10	; . . . CHANNEL 3
   139					;LOW 3 BITS ARE PI CHANNEL ASSIGNMENT
   140
   141					;DEFS FOR TAPE
   142			002000		TRECL==2000	; RECORD LENGTH ON TAPE
   143
SA10 - DIAGNOSTIC FOR SYSTEMS CONCEPTS SA-10 IBM-TO-DEC SUBSYSTEM ADAPTOR	VER 1	MACRO %53B(1155)-2 14:34 14-Feb-86 Page 4
SA10N	MAC	17-Sep-74 22:01

   144					DEFINE LOOP(LOC)
   145					<	XCT	RDSWS		;GO GET SWITCHES
   146						TLNN	DD,40000
   147						JRST .+4
   148						PUSHJ P,CHKCNC
   149						JRST CI0
   150						JRST LOC
   151					>
   152
   153					DEFINE SLOOP
   154					<	PUSHJ P,CHKCNC
   155						JRST CI0
   156					>
   157					DEFINE MCONO(DEV,DAT)
   158					<	MOVEI DD,DAT
   159						XCT DCONO
   160					>
   161
   162					DEFINE MCONSZ(DEV,DAT)
   163					<	XCT DCONI
   164						TRNE DD,DAT
   165					>
   166					DEFINE MCONSO(DEV,DAT)
   167					<	XCT DCONI
   168						TRNN DD,DAT
   169					>
   170					DEFINE MDATSZ(DEV,DAT)
   171					<	XCT DDATAI
   172						TRNE DD,DAT
   173					>
   174					DEFINE MDATSO(DEV,DAT)
   175					<	XCT DDATAI
   176						TRNN DD,DAT
   177					>
   178					DEFINE MDATAO(DEV,DAT)
   179					<	MOVE DD,DAT
   180						XCT DDATAO
   181					>
   182
   183					DEFINE MDATAI(DEV,DAT)
   184					<	XCT DDATAI
   185						MOVEM DD,DAT
   186					>
   187
   188					DEFINE MCONI(DEV,DAT)
   189					<	XCT DCONI
   190						MOVEM DD,DAT
   191					>
   192
   193					DEFINE PIRP(A,B,C)<IRP B,<A'B'C>>
   194
   195					;SOME 3330 COMMANDS
   196			000007		SEEK==7
   197			000061		SCHIDE==61
   198			000006		RDDATA==6
SA10 - DIAGNOSTIC FOR SYSTEMS CONCEPTS SA-10 IBM-TO-DEC SUBSYSTEM ADAPTOR	VER 1	MACRO %53B(1155)-2 14:34 14-Feb-86 Page 4-1
SA10N	MAC	17-Sep-74 22:01

   199			000005		WRDATA==5
   200
SA10 - DIAGNOSTIC FOR SYSTEMS CONCEPTS SA-10 IBM-TO-DEC SUBSYSTEM ADAPTOR	VER 1	MACRO %53B(1155)-2 14:34 14-Feb-86 Page 5
SA10N	MAC	17-Sep-74 22:01

   201					;V CODE PARAMETERS
   202			001461		VRWL==1461	;RECORD LENGTH (WDS) FOR RELIABILITY TEST
   203
   204					;TESTER COMMANDS
   205			000004		SENSE==4
   206			000003		NOP==3
   207			000002		RFIX==2
   208			000011		DSCI==11
   209			000012		PARE==12
   210			000007		WAIT==7
   211			000017		REST==17
   212			000016		RETRYR==16
   213			000001		WPAT==1
   214			000006		RPAT==6
   215			000005		CPAT==5
   216			000015		CPATS==15
   217			000013		SETCT==13
SA10 - DIAGNOSTIC FOR SYSTEMS CONCEPTS SA-10 IBM-TO-DEC SUBSYSTEM ADAPTOR	VER 1	MACRO %53B(1155)-2 14:34 14-Feb-86 Page 6
SA10N	MAC	17-Sep-74 22:01

   218					;PROCESSOR AND BASIC I/O DEFS
   219
   220					;LINEPRINTER DEFS.
   221			000124		LPT==124		;DEVICE CODE
   222
   223					;KI10 DEFS
   224			004000		IP.50H==(1B6)	;POWER LINE IS 50 HERTZ
   225			002000		IP.MNM==(1B7)	;MARGIN ENABLE SWITCH IS ON
   226
   227					;KL10 DEFS
   228		701540	000000		OPDEF SWPUA[701540,,]	;SWEEP CACHE, UNLOADING ALL PAGES
   229		700000	000000		OPDEF APRID[BLKI APR,]	;READ APR SERIAL #, MICROCODE VERSION, ETC.
   230
   231					;DTE AND KL10 CONSOLE PROG DEFS
   232			000200		DTE==200	;DEVICE CODE OF DTE
   233			020000		 TO11DB==1B22	;DOORBELL TO KICK 11
   234			000144		DTEEPW=144	;EXAMINE PROTECTION WD
   235			000444		DTEFLG=444	;DONE FLAG FOR CMDS TO 11
   236			000450		DTEF11=450	;DATA FROM 11
   237			000451		DTECMD=451	;COMMAND TO 11
   238			004000		 .DTMTO==10B27	;"MONITOR" TYPEOUT
   239			004400		 .DTMMC==11B27	;SET "MONITOR CONSOLE MODE" (WHATEVER THAT IS)
   240			003400		 .DTRSW==7B27	;TELL PDP11 WE WANT THE SWITCHES
   241			000455		DTEMTD=455	;FLAG FOR TYPEOUT COMPLETED
   242			000456		DTEMTI=456	;FLAG FOR TYPEIN PRESENT (IN DTEF11)
   243
   244					;KL10 INTERVAL TIMER DEFS
   245			000020		TIM==20		;INTERVAL TIMER DEV CODE
   246					 ;CONO BITS
   247			400000		 TO.CIT==1B18	;CLEAR TIMER (DOESN'T CLEAR DONE)
   248			040000		 TO.SIT==1B21	;START TIMER (STOP IF 0)
   249			020000		 TO.CTD==1B22	;CLEAR TIMER DONE
   250			007777		 TO.PRF==7777	;PERIOD REGISTER
   251					 ;CONI BITS
   252		007777	000000		 TI.INF==7777B17;TIMER REGISTER (COUNTS @ 100KHZ MOD PERIOD)
   253			040000		 TI.TIO==1B21	;TIMER ON
   254			020000		 TI.ITD==1B22	;TIMER DONE (SET EACH PERIOD)
   255			010000		 TI.TOV==1B23	;TIMER OVERFLOW (????)
   256			007777		 TI.PRF==7777	;PERIOD REGISTER
   257			000024		MTR==24		;ACCOUNTING METER DEV CODE
   258					 ;NOTE THIS CONTAINS PIA FOR INTERVAL TIMER, OTHER BITS FOR ACCOUNTING
   259			000514		.EPTII==514	;INTERRUPTS ALWAYS USE EPT LOC 514 REGARDLESS OF CHANNEL
SA10 - DIAGNOSTIC FOR SYSTEMS CONCEPTS SA-10 IBM-TO-DEC SUBSYSTEM ADAPTOR	VER 1	MACRO %53B(1155)-2 14:34 14-Feb-86 Page 7
SA10N	MAC	17-Sep-74 22:01

   260					;TOPS-10 FILE SYSTEM DEFS
   261			000200		BLKSIZ==200	;SIZE OF DATA RECORD (WDS)
   262
   263					;HOME BLOCK DEFS
   264			000001		LBNHOM==1	;LOGICAL BLK # OF FIRST HOME BLOCK
   265			000012		LB2HOM==^D10	;SAME FOR SECOND
   266
   267					;BAT BLOCK DEFS
   268			000001		LBOBAT==1	;OFFSET FROM HOME BLOCKS TO BAT BLOCKS
   269			000002		BATBK0==LBNHOM+LBOBAT
   270			000013		BATBK1==LB2HOM+LBOBAT
   271					 ;WORDS IN BAT BLOCKS
   272			000000		 BAFNAM==0	;SHOULD HAVE SIXBIT /BAT/
   273			000001		 BAFFIR==1	;AOBJN PNTR TO AREA FOR ENTRIES
   274			000002		 BAFNBS==2	;<# BAD BLKS (DIAG)>B8+<# BAD REGIONS (DIAG)>B17+<DEV CODE>B26
   275			000003		 BAFCNT==3	;# NEW REGIONS ADDED BY MONITOR
   276			000004		 BAFREG==4	;BEGINNING OF BAD REGION TABLE
   277					  ;BAT ENTRY DEFS
   278			000000		  BAFNBB==0	;<# BAD BLKS-1>B8+<1_UNIT #>B17+<KONT #>B20+<APR SERIAL>B35+
   279					   ;BITS IN WD 0
   280			040000		   BAPNTP==1B21	;ON FOR NEW TYPE ENTRY
   281			000001		  BAFELB==1	;OLD FORMAT (BAPNTP=0): LH ERROR "CONI", RH FIRST LBN
   282							;NEW FORMAT (BAPNTP=1): BITS 0-2 FORMAT VERSION
   283			000000		   BAFVUN==0	;INTERNAL CODE FOR UNKNOWN VERSION
   284			000001		   BAFVOL==1	;INTERNAL CODE FOR OLD FORMAT
   285			000002		   BAFVOF==2	;OFFSET BETWEEN NEW FORMAT VERSION & INTERNAL VERSION CODE
   286			000002		   BAFVMX==2	;HIGHEST (INTERNAL) VERSION IMPLEMENTED
   287							;VERSION 0: BITS 3-5 ERROR TYPE FLAGS, BITS 6-35 FIRST LBN
   288			040000		   BAPOTR==(1B3)	;ERROR OTHER THAN DATA OR HEADER
   289			020000		   BAPDTR==(1B4)	;DATA ERROR
   290			010000		   BAPHDR==(1B5)	;HEADER ERROR
   291			000176		 BAFCOD==BLKSIZ-2	;WORD WITH CODE FOR CONSISTENCY CHECK
   292			606060		  CODBAT==606060	;PROPER CONTENTS OF BAFCOD
   293			000177		 BAFSLF==BLKSIZ-1	;SHOULD CONTAIN LBN OF THIS BAT BLK
   294		777777	777606		 MBRMAX==BAFREG-BAFCOD	;- MAX # WDS FOR ENTRIES
   295
   296			000014		BLKSKP==BATBK1+1	;BLOCKS TO AVOID CLOBBERING
SA10 - DIAGNOSTIC FOR SYSTEMS CONCEPTS SA-10 IBM-TO-DEC SUBSYSTEM ADAPTOR	VER 1	MACRO %53B(1155)-2 14:34 14-Feb-86 Page 8
SA10N	MAC	17-Sep-74 22:01

   297	030000				LOC 30000		;ABS ASSEMBLY FOR NICER LISTING
   298
   299					;LOW CORE TRANSFER VECTOR
   300	030000	254 00 00 00 044262 		JRST BEGIN	;NORMAL ENTRY
   301	030001	254 00 0 00 044527 		JRST DDTQ
   302	030002	254 00 0 00 044300 		JRST CI0	;REENTER COMMAND INTERPRETER
   303
   304					;HERE TO RUN DATA RELIABILITY TEST UNTIL KEY STRUCK
   305	030003	200 17 0 00 104043 	VREL:	MOVE P,[-LPDL,,PDL-1]
   306	030004	260 17 0 00 042440 	VREL1:	PUSHJ P,VR	;DO THE TEST ONCE
   307	030005	260 17 0 00 052642 		PUSHJ P,CHKCNC
   308	030006	254 00 0 00 000000*		JRST DDT	;STOP WHEN CHAR STRUCK
   309	030007	254 00 0 00 030004 		JRST VREL1	;AND AGAIN
   310
   311					;CHECK DATA TRANSFER TIMING
   312	030010	402 00 0 00 030023 	VTIME:	SETZM VTIMEC
   313	030011	200 17 0 00 104043 		MOVE P,[-LPDL,,PDL-1]
   314	030012	211 01 0 00 000012 		MOVNI A,12
   315	030013	202 01 0 00 044343 		MOVEM A,BEGINC
   316	030014	260 17 0 00 042440 	VTIM1:	PUSHJ P,VR
   317	030015	355 00 0 00 044343 		AOSGE BEGINC
   318	030016	254 00 0 00 030014 		JRST VTIM1
   319	030017	200 05 0 00 030023 		MOVE E,VTIMEC
   320						MOVEI C,[ASCIZ /
   321					COUNT=%E
   322	030020	201 03 0 00 104044 	/]
   323	030021	260 17 0 00 060373 		PUSHJ P,STYO
   324	030022	254 00 0 00 030006*		JRST DDT
   325
   326	030023	000000	000000		VTIMEC:	0
SA10 - DIAGNOSTIC FOR SYSTEMS CONCEPTS SA-10 IBM-TO-DEC SUBSYSTEM ADAPTOR	VER 1	MACRO %53B(1155)-2 14:34 14-Feb-86 Page 9
SA10N	MAC	17-Sep-74 22:01

   327					;HERE TO RUN THROUGH THE TESTS
   328	030024	200 17 0 00 104043 	V0:	MOVE P,[-LPDL,,PDL-1]
   329	030025	201 01 0 00 104047 	V1:	MOVEI A,[ASCIZ /*SYSTEM RESET /]
   330	030026	202 01 0 00 043233 		MOVEM A,VTTPTR
   331	030027	201 15 0 00 400000 		MCONO SA0,RSTSA
   332	030030	256 00 0 00 060621
   333	030031	260 17 0 00 042641 		PUSHJ P,VSTAT1	;STATUS WD 1 TO D
   334	030032	316 04 0 00 104052 		CAMN D,[400526,,520000]
   335	030033	254 00 0 00 030036 		JRST V2	;OK
   336	030034	201 03 0 00 104053 	V1X:	MOVEI C,[ASCIZ /STATUS=%D/]
   337	030035	254 00 0 00 042672 		JRST VEPNT
   338
   339	030036	201 01 0 00 104055 	V2:	MOVEI A,[ASCIZ /*ADR COMPL /]
   340	030037	202 01 0 00 043233 		MOVEM A,VTTPTR
   341	030040	201 05 0 00 000000 		MOVEI E,0	;WILL RUN THROUGH ADDRESSES
   342	030041	137 05 0 00 104060 	V2A:	DPB E,[141000,,V2P]
   343	030042	137 05 0 00 104061 		DPB E,[141000,,V2V]
   344	030043	460 04 0 00 000005 		SETCM D,E	;COMPLEMENT OF ADDRESS EXPECTED
   345	030044	137 04 0 00 104062 		DPB D,[241000,,V2V]
   346	030045	201 01 0 00 042714 		MOVEI A,V2P
   347	030046	260 17 0 00 042626 		PUSHJ P,VRUN	;RUN CHAN PGM
   348	030047	316 04 0 00 042716 		CAMN D,V2V	;CHECK RESULTING STATUS WD 1
   349	030050	254 00 0 00 030053 		JRST V2B	;IF OK
   350	030051	201 03 0 00 104063 		MOVEI C,[ASCIZ /SENT %E, STATUS %D/]
   351	030052	254 00 0 00 042672 		JRST VEPNT
   352	030053	431 05 0 00 000377 	V2B:	XORI E,377	;CHANGE LOTS OF BITS
   353	030054	602 05 0 00 000200 		TRNE E,200
   354	030055	254 00 0 00 030041 		JRST V2A
   355	030056	306 05 0 00 000124 		CAIN E,124	;AVOID ADDRESSES HEX 55 AND AA
   356	030057	271 05 0 00 000001 		ADDI E,1
   357	030060	302 05 0 00 000177 		CAIE E,177
   358	030061	344 05 0 00 030041 		AOJA E,V2A
SA10 - DIAGNOSTIC FOR SYSTEMS CONCEPTS SA-10 IBM-TO-DEC SUBSYSTEM ADAPTOR	VER 1	MACRO %53B(1155)-2 14:34 14-Feb-86 Page 10
SA10N	MAC	17-Sep-74 22:01

   359	030062	201 01 0 00 104067 	V3:	MOVEI A,[ASCIZ /*SELECT ERR /]
   360	030063	202 01 0 00 043233 		MOVEM A,VTTPTR
   361	030064	201 05 0 00 000252 		MOVEI E,252	;AA
   362	030065	137 05 0 00 104060 		DPB E,[141000,,V2P]	;INTO THE NOP CHAN PGM
   363	030066	201 01 0 00 042714 		MOVEI A,V2P
   364	030067	260 17 0 00 042626 		PUSHJ P,VRUN
   365	030070	312 04 0 00 104072 		CAME D,[300002,,520000]	;SEL ERR?
   366	030071	254 00 0 00 030034 		JRST V1X	;IF NOT
   367	030072	201 01 0 00 104073 	V4:	MOVEI A,[ASCIZ /*RFIX /]
   368	030073	202 01 0 00 043233 		MOVEM A,VTTPTR
   369	030074	201 01 0 00 042717 		MOVEI A,V4P
   370	030075	260 17 0 00 042626 		PUSHJ P,VRUN
   371	030076	312 04 0 00 104075 		CAME D,[61250000]
   372	030077	254 00 0 00 030034 		JRST V1X
   373	030100	201 06 0 00 000000 		MOVEI F,0
   374	030101	200 04 0 06 043024 	V41:	MOVE D,V4DAT(F)
   375	030102	200 05 0 06 042722 		MOVE E,V4TAB(F)
   376	030103	316 04 0 00 000005 		CAMN D,E
   377	030104	254 00 0 00 030107 		JRST V42
   378	030105	201 03 0 00 104076 		MOVEI C,[ASCIZ /WORD INDEX %F SHOULD BE %D, READ %E/]
   379	030106	254 00 0 00 042672 		JRST VEPNT
   380	030107	302 06 0 00 000077 	V42:	CAIE F,77
   381	030110	344 06 0 00 030101 		AOJA F,V41
   38211	260 17 0 00 042440 	V5:	PUSHJ P,VR	;ONE PASS OF DATA RELIABILITY
   383	030112	201 01 0 00 104106 	V6:	MOVEI A,[ASCIZ /*DSCI /]
   384	030113	202 01 0 00 043233 		MOVEM A,VTTPTR
   385	030114	201 01 0 00 043124 		MOVEI A,V6P
   386	030115	260 17 0 00 042626 		PUSHJ P,VRUN
   387	030116	200 05 0 00 104110 		MOVE E,[220001,,250000]
   388	030117	260 17 0 00 043215 		PUSHJ P,VV6	;CHECK TWO SUCCESSIVE STATUSES
   389	030120	201 01 0 00 104111 		MOVEI A,[ASCIZ /*SEL RES /]
   390	030121	202 01 0 00 043233 		MOVEM A,VTTPTR
   391	030122	201 15 1 00 060747 		MCONO SA0,@SELRSC
   392	030123	256 00 0 00 060621
   393	030124	260 17 0 00 042641 		PUSHJ P,VSTAT1
   394	030125	200 05 0 00 104113 		MOVE E,[220526,,520000]
   395	030126	260 17 0 00 043215 		PUSHJ P,VV6	;CHECK TWO STATUSES AGAIN
SA10 - DIAGNOSTIC FOR SYSTEMS CONCEPTS SA-10 IBM-TO-DEC SUBSYSTEM ADAPTOR	VER 1	MACRO %53B(1155)-2 14:34 14-Feb-86 Page 11
SA10N	MAC	17-Sep-74 22:01

   396	030127	201 01 0 00 104114 	V7:	MOVEI A,[ASCIZ /*PARE /]
   397	030130	202 01 0 00 043233 		MOVEM A,VTTPTR
   398	030131	201 01 0 00 043126 		MOVEI A,V7P
   399	030132	260 17 0 00 042626 		PUSHJ P,VRUN
   400	030133	312 04 0 00 104116 		CAME D,[40061,,250000]	;BUS IN PAR ERR
   401	030134	254 00 0 00 030034 		JRST V1X
   402	030135	201 01 0 00 104117 	V8:	MOVEI A,[ASCIZ /*SHORT COUNT /]
   403	030136	202 01 0 00 043233 		MOVEM A,VTTPTR
   404	030137	201 01 0 00 043132 		MOVEI A,V8P1
   405	030140	260 17 0 00 042626 		PUSHJ P,VRUN
   406	030141	312 04 0 00 104122 		CAME D,[4061,,250000]	;LENGTH ERROR
   407	030142	254 00 0 00 030034 		JRST V1X
   408	030143	200 04 1 00 060742 		MOVE D,@CBASE+2	;SECOND STATUS WORD
   409	030144	607 04 0 00 777700 		TLNN D,777700
   410	030145	254 00 0 00 030151 		JRST V85
   411	030146	201 06 0 00 000000 		MOVEI F,0
   412	030147	201 03 0 00 104123 	V84:	MOVEI C,[ASCIZ /RESIDUAL CT=%D, SHOULD BE %F/]
   413	030150	254 00 0 00 042672 		JRST VEPNT
   414	030151	201 01 0 00 104131 	V85:	MOVEI A,[ASCIZ /*LONG COUNT /]
   415	030152	202 01 0 00 043233 		MOVEM A,VTTPTR
   416	030153	201 01 0 00 043135 		MOVEI A,V8P2
   417	030154	260 17 0 00 042626 		PUSHJ P,VRUN
   418	030155	312 04 0 00 104122 		CAME D,[4061,,250000]	;LENGTH ERR
   419	030156	254 00 0 00 030034 		JRST V1X
   420	030157	200 04 1 00 060742 		MOVE D,@CBASE+2
   421	030160	135 05 0 00 104134 		LDB E,[301400,,D]
   422	030161	201 06 0 00 007777 		MOVEI F,7777
   423	030162	312 05 0 00 000006 		CAME E,F
   424	030163	254 00 0 00 030147 		JRST V84	;IF ERROR
   425	030164	201 01 0 00 104135 	V9:	MOVEI A,[ASCIZ /*METERING UP /]
   426	030165	202 01 0 00 043233 		MOVEM A,VTTPTR
   427	030166	201 01 0 00 042703 		MOVEI A,VRUNSP
   428	030167	260 17 0 00 042622 		PUSHJ P,VRUNA
   429	030170	200 01 0 00 042706 		MOVE A,VSENSE
   430	030171	607 01 0 00 000004 		TLNN A,4	;METERING BIT
   431	030172	254 00 0 00 042671 		JRST VEPNT0	;COMPLAIN
   432	030173	201 01 0 00 104140 		MOVEI A,[ASCIZ /*METERING DOWN /]
   433	030174	202 01 0 00 043233 		MOVEM A,VTTPTR
   434	030175	201 04 0 00 050000 		MOVEI D,50000
   435	030176	367 04 0 00 030176 		SOJG D,.	;30 MS DELAY
   436	030177	402 00 0 00 043236 		SETZM VSENSF
   437	030200	201 01 1 00 060740 		MOVEI A,@CBASE
   438	030201	476 00 0 00 043237 		SETOM VRUNDF
   439	030202	260 17 0 00 042631 		PUSHJ P,VRUN2
   440	030203	200 01 0 00 042706 		MOVE A,VSENSE
   441	030204	603 01 0 00 000004 		TLNE A,4	;SHOULD BE OFF
   442	030205	254 00 0 00 042671 		JRST VEPNT0	;IF FAILED TO GO DOWN
SA10 - DIAGNOSTIC FOR SYSTEMS CONCEPTS SA-10 IBM-TO-DEC SUBSYSTEM ADAPTOR	VER 1	MACRO %53B(1155)-2 14:34 14-Feb-86 Page 12
SA10N	MAC	17-Sep-74 22:01

   443	030206	201 01 0 00 104144 	V10:	MOVEI A,[ASCIZ /*BLOCK MUX START /]
   444	030207	202 01 0 00 043233 		MOVEM A,VTTPTR
   445	030210	200 01 0 00 104150 		MOVE A,[V10PP,,V10P]
   446	030211	251 01 0 00 043147 		BLT A,V10P1-1
   447	030212	200 01 0 00 104151 		MOVE A,[400000,,V10P]
   448	030213	260 17 0 00 042626 		PUSHJ P,VRUN
   449	030214	312 04 0 00 104072 		CAME D,[300002,,520000]	;SEL ERR ON AA
   450	030215	254 00 0 00 030034 		JRST V1X
   451	030216	200 04 0 00 043145 		MOVE D,V10P+1
   452	030217	316 04 0 00 104152 		CAMN D,[BYTE (8)125(4)16(24)V10P1+1]
   453	030220	254 00 0 00 030223 		JRST V105
   454	030221	201 03 0 00 104153 		MOVEI C,[ASCIZ /WAIT STATE %D/]
   455	030222	254 00 0 00 042672 		JRST VEPNT
   456	030223	200 04 0 00 043146 	V105:	MOVE D,V10P+2
   457	030224	316 04 0 00 104156 		CAMN D,[BYTE (8)252(4)17(24)V10P2+1]
   458	030225	254 00 0 00 030230 		JRST V11
   459	030226	201 03 0 00 104157 		MOVEI C,[ASCIZ /STOP STATE %D/]
   460	030227	254 00 0 00 042672 		JRST VEPNT
   461
   462	030230	201 01 0 00 104162 	V11:	MOVEI A,[ASCIZ /*BLOCK MUX RESTART /]
   463	030231	202 01 0 00 043233 		MOVEM A,VTTPTR
   464	030232	201 07 0 00 000000 		MOVEI G,0	;DEV ADDR
   465	030233	137 07 0 00 104166 	V110:	DPB G,[341000,,V11PAD]
   466	030234	200 01 0 00 104167 		MOVE A,[V11PBP,,V11PB]
   467	030235	251 01 0 00 043201 		BLT A,V11PBZ-1
   468	030236	137 07 0 00 104170 		DPB G,[341000,,V11PB+10]
   469	030237	137 07 0 00 104171 		DPB G,[341000,,V111W]
   470	030240	137 07 0 00 104172 		DPB G,[141000,,V11PBN]
   471	030241	205 01 0 00 000060 		MOVSI A,60	;CHAN END ,DEV END
   472	030242	137 07 0 00 104173 		DPB G,[141000,,A]
   473	030243	202 01 0 00 043241 		MOVEM A,V111V
   474	030244	201 03 0 00 000001 		MOVEI C,1
   475	030245	201 02 0 00 043171 		MOVEI B,V11PB
   476	030246	200 06 0 00 000007 	V111:	MOVE F,G
   477	030247	430 06 0 00 000003 		XOR F,C
   478	030250	137 06 0 00 104174 		DPB F,[341000,,0(B)]
   479	030251	242 03 0 00 000001 		LSH C,1
   480	030252	305 03 0 00 000400 		CAIGE C,400
   481	030253	344 02 0 00 030246 		AOJA B,V111
   482	030254	201 01 0 00 043154 		MOVEI A,V11PA
   483	030255	260 17 0 00 042622 		PUSHJ P,VRUNA
   484	030256	200 01 0 00 104175 		MOVE A,[400000,,V11PB]
   485	030257	202 01 1 00 060740 		MOVEM A,@CBASE
   486	030260	402 00 0 00 043236 		SETZM VSENSF
   487	030261	201 15 1 00 060744 		MCONO SA0,@CLSTFC	;CLEAR STATUS FLAG
   488	030262	256 00 0 00 060621
   489	030263	260 17 0 00 042641 		PUSHJ P,VSTAT1	;WAIT FOR STATUS
   490	030264	312 04 0 00 043241 		CAME D,V111V
   491	030265	254 00 0 00 030034 		JRST V1X
   492	030266	200 04 0 00 043201 		MOVE D,V11PB+10
   493	030267	316 04 0 00 043205 		CAMN D,V111W
   494	030270	254 00 0 00 030273 		JRST V118
   495	030271	201 03 0 00 104176 		MOVEI C,[ASCIZ /DEV LIST WD %D/]
   496	030272	254 00 0 00 042672 		JRST VEPNT
   497	030273	305 07 0 00 000377 	V118:	CAIGE G,377
SA10 - DIAGNOSTIC FOR SYSTEMS CONCEPTS SA-10 IBM-TO-DEC SUBSYSTEM ADAPTOR	VER 1	MACRO %53B(1155)-2 14:34 14-Feb-86 Page 12-1
SA10N	MAC	17-Sep-74 22:01

   498	030274	344 07 0 00 030233 		AOJA G,V110
SA10 - DIAGNOSTIC FOR SYSTEMS CONCEPTS SA-10 IBM-TO-DEC SUBSYSTEM ADAPTOR	VER 1	MACRO %53B(1155)-2 14:34 14-Feb-86 Page 13
SA10N	MAC	17-Sep-74 22:01

   499	030275	201 01 0 00 104201 	V12:	MOVEI A,[ASCIZ /*RETRY READ /]
   500	030276	202 01 0 00 043233 		MOVEM A,VTTPTR
   501	030277	402 00 0 00 043214 		SETZM V12PD
   502	030300	200 01 0 00 043206 		MOVE A,V12PP
   503	030301	202 01 0 00 043207 		MOVEM A,V12PT
   504	030302	200 01 0 00 104204 		MOVE A,[400000,,V12PT]
   505	030303	260 17 0 00 042622 		PUSHJ P,VRUNA
   506	030304	200 04 0 00 043214 		MOVE D,V12PD
   507	030305	316 04 0 00 104205 		CAMN D,[BYTE (8)247]
   508	030306	254 00 0 00 030311 		JRST V13
   509	030307	201 03 0 00 104206 		MOVEI C,[ASCIZ /%D/]
   510	030310	254 00 0 00 042672 		JRST VEPNT
   511	030311	254 00 0 00 030022*	V13:	JRST DDT
   512					;HERE TO SET UP TABLES FOR DATA RELIABILITY TEST (DO ONCE)
   513	030312	200 17 0 00 104043 	VPAT:	MOVE P,[-LPDL,,PDL-1]
   514	030313	201 01 0 00 000004 		MOVEI A,4
   515	030314	202 01 0 00 043230 		MOVEM A,VPATC1
   516	030315	202 01 0 00 043231 		MOVEM A,VPATC2
   517	030316	200 03 0 00 104207 		MOVE C,[441000,,VDT]
   518	030317	200 04 0 00 104210 		MOVE D,[441000,,VDBT]
   519	030320	200 05 0 00 104211 		MOVE E,[441000,,VDWT]
   520	030321	200 06 0 00 104212 		MOVE F,[441000,,VDNT]
   521	030322	200 07 0 00 104213 		MOVE G,[441000,,VDCT]
   522	030323	201 01 0 00 007765 		MOVEI A,VRWL*5	;# OF BYTES TO GENERATE
   523	030324	202 01 0 00 043232 		MOVEM A,VPATC0
   524	030325	316 03 0 00 104214 	VPAT1:	CAMN C,[41000,,VDTE-1]
   525	030326	541 03 0 00 030372 		HRRI C,VDT-1	;LOOP THROUGH VDT REPEATEDLY
   526	030327	134 01 0 00 000003 		ILDB A,C	;GET BYTE
   527	030330	136 01 0 00 000004 		IDPB A,D	;PUT IN BYTE-MODE TABLE
   528	030331	375 00 0 00 043230 		SOSGE VPATC1
   529	030332	254 00 0 00 030345 		JRST VPAT10	;FOR BYTE #4
   530	030333	136 01 0 00 000005 		IDPB A,E	;PUT IN WORD-MODE TABLE
   531	030334	136 01 0 00 000006 		IDPB A,F	;PUT IN NATURAL-MODE TABLE
   532	030335	375 00 0 00 043231 	VPAT2:	SOSGE VPATC2
   533	030336	254 00 0 00 030365 		JRST VPAT20	;FOR BYTES #4, #9
   534	030337	136 01 0 00 000007 		IDPB A,G	;PUT IN TAPE-MODE TABLE
   535	030340	373 00 0 00 043232 	VPAT3:	SOSLE VPATC0
   536	030341	254 00 0 00 030325 		JRST VPAT1	;ON TO NEXT BYTE
   537	030342	460 01 0 07 775777 		SETCM A,VDNT-VDCT(G)
   538	030343	202 01 0 07 776000 		MOVEM A,VDNT-VDCT+1(G)
   539	030344	254 00 0 00 030311*		JRST DDT
   540
   541	030345	201 02 0 05 000001 	VPAT10:	MOVEI B,1(E)	;NEXT ADDR IN WORD-MODE TABLE
   542	030346	505 02 0 00 000400 		HRLI B,400
   543	030347	137 01 0 00 000002 		DPB A,B	;SECOND HALF OF BYTE
   544	030350	275 02 0 00 000001 		SUBI B,1
   545	030351	242 01 0 00 777774 		LSH A,-4
   546	030352	137 01 0 00 000002 		DPB A,B	;1ST HALF OF BYTE
   547	030353	505 06 0 00 000400 		HRLI F,400
   548	030354	137 01 0 00 000006 		DPB A,F	;1ST HALF TO NATURAL-MODE TABLE
   549	030355	271 06 0 00 000001 		ADDI F,1
   550	030356	505 06 0 00 400400 		HRLI F,400400
   551	030357	135 01 0 00 000003 		LDB A,C	;GET BYTE BACK
   552	030360	137 01 0 00 000006 		DPB A,F	;2ND HALF, NATURAL MODE
   553	030361	505 06 0 00 401000 		HRLI F,401000
SA10 - DIAGNOSTIC FOR SYSTEMS CONCEPTS SA-10 IBM-TO-DEC SUBSYSTEM ADAPTOR	VER 1	MACRO %53B(1155)-2 14:34 14-Feb-86 Page 13-1
SA10N	MAC	17-Sep-74 22:01

   554	030362	201 02 0 00 000010 		MOVEI B,10
   555	030363	202 02 0 00 043230 		MOVEM B,VPATC1
   556	030364	254 00 0 00 030335 		JRST VPAT2
SA10 - DIAGNOSTIC FOR SYSTEMS CONCEPTS SA-10 IBM-TO-DEC SUBSYSTEM ADAPTOR	VER 1	MACRO %53B(1155)-2 14:34 14-Feb-86 Page 14
SA10N	MAC	17-Sep-74 22:01

   557	030365	505 07 0 00 000400 	VPAT20:	HRLI G,400
   558	030366	137 01 0 00 000007 		DPB A,G
   559	030367	505 07 0 00 001000 		HRLI G,1000
   560	030370	201 02 0 00 000004 		MOVEI B,4
   561	030371	202 02 0 00 043231 		MOVEM B,VPATC2
   562	030372	254 00 0 00 030340 		JRST VPAT3
   563
   564	030373	200 100 040 020 00 	VDT:	BYTE (8)200,100,40,20
   565	030374	010 004 002 001 00 		BYTE (8)10,4,2,1
   566	030375	200 100 040 020 00 		BYTE (8)200,100,40,20
   567	030376	010 004 002 001 00 		BYTE (8)10,4,2,1
   568	030377	177 277 237 257 00 		BYTE (8)177,277,237,257
   569	030400	267 274 275 276 00 		BYTE (8)267,274,275,276
   570	030401	177 277 237 257 00 		BYTE (8)177,277,237,257
   571	030402	267 274 275 276 00 		BYTE (8)267,274,275,276
   572						REPEAT 4,<BYTE (8)0,377,0,377>
   573	030403	000 377 000 377 00
   574	030404	000 377 000 377 00
   575	030405	000 377 000 377 00
   576	030406	000 377 000 377 00
   577						REPEAT 4,<BYTE (8)252,125,252,125>
   578	030407	252 125 252 125 00
   579	030410	252 125 252 125 00
   580	030411	252 125 252 125 00
   581	030412	252 125 252 125 00
   582			000000			VQ==0
   583			000002			VQS==2
   584						REPEAT 2,<
   585							REPEAT 2,<
   586								REPEAT 4,<
   587									BYTE (8)VQ,<377-VQ>,<VQ+1>,<376-VQ>
   588									VQ==VQ+VQS
   589									>
   590								VQ==VQ+VQS+VQS+VQS
   591								VQS==-VQS
   592								>
   593							VQ==20
   594							>
   595	030413	000 377 001 376 00
   596	030414	002 375 003 374 00
   597	030415	004 373 005 372 00
   598	030416	006 371 007 370 00
   599	030417	016 361 017 360 00
   600	030420	014 363 015 362 00
   601	030421	012 365 013 364 00
   602	030422	010 367 011 366 00
   603	030423	020 357 021 356 00
   604	030424	022 355 023 354 00
   605	030425	024 353 025 352 00
   606	030426	026 351 027 350 00
   607	030427	036 341 037 340 00
   608	030430	034 343 035 342 00
   609	030431	032 345 033 344 00
   610	030432	030 347 031 346 00
   611
SA10 - DIAGNOSTIC FOR SYSTEMS CONCEPTS SA-10 IBM-TO-DEC SUBSYSTEM ADAPTOR	VER 1	MACRO %53B(1155)-2 14:34 14-Feb-86 Page 14-1
SA10N	MAC	17-Sep-74 22:01

   612
   613	030433				VDTE:
   614	030433				VDWT:	BLOCK 2001
   615	032434				VDBT:	BLOCK 2001
   616	034435				VDNT:	BLOCK 2001
   617	036436				VDCT:	BLOCK 2001
   618	040437				VDAT:	BLOCK 2001
SA10 - DIAGNOSTIC FOR SYSTEMS CONCEPTS SA-10 IBM-TO-DEC SUBSYSTEM ADAPTOR	VER 1	MACRO %53B(1155)-2 14:34 14-Feb-86 Page 15
SA10N	MAC	17-Sep-74 22:01

   619					;SUBROUTINE FOR DATA RELIABILITY TEST
   620	042440	201 01 0 00 104215 	VR:	MOVEI A,[ASCIZ /DATA PATTERN WRITE /]
   621	042441	202 01 0 00 043233 		MOVEM A,VTTPTR
   622	042442	201 01 0 00 042533 		MOVEI A,VRP1
   623	042443	260 17 0 00 042622 		PUSHJ P,VRUNA
   624	042444	201 01 0 00 104221 		MOVEI A,[ASCIZ /DATA PATTERN READ /]
   625	042445	202 01 0 00 043233 		MOVEM A,VTTPTR
   626	042446	201 01 0 00 042536 		MOVEI A,VRP2
   627	042447	260 17 0 00 042622 		PUSHJ P,VRUNA
   628	042450	205 05 0 00 777740 		MOVSI E,-40
   629	042451	541 05 0 00 030373 		HRRI E,VDT
   630	042452	201 03 0 00 104225 		MOVEI C,[ASCIZ /INITIAL BYTE MODE /]
   631	042453	260 17 0 00 042474 		PUSHJ P,VRV	;VERIFY THE TABLE
   632	042454	201 07 0 00 000000 	VR1:	MOVEI G,0	;MODE #
   633	042455	201 01 0 00 104221 	VR2:	MOVEI A,[ASCIZ /DATA PATTERN READ /]
   634	042456	202 01 0 00 043233 		MOVEM A,VTTPTR	;NEEDED IN LOOP
   635	042457	200 01 0 07 042507 		MOVE A,VR1TR(G)	;RPAT CHAN PGM ADDR
   636	042460	260 17 0 00 042622 		PUSHJ P,VRUNA	;DO THE RPAT
   637	042461	205 05 0 00 776317 		MOVSI E,-VRWL
   638	042462	540 05 0 07 042513 		HRR E,VR1TA(G)	;TABLE PTR
   639	042463	200 03 0 07 042517 		MOVE C,VR1TT(G)	;TEXT PTR
   640	042464	260 17 0 00 042474 		PUSHJ P,VRV	;VERIFY DATA
   641	042465	200 01 0 07 042523 		MOVE A,VR1TX(G)	;TEXT PTR
   642	042466	202 01 0 00 043233 		MOVEM A,VTTPTR
   643	042467	200 01 0 07 042527 		MOVE A,VR1TC(G)	;CPAT CHAN PGM ADDR
   644	042470	260 17 0 00 042622 		PUSHJ P,VRUNA	;DO THE CPAT
   645	042471	315 07 0 00 043242 		CAMGE G,VGMODE
   646	042472	344 07 0 00 042455 		AOJA G,VR2
   647	042473	263 17 0 00 000000 		POPJ P,	;DONE ALL MODES
   648
   649	042474	201 04 0 00 000000 	VRV:	MOVEI D,0
   650	042475	202 03 0 00 043235 		MOVEM C,VRVT	;TEXT PTR
   651	042476	200 06 0 04 040437 	VRV1:	MOVE F,VDAT(D)	;DATA AS READ
   652	042477	312 06 0 05 000000 		CAME F,(E)
   653	042500	254 00 0 00 042504 		JRST VRV4
   654	042501	271 04 0 00 000001 	VRV3:	ADDI D,1
   655	042502	253 05 0 00 042476 		AOBJN E,VRV1
   656	042503	263 17 0 00 000000 		POPJ P,
   657
   658	042504	200 10 0 05 000000 	VRV4:	MOVE H,(E)
   659	042505	200 03 0 00 043235 		MOVE C,VRVT
   660	042506	254 00 0 00 042672 		JRST VEPNT
SA10 - DIAGNOSTIC FOR SYSTEMS CONCEPTS SA-10 IBM-TO-DEC SUBSYSTEM ADAPTOR	VER 1	MACRO %53B(1155)-2 14:34 14-Feb-86 Page 16
SA10N	MAC	17-Sep-74 22:01

   661	042507	000000	042543		VR1TR:	VR1P0
   662	042510	000000	042550			VR1P1
   663	042511	000000	042556			VR1P2
   664	042512	000000	042563			VR1P3
   665	042513	000000	030433		VR1TA:	VDWT
   666	042514	000000	032434			VDBT
   667	042515	000000	034435			VDNT
   668	042516	000000	036436			VDCT
   669	042517	000000	104231		VR1TT:	[ASCIZ /WORD MODE, WORD INDEX %D SHOULD BE %H, READ %F/]
   670	042520	000000	104243			[ASCIZ /BYTE MODE, WORD INDEX %D SHOULD BE %H, READ %F/]
   671	042521	000000	104255			[ASCIZ /NATURAL MODE, WORD INDEX %D SHOULD BE %H, READ %F/]
   672	042522	000000	104267			[ASCIZ /TAPE MODE, WORD INDEX %D SHOULD BE %H, READ %F/]
   673	042523	000000	104301		VR1TX:	[ASCIZ /WORD MODE DATA PATTERN CHECK /]
   674	042524	000000	104307			[ASCIZ /BYTE MODE DATA PATTERN CHECK /]
   675	042525	000000	104315			[ASCIZ /NATURAL MODE DATA PATTERN CHECK /]
   676	042526	000000	104324			[ASCIZ /TAPE MODE DATA PATTERN CHECK /]
   677	042527	000000	042570		VR1TC:	VR1P4
   678	042530	000000	042575			VR1P5
   679	042531	000000	042603			VR1P6
   680	042532	000000	042610			VR1P7
SA10 - DIAGNOSTIC FOR SYSTEMS CONCEPTS SA-10 IBM-TO-DEC SUBSYSTEM ADAPTOR	VER 1	MACRO %53B(1155)-2 14:34 14-Feb-86 Page 17
SA10N	MAC	17-Sep-74 22:01

   681	042533	050 001 125 0000 	VRP1:	BYTE (8)50,WPAT,125
   682	042534	760000	030373			IOW 200,VDT
   683	042535	000000	000000			0
   684	042536	050 013 125 0000 	VRP2:	BYTE (8)50,SETCT,125
   685	042537	777600	042615			IOW 2,VRV0
   686	042540	050 006 125 0000 		BYTE (8)50,RPAT,125
   687	042541	760000	040437			IOW 200,VDAT
   688	042542	000000	000000			0
   689	042543	050 013 125 0000 	VR1P0:	BYTE (8)50,SETCT,125
   690	042544	777600	042616			IOW 2,VR1V0
   691	042545	040 006 125 0000 		BYTE (8)40,RPAT,125
   692	042546	631700	040437			IOW VRWL,VDAT
   693	042547	000000	000000			0
   694	042550	050 013 125 0000 	VR1P1:	BYTE (8)50,SETCT,125
   695	042551	777600	042617			IOW 2,VR1V1
   696	042552	050 006 125 0000 		BYTE (8)50,RPAT,125
   697	042553	000000	040437			IOWC 1000*4,VDAT
   698	042554	547400	041437			IOW <<VRWL-1000>*4>,VDAT+1000
   699	042555	000000	000000			0
   700	042556	050 013 125 0000 	VR1P2:	BYTE (8)50,SETCT,125
   701	042557	777600	042620			IOW 2,VR1V2
   702	042560	140 006 125 0000 		BYTE (8)140,RPAT,125
   703	042561	631700	040437			IOW VRWL,VDAT
   704	042562	000000	000000			0
   705	042563	050 013 125 0000 	VR1P3:	BYTE (8)50,SETCT,125
   706	042564	777600	042621			IOW 2,VR1V3
   707	042565	150 006 125 0000 		BYTE (8)150,RPAT,125
   708	042566	631700	040437			IOW VRWL,VDAT
   709	042567	000000	000000			0
   710	042570	050 013 125 0000 	VR1P4:	BYTE (8)50,SETCT,125
   711	042571	777600	042616			IOW 2,VR1V0
   712	042572	040 015 125 0000 		BYTE (8)40,CPATS,125
   713	042573	631700	030433			IOW VRWL,VDWT
   714	042574	000000	000000			0
   715	042575	050 013 125 0000 	VR1P5:	BYTE (8)50,SETCT,125
   716	042576	777600	042617			IOW 2,VR1V1
   717	042577	050 005 125 0000 		BYTE (8)50,CPAT,125
   718	042600	000000	032434			IOWC 1000*4,VDBT
   719	042601	547400	033434			IOW <<VRWL-1000>*4>,VDBT+1000
   720	042602	000000	000000			0
   721	042603	050 013 125 0000 	VR1P6:	BYTE (8)50,SETCT,125
   722	042604	777600	042620			IOW 2,VR1V2
   723	042605	140 015 125 0000 		BYTE (8)140,CPATS,125
   724	042606	631700	034435			IOW VRWL,VDNT
   725	042607	000000	000000			0
   726	042610	070 013 125 0000 	VR1P7:	BYTE (8)70,SETCT,125
   727	042611	777600	042621			IOW 2,VR1V3
   728	042612	150 005 125 0000 		BYTE (8)150,CPAT,125
   729	042613	631700	036436			IOW VRWL,VDCT
   730	042614	000000	000000			0
   731
   732	042615	000200 0000000 		VRV0:	BYTE (16)200
   733	042616	007135 0000000 		VR1V0:	BYTE (16)<VRWL_<-1>>*11+5
   734	042617	006304 0000000 		VR1V1:	BYTE (16)VRWL*4	;4 BYTES PER WORD IN BYTE MODE
   735	042620	007135 0000000 		VR1V2:	BYTE (16)<VRWL_<-1>>*11+5
SA10 - DIAGNOSTIC FOR SYSTEMS CONCEPTS SA-10 IBM-TO-DEC SUBSYSTEM ADAPTOR	VER 1	MACRO %53B(1155)-2 14:34 14-Feb-86 Page 17-1
SA10N	MAC	17-Sep-74 22:01

   736	042621	007765 0000000 		VR1V3:	BYTE (16)VRWL*5	;5 BYTES PER WORD IN TAPE MODE
SA10 - DIAGNOSTIC FOR SYSTEMS CONCEPTS SA-10 IBM-TO-DEC SUBSYSTEM ADAPTOR	VER 1	MACRO %53B(1155)-2 14:34 14-Feb-86 Page 18
SA10N	MAC	17-Sep-74 22:01

   737					;SUBROUTINE TO RUN CHAN PGM AND VERIFY GOOD ENDING STATUS
   738	042622	260 17 0 00 042626 	VRUNA:	PUSHJ P,VRUN
   739	042623	316 04 0 00 104075 		CAMN D,[61,,250000]	;CHAN END AND DEV END
   740	042624	263 17 0 00 000000 		POPJ P,
   741	042625	254 00 0 00 030034 		JRST V1X	;COMPLAIN
   742
   743					;SUBROUTINE TO RUN CHAN PGM AND RETURN STATUS
   744	042626	402 00 0 00 043236 	VRUN:	SETZM VSENSF
   745	042627	202 01 1 00 060740 	VRUN1:	MOVEM A,@CBASE
   746	042630	402 00 0 00 043237 		SETZM VRUNDF
   747	042631	201 15 1 00 060744 	VRUN2:	MCONO SA0,@CLSTFC	;CLEAR STATUS FLAG
   748	042632	256 00 0 00 060621
   749	042633	201 15 1 00 060743 		MCONO SA0,@STBSYC	;SET GO FLAG
   750	042634	256 00 0 00 060621
   751	042635	331 00 0 00 043237 		SKIPL VRUNDF
   752	042636	254 00 0 00 042641 		JRST VSTAT1
   753	042637	201 04 0 00 001400 		MOVEI D,1400
   754	042640	367 04 0 00 042640 		SOJG D,.	;1 MS DELAY
   755	042641	201 04 0 00 003000 	VSTAT1:	MOVEI D,3000
   756	042642	256 00 0 00 060622 	VSTAT3:	XCT DCONI
   757	042643	350 00 0 00 030023 		AOS VTIMEC	;USED BY VTIME
   758	042644	606 15 0 00 000170 		TRNN DD,170
   759	042645	367 04 0 00 042642 		SOJG D,VSTAT3
   760	042646	323 04 0 00 042667 		JUMPLE D,VSTAT7
   761	042647	200 04 1 00 060741 		MOVE D,@CBASE+1	;GET STATUS WORD # 1
   762	042650	302 01 0 00 042714 		CAIE A,V2P	;IGNORE UNIT CHECK DURING TEST2
   763	042651	607 04 0 00 000010 		TLNN D,10	;UNIT CHECK?
   764	042652	263 17 0 00 000000 		POPJ P,	;ALL OK
   765	042653	332 00 0 00 043236 		SKIPE VSENSF
   766	042654	254 00 0 00 042665 		JRST VSTAT6
   767	042655	202 04 0 00 042701 		MOVEM D,VOSTAT	;SAVE IN VOSTAT BLOCK
   768	042656	200 04 1 00 060742 		MOVE D,@CBASE+2
   769	042657	202 04 0 00 042702 		MOVEM D,VOSTAT+1
   770	042660	476 00 0 00 043236 		SETOM VSENSF
   771	042661	201 01 0 00 042703 		MOVEI A,VRUNSP
   772	042662	260 17 0 00 042627 		PUSHJ P,VRUN1	;RUN SENSE PGM
   773	042663	201 03 0 00 104332 		MOVEI C,[ASCIZ /UNIT CHECK /]
   774	042664	254 00 0 00 042672 		JRST VEPNT	;SENSE DATA IN VSENSE BLOCK
   775	042665	201 03 0 00 104335 	VSTAT6:	MOVEI C,[ASCIZ /CAN'T READ SENSE DATA /]
   776	042666	254 00 0 00 042672 		JRST VEPNT
   777	042667	201 03 0 00 104342 	VSTAT7:	MOVEI C,[ASCIZ /TIMED OUT /]
   778	042670	254 00 0 00 042672 		JRST VEPNT
   779
   780	042671	201 03 0 00 104345 	VEPNT0:	MOVEI C,[ASCIZ /FAILED/]
   781	042672	202 03 0 00 043240 	VEPNT:	MOVEM C,VEPNTV
   782	042673	200 03 0 00 043233 		MOVE C,VTTPTR
   783	042674	260 17 0 00 060373 		PUSHJ P,STYO
   784	042675	200 03 0 00 043240 		MOVE C,VEPNTV
   785	042676	260 17 0 00 060373 	VEPNT8:	PUSHJ P,STYO
   786	042677	260 17 0 00 060372 		PUSHJ P,CR
   787	042700	254 00 0 00 030344*		JRST DDT
   788
   789	042701				VOSTAT:	BLOCK 2
   790
   791	042703	050 004 125 0000 	VRUNSP:	BYTE (8)50,SENSE,125
SA10 - DIAGNOSTIC FOR SYSTEMS CONCEPTS SA-10 IBM-TO-DEC SUBSYSTEM ADAPTOR	VER 1	MACRO %53B(1155)-2 14:34 14-Feb-86 Page 18-1
SA10N	MAC	17-Sep-74 22:01

   792	042704	775000	042706			IOW 30,VSENSE
   793	042705	000000	000000			0
   794	042706				VSENSE:	BLOCK 6
SA10 - DIAGNOSTIC FOR SYSTEMS CONCEPTS SA-10 IBM-TO-DEC SUBSYSTEM ADAPTOR	VER 1	MACRO %53B(1155)-2 14:34 14-Feb-86 Page 19
SA10N	MAC	17-Sep-74 22:01

   795	042714	240 003 0000000 	V2P:	BYTE (8)240,NOP
   796	042715	000000	000000			0
   797	042716	200000	000000		V2V:	200000,,0
   798
   799	042717	050 002 125 0000 	V4P:	BYTE (8)50,RFIX,125
   800	042720	740000	042722			IOW 400,V4TAB
   801	042721	000000	000000			0
   802	042722				V4TAB:	BLOCK 102
   803			000000		V4DAT:	VQ==0
   804						SALL
   805						REPEAT 100,<
   806							BYTE (8)VQ,377-VQ,VQ+1,376-VQ
   807							VQ==VQ+2
   808							>
   809	043024	000 377 001 376 00
   810	043025	002 375 003 374 00
   811	043026	004 373 005 372 00
   812	043027	006 371 007 370 00
   813	043030	010 367 011 366 00
   814	043031	012 365 013 364 00
   815	043032	014 363 015 362 00
   816	043033	016 361 017 360 00
   817	043034	020 357 021 356 00
   818	043035	022 355 023 354 00
   819	043036	024 353 025 352 00
   820	043037	026 351 027 350 00
   821	043040	030 347 031 346 00
   822	043041	032 345 033 344 00
   823	043042	034 343 035 342 00
   824	043043	036 341 037 340 00
   825	043044	040 337 041 336 00
   826	043045	042 335 043 334 00
   827	043046	044 333 045 332 00
   828	043047	046 331 047 330 00
   829	043050	050 327 051 326 00
   830	043051	052 325 053 324 00
   831	043052	054 323 055 322 00
   832	043053	056 321 057 320 00
   833	043054	060 317 061 316 00
   834	043055	062 315 063 314 00
   835	043056	064 313 065 312 00
   836	043057	066 311 067 310 00
   837	043060	070 307 071 306 00
   838	043061	072 305 073 304 00
   839	043062	074 303 075 302 00
   840	043063	076 301 077 300 00
   841	043064	100 277 101 276 00
   842	043065	102 275 103 274 00
   843	043066	104 273 105 272 00
   844	043067	106 271 107 270 00
   845	043070	110 267 111 266 00
   846	043071	112 265 113 264 00
   847	043072	114 263 115 262 00
   848	043073	116 261 117 260 00
   849	043074	120 257 121 256 00
SA10 - DIAGNOSTIC FOR SYSTEMS CONCEPTS SA-10 IBM-TO-DEC SUBSYSTEM ADAPTOR	VER 1	MACRO %53B(1155)-2 14:34 14-Feb-86 Page 19-1
SA10N	MAC	17-Sep-74 22:01

   850	043075	122 255 123 254 00
   851	043076	124 253 125 252 00
   852	043077	126 251 127 250 00
   853	043100	130 247 131 246 00
   854	043101	132 245 133 244 00
   855	043102	134 243 135 242 00
   856	043103	136 241 137 240 00
   857	043104	140 237 141 236 00
   858	043105	142 235 143 234 00
   859	043106	144 233 145 232 00
   860	043107	146 231 147 230 00
   861	043110	150 227 151 226 00
   862	043111	152 225 153 224 00
   863	043112	154 223 155 222 00
   864	043113	156 221 157 220 00
   865	043114	160 217 161 216 00
   866	043115	162 215 163 214 00
   867	043116	164 213 165 212 00
   868	043117	166 211 167 210 00
   869	043120	170 207 171 206 00
   870	043121	172 205 173 204 00
   871	043122	174 203 175 202 00
   872	043123	176 201 177 200 00
   873
   874						XALL
   875
   876	043124	240 011 125 0000 	V6P:	BYTE (8)240,DSCI,125
   877	043125	000000	000000			0
   878
   879	043126	050 012 125 0000 	V7P:	BYTE (8)50,PARE,125
   880	043127	777700	043131			IOW 1,V7DAT^-1*100,,V7DAT^
   881	043130	000000	000000			0
   882	043131	000000	000000		V7DAT:	0
   883
   884	043132	050 002 125 0000 	V8P1:	BYTE (8)50,RFIX,125
   885	043133	740100	042722			IOW 377,V4TAB^-377*100,,V4TAB^
   886	043134	000000	000000			0
   887	043135	050 002 125 0000 	V8P2:	BYTE (8)50,RFIX,125
   888	043136	737700	042722			IOW 401,V4TAB^-401*100,,V4TAB^
   889	043137	000000	000000			0
   890
   891	043140	000 17 00000000 	V10PP:	BYTE (8)0(4)17
   892	043141	125 15 00043150 		BYTE (8)125(4)15(24)V10P1
   893	043142	252 15 00043152 		BYTE (8)252(4)15(24)V10P2
   894	043143	000000	000000			0
   895	043144				V10P:	BLOCK 4
   896	043150	260 007 125 0000 	V10P1:	BYTE (8)260,WAIT,125
   897	043151	000000	000000			0
   898	043152	260 003 252 0000 	V10P2:	BYTE (8)260,NOP,252
   899	043153	000000	000000			0
SA10 - DIAGNOSTIC FOR SYSTEMS CONCEPTS SA-10 IBM-TO-DEC SUBSYSTEM ADAPTOR	VER 1	MACRO %53B(1155)-2 14:34 14-Feb-86 Page 20
SA10N	MAC	17-Sep-74 22:01

   900	043154	050 017 125 0000 	V11PA:	BYTE (8)50,REST,125
   901	043155	777700	043157			IOW 1,V11PAD^-1*100,,V11PAD^
   902	043156	000000	000000			0
   903	043157	000000	000000		V11PAD:	0
   904	043160				V11PBP:	REPEAT 10,<BYTE (8)0(4)16(24)V11PBZ>
   905	043160	000 16 00043202 	BYTE (8)0(4)16(24)V11PBZ
   906	043161	000 16 00043202 	BYTE (8)0(4)16(24)V11PBZ
   907	043162	000 16 00043202 	BYTE (8)0(4)16(24)V11PBZ
   908	043163	000 16 00043202 	BYTE (8)0(4)16(24)V11PBZ
   909	043164	000 16 00043202 	BYTE (8)0(4)16(24)V11PBZ
   910	043165	000 16 00043202 	BYTE (8)0(4)16(24)V11PBZ
   911	043166	000 16 00043202 	BYTE (8)0(4)16(24)V11PBZ
   912	043167	000 16 00043202 	BYTE (8)0(4)16(24)V11PBZ
   913	043170	000 16 00043203 		BYTE (8)0(4)16(24)V11PBN
   914	043171				V11PB:	BLOCK 11
   915	043202	000000	000000		V11PBZ:	0
   916	043203	260 003 0000000 	V11PBN:	BYTE (8)260,NOP
   917	043204	000000	000000			0
   918	043205	000 17 00043205 	V111W:	BYTE (8)0(4)17(24)V11PBN+2
   919
   920	043206	125 15 00043211 	V12PP:	BYTE (8)125(4)15(24)V12P
   921	043207				V12PT:	BLOCK 1
   922	043210	000000	000000			0
   923	043211	050 016 125 0000 	V12P:	BYTE (8)50,RETRYR,125
   924	043212	777700	043214			IOW 1,V12PD^-1*100,,V12PD^
   925	043213	000000	000000			0
   926	043214	000000	000000		V12PD:	0
   927
   928					;SUBROUTINE USED BY V6
   929	043215	316 04 0 00 000005 	VV6:	CAMN D,E
   930	043216	254 00 0 00 043221 		JRST VV62
   931	043217	201 03 0 00 104347 		MOVEI C,[ASCIZ /FIRST STATUS=%D/]
   932	043220	254 00 0 00 042672 		JRST VEPNT
   933	043221				VV62:	MCONO SA0,@CLSTFC	^;CLEAR STATUS FLAG
   934	043221	201 15 1 00 060744 		MOVEI DD,@CLSTFC
   935	043222	256 00 0 00 060621 		XCT DCONO
   936	043223	260 17 0 00 042641 		PUSHJ P,VSTAT1	;WAIT FOR MORE STATUS
   937	043224	316 04 0 00 104052 		CAMN D,[400526,,520000]
   938	043225	263 17 0 00 000000 		POPJ P,
   939	043226	201 03 0 00 104353 		MOVEI C,[ASCIZ /SECOND STATUS=%D/]
   940	043227	254 00 0 00 042672 		JRST VEPNT
   941
   942	043230	000000	000000		VPATC1:	0
   943	043231	000000	000000		VPATC2:	0
   944	043232	000000	000000		VPATC0:	0
   945	043233	000000	000000		VTTPTR:	0
   946	043234	000000	000000		VRVC:	0
   947	043235	000000	000000		VRVT:	0
   948	043236	000000	000000		VSENSF:	0
   949	043237	000000	000000		VRUNDF:	0
   950	043240	000000	000000		VEPNTV:	0
   951	043241	000000	000000		V111V:	0
   952	043242	000000	000003		VGMODE:	3	;SET TO 1 FOR SA-10A, 3 FOR SA-10B
   953
   954					;WIGGLE ADDDRESS BITS AD DIFFERING RATES FOR SCOPING
SA10 - DIAGNOSTIC FOR SYSTEMS CONCEPTS SA-10 IBM-TO-DEC SUBSYSTEM ADAPTOR	VER 1	MACRO %53B(1155)-2 14:34 14-Feb-86 Page 20-1
SA10N	MAC	17-Sep-74 22:01

   955	043243	200 17 0 00 104043 	AWIG:	MOVE P,[-LPDL,,PDL-1]
   956	043244	260 17 0 00 046577 		PUSHJ P,STEP0
   957	043245	201 05 0 00 000000 	AWIG0:	MOVEI E,0
   958	043246	200 03 0 00 000005 	AWIG1:	MOVE C,E
   959	043247	260 17 0 00 046565 		PUSHJ P,LC0CW
   960	043250	201 01 0 00 062260 		MOVEI A,62260
   961	043251	260 17 0 00 046575 		PUSHJ P,C0XCT
   962	043252	646 05 0 00 000001 		TRCN E,1
   963	043253	254 00 0 00 043246 		JRST AWIG1	;WITH BIT 35 ON
   964	043254	271 05 0 00 040000 		ADDI E,40000
   965	043255	602 05 0 00 740000 		TRNE E,740000
   966	043256	254 00 0 00 043246 		JRST AWIG1	;WITH 1 OR MORE BITS 18-21 ON
   967	043257	260 17 0 00 052642 		PUSHJ P,CHKCNC
   968	043260	254 00 0 00 042700*		JRST DDT
   969	043261	254 00 0 00 043245 		JRST AWIG0
   970
   971	043262				VPATCH:	BLOCK 1000
SA10 - DIAGNOSTIC FOR SYSTEMS CONCEPTS SA-10 IBM-TO-DEC SUBSYSTEM ADAPTOR	VER 1	MACRO %53B(1155)-2 14:34 14-Feb-86 Page 21
SA10N	MAC	17-Sep-74 22:01

   972					;NORMAL ENTRY
   973	044262	200 17 0 00 104043 	BEGIN:	MOVE P,[-LPDL,,PDL-1]
   974	044263	260 17 0 00 050164 		PUSHJ P,SETCPU	;DETERMINE TYPE OF CPU
   975	044264	260 17 0 00 050120 		PUSHJ P,SETHI	;FIND HOW MUCH MEMORY
   976	044265	211 01 0 00 000004 		MOVNI A,4
   977	044266	202 01 0 00 044343 		MOVEM A,BEGINC
   978	044267	336 00 0 00 051611 		SKIPN ADRLO
   979	044270	254 00 0 00 044362 		JRST BEGING	;IF FIRST ENTRY, SET UP SYM TAB AND ADRLO
   980	044271	260 17 0 00 044532 	BEGIN1:	PUSHJ P,STATIC	;TRY STATIC TEST...
   981	044272	260 17 0 00 052642 		PUSHJ P,CHKCNC
   982	044273	254 00 0 00 044276 		JRST CI
   983	044274	355 00 0 00 044343 		AOSGE BEGINC	;...TEN TIMES
   984	044275	254 00 0 00 044271 		JRST BEGIN1
   985
   986					;COMMAND LEVEL ENTRY (RESETS PSEUDO DATA SWITCHES)
   987	044276				CI:	MOVEI	C,[ASCIZ/
   988					TYPE H AND "CR" FOR HELP
   989	044276	201 03 0 00 104357 	/]
   990	044277	260 17 0 00 060463 		PUSHJ	P,PROMPT	;GO PRINT IT ON TTY
   991	044300				GG:!
   992	044300	200 17 0 00 104043 	CI0:	MOVE P,[-LPDL,,PDL-1]
   993	044301	336 00 0 00 050257 		SKIPN CPUTAB
   994	044302	260 17 0 00 050164 		PUSHJ P,SETCPU	;MAKE SURE PROC STUFF IS SET UP
   995	044303	256 00 0 00 050260 		XCT PIRST	;KILL PI
   996	044304	402 00 0 00 061242 		SETZM PIE	;NO INTERRUPTS EXPECTED
   997	044305	260 17 0 00 050272 		PUSHJ P,IORST
   998						MOVEI	C,[ASCIZ/
   999	044306	201 03 0 00 104365 	=/]
  1000	044307	260 17 0 00 060463 		PUSHJ	P,PROMPT
  1001	044310	476 00 0 00 044360 		SETOM PREARG	;NO PRELIMINARY ARGUMENT IF NEGATIVE
  1002	044311	476 00 0 00 044361 		SETOM P2ARG
  1003	044312	402 00 0 00 046470 		SETZM MPERF
  1004	044313	260 17 0 00 052657 	CI1:	PUSHJ P,NUMG	;GET # IN A, TERM CHAR IN B
  1005	044314	255 00 0 00 000000 		JFCL
  1006	044315	202 01 0 00 044341 		MOVEM A,CIN	;NUMERIC ARGUMENT
  1007	044316	275 02 0 00 000040 		SUBI B,40
  1008	044317	321 02 0 00 044336 		JUMPL B,CIE	;ERROR
  1009	044320	301 02 0 00 000100 		CAIL B,100
  1010	044321	275 02 0 00 000040 		SUBI B,40	;CONVERT LOWER TO UPPER CASE
  1011	044322	200 04 0 00 000002 		MOVE D,B	;SIXBIT CHAR
  1012	044323	260 17 0 00 060372 		PUSHJ P,CR	;CR, LF
  1013	044324	200 01 0 00 044341 		MOVE A,CIN	;NUMERIC ARG
  1014	044325	200 07 0 00 000001 		MOVE G,A
  1015	044326	256 00 0 04 044372 		XCT CIT(D)	;DO 1-INST COMMAND OR DISPATCH OR SKIP
  1016	044327	254 00 0 00 044300 		JRST CI0
  1017	044330	202 05 0 00 044342 		MOVEM E,CIP	;ADDR OF TEST TO RUN
  1018	044331	256 00 0 00 050272 		XCT IORST	;ABOUT TO DO A TEST, RESET THE WORLD
  1019	044332	260 17 1 00 044342 	CI5:	PUSHJ P,@CIP	;PERFORM THE TEST ONCE
  1020	044333	260 17 0 00 052636 		PUSHJ P,CHKTYI
  1021	044334	254 00 0 00 044300 		JRST CI0	;CHAR STRUCK - STOP TEST
  1022	044335	254 00 0 00 044332 		JRST CI5	;KEEP GOING
  1023
  1024	044336	201 03 0 00 104366 	CIE:	MOVEI C,[ASCIZ /?/]
  1025	044337	260 17 0 00 060463 		PUSHJ P,PROMPT
  1026	044340	254 00 0 00 044300 		JRST CI0
SA10 - DIAGNOSTIC FOR SYSTEMS CONCEPTS SA-10 IBM-TO-DEC SUBSYSTEM ADAPTOR	VER 1	MACRO %53B(1155)-2 14:34 14-Feb-86 Page 21-1
SA10N	MAC	17-Sep-74 22:01

  1027
  1028	044341	000000	000000		CIN:	0
  1029	044342	000000	000000		CIP:	0
  1030	044343	000000	000000		BEGINC:	0
SA10 - DIAGNOSTIC FOR SYSTEMS CONCEPTS SA-10 IBM-TO-DEC SUBSYSTEM ADAPTOR	VER 1	MACRO %53B(1155)-2 14:34 14-Feb-86 Page 22
SA10N	MAC	17-Sep-74 22:01

  1031	044344	201 01 0 00 606500 	CIDDT:	MOVEI A,^D200000
  1032	044345	256 00 0 00 050275 		XCT TYOSKP
  1033	044346	367 01 0 00 044345 		SOJG A,.-1	;WAIT FOR TYPEOUT TO FINISH
  1034	044347	200 01 0 00 061514 		MOVE A,SAVA	;RESTORE AC'S FROM ERROR ROUTINE
  1035	044350	200 02 0 00 061515 		MOVE B,SAVB
  1036	044351	200 03 0 00 061516 		MOVE C,SAVC
  1037	044352	200 04 0 00 061517 		MOVE D,SAVD
  1038	044353	254 00 0 00 043260*		JRST DDT	;AND EXIT TO DDT
  1039
  1040	044354	200 02 0 00 044360 	CITCM:	MOVE B,PREARG
  1041	044355	202 02 0 00 044361 		MOVEM B,P2ARG
  1042	044356	202 01 0 00 044360 		MOVEM A,PREARG	;HERE ON COMMA
  1043	044357	254 00 0 00 044313 		JRST CI1
  1044
  1045	044360	000000	000000		PREARG:	0		;STORAGE LOC FOR DEVICE ADDRESS
  1046	044361	000000	000000		P2ARG:	0
  1047
  1048	044362	200 01 0 00 000116 	BEGING:	MOVE A,116	;SYM TAB PTR
  1049	044363	202 01 0 00 000036 		MOVEM A,36
  1050	044364	253 01 0 00 044364 		AOBJN A,.
  1051	044365	271 01 0 00 000100 		ADDI A,100	;PATCH SPACE
  1052	044366	202 01 0 00 051611 		MOVEM A,ADRLO	;1ST LOCATION USABLE FOR TABLES
  1053	044367	200 01 0 00 000117 		MOVE A,117	;UNDEF SYMS
  1054	044370	202 01 0 00 000032 		MOVEM A,32
  1055	044371	254 00 0 00 044271 		JRST BEGIN1
SA10 - DIAGNOSTIC FOR SYSTEMS CONCEPTS SA-10 IBM-TO-DEC SUBSYSTEM ADAPTOR	VER 1	MACRO %53B(1155)-2 14:34 14-Feb-86 Page 23
SA10N	MAC	17-Sep-74 22:01

  1056	044372	254 00 0 00 044336 	CIT:	JRST CIE	;SPACE
  1057	044373	254 00 0 00 044336 		JRST CIE	;!
  1058	044374	254 00 0 00 044336 		JRST CIE	;"
  1059	044375	254 00 0 00 044336 		JRST CIE	;#
  1060	044376	254 00 0 00 044336 		JRST CIE	;$
  1061	044377	254 00 0 00 044336 		JRST CIE	;%
  1062	044400	254 00 0 00 044336 		JRST CIE	;&
  1063	044401	254 00 0 00 044336 		JRST CIE	;'
  1064	044402	254 00 0 00 044336 		JRST CIE	;(
  1065	044403	254 00 0 00 044336 		JRST CIE	;)
  1066	044404	254 00 0 00 044336 		JRST CIE	;*
  1067	044405	254 00 0 00 044336 		JRST CIE	;+
  1068	044406	254 00 0 00 044354 		JRST CITCM	;,
  1069	044407	254 00 0 00 044336 		JRST CIE	;-
  1070	044410	254 00 0 00 044336 		JRST CIE	;.
  1071	044411	254 00 0 00 044336 		JRST CIE	;/
  1072	044412	254 00 0 00 044336 		JRST CIE	;0
  1073	044413	254 00 0 00 044336 		JRST CIE	;1
  1074	044414	254 00 0 00 044336 		JRST CIE	;2
  1075	044415	254 00 0 00 044336 		JRST CIE	;3
  1076	044416	254 00 0 00 044336 		JRST CIE	;4
  1077	044417	254 00 0 00 044336 		JRST CIE	;5
  1078	044420	254 00 0 00 044336 		JRST CIE	;6
  1079	044421	254 00 0 00 044336 		JRST CIE	;7
  1080	044422	254 00 0 00 044336 		JRST CIE	;8
  1081	044423	254 00 0 00 044336 		JRST CIE	;9
  1082	044424	254 00 0 00 044336 		JRST CIE	;:
  1083	044425	254 00 0 00 044336 		JRST CIE	;;
  1084	044426	254 00 0 00 044336 		JRST CIE	;.LT.
  1085	044427	254 00 0 00 044336 		JRST CIE	;=
  1086	044430	254 00 0 00 044336 		JRST CIE	;.GT.
  1087	044431	254 00 0 00 044336 		JRST CIE	;?
  1088
  1089	044432	254 00 0 00 044336 		JRST CIE	;AT SIGN
  1090	044433	254 00 0 00 044336 		JRST CIE	;A
  1091	044434	254 00 0 00 054124 		JRST BAFGO	;B
  1092	044435	254 00 0 00 044336 		JRST CIE	;C
  1093	044436	334 05 0 00 104367 		SKIPA E,[DSKT]	;D
  1094	044437	254 00 0 00 044336 		JRST	CIE	;E
  1095	044440	254 00 0 00 053705 		JRST FMT	;F
  1096	044441	254 00 0 00 044336 		JRST CIE	;G
  1097	044442	254 00 0 00 044336 		JRST CIE	;H
  1098	044443	254 00 0 00 044336 		JRST CIE	;I
  1099	044444	254 00 0 00 044336 		JRST CIE	;J
  1100	044445	254 00 0 00 044336 		JRST CIE	;K
  1101	044446	254 00 0 00 044336 		JRST	CIE	;L
  1102	044447	334 05 0 00 104370 		SKIPA E,[CMT]	;M
  1103	044450	254 00 0 00 044336 		JRST CIE	;N
  1104	044451	254 00 0 00 044336 		JRST CIE	;O
  1105	044452	334 05 0 00 104371 		SKIPA E,[PTST]	;P
  1106	044453	260 17 0 00 046246 		PUSHJ P,TIMET	;Q
  1107	044454	260 17 0 00 060201 		PUSHJ P,PWORLD	;R
  1108	044455	334 05 0 00 104372 		SKIPA E,[STATIC];S
  1109	044456	334 05 0 00 104373 		SKIPA E,[QTT]	;T
  1110	044457	254 00 0 00 044336 		JRST CIE	;U
SA10 - DIAGNOSTIC FOR SYSTEMS CONCEPTS SA-10 IBM-TO-DEC SUBSYSTEM ADAPTOR	VER 1	MACRO %53B(1155)-2 14:34 14-Feb-86 Page 23-1
SA10N	MAC	17-Sep-74 22:01

  1111	044460	334 05 0 00 104374 		SKIPA E,[DSKTV]	;V
  1112	044461	254 00 0 00 044336 		JRST CIE	;W
  1113	044462	254 00 0 00 044344 		JRST CIDDT	;X
  1114	044463	254 00 0 00 044336 		JRST CIE	;Y
  1115	044464	254 00 0 00 056644 		JRST ZRRBL	;Z
  1116	044465	254 00 0 00 044336 		JRST CIE	;.LB.
  1117	044466	254 00 0 00 044336 		JRST CIE	;\
  1118	044467	254 00 0 00 044336 		JRST CIE	;.RB.
  1119	044470	254 00 0 00 044336 		JRST CIE	;^
  1120	044471	254 00 0 00 044336 		JRST CIE	;_
SA10 - DIAGNOSTIC FOR SYSTEMS CONCEPTS SA-10 IBM-TO-DEC SUBSYSTEM ADAPTOR	VER 1	MACRO %53B(1155)-2 14:34 14-Feb-86 Page 24
SA10N	MAC	17-Sep-74 22:01

  1121	044472	254 00 0 00 044517 	GOGO:	JRST DDTE
  1122	044473	200 17 0 00 104043 	DDTG:	MOVE P,[-LPDL,,PDL-1]
  1123	044474	265 01 0 00 044475 		JSP A,.+1
  1124	044475	603 01 0 00 010000 		TLNE A,10000
  1125	044476	254 00 0 00 044507 		JRST DDTG1	;IN CASE OF "RU SA10"
  1126	044477	525 01 0 00 777776 		HRLOI A,-2
  1127	044500	252 01 0 00 044507 		AOBJP A,DDTG1
  1128	044501	201 01 0 00 000000 		MOVEI A,0
  1129	044502	251 01 0 00 000000 		BLT A,0
  1130	044503	326 01 0 00 044506 		JUMPN A,DDTG0
  1131	044504	7 010 14 0 00 104375 		DATAO PAG,[400000]	;AVOID AROV TRAPS IN DDT
  1132	044505	254 00 0 00 044507 		JRST DDTG1
  1133	044506	7 010 20 0 00 400000 	DDTG0:	CONO PAG,400000
  1134	044507	200 01 0 00 000116 	DDTG1:	MOVE A,116
  1135	044510	202 01 0 00 000036 		MOVEM A,36
  1136	044511	253 01 0 00 044511 		AOBJN A,.
  1137	044512	271 01 0 00 000100 		ADDI A,100	;PATCH SPACE
  1138	044513	202 01 0 00 051611 		MOVEM A,ADRLO	;BOTTOM OF FREE STORAGE
  1139	044514	200 01 0 00 000117 		MOVE A,117
  1140	044515	202 01 0 00 000032 		MOVEM A,32
  1141	044516	254 00 0 00 044353*		JRST DDT
  1142	044517	336 00 0 00 060153 	DDTE:	SKIPN SUPER0
  1143	044520	254 00 0 00 044516*		JRST DDT
  1144	044521	200 01 0 00 060153 		MOVE A,SUPER0
  1145	044522	202 01 0 00 000036 		MOVEM A,36
  1146	044523	200 01 0 00 060154 		MOVE A,SUPER1
  1147	044524	202 01 0 00 000032 		MOVEM A,32
  1148	044525	402 00 0 00 060153 		SETZM SUPER0
  1149	044526	254 00 0 00 044520*		JRST DDT
  1150
  1151	044527	336 00 0 00 051611 	DDTQ:	SKIPN ADRLO
  1152	044530	254 00 0 00 044473 		JRST DDTG	;FIRST INITIALIZE STUFF
  1153	044531	254 00 0 00 044526*		JRST DDT
SA10 - DIAGNOSTIC FOR SYSTEMS CONCEPTS SA-10 IBM-TO-DEC SUBSYSTEM ADAPTOR	VER 1	MACRO %53B(1155)-2 14:34 14-Feb-86 Page 25
SA10N	MAC	17-Sep-74 22:01

  1154	044532	256 00 0 00 050272 	STATIC:	XCT IORST	;CLEAR OUT THE WORLD
  1155	044533	402 00 0 00 061242 		CLEARM PIE	;NO INTERRUPTS ARE EXPECTED
  1156	044534	256 00 0 00 050260 		XCT PIRST
  1157	044535	260 17 0 00 050236 		PUSHJ P,PISET	;SET UP PI LOCS
  1158	044536	260 17 0 00 060605 		PUSHJ P,SETSAA	;SET UP SA-10 DEVICE ADDRESS
  1159	044537	256 00 0 00 050272 	BTE:	XCT IORST	;I O RESET
  1160	044540	201 01 0 00 000454 		MOVEI A,^D300
  1161	044541	367 01 0 00 044541 		SOJG A,.	;DELAY A BIT
  1162	044542	256 00 0 00 060622 	BTE0:	MCONI SA0,A^	XCT DCONI
  1163	044543	202 15 0 00 000001 		MOVEM DD,A
  1164	044544	603 01 0 00 000001 		TLNE A,1	;CONI SHOULD GIVE 1 IN L.H.
  1165	044545	254 00 0 00 044610 		JRST BTE2	;IF IT DID, OK
  1166	044546	200 01 0 00 060622 		MOVE A,DCONI
  1167	044547	641 01 0 00 000400 		TLC A,400
  1168	044550	256 00 0 00 000001 		XCT A
  1169	044551	607 15 0 00 000001 		TLNN DD,1	;IS THIS AN SA-10?
  1170	044552	254 00 0 00 044562 		JRST BTE1	;IF NOT
  1171	044553	201 01 0 00 000004 		MOVEI A,4
  1172	044554	432 01 0 00 060630 		XORM A,SADEVA	;IT IS (AND SA0 WASN'T) CHANGE DEV ADDR
  1173	044555	260 17 0 00 060605 		PUSHJ P,SETSAA
  1174	044556	200 01 0 00 060630 		MOVE A,SADEVA
  1175						MOVEI C,[ASCIZ /SA10 DEVICE CODE IS %A
  1176	044557	201 03 0 00 104376 	/]
  1177	044560	260 17 0 00 060373 		PUSHJ P,STYO
  1178	044561	254 00 0 00 044542 		JRST BTE0
SA10 - DIAGNOSTIC FOR SYSTEMS CONCEPTS SA-10 IBM-TO-DEC SUBSYSTEM ADAPTOR	VER 1	MACRO %53B(1155)-2 14:34 14-Feb-86 Page 26
SA10N	MAC	17-Sep-74 22:01

  1179	044562				BTE1:	MCONO SA0,7	^;OTHERWISE LOOK DEEPER
  1180	044562	201 15 0 00 000007 		MOVEI DD,7
  1181	044563	256 00 0 00 060621 		XCT DCONO
  1182	044564	256 00 0 00 060622 		MCONI SA0,A^	XCT DCONI
  1183	044565	202 15 0 00 000001 		MOVEM DD,A
  1184	044566	612 01 0 00 104403 		TDNE A,[1,,7]	;ANY PIA BITS GET SET?
  1185	044567	254 00 0 00 062243 		JRST ERR50	;IF YES
  1186	044570	201 01 0 00 000005 		MOVEI A,5
  1187	044571	202 01 0 00 061242 		MOVEM A,PIE	;WE'LL TRY AN INTERRUPT
  1188	044572	7 004 20 0 00 002377 		CONO PI,2377	;TURN ON ALL CHANNELS
  1189						MCONO SA0,STSTF+6	^;SHOULD NOT INTERRUPT YET
  1190	044573	201 15 0 00 000646 		MOVEI DD,STSTF+6
  1191	044574	256 00 0 00 060621 		XCT DCONO
  1192	044575	201 01 0 00 000010 		MOVEI A,10
  1193						MCONO SA0,STPIE+5	^;THIS SHOULD CAUSE INTERRUPT
  1194	044576	201 15 0 00 000745 		MOVEI DD,STPIE+5
  1195	044577	256 00 0 00 060621 		XCT DCONO
  1196	044600	367 01 0 00 044600 		SOJG A,.	;GIVE IT A CHANCE
  1197						MCONO SA0,400000	^;RESET SA-10
  1198	044601	201 15 0 00 400000 		MOVEI DD,400000
  1199	044602	256 00 0 00 060621 		XCT DCONO
  1200	044603	256 00 0 00 050260 		XCT PIRST	;CHANNELS OFF AGAIN
  1201	044604	336 00 0 00 061242 		SKIPN PIE
  1202	044605	254 00 0 00 062260 		JRST ERR51	;INTERRUPT OCCURRED
  1203	044606	402 00 0 00 061242 		CLEARM PIE	;INTERRUPT DIDN'T OCCUR
  1204	044607	254 00 0 00 062265 		JRST ERR52
  1205
  1206	044610	312 01 0 00 104404 	BTE2:	CAME A,[1,,0]
  1207	044611	254 00 0 00 062272 		JRST ERR53	;SOME BAD BITS ON
  1208	044612	201 01 0 00 000010 		MOVEI A,10
  1209	044613	7 004 20 0 00 002377 		CONO PI,2377	;ENABLE ALL PI CHANNELS
  1210	044614	367 01 0 00 044614 		SOJG A,.	;WAIT NERVOUSLY
  1211						MCONO SA0,7	^;SET PIA BITS
  1212	044615	201 15 0 00 000007 		MOVEI DD,7
  1213	044616	256 00 0 00 060621 		XCT DCONO
  1214	044617	256 00 0 00 060622 		MCONI SA0,A^	XCT DCONI
  1215	044620	202 15 0 00 000001 		MOVEM DD,A
  1216	044621	312 01 0 00 104403 		CAME A,[1,,7]
  1217	044622	254 00 0 00 062326 		JRST ERR55	;IF PIA DOESN'T READ IN
  1218	044623	205 03 0 00 040000 		MOVSI C,40000	;WILL SWEEP THRU DEVICE CODE BITS
  1219	044624	200 02 0 00 060622 	BTE2A:	MOVE B,DCONI
  1220	044625	430 02 0 00 000003 		XOR B,C	;CREATE CODE OF SIMILAR DEVICE
  1221	044626	256 00 0 00 000002 		XCT B	;CONI IT
  1222	044627	316 15 0 00 104403 		CAMN DD,[1,,7]	;NO OTHER DEVICE CAN MAKE THIS STATEMENT
  1223	044630	254 00 0 00 062310 		JRST ERR54	;IF ONE TRIED
  1224	044631	242 03 0 00 777777 		LSH C,-1
  1225	044632	312 03 0 00 104405 		CAME C,[200,,0]
  1226	044633	254 00 0 00 044624 		JRST BTE2A	;IF MORE DEV ADDR BITS TO CHECK
  1227	044634	256 00 0 00 050272 		XCT IORST	;I O RESET SHOULD CLEAR PIA
  1228	044635	256 00 0 00 060622 		MCONI SA0,A^	XCT DCONI
  1229	044636	202 15 0 00 000001 		MOVEM DD,A
  1230	044637	256 00 0 00 050260 		XCT PIRST	;RESET PI
  1231	044640	312 01 0 00 104404 		CAME A,[1,,0]
  1232	044641	254 00 0 00 062343 		JRST ERR56	;PIA DIDN'T CLEAR
SA10 - DIAGNOSTIC FOR SYSTEMS CONCEPTS SA-10 IBM-TO-DEC SUBSYSTEM ADAPTOR	VER 1	MACRO %53B(1155)-2 14:34 14-Feb-86 Page 27
SA10N	MAC	17-Sep-74 22:01

  1233	044642				BTE4:	MCONO SA0,RDCONI+7	^;CAN WE DO A DATAI?
  1234	044642	201 15 0 00 000047 		MOVEI DD,RDCONI+7
  1235	044643	256 00 0 00 060621 		XCT DCONO
  1236	044644	256 00 0 00 060624 		MDATAI SA0,A^	XCT DDATAI
  1237	044645	202 15 0 00 000001 		MOVEM DD,A
  1238	044646	312 01 0 00 104406 		CAME A,[2,,7]	;CLEN, PIA
  1239	044647	254 00 0 00 062357 		JRST ERR57	;IF WRONG
  1240						MCONO SA0,SASTEP	^;STOP THE CLOCK
  1241	044650	201 15 0 00 001000 		MOVEI DD,SASTEP
  1242	044651	256 00 0 00 060621 		XCT DCONO
  1243	044652	201 15 0 00 000040 		MCONO SA0,RDCONI^	MOVEI DD,RDCONI
  1244	044653	256 00 0 00 060621 		XCT DCONO
  1245	044654	256 00 0 00 060624 		MDATAI SA0,A^	XCT DDATAI
  1246	044655	202 15 0 00 000001 		MOVEM DD,A
  1247	044656	326 01 0 00 062374 		JUMPN A,ERR58	;IF WE DIDN'T BEAT THE CLOCK
  1248	044657	201 15 0 00 600000 		MCONO SA0,RSTSA!CLMERR^	MOVEI DD,RSTSA!CLMERR
  1249	044660	256 00 0 00 060621 		XCT DCONO
  1250					;SEE IF CHANNEL COUNTER COUNTS WHEN CLOCK IS STEPPED
  1251	044661	260 17 0 00 060757 	BEG1:	PUSHJ P,RDSEQ
  1252	044662	260 17 0 00 061055 		PUSHJ P,RDSQ1
  1253	044663	200 04 0 00 061071 		MOVE D,CURSEQ
  1254	044664	312 02 0 00 000004 		CAME B,D
  1255	044665	254 00 0 00 061614 		JRST ERR3	;DIFF SEQ SECOND TIME
  1256	044666	200 04 0 00 000003 		MOVE D,C	;SAVE UNNORMALIZED VERSION
  1257	044667	201 10 0 00 000100 		MOVEI H,100
  1258	044670	260 17 0 00 061042 	BEG1A:	PUSHJ P,RDSQ0
  1259	044671	312 03 0 00 000004 		CAME C,D
  1260	044672	254 00 0 00 061614 		JRST ERR3	;SEQ CHANGED
  1261	044673	367 10 0 00 044670 		SOJG H,BEG1A
SA10 - DIAGNOSTIC FOR SYSTEMS CONCEPTS SA-10 IBM-TO-DEC SUBSYSTEM ADAPTOR	VER 1	MACRO %53B(1155)-2 14:34 14-Feb-86 Page 28
SA10N	MAC	17-Sep-74 22:01

  1262					;MAKE SURE ALL BITS OF MICRO-P.C. CAN BE SET
  1263	044674	260 17 0 00 046550 		PUSHJ P,STEPC0
  1264	044675	201 01 0 00 000012 		MOVEI A,^D10
  1265	044676	264 00 0 00 062527 		JSR PTN	;TRY VALUES FOR 10 BITS
  1266	044677	405 01 0 00 001777 	IARL:	ANDI A,1777
  1267	044700	200 02 0 00 000001 		MOVE B,A
  1268	044701	200 15 0 00 000002 		MDATAO SA0,B^	MOVE DD,B
  1269	044702	256 00 0 00 060623 		XCT DDATAO
  1270	044703	260 17 0 00 046577 		PUSHJ P,STEP0
  1271	044704	405 01 0 00 001777 		ANDI A,1777
  1272	044705	312 01 0 00 000002 		CAME A,B
  1273	044706	254 00 0 00 061622 		JRST ERR4	;MICRO-P.C. NOT BEING SET PROPERLY
  1274	044707	256 00 0 00 050277 	IARL1:	LOOP  PTN9^	XCT	RDSWS		;GO GET SWITCHES
  1275	044710	607 15 0 00 040000 		TLNN	DD,40000
  1276	044711	254 00 0 00 044715 		JRST .+4
  1277	044712	260 17 0 00 052642 		PUSHJ P,CHKCNC
  1278	044713	254 00 0 00 044300 		JRST CI0
  1279	044714	254 00 0 00 062547 		JRST PTN9
  1280						MDATAO SA0,[040000]	^;CBUS_IARB
  1281	044715	200 15 0 00 104407 		MOVE DD,[040000]
  1282	044716	256 00 0 00 060623 		XCT DDATAO
  1283	044717	256 00 0 00 060624 		MDATAI SA0,A^	XCT DDATAI
  1284	044720	202 15 0 00 000001 		MOVEM DD,A
  1285	044721	135 01 0 00 104410 		LDB A,[121000,,A]
  1286	044722	200 03 0 00 000002 		MOVE C,B
  1287	044723	405 03 0 00 000377 		ANDI C,377
  1288	044724	312 01 0 00 000003 		CAME A,C
  1289	044725	254 00 0 00 061632 		JRST ERR5	;CBUS_IARB LOSING
  1290	044726	256 00 0 00 050277 	IARL2:	LOOP  PTN9^	XCT	RDSWS		;GO GET SWITCHES
  1291	044727	607 15 0 00 040000 		TLNN	DD,40000
  1292	044730	254 00 0 00 044734 		JRST .+4
  1293	044731	260 17 0 00 052642 		PUSHJ P,CHKCNC
  1294	044732	254 00 0 00 044300 		JRST CI0
  1295	044733	254 00 0 00 062547 		JRST PTN9
  1296	044734	264 00 0 00 062525 		JSR PTN0	;ON TO NEXT DATA VALUE
SA10 - DIAGNOSTIC FOR SYSTEMS CONCEPTS SA-10 IBM-TO-DEC SUBSYSTEM ADAPTOR	VER 1	MACRO %53B(1155)-2 14:34 14-Feb-86 Page 29
SA10N	MAC	17-Sep-74 22:01

  1297					;SEE IF SOURCE OF ZEROES WORKS
  1298	044735	201 01 0 00 176320 	SZER:	MOVEI A,176320	;REG. 3_0
  1299	044736	260 17 0 00 046575 		PUSHJ P,C0XCT
  1300	044737	201 01 0 00 072260 		MOVEI A,072260	;START DUMMY WRITE FROM REG. 3
  1301	044740	260 17 0 00 046575 		PUSHJ P,C0XCT
  1302	044741	201 15 0 00 000020 		MCONO SA0,RDMBL^	MOVEI DD,RDMBL
  1303	044742	256 00 0 00 060621 		XCT DCONO
  1304						MDATAI SA0,A	^;SHOULD GIVE US 0 IN THE R.H. OF A
  1305	044743	256 00 0 00 060624 		XCT DDATAI
  1306	044744	202 15 0 00 000001 		MOVEM DD,A
  1307	044745	602 01 0 00 777777 		TRNE A,-1
  1308	044746	254 00 0 00 061642 		JRST ERR40	;FAILS HERE IF NO ROMS INSTALLED YET
  1309	044747	256 00 0 00 050277 	SZER1:	LOOP  SZER^	XCT	RDSWS		;GO GET SWITCHES
  1310	044750	607 15 0 00 040000 		TLNN	DD,40000
  1311	044751	254 00 0 00 044755 		JRST .+4
  1312	044752	260 17 0 00 052642 		PUSHJ P,CHKCNC
  1313	044753	254 00 0 00 044300 		JRST CI0
  1314	044754	254 00 0 00 044735 		JRST SZER
  1315	044755	201 01 0 00 000044 	MAMB:	MOVEI A,^D36
  1316	044756	264 00 0 00 062527 		JSR PTN	;TRY ALL 36 BITS OF WORD
  1317	044757	261 17 0 00 000001 	MAMB1:	PUSH P,A
  1318	044760	621 01 0 00 777774 		TLZ A,777774
  1319	044761	202 01 0 00 046533 		MOVEM A,MAMBTA
  1320	044762	661 01 0 00 200000 		TLO A,200000
  1321	044763	200 03 0 00 000001 		MOVE C,A
  1322	044764	260 17 0 00 046565 		PUSHJ P,LC0CW
  1323	044765	262 17 0 00 000003 		POP P,C
  1324	044766	556 03 0 00 061670 		HLRZM C,MAMBTL
  1325	044767	552 03 0 00 061671 		HRRZM C,MAMBTR
  1326	044770	260 17 0 00 046610 		PUSHJ P,LC0R2
  1327	044771	201 01 0 00 062260 		MOVEI A,062260	;START DUMMY WRITE FROM REG. 2
  1328	044772	260 17 0 00 046575 		PUSHJ P,C0XCT
  1329					;FALLS THROUGH TO NEXT PAGE
  1330
SA10 - DIAGNOSTIC FOR SYSTEMS CONCEPTS SA-10 IBM-TO-DEC SUBSYSTEM ADAPTOR	VER 1	MACRO %53B(1155)-2 14:34 14-Feb-86 Page 30
SA10N	MAC	17-Sep-74 22:01

  1331					;FALLEN INTO FROM PREVIOUS PAGE
  1332	044773	201 15 0 00 000010 		MCONO SA0,RDMA^	MOVEI DD,RDMA
  1333	044774	256 00 0 00 060621 		XCT DCONO
  1334	044775	256 00 0 00 060624 		MDATAI SA0,C^	XCT DDATAI
  1335	044776	202 15 0 00 000003 		MOVEM DD,C
  1336	044777	200 01 0 00 000003 		MOVE A,C
  1337	045000	404 01 0 00 104411 		AND A,[3,,-1]
  1338	045001	312 01 0 00 046533 		CAME A,MAMBTA
  1339	045002	254 00 0 00 061650 		JRST ERR11	;MEM ADDR REG HAS WRONG THING IN IT
  1340	045003	256 00 0 00 050277 	MAMB1A:	LOOP  PTN9^	XCT	RDSWS		;GO GET SWITCHES
  1341	045004	607 15 0 00 040000 		TLNN	DD,40000
  1342	045005	254 00 0 00 045011 		JRST .+4
  1343	045006	260 17 0 00 052642 		PUSHJ P,CHKCNC
  1344	045007	254 00 0 00 044300 		JRST CI0
  1345	045010	254 00 0 00 062547 		JRST PTN9
  1346	045011	201 15 0 00 000020 		MCONO SA0,RDMBL^	MOVEI DD,RDMBL
  1347	045012	256 00 0 00 060621 		XCT DCONO
  1348	045013	256 00 0 00 060624 		MDATAI SA0,A^	XCT DDATAI
  1349	045014	202 15 0 00 000001 		MOVEM DD,A
  1350	045015	550 02 0 00 000001 		HRRZ B,A
  1351	045016	312 02 0 00 061670 		CAME B,MAMBTL
  1352	045017	254 00 0 00 061660 		JRST ERR6	;MB LEFT LOSING
  1353	045020	256 00 0 00 050277 	MAMB2:	LOOP  PTN9^	XCT	RDSWS		;GO GET SWITCHES
  1354	045021	607 15 0 00 040000 		TLNN	DD,40000
  1355	045022	254 00 0 00 045026 		JRST .+4
  1356	045023	260 17 0 00 052642 		PUSHJ P,CHKCNC
  1357	045024	254 00 0 00 044300 		JRST CI0
  1358	045025	254 00 0 00 062547 		JRST PTN9
  1359	045026	603 01 0 00 777777 		TLNE A,-1
  1360	045027	254 00 0 00 061677 		JRST ERR7	;WRONG CHANNEL HAS MEMORY SUBROUTINE
  1361	045030	256 00 0 00 050277 	MAMB3:	LOOP  PTN9^	XCT	RDSWS		;GO GET SWITCHES
  1362	045031	607 15 0 00 040000 		TLNN	DD,40000
  1363	045032	254 00 0 00 045036 		JRST .+4
  1364	045033	260 17 0 00 052642 		PUSHJ P,CHKCNC
  1365	045034	254 00 0 00 044300 		JRST CI0
  1366	045035	254 00 0 00 062547 		JRST PTN9
  1367	045036	201 15 0 00 000030 		MCONO SA0,RDMBR^	MOVEI DD,RDMBR
  1368	045037	256 00 0 00 060621 		XCT DCONO
  1369	045040	256 00 0 00 060624 		MDATAI SA0,A^	XCT DDATAI
  1370	045041	202 15 0 00 000001 		MOVEM DD,A
  1371	045042	312 01 0 00 061671 		CAME A,MAMBTR
  1372	045043	254 00 0 00 061707 		JRST ERR12	;MB RIGHT LOSING
  1373	045044	256 00 0 00 050277 	MAMB4:	LOOP  PTN9^	XCT	RDSWS		;GO GET SWITCHES
  1374	045045	607 15 0 00 040000 		TLNN	DD,40000
  1375	045046	254 00 0 00 045052 		JRST .+4
  1376	045047	260 17 0 00 052642 		PUSHJ P,CHKCNC
  1377	045050	254 00 0 00 044300 		JRST CI0
  1378	045051	254 00 0 00 062547 		JRST PTN9
  1379	045052	264 00 0 00 062525 		JSR PTN0	;ON TO NEXT DATA VALUE
SA10 - DIAGNOSTIC FOR SYSTEMS CONCEPTS SA-10 IBM-TO-DEC SUBSYSTEM ADAPTOR	VER 1	MACRO %53B(1155)-2 14:34 14-Feb-86 Page 31
SA10N	MAC	17-Sep-74 22:01

  1380	045053	135 07 0 00 061100 	CWTST0:	LDB G,NCHNP	;TRY OUT WC, CA, PC PATHS
  1381	045054	275 07 0 00 000001 		SUBI G,1
  1382	045055	260 17 0 00 046551 	CWTST:	PUSHJ P,STEPCX	;STEP CLOCK TO APPROPRIATE CHANNEL
  1383	045056	201 01 0 00 000044 	CWTST1:	MOVEI A,^D36	;CHECK 36 BIT POSITIONS
  1384	045057	264 00 0 00 062527 		JSR PTN
  1385	045060	202 01 0 00 061675 		MOVEM A,CWTA	;DATA WORD
  1386	045061	460 02 0 00 000001 		SETCM B,A	;ITS COMPLEMENT
  1387	045062	242 02 0 00 000001 		LSH B,1
  1388	045063	202 02 0 00 061676 		MOVEM B,CWTB	;A SLIGHTLY DIFFERENT DATA WORD
  1389	045064	200 12 0 00 104412 		MOVE J,[441100,,CWTD]
  1390	045065	200 04 0 00 104413 		MOVE D,[441000,,A]
  1391	045066	134 03 0 00 000004 		ILDB C,D	;GET A BYTE OF 1ST DATA WORD
  1392	045067	660 03 0 00 000200 		TRO C,200
  1393	045070	136 03 0 00 000012 		IDPB C,J	;PUT MUNGED BYTE INTO CWTD
  1394	045071	134 03 0 00 000004 		ILDB C,D	;GET ANOTHER BYTE
  1395	045072	660 03 0 00 000017 	IFG CV,<	TRO C,17>	;DIDDLE IT IF NEED BE
  1396	045073	136 03 0 00 000012 		IDPB C,J	;PUT IT AWAY
  1397	045074	201 03 0 00 000340 		MOVEI C,340	;MAGIC BYTE
  1398	045075	136 03 0 00 000012 		IDPB C,J	;INTO TABLE
  1399	045076	134 03 0 00 000004 		ILDB C,D
  1400	045077	136 03 0 00 000012 		IDPB C,J	;ANOTHER BYTE FROM 1ST WD
  1401	045100	134 03 0 00 000004 		ILDB C,D
  1402	045101	136 03 0 00 000012 		IDPB C,J	;AND ANOTHER
  1403	045102	135 03 0 00 104414 		LDB C,[400,,A]	;REMAINING NIBBLE OF 1ST WORD
  1404	045103	240 03 0 00 000004 		ASH C,4
  1405	045104	135 04 0 00 104415 	IFG CV,<	LDB D,[240200,,A]	;EXTRA BITS IN C VERSION
  1406	045105	270 03 0 00 000004 		ADD C,D>
  1407	045106	136 03 0 00 000012 		IDPB C,J	;INTO TABLE
  1408	045107	135 03 0 00 104416 		LDB C,[141000,,B]	;RIGHT BITS FROM 2ND WORD
  1409	045110	136 03 0 00 000012 		IDPB C,J	;INTO TABLE
  1410	045111	135 03 0 00 104417 		LDB C,[41000,,B]	;RIGHTER BITS
  1411	045112	136 03 0 00 000012 		IDPB C,J	;INTO TABLE
  1412	045113	135 03 0 00 104420 		LDB C,[400,,B]	;RIGHTEST BITS
  1413	045114	240 03 0 00 000004 		ASH C,4
  1414	045115	135 04 0 00 104421 	IFG CV,<	LDB D,[240200,,B]
  1415	045116	270 03 0 00 000004 		ADD C,D>
  1416	045117	136 03 0 00 000012 		IDPB C,J	;LAST TABLE ENTRY
  1417	045120	200 03 0 00 061675 	CWTST2:	MOVE C,CWTA
  1418	045121	200 12 0 00 104412 		MOVE J,[441100,,CWTD]
  1419	045122	260 17 0 00 046566 		PUSHJ P,LCXCW	;PUT INTO WC, CA REGISTERS
  1420	045123	200 03 0 00 061676 		MOVE C,CWTB
  1421	045124	260 17 0 00 046611 		PUSHJ P,LCXR2
  1422	045125	201 01 0 00 065300 		MOVEI A,065300	;PC_ADR FILED OF REG. 2
  1423	045126	260 17 0 00 046572 		PUSHJ P,CXXCT
  1424	045127	201 03 0 00 040400 		MOVEI C,040400	;CBUS_BYTE 1 OF WC
  1425	045130	201 06 0 00 000003 		MOVEI F,3	;DO STUFF FOR EACH OF 3 REGISTERS
  1426	045131	201 02 0 00 000003 	CWT1:	MOVEI B,3	;DO THIS STUFF FOR EACH OF 3 BYTES
  1427	045132				CWT2:	MDATAO SA0,C	^;GET DATA ONTO CBUS
  1428	045132	200 15 0 00 000003 		MOVE DD,C
  1429	045133	256 00 0 00 060623 		XCT DDATAO
  1430	045134	201 15 0 00 000000 		MCONO SA0,RDCCI^	MOVEI DD,RDCCI
  1431	045135	256 00 0 00 060621 		XCT DCONO
  1432	045136	256 00 0 00 060624 		MDATAI SA0,A^	XCT DDATAI
  1433	045137	202 15 0 00 000001 		MOVEM DD,A
  1434	045140	135 01 0 00 104410 		LDB A,[121000,,A]	;GET CONTENTS OF CBUS
SA10 - DIAGNOSTIC FOR SYSTEMS CONCEPTS SA-10 IBM-TO-DEC SUBSYSTEM ADAPTOR	VER 1	MACRO %53B(1155)-2 14:34 14-Feb-86 Page 31-1
SA10N	MAC	17-Sep-74 22:01

  1435	045141	134 04 0 00 000012 		ILDB D,J	;GET EXPECTED ANSWER
  1436	045142	306 02 0 00 000001 		CAIN B,1	;CHECK FOR 3RD BYTE
  1437	045143	405 01 0 00 000360 		ANDI A,360	;IGNORE EXTRANEOUS BITS
  1438	045144	306 02 0 00 000001 		CAIN B,1
  1439	045145	405 04 0 00 000360 		ANDI D,360
  1440	045146	312 04 0 00 000001 		CAME D,A	;ARE THEY THE SAME?
  1441	045147	254 00 0 00 061733 		JRST ERR28	;NOPE
  1442	045150	271 03 0 00 000400 	CWT2A:	ADDI C,400	;ADVANCE TO NEXT BYTE OF REGISTER
  1443	045151	367 02 0 00 045132 		SOJG B,CWT2	;THAT'S ALL FOR THAT REGISTER
  1444	045152	271 03 0 00 000400 		ADDI C,400	;ADVANCE TO NEXT REGISTER
  1445	045153	367 06 0 00 045131 		SOJG F,CWT1	;WE'VE TESTED ALL THREE REGISTERS
  1446	045154	264 00 0 00 062525 		JSR PTN0	;TRY NEXT DATA VALUE
  1447	045155	365 07 0 00 045055 		SOJGE G,CWTST	;TRY ALL CHANNELS
  1448	045156	256 00 0 00 050277 		LOOP  CWTST0^	XCT	RDSWS		;GO GET SWITCHES
  1449	045157	607 15 0 00 040000 		TLNN	DD,40000
  1450	045160	254 00 0 00 045164 		JRST .+4
  1451	045161	260 17 0 00 052642 		PUSHJ P,CHKCNC
  1452	045162	254 00 0 00 044300 		JRST CI0
  1453	045163	254 00 0 00 045053 		JRST CWTST0
SA10 - DIAGNOSTIC FOR SYSTEMS CONCEPTS SA-10 IBM-TO-DEC SUBSYSTEM ADAPTOR	VER 1	MACRO %53B(1155)-2 14:34 14-Feb-86 Page 32
SA10N	MAC	17-Sep-74 22:01

  1454	045164	201 12 0 00 000000 	INCT:	MOVEI J,0	;0 OR -1
  1455	045165	525 06 0 00 000017 	INCT0:	HRLOI F,17	;SHIFTS
  1456	045166	200 03 0 00 000006 	INCT1:	MOVE C,F	;DATA WORD
  1457	045167	430 03 0 00 000012 		XOR C,J	;COMPLEMENTED SECOND TIME THROUGH
  1458	045170	202 03 0 00 061672 		MOVEM C,INCTW	;REAL DATA WORD
  1459	045171	272 12 0 00 061672 		ADDM J,INCTW
  1460	045172	321 12 0 00 045174 		JUMPL J,INCT1A
  1461	045173	350 00 0 00 061672 		AOS INCTW	;SIMULATE THE INCREMENTER
  1462	045174	260 17 0 00 046565 	INCT1A:	PUSHJ P,LC0CW	;LOAD CA, WC
  1463	045175	201 01 0 00 042300 		MOVEI A,42300
  1464	045176	325 12 0 00 045200 		JUMPGE J,INCT2
  1465	045177	201 01 0 00 042660 		MOVEI A,42660
  1466	045200	260 17 0 00 046575 	INCT2:	PUSHJ P,C0XCT	;DO THE INCREMENT/DECREMENT
  1467	045201	201 01 0 00 062260 		MOVEI A,62260
  1468	045202	260 17 0 00 046575 		PUSHJ P,C0XCT
  1469						MCONO SA0,RDMA	^;TO READ THE MA BACK
  1470	045203	201 15 0 00 000010 		MOVEI DD,RDMA
  1471	045204	256 00 0 00 060621 		XCT DCONO
  1472	045205	256 00 0 00 060624 		MDATAI SA0,A^	XCT DDATAI
  1473	045206	202 15 0 00 000001 		MOVEM DD,A
  1474						MCONO SA0,RDBITS	^;TO READ THE EXTRA ADDR BITS
  1475	045207	201 15 0 00 000050 		MOVEI DD,RDBITS
  1476	045210	256 00 0 00 060621 		XCT DCONO
  1477	045211	256 00 0 00 060624 		MDATAI SA0,B^	XCT DDATAI
  1478	045212	202 15 0 00 000002 		MOVEM DD,B
  1479	045213	137 02 0 00 104415 		DPB B,[240200,,A]	;PUT EXTRA BITS WHERE THEY BELONG
  1480	045214	430 01 0 00 061672 		XOR A,INCTW	;COMPARE
  1481	045215	612 01 0 00 104422 	IFG CV,	TDNE A,[17,,777777]	;WHERE WORDS SHOULD MATCH
  1482					IFLE CV,TDNE A,[3,,-1]
  1483	045216	254 00 0 00 062174 		JRST ERR39	;IF ERROR
  1484	045217				INCT4:	LOOP  INCT1		^;USE SAME DATA IF LOOPING
  1485	045217	256 00 0 00 050277 		XCT	RDSWS		;GO GET SWITCHES
  1486	045220	607 15 0 00 040000 		TLNN	DD,40000
  1487	045221	254 00 0 00 045225 		JRST .+4
  1488	045222	260 17 0 00 052642 		PUSHJ P,CHKCNC
  1489	045223	254 00 0 00 044300 		JRST CI0
  1490	045224	254 00 0 00 045166 		JRST INCT1
  1491	045225	322 06 0 00 045230 		JUMPE F,INCT5	;IF ALL BIT POSITIONS TRIED
  1492	045226	240 06 0 00 777777 		ASH F,-1
  1493	045227	254 00 0 00 045166 		JRST INCT1	;OTHERWISE TRY NEXT ONE
  1494
  1495	045230	450 12 0 00 000000 	INCT5:	SETCA J,0	;COMPLEMENT J
  1496	045231	321 12 0 00 045165 		JUMPL J,INCT0	;AND DO OTHER PASS IF NEEDED
  1497					;FALLS THROUGH TO NEXT PAGE
  1498
  1499
  1500
  1501
SA10 - DIAGNOSTIC FOR SYSTEMS CONCEPTS SA-10 IBM-TO-DEC SUBSYSTEM ADAPTOR	VER 1	MACRO %53B(1155)-2 14:34 14-Feb-86 Page 33
SA10N	MAC	17-Sep-74 22:01

  1502					;FALLEN INTO FROM PREVIOUS PAGE
  1503	045232	135 07 0 00 061100 	STCL:	LDB G,NCHNP	;HANG ALL CHANNELS
  1504	045233	275 07 0 00 000001 		SUBI G,1
  1505	045234	260 17 0 00 046551 	STCLH:	PUSHJ P,STEPCX	;GET TO RIGHT CHANNEL
  1506	045235	201 01 0 00 000000*		MOVEI A,HANGPC##;FEED IT MAGIC PC WHICH WILL HANG IT
  1507	045236	260 17 0 00 046572 		PUSHJ P,CXXCT
  1508	045237	365 07 0 00 045234 		SOJGE G,STCLH	;DO SAME FOR ALL CHANNELS
  1509						MCONO SA0,SACGO	^;START THE CLOCK SO CONO'S WILL WORK
  1510	045240	201 15 0 00 001040 		MOVEI DD,SACGO
  1511	045241	256 00 0 00 060621 		XCT DCONO
  1512	045242	135 03 0 00 061100 	STCL0:	LDB C,NCHNP
  1513	045243	275 03 0 00 000001 		SUBI C,1
  1514	045244	200 05 0 00 000003 		MOVE E,C
  1515	045245	240 05 0 00 000003 		ASH E,3
  1516	045246	210 01 0 00 000003 		MOVN A,C
  1517	045247	201 04 0 00 040000 		MOVEI D,PIE0
  1518	045250	242 04 0 01 000000 		LSH D,(A)
  1519	045251	201 15 0 05 000740 	STCL1:	MCONO SA0,STPIE(E)^	MOVEI DD,STPIE(E)
  1520	045252	256 00 0 00 060621 		XCT DCONO
  1521	045253	256 00 0 00 060622 		MCONSO SA0,(D)^	XCT DCONI
  1522	045254	606 15 0 04 000000 		TRNN DD,(D)
  1523	045255	254 00 0 00 061756 		JRST ERR13
  1524	045256	201 15 0 05 000700 	STCL1A:	MCONO SA0,CLPIE(E)^	MOVEI DD,CLPIE(E)
  1525	045257	256 00 0 00 060621 		XCT DCONO
  1526	045260	256 00 0 00 060622 		MCONSZ SA0,(D)^	XCT DCONI
  1527	045261	602 15 0 04 000000 		TRNE DD,(D)
  1528	045262	254 00 0 00 061765 		JRST ERR14
  1529	045263	242 04 0 00 777774 	STCL1B:	LSH D,-4
  1530	045264	201 15 0 05 000440 		MCONO SA0,STBSY(E)^	MOVEI DD,STBSY(E)
  1531	045265	256 00 0 00 060621 		XCT DCONO
  1532	045266	256 00 0 00 060622 		MCONSO SA0,(D)^	XCT DCONI
  1533	045267	606 15 0 04 000000 		TRNN DD,(D)
  1534	045270	254 00 0 00 061774 		JRST ERR15
  1535	045271	201 15 0 05 000400 	STCL1C:	MCONO SA0,CLBSY(E)^	MOVEI DD,CLBSY(E)
  1536	045272	256 00 0 00 060621 		XCT DCONO
  1537	045273	256 00 0 00 060622 		MCONSZ SA0,(D)^	XCT DCONI
  1538	045274	602 15 0 04 000000 		TRNE DD,(D)
  1539	045275	254 00 0 00 062003 		JRST ERR16
  1540	045276	242 04 0 00 777774 	STCL1D:	LSH D,-4
  1541	045277	201 15 0 05 000640 		MCONO SA0,STSTF(E)^	MOVEI DD,STSTF(E)
  1542	045300	256 00 0 00 060621 		XCT DCONO
  1543	045301	256 00 0 00 060622 		MCONSO SA0,(D)^	XCT DCONI
  1544	045302	606 15 0 04 000000 		TRNN DD,(D)
  1545	045303	254 00 0 00 062012 		JRST ERR17
  1546	045304	201 15 0 05 000600 	STCL1E:	MCONO SA0,CLSTF(E)^	MOVEI DD,CLSTF(E)
  1547	045305	256 00 0 00 060621 		XCT DCONO
  1548	045306	256 00 0 00 060622 		MCONSZ SA0,(D)^	XCT DCONI
  1549	045307	602 15 0 04 000000 		TRNE DD,(D)
  1550	045310	254 00 0 00 062021 		JRST ERR18
  1551	045311	242 04 0 00 000011 	STCL1F:	LSH D,10+1
  1552	045312	256 00 0 00 050277 		LOOP  STCL0^	XCT	RDSWS		;GO GET SWITCHES
  1553	045313	607 15 0 00 040000 		TLNN	DD,40000
  1554	045314	254 00 0 00 045320 		JRST .+4
  1555	045315	260 17 0 00 052642 		PUSHJ P,CHKCNC
  1556	045316	254 00 0 00 044300 		JRST CI0
SA10 - DIAGNOSTIC FOR SYSTEMS CONCEPTS SA-10 IBM-TO-DEC SUBSYSTEM ADAPTOR	VER 1	MACRO %53B(1155)-2 14:34 14-Feb-86 Page 33-1
SA10N	MAC	17-Sep-74 22:01

  1557	045317	254 00 0 00 045242 		JRST STCL0
  1558	045320	275 03 0 00 000001 		SUBI C,1
  1559	045321	275 05 0 00 000010 		SUBI E,10
  1560	045322	325 05 0 00 045251 		JUMPGE E,STCL1
  1561	045323	205 02 0 00 777775 		MOVSI B,-3
  1562	045324	201 15 0 00 001000 		MCONO SA0,SASTEP^	MOVEI DD,SASTEP
  1563	045325	256 00 0 00 060621 		XCT DCONO
  1564	045326	260 17 0 00 046550 		PUSHJ P,STEPC0
  1565	045327	200 01 0 02 062637 	STCLM2:	MOVE A,STCLM(B)
  1566	045330	260 17 0 00 046575 		PUSHJ P,C0XCT
  1567	045331	256 00 0 00 060622 		MCONSO SA0,@STCLM1(B)^	XCT DCONI
  1568	045332	606 15 1 02 062642 		TRNN DD,@STCLM1(B)
  1569	045333	254 00 0 00 062030 		JRST ERR19
  1570	045334	200 01 0 02 062637 	STCLM3:	MOVE A,STCLM(B)
  1571	045335	275 01 0 00 004000 		SUBI A,4000
  1572	045336	260 17 0 00 046575 		PUSHJ P,C0XCT
  1573	045337	256 00 0 00 060622 		MCONSZ SA0,@STCLM1(B)^	XCT DCONI
  1574	045340	602 15 1 02 062642 		TRNE DD,@STCLM1(B)
  1575	045341	254 00 0 00 062037 		JRST ERR20
  1576	045342	256 00 0 00 050277 	STCLM4:	LOOP  STCLM2^	XCT	RDSWS		;GO GET SWITCHES
  1577	045343	607 15 0 00 040000 		TLNN	DD,40000
  1578	045344	254 00 0 00 045350 		JRST .+4
  1579	045345	260 17 0 00 052642 		PUSHJ P,CHKCNC
  1580	045346	254 00 0 00 044300 		JRST CI0
  1581	045347	254 00 0 00 045327 		JRST STCLM2
  1582	045350	253 02 0 00 045327 		AOBJN B,STCLM2
  1583					;FALLS THROUGH TO NEXT PAGE
  1584
  1585
SA10 - DIAGNOSTIC FOR SYSTEMS CONCEPTS SA-10 IBM-TO-DEC SUBSYSTEM ADAPTOR	VER 1	MACRO %53B(1155)-2 14:34 14-Feb-86 Page 34
SA10N	MAC	17-Sep-74 22:01

  1586					;FALLEN INTO FROM PREVIOUS PAGE
  1587	045351	135 07 0 00 061100 	QFIFO:	LDB G,NCHNP	;FILL UP THE RING BUFFERS
  1588	045352	275 07 0 00 000001 		SUBI G,1	;OF ALL CHANNELS
  1589	045353	260 17 0 00 046230 	FIFO1:	PUSHJ P,CHKNHC	;SELECT CHAN, SKIP IF REAL CHAN
  1590	045354	254 00 0 00 045434 		 JRST FIFO2D	;ISN'T - SKIP FILL
  1591	045355	201 01 0 00 002000 		MOVEI A,002000	;CLEAR TAG BYTE
  1592	045356	260 17 0 00 046572 		PUSHJ P,CXXCT
  1593	045357	201 01 0 00 027000 		MOVEI A,027000	;SET WRITE BIT IN TAG BYTE
  1594	045360	260 17 0 00 046572 		PUSHJ P,CXXCT
  1595	045361	201 01 0 00 027400 		MOVEI A,027400	;SET BUFFER ENABLE BIT IN TAG BYTE
  1596	045362	260 17 0 00 046572 		PUSHJ P,CXXCT
  1597	045363	201 01 0 00 145000 		MOVEI A,145000	;TEST BUFFER EMPTY BIT
  1598	045364	260 17 0 00 046601 		PUSHJ P,CXTST
  1599	045365	606 01 0 00 100000 		TRNN A,40_12	;CHECK RESULTS OF TEST
  1600	045366	254 00 0 00 062047 		JRST ERR21	;BUFFER WASN'T EMPTY
  1601	045367	256 00 0 00 050277 	FIFO1A:	LOOP  FIFO1^	XCT	RDSWS		;GO GET SWITCHES
  1602	045370	607 15 0 00 040000 		TLNN	DD,40000
  1603	045371	254 00 0 00 045375 		JRST .+4
  1604	045372	260 17 0 00 052642 		PUSHJ P,CHKCNC
  1605	045373	254 00 0 00 044300 		JRST CI0
  1606	045374	254 00 0 00 045353 		JRST FIFO1
  1607	045375	201 03 0 00 000000 		MOVEI C,0
  1608	045376	260 17 0 00 046566 		PUSHJ P,LCXCW	;CAUSE AN APPARENT W.C. OVERFLOW
  1609	045377	201 04 0 00 000020 		MOVEI D,NBF	;SET UP COUNT OF # BYTES TO SEND
  1610	045400	200 01 0 00 000007 	FIFO2:	MOVE A,G
  1611	045401	242 01 0 00 000005 		LSH A,5
  1612	045402	270 01 0 00 000004 		ADD A,D		;SYNTHESIZE A UNIQUE BYTE OF DATA
  1613	045403	260 17 0 00 046572 		PUSHJ P,CXXCT	;PUT IT INTO MICRO-P.C.
  1614	045404	201 01 0 00 040140 		MOVEI A,040140	;PUT "FIFO_MICRO-P.C." IN MICROIN-
  1615	045405	260 17 0 00 046601 		PUSHJ P,CXTST	;STRUCTION REGISTER TO SEE IF IT
  1616								;WILL BRANCH
  1617	045406	260 17 0 00 046562 		PUSHJ P,STEPX	;NOW EXECUTE THE MICROINSTRUCTION
  1618	045407	201 01 0 00 145000 		MOVEI A,145000	;TEST BUFFER EMPTY BIT
  1619	045410	260 17 0 00 046601 		PUSHJ P,CXTST
  1620	045411	602 01 0 00 100000 		TRNE A,40_12
  1621	045412	254 00 0 00 062056 		JRST ERR22	;BUFFER WAS EMPTY
  1622	045413	256 00 0 00 050277 	FIFO2A:	LOOP  FIFO2^	XCT	RDSWS		;GO GET SWITCHES
  1623	045414	607 15 0 00 040000 		TLNN	DD,40000
  1624	045415	254 00 0 00 045421 		JRST .+4
  1625	045416	260 17 0 00 052642 		PUSHJ P,CHKCNC
  1626	045417	254 00 0 00 044300 		JRST CI0
  1627	045420	254 00 0 00 045400 		JRST FIFO2
  1628	045421	367 04 0 00 045400 		SOJG D,FIFO2	;KEEP DOING IT UNTIL FIFO SHOULD BE FULL
  1629	045422	201 01 0 00 040140 	FIFO2C:	MOVEI A,040140	;TRY TO PUT ANOTHER WORD INTO FIFO
  1630	045423	260 17 0 00 046572 		PUSHJ P,CXXCT
  1631	045424	606 01 0 00 000001 		TRNN A,1	;OUGHT TO COMPLAIN THIS TIME
  1632	045425	254 00 0 00 062065 		JRST ERR24	;DIDN'T
  1633	045426	256 00 0 00 050277 	FIFO2B:	LOOP  FIFO2C^	XCT	RDSWS		;GO GET SWITCHES
  1634	045427	607 15 0 00 040000 		TLNN	DD,40000
  1635	045430	254 00 0 00 045434 		JRST .+4
  1636	045431	260 17 0 00 052642 		PUSHJ P,CHKCNC
  1637	045432	254 00 0 00 044300 		JRST CI0
  1638	045433	254 00 0 00 045422 		JRST FIFO2C
  1639	045434	365 07 0 00 045353 	FIFO2D:	SOJGE G,FIFO1	;FILL UP FIFOS OF OTHER CHANNELS
  1640					;O.K., FOLKS, NOW WE SEE IF WE CAN GET THE DATA BACK
SA10 - DIAGNOSTIC FOR SYSTEMS CONCEPTS SA-10 IBM-TO-DEC SUBSYSTEM ADAPTOR	VER 1	MACRO %53B(1155)-2 14:34 14-Feb-86 Page 34-1
SA10N	MAC	17-Sep-74 22:01

  1641					;FALLS THROUGH TO NEXT PAGE
SA10 - DIAGNOSTIC FOR SYSTEMS CONCEPTS SA-10 IBM-TO-DEC SUBSYSTEM ADAPTOR	VER 1	MACRO %53B(1155)-2 14:34 14-Feb-86 Page 35
SA10N	MAC	17-Sep-74 22:01

  1642					;FALLEN INTO FROM PREVIOUS PAGE
  1643	045435	135 07 0 00 061100 		LDB G,NCHNP	;START UNLOADING HIGHEST CHANNEL
  1644	045436	275 07 0 00 000001 		SUBI G,1
  1645	045437	260 17 0 00 046230 	FIFO3:	PUSHJ P,CHKNHC	;SELECT CHAN, SKIP IF REAL
  1646	045440	254 00 0 00 045530 		 JRST FIFO4D	;NO, DON'T CHECK IT
  1647	045441	201 01 0 00 023400 		MOVEI A,023400	;CLEAR BUFFER ENABLE
  1648	045442	260 17 0 00 046572 		PUSHJ P,CXXCT
  1649	045443	201 01 0 00 027400 		MOVEI A,027400	;SET BUFFER ENABLE
  1650	045444	260 17 0 00 046572 		PUSHJ P,CXXCT
  1651	045445	201 01 0 00 145000 		MOVEI A,145000	;TEST BUFFER EMPTY (SHOULD BE)
  1652	045446	260 17 0 00 046601 		PUSHJ P,CXTST
  1653	045447	606 01 0 00 100000 		TRNN A,40_12
  1654	045450	254 00 0 00 062074 		JRST ERR25	;WASN'T
  1655	045451	256 00 0 00 050277 	FIFO3A:	LOOP  FIFO3^	XCT	RDSWS		;GO GET SWITCHES
  1656	045452	607 15 0 00 040000 		TLNN	DD,40000
  1657	045453	254 00 0 00 045457 		JRST .+4
  1658	045454	260 17 0 00 052642 		PUSHJ P,CHKCNC
  1659	045455	254 00 0 00 044300 		JRST CI0
  1660	045456	254 00 0 00 045437 		JRST FIFO3
  1661	045457	201 01 0 00 023000 		MOVEI A,023000	;CLEAR WRITE
  1662	045460	260 17 0 00 046572 		PUSHJ P,CXXCT
  1663	045461	201 04 0 00 000020 	FIFO3Z:	MOVEI D,NBF
  1664	045462	201 01 0 00 145000 	FIFO4:	MOVEI A,145000	;TEST BUFFER EMPTY
  1665	045463	260 17 0 00 046601 		PUSHJ P,CXTST
  1666	045464	602 01 0 00 100000 		TRNE A,40_12
  1667	045465	254 00 0 00 062103 		JRST ERR26	;OOPS, IT WAS
  1668	045466	256 00 0 00 050277 	FIFO4A:	LOOP  FIFO4^	XCT	RDSWS		;GO GET SWITCHES
  1669	045467	607 15 0 00 040000 		TLNN	DD,40000
  1670	045470	254 00 0 00 045474 		JRST .+4
  1671	045471	260 17 0 00 052642 		PUSHJ P,CHKCNC
  1672	045472	254 00 0 00 044300 		JRST CI0
  1673	045473	254 00 0 00 045462 		JRST FIFO4
  1674	045474	201 01 0 00 147000 		MOVEI A,147000	;R0B0_FIFO
  1675	045475	260 17 0 00 046601 		PUSHJ P,CXTST
  1676	045476	260 17 0 00 046562 		PUSHJ P,STEPX
  1677	045477	200 10 0 00 000007 		MOVE H,G
  1678	045500	242 10 0 00 000005 		LSH H,5
  1679	045501	270 10 0 00 000004 		ADD H,D
  1680	045502	201 01 0 00 140000 		MOVEI A,140000	;CBUS_R0B0
  1681	045503	260 17 0 00 046601 		PUSHJ P,CXTST
  1682	045504	135 01 0 00 104410 		LDB A,[121000,,A]
  1683	045505	312 01 0 00 000010 		CAME A,H
  1684	045506	254 00 0 00 062112 		JRST ERR27	;WRONG DATA READ BACK FROM FIFO
  1685	045507	367 04 0 00 045462 	FIFO4B:	SOJG D,FIFO4	;READ BACK THE REST
  1686	045510	256 00 0 00 050277 		LOOP  FIFO3Z^	XCT	RDSWS		;GO GET SWITCHES
  1687	045511	607 15 0 00 040000 		TLNN	DD,40000
  1688	045512	254 00 0 00 045516 		JRST .+4
  1689	045513	260 17 0 00 052642 		PUSHJ P,CHKCNC
  1690	045514	254 00 0 00 044300 		JRST CI0
  1691	045515	254 00 0 00 045461 		JRST FIFO3Z
  1692	045516	201 01 0 00 145000 		MOVEI A,145000	;BUFFER SHOULD NOW BE EMPTY
  1693	045517	260 17 0 00 046601 		PUSHJ P,CXTST
  1694	045520	606 01 0 00 100000 		TRNN A,40_12
  1695	045521	254 00 0 00 062130 		JRST ERR23	;OOPS, IT ISN'T
  1696	045522	256 00 0 00 050277 	FIFO4C:	LOOP  FIFO3^	XCT	RDSWS		;GO GET SWITCHES
SA10 - DIAGNOSTIC FOR SYSTEMS CONCEPTS SA-10 IBM-TO-DEC SUBSYSTEM ADAPTOR	VER 1	MACRO %53B(1155)-2 14:34 14-Feb-86 Page 35-1
SA10N	MAC	17-Sep-74 22:01

  1697	045523	607 15 0 00 040000 		TLNN	DD,40000
  1698	045524	254 00 0 00 045530 		JRST .+4
  1699	045525	260 17 0 00 052642 		PUSHJ P,CHKCNC
  1700	045526	254 00 0 00 044300 		JRST CI0
  1701	045527	254 00 0 00 045437 		JRST FIFO3
  1702	045530	365 07 0 00 045437 	FIFO4D:	SOJGE G,FIFO3	;READ BACK FIFOS OF OTHER CHANNELS
  1703					;FALL THRU
SA10 - DIAGNOSTIC FOR SYSTEMS CONCEPTS SA-10 IBM-TO-DEC SUBSYSTEM ADAPTOR	VER 1	MACRO %53B(1155)-2 14:34 14-Feb-86 Page 36
SA10N	MAC	17-Sep-74 22:01

  1704					;TRY OUT P.I. REQUEST LOGIC
  1705	045531	201 15 0 00 001040 	PITST0:	MCONO SA0,SACGO^	MOVEI DD,SACGO
  1706	045532	256 00 0 00 060621 		XCT DCONO
  1707	045533	135 07 0 00 061100 		LDB G,NCHNP
  1708	045534	275 07 0 00 000001 		SUBI G,1
  1709	045535	242 07 0 00 000003 		LSH G,3
  1710	045536				PITST:	MCONO SA0,CLSRQ(G)	^;CLEAR STATUS REQUEST FLAG
  1711	045536	201 15 0 07 000500 		MOVEI DD,CLSRQ(G)
  1712	045537	256 00 0 00 060621 		XCT DCONO
  1713						MCONO SA0,CLSTF(G)	^;AND STATUS FLAG
  1714	045540	201 15 0 07 000600 		MOVEI DD,CLSTF(G)
  1715	045541	256 00 0 00 060621 		XCT DCONO
  1716						MCONO SA0,STPIE(G)	^;AND SET P.I. ENABLE FLAG
  1717	045542	201 15 0 07 000740 		MOVEI DD,STPIE(G)
  1718	045543	256 00 0 00 060621 		XCT DCONO
  1719	045544	275 07 0 00 000010 		SUBI G,10
  1720	045545	325 07 0 00 045536 		JUMPGE G,PITST	;FOR ALL CHANNELS
  1721						MCONSZ SA0,PIRQ	^;SHOULD NOT BE REQUESTING AN INTERRUPT
  1722	045546	256 00 0 00 060622 		XCT DCONI
  1723	045547	602 15 0 00 400000 		TRNE DD,PIRQ
  1724	045550	254 00 0 00 062137 		JRST ERR29	;OOPS, WAS
  1725	045551	256 00 0 00 050277 	PITST1:	LOOP  PITST0^	XCT	RDSWS		;GO GET SWITCHES
  1726	045552	607 15 0 00 040000 		TLNN	DD,40000
  1727	045553	254 00 0 00 045557 		JRST .+4
  1728	045554	260 17 0 00 052642 		PUSHJ P,CHKCNC
  1729	045555	254 00 0 00 044300 		JRST CI0
  1730	045556	254 00 0 00 045531 		JRST PITST0
  1731	045557	402 00 0 00 061242 		CLEARM PIE	;NOT EXPECTING ANY INTERRUPTS
  1732	045560	7 004 20 0 00 012377 		CONO PI,12377	;ENABLE ALL P.I. CHANNELS
  1733	045561	201 02 0 00 000007 		MOVEI B,7
  1734	045562	201 15 0 02 000000 	PIT1:	MCONO SA0,(B)^	MOVEI DD,(B)
  1735	045563	256 00 0 00 060621 		XCT DCONO
  1736	045564	367 02 0 00 045563 		SOJG B,.-1	;SHOULD NEVER INTERRUPT
  1737	045565	135 07 0 00 061100 		LDB G,NCHNP
  1738	045566	275 07 0 00 000001 		SUBI G,1
  1739	045567	242 07 0 00 000003 		LSH G,3
  1740	045570	201 02 0 00 000007 	PIT2:	MOVEI B,7
  1741	045571	202 02 0 00 061242 	PIT3:	MOVEM B,PIE
  1742	045572	270 02 0 00 000007 		ADD B,G
  1743						MCONO SA0,STSTF(B)	^;SHOULD CAUSE AN INTERRUPT
  1744	045573	201 15 0 02 000640 		MOVEI DD,STSTF(B)
  1745	045574	256 00 0 00 060621 		XCT DCONO
  1746	045575	201 00 0 00 000010 		MOVEI 10
  1747	045576	367 00 0 00 045576 		SOJG .		;WASTE SOME TIME FOR KI/KL
  1748	045577	332 00 0 00 061242 		SKIPE PIE	;DID IT?
  1749	045600	254 00 0 00 062144 		JRST ERR38	;NO, COMPLAIN
  1750	045601	256 00 0 00 050277 	PIT3A:	LOOP  PIT3^	XCT	RDSWS		;GO GET SWITCHES
  1751	045602	607 15 0 00 040000 		TLNN	DD,40000
  1752	045603	254 00 0 00 045607 		JRST .+4
  1753	045604	260 17 0 00 052642 		PUSHJ P,CHKCNC
  1754	045605	254 00 0 00 044300 		JRST CI0
  1755	045606	254 00 0 00 045571 		JRST PIT3
  1756	045607	274 02 0 00 000007 		SUB B,G
  1757	045610	367 02 0 00 045571 		SOJG B,PIT3	;TRY ALL P.I. CHANNELS
  1758	045611	275 07 0 00 000010 		SUBI G,10
SA10 - DIAGNOSTIC FOR SYSTEMS CONCEPTS SA-10 IBM-TO-DEC SUBSYSTEM ADAPTOR	VER 1	MACRO %53B(1155)-2 14:34 14-Feb-86 Page 36-1
SA10N	MAC	17-Sep-74 22:01

  1759	045612	325 07 0 00 045570 		JUMPGE G,PIT2	;TRY ALL SA-10 CHANNELS
SA10 - DIAGNOSTIC FOR SYSTEMS CONCEPTS SA-10 IBM-TO-DEC SUBSYSTEM ADAPTOR	VER 1	MACRO %53B(1155)-2 14:34 14-Feb-86 Page 37
SA10N	MAC	17-Sep-74 22:01

  1760	045613	201 02 0 00 000000 	UCT:	MOVEI B,0	;ADDRESS
  1761	045614	260 17 0 00 046577 	UCT00:	PUSHJ P,STEP0	;DO GOTO
  1762	045615	550 03 0 02 000000*	UCT0:	HRRZ C,MCBEG0##(B)	;WHAT UINST SHOULD BE
  1763	045616	602 03 0 00 140000 		TRNE C,140000
  1764	045617	254 00 0 00 045635 		JRST UCT8	;IF NOT GOTO OR OFF/ON
  1765	045620	200 01 0 00 000002 		MOVE A,B
  1766	045621	260 17 0 00 046575 		PUSHJ P,C0XCT	;IT'S HARMLESS, DO IT
  1767	045622	260 17 0 00 046577 		PUSHJ P,STEP0
  1768	045623	554 03 0 02 045615*		HLRZ C,MCBEG0##(B)	;FULL JUMP ADR
  1769	045624	405 01 0 00 001777 		ANDI A,1777
  1770	045625	312 01 0 00 000003 		CAME A,C
  1771	045626	254 00 0 00 062207 		JRST ERR41
  1772	045627	256 00 0 00 050277 	UCT7:	LOOP  UCT00^	XCT	RDSWS		;GO GET SWITCHES
  1773	045630	607 15 0 00 040000 		TLNN	DD,40000
  1774	045631	254 00 0 00 045635 		JRST .+4
  1775	045632	260 17 0 00 052642 		PUSHJ P,CHKCNC
  1776	045633	254 00 0 00 044300 		JRST CI0
  1777	045634	254 00 0 00 045614 		JRST UCT00
  1778	045635	205 03 0 00 000000*	UCT8:	MOVSI C,$CNOB##
  1779	045636	636 03 0 00 000000*		TDZN C,CONFIG	;TEST CONFIG WORD
  1780	045637	334 03 0 00 104423 		SKIPA C,[1377]
  1781	045640	201 03 0 00 000777 		MOVEI C,777	;HOW MUCH MICROCODE
  1782	045641	315 02 0 00 000003 		CAMGE B,C
  1783	045642	344 02 0 00 045615 		AOJA B,UCT0
SA10 - DIAGNOSTIC FOR SYSTEMS CONCEPTS SA-10 IBM-TO-DEC SUBSYSTEM ADAPTOR	VER 1	MACRO %53B(1155)-2 14:34 14-Feb-86 Page 38
SA10N	MAC	17-Sep-74 22:01

  1784					;TEST MEM READ, WRITE
  1785	045643	200 05 0 00 051611 	TAT:	MOVE E,ADRLO
  1786	045644	200 01 0 00 000005 	TAT1:	MOVE A,E
  1787	045645	260 17 0 00 050160 		PUSHJ P,MAPAL
  1788	045646	202 05 0 01 000000 		MOVEM E,(A)	;FILL MEMORY WITH .
  1789	045647	271 05 0 00 000001 		ADDI E,1
  1790	045650	253 01 0 00 045646 		AOBJN A,.-2
  1791	045651	317 05 0 00 051612 		CAMG E,ADRHI
  1792	045652	254 00 0 00 045644 		JRST TAT1
  1793	045653	275 05 0 00 000001 		SUBI E,1	;HIGHEST USED ADDRESS
  1794	045654	205 10 0 00 200000 		MOVSI H,200000
  1795	045655	200 04 0 00 051612 	TAT2:	MOVE D,ADRHI
  1796	045656	241 10 0 00 000001 		ROT H,1		;MOVE THE FLOATING BIT
  1797	045657	602 10 0 00 000001 		TRNE H,1
  1798	045660	254 00 0 00 045656 		JRST .-2
  1799	045661	603 10 0 00 377740 		TLNE H,377740
  1800	045662	254 00 0 00 045774 		JRST TBT	;IF TRIED ALL VALID BIT POSITIONS
  1801	045663	430 04 0 00 000010 		XOR D,H		;TURN OFF A BIT
  1802	045664	621 04 0 00 777740 		TLZ D,777740	;RESTRICT TO ADDRESS SIZE
  1803	045665	317 04 0 00 051612 		CAMG D,ADRHI	;SKIP IF TOO BIG
  1804	045666	315 04 0 00 051611 		CAMGE D,ADRLO	;DON'T SKIP IF TOO LOW
  1805	045667	254 00 0 00 045655 		JRST TAT2	;DON'T TRY THIS LOCATION
  1806	045670	201 01 0 00 000044 		MOVEI A,^D36
  1807	045671	264 00 0 00 062527 		JSR PTN	;36-BIT DATA PATTERNS
  1808	045672	202 01 0 00 046164 		MOVEM A,TBTV	;TEST DATA VALUE
  1809	045673	200 05 0 00 000001 		MOVE E,A
  1810	045674	260 17 0 00 050145 		PUSHJ P,MAPAD
  1811	045675	202 05 0 01 000000 		MOVEM E,(A)	;TO PROPER LOCATION
  1812	045676	201 07 0 00 000000 		MOVEI G,0	;USE CHAN 0
  1813	045677	200 03 0 00 000004 		MOVE C,D
  1814	045700	260 17 0 00 046446 		PUSHJ P,MEMRD	;HAVE THE SA-10 READ THE LOCATION
  1815	045701	254 00 0 00 061521 		JRST ERR8	;MEM READ TOOK TOO MANY TICKS
  1816	045702	256 00 0 00 050277 		LOOP  PTN9^	XCT	RDSWS		;GO GET SWITCHES
  1817	045703	607 15 0 00 040000 		TLNN	DD,40000
  1818	045704	254 00 0 00 045710 		JRST .+4
  1819	045705	260 17 0 00 052642 		PUSHJ P,CHKCNC
  1820	045706	254 00 0 00 044300 		JRST CI0
  1821	045707	254 00 0 00 062547 		JRST PTN9
  1822	045710	201 15 0 00 000020 		MCONO SA0,RDMBL^	MOVEI DD,RDMBL
  1823	045711	256 00 0 00 060621 		XCT DCONO
  1824	045712	256 00 0 00 060624 		MDATAI SA0,A^	XCT DDATAI
  1825	045713	202 15 0 00 000001 		MOVEM DD,A
  1826	045714	201 15 0 00 000030 		MCONO SA0,RDMBR^	MOVEI DD,RDMBR
  1827	045715	256 00 0 00 060621 		XCT DCONO
  1828	045716	256 00 0 00 060624 		MDATAI SA0,E^	XCT DDATAI
  1829	045717	202 15 0 00 000005 		MOVEM DD,E
  1830	045720	504 05 0 00 000001 		HRL E,A	;ASSEMBLE MB REGISTER CONTENTS IN E
  1831	045721	312 05 0 00 046164 		CAME E,TBTV	;LOCATION SHOULD CONTAIN PROPER DATA
  1832	045722	254 00 0 00 062450 		JRST ERR65	;DATA WRONG IN MB
  1833	045723	260 17 0 00 046551 		PUSHJ P,STEPCX
  1834	045724	201 01 0 00 146720 			MOVEI A,146720	;LOAD R REG FROM MRB
  1835	045725	260 17 0 00 046572 		PUSHJ P,CXXCT
  1836	045726	201 12 0 00 000000 		MOVEI J,0	;REG # BEING USED
  1837	045727	260 17 0 00 046202 		PUSHJ P,TCTR	;CHECK R REG CONTENTS
  1838	045730	260 17 0 00 050145 		PUSHJ P,MAPAD
SA10 - DIAGNOSTIC FOR SYSTEMS CONCEPTS SA-10 IBM-TO-DEC SUBSYSTEM ADAPTOR	VER 1	MACRO %53B(1155)-2 14:34 14-Feb-86 Page 38-1
SA10N	MAC	17-Sep-74 22:01

  1839	045731	200 06 0 01 000000 		MOVE F,(A)
  1840	045732	312 06 0 00 046164 		CAME F,TBTV
  1841	045733	254 00 0 00 062461 		JRST ERR66	;WORD IN MEMORY CLOBBERED
  1842	045734	200 05 0 00 046165 		MOVE E,TCTV
  1843	045735	312 05 0 00 000006 		CAME E,F
  1844	045736	254 00 0 00 062470 		JRST ERR67	;DATA WRONG IN R REG
  1845	045737	200 05 0 00 104424 		MOVE E,[525252,,252525]	;IMPROBABLE NUMBER
  1846	045740	260 17 0 00 050145 		PUSHJ P,MAPAD
  1847	045741	202 05 0 01 000000 		MOVEM E,(A)	;TO LOCATION WHERE SA-10 WILL WRITE
  1848	045742	201 01 0 00 063300 		MOVEI A,63300
  1849	045743	260 17 0 00 046572 		PUSHJ P,CXXCT
  1850	045744	201 01 0 00 042240 	TAT5:	MOVEI A,42240
  1851	045745	260 17 0 00 046626 		PUSHJ P,MEMXCT
  1852	045746	254 00 0 00 061717 		JRST ERR9	;WRITE CYC TOOK TOO LONG
  1853	045747	256 00 0 00 050277 		LOOP  TAT5^	XCT	RDSWS		;GO GET SWITCHES
  1854	045750	607 15 0 00 040000 		TLNN	DD,40000
  1855	045751	254 00 0 00 045755 		JRST .+4
  1856	045752	260 17 0 00 052642 		PUSHJ P,CHKCNC
  1857	045753	254 00 0 00 044300 		JRST CI0
  1858	045754	254 00 0 00 045744 		JRST TAT5
  1859	045755	200 06 0 00 046164 		MOVE F,TBTV	;CORRECT VALUE
  1860	045756	260 17 0 00 050145 		PUSHJ P,MAPAD
  1861	045757	200 05 0 01 000000 		MOVE E,(A)
  1862	045760	312 05 0 00 000006 		CAME E,F
  1863	045761	254 00 0 00 061724 		JRST ERR10	;DATA NOT WRITTEN PROPERLY
  1864	045762	256 00 0 00 050277 	TAT7:	LOOP  PTN9^	XCT	RDSWS		;GO GET SWITCHES
  1865	045763	607 15 0 00 040000 		TLNN	DD,40000
  1866	045764	254 00 0 00 045770 		JRST .+4
  1867	045765	260 17 0 00 052642 		PUSHJ P,CHKCNC
  1868	045766	254 00 0 00 044300 		JRST CI0
  1869	045767	254 00 0 00 062547 		JRST PTN9
  1870	045770	264 00 0 00 062525 		JSR PTN0	;TRY ANOTHER DATA VALUE
  1871	045771	260 17 0 00 050145 		PUSHJ P,MAPAD
  1872	045772	202 04 0 01 000000 		MOVEM D,(A)	;RESTORE CONTENTS TO .
  1873	045773	254 00 0 00 045655 		JRST TAT2	;TRY ANOTHER ADDRESS
SA10 - DIAGNOSTIC FOR SYSTEMS CONCEPTS SA-10 IBM-TO-DEC SUBSYSTEM ADAPTOR	VER 1	MACRO %53B(1155)-2 14:34 14-Feb-86 Page 39
SA10N	MAC	17-Sep-74 22:01

  1874					;TEST UNIQUENESS OF MRB REGS
  1875	045774	135 11 0 00 061100 	TBT:	LDB I,NCHNP
  1876	045775	275 11 0 00 000001 		SUBI I,1	;# CHANS - 1
  1877	045776	201 01 0 00 000044 		MOVEI A,^D36
  1878	045777	264 00 0 00 062527 		JSR PTN	;TEST 36-BIT DATA PATH
  1879	046000	202 01 0 00 046164 		MOVEM A,TBTV	;TEST VALUE
  1880	046001	201 10 0 00 000000 		MOVEI H,0	;TEST CHAN #
  1881	046002	200 07 0 00 000010 	TBT1:	MOVE G,H	;TEST CHAN #
  1882	046003	201 03 0 00 046164 		MOVEI C,TBTV	;WHERE TO GET DATA
  1883	046004	260 17 0 00 046446 		PUSHJ P,MEMRD	;CAUSE SA-10 TO READ THE WORD
  1884	046005	254 00 0 00 061521 		JRST ERR8	;IF HUNG
  1885	046006	201 15 0 00 000020 		MCONO SA0,RDMBL^	MOVEI DD,RDMBL
  1886	046007	256 00 0 00 060621 		XCT DCONO
  1887	046010	256 00 0 00 060624 		MDATAI SA0,E^	XCT DDATAI
  1888	046011	202 15 0 00 000005 		MOVEM DD,E
  1889	046012	135 05 0 00 104425 		LDB E,[220200,,E]	;MEM USER BITS
  1890	046013	312 05 0 00 000007 		CAME E,G
  1891	046014	254 00 0 00 062475 		JRST ERR68	;WRONG CHAN HAS MEM
  1892	046015	256 00 0 00 050277 	TBT1B:	LOOP  TBT1A^	XCT	RDSWS		;GO GET SWITCHES
  1893	046016	607 15 0 00 040000 		TLNN	DD,40000
  1894	046017	254 00 0 00 046023 		JRST .+4
  1895	046020	260 17 0 00 052642 		PUSHJ P,CHKCNC
  1896	046021	254 00 0 00 044300 		JRST CI0
  1897	046022	254 00 0 00 046226 		JRST TBT1A
  1898	046023	462 00 0 00 046164 		SETCMM TBTV	;COMPLEMENT OF DATA
  1899	046024	201 07 0 00 000000 		MOVEI G,0	;INTERFERENCE CHAN #
  1900	046025	201 03 0 00 046164 	TBT2:	MOVEI C,TBTV
  1901	046026	316 07 0 00 000010 		CAMN G,H
  1902	046027	254 00 0 00 046032 		JRST .+3
  1903	046030	260 17 0 00 046446 		PUSHJ P,MEMRD	;READ THE COMPLEMENTED DATA IF NOT TEST CHAN
  1904	046031	254 00 0 00 061521 		JRST ERR8	;IF HUNG
  1905	046032	315 07 0 00 000011 		CAMGE G,I
  1906	046033	344 07 0 00 046025 		AOJA G,TBT2	;IF OTHER CHANS
  1907	046034	200 07 0 00 000010 		MOVE G,H	;TEST CHAN #
  1908	046035	260 17 0 00 046551 		PUSHJ P,STEPCX
  1909	046036	201 01 0 00 146720 		MOVEI A,146720
  1910	046037	260 17 0 00 046572 		PUSHJ P,CXXCT	;MRB TO R0
  1911	046040	201 12 0 00 000000 		MOVEI J,0	;R # IN USE
  1912	046041	260 17 0 00 046202 		PUSHJ P,TCTR	;READ R REG
  1913	046042	200 05 0 00 046165 		MOVE E,TCTV
  1914	046043	462 00 0 00 046164 		SETCMM TBTV
  1915	046044	312 05 0 00 046164 		CAME E,TBTV
  1916	046045	254 00 0 00 062502 		JRST ERR70	;WRONG IN R REG
  1917	046046	256 00 0 00 050277 	TBT4:	LOOP  TBT1A^	XCT	RDSWS		;GO GET SWITCHES
  1918	046047	607 15 0 00 040000 		TLNN	DD,40000
  1919	046050	254 00 0 00 046054 		JRST .+4
  1920	046051	260 17 0 00 052642 		PUSHJ P,CHKCNC
  1921	046052	254 00 0 00 044300 		JRST CI0
  1922	046053	254 00 0 00 046226 		JRST TBT1A
  1923	046054	315 10 0 00 000011 		CAMGE H,I
  1924	046055	344 10 0 00 046002 		AOJA H,TBT1	;TRY ANOTHER TEST CHAN
  1925	046056	264 00 0 00 062525 		JSR PTN0	;TRY ANOTHER DATA VALUE
  1926						;TO TCT
SA10 - DIAGNOSTIC FOR SYSTEMS CONCEPTS SA-10 IBM-TO-DEC SUBSYSTEM ADAPTOR	VER 1	MACRO %53B(1155)-2 14:34 14-Feb-86 Page 40
SA10N	MAC	17-Sep-74 22:01

  1927					;TEST UNIQUENESS OF R AND A REGS
  1928	046057	135 11 0 00 061100 	TCT:	LDB I,NCHNP
  1929	046060	275 11 0 00 000001 		SUBI I,1
  1930	046061	201 01 0 00 000044 		MOVEI A,^D36
  1931	046062	264 00 0 00 062527 		JSR PTN	;36-BIT PATTERNS
  1932	046063	202 01 0 00 046164 		MOVEM A,TBTV	;TEST DATA
  1933	046064	201 10 0 00 000000 	TCT0:	MOVEI H,0	;TEST CHAN #
  1934	046065	201 12 0 00 000000 	TCT1:	MOVEI J,0	;TEST REG #
  1935	046066	200 07 0 00 000010 	TCT2:	MOVE G,H	;TEST CHAN #
  1936	046067	200 05 0 00 000012 		MOVE E,J	;TEST R #
  1937	046070	200 03 0 00 046164 		MOVE C,TBTV	;TEST DATA
  1938	046071	260 17 0 00 046166 		PUSHJ P,TCTS	;WRITE R, A REGS
  1939	046072	201 13 0 00 000000 		MOVEI K,0	;INTERF CHAN #
  1940	046073	201 14 0 00 000000 	TCT3:	MOVEI L,0	;INTERF REG #
  1941	046074	200 07 0 00 000013 	TCT4:	MOVE G,K	;INTERF CHAN #
  1942	046075	200 05 0 00 000014 		MOVE E,L	;INTERF REG #
  1943	046076	460 03 0 00 046164 		SETCM C,TBTV	;COMPLEMENT OF DATA
  1944	046077	332 00 0 00 046164 		SKIPE TBTV
  1945	046100	326 03 0 00 046110 		JUMPN C,TCT4C
  1946	046101	316 07 0 00 000010 		CAMN G,H	;SKIP IF NOT ON TEST CHAN
  1947	046102	312 05 0 00 000012 		CAME E,J	;DON'T SKIP IF NOT ON TEST R #
  1948	046103	260 17 0 00 046166 		PUSHJ P,TCTS	;WRITE IT
  1949	046104	305 14 0 00 000003 		CAIGE L,3
  1950	046105	344 14 0 00 046074 		AOJA L,TCT4	;ANOTHER INTERF R #
  1951	046106	315 13 0 00 000011 		CAMGE K,I
  1952	046107	344 13 0 00 046073 		AOJA K,TCT3	;ANOTHER INTERF CHAN
  1953	046110	200 07 0 00 000010 	TCT4C:	MOVE G,H	;TEST CHAN #
  1954	046111	260 17 0 00 046202 		PUSHJ P,TCTR	;READ R REG #J
  1955	046112	200 05 0 00 046165 		MOVE E,TCTV	;VALUE READ
  1956	046113	312 05 0 00 046164 		CAME E,TBTV	;PROPER VALUE
  1957	046114	254 00 0 00 062510 		JRST ERR71	;ERROR IN R
  1958	046115	256 00 0 00 050277 	TCT4A:	LOOP  PTN9^	XCT	RDSWS		;GO GET SWITCHES
  1959	046116	607 15 0 00 040000 		TLNN	DD,40000
  1960	046117	254 00 0 00 046123 		JRST .+4
  1961	046120	260 17 0 00 052642 		PUSHJ P,CHKCNC
  1962	046121	254 00 0 00 044300 		JRST CI0
  1963	046122	254 00 0 00 062547 		JRST PTN9
  1964	046123	402 00 0 00 046165 		SETZM TCTV
  1965	046124	201 02 0 00 040760 		MOVEI B,40760
  1966	046125	137 12 0 00 104426 		DPB J,[120200,,B]	;REG #
  1967	046126	200 01 0 00 000002 		MOVE A,B
  1968	046127	260 17 0 00 046601 		PUSHJ P,CXTST	;A TO CBUS
  1969	046130	241 01 0 00 777766 		ROT A,-12	;SHIFT CBUS TO RIGHT
  1970	046131	137 01 0 00 104427 		DPB A,[141000,,TCTV]	;LEFT BITS
  1971	046132	201 01 0 02 000400 		MOVEI A,400(B)
  1972	046133	260 17 0 00 046601 		PUSHJ P,CXTST
  1973	046134	241 01 0 00 777766 		ROT A,-12
  1974	046135	137 01 0 00 104430 		DPB A,[41000,,TCTV]	;MID BITS
  1975	046136	201 01 0 02 001000 		MOVEI A,1000(B)
  1976	046137	260 17 0 00 046601 		PUSHJ P,CXTST
  1977	046140	241 01 0 00 777766 		ROT A,-12
  1978	046141	137 01 0 00 104431 		DPB A,[240200,,TCTV]	;RIGHT BITS
  1979	046142	241 01 0 00 777774 		ROT A,-4
  1980	046143	137 01 0 00 104432 		DPB A,[400,,TCTV]
  1981	046144	200 05 0 00 046164 		MOVE E,TBTV	;RIGHT VALUE
SA10 - DIAGNOSTIC FOR SYSTEMS CONCEPTS SA-10 IBM-TO-DEC SUBSYSTEM ADAPTOR	VER 1	MACRO %53B(1155)-2 14:34 14-Feb-86 Page 40-1
SA10N	MAC	17-Sep-74 22:01

  1982	046145	621 05 0 00 777760 	IFG CV,	TLZ E,777760	;BITS THAT DON'T GET TO A REGS
  1983					IFLE CV,TLZ E,-4
  1984	046146	312 05 0 00 046165 		CAME E,TCTV
  1985	046147	254 00 0 00 062516 		JRST ERR72	;ERROR IN A
  1986	046150	256 00 0 00 050277 	TCT4B:	LOOP  PTN9^	XCT	RDSWS		;GO GET SWITCHES
  1987	046151	607 15 0 00 040000 		TLNN	DD,40000
  1988	046152	254 00 0 00 046156 		JRST .+4
  1989	046153	260 17 0 00 052642 		PUSHJ P,CHKCNC
  1990	046154	254 00 0 00 044300 		JRST CI0
  1991	046155	254 00 0 00 062547 		JRST PTN9
  1992	046156	305 12 0 00 000003 		CAIGE J,3
  1993	046157	344 12 0 00 046066 		AOJA J,TCT2	;ANOTHER TEST R #
  1994	046160	315 10 0 00 000011 		CAMGE H,I
  1995	046161	344 10 0 00 046065 		AOJA H,TCT1	;ANOTHER TEST CHAN
  1996	046162	264 00 0 00 062525 		JSR PTN0	;ANOTHER DATA VALUE
  1997	046163	254 00 0 00 046331 		JRST MUXREQ	;ON TO NEXT TEST
SA10 - DIAGNOSTIC FOR SYSTEMS CONCEPTS SA-10 IBM-TO-DEC SUBSYSTEM ADAPTOR	VER 1	MACRO %53B(1155)-2 14:34 14-Feb-86 Page 41
SA10N	MAC	17-Sep-74 22:01

  1998	046164	000000	000000		TBTV:	0
  1999	046165	000000	000000		TCTV:	0
  2000
  2001	046166	261 17 0 00 000010 	TCTS:	PUSH P,H
  2002	046167	260 17 0 00 046551 		PUSHJ P,STEPCX
  2003	046170	260 17 0 00 046177 		PUSHJ P,LCXRE
  2004	046171	201 01 0 00 041300 		MOVEI A,41300
  2005	046172	137 05 0 00 104433 		DPB E,[140200,,A]
  2006	046173	137 05 0 00 104434 		DPB E,[120200,,A]
  2007	046174	260 17 0 00 046572 		PUSHJ P,CXXCT
  2008	046175	262 17 0 00 000010 		POP P,H
  2009	046176	263 17 0 00 000000 		POPJ P,
  2010
  2011	046177	201 04 0 00 040000 	LCXRE:	MOVEI D,40000
  2012	046200	137 05 0 00 104435 		DPB E,[140200,,D]
  2013	046201	254 00 0 00 046613 		JRST LCXR2B
  2014
  2015	046202	261 17 0 00 000004 	TCTR:	PUSH P,D
  2016	046203	261 17 0 00 000010 		PUSH P,H
  2017	046204	260 17 0 00 046551 		PUSHJ P,STEPCX
  2018	046205	201 04 0 00 000004 		MOVEI D,4
  2019	046206	201 02 0 00 140360 		MOVEI B,140360	;XFER R REG NOWHERE
  2020	046207	137 12 0 00 104436 		DPB J,[140200,,B]	;TEST R #
  2021	046210	200 03 0 00 104437 		MOVE C,[441000,,TCTV]	;BYTE PTR
  2022	046211	200 01 0 00 000002 	TCT5:	MOVE A,B
  2023	046212	260 17 0 00 046601 		PUSHJ P,CXTST	;BYTE OF R TO A
  2024	046213	241 01 0 00 777766 		ROT A,-12
  2025	046214	136 01 0 00 000003 		IDPB A,C
  2026	046215	271 02 0 00 000400 		ADDI B,400	;NEXT BYTE
  2027	046216	367 04 0 00 046211 		SOJG D,TCT5
  2028	046217	200 01 0 00 000002 		MOVE A,B
  2029	046220	260 17 0 00 046601 		PUSHJ P,CXTST
  2030	046221	241 01 0 00 777762 		ROT A,-16
  2031	046222	137 01 0 00 104432 		DPB A,[400,,TCTV]
  2032	046223	262 17 0 00 000010 		POP P,H
  2033	046224	262 17 0 00 000004 		POP P,D
  2034	046225	263 17 0 00 000000 		POPJ P,
  2035
  2036	046226	200 01 0 00 046164 	TBT1A:	MOVE A,TBTV
  2037	046227	254 00 0 00 046002 		JRST TBT1
  2038
  2039					;ROUTINE TO SELECT CHAN (G) AND SKIP IF REAL CHAN
  2040	046230	260 17 0 00 046551 	CHKNHC:	PUSHJ P,STEPCX	;STEP TO CHAN
  2041	046231	200 01 0 00 045636*		MOVE A,CONFIG
  2042	046232	607 01 0 00 000000*		TLNN A,$NHCHAN##	;DO WE HAVE THE NON-HARDWARE CHANNEL FEATURE?
  2043	046233	254 00 0 00 055623 		JRST CPOPJ1	;NO, DON'T BOTHER TO CHECK
  2044	046234	201 01 0 00 102460 		MOVEI A,102460
  2045	046235	260 17 0 00 046601 		PUSHJ P,CXTST
  2046	046236	606 01 0 00 040000 		TRNN A,20B25	;IS THE MAGIC BIT ON?
  2047	046237	254 00 0 00 055623 		JRST CPOPJ1	;NO,THIS CHAN IS REAL
  2048	046240	135 01 0 07 061074 		LDB A,SEQCNT(G)	;GET ITS ALLOTMENT
  2049	046241	135 00 0 00 061101 		LDB SEQLNP	;AND THE TOTAL
  2050	046242	232 00 0 00 000001 		IDIVM A		;COMPUTE RECIPROCAL OF ITS SHARE
  2051	046243	301 01 0 00 000020 		CAIL A,20	;DOES IT HAVE MORE THAN 1/16?
  2052	046244	263 17 0 00 000000 		POPJ P,		;NO, JUST NON-SKIP
SA10 - DIAGNOSTIC FOR SYSTEMS CONCEPTS SA-10 IBM-TO-DEC SUBSYSTEM ADAPTOR	VER 1	MACRO %53B(1155)-2 14:34 14-Feb-86 Page 41-1
SA10N	MAC	17-Sep-74 22:01

  2053	046245	254 00 0 00 062236 		JRST ERR44	;YES, GIVE ERROR
SA10 - DIAGNOSTIC FOR SYSTEMS CONCEPTS SA-10 IBM-TO-DEC SUBSYSTEM ADAPTOR	VER 1	MACRO %53B(1155)-2 14:34 14-Feb-86 Page 42
SA10N	MAC	17-Sep-74 22:01

  2054					;TEST SA-10 CLOCK TIMING
  2055	046246	201 15 0 00 400000 	TIMET:	MCONO SA0,400000^	MOVEI DD,400000
  2056	046247	256 00 0 00 060621 		XCT DCONO
  2057	046250	201 01 0 00 000000 		MOVEI A,0
  2058	046251	260 17 0 00 060667 		PUSHJ P,CSET
  2059	046252	201 01 0 00 104440 		MOVEI A,[200127,,-1]
  2060	046253	202 01 1 00 060740 		MOVEM A,@CBASE
  2061	046254	135 01 0 00 104441 		LDB A,[POINT 7,DCONO,9]
  2062	046255	137 01 0 00 104442 		DPB A,[POINT 7,TMLP1,9]
  2063	046256	137 01 0 00 104443 		DPB A,[POINT 7,TMLP3,9]
  2064	046257	137 01 0 00 104444 		DPB A,[POINT 7,TMLP4,9]
  2065	046260	200 01 0 00 050267 		MOVE A,CLKSKP
  2066	046261	202 01 0 00 046307 		MOVEM A,TMLP2
  2067	046262	200 01 0 00 050266 		MOVE A,CLKCF
  2068	046263	202 01 0 00 046313 		MOVEM A,TMLP5
  2069	046264	201 15 1 00 060743 		MCONO SA0,@STBSYC^	MOVEI DD,@STBSYC
  2070	046265	256 00 0 00 060621 		XCT DCONO
  2071	046266	256 00 0 00 060622 		MCONSO SA0,400000^	XCT DCONI
  2072	046267	606 15 0 00 400000 		TRNN DD,400000
  2073	046270	254 00 0 00 046266 		JRST .-2
  2074	046271	403 05 0 00 000003 		SETZB E,C
  2075	046272	201 02 0 00 000074 		MOVEI B,^D60
  2076	046273	256 00 0 00 050266 		XCT CLKCF
  2077	046274	256 00 0 00 050267 		XCT CLKSKP
  2078	046275	254 00 0 00 046274 		JRST .-1
  2079	046276	256 00 0 00 050266 		XCT CLKCF
  2080	046277	201 15 0 00 200000 		MCONO SA0,200000^	MOVEI DD,200000
  2081	046300	256 00 0 00 060621 		XCT DCONO
  2082	046301	7 274 34 0 00 400000 	TMLP1:	CONSO SA0,400000
  2083	046302	344 03 0 00 046307 		AOJA C,TMLP2
  2084	046303	7 274 20 0 00 200000 	TMLP3:	CONO SA0,200000
  2085	046304	200 04 0 00 000003 		MOVE D,C
  2086	046305	201 03 0 00 000000 		MOVEI C,0
  2087	046306	344 05 0 00 046301 		AOJA E,TMLP1
  2088	046307	256 00 0 00 050267 	TMLP2:	XCT CLKSKP
  2089	046310	254 00 0 00 046301 		JRST TMLP1
  2090	046311	7 274 30 0 00 400000 	TMLP4:	CONSZ SA0,400000
  2091	046312	254 00 0 00 046303 		JRST TMLP3
  2092	046313	256 00 0 00 050266 	TMLP5:	XCT CLKCF
  2093	046314	367 02 0 00 046301 		SOJG B,TMLP1
  2094	046315	221 05 0 00 020000 		IMULI E,^D8192
  2095	046316	221 03 0 00 020000 		IMULI C,^D8192
  2096	046317	230 03 0 00 000004 		IDIV C,D
  2097	046320	270 05 0 00 000003 		ADD E,C
  2098	046321	201 01 0 00 165140 		MOVEI A,^D50*^D60*^D20
  2099	046322	230 01 0 00 052602 		IDIV A,PWRHZ
  2100	046323	230 05 0 00 000001 		IDIV E,A
  2101	046324	274 01 0 00 000006 		SUB A,F
  2102	046325	311 06 0 00 000001 		CAML F,A
  2103	046326	271 05 0 00 000001 		ADDI E,1	;ROUND
  2104						MOVEI C,[ASCIZ /
  2105	046327	201 03 0 00 104445 	CLOCK OSC = $E KHZ/]
  2106	046330	254 00 0 00 060373 		JRST STYO
SA10 - DIAGNOSTIC FOR SYSTEMS CONCEPTS SA-10 IBM-TO-DEC SUBSYSTEM ADAPTOR	VER 1	MACRO %53B(1155)-2 14:34 14-Feb-86 Page 43
SA10N	MAC	17-Sep-74 22:01

  2107					;CHECK OUT PORT MUX LOGIC USING SPECIAL CARD
  2108	046331	200 01 0 00 046231*	MUXREQ:	MOVE A,CONFIG
  2109	046332	606 01 0 00 000000*		TRNN A,%MUXCRD##
  2110	046333	254 00 0 00 046372 		JRST MPET	;CAN'T TEST IT
  2111	046334	265 00 0 00 046370 		JSP SPTN	;IN CASE WE LOOP FROM ERR8
  2112	046335	260 17 0 00 046357 		PUSHJ P,MXT1
  2113	046336	200 03 0 00 051612 		MOVE C,ADRHI
  2114	046337	260 17 0 00 046446 		PUSHJ P,MEMRD
  2115	046340	254 00 0 00 061521 		JRST ERR8
  2116	046341	201 15 0 00 000050 		MCONO SA0,RDBITS^	MOVEI DD,RDBITS
  2117	046342	256 00 0 00 060621 		XCT DCONO
  2118	046343	256 00 0 00 060624 		MDATAI SA0,A^	XCT DDATAI
  2119	046344	202 15 0 00 000001 		MOVEM DD,A
  2120	046345	606 01 0 00 200000 		TRNN A,200000
  2121	046346	254 00 0 00 062402 		JRST ERR60	;ACKN DIDN'T SET
  2122	046347	260 17 0 00 046357 	MUXRQ1:	PUSHJ P,MXT1
  2123	046350	256 00 0 00 050277 		LOOP  MUXREQ^	XCT	RDSWS		;GO GET SWITCHES
  2124	046351	607 15 0 00 040000 		TLNN	DD,40000
  2125	046352	254 00 0 00 046356 		JRST .+4
  2126	046353	260 17 0 00 052642 		PUSHJ P,CHKCNC
  2127	046354	254 00 0 00 044300 		JRST CI0
  2128	046355	254 00 0 00 046331 		JRST MUXREQ
  2129	046356	254 00 0 00 046372 		JRST MPET
  2130
  2131	046357	201 15 0 00 400000 	MXT1:	MCONO SA0,400000^	MOVEI DD,400000
  2132	046360	256 00 0 00 060621 		XCT DCONO
  2133	046361	201 15 0 00 000050 		MCONO SA0,RDBITS^	MOVEI DD,RDBITS
  2134	046362	256 00 0 00 060621 		XCT DCONO
  2135	046363	256 00 0 00 060624 		MDATAI SA0,A^	XCT DDATAI
  2136	046364	202 15 0 00 000001 		MOVEM DD,A
  2137	046365	602 01 0 00 200000 		TRNE A,200000
  2138	046366	254 00 0 00 062407 		JRST ERR61	;ACKN DIDN'T CLEAR
  2139	046367	254 00 0 00 046577 	MXT2:	JRST STEP0
  2140
  2141					;HERE TO SET UP PTN FOR LOOPING NON-PATTERN ERRS
  2142	046370	202 00 0 00 062527 	SPTN:	MOVEM PTN
  2143	046371	254 00 1 00 000000 		JRST @0
SA10 - DIAGNOSTIC FOR SYSTEMS CONCEPTS SA-10 IBM-TO-DEC SUBSYSTEM ADAPTOR	VER 1	MACRO %53B(1155)-2 14:34 14-Feb-86 Page 44
SA10N	MAC	17-Sep-74 22:01

  2144					;PAR ERR TEST
  2145	046372	265 00 0 00 046370 	MPET:	JSP SPTN	;IN CASE WE LOOP FROM ERR8
  2146	046373	331 00 0 00 104030 		SKIPL CPU
  2147	046374	254 00 0 00 046430 		JRST MPEIL
  2148	046375	476 00 0 00 046470 		SETOM MPERF
  2149	046376	7 000 14 0 00 104452 		DATAO APR,[376400,,400]
  2150	046377	254 02 1 00 104453 		JRST 2,@[14000,,.+1]
  2151	046400	7 004 20 0 00 200000 		CONO PI,200000
  2152	046401	205 01 0 00 777760 		MOVSI A,-20
  2153	046402	200 02 0 01 400000 	MPEL:	MOVE B,400000(A)
  2154	046403	7 004 34 0 00 200000 		CONSO PI,200000
  2155	046404	253 01 0 00 046402 		AOBJN A,MPEL
  2156	046405	110000	000000			110000,,0
  2157	046406	254 04 0 00 046406 		JRST 4,.
  2158	046407	000000	000000		MPE1:	0
  2159	046410	331 00 0 00 046470 		SKIPL MPERF
  2160	046411	254 00 0 00 046472 		JRST MPEP
  2161	046412	325 01 0 00 046462 		JUMPGE A,MPEN	;NO PARERR FOUND
  2162	046413	201 03 0 01 000000 		MOVEI C,(A)
  2163	046414	402 00 0 00 046471 	MPE2:	SETZM MPEFG	;NO PROBLEMS GETTING BAD PAR
  2164	046415	201 15 0 00 400000 		MCONO SA0,RSTSA^	MOVEI DD,RSTSA
  2165	046416	256 00 0 00 060621 		XCT DCONO
  2166	046417	260 17 0 00 046577 		PUSHJ P,STEP0
  2167	046420	260 17 0 00 046446 		PUSHJ P,MEMRD
  2168						JRST [	SETZM MPE1	;DON'T LEAVE BAD PAR AROUND
  2169	046421	254 00 0 00 104454 			JRST ERR8]
  2170	046422	402 00 0 00 046407 		SETZM MPE1
  2171	046423	256 00 0 00 060622 		MCONSO SA0,200000^	XCT DCONI
  2172	046424	606 15 0 00 200000 		TRNN DD,200000
  2173	046425	254 00 0 00 062414 		JRST ERR62	;PAR ERR NOT DETECTED
  2174	046426	402 00 0 00 046470 	MPE3:	SETZM MPERF
  2175	046427	254 00 0 00 046475 		JRST NXMT
  2176
  2177	046430	332 00 0 00 104030 	MPEIL:	SKIPE CPU
  2178	046431	254 00 0 00 046442 		JRST MPEKL
  2179	046432	7 000 24 0 00 000001 		CONI APR,A
  2180	046433	607 01 0 00 002000 		TLNN A,IP.MNM
  2181	046434	254 00 0 00 046461 		JRST MPEIE	;CAN'T WRT BAD PAR
  2182	046435	7 000 14 0 00 104456 		DATAO APR,[1B22]
  2183	046436	402 00 0 00 046407 		SETZM MPE1
  2184	046437	7 000 14 0 00 104105 		DATAO APR,[0]
  2185	046440	201 03 0 00 046407 	MPEIL2:	MOVEI C,MPE1
  2186	046441	254 00 0 00 046414 		JRST MPE2
  2187
  2188	046442	7 004 20 0 00 200000 	MPEKL:	CONO PI,1B19
  2189	046443	402 00 0 00 046407 		SETZM MPE1
  2190	046444	7 004 20 0 00 000000 		CONO PI,0
  2191	046445	254 00 0 00 046440 		JRST MPEIL2
  2192
  2193	046446	261 17 0 00 000004 	MEMRD:	PUSH P,D
  2194	046447	260 17 0 00 046551 		PUSHJ P,STEPCX
  2195	046450	621 03 0 00 777760 		TLZ C,777760
  2196	046451	661 03 0 00 200000 		TLO C,200000
  2197	046452	260 17 0 00 046566 		PUSHJ P,LCXCW
  2198	046453	201 01 0 00 042200 		MOVEI A,42200
SA10 - DIAGNOSTIC FOR SYSTEMS CONCEPTS SA-10 IBM-TO-DEC SUBSYSTEM ADAPTOR	VER 1	MACRO %53B(1155)-2 14:34 14-Feb-86 Page 44-1
SA10N	MAC	17-Sep-74 22:01

  2199	046454	260 17 0 00 046626 		PUSHJ P,MEMXCT
  2200	046455	304 00 0 00 000000 		CAIA
  2201	046456	350 00 0 17 777777 		AOS -1(P)
  2202	046457	262 17 0 00 000004 		POP P,D
  2203	046460	263 17 0 00 000000 		POPJ P,
  2204
  2205	046461				MPEIE:	SKIPA C,[[ASCIZ /
  2206					NEED MARGIN ENB SW FOR PAR ERR TEST.
  2207	046461	334 03 0 00 104470 	/]]
  2208	046462				MPEN:	MOVEI C,[ASCIZ /
  2209					NO BAD PARITY IN MEM
  2210	046462	201 03 0 00 104471 	/]
  2211	046463	316 03 0 00 046471 	MPEE:	CAMN C,MPEFG	;ALREADY GIVEN THIS COMPLAINT?
  2212	046464	254 00 0 00 046475 		JRST NXMT	;YES, DON'T BE OBNOXIOUS
  2213	046465	202 03 0 00 046471 		MOVEM C,MPEFG
  2214	046466	260 17 0 00 060373 		PUSHJ P,STYO
  2215	046467	254 00 0 00 046426 		JRST MPE3
  2216
  2217	046470	000000	000000		MPERF:	0
  2218	046471	000000	000000		MPEFG:	0
  2219
  2220	046472				MPEP:	MOVEI C,[ASCIZ /
  2221					TRAP TO 61 FROM %E-1
  2222	046472	201 03 0 00 104476 	/]
  2223	046473	260 17 0 00 060373 		PUSHJ P,STYO
  2224	046474	254 00 0 00 044300 		JRST CI0
SA10 - DIAGNOSTIC FOR SYSTEMS CONCEPTS SA-10 IBM-TO-DEC SUBSYSTEM ADAPTOR	VER 1	MACRO %53B(1155)-2 14:34 14-Feb-86 Page 45
SA10N	MAC	17-Sep-74 22:01

  2225					;NXM TEST
  2226	046475	200 05 0 00 051612 	NXMT:	MOVE E,ADRHI
  2227	046476	243 05 0 00 046477 		JFFO E,.+1
  2228	046477	201 05 0 00 000001 		MOVEI E,1
  2229	046500	213 00 0 00 000006 		MOVNS F
  2230	046501	242 05 0 06 000044 		LSH E,^D36(F)
  2231	046502	200 06 0 00 046331*		MOVE F,CONFIG
  2232	046503	607 06 0 00 000000*	NXMT1:	TLNN F,$N18BA##
  2233	046504	607 05 0 00 000001 		TLNN E,1
  2234	046505	603 05 0 00 000020 		TLNE E,20
  2235	046506	254 00 0 00 046512 		JRST NXMTX
  2236	046507	607 06 0 00 000000*		TLNN F,$EADR##
  2237	046510	607 05 0 00 000004 		TLNN E,4
  2238	046511	254 00 0 00 046513 		JRST NXMT2
  2239	046512	263 17 0 00 000000 	NXMTX:	POPJ P,	;O.K., IT ALL WORKS
  2240
  2241	046513	201 15 0 00 400000 	NXMT2:	MCONO SA0,RSTSA^	MOVEI DD,RSTSA
  2242	046514	256 00 0 00 060621 		XCT DCONO
  2243	046515	260 17 0 00 046577 		PUSHJ P,STEP0
  2244	046516	200 03 0 00 000005 		MOVE C,E
  2245	046517	260 17 0 00 046446 		PUSHJ P,MEMRD
  2246	046520	304 00 0 00 000000 		CAIA
  2247	046521	254 00 0 00 062421 		JRST ERR63	;MEM CYC COMPLETED
  2248	046522	201 15 0 00 000050 		MCONO SA0,RDBITS^	MOVEI DD,RDBITS
  2249	046523	256 00 0 00 060621 		XCT DCONO
  2250	046524	256 00 0 00 060624 		MDATAI SA0,A^	XCT DDATAI
  2251	046525	202 15 0 00 000001 		MOVEM DD,A
  2252	046526	602 01 0 00 200000 		TRNE A,MUXACK
  2253	046527	602 01 0 00 100000 		TRNE A,MEMACK
  2254	046530	254 00 0 00 062427 		JRST ERR64	;CYC INCOMPLETE BUT OTHER ERROR THAN NXM
  2255	046531	242 05 0 00 000001 	NXMT3:	LSH E,1
  2256	046532	254 00 0 00 046503 		JRST NXMT1
  2257
  2258	046533	000000	000000		MAMBTA:	0
SA10 - DIAGNOSTIC FOR SYSTEMS CONCEPTS SA-10 IBM-TO-DEC SUBSYSTEM ADAPTOR	VER 1	MACRO %53B(1155)-2 14:34 14-Feb-86 Page 46
SA10N	MAC	17-Sep-74 22:01

  2259					;HERE
  2260
  2261
  2262	046534	201 15 0 00 001000 	BEGS:	MCONO SA0,SASTEP!RDCCI^	MOVEI DD,SASTEP!RDCCI
  2263	046535	256 00 0 00 060621 		XCT DCONO
  2264	046536	256 00 0 00 060624 		MDATAI SA0,A^	XCT DDATAI
  2265	046537	202 15 0 00 000001 		MOVEM DD,A
  2266	046540	200 15 0 00 104105 		MDATAO SA0,[0]^	MOVE DD,[0]
  2267	046541	256 00 0 00 060623 		XCT DDATAO
  2268	046542	256 00 0 00 060624 		MDATAI SA0,C^	XCT DDATAI
  2269	046543	202 15 0 00 000003 		MOVEM DD,C
  2270	046544	554 01 0 00 000003 		HLRZ A,C
  2271	046545	602 01 0 00 777774 		TRNE A,777774
  2272	046546	254 00 0 00 061574 		JRST ERR30
  2273	046547	263 17 0 00 000000 		POPJ P,
  2274
  2275
  2276	046550	201 07 0 00 000000 	STEPC0:	MOVEI G,0
  2277	046551	201 15 0 00 000000 	STEPCX:	MCONO SA0,RDCCI^	MOVEI DD,RDCCI
  2278	046552	256 00 0 00 060621 		XCT DCONO
  2279	046553	256 00 0 00 060624 	STPC0A:	MDATAI SA0,A^	XCT DDATAI
  2280	046554	202 15 0 00 000001 		MOVEM DD,A
  2281	046555	135 15 0 00 104503 		LDB DD,[220200,,A]	;CHANNEL SELECTION.
  2282	046556	316 15 0 00 000007 		CAMN DD,G		;DESIRED CHANNEL?
  2283	046557	263 17 0 00 000000 		POPJ P,			;YES.
  2284	046560	405 01 0 00 001777 		ANDI A,1777	;NO, MAKE IT DO A NO-OP (GOTO .)
  2285	046561	254 00 0 00 046572 		JRST CXXCT
  2286	046562				STEPX:
  2287	046562	201 15 0 00 001000 	STEPX1:	MCONO SA0,SASTEP!RDCCI^	MOVEI DD,SASTEP!RDCCI
  2288	046563	256 00 0 00 060621 		XCT DCONO
  2289	046564	254 00 0 00 046553 		JRST STPC0A
  2290
  2291	046565	201 07 0 00 000000 	LC0CW:	MOVEI G,0
  2292	046566	260 17 0 00 046611 	LCXCW:	PUSHJ P,LCXR2
  2293	046567	201 01 0 00 060700 		MOVEI A,060700	;WC_WC FIELD OF REG. 2
  2294	046570	260 17 0 00 046572 		PUSHJ P,CXXCT
  2295	046571	201 01 0 00 063300 		MOVEI A,063300	;CA_CA FIELD OF REG. 2
  2296	046572	200 15 0 00 000001 	CXXCT:	MDATAO SA0,A^	MOVE DD,A
  2297	046573	256 00 0 00 060623 		XCT DDATAO
  2298	046574	254 00 0 00 046562 		JRST STEPX
  2299
  2300	046575	200 15 0 00 000001 	C0XCT:	MDATAO SA0,A^	MOVE DD,A
  2301	046576	256 00 0 00 060623 		XCT DDATAO
  2302	046577	201 07 0 00 000000 	STEP0:	MOVEI G,0
  2303	046600	254 00 0 00 046562 		JRST STEPX1
  2304
  2305	046601	200 15 0 00 000001 	CXTST:	MDATAO SA0,A^	MOVE DD,A
  2306	046602	256 00 0 00 060623 		XCT DDATAO
  2307	046603	201 15 0 00 000000 		MCONO SA0,RDCCI^	MOVEI DD,RDCCI
  2308	046604	256 00 0 00 060621 		XCT DCONO
  2309	046605	256 00 0 00 060624 		MDATAI SA0,A^	XCT DDATAI
  2310	046606	202 15 0 00 000001 		MOVEM DD,A
  2311	046607	263 17 0 00 000000 		POPJ P,
  2312
  2313	046610	201 07 0 00 000000 	LC0R2:	MOVEI G,0
SA10 - DIAGNOSTIC FOR SYSTEMS CONCEPTS SA-10 IBM-TO-DEC SUBSYSTEM ADAPTOR	VER 1	MACRO %53B(1155)-2 14:34 14-Feb-86 Page 46-1
SA10N	MAC	17-Sep-74 22:01

  2314	046611	201 04 0 00 057760 	LCXR2:	MOVEI D,060000-20	;IARB TO BYTE OF REG. 2
  2315	046612	271 04 0 00 000020 	LCXR2A:	ADDI D,20	;ADVANCE TO NEXT BYTE OF REGISTER
  2316	046613	201 02 0 00 000000 	LCXR2B:	MOVEI B,0
  2317	046614	246 02 0 00 000010 		LSHC B,10
  2318						MDATAO SA0,B	^;PUT A BYTE OF DATA INTO MICRO-P.C.
  2319	046615	200 15 0 00 000002 		MOVE DD,B
  2320	046616	256 00 0 00 060623 		XCT DDATAO
  2321	046617	260 17 0 00 046562 		PUSHJ P,STEPX
  2322						MDATAO SA0,D	^;TRANSFER IT TO BYTE OF REG. 2
  2323	046620	200 15 0 00 000004 		MOVE DD,D
  2324	046621	256 00 0 00 060623 		XCT DDATAO
  2325	046622	260 17 0 00 046562 		PUSHJ P,STEPX
  2326	046623	606 04 0 00 000100 		TRNN D,100	;WAS THAT THE LAST BYTE?
  2327	046624	254 00 0 00 046612 		JRST LCXR2A	;NO
  2328	046625	263 17 0 00 000000 		POPJ P,	;I CAN'T BELIEVE WE FILLED THE WHOLE WORD
  2329
  2330					;VERSION OF CXXCT FOR MEM OPS (TIMES OUT IN ACS)
  2331					;SKIPS IF DOESN'T HANG
  2332	046626	261 17 0 00 000001 	MEMXCT:	PUSH P,A
  2333	046627	260 17 0 00 046551 		PUSHJ P,STEPCX	;MAKE SURE CHAN IS SELECTED
  2334	046630	262 17 0 00 000001 		POP P,A
  2335	046631	201 15 0 00 000050 		MCONO SA0,RDBITS^	MOVEI DD,RDBITS
  2336	046632	256 00 0 00 060621 		XCT DCONO
  2337						MDATSZ SA0,100000	^;IS MC-ADR-ACK-IN STUCK ON?
  2338	046633	256 00 0 00 060624 		XCT DDATAI
  2339	046634	602 15 0 00 100000 		TRNE DD,100000
  2340	046635	263 17 0 00 000000 		POPJ P,			;YES, GIVE ERR
  2341						MDATAO SA0,A	^;SET UP MEM GO INST
  2342	046636	200 15 0 00 000001 		MOVE DD,A
  2343	046637	256 00 0 00 060623 		XCT DDATAO
  2344	046640	201 00 0 00 046673 		MOVEI MXACS
  2345	046641	251 00 0 00 046711 		BLT MXACS+MXPRGL-1	;SAVE ACS
  2346	046642	205 16 0 00 046654 		MOVSI MXPRGL-1,MXPRG
  2347	046643	251 16 0 00 000016 		BLT MXPRGL-1,MXPRGL-1	;LOAD WAIT PROG
  2348	046644	500 02 0 00 060621 		HLL MXCO1,DCONO	;SET UP PROPER DEV CODE
  2349	046645	621 02 0 00 000037 		TLZ MXCO1,37
  2350	046646	500 06 0 00 000002 		HLL MXCO2,MXCO1
  2351	046647	500 01 0 00 000002 		HLL MXCO3,MXCO1
  2352	046650	500 03 0 00 060624 		HLL MXDI1,DDATAI
  2353	046651	500 07 0 00 000003 		HLL MXDI2,MXDI1
  2354	046652	500 05 0 00 060623 		HLL MXDO1,DDATAO
  2355	046653	254 00 0 00 000002 		JRST MXWTL	;RUN SA10 FROM ACS
  2356
  2357					;WAIT PROG
  2358	000000				MXPRG:	PHASE 0
  2359	000000	560 16 0 00 000015 	MXWT0:!	HRRO CNT,TEM	;SAVE STATUS BEFORE RESET
  2360	000001	7 274 20 0 00 400000 	MXCO3:!	CONO SA0,RSTSA	;RESET TO MAKE SURE MEM NOT HUNG
  2361	000002				MXWTL:!
  2362	000002	7 274 20 0 00 001000 	MXCO1:!	CONO SA0,SASTEP!RDCCI
  2363	000003	7 274 04 0 00 000015 	MXDI1:!	DATAI SA0,TEM
  2364	000004	405 15 0 00 001777 		ANDI TEM,1777
  2365	000005	7 274 14 0 00 000015 	MXDO1:!	DATAO SA0,TEM	;MAKE NEXT STEP A NO-OP
  2366	000006	7 274 20 0 00 000050 	MXCO2:!	CONO SA0,RDBITS
  2367	000007	7 274 04 0 00 000015 	MXDI2:!	DATAI SA0,TEM
  2368	000010	602 15 0 00 100000 		TRNE TEM,100000	;DID WE GET ADR ACK YET?
SA10 - DIAGNOSTIC FOR SYSTEMS CONCEPTS SA-10 IBM-TO-DEC SUBSYSTEM ADAPTOR	VER 1	MACRO %53B(1155)-2 14:34 14-Feb-86 Page 46-2
SA10N	MAC	17-Sep-74 22:01

  2369	000011	254 00 0 00 046712 		JRST MXDON	;YES, RETURN
  2370	000012	367 16 0 00 000002 		SOJG CNT,MXWTL	;WAIT A WHILE
  2371	000013	325 16 0 00 000000 		JUMPGE CNT,MXWT0	;RESET & WAIT A BIT ON INITIAL TIMEOUT
  2372	000014	254 00 0 00 046712 		JRST MXDON	;THEN RETURN
  2373	000015	000000	000000		TEM:!	0
  2374	000016	000000	000144		CNT:!	^D100
  2375	046673				MXPRGL:!DEPHASE
  2376
  2377	046673				MXACS:	BLOCK MXPRGL
  2378
  2379	046712	606 15 0 00 100000 	MXDON:	TRNN TEM,100000
  2380	046713	271 16 0 00 000001 		ADDI CNT,1	;COMPENSATE FOR SOJG
  2381	046714	202 16 0 00 046673 		MOVEM CNT,MXACS	;KEEP COUNT AFTER
  2382	046715	205 16 0 00 046673 		MOVSI MXPRGL-1,MXACS
  2383	046716	251 16 0 00 000016 		BLT MXPRGL-1,MXPRGL-1	;RESTORING ACS
  2384	046717	552 00 0 00 104035 		HRRZM MEMSTS#
  2385	046720	323 00 0 00 046562 		JUMPLE STEPX	;NON-SKIP IF TIMED OUT
  2386	046721	201 01 0 00 000010 		MOVEI A,10
  2387	046722				MXWT2:	MCONO SA0,SASTEP	^;STEP UNTIL MEM CTRL FINISHED
  2388	046722	201 15 0 00 001000 		MOVEI DD,SASTEP
  2389	046723	256 00 0 00 060621 		XCT DCONO
  2390	046724	201 15 0 00 000040 		MCONO SA0,RDCONI^	MOVEI DD,RDCONI
  2391	046725	256 00 0 00 060621 		XCT DCONO
  2392						MDATSZ SA0,PARERR	^;PAR ERR?
  2393	046726	256 00 0 00 060624 		XCT DDATAI
  2394	046727	602 15 0 00 200000 		TRNE DD,PARERR
  2395	046730	254 00 0 00 046734 		JRST MXOKX		;YES, CALL THAT A SUCCESS
  2396	046731	603 15 0 00 000001 		TLNE DD,1		;FINISHED?
  2397	046732	367 01 0 00 046722 		SOJG A,MXWT2		;NO, WAIT SOME MORE
  2398	046733	323 01 0 00 046551 		JUMPLE A,STEPCX		;NON-SKIP IF TIMED OUT
  2399	046734	350 00 0 17 000000 	MXOKX:	AOS (P)
  2400	046735	254 00 0 00 046551 		JRST STEPCX		;MAKE SURE CLOCK STOPPED ON THIS CHAN
SA10 - DIAGNOSTIC FOR SYSTEMS CONCEPTS SA-10 IBM-TO-DEC SUBSYSTEM ADAPTOR	VER 1	MACRO %53B(1155)-2 14:34 14-Feb-86 Page 47
SA10N	MAC	17-Sep-74 22:01

  2401					;CHANNEL-MEMORY TEST
  2402	046736	200 01 0 00 044341 	CMT:	MOVE A,CIN	;NUMERIC ARGUMENT
  2403	046737	260 17 0 00 060667 		PUSHJ P,CSET
  2404	046740	200 05 0 00 051611 		MOVE E,ADRLO
  2405	046741	200 01 0 00 000005 	CMTA:	MOVE A,E
  2406	046742	260 17 0 00 050160 		PUSHJ P,MAPAL
  2407	046743	202 05 0 01 000000 		MOVEM E,(A)	;FILL MEMORY WITH .
  2408	046744	271 05 0 00 000001 		ADDI E,1
  2409	046745	253 01 0 00 046743 		AOBJN A,.-2
  2410	046746	317 05 0 00 051612 		CAMG E,ADRHI
  2411	046747	254 00 0 00 046741 		JRST CMTA
  2412	046750	200 05 0 00 051611 	CMT0:	MOVE E,ADRLO
  2413	046751	201 01 0 00 000000 		MOVEI A,0	;MAKE SURE WE MAP FIRST TIME
  2414	046752	260 17 0 00 047404 	CMT1:	PUSHJ P,RND
  2415	046753	253 01 0 00 046760 		AOBJN A,CMT1A
  2416	046754	260 17 0 00 052642 		PUSHJ P,CHKCNC
  2417	046755	254 00 0 00 044300 		JRST CI0
  2418	046756	200 01 0 00 000005 		MOVE A,E
  2419	046757	260 17 0 00 050160 		PUSHJ P,MAPAL
  2420	046760	202 02 0 01 000000 	CMT1A:	MOVEM B,(A)
  2421	046761	137 05 0 00 104504 		DPB E,[2600,,CMTP0]
  2422	046762	200 03 0 00 104505 		MOVE C,[MOVE CMTP0]
  2423	046763	260 17 0 00 047002 		PUSHJ P,CMTG
  2424	046764	312 02 0 00 047026 		CAME B,CMTPT
  2425	046765	254 00 0 00 047027 		JRST CMT1E0
  2426	046766	452 02 0 00 047026 		SETCAM B,CMTPT
  2427	046767	200 03 0 00 104506 		MOVE C,[MOVE CMTP1]
  2428	046770	137 05 0 00 104507 		DPB E,[2600,,CMTP1A]
  2429	046771	260 17 0 00 047002 		PUSHJ P,CMTG
  2430	046772	200 06 0 01 000000 		MOVE F,(A)
  2431	046773	444 02 0 00 000006 		EQV B,F
  2432	046774	326 02 0 00 047041 		JUMPN B,CMT1E1
  2433	046775	271 05 0 00 000001 		ADDI E,1
  2434	046776	317 05 0 00 051612 		CAMG E,ADRHI
  2435	046777	254 00 0 00 046752 		JRST CMT1
  2436	047000	201 02 0 00 000056 		MOVEI B,"."
  2437	047001	254 00 0 00 060444 		JRST TYO
  2438
  2439	047002	202 03 1 00 060740 	CMTG:	MOVEM C,@CBASE
  2440	047003	201 15 1 00 060743 		MCONO SA0,@STBSYC^	MOVEI DD,@STBSYC
  2441	047004	256 00 0 00 060621 		XCT DCONO
  2442	047005	256 00 0 00 060622 	CMTG0:	MCONSO SA0,600170^	XCT DCONI
  2443	047006	606 15 0 00 600170 		TRNN DD,600170
  2444	047007	254 00 0 00 047005 		JRST CMTG0
  2445	047010	256 00 0 00 060622 		MCONSZ SA0,600000^	XCT DCONI
  2446	047011	602 15 0 00 600000 		TRNE DD,600000
  2447	047012	254 00 0 00 047016 		JRST CMTGE
  2448	047013	201 15 1 00 060744 		MCONO SA0,@CLSTFC^	MOVEI DD,@CLSTFC
  2449	047014	256 00 0 00 060621 		XCT DCONO
  2450	047015	263 17 0 00 000000 		POPJ P,
  2451	047016	260 17 0 00 047105 	CMTGE:	PUSHJ P,DSPE1
  2452	047017	254 00 0 00 044300 		JRST CI0
  2453
  2454	047020	040000	000000		CMTP0:	40000,,0	;LAC X (X FILLED IN ABOVE)
  2455	047021	440000	047026			440000,,CMTPT	;DAC CMTPT
SA10 - DIAGNOSTIC FOR SYSTEMS CONCEPTS SA-10 IBM-TO-DEC SUBSYSTEM ADAPTOR	VER 1	MACRO %53B(1155)-2 14:34 14-Feb-86 Page 47-1
SA10N	MAC	17-Sep-74 22:01

  2456	047022	000000	000000			0
  2457
  2458	047023	040000	047026		CMTP1:	40000,,CMTPT	;LAC CMTPT
  2459	047024	440000	000000		CMTP1A:	440000,,0	;DAC XX (XX FILLED IN ABOVE)
  2460	047025	000000	000000			0
  2461
  2462	047026	000000	000000		CMTPT:	0
SA10 - DIAGNOSTIC FOR SYSTEMS CONCEPTS SA-10 IBM-TO-DEC SUBSYSTEM ADAPTOR	VER 1	MACRO %53B(1155)-2 14:34 14-Feb-86 Page 48
SA10N	MAC	17-Sep-74 22:01

  2463	047027	264 00 0 00 061420 	CMT1E0:	JSR RRR
  2464	047030	201 03 0 00 104510 		MOVEI	C,[ASCIZ/ERR#101-/]
  2465	047031	000000	104512			[ASCIZ /CPU WROTE /]
  2466	047032	000000	061515			SAVB
  2467	047033	000000	104515			[ASCIZ /, SA-10 READ /]
  2468	047034	000000	047026			CMTPT
  2469	047035	000000	104520			[ASCIZ / AT ADDR /]
  2470	047036	000000	000005			E
  2471	047037	000000	000000			0
  2472	047040	000000	044300			CI0
  2473
  2474	047041	264 00 0 00 061420 	CMT1E1:	JSR RRR
  2475	047042	201 03 0 00 104522 		MOVEI	C,[ASCIZ/ERR#102-/]
  2476	047043	000000	104524			[ASCIZ /SA-10 WROTE /]
  2477	047044	000000	047026			CMTPT
  2478	047045	000000	104527			[ASCIZ /, CPU READ /]
  2479	047046	000000	000006			F
  2480	047047	000000	104520			[ASCIZ / AT ADDR /]
  2481	047050	000000	000005			E
  2482	047051	000000	000000			0
  2483	047052	000000	044300			CI0
SA10 - DIAGNOSTIC FOR SYSTEMS CONCEPTS SA-10 IBM-TO-DEC SUBSYSTEM ADAPTOR	VER 1	MACRO %53B(1155)-2 14:34 14-Feb-86 Page 49
SA10N	MAC	17-Sep-74 22:01

  2484					;DISK TEST INTERRUPT CODE FOR DSKT BELOW
  2485					;JSR HERE ON CH 1 INT, SET UP AT START OF DSKT
  2486	047053	000000	000000		DSKI:	0
  2487	047054	202 17 0 00 052433 		MOVEM 17,ACS+17
  2488	047055	201 17 0 00 052414 		MOVEI 17,ACS
  2489	047056	251 17 0 00 052432 		BLT 17,ACS+16
  2490	047057	200 17 0 00 052433 	IFE P-17,<	MOVE P,ACS+P		;USE SAME PDL AT PI LEVEL>
  2491					IFE BF-17,<	MOVE BF,ACS+BF>
  2492	047060	256 00 0 00 060622 		MCONI SA0,A^	XCT DCONI
  2493	047061	202 15 0 00 000001 		MOVEM DD,A
  2494	047062	606 01 0 00 400000 		TRNN A,PIRQ
  2495	047063	254 00 0 00 047070 		JRST DSKIE
  2496	047064	602 01 0 00 300000 		TRNE A,PARERR+NXM
  2497	047065	254 00 0 00 047131 		JRST DSPE
  2498	047066	602 01 0 00 000170 		TRNE A,170
  2499	047067	254 00 0 00 047143 		JRST DSI0
  2500					DSKIE:	MOVEI C,[ASCIZ /UNKNOWN INT. CONI=%A
  2501	047070	201 03 0 00 104532 	/]				;INT ON CH 1, NOT FROM SA10
  2502	047071	260 17 0 00 060373 		PUSHJ P,STYO
  2503	047072	254 00 0 00 047140 		JRST DSKXX
  2504
  2505	047073	201 15 1 00 060743 	DSKX1:	MCONO SA0,@STBSYC^	MOVEI DD,@STBSYC
  2506	047074	256 00 0 00 060621 		XCT DCONO
  2507	047075	200 02 0 00 104033 	DSKX1A:	MOVE B,ICHAN
  2508	047076	242 02 0 00 000003 		LSH B,3
  2509	047077	201 15 0 02 000602 		MCONO SA0,CLSTF+SA0CH(B)^	MOVEI DD,CLSTF+SA0CH(B)
  2510	047100	256 00 0 00 060621 		XCT DCONO
  2511	047101	202 16 0 00 052432 	DSKEX:	MOVEM BF,ACS+BF
  2512	047102	205 17 0 00 052414 		MOVSI 17,ACS
  2513	047103	251 17 0 00 000017 		BLT 17,17
  2514	047104	254 12 1 00 047053 		JRST 12,@DSKI
  2515
  2516	047105	201 15 0 00 000010 	DSPE1:	MCONO SA0,10^	MOVEI DD,10
  2517	047106	256 00 0 00 060621 		XCT DCONO
  2518						MDATAI SA0,D		^;ADDR
  2519	047107	256 00 0 00 060624 		XCT DDATAI
  2520	047110	202 15 0 00 000004 		MOVEM DD,D
  2521	047111	201 15 0 00 000020 		MCONO SA0,20^	MOVEI DD,20
  2522	047112	256 00 0 00 060621 		XCT DCONO
  2523	047113	256 00 0 00 060624 		MDATAI SA0,A^	XCT DDATAI
  2524	047114	202 15 0 00 000001 		MOVEM DD,A
  2525	047115	556 01 0 00 000005 		HLRZM A,E		;CH
  2526	047116	201 15 0 00 000030 		MCONO SA0,30^	MOVEI DD,30
  2527	047117	256 00 0 00 060621 		XCT DCONO
  2528	047120	256 00 0 00 060624 		MDATAI SA0,F^	XCT DDATAI
  2529	047121	202 15 0 00 000006 		MOVEM DD,F
  2530	047122	506 01 0 00 000006 		HRLM A,F		;WORD
  2531	047123	200 07 0 04 000000 		MOVE G,(D)		;WORD IN MEM
  2532						MOVEI C,[ASCIZ /NON EX MEM ON CH %E
  2533					ADDR=%D MEM HAS %G CHNL GOT %F
  2534	047124	201 03 0 00 104537 	/]
  2535						MCONSZ SA0,PARERR	^;SELECT PARITY ERR OR NXM MSG
  2536	047125	256 00 0 00 060622 		XCT DCONI
  2537	047126	602 15 0 00 200000 		TRNE DD,PARERR
  2538						MOVEI C,[ASCIZ /MEM PAR ERR ON CH %E
SA10 - DIAGNOSTIC FOR SYSTEMS CONCEPTS SA-10 IBM-TO-DEC SUBSYSTEM ADAPTOR	VER 1	MACRO %53B(1155)-2 14:34 14-Feb-86 Page 49-1
SA10N	MAC	17-Sep-74 22:01

  2539					ADDR=%D MEM HAS %G CHNL GOT %F
  2540	047127	201 03 0 00 104552 	/]
  2541	047130	254 00 0 00 060373 		JRST STYO
  2542
  2543	047131	260 17 0 00 047105 	DSPE:	PUSHJ P,DSPE1
  2544	047132	242 05 0 00 000003 		LSH E,3			; CHANNEL NUMBER CAUSING INTERRUPT
  2545
  2546	047133	201 15 0 05 000340 		MCONO SA0,RSTCH+40(E)^	MOVEI DD,RSTCH+40(E)
  2547	047134	256 00 0 00 060621 		XCT DCONO
  2548	047135	201 15 0 00 200002 		MCONO SA0,CLMERR+SA0CH^	MOVEI DD,CLMERR+SA0CH
  2549	047136	256 00 0 00 060621 		XCT DCONO
  2550	047137	254 00 0 00 047101 		JRST DSKEX
  2551
  2552	047140	332 00 0 00 052434 	DSKXX:	SKIPE SERR
  2553	047141	264 00 0 00 051462 		JSR GOPR
  2554	047142	254 00 0 00 050637 		JRST DSKT0
SA10 - DIAGNOSTIC FOR SYSTEMS CONCEPTS SA-10 IBM-TO-DEC SUBSYSTEM ADAPTOR	VER 1	MACRO %53B(1155)-2 14:34 14-Feb-86 Page 50
SA10N	MAC	17-Sep-74 22:01

  2555					;HERE ON SA10 INT
  2556
  2557	047143	241 01 0 00 777771 	DSI0:	ROT A,-3-4	;STAT FLAGS TO HIGH A
  2558	047144	243 01 0 00 047145 		JFFO A,.+1	;CHAN # TO B
  2559	047145	202 02 0 00 104033 		MOVEM B,ICHAN#	;SAVE FOR EXIT CONO
  2560	047146	200 01 0 00 000002 		MOVE A,B
  2561	047147	242 01 0 00 000002 		LSH A,2
  2562	047150	270 01 0 00 060627 		ADD A,BASEA	;COMPUTE BASE ADR
  2563	047151	135 04 0 00 104565 		LDB D,[DEVFLD,,1(A)]
  2564	047152	135 05 0 00 104566 		LDB E,[241000,,1(A)]
  2565	047153	200 07 0 00 000004 		MOVE G,D
  2566	047154	274 07 0 00 060626 		SUB G,IDEVA
  2567	047155	321 07 0 00 047260 		JUMPL G,DSI0E
  2568	047156	316 02 0 00 060737 		CAMN B,CHAN
  2569	047157	303 07 0 00 000037 		CAILE G,NPACKS-1
  2570	047160	254 00 0 00 047260 		JRST DSI0E	;BAD CHAN OR UNIT #
  2571	047161	200 01 1 00 060741 		MOVE A,@CBASE+1
  2572	047162	603 01 0 00 163014 		TLNE A,163014		;SELECT ERR,BIPERR,CONTROL ERR,PROG INT,
  2573									; ATTN, UNIT CK, UNIT EXCEPTION
  2574	047163	254 00 0 00 047574 		JRST DSE1		;BAD BITS IN STATUS
  2575	047164	603 01 0 00 000100 		TLNE A,100
  2576	047165	254 00 0 00 047234 		JRST DSIBSY		;POSS CU BUSY
  2577	047166	603 01 0 00 000200 		TLNE A,200
  2578	047167	254 00 0 00 047241 		JRST DSKX2		;CU END, RESTART CHAN
  2579	047170	607 01 0 00 000020 		TLNN A,20		;DEV END
  2580	047171	254 00 0 00 047215 		JRST DSI5		; NO.
  2581	047172	200 02 0 00 052600 		MOVE B,TIME		; OK. UPDATE TIME OF RECENT INTERRUPT.
  2582	047173	250 02 0 07 052313 		EXCH B,HUNGT(G)		; FOR THIS DRIVE
  2583	047174	336 00 0 07 051653 		SKIPN OFFLIN(G)		; IF IT HAD BEEN OFF LINE, OR
  2584	047175	346 02 0 00 047201 		AOJN B,DSI0A		; IF IT HAD BEEN HUNG,
  2585	047176	205 02 0 00 000010 		MOVSI B,10		; SET FLAG TO COMMENT ON ITS REVIVAL
  2586	047177	436 02 0 07 051551 		IORM B,CHCW(G)		; AT MAIN PROGRAM LEVEL
  2587	047200	402 00 0 07 051653 		SETZM	OFFLINE(G)		;AND CLEAR THE OFFLINE FLAG.
SA10 - DIAGNOSTIC FOR SYSTEMS CONCEPTS SA-10 IBM-TO-DEC SUBSYSTEM ADAPTOR	VER 1	MACRO %53B(1155)-2 14:34 14-Feb-86 Page 51
SA10N	MAC	17-Sep-74 22:01

  2588	047201	603 01 0 00 004000 	DSI0A:	TLNE A,4000		; LENGTH ERROR HERE IS BAD
  2589	047202	254 00 0 00 047574 		JRST DSE1		; ..
  2590	047203	200 02 0 07 051551 		MOVE B,CHCW(G)
  2591	047204	603 02 0 00 000200 		TLNE B,(1B10)
  2592	047205	254 00 0 00 047241 		JRST DSKX2		;WAITING ON DEV BUSY - RESTART
  2593	047206	607 01 0 00 000040 		TLNN A,40
  2594	047207	254 00 0 00 047255 		JRST DSKRX		;NO CHN END - RESTART
  2595	047210	205 02 0 00 000001 		MOVSI B,1		; YES. CLEAR BIT IN STATUS WORD FOR DRV
  2596	047211	630 16 0 07 062645 		TDZ BF,BITS(G)		; AND IN LIGHT-WATCHER WORD.
  2597	047212	413 02 0 07 051551 		ANDCAB B,CHCW(G)
  2598	047213	603 02 0 00 000200 		TLNE B,(1B10)
  2599	047214	254 00 0 00 047241 		JRST DSKX2	;WAITING ON DEV BUSY - RESTART
  2600	047215	200 01 0 07 051551 	DSI5:	MOVE A,CHCW(G)
  2601	047216	607 01 0 00 000010 		TLNN A,10
  2602	047217	254 00 0 00 047225 		JRST DSI5A
  2603	047220	200 01 0 00 000004 		MOVE A,D
  2604	047221	260 17 0 00 056637 		PUSHJ P,SENSEX
  2605	047222	256 00 0 00 047771 		XCT GPHADR
  2606	047223	202 01 0 07 052353 		MOVEM A,PHADR(G)
  2607	047224	200 01 0 07 051551 		MOVE A,CHCW(G)
  2608	047225	603 01 0 00 000007 	DSI5A:	TLNE A,7		; MAIN PROG WAIT OR DEV END WAIT?
  2609	047226	254 00 0 00 047073 		JRST DSKX1		; YES, DISMISS
  2610	047227	200 02 0 00 000007 		MOVE B,G		; NO, PROCESS THIS INT.
  2611	047230	270 02 0 00 060626 		ADD B,IDEVA
  2612	047231	540 16 0 00 000002 		HRR BF,B		; FOR LIGHT WATCHERS
  2613	047232	552 02 0 00 052413 		HRRZM B,DEVN
  2614	047233	254 00 0 01 000000 		JRST (A)		;DISMISS VIA FINITE STATE MACHINE
  2615
  2616	047234	607 01 0 00 000400 	DSIBSY:	TLNN A,400		; STATUS MODIFIER?
  2617	047235	254 00 0 00 047252 		JRST DSIB1		;NO STATUS MOD, DEVICE BUSY
  2618	047236	205 02 0 00 000100 		MOVSI B,(1B11)
  2619	047237	436 02 0 07 051551 	DSFLGX:	IORM B,CHCW(G)		;MARK CU BUSY
  2620	047240	254 00 0 00 047073 		JRST DSKX1		;& LEAVE IT
  2621
  2622	047241	205 01 0 00 777740 	DSKX2:	MOVSI A,-NPACKS
  2623	047242	205 02 0 00 000300 		MOVSI B,(1B10!1B11)
  2624	047243	616 02 0 01 051551 	DSKRL:	TDNN B,CHCW(A)		;RESTART ALL DRIVES WITH CU OR DEV BUSY
  2625	047244	254 00 0 00 047250 		JRST DSKRS2
  2626	047245	412 02 0 01 051551 		ANDCAM B,CHCW(A)
  2627	047246	200 03 0 01 051511 		MOVE C,CPGP(A)
  2628	047247	202 03 0 01 052537 		MOVEM C,DEVL(A)
  2629	047250	253 01 0 00 047243 	DSKRS2:	AOBJN A,DSKRL
  2630	047251	254 00 0 00 047073 		JRST DSKX1		;CLEAR STATUS FLAG, RESTORE AC'S, DISMISS INT.
  2631
  2632	047252	205 02 0 00 000200 	DSIB1:	MOVSI B,(1B10)
  2633	047253	607 01 0 00 000260 		TLNN A,260		; DEVICE BUSY. WITH OTHER STATUS?
  2634	047254	254 00 0 00 047237 		JRST DSFLGX		;NO, MARK DEV BUSY
  2635	047255	200 02 0 07 051511 	DSKRX:	MOVE B,CPGP(G)		; YES. PREVIOUS CU BUSY IS NOW OVER
  2636	047256	202 02 0 07 052537 		MOVEM B,DEVL(G)
  2637	047257	254 00 0 00 047241 		JRST DSKX2		;TRY CMD AGAIN IF CU END IN INIT STAT
  2638
  2639	047260	200 07 0 00 000002 	DSI0E:	MOVE G,B	;STYO CLOBBERS B
  2640						MOVEI C,[ASCIZ /SA-10 CHAN %G STATUS %E FROM DEV %D
  2641	047261	201 03 0 00 104567 	/]
  2642	047262	260 17 0 00 060373 		PUSHJ P,STYO
SA10 - DIAGNOSTIC FOR SYSTEMS CONCEPTS SA-10 IBM-TO-DEC SUBSYSTEM ADAPTOR	VER 1	MACRO %53B(1155)-2 14:34 14-Feb-86 Page 51-1
SA10N	MAC	17-Sep-74 22:01

  2643	047263	254 00 0 00 047075 		JRST DSKX1A
SA10 - DIAGNOSTIC FOR SYSTEMS CONCEPTS SA-10 IBM-TO-DEC SUBSYSTEM ADAPTOR	VER 1	MACRO %53B(1155)-2 14:34 14-Feb-86 Page 52
SA10N	MAC	17-Sep-74 22:01

  2644					;CALLED AT THESE TAGS FROM INT ROUTINE WITH CHCW(DRIVE) IN A.
  2645					; BITS IN LH MEAN:
  2646					;B1: RANDOM TRACK AND HEAD
  2647					;B2: DO WRITES
  2648					;B3: DO READS
  2649					;B4: RE-FILL DATA, CHECK DATA
  2650					;B5: RANDOM CORE ADDR ON RD AND WRITE
  2651					;B6: TEST THIS DRIVE AT ALL.
  2652					;B7-8 - COUNT THRU SURFACE VERIFIER PATTERNS: 00=ZEROES, 01=ONES,
  2653					;	1X=WORST CASE PATTERN.
  2654					;B9 - USE VERIFIER, NOT RANDOM TRK AND DATA
  2655					;B17: WAITING FOR DEVICE END
  2656					;B16: REQUESTS MAIN PROG TO FILL WITH NEW DATA
  2657					;B15: REQUESTS MAIN PROG TO CHECK DATA
  2658					;B14: DRIVE CAME BACK UP AFTER HANG.
  2659					;B13: RETRYING CORRECTABLE DATA CHECK
  2660					;B12: COMPLEMENT PATTERN
  2661					;B11: CU BUSY RECEIVED
  2662					;B10: DEVICE BUSY RECEIVED
  2663
  2664	047264	607 01 0 00 000400 	DIP0:	TLNN A,(1B9)		; NOT RANDOM IF SURFACE VERIFYING
  2665	047265	607 01 0 00 200000 		TLNN A,200000		; OK, RANDOM IF REQUESTED BY B1
  2666	047266	254 00 0 00 047271 		JRST DIP1
  2667	047267	260 17 0 00 047343 		PUSHJ P,RNDTK
  2668	047270	202 03 0 07 052153 		MOVEM C,TRK(G)
  2669	047271	607 01 0 00 000400 	DIP1:	TLNN A,(1B9)		; DON'T RANDOMIZE IN SURFACE VERIFIER
  2670	047272	607 01 0 00 010000 		TLNN A,10000		; RANDOM CORE ADDR REQUESTED? (WRITE)
  2671	047273	254 00 0 00 047276 		JRST DIP1A
  2672	047274	260 17 0 00 047410 		PUSHJ P,RNDAD
  2673	047275	202 03 0 07 051613 		MOVEM C,ADDR(G)
  2674	047276	607 01 0 00 020000 	DIP1A:	TLNN A,20000		; RE-FILL DATA AREA?
  2675	047277	254 00 0 00 047302 		JRST DIP1B
  2676	047300	205 02 0 00 000002 		MOVSI B,2
  2677	047301	265 06 0 00 047340 		JSP F,DIMP		; REQUEST MAIN PROG TO FILL DATA
  2678	047302	607 01 0 00 100000 	DIP1B:	TLNN A,100000		; WRITE THE DATA?
  2679	047303	254 00 0 00 047311 		JRST DIP2
  2680	047304	201 03 0 00 000005 		MOVEI C,5		; WRITE DATA OPCODE
  2681	047305	260 17 0 00 047510 		PUSHJ P,DIRW		; DISK INT, READ/WRITE RTN
  2682	047306	200 01 0 07 053405 		MOVE A,NWTRAK(G)
  2683	047307	272 01 0 07 052013 		ADDM A,NWRITE(G)	; COUNT WORDS WRITTEN
  2684	047310	265 06 0 00 047333 		JSP F,DIGO
  2685	047311	607 01 0 00 000400 	DIP2:	TLNN A,(1B9)		; DON'T RANDOMIZE ADR IN SURF VERIFY
  2686	047312	607 01 0 00 010000 		TLNN A,10000		; RANDOM CORE ADDR? (READ)
  2687	047313	254 00 0 00 047316 		JRST DIP2A
  2688	047314	260 17 0 00 047410 		PUSHJ P,RNDAD
  2689	047315	202 03 0 07 051613 		MOVEM C,ADDR(G)
  2690	047316	607 01 0 00 040000 	DIP2A:	TLNN A,40000		; DO READS?
  2691	047317	254 00 0 00 047325 		JRST DIP3
  2692	047320	201 03 0 00 000006 		MOVEI C,6		; READ DATA OPCODE
  2693	047321	260 17 0 00 047510 		PUSHJ P,DIRW
  2694	047322	200 01 0 07 053405 		MOVE A,NWTRAK(G)
  2695	047323	272 01 0 07 051713 		ADDM A,NREAD(G)		; COUNT WORDS READ
  2696	047324	265 06 0 00 047333 		JSP F,DIGO
  2697	047325	603 01 0 00 040000 	DIP3:	TLNE A,40000		; READING?
  2698	047326	607 01 0 00 020000 		TLNN A,20000		; YES. WANT DATA CHECKED?
SA10 - DIAGNOSTIC FOR SYSTEMS CONCEPTS SA-10 IBM-TO-DEC SUBSYSTEM ADAPTOR	VER 1	MACRO %53B(1155)-2 14:34 14-Feb-86 Page 52-1
SA10N	MAC	17-Sep-74 22:01

  2699	047327	254 00 0 00 047264 		JRST DIP0		; NO TO ONE OF THOSE. DON'T CHECK
  2700	047330	205 02 0 00 000004 		MOVSI B,4		; REQUEST MAIN PROG TO CHECK DATA
  2701	047331	265 06 0 00 047340 		JSP F,DIMP
  2702	047332	254 00 0 00 047264 		JRST DIP0
SA10 - DIAGNOSTIC FOR SYSTEMS CONCEPTS SA-10 IBM-TO-DEC SUBSYSTEM ADAPTOR	VER 1	MACRO %53B(1155)-2 14:34 14-Feb-86 Page 53
SA10N	MAC	17-Sep-74 22:01

  2703	047333	500 06 0 07 051551 	DIGO:	HLL F,CHCW(G)
  2704	047334	661 06 0 00 000001 		TLO F,1
  2705	047335	202 06 0 07 051551 		MOVEM F,CHCW(G)
  2706	047336	434 16 0 07 062645 		IOR BF,BITS(G)		; FLAG BUSY FOR LIGHTS WATCHERS
  2707	047337	254 00 0 00 047241 		JRST DSKX2
  2708
  2709	047340	542 06 0 07 051551 	DIMP:	HRRM F,CHCW(G)
  2710	047341	436 02 0 07 051551 		IORM B,CHCW(G)
  2711	047342	254 00 0 00 047073 		JRST DSKX1
  2712
  2713	047343	260 17 0 00 047404 	RNDTK:	PUSHJ P,RND
  2714	047344	603 02 0 00 000007 		TLNE B,7
  2715	047345	254 00 0 00 047355 		JRST RNDT1		;MAKE CYL RANDOM ONLY 1/8 OF THE TIME
  2716	047346	331 00 0 07 052213 	RNDTK0:	SKIPL UWP(G)
  2717	047347	254 00 0 00 047401 		JRST RNDT3
  2718	047350	200 03 0 07 053445 		MOVE C,NTRAKS(G)	;CYLS * SURFS
  2719	047351	274 03 0 07 053605 		SUB C,NSTRAK(G)		;- # TO AVOID
  2720	047352	230 02 0 00 000003 		IDIV B,C
  2721	047353	270 03 0 07 053605 		ADD C,NSTRAK(G)		;OFFSET
  2722	047354	254 00 0 00 047370 		JRST RNDT2		; MAKE SURE NOT A BADSPOT
  2723
  2724	047355	200 04 0 07 052153 	RNDT1:	MOVE D,TRK(G)
  2725	047356	315 04 0 07 053605 		CAMGE D,NSTRAK(G)
  2726	047357	254 00 0 00 047346 		JRST RNDTK0		;POINTING AT PROTECTED TRACK - MAKE NEW
  2727	047360	230 02 0 07 053205 		IDIV B,DSETSU(G)		;RANDOM HEAD ONLY
  2728	047361	230 04 0 07 053205 		IDIV D,DSETSU(G)		;GET OLD HEAD
  2729	047362	274 03 0 00 000005 		SUB C,E	;NEW-OLD
  2730	047363	270 03 0 07 052153 		ADD C,TRK(G)
  2731	047364	335 00 0 07 052213 		SKIPGE UWP(G)
  2732	047365	254 00 0 00 047370 		JRST RNDT2
  2733	047366	315 03 0 07 053505 		CAMGE C,NUTRAK(G)	;UCYLS * SURFS
  2734	047367	254 00 0 00 047401 		JRST RNDT3
  2735	047370	200 04 0 00 000003 	RNDT2:	MOVE D,C		; TRACK*19+HEAD
  2736	047371	504 04 0 00 000007 		HRL D,G			; DRIVE
  2737	047372	205 05 0 00 777700 		MOVSI E,-NBADSP		; COUNT THRU BAD SPOTS TABLE
  2738	047373	335 00 0 05 052436 	RNDT2L:	SKIPGE SPOTTB(E)	;A SPOT IN TABLE?
  2739	047374	263 17 0 00 000000 		POPJ P,0		;NO, SO SELECTED ONE IS OK
  2740	047375	316 04 0 05 052436 		CAMN D,SPOTTB(E)	;YES. SAME AS SELECTED ONE?
  2741	047376	254 00 0 00 047343 		JRST RNDTK		;YES. DON'T USE IT. PICK ANOTHER
  2742	047377	253 05 0 00 047373 		AOBJN E,RNDT2L		;NO, SEE IF ANY MORE
  2743	047400	263 17 0 00 000000 		POPJ P,
  2744
  2745	047401	230 02 0 07 053545 	RNDT3:	IDIV B,NXTRAK(G)	;(CYLS - UCYLS) * SURFS
  2746	047402	270 03 0 07 053505 		ADD C,NUTRAK(G)
  2747	047403	254 00 0 00 047370 		JRST RNDT2
SA10 - DIAGNOSTIC FOR SYSTEMS CONCEPTS SA-10 IBM-TO-DEC SUBSYSTEM ADAPTOR	VER 1	MACRO %53B(1155)-2 14:34 14-Feb-86 Page 54
SA10N	MAC	17-Sep-74 22:01

  2748	047404	201 02 0 00 000105 	RND:	MOVEI B,105
  2749	047405	163 02 0 00 047407 		FMPB B,RNDM
  2750	047406	263 17 0 00 000000 		POPJ P,
  2751	047407	123456	654321		RNDM:	123456,,654321
  2752
  2753	047410	200 04 0 00 051612 	RNDAD:	MOVE D,ADRHI
  2754	047411	274 04 0 00 051611 		SUB D,ADRLO		;SIZE OF BUFFER AREA
  2755	047412	274 04 0 07 053405 		SUB D,NWTRAK(G)	;SUBTRACT BUFFER SIZE
  2756	047413	260 17 0 00 047404 		PUSHJ P,RND
  2757	047414	230 02 0 00 000004 		IDIV B,D
  2758	047415	270 03 0 00 051611 		ADD C,ADRLO	;CREATE CANDIDATE BUFFER ADDRESS
  2759	047416	200 04 0 00 000003 		MOVE D,C
  2760	047417	270 04 0 07 053405 		ADD D,NWTRAK(G)	;ADDRESS JUST PAST PROPOSED BUFFER
  2761	047420	200 05 0 00 000003 		MOVE E,C
  2762	047421	274 05 0 07 053405 		SUB E,NWTRAK(G)
  2763	047422	205 02 0 00 777740 		MOVSI B,-NPACKS
  2764	047423	332 00 0 02 051653 	RNDAD3:	SKIPE OFFLIN(B)
  2765	047424	254 00 0 00 047431 		JRST RNDAD5	;IGNORE OFFLINE DRIVE
  2766	047425	315 05 0 02 051613 		CAMGE E,ADDR(B)	;SKIPS IF BELOW CANDIDATEE BUFFER
  2767	047426	317 04 0 02 051613 		CAMG D,ADDR(B)	;DOESN'T SKIP IF ABOVE CANDIDATE BUFFER
  2768	047427	254 00 0 00 047431 		JRST RNDAD5	;NO CONFLICT
  2769	047430	254 00 0 00 047410 		JRST RNDAD	;CONFLICT, TRY ANOTHER CANDIDATE
  2770
  2771	047431	253 02 0 00 047423 	RNDAD5:	AOBJN B,RNDAD3
  2772	047432	263 17 0 00 000000 		POPJ P,	;ADDR IN C
SA10 - DIAGNOSTIC FOR SYSTEMS CONCEPTS SA-10 IBM-TO-DEC SUBSYSTEM ADAPTOR	VER 1	MACRO %53B(1155)-2 14:34 14-Feb-86 Page 55
SA10N	MAC	17-Sep-74 22:01

  2773	047433	322 05 0 00 060537 	PBITS:	JUMPE E,CPOPJ
  2774	047434	606 05 0 00 000001 		TRNN E,1
  2775	047435	254 00 0 00 047444 		JRST PBIT1
  2776	047436	667 04 0 00 400000 		TLON D,400000
  2777	047437	254 00 0 00 047442 		JRST PBIT2
  2778	047440	201 02 0 00 000053 		MOVEI B,"+"
  2779	047441	260 17 0 00 060444 		PUSHJ P,TYO
  2780	047442	200 03 0 04 000000 	PBIT2:	MOVE C,(D)
  2781	047443	260 17 0 00 060373 		PUSHJ P,STYO
  2782	047444	242 05 0 00 777777 	PBIT1:	LSH E,-1
  2783	047445	344 04 0 00 047433 		AOJA D,PBITS
  2784
  2785	047446	000000	104577		SNSMSG:	[ASCIZ /STATISTICS/]
  2786	047447	000000	104602			[ASCIZ /2-2/]
  2787	047450	000000	104603			[ASCIZ /CORRECTABLE/]
  2788	047451	000000	104606			[ASCIZ /2-0/]
  2789	047452	000000	104607			[ASCIZ /INCOMPLETE/]
  2790	047453	000000	104612			[ASCIZ /WRITE INHIBIT/]
  2791	047454	000000	104615			[ASCIZ /FILE PROTECT/]
  2792	047455	000000	104620			[ASCIZ /NO RECORD FOUND/]
  2793	047456	000000	104624			[ASCIZ /1-3/]
  2794	047457	000000	104625			[ASCIZ /CYLINDER END/]
  2795	047460	000000	104630			[ASCIZ /TRACK OVERRUN/]
  2796	047461	000000	104633			[ASCIZ /PERMANENT ERROR/]
  2797	047462	000000	104637		SNS2MS:	[ASCIZ /0-7/]
  2798	047463	000000	104640			[ASCIZ /0-6/]
  2799	047464	000000	104641			[ASCIZ /OVERRUN/]
  2800	047465	000000	104643			[ASCIZ /DATA CHECK/]
  2801	047466	000000	104646			[ASCIZ /EQUIPMENT CHECK/]
  2802	047467	000000	104652			[ASCIZ /BUS OUT PARITY CHECK/]
  2803	047470	000000	104657			[ASCIZ /INTERVENTION REQUIRED/]
  2804	047471	000000	104664			[ASCIZ /COMMAND REJECT/]
  2805	047472	000000	104667		STAMSG:	[ASCIZ /UNIT EXCEPTION/]
  2806	047473	000000	104672			[ASCIZ /UNIT CHECK/]
  2807	047474	000000	104675			[ASCIZ /DEVICE END/]
  2808	047475	000000	104700			[ASCIZ /CHANNEL END/]
  2809	047476	000000	104703			[ASCIZ /BUSY/]
  2810	047477	000000	104704			[ASCIZ /CONTROL UNIT END/]
  2811	047500	000000	104710			[ASCIZ /STATUS MODIFIER/]
  2812	047501	000000	104714			[ASCIZ /ATTENTION/]
  2813	047502	000000	104716			[ASCIZ /PROG INT FLAG/]
  2814	047503	000000	104721			[ASCIZ /LENGTH ERROR/]
  2815	047504	000000	104724			[ASCIZ /BIT 5?/]
  2816	047505	000000	104726			[ASCIZ /SA10 CONTROL SEQ CHECK/]
  2817	047506	000000	104733			[ASCIZ /BUS IN PARITY CHECK/]
  2818	047507	000000	104737			[ASCIZ /SELECT ERROR/]
SA10 - DIAGNOSTIC FOR SYSTEMS CONCEPTS SA-10 IBM-TO-DEC SUBSYSTEM ADAPTOR	VER 1	MACRO %53B(1155)-2 14:34 14-Feb-86 Page 56
SA10N	MAC	17-Sep-74 22:01

  2819					;DISK INTERRUPT, READ OR WRITE TO BE DONE. OPCODE IN C.
  2820
  2821	047510	205 01 0 00 002000 	DIRW:	MOVSI A,2000
  2822	047511	200 02 0 07 051511 		MOVE B,CPGP(G)
  2823	047512	202 02 0 07 052537 		MOVEM B,DEVL(G)
  2824	047513	505 02 0 00 200000 		HRLI B,200000		;TCH
  2825	047514	242 03 0 00 000024 		LSH C,^D20		; TO OPCODE FIELD (RD OR WRT)
  2826	047515	200 04 0 00 052413 		MOVE D,DEVN		; DEVICE WHICH CAUSED THIS INTERRUPT
  2827	047516	242 04 0 00 000014 		LSH D,^D12
  2828	047517	641 04 0 00 162034 		TLC D,162034		;SEEK, CHAINED
  2829	047520	200 05 0 07 052153 		MOVE E,TRK(G)
  2830	047521	230 05 0 07 053205 		IDIV E,DSETSU(G)
  2831	047522	242 05 0 00 000024 		LSH E,^D20
  2832	047523	242 06 0 00 000004 		LSH F,4
  2833	047524	434 05 0 00 000006 		IOR E,F
  2834	047525	271 02 0 00 000004 		ADDI B,4
  2835	047526	202 04 0 02 777774 		MOVEM D,-4(B)		;STORE SEEK
  2836	047527	205 06 0 00 777200 		MOVSI F,<-6>_CNTSFT
  2837	047530	541 06 0 02 000177 		HRRI F,177(B)
  2838	047531	202 06 0 02 777775 		MOVEM F,-3(B)		;PTR TO SEEK ARG
  2839	047532	402 00 0 02 000177 		SETZM 177(B)		;BB
  2840	047533	641 04 0 00 002220 		TLC D,2220		;MAKE SET SECTOR
  2841	047534	202 04 0 02 777776 		MOVEM D,-2(B)
  2842	047535	200 06 0 00 104742 		MOVE F,[<<-1>_CNTSFT>,,[0]]	; ONE BYTE OF ZERO FOR SECTOR NUMBER
  2843	047536	202 06 0 02 777777 		MOVEM F,-1(B)		;PTR TO SECTOR
  2844	047537	641 04 0 00 000110 		TLC D,110		;MAKE SRCH ID =
  2845	047540	202 04 0 02 000000 	DIRW1:	MOVEM D,(B)		;STORE SRCH
  2846	047541	205 06 0 00 777300 		MOVSI F,<<-5>_CNTSFT>
  2847	047542	271 06 0 02 000200 		ADDI F,200(B)
  2848	047543	202 06 0 02 000001 		MOVEM F,1(B)		;STORE DCW FOR SEARCH
  2849	047544	202 02 0 02 000002 		MOVEM B,2(B)		;STORE TCH *-1 WHILE SRCH FAILS
  2850	047545	621 04 0 00 021774 		TLZ D,21774		; THEN DO THE RD OR WRT
  2851	047546	430 04 0 00 000003 		XOR D,C			; PUT RD OR WRT OPCODE INTO CMD
  2852	047547	270 04 0 00 047573 		ADD D,NATRAL	;USE NATURAL MODE IF AVAILABLE
  2853	047550	202 04 0 02 000003 		MOVEM D,3(B)		;STORE CMD
  2854	047551	210 06 0 00 054117 		MOVN F,CRECL	;RECORD LENGTH
  2855	047552	242 06 0 00 000030 		LSH F,CNTSFT+22
  2856	047553	271 06 0 01 000000 		ADDI F,(A)
  2857	047554	270 06 0 07 051613 		ADD F,ADDR(G)		; BASE ADDR OF DATA AREA FOR THIS PACK
  2858	047555	202 06 0 02 000004 		MOVEM F,4(B)		;STORE DCW
  2859	047556	621 04 0 00 221774 		TLZ D,221774
  2860	047557	641 04 0 00 020304 		TLC D,20304		; CONVERT BACK TO "SEARCH ID EQUAL"
  2861	047560	202 05 0 02 000200 		MOVEM E,200(B)		;STORE CCHH
  2862	047561	202 01 0 02 000201 		MOVEM A,201(B)		;STORE REC #
  2863	047562	271 02 0 00 000005 		ADDI B,5		; COMMAND WORDS PER RECORD
  2864	047563	270 01 0 00 104743 		ADD A,[2000,,0]
  2865	047564	270 01 0 00 054117 		ADD A,CRECL
  2866	047565	315 01 0 07 053645 		CAMGE A,DIRW1V(G)	; RECORDS PER TRK. FILLED TRACK?
  2867	047566	254 00 0 00 047540 		JRST DIRW1			; NO. GO DO ANOTHER RECORD
  2868	047567	402 00 0 02 000000 		SETZM (B)		; YES. DONE. STORE HALT
  2869	047570	205 06 0 00 040000 		MOVSI F,40000
  2870	047571	412 06 0 02 777776 		ANDCAM F,-2(B)		;UNCHAIN LAST CMD
  2871	047572	263 17 0 00 000000 		POPJ P,
  2872
  2873	047573	000000	000000		NATRAL:	0
SA10 - DIAGNOSTIC FOR SYSTEMS CONCEPTS SA-10 IBM-TO-DEC SUBSYSTEM ADAPTOR	VER 1	MACRO %53B(1155)-2 14:34 14-Feb-86 Page 57
SA10N	MAC	17-Sep-74 22:01

  2874					;HERE IF BUSY, NOT STATUS MOD, NOT CU END.
  2875					;HERE IF WRONG DEVICE INTERRUPTS.
  2876					;HERE IF "BAD BITS" IN CONI OR STATUS WORD (CHANNEL ERRORS)
  2877	047574	476 00 0 00 060121 	DSE1:	SETOM SENSED		; IN CASE NO SENSE DONE
  2878	047575	514 01 0 00 060740 		HRLZ A,CBASE		; COPY THE 4 WORDS FROM LOW CORE
  2879	047576	541 01 0 00 052604 		HRRI A,DSTAT		; FORM BLT POINTER
  2880	047577	251 01 0 00 052607 		BLT A,DSTAT+3		; BEFORE DOING SENSE
  2881	047600	135 01 0 00 104744 		LDB A,[141000,,DSTAT+1]	; DEV CAUSING INT
  2882	047601	500 01 0 00 052605 		HLL A,DSTAT+1		; SEE IF UNIT CHECK
  2883	047602	603 01 0 00 000010 		TLNE A,10		; ..
  2884	047603	260 17 0 00 056637 		PUSHJ P,SENSEX		; YES. DO A SENSE.
  2885	047604	200 05 0 00 060121 		MOVE E,SENSED
  2886	047605	603 05 0 00 200010 		TLNE E,200010
  2887	047606	254 00 0 00 047700 		JRST DSEOFL	;DROPPED OFF LINE OR WRT PROT
  2888	047607	135 05 0 00 104745 		LDB E,[POINT 4,SENSED+1,27]	; SUPPRESS ERROR TYPEOUT ON SOME OF
  2889	047610	302 05 0 00 000005 		CAIE E,5		; THE CORRECTABLES, IN REPEATS.
  2890	047611	254 00 0 00 047622 		JRST DSE4		; NOT A CORRECTABLE
  2891	047612	200 05 0 00 060121 		MOVE E,SENSED
  2892	047613	602 05 0 00 200000 		TRNE E,200000
  2893	047614	254 00 0 00 050637 		JRST DSKT0		;FILTER OUT DUPLICATE REPORTS IN FORCED-LOGGING  MODE
  2894	047615	200 05 0 07 052253 		MOVE E,RETRYC(G)	; CORRECTABLE. FIRST OR LAST?
  2895	047616	302 05 0 00 000010 		CAIE E,NRETRY
  2896	047617	306 05 0 00 000000 		CAIN E,0		; ..
  2897	047620	334 00 0 00 000000 		SKIPA			; YES.
  2898	047621	254 00 0 00 050021 		JRST DSKCDC		; NO. DON'T TYPE THE SENSE STUFF
  2899	047622	260 17 0 00 051351 	DSE4:	PUSHJ P,PTIME		; TIME-STAMP THE ERROR
  2900	047623	135 01 0 00 104746 		LDB A,[420200,,DSTAT+1] ; GET 0=END,1=INIT,2=ASYNC,3=DUMMY
  2901	047624	200 03 0 01 050015 		MOVE C,STTT(A)		; WHAT KIND OF STATUS STORED
  2902	047625	260 17 0 00 060373 		PUSHJ P,STYO
  2903	047626	135 04 0 00 104744 		LDB D,[141000,,DSTAT+1]	; DEVICE NUMBER
  2904						MOVEI C,[ASCIZ / STATUS, DEVICE %D =
  2905	047627	201 03 0 00 104747 	/]
  2906	047630	260 17 0 00 060373 		PUSHJ P,STYO
  2907	047631	135 05 0 00 104754 		LDB E,[241600,,DSTAT+1] ;FOURTEEN STATUS BITS FRM 1ST WD
  2908	047632	201 04 0 00 047472 		MOVEI D,STAMSG
  2909	047633	260 17 0 00 047433 		PUSHJ P,PBITS
  2910	047634	200 04 0 00 052606 		MOVE D,DSTAT+2
  2911	047635	200 05 0 07 052153 		MOVE E,TRK(G)		; WHERE SHOULD IT HAVE BEEN?
  2912	047636	230 05 0 07 053205 		IDIV E,DSETSU(G)		; CYL TO E, HD TO F
  2913						MOVEI C,[ASCIZ /
  2914					SW2=%D , CYLINDER %E, HEAD %F
  2915	047637	201 03 0 00 104755 	/]
  2916	047640	260 17 0 00 060373 		PUSHJ P,STYO
  2917	047641	200 01 0 00 052605 		MOVE A,DSTAT+1
  2918	047642	607 01 0 00 000010 		TLNN A,10		; UNIT CHECK?
  2919	047643	254 00 0 00 047140 		JRST DSKXX		; NO, RESTART
  2920	047644	201 03 0 00 104764 	DSE2:	MOVEI C,[ASCIZ /SENSE: /]
  2921	047645	260 17 0 00 060373 		PUSHJ P,STYO
  2922	047646	200 05 0 00 060121 		MOVE E,SENSED
  2923						AOJE E,[HRROI C,[ASCIZ \MISSING
  2924					\]
  2925							PUSHJ P,STYO
  2926	047647	342 05 0 00 104770 			JRST DSKXX]
  2927	047650	135 05 0 00 104773 		LDB E,[202400,,SENSED]
  2928	047651	135 01 0 00 104774 		LDB A,[POINT 6,SENSED+1,7]	;BYTE 4 TELLS WHAT DRIVE
SA10 - DIAGNOSTIC FOR SYSTEMS CONCEPTS SA-10 IBM-TO-DEC SUBSYSTEM ADAPTOR	VER 1	MACRO %53B(1155)-2 14:34 14-Feb-86 Page 57-1
SA10N	MAC	17-Sep-74 22:01

  2929	047652	260 17 0 00 047712 		PUSHJ P,DPHADR		; PRINT PHYS ADR LETTER OR "?"
  2930	047653	260 17 0 00 060372 		PUSHJ P,CR
  2931	047654	201 04 0 00 047446 		MOVEI D,SNSMSG
  2932	047655	260 17 0 00 047433 		PUSHJ P,PBITS
  2933	047656	260 17 0 00 057127 		PUSHJ P,PSB
  2934	047657	200 05 0 00 060121 		MOVE E,SENSED		; SEE IF OFF LINE
  2935	047660	603 05 0 00 200000 		TLNE E,(1B1)		; ..
  2936	047661	476 00 0 07 051653 		SETOM OFFLIN(G)		; YES, FLAG NOT TO RUN IT.
  2937	047662	135 05 0 00 104773 		LDB E,[202400,,SENSED]	; FIRST TWENTY BITS OF SENSE DATA
  2938	047663	306 05 0 00 000001 		CAIN E,1		;STATISTICS?
  2939	047664	254 00 0 00 050637 		JRST DSKT0		;YES. NOT A FATAL ERROR, DON'T GET OPR
  2940	047665	306 05 0 00 100004 		CAIN E,100004		;SKIP UNLESS CORRECTABLE DATA CHECK
  2941	047666	254 00 0 00 050021 		JRST DSKCDC		;PRINT WHERE THE ERROR WAS
  2942	047667	350 01 0 07 052113 		AOS A,ERRCT(G)		; COUNT "OTHER" ERRORS
  2943	047670	315 01 0 00 047711 		CAMGE A,MAXBER		; MORE THAN MAX BAD ERRORS?
  2944	047671	254 00 0 00 047677 		JRST DSE5		; NO
  2945	047672	476 00 0 07 051653 		SETOM OFFLIN(G)		; YES. SHUT IT DOWN.
  2946	047673	201 04 0 07 000000 		MOVEI D,(G)		; TELL THE WORLD
  2947						MOVEI C,[ASCIZ /
  2948	047674	201 03 0 00 104775 	*** DRIVE %D EXCESSIVE ERRORS. MARKED OFF LINE, /]
  2949	047675	260 17 0 00 060373 		PUSHJ P,STYO
  2950	047676	260 17 0 00 051351 		PUSHJ P,PTIME
  2951	047677	254 00 0 00 047140 	DSE5:	JRST DSKXX		; GET OPR OR RESTART.
  2952
  2953	047700	202 05 0 07 051653 	DSEOFL:	MOVEM E,OFFLIN(G)	;MAKE OFF-LINE & SAVE REASON
  2954	047701	476 00 0 07 052313 		SETOM HUNGT(G)	;DISABLE TIMEOUT
  2955	047702	200 02 0 07 051551 		MOVE B,CHCW(G)
  2956	047703	621 02 0 00 000127 		TLZ B,127	;CLEAR WAITING STATES
  2957	047704	661 02 0 00 000010 		TLO B,10	;GET MESSAGE FROM PROG
  2958	047705	541 02 0 00 047264 		HRRI B,DIP0	;START FROM FRONT IF IT COMES BACK
  2959	047706	202 02 0 07 051551 		MOVEM B,CHCW(G)
  2960	047707	630 16 0 07 062645 		TDZ BF,BITS(G)	;CAN'T BE BUSY NOW
  2961	047710	254 00 0 00 047073 		JRST DSKX1	;DISMISS INT
  2962
  2963	047711	000000	000062		MAXBER:	EXP ^D50
SA10 - DIAGNOSTIC FOR SYSTEMS CONCEPTS SA-10 IBM-TO-DEC SUBSYSTEM ADAPTOR	VER 1	MACRO %53B(1155)-2 14:34 14-Feb-86 Page 58
SA10N	MAC	17-Sep-74 22:01

  2964					; CALL WITH DRIVE CODE IN A
  2965
  2966	047712	261 17 0 00 000001 	DPHADR:	PUSH P,A
  2967	047713	201 03 0 00 105010 		MOVEI C,[ASCIZ /DRIVE /]
  2968	047714	260 17 0 00 060373 		PUSHJ P,STYO
  2969	047715	262 17 0 00 000001 		POP P,A
  2970	047716	260 17 0 00 047722 	DPHAD0:	PUSHJ P,DPHLOK
  2971	047717	334 02 0 00 105012 		SKIPA B,["?"]
  2972	047720	201 02 0 02 000101 		MOVEI B,"A"(B)
  2973	047721	254 00 0 00 060444 		JRST TYO
  2974
  2975	047722	405 01 0 00 000377 	DPHLOK:	ANDI A,377
  2976	047723	200 02 0 00 000001 		MOVE B,A
  2977	047724	260 17 0 00 047743 		PUSHJ P,CNTBB
  2978	047725	306 00 0 00 000004 		CAIN 4
  2979	047726	254 00 0 00 047736 		JRST DPHBIN
  2980	047727	306 00 0 00 000001 		CAIN 1
  2981	047730	254 00 0 00 047741 		JRST DPHUN
  2982	047731	200 02 0 00 000001 		MOVE B,A
  2983	047732	405 02 0 00 000077 		ANDI B,77
  2984	047733	260 17 0 00 047743 		PUSHJ P,CNTBB
  2985	047734	302 00 0 00 000003 		CAIE 3
  2986	047735	263 17 0 00 000000 		POPJ P,
  2987	047736	200 02 0 00 000001 	DPHBIN:	MOVE B,A
  2988	047737	405 02 0 00 000007 		ANDI B,7
  2989	047740	254 00 0 00 055623 		JRST CPOPJ1
  2990
  2991	047741	241 01 0 00 777770 	DPHUN:	ROT A,-10
  2992	047742	243 01 0 00 055623 		JFFO A,CPOPJ1
  2993
  2994	047743	241 02 0 00 777774 	CNTBB:	ROT B,-4
  2995	047744	200 00 0 02 047751 		MOVE BCTAB(B)
  2996	047745	541 02 0 00 000000 		HRRI B,0
  2997	047746	241 02 0 00 000004 		ROT B,4
  2998	047747	270 00 0 02 047751 		ADD BCTAB(B)
  2999	047750	263 17 0 00 000000 		POPJ	P,
  3000
  3001	047751	000000	000000		BCTAB:	EXP 0,1,1,2,1,2,2,3,1,2,2,3,2,3,3,4
  3002	047752	000000	000001
  3003	047753	000000	000001
  3004	047754	000000	000002
  3005	047755	000000	000001
  3006	047756	000000	000002
  3007	047757	000000	000002
  3008	047760	000000	000003
  3009	047761	000000	000001
  3010	047762	000000	000002
  3011	047763	000000	000002
  3012	047764	000000	000003
  3013	047765	000000	000002
  3014	047766	000000	000003
  3015	047767	000000	000003
  3016	047770	000000	000004
  3017
  3018	047771				GPHADR:!
SA10 - DIAGNOSTIC FOR SYSTEMS CONCEPTS SA-10 IBM-TO-DEC SUBSYSTEM ADAPTOR	VER 1	MACRO %53B(1155)-2 14:34 14-Feb-86 Page 58-1
SA10N	MAC	17-Sep-74 22:01

  3019	047771	135 01 0 00 105013 	DRVTYP:	LDB A,[POINT 8,SENSED+1,7]
  3020	047772	261 17 0 00 000003 	DRVTY0:	PUSH P,C
  3021	047773	260 17 0 00 047776 		PUSHJ P,DRVTY1
  3022	047774	262 17 0 00 000003 		POP P,C
  3023	047775	254 00 0 00 060373 		JRST STYO
  3024
  3025	047776	201 04 0 07 000000 	DRVTY1:	MOVEI D,(G)
  3026	047777	201 03 0 00 105014 		MOVEI C,[ASCIZ /UNIT %D(/]
  3027	050000	261 17 0 00 000001 		PUSH P,A
  3028	050001	260 17 0 00 060373 		PUSHJ P,STYO
  3029	050002	262 17 0 00 000001 		POP P,A
  3030	050003	260 17 0 00 047716 		PUSHJ P,DPHAD0
  3031	050004	201 02 0 00 000051 		MOVEI B,")"
  3032	050005	254 00 0 00 060444 		JRST TYO
SA10 - DIAGNOSTIC FOR SYSTEMS CONCEPTS SA-10 IBM-TO-DEC SUBSYSTEM ADAPTOR	VER 1	MACRO %53B(1155)-2 14:34 14-Feb-86 Page 59
SA10N	MAC	17-Sep-74 22:01

  3033	050006	137 04 0 00 105016 	DSENS1:	DPB D,[141000,,PNOP]	; SAME SUBR BUT DO NOP FIRST
  3034	050007	201 01 0 00 050013 		MOVEI A,PNOP		;TO GET UP-TO-DATE SENSE DATA
  3035	050010	260 17 0 00 056734 	SARNX0:	PUSHJ P,SARUNX		;RUN PROG, NEVER SKIP
  3036	050011	263 17 0 00 000000 		POPJ P,
  3037	050012	263 17 0 00 000000 		POPJ P,
  3038
  3039	050013	240 003 000 000 00 	PNOP:	BYTE (8) 240,3,IDEV,0
  3040	050014	000000	000000			0
  3041
  3042	050015	000000	105017		STTT:	[ASCIZ /ENDING/]
  3043	050016	000000	105021			[ASCIZ /INITIAL/]
  3044	050017	000000	105023			[ASCIZ /ASYNC/]
  3045	050020	000000	105025			[ASCIZ /DUMMY/]
  3046
  3047	050021	350 00 0 07 052053 	DSKCDC:	AOS NCORDC(G)		; COUNT CORRECTABLE DATA CHECKS
  3048	050022	205 01 0 00 000020 		MOVSI A,(1B13)		; FLAG CORRECTABLE CHECK
  3049	050023	437 01 0 07 051551 		IORB A,CHCW(G)		; IN DRIVE STATUS WORD
  3050	050024	370 04 0 07 052253 		SOS D,RETRYC(G)		; COUNT DOWN RETRIES
  3051	050025	306 04 0 00 000007 		CAIN D,NRETRY-1		; IF THIS IS FIRST ERROR,
  3052	050026	254 00 0 00 050033 		JRST DSKWHR		; GO REPORT ITS LOCATION
  3053	050027	325 04 0 00 050053 		JUMPGE D,DSKWHX		; IF NOT COUNTED OUT, QUIT HERE.
  3054	050030	201 04 0 00 000010 		MOVEI D,NRETRY		; CALL IT PERMANENT
  3055						MOVEI C,[ASCIZ /*** DATA CHECK AFTER $D RE-READS.
  3056	050031	201 03 0 00 105027 	/]
  3057	050032	260 17 0 00 060373 		PUSHJ P,STYO		; COMPLAIN, FALL INTO FULL REPORTER
  3058	050033	135 04 0 00 104745 	DSKWHR:	LDB D,[POINT 4,SENSED+1,27]	; SENSE FORMAT DESCRIPTOR
  3059	050034	302 04 0 00 000004 		CAIE D,4		;IF 4 OR 5, GIVES POSITIONS.
  3060	050035	306 04 0 00 000005 		CAIN D,5		; ..
  3061	050036	254 00 0 00 050042 		JRST DSKWH1		; GOOD
  3062						MOVEI C,[ASCIZ /SENSE BYTE FORMAT IS %D, SHOULD BE 4 OR 5.
  3063	050037	201 03 0 00 105037 	/]
  3064	050040	260 17 0 00 060373 		PUSHJ P,STYO
  3065	050041	254 00 0 00 050053 		JRST DSKWHX		;GIVE UP
  3066	050042	135 04 0 00 105050 	DSKWH1:	LDB D,[POINT 16,SENSED+2,15]	; CYL
  3067	050043	135 05 0 00 105051 		LDB E,[POINT 16,SENSED+2,31]	; HEAD
  3068	050044	201 03 0 00 105052 		MOVEI C,[ASCIZ /ERROR REPORT: DRIVE %G, CYLINDER %D, HEAD %E/]
  3069	050045	260 17 0 00 060373 		PUSHJ P,STYO
  3070	050046	135 04 0 00 105063 		LDB D,[POINT 8,SENSED+3,7]	; RECORD
  3071	050047	135 05 0 00 105064 		LDB E,[POINT 8,SENSED+3,15]	; SECTOR
  3072	050050	135 06 0 00 105065 		LDB F,[POINT 8,SENSED+3,23]	; OFFSET
  3073						MOVEI C,[ASCIZ /
  3074					   RECORD %D, SECTOR %E, OFFSET %F
  3075	050051	201 03 0 00 105066 	/]
  3076	050052	260 17 0 00 060373 		PUSHJ P,STYO
  3077	050053	254 00 0 00 050637 	DSKWHX:	JRST DSKT0
  3078
  3079	050054	000000	000070		PHADRT:	EXP 70,61,52,43,34,25,16,07	;WIERD NAMES OF DRIVES
  3080	050055	000000	000061
  3081	050056	000000	000052
  3082	050057	000000	000043
  3083	050060	000000	000034
  3084	050061	000000	000025
  3085	050062	000000	000016
  3086	050063	000000	000007
  3087
SA10 - DIAGNOSTIC FOR SYSTEMS CONCEPTS SA-10 IBM-TO-DEC SUBSYSTEM ADAPTOR	VER 1	MACRO %53B(1155)-2 14:34 14-Feb-86 Page 59-1
SA10N	MAC	17-Sep-74 22:01

  3088	050064	070 007 000 0000 	WRTPP:	BYTE (8)70,SEEK,IDEV
  3089	050065	777200	050073			IOW 6,WRTPPD^-6*100,,WRTPPD^
  3090	050066	070 061 000 0000 	WRTPP1:	BYTE (8)70,SCHIDE,IDEV
  3091	050067	777300	050073			IOW 5,WRTPPD^-5*100,,WRTPPD^
  3092	050070	200 00 0 00 050066 		MOVE WRTPP1	;TIC
  3093	050071	050 005 000 0000 	WRTPP2:	BYTE (8)50,WRDATA,IDEV
  3094	050072	777000	050073			IOW 10,WRTPPD^-10*100,,WRTPPD^
  3095	050073	000000	000000		WRTPPD:	0
  3096	050074	000000	000000			0
SA10 - DIAGNOSTIC FOR SYSTEMS CONCEPTS SA-10 IBM-TO-DEC SUBSYSTEM ADAPTOR	VER 1	MACRO %53B(1155)-2 14:34 14-Feb-86 Page 60
SA10N	MAC	17-Sep-74 22:01

  3097					; ROUTINE TO PRINT ERROR STUFF FOR TAPE TEST
  3098
  3099	050075	476 00 0 00 060061 	TSPE1:	SETOM TAPF		; FLAG TAPE, NOT DISK
  3100	050076	200 01 1 00 060741 		MOVE A,@CBASE+1
  3101	050077	260 17 0 00 057064 		PUSHJ P,PSTAT
  3102	050100	200 04 1 00 060742 		MOVE D,@CBASE+2
  3103						MOVEI C,[ASCIZ /
  3104					SW2=%D
  3105	050101	201 03 0 00 105076 	/]
  3106	050102	260 17 0 00 060373 		PUSHJ P,STYO
  3107	050103	135 01 0 00 105101 		LDB A,[DEVFLD,,@CBASE+1]
  3108	050104	260 17 0 00 056637 		PUSHJ P,SENSEX
  3109	050105	201 03 0 00 104764 		MOVEI C,[ASCIZ /SENSE: /]
  3110	050106	260 17 0 00 060373 		PUSHJ P,STYO
  3111	050107	200 05 0 00 060121 		MOVE E,SENSED
  3112						AOJE E,[HRROI C,[ASCIZ \MISSING
  3113					\]
  3114							PUSHJ P,STYO
  3115	050110	342 05 0 00 105102 			JRST QTT0]
  3116	050111	135 05 0 00 104773 		LDB E,[202400,,SENSED]
  3117	050112	201 04 0 00 047446 		MOVEI D,SNSMSG
  3118	050113	135 05 0 00 105105 		LDB E,[242000,,SENSED]	;SIXTEEN BITS OF SENSE DATA
  3119	050114	201 04 0 00 060062 		MOVEI D,TAPSNS
  3120	050115	260 17 0 00 047433 		PUSHJ P,PBITS
  3121	050116	260 17 0 00 057127 		PUSHJ P,PSB
  3122	050117	263 17 0 00 000000 		POPJ P,0
SA10 - DIAGNOSTIC FOR SYSTEMS CONCEPTS SA-10 IBM-TO-DEC SUBSYSTEM ADAPTOR	VER 1	MACRO %53B(1155)-2 14:34 14-Feb-86 Page 61
SA10N	MAC	17-Sep-74 22:01

  3123	050120	7 000 20 1 00 050262 	SETHI:	CONO APR,@NXMCLR
  3124	050121	201 04 0 00 040000 		MOVEI D,40000
  3125	050122	331 00 0 00 104030 	SETH0:	SKIPL CPU
  3126	050123	254 00 0 00 050142 		JRST SETHIL
  3127	050124	200 01 0 04 000000 		MOVE A,(D)
  3128	050125	607 04 0 00 000001 		TLNN D,1
  3129	050126	7 000 30 1 00 050261 	SETH1:	CONSZ APR,@NXMBIT
  3130	050127	254 00 0 00 050133 		JRST SETHX
  3131	050130	271 04 0 00 040000 		ADDI D,40000
  3132	050131	607 04 0 00 000020 		TLNN D,20
  3133	050132	254 00 0 00 050122 		JRST SETH0
  3134
  3135	050133	7 000 20 1 00 050262 	SETHX:	CONO APR,@NXMCLR
  3136	050134	275 04 0 00 000001 		SUBI D,1
  3137	050135	316 04 0 00 051612 		CAMN D,ADRHI
  3138	050136	263 17 0 00 000000 		POPJ P,
  3139	050137	202 04 0 00 051612 		MOVEM D,ADRHI
  3140						MOVEI C,[ASCIZ /LAST WORD OF MEMORY IS %D
  3141	050140	201 03 0 00 105106 	/]
  3142	050141	254 00 0 00 060373 		JRST STYO
  3143
  3144	050142	260 17 0 00 050145 	SETHIL:	PUSHJ P,MAPAD
  3145	050143	200 01 0 01 000000 		MOVE A,(A)
  3146	050144	254 00 0 00 050126 		JRST SETH1
  3147
  3148	050145	200 01 0 00 000004 	MAPAD:	MOVE A,D
  3149	050146	335 00 0 00 104030 	MAPA:	SKIPGE CPU
  3150	050147	263 17 0 00 000000 		POPJ P,	;NO MAPPING NEEDED FOR KA
  3151	050150	241 01 0 00 777767 		ROT A,-^D9
  3152	050151	435 01 0 00 700000 		IORI A,700000
  3153					IFE MAPPG&1,<HRLM A,EPT+MAPPG/2>
  3154	050152	542 01 0 00 000377 	IFN MAPPG&1,<HRRM A,EPT+MAPPG/2>
  3155	050153	256 00 0 00 050271 		XCT CLRPGT
  3156	050154	541 01 0 00 000777 		HRRI A,MAPPG
  3157	050155	241 01 0 00 000011 		ROT A,^D9
  3158	050156	263 17 0 00 000000 		POPJ P,
  3159
  3160	050157	200 01 0 00 000004 	MAPADL:	MOVE A,D
  3161	050160	260 17 0 00 050146 	MAPAL:	PUSHJ P,MAPA
  3162	050161	504 01 0 00 000001 		HRL A,A
  3163	050162	661 01 0 00 777000 		TLO A,-1000
  3164	050163	263 17 0 00 000000 		POPJ P,
SA10 - DIAGNOSTIC FOR SYSTEMS CONCEPTS SA-10 IBM-TO-DEC SUBSYSTEM ADAPTOR	VER 1	MACRO %53B(1155)-2 14:34 14-Feb-86 Page 62
SA10N	MAC	17-Sep-74 22:01

  3165					;FIGURE OUT WHICH KIND OF CPU AND INITIALIZE
  3166	050164	211 01 0 00 000001 	SETCPU:	MOVNI A,1
  3167	050165	525 00 0 00 777776 		HRLOI -2
  3168	050166	252 00 0 00 050173 		AOBJP SETCP2
  3169	050167	403 00 0 00 000001 		SETZB A
  3170	050170	251 00 0 00 000000 		BLT
  3171	050171	322 00 0 00 050173 		JUMPE SETCP2
  3172	050172	201 01 0 00 000001 		MOVEI A,1
  3173	050173	202 01 0 00 104030 	SETCP2:	MOVEM A,CPU#	;-1 KA, 0 KI, 1 KL
  3174	050174	200 00 0 01 050255 		MOVE CPUTBL+1(A)
  3175	050175	251 00 0 00 050277 		BLT ECPUTB-1
  3176	050176	260 17 0 00 050200 		PUSHJ P,TRPINI
  3177	050177	254 00 0 00 050273 		JRST CPUINI
  3178
  3179					;SET UP TRAP AND INTERRUPT LOCS
  3180	050200	256 00 0 00 050257 	TRPINI:	XCT APRST
  3181	050201	256 00 0 00 050260 		XCT PIRST	;MAKE SURE NOTHING HAPPENING
  3182	050202	205 01 0 00 777775 		MOVSI A,-NPTBS	;PREPARE NULL MAP FOR ALL 3 EXEC REGIONS
  3183	050203	200 02 0 01 050246 	TRPI1:	MOVE B,PTWRD(A)
  3184	050204	200 03 0 01 050251 		MOVE C,PTPNT(A)
  3185	050205	202 02 0 03 000000 	TRPI2:	MOVEM B,(C)
  3186	050206	270 02 0 00 105114 		ADD B,[2,,2]
  3187	050207	253 03 0 00 050205 		AOBJN C,TRPI2
  3188	050210	253 01 0 00 050203 		AOBJN A,TRPI1
  3189	050211	200 01 0 00 105115 		MOVE A,[JSR UUOH]
  3190	050212	202 01 0 00 000041 		MOVEM A,41	;INITIALIZE MAGIC MEMORY LOCATIONS
  3191	050213	201 01 0 00 061253 		MOVEI A,MUUOH
  3192	050214	205 02 0 00 777770 		MOVSI B,-10
  3193	050215	202 01 0 02 000430 		MOVEM A,UPT+430(B)	;ADDRESS FOR MUUO'S
  3194	050216	253 02 0 00 050215 		AOBJN B,.-1
  3195	050217	205 02 0 00 777774 		MOVSI B,-4
  3196	050220	205 01 0 00 255000 		MOVSI A,(<JFCL>)
  3197	050221	202 01 0 02 000420 		MOVEM A,EPT+420(B)	;IGNORE TRAPS (MUST SET TRP ENB FOR MAP)
  3198	050222	253 02 0 00 050221 		AOBJN B,.-1
  3199	050223	200 01 0 00 105116 		MOVE A,[JSR MPE1]
  3200	050224	202 01 0 00 000061 		MOVEM A,61
  3201	050225	402 00 0 00 046470 		SETZM MPERF
  3202	050226	200 01 0 00 105117 		MOVE A,[JSR PAGEH]
  3203	050227	202 01 0 00 000420 		MOVEM A,UPT+420	;FOR PAGE FAULTS
  3204	050230	200 01 0 00 105120 		MOVE A,[JSR PDLH]
  3205	050231	202 01 0 00 000422 		MOVEM A,UPT+422	;FOR PDL OVERFLOW
  3206	050232	201 01 0 00 061266 		MOVEI A,PAGEKL
  3207	050233	202 01 0 00 000502 		MOVEM A,UPT+502
  3208	050234	200 01 0 00 105121 		MOVE A,[JSR KLCLK]
  3209	050235	202 01 0 00 000514 		MOVEM A,EPT+.EPTII
  3210	050236	200 01 0 00 105122 	PISET:	MOVE A,[JSR INT1]
  3211	050237	201 02 0 00 000042 		MOVEI B,42	;ALL INTERRUPT ROUTINES ARE SAME LENGTH
  3212	050240	202 01 0 02 000000 	PISETL:	MOVEM A,(B)
  3213	050241	271 01 0 00 000010 		ADDI A,INT2-INT1
  3214	050242	271 02 0 00 000002 		ADDI B,2
  3215	050243	302 02 0 00 000060 		CAIE B,60
  3216	050244	254 00 0 00 050240 		JRST PISETL
  3217	050245	263 17 0 00 000000 		POPJ P,
  3218
  3219	050246	500400	500401		PTWRD:	500400,,500401
SA10 - DIAGNOSTIC FOR SYSTEMS CONCEPTS SA-10 IBM-TO-DEC SUBSYSTEM ADAPTOR	VER 1	MACRO %53B(1155)-2 14:34 14-Feb-86 Page 62-1
SA10N	MAC	17-Sep-74 22:01

  3220	050247	500340	500341			500340,,500341
  3221	050250	500000	500001			500000,,500001
  3222			000003		NPTBS==.-PTWRD
  3223
  3224	050251	777600	000200		PTPNT:	-200,,EPT+200
  3225	050252	777760	000400			-20,,UPT+400
  3226	050253	777620	000600			-160,,EPT+600
SA10 - DIAGNOSTIC FOR SYSTEMS CONCEPTS SA-10 IBM-TO-DEC SUBSYSTEM ADAPTOR	VER 1	MACRO %53B(1155)-2 14:34 14-Feb-86 Page 63
SA10N	MAC	17-Sep-74 22:01

  3227	050254	050300	050257		CPUTBL:	KATBL,,CPUTAB
  3228	050255	050321	050257			KITBL,,CPUTAB
  3229	050256	050342	050257			KLTBL,,CPUTAB
  3230
  3231	050257				CPUTAB:!
  3232	050257	000000	000000		APRST:	0
  3233	050260	000000	000000		PIRST:	0
  3234	050261	000000	000000		NXMBIT:	0
  3235	050262	000000	000000		NXMCLR:	0
  3236	050263	000000	000000		PETST:	0
  3237	050264	000000	000000		MEENB:	0
  3238	050265	000000	000000		PDLTST:	0
  3239	050266	000000	000000		CLKCF:	0
  3240	050267	000000	000000		CLKSKP:	0
  3241	050270	000000	000000		CLKENB:	0
  3242	050271	000000	000000		CLRPGT:	0
  3243	050272	000000	000000		IORST:	0
  3244	050273	000000	000000		CPUINI:	0
  3245	050274	000000	000000		CKTYI0:	0
  3246	050275	000000	000000		TYOSKP:	0
  3247	050276	000000	000000		TYOGO:	0
  3248	050277	000000	000000		RDSWS:	0
  3249	050300				ECPUTB:!
  3250
  3251	050300	7 000 20 0 00 675550 	KATBL:	CONO APR,675550
  3252	050301	7 004 20 0 00 711577 		CONO PI,711577
  3253	050302	000000	010000			10000
  3254	050303	000000	010000			10000
  3255	050304	7 004 30 0 00 200000 		CONSZ PI,200000
  3256	050305	7 004 20 0 00 040000 		CONO PI,40000
  3257	050306	7 000 30 0 00 200000 		CONSZ APR,200000
  3258	050307	7 000 20 0 00 001000 		CONO APR,1000
  3259	050310	7 000 34 0 00 001000 		CONSO APR,1000
  3260	050311	7 000 20 0 00 002001 		CONO APR,2000+APRCH
  3261	050312	255 00 0 00 000000 		JFCL
  3262	050313	260 17 0 00 050456 		PUSHJ P,RSTAI
  3263	050314	254 00 0 00 050363 		JRST KAINI
  3264	050315	254 00 0 00 052624 		JRST CKTIAI
  3265	050316	7 120 30 0 00 000020 		CONSZ TTY,20
  3266	050317	7 120 14 0 00 000002 		DATAO TTY,B
  3267	050320	7 000 04 0 00 000015 		DATAI	APR,DD
  3268
  3269	050321	7 000 20 0 00 725300 	KITBL:	CONO APR,725300
  3270	050322	7 004 20 0 00 731577 		CONO PI,731577
  3271	050323	000000	000100			100
  3272	050324	000000	000100			100
  3273	050325	7 000 30 0 00 200000 		CONSZ APR,200000
  3274	050326	7 004 20 0 00 040000 		CONO PI,40000
  3275	050327	304 00 0 00 000000 		CAIA
  3276	050330	7 000 20 0 00 001000 		CONO APR,1000
  3277	050331	7 000 34 0 00 001000 		CONSO APR,1000
  3278	050332	7 000 20 0 00 002011 		CONO APR,2000+APRCH*11
  3279	050333	7 010 14 0 00 105123 		DATAO PAG,[400000+UPT/1000,,420000+EPT/1000]
  3280	050334	260 17 0 00 050456 		PUSHJ P,RSTAI
  3281	050335	254 00 0 00 050417 		JRST KIINI
SA10 - DIAGNOSTIC FOR SYSTEMS CONCEPTS SA-10 IBM-TO-DEC SUBSYSTEM ADAPTOR	VER 1	MACRO %53B(1155)-2 14:34 14-Feb-86 Page 63-1
SA10N	MAC	17-Sep-74 22:01

  3282	050336	254 00 0 00 052624 		JRST CKTIAI
  3283	050337	7 120 30 0 00 000020 		CONSZ TTY,20
  3284	050340	7 120 14 0 00 000002 		DATAO TTY,B
  3285	050341	7 000 04 0 00 000015 		DATAI	APR,DD
  3286
  3287	050342	7 000 20 0 00 267760 	KLTBL:	CONO APR,267760
  3288	050343	7 004 20 0 00 031577 		CONO PI,31577
  3289	050344	000000	002000			2000
  3290	050345	000000	022400			22400
  3291	050346	7 000 30 0 00 004700 		CONSZ APR,4700
  3292	050347	7 000 20 0 00 106701 		CONO APR,106700+APRCH
  3293	050350	304 00 0 00 000000 		CAIA
  3294	050351	7 020 20 0 00 063720 		CONO TIM,TO.SIT!TO.CTD!^D2000
  3295	050352	7 020 34 0 00 020000 		CONSO TIM,TI.ITD
  3296	050353	7 024 20 0 00 000001 		CONO MTR,APRCH
  3297	050354	7 010 20 0 00 420000 		CONO PAG,420000+EPT/1000
  3298	050355	260 17 0 00 050462 		PUSHJ P,RSTKL
  3299	050356	254 00 0 00 050430 		JRST KLINI
  3300	050357	254 00 0 00 052631 		JRST CKTIL
  3301	050360	336 00 0 00 000455 		SKIPN DTEMTD
  3302	050361	260 17 0 00 050465 		PUSHJ P,KLTYO
  3303	050362	260 17 0 00 050474 		PUSHJ	P,KLSWS
SA10 - DIAGNOSTIC FOR SYSTEMS CONCEPTS SA-10 IBM-TO-DEC SUBSYSTEM ADAPTOR	VER 1	MACRO %53B(1155)-2 14:34 14-Feb-86 Page 64
SA10N	MAC	17-Sep-74 22:01

  3304	050363	205 06 0 00 050371 	KAINI:	MOVSI KATME,KATIM
  3305	050364	251 06 0 00 000006 		BLT KATME,KATME
  3306	050365	7 000 20 0 00 001000 		CONO APR,1000
  3307	050366	7 000 34 0 00 001000 		CONSO APR,1000
  3308	050367	254 00 0 00 050366 		JRST .-1
  3309	050370	254 00 0 00 000004 		JRST KATGO
  3310
  3311			565344		KATTM==^D1000000*^D100/^D523	;# OF CONSO-AOJA'S IN 1 SEC (5.23 US EACH)
  3312	000000				KATIM:	PHASE 0
  3313	000000	000000	000007			6+1
  3314	000001	000000	000000		A:!	0
  3315	000002	7 000 34 0 00 001000 	KATLP:!	CONSO APR,1000
  3316	000003	344 01 0 00 000002 		AOJA A,.-1
  3317	000004	7 000 20 0 00 001000 	KATGO:!	CONO APR,1000
  3318	000005	367 00 0 00 000002 		SOJG KATLP
  3319	000006	254 00 0 00 050400 	KATME:!	JRST KATMX
  3320	050400					DEPHASE
  3321
  3322	050400	275 01 0 00 045260 	KATMX:	SUBI A,KATTM/^D10
  3323	050401	201 02 0 00 000074 		MOVEI B,^D60
  3324	050402	214 00 0 00 000001 		MOVM A
  3325	050403	307 00 0 00 000576 		CAIG KATTM/^D500
  3326	050404	254 00 0 00 050426 		JRST SETFRQ
  3327	050405	275 01 0 00 007360 		SUBI A,KATTM/^D50
  3328	050406	201 02 0 00 000062 		MOVEI B,^D50
  3329	050407	214 00 0 00 000001 		MOVM A
  3330	050410	307 00 0 00 000576 		CAIG KATTM/^D500
  3331	050411	254 00 0 00 050426 		JRST SETFRQ
  3332	050412	271 01 0 00 054640 		ADDI A,KATTM/^D10+KATTM/^D50
  3333	050413	221 01 0 00 000074 		IMULI A,^D60
  3334	050414	231 01 0 00 045260 		IDIVI A,KATTM/^D10
  3335						MOVEI C,[ASCIZ /
  3336					UNKNOWN POWER FREQ $A HZ.
  3337	050415	201 03 0 00 105124 	/]
  3338	050416	254 00 0 00 060373 		JRST STYO
  3339
  3340	050417	7 010 24 0 00 000001 	KIINI:	CONI PAG,A
  3341	050420	242 01 0 00 777746 		LSH A,-^D26
  3342	050421	202 01 0 00 054527 		MOVEM A,APRSN
  3343	050422	7 000 24 0 00 000001 		CONI APR,A
  3344	050423	603 01 0 00 004000 		TLNE A,IP.50H
  3345	050424	334 02 0 00 105132 		SKIPA B,[^D50]
  3346	050425	201 02 0 00 000074 		MOVEI B,^D60
  3347	050426	202 02 0 00 052602 	SETFRQ:	MOVEM B,PWRHZ
  3348	050427	263 17 0 00 000000 		POPJ P,
  3349
  3350	050430	7 010 14 0 00 105133 	KLINI:	DATAO PAG,[1B2+UPT/1000]	;SET UP UPT ADR BEFORE ENABLING TRAPS
  3351	050431	7 010 20 0 00 420000 		CONO PAG,420000+EPT/1000	;TURN OFF FURTHER CACHE LOADS
  3352	050432	7 000 20 0 00 020020 		CONO APR,20020
  3353	050433	701 13 0 00 000000 		SWPUA		;START UNLOADING CACHE
  3354	050434	7 000 34 0 00 000020 		CONSO APR,20
  3355	050435	254 00 0 00 050434 		JRST .-1	;WAIT FOR SWEEP TO FINISH
  3356	050436	7 000 20 0 00 020020 		CONO APR,20020
  3357	050437	201 00 0 00 004400 		MOVEI .DTMMC
  3358	050440	402 00 0 00 000444 		SETZM DTEFLG
SA10 - DIAGNOSTIC FOR SYSTEMS CONCEPTS SA-10 IBM-TO-DEC SUBSYSTEM ADAPTOR	VER 1	MACRO %53B(1155)-2 14:34 14-Feb-86 Page 64-1
SA10N	MAC	17-Sep-74 22:01

  3359	050441	202 00 0 00 000451 		MOVEM DTECMD	;SET "MONITOR MODE"
  3360	050442	7 200 20 0 00 020000 		CONO DTE,TO11DB
  3361	050443	336 00 0 00 000444 		SKIPN DTEFLG
  3362	050444	254 00 0 00 050443 		JRST .-1
  3363	050445	402 00 0 00 000456 		SETZM DTEMTI	;NO TYPEIN YET
  3364	050446	476 00 0 00 000455 		SETOM DTEMTD	;FLAG TYPEOUT AS "DONE"
  3365	050447	7 020 20 0 00 420000 		CONO TIM,TO.CIT!TO.CTD
  3366	050450	7 024 20 0 00 000000 		CONO MTR,0
  3367	050451	700 00 0 00 000001 		APRID A
  3368	050452	405 01 0 00 007777 		ANDI A,7777
  3369	050453	202 01 0 00 054527 		MOVEM A,APRSN
  3370	050454	201 02 0 00 000062 		MOVEI B,^D50	;WILL RUN TIMER AT 50 HZ
  3371	050455	254 00 0 00 050426 		JRST SETFRQ
  3372
  3373	050456	7 120 30 0 00 000020 	RSTAI:	CONSZ TTY,20
  3374	050457	254 00 0 00 050456 		JRST .-1
  3375	050460	256 00 0 00 050257 		XCT APRST
  3376	050461	263 17 0 00 000000 		POPJ P,
  3377
  3378	050462	256 00 0 00 050257 	RSTKL:	XCT APRST
  3379	050463	7 024 20 0 00 000000 		CONO MTR,0
  3380	050464	263 17 0 00 000000 		POPJ P,
  3381
  3382	050465	402 00 0 00 000455 	KLTYO:	SETZM DTEMTD	;TELL 11 WE'RE COMING
  3383	050466	405 02 0 00 000177 		ANDI B,177
  3384	050467	660 02 0 00 004000 		TRO B,.DTMTO
  3385	050470	202 02 0 00 000451 		MOVEM B,DTECMD
  3386	050471	405 02 0 00 000177 		ANDI B,177
  3387	050472	7 200 20 0 00 020000 		CONO DTE,TO11DB	;TELL 11 WE'RE HERE
  3388	050473	263 17 0 00 000000 		POPJ P,
  3389
  3390	050474	402 00 0 00 000444 	KLSWS:	SETZM	DTEFLG
  3391	050475	201 01 0 00 003400 		MOVEI	A,.DTRSW
  3392	050476	202 01 0 00 000451 		MOVEM	A,DTECMD		;TELL PDP11 WE WANT SWITCHES
  3393	050477	7 200 20 0 00 020000 		CONO	DTE,TO11DB		;WAKEUP PDP11
  3394	050500	336 00 0 00 000444 		SKIPN	DTEFLG			;HAVE WE GOT 'EM YET?
  3395	050501	254 00 0 00 050500 		JRST	.-1			;NO,KEEEP LOOKING
  3396	050502	402 00 0 00 000444 		SETZM	DTEFLG
  3397	050503	263 17 0 00 000000 		POPJ	P,
SA10 - DIAGNOSTIC FOR SYSTEMS CONCEPTS SA-10 IBM-TO-DEC SUBSYSTEM ADAPTOR	VER 1	MACRO %53B(1155)-2 14:34 14-Feb-86 Page 65
SA10N	MAC	17-Sep-74 22:01

  3398	050504	634 01 0 00 000001 	DSKT:	TDZA A,A		;ENTRY FOR RANDOM TRANSFERS
  3399	050505	474 01 0 00 000000 	DSKTV:	SETO A,			;ENTRY FOR VERIFYING SURFACES
  3400	050506	202 01 0 00 052435 		MOVEM A,DSVFLG		;DISK SURFACE VERIFY FLAG
  3401	050507	256 00 0 00 050277 		XCT	RDSWS			;GET SWITCHES
  3402	050510	557 15 0 00 000000 		HLRZS	DD,			;PUT SITCHES IN RIGHT HALF
  3403	050511	405 15 0 00 400000 		ANDI	DD,400000		;RETURN TO COMMAND LEVEL ON ERROR
  3404	050512	202 01 0 00 052434 		MOVEM A,SERR
  3405	050513	200 01 0 00 044341 		MOVE A,CIN	;NUMERIC ARG
  3406	050514	260 17 0 00 060667 		PUSHJ P,CSET		;SET UP TO USE SA-10 CHAN
  3407	050515	402 00 0 00 052600 		SETZM TIME
  3408	050516	402 00 0 00 052601 		SETZM TIMEC		; CLEAR RUNNING TIME COUNTERS.
  3409	050517	256 00 0 00 050272 		XCT IORST
  3410	050520	201 01 0 00 010000 		MOVEI A,10000
  3411	050521	367 01 0 00 050521 		SOJG A,.
  3412	050522	260 17 0 00 050120 		PUSHJ P,SETHI
  3413	050523	135 01 0 00 105134 		LDB A,[330300,,CONFIG]	;B,C,CE
  3414	050524	622 01 0 00 000007 		TRZE A,7
  3415	050525	661 01 0 00 200000 		TLO A,200000	;NATURAL-MODE BIT IN CHAN COMMAND
  3416	050526	202 01 0 00 047573 		MOVEM A,NATRAL	;WHETHER NATURAL MODE AVAILABLE
  3417	050527	200 01 0 00 060626 		MOVE A,IDEVA
  3418	050530	202 01 0 00 060632 		MOVEM A,IDEVT
  3419	050531	476 00 0 00 051653 		SETOM OFFLIN
  3420	050532	200 01 0 00 105135 		MOVE A,[OFFLIN,,OFFLIN+1]
  3421	050533	251 01 0 00 051712 		BLT A,OFFLIN+NPACKS-1
  3422	050534	205 07 0 00 777740 	DSKTL0:	MOVSI G,-NPACKS
  3423	050535	402 00 0 00 104032 		SETZM DRVGO#
  3424	050536	402 00 0 00 104031 		SETZM CUONL#
  3425	050537	200 04 0 00 000007 	DSKTL1:	MOVE D,G		; SEE IF IT IS ON LINE
  3426	050540	270 04 0 00 060626 		ADD D,IDEVA
  3427	050541	260 17 0 00 050006 		PUSHJ P,DSENS1		; DISK SENSE ROUTINE
  3428	050542	603 01 0 00 010000 		TLNE A,10000
  3429	050543	254 00 0 00 051326 		JRST DSKTLE
  3430	050544	603 01 0 00 100000 		TLNE A,100000
  3431	050545	254 00 0 00 051332 		JRST DTSET	;IF SELECT ERROR
  3432	050546	350 00 0 00 104031 		AOS CUONL#
  3433	050547	137 04 0 00 105136 		DPB D,[141000,,WRTPP]
  3434	050550	137 04 0 00 105137 		DPB D,[141000,,WRTPP1]
  3435	050551	137 04 0 00 105140 		DPB D,[141000,,WRTPP2]
  3436	050552	201 01 0 00 050064 		MOVEI A,WRTPP
  3437	050553	260 17 0 00 050010 		PUSHJ P,SARNX0	;TRY WRITING REC 0, HEAD 0, CYL 0
  3438	050554	256 00 0 00 047771 		XCT GPHADR
  3439	050555	202 01 0 07 052353 		MOVEM A,PHADR(G)
  3440	050556	200 01 0 00 060121 		MOVE A,SENSED		; GET OFF-LINE BIT
  3441	050557	402 00 0 07 051653 		SETZM OFFLIN(G)
  3442	050560	603 01 0 00 777777 		TLNE A,-1	;OFFL OR WRT PROT?
  3443	050561	254 00 0 00 050574 		JRST DSKTS3
  3444	050562	350 00 0 00 104032 		AOS DRVGO	;COUNT A DRIVE STARTED
  3445	050563	336 00 0 00 052435 		SKIPN DSVFLG
  3446	050564	254 00 0 00 050567 		JRST .+3
  3447	050565	336 00 0 07 052213 		SKIPN UWP(G)
  3448	050566	254 00 0 00 050572 		JRST DSKTL2	;TRYING TO VERIFY WITHOUT UWP
  3449						MOVEI C,[ASCIZ / RUNNING.
  3450	050567	201 03 0 00 105141 	/]
  3451	050570	260 17 0 00 047771 		PUSHJ P,DRVTYP
  3452	050571	254 00 0 00 050603 		JRST DSKTS5
SA10 - DIAGNOSTIC FOR SYSTEMS CONCEPTS SA-10 IBM-TO-DEC SUBSYSTEM ADAPTOR	VER 1	MACRO %53B(1155)-2 14:34 14-Feb-86 Page 65-1
SA10N	MAC	17-Sep-74 22:01

  3453
  3454					DSKTL2:	MOVEI C,[ASCIZ / UWP=0 - SKIPPING VERIFY PASS.
  3455	050572	201 03 0 00 105144 	/]
  3456	050573	254 00 0 00 050602 		JRST DSKTS4
SA10 - DIAGNOSTIC FOR SYSTEMS CONCEPTS SA-10 IBM-TO-DEC SUBSYSTEM ADAPTOR	VER 1	MACRO %53B(1155)-2 14:34 14-Feb-86 Page 66
SA10N	MAC	17-Sep-74 22:01

  3457	050574	476 00 0 07 051653 	DSKTS3:	SETOM OFFLIN(G)	;MARK IT OFFLINE
  3458	050575	603 01 0 00 200000 		TLNE A,200000
  3459	050576	254 00 0 00 050606 		JRST DSKTS6	;IF NOT WRITE PROTECT
  3460						MOVEI C,[ASCIZ / WRT LOCK.
  3461	050577	201 03 0 00 105153 	/]
  3462	050600	603 01 0 00 777767 		TLNE A,^-10
  3463						MOVEI C,[ASCIZ / ERROR.
  3464	050601	201 03 0 00 105156 	/]
  3465	050602	260 17 0 00 047771 	DSKTS4:	PUSHJ P,DRVTYP
  3466
  3467	050603	200 01 0 00 060626 	DSKTS5:	MOVE A,IDEVA
  3468	050604	271 01 0 07 000000 		ADDI A,(G)
  3469	050605	260 17 0 00 052747 		PUSHJ P,DSET	;DETERMINE KIND OF DISK PACK
  3470	050606	260 17 0 00 047410 	DSKTS6:	PUSHJ P,RNDAD		; SET UP ADDRESS TABLE
  3471	050607	202 03 0 07 051613 		MOVEM C,ADDR(G)		; IN CASE NOT RANDOM DURING TEST
  3472	050610	402 00 0 07 052253 		SETZM RETRYC(G)		; CLEAR RETRY COUNTER
  3473	050611	402 00 0 07 051713 		SETZM NREAD(G)		; CLEAR SUMMARY COUNTERS OF READS,
  3474	050612	402 00 0 07 051753 		SETZM LNREAD(G)
  3475	050613	402 00 0 07 052013 		SETZM NWRITE(G)		; WRITES,
  3476	050614	402 00 0 07 052053 		SETZM NCORDC(G)		; AND CORRECTABLE DATA CHECKS
  3477	050615	402 00 0 07 052113 		SETZM ERRCT(G)		; AND OTHER ERRORS
  3478	050616	402 00 0 07 052153 		SETZM TRK(G)		; START AT TRACK 0 IN CASE VERIFIER
  3479	050617	205 01 0 00 003437 		MOVSI A,(37B17!1B9!3B8)	; CLEAR WAITING STATES, VERIFIER FLAG,
  3480	050620	413 01 0 07 051551 		ANDCAB A,CHCW(G)	; AND VERIFIER STATE FIELD
  3481	050621	332 01 0 07 052213 		SKIPE A,UWP(G)		;NO VERIFY IF PROTECTED
  3482	050622	205 01 0 00 000400 		MOVSI A,(1B9)		; SET VERIFIER BIT IF
  3483	050623	332 00 0 00 052435 		SKIPE DSVFLG		; STARTED AT DSKVT
  3484	050624	436 01 0 07 051551 		IORM A,CHCW(G)		; ..
  3485	050625	253 07 0 00 050537 		AOBJN G,DSKTL1
  3486	050626	200 01 0 00 060626 	DSKTS7:	MOVE A,IDEVA
  3487						MOVEI C,[ASCIZ /
  3488	050627	201 03 0 00 105160 	CONTROLLER ADDRESS IS %A /]
  3489	050630	312 01 0 00 060632 		CAME A,IDEVT
  3490	050631	260 17 0 00 060373 		PUSHJ P,STYO
  3491	050632	205 01 0 00 777740 		MOVSI A,-NPACKS
  3492	050633	200 02 0 00 060626 		MOVE B,IDEVA
  3493	050634	242 02 0 00 777773 		LSH B,-LNPAKS
  3494					IFLE CV,DPB B,[POINT 8-LNPAKS,CPGP(A),15-LNPAKS]
  3495	050635	137 02 0 00 105166 	IFG CV,	DPB B,[POINT 8-LNPAKS,CPGP(A),7-LNPAKS]
  3496	050636	253 01 0 00 050635 		AOBJN A,.-1
  3497					;FALL THRU
SA10 - DIAGNOSTIC FOR SYSTEMS CONCEPTS SA-10 IBM-TO-DEC SUBSYSTEM ADAPTOR	VER 1	MACRO %53B(1155)-2 14:34 14-Feb-86 Page 67
SA10N	MAC	17-Sep-74 22:01

  3498					;FALL THRU, ALSO BACK HERE AFTER ERRORS.
  3499	050637	256 00 0 00 050272 	DSKT0:	XCT IORST
  3500	050640	256 00 0 00 050260 		XCT PIRST
  3501	050641	200 17 0 00 104043 		MOVE P,[-LPDL,,PDL-1]
  3502	050642	200 01 0 00 105167 		MOVE A,[JSR DSKI]
  3503	050643	202 01 0 00 000044 		MOVEM A,40+SA0CH+SA0CH
  3504	050644	200 01 0 00 105170 		MOVE A,[JSR APRI]
  3505	050645	202 01 0 00 000042 		MOVEM A,40+APRCH*2
  3506	050646	201 03 0 00 104046 		MOVEI C,[BYTE (7)15,12,0]
  3507	050647	260 17 0 00 060373 		PUSHJ P,STYO
  3508	050650	256 00 0 00 050266 		XCT CLKCF	;INIT CLK ON KL
  3509	050651	256 00 0 00 050270 		XCT CLKENB
  3510	050652	256 00 0 00 050264 		XCT MEENB
  3511	050653	7 004 20 0 00 002377 		CONO PI,2377
  3512	050654	201 16 0 00 000000 		MOVEI BF,0		; LIGHT-WATCHER CELL
  3513	050655	205 07 0 00 777740 		MOVSI G,-NPACKS
  3514	050656	205 01 0 00 000117 	DSKT1:	MOVSI A,117		; CLEAR WAITING STATES
  3515	050657	412 01 0 07 051551 		ANDCAM A,CHCW(G)	; IN CONTROL WORD
  3516	050660	476 00 0 07 052537 		SETOM DEVL(G)
  3517	050661	402 00 0 07 052313 		SETZM HUNGT(G)		; NEVER STARTED DRIVE YET
  3518	050662	201 02 0 00 047264 	DSKT1A:	MOVEI B,DIP0		; INITIAL FSM FOR DRIVE
  3519	050663	200 01 0 07 051551 		MOVE A,CHCW(G)
  3520	050664	607 01 0 00 000020 		TLNN A,(1B13)		; RETRYING?
  3521	050665	254 00 0 00 050703 		JRST DSKT1B		; NO.
  3522	050666	201 02 0 00 047316 		MOVEI B,DIP2A		; YES. START AT THE READ
  3523	050667	331 00 0 07 052253 		SKIPL RETRYC(G)		; UNLESS ALL COUNTED OUT
  3524	050670	254 00 0 00 050703 		JRST DSKT1B		; STILL TRIES LEFT. GO READ.
  3525	050671	205 01 0 00 000020 		MOVSI A,(1B13)		; TOO MANY. CLEAR RETRY FLAG
  3526	050672	413 01 0 07 051551 		ANDCAB A,CHCW(G)	; SET TO RUN CHECKER
  3527	050673	200 03 0 07 052153 		MOVE C,TRK(G)		; PUT IT IN THE BADSPOT TABLE
  3528	050674	504 03 0 00 000007 		HRL C,G			; PUT DRIVE IN LH
  3529	050675	205 02 0 00 777700 		MOVSI B,-NBADSP		; AND PUT RESULT IN TABLE
  3530	050676	331 00 0 02 052436 		SKIPL SPOTTB(B)		; FREE SLOT? (NEGATIVE)
  3531	050677	253 02 0 00 050676 		AOBJN B,.-1		; NO, FIND ONE
  3532	050700	335 00 0 00 000002 		SKIPGE B		; ONE FOUND?
  3533	050701	202 03 0 02 052436 		MOVEM C,SPOTTB(B)	; YES. STORE THE BAD SPOT
  3534	050702	201 02 0 00 047325 		MOVEI B,DIP3		; CHECKER WILL MOVE PAST THE ERROR
  3535	050703	542 02 0 07 051551 	DSKT1B:	HRRM B,CHCW(G)
  3536	050704	200 02 0 07 051511 		MOVE B,CPGP(G)
  3537	050705	541 02 0 00 104105 		HRRI B,[0]
  3538	050706	603 01 0 00 004000 		TLNE A,4000
  3539	050707	332 00 0 07 051653 		SKIPE OFFLIN(G)
  3540	050710	334 00 0 00 000000 		SKIPA			; DON'T START DRIVE
  3541	050711	202 02 0 07 052537 		MOVEM B,DEVL(G)		; GIVE IT EMPTY CMD LIST TO GET INT
  3542	050712	253 07 0 00 050656 		AOBJN G,DSKT1
  3543	050713	336 00 0 00 104036 		SKIPN NOINTF#
  3544	050714	260 17 0 00 051063 		PUSHJ P,INTFRN	;START UP INTERFERENCE ON ADJACENT CHANNEL
SA10 - DIAGNOSTIC FOR SYSTEMS CONCEPTS SA-10 IBM-TO-DEC SUBSYSTEM ADAPTOR	VER 1	MACRO %53B(1155)-2 14:34 14-Feb-86 Page 68
SA10N	MAC	17-Sep-74 22:01

  3545	050715	200 01 0 00 105171 		MOVE A,[600000,,DEVL]
  3546	050716	202 01 1 00 060740 		MOVEM A,@CBASE
  3547	050717	201 15 1 00 060745 		MCONO SA0,@STPIEC^	MOVEI DD,@STPIEC
  3548	050720	256 00 0 00 060621 		XCT DCONO
  3549	050721	201 15 1 00 060743 		MCONO SA0,@STBSYC^	MOVEI DD,@STBSYC
  3550	050722	256 00 0 00 060621 		XCT DCONO
  3551	050723	402 00 0 00 051121 	DSKT2:	SETZM INFPB+1	;TO SEE IF INTERF CHAN PGM RUNNING
  3552	050724	260 17 0 00 052642 		PUSHJ P,CHKCNC
  3553	050725	254 00 0 00 044300 		JRST CI0	;QUIT WHEN KEY STRUCK
  3554	050726	205 07 0 00 777740 		MOVSI G,-NPACKS
  3555	050727	200 01 0 07 051551 	DSKT3:	MOVE A,CHCW(G)
  3556	050730	603 01 0 00 000002 		TLNE A,2
  3557	050731	254 00 0 00 051026 		JRST FILLIT
  3558	050732	603 01 0 00 000004 		TLNE A,4
  3559	050733	254 00 0 00 051206 		JRST CHKIT
  3560	050734	337 02 0 07 052313 		SKIPG B,HUNGT(G)	; SEE IF DRIVE IS HUNG
  3561	050735	254 00 0 00 050743 		JRST DSKT4		; NEGATIVE MEANS IDLE
  3562	050736	200 04 0 00 052602 		MOVE D,PWRHZ
  3563	050737	221 04 0 00 000036 		IMULI D,^D30		;TIME TILL DRIVE HUNG (SECS)
  3564	050740	271 02 0 04 000000 		ADDI B,(D)
  3565	050741	317 02 0 00 052600 		CAMG B,TIME		; THAT LONG SINCE INT?
  3566	050742	254 00 0 00 051362 		JRST HUNG		; YUP
  3567	050743	205 02 0 00 000010 	DSKT4:	MOVSI B,10		; DRIVE JUST COME ON LINE?
  3568	050744	616 02 0 07 051551 		TDNN B,CHCW(G)		; ..
  3569	050745	254 00 0 00 050757 		JRST DSKT5		; NOPE.
  3570	050746	413 02 0 07 051551 		ANDCAB B,CHCW(G)	; YES. CLEAR THE FLAG AND COMMENT.
  3571	050747	332 03 0 07 051653 		SKIPE C,OFFLIN(G)
  3572	050750	254 00 0 00 051022 		JRST DSKTOF	;WENT OFF-LINE
  3573	050751	603 02 0 00 000400 		TLNE B,(1B9)
  3574	050752	334 03 0 00 105176 		SKIPA C,[[ASCIZ / RUNNING VERIFY, /]]
  3575	050753	201 03 0 00 105177 		MOVEI C,[ASCIZ / RUNNING, /]
  3576	050754	200 01 0 07 052353 	DSKT5A:	MOVE A,PHADR(G)
  3577	050755	260 17 0 00 047772 		PUSHJ P,DRVTY0
  3578	050756	260 17 0 00 051351 		PUSHJ P,PTIME
  3579	050757	253 07 0 00 050727 	DSKT5:	AOBJN G,DSKT3
  3580	050760	200 01 0 00 052602 		MOVE A,PWRHZ
  3581	050761	221 01 0 00 001604 		IMULI A,^D60*^D15
  3582	050762	311 01 0 00 052601 		CAML A,TIMEC
  3583	050763	254 00 0 00 051014 		JRST DSKT8
  3584	050764	402 00 0 00 052601 		SETZM TIMEC
  3585						MOVEI C,[ASCIZ /
  3586	050765	201 03 0 00 105202 	TIME CHECK:  /]
  3587	050766	260 17 0 00 060373 		PUSHJ P,STYO
  3588	050767	260 17 0 00 051351 		PUSHJ P,PTIME		; REPORT TOTAL TIME
  3589						MOVEI C,[ASCIZ /SUMMARY:
  3590
  3591					DRIVE, BYTES READ, BYTES WRITTEN, CORR'BLE DATA CKS, OTHER ERRS
  3592
  3593	050770	201 03 0 00 105206 	/]
  3594	050771	260 17 0 00 060373 		PUSHJ P,STYO
SA10 - DIAGNOSTIC FOR SYSTEMS CONCEPTS SA-10 IBM-TO-DEC SUBSYSTEM ADAPTOR	VER 1	MACRO %53B(1155)-2 14:34 14-Feb-86 Page 69
SA10N	MAC	17-Sep-74 22:01

  3595	050772	201 07 0 00 000000 		MOVEI G,0
  3596	050773	200 04 0 07 051713 	DSKSML:	MOVE D,NREAD(G)
  3597	050774	316 04 0 07 051753 		CAMN D,LNREAD(G)
  3598	050775	254 00 0 00 051007 		JRST DSKSM2
  3599	050776	240 04 0 00 777777 		ASH D,-1
  3600	050777	221 04 0 00 000011 		IMULI D,11		; CONVERT TO BYTES (8 BITS)
  3601	051000	200 05 0 07 052013 		MOVE E,NWRITE(G)
  3602	051001	240 05 0 00 777777 		ASH E,-1
  3603	051002	221 05 0 00 000011 		IMULI E,11		; CONVERT TO BYTES
  3604	051003	200 06 0 07 052053 		MOVE F,NCORDC(G)
  3605	051004	200 10 0 07 052113 		MOVE H,ERRCT(G)
  3606						MOVEI C,[ASCIZ /  %G,    $D,    $E,    $F,   $H
  3607	051005	201 03 0 00 105226 	/]
  3608	051006	260 17 0 00 060373 		PUSHJ P,STYO
  3609	051007	305 07 0 00 000037 	DSKSM2:	CAIGE G,NPACKS-1
  3610	051010	344 07 0 00 050773 		AOJA G,DSKSML
  3611	051011	260 17 0 00 060372 		PUSHJ P,CR
  3612	051012	200 01 0 00 105235 		MOVE A,[NREAD,,LNREAD]
  3613	051013	251 01 0 00 052012 		BLT A,LNREAD+NPACKS-1
  3614	051014	336 00 0 00 104036 	DSKT8:	SKIPN NOINTF#
  3615	051015	335 00 0 00 051121 		SKIPGE INFPB+1	;IF CHAN PGM DIDN'T WRITE HERE
  3616	051016	254 00 0 00 050723 		JRST DSKT2
  3617						MOVEI C,[ASCIZ /INTERFERENCE CHAN PGM DIED
  3618	051017	201 03 0 00 105236 	/]
  3619	051020	260 17 0 00 060373 		PUSHJ P,STYO
  3620	051021	254 00 0 00 047140 		JRST DSKXX
  3621
  3622	051022	607 03 0 00 200000 	DSKTOF:	TLNN C,200000
  3623	051023	334 03 0 00 105247 		SKIPA C,[[ASCIZ / WRT LOCKED, /]]
  3624	051024	201 03 0 00 105250 		MOVEI C,[ASCIZ / OFF LINE, /]
  3625	051025	254 00 0 00 050754 		JRST DSKT5A
  3626
  3627	051026	201 01 0 00 000010 	FILLIT:	MOVEI A,NRETRY		; SET UP MAX COUNT IN CASE OF ERRORS
  3628	051027	202 01 0 07 052253 		MOVEM A,RETRYC(G)	; ..
  3629	051030	200 04 0 07 051613 		MOVE D,ADDR(G)
  3630	051031	210 05 0 07 053405 		MOVN E,NWTRAK(G)
  3631	051032	200 03 0 07 051551 		MOVE C,CHCW(G)		; WANT RANDOM, OR SURFACE VERIFIER
  3632	051033	200 02 0 07 052153 		MOVE B,TRK(G)
  3633	051034	603 03 0 00 000400 		TLNE C,(1B9)		; ..
  3634	051035	254 00 0 00 051124 		JRST FILLV		; VERIFIER
  3635	051036	603 03 0 00 000040 		TLNE C,(1B12)
  3636	051037	460 02 0 00 000002 		SETCM B,B
  3637	051040	253 01 0 00 051042 	FILI1:	AOBJN A,.+2
  3638	051041	260 17 0 00 050157 		PUSHJ P,MAPADL
  3639	051042	202 02 0 01 000000 		MOVEM B,(A)
  3640	051043	271 04 0 00 000001 		ADDI D,1
  3641	051044	253 01 0 00 051046 		AOBJN A,.+2
  3642	051045	260 17 0 00 050157 		PUSHJ P,MAPADL
  3643	051046	452 02 0 01 000000 		SETCAM B,(A)
  3644	051047	345 05 0 00 051053 		AOJGE E,FILX
  3645	051050	241 02 0 00 000001 		ROT B,1
  3646	051051	271 04 0 00 000001 		ADDI D,1
  3647	051052	341 05 0 00 051040 		AOJL E,FILI1
  3648	051053	205 01 0 00 000006 	FILX:	MOVSI A,6
  3649	051054	412 01 0 07 051551 		ANDCAM A,CHCW(G)
SA10 - DIAGNOSTIC FOR SYSTEMS CONCEPTS SA-10 IBM-TO-DEC SUBSYSTEM ADAPTOR	VER 1	MACRO %53B(1155)-2 14:34 14-Feb-86 Page 69-1
SA10N	MAC	17-Sep-74 22:01

  3650	051055	200 01 0 07 051511 		MOVE A,CPGP(G)
  3651	051056	541 01 0 00 104105 		HRRI A,[0]
  3652	051057	202 01 0 07 052537 		MOVEM A,DEVL(G)
  3653	051060	201 15 1 00 060743 		MCONO SA0,@STBSYC^	MOVEI DD,@STBSYC
  3654	051061	256 00 0 00 060621 		XCT DCONO
  3655	051062	254 00 0 00 050743 		JRST DSKT4
SA10 - DIAGNOSTIC FOR SYSTEMS CONCEPTS SA-10 IBM-TO-DEC SUBSYSTEM ADAPTOR	VER 1	MACRO %53B(1155)-2 14:34 14-Feb-86 Page 70
SA10N	MAC	17-Sep-74 22:01

  3656					;SUBROUTINE TO RUN INTERFERENCE CHAN PGM
  3657	051063	200 01 0 00 060737 	INTFRN:	MOVE A,CHAN
  3658	051064	431 01 0 00 000001 		XORI A,1	;ADJACENT TO CHANNEL USED FOR MAIN TEST
  3659	051065	135 00 0 00 061100 		LDB NCHNP
  3660	051066	317 00 0 00 000001 		CAMG A		;IS THIS OUT OF RANGE?
  3661	051067	431 01 0 00 000003 		XORI A,3	;YES, TRY A DIFFERENT ONE
  3662	051070	242 01 0 00 000002 		LSH A,2
  3663	051071	200 02 0 00 060627 		MOVE B,BASEA	;BASE ADDRESS
  3664	051072	270 02 0 00 000001 		ADD B,A
  3665	051073	201 03 0 00 051103 		MOVEI C,INFP	;CHAN  PGM ADDR
  3666	051074	202 03 0 02 000000 		MOVEM C,(B)	;TO BASE ADDR FOR CHANNEL
  3667	051075	242 01 0 00 000001 		LSH A,3-2
  3668						MCONO SA0,STPIE+SA0CH(A)	^;ENABLE PI FOR CHANNEL
  3669	051076	201 15 0 01 000742 		MOVEI DD,STPIE+SA0CH(A)
  3670	051077	256 00 0 00 060621 		XCT DCONO
  3671						MCONO SA0,STBSY+SA0CH(A)	^;SET GO BIT FOR CHANNEL
  3672	051100	201 15 0 01 000442 		MOVEI DD,STBSY+SA0CH(A)
  3673	051101	256 00 0 00 060621 		XCT DCONO
  3674	051102	263 17 0 00 000000 		POPJ P,
  3675
  3676	051103	040000	051114		INFP:	40000,,INFPA	;LOAD
  3677	051104	440000	051120			440000,,INFPB	;STORE
  3678	051105	040000	051115			40000,,INFPA+1
  3679	051106	440000	051121			440000,,INFPB+1
  3680	051107	040000	051116			40000,,INFPA+2
  3681	051110	440000	051122			440000,,INFPB+2
  3682	051111	040000	051117			40000,,INFPA+3
  3683	051112	440000	051123			440000,,INFPB+3
  3684	051113	200000	051103			200000,,INFP	;LOOP BACK
  3685
  3686	051114	000000	000000		INFPA:	0
  3687	051115	777777	777777			-1
  3688	051116	252525	252525			252525,,252525
  3689	051117	525252	525252			525252,,525252
  3690
  3691	051120				INFPB:	BLOCK 4
SA10 - DIAGNOSTIC FOR SYSTEMS CONCEPTS SA-10 IBM-TO-DEC SUBSYSTEM ADAPTOR	VER 1	MACRO %53B(1155)-2 14:34 14-Feb-86 Page 71
SA10N	MAC	17-Sep-74 22:01

  3692	051124	603 03 0 00 002000 	FILLV:	TLNE C,(2B8)		; WORST CASE?
  3693	051125	254 00 0 00 051136 		JRST FILLVW		; YES
  3694	051126	201 02 0 00 000000 		MOVEI B,0		; NO. ZEROES OR ONES
  3695	051127	603 03 0 00 001000 		TLNE C,(1B8)		; ..
  3696	051130	474 02 0 00 000000 		SETO B,			; ONES.
  3697	051131	260 17 0 00 050145 	FILLV1:	PUSHJ P,MAPAD
  3698	051132	202 02 0 01 000000 		MOVEM B,(A)
  3699	051133	271 04 0 00 000001 		ADDI D,1
  3700	051134	341 05 0 00 051131 		AOJL E,FILLV1
  3701	051135	254 00 0 00 051053 		JRST FILX
  3702
  3703	051136	205 03 0 00 777762 	FILLVW:	MOVSI C,-NWCPDT		; GENERATE BUFFER FULL OF WORSTCASE PAT
  3704	051137	200 02 0 03 051152 	FILVW1:	MOVE B,WCPDAT(C)
  3705	051140	336 00 0 00 047573 		SKIPN NATRAL
  3706	051141	200 02 0 03 051170 		MOVE B,WCWDAT(C)	;WORD MODE IF NO B FEATURES
  3707	051142	253 01 0 00 051144 		AOBJN A,.+2
  3708	051143	260 17 0 00 050157 		PUSHJ P,MAPADL
  3709	051144	202 02 0 01 000000 		MOVEM B,(A)		; A WORD OF THE PATTERN
  3710	051145	253 03 0 00 051147 		AOBJN C,.+2		; COUNT THE SOURCE
  3711	051146	205 03 0 00 777762 		MOVSI C,-NWCPDT		; WRAPAROUND
  3712	051147	271 04 0 00 000001 		ADDI D,1
  3713	051150	341 05 0 00 051137 		AOJL E,FILVW1
  3714	051151	254 00 0 00 051053 		JRST FILX
  3715
  3716	051152				WCPDAT:	; 28-BIT REPEATING PATTERN
  3717
  3718						; HERE IT IS EXCEPT FOR SA10 ROTATING/SPLITTING A BYTE
  3719	051152	766666	660373			BYTE (4) 17,13,6,15,13,6,0,17,13
  3720	051153	333330	175555			BYTE (4) 6,15,13,6,0,17,13,6,15
  3721	051154	554076	666666			BYTE (4) 13,6,0,17,13,6,15,13,6
  3722	051155	037333	333017			BYTE (4) 0,17,13,6,15,13,6,0,17
  3723	051156	555555	407666			BYTE (4) 13,6,15,13,6,0,17,13,6
  3724	051157	666603	733333			BYTE (4) 15,13,6,0,17,13,6,15,13
  3725	051160	301755	555540			BYTE (4) 6,0,17,13,6,15,13,6,0
  3726	051161	766666	660373			BYTE (4) 17,13,6,15,13,6,0,17,13
  3727	051162	333330	175555			BYTE (4) 6,15,13,6,0,17,13,6,15
  3728	051163	554076	666666			BYTE (4) 13,6,0,17,13,6,15,13,6
  3729	051164	037333	333017			BYTE (4) 0,17,13,6,15,13,6,0,17
  3730	051165	555555	407666			BYTE (4) 13,6,15,13,6,0,17,13,6
  3731	051166	666603	733333			BYTE (4) 15,13,6,0,17,13,6,15,13
  3732	051167	301755	555540			BYTE (4) 6,0,17,13,6,15,13,6,0
  3733	051170				WCWDAT:
  3734						;AND THIS IS SAME WITH ODD WORDS SHUFFLED AS NEEDED
  3735	051170	766666	660373			BYTE (4) 17,13,6,15,13,6,0,17,13
  3736	051171	666603	733326			BYTE (4) 15,13,6,0,17,13,6,15,6
  3737	051172	554076	666666			BYTE (4) 13,6,0,17,13,6,15,13,6
  3738	051173	766666	660360			BYTE (4) 17,13,6,15,13,6,0,17,0
  3739	051174	555555	407666			BYTE (4) 13,6,15,13,6,0,17,13,6
  3740	051175	554076	666675			BYTE (4) 13,6,0,17,13,6,15,13,15
  3741	051176	301755	555540			BYTE (4) 6,0,17,13,6,15,13,6,0
  3742	051177	555555	407677			BYTE (4) 13,6,15,13,6,0,17,13,17
  3743	051200	333330	175555			BYTE (4) 6,15,13,6,0,17,13,6,15
  3744	051201	301755	555553			BYTE (4) 6,0,17,13,6,15,13,6,13
  3745	051202	037333	333017			BYTE (4) 0,17,13,6,15,13,6,0,17
  3746	051203	333330	175553			BYTE (4) 6,15,13,6,0,17,13,6,13
SA10 - DIAGNOSTIC FOR SYSTEMS CONCEPTS SA-10 IBM-TO-DEC SUBSYSTEM ADAPTOR	VER 1	MACRO %53B(1155)-2 14:34 14-Feb-86 Page 71-1
SA10N	MAC	17-Sep-74 22:01

  3747	051204	666603	733333			BYTE (4) 15,13,6,0,17,13,6,15,13
  3748	051205	037333	333006			BYTE (4) 0,17,13,6,15,13,6,0,6
  3749			000016		NWCPDT==.-WCWDAT		;LENGTH OF REPEATED BLOCK
SA10 - DIAGNOSTIC FOR SYSTEMS CONCEPTS SA-10 IBM-TO-DEC SUBSYSTEM ADAPTOR	VER 1	MACRO %53B(1155)-2 14:34 14-Feb-86 Page 72
SA10N	MAC	17-Sep-74 22:01

  3750	051206	200 03 0 07 051551 	CHKIT:	MOVE C,CHCW(G)		; SEE IF IN RETRY SEQUENCE
  3751	051207	607 03 0 00 000020 		TLNN C,(1B13)		; ..
  3752	051210	254 00 0 00 051221 		JRST CHK0		; NO.
  3753	051211	211 04 0 00 000011 		MOVNI D,NRETRY+1	; YES. BUT READ OK NOW, SAY SO.
  3754	051212	270 04 0 07 052253 		ADD D,RETRYC(G)		; COMPUT READS NEEDED
  3755	051213	217 00 0 00 000004 		MOVMS D			; ..
  3756	051214	201 05 0 07 000000 		MOVEI E,(G)		; RH DRIVE NUMBER
  3757						MOVEI C,[ASCIZ /DRIVE %E READ OK ON PASS $D.
  3758
  3759	051215	201 03 0 00 105253 	/]
  3760	051216	260 17 0 00 060373 		PUSHJ P,STYO
  3761	051217	205 01 0 00 000020 		MOVSI A,(1B13)		; CLEAR RETRYING FLAG
  3762	051220	412 01 0 07 051551 		ANDCAM A,CHCW(G)
  3763	051221	200 04 0 07 051613 	CHK0:	MOVE D,ADDR(G)
  3764	051222	210 05 0 07 053405 		MOVN E,NWTRAK(G)
  3765	051223	201 01 0 00 000000 		MOVEI A,0	;MAKE SURE WE MAP FIRST TIME
  3766	051224	200 03 0 07 051551 		MOVE C,CHCW(G)		; RANDOM OR FIXED PATTERN?
  3767	051225	603 03 0 00 000400 		TLNE C,(1B9)		; ..
  3768	051226	254 00 0 00 051256 		JRST CHKV		; FIXED. VERIFY SURFACE
  3769	051227	335 00 0 07 052253 		SKIPGE RETRYC(G)	; PERMANENT ERROR?
  3770	051230	254 00 0 00 051252 		JRST CHKX		; YES. DON'T TEST DATA
  3771	051231	200 02 0 07 052153 		MOVE B,TRK(G)
  3772	051232	603 03 0 00 000040 		TLNE C,(1B12)
  3773	051233	460 02 0 00 000002 		SETCM B,B
  3774	051234	253 01 0 00 051236 	CHK1:	AOBJN A,.+2
  3775	051235	260 17 0 00 050157 		PUSHJ P,MAPADL
  3776	051236	312 02 0 01 000000 		CAME B,(A)
  3777	051237	260 17 0 00 051412 		PUSHJ P,UNDET		; UNDETECTED ERROR!!
  3778	051240	271 04 0 00 000001 		ADDI D,1
  3779	051241	253 01 0 00 051243 		AOBJN A,.+2
  3780	051242	260 17 0 00 050157 		PUSHJ P,MAPADL
  3781	051243	460 03 0 01 000000 		SETCM C,(A)
  3782	051244	312 02 0 00 000003 		CAME B,C
  3783						JRST [	SETCA B,	; UNDETECTED ERROR. MAKE AC'S LIKE
  3784							PUSHJ P,UNDET	; IN OTHER CALLS TO ERR ROUTINE
  3785							SETCA B,
  3786	051245	254 00 0 00 105262 			JRST .+1]
  3787	051246	345 05 0 00 051252 		AOJGE E,CHKX
  3788	051247	241 02 0 00 000001 		ROT B,1
  3789	051250	271 04 0 00 000001 		ADDI D,1
  3790	051251	341 05 0 00 051234 		AOJL E,CHK1
  3791	051252	402 00 0 07 052253 	CHKX:	SETZM RETRYC(G)		; START FRESH
  3792	051253	205 01 0 00 000040 		MOVSI A,(1B12)
  3793	051254	432 01 0 07 051551 		XORM A,CHCW(G)
  3794	051255	254 00 0 00 051053 		JRST FILX
SA10 - DIAGNOSTIC FOR SYSTEMS CONCEPTS SA-10 IBM-TO-DEC SUBSYSTEM ADAPTOR	VER 1	MACRO %53B(1155)-2 14:34 14-Feb-86 Page 73
SA10N	MAC	17-Sep-74 22:01

  3795	051256	335 00 0 07 052253 	CHKV:	SKIPGE RETRYC(G)	; END OF PERMANENT ERROR?
  3796	051257	254 00 0 00 051310 		JRST CHKVX		; YES.
  3797	051260	603 03 0 00 002000 		TLNE C,(2B8)		; WORST CASE PATTERN?
  3798	051261	254 00 0 00 051274 		JRST CHKVW		; YES
  3799	051262	201 02 0 00 000000 		MOVEI B,0		; NO. ZEROES, OR ONES
  3800	051263	603 03 0 00 001000 		TLNE C,(1B8)		; ..
  3801	051264	474 02 0 00 000000 		SETO B,			; ONES.
  3802	051265	253 01 0 00 051266 	CHKV1:	AOBJN A,.+1
  3803	051266	260 17 0 00 050157 		PUSHJ P,MAPADL
  3804	051267	312 02 0 01 000000 		CAME B,(A)		; IS WORD CORRECT?
  3805	051270	260 17 0 00 051412 		PUSHJ P,UNDET		; NO. UNDETECTED ERROR.
  3806	051271	271 04 0 00 000001 		ADDI D,1
  3807	051272	341 05 0 00 051265 		AOJL E,CHKV1	;CHECK WHOLE BUFFER
  3808	051273	254 00 0 00 051310 		JRST CHKVX		; DONE
  3809
  3810	051274	205 03 0 00 777762 	CHKVW:	MOVSI C,-NWCPDT		; COUNT THRU CORRECT DATA
  3811	051275	200 02 0 03 051152 	CHKVW1:	MOVE B,WCPDAT(C)	; GET CORRECT DATUM
  3812	051276	336 00 0 00 047573 		SKIPN NATRAL
  3813	051277	200 02 0 03 051170 		MOVE B,WCWDAT(C)	;IF WORD MODE
  3814	051300	253 01 0 00 051302 		AOBJN A,.+2
  3815	051301	260 17 0 00 050157 		PUSHJ P,MAPADL
  3816	051302	312 02 0 01 000000 		CAME B,(A)		; IS THIS WHAT WE READ?
  3817	051303	260 17 0 00 051412 		PUSHJ P,UNDET		; NO. UNDETECTED ERROR
  3818	051304	253 03 0 00 051306 		AOBJN C,.+2		; OK, COUNT THRU GOOD DATA
  3819	051305	205 03 0 00 777762 		MOVSI C,-NWCPDT		; WRAP AROUND
  3820	051306	271 04 0 00 000001 		ADDI D,1
  3821	051307	341 05 0 00 051275 		AOJL E,CHKVW1
  3822	051310	350 01 0 07 052153 	CHKVX:	AOS A,TRK(G)		; ON TO NEXT HEAD
  3823	051311	315 01 0 07 053445 		CAMGE A,NTRAKS(G)	; ALL DONE?
  3824	051312	254 00 0 00 051325 		JRST CHKVXX		; NO
  3825	051313	402 00 0 07 052153 		SETZM TRK(G)		; YES. ON TO NEXT PATTERN, BACK TO CYL 0
  3826	051314	135 01 0 00 105266 		LDB A,[POINT 2,CHCW(G),8]
  3827	051315	271 01 0 00 000001 		ADDI A,1
  3828	051316	301 01 0 00 000003 		CAIL A,3
  3829	051317	201 01 0 00 000000 		MOVEI A,0		; RECYCLE AFTER ALL DONE
  3830	051320	137 01 0 00 105266 		DPB A,[POINT 2,CHCW(G),8]
  3831	051321	326 01 0 00 051325 		JUMPN A,CHKVXX
  3832	051322	201 04 0 07 000000 		MOVEI D,(G)
  3833						MOVEI C,[ASCIZ /FINISHED VERIFY PASS ON DRIVE %D.
  3834	051323	201 03 0 00 105267 	/]
  3835	051324	260 17 0 00 060373 		PUSHJ P,STYO
  3836	051325	254 00 0 00 051252 	CHKVXX:	JRST CHKX
  3837
  3838	051326	200 01 0 00 060737 	DSKTLE:	MOVE A,CHAN
  3839						MOVEI C,[ASCIZ /
  3840	051327	201 03 0 00 105277 	ERROR EXECUTING NO-OP ON CHANNEL %A /]
  3841	051330	260 17 0 00 060373 		PUSHJ P,STYO
  3842	051331	254 00 0 00 044300 		JRST CI0
  3843
  3844	051332	476 00 0 07 051653 	DTSET:	SETOM OFFLIN(G)		;MAKE SURE OFF-LINE IF WE RAN OFF END
  3845	051333	253 07 0 00 050537 		AOBJN G,DSKTL1		;JUST KEEP TRYING IF MORE UNITS
  3846	051334	332 00 0 00 104031 		SKIPE CUONL
  3847	051335	254 00 0 00 050626 		JRST DSKTS7		;CU IS ALIVE SOMEWHERE
  3848	051336	200 01 0 00 060626 		MOVE A,IDEVA
  3849	051337	435 01 0 00 000037 		IORI A,<1_LNPAKS>-1
SA10 - DIAGNOSTIC FOR SYSTEMS CONCEPTS SA-10 IBM-TO-DEC SUBSYSTEM ADAPTOR	VER 1	MACRO %53B(1155)-2 14:34 14-Feb-86 Page 73-1
SA10N	MAC	17-Sep-74 22:01

  3850	051340	271 01 0 00 000001 		ADDI A,1
  3851	051341	405 01 0 00 000377 		ANDI A,377
  3852	051342	202 01 0 00 060626 		MOVEM A,IDEVA
  3853	051343	312 01 0 00 060632 		CAME A,IDEVT
  3854	051344	254 00 0 00 050534 		JRST DSKTL0	;TRY THIS ADDRESS
  3855	051345	200 01 0 00 060737 		MOVE A,CHAN
  3856						MOVEI C,[ASCIZ /
  3857	051346	201 03 0 00 105307 	NO CONTROLLER RESPONDS ON CHANNEL %A /]
  3858	051347	260 17 0 00 060373 		PUSHJ P,STYO
  3859	051350	254 00 0 00 044300 		JRST CI0
SA10 - DIAGNOSTIC FOR SYSTEMS CONCEPTS SA-10 IBM-TO-DEC SUBSYSTEM ADAPTOR	VER 1	MACRO %53B(1155)-2 14:34 14-Feb-86 Page 74
SA10N	MAC	17-Sep-74 22:01

  3860	051351	200 01 0 00 052600 	PTIME:	MOVE A,TIME		; REPORT TOTAL TIME
  3861	051352	230 01 0 00 052602 		IDIV A,PWRHZ
  3862	051353	231 01 0 00 007020 		IDIVI A,^D60*^D60	; HOURS TO A
  3863	051354	200 04 0 00 000001 		MOVE D,A
  3864	051355	231 02 0 00 000074 		IDIVI B,^D60		;MINUTES TO B
  3865	051356	200 05 0 00 000002 		MOVE E,B
  3866						MOVEI C,[ASCIZ /TIME $D HOURS, $E MINUTES
  3867	051357	201 03 0 00 105317 	/]
  3868	051360	260 17 0 00 060373 		PUSHJ P,STYO
  3869	051361	263 17 0 00 000000 		POPJ P,0
  3870
  3871	051362	476 00 0 07 052313 	HUNG:	SETOM HUNGT(G)		;SO DOESN'T REPEAT
  3872	051363	201 03 0 00 105325 		MOVEI C,[ASCIZ / HUNG, /]
  3873	051364	260 17 0 00 047771 		PUSHJ P,DRVTYP
  3874	051365	260 17 0 00 051351 		PUSHJ P,PTIME
  3875	051366	254 00 0 00 050743 		JRST DSKT4
  3876
  3877	051367	000000	000000		APRI:	0
  3878	051370	256 00 0 00 050265 		XCT PDLTST
  3879	051371	254 00 0 00 061314 		JRST PDLINT
  3880	051372	7 000 30 1 00 050261 		CONSZ APR,@NXMBIT
  3881	051373	264 00 0 00 051442 		JSR BAD	;NXM
  3882	051374	256 00 0 00 050263 		XCT PETST
  3883	051375	264 00 0 00 051442 		JSR BAD	;PAR ERR
  3884	051376	256 00 0 00 050267 	APRCLK:	XCT CLKSKP
  3885	051377	254 12 1 00 051367 		JRST 12,@APRI
  3886	051400	350 00 0 00 052600 		AOS TIME
  3887	051401	350 00 0 00 052601 		AOS TIMEC
  3888	051402	256 00 0 00 050266 		XCT CLKCF
  3889	051403	256 00 0 00 050270 		XCT CLKENB
  3890	051404	254 12 1 00 051367 		JRST 12,@APRI
  3891
  3892	051405	000000	000000		KLCLK:	0
  3893	051406	250 00 0 00 051405 		EXCH KLCLK
  3894	051407	202 00 0 00 051367 		MOVEM APRI
  3895	051410	250 00 0 00 051405 		EXCH KLCLK
  3896	051411	254 00 0 00 051376 		JRST APRCLK
  3897
  3898	051412	261 17 0 00 000005 	UNDET:	PUSH P,E
  3899	051413	261 17 0 00 000003 		PUSH P,C		; HERE ON UNDETECTED READ ERROR
  3900	051414	261 17 0 00 000004 		PUSH P,D		; OR CATASTROPHE CAUSING CHECK ROUTINE
  3901	051415	261 17 0 00 000002 		PUSH P,B		; TO FAIL. SAVE AC'S
  3902	051416	201 04 0 07 000000 		MOVEI D,(G)		; DRIVE NUMBER
  3903	051417	200 05 0 07 052153 		MOVE E,TRK(G)		; CYL AND HEAD
  3904	051420	230 05 0 07 053205 		IDIV E,DSETSU(G)		; CYL TO E, HD TO F
  3905						MOVEI C,[ASCIZ /
  3906					*** UNDETECTED ERROR, DRIVE %D, CYLINDER %E, HEAD %F
  3907	051421	201 03 0 00 105327 	/]
  3908	051422	260 17 0 00 060373 		PUSHJ P,STYO
  3909	051423	200 04 0 17 000000 		MOVE D,0(P)
  3910	051424	200 01 0 17 777777 		MOVE A,-1(P)
  3911	051425	260 17 0 00 050146 		PUSHJ P,MAPA
  3912	051426	200 05 0 01 000000 		MOVE E,0(A)
  3913						MOVEI C,[ASCIZ /    WORD SHOULD BE %D, BUT WAS %E
  3914	051427	201 03 0 00 105343 	/]
SA10 - DIAGNOSTIC FOR SYSTEMS CONCEPTS SA-10 IBM-TO-DEC SUBSYSTEM ADAPTOR	VER 1	MACRO %53B(1155)-2 14:34 14-Feb-86 Page 74-1
SA10N	MAC	17-Sep-74 22:01

  3915	051430	260 17 0 00 060373 		PUSHJ P,STYO
  3916	051431	260 17 0 00 051351 		PUSHJ P,PTIME
  3917	051432	260 17 0 00 060442 		PUSHJ P,CR2
  3918	051433	262 17 0 00 000002 		POP P,B
  3919	051434	262 17 0 00 000004 		POP P,D
  3920	051435	262 17 0 00 000003 		POP P,C
  3921	051436	262 17 0 00 000005 		POP P,E
  3922	051437	332 00 0 00 052434 		SKIPE SERR		; STOP ON ERROR?
  3923	051440	264 00 0 00 051462 		JSR GOPR		; YES. RING FOR HUMAN OPERATOR
  3924	051441	263 17 0 00 000000 		POPJ P,0
SA10 - DIAGNOSTIC FOR SYSTEMS CONCEPTS SA-10 IBM-TO-DEC SUBSYSTEM ADAPTOR	VER 1	MACRO %53B(1155)-2 14:34 14-Feb-86 Page 75
SA10N	MAC	17-Sep-74 22:01

  3925	051442	000000	000000		BAD:	0
  3926	051443	7 004 20 0 00 000400 		CONO PI,400
  3927	051444	261 17 0 00 000001 		PUSH P,A
  3928	051445	261 17 0 00 000002 		PUSH P,B
  3929	051446	261 17 0 00 000003 		PUSH P,C
  3930	051447	261 17 0 00 000004 		PUSH P,D
  3931	051450	550 04 0 00 051442 		HRRZ D,BAD
  3932						MOVEI C,[ASCIZ /BAD ERROR FROM %D
  3933	051451	201 03 0 00 105353 	/]
  3934	051452	260 17 0 00 060373 		PUSHJ P,STYO
  3935	051453	262 17 0 00 000004 		POP P,D
  3936	051454	262 17 0 00 000003 		POP P,C
  3937	051455	262 17 0 00 000002 		POP P,B
  3938	051456	262 17 0 00 000001 		POP P,A
  3939	051457	336 00 0 00 052434 		SKIPN SERR
  3940	051460	254 00 0 00 050637 		JRST DSKT0
  3941	051461	264 00 0 00 051462 		JSR GOPR
  3942
  3943	051462	000000	000000		GOPR:	0
  3944	051463	256 00 0 00 050260 		XCT PIRST
  3945	051464	260 17 0 00 052636 		PUSHJ P,CHKTYI
  3946	051465	255 00 0 00 000000 		JFCL
  3947	051466	201 02 0 00 000007 	GOPR1:	MOVEI B,7
  3948					REPEAT 3,<	PUSHJ P,TYOI	;TYPE 3 BELLS
  3949						JRST CI0
  3950					>
  3951	051467	260 17 0 00 051507 		PUSHJ P,TYOI	;TYPE 3 BELLS
  3952	051470	254 00 0 00 044300 		JRST CI0
  3953
  3954	051471	260 17 0 00 051507 		PUSHJ P,TYOI	;TYPE 3 BELLS
  3955	051472	254 00 0 00 044300 		JRST CI0
  3956
  3957	051473	260 17 0 00 051507 		PUSHJ P,TYOI	;TYPE 3 BELLS
  3958	051474	254 00 0 00 044300 		JRST CI0
  3959
  3960	051475	200 01 0 00 052602 		MOVE A,PWRHZ
  3961	051476	221 01 0 00 000005 		IMULI A,5	;EVERY 5 SECONDS
  3962	051477	256 00 0 00 050266 	GOPR2:	XCT CLKCF
  3963	051500	256 00 0 00 050267 	GOPR2A:	XCT CLKSKP
  3964	051501	254 00 0 00 051504 		JRST GOPR3
  3965	051502	367 01 0 00 051477 		SOJG A,GOPR2
  3966	051503	254 00 0 00 051466 		JRST GOPR1
  3967
  3968	051504	260 17 0 00 052636 	GOPR3:	PUSHJ P,CHKTYI
  3969	051505	254 00 0 00 044300 		JRST CI0
  3970	051506	254 00 0 00 051500 		JRST GOPR2A
  3971
  3972	051507	260 17 0 00 060533 	TYOI:	PUSHJ P,TYO0
  3973	051510	254 00 0 00 052636 		JRST CHKTYI
  3974
  3975
  3976					DEFINE CPG(N)<CPG'N>
  3977
  3978	051511				CPGP:
  3979			000000		ZZ==0
SA10 - DIAGNOSTIC FOR SYSTEMS CONCEPTS SA-10 IBM-TO-DEC SUBSYSTEM ADAPTOR	VER 1	MACRO %53B(1155)-2 14:34 14-Feb-86 Page 75-1
SA10N	MAC	17-Sep-74 22:01

  3980					IFLE CV,<
  3981					REPEAT NPACKS,<BYTE (8)320,IDEV+ZZ(20)CPG(\<.-CPGP>)
  3982					ZZ==ZZ+1>
  3983					>
  3984					IFG CV,<
  3985					REPEAT NPACKS,<BYTE (8)IDEV+ZZ,320(20)CPG(\<.-CPGP>)
  3986					ZZ==ZZ+1>
  3987	051511	000 320 0062721 	BYTE (8)IDEV+ZZ,320(20)CPG(\<.-CPGP>)^CPG0^
  3988			000001		ZZ==ZZ+1
  3989	051512	001 320 0063321 	BYTE (8)IDEV+ZZ,320(20)CPG(\<.-CPGP>)^CPG1^
  3990			000002		ZZ==ZZ+1
  3991	051513	002 320 0063721 	BYTE (8)IDEV+ZZ,320(20)CPG(\<.-CPGP>)^CPG2^
  3992			000003		ZZ==ZZ+1
  3993	051514	003 320 0064321 	BYTE (8)IDEV+ZZ,320(20)CPG(\<.-CPGP>)^CPG3^
  3994			000004		ZZ==ZZ+1
  3995	051515	004 320 0064721 	BYTE (8)IDEV+ZZ,320(20)CPG(\<.-CPGP>)^CPG4^
  3996			000005		ZZ==ZZ+1
  3997	051516	005 320 0065321 	BYTE (8)IDEV+ZZ,320(20)CPG(\<.-CPGP>)^CPG5^
  3998			000006		ZZ==ZZ+1
  3999	051517	006 320 0065721 	BYTE (8)IDEV+ZZ,320(20)CPG(\<.-CPGP>)^CPG6^
  4000			000007		ZZ==ZZ+1
  4001	051520	007 320 0066321 	BYTE (8)IDEV+ZZ,320(20)CPG(\<.-CPGP>)^CPG7^
  4002			000010		ZZ==ZZ+1
  4003	051521	010 320 0066721 	BYTE (8)IDEV+ZZ,320(20)CPG(\<.-CPGP>)^CPG10^
  4004			000011		ZZ==ZZ+1
  4005	051522	011 320 0067321 	BYTE (8)IDEV+ZZ,320(20)CPG(\<.-CPGP>)^CPG11^
  4006			000012		ZZ==ZZ+1
  4007	051523	012 320 0067721 	BYTE (8)IDEV+ZZ,320(20)CPG(\<.-CPGP>)^CPG12^
  4008			000013		ZZ==ZZ+1
  4009	051524	013 320 0070321 	BYTE (8)IDEV+ZZ,320(20)CPG(\<.-CPGP>)^CPG13^
  4010			000014		ZZ==ZZ+1
  4011	051525	014 320 0070721 	BYTE (8)IDEV+ZZ,320(20)CPG(\<.-CPGP>)^CPG14^
  4012			000015		ZZ==ZZ+1
  4013	051526	015 320 0071321 	BYTE (8)IDEV+ZZ,320(20)CPG(\<.-CPGP>)^CPG15^
  4014			000016		ZZ==ZZ+1
  4015	051527	016 320 0071721 	BYTE (8)IDEV+ZZ,320(20)CPG(\<.-CPGP>)^CPG16^
  4016			000017		ZZ==ZZ+1
  4017	051530	017 320 0072321 	BYTE (8)IDEV+ZZ,320(20)CPG(\<.-CPGP>)^CPG17^
  4018			000020		ZZ==ZZ+1
  4019	051531	020 320 0072721 	BYTE (8)IDEV+ZZ,320(20)CPG(\<.-CPGP>)^CPG20^
  4020			000021		ZZ==ZZ+1
  4021	051532	021 320 0073321 	BYTE (8)IDEV+ZZ,320(20)CPG(\<.-CPGP>)^CPG21^
  4022			000022		ZZ==ZZ+1
  4023	051533	022 320 0073721 	BYTE (8)IDEV+ZZ,320(20)CPG(\<.-CPGP>)^CPG22^
  4024			000023		ZZ==ZZ+1
  4025	051534	023 320 0074321 	BYTE (8)IDEV+ZZ,320(20)CPG(\<.-CPGP>)^CPG23^
  4026			000024		ZZ==ZZ+1
  4027	051535	024 320 0074721 	BYTE (8)IDEV+ZZ,320(20)CPG(\<.-CPGP>)^CPG24^
  4028			000025		ZZ==ZZ+1
  4029	051536	025 320 0075321 	BYTE (8)IDEV+ZZ,320(20)CPG(\<.-CPGP>)^CPG25^
  4030			000026		ZZ==ZZ+1
  4031	051537	026 320 0075721 	BYTE (8)IDEV+ZZ,320(20)CPG(\<.-CPGP>)^CPG26^
  4032			000027		ZZ==ZZ+1
  4033	051540	027 320 0076321 	BYTE (8)IDEV+ZZ,320(20)CPG(\<.-CPGP>)^CPG27^
  4034			000030		ZZ==ZZ+1
SA10 - DIAGNOSTIC FOR SYSTEMS CONCEPTS SA-10 IBM-TO-DEC SUBSYSTEM ADAPTOR	VER 1	MACRO %53B(1155)-2 14:34 14-Feb-86 Page 75-2
SA10N	MAC	17-Sep-74 22:01

  4035	051541	030 320 0076721 	BYTE (8)IDEV+ZZ,320(20)CPG(\<.-CPGP>)^CPG30^
  4036			000031		ZZ==ZZ+1
  4037	051542	031 320 0077321 	BYTE (8)IDEV+ZZ,320(20)CPG(\<.-CPGP>)^CPG31^
  4038			000032		ZZ==ZZ+1
  4039	051543	032 320 0077721 	BYTE (8)IDEV+ZZ,320(20)CPG(\<.-CPGP>)^CPG32^
  4040			000033		ZZ==ZZ+1
  4041	051544	033 320 0100321 	BYTE (8)IDEV+ZZ,320(20)CPG(\<.-CPGP>)^CPG33^
  4042			000034		ZZ==ZZ+1
  4043	051545	034 320 0100721 	BYTE (8)IDEV+ZZ,320(20)CPG(\<.-CPGP>)^CPG34^
  4044			000035		ZZ==ZZ+1
  4045	051546	035 320 0101321 	BYTE (8)IDEV+ZZ,320(20)CPG(\<.-CPGP>)^CPG35^
  4046			000036		ZZ==ZZ+1
  4047	051547	036 320 0101721 	BYTE (8)IDEV+ZZ,320(20)CPG(\<.-CPGP>)^CPG36^
  4048			000037		ZZ==ZZ+1
  4049	051550	037 320 0102321 	BYTE (8)IDEV+ZZ,320(20)CPG(\<.-CPGP>)^CPG37^
  4050			000040		ZZ==ZZ+1
  4051					>
  4052
  4053					; CONTROL WORDS FOR DRIVE. DISPATCH IN RH, BITS IN LH.
  4054					; SEE COMMENTS ON BIT USAGE AT DIP0
  4055	051551				CHCW:	REPEAT NPACKS,<374000,,>
  4056	051551	374000	000000		374000,,
  4057	051552	374000	000000		374000,,
  4058	051553	374000	000000		374000,,
  4059	051554	374000	000000		374000,,
  4060	051555	374000	000000		374000,,
  4061	051556	374000	000000		374000,,
  4062	051557	374000	000000		374000,,
  4063	051560	374000	000000		374000,,
  4064	051561	374000	000000		374000,,
  4065	051562	374000	000000		374000,,
  4066	051563	374000	000000		374000,,
  4067	051564	374000	000000		374000,,
  4068	051565	374000	000000		374000,,
  4069	051566	374000	000000		374000,,
  4070	051567	374000	000000		374000,,
  4071	051570	374000	000000		374000,,
  4072	051571	374000	000000		374000,,
  4073	051572	374000	000000		374000,,
  4074	051573	374000	000000		374000,,
  4075	051574	374000	000000		374000,,
  4076	051575	374000	000000		374000,,
  4077	051576	374000	000000		374000,,
  4078	051577	374000	000000		374000,,
  4079	051600	374000	000000		374000,,
  4080	051601	374000	000000		374000,,
  4081	051602	374000	000000		374000,,
  4082	051603	374000	000000		374000,,
  4083	051604	374000	000000		374000,,
  4084	051605	374000	000000		374000,,
  4085	051606	374000	000000		374000,,
  4086	051607	374000	000000		374000,,
  4087	051610	374000	000000		374000,,
SA10 - DIAGNOSTIC FOR SYSTEMS CONCEPTS SA-10 IBM-TO-DEC SUBSYSTEM ADAPTOR	VER 1	MACRO %53B(1155)-2 14:34 14-Feb-86 Page 76
SA10N	MAC	17-Sep-74 22:01

  4088	051611	000000	000000		ADRLO:	0		;FIRST AREA FREE FOR BUFFERS
  4089								; SPACE TO LOAD PROG AT 1000, DDT, SYMS.
  4090	051612	000000	777000		ADRHI:	777000		;FIRST NON-EX ADDR
  4091	051613				ADDR:	BLOCK NPACKS		; DATA AREAS PER DRIVE
  4092	051653				OFFLIN:	BLOCK NPACKS		; NON-ZERO IF DRIVE OFF LINE
  4093	051713				NREAD:	BLOCK NPACKS
  4094	051753				LNREAD:	BLOCK NPACKS
  4095	052013				NWRITE:	BLOCK NPACKS
  4096	052053				NCORDC:	BLOCK NPACKS
  4097	052113				ERRCT:	BLOCK NPACKS		; NUMBER OF ERRORS OTHER THAN CORR-
  4098									; ECTABLE DATA CHECKS AND STATISTICS
  4099	052153				TRK:	BLOCK NPACKS		; CYL*19 + HEAD OF CURRENT TRANSFER
  4100	052213				UWP:	BLOCK NPACKS		;USE WHOLE PACK IF NON ZERO
  4101	052253				RETRYC:	BLOCK NPACKS		; COUNTER FOR CORRECTABLE DATA CK'S
  4102
  4103	052313				HUNGT:	BLOCK NPACKS		;VALUE OF TIME WHEN INT OCCURRED.
  4104									; MINUS ONE IF HUNG OR NOT STARTED.
  4105	052353				PHADR:	BLOCK NPACKS
  4106
  4107	052413	000000	000000		DEVN:	0
  4108	052414				ACS:	BLOCK 20
  4109	052434	000000	000000		SERR:	0
  4110	052435	000000	000000		DSVFLG:	0			; DSK SURFACE VERIFIER FLAG
  4111
  4112	052436				SPOTTB:	REPEAT NBADSP,<-1>	; SPACE FOR BAD SPOTS. -1 IS FREE
  4113	052436	777777	777777		-1
  4114	052437	777777	777777		-1
  4115	052440	777777	777777		-1
  4116	052441	777777	777777		-1
  4117	052442	777777	777777		-1
  4118	052443	777777	777777		-1
  4119	052444	777777	777777		-1
  4120	052445	777777	777777		-1
  4121	052446	777777	777777		-1
  4122	052447	777777	777777		-1
  4123	052450	777777	777777		-1
  4124	052451	777777	777777		-1
  4125	052452	777777	777777		-1
  4126	052453	777777	777777		-1
  4127	052454	777777	777777		-1
  4128	052455	777777	777777		-1
  4129	052456	777777	777777		-1
  4130	052457	777777	777777		-1
  4131	052460	777777	777777		-1
  4132	052461	777777	777777		-1
  4133	052462	777777	777777		-1
  4134	052463	777777	777777		-1
  4135	052464	777777	777777		-1
  4136	052465	777777	777777		-1
  4137	052466	777777	777777		-1
  4138	052467	777777	777777		-1
  4139	052470	777777	777777		-1
  4140	052471	777777	777777		-1
  4141	052472	777777	777777		-1
  4142	052473	777777	777777		-1
SA10 - DIAGNOSTIC FOR SYSTEMS CONCEPTS SA-10 IBM-TO-DEC SUBSYSTEM ADAPTOR	VER 1	MACRO %53B(1155)-2 14:34 14-Feb-86 Page 76-1
SA10N	MAC	17-Sep-74 22:01

  4143	052474	777777	777777		-1
  4144	052475	777777	777777		-1
  4145	052476	777777	777777		-1
  4146	052477	777777	777777		-1
  4147	052500	777777	777777		-1
  4148	052501	777777	777777		-1
  4149	052502	777777	777777		-1
  4150	052503	777777	777777		-1
  4151	052504	777777	777777		-1
  4152	052505	777777	777777		-1
  4153	052506	777777	777777		-1
  4154	052507	777777	777777		-1
  4155	052510	777777	777777		-1
  4156	052511	777777	777777		-1
  4157	052512	777777	777777		-1
  4158	052513	777777	777777		-1
  4159	052514	777777	777777		-1
  4160	052515	777777	777777		-1
  4161	052516	777777	777777		-1
  4162	052517	777777	777777		-1
  4163	052520	777777	777777		-1
  4164	052521	777777	777777		-1
  4165	052522	777777	777777		-1
  4166	052523	777777	777777		-1
  4167	052524	777777	777777		-1
  4168	052525	777777	777777		-1
  4169	052526	777777	777777		-1
  4170	052527	777777	777777		-1
  4171	052530	777777	777777		-1
  4172	052531	777777	777777		-1
  4173	052532	777777	777777		-1
  4174	052533	777777	777777		-1
  4175	052534	777777	777777		-1
  4176	052535	777777	777777		-1
  4177	052536	777777	777777			-1			; AND ONE FOR END TEST
  4178
  4179	052537				DEVL:	BLOCK NPACKS
  4180	052577	000000	000000			0
  4181
  4182	052600	000000	000000		TIME:	0
  4183	052601	000000	000000		TIMEC:	0
  4184	052602	000000	000074		PWRHZ:	^D60			;LINE FREQ
  4185	052603	000000	000000		SENSCT:	0
  4186	052604				DSTAT:	BLOCK 4			; COPY OF 4 WORDS FROM LOW CORE
  4187									; ON CHANNEL COMPLETION
SA10 - DIAGNOSTIC FOR SYSTEMS CONCEPTS SA-10 IBM-TO-DEC SUBSYSTEM ADAPTOR	VER 1	MACRO %53B(1155)-2 14:34 14-Feb-86 Page 77
SA10N	MAC	17-Sep-74 22:01

  4188	052610	260 17 0 00 060373 	TYIM:	PUSHJ P,STYO
  4189	052611	402 00 0 00 104042 	TYI:	SETZM TYIFLG#
  4190	052612	260 17 0 00 050274 		PUSHJ P,CKTYI0
  4191	052613	304 00 0 00 000000 		CAIA
  4192	052614	254 00 0 00 052612 		JRST .-2
  4193	052615	260 17 0 00 060444 		PUSHJ P,TYO
  4194	052616	302 02 0 00 000015 		CAIE B,15
  4195	052617	263 17 0 00 000000 		POPJ P,
  4196	052620	201 02 0 00 000012 		MOVEI B,12
  4197	052621	260 17 0 00 060444 		PUSHJ P,TYO
  4198	052622	201 02 0 00 000015 		MOVEI B,15
  4199	052623	263 17 0 00 000000 		POPJ P,
  4200
  4201	052624	7 120 34 0 00 000040 	CKTIAI:	CONSO TTY,40
  4202	052625	254 00 0 00 055623 		JRST CPOPJ1
  4203	052626	7 120 04 0 00 000002 		DATAI TTY,B
  4204	052627	405 02 0 00 000177 		ANDI B,177
  4205	052630	263 17 0 00 000000 		POPJ P,
  4206
  4207	052631	336 00 0 00 000456 	CKTIL:	SKIPN DTEMTI
  4208	052632	254 00 0 00 055623 		JRST CPOPJ1
  4209	052633	135 02 0 00 105357 		LDB B,[POINT 7,DTEF11,35]
  4210	052634	402 00 0 00 000456 		SETZM DTEMTI
  4211	052635	263 17 0 00 000000 		POPJ P,
  4212
  4213	052636	352 00 0 00 104042 	CHKTYI:	AOSE TYIFLG#	;IN CASE CHAR GOT EATEN BY CHKCNC
  4214	052637	260 17 0 00 050274 		PUSHJ P,CKTYI0
  4215	052640	263 17 0 00 000000 		 POPJ P,
  4216	052641	254 00 0 00 055623 		JRST CPOPJ1
  4217
  4218	052642	261 17 0 00 000002 	CHKCNC:	PUSH P,B
  4219	052643	260 17 0 00 050274 		PUSHJ P,CKTYI0
  4220	052644	254 00 0 00 052651 		 JRST CHKCC2
  4221	052645	354 00 0 17 777777 	BPOPJ1:	AOSA -1(P)
  4222	052646	260 17 0 00 060444 	TYOBJ:	PUSHJ P,TYO	;ECHO IT FOR THE RECORD
  4223	052647	262 17 0 00 000002 		POP P,B
  4224	052650	263 17 0 00 000000 		POPJ P,
  4225
  4226	052651	402 00 0 00 104042 	CHKCC2:	SETZM TYIFLG#
  4227	052652	306 02 0 00 000003 		CAIN B,"C"&77
  4228	052653	254 00 0 00 052646 		JRST TYOBJ
  4229	052654	476 00 0 00 104042 		SETOM TYIFLG#	;TELL CHKTYI WE SAW SOMETHING
  4230	052655	254 00 0 00 052645 		JRST BPOPJ1
  4231
  4232	052656	260 17 0 00 060373 	NUMGM:	PUSHJ P,STYO
  4233	052657	334 02 0 00 105360 	NUMG:	SKIPA B,[10]
  4234	052660	201 02 0 00 000012 	DNUMG:	MOVEI B,^D10
  4235	052661	202 02 0 00 104034 		MOVEM B,IRADX#
  4236	052662	201 01 0 00 000000 		MOVEI A,0
  4237	052663	260 17 0 00 052672 		PUSHJ P,NTYI
  4238	052664	263 17 0 00 000000 		POPJ P,
  4239	052665	220 01 0 00 104034 	NUMG1:	IMUL A,IRADX
  4240	052666	271 01 0 02 777720 		ADDI A,-"0"(B)
  4241	052667	260 17 0 00 052672 		PUSHJ P,NTYI
  4242	052670	254 00 0 00 055623 		JRST CPOPJ1
SA10 - DIAGNOSTIC FOR SYSTEMS CONCEPTS SA-10 IBM-TO-DEC SUBSYSTEM ADAPTOR	VER 1	MACRO %53B(1155)-2 14:34 14-Feb-86 Page 77-1
SA10N	MAC	17-Sep-74 22:01

  4243	052671	254 00 0 00 052665 		JRST NUMG1
  4244
  4245	052672	260 17 0 00 052611 	NTYI:	PUSHJ P,TYI
  4246	052673	307 02 0 00 000071 		CAIG B,"9"
  4247	052674	305 02 0 00 000060 		CAIGE B,"0"
  4248	052675	263 17 0 00 000000 		POPJ P,
  4249	052676	254 00 0 00 055623 		JRST CPOPJ1
SA10 - DIAGNOSTIC FOR SYSTEMS CONCEPTS SA-10 IBM-TO-DEC SUBSYSTEM ADAPTOR	VER 1	MACRO %53B(1155)-2 14:34 14-Feb-86 Page 78
SA10N	MAC	17-Sep-74 22:01

  4250					;READ OR WRITE A RECORD (CALLED FROM DDT)
  4251	052677	334 01 0 00 105361 	RDTST:	SKIPA A,[RDDATA]
  4252	052700	201 01 0 00 000005 	WRTST:	MOVEI A,WRDATA
  4253	052701	137 01 0 00 105362 		DPB A,[241000,,RWTSP2]
  4254	052702	200 01 0 00 052734 		MOVE A,TSTADR	;CORE ADDRESS
  4255	052703	210 02 0 00 054117 		MOVN B,CRECL	;RECORD LENGTH
  4256					IFLE CV,<
  4257						DPB B,[242000,,A]
  4258						>
  4259					IFG CV,<
  4260	052704	137 02 0 00 105363 		DPB B,[301400,,A]
  4261						>
  4262	052705	202 01 0 00 052743 		MOVEM A,RWTSP3	;WORD COUNT, ADDRESS FOR READ OR WRITE
  4263	052706	135 01 0 00 105134 		LDB A,[330300,,CONFIG]	;B,C,CE
  4264	052707	622 01 0 00 000007 		TRZE A,7
  4265	052710	664 01 0 00 000140 		TROA A,140
  4266	052711	660 01 0 00 000040 		TRO A,40
  4267	052712	137 01 0 00 105364 		DPB A,[341000,,RWTSP2]
  4268	052713	200 01 0 00 052730 		MOVE A,TSTDEV	;DEVICE ADDR
  4269	052714	137 01 0 00 105365 		DPB A,[141000,,RWTSTP]
  4270	052715	137 01 0 00 105366 		DPB A,[141000,,RWTSP1]
  4271	052716	137 01 0 00 105367 		DPB A,[141000,,RWTSP2]
  4272	052717	200 01 0 00 052731 		MOVE A,TSTCYL	;CYLINDER
  4273	052720	137 01 0 00 105370 		DPB A,[42000,,RWTSTD]
  4274	052721	200 01 0 00 052732 		MOVE A,TSTHED
  4275	052722	137 01 0 00 105371 		DPB A,[42000,,RWTSTD+1]
  4276	052723	200 01 0 00 052733 		MOVE A,TSTREC
  4277	052724	137 01 0 00 105371 		DPB A,[42000,,RWTSTD+1]
  4278	052725	201 01 0 00 052735 		MOVEI A,RWTSTP	;CHAN PGM
  4279	052726	260 17 0 00 050010 		PUSHJ P,SARNX0	;RUN IT
  4280	052727	254 00 0 00 044531*		JRST DDT	;EXIT
  4281
  4282	052730	000000	000000		TSTDEV:	IDEV	;DEVICE ADDR
  4283	052731	000000	000000		TSTCYL:	0	;CYLINDER
  4284	052732	000000	000000		TSTHED:	0	;HEAD
  4285	052733	000000	000001		TSTREC:	1	;RECORD #
  4286	052734	000000	051611		TSTADR:	ADRLO	;CORE ADDRESS
  4287
  4288	052735	070 007 000 0000 	RWTSTP:	BYTE (8)70,SEEK,IDEV
  4289	052736	777200	052745			IOW 6,RWTSTD^-6*100,,RWTSTD^
  4290	052737	071 061 000 0000 	RWTSP1:	BYTE (8)71,SCHIDE,IDEV
  4291	052740	777300	052745			IOW 5,RWTSTD^-5*100,,RWTSTD^
  4292	052741	200 00 0 00 052737 		MOVE RWTSP1	;TIC
  4293	052742	040 000 000 0000 	RWTSP2:	BYTE (8)40,0,IDEV	;READ DATA OR WRITE DATA
  4294	052743				RWTSP3:	IOW 200,ADRLO	^;CLOBBERED
  4295	052743	760000	051611		-200*100,,ADRLO
  4296	052744	000000	000000			0
  4297	052745	000000	000000		RWTSTD:	0	;00CC
  4298	052746	000000	000000			0	;HH0R
SA10 - DIAGNOSTIC FOR SYSTEMS CONCEPTS SA-10 IBM-TO-DEC SUBSYSTEM ADAPTOR	VER 1	MACRO %53B(1155)-2 14:34 14-Feb-86 Page 79
SA10N	MAC	17-Sep-74 22:01

  4299					;DETERMINE TYPE OF DISK PACK -- DEVICE ADDR IN A
  4300	052747	260 17 0 00 052753 	DSET:	PUSHJ P,DSET0
  4301	052750	254 00 0 00 053101 		JRST DSETE
  4302	052751	263 17 0 00 000000 		POPJ P,
  4303	052752	263 17 0 00 000000 		POPJ P,
  4304
  4305	052753	137 01 0 00 105372 	DSET0:	DPB A,[141000,,DSETP]	;INTO SEEK COMMAND
  4306	052754	137 01 0 00 105373 		DPB A,[141000,,DSETP2]	;AND INTO NOP
  4307	052755	202 01 0 00 053104 		MOVEM A,DSETD
  4308	052756	405 01 0 00 000037 		ANDI A,<1_LNPAKS>-1
  4309	052757	301 01 0 00 000040 		CAIL A,NPACKS
  4310	052760	254 00 0 00 053040 		JRST ILLDRV
  4311	052761	540 07 0 00 000001 		HRR G,A
  4312	052762	205 03 0 00 777773 		MOVSI C,DSETT0-DSETT1	;- # POSSIBILITIES
  4313	052763	200 01 0 03 053050 	DSET1:	MOVE A,DSETT0(C)	;1ST NONEXISTENT CYL
  4314	052764	137 01 0 00 105374 		DPB A,[42000,,DSETPD]	;CC
  4315	052765	201 01 0 00 053042 		MOVEI A,DSETP	;CHAN PGM ADDR
  4316	052766	260 17 0 00 050010 		PUSHJ P,SARNX0	;TRY THE SEEK
  4317	052767	335 01 0 00 060121 		SKIPGE A,SENSED	;LOOK AT COMMAND REJECT BIT
  4318	052770	253 03 0 00 052763 		AOBJN C,DSET1	;IF COMMAND REJECT
  4319	052771	603 01 0 00 376000 		TLNE A,376000
  4320	052772	254 00 0 00 055623 		JRST CPOPJ1	;DON'T CLOBBER DATA ON OTHER ERRS
  4321	052773	365 03 0 00 055623 		SOJGE C,CPOPJ1	;ERR IF NONE GOOD - BACK UP TO WORKING ONE
  4322	052774	200 01 0 03 053050 		MOVE A,DSETT0(C)
  4323	052775	202 01 0 07 053105 		MOVEM A,DSETCY(G)	;TOTAL # CYLS
  4324	052776	200 01 0 03 053055 		MOVE A,DSETT1(C)
  4325	052777	202 01 0 07 053145 		MOVEM A,DSETUC(G)	;USER CYLS
  4326	053000	200 01 0 03 053062 		MOVE A,DSETT2(C)
  4327	053001	202 01 0 07 053205 		MOVEM A,DSETSU(G)	;# SURFS
  4328	053002	220 01 0 07 053145 		IMUL A,DSETUC(G)
  4329	053003	202 01 0 07 053505 		MOVEM A,NUTRAK(G)
  4330	053004	200 01 0 07 053205 		MOVE A,DSETSU(G)
  4331	053005	220 01 0 07 053105 		IMUL A,DSETCY(G)
  4332	053006	202 01 0 07 053445 		MOVEM A,NTRAKS(G)
  4333	053007	274 01 0 07 053505 		SUB A,NUTRAK(G)
  4334	053010	202 01 0 07 053545 		MOVEM A,NXTRAK(G)
  4335	053011	200 02 0 00 054117 		MOVE B,CRECL	;RECORD LENGTH IN WORDS
  4336	053012	240 02 0 00 777777 		ASH B,-1
  4337	053013	221 02 0 00 000011 		IMULI B,11	;9 BYTES PER 2 WORDS
  4338	053014	270 02 0 03 053067 		ADD B,DSETT3(C)	;# OVERHEAD BYTES PER RECORD
  4339	053015	200 01 0 03 053074 		MOVE A,DSETT4(C)	;TOTAL # BYTES PER TRACK
  4340	053016	230 01 0 00 000002 		IDIV A,B
  4341	053017	202 01 0 07 053245 		MOVEM A,DSETNR(G)	;# RECORDS PER TRACK
  4342	053020	240 01 0 00 000034 		ASH A,^D28
  4343	053021	202 01 0 07 053305 		MOVEM A,DSETR2(G)
  4344	053022	200 01 0 07 053245 		MOVE A,DSETNR(G)
  4345	053023	271 01 0 00 000001 		ADDI A,1
  4346	053024	240 01 0 00 000034 		ASH A,^D28
  4347	053025	202 01 0 07 053645 		MOVEM A,DIRW1V(G)
  4348	053026	200 01 0 00 054117 		MOVE A,CRECL
  4349	053027	220 01 0 07 053245 		IMUL A,DSETNR(G)
  4350	053030	202 01 0 07 053405 		MOVEM A,NWTRAK(G)	;# WORDS PER TRACK
  4351	053031	201 01 0 00 000014 		MOVEI A,BLKSKP
  4352	053032	230 01 0 07 053245 		IDIV A,DSETNR(G)
  4353	053033	326 02 0 00 105375 		JUMPN B,[AOJA A,.+1]
SA10 - DIAGNOSTIC FOR SYSTEMS CONCEPTS SA-10 IBM-TO-DEC SUBSYSTEM ADAPTOR	VER 1	MACRO %53B(1155)-2 14:34 14-Feb-86 Page 79-1
SA10N	MAC	17-Sep-74 22:01

  4354	053034	202 01 0 07 053605 		MOVEM A,NSTRAK(G)	;# TRACKS TO AVOID AT BEGINNING
  4355	053035	552 03 0 07 053345 		HRRZM C,DSETTY(G)	;TYPE CODE
  4356	053036	350 00 0 17 000000 		AOS (P)
  4357	053037	254 00 0 00 055623 		JRST CPOPJ1
  4358
  4359	053040				ILLDRV:	MOVEI C,[ASCIZ /
  4360					DRIVE #%A TOO BIG.
  4361	053040	201 03 0 00 105376 	/]
  4362	053041	254 00 0 00 054043 		JRST STYOXT
SA10 - DIAGNOSTIC FOR SYSTEMS CONCEPTS SA-10 IBM-TO-DEC SUBSYSTEM ADAPTOR	VER 1	MACRO %53B(1155)-2 14:34 14-Feb-86 Page 80
SA10N	MAC	17-Sep-74 22:01

  4363	053042	070 007 000 0000 	DSETP:	BYTE (8)70,SEEK,IDEV
  4364	053043	777200	053046			IOW 6,DSETPD^-6*100,,DSETPD^
  4365	053044	240 003 000 0000 	DSETP2:	BYTE (8)240,3,IDEV	;CHAIN TO NOP TO WAIT FOR COMPLETION
  4366	053045	000000	000000			0
  4367	053046	000000	000000		DSETPD:	0
  4368	053047	000000	000000			0
  4369
  4370					;TOTAL # CYLS -- 1ST INVALID CYL #
  4371	053050	000000	001457		DSETT0:	^D815	;3330-11
  4372	053051	000000	001300			^D704	;3340-70
  4373	053052	000000	001060			^D560	;3350
  4374	053053	000000	000633			^D411	;3330-1
  4375	053054	000000	000544			^D356	;3340-35
  4376
  4377					;# CYLS FOR USER
  4378	053055	000000	001450		DSETT1:	^D808
  4379	053056	000000	001270			^D696
  4380	053057	000000	001053			^D555
  4381	053060	000000	000624			^D404
  4382	053061	000000	000534			^D348
  4383
  4384					;# SURFS
  4385	053062	000000	000023		DSETT2:	^D19
  4386	053063	000000	000014			^D12
  4387	053064	000000	000036			^D30
  4388	053065	000000	000023			^D19
  4389	053066	000000	000014			^D12
  4390
  4391					;# OVERHEAD BYTES PER RECORD
  4392	053067	000000	000207		DSETT3:	^D135
  4393	053070	000000	000271			^D185
  4394	053071	000000	000271			^D185
  4395	053072	000000	000207			^D135
  4396	053073	000000	000271			^D185
  4397
  4398					;# BYTES PER TRACK
  4399	053074	000000	031555		DSETT4:	^D13165
  4400	053075	000000	020551			^D8553
  4401	053076	000000	045466			^D19254
  4402	053077	000000	031555			^D13165
  4403	053100	000000	020551			^D8553
  4404
  4405	053101				DSETE:	MOVEI C,[ASCIZ /
  4406					SEEK TO CYL 348. REJECTED.
  4407	053101	201 03 0 00 105403 	/]
  4408	053102	260 17 0 00 060373 		PUSHJ P,STYO
  4409	053103	254 00 0 00 044300 		JRST CI0	;ABORT
  4410
  4411	053104	000000	000000		DSETD:	0
  4412	053105				DSETCY:	BLOCK NPACKS	;TOTAL # CYLINDERS
  4413	053145				DSETUC:	BLOCK NPACKS	;# CYLINDERS FOR USER
  4414	053205				DSETSU:	BLOCK NPACKS	;# SURFACES
  4415	053245				DSETNR:	BLOCK NPACKS	;# RECORDS PER TRACK
  4416	053305				DSETR2:	BLOCK NPACKS	;# RECORDS PER TRACK * 2000,,0
  4417	053345				DSETTY:	BLOCK NPACKS	;DISK DRIVE TYPE # (E.G. INDEX ON DSETT0)
SA10 - DIAGNOSTIC FOR SYSTEMS CONCEPTS SA-10 IBM-TO-DEC SUBSYSTEM ADAPTOR	VER 1	MACRO %53B(1155)-2 14:34 14-Feb-86 Page 80-1
SA10N	MAC	17-Sep-74 22:01

  4418	053405				NWTRAK:	BLOCK NPACKS	;# WDS PER TRACK
  4419	053445				NTRAKS:	BLOCK NPACKS	;TOTAL # CYLS * SURFS
  4420	053505				NUTRAK:	BLOCK NPACKS	;# UCYLS * SURFS
  4421	053545				NXTRAK:	BLOCK NPACKS	;NTRAKS - NUTRAK
  4422	053605				NSTRAK:	BLOCK NPACKS	;# TRACKS PROTECTED FROM DSKT, BAFGO
  4423	053645				DIRW1V:	BLOCK NPACKS
SA10 - DIAGNOSTIC FOR SYSTEMS CONCEPTS SA-10 IBM-TO-DEC SUBSYSTEM ADAPTOR	VER 1	MACRO %53B(1155)-2 14:34 14-Feb-86 Page 81
SA10N	MAC	17-Sep-74 22:01

  4424					;FORMAT A PACK. ASSUMES REC 0 EXISTS, WRITES 1-5
  4425
  4426	053705	201 15 0 00 400000 	FMT:	MCONO SA0,400000^	MOVEI DD,400000
  4427	053706	256 00 0 00 060621 		XCT DCONO
  4428	053707	260 17 0 00 060667 		PUSHJ P,CSET	;SET UP FOR PROPER SA-10 CHANNL
  4429	053710	331 01 0 00 044360 		SKIPL A,PREARG
  4430	053711	202 01 0 00 054122 		MOVEM A,FMTD
  4431	053712	135 07 0 00 105412 		LDB G,[POINT LNPAKS,FMTD,35]
  4432						MOVEI C,[ASCIZ /
  4433					UWP NOT SET FOR DRIVE %G.
  4434	053713	201 03 0 00 105413 	/]
  4435	053714	336 00 0 07 052213 		SKIPN UWP(G)
  4436	053715	254 00 0 00 054043 		JRST STYOXT
  4437						MOVEI C,[ASCIZ /
  4438					FORMATTER READY, C TO CONTINUE:
  4439	053716	201 03 0 00 105421 	/]
  4440	053717	260 17 0 00 054055 		PUSHJ P,ABORTQ
  4441	053720	402 00 0 00 056415 		SETZM FMZBF
  4442	053721	200 01 0 00 105431 		MOVE A,[FMZBF,,FMZBF+1]
  4443	053722	251 01 0 00 056634 		BLT A,FMZBF+BLKSIZ*11/10-1
  4444	053723	200 01 0 00 054122 		MOVE A,FMTD	;DEVICE ADDRESS
  4445	053724	260 17 0 00 052747 		PUSHJ P,DSET	;DETERMINE DISK DRIVE SIZE
  4446	053725	200 01 0 07 053245 		MOVE A,DSETNR(G)
  4447	053726	271 01 0 00 000001 		ADDI A,1
  4448	053727	221 01 0 00 000050 		IMULI A,^D40
  4449	053730	202 01 0 00 054123 		MOVEM A,FMT1T
  4450	053731	200 04 0 00 054122 		MOVE D,FMTD		; DEVICE TO FORMAT
  4451	053732	200 17 0 00 104043 		MOVE P,[-LPDL,,PDL-1]
  4452	053733	256 00 0 00 050272 		XCT IORST
  4453	053734	256 00 0 00 050260 		XCT PIRST
  4454	053735	242 04 0 00 000014 	FMT0:	LSH D,^D12
  4455	053736	200 11 0 00 054121 		MOVE I,FMTM	;0=HA, R0 ARE GOOD; 1=WRT R0; -1=WRT HA AND R0
  4456						;PUT IN DEV FLD
  4457	053737	200 12 0 00 054117 		MOVE J,CRECL	;RECORD LENGTH
  4458	053740	221 12 0 00 000011 		IMULI J,^D9
  4459	053741	271 12 0 00 000001 		ADDI J,1
  4460	053742	240 12 0 00 777777 		ASH J,-1	;J HAS SIZE IN BYTES
  4461	053743	242 12 0 00 000004 		LSH J,4
  4462	053744	201 05 0 00 000000 		MOVEI E,0
  4463	053745	620 05 0 00 007760 	FMT1:	TRZ E,7760		; CLEAR HEAD FIELD
  4464	053746	200 10 0 00 051611 		MOVE H,ADRLO	;PLACE TO PUT C C H H # KL DL DL
  4465	053747	205 03 0 00 200000 		MOVSI C,200000	;A TIC CMD
  4466	053750	270 03 0 00 000010 		ADD C,H
  4467	053751	270 03 0 00 054123 		ADD C,FMT1T	;LEAVE ROOM FOR DATA
  4468	053752	202 03 0 00 054120 		MOVEM C,FWP0
  4469	053753	322 11 0 00 053760 		JUMPE I,FMT1A	;IF NO SET FM NEEDED
  4470	053754	200 13 0 00 105432 		MOVE K,[BYTE (8)70,37]	;SET FM
  4471	053755	260 17 0 00 054101 		PUSHJ P,FMTS0
  4472	053756	200 13 0 00 105434 		MOVE K,[-1,,[BYTE (8)300]]	;ALLOW ALL
  4473	053757	260 17 0 00 054111 		PUSHJ P,FMTS1
  4474	053760	602 05 0 00 007760 	FMT1A:	TRNE E,7760	;ALWAYS SEEK IF HEAD 0
  4475	053761	325 11 0 00 053770 		JUMPGE I,FMT1B	;OR IF WRITING HA'S
  4476	053762	200 13 0 00 105435 		MOVE K,[BYTE (8)70,7]	;SEEK
  4477	053763	260 17 0 00 054101 		PUSHJ P,FMTS0
  4478	053764	200 13 0 00 105436 		MOVE K,[400000-2,,[0]]	;2 BYTES OF BB
SA10 - DIAGNOSTIC FOR SYSTEMS CONCEPTS SA-10 IBM-TO-DEC SUBSYSTEM ADAPTOR	VER 1	MACRO %53B(1155)-2 14:34 14-Feb-86 Page 81-1
SA10N	MAC	17-Sep-74 22:01

  4479	053765	260 17 0 00 054111 		PUSHJ P,FMTS1
  4480	053766	205 13 0 00 777774 		MOVSI K,-4
  4481	053767	260 17 0 00 054110 		PUSHJ P,FMTS1A
  4482	053770	321 11 0 00 054064 	FMT1B:	JUMPL I,FMT1C
  4483	053771	327 11 0 00 054045 		JUMPG I,FMT1D
  4484	053772	200 13 0 00 105437 		MOVE K,[BYTE (8)70,61]	;SRCH ID EQ
  4485	053773	602 05 0 00 007760 		TRNE E,7760
  4486	053774	661 13 0 00 001000 		TLO K,1000	;SET M-T IF NOT 1ST REC
  4487	053775	260 17 0 00 054101 		PUSHJ P,FMTS0
  4488	053776	205 13 0 00 777773 		MOVSI K,-5
  4489	053777	260 17 0 00 054110 	FMT1BR:	PUSHJ P,FMTS1A
  4490	054000	260 17 0 00 054105 		PUSHJ P,FMTS2
  4491					;FALLS THRU
SA10 - DIAGNOSTIC FOR SYSTEMS CONCEPTS SA-10 IBM-TO-DEC SUBSYSTEM ADAPTOR	VER 1	MACRO %53B(1155)-2 14:34 14-Feb-86 Page 82
SA10N	MAC	17-Sep-74 22:01

  4492					;FALLS IN
  4493	054001	621 12 0 00 776000 	FMT1E:	TLZ J,776000	;SET RN TO 0
  4494	054002	202 05 0 10 000000 	FMT2:	MOVEM E,(H)
  4495	054003	202 12 0 10 000001 		MOVEM J,1(H)
  4496	054004	201 01 0 00 000200 		MOVEI A,200
  4497	054005	607 12 0 00 776000 		TLNN J,776000
  4498	054006	542 01 0 10 000001 		HRRM A,1(H)	;R0 HAS DL OF 8
  4499	054007	271 10 0 00 000002 		ADDI H,2
  4500	054010	311 12 0 07 053305 		CAML J,DSETR2(G)
  4501	054011	254 00 0 00 054024 		JRST FMT2A	;NO MORE RECS ON TRK
  4502	054012	270 12 0 00 104743 		ADD J,[2000,,0]
  4503	054013	200 13 0 00 105440 		MOVE K,[BYTE (8)70,35]	;WRT CKD
  4504	054014	260 17 0 00 054101 		PUSHJ P,FMTS0
  4505	054015	205 13 0 00 377770 		MOVSI K,400000-^D8
  4506	054016	260 17 0 00 054110 		PUSHJ P,FMTS1A
  4507	054017	210 13 0 00 000012 		MOVN K,J
  4508	054020	242 13 0 00 000016 		LSH K,^D18-4
  4509	054021	541 13 0 00 056415 		HRRI K,FMZBF
  4510	054022	260 17 0 00 054110 		PUSHJ P,FMTS1A
  4511	054023	254 00 0 00 054002 		JRST FMT2
  4512	054024	271 05 0 00 000020 	FMT2A:	ADDI E,20
  4513	054025	135 01 0 00 105441 		LDB A,[41000,,E]
  4514	054026	315 01 0 07 053205 		CAMGE A,DSETSU(G)
  4515	054027	254 00 0 00 053760 		JRST FMT1A	;MORE TRKS ON CYL
  4516	054030	200 13 0 00 105442 		MOVE K,[BYTE (8)240,3]	;NOP
  4517	054031	260 17 0 00 054101 		PUSHJ P,FMTS0
  4518	054032	402 00 0 03 000000 		SETZM (C)
  4519	054033	200 01 0 00 054120 		MOVE A,FWP0
  4520	054034	260 17 0 00 057047 		PUSHJ P,SCHNX	;FORMATS ONE CYL
  4521	054035	254 00 0 00 044300 		JRST CI0	;IF ERROR
  4522	054036	270 05 0 00 105443 		ADD E,[4,,0]		; COUNT A CYLINDER
  4523	054037	135 01 0 00 105444 		LDB A,[242000,,E]	; WHAT CYLINDER ARE WE UP TO?
  4524	054040	315 01 0 07 053105 		CAMGE A,DSETCY(G)
  4525	054041	254 00 0 00 053745 		JRST FMT1		; NOT DONE YET.
  4526						MOVEI C,[ASCIZ /
  4527					FORMATTER DONE.
  4528	054042	201 03 0 00 105445 	/]
  4529	054043	260 17 0 00 060373 	STYOXT:	PUSHJ P,STYO
  4530	054044	254 00 0 00 044300 		JRST CI0
  4531
  4532	054045	200 13 0 00 105451 	FMT1D:	MOVE K,[BYTE (8)70,71]	;SRCH HA EQ
  4533	054046	602 05 0 00 007760 		TRNE E,7760
  4534	054047	661 13 0 00 001000 		TLO K,1000	;SET M-T IF NOT 1ST TRK
  4535	054050	260 17 0 00 054101 		PUSHJ P,FMTS0
  4536	054051	205 13 0 00 777774 		MOVSI K,-4
  4537	054052	260 17 0 00 054110 		PUSHJ P,FMTS1A
  4538	054053	260 17 0 00 054105 		PUSHJ P,FMTS2
  4539	054054	254 00 0 00 054072 		JRST FMT1CR
  4540
  4541	054055	260 17 0 00 060373 	ABORTQ:	PUSHJ P,STYO	;TYPE MESSAGE
  4542	054056	260 17 0 00 052611 		PUSHJ P,TYI	;ACCEPT CHAR
  4543	054057	306 02 0 00 000103 		CAIN B,"C"
  4544	054060	263 17 0 00 000000 		POPJ P,	;CHAR WAS C, CONTINUE
  4545	054061				FMTAX:	MOVEI C,[ASCIZ /
  4546					ABORTED.
SA10 - DIAGNOSTIC FOR SYSTEMS CONCEPTS SA-10 IBM-TO-DEC SUBSYSTEM ADAPTOR	VER 1	MACRO %53B(1155)-2 14:34 14-Feb-86 Page 82-1
SA10N	MAC	17-Sep-74 22:01

  4547	054061	201 03 0 00 105452 	/]
  4548	054062	260 17 0 00 060373 		PUSHJ P,STYO
  4549	054063	254 00 0 00 044300 		JRST CI0
SA10 - DIAGNOSTIC FOR SYSTEMS CONCEPTS SA-10 IBM-TO-DEC SUBSYSTEM ADAPTOR	VER 1	MACRO %53B(1155)-2 14:34 14-Feb-86 Page 83
SA10N	MAC	17-Sep-74 22:01

  4550	054064	200 13 0 00 105455 	FMT1C:	MOVE K,[BYTE (8)70,31]	;WRT HA
  4551	054065	260 17 0 00 054101 		PUSHJ P,FMTS0
  4552	054066	200 13 0 00 105456 		MOVE K,[400000-1,,[0]]
  4553	054067	260 17 0 00 054111 		PUSHJ P,FMTS1	;PUT OUT A ZERO FLAG BYTE
  4554	054070	205 13 0 00 777774 		MOVSI K,-4
  4555	054071	260 17 0 00 054110 		PUSHJ P,FMTS1A
  4556	054072	200 13 0 00 105457 	FMT1CR:	MOVE K,[BYTE (8)70,25]	;WRITE R0
  4557	054073	260 17 0 00 054101 		PUSHJ P,FMTS0
  4558	054074	205 13 0 00 377770 		MOVSI K,400000-^D8
  4559	054075	260 17 0 00 054110 		PUSHJ P,FMTS1A
  4560	054076	200 13 0 00 105460 		MOVE K,[-^D8,,FMZBF]
  4561	054077	260 17 0 00 054110 		PUSHJ P,FMTS1A
  4562	054100	254 00 0 00 054001 		JRST FMT1E
  4563
  4564	054101	270 13 0 00 000004 	FMTS0:	ADD K,D
  4565	054102	202 13 0 03 000000 	FMTS3:	MOVEM K,(C)
  4566	054103	271 03 0 00 000001 		ADDI C,1
  4567	054104	263 17 0 00 000000 		POPJ P,
  4568
  4569	054105	200 13 0 00 000003 	FMTS2:	MOVE K,C
  4570	054106	275 13 0 00 000002 		SUBI K,2
  4571	054107	254 00 0 00 054102 		JRST FMTS3
  4572
  4573	054110	540 13 0 00 000010 	FMTS1A:	HRR K,H
  4574	054111	510 01 0 00 000013 	FMTS1:	HLLZ A,K
  4575	054112	242 01 0 00 000006 			LSH A,CNTSFT
  4576	054113	331 00 0 00 000013 		SKIPL K
  4577	054114	621 01 0 00 400000 		TLZ A,400000
  4578	054115	500 13 0 00 000001 		HLL K,A
  4579	054116	254 00 0 00 054102 		JRST FMTS3
  4580
  4581	054117	000000	000200		CRECL:	BLKSIZ
  4582
  4583			000040		MXRECT=40			; MAX RECORDS PER TRACK
  4584			141000		DEVFLD=141000
  4585					; FOLLOWING 4 ARE TABLES, OF LENGTH 1 NOW, DEFINING A FORMAT OF
  4586					; A PACK. INDEXED BY F IN FMT ABOVE
  4587
  4588	054120	000000	000000		FWP0:	0	;PTR TO CHNL PRGM
  4589	054121	000000	000000		FMTM:	0	;FORMATTING MODE
  4590	054122	000000	000000		FMTD:	IDEV	;DEV ADDR
  4591
  4592	054123	000000	000000		FMT1T:	0
SA10 - DIAGNOSTIC FOR SYSTEMS CONCEPTS SA-10 IBM-TO-DEC SUBSYSTEM ADAPTOR	VER 1	MACRO %53B(1155)-2 14:34 14-Feb-86 Page 84
SA10N	MAC	17-Sep-74 22:01

  4593					;# RECORDS PER TRACK (TOPS-10)
  4594					IFNDEF NRPT,NRPT==^D18
  4595					;BAFGO -- WRITES OR UPDATES BAT BLOCKS AND OPTIONALLY FORMATS DISKS
  4596	054124	201 15 0 00 400000 	BAFGO:	MCONO SA0,400000^	MOVEI DD,400000
  4597	054125	256 00 0 00 060621 		XCT DCONO
  4598	054126	260 17 0 00 060667 		PUSHJ P,CSET	;SET UP FOR PROPER SA-10 CHAN
  4599	054127	331 01 0 00 044360 		SKIPL A,PREARG
  4600	054130	202 01 0 00 060626 		MOVEM A,IDEVA
  4601						MOVEI C,[ASCIZ /
  4602					BAD BLOCK PROGRAM READY.  TYPE C TO CONTINUE, A TO ABORT.
  4603	054131	201 03 0 00 105461 	/]
  4604	054132	260 17 0 00 054055 		PUSHJ P,ABORTQ
  4605	054133				BAFGOA:	MOVEI C,[ASCIZ /
  4606	054133	201 03 0 00 105476 	HOW MANY PATTERNS TO TRY? /]
  4607	054134	260 17 0 00 052656 		PUSHJ P,NUMGM
  4608	054135	254 00 0 00 054133 		JRST BAFGOA
  4609	054136	323 01 0 00 054133 		JUMPLE A,BAFGOA	;CHECK FOR PLAUSIBILITY
  4610	054137	302 02 0 00 000015 		CAIE B,15	;END WITH CR
  4611	054140	254 00 0 00 054133 		JRST BAFGOA	;OR ELSE
  4612	054141	202 01 0 00 055773 		MOVEM A,BAFMAX
  4613	054142	402 00 0 00 055771 		SETZM BAFF		;FORMAT-ALL FLAG
  4614						MOVEI C,[ASCIZ /
  4615	054143	201 03 0 00 105504 	FORMAT ALL UNITS (Y OR N)? /]
  4616	054144	260 17 0 00 052656 		PUSHJ P,NUMGM
  4617	054145	304 00 0 00 000000 		CAIA
  4618	054146	254 00 0 00 054151 		JRST BAFW
  4619	054147	306 02 0 00 000131 		CAIN B,"Y"
  4620	054150	254 00 0 00 054170 		JRST BAFW0		;YES
  4621	054151				BAFW:	MOVEI C,[ASCIZ /
  4622					WHAT UNITS TO HAVE BAT BLOCKS REINITIALIZED? (TYPE #,#,...CR)
  4623	054151	201 03 0 00 105512 	/]
  4624	054152	260 17 0 00 060373 		PUSHJ P,STYO
  4625	054153	402 00 0 00 055725 		SETZM BAFWT
  4626	054154	200 01 0 00 105530 		MOVE A,[BAFWT,,BAFWT+1]
  4627	054155	251 01 0 00 055764 		BLT A,BAFWT+NPACKS-1	;CLEAN OUT TABLE
  4628	054156	260 17 0 00 052657 	BAFW1:	PUSHJ P,NUMG
  4629	054157	254 00 0 00 054243 		JRST BAFW2A	;NO MORE NUMBERS
  4630	054160	302 02 0 00 000054 		CAIE B,","
  4631	054161	306 02 0 00 000015 		CAIN B,15	;CR
  4632	054162	301 01 0 00 000040 		CAIL A,NPACKS
  4633	054163	254 00 0 00 054151 		JRST BAFW	;TYPED SOMETHING WRONG, TRY AGAIN
  4634	054164	350 00 0 01 055725 		AOS BAFWT(A)
  4635	054165	306 02 0 00 000015 		CAIN B,15
  4636	054166	254 00 0 00 054173 		JRST BAFW2
  4637	054167	254 00 0 00 054156 		JRST BAFW1
SA10 - DIAGNOSTIC FOR SYSTEMS CONCEPTS SA-10 IBM-TO-DEC SUBSYSTEM ADAPTOR	VER 1	MACRO %53B(1155)-2 14:34 14-Feb-86 Page 85
SA10N	MAC	17-Sep-74 22:01

  4638	054170				BAFW0:	MOVEI C,[ASCIZ /
  4639	054170	201 03 0 00 104046 	/]
  4640	054171	260 17 0 00 060373 		PUSHJ P,STYO
  4641	054172	476 00 0 00 055771 		SETOM BAFF	;SET FORMAT-ALL FLAG
  4642	054173	201 07 0 00 000000 	BAFW2:	MOVEI G,0	;START WITH DRIVE 0
  4643	054174	301 07 0 00 000040 	BAFW2N:	CAIL G,NPACKS
  4644	054175	254 00 0 00 054643 		JRST BAFDN	;IF DONE ALL DRIVES
  4645	054176	260 17 0 00 055665 		PUSHJ P,DRAVL	;IS DRIVE AVAILABLE?
  4646	054177	344 07 0 00 054174 	BAFW3:	AOJA G,BAFW2N	;NO, TRY NEXT ONE
  4647	054200	336 00 0 07 052213 		SKIPN UWP(G)
  4648	054201	254 00 0 00 054310 		JRST BAFX99
  4649	054202	200 01 0 00 060626 		MOVE A,IDEVA
  4650	054203	271 01 0 07 000000 		ADDI A,(G)
  4651	054204	260 17 0 00 052747 		PUSHJ P,DSET	;DETERMINE SIZE OF DISK
  4652	054205	200 05 0 07 053245 		MOVE E,DSETNR(G)
  4653	054206	302 05 0 00 000022 		CAIE E,NRPT
  4654	054207	254 00 0 00 054315 		JRST BAFWE1	;NRPT NOT RUN-TIME VARIABLE YET
  4655	054210	402 00 0 00 055765 		SETZM BAFPAT	;PATTERN 0
  4656	054211	260 17 0 00 054646 		PUSHJ P,BAFP	;SET UP DATA
  4657	054212	201 02 0 00 054721 		MOVEI B,BAFTP
  4658	054213	260 17 0 00 054676 		PUSHJ P,BAFT	;PUT DEV ADDR IN FORMATTING CHAN PGM
  4659	054214	201 02 0 00 055230 		MOVEI B,BAFWP
  4660	054215	260 17 0 00 054676 		PUSHJ P,BAFT	;PUT DEV ADDR IN NORMAL CHAN PGM
  4661	054216	402 00 0 00 055766 		SETZM BAFCYL	;CYLINDER 0
  4662	054217	402 00 0 00 055767 		SETZM BAFHED	;HEAD 0
  4663	054220	336 00 0 00 055771 	BAFW9:	SKIPN BAFF	;ARE WE FORMATTING?
  4664	054221	254 00 0 00 054226 		JRST BAFW8	;IF NOT
  4665	054222	201 01 0 00 054721 		MOVEI A,BAFTP
  4666	054223	260 17 0 00 054705 		PUSHJ P,BAFO	;RUN FORMATTING CHAN PGM
  4667	054224	254 00 0 00 054240 		JRST BAFW9E	;IF IT FAILS
  4668	054225	254 00 0 00 054230 		JRST BAFW6	;IF TRACK 0 FORMATTED OK
  4669
  4670	054226	336 00 0 07 055725 	BAFW8:	SKIPN BAFWT(G)
  4671	054227	254 00 0 00 054235 		JRST BAFW4	;DON'T WRITE INITIAL BAT BLOCKS
  4672	054230	402 00 0 07 055725 	BAFW6:	SETZM BAFWT(G)	;NO NEED TO RE-REINITIALIZE
  4673	054231	260 17 0 00 055632 		PUSHJ P,IBAF
  4674	054232	260 17 0 00 055564 		PUSHJ P,WBAT	;WRITE OUT INITIAL BAT BLOCKS
  4675						MOVEI C,[ASCIZ /DRIVE %G BAT BLOCKS INITIALIZED
  4676	054233	201 03 0 00 105531 	/]
  4677	054234	260 17 0 00 060373 		PUSHJ P,STYO
  4678	054235	260 17 0 00 055576 	BAFW4:	PUSHJ P,RBAF	;TRY TO READ IN BAT BLOCK (EITHER ONE IF OK)
  4679	054236	254 00 0 00 054177 		JRST BAFW3	;LOSE, TRY ANOTHER DRIVE
  4680	054237	254 00 0 00 054273 		JRST BAFX1	;OK, NOW TRY ALL OTHER TRACKS
  4681
  4682					BAFW9E:	MOVEI C,[ASCIZ /CAN'T FORMAT TRACK 0 ON DRIVE %G
  4683	054240	201 03 0 00 105540 	/]
  4684	054241	260 17 0 00 060373 		PUSHJ P,STYO
  4685	054242	254 00 0 00 054177 		JRST BAFW3	;ON TO NEXT DRIVE
  4686
  4687	054243				BAFW2A:	MOVEI C,[ASCIZ /
  4688	054243	201 03 0 00 104046 	/]
  4689	054244	260 17 0 00 060373 		PUSHJ P,STYO
  4690	054245	254 00 0 00 054173 		JRST BAFW2
SA10 - DIAGNOSTIC FOR SYSTEMS CONCEPTS SA-10 IBM-TO-DEC SUBSYSTEM ADAPTOR	VER 1	MACRO %53B(1155)-2 14:34 14-Feb-86 Page 86
SA10N	MAC	17-Sep-74 22:01

  4691	054246	350 02 0 00 055767 	BAFX2:	AOS B,BAFHED	;TRY NEXT HEAD
  4692	054247	200 01 0 00 055766 		MOVE A,BAFCYL
  4693	054250	315 02 0 07 053205 		CAMGE B,DSETSU(G)
  4694	054251	254 00 0 00 054277 		JRST BAFX3	;OK, TRY THIS TRACK
  4695	054252	201 02 0 00 000000 		MOVEI B,0	;NEED TO GO TO START OF NEXT CYLINDER
  4696	054253	350 01 0 00 055766 		AOS A,BAFCYL	;TRY NEXT CYLINDER
  4697	054254	315 01 0 07 053145 		CAMGE A,DSETUC(G)	;IS IT IN NORMAL AREA OF DISK?
  4698	054255	254 00 0 00 054276 		JRST BAFX5	;IF YES, OK
  4699	054256	336 00 0 00 055765 		SKIPN BAFPAT
  4700	054257	336 00 0 00 055771 		SKIPN BAFF
  4701	054260	254 00 0 00 054263 		JRST .+3
  4702	054261	315 01 0 07 053105 		CAMGE A,DSETCY(G)	;FORMATTING - CONTINUE INTO MAINT CYLS
  4703	054262	254 00 0 00 054276 		JRST BAFX5
  4704	054263	200 04 0 00 055765 		MOVE D,BAFPAT	;IF NO, TIME FOR NEXT PATTERN
  4705	054264	200 06 0 00 055770 		MOVE F,BAFCT
  4706						MOVEI C,[ASCIZ /DONE PATTERN %D ON DRIVE %G, MARKED $F REGIONS BAD
  4707	054265	201 03 0 00 105547 	/]
  4708	054266	260 17 0 00 060373 		PUSHJ P,STYO	;GIVE PROGRESS MESSAGE
  4709	054267	350 01 0 00 055765 		AOS A,BAFPAT	;STEP TO NEXT PATTERN
  4710	054270	311 01 0 00 055773 		CAML A,BAFMAX
  4711	054271	254 00 0 00 054177 		JRST BAFW3	;IF DONE ALL PATTERNS, ON TO NEXT DRIVE
  4712	054272	260 17 0 00 054646 		PUSHJ P,BAFP	;SET UP DATA FOR THIS PATTERN
  4713	054273	200 01 0 07 053605 	BAFX1:	MOVE A,NSTRAK(G)	;START AT THIS TRACK
  4714	054274	230 01 0 07 053205 		IDIV A,DSETSU(G)
  4715	054275	202 01 0 00 055766 		MOVEM A,BAFCYL
  4716	054276	202 02 0 00 055767 	BAFX5:	MOVEM B,BAFHED	;HEAD 1 (AVOID TRACK 0)
  4717	054277	260 17 0 00 052642 	BAFX3:	PUSHJ P,CHKCNC
  4718	054300	254 00 0 00 044300 		JRST CI0
  4719	054301	201 01 0 00 054721 		MOVEI A,BAFTP	;FORMATTING CHAN PGM
  4720	054302	336 00 0 00 055765 		SKIPN BAFPAT	;IF PATTERN NONZERO, TRACK IS ALREADY FORMATTED
  4721	054303	336 00 0 00 055771 		SKIPN BAFF	;IF FORMAT-ALL MODE
  4722	054304	201 01 0 00 055230 		MOVEI A,BAFWP	;NORMAL WRITE-READ CHAN PGM
  4723	054305	260 17 0 00 054705 		PUSHJ P,BAFO	;RUN CHAN PGM
  4724	054306	254 00 0 00 054531 		JRST BAFY	;IF TROUBLE
  4725	054307	254 00 0 00 054246 		JRST BAFX2	;IF TRACK OK, ON TO NEXT TRACK
  4726
  4727	054310	201 03 0 00 105562 	BAFX99:	MOVEI C,[ASCIZ /SKIPPING /]
  4728	054311	260 17 0 00 060373 		PUSHJ P,STYO
  4729						MOVEI C,[ASCIZ /, UWP=0.
  4730	054312	201 03 0 00 105564 	/]
  4731	054313	260 17 0 00 047771 		PUSHJ P,DRVTYP
  4732	054314	254 00 0 00 054177 		JRST BAFW3
  4733
  4734	054315				BAFWE1:	MOVEI C,[ASCIZ /
  4735					MUST REASSEMBLE WITH NRPT=^D$E TO RUN ON DRIVE %G
  4736	054315	201 03 0 00 105567 	/]
  4737	054316	260 17 0 00 060373 		PUSHJ P,STYO
  4738	054317	254 00 0 00 054177 		JRST BAFW3
SA10 - DIAGNOSTIC FOR SYSTEMS CONCEPTS SA-10 IBM-TO-DEC SUBSYSTEM ADAPTOR	VER 1	MACRO %53B(1155)-2 14:34 14-Feb-86 Page 87
SA10N	MAC	17-Sep-74 22:01

  4739					;BAT ENTRY MANIPULATION ROUTINES
  4740
  4741					;SET UP TO SCAN BAT ENTRIES (C=AOBJN PNTR, D=#ENTRIES IN USE)
  4742	054320	331 03 0 00 055776 	BATSU:	SKIPL C,BAF+BAFFIR
  4743	054321	254 00 0 00 054326 		JRST BATSUE
  4744	054322	271 03 0 00 055775 		ADDI C,BAF
  4745	054323	135 04 0 00 105602 		LDB D,[POINT 9,BAF+BAFNBS,17]
  4746	054324	270 04 0 00 056000 		ADD D,BAF+BAFCNT
  4747	054325	263 17 0 00 000000 		POPJ P,
  4748
  4749	054326	510 03 0 00 000003 	BATSUE:	HLLZ C,C
  4750	054327	210 03 0 00 000003 		MOVN C,C	;CORRECT OLD BUG
  4751	054330	502 03 0 00 055776 		HLLM C,BAF+BAFFIR
  4752	054331	261 17 0 00 000001 		PUSH P,A
  4753	054332	261 17 0 00 000002 		PUSH P,B
  4754	054333	260 17 0 00 055564 		PUSHJ P,WBAT
  4755	054334	262 17 0 00 000002 		POP P,B
  4756	054335	262 17 0 00 000001 		POP P,A
  4757	054336	254 00 0 00 054320 		JRST BATSU
  4758
  4759					;GET NEXT BAT ENTRY, SET UP ACS:
  4760					;E,F= FIRST,LAST BLOCKS OF REGION
  4761					;H=0 (# BLOCKS ADDED), J=0 (# REGIONS ADDED (LH))
  4762					;I= FORMAT VERSION IN INTERNAL FORM
  4763	054337	322 04 0 00 060537 	BATGET:	JUMPE D,CPOPJ	;NONE LEFT
  4764	054340	325 03 0 00 054631 		JUMPGE C,BAFY2E	;SOME LEFT BUT END OF TABLE - SICKNESS
  4765	054341	200 11 0 03 000000 		MOVE I,BAFNBB(C)
  4766	054342	606 11 0 00 040000 		TRNN I,BAPNTP	;NEW TYPE ENTRY?
  4767	054343	334 11 0 00 105603 		SKIPA I,[BAFVOL-BAFVOF]	;NO, SET FOR OLD
  4768	054344	135 11 0 00 105604 		LDB I,[POINT 3,BAFELB(C),2]	;YES, GET VERSION
  4769	054345	303 11 0 00 000000 		CAILE I,BAFVMX-BAFVOF
  4770	054346	254 00 0 00 054362 		JRST BATGER	;A VERSION WE DON'T HANDLE
  4771	054347	271 11 0 00 000002 		ADDI I,BAFVOF	;OFFSET VERSION TO INTERNAL FORM
  4772	054350	313 11 0 00 104027 		CAMLE I,BAFVHI
  4773	054351	202 11 0 00 104027 		MOVEM I,BAFVHI	;REMEMBER LATEST VERSION SEEN
  4774	054352	135 05 0 11 054364 		LDB E,BAYELB(I)	;STARTING BLK #
  4775	054353	135 06 0 00 105605 		LDB F,[POINT 9,BAFNBB(C),8]	;LENGHT-1
  4776	054354	270 06 0 00 000005 		ADD F,E
  4777	054355	135 00 0 11 054367 		LDB BAYAPN(I)	;GET APR SERIAL #
  4778	054356	260 17 0 00 054521 		PUSHJ P,ASNGUE	;USE AS GUESS FOR OURS
  4779	054357	403 10 0 00 000012 		SETZB H,J	;NOTHING ADDED YET
  4780	054360	270 03 0 00 105114 		ADD C,[2,,2]	;ADVANCE PNTRS & EXIT
  4781	054361	364 04 0 00 055623 		SOJA D,CPOPJ1
  4782
  4783					BATGER:	MOVEI C,[ASCIZ /UNKNOWN ENTRY FORMAT %I
  4784	054362	201 03 0 00 105606 	/]
  4785	054363	254 00 0 00 060373 		JRST STYO
  4786
  4787	054364	000000	000000		BAYELB:	0
  4788	054365	00 22 0 03 000001 		POINT 18,BAFELB(C),35
  4789	054366	00 36 0 03 000001 		POINT 30,BAFELB(C),35
  4790
  4791	054367	000000	000000		BAYAPN:	0
  4792	054370	000000	000000			0
  4793	054371	00 16 0 03 000000 		POINT 14,BAFNBB(C),35
SA10 - DIAGNOSTIC FOR SYSTEMS CONCEPTS SA-10 IBM-TO-DEC SUBSYSTEM ADAPTOR	VER 1	MACRO %53B(1155)-2 14:34 14-Feb-86 Page 87-1
SA10N	MAC	17-Sep-74 22:01

  4794
  4795	054372	000000	000000		BATEMX:	0
  4796	054373	000000	400000			1B18
  4797	054374	010000	000000			1B5
SA10 - DIAGNOSTIC FOR SYSTEMS CONCEPTS SA-10 IBM-TO-DEC SUBSYSTEM ADAPTOR	VER 1	MACRO %53B(1155)-2 14:34 14-Feb-86 Page 88
SA10N	MAC	17-Sep-74 22:01

  4798					;STORE UPDATED BAT ENTRY
  4799	054375	135 01 0 00 105614 	BATSTO:	LDB A,[POINT 9,BAF+BAFNBS,8]
  4800	054376	270 01 0 00 000010 		ADD A,H
  4801	054377	326 12 0 00 105615 		JUMPN J,[AOJA A,.+1]	;H IS 1 LESS IF NEW ENTRY
  4802	054400	301 01 0 00 001000 		CAIL A,1000
  4803	054401	254 00 0 00 054641 		JRST BAFY2F	;TOO MANY BAD BLKS
  4804	054402	135 02 0 00 105605 		LDB B,[POINT 9,BAFNBB(C),8]
  4805	054403	270 02 0 00 000010 		ADD B,H
  4806	054404	301 02 0 00 001000 		CAIL B,1000
  4807	054405	254 00 0 00 054631 		JRST BAFY2E	;TOO MANY FOR ENTRY BUT NOT TOTAL ???
  4808	054406	311 05 0 11 054372 		CAML E,BATEMX(I)
  4809	054407	260 17 0 00 054463 		PUSHJ P,BATSNV	;BLOCK # WON'T FIT FORMAT - TRY TO USE ANOTHER
  4810	054410	311 05 0 11 054372 		CAML E,BATEMX(I)
  4811	054411	254 00 0 00 054441 		JRST BATSTE	;STILL DOESN'T MAKE IT
  4812	054412	137 01 0 00 105614 		DPB A,[POINT 9,BAF+BAFNBS,8]
  4813	054413	137 02 0 00 105605 		DPB B,[POINT 9,BAFNBB(C),8]
  4814	054414	137 05 0 11 054364 		DPB E,BAYELB(I)
  4815	054415	272 12 0 00 055777 		ADDM J,BAF+BAFNBS
  4816	054416	201 01 0 00 040000 		MOVEI A,BAPNTP
  4817	054417	307 11 0 00 000001 		CAIG I,BAFVOL
  4818						JRST [	ANDCAM A,BAFNBB(C)	;MARK OLD FORMAT
  4819	054420	254 00 0 00 105616 			JRST CPOPJ1]
  4820	054421	436 01 0 03 000000 		IORM A,BAFNBB(C)
  4821	054422	201 01 0 11 777776 		MOVEI A,-BAFVOF(I)
  4822	054423	137 01 0 00 105604 		DPB A,[POINT 3,BAFELB(C),2]
  4823	054424	135 01 0 00 105620 		LDB A,[POINT 8,SENSED+1,31]	;SENSE BYTE 7
  4824	054425	302 01 0 00 000103 		CAIE A,103
  4825	054426	306 01 0 00 000123 		CAIN A,123
  4826	054427	334 01 0 00 105621 		SKIPA A,[BAPDTR,,]	;ERR IN DATA FIELD
  4827	054430	205 01 0 00 010000 		MOVSI A,BAPHDR	;NO, MARK AS HEADER ERR
  4828	054431	436 01 0 03 000001 		IORM A,BAFELB(C)
  4829	054432	135 01 0 00 105013 		LDB A,[POINT 8,SENSED+1,7]
  4830	054433	260 17 0 00 047722 		PUSHJ P,DPHLOK	;GET PHYS DRIVE #
  4831	054434	254 00 0 00 055623 		JRST CPOPJ1
  4832	054435	205 01 0 00 000001 		MOVSI A,1
  4833	054436	242 01 0 02 000000 		LSH A,(B)
  4834	054437	436 01 0 03 000000 		IORM A,BAFNBB(C)
  4835	054440	254 00 0 00 055623 		JRST CPOPJ1
  4836
  4837	054441	322 12 0 00 054631 	BATSTE:	JUMPE J,BAFY2E
  4838	054442	402 00 0 03 000000 		SETZM BAFNBB(C)
  4839	054443	402 00 0 03 000001 		SETZM BAFELB(C)
  4840						MOVEI C,[ASCIZ /1ST LBN TOO HIGH, DISCARDING ENTRY.
  4841	054444	201 03 0 00 105622 	/]
  4842	054445	254 00 0 00 060373 		JRST STYO
SA10 - DIAGNOSTIC FOR SYSTEMS CONCEPTS SA-10 IBM-TO-DEC SUBSYSTEM ADAPTOR	VER 1	MACRO %53B(1155)-2 14:34 14-Feb-86 Page 89
SA10N	MAC	17-Sep-74 22:01

  4843					;SET UP NEW BAT SLOT, READY FOR BATSTO
  4844	054446	325 03 0 00 060537 	BATNEW:	JUMPGE C,CPOPJ	;NO ROOM
  4845	054447	402 00 0 03 000000 		SETZM BAFNBB(C)
  4846	054450	402 00 0 03 000001 		SETZM BAFELB(C)
  4847	054451	200 10 0 00 000006 		MOVE H,F
  4848	054452	274 10 0 00 000005 		SUB H,E
  4849	054453	205 12 0 00 000001 		MOVSI J,1
  4850	054454	260 17 0 00 054463 		PUSHJ P,BATSNV	;SET UP VERSION
  4851	054455	307 11 0 00 000001 		CAIG I,BAFVOL
  4852	054456	254 00 0 00 055623 		JRST CPOPJ1	;DONE IF OLD
  4853	054457	335 01 0 00 054527 		SKIPGE A,APRSN
  4854	054460	260 17 0 00 054510 		PUSHJ P,GETASN	;GET SERIAL #
  4855	054461	137 01 0 11 054367 		DPB A,BAYAPN(I)
  4856	054462	254 00 0 00 055623 		JRST CPOPJ1
  4857
  4858					;ASSIGN NEW FORMAT VERSION FOR ENTRY
  4859	054463	332 11 0 00 104026 	BATSNV:	SKIPE I,BAFCVR
  4860	054464	263 17 0 00 000000 		POPJ P,		;USE ESTABLISHED DEFAULT
  4861	054465	200 11 0 00 104027 		MOVE I,BAFVHI
  4862	054466	301 11 0 00 000002 		CAIL I,BAFVMX
  4863	054467	263 17 0 00 000000 		POPJ P,		;USE NEWEST SEEN IF ALSO NEWEST POSSIBLE
  4864	054470	261 17 0 00 000001 		PUSH P,A
  4865	054471	261 17 0 00 000002 		PUSH P,B
  4866	054472	261 17 0 00 000003 		PUSH P,C
  4867	054473	201 01 0 00 000000 		MOVEI A,BAFVMX-BAFVOF
  4868						MOVEI C,[ASCIZ /
  4869	054474	201 03 0 00 105632 	ENTRY VERSION # TO USE, CR FOR OLD (5.07) FMT, NEWEST=%A:/]
  4870	054475	260 17 0 00 052656 	BATSV3:	PUSHJ P,NUMGM
  4871	054476	364 01 0 00 054503 		SOJA A,BATSV2	;-1 FOR OLD BEFORE OFFSET
  4872	054477	307 01 0 00 000000 		CAIG A,BAFVMX-BAFVOF
  4873	054500	325 01 0 00 054503 		JUMPGE A,BATSV2
  4874	054501	201 03 0 00 105646 		MOVEI C,[ASCIZ /ILLEGAL. FMT:/]
  4875	054502	254 00 0 00 054475 		JRST BATSV3
  4876
  4877	054503	201 11 0 01 000002 	BATSV2:	MOVEI I,BAFVOF(A)
  4878	054504	202 11 0 00 104026 		MOVEM I,BAFCVR#	;SAVE FOR FUTURE REFERENCE
  4879	054505	262 17 0 00 000003 		POP P,C
  4880	054506	262 17 0 00 000002 		POP P,B
  4881	054507	254 00 0 00 057106 		JRST POPAJ
SA10 - DIAGNOSTIC FOR SYSTEMS CONCEPTS SA-10 IBM-TO-DEC SUBSYSTEM ADAPTOR	VER 1	MACRO %53B(1155)-2 14:34 14-Feb-86 Page 90
SA10N	MAC	17-Sep-74 22:01

  4882					;GET APR SERIAL # IF KA (KNOWN IF KI OR KL)
  4883	054510	333 01 0 00 054530 	GETASN:	SKIPLE A,ASNTRY	;DO WE HAVE A GUESS?
  4884						SKIPA C,[ASCIZ /
  4885	054511	334 03 0 00 105651 	TYPE APR SERIAL # (DEC), CR IF = $A:/]
  4886						MOVEI C,[ASCIZ /
  4887	054512	201 03 0 00 105661 	TYPE APR SERIAL #:/]
  4888	054513	260 17 0 00 060373 		PUSHJ P,STYO
  4889	054514	260 17 0 00 052660 		PUSHJ P,DNUMG
  4890	054515	333 01 0 00 054530 		SKIPLE A,ASNTRY	;IF NOTHING TYPED
  4891	054516	202 01 0 00 054527 		MOVEM A,APRSN
  4892	054517	200 01 0 00 054527 		MOVE A,APRSN
  4893	054520	263 17 0 00 000000 		POPJ P,
  4894
  4895	054521	322 00 0 00 060537 	ASNGUE:	JUMPE CPOPJ
  4896	054522	336 00 0 00 054530 		SKIPN ASNTRY
  4897	054523	202 00 0 00 054530 		MOVEM ASNTRY
  4898	054524	312 00 0 00 054530 		CAME ASNTRY
  4899	054525	476 00 0 00 054530 		SETOM ASNTRY
  4900	054526	263 17 0 00 000000 		POPJ P,
  4901
  4902	054527	777777	777777		APRSN:	-1
  4903	054530	000000	000000		ASNTRY:	0
SA10 - DIAGNOSTIC FOR SYSTEMS CONCEPTS SA-10 IBM-TO-DEC SUBSYSTEM ADAPTOR	VER 1	MACRO %53B(1155)-2 14:34 14-Feb-86 Page 91
SA10N	MAC	17-Sep-74 22:01

  4904	054531	135 01 0 00 105666 	BAFY:	LDB A,[POINT 8,SENSED,7]
  4905	054532	302 01 0 00 000010 		CAIE A,10
  4906	054533	254 00 0 00 054572 		JRST BAFYE	;NOT DATA CHECK, SOMETHING AMISS
  4907	054534	200 01 0 00 055766 		MOVE A,BAFCYL
  4908	054535	311 01 0 07 053145 		CAML A,DSETUC(G)
  4909	054536	254 00 0 00 054575 		JRST BAFYE2	;NOT USER CYL
  4910	054537	220 01 0 07 053205 		IMUL A,DSETSU(G)
  4911	054540	270 01 0 00 055767 		ADD A,BAFHED	;RESULT IS TRACK # WITH TROUBLE
  4912	054541	221 01 0 00 000022 		IMULI A,NRPT	;GET 1ST LBN IN TRACK
  4913	054542	202 01 0 00 055774 		MOVEM A,BAFYV
  4914	054543	200 05 0 00 055766 		MOVE E,BAFCYL	;CYLINDER #
  4915	054544	200 06 0 00 055767 		MOVE F,BAFHED	;HEAD #
  4916	054545	200 04 0 00 055774 		MOVE D,BAFYV	;LBN
  4917						MOVEI C,[ASCIZ /DRIVE %G, CYL $E, HEAD $F (1ST LBN $D)
  4918	054546	201 03 0 00 105667 	/]
  4919	054547	260 17 0 00 060373 		PUSHJ P,STYO
  4920	054550	200 01 0 00 055774 		MOVE A,BAFYV
  4921	054551	200 02 0 00 000001 		MOVE B,A
  4922	054552	271 02 0 00 000021 		ADDI B,NRPT-1	;LAST LBN IN TRACK
  4923	054553	260 17 0 00 054320 		PUSHJ P,BATSU
  4924	054554	260 17 0 00 054337 	BAFY0:	PUSHJ P,BATGET
  4925	054555	254 00 0 00 054620 		JRST BAFY7	;NO MATCH, MAKE NEW ENTRY
  4926	054556	200 00 0 00 000005 		MOVE E
  4927	054557	275 00 0 00 000001 		SUBI 1
  4928	054560	313 00 0 00 000002 		CAMLE B
  4929	054561	254 00 0 00 054554 		JRST BAFY0	;NO OVERLAP OR ADJOINMENT
  4930	054562	200 00 0 00 000001 		MOVE A
  4931	054563	275 00 0 00 000001 		SUBI 1
  4932	054564	313 00 0 00 000006 		CAMLE F
  4933	054565	254 00 0 00 054554 		JRST BAFY0	;DITTO OTHER WAY
  4934	054566	316 05 0 00 000001 		CAMN E,A
  4935	054567	312 06 0 00 000002 		CAME F,B
  4936	054570	254 00 0 00 054600 		JRST BAFY2	;IF DIFFERENT FROM OLD REGION
  4937	054571	254 00 0 00 054636 		JRST BAFY1X	;IF SAME AS OLD REGION
  4938
  4939	054572				BAFYE:	MOVEI C,[ASCIZ /
  4940					RETRYING NON-DATA ERROR ON DRIVE %G
  4941	054572	201 03 0 00 105700 	/]
  4942	054573	260 17 0 00 060373 		PUSHJ P,STYO
  4943	054574	254 00 0 00 054277 		JRST BAFX3
  4944
  4945					BAFYE2:	MOVEI C,[ASCIZ /MAINT CYL - NO BAT ENTRY MADE.
  4946	054575	201 03 0 00 105710 	/]
  4947	054576	260 17 0 00 060373 		PUSHJ	P,STYO
  4948	054577	254 00 0 00 054246 		JRST BAFX2
SA10 - DIAGNOSTIC FOR SYSTEMS CONCEPTS SA-10 IBM-TO-DEC SUBSYSTEM ADAPTOR	VER 1	MACRO %53B(1155)-2 14:34 14-Feb-86 Page 92
SA10N	MAC	17-Sep-74 22:01

  4949	054600	317 05 0 00 000001 	BAFY2:	CAMG E,A
  4950	054601	254 00 0 00 054605 		JRST BAFY2A	;NO EXTENSION AT BEGINNING
  4951	054602	270 10 0 00 000005 		ADD H,E
  4952	054603	274 10 0 00 000001 		SUB H,A
  4953	054604	200 05 0 00 000001 		MOVE E,A
  4954	054605	311 06 0 00 000002 	BAFY2A:	CAML F,B
  4955	054606	254 00 0 00 054612 		JRST BAFY2B	;NO EXTENSION AT END
  4956	054607	270 10 0 00 000002 		ADD H,B
  4957	054610	274 10 0 00 000006 		SUB H,F
  4958	054611	200 06 0 00 000002 		MOVE F,B
  4959	054612	322 10 0 00 054636 	BAFY2B:	JUMPE H,BAFY1X	;DON'T DIDDLE FOR SUBSET
  4960	054613	260 17 0 00 054375 		PUSHJ P,BATSTO
  4961	054614	254 00 0 00 054177 		JRST BAFW3	;COULDN'T UPDATE IT
  4962						MOVEI C,[ASCIZ /EXPANDED EXISTING REGION
  4963	054615	201 03 0 00 105717 	/]
  4964	054616	260 17 0 00 060373 		PUSHJ P,STYO
  4965	054617	254 00 0 00 054626 		JRST BAFY8	;ALL DONE, WRITE IT OUT
SA10 - DIAGNOSTIC FOR SYSTEMS CONCEPTS SA-10 IBM-TO-DEC SUBSYSTEM ADAPTOR	VER 1	MACRO %53B(1155)-2 14:34 14-Feb-86 Page 93
SA10N	MAC	17-Sep-74 22:01

  4966					;HERE IF NO RELEVANT ENTRY FOUND
  4967	054620	200 05 0 00 000001 	BAFY7:	MOVE E,A
  4968	054621	200 06 0 00 000002 		MOVE F,B
  4969	054622	260 17 0 00 054446 		PUSHJ P,BATNEW
  4970	054623	254 00 0 00 054633 		JRST BAFY7X	;COULDN'T ASSIGN NEW SLOT
  4971	054624	260 17 0 00 054375 		PUSHJ P,BATSTO
  4972	054625	254 00 0 00 054177 		JRST BAFW3	;COULDN'T UPDATE ENTRY
  4973	054626	260 17 0 00 055564 	BAFY8:	PUSHJ P,WBAT	;WRITE OUT MODIFIED BAT BLOCKS
  4974	054627	350 00 0 00 055770 		AOS BAFCT	;COUNT A NEW REGION FOUND BY THIS PATTERN
  4975	054630	254 00 0 00 054246 		JRST BAFX2	;ON TO NEXT TRACK
  4976					BAFY2E:	MOVEI C,[ASCIZ /BAT TABLE SCREWED UP!!!
  4977	054631	201 03 0 00 105725 	/]
  4978	054632	254 00 0 00 060373 		JRST STYO
  4979
  4980					BAFY7X:	MOVEI C,[ASCIZ /BAT TABLE FULL!!
  4981	054633	201 03 0 00 105733 	/]
  4982	054634	260 17 0 00 060373 		PUSHJ P,STYO
  4983	054635	254 00 0 00 054177 		JRST BAFW3	;TRY ANOTHER DRIVE
  4984
  4985					BAFY1X:	MOVEI C,[ASCIZ /REGION ALREADY IN BAT TABLE
  4986	054636	201 03 0 00 105737 	/]
  4987	054637	260 17 0 00 060373 		PUSHJ P,STYO
  4988	054640	254 00 0 00 054246 		JRST BAFX2	;ON TO ANOTHER TRACK
  4989
  4990					BAFY2F:	MOVEI C,[ASCIZ /TOO MANY BLOCKS IN BAD REGIONS ON DRIVE %G
  4991	054641	201 03 0 00 105745 	/]
  4992	054642	254 00 0 00 060373 		JRST STYO
SA10 - DIAGNOSTIC FOR SYSTEMS CONCEPTS SA-10 IBM-TO-DEC SUBSYSTEM ADAPTOR	VER 1	MACRO %53B(1155)-2 14:34 14-Feb-86 Page 94
SA10N	MAC	17-Sep-74 22:01

  4993					BAFDN:	MOVEI C,[ASCIZ /BAT PROGRAM DONE!
  4994	054643	201 03 0 00 105756 	/]
  4995	054644	260 17 0 00 060373 		PUSHJ P,STYO
  4996	054645	254 00 0 00 044300 		JRST CI0
  4997
  4998
  4999					;SUBROUTINE TO PUT PATTERN OF DATA INTO BAFDAT
  5000	054646	200 01 0 00 055765 	BAFP:	MOVE A,BAFPAT	;PATTERN #
  5001	054647	405 01 0 00 000003 		ANDI A,3	;ALLOW ANY NUMBER OF PATTERNS BUT CHOOSE FROM 4
  5002	054650	200 02 0 01 054662 		MOVE B,BAFPT0(A)
  5003	054651	202 02 0 00 056175 		MOVEM B,BAFDAT	;1ST WORD
  5004	054652	200 02 0 01 054666 		MOVE B,BAFPT1(A)
  5005	054653	202 02 0 00 056176 		MOVEM B,BAFDAT+1	;2ND WORD
  5006	054654	200 02 0 01 054672 		MOVE B,BAFPT2(A)
  5007	054655	202 02 0 00 056177 		MOVEM B,BAFDAT+2	;3RD AND FINAL WORD
  5008	054656	200 02 0 00 105762 		MOVE B,[BAFDAT,,BAFDAT+3]
  5009	054657	251 02 0 00 056374 		BLT B,BAFDAT+177
  5010	054660	402 00 0 00 055770 		SETZM BAFCT	;NO ERRORS FOR THIS PATTERN
  5011	054661	263 17 0 00 000000 		POPJ P,
  5012
  5013	054662	666 666 666 660 	BAFPT0:	BYTE (9)666,666,666,660
  5014	054663	111 111 111 100 		BYTE (9)111,111,111,100
  5015	054664	314 314 314 314 00 		BYTE (8)314,314,314,314
  5016	054665	777777	777760			-20
  5017	054666	333 333 333 320 	BAFPT1:	BYTE (9)333,333,333,320
  5018	054667	444 444 444 440 		BYTE (9)444,444,444,440
  5019	054670	314 314 314 314 00 		BYTE (8)314,314,314,314
  5020	054671	777777	777760			-20
  5021	054672	555 555 555 540 	BAFPT2:	BYTE (9)555,555,555,540
  5022	054673	222 222 222 220 		BYTE (9)222,222,222,220
  5023	054674	314 314 314 314 00 		BYTE (8)314,314,314,314
  5024	054675	777777	777760			-20
SA10 - DIAGNOSTIC FOR SYSTEMS CONCEPTS SA-10 IBM-TO-DEC SUBSYSTEM ADAPTOR	VER 1	MACRO %53B(1155)-2 14:34 14-Feb-86 Page 95
SA10N	MAC	17-Sep-74 22:01

  5025					;SUBROUTINE TO PUT DEV ADDR INTO A CHAN PGM (ADDR IN B)
  5026	054676	200 01 0 00 060626 	BAFT:	MOVE A,IDEVA	;CONTROLLER PART OF DEVICE ADDRESS
  5027	054677	271 01 0 07 000000 		ADDI A,(G)	;DRIVE PART
  5028	054700	135 03 0 00 104174 	BAFT1:	LDB C,[POINT 8,(B),7]	;FLAG BYTE OF COMMAND
  5029	054701	322 03 0 00 060537 		JUMPE C,CPOPJ	;IF END OF CHAN PGM
  5030	054702	306 03 0 00 000070 		CAIN C,70
  5031	054703	137 01 0 00 105763 		DPB A,[POINT 8,(B),23]	;IF DEV COMMAND, PUT IN DEV ADDR
  5032	054704	344 02 0 00 054700 		AOJA B,BAFT1	;AND LOOK AT NEXT WORD
  5033
  5034					;SUBROUTINE TO RUN CHAN PGM -- ADDR IN A -- SKIP RETURNS IF OK
  5035	054705	200 16 0 00 000007 	BAFO:	MOVE BF,G	;DRIVE #
  5036	054706	242 16 0 00 000011 		LSH BF,^D9
  5037	054707	270 16 0 00 055765 		ADD BF,BAFPAT	;PATTERN #
  5038	054710	242 16 0 00 000014 		LSH BF,^D12
  5039	054711	270 16 0 00 055766 		ADD BF,BAFCYL	;CYLINDER #
  5040	054712	242 16 0 00 000006 		LSH BF,6
  5041	054713	270 16 0 00 055767 		ADD BF,BAFHED	;HEAD #
  5042	054714	200 02 0 00 055766 		MOVE B,BAFCYL	;CYLINDER #
  5043	054715	137 02 0 00 105764 		DPB B,[POINT 16,BAFTD,15]
  5044	054716	200 02 0 00 055767 		MOVE B,BAFHED	;HEAD #
  5045	054717	137 02 0 00 105765 		DPB B,[POINT 16,BAFTD,31]
  5046	054720	254 00 0 00 057047 		JRST SCHNX	;RUN IT
  5047
  5048					SALL
  5049					;CHAN PGM TO FORMAT A TRACK, READ IT BACK
  5050	054721	070 037 0000000 	BAFTP:	BYTE (8)70,37	;SET FILE MASK
  5051	054722	777700	105433			IOW 1,[BYTE (8)300]	;PERMIT ALL
  5052	054723	070 007 0000000 	BAFTP1:	BYTE (8)70,SEEK
  5053	054724	377600	104105			IOWC 2,[0]	;2 BYTES OF ZEROS
  5054	054725	777400	056635			IOW 4,BAFTD	;THEN 4 BYTES OF CCHH
  5055	054726	070 031 0000000 	BAFTP2:	BYTE (8)70,31	;WRITE HA
  5056	054727	377700	104105			IOWC 1,[0]	;ANOTHER ZERO BYTE
  5057	054730	777400	056635			IOW 4,BAFTD		;CCHH
  5058	054731	070 025 0000000 	BAFTP3:	BYTE (8)70,25	;WRITE R0
  5059	054732	377000	056635			IOWC 10,BAFTD	;CCHH0008
  5060	054733	777000	055220			IOW 10,ZEROS	;0
  5061			000001		BAFTP4:	ZZ==1
  5062					REPEAT NRPT,<
  5063						BYTE (8)70,35	;WRITE CKD
  5064						IOWC 4,BAFTD	;CCHH
  5065						IOWC 4,[ZZ_34+1100_4]	;R, KL, DL DL
  5066						IOW 1100,BAFDAT	;FINALLY THE DATA PATTERN
  5067						ZZ==ZZ+1
  5068						>
  5069	054734	070 035 0000000
  5070	054735	377400	056635
  5071	054736	377400	105766
  5072	054737	670000	056175
  5073	054740	070 035 0000000
  5074	054741	377400	056635
  5075	054742	377400	105767
  5076	054743	670000	056175
  5077	054744	070 035 0000000
  5078	054745	377400	056635
  5079	054746	377400	105770
SA10 - DIAGNOSTIC FOR SYSTEMS CONCEPTS SA-10 IBM-TO-DEC SUBSYSTEM ADAPTOR	VER 1	MACRO %53B(1155)-2 14:34 14-Feb-86 Page 95-1
SA10N	MAC	17-Sep-74 22:01

  5080	054747	670000	056175
  5081	054750	070 035 0000000
  5082	054751	377400	056635
  5083	054752	377400	105771
  5084	054753	670000	056175
  5085	054754	070 035 0000000
  5086	054755	377400	056635
  5087	054756	377400	105772
  5088	054757	670000	056175
  5089	054760	070 035 0000000
  5090	054761	377400	056635
  5091	054762	377400	105773
  5092	054763	670000	056175
  5093	054764	070 035 0000000
  5094	054765	377400	056635
  5095	054766	377400	105774
  5096	054767	670000	056175
  5097	054770	070 035 0000000
  5098	054771	377400	056635
  5099	054772	377400	105775
  5100	054773	670000	056175
  5101	054774	070 035 0000000
  5102	054775	377400	056635
  5103	054776	377400	105776
  5104	054777	670000	056175
  5105	055000	070 035 0000000
  5106	055001	377400	056635
  5107	055002	377400	105777
  5108	055003	670000	056175
  5109	055004	070 035 0000000
  5110	055005	377400	056635
  5111	055006	377400	106000
  5112	055007	670000	056175
  5113	055010	070 035 0000000
  5114	055011	377400	056635
  5115	055012	377400	106001
  5116	055013	670000	056175
  5117	055014	070 035 0000000
  5118	055015	377400	056635
  5119	055016	377400	106002
  5120	055017	670000	056175
  5121	055020	070 035 0000000
  5122	055021	377400	056635
  5123	055022	377400	106003
  5124	055023	670000	056175
  5125	055024	070 035 0000000
  5126	055025	377400	056635
  5127	055026	377400	106004
  5128	055027	670000	056175
  5129	055030	070 035 0000000
  5130	055031	377400	056635
  5131	055032	377400	106005
  5132	055033	670000	056175
  5133	055034	070 035 0000000
  5134	055035	377400	056635
SA10 - DIAGNOSTIC FOR SYSTEMS CONCEPTS SA-10 IBM-TO-DEC SUBSYSTEM ADAPTOR	VER 1	MACRO %53B(1155)-2 14:34 14-Feb-86 Page 95-2
SA10N	MAC	17-Sep-74 22:01

  5135	055036	377400	106006
  5136	055037	670000	056175
  5137	055040	070 035 0000000
  5138	055041	377400	056635
  5139	055042	377400	106007
  5140	055043	670000	056175
  5141
  5142			000001			ZZ==1
  5143					REPEAT NRPT,<
  5144						BYTE (8)70,61	;SEARCH ID EQUAL
  5145						IOWC 4,BAFTD	;CCHH
  5146						IOW 1,[ZZ_34]	;R
  5147						MOVE .-3	;TRANSFER IN CHANNEL
  5148						BYTE (8)70,6	;READ DATA
  5149						IOW 1100,BAFXBF	;INTO SCRATCH BUFFER
  5150						ZZ==ZZ+1
  5151						>
  5152	055044	070 061 0000000
  5153	055045	377400	056635
  5154	055046	777700	104743
  5155	055047	200 00 0 00 055044
  5156	055050	070 006 0000000
  5157	055051	670000	056415
  5158	055052	070 061 0000000
  5159	055053	377400	056635
  5160	055054	777700	106010
  5161	055055	200 00 0 00 055052
  5162	055056	070 006 0000000
  5163	055057	670000	056415
  5164	055060	070 061 0000000
  5165	055061	377400	056635
  5166	055062	777700	106011
  5167	055063	200 00 0 00 055060
  5168	055064	070 006 0000000
  5169	055065	670000	056415
  5170	055066	070 061 0000000
  5171	055067	377400	056635
  5172	055070	777700	106012
  5173	055071	200 00 0 00 055066
  5174	055072	070 006 0000000
  5175	055073	670000	056415
  5176	055074	070 061 0000000
  5177	055075	377400	056635
  5178	055076	777700	106013
  5179	055077	200 00 0 00 055074
  5180	055100	070 006 0000000
  5181	055101	670000	056415
  5182	055102	070 061 0000000
  5183	055103	377400	056635
  5184	055104	777700	106014
  5185	055105	200 00 0 00 055102
  5186	055106	070 006 0000000
  5187	055107	670000	056415
  5188	055110	070 061 0000000
  5189	055111	377400	056635
SA10 - DIAGNOSTIC FOR SYSTEMS CONCEPTS SA-10 IBM-TO-DEC SUBSYSTEM ADAPTOR	VER 1	MACRO %53B(1155)-2 14:34 14-Feb-86 Page 95-3
SA10N	MAC	17-Sep-74 22:01

  5190	055112	777700	106015
  5191	055113	200 00 0 00 055110
  5192	055114	070 006 0000000
  5193	055115	670000	056415
  5194	055116	070 061 0000000
  5195	055117	377400	056635
  5196	055120	777700	105621
  5197	055121	200 00 0 00 055116
  5198	055122	070 006 0000000
  5199	055123	670000	056415
  5200	055124	070 061 0000000
  5201	055125	377400	056635
  5202	055126	777700	106016
  5203	055127	200 00 0 00 055124
  5204	055130	070 006 0000000
  5205	055131	670000	056415
  5206	055132	070 061 0000000
  5207	055133	377400	056635
  5208	055134	777700	106017
  5209	055135	200 00 0 00 055132
  5210	055136	070 006 0000000
  5211	055137	670000	056415
  5212	055140	070 061 0000000
  5213	055141	377400	056635
  5214	055142	777700	106020
  5215	055143	200 00 0 00 055140
  5216	055144	070 006 0000000
  5217	055145	670000	056415
  5218	055146	070 061 0000000
  5219	055147	377400	056635
  5220	055150	777700	106021
  5221	055151	200 00 0 00 055146
  5222	055152	070 006 0000000
  5223	055153	670000	056415
  5224	055154	070 061 0000000
  5225	055155	377400	056635
  5226	055156	777700	106022
  5227	055157	200 00 0 00 055154
  5228	055160	070 006 0000000
  5229	055161	670000	056415
  5230	055162	070 061 0000000
  5231	055163	377400	056635
  5232	055164	777700	106023
  5233	055165	200 00 0 00 055162
  5234	055166	070 006 0000000
  5235	055167	670000	056415
  5236	055170	070 061 0000000
  5237	055171	377400	056635
  5238	055172	777700	106024
  5239	055173	200 00 0 00 055170
  5240	055174	070 006 0000000
  5241	055175	670000	056415
  5242	055176	070 061 0000000
  5243	055177	377400	056635
  5244	055200	777700	106025
SA10 - DIAGNOSTIC FOR SYSTEMS CONCEPTS SA-10 IBM-TO-DEC SUBSYSTEM ADAPTOR	VER 1	MACRO %53B(1155)-2 14:34 14-Feb-86 Page 95-4
SA10N	MAC	17-Sep-74 22:01

  5245	055201	200 00 0 00 055176
  5246	055202	070 006 0000000
  5247	055203	670000	056415
  5248	055204	070 061 0000000
  5249	055205	377400	056635
  5250	055206	777700	106026
  5251	055207	200 00 0 00 055204
  5252	055210	070 006 0000000
  5253	055211	670000	056415
  5254	055212	070 061 0000000
  5255	055213	377400	056635
  5256	055214	777700	106027
  5257	055215	200 00 0 00 055212
  5258	055216	070 006 0000000
  5259	055217	670000	056415
  5260
  5261	055220				ZEROS:	REPEAT 10,<0>
  5262	055220	000000	000000
  5263	055221	000000	000000
  5264	055222	000000	000000
  5265	055223	000000	000000
  5266	055224	000000	000000
  5267	055225	000000	000000
  5268	055226	000000	000000
  5269	055227	000000	000000
SA10 - DIAGNOSTIC FOR SYSTEMS CONCEPTS SA-10 IBM-TO-DEC SUBSYSTEM ADAPTOR	VER 1	MACRO %53B(1155)-2 14:34 14-Feb-86 Page 96
SA10N	MAC	17-Sep-74 22:01

  5270					;CHAN PGM TO WRITE A TRACK AND READ IT BACK
  5271	055230	070 007 0000000 	BAFWP:	BYTE (8)70,SEEK
  5272	055231	377600	104105			IOWC 2,[0]	;00
  5273	055232	777400	056635			IOW 4,BAFTD		;CCHH
  5274			000001			ZZ==1
  5275					REPEAT NRPT,<
  5276						BYTE (8)70,61		;SEARCH ID EQUAL
  5277						IOWC 4,BAFTD	;CCHH
  5278						IOW 1,[ZZ_34]		;R
  5279						MOVE .-3
  5280						BYTE (8)70,WRDATA
  5281						IOW 1100,BAFDAT
  5282						ZZ==ZZ+1
  5283						>
  5284	055233	070 061 0000000
  5285	055234	377400	056635
  5286	055235	777700	104743
  5287	055236	200 00 0 00 055233
  5288	055237	070 005 0000000
  5289	055240	670000	056175
  5290	055241	070 061 0000000
  5291	055242	377400	056635
  5292	055243	777700	106010
  5293	055244	200 00 0 00 055241
  5294	055245	070 005 0000000
  5295	055246	670000	056175
  5296	055247	070 061 0000000
  5297	055250	377400	056635
  5298	055251	777700	106011
  5299	055252	200 00 0 00 055247
  5300	055253	070 005 0000000
  5301	055254	670000	056175
  5302	055255	070 061 0000000
  5303	055256	377400	056635
  5304	055257	777700	106012
  5305	055260	200 00 0 00 055255
  5306	055261	070 005 0000000
  5307	055262	670000	056175
  5308	055263	070 061 0000000
  5309	055264	377400	056635
  5310	055265	777700	106013
  5311	055266	200 00 0 00 055263
  5312	055267	070 005 0000000
  5313	055270	670000	056175
  5314	055271	070 061 0000000
  5315	055272	377400	056635
  5316	055273	777700	106014
  5317	055274	200 00 0 00 055271
  5318	055275	070 005 0000000
  5319	055276	670000	056175
  5320	055277	070 061 0000000
  5321	055300	377400	056635
  5322	055301	777700	106015
  5323	055302	200 00 0 00 055277
  5324	055303	070 005 0000000
SA10 - DIAGNOSTIC FOR SYSTEMS CONCEPTS SA-10 IBM-TO-DEC SUBSYSTEM ADAPTOR	VER 1	MACRO %53B(1155)-2 14:34 14-Feb-86 Page 96-1
SA10N	MAC	17-Sep-74 22:01

  5325	055304	670000	056175
  5326	055305	070 061 0000000
  5327	055306	377400	056635
  5328	055307	777700	105621
  5329	055310	200 00 0 00 055305
  5330	055311	070 005 0000000
  5331	055312	670000	056175
  5332	055313	070 061 0000000
  5333	055314	377400	056635
  5334	055315	777700	106016
  5335	055316	200 00 0 00 055313
  5336	055317	070 005 0000000
  5337	055320	670000	056175
  5338	055321	070 061 0000000
  5339	055322	377400	056635
  5340	055323	777700	106017
  5341	055324	200 00 0 00 055321
  5342	055325	070 005 0000000
  5343	055326	670000	056175
  5344	055327	070 061 0000000
  5345	055330	377400	056635
  5346	055331	777700	106020
  5347	055332	200 00 0 00 055327
  5348	055333	070 005 0000000
  5349	055334	670000	056175
  5350	055335	070 061 0000000
  5351	055336	377400	056635
  5352	055337	777700	106021
  5353	055340	200 00 0 00 055335
  5354	055341	070 005 0000000
  5355	055342	670000	056175
  5356	055343	070 061 0000000
  5357	055344	377400	056635
  5358	055345	777700	106022
  5359	055346	200 00 0 00 055343
  5360	055347	070 005 0000000
  5361	055350	670000	056175
  5362	055351	070 061 0000000
  5363	055352	377400	056635
  5364	055353	777700	106023
  5365	055354	200 00 0 00 055351
  5366	055355	070 005 0000000
  5367	055356	670000	056175
  5368	055357	070 061 0000000
  5369	055360	377400	056635
  5370	055361	777700	106024
  5371	055362	200 00 0 00 055357
  5372	055363	070 005 0000000
  5373	055364	670000	056175
  5374	055365	070 061 0000000
  5375	055366	377400	056635
  5376	055367	777700	106025
  5377	055370	200 00 0 00 055365
  5378	055371	070 005 0000000
  5379	055372	670000	056175
SA10 - DIAGNOSTIC FOR SYSTEMS CONCEPTS SA-10 IBM-TO-DEC SUBSYSTEM ADAPTOR	VER 1	MACRO %53B(1155)-2 14:34 14-Feb-86 Page 96-2
SA10N	MAC	17-Sep-74 22:01

  5380	055373	070 061 0000000
  5381	055374	377400	056635
  5382	055375	777700	106026
  5383	055376	200 00 0 00 055373
  5384	055377	070 005 0000000
  5385	055400	670000	056175
  5386	055401	070 061 0000000
  5387	055402	377400	056635
  5388	055403	777700	106027
  5389	055404	200 00 0 00 055401
  5390	055405	070 005 0000000
  5391	055406	670000	056175
  5392
  5393			000001			ZZ==1
  5394					REPEAT NRPT,<
  5395						BYTE (8)70,61
  5396						IOWC 4,BAFTD
  5397						IOW 1,[ZZ_34]
  5398						MOVE .-3
  5399						BYTE (8)70,6	;READ DATA
  5400						IOW 1100,BAFXBF
  5401						ZZ==ZZ+1
  5402						>
  5403	055407	070 061 0000000
  5404	055410	377400	056635
  5405	055411	777700	104743
  5406	055412	200 00 0 00 055407
  5407	055413	070 006 0000000
  5408	055414	670000	056415
  5409	055415	070 061 0000000
  5410	055416	377400	056635
  5411	055417	777700	106010
  5412	055420	200 00 0 00 055415
  5413	055421	070 006 0000000
  5414	055422	670000	056415
  5415	055423	070 061 0000000
  5416	055424	377400	056635
  5417	055425	777700	106011
  5418	055426	200 00 0 00 055423
  5419	055427	070 006 0000000
  5420	055430	670000	056415
  5421	055431	070 061 0000000
  5422	055432	377400	056635
  5423	055433	777700	106012
  5424	055434	200 00 0 00 055431
  5425	055435	070 006 0000000
  5426	055436	670000	056415
  5427	055437	070 061 0000000
  5428	055440	377400	056635
  5429	055441	777700	106013
  5430	055442	200 00 0 00 055437
  5431	055443	070 006 0000000
  5432	055444	670000	056415
  5433	055445	070 061 0000000
  5434	055446	377400	056635
SA10 - DIAGNOSTIC FOR SYSTEMS CONCEPTS SA-10 IBM-TO-DEC SUBSYSTEM ADAPTOR	VER 1	MACRO %53B(1155)-2 14:34 14-Feb-86 Page 96-3
SA10N	MAC	17-Sep-74 22:01

  5435	055447	777700	106014
  5436	055450	200 00 0 00 055445
  5437	055451	070 006 0000000
  5438	055452	670000	056415
  5439	055453	070 061 0000000
  5440	055454	377400	056635
  5441	055455	777700	106015
  5442	055456	200 00 0 00 055453
  5443	055457	070 006 0000000
  5444	055460	670000	056415
  5445	055461	070 061 0000000
  5446	055462	377400	056635
  5447	055463	777700	105621
  5448	055464	200 00 0 00 055461
  5449	055465	070 006 0000000
  5450	055466	670000	056415
  5451	055467	070 061 0000000
  5452	055470	377400	056635
  5453	055471	777700	106016
  5454	055472	200 00 0 00 055467
  5455	055473	070 006 0000000
  5456	055474	670000	056415
  5457	055475	070 061 0000000
  5458	055476	377400	056635
  5459	055477	777700	106017
  5460	055500	200 00 0 00 055475
  5461	055501	070 006 0000000
  5462	055502	670000	056415
  5463	055503	070 061 0000000
  5464	055504	377400	056635
  5465	055505	777700	106020
  5466	055506	200 00 0 00 055503
  5467	055507	070 006 0000000
  5468	055510	670000	056415
  5469	055511	070 061 0000000
  5470	055512	377400	056635
  5471	055513	777700	106021
  5472	055514	200 00 0 00 055511
  5473	055515	070 006 0000000
  5474	055516	670000	056415
  5475	055517	070 061 0000000
  5476	055520	377400	056635
  5477	055521	777700	106022
  5478	055522	200 00 0 00 055517
  5479	055523	070 006 0000000
  5480	055524	670000	056415
  5481	055525	070 061 0000000
  5482	055526	377400	056635
  5483	055527	777700	106023
  5484	055530	200 00 0 00 055525
  5485	055531	070 006 0000000
  5486	055532	670000	056415
  5487	055533	070 061 0000000
  5488	055534	377400	056635
  5489	055535	777700	106024
SA10 - DIAGNOSTIC FOR SYSTEMS CONCEPTS SA-10 IBM-TO-DEC SUBSYSTEM ADAPTOR	VER 1	MACRO %53B(1155)-2 14:34 14-Feb-86 Page 96-4
SA10N	MAC	17-Sep-74 22:01

  5490	055536	200 00 0 00 055533
  5491	055537	070 006 0000000
  5492	055540	670000	056415
  5493	055541	070 061 0000000
  5494	055542	377400	056635
  5495	055543	777700	106025
  5496	055544	200 00 0 00 055541
  5497	055545	070 006 0000000
  5498	055546	670000	056415
  5499	055547	070 061 0000000
  5500	055550	377400	056635
  5501	055551	777700	106026
  5502	055552	200 00 0 00 055547
  5503	055553	070 006 0000000
  5504	055554	670000	056415
  5505	055555	070 061 0000000
  5506	055556	377400	056635
  5507	055557	777700	106027
  5508	055560	200 00 0 00 055555
  5509	055561	070 006 0000000
  5510	055562	670000	056415
  5511
  5512	055563	000000	000000			0
  5513					XALL
SA10 - DIAGNOSTIC FOR SYSTEMS CONCEPTS SA-10 IBM-TO-DEC SUBSYSTEM ADAPTOR	VER 1	MACRO %53B(1155)-2 14:34 14-Feb-86 Page 97
SA10N	MAC	17-Sep-74 22:01

  5514	055564	260 17 0 00 055647 	WBAT:	PUSHJ P,IBAF0	;INITIALIZE BAF TABLE FOR 1ST BAT BLOCK
  5515	055565	260 17 0 00 055567 		PUSHJ P,WBAF	;WRITE IT OUT
  5516	055566	260 17 0 00 055650 		PUSHJ P,IBAF1	;INITIALIZE FOR 2ND BAT BLOCK
  5517	055567	201 02 0 00 000005 	WBAF:	MOVEI B,WRDATA	;WRITE DATA COMMAND
  5518	055570	260 17 0 00 055653 		PUSHJ P,RWBAF	;DO THE WRITE
  5519	055571	254 00 0 00 055573 		JRST WBAFE	;IF FAILED
  5520	055572	263 17 0 00 000000 		POPJ P,		;IF OK
  5521
  5522					WBAFE:	MOVEI C,[ASCIZ /CAN'T WRITE BAT BLOCKS ON DRIVE %G
  5523	055573	201 03 0 00 106030 	/]
  5524	055574	260 17 0 00 060373 		PUSHJ P,STYO
  5525	055575	254 00 0 00 044300 		JRST CI0	;REALLY BAD NEWS
  5526
  5527	055576	201 01 0 00 000002 	RBAF:	MOVEI A,BATBK0	;LBN OF 1ST BAT BLOCK
  5528	055577	201 02 0 00 000006 	RBAF0:	MOVEI B,RDDATA	;READ DATA COMMAND
  5529	055600	202 01 0 00 055772 		MOVEM A,RBAFV	;SAVE LBN
  5530	055601	402 00 0 00 055775 		SETZM BAF	;WIPE OUT KEY WORDS..
  5531	055602	200 00 0 00 106040 		MOVE [BAF,,BAF+1]
  5532	055603	251 00 0 00 056174 		BLT BAF+BLKSIZ-1
  5533	055604	260 17 0 00 055653 		PUSHJ P,RWBAF	;READ IN 1ST BAT BLOCK
  5534	055605	254 00 0 00 055625 		JRST RBAF3	;IF ERROR
  5535	055606	200 01 0 00 106041 		MOVE A,[SIXBIT /BAT/]
  5536	055607	201 02 0 00 606060 		MOVEI B,CODBAT
  5537	055610	316 01 0 00 055775 		CAMN A,BAF+BAFNAM
  5538	055611	312 02 0 00 056173 		CAME B,BAF+BAFCOD
  5539	055612	254 00 0 00 055625 		JRST RBAF3	;IF ERROR
  5540	055613	200 01 0 00 056174 		MOVE A,BAF+BAFSLF
  5541	055614	312 01 0 00 055772 		CAME A,RBAFV
  5542	055615	254 00 0 00 055625 		JRST RBAF3	;SELF POINTER WRONG
  5543	055616	402 00 0 00 104027 		SETZM BAFVHI#
  5544	055617	260 17 0 00 054320 		PUSHJ P,BATSU
  5545	055620	260 17 0 00 054337 		PUSHJ P,BATGET	;SCAN TABLE TO SET UP BAFVHI
  5546	055621	304 00 0 00 000000 		CAIA
  5547	055622	254 00 0 00 055620 		JRST .-2
  5548	055623	350 00 0 17 000000 	CPOPJ1:	AOS (P)		;SKIP RETURN
  5549	055624	263 17 0 00 000000 		POPJ P,
  5550
  5551	055625	201 01 0 00 000013 	RBAF3:	MOVEI A,BATBK1	;LBN OF 2ND BAT BLOCK
  5552	055626	312 01 0 00 055772 		CAME A,RBAFV	;HAVE WE TRIED IT ALREADY?
  5553	055627	254 00 0 00 055577 		JRST RBAF0	;NO, GIVE IT A CHANCE
  5554						MOVEI C,[ASCIZ /CAN'T READ GOOD BAT BLOCK ON DRIVE %G
  5555	055630	201 03 0 00 106042 	/]
  5556	055631	254 00 0 00 060373 		JRST STYO	;NON-SKIP RETURN
SA10 - DIAGNOSTIC FOR SYSTEMS CONCEPTS SA-10 IBM-TO-DEC SUBSYSTEM ADAPTOR	VER 1	MACRO %53B(1155)-2 14:34 14-Feb-86 Page 98
SA10N	MAC	17-Sep-74 22:01

  5557					;SUBROUTINE TO INITIALIZE BAF TABLE
  5558	055632	402 00 0 00 055775 	IBAF:	SETZM BAF	;FIRST CLEAR
  5559	055633	200 01 0 00 106040 		MOVE A,[BAF,,BAF+1]
  5560	055634	251 01 0 00 056174 		BLT A,BAF+BLKSIZ-1	;ENTIRE BLK
  5561	055635	200 01 0 00 106041 		MOVE A,[SIXBIT /BAT/]
  5562	055636	202 01 0 00 055775 		MOVEM A,BAF+BAFNAM
  5563	055637	200 01 0 00 106052 		MOVE A,[MBRMAX,,BAFREG]
  5564	055640	202 01 0 00 055776 		MOVEM A,BAF+BAFFIR
  5565	055641	200 01 0 00 060630 		MOVE A,SADEVA	;SA-10 DEVICE CODE
  5566	055642	242 01 0 00 000011 		LSH A,^D9
  5567	055643	202 01 0 00 055777 		MOVEM A,BAF+BAFNBS
  5568	055644	402 00 0 00 056000 		SETZM BAF+BAFCNT
  5569	055645	201 01 0 00 606060 		MOVEI A,CODBAT
  5570	055646	202 01 0 00 056173 		MOVEM A,BAF+BAFCOD
  5571	055647	334 01 0 00 106053 	IBAF0:	SKIPA A,[BATBK0]	;LBN OF 1ST BAT BLOCK
  5572	055650	201 01 0 00 000013 	IBAF1:	MOVEI A,BATBK1		;LBN OF 2ND BAT BLOCK
  5573	055651	202 01 0 00 056174 		MOVEM A,BAF+BAFSLF
  5574	055652	263 17 0 00 000000 		POPJ P,
  5575
  5576					;SUBROUTINE TO READ OR WRITE BAT BLOCK
  5577	055653	271 01 0 00 000001 	RWBAF:	ADDI A,1	;CONVERT BLOCK # TO RECORD #
  5578	055654	137 01 0 00 106054 		DPB A,[POINT 8,BAFPD2,23]
  5579	055655	137 02 0 00 106055 		DPB B,[POINT 8,BAFPG5,15]	;READ DATA OR WRITE DATA COMMAND
  5580	055656	200 01 0 00 060626 		MOVE A,IDEVA		;CONTROLLER ADDR
  5581	055657	271 01 0 07 000000 		ADDI A,(G)		;DRIVE #
  5582	055660	137 01 0 00 106056 		DPB A,[POINT 8,BAFPG1,23]
  5583	055661	137 01 0 00 106057 		DPB A,[POINT 8,BAFPG3,23]
  5584	055662	137 01 0 00 106060 		DPB A,[POINT 8,BAFPG5,23]
  5585	055663	201 01 0 00 055713 		MOVEI A,BAFPG1
  5586	055664	254 00 0 00 057047 		JRST SCHNX		;WILL SKIP FOR GOOD RETURN
SA10 - DIAGNOSTIC FOR SYSTEMS CONCEPTS SA-10 IBM-TO-DEC SUBSYSTEM ADAPTOR	VER 1	MACRO %53B(1155)-2 14:34 14-Feb-86 Page 99
SA10N	MAC	17-Sep-74 22:01

  5587					;SUBROUTINE TO DETERMINE IF DRIVE AVAILABLE -- SKIP-RETURNS IF IT IS
  5588	055665	200 01 0 00 060626 	DRAVL:	MOVE A,IDEVA
  5589	055666	271 01 0 07 000000 		ADDI A,(G)		;DRIVE DEVICE ADDRESS
  5590	055667	137 01 0 00 106061 		DPB A,[POINT 8,DRAVLP,23]
  5591	055670	137 01 0 00 106062 		DPB A,[POINT 8,DRAVLQ,23]
  5592	055671	137 01 0 00 106063 		DPB A,[POINT 8,DRAVLR,23]
  5593	055672	137 01 0 00 106064 		DPB A,[POINT 8,DRAVLS,23]
  5594	055673	201 01 0 00 055675 		MOVEI A,DRAVLP
  5595	055674	254 00 0 00 056734 		JRST SARUNX
  5596
  5597	055675	070 007 0000000 	DRAVLP:	BYTE (8)70,SEEK
  5598	055676	777200	055220			IOW 6,ZEROS^-6*100,,ZEROS^
  5599	055677	070 026 0000000 	DRAVLS:	BYTE (8)70,26
  5600	055700	776000	055707			IOW 20,DRVLD0^-20*100,,DRVLD0^
  5601	055701	070 061 0000000 	DRAVLQ:	BYTE (8)70,SCHIDE
  5602	055702	777300	055707			IOW 5,DRVLD0^-5*100,,DRVLD0^
  5603	055703	200000	055701			200000,,DRAVLQ
  5604	055704	050 005 0000000 	DRAVLR:	BYTE (8)50,WRDATA
  5605	055705	777000	055711			IOW 10,DRAVLD^-10*100,,DRAVLD^
  5606	055706	000000	000000			0
  5607
  5608	055707				DRVLD0:	BLOCK 2
  5609	055711				DRAVLD:	BLOCK 2
  5610					;CHAN PGM FOR RWBAF
  5611	055713	070 007 0000000 	BAFPG1:	BYTE (8)70,SEEK
  5612	055714	777200	055723			IOW 6,BAFPD1^-6*100,,BAFPD1^
  5613	055715	071 061 0000000 	BAFPG3:	BYTE (8)71,SCHIDE
  5614	055716	777300	055723			IOW 5,BAFPD1^-5*100,,BAFPD1^
  5615	055717	200000	055715			200000,,BAFPG3
  5616	055720	040 0000000000 		BAFPG5:	BYTE (8)40
  5617	055721	760000	055775			IOW 200,BAF^-200*100,,BAF^
  5618	055722	000000	000000			0
  5619
  5620	055723	000000	000000		BAFPD1:	0	;00CC
  5621	055724	000000	000000		BAFPD2:	0	;HHR0
  5622	055725				BAFWT:	BLOCK NPACKS
  5623	055765	000000	000000		BAFPAT:	0
  5624	055766	000000	000000		BAFCYL:	0
  5625	055767	000000	000000		BAFHED:	0
  5626	055770	000000	000000		BAFCT:	0
  5627	055771	000000	000000		BAFF:	0
  5628	055772	000000	000000		RBAFV:	0
  5629	055773	000000	000000		BAFMAX:	0
  5630	055774	000000	000000		BAFYV:	0
  5631	055775				BAF:	BLOCK BLKSIZ
  5632	056175				BAFDAT:	BLOCK 220
  5633	056415				FMZBF:
  5634	056415				BAFXBF:	BLOCK 220
  5635	056635	000000	000000		BAFTD:	0	;CCHH
  5636	056636	000000	000200			200
SA10 - DIAGNOSTIC FOR SYSTEMS CONCEPTS SA-10 IBM-TO-DEC SUBSYSTEM ADAPTOR	VER 1	MACRO %53B(1155)-2 14:34 14-Feb-86 Page 100
SA10N	MAC	17-Sep-74 22:01

  5637					;HERE TO DO SENSE, DEV ADR IN A
  5638	056637	265 00 0 00 057007 	SENSEX:	JSP SAGPSH
  5639	056640	260 17 0 00 056656 		PUSHJ P,SNSX0
  5640	056641	202 01 0 00 060131 		MOVEM A,STBUFS		;SAVE SENSE STATUS
  5641	056642	265 00 0 00 057025 		JSP SAGPOP
  5642	056643	263 17 0 00 000000 		POPJ P,
  5643
  5644	056644	261 17 0 00 106065 	ZRRBL:	PUSH P,[CI0]
  5645	056645	260 17 0 00 060667 		PUSHJ P,CSET
  5646	056646	335 01 0 00 044360 		SKIPGE A,PREARG
  5647	056647	135 01 0 00 106066 		LDB A,[DEVFLD,,SENSEP]
  5648	056650	260 17 0 00 056653 		PUSHJ P,RRBL
  5649	056651	254 00 0 00 057053 		JRST SCHNE
  5650	056652	254 00 0 00 057127 		JRST PSB
  5651
  5652	056653	137 01 0 00 106067 	RRBL:	DPB A,[DEVFLD,,RRBLP]
  5653	056654	201 01 0 00 060116 		MOVEI A,RRBLP
  5654	056655	254 00 0 00 056735 		JRST SARUN
  5655
  5656	056656	137 01 0 00 106066 	SNSX0:	DPB A,[DEVFLD,,SENSEP]	;STORE DEV ADR IN SENSE
  5657	056657	476 00 0 00 060121 		SETOM SENSED	;INIT SENSE BUFFER
  5658			000001		ZZ==1
  5659					REPEAT 5,<
  5660						SETZM SENSED+ZZ
  5661					ZZ==ZZ+1
  5662					>
  5663
  5664	056660	402 00 0 00 060122 		SETZM SENSED+ZZ
  5665			000002		ZZ==ZZ+1
  5666
  5667
  5668	056661	402 00 0 00 060123 		SETZM SENSED+ZZ
  5669			000003		ZZ==ZZ+1
  5670
  5671
  5672	056662	402 00 0 00 060124 		SETZM SENSED+ZZ
  5673			000004		ZZ==ZZ+1
  5674
  5675
  5676	056663	402 00 0 00 060125 		SETZM SENSED+ZZ
  5677			000005		ZZ==ZZ+1
  5678
  5679
  5680	056664	402 00 0 00 060126 		SETZM SENSED+ZZ
  5681			000006		ZZ==ZZ+1
  5682
  5683	056665	201 01 0 00 060113 		MOVEI A,SENSEP	;GET PROG ADR & FALL INTO SAGO
  5684
  5685					;RUN PROG UNTIL EXECUTED OR REJECTED
  5686	056666	542 01 1 00 060740 	SAGO:	HRRM A,@CBASE
  5687	056667	201 00 0 00 100000 		MOVEI 100000	;# STATUSES TO WADE THRU
  5688						MCONO SA0,CLMERR	^;CLEAR PREV MEM ERR
  5689	056670	201 15 0 00 200000 		MOVEI DD,CLMERR
  5690	056671	256 00 0 00 060621 		XCT DCONO
  5691	056672				SAGO1:	MCONO SA0,@STBSYC	^;START PROG
SA10 - DIAGNOSTIC FOR SYSTEMS CONCEPTS SA-10 IBM-TO-DEC SUBSYSTEM ADAPTOR	VER 1	MACRO %53B(1155)-2 14:34 14-Feb-86 Page 100-1
SA10N	MAC	17-Sep-74 22:01

  5692	056672	201 15 1 00 060743 		MOVEI DD,@STBSYC
  5693	056673	256 00 0 00 060621 		XCT DCONO
  5694	056674	260 17 0 00 056701 		PUSHJ P,SAGSTS		;WAIT FOR STATUS
  5695	056675	263 17 0 00 000000 		POPJ P,		;BAD ERROR
  5696	056676	607 01 0 00 121054 		TLNN A,121054	;PROG EXECUTED OR UNEXECUTABLE?
  5697	056677	367 00 0 00 056672 		SOJG SAGO1	;NO - KEEP TRYING A WHILE
  5698	056700	263 17 0 00 000000 		POPJ P,
  5699
  5700					;WAIT FOR STATUS
  5701	056701	260 17 0 00 056727 	SAGSTS:	PUSHJ P,SACLST
  5702	056702	256 00 0 00 060622 		XCT DCONI
  5703	056703	607 15 0 00 000001 		TLNN DD,1
  5704	056704	254 00 0 00 056717 		JRST SAGSTE	;NO SA10
  5705	056705	205 01 0 00 000001 		MOVSI A,1	;SET UP TIMEOUT
  5706	056706	256 00 0 00 060622 	SAGST1:	MCONSZ SA0,PARERR!NXM^	XCT DCONI
  5707	056707	602 15 0 00 300000 		TRNE DD,PARERR!NXM
  5708	056710	254 00 0 00 056717 		JRST SAGSTE	;MEM ERR - GIVE ERR RET
  5709	056711	256 00 0 00 060622 		MCONSO SA0,@STFLG^	XCT DCONI
  5710	056712	606 15 1 00 060750 		TRNN DD,@STFLG
  5711	056713	367 01 0 00 056706 		SOJG A,SAGST1
  5712						MCONSO SA0,PARERR!NXM	^;GOT STAT - CHECK ONCE MORE FOR MEM ERR
  5713	056714	256 00 0 00 060622 		XCT DCONI
  5714	056715	606 15 0 00 300000 		TRNN DD,PARERR!NXM
  5715	056716	326 01 0 00 056724 		JUMPN A,SAGST2
  5716	056717				SAGSTE:	MCONI SA0,A	^;ERR - GET CONI
  5717	056717	256 00 0 00 060622 		XCT DCONI
  5718	056720	202 15 0 00 000001 		MOVEM DD,A
  5719	056721	405 01 0 00 777770 		ANDI A,-10	;CLEAR USELESS BITS
  5720	056722	505 01 0 00 010000 		HRLI A,10000	;FLAG PSEUDO-STATUS
  5721	056723	263 17 0 00 000000 		POPJ P,
  5722
  5723	056724	200 01 1 00 060741 	SAGST2:	MOVE A,@CBASE+1	;NO MEM ERR, NO TIMEOUT - GET STAT
  5724	056725	620 01 0 00 007777 		TRZ A,7777	;MAKE SURE NO GARBAGE HERE
  5725	056726	254 00 0 00 055623 		JRST CPOPJ1
  5726
  5727	056727	402 00 1 00 060741 	SACLST:	SETZM @CBASE+1	;CLEAR OLD STATUS
  5728	056730	402 00 1 00 060742 		SETZM @CBASE+2
  5729						MCONO SA0,@CLSTFC	^;CLEAR STATUS FLAG (EXPECTED ON HERE)
  5730	056731	201 15 1 00 060744 		MOVEI DD,@CLSTFC
  5731	056732	256 00 0 00 060621 		XCT DCONO
  5732	056733	263 17 0 00 000000 		POPJ P,
SA10 - DIAGNOSTIC FOR SYSTEMS CONCEPTS SA-10 IBM-TO-DEC SUBSYSTEM ADAPTOR	VER 1	MACRO %53B(1155)-2 14:34 14-Feb-86 Page 101
SA10N	MAC	17-Sep-74 22:01

  5733					;RUN PROG, DO SENSE IF ERR, FILTER OUT STATISTICS IF A0=1
  5734	056734	505 01 0 00 600000 	SARUNX:	HRLI A,600000	;SET "IGNORE STAT" & "FORCE SENSE"
  5735	056735	202 01 0 00 104041 	SARUN:	MOVEM A,SARPA#	;SAVE PROG ADR
  5736	056736	265 00 0 00 057007 		JSP SAGPSH
  5737	056737	260 17 0 00 056666 	SARUN0:	PUSHJ P,SAGO	;RUN PROG
  5738	056740	202 01 0 00 060127 		MOVEM A,STBUF	;SAVE STAT
  5739	056741	200 00 1 00 060742 		MOVE @CBASE+2
  5740	056742	202 00 0 00 060130 		MOVEM STBUF2	;& SECOND STAT
  5741	056743	607 01 0 00 010040 		TLNN A,10040
  5742	056744	254 00 0 00 056754 		JRST SARUNS	;REAL STAT W/O CHN END - DO SENSE
  5743	056745	603 01 0 00 010000 		TLNE A,10000
  5744	056746	254 00 0 00 057003 		JRST SARNLZ	;DON'T SENSE IF MEM ERR OR TIMEOUT
  5745	056747	200 00 0 00 104041 		MOVE SARPA
  5746	056750	603 01 0 00 000010 		TLNE A,10
  5747	056751	254 00 0 00 056754 		JRST SARUNS
  5748	056752	607 00 0 00 200000 		TLNN 200000
  5749	056753	254 00 0 00 057001 		JRST SARNOK	;NO SENSE DESIRED
  5750	056754	242 01 0 00 777764 	SARUNS:	LSH A,-14	;ADJUST DEV ADR
  5751	056755	260 17 0 00 056656 		PUSHJ P,SNSX0	;DO SENSE
  5752	056756	202 01 0 00 060131 		MOVEM A,STBUFS	;SAVE SENSE STAT
  5753	056757	554 00 0 00 000001 		HLRZ A
  5754	056760	405 00 0 00 177774 		ANDI 177774	;GET STAT BITS
  5755	056761	200 01 0 00 060127 		MOVE A,STBUF	;GET STAT FROM OP
  5756	056762	660 01 0 00 000001 		TRO A,1		;FLAG SENSE DONE
  5757	056763	335 00 0 00 104041 		SKIPGE SARPA	;IF NOT IGNORE STATISTICS MODE
  5758	056764	302 00 0 00 000060 		CAIE 60		;OR BAD STAT FROM SENSE
  5759	056765	254 00 0 00 056775 		JRST SARXIT	;GIVE ERR RET
  5760	056766	554 00 0 00 000001 		HLRZ A
  5761	056767	405 00 0 00 173774 		ANDI 173774	;GET OLD STAT BITS
  5762	056770	302 00 0 00 000010 		CAIE 10
  5763	056771	254 00 0 00 056775 		JRST SARXIT	;NOT SIMPLE INIT UNIT CHK, GIVE ERR RET
  5764	056772	135 00 0 00 106070 		LDB [POINT 24,SENSED,23]	;GET SENSE BYTES 0-2
  5765	056773	306 00 0 00 000020 		CAIN 20		;IF JUST ENVIRONMENTAL DATA
  5766	056774	254 00 0 00 057005 		JRST SARUNR	;RETRY PROG
  5767	056775	607 01 0 00 173314 	SARXIT:	TLNN A,173314	;IF NO ERRS
  5768	056776	350 00 0 17 777775 		AOS -3(P)	;GIVE GOOD RET
  5769	056777	265 00 0 00 057025 		JSP SAGPOP
  5770	057000	263 17 0 00 000000 		POPJ P,		;& EXIT
  5771
  5772	057001	402 00 0 00 060121 	SARNOK:	SETZM SENSED
  5773	057002	603 01 0 00 173314 		TLNE A,173314	;IF ANY ERRS
  5774	057003	476 00 0 00 060121 	SARNLZ:	SETOM SENSED	;MAKE SENSE LOOK BAD
  5775	057004	254 00 0 00 056775 		JRST SARXIT	;GO RESTORE THINGS
  5776
  5777	057005	200 01 0 00 104041 	SARUNR:	MOVE A,SARPA	;ENVIRONMENTAL DATA - GET START ADR
  5778	057006	254 00 0 00 056737 		JRST SARUN0	;& TRY AGAIN
  5779
  5780	057007	261 17 1 00 060740 	SAGPSH:	PUSH P,@CBASE
  5781	057010	261 17 0 00 000000 		PUSH P,0
  5782	057011	205 00 0 00 200000 		MOVSI 200000
  5783	057012	202 00 1 00 060740 		MOVEM @CBASE
  5784	057013	201 15 1 00 060746 		MCONO SA0,@STSRQC^	MOVEI DD,@STSRQC
  5785	057014	256 00 0 00 060621 		XCT DCONO
  5786	057015	201 00 0 00 001000 		MOVEI 1000
  5787	057016	256 00 0 00 060622 	SAGPS1:	MCONSO SA0,@STFLG^	XCT DCONI
SA10 - DIAGNOSTIC FOR SYSTEMS CONCEPTS SA-10 IBM-TO-DEC SUBSYSTEM ADAPTOR	VER 1	MACRO %53B(1155)-2 14:34 14-Feb-86 Page 101-1
SA10N	MAC	17-Sep-74 22:01

  5788	057017	606 15 1 00 060750 		TRNN DD,@STFLG
  5789	057020	367 00 0 00 057016 		SOJG SAGPS1
  5790	057021	200 00 1 00 060741 		MOVE @CBASE+1
  5791	057022	250 00 0 17 000000 		EXCH (P)
  5792	057023	261 17 1 00 060742 		PUSH P,@CBASE+2
  5793	057024	254 00 1 00 000000 		JRST @0
  5794
  5795	057025	262 17 1 00 060742 	SAGPOP:	POP P,@CBASE+2
  5796	057026	250 00 0 17 000000 		EXCH (P)
  5797	057027	641 00 0 00 600000 		TLC 600000
  5798	057030	643 00 0 00 600000 		TLCE 600000
  5799	057031	254 00 0 00 057043 		JRST SAGPP2
  5800	057032	402 00 1 00 060741 		SETZM @CBASE+1
  5801	057033	402 00 1 00 060742 		SETZM @CBASE+2
  5802	057034	262 17 0 00 000000 		POP P,0
  5803	057035	262 17 1 00 060740 		POP P,@CBASE
  5804	057036	201 15 1 00 060744 		MCONO SA0,@CLSTFC^	MOVEI DD,@CLSTFC
  5805	057037	256 00 0 00 060621 		XCT DCONO
  5806	057040	254 00 1 00 000000 		JRST @0
  5807
  5808	057041	201 15 1 00 060744 		MCONO SA0,@CLSTFC^	MOVEI DD,@CLSTFC
  5809	057042	256 00 0 00 060621 		XCT DCONO
  5810	057043	202 00 1 00 060741 	SAGPP2:	MOVEM @CBASE+1
  5811	057044	262 17 0 00 000000 		POP P,0
  5812	057045	262 17 1 00 060740 		POP P,@CBASE
  5813	057046	254 00 1 00 000000 		JRST @0
SA10 - DIAGNOSTIC FOR SYSTEMS CONCEPTS SA-10 IBM-TO-DEC SUBSYSTEM ADAPTOR	VER 1	MACRO %53B(1155)-2 14:34 14-Feb-86 Page 102
SA10N	MAC	17-Sep-74 22:01

  5814					;RUN PROG, PRINT SENSE DATA IF ERR
  5815	057047	505 01 0 00 600000 	SCHNX:	HRLI A,600000	;ENTER HERE TO IGNORE STATS & FORCE SENSE
  5816	057050	260 17 0 00 056735 	SCHN:	PUSHJ P,SARUN	;RUN PROG
  5817	057051	304 00 0 00 000000 		CAIA
  5818	057052	254 00 0 00 055623 		JRST CPOPJ1	;NO ERR - GIVE GOOD RET
  5819	057053				SCHNE:	MOVEI C,[ASCIZ /
  5820					 !!! ERROR !!!
  5821	057053	201 03 0 00 106071 	/]
  5822	057054	260 17 0 00 060373 		PUSHJ P,STYO
  5823	057055	260 17 0 00 057064 		PUSHJ P,PSTAT	;PRINT STATUS
  5824	057056	200 04 0 00 060130 		MOVE D,STBUF2
  5825						MOVEI C,[ASCIZ /SW2=%D
  5826	057057	201 03 0 00 106075 	/]
  5827	057060	606 01 0 00 000001 		TRNN A,1
  5828	057061	254 00 0 00 060373 		JRST STYO
  5829	057062	260 17 0 00 060373 		PUSHJ P,STYO
  5830	057063	254 00 0 00 057120 		JRST PSD	;PRINT SENSE DATA ALSO
  5831
  5832					;PRINT STATUS (A), PRESERVES A
  5833	057064	261 17 0 00 000001 	PSTAT:	PUSH P,A
  5834	057065	242 01 0 00 777736 		LSH A,-42
  5835	057066	200 03 0 01 050015 		MOVE C,STTT(A)
  5836	057067	260 17 0 00 060373 		PUSHJ P,STYO
  5837	057070	200 01 0 17 000000 		MOVE A,(P)
  5838	057071	201 03 0 00 106077 		MOVEI C,[ASCIZ / STATUS/]
  5839	057072	260 17 0 00 060373 		PUSHJ P,STYO
  5840	057073	200 01 0 17 000000 		MOVE A,(P)
  5841	057074	603 01 0 00 010000 		TLNE A,10000
  5842	057075	254 00 0 00 057110 		JRST PSMER
  5843	057076	135 04 0 00 104173 		LDB D,[DEVFLD,,A]
  5844	057077	201 03 0 00 106101 		MOVEI C,[ASCIZ /, DEVICE %D =/]
  5845	057100	260 17 0 00 060373 		PUSHJ P,STYO
  5846	057101	554 05 0 17 000000 		HLRZ E,(P)
  5847	057102	405 05 0 00 177774 		ANDI E,177774
  5848	057103	201 04 0 00 047470 		MOVEI D,STAMSG-2
  5849	057104	260 17 0 00 047433 	PSTAT2:	PUSHJ P,PBITS
  5850	057105	260 17 0 00 060372 		PUSHJ P,CR
  5851	057106	262 17 0 00 000001 	POPAJ:	POP P,A
  5852	057107	263 17 0 00 000000 		POPJ P,
  5853
  5854	057110	201 02 0 00 000075 	PSMER:	MOVEI B,"="
  5855	057111	260 17 0 00 060444 		PUSHJ P,TYO
  5856	057112	405 01 0 00 300000 		ANDI A,PARERR!NXM
  5857	057113	200 05 0 00 000001 		MOVE E,A
  5858	057114	201 04 0 00 057077 		MOVEI D,MEBITS-17
  5859	057115	254 00 0 00 057104 		JRST PSTAT2
  5860
  5861	057116	000000	106104		MEBITS:	[ASCIZ /NXM/]
  5862	057117	000000	106105			[ASCIZ /PARERR/]
SA10 - DIAGNOSTIC FOR SYSTEMS CONCEPTS SA-10 IBM-TO-DEC SUBSYSTEM ADAPTOR	VER 1	MACRO %53B(1155)-2 14:34 14-Feb-86 Page 103
SA10N	MAC	17-Sep-74 22:01

  5863	057120	260 17 0 00 057127 	PSD:	PUSHJ P,PSB
  5864	057121	200 05 0 00 060121 		MOVE E,SENSED
  5865	057122	342 05 0 00 060372 		AOJE E,CR
  5866	057123	242 05 0 00 777744 		LSH E,-34
  5867	057124	201 04 0 00 047462 		MOVEI D,SNS2MS
  5868	057125	260 17 0 00 047433 		PUSHJ P,PBITS
  5869	057126	254 00 0 00 060372 		JRST CR
  5870
  5871	057127	260 17 0 00 060372 	PSB:	PUSHJ P,CR
  5872	057130	200 06 0 00 060121 		MOVE	F,SENSED
  5873						AOJE	F,[HRROI C,[ASCIZ \MISSING
  5874					\]
  5875	057131	342 06 0 00 106107 		 	JRST	STYO]
  5876	057132	260 17 0 00 060372 		PUSHJ	P,CR
  5877	057133	200 06 0 00 106111 		MOVE F,[440400,,SENSED]
  5878	057134	201 04 0 00 000006 		MOVEI D,6
  5879	057135	201 05 0 00 000010 	PS0:	MOVEI E,^D8
  5880	057136	134 02 0 00 000006 	PS1:	ILDB B,F
  5881	057137	303 02 0 00 000011 		CAILE B,^D9
  5882	057140	271 02 0 00 000007 		ADDI B,"A"-"0"-^D10
  5883	057141	271 02 0 00 000060 		ADDI B,"0"
  5884	057142	260 17 0 00 060444 		PUSHJ P,TYO
  5885	057143	201 02 0 00 000040 		MOVEI B,40
  5886	057144	603 06 0 00 040000 		TLNE F,40000
  5887	057145	260 17 0 00 060444 		PUSHJ P,TYO
  5888	057146	367 05 0 00 057136 		SOJG E,PS1
  5889	057147	260 17 0 00 060444 		PUSHJ P,TYO
  5890	057150	133 00 0 00 000006 		IBP F
  5891	057151	602 04 0 00 000001 		TRNE D,1
  5892	057152	260 17 0 00 060372 		PUSHJ P,CR
  5893	057153	367 04 0 00 057135 		SOJG D,PS0
  5894	057154	263 17 0 00 000000 		POPJ P,
  5895
  5896	057155	260 17 0 00 057127 	PS:	PUSHJ P,PSB
  5897	057156	254 00 0 00 052727*		JRST DDT
SA10 - DIAGNOSTIC FOR SYSTEMS CONCEPTS SA-10 IBM-TO-DEC SUBSYSTEM ADAPTOR	VER 1	MACRO %53B(1155)-2 14:34 14-Feb-86 Page 104
SA10N	MAC	17-Sep-74 22:01

  5898			000016		PDEV==16	;DEFAULT PRINTER DEVICE CODE
  5899			000204		PBUFLB==^D132	;NUMBER CHARS PER LINE
  5900			000041		PBUFL==PBUFLB/4	;WORDS OF PRINT BUFFER
  5901			000360		UCBLB==^D240	;NUMBER OF LOGICAL CHARS ON CHAIN
  5902			000074		UCBL==UCBLB/4	;WORDS FOR UCB BUFFER
  5903
  5904					DEFINE UCS2 (A,B,C,D)
  5905					<BYTE (8)"A","B","C","D">
  5906
  5907					DEFINE UCS1 (AA,BB,CC)
  5908					<UCS2 1,2,3,4
  5909					UCS2 5,6,7,8
  5910					UCS2 9,0,X,Y
  5911					UCS2 /,S,T,U
  5912					BYTE (8)"V","W",AA,BB
  5913					BYTE (8)CC,"*",",","="
  5914					UCS2 J,K,L,M
  5915					UCS2 N,O,P,Q
  5916					UCS2 R,-,Z,<(>
  5917					UCS2 A,B,C,D
  5918					UCS2 E,F,G,H
  5919					UCS2 I,+,.,<)>
  5920					>
  5921
  5922						SALL
  5923	057157	061 062 063 064 00 	UCB:	UCS1 137,42,"$"
  5924	057160	065 066 067 070 00
  5925	057161	071 060 130 131 00
  5926	057162	057 123 124 125 00
  5927	057163	126 127 137 042 00
  5928	057164	044 052 054 075 00
  5929	057165	112 113 114 115 00
  5930	057166	116 117 120 121 00
  5931	057167	122 055 132 050 00
  5932	057170	101 102 103 104 00
  5933	057171	105 106 107 110 00
  5934	057172	111 053 056 051 00
  5935	057173	061 062 063 064 00 		UCS1 74,73,"#"
  5936	057174	065 066 067 070 00
  5937	057175	071 060 130 131 00
  5938	057176	057 123 124 125 00
  5939	057177	126 127 074 073 00
  5940	057200	043 052 054 075 00
  5941	057201	112 113 114 115 00
  5942	057202	116 117 120 121 00
  5943	057203	122 055 132 050 00
  5944	057204	101 102 103 104 00
  5945	057205	105 106 107 110 00
  5946	057206	111 053 056 051 00
  5947	057207	061 062 063 064 00 		UCS1 "?",76,40
  5948	057210	065 066 067 070 00
  5949	057211	071 060 130 131 00
  5950	057212	057 123 124 125 00
  5951	057213	126 127 077 076 00
  5952	057214	040 052 054 075 00
SA10 - DIAGNOSTIC FOR SYSTEMS CONCEPTS SA-10 IBM-TO-DEC SUBSYSTEM ADAPTOR	VER 1	MACRO %53B(1155)-2 14:34 14-Feb-86 Page 104-1
SA10N	MAC	17-Sep-74 22:01

  5953	057215	112 113 114 115 00
  5954	057216	116 117 120 121 00
  5955	057217	122 055 132 050 00
  5956	057220	101 102 103 104 00
  5957	057221	105 106 107 110 00
  5958	057222	111 053 056 051 00
  5959	057223	061 062 063 064 00 		UCS1 "]","'","&"
  5960	057224	065 066 067 070 00
  5961	057225	071 060 130 131 00
  5962	057226	057 123 124 125 00
  5963	057227	126 127 135 047 00
  5964	057230	046 052 054 075 00
  5965	057231	112 113 114 115 00
  5966	057232	116 117 120 121 00
  5967	057233	122 055 132 050 00
  5968	057234	101 102 103 104 00
  5969	057235	105 106 107 110 00
  5970	057236	111 053 056 051 00
  5971	057237	061 062 063 064 00 		UCS1 "[",":","%"
  5972	057240	065 066 067 070 00
  5973	057241	071 060 130 131 00
  5974	057242	057 123 124 125 00
  5975	057243	126 127 133 072 00
  5976	057244	045 052 054 075 00
  5977	057245	112 113 114 115 00
  5978	057246	116 117 120 121 00
  5979	057247	122 055 132 050 00
  5980	057250	101 102 103 104 00
  5981	057251	105 106 107 110 00
  5982	057252	111 053 056 051 00
  5983	057253	061 062 063 064 00 	UCBE:	UCS1 137,42,"$"
  5984	057254	065 066 067 070 00
  5985	057255	071 060 130 131 00
  5986	057256	057 123 124 125 00
  5987	057257	126 127 137 042 00
  5988	057260	044 052 054 075 00
  5989	057261	112 113 114 115 00
  5990	057262	116 117 120 121 00
  5991	057263	122 055 132 050 00
  5992	057264	101 102 103 104 00
  5993	057265	105 106 107 110 00
  5994	057266	111 053 056 051 00
  5995
  5996
  5997	057267	101 102 103 104 00 	PAT0:	UCS2 A,B,C,D
  5998	057270	105 106 107 110 00 		UCS2 E,F,G,H
  5999	057271	111 112 113 114 00 		UCS2 I,J,K,L
  6000	057272	115 116 117 120 00 		UCS2 M,N,O,P
  6001	057273	121 122 123 124 00 		UCS2 Q,R,S,T
  6002	057274	125 126 127 130 00 		UCS2 U,V,W,X
  6003	057275	131 132 060 061 00 		UCS2 Y,Z,0,1
  6004	057276	062 063 064 065 00 		UCS2 2,3,4,5
  6005	057277	066 067 070 071 00 		UCS2 6,7,8,9
  6006	057300	057 052 054 075 00 		BYTE (8)"/","*",",","="
  6007	057301	055 050 053 056 00 		BYTE (8)"-","(","+","."
SA10 - DIAGNOSTIC FOR SYSTEMS CONCEPTS SA-10 IBM-TO-DEC SUBSYSTEM ADAPTOR	VER 1	MACRO %53B(1155)-2 14:34 14-Feb-86 Page 104-2
SA10N	MAC	17-Sep-74 22:01

  6008	057302	051 137 042 044 00 		BYTE (8)")",137,42,"$"
  6009	057303	074 073 043 077 00 		BYTE (8)74,73,"#","?"
  6010	057304	076 040 135 047 00 		BYTE (8)76,40,"]","'"
  6011	057305	046 133 072 045 00 		BYTE (8)"&","[",":","%"
  6012
  6013					;48 HN
  6014	057306	301 302 303 304 00 	PAT1:	BYTE (8)301,302,303,304
  6015	057307	305 306 307 310 00 		BYTE (8)305,306,307,310
  6016	057310	311 321 322 323 00 		BYTE (8)311,321,322,323
  6017	057311	324 325 326 327 00 		BYTE (8)324,325,326,327
  6018	057312	330 331 342 343 00 		BYTE (8)330,331,342,343
  6019	057313	344 345 346 347 00 		BYTE (8)344,345,346,347
  6020	057314	350 351 360 361 00 		BYTE (8)350,351,360,361
  6021	057315	362 363 364 365 00 		BYTE (8)362,363,364,365
  6022	057316	366 367 370 371 00 		BYTE (8)366,367,370,371
  6023	057317	141 134 153 176 00 		BYTE (8)141,134,153,176
  6024	057320	140 115 116 113 00 		BYTE (8)140,115,116,113
  6025	057321	135 175 120 133 00 		BYTE (8)135,175,120,133
  6026						XALL
SA10 - DIAGNOSTIC FOR SYSTEMS CONCEPTS SA-10 IBM-TO-DEC SUBSYSTEM ADAPTOR	VER 1	MACRO %53B(1155)-2 14:34 14-Feb-86 Page 105
SA10N	MAC	17-Sep-74 22:01

  6027	057322				PBUF:	BLOCK PBUFL
  6028	057363				PBUFE:
  6029
  6030	057363	200 07 0 00 057501 	RIP0:	MOVE G,PTSTV	;MODE
  6031	057364	350 03 0 00 057477 		AOS C,PPOS
  6032	057365	200 02 0 00 106112 		MOVE B,[441000,,PBUF]
  6033	057366	200 01 0 00 057501 		MOVE A,PTSTV	;MODE
  6034	057367	405 01 0 00 000377 		ANDI A,377
  6035	057370	301 01 0 00 000003 		CAIL A,3
  6036	057371	254 00 0 00 057415 		JRST RIP2
  6037	057372	367 01 0 00 057421 		SOJG A,RIP3
  6038	057373	201 04 0 00 000060 		MOVEI D,^D48
  6039	057374	602 07 0 00 000400 		TRNE G,400
  6040	057375	254 00 0 00 057401 		JRST RIP1	;IF 48-CHAR CHAIN
  6041	057376	201 04 0 00 000055 		MOVEI D,^D45
  6042	057377	331 00 0 00 000001 		SKIPL A
  6043	057400	201 04 0 00 000074 		MOVEI D,^D60
  6044	057401	350 05 0 00 000003 	RIP1:	AOS E,C
  6045	057402	230 05 0 00 000004 		IDIV E,D
  6046	057403	241 06 0 00 777776 		ROT F,-2
  6047	057404	200 05 0 06 057267 		MOVE E,PAT0(F)
  6048	057405	602 07 0 00 000400 		TRNE G,400
  6049	057406	200 05 0 06 057306 		MOVE E,PAT1(F)	;IF 48-CHAR CHAIN
  6050	057407	242 06 0 00 777741 		LSH F,-^D31
  6051	057410	242 05 0 06 777744 		LSH E,-^D28(F)
  6052	057411	136 05 0 00 000002 		IDPB E,B
  6053	057412	312 02 0 00 106113 		CAME B,[041000,,PBUFE-1]
  6054	057413	254 00 0 00 057401 		JRST RIP1
  6055	057414	263 17 0 00 000000 		POPJ P,
  6056
  6057	057415	136 01 0 00 000002 	RIP2:	IDPB A,B
  6058	057416	312 02 0 00 106113 		CAME B,[041000,,PBUFE-1]
  6059	057417	254 00 0 00 057415 		JRST RIP2
  6060	057420	263 17 0 00 000000 		POPJ P,
  6061
  6062	057421	221 03 0 00 000043 	RIP3:	IMULI C,43
  6063	057422	201 07 0 00 000003 	RIP3A:	MOVEI G,3
  6064	057423	350 05 0 00 000003 	RIP4:	AOS E,C
  6065	057424	231 05 0 00 000440 		IDIVI E,^D288
  6066	057425	241 06 0 00 777776 		ROT F,-2
  6067	057426	200 05 0 06 057157 		MOVE E,UCB(F)
  6068	057427	242 06 0 00 777741 		LSH F,-^D31
  6069	057430	242 05 0 06 777744 		LSH E,-^D28(F)
  6070	057431	136 05 0 00 000002 		IDPB E,B
  6071	057432	367 07 0 00 057423 		SOJG G,RIP4
  6072	057433	312 02 0 00 106113 		CAME B,[041000,,PBUFE-1]
  6073	057434	364 03 0 00 057422 		SOJA C,RIP3A
  6074	057435	263 17 0 00 000000 		POPJ P,
SA10 - DIAGNOSTIC FOR SYSTEMS CONCEPTS SA-10 IBM-TO-DEC SUBSYSTEM ADAPTOR	VER 1	MACRO %53B(1155)-2 14:34 14-Feb-86 Page 106
SA10N	MAC	17-Sep-74 22:01

  6075	057436	260 17 0 00 060667 	PTST:	PUSHJ P,CSET	;CHAN # IN A
  6076	057437	331 01 0 00 044360 		SKIPL A,PREARG
  6077	057440	202 01 0 00 057500 		MOVEM A,PDEVA	;DEV ADDR
  6078	057441	331 01 0 00 044361 		SKIPL A,P2ARG	;1ST OF 3 ARGS
  6079	057442	202 01 0 00 057501 		MOVEM A,PTSTV	;IS MODE
  6080	057443	200 01 0 00 057500 		MOVE A,PDEVA
  6081	057444	137 01 0 00 106114 		DPB A,[141000,,PRTI]	;PUT IN CHAN PGM
  6082	057445	137 01 0 00 106115 		DPB A,[141000,,PRTI2]
  6083	057446	137 01 0 00 106116 		DPB A,[141000,,PRTI3]
  6084	057447	137 01 0 00 106117 		DPB A,[141000,,PRGO]
  6085	057450	137 01 0 00 106120 		DPB A,[141000,,PRGO1]
  6086	057451	201 01 0 00 000400 		MOVEI A,400
  6087	057452	612 01 0 00 057501 		TDNE A,PTSTV
  6088	057453	254 00 0 00 057457 		JRST PTST1	;IF NOT UCS
  6089	057454	201 01 0 00 057466 		MOVEI A,PRTI
  6090	057455	260 17 0 00 057050 		PUSHJ P,SCHN
  6091	057456	254 00 0 00 057156*		JRST DDT
  6092	057457	260 17 0 00 057363 	PTST1:	PUSHJ P,RIP0
  6093	057460	201 01 0 00 057473 		MOVEI A,PRGO
  6094	057461	260 17 0 00 057050 		PUSHJ P,SCHN
  6095	057462	254 00 0 00 057456*		JRST DDT
  6096	057463	260 17 0 00 052642 		PUSHJ P,CHKCNC
  6097	057464	263 17 0 00 000000 		POPJ P,
  6098	057465	254 00 0 00 057457 		JRST PTST1	;KEEP GOING UNTIL CHAR STRUCK
  6099
  6100	057466	260 353 016 0000 	PRTI:	BYTE (8)260,353,PDEV
  6101	057467	070 373 016 0000 	PRTI2:	BYTE (8)70,373,PDEV
  6102	057470	742000	057157			IOW (360,UCB)^-360*100,,UCB^
  6103	057471	240 003 016 0000 	PRTI3:	BYTE (8)240,3,PDEV
  6104	057472	000000	000000		PRTIE:	0
  6105	057473	070 011 016 0000 	PRGO:	BYTE (8)70,11,PDEV
  6106	057474	757400	057322			IOW (PBUFLB,PBUF)^-PBUFLB*100,,PBUF^
  6107	057475	240 003 016 0000 	PRGO1:	BYTE (8)240,3,PDEV
  6108	057476	000000	000000		PRGOE:	0
  6109	057477	000000	000000		PPOS:	0
  6110	057500	000000	000016		PDEVA:	PDEV
  6111	057501	000000	000000		PTSTV:	0
SA10 - DIAGNOSTIC FOR SYSTEMS CONCEPTS SA-10 IBM-TO-DEC SUBSYSTEM ADAPTOR	VER 1	MACRO %53B(1155)-2 14:34 14-Feb-86 Page 107
SA10N	MAC	17-Sep-74 22:01

  6112	057502	476 00 0 00 060061 	QTT:	SETOM TAPF		;FOR ERROR ROUTINE
  6113	057503	402 00 0 00 060102 		SETZM RECDNO		;CLEAR COUNTERS
  6114	057504	402 00 0 00 060103 		SETZM REWNO		; OF RECORDS, REWINDS, WRITE ERRS
  6115	057505	402 00 0 00 060104 		SETZM WERRNO		; ..
  6116	057506	260 17 0 00 060667 		PUSHJ P,CSET	;CHAN # IN A
  6117	057507	331 01 0 00 044360 		SKIPL A,PREARG
  6118	057510	202 01 0 00 057750 		MOVEM A,TDEV	;DEV ADDR
  6119	057511				QTT0:	MCONO SA0,RSTSA	^;RESET, START CLOCK
  6120	057511	201 15 0 00 400000 		MOVEI DD,RSTSA
  6121	057512	256 00 0 00 060621 		XCT DCONO
  6122	057513	211 01 0 00 023420 		MOVNI A,^D10000
  6123	057514	341 01 0 00 057514 		AOJL A,.	;DELAY A BIT AFTER RESET
  6124	057515	403 11 0 00 000013 		SETZB I,K	;START AT REC 0
  6125	057516	200 01 0 00 057750 		MOVE A,TDEV	;SET DEVICE NUMBER OF TAPE ON IBM BUS
  6126	057517	137 01 0 00 106121 		DPB A,[DEVFLD,,TREW]
  6127	057520	137 01 0 00 106122 		DPB A,[DEVFLD,,TERG]
  6128	057521	137 01 0 00 106123 		DPB A,[DEVFLD,,TCP0]	;SET CHANNEL PGM FOR PROPER DEV
  6129	057522	137 01 0 00 106124 		DPB A,[DEVFLD,,TCP0W]
  6130	057523	137 01 0 00 106125 		DPB A,[DEVFLD,,TCP1]
  6131	057524	137 01 0 00 106126 		DPB A,[DEVFLD,,TCP2]
  6132	057525	210 01 0 00 057751 		MOVN A,KTRECL		;MINUS LENGTH OF RECORD
  6133	057526	271 01 0 00 000007 		ADDI A,7
  6134					IFLE CV,<
  6135						ASH A,2>		;SIXTEEN BIT WD CT
  6136					IFG CV,<
  6137	057527	240 01 0 00 000006 		ASH A,6>
  6138	057530	506 01 0 00 057757 		HRLM A,TCP0B		;SET CHANNEL PROGRAM LENGTHS
  6139	057531	210 01 0 00 057751 		MOVN A,KTRECL
  6140	057532	271 01 0 00 000013 		ADDI A,13
  6141					IFLE CV,<
  6142						ASH A,2>
  6143					IFG CV,<
  6144	057533	240 01 0 00 000006 		ASH A,6>
  6145	057534	506 01 0 00 057763 		HRLM A,TCP2B		; ..
  6146	057535	402 00 0 00 060105 		SETZM F7TK	;ASSUME NINE TRACK DRIVE
  6147	057536	260 17 0 00 060052 		PUSHJ P,TSENSE	;GET THE DRIVE SENSE DATA
  6148	057537	260 17 0 00 056727 		PUSHJ P,SACLST	;CLEAR FLAG
  6149	057540	201 01 0 00 000323 		MOVEI A,323	;6250 GCR 9 TK
  6150	057541	200 12 0 00 060122 		MOVE J,SENSED+1
  6151	057542	602 12 0 00 100000 		TRNE J,100000	;6250 BIT
  6152	057543	254 00 0 00 057552 		JRST QTT07
  6153	057544	200 01 0 00 060121 		MOVE A,SENSED+0	;7 TRACK BIT
  6154	057545	603 01 0 00 000100 		TLNE A,100	; ..
  6155	057546	476 00 0 00 060105 		SETOM F7TK	;IT IS A 7 TRACK DRIVE
  6156	057547	201 01 0 00 000303 		MOVEI A,303	;MODE SET FOR 1600 PE 9 TK
  6157	057550	335 00 0 00 060105 		SKIPGE F7TK	;UNLESS 7 TRACK,
  6158	057551	201 01 0 00 000223 		MOVEI A,223	;MAKE IT 800 BPI, ODD, NO XLATORS
  6159	057552	137 01 0 00 106127 	QTT07:	DPB A,[241000,,TCP0]
  6160	057553	260 17 0 00 057606 		PUSHJ P,TGB	;FILL FIRST BUFFER (REC 0)
  6161	057554	201 01 0 00 000007 		MOVEI A,7	;SET UP INIT REWIND
  6162	057555	137 01 0 00 106130 		DPB A,[241000,,TREW]
  6163	057556	201 01 0 00 000003 		MOVEI A,3	;CHAINED TO NOP
  6164	057557	137 01 0 00 106131 		DPB A,[241000,,TERG]
  6165	057560	200 01 0 00 106132 		MOVE A,[MOVE TREW]	;DO REWIND THIS TIME
  6166	057561	260 17 0 00 057657 		PUSHJ P,TGO0	;START FIRST OPER
SA10 - DIAGNOSTIC FOR SYSTEMS CONCEPTS SA-10 IBM-TO-DEC SUBSYSTEM ADAPTOR	VER 1	MACRO %53B(1155)-2 14:34 14-Feb-86 Page 107-1
SA10N	MAC	17-Sep-74 22:01

  6167	057562	336 00 0 00 104036 		SKIPN NOINTF#
  6168	057563	260 17 0 00 051063 		PUSHJ P,INTFRN	;RUN INTERFERENCE  ON ADJACENT CHAN
  6169						;FALLS THROUGH
SA10 - DIAGNOSTIC FOR SYSTEMS CONCEPTS SA-10 IBM-TO-DEC SUBSYSTEM ADAPTOR	VER 1	MACRO %53B(1155)-2 14:34 14-Feb-86 Page 108
SA10N	MAC	17-Sep-74 22:01

  6170					;FALLS IN
  6171	057564	402 00 0 00 051121 	QTT1:	SETZM INFPB+1	;FOR INTERFERENCE CHECK
  6172	057565	201 11 0 13 000001 		MOVEI I,1(K)	;GENERATE DATA FOR REC N+1
  6173	057566	260 17 0 00 057606 		PUSHJ P,TGB
  6174	057567	260 17 0 00 057711 		PUSHJ P,TWT	;WAIT FOR COMPLETION ON REC N
  6175	057570	271 13 0 00 000001 		ADDI K,1	;NOW ON NEXT REC
  6176	057571	260 17 0 00 057656 		PUSHJ P,TGO	;START IT
  6177	057572	201 11 0 13 777777 		MOVEI I,-1(K)	;SET TO CHECK DATA ON N-1
  6178	057573	260 17 0 00 057607 		PUSHJ P,TCB	;CHECK IT
  6179						MOVEI C,[ASCIZ /INTERFERENCE CHAN PGM DIED
  6180	057574	201 03 0 00 105236 	/]
  6181	057575	332 00 0 00 104036 		SKIPE NOINTF#
  6182	057576	254 00 0 00 057601 		JRST .+3
  6183	057577	331 00 0 00 051121 		SKIPL INFPB+1	;IF INTF PGM RUNNING OK
  6184	057600	254 00 0 00 057642 		JRST QTT1E
  6185	057601	260 17 0 00 052642 		PUSHJ P,CHKCNC
  6186	057602	304 00 0 00 000000 		CAIA
  6187	057603	254 00 0 00 057564 		JRST QTT1	;KEEP GOING IF KEY NOT STRUCK
  6188	057604	260 17 0 00 057711 		PUSHJ P,TWT	;IF SO, WAIT FOR TERMINATION
  6189	057605	254 00 0 00 044300 		JRST CI0	;AND EXIT TO COMMAND LEVEL
  6190
  6191	057606	634 12 0 00 000012 	TGB:	TDZA J,J	;J=0 FOR GENERATE
  6192	057607	201 12 0 00 000001 	TCB:	MOVEI J,1	;J=1 FOR CHECK
  6193	057610	210 10 0 00 057751 		MOVN H,KTRECL		;LENGTH OF RECORD
  6194	057611	200 07 0 00 051611 		MOVE G,ADRLO	;SETUP FOR BUF 0
  6195	057612	606 11 0 00 000001 		TRNN I,1	;SKIP IF ODD REC
  6196	057613	254 00 0 00 057627 		JRST TCB1	;EVEN. DON'T OFFSET
  6197	057614	326 12 0 00 057654 		JUMPN J,TCB3	;DON'T USE NEW RANDOM ADR FOR CHECK
  6198	057615	270 07 0 00 057751 		ADD G,KTRECL	;STEP UP TWO BUFFERS
  6199	057616	270 07 0 00 057751 		ADD G,KTRECL	; ..
  6200	057617	260 17 0 00 047404 		PUSHJ P,RND	;RANDOM #
  6201	057620	200 01 0 00 051612 		MOVE A,ADRHI	;TOP OF MEM
  6202	057621	274 01 0 00 057751 		SUB A,KTRECL	;LEAVE ROOM...
  6203	057622	274 01 0 00 057751 		SUB A,KTRECL	;...FOR 2 BUFFERS
  6204	057623	274 01 0 00 000007 		SUB A,G	;SPACE REMAINING
  6205	057624	230 02 0 00 000001 		IDIV B,A	;GET RANDOM REMAINDER
  6206	057625	270 07 0 00 000003 		ADD G,C	;OFFSET INTO SPACE
  6207	057626	202 07 0 00 057765 		MOVEM G,TGOBUF	;ADDR OF BUFFER PAIR
  6208	057627	200 04 0 00 000011 	TCB1:	MOVE D,I	;USE REC # FOR SEED WORD
  6209	057630	200 03 0 00 057751 		MOVE C,KTRECL	;POINTER TO SECOND BUFFER OF PAIR (READ)
  6210	057631	220 04 0 00 106133 		IMUL D,[175*175*175*175]
  6211	057632	200 01 0 00 000007 	TGB1:	MOVE A,G
  6212	057633	260 17 0 00 050146 		PUSHJ P,MAPA
  6213	057634	256 00 0 12 057652 	TCB2:	XCT TGB3(J)	;STORE OR CHECK DATA (MOVEM OR CAMN)
  6214	057635	254 00 0 00 057644 		JRST TGB2	;OK
  6215	057636	200 05 0 01 000000 		MOVE E,(A)	;ERROR, GET BAD WORD
  6216	057637	200 06 0 00 000010 		MOVE F,H	;- REMAINING COUNT
  6217	057640	270 06 0 00 057751 		ADD F,KTRECL	;GET INDEX TO READ WORD
  6218						MOVEI C,[ASCIZ /DATA ERR, REC=%I, WD=%F, WROTE=%D, GOT=%E
  6219	057641	201 03 0 00 106134 	/]
  6220	057642	260 17 0 00 060373 	QTT1E:	PUSHJ P,STYO
  6221	057643	254 00 0 00 044300 		JRST CI0	;RETURN TO COMMAND LEVEL
  6222					;I.E., TOTAL ABORT ON ANY DATA FAILURE
  6223
  6224	057644	607 04 0 00 200000 	TGB2:	TLNN D,200000
SA10 - DIAGNOSTIC FOR SYSTEMS CONCEPTS SA-10 IBM-TO-DEC SUBSYSTEM ADAPTOR	VER 1	MACRO %53B(1155)-2 14:34 14-Feb-86 Page 108-1
SA10N	MAC	17-Sep-74 22:01

  6225	057645	641 04 0 00 400000 		TLC D,400000	;FEEDBACK SHIFT REGISTER TYPE RANDOMIZER
  6226	057646	241 04 0 00 000001 		ROT D,1
  6227	057647	271 07 0 00 000001 		ADDI G,1
  6228	057650	341 10 0 00 057632 		AOJL H,TGB1	;LOOP FOR EACH WD OF REC
  6229	057651	263 17 0 00 000000 		POPJ P,
  6230
  6231	057652	202 04 0 01 000000 	TGB3:	MOVEM D,(A)		;XCT'ED FOR DATA GENERATE
  6232	057653	316 04 0 01 000000 		CAMN D,(A)		;XCT'ED FOR DATA CHECK
  6233
  6234	057654	200 07 0 00 057765 	TCB3:	MOVE G,TGOBUF	;MAKE SURE WE GET SAME RANDOM ADR
  6235	057655	254 00 0 00 057627 		JRST TCB1	;AS WE USED FOR WRITE
SA10 - DIAGNOSTIC FOR SYSTEMS CONCEPTS SA-10 IBM-TO-DEC SUBSYSTEM ADAPTOR	VER 1	MACRO %53B(1155)-2 14:34 14-Feb-86 Page 109
SA10N	MAC	17-Sep-74 22:01

  6236	057656	200 01 0 00 106145 	TGO:	MOVE A,[MOVE TCP0]	;I.E., TCH TCP0. SKIP REWIND
  6237	057657	350 00 0 00 060102 	TGO0:	AOS RECDNO		;STARTING ANOTHER RECORD
  6238	057660	202 01 1 00 060740 		MOVEM A,@CBASE	;SET UP PTR TO CHAN PGM, BASE FOR THIS CHAN
  6239	057661	135 01 0 00 106146 		LDB A,[200,,K]		;DECIDE PACKING MODE FROM RECD NO.
  6240	057662	200 01 0 01 057705 		MOVE A,TGOT(A)		;TOP BYTE FOR READ COMMAND
  6241	057663	137 01 0 00 106147 		DPB A,[341000,,TCP2]	;PUT IN READ COMMAND
  6242	057664	271 01 0 00 000022 		ADDI A,22		;ADD CHAIN AND SLI BITS
  6243	057665	137 01 0 00 106150 		DPB A,[341000,,TCP0W]	;PUT IN WRITE COMMAND, MATCHING FORMAT.
  6244	057666	200 01 0 00 051611 		MOVE A,ADRLO
  6245	057667	606 13 0 00 000001 		TRNN K,1		;WHICH BUFFER? (ODD/EVEN REC)
  6246	057670	254 00 0 00 057672 		JRST TGO1		;EVEN. FIRST PAIR
  6247	057671	200 01 0 00 057765 		MOVE A,TGOBUF	;ODD
  6248	057672	137 01 0 00 106151 	TGO1:	DPB A,[2600,,TCP0A]	;PUT IN CHAN PGM
  6249	057673	271 01 0 00 000007 		ADDI A,7
  6250	057674	137 01 0 00 106152 		DPB A,[2600,,TCP0B]	; SECOND OF TWO WRITE  POINTERS
  6251	057675	275 01 0 00 000007 		SUBI A,7
  6252	057676	270 01 0 00 057751 		ADD A,KTRECL		;AND SECOND OF PAIR IS FOR READING
  6253	057677	137 01 0 00 106153 		DPB A,[2600,,TCP2A]	;SETUP READ ADDR
  6254	057700	271 01 0 00 000013 		ADDI A,13
  6255	057701	137 01 0 00 106154 		DPB A,[2600,,TCP2B]	; SECOND READ POINTER
  6256						MCONO SA0,@STBSYC	^; SPIN!
  6257	057702	201 15 1 00 060743 		MOVEI DD,@STBSYC
  6258	057703	256 00 0 00 060621 		XCT DCONO
  6259	057704	263 17 0 00 000000 		POPJ P,
  6260
  6261	057705	000000	000040		TGOT:	EXP 40,140,150,140	;WORD, NAT, TCOMPAT, NAT.
  6262	057706	000000	000140
  6263	057707	000000	000150
  6264	057710	000000	000140
SA10 - DIAGNOSTIC FOR SYSTEMS CONCEPTS SA-10 IBM-TO-DEC SUBSYSTEM ADAPTOR	VER 1	MACRO %53B(1155)-2 14:34 14-Feb-86 Page 110
SA10N	MAC	17-Sep-74 22:01

  6265					; NON-PI WAIT LOOP
  6266
  6267	057711	205 01 0 00 000001 	TWT:	MOVSI A,1
  6268	057712	256 00 0 00 060622 	TWT0:	MCONSZ SA0,PARERR+NXM^	XCT DCONI
  6269	057713	602 15 0 00 300000 		TRNE DD,PARERR+NXM
  6270	057714	254 00 0 00 060016 		JRST TWME	;MEM ERR, BAD NEWS
  6271	057715	256 00 0 00 060622 		MCONSO SA0,@STFLG^	XCT DCONI
  6272	057716	606 15 1 00 060750 		TRNN DD,@STFLG
  6273	057717	367 01 0 00 057712 		SOJG A,TWT0
  6274	057720	323 01 0 00 060020 		JUMPLE A,TWE	;IF TIMED OUT
  6275	057721	200 01 1 00 060741 		MOVE A,@CBASE+1	;GET STATUS
  6276	057722	603 01 0 00 163010 	TWT1:	TLNE A,163010
  6277	057723	254 00 0 00 060020 		JRST TWE	;BAD BITS ON
  6278	057724	603 01 0 00 000200 		TLNE A,200
  6279	057725	254 00 0 00 057766 		JRST TWRST	;CU END, RESTART
  6280	057726	135 15 0 00 104173 		LDB DD,[DEVFLD,,A]
  6281	057727	312 15 0 00 057750 		CAME DD,TDEV
  6282	057730	254 00 0 00 060020 		JRST TWE
  6283	057731	603 01 0 00 000004 		TLNE A,4
  6284	057732	254 00 0 00 057776 		JRST TWUX	;UNIT EXCEPTION, PROBABLY EOT
  6285	057733	603 01 0 00 000100 		TLNE A,100
  6286	057734	254 00 0 00 057772 		JRST TWBSY	;CONTROL BUSY OR STATUS PENDING
  6287	057735	607 01 0 00 000020 		TLNN A,20
  6288	057736	254 00 0 00 060020 		JRST TWE	;NO DEVICE END IN STATUS
  6289	057737	607 01 0 00 000040 		TLNN A,40
  6290	057740	254 00 0 00 057766 		JRST TWRST	;DEVICE END ALONE
  6291	057741	550 01 1 00 060742 		HRRZ A,@CBASE+2	;LOOKS OK. CHECK THAT WHOLE PGM WAS DONE
  6292	057742	302 01 0 00 057765 		CAIE A,TCPE+1
  6293	057743	254 00 0 00 060020 		JRST TWE	;WASN'T
  6294					;HERE IF ALL IS WELL
  6295	057744	260 17 0 00 056727 	TWTX:	PUSHJ P,SACLST
  6296	057745	260 17 0 00 052642 		PUSHJ P,CHKCNC
  6297	057746	254 00 0 00 044300 		JRST CI0	;QUIT IF CHAR TYPED IN
  6298	057747	263 17 0 00 000000 		POPJ P,
  6299
  6300	057750	000000	000000		TDEV:	TUNIT		;THIS GOES INTO CHAN CMDS BELOW
  6301	057751	000000	002000		KTRECL:	TRECL		;LENGTH OF RECORDS IN TAPE TEST
  6302	057752	260 0000000000 		TREW:	BYTE (8)260	;NO MEM XFER, GO, CHAIN, REWIND OR BACKSPACE
  6303	057753	260 0000000000 		TERG:	BYTE (8)260	;NO MEM XFER, GO, CHAIN, NOP OR ERG
  6304	057754	260 0000000000 		TCP0:	BYTE (8)260	;NO MEM XFER, GO, CHAIN, SET MODE
  6305	057755	162 001 0000000 	TCP0W:	BYTE (8)162,1	;GO, CHAIN, SLI, WRITE
  6306	057756				TCP0A:	IOWC (7,0)^	;BFR ADDR PLUGGED IN RH THIS WD
  6307	057756	377100	000000		400000-7*100,,0
  6308	057757	775100	000000		TCP0B:	IOW (TRECL-7,0)^-TRECL-7*100,,0^
  6309	057760	260 047 0000000 	TCP1:	BYTE (8)260,47	;NO MEM XFER, GO, CHAIN, BACKSPACE BLOCK
  6310	057761	140 002 0000000 	TCP2:	BYTE (8)140,2	;GO, READ
  6311	057762	376500	000000		TCP2A:	IOWC (13,0)^400000-13*100,,0^
  6312	057763	774500	000000		TCP2B:	IOW (TRECL-13,0)^-TRECL-13*100,,0^
  6313	057764	000000	000000		TCPE:	0		;HALT
  6314	057765	000000	000000		TGOBUF:	0
SA10 - DIAGNOSTIC FOR SYSTEMS CONCEPTS SA-10 IBM-TO-DEC SUBSYSTEM ADAPTOR	VER 1	MACRO %53B(1155)-2 14:34 14-Feb-86 Page 111
SA10N	MAC	17-Sep-74 22:01

  6315	057766	260 17 0 00 056727 	TWRST:	PUSHJ P,SACLST
  6316						MCONO SA0,@STBSYC	^; TRY OPERATION AGAIN
  6317	057767	201 15 1 00 060743 		MOVEI DD,@STBSYC
  6318	057770	256 00 0 00 060621 		XCT DCONO
  6319	057771	254 00 0 00 057711 		JRST TWT	;AND WAIT FOR RESULTS
  6320
  6321	057772	603 01 0 00 000260 	TWBSY:	TLNE A,260
  6322	057773	254 00 0 00 057766 		JRST TWRST	;JUST PENDING STATUS, TRY AGAIN
  6323	057774	260 17 0 00 056727 		PUSHJ P,SACLST
  6324	057775	254 00 0 00 057711 		JRST TWT	;REALLY BUSY, WAIT FOR COMPLETION
  6325
  6326	057776	550 01 1 00 060742 	TWUX:	HRRZ A,@CBASE+2
  6327	057777	306 01 0 00 057754 		CAIN A,TCP0
  6328	060000	254 00 0 00 060003 		JRST TWUX0		;ALSO OK IF FAILURE ON ERASE
  6329	060001	302 01 0 00 057760 		CAIE A,TCP1		; PC POINTING AFTER THE WRITE?
  6330	060002	254 00 0 00 060020 		JRST TWE	;BOMBED IN WRONG PLACE, ERROR
  6331	060003	350 04 0 00 060103 	TWUX0:	AOS D,REWNO	;COUNT REWINDS
  6332	060004	200 05 0 00 060102 		MOVE E,RECDNO	;TYPE SUMMARY FOR PASS
  6333						MOVEI C,[ASCIZ /END OF TAPE, PASS $D, $E RECORDS.
  6334	060005	201 03 0 00 106155 	/]
  6335	060006	260 17 0 00 060373 		PUSHJ P,STYO
  6336	060007	201 01 0 00 000007 		MOVEI A,7	;REWIND CMD
  6337	060010	201 02 0 00 000003 		MOVEI B,3	;NOP CMD
  6338	060011	137 01 0 00 106130 	TWUX1:	DPB A,[241000,,TREW]	;BACK HERE ON WRITE ERR TOO
  6339	060012	137 02 0 00 106131 		DPB B,[241000,,TERG]
  6340	060013	201 01 0 00 057752 		MOVEI A,TREW
  6341	060014	542 01 1 00 060740 		HRRM A,@CBASE	;SET TO REWIND OR ERASE TAPE, IF
  6342								; WRITE ERROR,  AND TRY AGAIN
  6343	060015	254 00 0 00 057766 		JRST TWRST
  6344
  6345	060016	260 17 0 00 050075 	TWME:	PUSHJ P,TSPE1	;TYPE MESSAGE
  6346	060017	254 00 0 00 044300 		JRST CI0	;AND ABORT THE TEST
SA10 - DIAGNOSTIC FOR SYSTEMS CONCEPTS SA-10 IBM-TO-DEC SUBSYSTEM ADAPTOR	VER 1	MACRO %53B(1155)-2 14:34 14-Feb-86 Page 112
SA10N	MAC	17-Sep-74 22:01

  6347	060020	200 01 1 00 060741 	TWE:	MOVE A,@CBASE+1
  6348	060021	607 01 0 00 000010 		TLNN A,10
  6349	060022	254 00 0 00 060056 		JRST TWEX	;OTHER THAN UNIT CHECK, GIVE UP
  6350	060023	550 01 1 00 060742 		HRRZ A,@CBASE+2	;WHAT WAS CHANNEL PC AT FAILURE?
  6351	060024	302 01 0 00 057760 		CAIE A,TCP1	;WRITE ERROR?
  6352	060025	254 00 0 00 060056 		JRST TWEX	;FAILURE NOT ON WRITE CMD, GIVE UP
  6353	060026	261 17 1 00 060741 		PUSH P,@CBASE+1	;YES. TRY TO RECOVER
  6354	060027	261 17 1 00 060742 		PUSH P,@CBASE+2
  6355	060030	260 17 0 00 060052 		PUSHJ P,TSENSE	;GET SENSE BYTES FROM TAPE UNIT
  6356	060031	242 01 0 00 777754 		LSH A,-24	;ISOLATE SENSE STATUS
  6357	060032	620 01 0 00 001000 		TRZ A,4000/4	;WITHOUT LENGTH ERR
  6358	060033	302 01 0 00 000014 		CAIE A,14
  6359	060034	254 00 0 00 060054 		JRST TWEX1	;NOT CHEND+DEVEND, GIVE UP
  6360	060035	135 01 0 00 105666 		LDB A,[341000,,SENSED]	;FIRST BYTE OF SENSE DATA
  6361	060036	302 01 0 00 000010 		CAIE A,10
  6362	060037	254 00 0 00 060054 		JRST TWEX1	;NOT JUST A DATA CHK
  6363	060040	262 17 1 00 060742 		POP P,@CBASE+2	;DATA ERROR ON WRITE. TRY TO
  6364								; ERASE GAP, RE-WRITE.
  6365	060041	262 17 1 00 060741 		POP P,@CBASE+1	;MOSTLY JUST TO RESTORE PDL
  6366	060042	200 05 0 00 060102 		MOVE E,RECDNO	;REPORT THE WRITE ERROR.
  6367	060043	350 04 0 00 060104 		AOS D,WERRNO
  6368	060044	135 06 0 00 106165 		LDB F,[141000,,SENSED]	;GET SENSE BYTE 2 (T.I.E.)
  6369						MOVEI C,[ASCIZ /WRITE ERROR # $D, RECORD $E, TIE=%F
  6370	060045	201 03 0 00 106166 	/]
  6371	060046	260 17 0 00 060373 		PUSHJ P,STYO
  6372	060047	201 01 0 00 000047 		MOVEI A,47	;BACKSPACE
  6373	060050	201 02 0 00 000027 		MOVEI B,27	;ERASE GAP
  6374	060051	254 00 0 00 060011 		JRST TWUX1	;GO TRY TO RECOVER
  6375
  6376	060052	200 01 0 00 057750 	TSENSE:	MOVE A,TDEV
  6377	060053	254 00 0 00 056637 		JRST SENSEX
SA10 - DIAGNOSTIC FOR SYSTEMS CONCEPTS SA-10 IBM-TO-DEC SUBSYSTEM ADAPTOR	VER 1	MACRO %53B(1155)-2 14:34 14-Feb-86 Page 113
SA10N	MAC	17-Sep-74 22:01

  6378	060054	262 17 1 00 060742 	TWEX1:	POP P,@CBASE+2	;RESET STATUS FOR MESSAGE
  6379	060055	262 17 1 00 060741 		POP P,@CBASE+1
  6380	060056	476 00 0 00 060061 	TWEX:	SETOM TAPF	;TELL ERR ROUTINE ITS TAPE
  6381	060057	260 17 0 00 050075 		PUSHJ P,TSPE1	;TYPE MESSAGE
  6382	060060	254 00 0 00 044300 		JRST CI0	;ABORT TEST
  6383
  6384	060061	000000	000000		TAPF:	0
  6385	060062	000000	106176		TAPSNS:	[ASCIZ /NOT CAP/]
  6386	060063	000000	106200			[ASCIZ /FILE PROT/]
  6387	060064	000000	106202			[ASCIZ /WRT STAT/]
  6388	060065	000000	106204			[ASCIZ /LD POINT/]
  6389	060066	000000	106206			[ASCIZ /7 TRK/]
  6390	060067	000000	106210			[ASCIZ /TU ST B/]
  6391	060070	000000	106212			[ASCIZ /TU ST A/]
  6392	060071	000000	106214			[ASCIZ /NOISE/]
  6393	060072	000000	106216			[ASCIZ /DATA CONV CHK/]
  6394	060073	000000	106221			[ASCIZ /WC ZERO/]
  6395	060074	000000	104641			[ASCIZ /OVERRUN/]
  6396	060075	000000	106223			[ASCIZ /DATA CHK/]
  6397	060076	000000	106225			[ASCIZ /EQUIP CHK/]
  6398	060077	000000	106227			[ASCIZ /BUS OUT CHK/]
  6399	060100	000000	106232			[ASCIZ /INTERVENTION REQ/]
  6400	060101	000000	104664			[ASCIZ /COMMAND REJECT/]
  6401
  6402	060102				RECDNO:	BLOCK 1
  6403	060103				REWNO:	BLOCK 1
  6404	060104				WERRNO:	BLOCK 1
  6405	060105				F7TK:	BLOCK 1
SA10 - DIAGNOSTIC FOR SYSTEMS CONCEPTS SA-10 IBM-TO-DEC SUBSYSTEM ADAPTOR	VER 1	MACRO %53B(1155)-2 14:34 14-Feb-86 Page 114
SA10N	MAC	17-Sep-74 22:01

  6406			000001		LSTBUF==1
  6407	060106	120034	000000		PSEEK:	120034000000+<IDEV_14>	;SEEK, BYTE MODE
  6408	060107	777200	060111			IOW 6,SEEKD^-6*100,,SEEKD^
  6409	060110	000000	000000			0
  6410	060111	000000	000000		SEEKD:	0
  6411	060112	000000	000000			0
  6412	060113	050 004 0000000 	SENSEP:	BYTE (8)50,SENSE
  6413	060114	775000	060121			IOW 30,SENSED^-30*100,,SENSED^
  6414	060115	000000	000000			0
  6415
  6416	060116	050 244 0000000 	RRBLP:	BYTE (8)50,244
  6417	060117	775000	060121			IOW 30,SENSED^-30*100,,SENSED^
  6418	060120	000000	000000			0
  6419
  6420	060121				SENSED:	BLOCK 6
  6421	060127				STBUF:	BLOCK LSTBUF
  6422	060130				STBUF2:	BLOCK LSTBUF
  6423	060131				STBUFS:	BLOCK LSTBUF
  6424	060132	000000	000000		IAR:	0
  6425	060133	777777	777777		BPLOC:	-1
  6426
  6427						EXTERN .JBREL
  6428	060134	000000	000000		IOLIST:	EXP 0,0
  6429	060135	000000	000000
  6430
  6431	060136	050 01 0 00 106236 	SUPER:	OPEN 1,[EXP 17,SIXBIT /SUPER/,0]
  6432	060137	254 04 0 00 060137 		HALT .
  6433	060140	072 01 0 00 000001 		MTAPE 1,1
  6434	060141	072 01 0 00 000000 		MTAPE 1,0
  6435	060142	210 01 0 00 000000*		MOVN A,.JBREL
  6436	060143	205 01 0 01 044472 		MOVSI A,GOGO(A)
  6437	060144	541 01 0 00 044471 		HRRI A,GOGO-1
  6438	060145	202 01 0 00 060134 		MOVEM A,IOLIST
  6439	060146	057 01 0 00 060134 		OUT 1,IOLIST
  6440	060147	334 00 0 00 000000 		SKIPA
  6441	060150	254 04 0 00 060150 		HALT .
  6442	060151	071 01 0 00 000000 		RELEAS 1,
  6443	060152	047 00 0 00 000012 		EXIT
  6444	060153	000000	000000		SUPER0:	0
  6445	060154	000000	000000		SUPER1:	0
  6446
SA10 - DIAGNOSTIC FOR SYSTEMS CONCEPTS SA-10 IBM-TO-DEC SUBSYSTEM ADAPTOR	VER 1	MACRO %53B(1155)-2 14:34 14-Feb-86 Page 115
SA10N	MAC	17-Sep-74 22:01

  6447		260740	060201		PPP=PUSHJ P,PWORLD
  6448
  6449					DEFINE PPPN(N)<
  6450					PP'N=PUSHJ P,PWLD'N
  6451					PWLD'N:	PUSH P,G
  6452						MOVEI G,N
  6453						PPP
  6454						POP P,G
  6455						POPJ P,
  6456					>
  6457			000000		ZZ==0
  6458					REPEAT 4,<
  6459					PPPN \ZZ
  6460					ZZ==ZZ+1
  6461					>
  6462
  6463					PPPN \ZZ^
  6464	060155	261 17 0 00 000007 	PWLD0:	PUSH P,G
  6465	060156	201 07 0 00 000000 		MOVEI G,0
  6466	060157	260740	060201			PPP
  6467	060160	262 17 0 00 000007 		POP P,G
  6468	060161	263 17 0 00 000000 		POPJ P,
  6469			000001		ZZ==ZZ+1
  6470
  6471
  6472					PPPN \ZZ^
  6473	060162	261 17 0 00 000007 	PWLD1:	PUSH P,G
  6474	060163	201 07 0 00 000001 		MOVEI G,1
  6475	060164	260740	060201			PPP
  6476	060165	262 17 0 00 000007 		POP P,G
  6477	060166	263 17 0 00 000000 		POPJ P,
  6478			000002		ZZ==ZZ+1
  6479
  6480
  6481					PPPN \ZZ^
  6482	060167	261 17 0 00 000007 	PWLD2:	PUSH P,G
  6483	060170	201 07 0 00 000002 		MOVEI G,2
  6484	060171	260740	060201			PPP
  6485	060172	262 17 0 00 000007 		POP P,G
  6486	060173	263 17 0 00 000000 		POPJ P,
  6487			000003		ZZ==ZZ+1
  6488
  6489
  6490					PPPN \ZZ^
  6491	060174	261 17 0 00 000007 	PWLD3:	PUSH P,G
  6492	060175	201 07 0 00 000003 		MOVEI G,3
  6493	060176	260740	060201			PPP
  6494	060177	262 17 0 00 000007 		POP P,G
  6495	060200	263 17 0 00 000000 		POPJ P,
  6496			000004		ZZ==ZZ+1
  6497
  6498
  6499	060201	261 17 0 00 000001 	PWORLD:	PUSH P,A
  6500	060202	200 01 0 00 000007 		MOVE A,G
  6501	060203	260 17 0 00 061113 		PUSHJ P,CHNCHK
SA10 - DIAGNOSTIC FOR SYSTEMS CONCEPTS SA-10 IBM-TO-DEC SUBSYSTEM ADAPTOR	VER 1	MACRO %53B(1155)-2 14:34 14-Feb-86 Page 115-1
SA10N	MAC	17-Sep-74 22:01

  6502	060204	254 00 0 00 057106 		JRST POPAJ
  6503	060205	261 17 0 00 000002 		PUSH P,B
  6504	060206	261 17 0 00 000003 		PUSH P,C
  6505	060207	261 17 0 00 000004 		PUSH P,D
  6506	060210	261 17 0 00 000005 		PUSH P,E
  6507	060211	261 17 0 00 000015 		PUSH P,DD
  6508	060212	7 004 24 0 00 000002 		CONI PI,B
  6509	060213	7 004 20 0 00 000400 		CONO PI,400
  6510	060214	256 00 0 00 060622 		MCONI SA0,A^	XCT DCONI
  6511	060215	202 15 0 00 000001 		MOVEM DD,A
  6512	060216	504 01 0 00 000002 		HRL A,B
  6513	060217	261 17 0 00 000001 		PUSH P,A
  6514	060220	211 02 0 00 000001 		MOVNI B,1	;NO SUBCHANNEL SEL YET
  6515	060221	201 15 0 00 000040 		MCONO SA0,RDCONI^	MOVEI DD,RDCONI
  6516	060222	256 00 0 00 060621 		XCT DCONO
  6517	060223	256 00 0 00 060624 		MDATAI SA0,A^	XCT DDATAI
  6518	060224	202 15 0 00 000001 		MOVEM DD,A
  6519	060225	603 01 0 00 000002 		TLNE A,2
  6520	060226	254 00 0 00 060233 		JRST PW00	;CLOCK RUNNING - OK
  6521	060227	201 15 0 00 000000 		MCONO SA0,RDCCI^	MOVEI DD,RDCCI
  6522	060230	256 00 0 00 060621 		XCT DCONO
  6523						MDATAI SA0,B	^;CLOCK STOPPED, REMEMBER WHICH SUBCHANNEL
  6524	060231	256 00 0 00 060624 		XCT DDATAI
  6525	060232	202 15 0 00 000002 		MOVEM DD,B
  6526	060233	261 17 0 00 000002 	PW00:	PUSH P,B	;SAVE SUBCHANNEL SELECTION
  6527	060234	325 02 0 00 060237 		JUMPGE B,PW00A
  6528	060235	201 15 0 00 001000 		MCONO SA0,SASTEP^	MOVEI DD,SASTEP
  6529	060236	256 00 0 00 060621 		XCT DCONO
  6530	060237	260 17 0 00 046551 	PW00A:	PUSHJ P,STEPCX
  6531	060240	205 04 0 00 777772 		MOVSI D,-6
  6532	060241	201 15 1 04 060653 	PW0:	MCONO SA0,@PW0T1(D)^	MOVEI DD,@PW0T1(D)
  6533	060242	256 00 0 00 060621 		XCT DCONO
  6534	060243	200 03 0 04 060661 		MOVE C,PW0T2(D)
  6535	060244	260 17 0 00 060373 		PUSHJ P,STYO
  6536	060245	256 00 0 00 060624 		MDATAI SA0,A^	XCT DDATAI
  6537	060246	202 15 0 00 000001 		MOVEM DD,A
  6538	060247	606 04 0 00 777777 		TRNN D,-1
  6539	060250	261 17 0 00 000001 		PUSH P,A	;SAVE THIS CHAN'S IAR
  6540	060251	606 04 0 00 777777 		TRNN D,-1
  6541	060252	405 01 0 00 001777 		ANDI A,1777
  6542	060253	260 17 0 00 060511 		PUSHJ P,OPT
  6543	060254	253 04 0 00 060241 		AOBJN D,PW0
  6544	060255	201 15 0 00 000000 		MCONO SA0,RDCCI^	MOVEI DD,RDCCI
  6545	060256	256 00 0 00 060621 		XCT DCONO
  6546	060257	205 04 0 00 777774 		MOVSI D,-4
  6547	060260	200 03 0 04 060633 	PW1:	MOVE C,BTIMT(D)
  6548	060261	260 17 0 00 060375 		PUSHJ P,STYO1
  6549	060262	200 15 0 04 060637 		MDATAO SA0,BTIMD(D)^	MOVE DD,BTIMD(D)
  6550	060263	256 00 0 00 060623 		XCT DDATAO
  6551	060264	256 00 0 00 060624 		MDATAI SA0,A^	XCT DDATAI
  6552	060265	202 15 0 00 000001 		MOVEM DD,A
  6553	060266	135 01 0 00 104410 		LDB A,[121000,,A]
  6554	060267	260 17 0 00 060511 		PUSHJ P,OPT
  6555	060270	253 04 0 00 060260 		AOBJN D,PW1
  6556	060271	205 04 0 00 777774 		MOVSI D,-4
SA10 - DIAGNOSTIC FOR SYSTEMS CONCEPTS SA-10 IBM-TO-DEC SUBSYSTEM ADAPTOR	VER 1	MACRO %53B(1155)-2 14:34 14-Feb-86 Page 115-2
SA10N	MAC	17-Sep-74 22:01

  6557	060272	201 05 0 00 040000 		MOVEI E,040000
  6558	060273	200 03 0 04 060643 	PW2:	MOVE C,PCWT(D)
  6559	060274	260 17 0 00 060375 		PUSHJ P,STYO1
  6560	060275	200 03 0 00 106241 		MOVE C,[301000,,A]
  6561	060276	271 05 0 00 000400 		ADDI E,400
  6562	060277	200 15 0 00 000005 	PW2A:	MDATAO SA0,E^	MOVE DD,E
  6563	060300	256 00 0 00 060623 		XCT DDATAO
  6564	060301	256 00 0 00 060624 		MDATAI SA0,B^	XCT DDATAI
  6565	060302	202 15 0 00 000002 		MOVEM DD,B
  6566	060303	242 02 0 00 777766 		LSH B,-12
  6567	060304	136 02 0 00 000003 		IDPB B,C
  6568	060305	271 05 0 00 000400 		ADDI E,400
  6569	060306	602 05 0 00 001400 		TRNE E,1400
  6570	060307	254 00 0 00 060277 		JRST PW2A
  6571	060310	242 01 0 00 777774 		LSH A,-4
  6572	060311	260 17 0 00 060511 		PUSHJ P,OPT
  6573	060312	253 04 0 00 060273 		AOBJN D,PW2
  6574	060313	205 04 0 00 777774 		MOVSI D,-4
  6575	060314	201 05 0 00 140002 		MOVEI E,140002
  6576	060315	200 03 0 04 060647 	PW3:	MOVE C,REGT(D)
  6577	060316	260 17 0 00 060375 		PUSHJ P,STYO1
  6578	060317	200 03 0 00 104413 		MOVE C,[441000,,A]
  6579	060320	200 15 0 00 000005 	PW3A:	MDATAO SA0,E^	MOVE DD,E
  6580	060321	256 00 0 00 060623 		XCT DDATAO
  6581	060322	256 00 0 00 060624 		MDATAI SA0,B^	XCT DDATAI
  6582	060323	202 15 0 00 000002 		MOVEM DD,B
  6583	060324	242 02 0 00 777766 		LSH B,-12
  6584	060325	136 02 0 00 000003 		IDPB B,C
  6585	060326	602 05 0 00 002000 		TRNE E,2000
  6586	060327	254 00 0 00 060332 		JRST PW3B
  6587	060330	271 05 0 00 000400 		ADDI E,400
  6588	060331	254 00 0 00 060320 		JRST PW3A
SA10 - DIAGNOSTIC FOR SYSTEMS CONCEPTS SA-10 IBM-TO-DEC SUBSYSTEM ADAPTOR	VER 1	MACRO %53B(1155)-2 14:34 14-Feb-86 Page 116
SA10N	MAC	17-Sep-74 22:01

  6589	060332	242 01 0 00 777774 	PW3B:	LSH A,-4
  6590	060333	246 01 0 00 000004 		LSHC A,4
  6591	060334	260 17 0 00 060511 		PUSHJ P,OPT
  6592	060335	271 05 0 00 006000 		ADDI E,6000
  6593	060336	253 04 0 00 060315 		AOBJN D,PW3
  6594						MOVEI C,[ASCIZ \
  6595	060337	201 03 0 00 106242 	TDS0=\]
  6596	060340	260 17 0 00 060373 		PUSHJ P,STYO
  6597	060341	256 00 0 00 060624 		MDATAI SA0,A^	XCT DDATAI
  6598	060342	202 15 0 00 000001 		MOVEM DD,A
  6599	060343	135 01 0 00 106244 		LDB A,[100400,,A]
  6600	060344	260 17 0 00 060511 		PUSHJ P,OPT
  6601	060345	262 17 0 00 000001 		POP P,A		;GET SAVED IAR
  6602	060346	405 01 0 00 001777 		ANDI A,1777	;MAKE INTO GOTO
  6603	060347	260 17 0 00 046572 		PUSHJ P,CXXCT	;RESTORE IAR
  6604	060350	262 17 0 00 000002 		POP P,B
  6605						JUMPL B,[MCONO SA0,SACGO	^	MOVEI DD,SACGO
  6606						XCT DCONO
  6607	060351	321 02 0 00 106245 			JRST PWLDX]
  6608	060352	261 17 0 00 000007 		PUSH P,G
  6609	060353	135 07 0 00 106250 		LDB G,[POINT 2,B,17]	;CLOCK WAS STOPPED - GET OLD CHAN
  6610	060354	260 17 0 00 046551 		PUSHJ P,STEPCX	;GET BACK TO IT
  6611	060355	262 17 0 00 000007 		POP P,G
  6612	060356	262 17 0 00 000001 	PWLDX:	POP P,A
  6613	060357	620 01 0 00 777770 		TRZ A,-10
  6614						MCONO SA0,(A)	^;RESTORE PIA
  6615	060360	201 15 0 01 000000 		MOVEI DD,(A)
  6616	060361	256 00 0 00 060621 		XCT DCONO
  6617	060362	603 01 0 00 000200 		TLNE A,200
  6618	060363	7 004 20 0 00 000200 		CONO PI,200
  6619	060364	262 17 0 00 000015 		POP P,DD
  6620	060365	262 17 0 00 000005 		POP P,E
  6621	060366	262 17 0 00 000004 		POP P,D
  6622	060367	262 17 0 00 000003 		POP P,C
  6623	060370	262 17 0 00 000002 		POP P,B
  6624	060371	262 17 0 00 000001 		POP P,A
  6625					;*****			;FALLS THRU TO CR
SA10 - DIAGNOSTIC FOR SYSTEMS CONCEPTS SA-10 IBM-TO-DEC SUBSYSTEM ADAPTOR	VER 1	MACRO %53B(1155)-2 14:34 14-Feb-86 Page 117
SA10N	MAC	17-Sep-74 22:01

  6626	060372				CR:	MOVEI C,[ASCIZ \
  6627	060372	201 03 0 00 104046 	\]
  6628	060373	254 00 0 00 060471 	STYO:	JRST	PNTCHK
  6629	060374	505 03 0 00 440700 		HRLI C,440700
  6630	060375	134 02 0 00 000003 	STYO1:	ILDB B,C
  6631	060376	306 02 0 00 000045 		CAIN B,"%"
  6632	060377	254 00 0 00 060407 		JRST STYO2
  6633	060400	306 02 0 00 000044 		CAIN B,"$"
  6634	060401	254 00 0 00 060415 		JRST STYO3		;DECIMAL TYPEOUT
  6635	060402	306 02 0 00 000134 		CAIN B,"\"
  6636	060403	254 00 0 00 060423 		JRST STYO4		;HEX TYPEOUT
  6637	060404	322 02 0 00 060537 		JUMPE B,CPOPJ
  6638	060405	260 17 0 00 060444 		PUSHJ P,TYO
  6639	060406	254 00 0 00 060375 		JRST STYO1
  6640
  6641	060407	134 02 0 00 000003 	STYO2:	ILDB B,C
  6642	060410	305 02 0 00 000101 		CAIGE B,"A"
  6643	060411	254 00 0 00 060430 		JRST STYO5
  6644	060412	200 01 0 02 777700 		MOVE A,A-"A"(B)
  6645	060413	260 17 0 00 060511 		PUSHJ P,OPT
  6646	060414	254 00 0 00 060375 		JRST STYO1
  6647	060415	134 02 0 00 000003 	STYO3:	ILDB B,C
  6648	060416	305 02 0 00 000101 		CAIGE B,"A"
  6649	060417	254 00 0 00 060427 		JRST STYO5A
  6650	060420	200 01 0 02 777700 		MOVE A,A-"A"(B)
  6651	060421	260 17 0 00 060561 		PUSHJ P,DPT
  6652	060422	254 00 0 00 060375 		JRST STYO1
  6653	060423	134 02 0 00 000003 	STYO4:	ILDB B,C
  6654	060424	200 01 0 02 777700 		MOVE A,A-"A"(B)
  6655	060425	260 17 0 00 060562 		PUSHJ P,HPT
  6656	060426	254 00 0 00 060375 		JRST STYO1
  6657
  6658	060427	661 02 0 00 400000 	STYO5A:	TLO B,(1B0)	;USE $ FOR SIGNED VERSION
  6659	060430	275 02 0 00 000060 	STYO5:	SUBI B,"0"	;CHAR AFTER % IS DIGIT - USE AS RADIX (@ FOR HEX)
  6660	060431	134 01 0 00 000003 		ILDB A,C
  6661	060432	301 01 0 00 000101 		CAIL A,"A"	;ANOTHER DIGIT?
  6662	060433	254 00 0 00 060436 		JRST STYO6
  6663	060434	661 02 0 01 777720 		TLO B,-"0"(A)	;YES, SET MIN FIELD WIDTH
  6664	060435	134 01 0 00 000003 		ILDB A,C
  6665	060436	200 01 0 01 777700 	STYO6:	MOVE A,A-"A"(A)
  6666	060437	260 17 0 00 060563 		PUSHJ P,RDXPRT	;PRINT NUM WITH SPECIFIED PARAMS
  6667	060440	254 00 0 00 060375 		JRST STYO1
  6668
  6669	060441	260 17 0 00 060442 	CR4:	PUSHJ P,CR2
  6670	060442	260 17 0 00 060372 	CR2:	PUSHJ P,CR
  6671	060443	254 00 0 00 060372 		JRST CR
  6672
  6673	060444	301 02 0 00 000040 	TYO:	CAIL B,40			;PRINTABLE CHAR.?
  6674	060445	254 00 0 00 060477 		JRST LPTTST			;YES GO PRINT IT
  6675	060446	322 02 0 00 060537 		JUMPE B,CPOPJ
  6676	060447	303 02 0 00 000015 		CAILE B,15
  6677	060450	254 00 0 00 060453 		JRST .+3
  6678	060451	301 02 0 00 000007 		CAIL B,7			;IS THIS A CONTROL CHAR?
  6679	060452	254 00 0 00 060477 		JRST LPTTST			;NO
  6680	060453	261 17 0 00 000002 		PUSH P,B
SA10 - DIAGNOSTIC FOR SYSTEMS CONCEPTS SA-10 IBM-TO-DEC SUBSYSTEM ADAPTOR	VER 1	MACRO %53B(1155)-2 14:34 14-Feb-86 Page 117-1
SA10N	MAC	17-Sep-74 22:01

  6681	060454	201 02 0 00 000136 		MOVEI B,"^"			;TYPE CTRL CHARS AS ^X
  6682	060455	260 17 0 00 060533 		PUSHJ P,TYO0			;ALWAYS PRINT CONTROL CHAR'S ON TTY
  6683	060456	200 02 0 17 000000 		MOVE B,(P)
  6684	060457	271 02 0 00 000100 		ADDI B,100
  6685	060460	260 17 0 00 060533 		PUSHJ P,TYO0
  6686	060461	262 17 0 00 000002 		POP P,B
  6687	060462	263 17 0 00 000000 		POPJ P,
  6688
  6689	060463	505 03 0 00 440700 	PROMPT:	HRLI	C,440700		;USED BY NEXT INSTRUCTION
  6690	060464	134 02 0 00 000003 		ILDB	B,C
  6691	060465	322 02 0 00 060470 		JUMPE	B,.+3			;JUMP IF END OF CHAR STRING
  6692	060466	260 17 0 00 060533 		PUSHJ	P,TYO0			;GO PRINT ON TTY
  6693	060467	254 00 0 00 060464 		JRST	PROMPT+1
  6694	060470	263 17 0 00 000000 		POPJ	P,			;ALL DONE
  6695
  6696	060471	256 00 0 00 050277 	PNTCHK:	XCT	RDSWS
  6697	060472	607 15 0 00 040000 		TLNN	DD,40000		;INHIBIT PRINTOUT?
  6698	060473	254 00 0 00 060374 		JRST	STYO+1			;NO,KEEP GOING
  6699	060474	260 17 0 00 052642 		PUSHJ	P,CHKCNC		;YES,GO SEE IF KEY STRUCK ON TTY
  6700	060475	254 00 0 00 044300 		JRST	CI0			;YES,GO BACK TO COMMAND TO SEE WHAT THEY WANT
  6701	060476	263 17 0 00 000000 		POPJ	P,			;NO,KEEP GOING
  6702
  6703	060477	607 15 0 00 020000 	LPTTST:	TLNN	DD,20000		;PRINT ON LINEPRINTER?
  6704	060500	254 00 0 00 060533 		JRST	TYO0			;NO,GO PRINT IT ON TTY
  6705	060501	7 124 34 0 00 001000 	LPTOUT:	CONSO	LPT,1000		;LPT DONE?
  6706	060502	254 00 0 00 060501 		JRST	.-1			;NO,KEEPLOOKING
  6707	060503	7 124 14 0 00 000002 		DATAO	LPT,B
  6708	060504	302 02 0 00 000012 		CAIE	B,12			;WAS CHAR A LINEFEED?
  6709	060505	263 17 0 00 000000 		POPJ	P,			;NO
  6710	060506	260 17 0 00 052642 		PUSHJ	P,CHKCNC		;YES,GO SEE IF OPER WANTS TO STOP
  6711	060507	254 00 0 00 044300 		JRST	CI0			;YES,GO TO COMMAND LEVEL
  6712	060510	263 17 0 00 000000 		POPJ	P,			;NO,KEEP GOING
  6713
SA10 - DIAGNOSTIC FOR SYSTEMS CONCEPTS SA-10 IBM-TO-DEC SUBSYSTEM ADAPTOR	VER 1	MACRO %53B(1155)-2 14:34 14-Feb-86 Page 118
SA10N	MAC	17-Sep-74 22:01

  6714	060511	607 01 0 00 777777 	OPT:	TLNN A,-1
  6715	060512	254 00 0 00 060522 		JRST OPT1
  6716	060513	261 17 0 00 000001 		PUSH P,A
  6717	060514	557 00 0 00 000001 		HLRZS A
  6718	060515	260 17 0 00 060523 		PUSHJ P,OPT2
  6719	060516	262 17 0 00 000001 		POP P,A
  6720	060517	201 02 0 00 000054 		MOVEI B,54
  6721	060520	260 17 0 00 060444 		PUSHJ P,TYO
  6722	060521	260 17 0 00 060444 		PUSHJ P,TYO
  6723	060522	553 00 0 00 000001 	OPT1:	HRRZS A
  6724	060523	231 01 0 00 000010 	OPT2:	IDIVI A,10
  6725	060524	322 01 0 00 060530 		JUMPE A,OPT3
  6726	060525	506 02 0 17 000000 		HRLM B,(P)
  6727	060526	260 17 0 00 060523 		PUSHJ P,OPT2
  6728	060527	554 02 0 17 000000 	OPT3A:	HLRZ B,(P)
  6729	060530	271 02 0 00 000060 	OPT3:	ADDI B,"0"
  6730	060531	303 02 0 00 000071 		CAILE B,"9"
  6731	060532	271 02 0 00 000007 		ADDI B,"A"-"9"-1
  6732	060533	256 00 0 00 050275 	TYO0:	XCT TYOSKP
  6733	060534	254 00 0 00 060533 		JRST .-1
  6734	060535	256 00 0 00 050276 		XCT TYOGO
  6735	060536	302 02 0 00 000012 		CAIE B,12
  6736	060537	263 17 0 00 000000 	CPOPJ:	POPJ P,
  6737	060540	260 17 0 00 052642 		PUSHJ P,CHKCNC	;CHECK FOR ^C AFTER EACH LINE
  6738	060541	254 00 0 00 044300 		 JRST CI0
  6739	060542	211 02 0 00 023420 		MOVNI B,^D10000
  6740	060543	256 00 0 00 050275 	TYOF0:	XCT TYOSKP
  6741	060544	341 02 0 00 060543 		AOJL B,TYOF0
  6742	060545	325 02 0 00 060555 		JUMPGE B,TYOF9
  6743	060546	460 02 0 00 060557 		SETCM B,TYOFIL
  6744	060547	202 02 0 00 060560 		MOVEM B,TYOFCT
  6745	060550	201 02 0 00 000000 		MOVEI B,0
  6746	060551	351 00 0 00 060560 	TYOF1:	AOSL TYOFCT
  6747	060552	254 00 0 00 060555 		JRST TYOF9
  6748	060553	260 17 0 00 060533 		PUSHJ P,TYO0	;A NULL AS FILLER
  6749	060554	254 00 0 00 060551 		JRST TYOF1
  6750
  6751	060555	201 02 0 00 000012 	TYOF9:	MOVEI B,12
  6752	060556	263 17 0 00 000000 		POPJ P,
  6753
  6754	060557	000000	000004		TYOFIL:	4	;# OF FILL CHARACTERS TO DO AFTER L.F.
  6755	060560	000000	000000		TYOFCT:	0
SA10 - DIAGNOSTIC FOR SYSTEMS CONCEPTS SA-10 IBM-TO-DEC SUBSYSTEM ADAPTOR	VER 1	MACRO %53B(1155)-2 14:34 14-Feb-86 Page 119
SA10N	MAC	17-Sep-74 22:01

  6756	060561	334 02 0 00 106251 	DPT:	SKIPA B,[SETZ 12]	;SIGNED DECIMAL PRINTOUT
  6757	060562	201 02 0 00 000020 	HPT:	MOVEI B,20	;UNSIGNED HEX
  6758					;*****			;FALLS THRU
  6759
  6760					;ROUTINE TO PRINT NUM (A) IN RADIX (B18-35) PADDED TO AT LEAST (B1-17)
  6761					;DIGITS, SIGNED IF B0=1
  6762
  6763	060563	321 01 0 00 060565 	RDXPRT:	JUMPL A,.+2
  6764	060564	621 02 0 00 400000 		TLZ B,(1B0)	;IGNORE SIGNED MODE IF NON-NEG ARG
  6765	060565	552 02 0 00 104037 		HRRZM B,ORADX#
  6766	060566	556 02 0 00 104040 		HLRZM B,OWID#
  6767	060567	627 02 0 00 400000 		TLZN B,(1B0)	;DO WE NEED A - ?
  6768	060570	254 00 0 00 060575 		JRST RDXPR0
  6769	060571	556 02 0 00 104040 		HLRZM B,OWID#	;YES, FIX WIDTH (WAS STORED WITH B18 ON)
  6770	060572	201 02 0 00 000055 		MOVEI B,"-"
  6771	060573	260 17 0 00 060444 		PUSHJ P,TYO	;PRINT A -
  6772	060574	213 00 0 00 000001 		MOVNS A		;MAKE ARG POS (UNLESS SETZ)
  6773	060575	246 01 0 00 777735 	RDXPR0:	LSHC A,-^D35
  6774	060576	242 02 0 00 777777 		LSH B,-1
  6775	060577	234 01 0 00 104037 		DIV A,ORADX	;DO DIVIDE IN DOUBLE PRECISION SO UNSIGNED WORKS
  6776	060600	377 00 0 00 104040 		SOSG OWID
  6777	060601	322 01 0 00 060530 		JUMPE A,OPT3	;UNWIND IF NO MORE DIGITS & ADEQUATE WIDTH
  6778	060602	506 02 0 17 000000 		HRLM B,(P)
  6779	060603	260 17 0 00 060575 		PUSHJ P,RDXPR0	;ELSE RECURSE
  6780	060604	254 00 0 00 060527 		JRST OPT3A
  6781
  6782	060605	200 15 0 00 060630 	SETSAA:	MOVE DD,SADEVA
  6783	060606	316 15 0 00 060625 		CAMN DD,DDEVA
  6784	060607	263 17 0 00 000000 		POPJ P,
  6785	060610	202 15 0 00 060625 		MOVEM DD,DDEVA
  6786	060611	242 15 0 00 777776 		LSH DD,-2
  6787	060612	137 15 0 00 104441 		DPB DD,[320700,,DCONO]
  6788	060613	137 15 0 00 106252 		DPB DD,[320700,,DCONI]
  6789	060614	137 15 0 00 106253 		DPB DD,[320700,,DDATAO]
  6790	060615	137 15 0 00 106254 		DPB DD,[320700,,DDATAI]
  6791	060616	205 15 0 00 400000 		MOVSI DD,(1B0)
  6792	060617	436 15 0 00 061071 		IORM DD,CURSEQ	;RECHECK SEQUENCE ON NEW SA10
  6793	060620	263 17 0 00 000000 		POPJ P,
  6794
  6795	060621	7 274 20 0 15 000000 	DCONO:	CONO SA0,(DD)
  6796	060622	7 274 24 0 00 000015 	DCONI:	CONI SA0,DD
  6797	060623	7 274 14 0 00 000015 	DDATAO:	DATAO SA0,DD
  6798	060624	7 274 04 0 00 000015 	DDATAI:	DATAI SA0,DD
  6799	060625	777777	777777		DDEVA:	-1
  6800
  6801	060626	000000	000000		IDEVA:	IDEV	;CONTROLLER ADDRESS FOR DISK TEST
  6802	060627	000000	000000		BASEA:	BASE	;BASE ADDRESS FOR SA-10 FIXED DATA BLOCK
  6803	060630	000000	000274		SADEVA:	SA0	;SA-10 DEVICE ADDRESS
  6804
  6805	060631	000000	000000		STATCT:	0
  6806	060632	000000	000000		IDEVT:	0
SA10 - DIAGNOSTIC FOR SYSTEMS CONCEPTS SA-10 IBM-TO-DEC SUBSYSTEM ADAPTOR	VER 1	MACRO %53B(1155)-2 14:34 14-Feb-86 Page 120
SA10N	MAC	17-Sep-74 22:01

  6807	060633				BTIMT:	440700,,[ASCIZ \
  6808	060633	440700	106255		BUS= \]
  6809						440700,,[ASCIZ \
  6810	060634	440700	106257		TAG= \]
  6811						440700,,[ASCIZ \
  6812	060635	440700	106261		INS= \]
  6813						440700,,[ASCIZ \
  6814	060636	440700	106263		MISC=\]
  6815
  6816	060637	000000	144000		BTIMD:	144000
  6817	060640	000000	145000			145000
  6818	060641	000000	145400			145400
  6819	060642	000000	142400			142400
  6820
  6821	060643				PCWT:	440700,,[ASCIZ \
  6822	060643	440700	106265		WC=  \]
  6823						440700,,[ASCIZ \
  6824	060644	440700	106267		CA=  \]
  6825						440700,,[ASCIZ \
  6826	060645	440700	106271		PC=  \]
  6827						440700,,[ASCIZ \
  6828	060646	440700	106273		A3=  \]
  6829
  6830	060647				REGT:	440700,,[ASCIZ \
  6831	060647	440700	106275		R0=  \]
  6832						440700,,[ASCIZ \
  6833	060650	440700	106277		R1=  \]
  6834						440700,,[ASCIZ \
  6835	060651	440700	106301		R2=  \]
  6836						440700,,[ASCIZ \
  6837	060652	440700	106303		R3=  \]
  6838
  6839	060653	000000	000000		PW0T1:	RDCCI
  6840	060654	000000	000010			RDMA
  6841	060655	000000	000020			RDMBL
  6842	060656	000000	000030			RDMBR
  6843	060657	000000	000040			RDCONI
  6844	060660	000000	000050			RDBITS
  6845
  6846	060661				PW0T2:	[ASCIZ /
  6847	060661	000000	106305		IARB=/]
  6848						[ASCIZ /
  6849	060662	000000	106307		MA=  /]
  6850						[ASCIZ /
  6851	060663	000000	106311		MBLT=/]
  6852						[ASCIZ /
  6853	060664	000000	106313		MBRT=/]
  6854						[ASCIZ /
  6855	060665	000000	106315		CONI=/]
  6856						[ASCIZ /
  6857	060666	000000	106317		BITS=/]
SA10 - DIAGNOSTIC FOR SYSTEMS CONCEPTS SA-10 IBM-TO-DEC SUBSYSTEM ADAPTOR	VER 1	MACRO %53B(1155)-2 14:34 14-Feb-86 Page 121
SA10N	MAC	17-Sep-74 22:01

  6858	060667	260 17 0 00 061113 	CSET:	PUSHJ P,CHNCHK
  6859	060670	304 00 0 00 000000 		CAIA
  6860	060671	202 01 0 00 060737 		MOVEM A,CHAN
  6861	060672	260 17 0 00 046577 		PUSHJ P,STEP0	;STOP CLOCK
  6862	060673	201 01 0 00 043700 		MOVEI A,43700	;XANC CA,MAGIC,0,LOAD
  6863	060674	260 17 0 00 046575 		PUSHJ P,C0XCT	;LOAD BASE ADR INTO CA
  6864	060675	201 01 0 00 042260 		MOVEI A,42260	;XANC CA,INCR,0,STWRD
  6865	060676	260 17 0 00 046575 		PUSHJ P,C0XCT	;LOAD CA INTO MA
  6866	060677	201 15 0 00 000010 		MCONO SA0,RDMA^	MOVEI DD,RDMA
  6867	060700	256 00 0 00 060621 		XCT DCONO
  6868						MDATAI SA0,A	^;READ IN BASE ADDRESS SWITCHES
  6869	060701	256 00 0 00 060624 		XCT DDATAI
  6870	060702	202 15 0 00 000001 		MOVEM DD,A
  6871						MCONO SA0,400000	^;START CLOCK
  6872	060703	201 15 0 00 400000 		MOVEI DD,400000
  6873	060704	256 00 0 00 060621 		XCT DCONO
  6874	060705	316 01 0 00 060627 		CAMN A,BASEA
  6875	060706	254 00 0 00 060712 		JRST CSET3	;IF BASE ADDRESS IS AS EXPECTED
  6876	060707	202 01 0 00 060627 		MOVEM A,BASEA	;OTHERWISE CHANGE IT
  6877						MOVEI C,[ASCIZ /BASE ADDR SW = %A
  6878	060710	201 03 0 00 106321 	/]
  6879	060711	260 17 0 00 060373 		PUSHJ P,STYO	;AND INFORM OPERATOR
  6880	060712	200 01 0 00 060737 	CSET3:	MOVE A,CHAN
  6881	060713	242 01 0 00 000002 		LSH A,2
  6882	060714	270 01 0 00 060627 		ADD A,BASEA
  6883	060715	202 01 0 00 060740 		MOVEM A,CBASE
  6884	060716	271 01 0 00 000001 		ADDI A,1
  6885	060717	202 01 0 00 060741 		MOVEM A,CBASE+1
  6886	060720	271 01 0 00 000001 		ADDI A,1
  6887	060721	202 01 0 00 060742 		MOVEM A,CBASE+2
  6888	060722	200 01 0 00 060737 		MOVE A,CHAN
  6889	060723	137 01 0 00 106325 		DPB A,[030200,,STBSYC]
  6890	060724	137 01 0 00 106326 		DPB A,[030200,,CLSTFC]
  6891	060725	137 01 0 00 106327 		DPB A,[030200,,STPIEC]
  6892	060726	137 01 0 00 106330 		DPB A,[030200,,STSRQC]
  6893	060727	137 01 0 00 106331 		DPB A,[030200,,SELRSC]
  6894	060730	200 01 0 01 060753 		MOVE A,STBTB(A)
  6895	060731	202 01 0 00 060750 		MOVEM A,STFLG
  6896	060732	242 01 0 00 000004 		LSH A,4
  6897	060733	202 01 0 00 060751 		MOVEM A,GOBIT
  6898	060734	242 01 0 00 000004 		LSH A,4
  6899	060735	202 01 0 00 060752 		MOVEM A,PIEBIT
  6900	060736	263 17 0 00 000000 		POPJ P,0
  6901
  6902	060737	000000	000000		CHAN:	0
  6903	060740				CBASE:	BLOCK 3
  6904	060743	000000	000442		STBSYC:	STBSY+SA0CH
  6905	060744	000000	000602		CLSTFC:	CLSTF+SA0CH
  6906	060745	000000	000742		STPIEC:	STPIE+SA0CH
  6907	060746	000000	000542		STSRQC:	STSRQ+SA0CH
  6908	060747	000000	000342		SELRSC:	340+SA0CH
  6909	060750	000000	000000		STFLG:	0
  6910	060751	000000	000000		GOBIT:	0
  6911	060752	000000	000000		PIEBIT:	0
  6912
SA10 - DIAGNOSTIC FOR SYSTEMS CONCEPTS SA-10 IBM-TO-DEC SUBSYSTEM ADAPTOR	VER 1	MACRO %53B(1155)-2 14:34 14-Feb-86 Page 121-1
SA10N	MAC	17-Sep-74 22:01

  6913	060753	000000	000100		STBTB:	EXP STF0,STF1,STF2,STF3
  6914	060754	000000	000040
  6915	060755	000000	000020
  6916	060756	000000	000010
SA10 - DIAGNOSTIC FOR SYSTEMS CONCEPTS SA-10 IBM-TO-DEC SUBSYSTEM ADAPTOR	VER 1	MACRO %53B(1155)-2 14:34 14-Feb-86 Page 122
SA10N	MAC	17-Sep-74 22:01

  6917					;SUBCHANNEL SEQUENCE CHECK
  6918
  6919	060757	256 00 0 00 060622 	RDSEQ:	XCT DCONI
  6920	060760	607 15 0 00 000001 		TLNN DD,1
  6921	060761	254 00 0 00 061602 		JRST ERR1	;NO SA10
  6922	060762	260 17 0 00 061055 		PUSHJ P,RDSQ1	;GET SEQUENCE
  6923	060763	316 02 0 00 061071 		CAMN B,CURSEQ
  6924	060764	263 17 0 00 000000 		POPJ P,		;SAME AS BEFORE
  6925	060765	202 02 0 00 061071 		MOVEM B,CURSEQ
  6926	060766	200 03 0 00 000002 		MOVE C,B
  6927	060767	137 03 0 00 106332 		DPB C,[POINT 2,C,3]
  6928	060770	242 03 0 00 777776 		LSH C,-2
  6929	060771	444 02 0 00 000003 		EQV B,C
  6930	060772	200 01 0 00 000002 		MOVE A,B
  6931	060773	242 01 0 00 777777 		LSH A,-1
  6932	060774	404 01 0 00 000002 		AND A,B
  6933	060775	612 01 0 00 106333 		TDNE A,[12525252525]
  6934	060776	254 00 0 00 061066 		JRST SEQERR	;SAME CHAN SERVED TWICE IN A ROW
  6935	060777	201 01 0 00 000002 		MOVEI A,2
  6936	061000	137 03 0 00 106332 	RDSQL3:	DPB C,[POINT 2,C,3]
  6937	061001	242 03 0 00 777776 		LSH C,-2
  6938	061002	312 03 0 00 061071 		CAME C,CURSEQ	;FIND LENGTH OF SEQUENCE
  6939	061003	344 01 0 00 061000 		AOJA A,RDSQL3
  6940	061004	202 01 0 00 061072 		MOVEM A,SEQLEN
  6941	061005	200 02 0 00 106334 		MOVE B,[POINT 2,CURSEQ,3]
  6942	061006	201 04 0 00 000000 		MOVEI D,0
  6943	061007	134 03 0 00 000002 	RDSQL4:	ILDB C,B
  6944	061010	200 03 0 03 061102 		MOVE C,SQITAB(C)
  6945	061011	272 03 0 00 061072 		ADDM C,SEQLEN	;COUNT SHARE FOR EACH CHAN
  6946	061012	676 04 0 00 000003 		TDON D,C
  6947	061013	271 04 0 00 000001 		ADDI D,1	;COUNT CHANS ACTIVE
  6948	061014	367 01 0 00 061007 		SOJG A,RDSQL4
  6949	061015	137 04 0 00 061100 		DPB D,NCHNP
  6950	061016	200 03 0 00 000004 		MOVE C,D
  6951	061017	405 04 0 00 000007 		ANDI D,7
  6952	061020	312 03 0 04 061106 		CAME C,LSQTAB(D)
  6953	061021	254 00 0 00 061066 		JRST SEQERR	;ILLEG COMB OF CHANS
  6954	061022	201 03 0 00 106335 		MOVEI C,[ASCIZ /%D-CH SA10/]
  6955	061023	260 17 0 00 060373 		PUSHJ P,STYO
  6956	061024	200 04 0 00 061073 		MOVE D,SEQCTI
  6957	061025	134 01 0 00 000004 	RDSQL5:	ILDB A,D
  6958	061026	322 01 0 00 060372 		JUMPE A,CR
  6959	061027	135 02 0 00 061101 		LDB B,SEQLNP
  6960	061030	260 17 0 00 061144 		PUSHJ P,GCD
  6961	061031	135 05 0 00 000004 		LDB E,D
  6962	061032	230 05 0 00 000001 		IDIV E,A	;REDUCE USAGE FRACTION
  6963	061033	135 06 0 00 106340 		LDB F,[POINT 6,SEQLEN,35]
  6964	061034	230 06 0 00 000001 		IDIV F,A
  6965	061035	201 03 0 00 106341 		MOVEI C,[ASCIZ !, $E/$F!]
  6966	061036	260 17 0 00 060373 		PUSHJ P,STYO	;PRINT ITS SHARE
  6967	061037	603 04 0 00 600000 		TLNE D,600000
  6968	061040	254 00 0 00 061025 		JRST RDSQL5
  6969	061041	254 00 0 00 060372 		JRST CR
SA10 - DIAGNOSTIC FOR SYSTEMS CONCEPTS SA-10 IBM-TO-DEC SUBSYSTEM ADAPTOR	VER 1	MACRO %53B(1155)-2 14:34 14-Feb-86 Page 123
SA10N	MAC	17-Sep-74 22:01

  6970					;GET SUBCHANNEL SEQUENCE
  6971	061042	200 02 0 00 106332 	RDSQ0:	MOVE B,[POINT 2,C,3]
  6972	061043	201 03 0 00 000000 		MOVEI C,0
  6973	061044	201 15 0 00 001000 	RDSQL1:	MCONO SA0,SASTEP!RDCCI^	MOVEI DD,SASTEP!RDCCI
  6974	061045	256 00 0 00 060621 		XCT DCONO
  6975	061046	256 00 0 00 060624 		MDATAI SA0,A^	XCT DDATAI
  6976	061047	202 15 0 00 000001 		MOVEM DD,A
  6977	061050	554 01 0 00 000001 		HLRZ A,A
  6978	061051	136 01 0 00 000002 		IDPB A,B	;STORE 16 TICKS WORTH OF SEQUENCE
  6979	061052	603 02 0 00 770000 		TLNE B,770000
  6980	061053	254 00 0 00 061044 		JRST RDSQL1
  6981	061054	263 17 0 00 000000 		POPJ P,
  6982
  6983					;GET SEQUENCE IN NORMALIZED FORM
  6984	061055	260 17 0 00 061042 	RDSQ1:	PUSHJ P,RDSQ0
  6985	061056	200 02 0 00 000003 		MOVE B,C
  6986	061057	201 01 0 00 000020 		MOVEI A,20
  6987	061060	137 03 0 00 106332 	RDSQL2:	DPB C,[POINT 2,C,3]
  6988	061061	242 03 0 00 777776 		LSH C,-2
  6989	061062	315 03 0 00 000002 		CAMGE C,B
  6990	061063	200 02 0 00 000003 		MOVE B,C	;FIND LOWEST-VALUED ROTATION OF SEQUENCE
  6991	061064	367 01 0 00 061060 		SOJG A,RDSQL2
  6992	061065	263 17 0 00 000000 		POPJ P,
  6993
  6994	061066	211 04 0 00 000001 	SEQERR:	MOVNI D,1
  6995	061067	250 04 0 00 061071 		EXCH D,CURSEQ
  6996	061070	254 00 0 00 061607 		JRST ERR2
  6997
  6998	061071	777777	777777		CURSEQ:	-1
  6999	061072	000000	000000		SEQLEN:	0
  7000	061073	44 06 0 00 061072 	SEQCTI:	POINT 6,SEQLEN
  7001	061074	36 06 0 00 061072 	SEQCNT:	POINT 6,SEQLEN,5
  7002	061075	30 06 0 00 061072 		POINT 6,SEQLEN,11
  7003	061076	22 06 0 00 061072 		POINT 6,SEQLEN,17
  7004	061077	14 06 0 00 061072 		POINT 6,SEQLEN,23
  7005	061100	06 06 0 00 061072 	NCHNP:	POINT 6,SEQLEN,29
  7006	061101	00 06 0 00 061072 	SEQLNP:	POINT 6,SEQLEN,35
  7007
  7008	061102	010000	000000		SQITAB:	EXP 1B5,1B11,1B17,1B23
  7009	061103	000100	000000
  7010	061104	000001	000000
  7011	061105	000000	010000
  7012	061106	777777	777777		LSQTAB:	EXP -1,1B5+1,1B5+1B11+2,1B5+1B11+1B17+3,1B5+1B11+1B17+1B23+4
  7013	061107	010000	000001
  7014	061110	010100	000002
  7015	061111	010101	000003
  7016	061112	010101	010004
  7017
  7018	061113	260 17 0 00 060605 	CHNCHK:	PUSHJ P,SETSAA	;MAKE SURE WE HAVE THE RIGHT SA10
  7019	061114	331 00 0 00 061071 		SKIPL CURSEQ
  7020	061115	254 00 0 00 061137 		JRST CHNCK2
  7021						PIRP <	PUSH P,>,<A,B,C,D,E,F,G>^IRP
  7022	061116	261 17 0 00 000001 		PUSH P,A
  7023	061117	261 17 0 00 000002 		PUSH P,B
  7024	061120	261 17 0 00 000003 		PUSH P,C
SA10 - DIAGNOSTIC FOR SYSTEMS CONCEPTS SA-10 IBM-TO-DEC SUBSYSTEM ADAPTOR	VER 1	MACRO %53B(1155)-2 14:34 14-Feb-86 Page 123-1
SA10N	MAC	17-Sep-74 22:01

  7025	061121	261 17 0 00 000004 		PUSH P,D
  7026	061122	261 17 0 00 000005 		PUSH P,E
  7027	061123	261 17 0 00 000006 		PUSH P,F
  7028	061124	261 17 0 00 000007 		PUSH P,G
  7029	061125	205 01 0 00 400000 		MOVSI A,(1B0)
  7030	061126	412 01 0 00 061071 		ANDCAM A,CURSEQ
  7031	061127	260 17 0 00 060757 		PUSHJ P,RDSEQ
  7032						PIRP <	POP P,>,<G,F,E,D,C,B,A>^IRP
  7033	061130	262 17 0 00 000007 		POP P,G
  7034	061131	262 17 0 00 000006 		POP P,F
  7035	061132	262 17 0 00 000005 		POP P,E
  7036	061133	262 17 0 00 000004 		POP P,D
  7037	061134	262 17 0 00 000003 		POP P,C
  7038	061135	262 17 0 00 000002 		POP P,B
  7039	061136	262 17 0 00 000001 		POP P,A
  7040	061137	135 00 0 00 061100 	CHNCK2:	LDB NCHNP
  7041	061140	321 01 0 00 060537 		JUMPL A,CPOPJ
  7042	061141	313 00 0 00 000001 		CAMLE A
  7043	061142	350 00 0 17 000000 		AOS (P)
  7044	061143	263 17 0 00 000000 		POPJ P,
  7045
  7046	061144	313 01 0 00 000002 	GCD:	CAMLE A,B
  7047	061145	250 01 0 00 000002 	GCD1:	EXCH A,B
  7048	061146	230 02 0 00 000001 		IDIV B,A
  7049	061147	322 03 0 00 060537 		JUMPE C,CPOPJ
  7050	061150	200 02 0 00 000003 		MOVE B,C
  7051	061151	254 00 0 00 061145 		JRST GCD1
SA10 - DIAGNOSTIC FOR SYSTEMS CONCEPTS SA-10 IBM-TO-DEC SUBSYSTEM ADAPTOR	VER 1	MACRO %53B(1155)-2 14:34 14-Feb-86 Page 124
SA10N	MAC	17-Sep-74 22:01

  7052	061152	000000	000000		INT1:	0
  7053	061153	201 11 0 00 000001 		MOVEI I,1
  7054	061154	312 11 0 00 061242 		CAME I,PIE	;ARE WE EXPECTING AN INTERRUPT ON THIS CHANNEL?
  7055	061155	254 00 0 00 062163 		JRST ERR31	;NO
  7056						MCONO SA0,CLSTF(B)	^;REMOVE THE CAUSE FOR THIS INTERRUPT
  7057	061156	201 15 0 02 000600 		MOVEI DD,CLSTF(B)
  7058	061157	256 00 0 00 060621 		XCT DCONO
  7059								;(MAIN PROGRAM HAS SET B UP)
  7060	061160	402 00 0 00 061242 		CLEARM PIE	;NOTE THAT NO FURTHER INTERRUPTS ARE EX-
  7061								;PECTED, ALSO TELL MAIN PROGRAM THAT ONE
  7062								;INTERRUPT DID OCCUR
  7063	061161	254 12 1 00 061152 		JRST 12,@INT1
  7064
  7065	061162	000000	000000		INT2:	0
  7066	061163	201 11 0 00 000002 		MOVEI I,2
  7067	061164	312 11 0 00 061242 		CAME I,PIE
  7068	061165	254 00 0 00 062163 		JRST ERR32
  7069	061166	201 15 0 02 000600 		MCONO SA0,CLSTF(B)^	MOVEI DD,CLSTF(B)
  7070	061167	256 00 0 00 060621 		XCT DCONO
  7071	061170	402 00 0 00 061242 		CLEARM PIE
  7072	061171	254 12 1 00 061162 		JRST 12,@INT2
  7073
  7074	061172	000000	000000		INT3:	0
  7075	061173	201 11 0 00 000003 		MOVEI I,3
  7076	061174	312 11 0 00 061242 		CAME I,PIE
  7077	061175	254 00 0 00 062163 		JRST ERR33
  7078	061176	201 15 0 02 000600 		MCONO SA0,CLSTF(B)^	MOVEI DD,CLSTF(B)
  7079	061177	256 00 0 00 060621 		XCT DCONO
  7080	061200	402 00 0 00 061242 		CLEARM PIE
  7081	061201	254 12 1 00 061172 		JRST 12,@INT3
  7082
  7083	061202	000000	000000		INT4:	0
  7084	061203	201 11 0 00 000004 		MOVEI I,4
  7085	061204	312 11 0 00 061242 		CAME I,PIE
  7086	061205	254 00 0 00 062163 		JRST ERR34
  7087	061206	201 15 0 02 000600 		MCONO SA0,CLSTF(B)^	MOVEI DD,CLSTF(B)
  7088	061207	256 00 0 00 060621 		XCT DCONO
  7089	061210	402 00 0 00 061242 		CLEARM PIE
  7090	061211	254 12 1 00 061202 		JRST 12,@INT4
  7091
  7092	061212	000000	000000		INT5:	0
  7093	061213	201 11 0 00 000005 		MOVEI I,5
  7094	061214	312 11 0 00 061242 		CAME I,PIE
  7095	061215	254 00 0 00 062163 		JRST ERR35
  7096	061216	201 15 0 02 000600 		MCONO SA0,CLSTF(B)^	MOVEI DD,CLSTF(B)
  7097	061217	256 00 0 00 060621 		XCT DCONO
  7098	061220	402 00 0 00 061242 		CLEARM PIE
  7099	061221	254 12 1 00 061212 		JRST 12,@INT5
  7100
  7101
SA10 - DIAGNOSTIC FOR SYSTEMS CONCEPTS SA-10 IBM-TO-DEC SUBSYSTEM ADAPTOR	VER 1	MACRO %53B(1155)-2 14:34 14-Feb-86 Page 125
SA10N	MAC	17-Sep-74 22:01

  7102	061222	000000	000000		INT6:	0
  7103	061223	201 11 0 00 000006 		MOVEI I,6
  7104	061224	312 11 0 00 061242 		CAME I,PIE
  7105	061225	254 00 0 00 062163 		JRST ERR36
  7106	061226	201 15 0 02 000600 		MCONO SA0,CLSTF(B)^	MOVEI DD,CLSTF(B)
  7107	061227	256 00 0 00 060621 		XCT DCONO
  7108	061230	402 00 0 00 061242 		CLEARM PIE
  7109	061231	254 12 1 00 061222 		JRST 12,@INT6
  7110
  7111	061232	000000	000000		INT7:	0
  7112	061233	201 11 0 00 000007 		MOVEI I,7
  7113	061234	312 11 0 00 061242 		CAME I,PIE
  7114	061235	254 00 0 00 062163 		JRST ERR37
  7115	061236	201 15 0 02 000600 		MCONO SA0,CLSTF(B)^	MOVEI DD,CLSTF(B)
  7116	061237	256 00 0 00 060621 		XCT DCONO
  7117	061240	402 00 0 00 061242 		CLEARM PIE
  7118	061241	254 12 1 00 061232 		JRST 12,@INT7
  7119
  7120	061242	000000	000000		PIE:	0	;CHANNEL ON WHICH INTERRUPT IS EXPECTED
  7121	061243	000000	000000		UUOH:	0
  7122	061244	370 00 0 00 061243 	UUOH1:	SOS UUOH
  7123	061245	264 00 0 00 061420 		JSR RRR
  7124	061246	201 03 0 00 106343 		MOVEI	C,[ASCIZ/ERR#100-/]
  7125						[ASCIZ /
  7126	061247	000000	106345		UUO AT /]
  7127	061250	000000	061243			UUOH
  7128	061251	000000	000000			0
  7129	061252	000000000000#			DDT
  7130
  7131	061253	250 01 0 00 000425 	MUUOH:	EXCH A,UPT+425	;MUUO ADDRESS
  7132	061254	202 01 0 00 061243 		MOVEM A,UUOH
  7133	061255	250 01 0 00 000425 		EXCH A,UPT+425
  7134	061256	254 00 0 00 061244 		JRST UUOH1
  7135
  7136	061257	000000	000000		PAGEH:	0
  7137	061260	264 00 0 00 061420 		JSR RRR
  7138	061261	201 03 0 00 104510 		MOVEI	C,[ASCIZ/ERR#101-/]
  7139						[ASCIZ /
  7140	061262	000000	106347		PAGE FAULT AT /]
  7141	061263	000000	061257			PAGEH
  7142	061264	000000	000000			0
  7143	061265	000000000000#			DDT
  7144
  7145	061266	7 000 30 1 00 050261 	PAGEKL:	CONSZ APR,@NXMBIT
  7146	061267	254 00 0 00 061274 		JRST PAGNXM
  7147	061270	250 01 0 00 000501 	PAGKL2:	EXCH A,EPT+501
  7148	061271	202 01 0 00 061257 		MOVEM A,PAGEH
  7149	061272	250 01 0 00 000501 		EXCH A,EPT+501
  7150	061273	254 00 0 00 061260 		JRST PAGEH+1
  7151
  7152	061274	202 01 0 00 061257 	PAGNXM:	MOVEM A,PAGEH
  7153	061275	135 01 0 00 106353 		LDB A,[POINT 5,500,5]	;NXM ON - SEE WHAT KIND OF FAULT
  7154	061276	302 01 0 00 000036 		CAIE A,36
  7155	061277	254 00 0 00 061270 		JRST PAGKL2
  7156	061300	200 01 0 00 061257 		MOVE A,PAGEH	;AR DATA PAR ERR FROM NXM - IGNORE FAULT
SA10 - DIAGNOSTIC FOR SYSTEMS CONCEPTS SA-10 IBM-TO-DEC SUBSYSTEM ADAPTOR	VER 1	MACRO %53B(1155)-2 14:34 14-Feb-86 Page 125-1
SA10N	MAC	17-Sep-74 22:01

  7157	061301	350 00 0 00 000501 		AOS 501
  7158	061302	254 02 1 00 000501 		JRSTF @501	;RETURN PAST NXM INSTR
  7159
  7160	061303	000000	000000		PDLH:	0
  7161	061304	200 17 0 00 104043 		MOVE P,[-LPDL,,PDL-1]
  7162	061305	370 00 0 00 061303 		SOS PDLH
  7163	061306	264 00 0 00 061420 		JSR RRR
  7164	061307	201 03 0 00 104522 		MOVEI	C,[ASCIZ/ERR#102-/]
  7165						[ASCIZ /
  7166	061310	000000	106354		PDL OVERFLOW AT /]
  7167	061311	000000	061303			PDLH
  7168	061312	000000	000000			0
  7169	061313	000000000000#			DDT
  7170
  7171	061314	250 01 0 00 051367 	PDLINT:	EXCH A,APRI
  7172	061315	202 01 0 00 061303 		MOVEM A,PDLH
  7173	061316	250 01 0 00 051367 		EXCH A,APRI
  7174	061317	254 00 0 00 061304 		JRST PDLH+1
SA10 - DIAGNOSTIC FOR SYSTEMS CONCEPTS SA-10 IBM-TO-DEC SUBSYSTEM ADAPTOR	VER 1	MACRO %53B(1155)-2 14:34 14-Feb-86 Page 126
SA10N	MAC	17-Sep-74 22:01

  7175					;WRAPAROUND TESTS;  PUT SPECIAL JUMPER CABLE BETWEEN BUS-IN AND BUS-OUT OF CHANNEL N
  7176					;  THEN GO TO WRAPN
  7177
  7178	061320	201 07 0 00 000000 	WRAP0:	MOVEI G,0
  7179	061321	254 00 0 00 061327 		JRST WRP
  7180
  7181	061322	201 07 0 00 000001 	WRAP1:	MOVEI G,1
  7182	061323	254 00 0 00 061327 		JRST WRP
  7183
  7184	061324	201 07 0 00 000002 	WRAP2:	MOVEI G,2
  7185	061325	254 00 0 00 061327 		JRST WRP
  7186	061326	201 07 0 00 000003 	WRAP3:	MOVEI G,3
  7187
  7188	061327	201 01 0 00 000010 	WRP:	MOVEI A,^D8	;8 BIT POSITIONS TO CHECK
  7189	061330	260 17 0 00 062527 		PUSHJ P,PTN
  7190	061331	135 04 0 00 106360 		LDB D,[1000,,A]	;RIGHT 8 BITS
  7191	061332	201 01 0 00 002400 	WRP2:	MOVEI A,2400	;PULSE 01
  7192	061333	260 17 0 00 046572 		PUSHJ P,CXXCT	;RESET OP STATUS BITS
  7193	061334	200 01 0 00 000004 		MOVE A,D	;DATA BYTE
  7194	061335	260 17 0 00 061412 		PUSHJ P,PARITY	;COMPUTE ODD PARITY
  7195	061336	200 01 0 00 000004 		MOVE A,D
  7196	061337	137 02 0 00 106361 		DPB B,[100100,,A]	;PUT PAR BIT LEFT OF DATA BITS
  7197	061340	242 01 0 00 777777 		LSH A,-1	;AND SHIFT RIGHT 1 BIT
  7198	061341	202 01 0 00 061673 		MOVEM A,WRAPV	;EXPECTED DATA BYTE
  7199	061342	200 01 0 00 000004 		MOVE A,D
  7200	061343	260 17 0 00 046572 		PUSHJ P,CXXCT	;DO GOTO WITH INITIAL BYTE
  7201	061344	201 01 0 00 040120 		MOVEI A,40120
  7202	061345	260 17 0 00 046572 		PUSHJ P,CXXCT	;DO IARB TO BUS OUT
  7203	061346	201 01 0 00 144000 		MOVEI A,144000
  7204						MDATAO SA0,A	^;ROUTE BUS IN TO C BUS
  7205	061347	200 15 0 00 000001 		MOVE DD,A
  7206	061350	256 00 0 00 060623 		XCT DDATAO
  7207	061351	201 15 0 00 000000 		MCONO SA0,RDCCI^	MOVEI DD,RDCCI
  7208	061352	256 00 0 00 060621 		XCT DCONO
  7209						MDATAI SA0,B	^;READ IN CBUS, ETC.
  7210	061353	256 00 0 00 060624 		XCT DDATAI
  7211	061354	202 15 0 00 000002 		MOVEM DD,B
  7212	061355	135 02 0 00 106362 		LDB B,[121000,,B]	;EXTRACT C BUS
  7213	061356	312 02 0 00 061673 		CAME B,WRAPV	;THE MOMENT OF TRUTH
  7214	061357	254 00 0 00 062221 		JRST ERR42
  7215	061360	256 00 0 00 050277 	WRP4:	LOOP ^D42,^	XCT	RDSWS		;GO GET SWITCHES
  7216	061361	607 15 0 00 040000 		TLNN	DD,40000
  7217	061362	254 00 0 00 061366 		JRST .+4
  7218	061363	260 17 0 00 052642 		PUSHJ P,CHKCNC
  7219	061364	254 00 0 00 044300 		JRST CI0
  7220	061365	254 00 0 00 000052 		JRST ^D42
  7221	061366	000000	061332		^WRP2	;IF LOOPING TEST, USE SAME DATA
  7222	061367	260 17 0 00 046562 		PUSHJ P,STEPX	;DO THE BUSIN TO CBUS
  7223	061370	201 01 0 00 145400 		MOVEI A,145400
  7224						MDATAO SA0,A	^;ROUTE OP STATUS BITS TO CBUS
  7225	061371	200 15 0 00 000001 		MOVE DD,A
  7226	061372	256 00 0 00 060623 		XCT DDATAO
  7227	061373	201 15 0 00 000000 		MCONO SA0,RDCCI^	MOVEI DD,RDCCI
  7228	061374	256 00 0 00 060621 		XCT DCONO
  7229						MDATAI SA0,C	^;READ IN CBUS, ETC.
SA10 - DIAGNOSTIC FOR SYSTEMS CONCEPTS SA-10 IBM-TO-DEC SUBSYSTEM ADAPTOR	VER 1	MACRO %53B(1155)-2 14:34 14-Feb-86 Page 126-1
SA10N	MAC	17-Sep-74 22:01

  7230	061375	256 00 0 00 060624 		XCT DDATAI
  7231	061376	202 15 0 00 000003 		MOVEM DD,C
  7232	061377	602 03 0 00 040000 		TRNE C,40000	;BUS IN PAR ERR?
  7233	061400	254 00 0 00 062231 		JRST ERR43	;YES
  7234	061401	256 00 0 00 050277 	WRP6:	LOOP ^D43,^	XCT	RDSWS		;GO GET SWITCHES
  7235	061402	607 15 0 00 040000 		TLNN	DD,40000
  7236	061403	254 00 0 00 061407 		JRST .+4
  7237	061404	260 17 0 00 052642 		PUSHJ P,CHKCNC
  7238	061405	254 00 0 00 044300 		JRST CI0
  7239	061406	254 00 0 00 000053 		JRST ^D43
  7240	061407	000000	061332		^WRP2	;TRY AGAIN IF LOOPING
  7241	061410	264 00 0 00 062525 		JSR PTN0	;DO NEXT DATA VALUE
  7242	061411	254 00 0 00 057462*		JRST DDT	;WHEN ALL DONE
  7243					;GENERATE ODD PARITY OF WORD IN A
  7244					;  LEAVES 0 IN A, 0 OR 1 IN B
  7245	061412	201 02 0 00 000000 	PARITY:	MOVEI B,0
  7246	061413	602 01 0 00 000001 	PARIT1:	TRNE A,1
  7247	061414	640 02 0 00 000001 		TRC B,1
  7248	061415	242 01 0 00 777777 		LSH A,-1
  7249	061416	326 01 0 00 061413 		JUMPN A,PARIT1
  7250	061417	263 17 0 00 000000 		POPJ P,
SA10 - DIAGNOSTIC FOR SYSTEMS CONCEPTS SA-10 IBM-TO-DEC SUBSYSTEM ADAPTOR	VER 1	MACRO %53B(1155)-2 14:34 14-Feb-86 Page 127
SA10N	MAC	17-Sep-74 22:01

  7251					EXTERN DDT
  7252
  7253	061420	000000	000000		RRR:	0
  7254	061421	202 01 0 00 061514 		MOVEM A,SAVA
  7255	061422	202 02 0 00 061515 		MOVEM B,SAVB
  7256	061423	202 03 0 00 061516 		MOVEM C,SAVC
  7257	061424	202 04 0 00 061517 		MOVEM D,SAVD
  7258	061425	256 00 1 00 061420 		XCT	@RRR			;DO THE INSRTUCTION FOLLOWING JSR
  7259	061426	260 17 0 00 061503 		PUSHJ P,RRRT
  7260	061427	254 00 0 00 061432 		JRST RRR2	;IF TYPEOUT SUPPRESSED
  7261	061430	260 17 0 00 060373 		PUSHJ P,STYO
  7262	061431	200 04 0 00 061517 		MOVE D,SAVD
  7263	061432	350 03 0 00 061420 	RRR2:	AOS C,RRR
  7264	061433	336 03 0 03 000000 		SKIPN C,(C)
  7265	061434	254 00 0 00 061460 		JRST RRR8
  7266	061435	260 17 0 00 061503 		PUSHJ P,RRRT
  7267	061436	254 00 0 00 061440 		JRST RRR3	;IF NO PRINTOUT
  7268	061437	260 17 0 00 060373 		PUSHJ P,STYO
  7269	061440	350 03 0 00 061420 	RRR3:	AOS C,RRR
  7270	061441	336 03 0 03 000000 		SKIPN C,(C)
  7271	061442	254 00 0 00 061460 		JRST RRR8
  7272	061443	260 17 0 00 061503 		PUSHJ P,RRRT
  7273	061444	254 00 0 00 061432 		JRST RRR2	;IF NO PRINTOUT
  7274	061445	607 03 0 00 777777 		TLNN C,777777
  7275	061446	254 00 0 00 061455 		JRST RRR4
  7276	061447	261 17 0 00 000005 		PUSH P,E	;SAVE E
  7277	061450	554 04 0 00 000003 		HLRZ D,C
  7278	061451	200 05 0 03 000000 		MOVE E,(C)
  7279	061452	260 17 0 00 047433 		PUSHJ P,PBITS	;PRINT TEXT FOR EACH BIT ON
  7280	061453	262 17 0 00 000005 		POP P,E	;RESTORE E
  7281	061454	254 00 0 00 061432 		JRST RRR2
  7282
  7283	061455	200 01 0 03 000000 	RRR4:	MOVE A,(C)
  7284	061456	260 17 0 00 060511 		PUSHJ P,OPT
  7285	061457	254 00 0 00 061432 		JRST RRR2
  7286
  7287	061460	350 03 0 00 061420 	RRR8:	AOS C,RRR
  7288	061461	200 03 0 03 000000 		MOVE C,(C)
  7289	061462	542 03 0 00 061420 		HRRM C,RRR
  7290						MOVEI C,[ASCIZ /
  7291	061463	201 03 0 00 104046 	/]
  7292	061464	256 00 0 00 050277 		XCT	RDSWS
  7293	061465	607 15 0 00 040000 		TLNN	DD,40000		;INHIBIT PRINT?
  7294	061466	260 17 0 00 060373 		PUSHJ P,STYO
  7295	061467	200 04 0 00 061517 	RRR9:	MOVE D,SAVD
  7296	061470	200 03 0 00 061516 		MOVE C,SAVC
  7297	061471	200 02 0 00 061515 		MOVE B,SAVB
  7298	061472	607 15 0 00 400000 		TLNN	DD,400000		;RETURN TO COMMAND LEVEL?
  7299	061473	260 17 0 00 052642 		PUSHJ P,CHKCNC			;ALWAYS STOP ON CTRL-C
  7300	061474	254 00 0 00 044300 		 JRST CI0
  7301	061475	254 00 0 00 061500 		JRST RRR95
  7302	061476	200 01 0 00 061514 		MOVE A,SAVA
  7303	061477	254 00 1 00 061420 		JRST @RRR
  7304
  7305	061500	200 01 0 00 061514 	RRR95:	MOVE A,SAVA
SA10 - DIAGNOSTIC FOR SYSTEMS CONCEPTS SA-10 IBM-TO-DEC SUBSYSTEM ADAPTOR	VER 1	MACRO %53B(1155)-2 14:34 14-Feb-86 Page 127-1
SA10N	MAC	17-Sep-74 22:01

  7306	061501	254 00 0 00 061411*	RRRB:	JRST DDT
  7307	061502	254 00 1 00 061420 		JRST @RRR
SA10 - DIAGNOSTIC FOR SYSTEMS CONCEPTS SA-10 IBM-TO-DEC SUBSYSTEM ADAPTOR	VER 1	MACRO %53B(1155)-2 14:34 14-Feb-86 Page 128
SA10N	MAC	17-Sep-74 22:01

  7308	061503	256 00 0 00 050277 	RRRT:	XCT	RDSWS
  7309	061504	201 02 0 00 000207 		MOVEI	B,207			;BELL CHAR.
  7310	061505	607 15 0 00 010000 		TLNN	DD,10000		;RING BELL ON ERROR
  7311	061506	256 00 0 00 050275 		XCT	TYOSKP
  7312	061507	254 00 0 00 061511 		JRST RRRT3	;IF TTY BUSY
  7313	061510	256 00 0 00 050276 		XCT TYOGO
  7314	061511	607 15 0 00 040000 	RRRT3:	TLNN	DD,40000	;INHIBIT PRINTOUT?
  7315	061512	350 00 0 17 000000 		AOS (P)				;NO
  7316	061513	263 17 0 00 000000 		POPJ P,
  7317	061514	000000	000000		SAVA:	0
  7318	061515	000000	000000		SAVB:	0
  7319	061516	000000	000000		SAVC:	0
  7320	061517	000000	000000		SAVD:	0
  7321	061520	000000	000010		TESTWD:	10
  7322
  7323	061521	256 00 0 00 060622 	ERR8:	MCONI SA0,A^	XCT DCONI
  7324	061522	202 15 0 00 000001 		MOVEM DD,A
  7325	061523	242 01 0 00 777761 		LSH A,-17	;SOME BITS
  7326	061524	137 01 0 00 106363 		DPB A,[50200,,ERR8P2]
  7327	061525	201 15 0 00 000010 		MCONO SA0,RDMA^	MOVEI DD,RDMA
  7328	061526	256 00 0 00 060621 		XCT DCONO
  7329	061527	256 00 0 00 060624 		MDATAI SA0,ERR8PA^	XCT DDATAI
  7330	061530	202 15 0 00 061570 		MOVEM DD,ERR8PA
  7331	061531	200 01 0 00 104035 		MOVE A,MEMSTS
  7332	061532	137 01 0 00 106364 	IFG CV,	DPB A,[POINT 2,ERR8PA,15]	;HIGH ADR BITS
  7333	061533	242 01 0 00 777763 		LSH A,-15	;MORE BITS
  7334	061534	137 01 0 00 106365 		DPB A,[500,,ERR8P2]
  7335	061535	201 15 0 00 200020 		MCONO SA0,RDMBL+CLMERR^	MOVEI DD,RDMBL+CLMERR
  7336	061536	256 00 0 00 060621 		XCT DCONO
  7337	061537	256 00 0 00 060624 		MDATAI SA0,ERR8P0^	XCT DDATAI
  7338	061540	202 15 0 00 061571 		MOVEM DD,ERR8P0
  7339	061541	201 15 0 00 000030 		MCONO SA0,RDMBR^	MOVEI DD,RDMBR
  7340	061542	256 00 0 00 060621 		XCT DCONO
  7341	061543	256 00 0 00 060624 		MDATAI SA0,ERR8P1^	XCT DDATAI
  7342	061544	202 15 0 00 061572 		MOVEM DD,ERR8P1
  7343	061545	264 00 0 00 061420 		JSR RRR
  7344	061546	201 03 0 00 106366 		MOVEI	C,[ASCIZ/ERR#8-/]
  7345	061547	000000	106370			[ASCIZ /MEM READ TIMEOUT: ADR=/]
  7346	061550	000000	061570			ERR8PA
  7347	061551	000000	106375			[ASCIZ /, MBL=/]
  7348	061552	000000	061571			ERR8P0
  7349	061553	000000	106377			[ASCIZ /, MBR=/]
  7350	061554	000000	061572			ERR8P1
  7351						[ASCIZ /;
  7352	061555	000000	106401		/]
  7353	061556	061561	061573			ERR8T,,ERR8P2
  7354	061557	000000	000000			0
  7355	061560	000000	062547			PTN9
  7356
  7357	061561	000000	106402		ERR8T:	[ASCIZ /MEM DONE SYNC/]
  7358	061562	000000	106405			[ASCIZ /MEM BUS DONE/]
  7359	061563	000000	106410			[ASCIZ /MEM ACK/]
  7360	061564	000000	106412			[ASCIZ /MUX ACK/]
  7361	061565	000000	106414			[ASCIZ /WR RQ/]
  7362	061566	000000	106104			[ASCIZ /NXM/]
SA10 - DIAGNOSTIC FOR SYSTEMS CONCEPTS SA-10 IBM-TO-DEC SUBSYSTEM ADAPTOR	VER 1	MACRO %53B(1155)-2 14:34 14-Feb-86 Page 128-1
SA10N	MAC	17-Sep-74 22:01

  7363	061567	000000	106416			[ASCIZ /PAR ERR/]
  7364	061570	000000	000000		ERR8PA:	0
  7365	061571	000000	000000		ERR8P0:	0
  7366	061572	000000	000000		ERR8P1:	0
  7367	061573	000000	000000		ERR8P2:	0
SA10 - DIAGNOSTIC FOR SYSTEMS CONCEPTS SA-10 IBM-TO-DEC SUBSYSTEM ADAPTOR	VER 1	MACRO %53B(1155)-2 14:34 14-Feb-86 Page 129
SA10N	MAC	17-Sep-74 22:01

  7368	061574	264 00 0 00 061420 	ERR30:	JSR RRR
  7369	061575	201 03 0 00 106420 		MOVEI	C,[ASCIZ/ERR#30-/]
  7370	061576	000000	106422			[ASCIZ /DATAI /]
  7371	061577	000000	061516			SAVC
  7372	061600	000000	000000			0
  7373	061601	000000	046534			BEGS
  7374
  7375	061602	264 00 0 00 061420 	ERR1:	JSR RRR
  7376	061603	201 03 0 00 106424 		MOVEI	C,[ASCIZ/ERR#1-/]
  7377	061604	000000	106426			[ASCIZ /SA10 OFF-LINE/]
  7378	061605	000000	000000			0
  7379	061606	000000	060757			RDSEQ
  7380
  7381	061607	264 00 0 00 061420 	ERR2:	JSR RRR
  7382	061610	201 03 0 00 106431 		MOVEI	C,[ASCIZ/ERR#2-/]
  7383	061611	000000	106433			[ASCIZ /ILLEGAL CHANNEL SEQUENCE: %4@D/]
  7384	061612	000000	000000			0
  7385	061613	000000	060757			RDSEQ
  7386
  7387	061614	200 05 0 00 000003 	ERR3:	MOVE E,C
  7388	061615	264 00 0 00 061420 		JSR RRR
  7389	061616	201 03 0 00 106442 		MOVEI	C,[ASCIZ/ERR#3-/]
  7390	061617	000000	106444			[ASCIZ /CHANNEL SEQUENCE TOO LONG, %4@D BECAME %4@E/]
  7391	061620	000000	000000			0
  7392	061621	000000	044661			BEG1
  7393
  7394	061622	264 00 0 00 061420 	ERR4:	JSR RRR
  7395	061623	201 03 0 00 106455 		MOVEI	C,[ASCIZ/ERR#4-/]
  7396	061624	000000	106457			[ASCIZ /IAR WROTE /]
  7397	061625	000000	061515			SAVB
  7398	061626	000000	106462			[ASCIZ /, READ /]
  7399	061627	000000	061514			SAVA
  7400	061630	000000	000000			0
  7401	061631	000000	044707			IARL1
  7402
  7403	061632	264 00 0 00 061420 	ERR5:	JSR RRR
  7404	061633	201 03 0 00 106464 		MOVEI	C,[ASCIZ/ERR#5-/]
  7405	061634	000000	106466			[ASCIZ /WROTE IAR /]
  7406	061635	000000	061515			SAVB
  7407	061636	000000	106471			[ASCIZ /, READ CBUS /]
  7408	061637	000000	061514			SAVA
  7409	061640	000000	000000			0
  7410	061641	000000	044726			IARL2
  7411
  7412	061642	264 00 0 00 061420 	ERR40:	JSR RRR
  7413	061643	201 03 0 00 106474 		MOVEI	C,[ASCIZ/ERR#40-/]
  7414	061644	000000	106476			[ASCIZ /WROTE 0 IN R3 TO MBL, READ /]
  7415	061645	000000	061514			SAVA
  7416	061646	000000	000000			0
  7417	061647	000000	044747			SZER1
SA10 - DIAGNOSTIC FOR SYSTEMS CONCEPTS SA-10 IBM-TO-DEC SUBSYSTEM ADAPTOR	VER 1	MACRO %53B(1155)-2 14:34 14-Feb-86 Page 130
SA10N	MAC	17-Sep-74 22:01

  7418	061650	264 00 0 00 061420 	ERR11:	JSR RRR
  7419	061651	201 03 0 00 106504 		MOVEI	C,[ASCIZ/ERR#11-/]
  7420	061652	000000	106506			[ASCIZ /WROTE /]
  7421	061653	000000	046533			MAMBTA
  7422	061654	000000	106510			[ASCIZ / IN R2 TO MA, READ /]
  7423	061655	000000	061516			SAVC
  7424	061656	000000	000000			0
  7425	061657	000000	045003			MAMB1A
  7426
  7427	061660	264 00 0 00 061420 	ERR6:	JSR RRR
  7428	061661	201 03 0 00 106514 		MOVEI	C,[ASCIZ/ERR#6-/]
  7429	061662	000000	106506			[ASCIZ /WROTE /]
  7430	061663	000000	061670			MAMBTL
  7431	061664	000000	106516			[ASCIZ / IN R2 TO MBL, READ /]
  7432	061665	000000	061515			SAVB
  7433	061666	000000	000000			0
  7434	061667	000000	045020			MAMB2
  7435
  7436	061670	000000	000000		MAMBTL:	0
  7437	061671	000000	000000		MAMBTR:	0
  7438	061672	000000	000000		INCTW:	0
  7439	061673	000000	000000		WRAPV:	0
  7440	061674	000000	000000		ERR28V:	0
  7441	061675	000000	000000		CWTA:	0
  7442	061676	000000	000000		CWTB:	0
  7443	061677	554 02 0 00 000001 	ERR7:	HLRZ B,A
  7444	061700	264 00 0 00 061420 		JSR RRR
  7445	061701	201 03 0 00 106523 		MOVEI	C,[ASCIZ/ERR#7-/]
  7446	061702	000000	106525			[ASCIZ /CHAN /]
  7447	061703	000000	061515			SAVB
  7448	061704	000000	106527			[ASCIZ / HAS MEM/]
  7449	061705	000000	000000			0
  7450	061706	000000	045030			MAMB3
  7451
  7452	061707	264 00 0 00 061420 	ERR12:	JSR RRR
  7453	061710	201 03 0 00 106531 		MOVEI	C,[ASCIZ/ERR#12-/]
  7454	061711	000000	106506			[ASCIZ /WROTE /]
  7455	061712	000000	061671			MAMBTR
  7456	061713	000000	106533			[ASCIZ / IN R2 TO MBR, READ /]
  7457	061714	000000	061514			SAVA
  7458	061715	000000	000000			0
  7459	061716	000000	045044			MAMB4
  7460
  7461	061717	264 00 0 00 061420 	ERR9:	JSR RRR
  7462	061720	201 03 0 00 106540 		MOVEI	C,[ASCIZ/ERR#9-/]
  7463	061721	000000	106542			[ASCIZ /MEM WRITE TOOK TOO MANY TICKS/]
  7464	061722	000000	000000			0
  7465	061723	000000	045744			TAT5
  7466
  7467	061724	264 00 0 00 061420 	ERR10:	JSR RRR
  7468	061725	201 03 0 00 106550 		MOVEI	C,[ASCIZ/ERR#10-/]
  7469	061726	000000	106552			[ASCIZ /TRIED TO WRITE %F IN /]
  7470	061727	000000	061517			SAVD
  7471	061730	000000	106557			[ASCIZ /, WHICH CONTAINS %E/]
  7472	061731	000000	000000			0
SA10 - DIAGNOSTIC FOR SYSTEMS CONCEPTS SA-10 IBM-TO-DEC SUBSYSTEM ADAPTOR	VER 1	MACRO %53B(1155)-2 14:34 14-Feb-86 Page 130-1
SA10N	MAC	17-Sep-74 22:01

  7473	061732	000000	045762			TAT7
SA10 - DIAGNOSTIC FOR SYSTEMS CONCEPTS SA-10 IBM-TO-DEC SUBSYSTEM ADAPTOR	VER 1	MACRO %53B(1155)-2 14:34 14-Feb-86 Page 131
SA10N	MAC	17-Sep-74 22:01

  7474	061733	201 05 0 00 000003 	ERR28:	MOVEI E,3
  7475	061734	274 05 0 00 000006 		SUB E,F
  7476	061735	202 05 0 00 061674 		MOVEM E,ERR28V
  7477	061736	201 05 0 00 000003 		MOVEI E,3
  7478	061737	274 05 0 00 000002 		SUB E,B
  7479	061740	264 00 0 00 061420 		JSR RRR
  7480	061741	201 03 0 00 106563 		MOVEI	C,[ASCIZ/ERR#28-/]
  7481	061742	000000	106525			[ASCIZ /CHAN /]
  7482	061743	000000	000007			G
  7483	061744	000000	106565			[ASCIZ /, WORD /]
  7484	061745	000000	061674			ERR28V
  7485	061746	000000	106567			[ASCIZ /, BYTE /]
  7486	061747	000000	000005			E
  7487	061750	000000	104525			[ASCIZ / WROTE /]
  7488	061751	000000	061517			SAVD
  7489	061752	000000	106462			[ASCIZ /, READ /]
  7490	061753	000000	061514			SAVA
  7491	061754	000000	000000			0
  7492	061755	000000	045150			CWT2A
  7493
  7494	061756	264 00 0 00 061420 	ERR13:	JSR RRR
  7495	061757	201 03 0 00 106571 		MOVEI	C,[ASCIZ/ERR#13-/]
  7496	061760	000000	106525			[ASCIZ /CHAN /]
  7497	061761	000000	061516			SAVC
  7498	061762	000000	106573			[ASCIZ / CAN'T SET PIE/]
  7499	061763	000000	000000			0
  7500	061764	000000	045256			STCL1A
  7501
  7502	061765	264 00 0 00 061420 	ERR14:	JSR RRR
  7503	061766	201 03 0 00 106576 		MOVEI	C,[ASCIZ/ERR#14-/]
  7504	061767	000000	106525			[ASCIZ /CHAN /]
  7505	061770	000000	061516			SAVC
  7506	061771	000000	106600			[ASCIZ / CAN'T CLEAR PIE/]
  7507	061772	000000	000000			0
  7508	061773	000000	045263			STCL1B
  7509
  7510	061774	264 00 0 00 061420 	ERR15:	JSR RRR
  7511	061775	201 03 0 00 106604 		MOVEI	C,[ASCIZ/ERR#15-/]
  7512	061776	000000	106525			[ASCIZ /CHAN /]
  7513	061777	000000	061516			SAVC
  7514	062000	000000	106606			[ASCIZ / CAN'T SET BUSY/]
  7515	062001	000000	000000			0
  7516	062002	000000	045271			STCL1C
  7517
  7518	062003	264 00 0 00 061420 	ERR16:	JSR RRR
  7519	062004	201 03 0 00 106612 		MOVEI	C,[ASCIZ/ERR#16-/]
  7520	062005	000000	106525			[ASCIZ /CHAN /]
  7521	062006	000000	061516			SAVC
  7522	062007	000000	106614			[ASCIZ / CAN'T CLEAR BUSY/]
  7523	062010	000000	000000			0
  7524	062011	000000	045276			STCL1D
SA10 - DIAGNOSTIC FOR SYSTEMS CONCEPTS SA-10 IBM-TO-DEC SUBSYSTEM ADAPTOR	VER 1	MACRO %53B(1155)-2 14:34 14-Feb-86 Page 132
SA10N	MAC	17-Sep-74 22:01

  7525	062012	264 00 0 00 061420 	ERR17:	JSR RRR
  7526	062013	201 03 0 00 106620 		MOVEI	C,[ASCIZ/ERR#17-/]
  7527	062014	000000	106525			[ASCIZ /CHAN /]
  7528	062015	000000	061516			SAVC
  7529	062016	000000	106622			[ASCIZ / CAN'T SET STATUS FLAG/]
  7530	062017	000000	000000			0
  7531	062020	000000	045304			STCL1E
  7532
  7533	062021	264 00 0 00 061420 	ERR18:	JSR RRR
  7534	062022	201 03 0 00 106627 		MOVEI	C,[ASCIZ/ERR#18-/]
  7535	062023	000000	106525			[ASCIZ /CHAN /]
  7536	062024	000000	061516			SAVC
  7537	062025	000000	106631			[ASCIZ / CAN'T CLEAR STATUS FLAG/]
  7538	062026	000000	000000			0
  7539	062027	000000	045311			STCL1F
  7540
  7541	062030	200 03 0 02 062637 	ERR19:	MOVE C,STCLM(B)
  7542	062031	264 00 0 00 061420 		JSR RRR
  7543	062032	201 03 0 00 106636 		MOVEI	C,[ASCIZ/ERR#19-/]
  7544	062033	000000	106640			[ASCIZ /CAN'T DO /]
  7545	062034	000000	061516			SAVC
  7546	062035	000000	000000			0
  7547	062036	000000	045334			STCLM3
  7548
  7549	062037	200 03 0 02 062637 	ERR20:	MOVE C,STCLM(B)
  7550	062040	275 03 0 00 004000 		SUBI C,4000
  7551	062041	264 00 0 00 061420 		JSR RRR
  7552	062042	201 03 0 00 106642 		MOVEI	C,[ASCIZ/ERR#20-/]
  7553	062043	000000	106640			[ASCIZ /CAN'T DO /]
  7554	062044	000000	061516			SAVC
  7555	062045	000000	000000			0
  7556	062046	000000	045342			STCLM4
  7557
  7558	062047	264 00 0 00 061420 	ERR21:	JSR RRR
  7559	062050	201 03 0 00 106644 		MOVEI	C,[ASCIZ/ERR#21-/]
  7560	062051	000000	106525			[ASCIZ /CHAN /]
  7561	062052	000000	000007			G
  7562	062053	000000	106646			[ASCIZ / FIFO NOT EMPTY/]
  7563	062054	000000	000000			0
  7564	062055	000000	045367			FIFO1A
  7565
  7566	062056	264 00 0 00 061420 	ERR22:	JSR RRR
  7567	062057	201 03 0 00 106652 		MOVEI	C,[ASCIZ/ERR#22-/]
  7568	062060	000000	106525			[ASCIZ /CHAN /]
  7569	062061	000000	000007			G
  7570	062062	000000	106654			[ASCIZ / FIFO EMPTY/]
  7571	062063	000000	000000			0
  7572	062064	000000	045413			FIFO2A
  7573
  7574	062065	264 00 0 00 061420 	ERR24:	JSR RRR
  7575	062066	201 03 0 00 106657 		MOVEI	C,[ASCIZ/ERR#24-/]
  7576	062067	000000	106525			[ASCIZ /CHAN /]
  7577	062070	000000	000007			G
  7578	062071	000000	106661			[ASCIZ / FIFO NOT FULL/]
  7579	062072	000000	000000			0
SA10 - DIAGNOSTIC FOR SYSTEMS CONCEPTS SA-10 IBM-TO-DEC SUBSYSTEM ADAPTOR	VER 1	MACRO %53B(1155)-2 14:34 14-Feb-86 Page 132-1
SA10N	MAC	17-Sep-74 22:01

  7580	062073	000000	045426			FIFO2B
  7581
  7582	062074	264 00 0 00 061420 	ERR25:	JSR RRR
  7583	062075	201 03 0 00 106664 		MOVEI	C,[ASCIZ/ERR#25-/]
  7584	062076	000000	106525			[ASCIZ /CHAN /]
  7585	062077	000000	000007			G
  7586	062100	000000	106646			[ASCIZ / FIFO NOT EMPTY/]
  7587	062101	000000	000000			0
  7588	062102	000000	045451			FIFO3A
  7589
  7590	062103	264 00 0 00 061420 	ERR26:	JSR RRR
  7591	062104	201 03 0 00 106666 		MOVEI	C,[ASCIZ/ERR#26-/]
  7592	062105	000000	106525			[ASCIZ /CHAN /]
  7593	062106	000000	000007			G
  7594	062107	000000	106654			[ASCIZ / FIFO EMPTY/]
  7595	062110	000000	000000			0
  7596	062111	000000	045466			FIFO4A
SA10 - DIAGNOSTIC FOR SYSTEMS CONCEPTS SA-10 IBM-TO-DEC SUBSYSTEM ADAPTOR	VER 1	MACRO %53B(1155)-2 14:34 14-Feb-86 Page 133
SA10N	MAC	17-Sep-74 22:01

  7597	062112	201 03 0 00 000020 	ERR27:	MOVEI C,NBF
  7598	062113	274 03 0 00 000004 		SUB C,D
  7599	062114	264 00 0 00 061420 		JSR RRR
  7600	062115	201 03 0 00 106670 		MOVEI	C,[ASCIZ/ERR#27-/]
  7601	062116	000000	106525			[ASCIZ /CHAN /]
  7602	062117	000000	000007			G
  7603	062120	000000	106565			[ASCIZ /, WORD /]
  7604	062121	000000	061516			SAVC
  7605	062122	000000	104525			[ASCIZ / WROTE /]
  7606	062123	000000	000010			H
  7607	062124	000000	106462			[ASCIZ /, READ /]
  7608	062125	000000	061514			SAVA
  7609	062126	000000	000000			0
  7610	062127	000000	045507			FIFO4B
  7611
  7612	062130	264 00 0 00 061420 	ERR23:	JSR RRR
  7613	062131	201 03 0 00 106672 		MOVEI	C,[ASCIZ/ERR#23-/]
  7614	062132	000000	106525			[ASCIZ /CHAN /]
  7615	062133	000000	000007			G
  7616	062134	000000	106646			[ASCIZ / FIFO NOT EMPTY/]
  7617	062135	000000	000000			0
  7618	062136	000000	045522			FIFO4C
  7619
  7620	062137	264 00 0 00 061420 	ERR29:	JSR RRR
  7621	062140	201 03 0 00 106674 		MOVEI	C,[ASCIZ/ERR#29-/]
  7622	062141	000000	106676			[ASCIZ /INTERRUPT REQ/]
  7623	062142	000000	000000			0
  7624	062143	000000	045551			PITST1
  7625
  7626	062144	200 03 0 00 000002 	ERR38:	MOVE C,B
  7627	062145	137 02 0 00 106701 		DPB B,[300,,ERR38B]
  7628	062146	241 03 0 00 777775 		ROT C,-3
  7629	062147	137 03 0 00 106702 		DPB C,[200,,ERR38A]
  7630	062150	264 00 0 00 061420 		JSR RRR
  7631	062151	201 03 0 00 106703 		MOVEI	C,[ASCIZ/ERR#38-/]
  7632	062152	000000	106705			[ASCIZ /SA-10 CHAN /]
  7633	062153	000000	062161			ERR38A
  7634	062154	000000	106710			[ASCIZ /, PI CHAN /]
  7635	062155	000000	062162			ERR38B
  7636	062156	000000	106713			[ASCIZ / DOESN'T INTERRUPT/]
  7637	062157	000000	000000			0
  7638	062160	000000	045601			PIT3A
  7639
  7640	062161	000000	000000		ERR38A:	0
  7641	062162	000000	000000		ERR38B:	0
  7642
  7643	062163				ERR31:
  7644	062163				ERR32:
  7645	062163				ERR33:
  7646	062163				ERR34:
  7647	062163				ERR35:
  7648	062163				ERR36:
  7649	062163	264 00 0 00 061420 	ERR37:	JSR RRR
  7650	062164	201 03 0 00 106717 		MOVEI	C,[ASCIZ/ERR#31-37-/]
  7651	062165	000000	106722			[ASCIZ /PIA /]
SA10 - DIAGNOSTIC FOR SYSTEMS CONCEPTS SA-10 IBM-TO-DEC SUBSYSTEM ADAPTOR	VER 1	MACRO %53B(1155)-2 14:34 14-Feb-86 Page 133-1
SA10N	MAC	17-Sep-74 22:01

  7652	062166	000000	000011			I
  7653	062167	000000	106723			[ASCIZ / INTERRUPTED, /]
  7654	062170	000000	061242			PIE
  7655	062171	000000	106726			[ASCIZ / EXPECTED/]
  7656	062172	000000	000000			0
  7657	062173	000000	044300			CI0
SA10 - DIAGNOSTIC FOR SYSTEMS CONCEPTS SA-10 IBM-TO-DEC SUBSYSTEM ADAPTOR	VER 1	MACRO %53B(1155)-2 14:34 14-Feb-86 Page 134
SA10N	MAC	17-Sep-74 22:01

  7658	062174	430 01 0 00 061672 	ERR39:	XOR A,INCTW
  7659	062175	200 03 0 00 061672 		MOVE C,INCTW
  7660	062176	621 03 0 00 777760 		TLZ C,777760
  7661	062177	264 00 0 00 061420 		JSR RRR
  7662	062200	201 03 0 00 106730 		MOVEI	C,[ASCIZ/ERR#39-/]
  7663	062201	000000	106732			[ASCIZ ?INC/DEC EXPECTED ?]
  7664	062202	000000	061516			SAVC
  7665	062203	000000	106462			[ASCIZ /, READ /]
  7666	062204	000000	061514			SAVA
  7667	062205	000000	000000			0
  7668	062206	000000	045217			INCT4
  7669
  7670	062207	264 00 0 00 061420 	ERR41:	JSR RRR
  7671	062210	201 03 0 00 106736 		MOVEI	C,[ASCIZ/ERR#41-/]
  7672	062211	000000	106740			[ASCIZ /UCODE LOC /]
  7673	062212	000000	061515			SAVB
  7674	062213	000000	106743			[ASCIZ / ADDR /]
  7675	062214	000000	061516			SAVC
  7676	062215	000000	106745			[ASCIZ / JUMPED TO /]
  7677	062216	000000	061514			SAVA
  7678	062217	000000	000000			0
  7679	062220	000000	045627			UCT7
  7680
  7681	062221	264 00 0 00 061420 	ERR42:	JSR RRR
  7682	062222	201 03 0 00 106750 		MOVEI	C,[ASCIZ/ERR#42-/]
  7683	062223	000000	106752			[ASCIZ /EXPECTED /]
  7684	062224	000000	061673			WRAPV
  7685	062225	000000	106754			[ASCIZ /, READ/]
  7686	062226	000000	061515			SAVB
  7687	062227	000000	000000			0
  7688	062230	000000	061360			WRP4
  7689
  7690	062231	264 00 0 00 061420 	ERR43:	JSR RRR
  7691	062232	201 03 0 00 106756 		MOVEI	C,[ASCIZ/ERR#43-/]
  7692	062233	000000	106760			[ASCIZ /BUS IN PAR ERR/]
  7693	062234	000000	000000			0
  7694	062235	000000	061401			WRP6
  7695
  7696	062236	264 00 0 00 061420 	ERR44:	JSR RRR
  7697	062237	201 03 0 00 106763 		MOVEI	C,[ASCIZ/ERR#44-/]
  7698	062240	000000	106765			[ASCIZ \CHAN %G NON-HARDWARE BUT MORE THAN 1/16\]
  7699	062241	000000	000000			0
  7700	062242	000000	060537			CPOPJ
  7701
  7702	062243	264 00 0 00 061420 	ERR50:	JSR RRR
  7703	062244	201 03 0 00 106775 		MOVEI	C,[ASCIZ/ERR#50-/]
  7704	062245	000000	106777			[ASCIZ /CONI SHOULD BE /]
  7705	062246	000000	104403			[1,,7]
  7706	062247	000000	107003			[ASCIZ /, IS /]
  7707	062250	000000	061514			SAVA
  7708	062251	000000	000000			0
  7709	062252	000000	062253			BTECI
  7710
  7711	062253	260 17 0 00 052642 	BTECI:	SLOOP^	PUSHJ P,CHKCNC
  7712	062254	254 00 0 00 044300 		JRST CI0
SA10 - DIAGNOSTIC FOR SYSTEMS CONCEPTS SA-10 IBM-TO-DEC SUBSYSTEM ADAPTOR	VER 1	MACRO %53B(1155)-2 14:34 14-Feb-86 Page 134-1
SA10N	MAC	17-Sep-74 22:01

  7713	062255	256 00 0 00 060622 	BTECI1:	MCONI SA0,A^	XCT DCONI
  7714	062256	202 15 0 00 000001 		MOVEM DD,A
  7715	062257	254 00 0 00 062253 		JRST BTECI
SA10 - DIAGNOSTIC FOR SYSTEMS CONCEPTS SA-10 IBM-TO-DEC SUBSYSTEM ADAPTOR	VER 1	MACRO %53B(1155)-2 14:34 14-Feb-86 Page 135
SA10N	MAC	17-Sep-74 22:01

  7716	062260	264 00 0 00 061420 	ERR51:	JSR RRR
  7717	062261	201 03 0 00 107005 		MOVEI	C,[ASCIZ/ERR#51-/]
  7718	062262	000000	107007			[ASCIZ /CONI FAILING/]
  7719	062263	000000	000000			0
  7720	062264	000000	062253			BTECI
  7721
  7722	062265	264 00 0 00 061420 	ERR52:	JSR RRR
  7723	062266	201 03 0 00 107012 		MOVEI	C,[ASCIZ/ERR#52-/]
  7724	062267	000000	107014			[ASCIZ /SA-10 INACCESSIBLE/]
  7725	062270	000000	000000			0
  7726	062271	000000	062253			BTECI
  7727
  7728	062272	264 00 0 00 061420 	ERR53:	JSR RRR
  7729	062273	201 03 0 00 107020 		MOVEI	C,[ASCIZ/ERR#53-/]
  7730	062274	000000	106777			[ASCIZ /CONI SHOULD BE /]
  7731	062275	000000	104404			[1,,0]
  7732	062276	000000	107003			[ASCIZ /, IS /]
  7733	062277	000000	061514			SAVA
  7734	062300	000000	000000			0
  7735	062301	000000	062302			BTECR
  7736
  7737	062302	260 17 0 00 052642 	BTECR:	SLOOP^	PUSHJ P,CHKCNC
  7738	062303	254 00 0 00 044300 		JRST CI0
  7739	062304	256 00 0 00 050257 		XCT APRST
  7740	062305	256 00 0 00 060622 		MCONI SA0,A^	XCT DCONI
  7741	062306	202 15 0 00 000001 		MOVEM DD,A
  7742	062307	254 00 0 00 062302 		JRST BTECR
  7743
  7744	062310	135 04 0 00 107022 	ERR54:	LDB D,[301100,,B]
  7745	062311	620 04 0 00 000003 		TRZ D,3
  7746	062312	264 00 0 00 061420 		JSR RRR
  7747	062313	201 03 0 00 107023 		MOVEI	C,[ASCIZ/ERR#54-/]
  7748	062314	000000	107025			[ASCIZ /DEVICE /]
  7749	062315	000000	061517			SAVD
  7750	062316	000000	107027			[ASCIZ / CONI GIVES /]
  7751	062317	000000	104404			[1,,0]
  7752	062320	000000	000000			0
  7753	062321	000000	062322			BTECW
  7754
  7755	062322	260 17 0 00 052642 	BTECW:	SLOOP^	PUSHJ P,CHKCNC
  7756	062323	254 00 0 00 044300 		JRST CI0
  7757	062324	256 00 0 00 061515 		XCT SAVB
  7758	062325	254 00 0 00 062322 		JRST BTECW
  7759
  7760	062326	264 00 0 00 061420 	ERR55:	JSR RRR
  7761	062327	201 03 0 00 107032 		MOVEI	C,[ASCIZ/ERR#55-/]
  7762	062330	000000	107034			[ASCIZ /CONO 7 GIVES CONI /]
  7763	062331	000000	061514			SAVA
  7764	062332	000000	000000			0
  7765	062333	000000	062334			BTECC
  7766
  7767	062334	260 17 0 00 052642 	BTECC:	SLOOP^	PUSHJ P,CHKCNC
  7768	062335	254 00 0 00 044300 		JRST CI0
  7769	062336	201 15 0 00 000007 		MCONO SA0,7^	MOVEI DD,7
  7770	062337	256 00 0 00 060621 		XCT DCONO
SA10 - DIAGNOSTIC FOR SYSTEMS CONCEPTS SA-10 IBM-TO-DEC SUBSYSTEM ADAPTOR	VER 1	MACRO %53B(1155)-2 14:34 14-Feb-86 Page 135-1
SA10N	MAC	17-Sep-74 22:01

  7771	062340	256 00 0 00 060622 		MCONI SA0,A^	XCT DCONI
  7772	062341	202 15 0 00 000001 		MOVEM DD,A
  7773	062342	254 00 0 00 062334 		JRST BTECC
SA10 - DIAGNOSTIC FOR SYSTEMS CONCEPTS SA-10 IBM-TO-DEC SUBSYSTEM ADAPTOR	VER 1	MACRO %53B(1155)-2 14:34 14-Feb-86 Page 136
SA10N	MAC	17-Sep-74 22:01

  7774	062343	264 00 0 00 061420 	ERR56:	JSR RRR
  7775	062344	201 03 0 00 107040 		MOVEI	C,[ASCIZ/ERR#56-/]
  7776	062345	000000	107042			[ASCIZ /RESET GIVES CONI /]
  7777	062346	000000	061514			SAVA
  7778	062347	000000	000000			0
  7779	062350	000000	062351			BTERC
  7780
  7781	062351	260 17 0 00 052642 	BTERC:	SLOOP^	PUSHJ P,CHKCNC
  7782	062352	254 00 0 00 044300 		JRST CI0
  7783	062353	201 15 0 00 000007 		MCONO SA0,7^	MOVEI DD,7
  7784	062354	256 00 0 00 060621 		XCT DCONO
  7785	062355	256 00 0 00 050257 		XCT APRST
  7786	062356	254 00 0 00 062351 		JRST BTERC
  7787
  7788	062357	264 00 0 00 061420 	ERR57:	JSR RRR
  7789	062360	201 03 0 00 107046 		MOVEI	C,[ASCIZ/ERR#57-/]
  7790	062361	000000	107050			[ASCIZ /CONO RDCONI+7 GIVES DATAI /]
  7791	062362	000000	061514			SAVA
  7792	062363	000000	107056			[ASCIZ /, SHOULD BE /]
  7793	062364	000000	104406			[2,,7]
  7794	062365	000000	000000			0
  7795	062366	000000	062367			BTEDI
  7796
  7797	062367	260 17 0 00 052642 	BTEDI:	SLOOP^	PUSHJ P,CHKCNC
  7798	062370	254 00 0 00 044300 		JRST CI0
  7799	062371	256 00 0 00 060624 		MDATAI SA0,A^	XCT DDATAI
  7800	062372	202 15 0 00 000001 		MOVEM DD,A
  7801	062373	254 00 0 00 062367 		JRST BTEDI
  7802
  7803	062374	264 00 0 00 061420 	ERR58:	JSR RRR
  7804	062375	201 03 0 00 107061 		MOVEI	C,[ASCIZ/ERR#58-/]
  7805	062376	000000	107063			[ASCIZ /CONO RDCONI+SASTEP GIVES DATAI /]
  7806	062377	000000	061514			SAVA
  7807	062400	000000	000000			0
  7808	062401	000000	062437			BTESD
SA10 - DIAGNOSTIC FOR SYSTEMS CONCEPTS SA-10 IBM-TO-DEC SUBSYSTEM ADAPTOR	VER 1	MACRO %53B(1155)-2 14:34 14-Feb-86 Page 137
SA10N	MAC	17-Sep-74 22:01

  7809	062402	264 00 0 00 061420 	ERR60:	JSR RRR
  7810	062403	201 03 0 00 107072 		MOVEI	C,[ASCIZ/ERR#60-/]
  7811	062404	000000	107074			[ASCIZ /PORT MUX ACKN DOESN'T SET/]
  7812	062405	000000	000000			0
  7813	062406	000000	046347			MUXRQ1
  7814
  7815	062407	264 00 0 00 061420 	ERR61:	JSR RRR
  7816	062410	201 03 0 00 107102 		MOVEI	C,[ASCIZ/ERR#61-/]
  7817	062411	000000	107104			[ASCIZ /PORT MUX ACKN DOESN'T CLEAR/]
  7818	062412	000000	000000			0
  7819	062413	000000	046367			MXT2
  7820
  7821	062414	264 00 0 00 061420 	ERR62:	JSR RRR
  7822	062415	201 03 0 00 107112 		MOVEI	C,[ASCIZ/ERR#62-/]
  7823	062416	000000	107114			[ASCIZ /MEM PAR ERR NOT DETECTED/]
  7824	062417	000000	000000			0
  7825	062420	000000	046426			MPE3
  7826
  7827	062421	264 00 0 00 061420 	ERR63:	JSR RRR
  7828	062422	201 03 0 00 107121 		MOVEI	C,[ASCIZ/ERR#63-/]
  7829	062423	000000	107123			[ASCIZ /NXM CYCLE COMPLETED AT /]
  7830	062424	000000	000005			E
  7831	062425	000000	000000			0
  7832	062426	000000	046531			NXMT3
  7833
  7834	062427	264 00 0 00 061420 	ERR64:	JSR RRR
  7835	062430	201 03 0 00 107130 		MOVEI	C,[ASCIZ/ERR#64-/]
  7836	062431	000000	107132			[ASCIZ /NON-NXM ERR DATAI /]
  7837	062432	000000	061514			SAVA
  7838	062433	000000	107136			[ASCIZ / DOING READ FROM /]
  7839	062434	000000	000005			E
  7840	062435	000000	000000			0
  7841	062436	000000	046531			NXMT3
  7842
  7843	062437	260 17 0 00 052642 	BTESD:	SLOOP^	PUSHJ P,CHKCNC
  7844	062440	254 00 0 00 044300 		JRST CI0
  7845	062441	201 15 0 00 001000 		MCONO SA0,SASTEP^	MOVEI DD,SASTEP
  7846	062442	256 00 0 00 060621 		XCT DCONO
  7847	062443	201 15 0 00 000040 		MCONO SA0,RDCONI^	MOVEI DD,RDCONI
  7848	062444	256 00 0 00 060621 		XCT DCONO
  7849	062445	256 00 0 00 060624 		MDATAI SA0,A^	XCT DDATAI
  7850	062446	202 15 0 00 000001 		MOVEM DD,A
  7851	062447	254 00 0 00 062437 		JRST BTESD
SA10 - DIAGNOSTIC FOR SYSTEMS CONCEPTS SA-10 IBM-TO-DEC SUBSYSTEM ADAPTOR	VER 1	MACRO %53B(1155)-2 14:34 14-Feb-86 Page 138
SA10N	MAC	17-Sep-74 22:01

  7852	062450	264 00 0 00 061420 	ERR65:	JSR RRR
  7853	062451	201 03 0 00 107142 		MOVEI	C,[ASCIZ/ERR#65-/]
  7854	062452	000000	107144			[ASCIZ /READ DATA /]
  7855	062453	000000	046164			TBTV
  7856	062454	000000	107147			[ASCIZ / FROM LOC /]
  7857	062455	000000	061517			SAVD
  7858	062456	000000	107152			[ASCIZ / AS %E/]
  7859	062457	000000	000000			0
  7860	062460	000000	062547			PTN9
  7861
  7862	062461	264 00 0 00 061420 	ERR66:	JSR RRR
  7863	062462	201 03 0 00 107154 		MOVEI	C,[ASCIZ/ERR#66-/]
  7864	062463	000000	107156			[ASCIZ /READ CLOBBERS LOC /]
  7865	062464	000000	061517			SAVD
  7866	062465	000000	107162			[ASCIZ / TO %F/]
  7867	062466	000000	000000			0
  7868	062467	000000	062547			PTN9
  7869
  7870	062470	264 00 0 00 061420 	ERR67:	JSR RRR
  7871	062471	201 03 0 00 107164 		MOVEI	C,[ASCIZ/ERR#67-/]
  7872	062472	000000	107166			[ASCIZ /READ DATA %F IN R0 AS %E/]
  7873	062473	000000	000000			0
  7874	062474	000000	062547			PTN9
  7875
  7876	062475	264 00 0 00 061420 	ERR68:	JSR RRR
  7877	062476	201 03 0 00 107173 		MOVEI	C,[ASCIZ/ERR#68-/]
  7878	062477	000000	107175			[ASCIZ /MEM USER IS %E, EXPECTED %G/]
  7879	062500	000000	000000			0
  7880	062501	000000	046015			TBT1B
  7881
  7882	062502	264 00 0 00 061420 	ERR70:	JSR RRR
  7883	062503	201 03 0 00 107203 		MOVEI	C,[ASCIZ/ERR#70-/]
  7884	062504	000000	107205			[ASCIZ /CHAN %G MRB=%E, SHOULD BE /]
  7885	062505	000000	046164			TBTV
  7886	062506	000000	000000			0
  7887	062507	000000	046046			TBT4
  7888
  7889	062510	264 00 0 00 061420 	ERR71:	JSR RRR
  7890	062511	201 03 0 00 107213 		MOVEI	C,[ASCIZ/ERR#71-/]
  7891	062512	000000	107215			[ASCIZ /CHAN %G R REG %J = %E, SHOULD BE /]
  7892	062513	000000	046164			TBTV
  7893	062514	000000	000000			0
  7894	062515	000000	046115			TCT4A
  7895
  7896	062516	264 00 0 00 061420 	ERR72:	JSR RRR
  7897	062517	201 03 0 00 107224 		MOVEI	C,[ASCIZ/ERR#72-/]
  7898	062520	000000	107226			[ASCIZ /CHAN %G A REG %J= /]
  7899	062521	000000	046165			TCTV
  7900	062522	000000	107232			[ASCIZ /, SHOULD BE %E/]
  7901	062523	000000	000000			0
  7902	062524	000000	046150			TCT4B
SA10 - DIAGNOSTIC FOR SYSTEMS CONCEPTS SA-10 IBM-TO-DEC SUBSYSTEM ADAPTOR	VER 1	MACRO %53B(1155)-2 14:34 14-Feb-86 Page 139
SA10N	MAC	17-Sep-74 22:01

  7903	062525	000000	000000		PTN0:	0	;CALLED BY JSR
  7904	062526	254 00 0 00 062534 		JRST PTN1	;ON TO NEXT VALUE
  7905
  7906	062527	000000	000000		PTN:	0
  7907	062530	271 01 0 00 062555 		ADDI A,PTNTX	;BEG OF SINGLE BITS IN TABLE
  7908	062531	202 01 0 00 062621 		MOVEM A,PTNA	;WHERE IN TABLE TO STOP
  7909	062532	201 01 0 00 062550 		MOVEI A,PTNT-1
  7910	062533	202 01 0 00 062622 		MOVEM A,PTNP	;INITIALIZE POINTER
  7911	062534	350 01 0 00 062622 	PTN1:	AOS A,PTNP
  7912	062535	311 01 0 00 062621 		CAML A,PTNA	;AT END OF DATA?
  7913	062536	254 00 0 00 062542 		JRST PTN5	;YES, MAKE 1 RANDOM #
  7914	062537	200 01 0 01 000000 		MOVE A,(A)	;NO, TAKE ENTRY FROM TABLE
  7915	062540	202 01 0 00 062623 		MOVEM A,PTNV	;SAVE VALUE
  7916	062541	254 00 1 00 062527 		JRST @PTN	;EXIT TO TOP OF LOOP
  7917
  7918	062542	312 01 0 00 062621 	PTN5:	CAME A,PTNA	;GIVEN RANDOM VALUE YET?
  7919	062543	254 00 1 00 062525 		JRST @PTN0	;YES, EXIT TO BOTTOM OF LOOP
  7920	062544	201 01 0 00 000105 		MOVEI A,105	;NO, MAKE IT NOW
  7921	062545	163 01 0 00 047407 		FMPB A,RNDM
  7922	062546	254 00 1 00 062527 		JRST @PTN	;AND EXIT TO TOP OF LOOP
  7923
  7924	062547	200 01 0 00 062623 	PTN9:	MOVE A,PTNV	;DO LAST VALUE AGAIN
  7925	062550	254 00 1 00 062527 		JRST @PTN
  7926
  7927	062551	000000	000000		PTNT:	0
  7928	062552	777777	777777			-1
  7929	062553	252525	252525			252525,,252525
  7930	062554	525252	525252			525252,,525252
  7931	062555				PTNTX:	REPEAT ^D36,<	EXP 1B<PTNTX-.+^D35>>
  7932	062555	000000	000001			EXP 1B<PTNTX-.+^D35>
  7933	062556	000000	000002			EXP 1B<PTNTX-.+^D35>
  7934	062557	000000	000004			EXP 1B<PTNTX-.+^D35>
  7935	062560	000000	000010			EXP 1B<PTNTX-.+^D35>
  7936	062561	000000	000020			EXP 1B<PTNTX-.+^D35>
  7937	062562	000000	000040			EXP 1B<PTNTX-.+^D35>
  7938	062563	000000	000100			EXP 1B<PTNTX-.+^D35>
  7939	062564	000000	000200			EXP 1B<PTNTX-.+^D35>
  7940	062565	000000	000400			EXP 1B<PTNTX-.+^D35>
  7941	062566	000000	001000			EXP 1B<PTNTX-.+^D35>
  7942	062567	000000	002000			EXP 1B<PTNTX-.+^D35>
  7943	062570	000000	004000			EXP 1B<PTNTX-.+^D35>
  7944	062571	000000	010000			EXP 1B<PTNTX-.+^D35>
  7945	062572	000000	020000			EXP 1B<PTNTX-.+^D35>
  7946	062573	000000	040000			EXP 1B<PTNTX-.+^D35>
  7947	062574	000000	100000			EXP 1B<PTNTX-.+^D35>
  7948	062575	000000	200000			EXP 1B<PTNTX-.+^D35>
  7949	062576	000000	400000			EXP 1B<PTNTX-.+^D35>
  7950	062577	000001	000000			EXP 1B<PTNTX-.+^D35>
  7951	062600	000002	000000			EXP 1B<PTNTX-.+^D35>
  7952	062601	000004	000000			EXP 1B<PTNTX-.+^D35>
  7953	062602	000010	000000			EXP 1B<PTNTX-.+^D35>
  7954	062603	000020	000000			EXP 1B<PTNTX-.+^D35>
  7955	062604	000040	000000			EXP 1B<PTNTX-.+^D35>
  7956	062605	000100	000000			EXP 1B<PTNTX-.+^D35>
  7957	062606	000200	000000			EXP 1B<PTNTX-.+^D35>
SA10 - DIAGNOSTIC FOR SYSTEMS CONCEPTS SA-10 IBM-TO-DEC SUBSYSTEM ADAPTOR	VER 1	MACRO %53B(1155)-2 14:34 14-Feb-86 Page 139-1
SA10N	MAC	17-Sep-74 22:01

  7958	062607	000400	000000			EXP 1B<PTNTX-.+^D35>
  7959	062610	001000	000000			EXP 1B<PTNTX-.+^D35>
  7960	062611	002000	000000			EXP 1B<PTNTX-.+^D35>
  7961	062612	004000	000000			EXP 1B<PTNTX-.+^D35>
  7962	062613	010000	000000			EXP 1B<PTNTX-.+^D35>
  7963	062614	020000	000000			EXP 1B<PTNTX-.+^D35>
  7964	062615	040000	000000			EXP 1B<PTNTX-.+^D35>
  7965	062616	100000	000000			EXP 1B<PTNTX-.+^D35>
  7966	062617	200000	000000			EXP 1B<PTNTX-.+^D35>
  7967	062620	400000	000000			EXP 1B<PTNTX-.+^D35>
  7968
  7969	062621	000000	000000		PTNA:	0
  7970	062622	000000	000000		PTNP:	0
  7971	062623	000000	000000		PTNV:	0
  7972
SA10 - DIAGNOSTIC FOR SYSTEMS CONCEPTS SA-10 IBM-TO-DEC SUBSYSTEM ADAPTOR	VER 1	MACRO %53B(1155)-2 14:34 14-Feb-86 Page 140
SA10N	MAC	17-Sep-74 22:01

  7973	062624	000000	000000		TEST:	0
  7974	062625	777777	777777			-1
  7975	062626	252525	252525			252525,,252525
  7976	062627	525252	525252			525252,,525252	;PSEUDO-RANDOM TEST DATA
  7977	062630				TEST1:	BLOCK 4	;PLACE TO READ STUFF BACK INTO
  7978
  7979	062634				CWTD:
  7980					IFLE CV,<325125,,340125>
  7981	062634	325137	340125		IFG CV,<325137,,340125>
  7982	062635	125120	252252			125120,,252252
  7983	062636	240000	000000			240000,,
  7984
  7985	062637	000000	014000		STCLM:	014000	;SET BUSY FLAG
  7986	062640	000000	015000			015000	;SET STATUS FLAG
  7987	062641	000000	015400			015400	;SET P.I. ENABLE FLAG
  7988
  7989	062642	000000	002000		STCLM1:	BSY0
  7990	062643	000000	000100			STF0
  7991	062644	000000	040000			PIE0
  7992
  7993	062645				BITS:	REPEAT ^D36,<	EXP 1B<.-BITS>>
  7994	062645	400000	000000			EXP 1B<.-BITS>
  7995	062646	200000	000000			EXP 1B<.-BITS>
  7996	062647	100000	000000			EXP 1B<.-BITS>
  7997	062650	040000	000000			EXP 1B<.-BITS>
  7998	062651	020000	000000			EXP 1B<.-BITS>
  7999	062652	010000	000000			EXP 1B<.-BITS>
  8000	062653	004000	000000			EXP 1B<.-BITS>
  8001	062654	002000	000000			EXP 1B<.-BITS>
  8002	062655	001000	000000			EXP 1B<.-BITS>
  8003	062656	000400	000000			EXP 1B<.-BITS>
  8004	062657	000200	000000			EXP 1B<.-BITS>
  8005	062660	000100	000000			EXP 1B<.-BITS>
  8006	062661	000040	000000			EXP 1B<.-BITS>
  8007	062662	000020	000000			EXP 1B<.-BITS>
  8008	062663	000010	000000			EXP 1B<.-BITS>
  8009	062664	000004	000000			EXP 1B<.-BITS>
  8010	062665	000002	000000			EXP 1B<.-BITS>
  8011	062666	000001	000000			EXP 1B<.-BITS>
  8012	062667	000000	400000			EXP 1B<.-BITS>
  8013	062670	000000	200000			EXP 1B<.-BITS>
  8014	062671	000000	100000			EXP 1B<.-BITS>
  8015	062672	000000	040000			EXP 1B<.-BITS>
  8016	062673	000000	020000			EXP 1B<.-BITS>
  8017	062674	000000	010000			EXP 1B<.-BITS>
  8018	062675	000000	004000			EXP 1B<.-BITS>
  8019	062676	000000	002000			EXP 1B<.-BITS>
  8020	062677	000000	001000			EXP 1B<.-BITS>
  8021	062700	000000	000400			EXP 1B<.-BITS>
  8022	062701	000000	000200			EXP 1B<.-BITS>
  8023	062702	000000	000100			EXP 1B<.-BITS>
  8024	062703	000000	000040			EXP 1B<.-BITS>
  8025	062704	000000	000020			EXP 1B<.-BITS>
  8026	062705	000000	000010			EXP 1B<.-BITS>
  8027	062706	000000	000004			EXP 1B<.-BITS>
SA10 - DIAGNOSTIC FOR SYSTEMS CONCEPTS SA-10 IBM-TO-DEC SUBSYSTEM ADAPTOR	VER 1	MACRO %53B(1155)-2 14:34 14-Feb-86 Page 140-1
SA10N	MAC	17-Sep-74 22:01

  8028	062707	000000	000002			EXP 1B<.-BITS>
  8029	062710	000000	000001			EXP 1B<.-BITS>
  8030
  8031
  8032	062711					BLOCK 10
  8033			000000		ZZ==0
  8034					REPEAT NPACKS,<
  8035					CPG(\ZZ):	BLOCK 400
  8036					ZZ==ZZ+1>
  8037
  8038	062721				CPG(\ZZ)^CPG0^:	BLOCK 400
  8039			000001		ZZ==ZZ+1
  8040
  8041	063321				CPG(\ZZ)^CPG1^:	BLOCK 400
  8042			000002		ZZ==ZZ+1
  8043
  8044	063721				CPG(\ZZ)^CPG2^:	BLOCK 400
  8045			000003		ZZ==ZZ+1
  8046
  8047	064321				CPG(\ZZ)^CPG3^:	BLOCK 400
  8048			000004		ZZ==ZZ+1
  8049
  8050	064721				CPG(\ZZ)^CPG4^:	BLOCK 400
  8051			000005		ZZ==ZZ+1
  8052
  8053	065321				CPG(\ZZ)^CPG5^:	BLOCK 400
  8054			000006		ZZ==ZZ+1
  8055
  8056	065721				CPG(\ZZ)^CPG6^:	BLOCK 400
  8057			000007		ZZ==ZZ+1
  8058
  8059	066321				CPG(\ZZ)^CPG7^:	BLOCK 400
  8060			000010		ZZ==ZZ+1
  8061
  8062	066721				CPG(\ZZ)^CPG10^:	BLOCK 400
  8063			000011		ZZ==ZZ+1
  8064
  8065	067321				CPG(\ZZ)^CPG11^:	BLOCK 400
  8066			000012		ZZ==ZZ+1
  8067
  8068	067721				CPG(\ZZ)^CPG12^:	BLOCK 400
  8069			000013		ZZ==ZZ+1
  8070
  8071	070321				CPG(\ZZ)^CPG13^:	BLOCK 400
  8072			000014		ZZ==ZZ+1
  8073
  8074	070721				CPG(\ZZ)^CPG14^:	BLOCK 400
  8075			000015		ZZ==ZZ+1
  8076
  8077	071321				CPG(\ZZ)^CPG15^:	BLOCK 400
  8078			000016		ZZ==ZZ+1
  8079
  8080	071721				CPG(\ZZ)^CPG16^:	BLOCK 400
  8081			000017		ZZ==ZZ+1
  8082
SA10 - DIAGNOSTIC FOR SYSTEMS CONCEPTS SA-10 IBM-TO-DEC SUBSYSTEM ADAPTOR	VER 1	MACRO %53B(1155)-2 14:34 14-Feb-86 Page 140-2
SA10N	MAC	17-Sep-74 22:01

  8083	072321				CPG(\ZZ)^CPG17^:	BLOCK 400
  8084			000020		ZZ==ZZ+1
  8085
  8086	072721				CPG(\ZZ)^CPG20^:	BLOCK 400
  8087			000021		ZZ==ZZ+1
  8088
  8089	073321				CPG(\ZZ)^CPG21^:	BLOCK 400
  8090			000022		ZZ==ZZ+1
  8091
  8092	073721				CPG(\ZZ)^CPG22^:	BLOCK 400
  8093			000023		ZZ==ZZ+1
  8094
  8095	074321				CPG(\ZZ)^CPG23^:	BLOCK 400
  8096			000024		ZZ==ZZ+1
  8097
  8098	074721				CPG(\ZZ)^CPG24^:	BLOCK 400
  8099			000025		ZZ==ZZ+1
  8100
  8101	075321				CPG(\ZZ)^CPG25^:	BLOCK 400
  8102			000026		ZZ==ZZ+1
  8103
  8104	075721				CPG(\ZZ)^CPG26^:	BLOCK 400
  8105			000027		ZZ==ZZ+1
  8106
  8107	076321				CPG(\ZZ)^CPG27^:	BLOCK 400
  8108			000030		ZZ==ZZ+1
  8109
  8110	076721				CPG(\ZZ)^CPG30^:	BLOCK 400
  8111			000031		ZZ==ZZ+1
  8112
  8113	077321				CPG(\ZZ)^CPG31^:	BLOCK 400
  8114			000032		ZZ==ZZ+1
  8115
  8116	077721				CPG(\ZZ)^CPG32^:	BLOCK 400
  8117			000033		ZZ==ZZ+1
  8118
  8119	100321				CPG(\ZZ)^CPG33^:	BLOCK 400
  8120			000034		ZZ==ZZ+1
  8121
  8122	100721				CPG(\ZZ)^CPG34^:	BLOCK 400
  8123			000035		ZZ==ZZ+1
  8124
  8125	101321				CPG(\ZZ)^CPG35^:	BLOCK 400
  8126			000036		ZZ==ZZ+1
  8127
  8128	101721				CPG(\ZZ)^CPG36^:	BLOCK 400
  8129			000037		ZZ==ZZ+1
  8130
  8131	102321				CPG(\ZZ)^CPG37^:	BLOCK 400
  8132			000040		ZZ==ZZ+1
  8133
  8134						REPEAT 5,<[JSR PDLH]>	;CATCH OVER-POPJ'S
  8135	102721	000000	105120		[JSR PDLH]
  8136	102722	000000	105120		[JSR PDLH]
  8137	102723	000000	105120		[JSR PDLH]
SA10 - DIAGNOSTIC FOR SYSTEMS CONCEPTS SA-10 IBM-TO-DEC SUBSYSTEM ADAPTOR	VER 1	MACRO %53B(1155)-2 14:34 14-Feb-86 Page 140-3
SA10N	MAC	17-Sep-74 22:01

  8138	102724	000000	105120		[JSR PDLH]
  8139	102725	000000	105120		[JSR PDLH]
  8140	102726				PDL:	BLOCK LPDL	;PUSHDOWN LIST
  8141
  8142	103026				PATCH:
  8143	103026				PAT:	BLOCK 1000
  8144
  8145					IFN LNKBUG,<
  8146	104026					VAR	;GET EVERYTHING OUT
  8147					XLIST	;SAVE LOTS OF PAPER
  8148					LIST
  8149	107132'				RELOC .-LNKORG	;NOW PUT OUT A RELOC PROG BREAK TO MAKE LINK HAPPY
  8150					>
  8151
  8152			044473			END DDTG

NO ERRORS DETECTED

PROGRAM BREAK IS 107132
ABSOLUTE BREAK IS 107272
CPU TIME USED 05:45.396

28P CORE USED
SA10 - DIAGNOSTIC FOR SYSTEMS CONCEPTS SA-10 IBM-TO-DEC SUBSYSTEM ADAPTOR	VER 1	MACRO %53B(1155)-2 14:34 14-Feb-86 Page S-1
SA10N	MAC	17-Sep-74 22:01		SYMBOL TABLE

A		000001		BAFTP1		054723		BATNEW		054446		CHKNHC		046230
ABORTQ		054055		BAFTP2		054726		BATSNV		054463		CHKTYI		052636
ACS		052414		BAFTP3		054731		BATSTE		054441		CHKV		051256
ADDR		051613		BAFTP4		054734		BATSTO		054375		CHKV1		051265
ADRHI		051612		BAFVHI		104027		BATSU		054320		CHKVW		051274
ADRLO		051611		BAFVMX		000002	spd	BATSUE		054326		CHKVW1		051275
APR		000000	spd	BAFVOF		000002	spd	BATSV2		054503		CHKVX		051310
APRCH		000001	spd	BAFVOL		000001	spd	BATSV3		054475		CHKVXX		051325
APRCLK		051376		BAFVUN		000000	spd	BAYAPN		054367		CHKX		051252
APRI		051367		BAFW		054151		BAYELB		054364		CHNCHK		061113
APRID	700000	000000		BAFW0		054170		BCTAB		047751		CHNCK2		061137
APRSN		054527		BAFW1		054156		BEG1		044661		CHRST		002000	spd
APRST		050257		BAFW2		054173		BEG1A		044670		CI		044276
ASNGUE		054521		BAFW2A		054243		BEGIN		044262		CI0		044300
ASNTRY		054530		BAFW2N		054174		BEGIN1		044271		CI1		044313
AWIG		043243		BAFW3		054177		BEGINC		044343		CI5		044332
AWIG0		043245		BAFW4		054235		BEGING		044362		CIDDT		044344
AWIG1		043246		BAFW6		054230		BEGS		046534		CIE		044336
B		000002		BAFW8		054226		BF		000016		CIN		044341
BAD		051442		BAFW9		054220		BITS		062645		CIP		044342
BAF		055775		BAFW9E		054240		BLKSIZ		000200	spd	CIT		044372
BAFCNT		000003	spd	BAFWE1		054315		BLKSKP		000014	spd	CITCM		044354
BAFCOD		000176	spd	BAFWP		055230		BPLOC		060133		CKTIAI		052624
BAFCT		055770		BAFWT		055725		BPOPJ1		052645		CKTIL		052631
BAFCVR		104026		BAFX1		054273		BRANCH		000400	spd	CKTYI0		050274
BAFCYL		055766		BAFX2		054246		BSY0		002000	spd	CLBSY		000400	spd
BAFDAT		056175		BAFX3		054277		BSY1		001000	spd	CLKCF		050266
BAFDN		054643		BAFX5		054276		BSY2		000400	spd	CLKENB		050270
BAFELB		000001	spd	BAFX99		054310		BSY3		000200	spd	CLKSKP		050267
BAFF		055771		BAFXBF		056415		BTE		044537		CLMERR		200000	spd
BAFFIR		000001	spd	BAFY		054531		BTE0		044542		CLPIE		000700	spd
BAFGO		054124		BAFY0		054554		BTE1		044562		CLRPGT		050271
BAFGOA		054133		BAFY1X		054636		BTE2		044610		CLSRQ		000500	spd
BAFHED		055767		BAFY2		054600		BTE2A		044624		CLSTF		000600	spd
BAFMAX		055773		BAFY2A		054605		BTE4		044642		CLSTFC		060744
BAFNAM		000000	spd	BAFY2B		054612		BTECC		062334		CMT		046736
BAFNBB		000000	spd	BAFY2E		054631		BTECI		062253		CMT0		046750
BAFNBS		000002	spd	BAFY2F		054641		BTECI1		062255		CMT1		046752
BAFO		054705		BAFY7		054620		BTECR		062302		CMT1A		046760
BAFP		054646		BAFY7X		054633		BTECW		062322		CMT1E0		047027
BAFPAT		055765		BAFY8		054626		BTEDI		062367		CMT1E1		047041
BAFPD1		055723		BAFYE		054572		BTERC		062351		CMTA		046741
BAFPD2		055724		BAFYE2		054575		BTESD		062437		CMTG		047002
BAFPG1		055713		BAFYV		055774		BTIMD		060637		CMTG0		047005
BAFPG3		055715		BAPDTR		020000	spd	BTIMT		060633		CMTGE		047016
BAFPG5		055720		BAPHDR		010000	spd	C		000003		CMTP0		047020
BAFPT0		054662		BAPNTP		040000	spd	C0XCT		046575		CMTP1		047023
BAFPT1		054666		BAPOTR		040000	spd	CBASE		060740		CMTP1A		047024
BAFPT2		054672		BASE		000000	spd	CHAN		060737		CMTPT		047026
BAFREG		000004	spd	BASEA		060627		CHCW		051551		CNT		000016	spd
BAFSLF		000177	spd	BATBK0		000002	spd	CHK0		051221		CNTBB		047743
BAFT		054676		BATBK1		000013	spd	CHK1		051234		CNTSFT		000006	spd
BAFT1		054700		BATEMX		054372		CHKCC2		052651		CODBAT		606060	spd
BAFTD		056635		BATGER		054362		CHKCNC		052642		CONFIG		105134	ext
BAFTP		054721		BATGET		054337		CHKIT		051206		CPAT		000005	spd
SA10 - DIAGNOSTIC FOR SYSTEMS CONCEPTS SA-10 IBM-TO-DEC SUBSYSTEM ADAPTOR	VER 1	MACRO %53B(1155)-2 14:34 14-Feb-86 Page S-2
SA10N	MAC	17-Sep-74 22:01		SYMBOL TABLE

CPATS		000015	spd	CWTST		045055		DSE4		047622		DSKTOF		051022
CPG0		062721		CWTST0		045053		DSE5		047677		DSKTS3		050574
CPG1		063321		CWTST1		045056		DSENS1		050006		DSKTS4		050602
CPG10		066721		CWTST2		045120		DSEOFL		047700		DSKTS5		050603
CPG11		067321		CXTST		046601		DSET		052747		DSKTS6		050606
CPG12		067721		CXXCT		046572		DSET0		052753		DSKTS7		050626
CPG13		070321		D		000004		DSET1		052763		DSKTV		050505
CPG14		070721		DCONI		060622		DSETCY		053105		DSKWH1		050042
CPG15		071321		DCONO		060621		DSETD		053104		DSKWHR		050033
CPG16		071721		DD		000015		DSETE		053101		DSKWHX		050053
CPG17		072321		DDATAI		060624		DSETNR		053245		DSKX1		047073
CPG2		063721		DDATAO		060623		DSETP		053042		DSKX1A		047075
CPG20		072721		DDEVA		060625		DSETP2		053044		DSKX2		047241
CPG21		073321		DDT		061501	ext	DSETPD		053046		DSKXX		047140
CPG22		073721		DDTE		044517		DSETR2		053305		DSPE		047131
CPG23		074321		DDTG		044473		DSETSU		053205		DSPE1		047105
CPG24		074721		DDTG0		044506		DSETT0		053050		DSTAT		052604
CPG25		075321		DDTG1		044507		DSETT1		053055		DSVFLG		052435
CPG26		075721		DDTQ		044527		DSETT2		053062		DTE		000200	spd
CPG27		076321		DEVFLD		141000		DSETT3		053067		DTECMD		000451
CPG3		064321		DEVL		052537		DSETT4		053074		DTEEPW		000144
CPG30		076721		DEVN		052413		DSETTY		053345		DTEF11		000450
CPG31		077321		DIGO		047333		DSETUC		053145		DTEFLG		000444
CPG32		077721		DIMP		047340		DSFLGX		047237		DTEMTD		000455
CPG33		100321		DIP0		047264		DSI0		047143		DTEMTI		000456
CPG34		100721		DIP1		047271		DSI0A		047201		DTSET		051332
CPG35		101321		DIP1A		047276		DSI0E		047260		E		000005
CPG36		101721		DIP1B		047302		DSI5		047215		ECPUTB		050300	spd
CPG37		102321		DIP2		047311		DSI5A		047225		EPT		000000	spd
CPG4		064721		DIP2A		047316		DSIB1		047252		ERR1		061602
CPG5		065321		DIP3		047325		DSIBSY		047234		ERR10		061724
CPG6		065721		DIRW		047510		DSKCDC		050021		ERR11		061650
CPG7		066321		DIRW1		047540		DSKEX		047101		ERR12		061707
CPGP		051511		DIRW1V		053645		DSKI		047053		ERR13		061756
CPOPJ		060537		DNUMG		052660		DSKIE		047070		ERR14		061765
CPOPJ1		055623		DPHAD0		047716		DSKRL		047243		ERR15		061774
CPU		104030		DPHADR		047712		DSKRS2		047250		ERR16		062003
CPUINI		050273		DPHBIN		047736		DSKRX		047255		ERR17		062012
CPUTAB		050257	spd	DPHLOK		047722		DSKSM2		051007		ERR18		062021
CPUTBL		050254		DPHUN		047741		DSKSML		050773		ERR19		062030
CR		060372		DPT		060561		DSKT		050504		ERR2		061607
CR2		060442		DRAVL		055665		DSKT0		050637		ERR20		062037
CR4		060441		DRAVLD		055711		DSKT1		050656		ERR21		062047
CRECL		054117		DRAVLP		055675		DSKT1A		050662		ERR22		062056
CSET		060667		DRAVLQ		055701		DSKT1B		050703		ERR23		062130
CSET3		060712		DRAVLR		055704		DSKT2		050723		ERR24		062065
CUONL		104031		DRAVLS		055677		DSKT3		050727		ERR25		062074
CURSEQ		061071		DRVGO		104032		DSKT4		050743		ERR26		062103
CV		000001	sin	DRVLD0		055707		DSKT5		050757		ERR27		062112
CWT1		045131		DRVTY0		047772		DSKT5A		050754		ERR28		061733
CWT2		045132		DRVTY1		047776		DSKT8		051014		ERR28V		061674
CWT2A		045150		DRVTYP		047771		DSKTL0		050534		ERR29		062137
CWTA		061675		DSCI		000011	spd	DSKTL1		050537		ERR3		061614
CWTB		061676		DSE1		047574		DSKTL2		050572		ERR30		061574
CWTD		062634		DSE2		047644		DSKTLE		051326		ERR31		062163
SA10 - DIAGNOSTIC FOR SYSTEMS CONCEPTS SA-10 IBM-TO-DEC SUBSYSTEM ADAPTOR	VER 1	MACRO %53B(1155)-2 14:34 14-Feb-86 Page S-3
SA10N	MAC	17-Sep-74 22:01		SYMBOL TABLE

ERR32		062163		FIFO2B		045426		HANGPC		045235	ext	KLINI		050430
ERR33		062163		FIFO2C		045422		HPT		060562		KLSWS		050474
ERR34		062163		FIFO2D		045434		HUNG		051362		KLTBL		050342
ERR35		062163		FIFO3		045437		HUNGT		052313		KLTYO		050465
ERR36		062163		FIFO3A		045451		I		000011		KTRECL		057751
ERR37		062163		FIFO3Z		045461		IAR		060132		L		000014
ERR38		062144		FIFO4		045462		IARL		044677		LB2HOM		000012	spd
ERR38A		062161		FIFO4A		045466		IARL1		044707		LBNHOM		000001	spd
ERR38B		062162		FIFO4B		045507		IARL2		044726		LBOBAT		000001	spd
ERR39		062174		FIFO4C		045522		IBAF		055632		LC0CW		046565
ERR4		061622		FIFO4D		045530		IBAF0		055647		LC0R2		046610
ERR40		061642		FILI1		051040		IBAF1		055650		LCXCW		046566
ERR41		062207		FILLIT		051026		ICHAN		104033		LCXR2		046611
ERR42		062221		FILLV		051124		IDEV		000000	spd	LCXR2A		046612
ERR43		062231		FILLV1		051131		IDEVA		060626		LCXR2B		046613
ERR44		062236		FILLVW		051136		IDEVT		060632		LCXRE		046177
ERR5		061632		FILVW1		051137		ILLDRV		053040		LNKBUG	777777	777777	spd
ERR50		062243		FILX		051053		INCT		045164		LNKORG		000140	spd
ERR51		062260		FMT		053705		INCT0		045165		LNPAKS		000005	spd
ERR52		062265		FMT0		053735		INCT1		045166		LNREAD		051753
ERR53		062272		FMT1		053745		INCT1A		045174		LPDL		000100	spd
ERR54		062310		FMT1A		053760		INCT2		045200		LPT		000124	spd
ERR55		062326		FMT1B		053770		INCT4		045217		LPTOUT		060501
ERR56		062343		FMT1BR		053777		INCT5		045230		LPTTST		060477
ERR57		062357		FMT1C		054064		INCTW		061672		LSQTAB		061106
ERR58		062374		FMT1CR		054072		INFP		051103		LSTBUF		000001	spd
ERR6		061660		FMT1D		054045		INFPA		051114		MAMB		044755
ERR60		062402		FMT1E		054001		INFPB		051120		MAMB1		044757
ERR61		062407		FMT1T		054123		INT1		061152		MAMB1A		045003
ERR62		062414		FMT2		054002		INT2		061162		MAMB2		045020
ERR63		062421		FMT2A		054024		INT3		061172		MAMB3		045030
ERR64		062427		FMTAX		054061		INT4		061202		MAMB4		045044
ERR65		062450		FMTD		054122		INT5		061212		MAMBTA		046533
ERR66		062461		FMTM		054121		INT6		061222		MAMBTL		061670
ERR67		062470		FMTS0		054101		INT7		061232		MAMBTR		061671
ERR68		062475		FMTS1		054111		INTFRN		051063		MAPA		050146
ERR7		061677		FMTS1A		054110		IOFWR		004000	spd	MAPAD		050145
ERR70		062502		FMTS2		054105		IOLIST		060134		MAPADL		050157
ERR71		062510		FMTS3		054102		IORST		050272		MAPAL		050160
ERR72		062516		FMZBF		056415		IP.50H		004000	spd	MAPPG		000777	spd
ERR8		061521		FWP0		054120		IP.MNM		002000	spd	MAXBER		047711
ERR8P0		061571		G		000007		IRADX		104034		MBRMAX	777777	777606	spd
ERR8P1		061572		GCD		061144		J		000012		MBUSDN		040000	spd
ERR8P2		061573		GCD1		061145		K		000013		MCBEG0		045623	ext
ERR8PA		061570		GETASN		054510		KAINI		050363		MDNSYN		020000	spd
ERR8T		061561		GG		044300	spd	KATBL		050300		MEBITS		057116
ERR9		061717		GOBIT		060751		KATGO		000004	spd	MEENB		050264
ERRCT		052113		GOGO		044472		KATIM		050371		MEMACK		100000	spd
EXIT	047000	000012		GOPR		051462		KATLP		000002	spd	MEMRD		046446
F		000006		GOPR1		051466		KATME		000006	spd	MEMSTS		104035
F7TK		060105		GOPR2		051477		KATMX		050400		MEMXCT		046626
FIFO1		045353		GOPR2A		051500		KATTM		565344	spd	MPE1		046407
FIFO1A		045367		GOPR3		051504		KIINI		050417		MPE2		046414
FIFO2		045400		GPHADR		047771	spd	KITBL		050321		MPE3		046426
FIFO2A		045413		H		000010		KLCLK		051405		MPEE		046463
SA10 - DIAGNOSTIC FOR SYSTEMS CONCEPTS SA-10 IBM-TO-DEC SUBSYSTEM ADAPTOR	VER 1	MACRO %53B(1155)-2 14:34 14-Feb-86 Page S-4
SA10N	MAC	17-Sep-74 22:01		SYMBOL TABLE

MPEFG		046471		NXMBIT		050261		PIRQ		400000	spd	PW00		060233
MPEIE		046461		NXMCLR		050262		PIRST		050260		PW00A		060237
MPEIL		046430		NXMT		046475		PISET		050236		PW0T1		060653
MPEIL2		046440		NXMT1		046503		PISETL		050240		PW0T2		060661
MPEKL		046442		NXMT2		046513		PIT1		045562		PW1		060260
MPEL		046402		NXMT3		046531		PIT2		045570		PW2		060273
MPEN		046462		NXMTX		046512		PIT3		045571		PW2A		060277
MPEP		046472		NXTRAK		053545		PIT3A		045601		PW3		060315
MPERF		046470		OFFLIN		051653		PITST		045536		PW3A		060320
MPET		046372		OPT		060511		PITST0		045531		PW3B		060332
MTR		000024	spd	OPT1		060522		PITST1		045551		PWLD0		060155
MUUOH		061253		OPT2		060523		PNOP		050013		PWLD1		060162
MUXACK		200000	spd	OPT3		060530		PNTCHK		060471		PWLD2		060167
MUXREQ		046331		OPT3A		060527		POPAJ		057106		PWLD3		060174
MUXRQ1		046347		ORADX		104037		PP0	260740	060155		PWLDX		060356
MXACS		046673		OWID		104040		PP1	260740	060162		PWORLD		060201
MXCO1		000002	spd	P		000017		PP2	260740	060167		PWRHZ		052602
MXCO2		000006	spd	P2ARG		044361		PP3	260740	060174		QFIFO		045351
MXCO3		000001	spd	PAG		000010	spd	PPOS		057477		QTT		057502
MXDI1		000003	spd	PAGEH		061257		PPP	260740	060201		QTT0		057511
MXDI2		000007	spd	PAGEKL		061266		PREARG		044360		QTT07		057552
MXDO1		000005	spd	PAGKL2		061270		PRGO		057473		QTT1		057564
MXDON		046712		PAGNXM		061274		PRGO1		057475		QTT1E		057642
MXOKX		046734		PARE		000012	spd	PRGOE		057476		RBAF		055576
MXPRG		046654		PARERR		200000	spd	PROMPT		060463		RBAF0		055577
MXPRGL		000017	spd	PARIT1		061413		PRTI		057466		RBAF3		055625
MXRECT		000040		PARITY		061412		PRTI2		057467		RBAFV		055772
MXT1		046357		PAT		103026		PRTI3		057471		RDBITS		000050	spd
MXT2		046367		PAT0		057267		PRTIE		057472		RDCCI		000000	spd
MXWT0		000000	spd	PAT1		057306		PS		057155		RDCONI		000040	spd
MXWT2		046722		PATCH		103026		PS0		057135		RDDATA		000006	spd
MXWTL		000002	spd	PBIT1		047444		PS1		057136		RDDIAG		010000	spd
NATRAL		047573		PBIT2		047442		PSB		057127		RDMA		000010	spd
NBADSP		000100	spd	PBITS		047433		PSD		057120		RDMBL		000020	spd
NBF		000020	spd	PBUF		057322		PSEEK		060106		RDMBR		000030	spd
NCHNP		061100		PBUFE		057363		PSMER		057110		RDSEQ		060757
NCORDC		052053		PBUFL		000041	spd	PSTAT		057064		RDSQ0		061042
NOINTF		104036		PBUFLB		000204	spd	PSTAT2		057104		RDSQ1		061055
NOP		000003	spd	PCWT		060643		PTIME		051351		RDSQL1		061044
NPACKS		000040	spd	PDEV		000016	spd	PTN		062527		RDSQL2		061060
NPTBS		000003	spd	PDEVA		057500		PTN0		062525		RDSQL3		061000
NREAD		051713		PDL		102726		PTN1		062534		RDSQL4		061007
NRETRY		000010	spd	PDLH		061303		PTN5		062542		RDSQL5		061025
NRPT		000022	spd	PDLINT		061314		PTN9		062547		RDSWS		050277
NSTRAK		053605		PDLTST		050265		PTNA		062621		RDTST		052677
NTRAKS		053445		PETST		050263		PTNP		062622		RDXPR0		060575
NTYI		052672		PHADR		052353		PTNT		062551		RDXPRT		060563
NUMG		052657		PHADRT		050054		PTNTX		062555		RECDNO		060102
NUMG1		052665		PI		000004	spd	PTNV		062623		REGT		060647
NUMGM		052656		PIE		061242		PTPNT		050251		RESET		001000	spd
NUTRAK		053505		PIE0		040000	spd	PTST		057436		REST		000017	spd
NWCPDT		000016	spd	PIE1		020000	spd	PTST1		057457		RETRYC		052253
NWRITE		052013		PIE2		010000	spd	PTSTV		057501		RETRYR		000016	spd
NWTRAK		053405		PIE3		004000	spd	PTWRD		050246		REWNO		060103
NXM		100000	spd	PIEBIT		060752		PW0		060241		RFIX		000002	spd
SA10 - DIAGNOSTIC FOR SYSTEMS CONCEPTS SA-10 IBM-TO-DEC SUBSYSTEM ADAPTOR	VER 1	MACRO %53B(1155)-2 14:34 14-Feb-86 Page S-5
SA10N	MAC	17-Sep-74 22:01		SYMBOL TABLE

RIP0		057363		SARNLZ		057003		STBUF		060127		TAT2		045655
RIP1		057401		SARNOK		057001		STBUF2		060130		TAT5		045744
RIP2		057415		SARNX0		050010		STBUFS		060131		TAT7		045762
RIP3		057421		SARPA		104041		STCL		045232		TBT		045774
RIP3A		057422		SARUN		056735		STCL0		045242		TBT1		046002
RIP4		057423		SARUN0		056737		STCL1		045251		TBT1A		046226
RND		047404		SARUNR		057005		STCL1A		045256		TBT1B		046015
RNDAD		047410		SARUNS		056754		STCL1B		045263		TBT2		046025
RNDAD3		047423		SARUNX		056734		STCL1C		045271		TBT4		046046
RNDAD5		047431		SARXIT		056775		STCL1D		045276		TBTV		046164
RNDM		047407		SASTEP		001000	spd	STCL1E		045304		TCB		057607
RNDT1		047355		SAVA		061514		STCL1F		045311		TCB1		057627
RNDT2		047370		SAVB		061515		STCLH		045234		TCB2		057634
RNDT2L		047373		SAVC		061516		STCLM		062637		TCB3		057654
RNDT3		047401		SAVD		061517		STCLM1		062642		TCP0		057754
RNDTK		047343		SCHIDE		000061	spd	STCLM2		045327		TCP0A		057756
RNDTK0		047346		SCHN		057050		STCLM3		045334		TCP0B		057757
RPAT		000006	spd	SCHNE		057053		STCLM4		045342		TCP0W		057755
RRBL		056653		SCHNX		057047		STEP0		046577		TCP1		057760
RRBLP		060116		SEEK		000007	spd	STEPC0		046550		TCP2		057761
RRR		061420		SEEKD		060111		STEPCX		046551		TCP2A		057762
RRR2		061432		SELRSC		060747		STEPX		046562		TCP2B		057763
RRR3		061440		SENSCT		052603		STEPX1		046562		TCPE		057764
RRR4		061455		SENSE		000004	spd	STF0		000100	spd	TCT		046057
RRR8		061460		SENSED		060121		STF1		000040	spd	TCT0		046064
RRR9		061467		SENSEP		060113		STF2		000020	spd	TCT1		046065
RRR95		061500		SENSEX		056637		STF3		000010	spd	TCT2		046066
RRRB		061501		SEQCNT		061074		STFLG		060750		TCT3		046073
RRRT		061503		SEQCTI		061073		STPC0A		046553		TCT4		046074
RRRT3		061511		SEQERR		061066		STPIE		000740	spd	TCT4A		046115
RSTAI		050456		SEQLEN		061072		STPIEC		060745		TCT4B		046150
RSTCH		000300	spd	SEQLNP		061101		STSRQ		000540	spd	TCT4C		046110
RSTKL		050462		SERR		052434		STSRQC		060746		TCT5		046211
RSTSA		400000	spd	SETCP2		050173		STSTF		000640	spd	TCTR		046202
RWBAF		055653		SETCPU		050164		STTT		050015		TCTS		046166
RWTSP1		052737		SETCT		000013	spd	STYO		060373		TCTV		046165
RWTSP2		052742		SETFRQ		050426		STYO1		060375		TDEV		057750
RWTSP3		052743		SETH0		050122		STYO2		060407		TEM		000015	spd
RWTSTD		052745		SETH1		050126		STYO3		060415		TERG		057753
RWTSTP		052735		SETHI		050120		STYO4		060423		TEST		062624
SA0		000274	spd	SETHIL		050142		STYO5		060430		TEST1		062630
SA0CH		000002	spd	SETHX		050133		STYO5A		060427		TESTWD		061520
SACGO		001040	spd	SETSAA		060605		STYO6		060436		TGB		057606
SACLST		056727		SNS2MS		047462		STYOXT		054043		TGB1		057632
SADEVA		060630		SNSMSG		047446		SUBVER		000001		TGB2		057644
SAGO		056666		SNSX0		056656		SUPER		060136		TGB3		057652
SAGO1		056672		SPOTTB		052436		SUPER0		060153		TGO		057656
SAGPOP		057025		SPTN		046370		SUPER1		060154		TGO0		057657
SAGPP2		057043		SQITAB		061102		SWPUA	701540	000000		TGO1		057672
SAGPS1		057016		STAMSG		047472		SZER		044735		TGOBUF		057765
SAGPSH		057007		STATCT		060631		SZER1		044747		TGOT		057705
SAGST1		056706		STATIC		044532		TAPF		060061		TI.INF	007777	000000	spd
SAGST2		056724		STBSY		000440	spd	TAPSNS		060062		TI.ITD		020000	spd
SAGSTE		056717		STBSYC		060743		TAT		045643		TI.PRF		007777	spd
SAGSTS		056701		STBTB		060753		TAT1		045644		TI.TIO		040000	spd
SA10 - DIAGNOSTIC FOR SYSTEMS CONCEPTS SA-10 IBM-TO-DEC SUBSYSTEM ADAPTOR	VER 1	MACRO %53B(1155)-2 14:34 14-Feb-86 Page S-6
SA10N	MAC	17-Sep-74 22:01		SYMBOL TABLE

TI.TOV		010000	spd	TYOGO		050276		V4TAB		042722		VR1V2		042620
TIM		000020	spd	TYOI		051507		V5		030111		VR1V3		042621
TIME		052600		TYOSKP		050275		V6		030112		VR2		042455
TIMEC		052601		UCB		057157		V6P		043124		VREL		030003
TIMET		046246		UCBE		057253		V7		030127		VREL1		030004
TMLP1		046301		UCBL		000074	spd	V7DAT		043131		VRP1		042533
TMLP2		046307		UCBLB		000360	spd	V7P		043126		VRP2		042536
TMLP3		046303		UCT		045613		V8		030135		VRUN		042626
TMLP4		046311		UCT0		045615		V84		030147		VRUN1		042627
TMLP5		046313		UCT00		045614		V85		030151		VRUN2		042631
TO.CIT		400000	spd	UCT7		045627		V8P1		043132		VRUNA		042622
TO.CTD		020000	spd	UCT8		045635		V8P2		043135		VRUNDF		043237
TO.PRF		007777	spd	UNDET		051412		V9		030164		VRUNSP		042703
TO.SIT		040000	spd	UPT		000000	spd	VDAT		040437		VRV		042474
TO11DB		020000	spd	UUOH		061243		VDBT		032434		VRV0		042615
TRECL		002000	spd	UUOH1		061244		VDCT		036436		VRV1		042476
TREW		057752		UWP		052213		VDNT		034435		VRV3		042501
TRK		052153		V0		030024		VDT		030373		VRV4		042504
TRPI1		050203		V1		030025		VDTE		030433		VRVC		043234
TRPI2		050205		V10		030206		VDWT		030433		VRVT		043235
TRPINI		050200		V105		030223		VEPNT		042672		VRWL		001461	spd
TSENSE		060052		V10P		043144		VEPNT0		042671		VSENSE		042706
TSPE1		050075		V10P1		043150		VEPNT8		042676		VSENSF		043236
TSTADR		052734		V10P2		043152		VEPNTV		043240		VSTAT1		042641
TSTCYL		052731		V10PP		043140		VGMODE		043242		VSTAT3		042642
TSTDEV		052730		V11		030230		VOSTAT		042701		VSTAT6		042665
TSTHED		052732		V110		030233		VPAT		030312		VSTAT7		042667
TSTREC		052733		V111		030246		VPAT1		030325		VTIM1		030014
TTY		000120	spd	V111V		043241		VPAT10		030345		VTIME		030010
TUNIT		000000	spd	V111W		043205		VPAT2		030335		VTIMEC		030023
TWBSY		057772		V118		030273		VPAT20		030365		VTTPTR		043233
TWE		060020		V11PA		043154		VPAT3		030340		VV6		043215
TWEX		060056		V11PAD		043157		VPATC0		043232		VV62		043221
TWEX1		060054		V11PB		043171		VPATC1		043230		WAIT		000007	spd
TWME		060016		V11PBN		043203		VPATC2		043231		WBAF		055567
TWRST		057766		V11PBP		043160		VPATCH		043262		WBAFE		055573
TWT		057711		V11PBZ		043202		VQ		000200	spd	WBAT		055564
TWT0		057712		V12		030275		VQS		000002	spd	WCPDAT		051152
TWT1		057722		V12P		043211		VR		042440		WCWDAT		051170
TWTX		057744		V12PD		043214		VR1		042454		WERRNO		060104
TWUX		057776		V12PP		043206		VR1P0		042543		WPAT		000001	spd
TWUX0		060003		V12PT		043207		VR1P1		042550		WRAP0		061320
TWUX1		060011		V13		030311		VR1P2		042556		WRAP1		061322
TYI		052611		V1X		030034		VR1P3		042563		WRAP2		061324
TYIFLG		104042		V2		030036		VR1P4		042570		WRAP3		061326
TYIM		052610		V2A		030041		VR1P5		042575		WRAPV		061673
TYMVER		000001		V2B		030053		VR1P6		042603		WRDATA		000005	spd
TYO		060444		V2P		042714		VR1P7		042610		WRP		061327
TYO0		060533		V2V		042716		VR1TA		042513		WRP2		061332
TYOBJ		052646		V3		030062		VR1TC		042527		WRP4		061360
TYOF0		060543		V4		030072		VR1TR		042507		WRP6		061401
TYOF1		060551		V41		030101		VR1TT		042517		WRRQ		400000	spd
TYOF9		060555		V42		030107		VR1TX		042523		WRTPP		050064
TYOFCT		060560		V4DAT		043024		VR1V0		042616		WRTPP1		050066
TYOFIL		060557		V4P		042717		VR1V1		042617		WRTPP2		050071
SA10 - DIAGNOSTIC FOR SYSTEMS CONCEPTS SA-10 IBM-TO-DEC SUBSYSTEM ADAPTOR	VER 1	MACRO %53B(1155)-2 14:34 14-Feb-86 Page S-7
SA10N	MAC	17-Sep-74 22:01		SYMBOL TABLE

WRTPPD		050073
WRTST		052700
ZEROS		055220
ZRRBL		056644
ZZ		000040	spd
$CNOB		045635	ext
$EADR		046507	ext
$N18BA		046503	ext
$NHCHA		046232	ext
%MUXCR		046332	ext
.DTMMC		004400	spd
.DTMTO		004000	spd
.DTRSW		003400	spd
.EPTII		000514	spd
.JBREL		060142	ext


SA10 - DIAGNOSTIC FOR SYSTEMS CONCEPTS SA-10 IBM-TO-DEC SUBSYSTEM ADAPTOR	VER 1	MACRO %53B(1155)-2 14:34 14-Feb-86 Page 1
SA10N	MAC	17-Sep-74 22:01


Symbol cross reference

A	     2	    30#	   314	   315	   329	   330	   339	   340	   346	   359	   360	   363	   367	   368
	   369	   383	   384	   385	   389	   390	   396	   397	   398	   402	   403	   404	   414	   415
	   416	   425	   426	   427	   429	   430	   432	   433	   437	   440	   441	   443	   444	   445
	   446	   447	   462	   463	   466	   467	   471	   472	   473	   482	   484	   485	   499	   500
	   502	   503	   504	   514	   515	   516	   522	   523	   526	   527	   530	   531	   534	   537
	   538	   543	   545	   546	   548	   551	   552	   558	   620	   621	   622	   624	   625	   626
	   633	   634	   635	   641	   642	   643	   745	   762	   771	   960	   976	   977	  1006	  1013
	  1014	  1031	  1033	  1034	  1042	  1048	  1049	  1050	  1051	  1052	  1053	  1054	  1123	  1124
	  1126	  1127	  1128	  1129	  1130	  1134	  1135	  1136	  1137	  1138	  1139	  1140	  1144	  1145
	  1146	  1147	  1160	  1161	  1163	  1164	  1166	  1167	  1168	  1171	  1172	  1174	  1183	  1184
	  1186	  1187	  1192	  1196	  1206	  1208	  1210	  1215	  1216	  1229	  1231	  1237	  1238	  1246
	  1247	  1264	  1266	  1267	  1271	  1272	  1284	  1285	  1288	  1298	  1300	  1306	  1307	  1315
	  1317	  1318	  1319	  1320	  1321	  1327	  1336	  1337	  1338	  1349	  1350	  1359	  1370	  1371
	  1383	  1385	  1386	  1390	  1403	  1405	  1422	  1433	  1434	  1437	  1440	  1463	  1465	  1467
	  1473	  1479	  1480	  1481	  1506	  1516	  1518	  1565	  1570	  1571	  1591	  1593	  1595	  1597
	  1599	  1610	  1611	  1612	  1614	  1618	  1620	  1629	  1631	  1647	  1649	  1651	  1653	  1661
	  1664	  1666	  1674	  1680	  1682	  1683	  1692	  1694	  1765	  1769	  1770	  1786	  1788	  1790
	  1806	  1808	  1809	  1811	  1825	  1830	  1834	  1839	  1847	  1848	  1850	  1861	  1872	  1877
	  1879	  1909	  1930	  1932	  1967	  1969	  1970	  1971	  1973	  1974	  1975	  1977	  1978	  1979
	  1980	  2004	  2005	  2006	  2022	  2024	  2025	  2028	  2030	  2031	  2036	  2041	  2042	  2044
	  2046	  2048	  2050	  2051	  2057	  2059	  2060	  2061	  2062	  2063	  2064	  2065	  2066	  2067
	  2068	  2098	  2099	  2100	  2101	  2102	  2108	  2109	  2119	  2120	  2136	  2137	  2152	  2153
	  2155	  2161	  2162	  2179	  2180	  2198	  2251	  2252	  2253	  2265	  2270	  2271	  2280	  2281
	  2284	  2293	  2295	  2296	  2300	  2305	  2310	  2332	  2334	  2342	  2386	  2397	  2398	  2402
	  2405	  2407	  2409	  2413	  2415	  2418	  2420	  2430	  2493	  2494	  2496	  2498	  2524	  2525
	  2530	  2557	  2558	  2560	  2561	  2562	  2563	  2564	  2571	  2572	  2575	  2577	  2579	  2588
	  2593	  2600	  2601	  2603	  2606	  2607	  2608	  2614	  2616	  2622	  2624	  2626	  2627	  2628
	  2629	  2633	  2664	  2665	  2669	  2670	  2674	  2678	  2682	  2683	  2685	  2686	  2690	  2694
	  2695	  2697	  2698	  2821	  2856	  2862	  2864	  2865	  2866	  2878	  2879	  2880	  2881	  2882
	  2883	  2900	  2901	  2917	  2918	  2928	  2942	  2943	  2966	  2969	  2975	  2976	  2982	  2987
	  2991	  2992	  3019	  3027	  3029	  3034	  3048	  3049	  3100	  3107	  3127	  3145	  3148	  3151
	  3152	  3154	  3156	  3157	  3160	  3162	  3163	  3166	  3169	  3172	  3173	  3174	  3182	  3183
	  3184	  3188	  3189	  3190	  3191	  3193	  3196	  3197	  3199	  3200	  3202	  3203	  3204	  3205
	  3206	  3207	  3208	  3209	  3210	  3212	  3213	  3314#	  3316	  3322	  3324	  3327	  3329	  3332
	  3333	  3334	  3340	  3341	  3342	  3343	  3344	  3367	  3368	  3369	  3391	  3392	  3398	  3399
	  3400	  3404	  3405	  3410	  3411	  3413	  3414	  3415	  3416	  3417	  3418	  3420	  3421	  3428
	  3430	  3436	  3439	  3440	  3442	  3458	  3462	  3467	  3468	  3479	  3480	  3481	  3482	  3484
	  3486	  3489	  3491	  3495	  3496	  3502	  3503	  3504	  3505	  3514	  3515	  3519	  3520	  3525
	  3526	  3538	  3545	  3546	  3555	  3556	  3558	  3576	  3580	  3581	  3582	  3612	  3613	  3627
	  3628	  3637	  3639	  3641	  3643	  3648	  3649	  3650	  3651	  3652	  3657	  3658	  3660	  3661
	  3662	  3664	  3667	  3669	  3672	  3698	  3707	  3709	  3761	  3762	  3765	  3774	  3776	  3779
	  3781	  3792	  3793	  3802	  3804	  3814	  3816	  3822	  3823	  3826	  3827	  3828	  3829	  3830
	  3831	  3838	  3848	  3849	  3850	  3851	  3852	  3853	  3855	  3860	  3861	  3862	  3863	  3910
	  3912	  3927	  3938	  3960	  3961	  3965	  4236	  4239	  4240	  4251	  4252	  4253	  4254	  4260
	  4262	  4263	  4264	  4265	  4266	  4267	  4268	  4269	  4270	  4271	  4272	  4273	  4274	  4275
	  4276	  4277	  4278	  4305	  4306	  4307	  4308	  4309	  4311	  4313	  4314	  4315	  4317	  4319
	  4322	  4323	  4324	  4325	  4326	  4327	  4328	  4329	  4330	  4331	  4332	  4333	  4334	  4339
	  4340	  4341	  4342	  4343	  4344	  4345	  4346	  4347	  4348	  4349	  4350	  4351	  4352	  4353
	  4354	  4429	  4430	  4442	  4443	  4444	  4446	  4447	  4448	  4449	  4496	  4498	  4513	  4514
	  4519	  4523	  4524	  4574	  4575	  4577	  4578	  4599	  4600	  4609	  4612	  4626	  4627	  4632
SA10 - DIAGNOSTIC FOR SYSTEMS CONCEPTS SA-10 IBM-TO-DEC SUBSYSTEM ADAPTOR	VER 1	MACRO %53B(1155)-2 14:34 14-Feb-86 Page 1
SA10N	MAC	17-Sep-74 22:01


Symbol cross reference

	  4634	  4649	  4650	  4665	  4692	  4696	  4697	  4702	  4709	  4710	  4713	  4714	  4715	  4719	  4722
	  4752	  4756	  4799	  4800	  4801	  4802	  4812	  4816	  4818	  4820	  4821	  4822	  4823	  4824
	  4825	  4826	  4827	  4828	  4829	  4832	  4833	  4834	  4853	  4855	  4864	  4867	  4871	  4872
	  4873	  4877	  4883	  4890	  4891	  4892	  4904	  4905	  4907	  4908	  4910	  4911	  4912	  4913
	  4920	  4921	  4930	  4934	  4949	  4952	  4953	  4967	  5000	  5001	  5002	  5004	  5006	  5026
	  5027	  5031	  5527	  5529	  5535	  5537	  5540	  5541	  5551	  5552	  5559	  5560	  5561	  5562
	  5563	  5564	  5565	  5566	  5567	  5569	  5570	  5571	  5572	  5573	  5577	  5578	  5580	  5581
	  5582	  5583	  5584	  5585	  5588	  5589	  5590	  5591	  5592	  5593	  5594	  5640	  5646	  5647
	  5652	  5653	  5656	  5683	  5686	  5696	  5705	  5711	  5715	  5718	  5719	  5720	  5723	  5724
	  5734	  5735	  5738	  5741	  5743	  5746	  5750	  5752	  5753	  5755	  5756	  5760	  5767	  5773
	  5777	  5815	  5827	  5833	  5834	  5835	  5837	  5840	  5841	  5843	  5851	  5856	  5857	  6033
	  6034	  6035	  6037	  6042	  6057	  6076	  6077	  6078	  6079	  6080	  6081	  6082	  6083	  6084
	  6085	  6086	  6087	  6089	  6093	  6117	  6118	  6122	  6123	  6125	  6126	  6127	  6128	  6129
	  6130	  6131	  6132	  6133	  6137	  6138	  6139	  6140	  6144	  6145	  6149	  6153	  6154	  6156
	  6158	  6159	  6161	  6162	  6163	  6164	  6165	  6201	  6202	  6203	  6204	  6205	  6211	  6215
	  6231	  6232	  6236	  6238	  6239	  6240	  6241	  6242	  6243	  6244	  6247	  6248	  6249	  6250
	  6251	  6252	  6253	  6254	  6255	  6267	  6273	  6274	  6275	  6276	  6278	  6280	  6283	  6285
	  6287	  6289	  6291	  6292	  6321	  6326	  6327	  6329	  6336	  6338	  6340	  6341	  6347	  6348
	  6350	  6351	  6356	  6357	  6358	  6360	  6361	  6372	  6376	  6435	  6436	  6437	  6438	  6499
	  6500	  6511	  6512	  6513	  6518	  6519	  6537	  6539	  6541	  6552	  6553	  6560	  6571	  6578
	  6589	  6590	  6598	  6599	  6601	  6602	  6612	  6613	  6615	  6617	  6624	  6644	  6650	  6654
	  6660	  6661	  6663	  6664	  6665	  6714	  6716	  6717	  6719	  6723	  6724	  6725	  6763	  6772
	  6773	  6775	  6777	  6860	  6862	  6864	  6870	  6874	  6876	  6880	  6881	  6882	  6883	  6884
	  6885	  6886	  6887	  6888	  6889	  6890	  6891	  6892	  6893	  6894	  6895	  6896	  6897	  6898
	  6899	  6930	  6931	  6932	  6933	  6935	  6939	  6940	  6948	  6957	  6958	  6962	  6964	  6976
	  6977	  6978	  6986	  6991	  7022	  7029	  7030	  7039	  7041	  7042	  7046	  7047	  7048	  7131
	  7132	  7133	  7147	  7148	  7149	  7152	  7153	  7154	  7156	  7171	  7172	  7173	  7188	  7190
	  7191	  7193	  7195	  7196	  7197	  7198	  7199	  7201	  7203	  7205	  7223	  7225	  7246	  7248
	  7249	  7254	  7283	  7302	  7305	  7324	  7325	  7326	  7331	  7332	  7333	  7334	  7443	  7658
	  7714	  7741	  7772	  7800	  7850	  7907	  7908	  7909	  7910	  7911	  7912	  7914	  7915	  7918
	  7920	  7921	  7924
ABORTQ	  4440	  4541#	  4604
ACS	  2487	  2488	  2489	  2490	  2511	  2512	  4108#
ADDR	  2673	  2689	  2766	  2767	  2857	  3471	  3629	  3763	  4091#
ADRHI	  1791	  1795	  1803	  2113	  2226	  2410	  2434	  2753	  3137	  3139	  4090#	  6201
ADRLO	   978	  1052	  1138	  1151	  1785	  1804	  2404	  2412	  2754	  2758	  4088#	  4286	  4295	  4464
	  6194	  6244
APR	   229	  2149	  2179	  2182	  2184	  3123	  3129	  3135	  3251	  3257	  3258	  3259	  3260	  3267
	  3269	  3273	  3276	  3277	  3278	  3285	  3287	  3291	  3292	  3306	  3307	  3315	  3317	  3343
	  3352	  3354	  3356	  3880	  7145
APRCH	    53#	  3260	  3278	  3292	  3296	  3505
APRCLK	  3884#	  3896
APRI	  3504	  3877#	  3885	  3890	  3894	  7171	  7173
APRSN	  3342	  3369	  4853	  4891	  4892	  4902#
APRST	  3180	  3232#	  3375	  3378	  7739	  7785
ASNGUE	  4778	  4895#
ASNTRY	  4883	  4890	  4896	  4897	  4898	  4899	  4903#
AWIG	   955#
AWIG0	   957#	   969
AWIG1	   958#	   963	   966
SA10 - DIAGNOSTIC FOR SYSTEMS CONCEPTS SA-10 IBM-TO-DEC SUBSYSTEM ADAPTOR	VER 1	MACRO %53B(1155)-2 14:34 14-Feb-86 Page 1
SA10N	MAC	17-Sep-74 22:01


Symbol cross reference

B	    31#	   475	   478	   481	   541	   542	   543	   544	   546	   554	   555	   560	   561	  1007
	  1008	  1009	  1010	  1011	  1035	  1040	  1041	  1219	  1220	  1221	  1254	  1267	  1268	  1272
	  1286	  1350	  1351	  1386	  1387	  1388	  1408	  1410	  1412	  1414	  1426	  1436	  1438	  1443
	  1478	  1479	  1561	  1565	  1568	  1570	  1574	  1582	  1733	  1734	  1736	  1740	  1741	  1742
	  1744	  1756	  1757	  1760	  1762	  1765	  1768	  1782	  1783	  1965	  1966	  1967	  1971	  1975
	  2019	  2020	  2022	  2026	  2028	  2075	  2093	  2153	  2316	  2317	  2319	  2420	  2424	  2426
	  2431	  2432	  2436	  2507	  2508	  2509	  2559	  2560	  2568	  2581	  2582	  2584	  2585	  2586
	  2590	  2591	  2595	  2597	  2598	  2610	  2611	  2612	  2613	  2618	  2619	  2623	  2624	  2626
	  2632	  2635	  2636	  2639	  2676	  2700	  2710	  2714	  2720	  2727	  2745	  2748	  2749	  2757
	  2763	  2764	  2766	  2767	  2771	  2778	  2822	  2823	  2824	  2834	  2835	  2837	  2838	  2839
	  2841	  2843	  2845	  2847	  2848	  2849	  2853	  2858	  2861	  2862	  2863	  2868	  2870	  2955
	  2956	  2957	  2958	  2959	  2971	  2972	  2976	  2982	  2983	  2987	  2988	  2994	  2995	  2996
	  2997	  2998	  3031	  3183	  3185	  3186	  3192	  3193	  3194	  3195	  3197	  3198	  3211	  3212
	  3214	  3215	  3266	  3284	  3323	  3328	  3345	  3346	  3347	  3370	  3383	  3384	  3385	  3386
	  3492	  3493	  3495	  3518	  3522	  3529	  3530	  3531	  3532	  3533	  3534	  3535	  3536	  3537
	  3541	  3560	  3564	  3565	  3567	  3568	  3570	  3573	  3632	  3636	  3639	  3643	  3645	  3663
	  3664	  3666	  3694	  3696	  3698	  3704	  3706	  3709	  3771	  3773	  3776	  3782	  3783	  3785
	  3788	  3799	  3801	  3804	  3811	  3813	  3816	  3864	  3865	  3901	  3918	  3928	  3937	  3947
	  4194	  4196	  4198	  4203	  4204	  4209	  4218	  4223	  4227	  4233	  4234	  4235	  4240	  4246
	  4247	  4255	  4260	  4335	  4336	  4337	  4338	  4340	  4353	  4543	  4610	  4619	  4630	  4631
	  4635	  4657	  4659	  4691	  4693	  4695	  4716	  4753	  4755	  4804	  4805	  4806	  4813	  4833
	  4865	  4880	  4921	  4922	  4928	  4935	  4954	  4956	  4958	  4968	  5002	  5003	  5004	  5005
	  5006	  5007	  5008	  5009	  5028	  5031	  5032	  5042	  5043	  5044	  5045	  5517	  5528	  5536
	  5538	  5579	  5854	  5880	  5881	  5882	  5883	  5885	  6032	  6052	  6053	  6057	  6058	  6070
	  6072	  6205	  6337	  6339	  6373	  6503	  6508	  6512	  6514	  6525	  6526	  6527	  6565	  6566
	  6567	  6582	  6583	  6584	  6604	  6605	  6609	  6623	  6630	  6631	  6633	  6635	  6637	  6641
	  6642	  6644	  6647	  6648	  6650	  6653	  6654	  6658	  6659	  6663	  6673	  6675	  6676	  6678
	  6680	  6681	  6683	  6684	  6686	  6690	  6691	  6707	  6708	  6720	  6726	  6728	  6729	  6730
	  6731	  6735	  6739	  6741	  6742	  6743	  6744	  6745	  6751	  6756	  6757	  6764	  6765	  6766
	  6767	  6769	  6770	  6774	  6778	  6923	  6925	  6926	  6929	  6930	  6932	  6941	  6943	  6959
	  6971	  6978	  6979	  6985	  6989	  6990	  7023	  7038	  7046	  7047	  7048	  7050	  7057	  7069
	  7078	  7087	  7096	  7106	  7115	  7196	  7211	  7212	  7213	  7245	  7247	  7255	  7297	  7309
	  7443	  7478	  7541	  7549	  7626	  7627	  7744
BAD	  3881	  3883	  3925#	  3931
BAF	  4742	  4744	  4745	  4746	  4751	  4799	  4812	  4815	  5530	  5531	  5532	  5537	  5538	  5540
	  5558	  5559	  5560	  5562	  5564	  5567	  5568	  5570	  5573	  5617	  5631#
BAFCNT	   275#	  4746	  5568
BAFCOD	   291#	   294	  5538	  5570
BAFCT	  4705	  4974	  5010	  5626#
BAFCVR	  4859	  4878#	  4878
BAFCYL	  4661	  4692	  4696	  4715	  4907	  4914	  5039	  5042	  5624#
BAFDAT	  5003	  5005	  5007	  5008	  5009	  5072	  5076	  5080	  5084	  5088	  5092	  5096	  5100	  5104
	  5108	  5112	  5116	  5120	  5124	  5128	  5132	  5136	  5140	  5289	  5295	  5301	  5307	  5313
	  5319	  5325	  5331	  5337	  5343	  5349	  5355	  5361	  5367	  5373	  5379	  5385	  5391	  5632#
BAFDN	  4644	  4993#
BAFELB	   281#	  4768	  4788	  4789	  4822	  4828	  4839	  4846
BAFF	  4613	  4641	  4663	  4700	  4721	  5627#
BAFFIR	   273#	  4742	  4751	  5564
BAFGO	  1091	  4596#
BAFGOA	  4605#	  4608	  4609	  4611
SA10 - DIAGNOSTIC FOR SYSTEMS CONCEPTS SA-10 IBM-TO-DEC SUBSYSTEM ADAPTOR	VER 1	MACRO %53B(1155)-2 14:34 14-Feb-86 Page 1
SA10N	MAC	17-Sep-74 22:01


Symbol cross reference

BAFHED	  4662	  4691	  4716	  4911	  4915	  5041	  5044	  5625#
BAFMAX	  4612	  4710	  5629#
BAFNAM	   272#	  5537	  5562
BAFNBB	   278#	  4765	  4775	  4793	  4804	  4813	  4818	  4820	  4834	  4838	  4845
BAFNBS	   274#	  4745	  4799	  4812	  4815	  5567
BAFO	  4666	  4723	  5035#
BAFP	  4656	  4712	  5000#
BAFPAT	  4655	  4699	  4704	  4709	  4720	  5000	  5037	  5623#
BAFPD1	  5612	  5614	  5620#
BAFPD2	  5578	  5621#
BAFPG1	  5582	  5585	  5611#
BAFPG3	  5583	  5613#	  5615
BAFPG5	  5579	  5584	  5616#
BAFPT0	  5002	  5013#
BAFPT1	  5004	  5017#
BAFPT2	  5006	  5021#
BAFREG	   276#	   294	  5563
BAFSLF	   293#	  5540	  5573
BAFT	  4658	  4660	  5026#
BAFT1	  5028#	  5032
BAFTD	  5043	  5045	  5054	  5057	  5059	  5070	  5074	  5078	  5082	  5086	  5090	  5094	  5098	  5102
	  5106	  5110	  5114	  5118	  5122	  5126	  5130	  5134	  5138	  5153	  5159	  5165	  5171	  5177
	  5183	  5189	  5195	  5201	  5207	  5213	  5219	  5225	  5231	  5237	  5243	  5249	  5255	  5273
	  5285	  5291	  5297	  5303	  5309	  5315	  5321	  5327	  5333	  5339	  5345	  5351	  5357	  5363
	  5369	  5375	  5381	  5387	  5404	  5410	  5416	  5422	  5428	  5434	  5440	  5446	  5452	  5458
	  5464	  5470	  5476	  5482	  5488	  5494	  5500	  5506	  5635#
BAFTP	  4657	  4665	  4719	  5050#
BAFTP1	  5052#
BAFTP2	  5055#
BAFTP3	  5058#
BAFTP4	  5061#
BAFVHI	  4772	  4773	  4861	  5543#	  5543
BAFVMX	   286#	  4769	  4862	  4867	  4872
BAFVOF	   285#	  4767	  4769	  4771	  4821	  4867	  4872	  4877
BAFVOL	   284#	  4767	  4817	  4851
BAFVUN	   283#
BAFW	  4618	  4621#	  4633
BAFW0	  4620	  4638#
BAFW1	  4628#	  4637
BAFW2	  4636	  4642#	  4690
BAFW2A	  4629	  4687#
BAFW2N	  4643#	  4646
BAFW3	  4646#	  4679	  4685	  4711	  4732	  4738	  4961	  4972	  4983
BAFW4	  4671	  4678#
BAFW6	  4668	  4672#
BAFW8	  4664	  4670#
BAFW9	  4663#
BAFW9E	  4667	  4682#
BAFWE1	  4654	  4734#
BAFWP	  4659	  4722	  5271#
SA10 - DIAGNOSTIC FOR SYSTEMS CONCEPTS SA-10 IBM-TO-DEC SUBSYSTEM ADAPTOR	VER 1	MACRO %53B(1155)-2 14:34 14-Feb-86 Page 1
SA10N	MAC	17-Sep-74 22:01


Symbol cross reference

BAFWT	  4625	  4626	  4627	  4634	  4670	  4672	  5622#
BAFX1	  4680	  4713#
BAFX2	  4691#	  4725	  4948	  4975	  4988
BAFX3	  4694	  4717#	  4943
BAFX5	  4698	  4703	  4716#
BAFX99	  4648	  4727#
BAFXBF	  5157	  5163	  5169	  5175	  5181	  5187	  5193	  5199	  5205	  5211	  5217	  5223	  5229	  5235
	  5241	  5247	  5253	  5259	  5408	  5414	  5420	  5426	  5432	  5438	  5444	  5450	  5456	  5462
	  5468	  5474	  5480	  5486	  5492	  5498	  5504	  5510	  5634#
BAFY	  4724	  4904#
BAFY0	  4924#	  4929	  4933
BAFY1X	  4937	  4959	  4985#
BAFY2	  4936	  4949#
BAFY2A	  4950	  4954#
BAFY2B	  4955	  4959#
BAFY2E	  4764	  4807	  4837	  4976#
BAFY2F	  4803	  4990#
BAFY7	  4925	  4967#
BAFY7X	  4970	  4980#
BAFY8	  4965	  4973#
BAFYE	  4906	  4939#
BAFYE2	  4909	  4945#
BAFYV	  4913	  4916	  4920	  5630#
BAPDTR	   289#	  4826
BAPHDR	   290#	  4827
BAPNTP	   280#	  4766	  4816
BAPOTR	   288#
BASE	    16#	  6802
BASEA	  2562	  3663	  6802#	  6874	  6876	  6882
BATBK0	   269#	  5527	  5571
BATBK1	   270#	   296	  5551	  5572
BATEMX	  4795#	  4808	  4810
BATGER	  4770	  4783#
BATGET	  4763#	  4924	  5545
BATNEW	  4844#	  4969
BATSNV	  4809	  4850	  4859#
BATSTE	  4811	  4837#
BATSTO	  4799#	  4960	  4971
BATSU	  4742#	  4757	  4923	  5544
BATSUE	  4743	  4749#
BATSV2	  4871	  4873	  4877#
BATSV3	  4870#	  4875
BAYAPN	  4777	  4791#	  4855
BAYELB	  4774	  4787#	  4814
BCTAB	  2995	  2998	  3001#
BEG1	  1251#	  7392
BEG1A	  1258#	  1261
BEGIN	   300	   973#
BEGIN1	   980#	   984	  1055
BEGINC	   315	   317	   977	   983	  1030#
SA10 - DIAGNOSTIC FOR SYSTEMS CONCEPTS SA-10 IBM-TO-DEC SUBSYSTEM ADAPTOR	VER 1	MACRO %53B(1155)-2 14:34 14-Feb-86 Page 1
SA10N	MAC	17-Sep-74 22:01


Symbol cross reference

BEGING	   979	  1048#
BEGS	  2262#	  7373
BF	    43#	  2491	  2511	  2596	  2612	  2706	  2960	  3512	  5035	  5036	  5037	  5038	  5039	  5040
	  5041
BITS	  2596	  2706	  2960	  7993#	  7994	  7995	  7996	  7997	  7998	  7999	  8000	  8001	  8002	  8003
	  8004	  8005	  8006	  8007	  8008	  8009	  8010	  8011	  8012	  8013	  8014	  8015	  8016	  8017
	  8018	  8019	  8020	  8021	  8022	  8023	  8024	  8025	  8026	  8027	  8028	  8029
BLKSIZ	   261#	   291	   293	  4443	  4581	  5532	  5560	  5631
BLKSKP	   296#	  4351
BPLOC	  6425#
BPOPJ1	  4221#	  4230
BRANCH	   118#
BSY0	   131#	  7989
BSY1	   132#
BSY2	   133#
BSY3	   134#
BTE	  1159#
BTE0	  1162#	  1178
BTE1	  1170	  1179#
BTE2	  1165	  1206#
BTE2A	  1219#	  1226
BTE4	  1233#
BTECC	  7765	  7767#	  7773
BTECI	  7709	  7711#	  7715	  7720	  7726
BTECI1	  7713#
BTECR	  7735	  7737#	  7742
BTECW	  7753	  7755#	  7758
BTEDI	  7795	  7797#	  7801
BTERC	  7779	  7781#	  7786
BTESD	  7808	  7843#	  7851
BTIMD	  6549	  6816#
BTIMT	  6547	  6807#
C	    32#	   320	   336	   350	   378	   412	   454	   459	   474	   477	   479	   480	   495	   509
	   517	   524	   525	   526	   551	   630	   639	   650	   659	   773	   775	   777	   780	   781
	   782	   784	   931	   939	   958	   987	   998	  1024	  1036	  1175	  1218	  1220	  1224	  1225
	  1256	  1259	  1286	  1287	  1288	  1321	  1323	  1324	  1325	  1335	  1336	  1391	  1392	  1393
	  1394	  1395	  1396	  1397	  1398	  1399	  1400	  1401	  1402	  1403	  1404	  1406	  1407	  1408
	  1409	  1410	  1411	  1412	  1413	  1415	  1416	  1417	  1420	  1424	  1428	  1442	  1444	  1456
	  1457	  1458	  1512	  1513	  1514	  1516	  1558	  1607	  1762	  1763	  1768	  1770	  1778	  1779
	  1780	  1781	  1782	  1813	  1882	  1900	  1937	  1943	  1945	  2021	  2025	  2074	  2083	  2085
	  2086	  2095	  2096	  2097	  2104	  2113	  2162	  2185	  2195	  2196	  2205	  2208	  2211	  2213
	  2220	  2244	  2269	  2270	  2422	  2427	  2439	  2464	  2475	  2500	  2532	  2538	  2627	  2628
	  2640	  2668	  2673	  2680	  2689	  2692	  2718	  2719	  2720	  2721	  2729	  2730	  2733	  2735
	  2746	  2758	  2759	  2761	  2780	  2825	  2851	  2901	  2904	  2913	  2920	  2923	  2947	  2967
	  3020	  3022	  3026	  3055	  3062	  3068	  3073	  3103	  3109	  3112	  3140	  3184	  3185	  3187
	  3335	  3449	  3454	  3460	  3463	  3471	  3487	  3506	  3527	  3528	  3533	  3571	  3574	  3575
	  3585	  3589	  3606	  3617	  3622	  3623	  3624	  3631	  3633	  3635	  3665	  3666	  3692	  3695
	  3703	  3704	  3706	  3710	  3711	  3750	  3751	  3757	  3766	  3767	  3772	  3781	  3782	  3797
	  3800	  3810	  3811	  3813	  3818	  3819	  3833	  3839	  3856	  3866	  3872	  3899	  3905	  3913
	  3920	  3929	  3932	  3936	  4312	  4313	  4318	  4321	  4322	  4324	  4326	  4338	  4339	  4355
SA10 - DIAGNOSTIC FOR SYSTEMS CONCEPTS SA-10 IBM-TO-DEC SUBSYSTEM ADAPTOR	VER 1	MACRO %53B(1155)-2 14:34 14-Feb-86 Page 1
SA10N	MAC	17-Sep-74 22:01


Symbol cross reference

	  4359	  4405	  4432	  4437	  4465	  4466	  4467	  4468	  4518	  4526	  4545	  4565	  4566	  4569	  4601
	  4605	  4614	  4621	  4638	  4675	  4682	  4687	  4706	  4727	  4729	  4734	  4742	  4744	  4749
	  4750	  4751	  4764	  4765	  4768	  4775	  4780	  4783	  4788	  4789	  4793	  4804	  4813	  4818
	  4820	  4822	  4828	  4834	  4838	  4839	  4840	  4844	  4845	  4846	  4866	  4868	  4874	  4879
	  4884	  4886	  4917	  4939	  4945	  4962	  4976	  4980	  4985	  4990	  4993	  5028	  5029	  5030
	  5522	  5554	  5819	  5825	  5835	  5838	  5844	  5873	  6031	  6044	  6062	  6064	  6073	  6179
	  6206	  6209	  6218	  6333	  6369	  6504	  6534	  6547	  6558	  6560	  6567	  6576	  6578	  6584
	  6594	  6622	  6626	  6629	  6630	  6641	  6647	  6653	  6660	  6664	  6689	  6690	  6877	  6926
	  6927	  6928	  6929	  6936	  6937	  6938	  6943	  6944	  6945	  6946	  6950	  6952	  6954	  6965
	  6971	  6972	  6985	  6987	  6988	  6989	  6990	  7024	  7037	  7049	  7050	  7124	  7138	  7164
	  7231	  7232	  7256	  7263	  7264	  7269	  7270	  7274	  7277	  7278	  7283	  7287	  7288	  7289
	  7290	  7296	  7344	  7369	  7376	  7382	  7387	  7389	  7395	  7404	  7413	  7419	  7428	  7445
	  7453	  7462	  7468	  7480	  7495	  7503	  7511	  7519	  7526	  7534	  7541	  7543	  7549	  7550
	  7552	  7559	  7567	  7575	  7583	  7591	  7597	  7598	  7600	  7613	  7621	  7626	  7628	  7629
	  7631	  7650	  7659	  7660	  7662	  7671	  7682	  7691	  7697	  7703	  7717	  7723	  7729	  7747
	  7761	  7775	  7789	  7804	  7810	  7816	  7822	  7828	  7835	  7853	  7863	  7871	  7877	  7883
	  7890	  7897
C0XCT	   961	  1299	  1301	  1328	  1466	  1468	  1566	  1572	  1766	  2300#	  6863	  6865
CBASE	   408	   420	   437	   485	   745	   761	   768	  2060	  2439	  2571	  2878	  3100	  3102	  3107
	  3546	  5686	  5723	  5727	  5728	  5739	  5780	  5783	  5790	  5792	  5795	  5800	  5801	  5803
	  5810	  5812	  6238	  6275	  6291	  6326	  6341	  6347	  6350	  6353	  6354	  6363	  6365	  6378
	  6379	  6883	  6885	  6887	  6903#
CHAN	  2568	  3657	  3838	  3855	  6860	  6880	  6888	  6902#
CHCW	  2586	  2590	  2597	  2600	  2607	  2619	  2624	  2626	  2703	  2705	  2709	  2710	  2955	  2959
	  3049	  3480	  3484	  3515	  3519	  3526	  3535	  3555	  3568	  3570	  3631	  3649	  3750	  3762
	  3766	  3793	  3826	  3830	  4055#
CHK0	  3752	  3763#
CHK1	  3774#	  3790
CHKCC2	  4220	  4226#
CHKCNC	   307	   967	   981	  1277	  1293	  1312	  1343	  1356	  1364	  1376	  1451	  1488	  1555	  1579
	  1604	  1625	  1636	  1658	  1671	  1689	  1699	  1728	  1753	  1775	  1819	  1856	  1867	  1895
	  1920	  1961	  1989	  2126	  2416	  3552	  4218#	  4717	  6096	  6185	  6296	  6699	  6710	  6737
	  7218	  7237	  7299	  7711	  7737	  7755	  7767	  7781	  7797	  7843
CHKIT	  3559	  3750#
CHKNHC	  1589	  1645	  2040#
CHKTYI	  1020	  3945	  3968	  3973	  4213#
CHKV	  3768	  3795#
CHKV1	  3802#	  3807
CHKVW	  3798	  3810#
CHKVW1	  3811#	  3821
CHKVX	  3796	  3808	  3822#
CHKVXX	  3824	  3831	  3836#
CHKX	  3770	  3787	  3791#	  3836
CHNCHK	  6501	  6858	  7018#
CHNCK2	  7020	  7040#
CHRST	   116#
CI	   982	   987#
CI0	   302	   992#	  1016	  1021	  1026	  1278	  1294	  1313	  1344	  1357	  1365	  1377	  1452	  1489
	  1556	  1580	  1605	  1626	  1637	  1659	  1672	  1690	  1700	  1729	  1754	  1776	  1820	  1857
	  1868	  1896	  1921	  1962	  1990	  2127	  2224	  2417	  2452	  2472	  2483	  3553	  3842	  3859
SA10 - DIAGNOSTIC FOR SYSTEMS CONCEPTS SA-10 IBM-TO-DEC SUBSYSTEM ADAPTOR	VER 1	MACRO %53B(1155)-2 14:34 14-Feb-86 Page 1
SA10N	MAC	17-Sep-74 22:01


Symbol cross reference

	  3952	  3955	  3958	  3969	  4409	  4521	  4530	  4549	  4718	  4996	  5525	  5644	  6189	  6221	  6297
	  6346	  6382	  6700	  6711	  6738	  7219	  7238	  7300	  7657	  7712	  7738	  7756	  7768	  7782
	  7798	  7844
CI1	  1004#	  1043
CI5	  1019#	  1022
CIDDT	  1031#	  1113
CIE	  1008	  1024#	  1056	  1057	  1058	  1059	  1060	  1061	  1062	  1063	  1064	  1065	  1066	  1067
	  1069	  1070	  1071	  1072	  1073	  1074	  1075	  1076	  1077	  1078	  1079	  1080	  1081	  1082
	  1083	  1084	  1085	  1086	  1087	  1089	  1090	  1092	  1094	  1096	  1097	  1098	  1099	  1100
	  1101	  1103	  1104	  1110	  1112	  1114	  1116	  1117	  1118	  1119	  1120
CIN	  1006	  1013	  1028#	  2402	  3405
CIP	  1017	  1019	  1029#
CIT	  1015	  1056#
CITCM	  1040#	  1068
CKTIAI	  3264	  3282	  4201#
CKTIL	  3300	  4207#
CKTYI0	  3245#	  4190	  4214	  4219
CLBSY	    80#	  1535
CLKCF	  2067	  2076	  2079	  2092	  3239#	  3508	  3888	  3962
CLKENB	  3241#	  3509	  3889
CLKSKP	  2065	  2077	  2088	  3240#	  3884	  3963
CLMERR	    76#	  1248	  2548	  5689	  7335
CLPIE	    86#	  1524
CLRPGT	  3155	  3242#
CLSRQ	    82#	  1711
CLSTF	    84#	  1546	  1714	  2509	  6905	  7057	  7069	  7078	  7087	  7096	  7106	  7115
CLSTFC	   487	   747	   934	  2448	  5730	  5804	  5808	  6890	  6905#
CMT	  1102	  2402#
CMT0	  2412#
CMT1	  2414#	  2435
CMT1A	  2415	  2420#
CMT1E0	  2425	  2463#
CMT1E1	  2432	  2474#
CMTA	  2405#	  2411
CMTG	  2423	  2429	  2439#
CMTG0	  2442#	  2444
CMTGE	  2447	  2451#
CMTP0	  2421	  2422	  2454#
CMTP1	  2427	  2458#
CMTP1A	  2428	  2459#
CMTPT	  2424	  2426	  2455	  2458	  2462#	  2468	  2477
CNT	  2359	  2370	  2371	  2374#	  2380	  2381
CNTBB	  2977	  2984	  2994#
CNTSFT	    52#	  2836	  2842	  2846	  2855	  4575
CODBAT	   292#	  5536	  5569
CONFIG	    59#	  1779	  2041	  2108	  2231	  3413	  4263
CPAT	   215#	   717	   728
CPATS	   216#	   712	   723
CPG0	  3987	  8038#
CPG1	  3989	  8041#
SA10 - DIAGNOSTIC FOR SYSTEMS CONCEPTS SA-10 IBM-TO-DEC SUBSYSTEM ADAPTOR	VER 1	MACRO %53B(1155)-2 14:34 14-Feb-86 Page 1
SA10N	MAC	17-Sep-74 22:01


Symbol cross reference

CPG10	  4003	  8062#
CPG11	  4005	  8065#
CPG12	  4007	  8068#
CPG13	  4009	  8071#
CPG14	  4011	  8074#
CPG15	  4013	  8077#
CPG16	  4015	  8080#
CPG17	  4017	  8083#
CPG2	  3991	  8044#
CPG20	  4019	  8086#
CPG21	  4021	  8089#
CPG22	  4023	  8092#
CPG23	  4025	  8095#
CPG24	  4027	  8098#
CPG25	  4029	  8101#
CPG26	  4031	  8104#
CPG27	  4033	  8107#
CPG3	  3993	  8047#
CPG30	  4035	  8110#
CPG31	  4037	  8113#
CPG32	  4039	  8116#
CPG33	  4041	  8119#
CPG34	  4043	  8122#
CPG35	  4045	  8125#
CPG36	  4047	  8128#
CPG37	  4049	  8131#
CPG4	  3995	  8050#
CPG5	  3997	  8053#
CPG6	  3999	  8056#
CPG7	  4001	  8059#
CPGP	  2627	  2635	  2822	  3495	  3536	  3650	  3978#	  3987	  3989	  3991	  3993	  3995	  3997	  3999
	  4001	  4003	  4005	  4007	  4009	  4011	  4013	  4015	  4017	  4019	  4021	  4023	  4025	  4027
	  4029	  4031	  4033	  4035	  4037	  4039	  4041	  4043	  4045	  4047	  4049
CPOPJ	  2773	  4763	  4844	  4895	  5029	  6637	  6675	  6736#	  7041	  7049	  7700
CPOPJ1	  2043	  2047	  2989	  2992	  4202	  4208	  4216	  4242	  4249	  4320	  4321	  4357	  4781	  4819
	  4831	  4835	  4852	  4856	  5548#	  5725	  5818
CPU	  2146	  2177	  3125	  3149	  3173#	  3173
CPUINI	  3177	  3244#
CPUTAB	   993	  3227	  3228	  3229	  3231#
CPUTBL	  3174	  3227#
CR	   786	  1012	  2930	  3611	  5850	  5865	  5869	  5871	  5876	  5892	  6626#	  6670	  6671	  6958
	  6969
CR2	  3917	  6669	  6670#
CR4	  6669#
CRECL	  2854	  2865	  4255	  4335	  4348	  4457	  4581#
CSET	  2058	  2403	  3406	  4428	  4598	  5645	  6075	  6116	  6858#
CSET3	  6875	  6880#
CUONL	  3424#	  3424	  3432#	  3432	  3846
CURSEQ	  1253	  6792	  6923	  6925	  6938	  6941	  6995	  6998#	  7019	  7030
CV	    47	    49	    51	    60	    63	    68	  1395	  1405	  1414	  1481	  1482	  1982	  1983	  3494
SA10 - DIAGNOSTIC FOR SYSTEMS CONCEPTS SA-10 IBM-TO-DEC SUBSYSTEM ADAPTOR	VER 1	MACRO %53B(1155)-2 14:34 14-Feb-86 Page 1
SA10N	MAC	17-Sep-74 22:01


Symbol cross reference

	  3495	  3980	  3984	  4256	  4259	  6134	  6136	  6141	  6143	  7332	  7980	  7981
CWT1	  1426#	  1445
CWT2	  1427#	  1443
CWT2A	  1442#	  7492
CWTA	  1385	  1417	  7441#
CWTB	  1388	  1420	  7442#
CWTD	  1389	  1418	  7979#
CWTST	  1382#	  1447
CWTST0	  1380#	  1453
CWTST1	  1383#
CWTST2	  1417#
CXTST	  1598	  1615	  1619	  1652	  1665	  1675	  1681	  1693	  1968	  1972	  1976	  2023	  2029	  2045
	  2305#
CXXCT	  1423	  1507	  1592	  1594	  1596	  1613	  1630	  1648	  1650	  1662	  1835	  1849	  1910	  2007
	  2285	  2294	  2296#	  6603	  7192	  7200	  7202
D	    33#	   334	   344	   345	   348	   365	   371	   374	   376	   400	   406	   408	   409	   418
	   420	   421	   434	   435	   449	   451	   452	   456	   457	   490	   492	   493	   506	   507
	   518	   527	   649	   651	   654	   739	   753	   754	   755	   759	   760	   761	   763	   767
	   768	   769	   929	   937	  1011	  1015	  1037	  1253	  1254	  1256	  1259	  1390	  1391	  1394
	  1399	  1401	  1405	  1406	  1414	  1415	  1435	  1439	  1440	  1517	  1518	  1522	  1527	  1529
	  1533	  1538	  1540	  1544	  1549	  1551	  1609	  1612	  1628	  1663	  1679	  1685	  1795	  1801
	  1802	  1803	  1804	  1813	  1872	  2011	  2012	  2015	  2018	  2027	  2033	  2085	  2096	  2193
	  2202	  2314	  2315	  2323	  2326	  2520	  2531	  2563	  2565	  2603	  2724	  2725	  2728	  2735
	  2736	  2740	  2753	  2754	  2755	  2757	  2759	  2760	  2767	  2776	  2780	  2783	  2826	  2827
	  2828	  2835	  2840	  2841	  2844	  2845	  2850	  2851	  2852	  2853	  2859	  2860	  2903	  2908
	  2910	  2931	  2946	  3025	  3033	  3050	  3051	  3053	  3054	  3058	  3059	  3060	  3066	  3070
	  3102	  3117	  3119	  3124	  3127	  3128	  3131	  3132	  3136	  3137	  3139	  3148	  3160	  3425
	  3426	  3433	  3434	  3435	  3562	  3563	  3564	  3596	  3597	  3599	  3600	  3629	  3640	  3646
	  3699	  3712	  3753	  3754	  3755	  3763	  3778	  3789	  3806	  3820	  3832	  3863	  3900	  3902
	  3909	  3919	  3930	  3931	  3935	  4450	  4454	  4564	  4704	  4745	  4746	  4763	  4781	  4916
	  5824	  5843	  5848	  5858	  5867	  5878	  5891	  5893	  6038	  6041	  6043	  6045	  6208	  6210
	  6224	  6225	  6226	  6231	  6232	  6331	  6367	  6505	  6531	  6532	  6534	  6538	  6540	  6543
	  6546	  6547	  6549	  6555	  6556	  6558	  6573	  6574	  6576	  6593	  6621	  6942	  6946	  6947
	  6949	  6950	  6951	  6952	  6956	  6957	  6961	  6967	  6994	  6995	  7025	  7036	  7190	  7193
	  7195	  7199	  7257	  7262	  7277	  7295	  7598	  7744	  7745
DCONI	   756	  1162	  1166	  1182	  1214	  1219	  1228	  1521	  1526	  1532	  1537	  1543	  1548	  1567
	  1573	  1722	  2071	  2171	  2442	  2445	  2492	  2536	  5702	  5706	  5709	  5713	  5717	  5787
	  6268	  6271	  6510	  6788	  6796#	  6919	  7323	  7713	  7740	  7771
DCONO	   332	   392	   488	   748	   750	   935	  1181	  1191	  1195	  1199	  1213	  1235	  1242	  1244
	  1249	  1303	  1333	  1347	  1368	  1431	  1471	  1476	  1511	  1520	  1525	  1531	  1536	  1542
	  1547	  1563	  1706	  1712	  1715	  1718	  1735	  1745	  1823	  1827	  1886	  2056	  2061	  2070
	  2081	  2117	  2132	  2134	  2165	  2242	  2249	  2263	  2278	  2288	  2308	  2336	  2348	  2389
	  2391	  2441	  2449	  2506	  2510	  2517	  2522	  2527	  2547	  2549	  3548	  3550	  3654	  3670
	  3673	  4427	  4597	  5690	  5693	  5731	  5785	  5805	  5809	  6121	  6258	  6318	  6516	  6522
	  6529	  6533	  6545	  6606	  6616	  6787	  6795#	  6867	  6873	  6974	  7058	  7070	  7079	  7088
	  7097	  7107	  7116	  7208	  7228	  7328	  7336	  7340	  7770	  7784	  7846	  7848
DD	    42#	   331	   391	   487	   747	   749	   758	   934	  1163	  1169	  1180	  1183	  1190	  1194
	  1198	  1212	  1215	  1222	  1229	  1234	  1237	  1241	  1243	  1246	  1248	  1268	  1275	  1281
	  1284	  1291	  1302	  1306	  1310	  1332	  1335	  1341	  1346	  1349	  1354	  1362	  1367	  1370
	  1374	  1428	  1430	  1433	  1449	  1470	  1473	  1475	  1478	  1486	  1510	  1519	  1522	  1524
SA10 - DIAGNOSTIC FOR SYSTEMS CONCEPTS SA-10 IBM-TO-DEC SUBSYSTEM ADAPTOR	VER 1	MACRO %53B(1155)-2 14:34 14-Feb-86 Page 1
SA10N	MAC	17-Sep-74 22:01


Symbol cross reference

	  1527	  1530	  1533	  1535	  1538	  1541	  1544	  1546	  1549	  1553	  1562	  1568	  1574	  1577	  1602
	  1623	  1634	  1656	  1669	  1687	  1697	  1705	  1711	  1714	  1717	  1723	  1726	  1734	  1744
	  1751	  1773	  1817	  1822	  1825	  1826	  1829	  1854	  1865	  1885	  1888	  1893	  1918	  1959
	  1987	  2055	  2069	  2072	  2080	  2116	  2119	  2124	  2131	  2133	  2136	  2164	  2172	  2241
	  2248	  2251	  2262	  2265	  2266	  2269	  2277	  2280	  2281	  2282	  2287	  2296	  2300	  2305
	  2307	  2310	  2319	  2323	  2335	  2339	  2342	  2388	  2390	  2394	  2396	  2440	  2443	  2446
	  2448	  2493	  2505	  2509	  2516	  2520	  2521	  2524	  2526	  2529	  2537	  2546	  2548	  3267
	  3285	  3402	  3403	  3547	  3549	  3653	  3669	  3672	  4426	  4596	  5689	  5692	  5703	  5707
	  5710	  5714	  5718	  5730	  5784	  5788	  5804	  5808	  6120	  6257	  6269	  6272	  6280	  6281
	  6317	  6507	  6511	  6515	  6518	  6521	  6525	  6528	  6532	  6537	  6544	  6549	  6552	  6562
	  6565	  6579	  6582	  6598	  6605	  6615	  6619	  6697	  6703	  6782	  6783	  6785	  6786	  6787
	  6788	  6789	  6790	  6791	  6792	  6795	  6796	  6797	  6798	  6866	  6870	  6872	  6920	  6973
	  6976	  7057	  7069	  7078	  7087	  7096	  7106	  7115	  7205	  7207	  7211	  7216	  7225	  7227
	  7231	  7235	  7293	  7298	  7310	  7314	  7324	  7327	  7330	  7335	  7338	  7339	  7342	  7714
	  7741	  7769	  7772	  7783	  7800	  7845	  7847	  7850
DDATAI	  1236	  1245	  1283	  1305	  1334	  1348	  1369	  1432	  1472	  1477	  1824	  1828	  1887	  2118
	  2135	  2250	  2264	  2268	  2279	  2309	  2338	  2352	  2393	  2519	  2523	  2528	  6517	  6524
	  6536	  6551	  6564	  6581	  6597	  6790	  6798#	  6869	  6975	  7210	  7230	  7329	  7337	  7341
	  7799	  7849
DDATAO	  1269	  1282	  1429	  2267	  2297	  2301	  2306	  2320	  2324	  2343	  2354	  6550	  6563	  6580
	  6789	  6797#	  7206	  7226
DDEVA	  6783	  6785	  6799#
DDT	   308	   324	   511	   539	   787	   968	  1038	  1141	  1143	  1149	  1153	  4280	  5897	  6091
	  6095	  7129	  7143	  7169	  7242	  7251#	  7306
DDTE	  1121	  1142#
DDTG	  1122#	  1152	  8152
DDTG0	  1130	  1133#
DDTG1	  1125	  1127	  1132	  1134#
DDTQ	   301	  1151#
DEVFLD	  2563	  3107	  4584#	  5647	  5652	  5656	  5843	  6126	  6127	  6128	  6129	  6130	  6131	  6280
DEVL	  2628	  2636	  2823	  3516	  3541	  3545	  3652	  4179#
DEVN	  2613	  2826	  4107#
DIGO	  2684	  2696	  2703#
DIMP	  2677	  2701	  2709#
DIP0	  2664#	  2699	  2702	  2958	  3518
DIP1	  2666	  2669#
DIP1A	  2671	  2674#
DIP1B	  2675	  2678#
DIP2	  2679	  2685#
DIP2A	  2687	  2690#	  3522
DIP3	  2691	  2697#	  3534
DIRW	  2681	  2693	  2821#
DIRW1	  2845#	  2867
DIRW1V	  2866	  4347	  4423#
DNUMG	  4234#	  4889
DPHAD0	  2970#	  3030
DPHADR	  2929	  2966#
DPHBIN	  2979	  2987#
DPHLOK	  2970	  2975#	  4830
DPHUN	  2981	  2991#
SA10 - DIAGNOSTIC FOR SYSTEMS CONCEPTS SA-10 IBM-TO-DEC SUBSYSTEM ADAPTOR	VER 1	MACRO %53B(1155)-2 14:34 14-Feb-86 Page 1
SA10N	MAC	17-Sep-74 22:01


Symbol cross reference

DPT	  6651	  6756#
DRAVL	  4645	  5588#
DRAVLD	  5605	  5609#
DRAVLP	  5590	  5594	  5597#
DRAVLQ	  5591	  5601#	  5603
DRAVLR	  5592	  5604#
DRAVLS	  5593	  5599#
DRVGO	  3423#	  3423	  3444
DRVLD0	  5600	  5602	  5608#
DRVTY0	  3020#	  3577
DRVTY1	  3021	  3025#
DRVTYP	  3019#	  3451	  3465	  3873	  4731
DSCI	   208#	   876
DSE1	  2574	  2589	  2877#
DSE2	  2920#
DSE4	  2890	  2899#
DSE5	  2944	  2951#
DSENS1	  3033#	  3427
DSEOFL	  2887	  2953#
DSET	  3469	  4300#	  4445	  4651
DSET0	  4300	  4305#
DSET1	  4313#	  4318
DSETCY	  4323	  4331	  4412#	  4524	  4702
DSETD	  4307	  4411#
DSETE	  4301	  4405#
DSETNR	  4341	  4344	  4349	  4352	  4415#	  4446	  4652
DSETP	  4305	  4315	  4363#
DSETP2	  4306	  4365#
DSETPD	  4314	  4364	  4367#
DSETR2	  4343	  4416#	  4500
DSETSU	  2727	  2728	  2830	  2912	  3904	  4327	  4330	  4414#	  4514	  4693	  4714	  4910
DSETT0	  4312	  4313	  4322	  4371#
DSETT1	  4312	  4324	  4378#
DSETT2	  4326	  4385#
DSETT3	  4338	  4392#
DSETT4	  4339	  4399#
DSETTY	  4355	  4417#
DSETUC	  4325	  4328	  4413#	  4697	  4908
DSFLGX	  2619#	  2634
DSI0	  2499	  2557#
DSI0A	  2584	  2588#
DSI0E	  2567	  2570	  2639#
DSI5	  2580	  2600#
DSI5A	  2602	  2608#
DSIB1	  2617	  2632#
DSIBSY	  2576	  2616#
DSKCDC	  2898	  2941	  3047#
DSKEX	  2511#	  2550
DSKI	  2486#	  2514	  3502
DSKIE	  2495	  2500#
SA10 - DIAGNOSTIC FOR SYSTEMS CONCEPTS SA-10 IBM-TO-DEC SUBSYSTEM ADAPTOR	VER 1	MACRO %53B(1155)-2 14:34 14-Feb-86 Page 1
SA10N	MAC	17-Sep-74 22:01


Symbol cross reference

DSKRL	  2624#	  2629
DSKRS2	  2625	  2629#
DSKRX	  2594	  2635#
DSKSM2	  3598	  3609#
DSKSML	  3596#	  3610
DSKT	  1093	  3398#
DSKT0	  2554	  2893	  2939	  3077	  3499#	  3940
DSKT1	  3514#	  3542
DSKT1A	  3518#
DSKT1B	  3521	  3524	  3535#
DSKT2	  3551#	  3616
DSKT3	  3555#	  3579
DSKT4	  3561	  3567#	  3655	  3875
DSKT5	  3569	  3579#
DSKT5A	  3576#	  3625
DSKT8	  3583	  3614#
DSKTL0	  3422#	  3854
DSKTL1	  3425#	  3485	  3845
DSKTL2	  3448	  3454#
DSKTLE	  3429	  3838#
DSKTOF	  3572	  3622#
DSKTS3	  3443	  3457#
DSKTS4	  3456	  3465#
DSKTS5	  3452	  3467#
DSKTS6	  3459	  3470#
DSKTS7	  3486#	  3847
DSKTV	  1111	  3399#
DSKWH1	  3061	  3066#
DSKWHR	  3052	  3058#
DSKWHX	  3053	  3065	  3077#
DSKX1	  2505#	  2609	  2620	  2630	  2711	  2961
DSKX1A	  2507#	  2643
DSKX2	  2578	  2592	  2599	  2622#	  2637	  2707
DSKXX	  2503	  2552#	  2919	  2926	  2951	  3620
DSPE	  2497	  2543#
DSPE1	  2451	  2516#	  2543
DSTAT	  2879	  2880	  2881	  2882	  2900	  2903	  2907	  2910	  2917	  4186#
DSVFLG	  3400	  3445	  3483	  4110#
DTE	   232#	  3360	  3387	  3393
DTECMD	   237#	  3359	  3385	  3392
DTEEPW	   234#
DTEF11	   236#	  4209
DTEFLG	   235#	  3358	  3361	  3390	  3394	  3396
DTEMTD	   241#	  3301	  3364	  3382
DTEMTI	   242#	  3363	  4207	  4210
DTSET	  3431	  3844#
E	    34#	   319	   341	   342	   343	   344	   352	   353	   355	   356	   357	   358	   361	   362
	   375	   376	   387	   394	   421	   423	   519	   530	   541	   628	   629	   637	   638	   652
	   655	   658	   929	   957	   958	   962	   964	   965	  1017	  1093	  1102	  1105	  1108	  1109
	  1111	  1514	  1515	  1519	  1524	  1530	  1535	  1541	  1546	  1559	  1560	  1785	  1786	  1788
SA10 - DIAGNOSTIC FOR SYSTEMS CONCEPTS SA-10 IBM-TO-DEC SUBSYSTEM ADAPTOR	VER 1	MACRO %53B(1155)-2 14:34 14-Feb-86 Page 1
SA10N	MAC	17-Sep-74 22:01


Symbol cross reference

	  1789	  1791	  1793	  1809	  1811	  1829	  1830	  1831	  1842	  1843	  1845	  1847	  1861	  1862	  1888
	  1889	  1890	  1913	  1915	  1936	  1942	  1947	  1955	  1956	  1981	  1982	  1984	  2005	  2006
	  2012	  2074	  2087	  2094	  2097	  2100	  2103	  2226	  2227	  2228	  2230	  2233	  2234	  2237
	  2244	  2255	  2404	  2405	  2407	  2408	  2410	  2412	  2418	  2421	  2428	  2433	  2434	  2470
	  2481	  2525	  2544	  2546	  2564	  2729	  2737	  2738	  2740	  2742	  2761	  2762	  2766	  2773
	  2774	  2782	  2829	  2830	  2831	  2833	  2861	  2885	  2886	  2888	  2889	  2891	  2892	  2894
	  2895	  2896	  2907	  2911	  2912	  2922	  2923	  2927	  2934	  2935	  2937	  2938	  2940	  2953
	  3067	  3071	  3111	  3112	  3116	  3118	  3601	  3602	  3603	  3630	  3644	  3647	  3700	  3713
	  3756	  3764	  3787	  3790	  3807	  3821	  3865	  3898	  3903	  3904	  3912	  3921	  4462	  4463
	  4474	  4485	  4494	  4512	  4513	  4522	  4523	  4533	  4652	  4653	  4774	  4776	  4808	  4810
	  4814	  4848	  4914	  4926	  4934	  4949	  4951	  4953	  4967	  5846	  5847	  5857	  5864	  5865
	  5866	  5879	  5888	  6044	  6045	  6047	  6049	  6051	  6052	  6064	  6065	  6067	  6069	  6070
	  6215	  6332	  6366	  6506	  6557	  6561	  6562	  6568	  6569	  6575	  6579	  6585	  6587	  6592
	  6620	  6961	  6962	  7026	  7035	  7276	  7278	  7280	  7387	  7474	  7475	  7476	  7477	  7478
	  7486	  7830	  7839
ECPUTB	  3175	  3249#
EPT	    21#	  3154	  3197	  3209	  3224	  3226	  3279	  3297	  3351	  7147	  7149
ERR1	  6921	  7375#
ERR10	  1863	  7467#
ERR11	  1339	  7418#
ERR12	  1372	  7452#
ERR13	  1523	  7494#
ERR14	  1528	  7502#
ERR15	  1534	  7510#
ERR16	  1539	  7518#
ERR17	  1545	  7525#
ERR18	  1550	  7533#
ERR19	  1569	  7541#
ERR2	  6996	  7381#
ERR20	  1575	  7549#
ERR21	  1600	  7558#
ERR22	  1621	  7566#
ERR23	  1695	  7612#
ERR24	  1632	  7574#
ERR25	  1654	  7582#
ERR26	  1667	  7590#
ERR27	  1684	  7597#
ERR28	  1441	  7474#
ERR28V	  7440#	  7476	  7484
ERR29	  1724	  7620#
ERR3	  1255	  1260	  7387#
ERR30	  2272	  7368#
ERR31	  7055	  7643#
ERR32	  7068	  7644#
ERR33	  7077	  7645#
ERR34	  7086	  7646#
ERR35	  7095	  7647#
ERR36	  7105	  7648#
ERR37	  7114	  7649#
ERR38	  1749	  7626#
SA10 - DIAGNOSTIC FOR SYSTEMS CONCEPTS SA-10 IBM-TO-DEC SUBSYSTEM ADAPTOR	VER 1	MACRO %53B(1155)-2 14:34 14-Feb-86 Page 1
SA10N	MAC	17-Sep-74 22:01


Symbol cross reference

ERR38A	  7629	  7633	  7640#
ERR38B	  7627	  7635	  7641#
ERR39	  1483	  7658#
ERR4	  1273	  7394#
ERR40	  1308	  7412#
ERR41	  1771	  7670#
ERR42	  7214	  7681#
ERR43	  7233	  7690#
ERR44	  2053	  7696#
ERR5	  1289	  7403#
ERR50	  1185	  7702#
ERR51	  1202	  7716#
ERR52	  1204	  7722#
ERR53	  1207	  7728#
ERR54	  1223	  7744#
ERR55	  1217	  7760#
ERR56	  1232	  7774#
ERR57	  1239	  7788#
ERR58	  1247	  7803#
ERR6	  1352	  7427#
ERR60	  2121	  7809#
ERR61	  2138	  7815#
ERR62	  2173	  7821#
ERR63	  2247	  7827#
ERR64	  2254	  7834#
ERR65	  1832	  7852#
ERR66	  1841	  7862#
ERR67	  1844	  7870#
ERR68	  1891	  7876#
ERR7	  1360	  7443#
ERR70	  1916	  7882#
ERR71	  1957	  7889#
ERR72	  1985	  7896#
ERR8	  1815	  1884	  1904	  2115	  2169	  7323#
ERR8P0	  7338	  7348	  7365#
ERR8P1	  7342	  7350	  7366#
ERR8P2	  7326	  7334	  7353	  7367#
ERR8PA	  7330	  7332	  7346	  7364#
ERR8T	  7353	  7357#
ERR9	  1852	  7461#
ERRCT	  2942	  3477	  3605	  4097#
F	    35#	   373	   374	   375	   380	   381	   411	   422	   423	   476	   477	   478	   520	   531
	   547	   548	   549	   550	   552	   553	   651	   652	  1425	  1445	  1455	  1456	  1491	  1492
	  1839	  1840	  1843	  1859	  1862	  2101	  2102	  2229	  2230	  2231	  2232	  2236	  2430	  2431
	  2479	  2529	  2530	  2677	  2684	  2696	  2701	  2703	  2704	  2705	  2709	  2832	  2833	  2836
	  2837	  2838	  2842	  2843	  2846	  2847	  2848	  2854	  2855	  2856	  2857	  2858	  2869	  2870
	  3072	  3604	  4705	  4775	  4776	  4847	  4915	  4932	  4935	  4954	  4957	  4958	  4968	  5872
	  5873	  5877	  5880	  5886	  5890	  6046	  6047	  6049	  6050	  6051	  6066	  6067	  6068	  6069
	  6216	  6217	  6368	  6963	  6964	  7027	  7034	  7475
F7TK	  6146	  6155	  6157	  6405#
SA10 - DIAGNOSTIC FOR SYSTEMS CONCEPTS SA-10 IBM-TO-DEC SUBSYSTEM ADAPTOR	VER 1	MACRO %53B(1155)-2 14:34 14-Feb-86 Page 1
SA10N	MAC	17-Sep-74 22:01


Symbol cross reference

FIFO1	  1589#	  1606	  1639
FIFO1A	  1601#	  7564
FIFO2	  1610#	  1627	  1628
FIFO2A	  1622#	  7572
FIFO2B	  1633#	  7580
FIFO2C	  1629#	  1638
FIFO2D	  1590	  1639#
FIFO3	  1645#	  1660	  1701	  1702
FIFO3A	  1655#	  7588
FIFO3Z	  1663#	  1691
FIFO4	  1664#	  1673	  1685
FIFO4A	  1668#	  7596
FIFO4B	  1685#	  7610
FIFO4C	  1696#	  7618
FIFO4D	  1646	  1702#
FILI1	  3637#	  3647
FILLIT	  3557	  3627#
FILLV	  3634	  3692#
FILLV1	  3697#	  3700
FILLVW	  3693	  3703#
FILVW1	  3704#	  3713
FILX	  3644	  3648#	  3701	  3714	  3794
FMT	  1095	  4426#
FMT0	  4454#
FMT1	  4463#	  4525
FMT1A	  4469	  4474#	  4515
FMT1B	  4475	  4482#
FMT1BR	  4489#
FMT1C	  4482	  4550#
FMT1CR	  4539	  4556#
FMT1D	  4483	  4532#
FMT1E	  4493#	  4562
FMT1T	  4449	  4467	  4592#
FMT2	  4494#	  4511
FMT2A	  4501	  4512#
FMTAX	  4545#
FMTD	  4430	  4431	  4444	  4450	  4590#
FMTM	  4455	  4589#
FMTS0	  4471	  4477	  4487	  4504	  4517	  4535	  4551	  4557	  4564#
FMTS1	  4473	  4479	  4553	  4574#
FMTS1A	  4481	  4489	  4506	  4510	  4537	  4555	  4559	  4561	  4573#
FMTS2	  4490	  4538	  4569#
FMTS3	  4565#	  4571	  4579
FMZBF	  4441	  4442	  4443	  4509	  4560	  5633#
FWP0	  4468	  4519	  4588#
G	    36#	   464	   465	   468	   469	   470	   472	   476	   497	   498	   521	   534	   537	   538
	   557	   558	   559	   632	   635	   638	   639	   641	   643	   645	   646	  1014	  1380	  1381
	  1447	  1503	  1504	  1508	  1587	  1588	  1610	  1639	  1643	  1644	  1677	  1702	  1707	  1708
	  1709	  1711	  1714	  1717	  1719	  1720	  1737	  1738	  1739	  1742	  1756	  1758	  1759	  1812
	  1881	  1890	  1899	  1901	  1905	  1906	  1907	  1935	  1941	  1946	  1953	  2048	  2276	  2282
SA10 - DIAGNOSTIC FOR SYSTEMS CONCEPTS SA-10 IBM-TO-DEC SUBSYSTEM ADAPTOR	VER 1	MACRO %53B(1155)-2 14:34 14-Feb-86 Page 1
SA10N	MAC	17-Sep-74 22:01


Symbol cross reference

	  2291	  2302	  2313	  2531	  2565	  2566	  2567	  2569	  2582	  2583	  2586	  2587	  2590	  2596	  2597
	  2600	  2606	  2607	  2610	  2619	  2635	  2636	  2639	  2668	  2673	  2682	  2683	  2689	  2694
	  2695	  2703	  2705	  2706	  2709	  2710	  2716	  2718	  2719	  2721	  2724	  2725	  2727	  2728
	  2730	  2731	  2733	  2736	  2745	  2746	  2755	  2760	  2762	  2822	  2823	  2829	  2830	  2857
	  2866	  2894	  2911	  2912	  2936	  2942	  2945	  2946	  2953	  2954	  2955	  2959	  2960	  3025
	  3047	  3049	  3050	  3422	  3425	  3439	  3441	  3447	  3457	  3468	  3471	  3472	  3473	  3474
	  3475	  3476	  3477	  3478	  3480	  3481	  3484	  3485	  3513	  3515	  3516	  3517	  3519	  3523
	  3526	  3527	  3528	  3535	  3536	  3539	  3541	  3542	  3554	  3555	  3560	  3568	  3570	  3571
	  3576	  3579	  3595	  3596	  3597	  3601	  3604	  3605	  3609	  3610	  3628	  3629	  3630	  3631
	  3632	  3649	  3650	  3652	  3750	  3754	  3756	  3762	  3763	  3764	  3766	  3769	  3771	  3791
	  3793	  3795	  3822	  3823	  3825	  3826	  3830	  3832	  3844	  3845	  3871	  3902	  3903	  3904
	  4311	  4323	  4325	  4327	  4328	  4329	  4330	  4331	  4332	  4333	  4334	  4341	  4343	  4344
	  4347	  4349	  4350	  4352	  4354	  4355	  4431	  4435	  4446	  4500	  4514	  4524	  4642	  4643
	  4646	  4647	  4650	  4652	  4670	  4672	  4693	  4697	  4702	  4713	  4714	  4908	  4910	  5027
	  5035	  5581	  5589	  6030	  6039	  6048	  6063	  6071	  6194	  6198	  6199	  6204	  6206	  6207
	  6211	  6227	  6234	  6464	  6465	  6467	  6473	  6474	  6476	  6482	  6483	  6485	  6491	  6492
	  6494	  6500	  6608	  6609	  6611	  7028	  7033	  7178	  7181	  7184	  7186	  7482	  7561	  7569
	  7577	  7585	  7593	  7602	  7615
GCD	  6960	  7046#
GCD1	  7047#	  7051
GETASN	  4854	  4883#
GG	   991#
GOBIT	  6897	  6910#
GOGO	  1121#	  6436	  6437
GOPR	  2553	  3923	  3941	  3943#
GOPR1	  3947#	  3966
GOPR2	  3962#	  3965
GOPR2A	  3963#	  3970
GOPR3	  3964	  3968#
GPHADR	  2605	  3018#	  3438
H	    37#	   658	  1257	  1261	  1677	  1678	  1679	  1683	  1794	  1796	  1797	  1799	  1801	  1880
	  1881	  1901	  1907	  1923	  1924	  1933	  1935	  1946	  1953	  1994	  1995	  2001	  2008	  2016
	  2032	  3605	  4464	  4466	  4494	  4495	  4498	  4499	  4573	  4779	  4800	  4805	  4847	  4848
	  4951	  4952	  4956	  4957	  4959	  6193	  6216	  6228	  7606
HANGPC	  1506
HPT	  6655	  6757#
HUNG	  3566	  3871#
HUNGT	  2582	  2954	  3517	  3560	  3871	  4103#
I	    38#	  1875	  1876	  1905	  1923	  1928	  1929	  1951	  1994	  4455	  4469	  4475	  4482	  4483
	  4765	  4766	  4767	  4768	  4769	  4771	  4772	  4773	  4774	  4777	  4808	  4810	  4814	  4817
	  4821	  4851	  4855	  4859	  4861	  4862	  4877	  4878	  6124	  6172	  6177	  6195	  6208	  7053
	  7054	  7066	  7067	  7075	  7076	  7084	  7085	  7093	  7094	  7103	  7104	  7112	  7113	  7652
IAR	  6424#
IARL	  1266#
IARL1	  1274#	  7401
IARL2	  1290#	  7410
IBAF	  4673	  5558#
IBAF0	  5514	  5571#
IBAF1	  5516	  5572#
ICHAN	  2507	  2559#	  2559
SA10 - DIAGNOSTIC FOR SYSTEMS CONCEPTS SA-10 IBM-TO-DEC SUBSYSTEM ADAPTOR	VER 1	MACRO %53B(1155)-2 14:34 14-Feb-86 Page 1
SA10N	MAC	17-Sep-74 22:01


Symbol cross reference

IDEV	    17#	  3039	  3088	  3090	  3093	  3987	  3989	  3991	  3993	  3995	  3997	  3999	  4001	  4003
	  4005	  4007	  4009	  4011	  4013	  4015	  4017	  4019	  4021	  4023	  4025	  4027	  4029	  4031
	  4033	  4035	  4037	  4039	  4041	  4043	  4045	  4047	  4049	  4282	  4288	  4290	  4293	  4363
	  4365	  4590	  6407	  6801
IDEVA	  2566	  2611	  3417	  3426	  3467	  3486	  3492	  3848	  3852	  4600	  4649	  5026	  5580	  5588
	  6801#
IDEVT	  3418	  3489	  3853	  6806#
ILLDRV	  4310	  4359#
INCT	  1454#
INCT0	  1455#	  1496
INCT1	  1456#	  1490	  1493
INCT1A	  1460	  1462#
INCT2	  1464	  1466#
INCT4	  1484#	  7668
INCT5	  1491	  1495#
INCTW	  1458	  1459	  1461	  1480	  7438#	  7658	  7659
INFP	  3665	  3676#	  3684
INFPA	  3676	  3678	  3680	  3682	  3686#
INFPB	  3551	  3615	  3677	  3679	  3681	  3683	  3691#	  6171	  6183
INT1	  3210	  3213	  7052#	  7063
INT2	  3213	  7065#	  7072
INT3	  7074#	  7081
INT4	  7083#	  7090
INT5	  7092#	  7099
INT6	  7102#	  7109
INT7	  7111#	  7118
INTFRN	  3544	  3657#	  6168
IOFWR	   115#
IOLIST	  6428#	  6438	  6439
IORST	   997	  1018	  1154	  1159	  1227	  3243#	  3409	  3499	  4452
IP.50H	   224#	  3344
IP.MNM	   225#	  2180
IRADX	  4235#	  4235	  4239
J	    39#	  1389	  1393	  1396	  1398	  1400	  1402	  1407	  1409	  1411	  1416	  1418	  1435	  1454
	  1457	  1459	  1460	  1464	  1495	  1496	  1836	  1911	  1934	  1936	  1947	  1966	  1992	  1993
	  2020	  4457	  4458	  4459	  4460	  4461	  4493	  4495	  4497	  4500	  4502	  4507	  4779	  4801
	  4815	  4837	  4849	  6150	  6151	  6191	  6192	  6197	  6213
K	    40#	  1939	  1941	  1951	  1952	  4470	  4472	  4476	  4478	  4480	  4484	  4486	  4488	  4503
	  4505	  4507	  4508	  4509	  4516	  4532	  4534	  4536	  4550	  4552	  4554	  4556	  4558	  4560
	  4564	  4565	  4569	  4570	  4573	  4574	  4576	  4578	  6124	  6172	  6175	  6177	  6239	  6245
KAINI	  3263	  3304#
KATBL	  3227	  3251#
KATGO	  3309	  3317#
KATIM	  3304	  3312#
KATLP	  3315#	  3318
KATME	  3304	  3305	  3319#
KATMX	  3319	  3322#
KATTM	  3311#	  3322	  3325	  3327	  3330	  3332	  3334
KIINI	  3281	  3340#
KITBL	  3228	  3269#
SA10 - DIAGNOSTIC FOR SYSTEMS CONCEPTS SA-10 IBM-TO-DEC SUBSYSTEM ADAPTOR	VER 1	MACRO %53B(1155)-2 14:34 14-Feb-86 Page 1
SA10N	MAC	17-Sep-74 22:01


Symbol cross reference

KLCLK	  3208	  3892#	  3893	  3895
KLINI	  3299	  3350#
KLSWS	  3303	  3390#
KLTBL	  3229	  3287#
KLTYO	  3302	  3382#
KTRECL	  6132	  6139	  6193	  6198	  6199	  6202	  6203	  6209	  6217	  6252	  6301#
L	    41#	  1940	  1942	  1949	  1950
LB2HOM	   265#	   270
LBNHOM	   264#	   269
LBOBAT	   268#	   269	   270
LC0CW	   959	  1322	  1462	  2291#
LC0R2	  1326	  2313#
LCXCW	  1419	  1608	  2197	  2292#
LCXR2	  1421	  2292	  2314#
LCXR2A	  2315#	  2327
LCXR2B	  2013	  2316#
LCXRE	  2003	  2011#
LNKBUG	    25#	    27	  8145
LNKORG	    27#	  8149
LNPAKS	    28#	  3493	  3495	  3849	  4308	  4431
LNREAD	  3474	  3597	  3612	  3613	  4094#
LPDL	    23#	   305	   313	   328	   513	   955	   973	   992	  1122	  3501	  4451	  7161	  8140
LPT	   221#	  6705	  6707
LPTOUT	  6705#
LPTTST	  6674	  6679	  6703#
LSQTAB	  6952	  7012#
LSTBUF	  6406#	  6421	  6422	  6423
MAMB	  1315#
MAMB1	  1317#
MAMB1A	  1340#	  7425
MAMB2	  1353#	  7434
MAMB3	  1361#	  7450
MAMB4	  1373#	  7459
MAMBTA	  1319	  1338	  2258#	  7421
MAMBTL	  1324	  1351	  7430	  7436#
MAMBTR	  1325	  1371	  7437#	  7455
MAPA	  3149#	  3161	  3911	  6212
MAPAD	  1810	  1838	  1846	  1860	  1871	  3144	  3148#	  3697
MAPADL	  3160#	  3638	  3642	  3708	  3775	  3780	  3803	  3815
MAPAL	  1787	  2406	  2419	  3161#
MAPPG	    24#	  3153	  3154	  3156
MAXBER	  2943	  2963#
MBRMAX	   294#	  5563
MBUSDN	   112#
MCBEG0	  1762	  1768
MDNSYN	   113#
MEBITS	  5858	  5861#
MEENB	  3237#	  3510
MEMACK	   111#	  2253
MEMRD	  1814	  1883	  1903	  2114	  2167	  2193#	  2245
SA10 - DIAGNOSTIC FOR SYSTEMS CONCEPTS SA-10 IBM-TO-DEC SUBSYSTEM ADAPTOR	VER 1	MACRO %53B(1155)-2 14:34 14-Feb-86 Page 1
SA10N	MAC	17-Sep-74 22:01


Symbol cross reference

MEMSTS	  2384#	  2384	  7331
MEMXCT	  1851	  2199	  2332#
MPE1	  2158#	  2168	  2170	  2183	  2185	  2189	  3199
MPE2	  2163#	  2186
MPE3	  2174#	  2215	  7825
MPEE	  2211#
MPEFG	  2163	  2211	  2213	  2218#
MPEIE	  2181	  2205#
MPEIL	  2147	  2177#
MPEIL2	  2185#	  2191
MPEKL	  2178	  2188#
MPEL	  2153#	  2155
MPEN	  2161	  2208#
MPEP	  2160	  2220#
MPERF	  1003	  2148	  2159	  2174	  2217#	  3201
MPET	  2110	  2129	  2145#
MTR	   257#	  3296	  3366	  3379
MUUOH	  3191	  7131#
MUXACK	   110#	  2252
MUXREQ	  1997	  2108#	  2128
MUXRQ1	  2122#	  7813
MXACS	  2344	  2345	  2377#	  2381	  2382
MXCO1	  2348	  2349	  2350	  2351	  2362#
MXCO2	  2350	  2366#
MXCO3	  2351	  2360#
MXDI1	  2352	  2353	  2363#
MXDI2	  2353	  2367#
MXDO1	  2354	  2365#
MXDON	  2369	  2372	  2379#
MXOKX	  2395	  2399#
MXPRG	  2346	  2358#
MXPRGL	  2345	  2346	  2347	  2375#	  2377	  2382	  2383
MXRECT	  4583#
MXT1	  2112	  2122	  2131#
MXT2	  2139#	  7819
MXWT0	  2359#	  2371
MXWT2	  2387#	  2397
MXWTL	  2355	  2361#	  2370
NATRAL	  2852	  2873#	  3416	  3705	  3812
NBADSP	    57#	  2737	  3529	  4112
NBF	    55#	  1609	  1663	  7597
NCHNP	  1380	  1503	  1512	  1587	  1643	  1707	  1737	  1875	  1928	  3659	  6949	  7005#	  7040
NCORDC	  3047	  3476	  3604	  4096#
NOINTF	  3543#	  3543	  3614#	  3614	  6167#	  6167	  6181#	  6181
NOP	   206#	   795	   898	   916
NPACKS	    18	    28	  2569	  2622	  2763	  3421	  3422	  3491	  3513	  3554	  3609	  3613	  3985	  4055
	  4091	  4092	  4093	  4094	  4095	  4096	  4097	  4099	  4100	  4101	  4103	  4105	  4179	  4309
	  4412	  4413	  4414	  4415	  4416	  4417	  4418	  4419	  4420	  4421	  4422	  4423	  4627	  4632
	  4643	  5622	  8034
NPTBS	  3182	  3222#
SA10 - DIAGNOSTIC FOR SYSTEMS CONCEPTS SA-10 IBM-TO-DEC SUBSYSTEM ADAPTOR	VER 1	MACRO %53B(1155)-2 14:34 14-Feb-86 Page 1
SA10N	MAC	17-Sep-74 22:01


Symbol cross reference

NREAD	  2695	  3473	  3596	  3612	  4093#
NRETRY	    56#	  2895	  3051	  3054	  3627	  3753
NRPT	  4594	  4653	  4912	  4922	  5062	  5143	  5275	  5394
NSTRAK	  2719	  2721	  2725	  4354	  4422#	  4713
NTRAKS	  2718	  3823	  4332	  4419#
NTYI	  4237	  4241	  4245#
NUMG	  1004	  4233#	  4628
NUMG1	  4239#	  4243
NUMGM	  4232#	  4607	  4616	  4870
NUTRAK	  2733	  2746	  4329	  4333	  4420#
NWCPDT	  3703	  3711	  3749#	  3810	  3819
NWRITE	  2683	  3475	  3601	  4095#
NWTRAK	  2682	  2694	  2755	  2760	  2762	  3630	  3764	  4350	  4418#
NXM	   126#	  2496	  5707	  5714	  5856	  6269
NXMBIT	  3129	  3234#	  3880	  7145
NXMCLR	  3123	  3135	  3235#
NXMT	  2175	  2212	  2226#
NXMT1	  2232#	  2256
NXMT2	  2238	  2241#
NXMT3	  2255#	  7832	  7841
NXMTX	  2235	  2239#
NXTRAK	  2745	  4334	  4421#
OFFLIN	  2583	  2587	  2764	  2936	  2945	  2953	  3419	  3420	  3421	  3441	  3457	  3539	  3571	  3844
	  4092#
OPT	  6542	  6554	  6572	  6591	  6600	  6645	  6714#	  7284
OPT1	  6715	  6723#
OPT2	  6718	  6724#	  6727
OPT3	  6725	  6729#	  6777
OPT3A	  6728#	  6780
ORADX	  6765#	  6765	  6775
OWID	  6766#	  6766	  6769#	  6769	  6776
P	    45#	   305	   306	   307	   313	   316	   323	   328	   333	   347	   364	   370	   382	   386
	   388	   393	   395	   399	   405	   417	   428	   439	   448	   483	   489	   505	   513	   623
	   627	   631	   636	   640	   644	   647	   656	   738	   740	   764	   772	   783	   785	   786
	   936	   938	   955	   956	   959	   961	   967	   973	   974	   975	   980	   981	   990	   992
	   994	   997	  1000	  1004	  1012	  1019	  1020	  1025	  1106	  1107	  1122	  1157	  1158	  1173
	  1177	  1251	  1252	  1258	  1263	  1270	  1277	  1293	  1299	  1301	  1312	  1317	  1322	  1323
	  1326	  1328	  1343	  1356	  1364	  1376	  1382	  1419	  1421	  1423	  1451	  1462	  1466	  1468
	  1488	  1505	  1507	  1555	  1564	  1566	  1572	  1579	  1589	  1592	  1594	  1596	  1598	  1604
	  1608	  1613	  1615	  1617	  1619	  1625	  1630	  1636	  1645	  1648	  1650	  1652	  1658	  1662
	  1665	  1671	  1675	  1676	  1681	  1689	  1693	  1699	  1728	  1753	  1761	  1766	  1767	  1775
	  1787	  1810	  1814	  1819	  1833	  1835	  1837	  1838	  1846	  1849	  1851	  1856	  1860	  1867
	  1871	  1883	  1895	  1903	  1908	  1910	  1912	  1920	  1938	  1948	  1954	  1961	  1968	  1972
	  1976	  1989	  2001	  2002	  2003	  2007	  2008	  2009	  2015	  2016	  2017	  2023	  2029	  2032
	  2033	  2034	  2040	  2045	  2052	  2058	  2112	  2114	  2122	  2126	  2166	  2167	  2193	  2194
	  2197	  2199	  2201	  2202	  2203	  2214	  2223	  2239	  2243	  2245	  2273	  2283	  2292	  2294
	  2311	  2321	  2325	  2328	  2332	  2333	  2334	  2340	  2399	  2403	  2406	  2414	  2416	  2419
	  2423	  2429	  2450	  2451	  2490	  2502	  2543	  2604	  2642	  2667	  2672	  2681	  2688	  2693
	  2713	  2739	  2743	  2750	  2756	  2772	  2779	  2781	  2871	  2884	  2899	  2902	  2906	  2909
	  2916	  2921	  2925	  2929	  2930	  2932	  2933	  2949	  2950	  2966	  2968	  2969	  2970	  2977
SA10 - DIAGNOSTIC FOR SYSTEMS CONCEPTS SA-10 IBM-TO-DEC SUBSYSTEM ADAPTOR	VER 1	MACRO %53B(1155)-2 14:34 14-Feb-86 Page 1
SA10N	MAC	17-Sep-74 22:01


Symbol cross reference

	  2984	  2986	  2999	  3020	  3021	  3022	  3027	  3028	  3029	  3030	  3035	  3036	  3037	  3057	  3064
	  3069	  3076	  3101	  3106	  3108	  3110	  3114	  3120	  3121	  3122	  3138	  3144	  3150	  3158
	  3161	  3164	  3176	  3217	  3262	  3280	  3298	  3302	  3303	  3348	  3376	  3380	  3388	  3397
	  3406	  3412	  3427	  3437	  3451	  3465	  3469	  3470	  3490	  3501	  3507	  3544	  3552	  3577
	  3578	  3587	  3588	  3594	  3608	  3611	  3619	  3638	  3642	  3674	  3697	  3708	  3760	  3775
	  3777	  3780	  3784	  3803	  3805	  3815	  3817	  3835	  3841	  3858	  3868	  3869	  3873	  3874
	  3898	  3899	  3900	  3901	  3908	  3909	  3910	  3911	  3915	  3916	  3917	  3918	  3919	  3920
	  3921	  3924	  3927	  3928	  3929	  3930	  3934	  3935	  3936	  3937	  3938	  3945	  3951	  3954
	  3957	  3968	  3972	  4188	  4190	  4193	  4195	  4197	  4199	  4205	  4211	  4214	  4215	  4218
	  4219	  4221	  4222	  4223	  4224	  4232	  4237	  4238	  4241	  4245	  4248	  4279	  4300	  4302
	  4303	  4316	  4356	  4408	  4428	  4440	  4445	  4451	  4471	  4473	  4477	  4479	  4481	  4487
	  4489	  4490	  4504	  4506	  4510	  4517	  4520	  4529	  4535	  4537	  4538	  4541	  4542	  4544
	  4548	  4551	  4553	  4555	  4557	  4559	  4561	  4567	  4598	  4604	  4607	  4616	  4624	  4628
	  4640	  4645	  4651	  4656	  4658	  4660	  4666	  4673	  4674	  4677	  4678	  4684	  4689	  4708
	  4712	  4717	  4723	  4728	  4731	  4737	  4747	  4752	  4753	  4754	  4755	  4756	  4778	  4809
	  4830	  4850	  4854	  4860	  4863	  4864	  4865	  4866	  4870	  4879	  4880	  4888	  4889	  4893
	  4900	  4919	  4923	  4924	  4942	  4947	  4960	  4964	  4969	  4971	  4973	  4982	  4987	  4995
	  5011	  5514	  5515	  5516	  5518	  5520	  5524	  5533	  5544	  5545	  5548	  5549	  5574	  5639
	  5642	  5644	  5645	  5648	  5694	  5695	  5698	  5701	  5721	  5732	  5737	  5751	  5768	  5770
	  5780	  5781	  5791	  5792	  5795	  5796	  5802	  5803	  5811	  5812	  5816	  5822	  5823	  5829
	  5833	  5836	  5837	  5839	  5840	  5845	  5846	  5849	  5850	  5851	  5852	  5855	  5863	  5868
	  5871	  5876	  5884	  5887	  5889	  5892	  5894	  5896	  6055	  6060	  6074	  6075	  6090	  6092
	  6094	  6096	  6097	  6116	  6147	  6148	  6160	  6166	  6168	  6173	  6174	  6176	  6178	  6185
	  6188	  6200	  6212	  6220	  6229	  6259	  6295	  6296	  6298	  6315	  6323	  6335	  6345	  6353
	  6354	  6355	  6363	  6365	  6371	  6378	  6379	  6381	  6447	  6464	  6467	  6468	  6473	  6476
	  6477	  6482	  6485	  6486	  6491	  6494	  6495	  6499	  6501	  6503	  6504	  6505	  6506	  6507
	  6513	  6526	  6530	  6535	  6539	  6542	  6548	  6554	  6559	  6572	  6577	  6591	  6596	  6600
	  6601	  6603	  6604	  6608	  6610	  6611	  6612	  6619	  6620	  6621	  6622	  6623	  6624	  6638
	  6645	  6651	  6655	  6666	  6669	  6670	  6680	  6682	  6683	  6685	  6686	  6687	  6692	  6694
	  6699	  6701	  6709	  6710	  6712	  6716	  6718	  6719	  6721	  6722	  6726	  6727	  6728	  6736
	  6737	  6748	  6752	  6771	  6778	  6779	  6784	  6793	  6858	  6861	  6863	  6865	  6879	  6900
	  6922	  6924	  6955	  6960	  6966	  6981	  6984	  6992	  7018	  7022	  7023	  7024	  7025	  7026
	  7027	  7028	  7031	  7033	  7034	  7035	  7036	  7037	  7038	  7039	  7043	  7044	  7161	  7189
	  7192	  7194	  7200	  7202	  7218	  7222	  7237	  7250	  7259	  7261	  7266	  7268	  7272	  7276
	  7279	  7280	  7284	  7294	  7299	  7315	  7316	  7711	  7737	  7755	  7767	  7781	  7797	  7843
P2ARG	  1002	  1041	  1046#	  6078
PAG	  1131	  1133	  3279	  3297	  3340	  3350	  3351
PAGEH	  3202	  7136#	  7141	  7148	  7150	  7152	  7156
PAGEKL	  3206	  7145#
PAGKL2	  7147#	  7155
PAGNXM	  7146	  7152#
PARE	   209#	   879
PARERR	   124#	  2394	  2496	  2537	  5707	  5714	  5856	  6269
PARIT1	  7246#	  7249
PARITY	  7194	  7245#
PAT	  8143#
PAT0	  5997#	  6047
PAT1	  6014#	  6049
PATCH	  8142#
PBIT1	  2775	  2782#
SA10 - DIAGNOSTIC FOR SYSTEMS CONCEPTS SA-10 IBM-TO-DEC SUBSYSTEM ADAPTOR	VER 1	MACRO %53B(1155)-2 14:34 14-Feb-86 Page 1
SA10N	MAC	17-Sep-74 22:01


Symbol cross reference

PBIT2	  2777	  2780#
PBITS	  2773#	  2783	  2909	  2932	  3120	  5849	  5868	  7279
PBUF	  6027#	  6032	  6106
PBUFE	  6028#	  6053	  6058	  6072
PBUFL	  5900#	  6027
PBUFLB	  5899#	  5900	  6106
PCWT	  6558	  6821#
PDEV	  5898#	  6100	  6101	  6103	  6105	  6107	  6110
PDEVA	  6077	  6080	  6110#
PDL	   305	   313	   328	   513	   955	   973	   992	  1122	  3501	  4451	  7161	  8140#
PDLH	  3204	  7160#	  7162	  7167	  7172	  7174	  8135	  8136	  8137	  8138	  8139
PDLINT	  3879	  7171#
PDLTST	  3238#	  3878
PETST	  3236#	  3882
PHADR	  2606	  3439	  3576	  4105#
PHADRT	  3079#
PI	  1188	  1209	  1732	  2151	  2154	  2188	  2190	  3252	  3255	  3256	  3270	  3274	  3288	  3511
	  3926	  6508	  6509	  6618
PIE	   996	  1155	  1187	  1201	  1203	  1731	  1741	  1748	  7054	  7060	  7067	  7071	  7076	  7080
	  7085	  7089	  7094	  7098	  7104	  7108	  7113	  7117	  7120#	  7654
PIE0	   127#	  1517	  7991
PIE1	   128#
PIE2	   129#
PIE3	   130#
PIEBIT	  6899	  6911#
PIRQ	   123#	  1723	  2494
PIRST	   995	  1156	  1200	  1230	  3181	  3233#	  3500	  3944	  4453
PISET	  1157	  3210#
PISETL	  3212#	  3216
PIT1	  1734#
PIT2	  1740#	  1759
PIT3	  1741#	  1755	  1757
PIT3A	  1750#	  7638
PITST	  1710#	  1720
PITST0	  1705#	  1730
PITST1	  1725#	  7624
PNOP	  3033	  3034	  3039#
PNTCHK	  6628	  6696#
POPAJ	  4881	  5851#	  6502
PP0	  6464#
PP1	  6473#
PP2	  6482#
PP3	  6491#
PPOS	  6031	  6109#
PPP	  6447#	  6466	  6475	  6484	  6493
PREARG	  1001	  1040	  1042	  1045#	  4429	  4599	  5646	  6076	  6117
PRGO	  6084	  6093	  6105#
PRGO1	  6085	  6107#
PRGOE	  6108#
PROMPT	   990	  1000	  1025	  6689#	  6693
SA10 - DIAGNOSTIC FOR SYSTEMS CONCEPTS SA-10 IBM-TO-DEC SUBSYSTEM ADAPTOR	VER 1	MACRO %53B(1155)-2 14:34 14-Feb-86 Page 1
SA10N	MAC	17-Sep-74 22:01


Symbol cross reference

PRTI	  6081	  6089	  6100#
PRTI2	  6082	  6101#
PRTI3	  6083	  6103#
PRTIE	  6104#
PS	  5896#
PS0	  5879#	  5893
PS1	  5880#	  5888
PSB	  2933	  3121	  5650	  5863	  5871#	  5896
PSD	  5830	  5863#
PSEEK	  6407#
PSMER	  5842	  5854#
PSTAT	  3101	  5823	  5833#
PSTAT2	  5849#	  5859
PTIME	  2899	  2950	  3578	  3588	  3860#	  3874	  3916
PTN	  1265	  1316	  1384	  1807	  1878	  1931	  2142	  7189	  7906#	  7916	  7922	  7925
PTN0	  1296	  1379	  1446	  1870	  1925	  1996	  7241	  7903#	  7919
PTN1	  7904	  7911#
PTN5	  7913	  7918#
PTN9	  1279	  1295	  1345	  1358	  1366	  1378	  1821	  1869	  1963	  1991	  7355	  7860	  7868	  7874
	  7924#
PTNA	  7908	  7912	  7918	  7969#
PTNP	  7910	  7911	  7970#
PTNT	  7909	  7927#
PTNTX	  7907	  7931#	  7932	  7933	  7934	  7935	  7936	  7937	  7938	  7939	  7940	  7941	  7942	  7943
	  7944	  7945	  7946	  7947	  7948	  7949	  7950	  7951	  7952	  7953	  7954	  7955	  7956	  7957
	  7958	  7959	  7960	  7961	  7962	  7963	  7964	  7965	  7966	  7967
PTNV	  7915	  7924	  7971#
PTPNT	  3184	  3224#
PTST	  1105	  6075#
PTST1	  6088	  6092#	  6098
PTSTV	  6030	  6033	  6079	  6087	  6111#
PTWRD	  3183	  3219#	  3222
PW0	  6532#	  6543
PW00	  6520	  6526#
PW00A	  6527	  6530#
PW0T1	  6532	  6839#
PW0T2	  6534	  6846#
PW1	  6547#	  6555
PW2	  6558#	  6573
PW2A	  6562#	  6570
PW3	  6576#	  6593
PW3A	  6579#	  6588
PW3B	  6586	  6589#
PWLD0	  6464	  6464#
PWLD1	  6473	  6473#
PWLD2	  6482	  6482#
PWLD3	  6491	  6491#
PWLDX	  6607	  6612#
PWORLD	  1107	  6447	  6499#
PWRHZ	  2099	  3347	  3562	  3580	  3861	  3960	  4184#
SA10 - DIAGNOSTIC FOR SYSTEMS CONCEPTS SA-10 IBM-TO-DEC SUBSYSTEM ADAPTOR	VER 1	MACRO %53B(1155)-2 14:34 14-Feb-86 Page 1
SA10N	MAC	17-Sep-74 22:01


Symbol cross reference

QFIFO	  1587#
QTT	  1109	  6112#
QTT0	  3115	  6119#
QTT07	  6152	  6159#
QTT1	  6171#	  6187
QTT1E	  6184	  6220#
RBAF	  4678	  5527#
RBAF0	  5528#	  5553
RBAF3	  5534	  5539	  5542	  5551#
RBAFV	  5529	  5541	  5552	  5628#
RDBITS	   106#	  1475	  2116	  2133	  2248	  2335	  2366	  6844
RDCCI	    92#	  1430	  2262	  2277	  2287	  2307	  2362	  6521	  6544	  6839	  6973	  7207	  7227
RDCONI	   101#	  1234	  1243	  2390	  6515	  6843	  7847
RDDATA	   198#	  4251	  5528
RDDIAG	   114#
RDMA	    95#	  1332	  1470	  6840	  6866	  7327
RDMBL	    96#	  1302	  1346	  1822	  1885	  6841	  7335
RDMBR	    99#	  1367	  1826	  6842	  7339
RDSEQ	  1251	  6919#	  7031	  7379	  7385
RDSQ0	  1258	  6971#	  6984
RDSQ1	  1252	  6922	  6984#
RDSQL1	  6973#	  6980
RDSQL2	  6987#	  6991
RDSQL3	  6936#	  6939
RDSQL4	  6943#	  6948
RDSQL5	  6957#	  6968
RDSWS	  1274	  1290	  1309	  1340	  1353	  1361	  1373	  1448	  1485	  1552	  1576	  1601	  1622	  1633
	  1655	  1668	  1686	  1696	  1725	  1750	  1772	  1816	  1853	  1864	  1892	  1917	  1958	  1986
	  2123	  3248#	  3401	  6696	  7215	  7234	  7292	  7308
RDTST	  4251#
RDXPR0	  6768	  6773#	  6779
RDXPRT	  6666	  6763#
RECDNO	  6113	  6237	  6332	  6366	  6402#
REGT	  6576	  6830#
RESET	   117#
REST	   211#	   900
RETRYC	  2894	  3050	  3472	  3523	  3628	  3754	  3769	  3791	  3795	  4101#
RETRYR	   212#	   923
REWNO	  6114	  6331	  6403#
RFIX	   207#	   799	   884	   887
RIP0	  6030#	  6092
RIP1	  6040	  6044#	  6054
RIP2	  6036	  6057#	  6059
RIP3	  6037	  6062#
RIP3A	  6063#	  6073
RIP4	  6064#	  6071
RND	  2414	  2713	  2748#	  2756	  6200
RNDAD	  2672	  2688	  2753#	  2769	  3470
RNDAD3	  2764#	  2771
RNDAD5	  2765	  2768	  2771#
SA10 - DIAGNOSTIC FOR SYSTEMS CONCEPTS SA-10 IBM-TO-DEC SUBSYSTEM ADAPTOR	VER 1	MACRO %53B(1155)-2 14:34 14-Feb-86 Page 1
SA10N	MAC	17-Sep-74 22:01


Symbol cross reference

RNDM	  2749	  2751#	  7921
RNDT1	  2715	  2724#
RNDT2	  2722	  2732	  2735#	  2747
RNDT2L	  2738#	  2742
RNDT3	  2717	  2734	  2745#
RNDTK	  2667	  2713#	  2741
RNDTK0	  2716#	  2726
RPAT	   214#	   686	   691	   696	   702	   707
RRBL	  5648	  5652#
RRBLP	  5652	  5653	  6416#
RRR	  2463	  2474	  7123	  7137	  7163	  7253#	  7258	  7263	  7269	  7287	  7289	  7303	  7307	  7343
	  7368	  7375	  7381	  7388	  7394	  7403	  7412	  7418	  7427	  7444	  7452	  7461	  7467	  7479
	  7494	  7502	  7510	  7518	  7525	  7533	  7542	  7551	  7558	  7566	  7574	  7582	  7590	  7599
	  7612	  7620	  7630	  7649	  7661	  7670	  7681	  7690	  7696	  7702	  7716	  7722	  7728	  7746
	  7760	  7774	  7788	  7803	  7809	  7815	  7821	  7827	  7834	  7852	  7862	  7870	  7876	  7882
	  7889	  7896
RRR2	  7260	  7263#	  7273	  7281	  7285
RRR3	  7267	  7269#
RRR4	  7275	  7283#
RRR8	  7265	  7271	  7287#
RRR9	  7295#
RRR95	  7301	  7305#
RRRB	  7306#
RRRT	  7259	  7266	  7272	  7308#
RRRT3	  7312	  7314#
RSTAI	  3262	  3280	  3373#
RSTCH	    79#	  2546
RSTKL	  3298	  3378#
RSTSA	    75#	   331	  1248	  2164	  2241	  2360	  6120
RWBAF	  5518	  5533	  5577#
RWTSP1	  4270	  4290#	  4292
RWTSP2	  4253	  4267	  4271	  4293#
RWTSP3	  4262	  4294#
RWTSTD	  4273	  4275	  4277	  4289	  4291	  4297#
RWTSTP	  4269	  4278	  4288#
SA0	    20#	  2082	  2084	  2090	  2360	  2362	  2363	  2365	  2366	  2367	  6795	  6796	  6797	  6798
	  6803
SA0CH	    54#	  2509	  2548	  3503	  3669	  3672	  6904	  6905	  6906	  6907	  6908
SACGO	    78#	  1510	  1705	  6605
SACLST	  5701	  5727#	  6148	  6295	  6315	  6323
SADEVA	  1172	  1174	  5565	  6782	  6803#
SAGO	  5686#	  5737
SAGO1	  5691#	  5697
SAGPOP	  5641	  5769	  5795#
SAGPP2	  5799	  5810#
SAGPS1	  5787#	  5789
SAGPSH	  5638	  5736	  5780#
SAGST1	  5706#	  5711
SAGST2	  5715	  5723#
SAGSTE	  5704	  5708	  5716#
SA10 - DIAGNOSTIC FOR SYSTEMS CONCEPTS SA-10 IBM-TO-DEC SUBSYSTEM ADAPTOR	VER 1	MACRO %53B(1155)-2 14:34 14-Feb-86 Page 1
SA10N	MAC	17-Sep-74 22:01


Symbol cross reference

SAGSTS	  5694	  5701#
SARNLZ	  5744	  5774#
SARNOK	  5749	  5772#
SARNX0	  3035#	  3437	  4279	  4316
SARPA	  5735#	  5735	  5745	  5757	  5777
SARUN	  5654	  5735#	  5816
SARUN0	  5737#	  5778
SARUNR	  5766	  5777#
SARUNS	  5742	  5747	  5750#
SARUNX	  3035	  5595	  5734#
SARXIT	  5759	  5763	  5767#	  5775
SASTEP	    77#	  1241	  1562	  2262	  2287	  2362	  2388	  6528	  6973	  7845
SAVA	  1034	  7254	  7302	  7305	  7317#	  7399	  7408	  7415	  7457	  7490	  7608	  7666	  7677	  7707
	  7733	  7763	  7777	  7791	  7806	  7837
SAVB	  1035	  2466	  7255	  7297	  7318#	  7397	  7406	  7432	  7447	  7673	  7686	  7757
SAVC	  1036	  7256	  7296	  7319#	  7371	  7423	  7497	  7505	  7513	  7521	  7528	  7536	  7545	  7554
	  7604	  7664	  7675
SAVD	  1037	  7257	  7262	  7295	  7320#	  7470	  7488	  7749	  7857	  7865
SCHIDE	   197#	  3090	  4290	  5601	  5613
SCHN	  5816#	  6090	  6094
SCHNE	  5649	  5819#
SCHNX	  4520	  5046	  5586	  5815#
SEEK	   196#	  3088	  4288	  4363	  5052	  5271	  5597	  5611
SEEKD	  6408	  6410#
SELRSC	   391	  6893	  6908#
SENSCT	  4185#
SENSE	   205#	   791	  6412
SENSED	  2877	  2885	  2888	  2891	  2922	  2927	  2928	  2934	  2937	  3019	  3058	  3066	  3067	  3070
	  3071	  3072	  3111	  3116	  3118	  3440	  4317	  4823	  4829	  4904	  5657	  5664	  5668	  5672
	  5676	  5680	  5764	  5772	  5774	  5864	  5872	  5877	  6150	  6153	  6360	  6368	  6413	  6417
	  6420#
SENSEP	  5647	  5656	  5683	  6412#
SENSEX	  2604	  2884	  3108	  5638#	  6377
SEQCNT	  2048	  7001#
SEQCTI	  6956	  7000#
SEQERR	  6934	  6953	  6994#
SEQLEN	  6940	  6945	  6963	  6999#	  7000	  7001	  7002	  7003	  7004	  7005	  7006
SEQLNP	  2049	  6959	  7006#
SERR	  2552	  3404	  3922	  3939	  4109#
SETCP2	  3168	  3171	  3173#
SETCPU	   974	   994	  3166#
SETCT	   217#	   684	   689	   694	   700	   705	   710	   715	   721	   726
SETFRQ	  3326	  3331	  3347#	  3371
SETH0	  3125#	  3133
SETH1	  3129#	  3146
SETHI	   975	  3123#	  3412
SETHIL	  3126	  3144#
SETHX	  3130	  3135#
SETSAA	  1158	  1173	  6782#	  7018
SNS2MS	  2797#	  5867
SA10 - DIAGNOSTIC FOR SYSTEMS CONCEPTS SA-10 IBM-TO-DEC SUBSYSTEM ADAPTOR	VER 1	MACRO %53B(1155)-2 14:34 14-Feb-86 Page 1
SA10N	MAC	17-Sep-74 22:01


Symbol cross reference

SNSMSG	  2785#	  2931	  3117
SNSX0	  5639	  5656#	  5751
SPOTTB	  2738	  2740	  3530	  3533	  4112#
SPTN	  2111	  2142#	  2145
SQITAB	  6944	  7008#
STAMSG	  2805#	  2908	  5848
STATCT	  6805#
STATIC	   980	  1108	  1154#
STBSY	    81#	  1530	  3672	  6904
STBSYC	   749	  2069	  2440	  2505	  3549	  3653	  5692	  6257	  6317	  6889	  6904#
STBTB	  6894	  6913#
STBUF	  5738	  5755	  6421#
STBUF2	  5740	  5824	  6422#
STBUFS	  5640	  5752	  6423#
STCL	  1503#
STCL0	  1512#	  1557
STCL1	  1519#	  1560
STCL1A	  1524#	  7500
STCL1B	  1529#	  7508
STCL1C	  1535#	  7516
STCL1D	  1540#	  7524
STCL1E	  1546#	  7531
STCL1F	  1551#	  7539
STCLH	  1505#	  1508
STCLM	  1565	  1570	  7541	  7549	  7985#
STCLM1	  1568	  1574	  7989#
STCLM2	  1565#	  1581	  1582
STCLM3	  1570#	  7547
STCLM4	  1576#	  7556
STEP0	   956	  1270	  1761	  1767	  2139	  2166	  2243	  2302#	  6861
STEPC0	  1263	  1564	  2276#
STEPCX	  1382	  1505	  1833	  1908	  2002	  2017	  2040	  2194	  2277#	  2333	  2398	  2400	  6530	  6610
STEPX	  1617	  1676	  2286#	  2298	  2321	  2325	  2385	  7222
STEPX1	  2287#	  2303
STF0	   135#	  6913	  7990
STF1	   136#	  6913
STF2	   137#	  6913
STF3	   138#	  6913
STFLG	  5710	  5788	  6272	  6895	  6909#
STPC0A	  2279#	  2289
STPIE	    87#	  1194	  1519	  1717	  3669	  6906
STPIEC	  3547	  6891	  6906#
STSRQ	    83#	  6907
STSRQC	  5784	  6892	  6907#
STSTF	    85#	  1190	  1541	  1744
STTT	  2901	  3042#	  5835
STYO	   323	   783	   785	  1177	  2106	  2214	  2223	  2502	  2541	  2642	  2781	  2902	  2906	  2916
	  2921	  2925	  2949	  2968	  3023	  3028	  3057	  3064	  3069	  3076	  3106	  3110	  3114	  3142
	  3338	  3490	  3507	  3587	  3594	  3608	  3619	  3760	  3835	  3841	  3858	  3868	  3908	  3915
	  3934	  4188	  4232	  4408	  4529	  4541	  4548	  4624	  4640	  4677	  4684	  4689	  4708	  4728
SA10 - DIAGNOSTIC FOR SYSTEMS CONCEPTS SA-10 IBM-TO-DEC SUBSYSTEM ADAPTOR	VER 1	MACRO %53B(1155)-2 14:34 14-Feb-86 Page 1
SA10N	MAC	17-Sep-74 22:01


Symbol cross reference

	  4737	  4785	  4842	  4888	  4919	  4942	  4947	  4964	  4978	  4982	  4987	  4992	  4995	  5524	  5556
	  5822	  5828	  5829	  5836	  5839	  5845	  5875	  6220	  6335	  6371	  6535	  6596	  6628#	  6698
	  6879	  6955	  6966	  7261	  7268	  7294
STYO1	  6548	  6559	  6577	  6630#	  6639	  6646	  6652	  6656	  6667
STYO2	  6632	  6641#
STYO3	  6634	  6647#
STYO4	  6636	  6653#
STYO5	  6643	  6659#
STYO5A	  6649	  6658#
STYO6	  6662	  6665#
STYOXT	  4362	  4436	  4529#
SUBVER	     2#	     9	    13
SUPER	  6431#
SUPER0	  1142	  1144	  1148	  6444#
SUPER1	  1146	  6445#
SZER	  1298#	  1314
SZER1	  1309#	  7417
TAPF	  3099	  6112	  6380	  6384#
TAPSNS	  3119	  6385#
TAT	  1785#
TAT1	  1786#	  1792
TAT2	  1795#	  1805	  1873
TAT5	  1850#	  1858	  7465
TAT7	  1864#	  7473
TBT	  1800	  1875#
TBT1	  1881#	  1924	  2037
TBT1A	  1897	  1922	  2036#
TBT1B	  1892#	  7880
TBT2	  1900#	  1906
TBT4	  1917#	  7887
TBTV	  1808	  1831	  1840	  1859	  1879	  1882	  1898	  1900	  1914	  1915	  1932	  1937	  1943	  1944
	  1956	  1981	  1998#	  2036	  7855	  7885	  7892
TCB	  6178	  6192#
TCB1	  6196	  6208#	  6235
TCB2	  6213#
TCB3	  6197	  6234#
TCP0	  6128	  6159	  6236	  6304#	  6327
TCP0A	  6248	  6306#
TCP0B	  6138	  6250	  6308#
TCP0W	  6129	  6243	  6305#
TCP1	  6130	  6309#	  6329	  6351
TCP2	  6131	  6241	  6310#
TCP2A	  6253	  6311#
TCP2B	  6145	  6255	  6312#
TCPE	  6292	  6313#
TCT	  1928#
TCT0	  1933#
TCT1	  1934#	  1995
TCT2	  1935#	  1993
TCT3	  1940#	  1952
SA10 - DIAGNOSTIC FOR SYSTEMS CONCEPTS SA-10 IBM-TO-DEC SUBSYSTEM ADAPTOR	VER 1	MACRO %53B(1155)-2 14:34 14-Feb-86 Page 1
SA10N	MAC	17-Sep-74 22:01


Symbol cross reference

TCT4	  1941#	  1950
TCT4A	  1958#	  7894
TCT4B	  1986#	  7902
TCT4C	  1945	  1953#
TCT5	  2022#	  2027
TCTR	  1837	  1912	  1954	  2015#
TCTS	  1938	  1948	  2001#
TCTV	  1842	  1913	  1955	  1964	  1970	  1974	  1978	  1980	  1984	  1999#	  2021	  2031	  7899
TDEV	  6118	  6125	  6281	  6300#	  6376
TEM	  2359	  2363	  2364	  2365	  2367	  2368	  2373#	  2379
TERG	  6127	  6164	  6303#	  6339
TEST	  7973#
TEST1	  7977#
TESTWD	  7321#
TGB	  6160	  6173	  6191#
TGB1	  6211#	  6228
TGB2	  6214	  6224#
TGB3	  6213	  6231#
TGO	  6176	  6236#
TGO0	  6166	  6237#
TGO1	  6246	  6248#
TGOBUF	  6207	  6234	  6247	  6314#
TGOT	  6240	  6261#
TI.INF	   252#
TI.ITD	   254#	  3295
TI.PRF	   256#
TI.TIO	   253#
TI.TOV	   255#
TIM	   245#	  3294	  3295	  3365
TIME	  2581	  3407	  3565	  3860	  3886	  4182#
TIMEC	  3408	  3582	  3584	  3887	  4183#
TIMET	  1106	  2055#
TMLP1	  2062	  2082#	  2087	  2089	  2093
TMLP2	  2066	  2083	  2088#
TMLP3	  2063	  2084#	  2091
TMLP4	  2064	  2090#
TMLP5	  2068	  2092#
TO.CIT	   247#	  3365
TO.CTD	   249#	  3294	  3365
TO.PRF	   250#
TO.SIT	   248#	  3294
TO11DB	   233#	  3360	  3387	  3393
TRECL	   142#	  6301	  6308	  6312
TREW	  6126	  6162	  6165	  6302#	  6338	  6340
TRK	  2668	  2724	  2730	  2829	  2911	  3478	  3527	  3632	  3771	  3822	  3825	  3903	  4099#
TRPI1	  3183#	  3188
TRPI2	  3185#	  3187
TRPINI	  3176	  3180#
TSENSE	  6147	  6355	  6376#
TSPE1	  3099#	  6345	  6381
SA10 - DIAGNOSTIC FOR SYSTEMS CONCEPTS SA-10 IBM-TO-DEC SUBSYSTEM ADAPTOR	VER 1	MACRO %53B(1155)-2 14:34 14-Feb-86 Page 1
SA10N	MAC	17-Sep-74 22:01


Symbol cross reference

TSTADR	  4254	  4286#
TSTCYL	  4272	  4283#
TSTDEV	  4268	  4282#
TSTHED	  4274	  4284#
TSTREC	  4276	  4285#
TTY	  3265	  3266	  3283	  3284	  3373	  4201	  4203
TUNIT	    19#	  6300
TWBSY	  6286	  6321#
TWE	  6274	  6277	  6282	  6288	  6293	  6330	  6347#
TWEX	  6349	  6352	  6380#
TWEX1	  6359	  6362	  6378#
TWME	  6270	  6345#
TWRST	  6279	  6290	  6315#	  6322	  6343
TWT	  6174	  6188	  6267#	  6319	  6324
TWT0	  6268#	  6273
TWT1	  6276#
TWTX	  6295#
TWUX	  6284	  6326#
TWUX0	  6328	  6331#
TWUX1	  6338#	  6374
TYI	  4189#	  4245	  4542
TYIFLG	  4189#	  4189	  4213#	  4213	  4226#	  4226	  4229#	  4229
TYIM	  4188#
TYMVER	     1#	     9	    13
TYO	  2437	  2779	  2973	  3032	  4193	  4197	  4222	  5855	  5884	  5887	  5889	  6638	  6673#	  6721
	  6722	  6771
TYO0	  3972	  6682	  6685	  6692	  6704	  6732#	  6748
TYOBJ	  4222#	  4228
TYOF0	  6740#	  6741
TYOF1	  6746#	  6749
TYOF9	  6742	  6747	  6751#
TYOFCT	  6744	  6746	  6755#
TYOFIL	  6743	  6754#
TYOGO	  3247#	  6734	  7313
TYOI	  3951	  3954	  3957	  3972#
TYOSKP	  1032	  3246#	  6732	  6740	  7311
UCB	  5923#	  6067	  6102
UCBE	  5983#
UCBL	  5902#
UCBLB	  5901#	  5902
UCT	  1760#
UCT0	  1762#	  1783
UCT00	  1761#	  1777
UCT7	  1772#	  7679
UCT8	  1764	  1778#
UNDET	  3777	  3784	  3805	  3817	  3898#
UPT	    22#	  3193	  3203	  3205	  3207	  3225	  3279	  3350	  7131	  7133
UUOH	  3189	  7121#	  7122	  7127	  7132
UUOH1	  7122#	  7134
UWP	  2716	  2731	  3447	  3481	  4100#	  4435	  4647
SA10 - DIAGNOSTIC FOR SYSTEMS CONCEPTS SA-10 IBM-TO-DEC SUBSYSTEM ADAPTOR	VER 1	MACRO %53B(1155)-2 14:34 14-Feb-86 Page 1
SA10N	MAC	17-Sep-74 22:01


Symbol cross reference

V0	   328#
V1	   329#
V10	   443#
V105	   453	   456#
V10P	   445	   447	   451	   456	   895#
V10P1	   446	   452	   892	   896#
V10P2	   457	   893	   898#
V10PP	   445	   891#
V11	   458	   462#
V110	   465#	   498
V111	   476#	   481
V111V	   473	   490	   951#
V111W	   469	   493	   918#
V118	   494	   497#
V11PA	   482	   900#
V11PAD	   465	   901	   903#
V11PB	   466	   468	   475	   484	   492	   914#
V11PBN	   470	   913	   916#	   918
V11PBP	   466	   904#
V11PBZ	   467	   905	   906	   907	   908	   909	   910	   911	   912	   915#
V12	   499#
V12P	   920	   923#
V12PD	   501	   506	   924	   926#
V12PP	   502	   920#
V12PT	   503	   504	   921#
V13	   508	   511#
V1X	   336#	   366	   372	   401	   407	   419	   450	   491	   741
V2	   335	   339#
V2A	   342#	   354	   358
V2B	   349	   352#
V2P	   342	   346	   362	   363	   762	   795#
V2V	   343	   345	   348	   797#
V3	   359#
V4	   367#
V41	   374#	   381
V42	   377	   380#
V4DAT	   374	   803#
V4P	   369	   799#
V4TAB	   375	   800	   802#	   885	   888
V5	   382#
V6	   383#
V6P	   385	   876#
V7	   396#
V7DAT	   880	   882#
V7P	   398	   879#
V8	   402#
V84	   412#	   424
V85	   410	   414#
V8P1	   404	   884#
V8P2	   416	   887#
SA10 - DIAGNOSTIC FOR SYSTEMS CONCEPTS SA-10 IBM-TO-DEC SUBSYSTEM ADAPTOR	VER 1	MACRO %53B(1155)-2 14:34 14-Feb-86 Page 1
SA10N	MAC	17-Sep-74 22:01


Symbol cross reference

V9	   425#
VDAT	   618#	   651	   687	   692	   697	   698	   703	   708
VDBT	   518	   615#	   666	   718	   719
VDCT	   521	   537	   538	   617#	   668	   729
VDNT	   520	   537	   538	   616#	   667	   724
VDT	   517	   525	   564#	   629	   682
VDTE	   524	   613#
VDWT	   519	   614#	   665	   713
VEPNT	   337	   351	   379	   413	   455	   460	   496	   510	   660	   774	   776	   778	   781#	   932
	   940
VEPNT0	   431	   442	   780#
VEPNT8	   785#
VEPNTV	   781	   784	   950#
VGMODE	   645	   952#
VOSTAT	   767	   769	   789#
VPAT	   513#
VPAT1	   524#	   536
VPAT10	   529	   541#
VPAT2	   532#	   556
VPAT20	   533	   557#
VPAT3	   535#	   562
VPATC0	   523	   535	   944#
VPATC1	   515	   528	   555	   942#
VPATC2	   516	   532	   561	   943#
VPATCH	   971#
VQ	   582#	   595	   596	   596#	   597	   597#	   598	   598#	   599	   599#	   600	   600#	   601	   601#
	   602	   602#	   603	   603#	   604	   604#	   605	   605#	   606	   606#	   607	   607#	   608	   608#
	   609	   609#	   610	   610#	   611	   611#	   803#	   809	   810	   810#	   811	   811#	   812	   812#
	   813	   813#	   814	   814#	   815	   815#	   816	   816#	   817	   817#	   818	   818#	   819	   819#
	   820	   820#	   821	   821#	   822	   822#	   823	   823#	   824	   824#	   825	   825#	   826	   826#
	   827	   827#	   828	   828#	   829	   829#	   830	   830#	   831	   831#	   832	   832#	   833	   833#
	   834	   834#	   835	   835#	   836	   836#	   837	   837#	   838	   838#	   839	   839#	   840	   840#
	   841	   841#	   842	   842#	   843	   843#	   844	   844#	   845	   845#	   846	   846#	   847	   847#
	   848	   848#	   849	   849#	   850	   850#	   851	   851#	   852	   852#	   853	   853#	   854	   854#
	   855	   855#	   856	   856#	   857	   857#	   858	   858#	   859	   859#	   860	   860#	   861	   861#
	   862	   862#	   863	   863#	   864	   864#	   865	   865#	   866	   866#	   867	   867#	   868	   868#
	   869	   869#	   870	   870#	   871	   871#	   872	   872#	   873	   873#
VQS	   583#	   596	   597	   598	   599	   599#	   600	   601	   602	   603	   603#	   604	   605	   606
	   607	   607#	   608	   609	   610	   611	   611#
VR	   306	   316	   382	   620#
VR1	   632#
VR1P0	   661	   689#
VR1P1	   662	   694#
VR1P2	   663	   700#
VR1P3	   664	   705#
VR1P4	   677	   710#
VR1P5	   678	   715#
VR1P6	   679	   721#
VR1P7	   680	   726#
VR1TA	   638	   665#
SA10 - DIAGNOSTIC FOR SYSTEMS CONCEPTS SA-10 IBM-TO-DEC SUBSYSTEM ADAPTOR	VER 1	MACRO %53B(1155)-2 14:34 14-Feb-86 Page 1
SA10N	MAC	17-Sep-74 22:01


Symbol cross reference

VR1TC	   643	   677#
VR1TR	   635	   661#
VR1TT	   639	   669#
VR1TX	   641	   673#
VR1V0	   690	   711	   733#
VR1V1	   695	   716	   734#
VR1V2	   701	   722	   735#
VR1V3	   706	   727	   736#
VR2	   633#	   646
VREL	   305#
VREL1	   306#	   309
VRP1	   622	   681#
VRP2	   626	   684#
VRUN	   347	   364	   370	   386	   399	   405	   417	   448	   738	   744#
VRUN1	   745#	   772
VRUN2	   439	   747#
VRUNA	   428	   483	   505	   623	   627	   636	   644	   738#
VRUNDF	   438	   746	   751	   949#
VRUNSP	   427	   771	   791#
VRV	   631	   640	   649#
VRV0	   685	   732#
VRV1	   651#	   655
VRV3	   654#
VRV4	   653	   658#
VRVC	   946#
VRVT	   650	   659	   947#
VRWL	   202#	   522	   637	   692	   698	   703	   708	   713	   719	   724	   729	   733	   734	   735
	   736
VSENSE	   429	   440	   792	   794#
VSENSF	   436	   486	   744	   765	   770	   948#
VSTAT1	   333	   393	   489	   752	   755#	   936
VSTAT3	   756#	   759
VSTAT6	   766	   775#
VSTAT7	   760	   777#
VTIM1	   316#	   318
VTIME	   312#
VTIMEC	   312	   319	   326#	   757
VTTPTR	   330	   340	   360	   368	   384	   390	   397	   403	   415	   426	   433	   444	   463	   500
	   621	   625	   634	   642	   782	   945#
VV6	   388	   395	   929#
VV62	   930	   933#
WAIT	   210#	   896
WBAF	  5515	  5517#
WBAFE	  5519	  5522#
WBAT	  4674	  4754	  4973	  5514#
WCPDAT	  3704	  3716#	  3811
WCWDAT	  3706	  3733#	  3749	  3813
WERRNO	  6115	  6367	  6404#
WPAT	   213#	   681
WRAP0	  7178#
SA10 - DIAGNOSTIC FOR SYSTEMS CONCEPTS SA-10 IBM-TO-DEC SUBSYSTEM ADAPTOR	VER 1	MACRO %53B(1155)-2 14:34 14-Feb-86 Page 1
SA10N	MAC	17-Sep-74 22:01


Symbol cross reference

WRAP1	  7181#
WRAP2	  7184#
WRAP3	  7186#
WRAPV	  7198	  7213	  7439#	  7684
WRDATA	   199#	  3093	  4252	  5288	  5294	  5300	  5306	  5312	  5318	  5324	  5330	  5336	  5342	  5348
	  5354	  5360	  5366	  5372	  5378	  5384	  5390	  5517	  5604
WRP	  7179	  7182	  7185	  7188#
WRP2	  7191#	  7221	  7240
WRP4	  7215#	  7688
WRP6	  7234#	  7694
WRRQ	   109#
WRTPP	  3088#	  3433	  3436
WRTPP1	  3090#	  3092	  3434
WRTPP2	  3093#	  3435
WRTPPD	  3089	  3091	  3094	  3095#
WRTST	  4252#
ZEROS	  5060	  5261#	  5598
ZRRBL	  1115	  5644#
ZZ	  3979#	  3987	  3988	  3988#	  3989	  3990	  3990#	  3991	  3992	  3992#	  3993	  3994	  3994#	  3995
	  3996	  3996#	  3997	  3998	  3998#	  3999	  4000	  4000#	  4001	  4002	  4002#	  4003	  4004	  4004#
	  4005	  4006	  4006#	  4007	  4008	  4008#	  4009	  4010	  4010#	  4011	  4012	  4012#	  4013	  4014
	  4014#	  4015	  4016	  4016#	  4017	  4018	  4018#	  4019	  4020	  4020#	  4021	  4022	  4022#	  4023
	  4024	  4024#	  4025	  4026	  4026#	  4027	  4028	  4028#	  4029	  4030	  4030#	  4031	  4032	  4032#
	  4033	  4034	  4034#	  4035	  4036	  4036#	  4037	  4038	  4038#	  4039	  4040	  4040#	  4041	  4042
	  4042#	  4043	  4044	  4044#	  4045	  4046	  4046#	  4047	  4048	  4048#	  4049	  4050	  4050#	  5061#
	  5071	  5073	  5073#	  5075	  5077	  5077#	  5079	  5081	  5081#	  5083	  5085	  5085#	  5087	  5089
	  5089#	  5091	  5093	  5093#	  5095	  5097	  5097#	  5099	  5101	  5101#	  5103	  5105	  5105#	  5107
	  5109	  5109#	  5111	  5113	  5113#	  5115	  5117	  5117#	  5119	  5121	  5121#	  5123	  5125	  5125#
	  5127	  5129	  5129#	  5131	  5133	  5133#	  5135	  5137	  5137#	  5139	  5141	  5141#	  5142#	  5154
	  5158	  5158#	  5160	  5164	  5164#	  5166	  5170	  5170#	  5172	  5176	  5176#	  5178	  5182	  5182#
	  5184	  5188	  5188#	  5190	  5194	  5194#	  5196	  5200	  5200#	  5202	  5206	  5206#	  5208	  5212
	  5212#	  5214	  5218	  5218#	  5220	  5224	  5224#	  5226	  5230	  5230#	  5232	  5236	  5236#	  5238
	  5242	  5242#	  5244	  5248	  5248#	  5250	  5254	  5254#	  5256	  5260	  5260#	  5274#	  5286	  5290
	  5290#	  5292	  5296	  5296#	  5298	  5302	  5302#	  5304	  5308	  5308#	  5310	  5314	  5314#	  5316
	  5320	  5320#	  5322	  5326	  5326#	  5328	  5332	  5332#	  5334	  5338	  5338#	  5340	  5344	  5344#
	  5346	  5350	  5350#	  5352	  5356	  5356#	  5358	  5362	  5362#	  5364	  5368	  5368#	  5370	  5374
	  5374#	  5376	  5380	  5380#	  5382	  5386	  5386#	  5388	  5392	  5392#	  5393#	  5405	  5409	  5409#
	  5411	  5415	  5415#	  5417	  5421	  5421#	  5423	  5427	  5427#	  5429	  5433	  5433#	  5435	  5439
	  5439#	  5441	  5445	  5445#	  5447	  5451	  5451#	  5453	  5457	  5457#	  5459	  5463	  5463#	  5465
	  5469	  5469#	  5471	  5475	  5475#	  5477	  5481	  5481#	  5483	  5487	  5487#	  5489	  5493	  5493#
	  5495	  5499	  5499#	  5501	  5505	  5505#	  5507	  5511	  5511#	  5658#	  5664	  5665	  5665#	  5668
	  5669	  5669#	  5672	  5673	  5673#	  5676	  5677	  5677#	  5680	  5681	  5681#	  6457#	  6463	  6469
	  6469#	  6472	  6478	  6478#	  6481	  6487	  6487#	  6490	  6496	  6496#	  8033#	  8038	  8039	  8039#
	  8041	  8042	  8042#	  8044	  8045	  8045#	  8047	  8048	  8048#	  8050	  8051	  8051#	  8053	  8054
	  8054#	  8056	  8057	  8057#	  8059	  8060	  8060#	  8062	  8063	  8063#	  8065	  8066	  8066#	  8068
	  8069	  8069#	  8071	  8072	  8072#	  8074	  8075	  8075#	  8077	  8078	  8078#	  8080	  8081	  8081#
	  8083	  8084	  8084#	  8086	  8087	  8087#	  8089	  8090	  8090#	  8092	  8093	  8093#	  8095	  8096
	  8096#	  8098	  8099	  8099#	  8101	  8102	  8102#	  8104	  8105	  8105#	  8107	  8108	  8108#	  8110
	  8111	  8111#	  8113	  8114	  8114#	  8116	  8117	  8117#	  8119	  8120	  8120#	  8122	  8123	  8123#
	  8125	  8126	  8126#	  8128	  8129	  8129#	  8131	  8132	  8132#
SA10 - DIAGNOSTIC FOR SYSTEMS CONCEPTS SA-10 IBM-TO-DEC SUBSYSTEM ADAPTOR	VER 1	MACRO %53B(1155)-2 14:34 14-Feb-86 Page 1
SA10N	MAC	17-Sep-74 22:01


Symbol cross reference

$CNOB	  1778
$EADR	  2236
$N18BA	  2232
$NHCHA	  2042
%MUXCR	  2109
.DTMMC	   239#	  3357
.DTMTO	   238#	  3384
.DTRSW	   240#	  3391
.EPTII	   259#	  3209
.JBREL	  6427#	  6435
SA10 - DIAGNOSTIC FOR SYSTEMS CONCEPTS SA-10 IBM-TO-DEC SUBSYSTEM ADAPTOR	VER 1	MACRO %53B(1155)-2 14:34 14-Feb-86 Page 1
SA10N	MAC	17-Sep-74 22:01


Macro/Opdef cross reference

APRID	   229#	  3367
CPG	  3976#	  3987	  3989	  3991	  3993	  3995	  3997	  3999	  4001	  4003	  4005	  4007	  4009	  4011
	  4013	  4015	  4017	  4019	  4021	  4023	  4025	  4027	  4029	  4031	  4033	  4035	  4037	  4039
	  4041	  4043	  4045	  4047	  4049	  8038	  8041	  8044	  8047	  8050	  8053	  8056	  8059	  8062
	  8065	  8068	  8071	  8074	  8077	  8080	  8083	  8086	  8089	  8092	  8095	  8098	  8101	  8104
	  8107	  8110	  8113	  8116	  8119	  8122	  8125	  8128	  8131
EXIT	  6443
IOW	    70#	   682	   685	   687	   690	   692	   695	   698	   701	   703	   706	   708	   711	   713
	   716	   719	   722	   724	   727	   729	   792	   800	   880	   885	   888	   901	   924	  3089
	  3091	  3094	  4289	  4291	  4294	  4364	  5051	  5054	  5057	  5060	  5072	  5076	  5080	  5084
	  5088	  5092	  5096	  5100	  5104	  5108	  5112	  5116	  5120	  5124	  5128	  5132	  5136	  5140
	  5154	  5157	  5160	  5163	  5166	  5169	  5172	  5175	  5178	  5181	  5184	  5187	  5190	  5193
	  5196	  5199	  5202	  5205	  5208	  5211	  5214	  5217	  5220	  5223	  5226	  5229	  5232	  5235
	  5238	  5241	  5244	  5247	  5250	  5253	  5256	  5259	  5273	  5286	  5289	  5292	  5295	  5298
	  5301	  5304	  5307	  5310	  5313	  5316	  5319	  5322	  5325	  5328	  5331	  5334	  5337	  5340
	  5343	  5346	  5349	  5352	  5355	  5358	  5361	  5364	  5367	  5370	  5373	  5376	  5379	  5382
	  5385	  5388	  5391	  5405	  5408	  5411	  5414	  5417	  5420	  5423	  5426	  5429	  5432	  5435
	  5438	  5441	  5444	  5447	  5450	  5453	  5456	  5459	  5462	  5465	  5468	  5471	  5474	  5477
	  5480	  5483	  5486	  5489	  5492	  5495	  5498	  5501	  5504	  5507	  5510	  5598	  5600	  5602
	  5605	  5612	  5614	  5617	  6102	  6106	  6308	  6312	  6408	  6413	  6417
IOWC	    72#	   697	   718	  5053	  5056	  5059	  5070	  5071	  5074	  5075	  5078	  5079	  5082	  5083
	  5086	  5087	  5090	  5091	  5094	  5095	  5098	  5099	  5102	  5103	  5106	  5107	  5110	  5111
	  5114	  5115	  5118	  5119	  5122	  5123	  5126	  5127	  5130	  5131	  5134	  5135	  5138	  5139
	  5153	  5159	  5165	  5171	  5177	  5183	  5189	  5195	  5201	  5207	  5213	  5219	  5225	  5231
	  5237	  5243	  5249	  5255	  5272	  5285	  5291	  5297	  5303	  5309	  5315	  5321	  5327	  5333
	  5339	  5345	  5351	  5357	  5363	  5369	  5375	  5381	  5387	  5404	  5410	  5416	  5422	  5428
	  5434	  5440	  5446	  5452	  5458	  5464	  5470	  5476	  5482	  5488	  5494	  5500	  5506	  6306
	  6311
LOOP	   145#	  1274	  1290	  1309	  1340	  1353	  1361	  1373	  1448	  1484	  1552	  1576	  1601	  1622
	  1633	  1655	  1668	  1686	  1696	  1725	  1750	  1772	  1816	  1853	  1864	  1892	  1917	  1958
	  1986	  2123	  7215	  7234
MCONI	   189#	  1162	  1182	  1214	  1228	  2492	  5716	  6510	  7323	  7713	  7740	  7771
MCONO	   158#	   331	   391	   487	   747	   749	   933	  1179	  1189	  1193	  1197	  1211	  1233	  1240
	  1243	  1248	  1302	  1332	  1346	  1367	  1430	  1469	  1474	  1509	  1519	  1524	  1530	  1535
	  1541	  1546	  1562	  1705	  1710	  1713	  1716	  1734	  1743	  1822	  1826	  1885	  2055	  2069
	  2080	  2116	  2131	  2133	  2164	  2241	  2248	  2262	  2277	  2287	  2307	  2335	  2387	  2390
	  2440	  2448	  2505	  2509	  2516	  2521	  2526	  2546	  2548	  3547	  3549	  3653	  3668	  3671
	  4426	  4596	  5688	  5691	  5729	  5784	  5804	  5808	  6119	  6256	  6316	  6515	  6521	  6528
	  6532	  6544	  6605	  6614	  6866	  6871	  6973	  7056	  7069	  7078	  7087	  7096	  7106	  7115
	  7207	  7227	  7327	  7335	  7339	  7769	  7783	  7845	  7847
MCONSO	   167#	  1521	  1532	  1543	  1567	  2071	  2171	  2442	  5709	  5712	  5787	  6271
MCONSZ	   163#	  1526	  1537	  1548	  1573	  1721	  2445	  2535	  5706	  6268
MDATAI	   184#	  1236	  1245	  1283	  1304	  1334	  1348	  1369	  1432	  1472	  1477	  1824	  1828	  1887
	  2118	  2135	  2250	  2264	  2268	  2279	  2309	  2518	  2523	  2528	  6517	  6523	  6536	  6551
	  6564	  6581	  6597	  6868	  6975	  7209	  7229	  7329	  7337	  7341	  7799	  7849
MDATAO	   179#	  1268	  1280	  1427	  2266	  2296	  2300	  2305	  2318	  2322	  2341	  6549	  6562	  6579
	  7204	  7224
MDATSO	   175#
MDATSZ	   171#	  2337	  2392
NAME	     4#	     9
SA10 - DIAGNOSTIC FOR SYSTEMS CONCEPTS SA-10 IBM-TO-DEC SUBSYSTEM ADAPTOR	VER 1	MACRO %53B(1155)-2 14:34 14-Feb-86 Page 1
SA10N	MAC	17-Sep-74 22:01


Macro/Opdef cross reference

PIRP	   193#	  7021	  7032
PPPN	  6449#	  6463	  6472	  6481	  6490
SLOOP	   154#	  7711	  7737	  7755	  7767	  7781	  7797	  7843
SWPUA	   228#	  3353
UCS1	  5908#	  5923	  5935	  5947	  5959	  5971	  5983
UCS2	  5905#	  5923	  5924	  5925	  5926	  5929	  5930	  5931	  5932	  5933	  5934	  5935	  5936	  5937
	  5938	  5941	  5942	  5943	  5944	  5945	  5946	  5947	  5948	  5949	  5950	  5953	  5954	  5955
	  5956	  5957	  5958	  5959	  5960	  5961	  5962	  5965	  5966	  5967	  5968	  5969	  5970	  5971
	  5972	  5973	  5974	  5977	  5978	  5979	  5980	  5981	  5982	  5983	  5984	  5985	  5986	  5989
	  5990	  5991	  5992	  5993	  5994	  5997	  5998	  5999	  6000	  6001	  6002	  6003	  6004	  6005`*^