SSDISK
SSDISK:  DISK PERFORMANCE (INCLUDING ERRORS)	MACRO %53B(1156)-1 15:45 30-Jan-87 Page 1
SSPRAM	MAC	23-Apr-74 23:27		GLOBAL ASSIGNMENTS

     1						SUBTTL	GLOBAL ASSIGNMENTS
     2	400000'					TWOSEG
     3	400000'					RELOC	400000
     4						MLON
     5
     6					;DEFINE LISTING OPTIONS
     7
     8			000000		FTDEBUG==0	;LISTING CTRL: -1=DEBUG LISTING, 0=REGULAR LISTING
     9					IFE FTDEBUG<DEFINE OFF.LIST<XLIST>>
    10					IFN FTDEBUG<DEFINE OFF.LIST<XALL>>
    11					IFE FTDEBUG<DEFINE ON.LIST<LIST>>
    12					IFN FTDEBUG<DEFINE ON.LIST<LALL>>
    13
    14					IFE MAINSW <OFF.LIST> ^ ;IF ATTACHED TO MAIN, DO NOT LIST.
    15						ON.LIST^LIST^
    16					00100		SUBTTL	DEVICE DATA BLOCK DEFINITION
    17					00200
    18					00300	;NAMES FOR THE DEVICE DATA BLOCK CHAIN
    19					00400	; THIS IS NOT THE SAME AS A UNIT DATA BLOCK (UNI###)
    20	000000				00500		PHASE	0
    21					00520
    22			000000		00540	LOWDDB==.
    23					00560
    24	000000	000000	000000		00600	DEVNAM:!0	;DEVICE NAME IN SIXBIT
    25	000001	000000	000000		00700	DEVCHR:!0	;LH=HUNG TIME COUNT, RH=BUFFER SIZE
    26	000002	000000	000000		00800	DEVIOS:!0	;LH=MONITOR RH=USER  IO STATUS BITS
    27	000003	000000	000000		00900	DEVSER:!0	;LH=LINK TO NEXT DDB RH=DISPATCH TABLE ADDRESS
    28	000004	000000	000000		01000	DEVMOD:!0	;LH=CHARACTERISTICS RH=MODES FOR DEVICE
    29	000005	000000	000000		01100	DEVLOG:!0	;LOGICAL NAME IN SIXBIT (0 IF NONE)
    30	000006	000000	000000		01200	DEVBUF:!0	;LH=OUTPUT RH=INPUT  BUFFER HEADER
    31	000007	000000	000000		01300	DEVIAD:!0	;RH=POINTER TO USER BUFFER ADDRESS
    32	000010				01400	DEVOAD:		;NEW NAME
    33	000010	000000	000000		01420	DEVLOD:!0	;BIT 13=0,BITS 14-17=R, RH=POINTER TO USER OUTPUT BUFFER
    34	000011	000000	000000		01440	DEVCLS:!0	;CLASS 2, 0 BLKS FOR IO LIST
    35	000012	000000	000000		01460	DEVSTS:!0	;WORD FOR DEVICE CONI
    36	000013				01480	DEVBLK:   ;THIS REMAINS HERE FOR USE BYTHIS REMAINS HERE FOR USE BY
    37					01500			;DIRECTORY-MANIPULATION ROUTINES
    38	000013	000000	000000		01520	DEVABC:!0      ;(NO LONGER USED FOR DSK, VM SYSTEM)
    39	000014				01540	DEVBWC:		;NEW NAME
    40	000014	000000	000000		01560	DEVPWC:!0	;WAKE UP COUNT (NOT FOR DSK)
    41	000015	000000	000000		01580	DEVFIL:!0	;OLD FILE NAME
    42	000016				01600	DEVEXT:  	;OLD EXTENSION
    43	000016	000000	000000		01620	DEVSUP:!0     	;RH = LOC FOR USE BY SUPER IO.
    44	000017	000000	000000		01640	DEVPPN:!0	;OLD DIRECTORY NAME (PROJ,R) - NOT ARG TO FNDFIL
    45	000020				01660	DEVDMP:  	;OLD NAME
    46	000020				01680	DEVPOS:         ;BLK POSITION IN FILE	BLK POSITION IN FILE
    47	000020	000000	000000		01700	DEVREL:!0     	;TEMP DEBUGGING AID.
    48					01720	             	;TEMP DEBUGGING AID.
    49	000021	000000	000000		01740	DEVRET:!0	;RH=CORE  ADR IN DDB OF CURRENT RETIEVAL PRT
    50	000022	000000	000000		01760	DEVLOK:!0	;BOTH HALVES USED BY THE RIB STRUCTURE
    51	000023				01780	DEV1UN:	;NEW NAME
    52	000023	000000	000000		01800	DEVUNI:!0	;UNIT DB ADDRESS IF THIS SPECIAL
    53					01820			;UNIT IN STR STUFF (ELSE ZERO).
    54	000024	000000	000000		01840	DEVFLO:!0	;DEVREL ASSOCIATED WITH THE FIRST
    55					01860			;RETRIEVAL POINTER IN THE DDB, OR -1 IF NO RET PTS
SSDISK:  DISK PERFORMANCE (INCLUDING ERRORS)	MACRO %53B(1156)-1 15:45 30-Jan-87 Page 1
DDBLOK	MAC	23-Apr-74 23:28		DEVICE DATA BLOCK DEFINITION

    56	000025	000000	000000		01880	DEVFUF:!0	;DEVFLO TYPE LOCATIONFOR USE BY THE
    57					01900			;ROUTINES IN FILFNX, ETC. THAT READ THE UFD, ETC.
    58	000026	000000	000000		01920	DEVSZS:!0	;RIBSZS OF THE RIB FROM WHICH THE DDB
    59					01940			;RET PNTRS CAME.
    60	000027	000000	000000		01960	DEVRIB:!0	;DISK POINTER TO THE RIB FROM WHICH
    61					01980			;THE DDB RET PNTRS CAME
    62	000030	000000	000000		02000	DEVELB:!0	;TO STORE BLOCK (REALLY PAGE) NUMBER OF ERR
    63	000031	000000	000000		02010	DEVRPS:!0	;BITS 0 TO 8 ARE THE REL ADDR IN RIB OF LAST OF
    64					02015			;THE DDB RETRIEVAL PNTRS.
    65	000032	000000	000000		02020	DEVRB1:!0	;FIRST RETRIEVAL POINTER HOES HERE IN DDB
    66	000033	000000	000000		02030	DEVRBN:!0	;LAST RETRIEVAL PTR IN CORE
    67	000034	000000	000000		02040	DEVATB:!0	;RH=ADDRESS OF ATB.
    68					03420
    69			000035		03440	LN.DDB==.-LOWDDB	;LENGTH OF A DDB
    70					03460
    71	400035'				03500		DEPHASE
    72					00050		SUBTTL	UNIT DATA BLOCK DEFINITION
    73					00100
    74			000011		00200	DDBLDB==11	;LINK TO LDB IF NEW SCNSER
    75					00300	;SEE ALSO PJOBN AND TPCJOB
    76					00400
    77					00500	;PARAMETERS
    78					00600
    79			000145		00700	DULHSH==^D101	;HASH FOR READING SYS:DUL.SYS
    80			400000		00800	SIGN=400000	;SIGN BIT.
    81			200000		00900	DVDSK==200000
    82			000010		01000	DVTTY==10
    83			020000		01100	DVTTYC==20000	;TTY IN USE AS CONSOLE
    84			377000		01200	OUTMSK==377000
    85					01300
    86					01400	MLON
    87					01500
    88		254000	000000		01600	OPDEF	PJRST [JRST]
    89					01700
    90					01800	DEFINE	BOMB(A),<JRST	[JSP	M,BOMB.
    91					01900				ASCIZ	\A\]>
    92					02000	;DSK CHR BLOCK
    93					02100
    94			000001		02200	.UFTAL==1
    95			000002		02300	.STTAL==2
    96			000003		02400	.UNTAL==3
    97			000004		02500	.STNAM==4
    98			000005		02600	.UNCHR==5
    99			000006		02700	.UNBPU==6
   100			000007		02800	.STMNT==7
   101			000010		02900	.UNWPS==10
   102			000011		03000	.UNSPU==11
   103			000012		03100	.UNK4S==12
   104			000013		03200	.UNSAJ==13
   105			000014		03300	.UNLOG==14
   106			000015		03400	.UNPHY==15
   107			000016		03500	.UNHID==16
   108			000020		03600	DSKBKL=20	;LENGTH OF BLOCK
   109					03700
   110					03800	; HERE IS THE DEFINITION FOR THE MONITOR UNIT DATA BLOCK.
SSDISK:  DISK PERFORMANCE (INCLUDING ERRORS)	MACRO %53B(1156)-1 15:45 30-Jan-87 Page 1
UDBLOK	MAC	23-Apr-74 23:28		UNIT DATA BLOCK DEFINITION

   111					03900	; NOTE THIS IS DIFFERENT THAN DEVICE DATA BLOCK.(SEE DEV###
   112					04000	; ABOVE).  THIS MUST AGREE WITH MONITOR DEF'S FOR DISK,
   113					04100	; SWAPPER AND BUSY DEVICE DISPLAYS TO WORK PROPERLY
   114	000000				04200		PHASE	0
   115					04300
   116			000000		04400	LOWUDB==.
   117					04500
   118	000000	000000	000000		04600	UNINAM:!0	;SIXBIT PHYSICAL UNIT NAME AS DPA0
   119	000001	000000	000000		04700	UNILOG:!0	;SIXBIT LOGICAL UNIT NAME AS DSKB0
   120	000002	000000	000000		04800	UNIHID:!0	;SIXBIT UNIT ID FROM HOME BLOCK AS 330010
   121	000003	000000	000000		04900	UNISYS:!0	;BITS 18-25 = NUMBER OF SAT BLOCKS IN CORE
   122					05000			;BITS 30-35 = LOGICAL UNIT NUMBER IN FILE STR
   123	000004	000000	000000		05100	UNISTR:!0	;...
   124	000005	000000	000000		05200	UNICHN:!0	;...
   125	000006	000000	000000		05300	UNIKON:!0	;...
   126	000007	000000	000000		05400	UNISWP:!0	;BITS 21-23 = CLASS FOR SWAPPING
   127					05500			;BITS 24-35 = PAGES FOR SWAPPING
   128			000007		05600		UNIP4S==UNISWP
   129	000010	000000	000000		05700	UNIHCT:!0	;BITS  0-17 = NUMBER OF HARD DEVICE ERRORS
   130					05800			;BITS 18-35 = NUMBER OF HARD DATA ERRORS
   131	000011	000000	000000		05900	UNISCT:!0	;BITS  0-17 = NUMBER OF SOFT DEVICE ERORS
   132					06000			;BITS 18-35 = NUMBER OF SOFT DATA ERRORS
   133	000012	000000	000000		06100	UNIMCT:!0	;BITS  0-11 = NUMBER OF SAT FAILURES
   134					06200			;BITS 12-23 = NUMBER OF RIB ERRORS
   135					06300			;BITS 24-35 = NUMBER OF CHECKSUM ERRORS
   136	000013	000000	000000		06400	UNIERR:!0	;LAST HARD ERROR CONI STATUS
   137	000014	000000	000000		06500	UNISOF:!0	;LAST SOFT ERROR CONI STATUS
   138	000015	000000	000000		06600	UNIHBN:!0	;BLOCK NUMBER OF LAST HARD ERROR
   139	000016	000000	000000		06700	UNIBRC:!0	;NUMBER OF BUFFERED MODE READS
   140	000017	000000	000000		06800	UNIBWC:!0	;NUMBER OF BUFFERED MODE WRITES
   141	000020	000000	000000		06900	UNIDRC:!0	;NUMBER OF DUMP MODE READS (BLOCKS)
   142	000021	000000	000000		07000	UNIDWC:!0	;NUMBER OF DUMP MODE WRITES (BLOCKS)
   143	000022	000000	000000		07100	UNIMRC:!0	;NUMBER OF MONITOR READS
   144	000023	000000	000000		07200	UNIMWC:!0	;NUMBER OF MONITOR WRITES
   145	000024	000000	000000		07300	UNIHNG:!0	;BITS  0-17 = NUMBER OF TIMES UNIT HUNG IN TRANSFER
   146					07400			;BITS 18-35 = NUMBER OF OTHER UNIT HANG OCCURANCES
   147	000025	000000	000000		07500	UNIICT:!0	;NUMBER OF SWAP READS (BLOCKS)
   148	000026	000000	000000		07600	UNIOCT:!0	;NUMBER OF SWAP WRITES (BLOCKS)
   149	000027	000000	000000		07700	UNIMSC:!0	;NUMBER OF MONITOR SEEKS
   150	000030	000000	000000		07800	UNIUSC:!0	;NUMBER OF USER SEEKS
   151	000031	000000	000000		07900	UNIFKS:!0	;NUMBER OF PAGES FREE FOR SWAPPING
   152	000032	000000	000000		08000	UNISDI:!0	;DATAI STATUS OF LAST SOFT ERROR
   153	000033	000000	000000		08100	UNIHDI:!0	;DATAI STATUS OF LAST HARD ERROR
   154	000034	000000	000000		08200	UNIECT:!0	;NUMBER OF RETRYS ON LAST ERROR
   155	000035	000000	000000		08300	UNISBN:!0	;BLOCK NUMBER OF LAST SOFT ERROR
   156	000036	000000	000000		08400	UNISTS:!0	;...
   157	000037	000000	000000		08500	UNIQUE:!0	;...
   158	000040	000000	000000		08600	UNIGRP:!0	;...
   159	000041	000000	000000		08700	UNIBPU:!0	;NUMBER OF LOGICAL BLOCKS ON UNIT
   160	000042	000000	000000		08800	UNICHR:!0	;BITS  0-8  BLOCKS/CLUSTER
   161					08900			;BITS  9-17 BLOCKS/TRACK
   162					09000			;BITS 18-35 BLOCKS/CYLINDER
   163	000043	000000	000000		09100	UNICPS:!0	;BITS  0-8  NUMBER OF WORDS PER SAT
   164					09200			;BITS 10-17 NUMBER OF SATS ON UNIT
   165					09300			;BITS 18-35 NUMBER OF CLUSTERS PER SAT
SSDISK:  DISK PERFORMANCE (INCLUDING ERRORS)	MACRO %53B(1156)-1 15:45 30-Jan-87 Page 1-1
UDBLOK	MAC	23-Apr-74 23:28		UNIT DATA BLOCK DEFINITION

   166	000044	000000	000000		09400	UNICYL:!0	;...
   167	000045	000000	000000		09500	UNIBKK:!0	;...
   168	000046	000000	000000		09600	UNISAB:!0	;...
   169	000047	000000	000000		09700	UNITAL:!0	;NUMBER OF FREE BLOCKS ON UNIT
   170	000050	000000	000000		09800	UNIDES:!0	;BIT  1 OFF-LINE
   171					09900			;BIT  2 HARDWARE WRITE PROTECTED
   172					10000			;BIT  9 MULTIPLE SAT BLOCKS
   173					10100			;BIT 4 NO NEW ACCESSES (SOFTWARE)
   174					10200			;BIT 5 SOFTWARE WRITE PROTECTED
   175					10300			;BIT 6 FILE UNSAFE (ALWAYS ON?)
   176					10400			;BITS 18-20 CHANNEL NUMBER (SOFTWARE)
   177					10500			;BITS 21-26 TYPE, AS PER:
   178					10600				;0 UNUSED
   179					10700				;1 FH (DRUM)
   180					10800				;2 DP (DISK PACK)
   181					10900				;3 MD (BRYANT DISK)
   182					11000				;4 BP (3330)
   183					11100			;BITS 27-29 KONTROLLER NUMBER (SOFTWARE)
   184					11200			;BITS 30-32 UNIT TYPE (DEPENDS ON KON TYPE)
   185					11300			;BITS 33-35 PHYSICAL UNIT NUMBER ON KONTROLLER
   186	000051	000000	000000		11400	UNIPTR:!0	;...
   187	000052	000000	000000		11500	UNISLB:!0	;FIRST LOGICAL BLOCK FOR SWAPPING
   188	000053	000000	000000		11600	UNIRCT:!0	;...
   189	000054	000000	000000		11700	UNIFCT:!0	;...
   190	000055	000000	000000		11800	UNIDIR:!0	;...
   191					11900
   192			000056		12000	LN.UDB==.-LOWUDB	;LENGTH OF A UDB
   193					12100
   194	400113'				12200		DEPHASE
   195					12300
   196			017777		12400	MSKK4S==17777	;MASK ON UNIP4S
   197							TITLE 	SSDISK:  DISK PERFORMANCE (INCLUDING ERRORS)
   198							IF1 <PRINTX SSDISK>
   199			000000				MAINSW==0
   200
   201						;  EXTERNAL SUBROUTINES
   202
   203							EXTERN	CRLF	;PRINTS CRLF SEQUENCE (SSIO)
   204							EXTERN	D%DECN,D%MSG,D%MSGD,D%MSGN,D%MSGO	;DISK ERROR REPORTING (SSDSP
   205						L)
   206							EXTERN	D%UNCK	;DISK ERROR REPORTING (SSDSPL)
   207							EXTERN	GETUDB	;(SSDSPL)
   208							EXTERN	MSG	;MESSAGE PRINTING (SSIO)
   209							EXTERN	PRTBIT,BITTL	;(SSDSPL)
   210							EXTERN	RDX10	;PRINT DECIMAL - FREE FORM (SSIO)
   211							EXTERN	SIXBP	;PRINT SIXBIT MESSAGE (SSIO)
   212							EXTERN	SPACE	;PRINT SPACE (SSIO)
   213							EXTERN	TAB	;PRINT A TAB (SSIO)
   214							EXTERN	TYO	;PRINT A CHARACTER ON TERMINAL (SSIO)
   215
   216						;  EXTERNAL LOCATIONS
   217
   218							EXTERN	CURFS			;(SSLOW)
   219							EXTERN	DBLOCK,DSKBLK,PRCCNT	;(SSLOW)
   220							EXTERN	PSP1,PSP2,PSP3,PSPSW	;(SSLOW)
SSDISK:  DISK PERFORMANCE (INCLUDING ERRORS)	MACRO %53B(1156)-1 15:45 30-Jan-87 Page 1
SSDISK	MAC	17-Aug-75 02:16		UNIT DATA BLOCK DEFINITION

   221							EXTERN	SCNTIM,STWONM,TMPDSK	;(SSLOW)
   222							EXTERN	UNIBLK			;(SSLOW)
   223							EXTERN	UDTAB,UDTBL		;(SSDSPL)
   224
   225						;  GLOBAL SUBROUTINES
   226
   227							INTERN	DP,DP7,FLUN4D,PSPCK
   228
   229
   230						;CALL AS:	PUSHJ	P,DP
   231	400113'					DP:	MOVEI M,[ASCIZ .
   232	400113'	201 12 0 00 402461'		.]
   233	400114'	260 17 0 00 000000*			PUSHJ P,MSG
   234	400115'	402 00 0 00 000000#			SETZM	DBLOCK+1
   235	400116'	260 17 0 00 400160'			PUSHJ	P,REDUDB	;SEE IF UUO WILL FAIL.
   236	400117'	254 00 0 00 400124'			JRST	DP7		;YES - DON'T PRINT HEADINGS.
   237	400120'	336 00 0 00 000000#			SKIPN	DEVIOS+DBLOCK	;DOES USER HAVE LICENSE?
   238	400121'	254 00 0 00 400124'			JRST	DP7
   239	400122'	661 00 0 00 000002 			TLO	F,FL.LP1	;SET FLAG FOR FIRST TRY.
   240							JRST	[MOVEI M,[ASCIZ .Disk devices:
   241						Unit or file-structure
   242							Free	   BUFFERED	     DUMP	   MONITOR	Seeks
   243							Blocks	Reads	Writes	Reads	Writes	Reads	Writes
   244						.]
   245							PUSHJ P,MSG
   246	400123'	254 00 0 00 402515'			JRST	.+1]
   247
   248	400124'	402 00 0 00 000000*		DP7:	SETZM	CURFS		;ENTER HERE FOR PSP COMMAND
   249	400125'	402 00 0 00 000000*		IFN FTSTR,<	SETZM	STWONM		;INC WHEN UNIT W/O STR FOUND
   250	400126'	402 00 0 00 000000*			SETZM	SCNTIM		;2ND TIMEW AROUND FLAG>
   251
   252	400127'	332 00 0 00 400126*		FLFSL:IFN FTSTR,<	SKIPE	SCNTIM		;SKIP IF NOT ON 2ND TIME
   253	400130'	254 00 0 00 400403'			JRST	FILEXI		;EXIT LOOP>
   254	400131'	200 01 0 00 400124*			MOVE A,CURFS
   255	400132'	047 01 0 00 000046 			SYSSTR	A,
   256	400133'	255 00 0 00 000000 			  JFCL
   257						IFN FTSTR,<	JUMPE A,[SKIPN STWONM	;SKIP IF UNIT W/O STR FOUND
   258								JRST	FILEXI	;NO-QUIT
   259								SETOM SCNTIM	;NO WE ARE ON THAT LOOP
   260								MOVEI M,[ASCIZ /
   261						Units not in any file structure:
   262						/]
   263								SKIPN PSPSW ; SKIP IF PSP COMMAND
   264								PUSHJ P,MSG
   265								SETZM CURFS
   266	400134'	322 01 0 00 402530'				JRST FLUNL]	;CONTINUE LOOP
   267						>;ASSEMBLE ABOVE IF STRUCTURE NOT IN STR LIST GIVEN
   268
   269						IFE FTSTR,<	JUMPE	A,FILEXI	;ALL DONE OR NONE>
   270	400135'	202 01 0 00 400131*			MOVEM A,CURFS
   271	400136'	260 17 0 00 000000*			PUSHJ P,SIXBP		;TYPE STRUCTURE NAME
   272	400137'	201 13 0 00 000072 			MOVEI	CH,":"
   273	400140'	260 17 0 00 000000*			PUSHJ	P,TYO		;TYPE :
   274	400141'	260 17 0 00 000000*			PUSHJ P,TAB
   275	400142'	200 01 0 00 400135*			MOVE A,CURFS
SSDISK:  DISK PERFORMANCE (INCLUDING ERRORS)	MACRO %53B(1156)-1 15:45 30-Jan-87 Page 1-1
SSDISK	MAC	17-Aug-75 02:16		UNIT DATA BLOCK DEFINITION

   276	400143'	202 01 0 00 000000*			MOVEM A,DSKBLK
   277	400144'	200 01 0 00 402540'			MOVE A,[XWD DSKBKL,DSKBLK]	;SET FOR DISK CHARACTERISTICS UUO
   278	400145'	047 01 0 00 000045 			DSKCHR	A,		;FOR THE STRUCTURE FIRST
   279	400146'	254 00 0 00 400403'			  JRST FILEXI	;SHOULDNT FAIL
   280	400147'	200 10 0 00 000000#			MOVE N,DSKBLK+.STTAL	;GET BLOCKS LEFT
   281	400150'	260 17 0 00 000000*			PUSHJ P,RDX10		;ON STR
   282	400151'	260 17 0 00 000000*			PUSHJ P,CRLF		;END OF STRUCTURE
   283
   284						;UNIT STUFF HERE
   285						;LOOP TO READ IN STRUCTURE NAMES
   286	400152'	623 00 0 00 000002 			TLZE	F,FL.LP1	;NEED TO READ UDB?
   287	400153'	254 00 0 00 400172'			JRST	FLUNL1		;NO - ALREADY DID.
   288	400154'	402 00 0 00 000000#			SETZM	DBLOCK+1	;0 = JUST STARTED WORK
   289
   290						; MAIN LOOP TO READ UNITS
   291	400155'					FLUNL:
   292	400155'	260 17 0 00 400160'		FLOOP:	PUSHJ	P,REDUDB	;READ THE UDB.
   293	400156'	254 00 0 00 400127'			JRST	FLFSL		;NOPE.
   294	400157'	254 00 0 00 400172'			JRST	FLUNL1		;OK - CONTINUE.
   295
   296	400160'	201 01 0 00 000002 		REDUDB:	MOVEI	A,2
   297	400161'	202 01 0 00 000000*			MOVEM	A,DBLOCK	;FUNCTION NO. 2
   298	400162'	200 01 0 00 402541'			MOVE	A,[DBLOCK+2,,DBLOCK+3]
   299	400163'	402 00 0 00 000000#			SETZM	DBLOCK+2	;ZERO OUT DISK DATA BLOCK B4 USE
   300	400164'	251 01 0 00 000000#			BLT	A,DBLOCK+LN.UDB-1	;AS SO
   301	400165'	200 01 0 00 402542'			MOVE	A,[LN.UDB,,DBLOCK]
   302	400166'	047 01 0 00 777754 			SYSDVF	A,		;ASK MONITOR NICELY....
   303	400167'	334 00 0 00 000000 			SKIPA
   304	400170'	350 00 0 17 000000 			AOS	(P)
   305	400171'	263 17 0 00 000000 			POPJ	P,
   306
   307						; CHECK DEVIOS FOR BEING = 0, IN WHICH CASE USER HAS
   308						; INSUFFICIENT LICENSE TO GRAB THE DATA BLOCK
   309	400172'	336 00 0 00 000000#		FLUNL1:	SKIPN	DEVIOS+DBLOCK	;IS DEVIOS = 0 ?
   310	400173'	254 00 0 00 400127'			JRST	FLFSL		;YES, GET NEXT UNIT-THIS BAD
   311	400174'	336 00 0 00 000000#			SKIPN	DBLOCK+1	;DID WE GET ANYTHING
   312	400175'	254 00 0 00 400127'			JRST	FLFSL		;NO.. BYE BYE BYE
   313
   314						;READ IN DSK CHRS
   315	400176'	200 01 0 00 000000#			MOVE	A,DBLOCK+1	;GET STR NAME
   316	400177'	202 01 0 00 400143*			MOVEM	A,DSKBLK	;DEV NAME
   317	400200'	200 01 0 00 402540'			MOVE	A,[DSKBKL,,DSKBLK]
   318	400201'	047 01 0 00 000045 			DSKCHR	A,
   319	400202'	402 00 0 00 000000#			SETZM	DSKBLK+.STNAM	;NO ST NAME HERE
   320	400203'	202 01 0 00 400177*			MOVEM	A,DSKBLK		;SAVE STATES WORD
   321	400204'	201 04 0 00 000000#			MOVEI	D,DBLOCK+3	;SET UP INDEXED POINTER
   322						;CHECK TO SEE IF THIS IS THE STRUCTURE WE NEED
   323	400205'	336 01 0 00 000000#		FLUNL2:	SKIPN	A,DSKBLK+.STNAM	;(A)=STRNAM, SKIP IF NOT NULL
   324	400206'	476 00 0 00 400125*			SETOM	STWONM		;SET STR W/O NAME FOUND SW
   325	400207'	312 01 0 00 400142*			CAME	A,CURFS		;SAME AS CURRENT FILE STR?
   326	400210'	254 00 0 00 400155'			JRST	FLOOP

   328	400211'	621 00 0 00 010000 		FLUN3:	TLZ	F,FL.DEV	;RESET PSP HEADING SWITCH
   329	400212'	202 04 0 00 000000*			MOVEM	D,UNIBLK	;SAVE UNIT DATA BLOCK ADDR
   330	400213'	200 01 0 00 000000#			MOVE	A,DSKBLK+.UNPHY	;PHYSICAL NAME
SSDISK:  DISK PERFORMANCE (INCLUDING ERRORS)	MACRO %53B(1156)-1 15:45 30-Jan-87 Page 1-2
SSDISK	MAC	17-Aug-75 02:16		UNIT DATA BLOCK DEFINITION

   331	400214'	202 01 0 00 000000*			MOVEM	A,PSP1		;SAVE NAME FOR PSP COMMAND
   332	400215'	200 01 0 00 000000#			MOVE	A,DSKBLK+.UNLOG	;LOGICAL NAME
   333	400216'	202 01 0 00 000000*			MOVEM	A,PSP3		;SAVE FOR PACK ID PRINTOUT
   334	400217'	200 01 0 04 000002 			MOVE	A,UNIHID(D)	;GET PACK ID
   335	400220'	202 01 0 00 000000*			MOVEM	A,PSP2		;SAVE PACK ID
   336	400221'	332 00 0 00 000000*			SKIPE	PSPSW		;SKIP=NO PSP COMMAND
   337	400222'	254 00 0 00 400265'			JRST	FLUN4		;PSP--SKIP PACK ID UNLESS ER
   338	400223'	260 17 0 00 400350'			PUSHJ	P,IDPNT		;TYPE OUT I.D.
   339	400224'	260 17 0 00 400151*			PUSHJ	P,CRLF		;AND A CARRIAGE-RETURN
   340	400225'	200 10 0 00 000000#			MOVE	N,DSKBLK+.UNTAL	;TOTAL BLOCKS LEFT ON THIS PACK
   341	400226'	260 17 0 00 400141*			PUSHJ	P,TAB
   342	400227'	260 17 0 00 400150*			PUSHJ	P,RDX10
   343
   344	400230'	205 03 0 00 000000#			MOVSI	C,-UDTBL
   345	400231'	550 01 0 03 000000*		FLUNL3:	HRRZ	A,UDTAB(C)
   346	400232'	260 17 0 00 000000*			PUSHJ	P,GETUDB
   347	400233'	574 01 0 03 400231*			HLRE	A,UDTAB(C)
   348	400234'	322 01 0 00 400246'			JUMPE	A,FLUNLA
   349	400235'	321 01 0 00 400242'			JUMPL	A,FLDIFF
   350	400236'	270 01 0 00 400212*			ADD	A,UNIBLK
   351	400237'	200 01 0 01 000000 			MOVE	A,(A)
   352	400240'	270 10 0 00 000001 			ADD	N,A
   353	400241'	254 00 0 00 400246'			JRST	FLUNLA
   354
   355	400242'	213 00 0 00 000001 		FLDIFF:	MOVNS	A
   356	400243'	270 01 0 00 400236*			ADD	A,UNIBLK
   357	400244'	200 01 0 01 000000 			MOVE	A,(A)
   358	400245'	274 10 0 00 000001 			SUB	N,A
   359	400246'	260 17 0 00 400226*		FLUNLA:	PUSHJ	P,TAB
   360	400247'	260 17 0 00 400227*			PUSHJ	P,RDX10
   361	400250'	253 03 0 00 400231'			AOBJN	C,FLUNL3
   362
   363
   364	400251'	260 17 0 00 400224*		FLUN2:	PUSHJ P,CRLF
   365	400252'	621 00 0 00 010200 			TLZ F,FL.NBK+FL.DEV
   366	400253'	510 01 0 00 400203*			HLLZ A,DSKBLK
   367	400254'	621 01 0 00 000077 			TLZ A,BITMSK
   368	400255'	322 01 0 00 400265'			JUMPE A,FLUN4
   369	400256'	260 17 0 00 000000*			PUSHJ P,SPACE
   370	400257'	661 00 0 00 000200 			TLO F,FL.NBK
   371	400260'	205 03 0 00 000000#			MOVSI C,-BITTL
   372	400261'	335 00 0 00 000001 		FLBTL:	SKIPGE A
   373	400262'	260 17 0 00 000000*			PUSHJ P,PRTBIT
   374	400263'	242 01 0 00 000001 			LSH A,1
   375	400264'	253 03 0 00 400261'			AOBJN C,FLBTL
   376
   377						COMMENT !
   378						WAY DISK ERROR INFORMATION WORKS
   379						1. 'PRCCNT' CONTAINS THE NUMBER OF TABLES LEFT ON THE STACK
   380						   WHENEVER TABLES (SEE #2 BELOW) REACH END, PRCCNT IS DECREMENTED.
   381						   IF IT GOES FROM 1 TO 0, DISK ERROR REPRTING IS DONE.
   382						   WHEN A TABLE SPECIFIES TO 'GOSUB' TO ANOTHER TABLE, PRCCNT
   383							IS INCREMENTED AND SOMETHING ELSE PUT ON THE STACK.
   384						2. STACK IS SET UP AS FOLLOWS:
   385						   0(P)=LENGTH OF TABLES, -1(P)=ADR OF XCT TO SET UP N,
SSDISK:  DISK PERFORMANCE (INCLUDING ERRORS)	MACRO %53B(1156)-1 15:45 30-Jan-87 Page 1-3
SSDISK	MAC	17-Aug-75 02:16		UNIT DATA BLOCK DEFINITION

   386						   -2(P)=ADR OF XCT TO MASSAGE N, -3(P)=ADR OF XCT TO SET UP M
   387						   -4(P)=ADR OF XCT TO CALL OUTPUT SUBROUTINE.
   388						   WHILE GOING THROUGH THE TABLES, IF LH(-3(P)) IS 0, THIS IS
   389						   NOT A GOSUB BUT AN ERRLIST CALL.  IF LH(-3(P)) IS # 0,
   390						   A GOSUB IS SPECIFIED.  PRCCNT IS INCREMENTED, AND THE FOLLOWING
   391						   INFORMATION IS PUT ON THE STACK:
   392						   -1(P) - ADR OF INST TABLE TO GOSUB TO
   393						   -2(P) - ADR OF MASSAGE TABLE TO GOSUB TO
   394						   -3(P) - LH - LENGTH OF TABLE TO GOSUB TO
   395						           RH - ADR OF MESSAGE TABLE TO GOSUB TO
   396						   -4(P) - ADR OF ROUTINE TABLE TO GOSUB TO
   397						!
   398	400265'	261 17 0 00 402543'		FLUN4:	PUSH	P,[DSK13]	;SET UP INITIAL STACK PTRS
   399	400266'	261 17 0 00 402544'			PUSH	P,[DSK12]
   400	400267'	261 17 0 00 402545'			PUSH	P,[DSK11]
   401	400270'	261 17 0 00 402546'			PUSH	P,[DSK10]
   402	400271'	261 17 0 00 402547'			PUSH	P,[DSK1L]
   403	400272'	201 03 0 00 000001 			MOVEI	C,1
   404	400273'	202 03 0 00 000000*			MOVEM	C,PRCCNT	;INITIAL STACK COUNTER
   405
   406	400274'	375 03 0 17 000000 		FLUN4A:	SOSGE	C,0(P)		;ANYTHING LEFT THIS TABLE?
   407	400275'	254 00 0 00 400342'			JRST	FLUN4B		;NO, CHECK FOR NEXT TABLE
   408	400276'	550 01 0 17 777775 			HRRZ	A,-3(P)		;GET MSG ADR
   409	400277'	270 01 0 00 000003 			ADD	A,C
   410	400300'	554 01 1 00 000001 			HLRZ	A,@A		;LH OF MSG TABLE, GOSUB ADR?
   411	400301'	326 01 0 00 400320'			JUMPN	A,FLUN4C	;IF LH OF MSG ADR#0, GOSUB TBL
   412	400302'	201 04 0 00 000000#			MOVEI	D,DBLOCK+3	;D HAS BASE ADR OF UDB
   413	400303'	550 01 0 17 777777 			HRRZ	A,-1(P)		;ADR OF INST TO LOAD UP N
   414	400304'	270 01 0 00 000003 			ADD	A,C
   415	400305'	256 00 1 00 000001 			XCT	@A
   416	400306'	550 01 0 17 777776 			HRRZ	A,-2(P)		;ADR OF INST TO MASSAGE N
   417	400307'	270 01 0 00 000003 			ADD	A,C
   418	400310'	256 00 1 00 000001 			XCT	@A
   419	400311'	550 01 0 17 777775 			HRRZ	A,-3(P)		;ADR OF DATA TO PUT IN M
   420	400312'	270 01 0 00 000003 			ADD	A,C
   421	400313'	200 12 1 00 000001 			MOVE	M,@A
   422	400314'	550 01 0 17 777774 			HRRZ	A,-4(P)		;ADR OF INST TO PUT OUT N
   423	400315'	270 01 0 00 000003 			ADD	A,C
   424	400316'	256 00 1 00 000001 			XCT	@A
   425	400317'	254 00 0 00 400274'			JRST	FLUN4A		;LOOP...
   426
   427						; HERE WHEN AN GOSUB TABLE WANTS TO BEGIN
   428	400320'	550 01 0 17 777774 		FLUN4C:	HRRZ	A,-4(P)
   429	400321'	270 01 0 00 000003 			ADD	A,C
   430	400322'	261 17 1 00 000001 			PUSH	P,@A
   431	400323'	550 02 0 17 777774 			HRRZ	B,-4(P)
   432	400324'	270 02 0 00 000003 			ADD	B,C
   433	400325'	550 01 1 00 000002 			HRRZ	A,@B
   434	400326'	261 17 0 00 000001 			PUSH	P,A
   435	400327'	550 01 0 17 777774 			HRRZ	A,-4(P)
   436	400330'	270 01 0 00 000003 			ADD	A,C
   437	400331'	261 17 1 00 000001 			PUSH	P,@A
   438	400332'	550 01 0 17 777774 			HRRZ	A,-4(P)
   439	400333'	270 01 0 00 000003 			ADD	A,C
   440	400334'	261 17 1 00 000001 			PUSH	P,@A
SSDISK:  DISK PERFORMANCE (INCLUDING ERRORS)	MACRO %53B(1156)-1 15:45 30-Jan-87 Page 1-4
SSDISK	MAC	17-Aug-75 02:16		UNIT DATA BLOCK DEFINITION

   441	400335'	554 01 1 00 000002 			HLRZ	A,@B
   442	400336'	261 17 0 00 000001 			PUSH	P,A
   443	400337'	350 00 0 00 400273*			AOS	PRCCNT
   444	400340'	254 00 0 00 400274'			JRST	FLUN4A
   445
   446						; HERE WHEN AN GOSUB TABLE WANTS TO END, BUMB DOWN
   447						; PDL BY 1 (FOR THE PUSHJ TO ROUTINE) AND REMOVE GOSUB
   448						; TABLE FROM PDL
   449	400341'	262 17 0 00 000003 		FLUN4D:	POP	P,C		;REMOVE PUSHJ
   450
   451						; HERE WHEN A TABLE IS FINISHED (IN FLUN4A)
   452						; BUMP DOWN PDL BY 5 TO REMOVE CURRENT TABLE AND CHECK PRCCNT
   453						; FOR POSSIBLE MORE TABLES
   454	400342'	274 17 0 00 402550'		FLUN4B:	SUB	P,[5,,5]	;REMOVE ELEMENTS FROM STACK
   455	400343'	373 00 0 00 400337*			SOSLE	PRCCNT		;MORE TABLES???
   456	400344'	254 00 0 00 400274'			JRST	FLUN4A		;YES, RETURN FROM GOSUB TABLE
   457						; HERE WHEN DONE WITH DISK ERROR STUFF
   458	400345'	603 00 0 00 010200 			TLNE F,FL.NBK+FL.DEV
   459	400346'	260 17 0 00 400251*			PUSHJ P,CRLF
   460	400347'	254 00 0 00 400155'			JRST	FLUNL		;CONTINUE SCAN
   461
   462
   463						;TYPE OUT PACK I.D. WITH PSP1 AND PSP2 SET
   464	400350'	200 01 0 00 400214*		IDPNT:	MOVE	A,PSP1		;PACK NAME
   465	400351'	260 17 0 00 400136*			PUSHJ	P,SIXBP
   466	400352'	201 13 0 00 000050 			MOVEI	CH,"("
   467	400353'	260 17 0 00 400140*			PUSHJ	P,TYO
   468	400354'	200 01 0 00 400216*			MOVE	A,PSP3		;GET LOGICAL NAME
   469	400355'	322 01 0 00 400361'			JUMPE	A,.+4		;IF NULL DONT PRINT IT
   470	400356'	260 17 0 00 400351*			PUSHJ	P,SIXBP		;TYPE IT OUT
   471	400357'	201 13 0 00 000072 			MOVEI	CH,":"		;SEPARATOR
   472	400360'	260 17 0 00 400353*			PUSHJ	P,TYO		;TYPE IT
   473	400361'	200 01 0 00 400220*			MOVE	A,PSP2		;PACK NAME IN 6BIT
   474	400362'	260 17 0 00 400356*			PUSHJ	P,SIXBP
   475	400363'	201 12 0 00 402551'			MOVEI	M,[ASCIZ /):/]
   476	400364'	260 17 0 00 400114*			PUSHJ	P,MSG
   477	400365'	263 17 0 00 000000 			POPJ	P,		;RETURN
   478
   479						;HERE TO SEE IF PSP COMMAND. IF SO, TYPE OUT THE
   480						;PACK ID AND SPACE, SET HAD SWITCH, AND RETURN
   481	400366'	336 00 0 00 400221*		PSPCK:	SKIPN	PSPSW		;IN PSP COMMAND?
   482	400367'	263 17 0 00 000000 			POPJ	P,		;NO-RETURN
   483	400370'	663 00 0 00 010000 			TLOE	F,FL.DEV	;RESET SWITCH FOR HEADING
   484	400371'	263 17 0 00 000000 			POPJ	P,		;NO-RETURN
   485	400372'	261 17 0 00 000001 			PUSH	P,A		;SAVE A
   486	400373'	261 17 0 00 000012 			PUSH	P,M		;SAVE M
   487	400374'	261 17 0 00 000003 			PUSH	P,C		;SAVE C
   488	400375'	260 17 0 00 400350'			PUSHJ	P,IDPNT		;TYPE OUT I.D.
   489	400376'	260 17 0 00 400256*			PUSHJ	P,SPACE		;TYPE OUT A SPACE
   490	400377'	262 17 0 00 000003 			POP	P,C		;GET C BACK
   491	400400'	262 17 0 00 000012 			POP	P,M		;GET M BACK
   492	400401'	262 17 0 00 000001 			POP	P,A		;GET A BACK
   493	400402'	263 17 0 00 000000 			POPJ	P,
   494
   495						;HERE TO EXIT DISK PERFORMANCE
SSDISK:  DISK PERFORMANCE (INCLUDING ERRORS)	MACRO %53B(1156)-1 15:45 30-Jan-87 Page 1-5
SSDISK	MAC	17-Aug-75 02:16		UNIT DATA BLOCK DEFINITION

   496	400403'	263 17 0 00 000000 		FILEXI:	POPJ	P,		;RETURN
   497
   498
SSDISK:  DISK PERFORMANCE (INCLUDING ERRORS)	MACRO %53B(1156)-1 15:45 30-Jan-87 Page 2
SSDISK	MAC	17-Aug-75 02:16		DISK ERROR INFO TABLES

   499							SUBTTL	DISK ERROR INFO TABLES
   500
   501						COMMENT !
   502						MACRO 'ERRLIST' IS PUT TOGETHER AS FOLLOWS:
   503
   504							ERRLIST	GET.VALUE, SET.VALUE, MSG.TITLE, PROCESS
   505
   506						WHERE:
   507							AUTOMATICALLY,
   508							  AC 'D' HAS ADDRESS OF BASE OF UDB WE ARE LOOKING AT
   509						GET.VALUE = INSTRUCTION WHICH WILL BE XCT'ED - THE RESULT OF WHICH
   510							SHOULD SET UP AC 'N' TO HAVE THE NEXT DSK ERROR NO.
   511						SET.VALUE = INSTRUCTION WHICH WILL BE XCT'ED - FOR MODIFYING AC
   512							'N' WITH SUCH AS ANDI, LDB, ETC.
   513						MSG.TITLE = ASCII TEXT WHICH WILL BE MADE AS LITERL, THE ADDRESS
   514							OF WHICH IS LOADED INTO AC 'M'
   515						PROCESS = A ROUTINE CALL OR SOMETHING WHICH PROCESSES POSSIBLE
   516							INFORMATION SET UP IN AC 'N' AND 'M' BY THIS ERRLIST.
   517
   518						ERROR TABLE 'DSK1' IS THE INITIAL TABLE SET UP BY THE DISK
   519						ERROR REPORTING CODE.  IT CAN GOSUB TO OTHER TABLES.
   520
   521						MACRO 'ERRUNIT' IS PUT TOGETHER AS 'ERRUNIT <UNIT-NO>'
   522						OCCURING ANYWHERE IN A DSK.TAB.BITS TABLE, IF THE CURRENT
   523						UNIT BEING LOOKED AT IS NOT A TYPE 'UNIT-NO' UNIT, THE
   524						CURRENT TABLE WILL BE TERMINATED. (BY JRST FLUN4B)
   525
   526						MACRO 'ERRMSG' IS PUT TOGETHER AS 'ERRMSG <MESSAGE>'
   527						AND SIMPLY PUTS OUT THE INDICATED MESSAGE ALWAYS.
   528						(USING D%MSG)
   529
   530						MACRO 'ERRGOSUB' IS PUT TOGETHER AS FOLLOWS:
   531
   532							ERRGOSUB TABLE
   533
   534						WHERE:
   535						TABLE = NAME OF A TABLE SET UP BY DSK.ERR.TABLE
   536						THIS TABLE WILL BE 'GOSUBED' TO.  WHEN IT NATURALLY END,
   537						OR WHEN A JRST TO FLUN4B IS DONE, A RETURN TO THE TABLE
   538						THAT CALLED THE GOSUB TABLE WILL OCCUR.
   539
   540						REMEMBER... ALL TABLES ARE SCANNED IN REVERSE (BOTTOM-TO-TOP) ORDER.
   541						!
   542
   543
SSDISK:  DISK PERFORMANCE (INCLUDING ERRORS)	MACRO %53B(1156)-1 15:45 30-Jan-87 Page 3
SSDISK	MAC	17-Aug-75 02:16		DISK ERROR INFO TABLES

   544						; MACRO TO EXPAND A TABLE WITH ERRLIST/ERRCALL MACRO'S
   545						; CALL IS:
   546						;	DSK.GEN.TAB(TABLE NAME-UP TO 5 CHARS)
   547						; USES MACRO 'DSK.TAB.BITS' TO HAVE CALLS
   548						; GENERATES TABLES WITH FOLLOWING ADDRESSES:
   549						; TABLENAME'0 - XCT TABLE TO LOAD N
   550						; TABLENAME'1 - XCT TABLE TO MASSAGE N
   551						; TABLENAME'2 - ADDRESS TABLE TO MESSAGE FOR 'M'
   552						; TABLENAME'3 - SUBROUTINE TO CALL BY XCT
   553						; TABLENAME'L - LENGTH OF TABLES, FOR SEARCHES
   554
   555						DEFINE DSK.GEN.TAB(TBNAME)<OFF.LIST
   556							DEFINE ERRLIST(A1,A2,A3,A4)<A1>
   557							DEFINE ERRGOSUB(A1)<A1'0>
   558							DEFINE ERRMSG(A1)<JFCL>
   559							DEFINE ERRUNIT(A1)<LDB N,[POINT 6,UNIDES(D),26]>
   560							TBNAME'0: DSK.TAB.BITS
   561							TBNAME'L==.-TBNAME'0
   562							DEFINE ERRLIST(A1,A2,A3,A4)<A2>
   563							DEFINE ERRGOSUB(A1)<A1'1>
   564							DEFINE ERRMSG(A1)<JFCL>
   565							DEFINE ERRUNIT(A1)<MOVEI N1,'A1>
   566							TBNAME'1: DSK.TAB.BITS
   567							DEFINE ERRLIST(A1,A2,A3,A4)<[ASCIZ /A3/]>
   568							DEFINE ERRGOSUB(A1)<XWD A1'L,A1'2>
   569							DEFINE ERRMSG(A1)<[ASCIZ /A1/]>
   570							DEFINE ERRUNIT(A1)<0>
   571							TBNAME'2: DSK.TAB.BITS
   572							DEFINE ERRLIST(A1,A2,A3,A4)<A4>
   573							DEFINE ERRGOSUB(A1)<A1'3>
   574							DEFINE ERRMSG(A1)<PUSHJ P,D%MSG>
   575							DEFINE ERRUNIT(A1)<PUSHJ P,D%UNCK>
   576							TBNAME'3: DSK.TAB.BITS
   577						ON.LIST>
   578
   579						DEFINE DSK.TAB.BITS <
   580							ERRLIST	<HLRZ N,UNIHCT(D)>,<JFCL>,< HDEV:>,<PUSHJ P,D%DECN>
   581							ERRLIST	<HRRZ N,UNIHCT(D)>,<JFCL>,< HDAT:>,<PUSHJ P,D%DECN>
   582							ERRGOSUB <%4HLB>
   583							ERRGOSUB <%2HLB>
   584							ERRGOSUB <%1HLB>
   585							ERRGOSUB <%4HCI>
   586							ERRGOSUB <%2HCI>
   587							ERRGOSUB <%1HCI>
   588							ERRGOSUB <%4HDI>
   589							ERRGOSUB <%2HDI>
   590							ERRGOSUB <%1HDI>
   591							ERRLIST <HLRZ N,UNISCT(D)>,<JFCL>,< SDEV:>,<PUSHJ P,D%DECN>
   592							ERRLIST	<HRRZ N,UNISCT(D)>,<JFCL>,< SDAT:>,<PUSHJ P,D%DECN>
   593							ERRGOSUB <%4SLB>
   594							ERRGOSUB <%2SLB>
   595							ERRGOSUB <%1SLB>
   596							ERRGOSUB <%4SCI>
   597							ERRGOSUB <%2SCI>
SSDISK:  DISK PERFORMANCE (INCLUDING ERRORS)	MACRO %53B(1156)-1 15:45 30-Jan-87 Page 3-1
SSDISK	MAC	17-Aug-75 02:16		DISK ERROR INFO TABLES

   598							ERRGOSUB <%1SCI>
   599							ERRGOSUB <%4SDI>
   600							ERRGOSUB <%2SDI>
   601							ERRGOSUB <%1SDI>
   602							ERRLIST	<MOVE N,UNIECT(D)>,<JFCL>,< RETRIES:>,<PUSHJ P,D%DECN>
   603							ERRLIST	<LDB N,[POINT 12,UNIMCT(D),11]>,<JFCL>,< SATFAIL:>,<PUSHJ P,D%DECN>
   604							ERRLIST	<LDB N,[POINT 12,UNIMCT(D),23]>,<JFCL>,< RIBERR:>,<PUSHJ P,D%DECN>
   605							ERRLIST	<LDB N,[POINT 12,UNIMCT(D),35]>,<JFCL>,< CKSERR:>,<PUSHJ P,D%DECN>
   606							ERRLIST	<HLRZ N,UNIHNG(D)>,<JFCL>,< THUNG:>,<PUSHJ P,D%DECN>
   607							ERRLIST	<HRRZ N,UNIHNG(D)>,<JFCL>,< HUNG:>,<PUSHJ P,D%DECN>
   608						ON.LIST>
   609
   610							DSK.GEN.TAB(DSK1)^OFF.LIST^XLIST^
   611	400440'	255 00 0 00 000000 			ERRLIST	<HLRZ N,UNIHCT(D)>,<JFCL>,< HDEV:>,<PUSHJ P,D%DECN>^JFCL^
   612	400441'	255 00 0 00 000000 			ERRLIST	<HRRZ N,UNIHCT(D)>,<JFCL>,< HDAT:>,<PUSHJ P,D%DECN>^JFCL^
   613	400442'	000000	400622'				ERRGOSUB <%4HLB>^%4HLB1^
   614	400443'	000000	401722'				ERRGOSUB <%2HLB>^%2HLB1^
   615	400444'	000000	402245'				ERRGOSUB <%1HLB>^%1HLB1^
   616	400445'	000000	401131'				ERRGOSUB <%4HCI>^%4HCI1^
   617	400446'	000000	401403'				ERRGOSUB <%2HCI>^%2HCI1^
   618	400447'	000000	402057'				ERRGOSUB <%1HCI>^%1HCI1^
   619	400450'	000000	400707'				ERRGOSUB <%4HDI>^%4HDI1^
   620	400451'	000000	401607'				ERRGOSUB <%2HDI>^%2HDI1^
   621	400452'	000000	402172'				ERRGOSUB <%1HDI>^%1HDI1^
   622	400453'	255 00 0 00 000000 			ERRLIST <HLRZ N,UNISCT(D)>,<JFCL>,< SDEV:>,<PUSHJ P,D%DECN>^JFCL^
   623	400454'	255 00 0 00 000000 			ERRLIST	<HRRZ N,UNISCT(D)>,<JFCL>,< SDAT:>,<PUSHJ P,D%DECN>^JFCL^
   624	400455'	000000	400572'				ERRGOSUB <%4SLB>^%4SLB1^
   625	400456'	000000	401672'				ERRGOSUB <%2SLB>^%2SLB1^
   626	400457'	000000	402221'				ERRGOSUB <%1SLB>^%1SLB1^
   627	400460'	000000	400765'				ERRGOSUB <%4SCI>^%4SCI1^
   628	400461'	000000	401267'				ERRGOSUB <%2SCI>^%2SCI1^
   629	400462'	000000	401763'				ERRGOSUB <%1SCI>^%1SCI1^
   630	400463'	000000	400653'				ERRGOSUB <%4SDI>^%4SDI1^
   631	400464'	000000	401513'				ERRGOSUB <%2SDI>^%2SDI1^
   632	400465'	000000	402142'				ERRGOSUB <%1SDI>^%1SDI1^
   633	400466'	255 00 0 00 000000 			ERRLIST	<MOVE N,UNIECT(D)>,<JFCL>,< RETRIES:>,<PUSHJ P,D%DECN>^JFCL^
   634	400467'	255 00 0 00 000000 		JFCL^
   635	400470'	255 00 0 00 000000 		FCL^
   636	400471'	255 00 0 00 000000 		FCL^
   637	400472'	255 00 0 00 000000 			ERRLIST	<HLRZ N,UNIHNG(D)>,<JFCL>,< THUNG:>,<PUSHJ P,D%DECN>^JFCL^
   638	400473'	255 00 0 00 000000 			ERRLIST	<HRRZ N,UNIHNG(D)>,<JFCL>,< HUNG:>,<PUSHJ P,D%DECN>^JFCL^
   639	400474'	000000	402555'			^
   640	400475'	000000	402557'			^
   641	400476'	000006	400630'				ERRGOSUB <%4HLB>^XWD %4HLBL,%4HLB2^
   642	400477'	000006	401730'				ERRGOSUB <%2HLB>^XWD %2HLBL,%2HLB2^
   643	400500'	000005	402252'				ERRGOSUB <%1HLB>^XWD %1HLBL,%1HLB2^
   644	400501'	000031	401162'				ERRGOSUB <%4HCI>^XWD %4HCIL,%4HCI2^
   645	400502'	000023	401426'				ERRGOSUB <%2HCI>^XWD %2HCIL,%2HCI2^
   646	400503'	000017	402076'				ERRGOSUB <%1HCI>^XWD %1HCIL,%1HCI2^
   647	400504'	000007	400716'				ERRGOSUB <%4HDI>^XWD %4HDIL,%4HDI2^
   648	400505'	000017	401626'				ERRGOSUB <%2HDI>^XWD %2HDIL,%2HDI2^
   649	400506'	000006	402200'				ERRGOSUB <%1HDI>^XWD %1HDIL,%1HDI2^
   650	400507'	000000	402561'			^
   651	400510'	000000	402563'			^
   652	400511'	000006	400600'				ERRGOSUB <%4SLB>^XWD %4SLBL,%4SLB2^
SSDISK:  DISK PERFORMANCE (INCLUDING ERRORS)	MACRO %53B(1156)-1 15:45 30-Jan-87 Page 3-2
SSDISK	MAC	17-Aug-75 02:16		DISK ERROR INFO TABLES

   653	400512'	000006	401700'				ERRGOSUB <%2SLB>^XWD %2SLBL,%2SLB2^
   654	400513'	000005	402226'				ERRGOSUB <%1SLB>^XWD %1SLBL,%1SLB2^
   655	400514'	000031	401016'				ERRGOSUB <%4SCI>^XWD %4SCIL,%4SCI2^
   656	400515'	000023	401312'				ERRGOSUB <%2SCI>^XWD %2SCIL,%2SCI2^
   657	400516'	000017	402002'				ERRGOSUB <%1SCI>^XWD %1SCIL,%1SCI2^
   658	400517'	000007	400662'				ERRGOSUB <%4SDI>^XWD %4SDIL,%4SDI2^
   659	400520'	000017	401532'				ERRGOSUB <%2SDI>^XWD %2SDIL,%2SDI2^
   660	400521'	000006	402150'				ERRGOSUB <%1SDI>^XWD %1SDIL,%1SDI2^
   661	400522'	000000	402565'			IES:/]^
   662	400523'	000000	402567'			[ASCIZ / SATFAIL:/]^
   663	400524'	000000	402571'			ASCIZ / RIBERR:/]^
   664	400525'	000000	402573'			ASCIZ / CKSERR:/]^
   665	400526'	000000	402575'			/]^
   666	400527'	000000	402577'			^
   667	400530'	260 17 0 00 000000*			ERRLIST	<HLRZ N,UNIHCT(D)>,<JFCL>,< HDEV:>,<PUSHJ P,D%DECN>^PUSHJ P,D%DECN^
   668	400531'	260 17 0 00 400530*			ERRLIST	<HRRZ N,UNIHCT(D)>,<JFCL>,< HDAT:>,<PUSHJ P,D%DECN>^PUSHJ P,D%DECN^
   669	400532'	000000	400636'				ERRGOSUB <%4HLB>^%4HLB3^
   670	400533'	000000	401736'				ERRGOSUB <%2HLB>^%2HLB3^
   671	400534'	000000	402257'				ERRGOSUB <%1HLB>^%1HLB3^
   672	400535'	000000	401213'				ERRGOSUB <%4HCI>^%4HCI3^
   673	400536'	000000	401451'				ERRGOSUB <%2HCI>^%2HCI3^
   674	400537'	000000	402115'				ERRGOSUB <%1HCI>^%1HCI3^
   675	400540'	000000	400725'				ERRGOSUB <%4HDI>^%4HDI3^
   676	400541'	000000	401645'				ERRGOSUB <%2HDI>^%2HDI3^
   677	400542'	000000	402206'				ERRGOSUB <%1HDI>^%1HDI3^
   678	400543'	260 17 0 00 400531*			ERRLIST <HLRZ N,UNISCT(D)>,<JFCL>,< SDEV:>,<PUSHJ P,D%DECN>^PUSHJ P,D%DECN^
   679	400544'	260 17 0 00 400543*			ERRLIST	<HRRZ N,UNISCT(D)>,<JFCL>,< SDAT:>,<PUSHJ P,D%DECN>^PUSHJ P,D%DECN^
   680	400545'	000000	400606'				ERRGOSUB <%4SLB>^%4SLB3^
   681	400546'	000000	401706'				ERRGOSUB <%2SLB>^%2SLB3^
   682	400547'	000000	402233'				ERRGOSUB <%1SLB>^%1SLB3^
   683	400550'	000000	401047'				ERRGOSUB <%4SCI>^%4SCI3^
   684	400551'	000000	401335'				ERRGOSUB <%2SCI>^%2SCI3^
   685	400552'	000000	402021'				ERRGOSUB <%1SCI>^%1SCI3^
   686	400553'	000000	400671'				ERRGOSUB <%4SDI>^%4SDI3^
   687	400554'	000000	401551'				ERRGOSUB <%2SDI>^%2SDI3^
   688	400555'	000000	402156'				ERRGOSUB <%1SDI>^%1SDI3^
   689	400556'	260 17 0 00 400544*		N^
   690	400557'	260 17 0 00 400556*		PUSHJ P,D%DECN^
   691	400560'	260 17 0 00 400557*		USHJ P,D%DECN^
   692	400561'	260 17 0 00 400560*		USHJ P,D%DECN^
   693	400562'	260 17 0 00 400561*
   694	400563'	260 17 0 00 400562*			ERRLIST	<HRRZ N,UNIHNG(D)>,<JFCL>,< HUNG:>,<PUSHJ P,D%DECN>^PUSHJ P,D%DECN^
   695						ON.LIST^^LIST^
   696
   697
SSDISK:  DISK PERFORMANCE (INCLUDING ERRORS)	MACRO %53B(1156)-1 15:45 30-Jan-87 Page 4
SSDISK	MAC	17-Aug-75 02:16		DISK ERROR INFO TABLES

   698
   699						; TABLE %4SLB - FOR UNIT 4 SLBN STUFF
   700						DEFINE DSK.TAB.BITS <
   701							ERRMSG <)>
   702							ERRLIST	<AOS N,TMPDSK>,<JFCL>,< RECORD:>,<PUSHJ P,D%MSGD>
   703							ERRLIST	<MOVE N,TMPDSK>,<PUSHJ P,[IDIVI N,^D18
   704								MOVEM N1,TMPDSK
   705								POPJ P,]>,< HEAD:>,<PUSHJ P,D%MSGD>
   706							ERRLIST	<MOVE N,UNISBN(D)>,<PUSHJ P,[IDIVI N,^D<18*19-2>
   707								MOVEM N1,TMPDSK
   708								POPJ P,]>,<CYL:>,<PUSHJ P,D%MSGD>
   709							ERRLIST	<MOVE N,UNISBN(D)>,<JUMPE N,FLUN4B>,< SLBN(>,<PUSHJ P,D%MSG>
   710							ERRUNIT	<4>
   711						>
   712
   713							DSK.GEN.TAB(%4SLB)^OFF.LIST^XLIST^
   714						ON.LIST^^LIST^
   715
   716						; TABLE %4HLB - FOR UNIT 4 HLBN STUFF
   717						DEFINE DSK.TAB.BITS <
   718							ERRMSG	<)>
   719							ERRLIST	<AOS N,TMPDSK>,<JFCL>,< RECORD:>,<PUSHJ P,D%MSGD>
   720							ERRLIST	<MOVE N,TMPDSK>,<PUSHJ P,[IDIVI N,^D18
   721								MOVEM N1,TMPDSK
   722								POPJ P,]>,< HEAD:>,<PUSHJ P,D%MSGD>
   723							ERRLIST	<MOVE N,UNIHBN(D)>,<PUSHJ P,[IDIVI N,^D<18*19-2>
   724								MOVEM N1,TMPDSK
   725								POPJ P,]>,<CYL:>,<PUSHJ P,D%MSGD>
   726							ERRLIST	<MOVE N,UNIHBN(D)>,<JUMPE N,FLUN4B>,< HLBN(>,<PUSHJ P,D%MSG>
   727							ERRUNIT <4>
   728						>
   729
   730							DSK.GEN.TAB(%4HLB)^OFF.LIST^XLIST^
   731						ON.LIST^^LIST^
   732
   733
SSDISK:  DISK PERFORMANCE (INCLUDING ERRORS)	MACRO %53B(1156)-1 15:45 30-Jan-87 Page 5
SSDISK	MAC	17-Aug-75 02:16		DISK ERROR INFO TABLES

   734
   735						; TABLE %4SDI - UNIT TYPE 4 SDATAI
   736						DEFINE DSK.TAB.BITS <
   737							ERRMSG	<)>
   738							ERRLIST <MOVE N,UNISDI(D)>,<PUSHJ P,[CAMN N,[-1]
   739								JRST [MOVEI M,[ASCIZ / NO SENSE DATA/]
   740									PJRST D%MSG]
   741								LDB N1,[POINT 4,N,27]
   742								CAMLE N1,6	;CHECK IF FORMAT IS WITHIN BOUNDS.
   743								PUSHJ 	P,[LDB N,[POINT 4,N,31]
   744									MOVEI M,[ASCIZ /CONDITION HAS NO MESSAGE/]
   745									POPJ P,]
   746								CAMG N1,6
   747								PUSHJ	P,[MOVE N1,%4FMT(N1) ; N1=FORMAT,NOW N1=ADR OF FMT TBL
   748									LDB N,[POINT 4,N,31]	;N = MSG #
   749									ADD N1,N ; N1 = ADR OF ADR OF MSG
   750									MOVE M,(N1)
   751									POPJ P,]
   752								PUSHJ P,D%MSG
   753								POPJ P,]>,<>,JFCL
   754							ERRLIST	<LDB N,[POINT 6,UNISDI(D),7]>,<PUSHJ P,%DRV3330>,<>,<PUSHJ P,TYO>
   755							ERRMSG	< DRV:>
   756							ERRLIST	<LDB N,[POINT 2,UNISDI(D),1]>,<JFCL>,<CTRL:>,<PUSHJ P,D%MSGD>
   757							ERRLIST	<MOVE N,UNISDI(D)>,<JUMPE N,FLUN4B>,< SDATAI(>,<PUSHJ P,D%MSG>
   758							ERRUNIT	<4>
   759						>
   760
   761							DSK.GEN.TAB(%4SDI)^OFF.LIST^XLIST^
   762						ON.LIST^^LIST^
   763
   764						; TABLE %4HDI - UNIT TYPE 4 HDATAI
   765						DEFINE DSK.TAB.BITS <
   766							ERRMSG	<)>
   767							ERRLIST	<MOVE N,UNIHDI(D)>,<PUSHJ P,[CAMN N,[-1]
   768								JRST [MOVEI M,[ASCIZ / NO SENSE DATA/]
   769								PJRST D%MSG]
   770								LDB N1,[POINT 4,N,27]
   771								MOVE N1,%4FMT(N1)	;** N1=FORMATNNOW N1=ADR FMT TBL
   772								LDB N,[POINT 4,N,31]	;** N = MSG #
   773								ADD N1,N	;** N1 = FMT TBL BASE + MSG NO.
   774								MOVE M,(N1)	;** M = MESSAGE TO TYPE
   775								PUSHJ P,D%MSG	;** TYPE MESSAGE
   776								POPJ P,]>,<>,JFCL
   777							ERRLIST	<LDB N,[POINT 6,UNIHDI(D),7]>,<PUSHJ P,%DRV3330>,<>,<PUSHJ P,TYO>
   778							ERRMSG	< DRV:>
   779							ERRLIST <LDB N,[POINT 2,UNIHDI(D),1]>,<JFCL>,<CTRL:>,<PUSHJ P,D%MSGD>
   780							ERRLIST	<MOVE N,UNIHDI(D)>,<JUMPE N,FLUN4B>,< HDATAI(>,<PUSHJ P,D%MSG>
   781							ERRUNIT	<4>
   782						>
   783							DSK.GEN.TAB(%4HDI)^OFF.LIST^XLIST^
   784						ON.LIST^^LIST^
   785
   786
SSDISK:  DISK PERFORMANCE (INCLUDING ERRORS)	MACRO %53B(1156)-1 15:45 30-Jan-87 Page 6
SSDISK	MAC	17-Aug-75 02:16		DISK ERROR INFO TABLES

   787
   788						; TABLE %4SCI - FOR UNIT 4 SCONI
   789						DEFINE DSK.TAB.BITS <
   790							DEFINE XX(BIT)<LDB N,[POINT 1,UNISOF(D),'BIT]>	;N=A BIT FOOM UNISOF
   791							ERRMSG	<)>
   792							ERRLIST	<XX(9)>,<JFCL>,< Write protect>,<PUSHJ P,D%MSGN>
   793							ERRLIST	<XX(10)>,<JFCL>,< Select error>,<PUSHJ P,D%MSGN>
   794							ERRLIST	<XX(11)>,<JFCL>,< Control error>,<PUSHJ P,D%MSGN>
   795							ERRLIST	<XX(12)>,<JFCL>,< Length error>,<PUSHJ P,D%MSGN>
   796							ERRLIST	<XX(13)>,<JFCL>,< Equipment check>,<PUSHJ P,D%MSGN>
   797							ERRLIST	<XX(14)>,<JFCL>,< Permanent equipment check>,<PUSHJ P,D%MSGN>
   798							ERRLIST	<XX(15)>,<JFCL>,< Unit exception>,<PUSHJ P,D%MSGN>
   799							ERRLIST	<XX(16)>,<JFCL>,< Attention flag>,<PUSHJ P,D%MSGN>
   800							ERRLIST	<XX(17)>,<JFCL>,< Busy>,<PUSHJ P,D%MSGN>
   801							ERRLIST	<XX(18)>,<JFCL>,< Count error>,<PUSHJ P,D%MSGN>
   802							ERRLIST	<XX(19)>,<JFCL>,< Unrecoverable data check>,<PUSHJ P,D%MSGN>
   803							ERRLIST	<XX(20)>,<JFCL>,< Recoverable data check>,<PUSHJ P,D%MSGN>
   804							ERRLIST	<XX(21)>,<JFCL>,< Invalid track format>,<PUSHJ P,D%MSGN>
   805							ERRLIST	<XX(22)>,<JFCL>,< Search error>,<PUSHJ P,D%MSGN>
   806							ERRLIST	<XX(23)>,<JFCL>,< Memory parity error>,<PUSHJ P,D%MSGN>
   807							ERRLIST	<XX(24)>,<JFCL>,< No such memory>,<PUSHJ P,D%MSGN>
   808							ERRLIST	<XX(25)>,<JFCL>,< Data overrun>,<PUSHJ P,D%MSGN>
   809							ERRLIST	<XX(26)>,<JFCL>,< SA10 sense bytes garbage>,<PUSHJ P,D%MSGN>
   810							ERRLIST	<XX(27)>,<JFCL>,< Protection failure>,<PUSHJ P,D%MSGN>
   811							ERRLIST	<XX(28)>,<JFCL>,< Bus in parity error>,<PUSHJ P,D%MSGN>
   812							ERRLIST	<XX(29)>,<JFCL>,< Bus out parity error>,<PUSHJ P,D%MSGN>
   813							ERRLIST	<XX(30)>,<JFCL>,< Command reject>,<PUSHJ P,D%MSGN>
   814							ERRLIST	<MOVE N,UNISOF(D)>,<JUMPE N,FLUN4B>,< SCONI(>,<PUSHJ P,D%MSG>
   815							ERRUNIT	<4>
   816						>
   817							DSK.GEN.TAB(%4SCI)^OFF.LIST^XLIST^
   818						ON.LIST^^LIST^
   819
   820
SSDISK:  DISK PERFORMANCE (INCLUDING ERRORS)	MACRO %53B(1156)-1 15:45 30-Jan-87 Page 7
SSDISK	MAC	17-Aug-75 02:16		DISK ERROR INFO TABLES

   821
   822						; TABLE %4HCI - FOR UNIT 4 HCONI
   823						DEFINE DSK.TAB.BITS <
   824							DEFINE XX(BIT)<LDB N,[POINT 1,UNIERR(D),'BIT]>	;N=A BIT FOOM UNIERR
   825							ERRMSG	<)>
   826							ERRLIST	<XX(9)>,<JFCL>,< Write protect>,<PUSHJ P,D%MSGN>
   827							ERRLIST	<XX(10)>,<JFCL>,< Select error>,<PUSHJ P,D%MSGN>
   828							ERRLIST	<XX(11)>,<JFCL>,< Control error>,<PUSHJ P,D%MSGN>
   829							ERRLIST	<XX(12)>,<JFCL>,< Length error>,<PUSHJ P,D%MSGN>
   830							ERRLIST	<XX(13)>,<JFCL>,< Equipment check>,<PUSHJ P,D%MSGN>
   831							ERRLIST	<XX(14)>,<JFCL>,< Permanent equipment check>,<PUSHJ P,D%MSGN>
   832							ERRLIST	<XX(15)>,<JFCL>,< Unit exception>,<PUSHJ P,D%MSGN>
   833							ERRLIST	<XX(16)>,<JFCL>,< Attention flag>,<PUSHJ P,D%MSGN>
   834							ERRLIST	<XX(17)>,<JFCL>,< Busy>,<PUSHJ P,D%MSGN>
   835							ERRLIST	<XX(18)>,<JFCL>,< Count error>,<PUSHJ P,D%MSGN>
   836							ERRLIST	<XX(19)>,<JFCL>,< Unrecoverable data check>,<PUSHJ P,D%MSGN>
   837							ERRLIST	<XX(20)>,<JFCL>,< Recoverable data check>,<PUSHJ P,D%MSGN>
   838							ERRLIST	<XX(21)>,<JFCL>,< Invalid track format>,<PUSHJ P,D%MSGN>
   839							ERRLIST	<XX(22)>,<JFCL>,< Search error>,<PUSHJ P,D%MSGN>
   840							ERRLIST	<XX(23)>,<JFCL>,< Memory parity error>,<PUSHJ P,D%MSGN>
   841							ERRLIST	<XX(24)>,<JFCL>,< No such memory>,<PUSHJ P,D%MSGN>
   842							ERRLIST	<XX(25)>,<JFCL>,< Data overrun>,<PUSHJ P,D%MSGN>
   843							ERRLIST	<XX(26)>,<JFCL>,< SA10 sense bytes garbage>,<PUSHJ P,D%MSGN>
   844							ERRLIST	<XX(27)>,<JFCL>,< Protection failure>,<PUSHJ P,D%MSGN>
   845							ERRLIST	<XX(28)>,<JFCL>,< Bus in parity error>,<PUSHJ P,D%MSGN>
   846							ERRLIST	<XX(29)>,<JFCL>,< Bus out parity error>,<PUSHJ P,D%MSGN>
   847							ERRLIST	<XX(30)>,<JFCL>,< Command reject>,<PUSHJ P,D%MSGN>
   848							ERRLIST	<MOVE N,UNIERR(D)>,<JUMPE N,FLUN4B>,< HCONI(>,<PUSHJ P,D%MSG>
   849							ERRUNIT	<4>
   850						>
   851							DSK.GEN.TAB(%4HCI)^OFF.LIST^XLIST^
   852						ON.LIST^^LIST^
   853
   854
SSDISK:  DISK PERFORMANCE (INCLUDING ERRORS)	MACRO %53B(1156)-1 15:45 30-Jan-87 Page 8
SSDISK	MAC	17-Aug-75 02:16		DISK ERROR INFO TABLES

   855
   856						; TABLE %2SCI - FOR UNIT 2 SCONI
   857						DEFINE DSK.TAB.BITS <
   858							DEFINE XX(BIT)<LDB N,[POINT 1,UNISOF(D),'BIT]>	;N=A BIT FROM UNISOF
   859							ERRMSG	<)>
   860							ERRLIST	<XX(29)>,<JFCL>,< Surface address error>,<PUSHJ P,D%MSGN>
   861							ERRLIST	<XX(28)>,<JFCL>,< Sector address error>,<PUSHJ P,D%MSGN>
   862							ERRLIST	<XX(27)>,<JFCL>,< Illegal DATAO>,<PUSHJ P,D%MSGN>
   863							ERRLIST <XX(26)>,<JFCL>,< Write on read-only pack>,<PUSHJ P,D%MSGN>
   864							ERRLIST <XX(25)>,<JFCL>,< Not ready>,<PUSHJ P,D%MSGN>
   865							ERRLIST	<XX(24)>,<JFCL>,< Parity error>,<PUSHJ P,D%MSGN>
   866							ERRLIST	<XX(23)>,<JFCL>,< No such memory>,<PUSHJ P,D%MSGN>
   867							ERRLIST	<XX(22)>,<JFCL>,< Data late>,<PUSHJ P,D%MSGN>
   868							ERRLIST	<XX(21)>,<JFCL>,< Search error>,<PUSHJ P,D%MSGN>
   869							ERRLIST	<XX(20)>,<JFCL>,< Power failure>,<PUSHJ P,D%MSGN>
   870							ERRLIST	<XX(19)>,<JFCL>,< End of cylinder>,<PUSHJ P,D%MSGN>
   871							ERRLIST	<XX(18)>,<JFCL>,< Channel terminate word incorrect>,<PUSHJ P,D%MSGN>
   872
   873							ERRLIST	<XX(17)>,<JFCL>,< Disk word parity error>,<PUSHJ P,D%MSGN>
   874							ERRLIST	<XX(16)>,<JFCL>,< Channel data parity error>,<PUSHJ P,D%MSGN>
   875							ERRLIST	<XX(15)>,<JFCL>,< Sector parity error>,<PUSHJ P,D%MSGN>
   876							ERRLIST	<XX(14)>,<JFCL>,< Control word parity error>,<PUSHJ P,D%MSGN>
   877							ERRLIST	<MOVE N,UNISOF(D)>,<JUMPE N,FLUN4B>,< SCONI(>,<PUSHJ P,D%MSGN>
   878							ERRUNIT	<2>
   879						>
   880							DSK.GEN.TAB(%2SCI)^OFF.LIST^XLIST^
   881						ON.LIST^^LIST^
   882
   883						; TABLE %2HCI - FOR UNIT 2 HCONI
   884						DEFINE DSK.TAB.BITS <
   885							DEFINE XX(BIT)<LDB N,[POINT 1,UNIERR(D),'BIT]>	;N=A BIT FROM UNIERR
   886							ERRMSG	<)>
   887							ERRLIST	<XX(29)>,<JFCL>,< Surface address error>,<PUSHJ P,D%MSGN>
   888							ERRLIST	<XX(28)>,<JFCL>,< Sector address error>,<PUSHJ P,D%MSGN>
   889							ERRLIST	<XX(27)>,<JFCL>,< Illegal DATAO>,<PUSHJ P,D%MSGN>
   890							ERRLIST <XX(26)>,<JFCL>,< Write on read-only pack>,<PUSHJ P,D%MSGN>
   891							ERRLIST <XX(25)>,<JFCL>,< Not ready>,<PUSHJ P,D%MSGN>
   892							ERRLIST	<XX(24)>,<JFCL>,< Parity error>,<PUSHJ P,D%MSGN>
   893							ERRLIST	<XX(23)>,<JFCL>,< No such memory>,<PUSHJ P,D%MSGN>
   894							ERRLIST	<XX(22)>,<JFCL>,< Data late>,<PUSHJ P,D%MSGN>
   895							ERRLIST	<XX(21)>,<JFCL>,< Search error>,<PUSHJ P,D%MSGN>
   896							ERRLIST	<XX(20)>,<JFCL>,< Power failure>,<PUSHJ P,D%MSGN>
   897							ERRLIST	<XX(19)>,<JFCL>,< End of cylinder>,<PUSHJ P,D%MSGN>
   898							ERRLIST	<XX(18)>,<JFCL>,< Channel terminate word incorrect>,<PUSHJ P,D%MSGN>
   899
   900							ERRLIST	<XX(17)>,<JFCL>,< Disk word parity error>,<PUSHJ P,D%MSGN>
   901							ERRLIST	<XX(16)>,<JFCL>,< Channel data parity error>,<PUSHJ P,D%MSGN>
   902							ERRLIST	<XX(15)>,<JFCL>,< Sector parity error>,<PUSHJ P,D%MSGN>
   903							ERRLIST	<XX(14)>,<JFCL>,< Control word parity error>,<PUSHJ P,D%MSGN>
   904							ERRLIST	<MOVE N,UNIERR(D)>,<JUMPE N,FLUN4B>,< HCONI(>,<PUSHJ P,D%MSGN>
   905							ERRUNIT	<2>
   906						>
   907							DSK.GEN.TAB(%2HCI)^OFF.LIST^XLIST^
   908						ON.LIST^^LIST^
SSDISK:  DISK PERFORMANCE (INCLUDING ERRORS)	MACRO %53B(1156)-1 15:45 30-Jan-87 Page 8-1
SSDISK	MAC	17-Aug-75 02:16		DISK ERROR INFO TABLES

   909
   910
SSDISK:  DISK PERFORMANCE (INCLUDING ERRORS)	MACRO %53B(1156)-1 15:45 30-Jan-87 Page 9
SSDISK	MAC	17-Aug-75 02:16		DISK ERROR INFO TABLES

   911
   912						; TABLE %2SDI - FOR UNIT 2 SDATAI
   913						DEFINE DSK.TAB.BITS <
   914							DEFINE XX(BIT)<LDB N,[POINT 1,UNISDI(D),'BIT]>
   915							ERRMSG	<)>
   916							ERRLIST	<LDB N,[POINT 8,N,34]>,<JFCL>,< ATTN:>,<PUSHJ P,D%DECN>
   917							ERRLIST	<XX(26)>,<JFCL>,< Bad spot>,<PUSHJ P,D%MSGN>
   918							ERRLIST	<LDB N,[POINT 5,UNISDI(D),22]>,<JFCL>,< Sector cntr:>,<PUSHJ P,D%DEC
   919						N>
   920							ERRLIST	<XX(17)>,<JFCL>,< Write header lockout>,<PUSHJ P,D%MSGN>
   921							ERRLIST	<XX(16)>,<JFCL>,< Proection failure>,<PUSHJ P,D%MSGN>
   922							ERRLIST	<XX(15)>,<JFCL>,< Illegal drive>,<PUSHJ P,D%MSGN>
   923							ERRLIST	<XX(14)>,<JFCL>,< File unsafe>,<PUSHJ P,D%MSGN>
   924							ERRLIST	<XX(13)>,<JFCL>,< On-line>,<PUSHJ P,D%MSGN>
   925							ERRLIST	<XX(12)>,<JFCL>,< Heads in position>,<PUSHJ P,D%MSGN>
   926							ERRLIST	<XX(11)>,<JFCL>,< Position failure>,<PUSHJ P,D%MSGN>
   927							ERRLIST	<JFCL>,<PUSHJ P,[PUSH P,UNISDI(D)	;** CYL #
   928							LDB N,[POINT 8,(P),10]	;** GET CYL NO.
   929							MOVEI N1,1B23
   930							TDNE N1,(P)	;** NEED HIGH-ORDER CYL BIT?
   931							TRO N,400	;** YES, ADD IT IN
   932							POP P,N1
   933							POPJ P,]>,< CYL:>,<PUSHJ P,D%MSGD>
   934							ERRLIST	<LDB N,[POINT 3,UNISDI(D),2]>,<JFCL>,<DRV:>,<PUSHJ P,D%MSGD>
   935							ERRLIST	<MOVE N,UNISDI(D)>,<JUMPE N,FLUN4B>,< SDATAI(>,<PUSHJ P,D%MSG>
   936							ERRUNIT	<2>
   937						>
   938							DSK.GEN.TAB(%2SDI)^OFF.LIST^XLIST^
   939						ON.LIST^^LIST^
   940
   941						; TABLE %2HDI - FOR UNIT 2 HDATAI
   942						DEFINE DSK.TAB.BITS <
   943							DEFINE XX(BIT)<LDB N,[POINT 1,UNIHDI(D),'BIT]>
   944							ERRMSG	<)>
   945							ERRLIST	<LDB N,[POINT 8,N,34]>,<JFCL>,< ATTN:>,<PUSHJ P,D%DECN>
   946							ERRLIST	<XX(26)>,<JFCL>,< Bad spot>,<PUSHJ P,D%MSGN>
   947							ERRLIST	<LDB N,[POINT 5,UNIHDI(D),22]>,<JFCL>,< Sector cntr:>,<PUSHJ P,D%DEC
   948						N>
   949							ERRLIST	<XX(17)>,<JFCL>,< Write header lockout>,<PUSHJ P,D%MSGN>
   950							ERRLIST	<XX(16)>,<JFCL>,< Proection failure>,<PUSHJ P,D%MSGN>
   951							ERRLIST	<XX(15)>,<JFCL>,< Illegal drive>,<PUSHJ P,D%MSGN>
   952							ERRLIST	<XX(14)>,<JFCL>,< File unsafe>,<PUSHJ P,D%MSGN>
   953							ERRLIST	<XX(13)>,<JFCL>,< On-line>,<PUSHJ P,D%MSGN>
   954							ERRLIST	<XX(12)>,<JFCL>,< Heads in position>,<PUSHJ P,D%MSGN>
   955							ERRLIST	<XX(11)>,<JFCL>,< Position failure>,<PUSHJ P,D%MSGN>
   956							ERRLIST	<JFCL>,<PUSHJ P,[PUSH P,UNIHDI(D)	;** CYL #
   957							LDB N,[POINT 8,(P),10]	;** GET CYL NO.
   958							MOVEI N1,1B23
   959							TDNE N1,(P)	;** NEED HIGH-ORDER CYL BIT?
   960							TRO N,400	;** YES, ADD IT IN
   961							POP P,N1
   962							POPJ P,]>,< CYL:>,<PUSHJ P,D%MSGD>
   963							ERRLIST	<LDB N,[POINT 3,UNIHDI(D),2]>,<JFCL>,<DRV:>,<PUSHJ P,D%MSGD>
   964							ERRLIST	<MOVE N,UNIHDI(D)>,<JUMPE N,FLUN4B>,< HDATAI(>,<PUSHJ P,D%MSG>
SSDISK:  DISK PERFORMANCE (INCLUDING ERRORS)	MACRO %53B(1156)-1 15:45 30-Jan-87 Page 9-1
SSDISK	MAC	17-Aug-75 02:16		DISK ERROR INFO TABLES

   965							ERRUNIT	<2>
   966						>
   967							DSK.GEN.TAB(%2HDI)^OFF.LIST^XLIST^
   968						ON.LIST^^LIST^
   969
   970
SSDISK:  DISK PERFORMANCE (INCLUDING ERRORS)	MACRO %53B(1156)-1 15:45 30-Jan-87 Page 10
SSDISK	MAC	17-Aug-75 02:16		DISK ERROR INFO TABLES

   971
   972						; TABLE %2SLB - FOR UNIT 2 SLBN
   973						DEFINE DSK.TAB.BITS <
   974							ERRMSG	<)>
   975							ERRLIST	<MOVE N,TMPDSK>,<JFCL>,< SECTOR:>,<PUSHJ P,D%MSGD>
   976							ERRLIST	<MOVE N,TMPDSK>,<PUSHJ P,[IDIVI N,^D10
   977								MOVEM N1,TMPDSK
   978								POPJ P,]>,< HEAD:>,<PUSHJ P,D%MSGD>
   979							ERRLIST	<MOVE N,UNISBN(D)>,<PUSHJ P,[IDIVI N,^D200
   980							MOVEM N1,TMPDSK
   981							POPJ P,]>,<CYL:>,<PUSHJ P,D%MSGD>
   982							ERRLIST	<MOVE N,UNISBN(D)>,<JUMPE N,FLUN4B>,< SLBN(>,<PUSHJ P,D%MSG>
   983							ERRUNIT	<2>
   984						>
   985							DSK.GEN.TAB(%2SLB)^OFF.LIST^XLIST^
   986						ON.LIST^^LIST^
   987
   988						; TABLE %2HLB - FOR UNIT 2 HLBN
   989						DEFINE DSK.TAB.BITS <
   990							ERRMSG	<)>
   991							ERRLIST	<MOVE N,TMPDSK>,<JFCL>,< SECTOR:>,<PUSHJ P,D%MSGD>
   992							ERRLIST	<MOVE N,TMPDSK>,<PUSHJ P,[IDIVI N,^D10
   993								MOVEM N1,TMPDSK
   994								POPJ P,]>,< HEAD:>,<PUSHJ P,D%MSGD>
   995							ERRLIST	<MOVE N,UNIHBN(D)>,<PUSHJ P,[IDIVI N,^D200
   996							MOVEM N1,TMPDSK
   997							POPJ P,]>,<CYL:>,<PUSHJ P,D%MSGD>
   998							ERRLIST	<MOVE N,UNIHBN(D)>,<JUMPE N,FLUN4B>,< HLBN(>,<PUSHJ P,D%MSG>
   999							ERRUNIT	<2>
  1000						>
  1001							DSK.GEN.TAB(%2HLB)^OFF.LIST^XLIST^
  1002						ON.LIST^^LIST^
  1003
  1004
SSDISK:  DISK PERFORMANCE (INCLUDING ERRORS)	MACRO %53B(1156)-1 15:45 30-Jan-87 Page 11
SSDISK	MAC	17-Aug-75 02:16		DISK ERROR INFO TABLES

  1005
  1006						; TABLE %1SCI - FOR UNIT 1 SCONI
  1007						DEFINE DSK.TAB.BITS <
  1008							DEFINE XX(BIT)<LDB N,[POINT 1,UNISOF,'BIT]>
  1009							ERRMSG	<)>
  1010							ERRLIST	<XX(29)>,<JFCL>,< Data late>,<PUSHJ P,D%MSGN>
  1011							ERRLIST	<XX(28)>,<JFCL>,< Write on protected track>,<PUSHJ P,D%MSGN>
  1012							ERRLIST	<XX(27)>,<JFCL>,< No such memory>,<PUSHJ P,D%MSGN>
  1013							ERRLIST	<XX(26)>,<JFCL>,< Control word parity error>,<PUSHJ P,D%MSGN>
  1014							ERRLIST	<XX(25)>,<JFCL>,< Data parity error>,<PUSHJ P,D%MSGN>
  1015							ERRLIST	<XX(24)>,<JFCL>,< Device parity error>,<PUSHJ P,D%MSGN>
  1016							ERRLIST	<XX(23)>,<JFCL>,< Power failure>,<PUSHJ P,D%MSGN>
  1017							ERRLIST	<XX(22)>,<JFCL>,< Not ready>,<PUSHJ P,D%MSGN>
  1018							ERRLIST	<XX(21)>,<JFCL>,< Track error>,<PUSHJ P,D%MSGN>
  1019							ERRLIST	<XX(20)>,<JFCL>,< Unit error>,<PUSHJ P,D%MSGN>
  1020							ERRLIST	<XX(19)>,<JFCL>,< Search error>,<PUSHJ P,D%MSGN>
  1021							ERRLIST	<XX(18)>,<JFCL>,< Channel terminate word incorrect>,<PUSHJ P,D%MSGN>
  1022
  1023							ERRLIST	<MOVE N,UNISOF(D)>,<JUMPE N,FLUN4B>,< SCONI(>,<PUSHJ P,D%MSG>
  1024							ERRUNIT	<1>
  1025						>
  1026							DSK.GEN.TAB(%1SCI)^OFF.LIST^XLIST^
  1027						ON.LIST^^LIST^
  1028
  1029						; TABLE %1HCI - FOR UNIT 1 HCONI
  1030						DEFINE DSK.TAB.BITS <
  1031							DEFINE XX(BIT)<LDB N,[POINT 1,UNIERR,'BIT]>
  1032							ERRMSG	<)>
  1033							ERRLIST	<XX(29)>,<JFCL>,< Data late>,<PUSHJ P,D%MSGN>
  1034							ERRLIST	<XX(28)>,<JFCL>,< Write on protected track>,<PUSHJ P,D%MSGN>
  1035							ERRLIST	<XX(27)>,<JFCL>,< No such memory>,<PUSHJ P,D%MSGN>
  1036							ERRLIST	<XX(26)>,<JFCL>,< Control word parity error>,<PUSHJ P,D%MSGN>
  1037							ERRLIST	<XX(25)>,<JFCL>,< Data parity error>,<PUSHJ P,D%MSGN>
  1038							ERRLIST	<XX(24)>,<JFCL>,< Device parity error>,<PUSHJ P,D%MSGN>
  1039							ERRLIST	<XX(23)>,<JFCL>,< Power failure>,<PUSHJ P,D%MSGN>
  1040							ERRLIST	<XX(22)>,<JFCL>,< Not ready>,<PUSHJ P,D%MSGN>
  1041							ERRLIST	<XX(21)>,<JFCL>,< Track error>,<PUSHJ P,D%MSGN>
  1042							ERRLIST	<XX(20)>,<JFCL>,< Unit error>,<PUSHJ P,D%MSGN>
  1043							ERRLIST	<XX(19)>,<JFCL>,< Search error>,<PUSHJ P,D%MSGN>
  1044							ERRLIST	<XX(18)>,<JFCL>,< Channel terminate word incorrect>,<PUSHJ P,D%MSGN>
  1045
  1046							ERRLIST	<MOVE N,UNIERR(D)>,<JUMPE N,FLUN4B>,< HCONI(>,<PUSHJ P,D%MSG>
  1047							ERRUNIT	<1>
  1048						>
  1049							DSK.GEN.TAB(%1HCI)^OFF.LIST^XLIST^
  1050						ON.LIST^^LIST^
  1051
  1052
SSDISK:  DISK PERFORMANCE (INCLUDING ERRORS)	MACRO %53B(1156)-1 15:45 30-Jan-87 Page 12
SSDISK	MAC	17-Aug-75 02:16		DISK ERROR INFO TABLES

  1053
  1054						; TABLE %1SDI - FOR UNIT 1 SDATAI
  1055						DEFINE DSK.TAB.BITS <
  1056							ERRMSG	<)>
  1057							ERRLIST	<MOVE N,UNISDI(D)>,<PUSHJ P,[PUSH P,N	;** SEC ADR
  1058								LDB N,[POINT 4,(P),31]
  1059								MOVEI M,[ASCIZ / SECTOR:/]
  1060								PUSHJ P,D%MSG
  1061								SKIPE N
  1062								PUSHJ P,RDX10
  1063								POP P,N
  1064								ANDI N,17
  1065								PUSHJ P,RDX10
  1066								POPJ P,]>,<>,<JFCL>
  1067							ERRLIST	<LDB N,[POINT 2,UNISDI(D),27]>,<JFCL>,< UNIT:>,<PUSHJ P,D%MSGO>
  1068							ERRLIST	<LDB N,[POINT 6,UNISDI(D),23]>,<JFCL>,<PARREG:>,<PUSHJ P,D%MSGO>
  1069							ERRLIST	<MOVE N,UNISDI(D)>,<JUMPE N,FLUN4B>,< SDATAI(>,<PUSHJ P,D%MSG>
  1070							ERRUNIT	<1>
  1071						>
  1072							DSK.GEN.TAB(%1SDI)^OFF.LIST^XLIST^
  1073						ON.LIST^^LIST^
  1074
  1075						; TABLE %1HDI - FOR UNIT 1 HDATAI
  1076						DEFINE DSK.TAB.BITS <
  1077							ERRMSG	<)>
  1078							ERRLIST	<MOVE N,UNIHDI(D)>,<PUSHJ P,[PUSH P,N	;** SEC ADR
  1079								LDB N,[POINT 4,(P),31]
  1080								MOVEI M,[ASCIZ / SECTOR:/]
  1081								PUSHJ P,D%MSG
  1082								SKIPE N
  1083								PUSHJ P,RDX10
  1084								POP P,N
  1085								ANDI N,17
  1086								PUSHJ P,RDX10
  1087								POPJ P,]>,<>,<JFCL>
  1088							ERRLIST	<LDB N,[POINT 2,UNIHDI(D),27]>,<JFCL>,< UNIT:>,<PUSHJ P,D%MSGO>
  1089							ERRLIST	<LDB N,[POINT 6,UNIHDI(D),23]>,<JFCL>,<PARREG:>,<PUSHJ P,D%MSGO>
  1090							ERRLIST	<MOVE N,UNIHDI(D)>,<JUMPE N,FLUN4B>,< HDATAI(>,<PUSHJ P,D%MSG>
  1091							ERRUNIT	<1>
  1092						>
  1093							DSK.GEN.TAB(%1HDI)^OFF.LIST^XLIST^
  1094						ON.LIST^^LIST^
  1095
  1096
SSDISK:  DISK PERFORMANCE (INCLUDING ERRORS)	MACRO %53B(1156)-1 15:45 30-Jan-87 Page 13
SSDISK	MAC	17-Aug-75 02:16		DISK ERROR INFO TABLES

  1097
  1098						; TABLE %1SLB - UNIT 1 SLBN
  1099						DEFINE DSK.TAB.BITS <
  1100							ERRMSG	<)>
  1101							ERRLIST	<MOVE N,TMPDSK>,<LSH N,1>,< SECTOR:>,<PUSHJ P,D%MSGD>
  1102							ERRLIST	<MOVE N,UNISBN(D)>,<PUSHJ P,[IDIVI N,^D40
  1103								MOVEM N1,TMPDSK
  1104								POPJ P,]>,<TRACK:>,<PUSHJ P,D%MSGD>
  1105							ERRLIST	<MOVE N,UNISBN(D)>,<JUMPE N,FLUN4B>,< SLBN(>,<PUSHJ P,D%MSG>
  1106							ERRUNIT	<1>
  1107						>
  1108							DSK.GEN.TAB(%1SLB)^OFF.LIST^XLIST^
  1109						ON.LIST^^LIST^
  1110
  1111						; TABLE %1HLB - UNIT 1 HLBN
  1112						DEFINE DSK.TAB.BITS <
  1113							ERRMSG	<)>
  1114							ERRLIST	<MOVE N,TMPDSK>,<LSH N,1>,< SECTOR:>,<PUSHJ P,D%MSGD>
  1115							ERRLIST	<MOVE N,UNIHBN(D)>,<PUSHJ P,[IDIVI N,^D40
  1116								MOVEM N1,TMPDSK
  1117								POPJ P,]>,<TRACK:>,<PUSHJ P,D%MSGD>
  1118							ERRLIST	<MOVE N,UNIHBN(D)>,<JUMPE N,FLUN4B>,< HLBN(>,<PUSHJ P,D%MSG>
  1119							ERRUNIT	<1>
  1120						>
  1121							DSK.GEN.TAB(%1HLB)^OFF.LIST^XLIST^
  1122						ON.LIST^^LIST^
  1123
  1124
SSDISK:  DISK PERFORMANCE (INCLUDING ERRORS)	MACRO %53B(1156)-1 15:45 30-Jan-87 Page 14
SSDISK	MAC	17-Aug-75 02:16		DISK ERROR INFO -- ROUTINE FOR DISK ERROR TABLES

  1125							SUBTTL	DISK ERROR INFO -- ROUTINE FOR DISK ERROR TABLES
  1126
  1127						; %DRV3330 - N = BITS 2 THRU 7 OF SENSE BYTE 4
  1128						; RETURNS, IN 'CH', THE DRIVE DESIGNATION OF THIS DRIVE
  1129	402264'	201 13 0 00 000077 		%DRV3330: MOVEI	CH,"?"		;PRIME DRIVE WITH ?
  1130	402265'	306 10 0 00 000016 			CAIN	N,16		;16 = DRIVE G
  1131	402266'	201 13 0 00 000107 			MOVEI	CH,"G"
  1132	402267'	306 10 0 00 000034 			CAIN	N,34		;34 = DRIVE E
  1133	402270'	201 13 0 00 000105 			MOVEI	CH,"E"
  1134	402271'	306 10 0 00 000052 			CAIN	N,52		;52 = DRIVE C
  1135	402272'	201 13 0 00 000103 			MOVEI	CH,"C"
  1136	402273'	306 10 0 00 000070 			CAIN	N,70		;70 = DRIVE A
  1137	402274'	201 13 0 00 000101 			MOVEI	CH,"A"
  1138	402275'	306 10 0 00 000007 			CAIN	N,07		;07 = DRIVE H
  1139	402276'	201 13 0 00 000110 			MOVEI	CH,"H"
  1140	402277'	306 10 0 00 000025 			CAIN	N,25		;25 = DRIVE F
  1141	402300'	201 13 0 00 000106 			MOVEI	CH,"F"
  1142	402301'	306 10 0 00 000043 			CAIN	N,43		;43 = DRIVE D
  1143	402302'	201 13 0 00 000104 			MOVEI	CH,"D"
  1144	402303'	306 10 0 00 000061 			CAIN	N,61		;61 = DRIVE B
  1145	402304'	201 13 0 00 000102 			MOVEI	CH,"B"
  1146	402305'	263 17 0 00 000000 			POPJ	P,		;ALL DONE....
  1147
  1148
SSDISK:  DISK PERFORMANCE (INCLUDING ERRORS)	MACRO %53B(1156)-1 15:45 30-Jan-87 Page 15
SSDISK	MAC	17-Aug-75 02:16		DISK ERROR INFO -- ROUTINE FOR DISK ERROR TABLES

  1149
  1150						; TABLES FOR 'FORMAT MSGTBL' ON TYPE 4 SDATA/HDATA
  1151	402306'	000000	402315'			%4FMT:	EXP	%4FMT0,%4FMT1,%4FMT2,%4FMT3,%4FMT4,%4FMT5,%4FMT6
  1152	402307'	000000	402336'
  1153	402310'	000000	402357'
  1154	402311'	000000	402377'
  1155	402312'	000000	402417'
  1156	402313'	000000	402437'
  1157	402314'	000000	402377'
  1158
  1159						; THIS MACRO PILES UP MESSAGES FOR THOSE UNUSED SLOTS AFTER TABLES END
  1160						DEFINE %4MESS(CNT)<REPEAT CNT,<[ASCIZ / CONDITION HAS NO MESSAGE!/]>>
  1161						; FORMAT 0
  1162	402315'	000000	403443'			%4FMT0:	[ASCIZ / No message/]
  1163	402316'	000000	403446'				[ASCIZ / Invalid command/]
  1164	402317'	000000	403452'				[ASCIZ / Invalid sequence/]
  1165	402320'	000000	403456'				[ASCIZ / CCW count less than required/]
  1166	402321'	000000	403464'				[ASCIZ / Data value not as required/]
  1167	402322'	000000	403472'				[ASCIZ / Diagnostic write not permitted by file mask/]
  1168	402323'	000000	403503'				[ASCIZ / Channel discontinued retry operation/]
  1169	402324'	000000	403513'				[ASCIZ / Channel returned with incorrect retry CCW/]
  1170	402325'	000000	403524'				[ASCIZ / 23FD not ready/]
  1171	402326'	000000	403530'				[ASCIZ / 23FD hard seek check/]
  1172	402327'	000000	403535'				[ASCIZ / 23FD hard read check/]
  1173	402330'	000000	403542'				[ASCIZ / Improper alternate-defective track pointer/]
  1174	402331'	000000	403553'				[ASCIZ / SERDES malfunction - no ST 4's/]
  1175	402332'	000000	403562'				[ASCIZ / Diagnostic write control code mismatch/]
  1176	402333'	000000	403572'				[ASCIZ / Control storage busy with microdiagnostic/]
  1177	402334'	000000	403603'				[ASCIZ / Retry byte count-sector value incorrect/]
  1178	402335'	000000	403614'				%4MESS(1)^REPEAT 1,<[ASCIZ / CONDITION HAS NO MESSAGE!/]>^
  1179
  1180						; FORMAT 1
  1181	402336'	000000	403443'			%4FMT1:	[ASCIZ / No message/]
  1182	402337'	000000	403622'				[ASCIZ / Set target error/]
  1183	402340'	000000	403626'				[ASCIZ / No write gate at drive/]
  1184	402341'	000000	403633'				[ASCIZ / No write current sense/]
  1185	402342'	000000	403640'				[ASCIZ / Transmit cylinder error/]
  1186	402343'	000000	403645'				[ASCIZ / Transmit head error/]
  1187	402344'	000000	403652'				[ASCIZ / Transmit difference error/]
  1188	402345'	000000	403660'				[ASCIZ / File status not as expected/]
  1189	402346'	000000	403666'				[ASCIZ / Seek error/]
  1190	402347'	000000	403671'				[ASCIZ / Seek incomplete on retry/]
  1191	402350'	000000	403677'				[ASCIZ / No interrupt from drive/]
  1192							%4MESS(6)^REPEAT 6,
  1193	402351'	000000	403614'			[ASCIZ / CONDITION HAS NO MESSAGE!/]
  1194	402352'	000000	403614'			[ASCIZ / CONDITION HAS NO MESSAGE!/]
  1195	402353'	000000	403614'			[ASCIZ / CONDITION HAS NO MESSAGE!/]
  1196	402354'	000000	403614'			[ASCIZ / CONDITION HAS NO MESSAGE!/]
  1197	402355'	000000	403614'			[ASCIZ / CONDITION HAS NO MESSAGE!/]
  1198	402356'	000000	403614'			[ASCIZ / CONDITION HAS NO MESSAGE!/]^
  1199
  1200						; FORMAT 2:
  1201	402357'	000000	403443'			%4FMT2:	[ASCIZ / No message/]
  1202	402360'	000000	403704'				[ASCIZ / ECC P1 or P3 compare failure/]
SSDISK:  DISK PERFORMANCE (INCLUDING ERRORS)	MACRO %53B(1156)-1 15:45 30-Jan-87 Page 15-1
SSDISK	MAC	17-Aug-75 02:16		DISK ERROR INFO -- ROUTINE FOR DISK ERROR TABLES

  1203	402361'	000000	403712'				[ASCIZ / ECC P2 compare failure/]
  1204							%4MESS(15)^REPEAT 15,
  1205	402362'	000000	403614'			[ASCIZ / CONDITION HAS NO MESSAGE!/]
  1206	402363'	000000	403614'			[ASCIZ / CONDITION HAS NO MESSAGE!/]
  1207	402364'	000000	403614'			[ASCIZ / CONDITION HAS NO MESSAGE!/]
  1208	402365'	000000	403614'			[ASCIZ / CONDITION HAS NO MESSAGE!/]
  1209	402366'	000000	403614'			[ASCIZ / CONDITION HAS NO MESSAGE!/]
  1210	402367'	000000	403614'			[ASCIZ / CONDITION HAS NO MESSAGE!/]
  1211	402370'	000000	403614'			[ASCIZ / CONDITION HAS NO MESSAGE!/]
  1212	402371'	000000	403614'			[ASCIZ / CONDITION HAS NO MESSAGE!/]
  1213	402372'	000000	403614'			[ASCIZ / CONDITION HAS NO MESSAGE!/]
  1214	402373'	000000	403614'			[ASCIZ / CONDITION HAS NO MESSAGE!/]
  1215	402374'	000000	403614'			[ASCIZ / CONDITION HAS NO MESSAGE!/]
  1216	402375'	000000	403614'			[ASCIZ / CONDITION HAS NO MESSAGE!/]
  1217	402376'	000000	403614'			[ASCIZ / CONDITION HAS NO MESSAGE!/]^
  1218
  1219						; FORMAT 3 AND FORMAT 6:
  1220	402377'	000000	403443'			%4FMT3:%4FMT6: [ASCIZ / No message/]
  1221							%4MESS(17)^REPEAT 17,
  1222	402400'	000000	403614'			[ASCIZ / CONDITION HAS NO MESSAGE!/]
  1223	402401'	000000	403614'			[ASCIZ / CONDITION HAS NO MESSAGE!/]
  1224	402402'	000000	403614'			[ASCIZ / CONDITION HAS NO MESSAGE!/]
  1225	402403'	000000	403614'			[ASCIZ / CONDITION HAS NO MESSAGE!/]
  1226	402404'	000000	403614'			[ASCIZ / CONDITION HAS NO MESSAGE!/]
  1227	402405'	000000	403614'			[ASCIZ / CONDITION HAS NO MESSAGE!/]
  1228	402406'	000000	403614'			[ASCIZ / CONDITION HAS NO MESSAGE!/]
  1229	402407'	000000	403614'			[ASCIZ / CONDITION HAS NO MESSAGE!/]
  1230	402410'	000000	403614'			[ASCIZ / CONDITION HAS NO MESSAGE!/]
  1231	402411'	000000	403614'			[ASCIZ / CONDITION HAS NO MESSAGE!/]
  1232	402412'	000000	403614'			[ASCIZ / CONDITION HAS NO MESSAGE!/]
  1233	402413'	000000	403614'			[ASCIZ / CONDITION HAS NO MESSAGE!/]
  1234	402414'	000000	403614'			[ASCIZ / CONDITION HAS NO MESSAGE!/]
  1235	402415'	000000	403614'			[ASCIZ / CONDITION HAS NO MESSAGE!/]
  1236	402416'	000000	403614'			[ASCIZ / CONDITION HAS NO MESSAGE!/]^
  1237
  1238						; FORMAT 4
  1239	402417'	000000	403717'			%4FMT4:	[ASCIZ / HA field ECC uncorrectable/]
  1240	402420'	000000	403725'				[ASCIZ / Count field ECC uncorrectable/]
  1241	402421'	000000	403734'				[ASCIZ / Key field ECC uncorectable/]
  1242	402422'	000000	403742'				[ASCIZ / Data field ECC uncorrectable/]
  1243	402423'	000000	403750'				[ASCIZ / HA field no sync byte found/]
  1244	402424'	000000	403756'				[ASCIZ / Count field no sync byte found/]
  1245	402425'	000000	403765'				[ASCIZ / Key field no sync byte found/]
  1246	402426'	000000	403773'				[ASCIZ / Data field no sync byte found/]
  1247	402427'	000000	404002'				[ASCIZ / AM detection failure on retry/]
  1248							%4MESS(7)^REPEAT 7,
  1249	402430'	000000	403614'			[ASCIZ / CONDITION HAS NO MESSAGE!/]
  1250	402431'	000000	403614'			[ASCIZ / CONDITION HAS NO MESSAGE!/]
  1251	402432'	000000	403614'			[ASCIZ / CONDITION HAS NO MESSAGE!/]
  1252	402433'	000000	403614'			[ASCIZ / CONDITION HAS NO MESSAGE!/]
  1253	402434'	000000	403614'			[ASCIZ / CONDITION HAS NO MESSAGE!/]
  1254	402435'	000000	403614'			[ASCIZ / CONDITION HAS NO MESSAGE!/]
  1255	402436'	000000	403614'			[ASCIZ / CONDITION HAS NO MESSAGE!/]^
  1256
  1257						; FORMAT 5
SSDISK:  DISK PERFORMANCE (INCLUDING ERRORS)	MACRO %53B(1156)-1 15:45 30-Jan-87 Page 15-2
SSDISK	MAC	17-Aug-75 02:16		DISK ERROR INFO -- ROUTINE FOR DISK ERROR TABLES

  1258	402437'	000000	404011'			%4FMT5:	[ASCIZ / HA field correctable/]
  1259	402440'	000000	404016'				[ASCIZ / Count field correctable/]
  1260	402441'	000000	404023'				[ASCIZ / Key field correctable/]
  1261	402442'	000000	404030'				[ASCIZ / Data field correctable/]
  1262							%4MESS(16)^REPEAT 16,
  1263	402443'	000000	403614'			[ASCIZ / CONDITION HAS NO MESSAGE!/]
  1264	402444'	000000	403614'			[ASCIZ / CONDITION HAS NO MESSAGE!/]
  1265	402445'	000000	403614'			[ASCIZ / CONDITION HAS NO MESSAGE!/]
  1266	402446'	000000	403614'			[ASCIZ / CONDITION HAS NO MESSAGE!/]
  1267	402447'	000000	403614'			[ASCIZ / CONDITION HAS NO MESSAGE!/]
  1268	402450'	000000	403614'			[ASCIZ / CONDITION HAS NO MESSAGE!/]
  1269	402451'	000000	403614'			[ASCIZ / CONDITION HAS NO MESSAGE!/]
  1270	402452'	000000	403614'			[ASCIZ / CONDITION HAS NO MESSAGE!/]
  1271	402453'	000000	403614'			[ASCIZ / CONDITION HAS NO MESSAGE!/]
  1272	402454'	000000	403614'			[ASCIZ / CONDITION HAS NO MESSAGE!/]
  1273	402455'	000000	403614'			[ASCIZ / CONDITION HAS NO MESSAGE!/]
  1274	402456'	000000	403614'			[ASCIZ / CONDITION HAS NO MESSAGE!/]
  1275	402457'	000000	403614'			[ASCIZ / CONDITION HAS NO MESSAGE!/]
  1276	402460'	000000	403614'			[ASCIZ / CONDITION HAS NO MESSAGE!/]^
  1277
  1278						;  CONSTANTS
  1279
  1280			000077			BITMSK==77
  1281
  1282						        END

NO ERRORS DETECTED

HI-SEG. BREAK IS 404035
PROGRAM BREAK IS 000000
CPU TIME USED 01:24.599

18P CORE USED
SSDISK:  DISK PERFORMANCE (INCLUDING ERRORS)	MACRO %53B(1156)-1 15:45 30-Jan-87 Page S-1
SSDISK	MAC	17-Aug-75 02:16		SYMBOL TABLE

A		000001		DEVRIB		000027	spd	F1.STR		020000	spd	FTCOM		000001	spd
ASSCON		400000	spd	DEVRPS		000031	spd	F1.STT		010000	spd	FTCONN	777777	777777	spd
ASSPRG		200000	spd	DEVSER		000003	spd	F1.SWP		400000	spd	FTCPU		000000	spd
B		000002		DEVSTS		000012	spd	F1.TRU		004000	spd	FTDATE		000001	spd
BITMSK		000077	spd	DEVSUP		000016	spd	F1.TTY		000400	spd	FTDAZE	777777	777777	spd
BITTL		000000	ext	DEVSZS		000026	spd	F1.TYM		100000	spd	FTDEBU		000000	spd
BP		000014		DEVUNI		000023	spd	F1.VER		000200	spd	FTDSIO	777777	777777	spd
C		000003		DP		400113'	int	F1.WHO		002000	spd	FTEXCL		000001	spd
CDOWN		000012	spd	DP7		400124'	int	F1.XXX		576200	spd	FTFROM	777777	777777	spd
CH		000013		DSK10		400404'		FILEXI		400403'		FTGFD	777777	777777	spd
CLEFT		000031	spd	DSK11		400440'		FL.BAN		020000	spd	FTMAXP		000023	spd
CLKCYC	004000	000000	spd	DSK12		400474'		FL.BRK		400000	spd	FTNAME	777777	777777	spd
CMWB		200000	spd	DSK13		400530'		FL.BZR		002000	spd	FTPLUS		000001	spd
CRIGHT		000030	spd	DSK1L		000034	spd	FL.DEV		010000	spd	FTRPS	777777	777777	spd
CRLF		400346'	ext	DSKBKL		000020		FL.DOL		100000	spd	FTSTR	777777	777777	spd
CUP		000032	spd	DSKBLK		402540'	ext	FL.DOR		020000	spd	FTSWPE		000000	spd
CURFS		402536'	ext	DSKCHR	047000	000045		FL.DTJ		040000	spd	FTTRUC	777777	777777	spd
D		000004		DUL		000003	spd	FL.HGH		200000	spd	FTUPCM	777777	777777	spd
D%DECN		401650'	ext	DULHSH		000145	spd	FL.HSG		001000	spd	FTUSIO		000000	spd
D%MSG		403421'	ext	DVDSK		200000	spd	FL.HUS		000100	spd	FTVERS		000001	spd
D%MSGD		402261'	ext	DVTTY		000010	spd	FL.LP1		000002	spd	FTZCOR		000000	spd
D%MSGN		402131'	ext	DVTTYC		020000	spd	FL.NBK		000200	spd	GETUDB		400232'	ext
D%MSGO		402211'	ext	ERASE		000037	spd	FL.NOH		100000	spd	HACKSW		000000	spd
D%UNCK		402263'	ext	EREOL		000036	spd	FL.NST		200000	spd	HOMEUP		000035	spd
DBLOCK		402542'	ext	F		000000		FL.NUM		400000	spd	IDPNT		400350'
DDBLDB		000011	spd	F1		000016		FL.PLU		010000	spd	INFO		000012	spd
DEV1UN		000023		F1.ALL		777777	spd	FL.PPN		000020	spd	IODERR		200000	spd
DEVABC		000013	spd	F1.APR		000020	spd	FL.PRG		000040	spd	IODTER		100000	spd
DEVATB		000034	spd	F1.CIO		000100	spd	FL.RPT		000400	spd	IOIMPM		400000	spd
DEVBLK		000013		F1.CON		000200	spd	FL.STA		040000	spd	J		000005
DEVBUF		000006	spd	F1.CRN		472000	spd	FL.SZR		004000	spd	JDCON		020000	spd
DEVBWC		000014		F1.DEV		200000	spd	FL.TTN		000010	spd	JIFSEC		000074	spd
DEVCHR		000001	spd	F1.DIO		000040	spd	FL.USN		000004	spd	JLOG		000004	spd
DEVCLS		000011	spd	F1.DRM		100000	spd	FLBTL		400261'		JNA		040000	spd
DEVDMP		000020		F1.DSK		001000	spd	FLDIFF		400242'		JS		000006
DEVELB		000030	spd	F1.ERR		040000	spd	FLFSL		400127'		L.MYJ		000056	spd
DEVEXT		000016		F1.EVE		365234	spd	FLGBTS		770000	spd	L.PRE		000076	spd
DEVFIL		000015	spd	F1.EVN	777777	577777	spd	FLOOP		400155'		L.PRG		000074	spd
DEVFLO		000024	spd	F1.EXT		000040	spd	FLUN2		400251'		L.WLD		000052	spd
DEVFUF		000025	spd	F1.FIL		004000	spd	FLUN3		400211'		LN.BUF		000200	spd
DEVIAD		000007	spd	F1.FRM		000020	spd	FLUN4		400265'		LN.DDB		000035	spd
DEVIOS		000002	spd	F1.GEN		010000	spd	FLUN4A		400274'		LN.PDL		000030	spd
DEVLOD		000010	spd	F1.JBS		002000	spd	FLUN4B		400342'		LN.UDB		000056	spd
DEVLOG		000005	spd	F1.JOB		400000	spd	FLUN4C		400320'		LOWDDB		000000	spd
DEVLOK		000022	spd	F1.LIC		001000	spd	FLUN4D		400341'	int	LOWUDB		000000	spd
DEVMOD		000004	spd	F1.NON		000100	spd	FLUNL		400155'		LUD		000006	spd
DEVNAM		000000	spd	F1.NOW		576200	spd	FLUNL1		400172'		M		000012
DEVOAD		000010		F1.OLD		756000	spd	FLUNL2		400205'		MAINSW		000000	spd
DEVPOS		000020		F1.PPN		200000	spd	FLUNL3		400231'		MSG		402535'	ext
DEVPPN		000017	spd	F1.PRG		040000	spd	FLUNLA		400246'		MSKK4S		017777	spd
DEVPWC		000014	spd	F1.RPS		000004	spd	FR.OVR		004000	spd	MX.JOB		000377	spd
DEVRB1		000032	spd	F1.SHR		000400	spd	FT2MUC		000001	spd	MX.TIM		645700	spd
DEVRBN		000033	spd	F1.SIZ		020000	spd	FTAMPM	777777	777777	spd	N		000010
DEVREL		000020	spd	F1.SPF		000010	spd	FTAPR		000001	spd	N1		000011
DEVRET		000021	spd	F1.SRT		562000	spd	FTCHIO	777777	777777	spd	NO.TBL		000017	spd
SSDISK:  DISK PERFORMANCE (INCLUDING ERRORS)	MACRO %53B(1156)-1 15:45 30-Jan-87 Page S-2
SSDISK	MAC	17-Aug-75 02:16		SYMBOL TABLE

NOD		000010	spd	UNIDIR		000055	spd	%1HCI2		402076'		%2SLB2		401700'
NODE		000010	spd	UNIDRC		000020	spd	%1HCI3		402115'		%2SLB3		401706'
NODE1		000011	spd	UNIDWC		000021	spd	%1HCIL		000017	spd	%2SLBL		000006	spd
NOFILE		000226	spd	UNIECT		000034	spd	%1HDI0		402164'		%4FMT		402306'
NSPMEM		001750	spd	UNIERR		000013	spd	%1HDI1		402172'		%4FMT0		402315'
OUTMSK		377000	spd	UNIFCT		000054	spd	%1HDI2		402200'		%4FMT1		402336'
P		000017		UNIFKS		000031	spd	%1HDI3		402206'		%4FMT2		402357'
PJRST	254000	000000		UNIGRP		000040	spd	%1HDIL		000006	spd	%4FMT3		402377'
PRCCNT		400343'	ext	UNIHBN		000015	spd	%1HLB0		402240'		%4FMT4		402417'
PRTBIT		400262'	ext	UNIHCT		000010	spd	%1HLB1		402245'		%4FMT5		402437'
PSP1		400350'	ext	UNIHDI		000033	spd	%1HLB2		402252'		%4FMT6		402377'
PSP2		400361'	ext	UNIHID		000002	spd	%1HLB3		402257'		%4HCI0		401100'
PSP3		400354'	ext	UNIHNG		000024	spd	%1HLBL		000005	spd	%4HCI1		401131'
PSPCK		400366'	int	UNIICT		000025	spd	%1SCI0		401744'		%4HCI2		401162'
PSPSW		402534'	ext	UNIKON		000006	spd	%1SCI1		401763'		%4HCI3		401213'
PURESW	777777	777777	spd	UNILOG		000001	spd	%1SCI2		402002'		%4HCIL		000031	spd
R		000007		UNIMCT		000012	spd	%1SCI3		402021'		%4HDI0		400700'
RDX10		403426'	ext	UNIMRC		000022	spd	%1SCIL		000017	spd	%4HDI1		400707'
REDUDB		400160'		UNIMSC		000027	spd	%1SDI0		402134'		%4HDI2		400716'
RPSCRC		001402	spd	UNIMWC		000023	spd	%1SDI1		402142'		%4HDI3		400725'
RPSDUM		001403	spd	UNINAM		000000	spd	%1SDI2		402150'		%4HDIL		000007	spd
RPSFLG		000103	spd	UNIOCT		000026	spd	%1SDI3		402156'		%4HLB0		400614'
RPSNOD		000100	spd	UNIP4S		000007	spd	%1SDIL		000006	spd	%4HLB1		400622'
RPSPBK		001405	spd	UNIPTR		000051	spd	%1SLB0		402214'		%4HLB2		400630'
RPSPFS		001400	spd	UNIQUE		000037	spd	%1SLB1		402221'		%4HLB3		400636'
RPSPRK		001404	spd	UNIRCT		000053	spd	%1SLB2		402226'		%4HLBL		000006	spd
RPSSTC		001401	spd	UNISAB		000046	spd	%1SLB3		402233'		%4SCI0		400734'
RPSSTK		001410	spd	UNISBN		000035	spd	%1SLBL		000005	spd	%4SCI1		400765'
RPSTRT		001420	spd	UNISCT		000011	spd	%2HCI0		401360'		%4SCI2		401016'
RPSVER		000101	spd	UNISDI		000032	spd	%2HCI1		401403'		%4SCI3		401047'
SCNTIM		402532'	ext	UNISLB		000052	spd	%2HCI2		401426'		%4SCIL		000031	spd
SHRSEG		200000	spd	UNISOF		000014	spd	%2HCI3		401451'		%4SDI0		400644'
SIGN		400000		UNISTR		000004	spd	%2HCIL		000023	spd	%4SDI1		400653'
SIXBP		400362'	ext	UNISTS		000036	spd	%2HDI0		401570'		%4SDI2		400662'
SPACE		400376'	ext	UNISWP		000007	spd	%2HDI1		401607'		%4SDI3		400671'
STWONM		402530'	ext	UNISYS		000003	spd	%2HDI2		401626'		%4SDIL		000007	spd
SYSDVF	047000	777754		UNITAL		000047	spd	%2HDI3		401645'		%4SLB0		400564'
SYSSTR	047000	000046		UNIUSC		000030	spd	%2HDIL		000017	spd	%4SLB1		400572'
TAB		400246'	ext	WD		000015		%2HLB0		401714'		%4SLB2		400600'
TMPDSK		403437'	ext	WD.CIO		000007	spd	%2HLB1		401722'		%4SLB3		400606'
TRU		000012	spd	WD.CON		000010	spd	%2HLB2		401730'		%4SLBL		000006	spd
TTY		000000	spd	WD.DIO		000007	spd	%2HLB3		401736'		%ACTLC		020000	spd
TYO		400727'	ext	WD.FRM		000015	spd	%2HLBL		000006	spd	%CONME		020000	spd
UDTAB		400233'	ext	WD.JOB		000005	spd	%2SCI0		401244'		%DRV33		402264'
UDTBL		000000	ext	WD.LIC		000007	spd	%2SCI1		401267'		%MAILQ		010000	spd
UNIBKK		000045	spd	WD.PPN		000015	spd	%2SCI2		401312'		%NODMA		007777	spd
UNIBLK		400243'	ext	WD.PRG		000007	spd	%2SCI3		401335'		%NODSI		000600	spd
UNIBPU		000041	spd	WD.SIZ		000011	spd	%2SCIL		000023	spd	%NX.BI		002000	spd
UNIBRC		000016	spd	WD.STT		000007	spd	%2SDI0		401474'		%RSTIM		100000	spd
UNIBWC		000017	spd	WD.TRU		000010	spd	%2SDI1		401513'		%TRUSI		000005	spd
UNICHN		000005	spd	WD.TTY		000012	spd	%2SDI2		401532'		%TYMLC		040000	spd
UNICHR		000042	spd	WD.TYM		000016	spd	%2SDI3		401551'		%WCLIC		400000	spd
UNICPS		000043	spd	WD.WHO		000015	spd	%2SDIL		000017	spd	.STMNT		000007	spd
UNICYL		000044	spd	%1HCI0		402040'		%2SLB0		401664'		.STNAM		000004	spd
UNIDES		000050	spd	%1HCI1		402057'		%2SLB1		401672'		.STTAL		000002	spd
SSDISK:  DISK PERFORMANCE (INCLUDING ERRORS)	MACRO %53B(1156)-1 15:45 30-Jan-87 Page S-3
SSDISK	MAC	17-Aug-75 02:16		SYMBOL TABLE

.UFTAL		000001	spd
.UNBPU		000006	spd
.UNCHR		000005	spd
.UNFUS	004000	000000	spd
.UNHID		000016	spd
.UNK4S		000012	spd
.UNLOG		000014	spd
.UNNNI	020000	000000	spd
.UNPHY		000015	spd
.UNSAJ		000013	spd
.UNSPU		000011	spd
.UNSWP	010000	000000	spd
.UNTAL		000003	spd
.UNWPS		000010	spd


SSDISK
SSDISK:  DISK PERFORMANCE (INCLUDING ERRORS)	MACRO %53B(1156)-1 15:45 30-Jan-87 Page 1
SSPRAM	MAC	23-Apr-74 23:27		GLOBAL ASSIGNMENTS


Symbol cross reference

A	    15#	   254	   255	   257	   270	   275	   276	   277	   278	   296	   297	   298	   300	   301
	   302	   315	   316	   317	   318	   320	   323	   325	   330	   331	   332	   333	   334	   335
	   345	   347	   348	   349	   350	   351	   352	   355	   356	   357	   358	   366	   367	   368
	   372	   374	   408	   409	   410	   411	   413	   414	   415	   416	   417	   418	   419	   420
	   421	   422	   423	   424	   428	   429	   430	   433	   434	   435	   436	   437	   438	   439
	   440	   441	   442	   464	   468	   469	   473	   485	   492
ASSCON	    15#
ASSPRG	    15#
B	    15#	   431	   432	   433	   441
BITMSK	   367	  1280#
BITTL	   209#	   371
BP	    15#
C	    15#	   344	   345	   347	   361	   371	   375	   403	   404	   406	   409	   414	   417	   420
	   423	   429	   432	   436	   439	   449	   487	   490
CDOWN	    15#
CH	    15#	   272	   466	   471	  1129	  1131	  1133	  1135	  1137	  1139	  1141	  1143	  1145
CLEFT	    15#
CLKCYC	    15#
CMWB	    15#
CRIGHT	    15#
CRLF	   203#	   282	   339	   364	   459
CUP	    15#
CURFS	   218#	   248	   254	   265	   270	   275	   325
D	    15#	   321	   329	   334	   412	   611	   714	   731	   762	   784	   818	   852	   881	   908
	   939	   968	   986	  1002	  1027	  1050	  1073	  1094	  1109	  1122
D%DECN	   204#	   667	   668	   678	   679	   689	   690	   691	   692	   693	   694	   939	   968
D%MSG	   204#	   714	   731	   762	   784	   818	   852	   881	   908	   939	   968	   986	  1002	  1027
	  1050	  1073	  1094	  1109	  1122
D%MSGD	   204#	   714	   731	   762	   784	   939	   968	   986	  1002	  1109	  1122
D%MSGN	   204#	   818	   852	   881	   908	   939	   968	  1027	  1050
D%MSGO	   204#	  1073	  1094
D%UNCK	   206#	   714	   731	   762	   784	   818	   852	   881	   908	   939	   968	   986	  1002	  1027
	  1050	  1073	  1094	  1109	  1122
DBLOCK	   219#	   234	   237	   288	   297	   298	   299	   300	   301	   309	   311	   315	   321	   412
DDBLDB	    74#
DEV1UN	    51#
DEVABC	    38#
DEVATB	    67#
DEVBLK	    36#
DEVBUF	    30#
DEVBWC	    39#
DEVCHR	    25#
DEVCLS	    34#
DEVDMP	    45#
DEVELB	    62#
DEVEXT	    42#
DEVFIL	    41#
DEVFLO	    54#
DEVFUF	    56#
SSDISK
SSDISK:  DISK PERFORMANCE (INCLUDING ERRORS)	MACRO %53B(1156)-1 15:45 30-Jan-87 Page 1
SSPRAM	MAC	23-Apr-74 23:27		GLOBAL ASSIGNMENTS


Symbol cross reference

DEVIAD	    31#
DEVIOS	    26#	   237	   309
DEVLOD	    33#
DEVLOG	    29#
DEVLOK	    50#
DEVMOD	    28#
DEVNAM	    24#
DEVOAD	    32#
DEVPOS	    46#
DEVPPN	    44#
DEVPWC	    40#
DEVRB1	    65#
DEVRBN	    66#
DEVREL	    47#
DEVRET	    49#
DEVRIB	    60#
DEVRPS	    63#
DEVSER	    27#
DEVSTS	    35#
DEVSUP	    43#
DEVSZS	    58#
DEVUNI	    52#
DP	   227	   231#
DP7	   227	   236	   238	   248#
DSK10	   401	   611#	   611
DSK11	   400	   611#
DSK12	   399	   639#
DSK13	   398	   667#
DSK1L	   402	   611#
DSKBKL	   108#	   277	   317
DSKBLK	   219#	   276	   277	   280	   316	   317	   319	   320	   323	   330	   332	   340	   366
DUL	    15#
DULHSH	    79#
DVDSK	    81#
DVTTY	    82#
DVTTYC	    83#
ERASE	    15#
EREOL	    15#
F	    15#	   239	   286	   328	   365	   370	   458	   483
F1	    15#
F1.ALL	    15#
F1.APR	    15#	    15
F1.CIO	    15#
F1.CON	    15#	    15
F1.CRN	    15#
F1.DEV	    15#	    15
F1.DIO	    15#
F1.DRM	    15#	    15
F1.DSK	    15#	    15
SSDISK
SSDISK:  DISK PERFORMANCE (INCLUDING ERRORS)	MACRO %53B(1156)-1 15:45 30-Jan-87 Page 1
SSPRAM	MAC	23-Apr-74 23:27		GLOBAL ASSIGNMENTS


Symbol cross reference

F1.ERR	    15#	    15
F1.EVE	    15#
F1.EVN	    15#
F1.EXT	    15#
F1.FIL	    15#	    15
F1.FRM	    15#
F1.GEN	    15#
F1.JBS	    15#
F1.JOB	    15#	    15
F1.LIC	    15#
F1.NON	    15#
F1.NOW	    15#
F1.OLD	    15#
F1.PPN	    15#	    15
F1.PRG	    15#	    15
F1.RPS	    15#	    15
F1.SHR	    15#
F1.SIZ	    15#	    15
F1.SPF	    15#	    15
F1.SRT	    15#
F1.STR	    15#	    15
F1.STT	    15#	    15
F1.SWP	    15#
F1.TRU	    15#	    15
F1.TTY	    15#
F1.TYM	    15#	    15
F1.VER	    15#	    15
F1.WHO	    15#	    15
F1.XXX	    15#
FILEXI	   253	   258	   279	   496#
FL.BAN	    15#	    15
FL.BRK	    15#
FL.BZR	    15#
FL.DEV	    15#	   328	   365	   458	   483
FL.DOL	    15#	    15
FL.DOR	    15#
FL.DTJ	    15#
FL.HGH	    15#
FL.HSG	    15#
FL.HUS	    15#
FL.LP1	    15#	   239	   286
FL.NBK	    15#	   365	   370	   458
FL.NOH	    15#
FL.NST	    15#	    15
FL.NUM	    15#	    15
FL.PLU	    15#	    15
FL.PPN	    15#
FL.PRG	    15#
FL.RPT	    15#
SSDISK
SSDISK:  DISK PERFORMANCE (INCLUDING ERRORS)	MACRO %53B(1156)-1 15:45 30-Jan-87 Page 1
SSPRAM	MAC	23-Apr-74 23:27		GLOBAL ASSIGNMENTS


Symbol cross reference

FL.STA	    15#	    15
FL.SZR	    15#
FL.TTN	    15#
FL.USN	    15#
FLBTL	   372#	   375
FLDIFF	   349	   355#
FLFSL	   252#	   293	   310	   312
FLGBTS	    15#	    15
FLOOP	   292#	   326
FLUN2	   364#
FLUN3	   328#
FLUN4	   337	   368	   398#
FLUN4A	   406#	   425	   444	   456
FLUN4B	   407	   454#	   714	   731	   762	   784	   818	   852	   881	   908	   939	   968	   986	  1002
	  1027	  1050	  1073	  1094	  1109	  1122
FLUN4C	   411	   428#
FLUN4D	   227	   449#
FLUNL	   266	   291#	   460
FLUNL1	   287	   294	   309#
FLUNL2	   323#
FLUNL3	   345#	   361
FLUNLA	   348	   353	   359#
FR.OVR	    15#
FT2MUC	    15#
FTAMPM	    15#	    15
FTAPR	    15#
FTCHIO	    15#	    15
FTCOM	    15#
FTCONN	    15#	    15
FTCPU	    15#
FTDATE	    15#
FTDAZE	    15#
FTDEBU	     8#	     9	    10	    11	    12
FTDSIO	    15#	    15
FTEXCL	    15#
FTFROM	    15#	    15
FTGFD	    15#
FTMAXP	    15#
FTNAME	    15#
FTPLUS	    15#	    15
FTRPS	    15#	    15
FTSTR	    15#	   249	   252	   257	   269
FTSWPE	    15#
FTTRUC	    15#	    15
FTUPCM	    15#
FTUSIO	    15#	    15
FTVERS	    15#	    15
FTZCOR	    15#
GETUDB	   207#	   346
SSDISK
SSDISK:  DISK PERFORMANCE (INCLUDING ERRORS)	MACRO %53B(1156)-1 15:45 30-Jan-87 Page 1
SSPRAM	MAC	23-Apr-74 23:27		GLOBAL ASSIGNMENTS


Symbol cross reference

HACKSW	    15#
HOMEUP	    15#
IDPNT	   338	   464#	   488
INFO	    15#
IODERR	    15#
IODTER	    15#
IOIMPM	    15#
J	    15#
JDCON	    15#
JIFSEC	    15#
JLOG	    15#
JNA	    15#
JS	    15#
L.MYJ	    15#
L.PRE	    15#
L.PRG	    15#
L.WLD	    15#
LN.BUF	    15#
LN.DDB	    69#
LN.PDL	    15#
LN.UDB	   192#	   300	   301
LOWDDB	    22#	    69
LOWUDB	   116#	   192
LUD	    15#
M	    15#	    15	   231	   240	   260	   421	   475	   486	   491	   762	   784	  1073	  1094
MAINSW	    14	   199#
MSG	   208#	   233	   245	   264	   476
MSKK4S	   196#
MX.JOB	    15#
MX.TIM	    15#
N	    15#	    15	   280	   340	   352	   358	   611	   714	   731	   762	   784	   818	   852	   881
	   908	   939	   968	   986	  1002	  1027	  1050	  1073	  1094	  1109	  1122	  1130	  1132	  1134
	  1136	  1138	  1140	  1142	  1144
N1	    15#	   714	   731	   762	   784	   818	   852	   881	   908	   939	   968	   986	  1002	  1027
	  1050	  1073	  1094	  1109	  1122
NO.TBL	    15	    15#
NOD	    15#
NODE	    15#	    15
NODE1	    15#
NOFILE	    15#
NSPMEM	    15#
OUTMSK	    84#
P	    15#	   233	   235	   245	   264	   271	   273	   274	   281	   282	   292	   304	   305	   338
	   339	   341	   342	   346	   359	   360	   364	   369	   373	   398	   399	   400	   401	   402
	   406	   408	   413	   416	   419	   422	   428	   430	   431	   434	   435	   437	   438	   440
	   442	   449	   454	   459	   465	   467	   470	   472	   474	   476	   477	   482	   484	   485
	   486	   487	   488	   489	   490	   491	   492	   493	   496	   667	   668	   678	   679	   689
	   690	   691	   692	   693	   694	   714	   731	   762	   784	   818	   852	   881	   908	   939
	   968	   986	  1002	  1027	  1050	  1073	  1094	  1109	  1122	  1146
SSDISK
SSDISK:  DISK PERFORMANCE (INCLUDING ERRORS)	MACRO %53B(1156)-1 15:45 30-Jan-87 Page 1
SSPRAM	MAC	23-Apr-74 23:27		GLOBAL ASSIGNMENTS


Symbol cross reference

PRCCNT	   219#	   404	   443	   455
PRTBIT	   209#	   373
PSP1	   220#	   331	   464
PSP2	   220#	   335	   473
PSP3	   220#	   333	   468
PSPCK	   227	   481#
PSPSW	   220#	   263	   336	   481
PURESW	    15#
R	    15#
RDX10	   210#	   281	   342	   360	  1073	  1094
REDUDB	   235	   292	   296#
RPSCRC	    15#
RPSDUM	    15#
RPSFLG	    15#
RPSNOD	    15#
RPSPBK	    15#
RPSPFS	    15#
RPSPRK	    15#
RPSSTC	    15#
RPSSTK	    15#
RPSTRT	    15#
RPSVER	    15#
SCNTIM	   221#	   250	   252	   259
SHRSEG	    15#
SIGN	    80#
SIXBP	   211#	   271	   465	   470	   474
SPACE	   212#	   369	   489
STWONM	   221#	   249	   257	   324
TAB	   213#	   274	   341	   359
TMPDSK	   221#	   714	   731	   986	  1002	  1109	  1122
TRU	    15#
TTY	    15#
TYO	   214#	   273	   467	   472	   762	   784
UDTAB	   223#	   345	   347
UDTBL	   223#	   344
UNIBKK	   167#
UNIBLK	   222#	   329	   350	   356
UNIBPU	   159#
UNIBRC	   139#
UNIBWC	   140#
UNICHN	   124#
UNICHR	   160#
UNICPS	   163#
UNICYL	   166#
UNIDES	   170#	   714	   731	   762	   784	   818	   852	   881	   908	   939	   968	   986	  1002	  1027
	  1050	  1073	  1094	  1109	  1122
UNIDIR	   190#
UNIDRC	   141#
UNIDWC	   142#
SSDISK
SSDISK:  DISK PERFORMANCE (INCLUDING ERRORS)	MACRO %53B(1156)-1 15:45 30-Jan-87 Page 1
SSPRAM	MAC	23-Apr-74 23:27		GLOBAL ASSIGNMENTS


Symbol cross reference

UNIECT	   154#	   611
UNIERR	   136#	   852	   908	  1050
UNIFCT	   189#
UNIFKS	   151#
UNIGRP	   158#
UNIHBN	   138#	   731	  1002	  1122
UNIHCT	   129#	   611
UNIHDI	   153#	   784	   968	  1094
UNIHID	   120#	   334
UNIHNG	   145#	   611
UNIICT	   147#
UNIKON	   125#
UNILOG	   119#
UNIMCT	   133#	   611
UNIMRC	   143#
UNIMSC	   149#
UNIMWC	   144#
UNINAM	   118#
UNIOCT	   148#
UNIP4S	   128#
UNIPTR	   186#
UNIQUE	   157#
UNIRCT	   188#
UNISAB	   168#
UNISBN	   155#	   714	   986	  1109
UNISCT	   131#	   611
UNISDI	   152#	   762	   939	  1073
UNISLB	   187#
UNISOF	   137#	   818	   881	  1027
UNISTR	   123#
UNISTS	   156#
UNISWP	   126#	   128
UNISYS	   121#
UNITAL	   169#
UNIUSC	   150#
WD	    15#
WD.CIO	    15#
WD.CON	    15#
WD.DIO	    15#
WD.FRM	    15#
WD.JOB	    15#
WD.LIC	    15#
WD.PPN	    15#
WD.PRG	    15#
WD.SIZ	    15#
WD.STT	    15#
WD.TRU	    15#
WD.TTY	    15#
WD.TYM	    15#
SSDISK
SSDISK:  DISK PERFORMANCE (INCLUDING ERRORS)	MACRO %53B(1156)-1 15:45 30-Jan-87 Page 1
SSPRAM	MAC	23-Apr-74 23:27		GLOBAL ASSIGNMENTS


Symbol cross reference

WD.WHO	    15#
%1HCI0	   611	  1050#	  1050
%1HCI1	   618	  1050#
%1HCI2	   646	  1050#
%1HCI3	   674	  1050#
%1HCIL	   646	  1050#
%1HDI0	   611	  1094#	  1094
%1HDI1	   621	  1094#
%1HDI2	   649	  1094#
%1HDI3	   677	  1094#
%1HDIL	   649	  1094#
%1HLB0	   611	  1122#	  1122
%1HLB1	   615	  1122#
%1HLB2	   643	  1122#
%1HLB3	   671	  1122#
%1HLBL	   643	  1122#
%1SCI0	   611	  1027#	  1027
%1SCI1	   629	  1027#
%1SCI2	   657	  1027#
%1SCI3	   685	  1027#
%1SCIL	   657	  1027#
%1SDI0	   611	  1073#	  1073
%1SDI1	   632	  1073#
%1SDI2	   660	  1073#
%1SDI3	   688	  1073#
%1SDIL	   660	  1073#
%1SLB0	   611	  1109#	  1109
%1SLB1	   626	  1109#
%1SLB2	   654	  1109#
%1SLB3	   682	  1109#
%1SLBL	   654	  1109#
%2HCI0	   611	   908#	   908
%2HCI1	   617	   908#
%2HCI2	   645	   908#
%2HCI3	   673	   908#
%2HCIL	   645	   908#
%2HDI0	   611	   968#	   968
%2HDI1	   620	   968#
%2HDI2	   648	   968#
%2HDI3	   676	   968#
%2HDIL	   648	   968#
%2HLB0	   611	  1002#	  1002
%2HLB1	   614	  1002#
%2HLB2	   642	  1002#
%2HLB3	   670	  1002#
%2HLBL	   642	  1002#
%2SCI0	   611	   881#	   881
%2SCI1	   628	   881#
%2SCI2	   656	   881#
SSDISK
SSDISK:  DISK PERFORMANCE (INCLUDING ERRORS)	MACRO %53B(1156)-1 15:45 30-Jan-87 Page 1
SSPRAM	MAC	23-Apr-74 23:27		GLOBAL ASSIGNMENTS


Symbol cross reference

%2SCI3	   684	   881#
%2SCIL	   656	   881#
%2SDI0	   611	   939#	   939
%2SDI1	   631	   939#
%2SDI2	   659	   939#
%2SDI3	   687	   939#
%2SDIL	   659	   939#
%2SLB0	   611	   986#	   986
%2SLB1	   625	   986#
%2SLB2	   653	   986#
%2SLB3	   681	   986#
%2SLBL	   653	   986#
%4FMT	   762	   784	  1151#
%4FMT0	  1151	  1162#
%4FMT1	  1151	  1181#
%4FMT2	  1151	  1201#
%4FMT3	  1151	  1220#
%4FMT4	  1151	  1239#
%4FMT5	  1151	  1258#
%4FMT6	  1151	  1220#
%4HCI0	   611	   852#	   852
%4HCI1	   616	   852#
%4HCI2	   644	   852#
%4HCI3	   672	   852#
%4HCIL	   644	   852#
%4HDI0	   611	   784#	   784
%4HDI1	   619	   784#
%4HDI2	   647	   784#
%4HDI3	   675	   784#
%4HDIL	   647	   784#
%4HLB0	   611	   731#	   731
%4HLB1	   613	   731#
%4HLB2	   641	   731#
%4HLB3	   669	   731#
%4HLBL	   641	   731#
%4SCI0	   611	   818#	   818
%4SCI1	   627	   818#
%4SCI2	   655	   818#
%4SCI3	   683	   818#
%4SCIL	   655	   818#
%4SDI0	   611	   762#	   762
%4SDI1	   630	   762#
%4SDI2	   658	   762#
%4SDI3	   686	   762#
%4SDIL	   658	   762#
%4SLB0	   611	   714#	   714
%4SLB1	   624	   714#
%4SLB2	   652	   714#
%4SLB3	   680	   714#
SSDISK
SSDISK:  DISK PERFORMANCE (INCLUDING ERRORS)	MACRO %53B(1156)-1 15:45 30-Jan-87 Page 1
SSPRAM	MAC	23-Apr-74 23:27		GLOBAL ASSIGNMENTS


Symbol cross reference

%4SLBL	   652	   714#
%ACTLC	    15#
%CONME	    15#
%DRV33	   762	   784	  1129#
%MAILQ	    15#
%NODMA	    15#
%NODSI	    15#
%NX.BI	    15#	    15
%RSTIM	    15#
%TRUSI	    15#
%TYMLC	    15#
%WCLIC	    15#
.STMNT	   100#
.STNAM	    97#	   319	   323
.STTAL	    95#	   280
.UFTAL	    94#
.UNBPU	    99#
.UNCHR	    98#
.UNFUS	    15#
.UNHID	   107#
.UNK4S	   103#
.UNLOG	   105#	   332
.UNNNI	    15#
.UNPHY	   106#	   330
.UNSAJ	   104#
.UNSPU	   102#
.UNSWP	    15#
.UNTAL	    96#	   340
.UNWPS	   101#
SSDISK
SSDISK:  DISK PERFORMANCE (INCLUDING ERRORS)	MACRO %53B(1156)-1 15:45 30-Jan-87 Page 1
SSPRAM	MAC	23-Apr-74 23:27		GLOBAL ASSIGNMENTS


Macro/Opdef cross reference

BOMB	    90#
DSK.GE	   555#	   610	   713	   730	   761	   783	   817	   851	   880	   907	   938	   967	   985	  1001
	  1026	  1049	  1072	  1093	  1108	  1121
DSK.TA	   579#	   611	   639	   667	   700#	   714	   717#	   731	   736#	   762	   765#	   784	   789#	   818
	   823#	   852	   857#	   881	   884#	   908	   913#	   939	   942#	   968	   973#	   986	   989#	  1002
	  1007#	  1027	  1030#	  1050	  1055#	  1073	  1076#	  1094	  1099#	  1109	  1112#	  1122
DSKCHR	   278	   318
ERRGOS	   611#	   611	   613	   614	   615	   616	   617	   618	   619	   620	   621	   624	   625	   626
	   627	   628	   629	   630	   631	   632	   639#	   641	   642	   643	   644	   645	   646	   647
	   648	   649	   652	   653	   654	   655	   656	   657	   658	   659	   660	   667#	   669	   670
	   671	   672	   673	   674	   675	   676	   677	   680	   681	   682	   683	   684	   685	   686
	   687	   688	   714#	   731#	   762#	   784#	   818#	   852#	   881#	   908#	   939#	   968#	   986#	  1002#
	  1027#	  1050#	  1073#	  1094#	  1109#	  1122#
ERRLIS	   611#	   611	   612	   622	   623	   633	   634	   635	   636	   637	   638	   639#	   639	   640
	   650	   651	   661	   662	   663	   664	   665	   666	   667#	   667	   668	   678	   679	   689
	   690	   691	   692	   693	   694	   714#	   714	   731#	   731	   762#	   762	   784#	   784	   818#
	   818	   852#	   852	   881#	   881	   908#	   908	   939#	   939	   968#	   968	   986#	   986	  1002#
	  1002	  1027#	  1027	  1050#	  1050	  1073#	  1073	  1094#	  1094	  1109#	  1109	  1122#	  1122
ERRMSG	   611#	   639#	   667#	   714#	   714	   731#	   731	   762#	   762	   784#	   784	   818#	   818	   852#
	   852	   881#	   881	   908#	   908	   939#	   939	   968#	   968	   986#	   986	  1002#	  1002	  1027#
	  1027	  1050#	  1050	  1073#	  1073	  1094#	  1094	  1109#	  1109	  1122#	  1122
ERRUNI	   611#	   639#	   667#	   714#	   714	   731#	   731	   762#	   762	   784#	   784	   818#	   818	   852#
	   852	   881#	   881	   908#	   908	   939#	   939	   968#	   968	   986#	   986	  1002#	  1002	  1027#
	  1027	  1050#	  1050	  1073#	  1073	  1094#	  1094	  1109#	  1109	  1122#	  1122
INIBIT	    15#	    15
NXBIT	    15#	    15
OFF.LI	     9#	    14	   610	   713	   730	   761	   783	   817	   851	   880	   907	   938	   967	   985
	  1001	  1026	  1049	  1072	  1093	  1108	  1121
ON.LIS	    11#	    15	   611	   639	   667	   695	   714	   731	   762	   784	   818	   852	   881	   908
	   939	   968	   986	  1002	  1027	  1050	  1073	  1094	  1109	  1122
PJRST	    88#	   762	   784
SYSDVF	   302
SYSSTR	   255
XX	   818#	   818	   852#	   852	   881#	   881	   908#	   908	   939#	   939	   968#	   968	  1027#	  1027
	  1050#	  1050
%4MESS	  1160#	  1178	  1192	  1204	  1221	  1248	  1262(q