WATCH PROGRAM TO PRINT OUT INCREMENTAL STATISTICS ABOUT A JOB	MACRO 12.5-46.0 16:59 10-SEP-80 PAGE 1
WATCH.MAC	10-SEP-80 16:55

				00100	TITLE WATCH PROGRAM TO PRINT OUT INCREMENTAL STATISTICS ABOUT A JOB

			000001	00300		T1=1
			000002	00400		T2=2
			000003	00500		T3=3
			000004	00600		T4=4
			000005	00650		J=5
			000017	00700		P=17

				01000	DEFINE THINGS <
				01100	GETAB MC1,-15,<MICROCYCLES>,12
				01200	GETAB MPC,-47,<MAPPED*4+CREATE>,8
				01300	GETAB PWS,-50,<PGES ADDED TO UWS>,6
				01350	PEK AJF,JBTAJF,<MWS FAULTS>,6
				01400	GETAB DLK,-2,<LOOKUPS>,6
				01450	GETAB ERN,-33,<ENTERS+RENAMES>,6
				01500	GETAB CIN,-7,<CHARS INPUT>,6
				01600	GETAB COT,-10,<CHARS OUTPUT>,6
				01800	GETAB RCT,17,<SIMIO IN>,6
				01810	GETAB WCT,20,<SIMIO OUT>,6
				01900	>;END THINGS
			000062	02000	PDLLEN==^D50
WATCH PROGRAM TO PRINT OUT INCREMENTAL STATISTICS ABOUT A JOB	MACRO 12.5-46.0 16:59 10-SEP-80 PAGE 2
WATCH.MAC	10-SEP-80 16:55

				00100	DEFINE GETAB(NAM,NUM,TEXT,SIZE) <
				00200		MOVEI	T1,[ASCIZ/'NAM/]
				00300		PUSHJ	P,STROUT
				00400		NXTPOS('SIZE)
				00500	>
				00510	DEFINE PEK(NAM,ADDR,TEXT,SIZE) <GETAB(NAM,0,TEXT,SIZE)>
				00600	DEFINE NXTPOS(SIZE)<
				00700		POS(\<THGSIZ+'SIZE>)
				00800		THGSIZ==THGSIZ+'SIZE
				00900	>;END NXTPOS DEFINITION
			000000	01000	THGSIZ==0
	000000'			01100	PRTHED:	THINGS^
	000000'	201040	000402'			MOVEI	T1,[ASCIZ/MC1/]
	000001'	260740	000275'			PUSHJ	P,STROUT
	000002'	201040	000012			POS(\<THGSIZ+12>)^MOVEI T1,12
	000003'	260740	000270'				PUSHJ	P,DOPOS^
	000004'	201040	000403'			MOVEI	T1,[ASCIZ/MPC/]
	000005'	260740	000275'			PUSHJ	P,STROUT
	000006'	201040	000022			POS(\<THGSIZ+8>)^MOVEI T1,22
	000007'	260740	000270'				PUSHJ	P,DOPOS^
	000010'	201040	000404'			MOVEI	T1,[ASCIZ/PWS/]
	000011'	260740	000275'			PUSHJ	P,STROUT
	000012'	201040	000030			POS(\<THGSIZ+6>)^MOVEI T1,30
	000013'	260740	000270'				PUSHJ	P,DOPOS^
	000014'	201040	000405'			MOVEI	T1,[ASCIZ/AJF/]
	000015'	260740	000275'			PUSHJ	P,STROUT
	000016'	201040	000036			POS(\<THGSIZ+6>)^MOVEI T1,36
	000017'	260740	000270'				PUSHJ	P,DOPOS^
	000020'	201040	000406'			MOVEI	T1,[ASCIZ/DLK/]
	000021'	260740	000275'			PUSHJ	P,STROUT
	000022'	201040	000044			POS(\<THGSIZ+6>)^MOVEI T1,44
	000023'	260740	000270'				PUSHJ	P,DOPOS^
	000024'	201040	000407'			MOVEI	T1,[ASCIZ/ERN/]
	000025'	260740	000275'			PUSHJ	P,STROUT
	000026'	201040	000052			POS(\<THGSIZ+6>)^MOVEI T1,52
	000027'	260740	000270'				PUSHJ	P,DOPOS^
	000030'	201040	000410'			MOVEI	T1,[ASCIZ/CIN/]
	000031'	260740	000275'			PUSHJ	P,STROUT
	000032'	201040	000060			POS(\<THGSIZ+6>)^MOVEI T1,60
	000033'	260740	000270'				PUSHJ	P,DOPOS^
	000034'	201040	000411'			MOVEI	T1,[ASCIZ/COT/]
	000035'	260740	000275'			PUSHJ	P,STROUT
	000036'	201040	000066			POS(\<THGSIZ+6>)^MOVEI T1,66
	000037'	260740	000270'				PUSHJ	P,DOPOS^
	000040'	201040	000412'			MOVEI	T1,[ASCIZ/RCT/]
	000041'	260740	000275'			PUSHJ	P,STROUT
	000042'	201040	000074			POS(\<THGSIZ+6>)^MOVEI T1,74
	000043'	260740	000270'				PUSHJ	P,DOPOS^
	000044'	201040	000413'			MOVEI	T1,[ASCIZ/WCT/]
	000045'	260740	000275'			PUSHJ	P,STROUT
	000046'	201040	000102			POS(\<THGSIZ+6>)^MOVEI T1,102
	000047'	260740	000270'				PUSHJ	P,DOPOS^
	000050'	263740	000000	01200		POPJ	P,
WATCH PROGRAM TO PRINT OUT INCREMENTAL STATISTICS ABOUT A JOB	MACRO 12.5-46.0 16:59 10-SEP-80 PAGE 2-2
WATCH.MAC	10-SEP-80 16:55

				01300	DEFINE GETAB (NAM,NUM,TEXT,SIZE) <
				01400		MOVEI	T1,'NUM
				01500		HRL	T1,J
				01600		GETTAB	T1,
				01700		  HALT
				01800		GET(NAM,TEXT,SIZE)
				01900	>;END GETAB

				02100	DEFINE PEK(NAM,ADDR,TEXT,SIZE) <
				02200		MOVEI	T1,'ADDR(J)
				02300		PEEK	T1,
				02400		GET	(NAM,TEXT,SIZE)
				02500	>;END PEK MACRO DEFINITION

				02700	DEFINE GET(NAM,TEXT,SIZE) <
				02800		PUSH	P,T1
				02900		SUB	T1,TAB'NAM#
				03000		PUSHJ	P,DECOUT
				03100		NXTPOS(SIZE)
				03200		POP	P,TAB'NAM
				03300		CRLF
				03400	>;END GETTAB DEFINITION

				03600	DEFINE MSG(TEXT)<OUTSTR [ASCIZ/'TEXT/]>
				03700	DEFINE CRLF <PUSHJ P,DOCRLF
				03800	>
				03900	DEFINE POS(N) <MOVEI T1,'N
				04000			PUSHJ	P,DOPOS>
WATCH PROGRAM TO PRINT OUT INCREMENTAL STATISTICS ABOUT A JOB	MACRO 12.5-46.0 16:59 10-SEP-80 PAGE 3
WATCH.MAC	10-SEP-80 16:55

P	000051'	255000	000000	00100	ST:	JFCL
	000052'	047000	000000	00200		RESET
	000053'	200740	000414'	00300		MOVE	P,[IOWD PDLLEN,PDL]
	000054'	402000	000303'	00310		SETZM	CLRBEG
	000055'	200040	000415'	00320		MOVE	T1,[CLRBEG,,CLRBEG+1]
	000056'	251040	000317'	00330		BLT	T1,CLREND
P	000057'	200040	000416'	00400	LOOP:	MOVE	T1,[15,,12]
	000060'	047040	000041	00500		GETTAB	T1,		;GET UPTIME
	000061'	254200	000000	00600		 HALT
	000062'	261740	000001	00700		PUSH	P,T1
	000063'	274040	000305'	00800		SUB	T1,LASTIM
	000064'	202040	000304'	00900		MOVEM	T1,INCTIM
	000065'	231040	000074	01000		IDIVI	T1,^D60		;TYPE OUT SECS
	000066'	051140	000417'	01050		MSG	<SECS: >^OUTSTR [ASCIZ/SECS: /]^
	000067'	260740	000246'	01100		PUSHJ	P,DECOUT
	000070'	051140	000421'	01105		MSG <	>^OUTSTR [ASCIZ/	/]^
	000071'	201040	000003	01110		MOVEI	T1,3
	000072'	504040	000005	01120		HRL	T1,J
	000073'	047040	000041	01130		GETTAB	T1,
	000074'	047000	000012	01140		  EXIT
	000075'	260740	000256'	01150		PUSHJ	P,SIXOUT
	000076'	260740	000265'	01200		CRLF^PUSHJ P,DOCRLF
	000077'	262740	000305'	01300		POP	P,LASTIM
				01400		THINGS	^
	000100'	201040	777763			MOVEI	T1,-15
	000101'	504040	000005			HRL	T1,J
	000102'	047040	000041			GETTAB	T1,
	000103'	254200	000000			  HALT
	000104'	261740	000001			PUSH	P,T1
	000105'	274040	000313'			SUB	T1,TABMC1#
	000106'	260740	000246'			PUSHJ	P,DECOUT
	000107'	201040	000114			POS(\<THGSIZ+12>)^MOVEI T1,114
	000110'	260740	000270'				PUSHJ	P,DOPOS^
	000111'	262740	000313'			POP	P,TABMC1
	000112'	260740	000265'			CRLF^PUSHJ P,DOCRLF
	000113'	201040	777731			MOVEI	T1,-47
	000114'	504040	000005			HRL	T1,J
	000115'	047040	000041			GETTAB	T1,
	000116'	254200	000000			  HALT
	000117'	261740	000001			PUSH	P,T1
	000120'	274040	000314'			SUB	T1,TABMPC#
	000121'	260740	000246'			PUSHJ	P,DECOUT
	000122'	201040	000124			POS(\<THGSIZ+8>)^MOVEI T1,124
	000123'	260740	000270'				PUSHJ	P,DOPOS^
	000124'	262740	000314'			POP	P,TABMPC
	000125'	260740	000265'			CRLF^PUSHJ P,DOCRLF
	000126'	201040	777730			MOVEI	T1,-50
	000127'	504040	000005			HRL	T1,J
	000130'	047040	000041			GETTAB	T1,
	000131'	254200	000000			  HALT
	000132'	261740	000001			PUSH	P,T1
	000133'	274040	000315'			SUB	T1,TABPWS#
WATCH PROGRAM TO PRINT OUT INCREMENTAL STATISTICS ABOUT A JOB	MACRO 12.5-46.0 16:59 10-SEP-80 PAGE 3-2
WATCH.MAC	10-SEP-80 16:55

	000134'	260740	000246'			PUSHJ	P,DECOUT
	000135'	201040	000132			POS(\<THGSIZ+6>)^MOVEI T1,132
	000136'	260740	000270'				PUSHJ	P,DOPOS^
	000137'	262740	000315'			POP	P,TABPWS
	000140'	260740	000265'			CRLF^PUSHJ P,DOCRLF
U	000141'	201045	000000*			MOVEI	T1,JBTAJF(J)
	000142'	047040	000033			PEEK	T1,
	000143'	261740	000001			PUSH	P,T1
	000144'	274040	000306'			SUB	T1,TABAJF#
	000145'	260740	000246'			PUSHJ	P,DECOUT
	000146'	201040	000140			POS(\<THGSIZ+6>)^MOVEI T1,140
	000147'	260740	000270'				PUSHJ	P,DOPOS^
	000150'	262740	000306'			POP	P,TABAJF
	000151'	260740	000265'			CRLF^PUSHJ P,DOCRLF
	000152'	201040	777776			MOVEI	T1,-2
	000153'	504040	000005			HRL	T1,J
	000154'	047040	000041			GETTAB	T1,
	000155'	254200	000000			  HALT
	000156'	261740	000001			PUSH	P,T1
	000157'	274040	000311'			SUB	T1,TABDLK#
	000160'	260740	000246'			PUSHJ	P,DECOUT
	000161'	201040	000146			POS(\<THGSIZ+6>)^MOVEI T1,146
	000162'	260740	000270'				PUSHJ	P,DOPOS^
	000163'	262740	000311'			POP	P,TABDLK
	000164'	260740	000265'			CRLF^PUSHJ P,DOCRLF
	000165'	201040	777745			MOVEI	T1,-33
	000166'	504040	000005			HRL	T1,J
	000167'	047040	000041			GETTAB	T1,
	000170'	254200	000000			  HALT
	000171'	261740	000001			PUSH	P,T1
	000172'	274040	000312'			SUB	T1,TABERN#
	000173'	260740	000246'			PUSHJ	P,DECOUT
	000174'	201040	000154			POS(\<THGSIZ+6>)^MOVEI T1,154
	000175'	260740	000270'				PUSHJ	P,DOPOS^
	000176'	262740	000312'			POP	P,TABERN
	000177'	260740	000265'			CRLF^PUSHJ P,DOCRLF
	000200'	201040	777771			MOVEI	T1,-7
	000201'	504040	000005			HRL	T1,J
	000202'	047040	000041			GETTAB	T1,
	000203'	254200	000000			  HALT
	000204'	261740	000001			PUSH	P,T1
	000205'	274040	000307'			SUB	T1,TABCIN#
	000206'	260740	000246'			PUSHJ	P,DECOUT
	000207'	201040	000162			POS(\<THGSIZ+6>)^MOVEI T1,162
	000210'	260740	000270'				PUSHJ	P,DOPOS^
	000211'	262740	000307'			POP	P,TABCIN
	000212'	260740	000265'			CRLF^PUSHJ P,DOCRLF
	000213'	201040	777770			MOVEI	T1,-10
	000214'	504040	000005			HRL	T1,J
	000215'	047040	000041			GETTAB	T1,
	000216'	254200	000000			  HALT
	000217'	261740	000001			PUSH	P,T1
	000220'	274040	000310'			SUB	T1,TABCOT#
WATCH PROGRAM TO PRINT OUT INCREMENTAL STATISTICS ABOUT A JOB	MACRO 12.5-46.0 16:59 10-SEP-80 PAGE 3-3
WATCH.MAC	10-SEP-80 16:55

	000221'	260740	000246'			PUSHJ	P,DECOUT
	000222'	201040	000170			POS(\<THGSIZ+6>)^MOVEI T1,170
	000223'	260740	000270'				PUSHJ	P,DOPOS^
	000224'	262740	000310'			POP	P,TABCOT
	000225'	260740	000265'			CRLF^PUSHJ P,DOCRLF
	000226'	201040	000017			MOVEI	T1,17
	000227'	504040	000005			HRL	T1,J
	000230'	047040	000041			GETTAB	T1,
	000231'	254200	000000			  HALT
	000232'	261740	000001			PUSH	P,T1
	000233'	274040	000316'			SUB	T1,TABRCT#
	000234'	260740	000246'			PUSHJ	P,DECOUT
	000235'	201040	000176			POS(\<THGSIZ+6>)^MOVEI T1,176
	000236'	260740	000270'				PUSHJ	P,DOPOS^
	000237'	262740	000316'			POP	P,TABRCT
	000240'	260740	000265'			CRLF^PUSHJ P,DOCRLF
	000241'	201040	000020			MOVEI	T1,20
	000242'	504040	000005			HRL	T1,J
	000243'	047040	000041			GETTAB	T1,
	000244'	254200	000000			  HALT
	000245'	261740	000001			PUSH	P,T1
	000246'	274040	000317'			SUB	T1,TABWCT#
	000247'	260740	000246'			PUSHJ	P,DECOUT
	000250'	201040	000204			POS(\<THGSIZ+6>)^MOVEI T1,204
	000251'	260740	000270'				PUSHJ	P,DOPOS^
	000252'	262740	000317'			POP	P,TABWCT
	000253'	260740	000265'			CRLF^PUSHJ P,DOCRLF
	000254'	051200	000001	01500		INCHWL	T1		;WAIT TILL RETURN
	000255'	302040	000012	01600		CAIE	T1,12
	000256'	254000	000254'	01700		JRST	.-2
D	000257'	254000	000045'	01800		JRST	LOOP

WATCH PROGRAM TO PRINT OUT INCREMENTAL STATISTICS ABOUT A JOB	MACRO 12.5-46.0 16:59 10-SEP-80 PAGE 4
WATCH.MAC	10-SEP-80 16:55

P	000260'	231040	000012	00200	DECOUT:	IDIVI	T1,^D10
	000261'	506117	000000	00300		HRLM	T2,(P)
	000262'	332000	000001	00400		SKIPE	T1
D	000263'	260740	000246'	00500		PUSHJ	P,DECOUT
	000264'	554057	000000	00600		HLRZ	T1,(P)
	000265'	051701	000060	00700		OUTCHI	"0"(T1)
	000266'	350000	000303'	00750		AOS	CHRPOS
P	000267'	263740	000000	00800	CPOPJ:	POPJ	P,

P	000270'	200100	000422'	00820	SIXOUT:	MOVE	T2,[POINT 6,T1]
P	000271'	134140	000002	00830	SIXOU1:	ILDB	T3,T2
	000272'	051703	000040	00840		OUTCHI	"0"-'0'(T3)
	000273'	350000	000303'	00845		AOS	CHRPOS
	000274'	603100	770000	00850		TLNE	T2,770000
D	000275'	254000	000257'	00860		JRST	SIXOU1
	000276'	263740	000000	00870		POPJ	P,


P	000277'	402000	000303'	01100	DOCRLF:	SETZM	CHRPOS
				01200		OUTSTR	[ASCIZ/
	000300'	051140	000423'	01300	/]
	000301'	263740	000000	01400		POPJ	P,

P	000302'	305040	000303'	01600	DOPOS:	CAIGE	T1,CHRPOS
	000303'	263740	000000	01700		POPJ	P,
	000304'	051700	000040	01800		OUTCHI	" "
	000305'	350000	000303'	01900		AOS	CHRPOS
D	000306'	254000	000270'	02000		JRST	DOPOS

P	000307'	051141	000000	02200	STROUT:	OUTSTR	(T1)
	000310'	505040	440700	02300		HRLI	T1,440700
P	000311'	134100	000001	02400	STROU1:	ILDB	T2,T1
D	000312'	322100	000255'	02500		JUMPE	T2,CPOPJ
	000313'	350000	000303'	02600		AOS	CHRPOS
D	000314'	254000	000277'	02700		JRST	STROU1
WATCH PROGRAM TO PRINT OUT INCREMENTAL STATISTICS ABOUT A JOB	MACRO 12.5-46.0 16:59 10-SEP-80 PAGE 5
WATCH.MAC	10-SEP-80 16:55

P	000303'			00950	CLRBEG:
P	000315'	000000	000000	00975	CHRPOS:	0
P	000316'	000000	000000	01000	INCTIM:	0
P	000317'	000000	000000	01050	LASTIM:	0
P	000320'			01060		VAR
			000331'	01070	CLREND==.-1
P	000332'			01100	PDL:	BLOCK	PDLLEN

DP			000037'	01300	END	ST
P	000414'	466066	100000

JBTAJF	UNDEFINED
?26 ERRORS DETECTED
PROGRAM BREAK IS 000436
3K CORE USED
WATCH PROGRAM TO PRINT OUT INCREMENTAL STATISTICS ABOUT A JOB	MACRO 12.5-46.0 16:59 10-SEP-80 PAGE 6
WATCH.MAC	10-SEP-80 16:55		SYMBOL TABLE

CHRPOS		000303'
CLRBEG		000303'
CLREND		000331'	SPD
CPOPJ		000255'
DECOUT		000246'
DOCRLF		000265'
DOPOS		000270'
EXIT	047000	000012
GETTAB	047000	000041
INCHWL	051200	000000
INCTIM		000304'
J		000005
JBTAJF		000141'	UXT
LASTIM		000305'
LOOP		000045'
OUTCHI	051700	000000
OUTSTR	051140	000000
P		000017
PDL		000320'
PDLLEN		000062	SPD
PEEK	047000	000033
PRTHED		000000'
RESET	047000	000000
SIXOU1		000257'
SIXOUT		000256'
ST		000037'
STROU1		000277'
STROUT		000275'
T1		000001
T2		000002
T3		000003
T4		000004
TABAJF		000306'
TABCIN		000307'
TABCOT		000310'
TABDLK		000311'
TABERN		000312'
TABMC1		000313'
TABMPC		000314'
TABPWS		000315'
TABRCT		000316'
TABWCT		000317'
THGSIZ		000204	SPD
