COMMOD - COMMON DATA LOCATIONS USED BY DISK SERVICE	MACRO 12.5-46.0 14:24 13-JAN-88 PAGE 1
S.MAC	13-JAN-88 11:55		S.MAC - with system parameter file for P035/D, January 1988

     1				SUBTTL	S.MAC - with system parameter file for P035/D, January 1988
     2
     3				IF2,<IFNDEF LISTSN,<TAPE>>	;Skip to PASS2 in all but COMMON.LST
     4				;THIS MODULE ASSEMBLED WITH KL-10 PARAMETER FILE - KLSYM.MAC
     5
     6					IF2,<IFNDEF LISTSN,<		;LIST KLSYM.MAC IN COMMON ONLY
     7								TAPE>>
     8				SUBTTL	CONFIG - CONFIGURATION DEFINITION - KL
     9				XP SYSNO,'KL3652'	;CONFKL.MAC
    10				XP APRSN,<'KL',,0>	;CPU type and serial number
    11				XP APRNAM,<'*L*',,7777>	;Hardware and base number
    12				XP TIMZON,^D<-8>	;Pacific Standard Time
    13
    14				XP JOBS, ^D64		;Can't have 128 jobs with 48 disks!
    15				XP PORTS,^D128		;TYMNET ports 0-199     (RPORTN was 128)
    16				XP TAPES,^D4		;Number of tape drives
    17				XP DISKS,^D<6*8>	;Number of disks (BPA0-17,BPB0-7,BPC0-17,BPD0-7)
    18				XP DSKTYP,'3652B'	;Memorex 3652 disks formatted in blocks
    19
    20				TITLE	COMMOD - COMMON DATA LOCATIONS USED BY DISK SERVICE
    21				;ALL DATA LOCATIONS USED BY FILSER ARE HERE INSTEAD OF COMMON.
    22
    23					STOPCD(,ENTRY,COMMOD)^
    24					ENTRY	COMMOD		;For library searches
    25	000000'	260040	000000*	COMMOD::PUSHJ	P,DIE		;**** Default stopcode for "COMMOD" ****
    26	000001'	435755	555744		SIXBIT	/COMMOD/  	;Title of module
    27	000002'	000000	000000		S$NONAME,,0		;?NONAME stopcode "COMMOD+nnn(nnnnnn)"
    28			000000'	S$NAME==COMMOD			;For STOPCDs with no arguments
    29					SALL>
    30				^
    31
    32					DEFINE GENMSK(SIZE,POS)<<1B<35-SIZE>-1>B<POS>>
    33			000000		ND	FTDPAG,0	;Use UNIBLK instead of UNIPAG
    34
    35				IFCPU (<KI,KL>),<;Define other symbols based on DISKS and TAPES
    36			000004	ND TAPES,^D4		;Default is 4 tape drives
    37			000060	ND DISKS,^D<2*8>	;Default is 2 strings of disks
    38		002326	252242	ND DSKTYP,'3675B'	;Default to 3675 formatted in blocks
    39			000001	  XP SAXN,1		;One SA10 on KI or KL
    40			000002	  XP SAXC0N,2		;Two channels on SA-10 #0 (not 4 channels)
    41			000000	    XP BP00,0		;SA 0, Channel 0 does not have disk controller
    42			000001	    XP FT00,1		;SA 0, Channel 0 has a tape controller
    43			000001	    XP BP01,1		;SA 0, Channel 1 has disk controllers (redefined below)
    44			000000	    XP FT01,0		;SA 0, Channel 1 does not have tape controller
    45			000020	    BPAMX=<BPBMX=<BPCMX=<BPDMX=20>>>	;16 units per "Kontroller"
    46				IFE <DSKTYP-'3652P'>*<DSKTYP-'3652B'>,<	;3652 uses logical volumes
    47				  IFE DISKS-^D<2*8>,< ND BPAUN,^D8	;1 physical string is logical BPA0-7
    48						      ND BPBUN,^D0>	; and BPC0-7 (nothing on BPB or BPD)
    49				  IFE DISKS-^D<4*8>,< ND BPAUN,^D16	;2 physical strings are logical BPA0-17
    50						      ND BPBUN,^D0>	; and BPC0-17 (nothing on BPB or BPD)
    51			000020	  IFE DISKS-^D<6*8>,< ND BPAUN,^D16	;3 physical strings are logical BPA0-17,
    52			000010			      ND BPBUN,^D8>	; BPC0-17, BPB0-7, BPD0-7
    53				  IFE DISKS-^D<8*8>,< ;Normal case>	;4 physical strings = 8 logical strings
COMMOD - COMMON DATA LOCATIONS USED BY DISK SERVICE	MACRO 12.5-46.0 14:24 13-JAN-88 PAGE 1
COMMOD.MAC	20-NOV-87 23:00		CONFIG - CONFIGURATION DEFINITION - KL

    54			000000		BPXKON==:0			;Cannot use BPXKON with 3652 disks
    55					EXTERN CPXKON			;Must use CPXKON with 3652 disks
    56				>  ;End 3652 special definitions    (See also UNIOLV definition)
    57				IFE <DSKTYP-'3650P'>*<DSKTYP-'3650B'>*<DSKTYP-'3675P'>,<
    58							BPXKON==:0	;Must use CPXKON
    59							EXTERN	CPXKON>
    60				IFE <DSKTYP-'3675B'>,<	CPXKON==:0	;Must use BPXKON
    61							EXTERN	BPXKON>
    62			000020	ND  BPAUN,DISKS			;Number of disks on first controller
    63				IFG BPAUN-BPAMX,<BPAUN==BPAMX>	;Max of 16
    64			000010	ND  BPBUN,DISKS-BPAUN		;Number of disks on second controller
    65				IFG BPBUN-BPBMX,<BPBUN==BPBMX>	;Max of 16
    66			000020	ND  BPCUN,DISKS-BPAUN-BPBUN	;Number of disks on third controller
    67				IFG BPCUN-BPCMX,<BPCUN==BPCMX>	;Max of 16
    68			000010	ND  BPDUN,DISKS-BPAUN-BPBUN-BPCUN;Remainder on fourth controller
    69				IFG BPDUN-BPDMX,<BPDUN==BPDMX>	;Max of 16
    70				IFN DISKS-BPAUN-BPBUN-BPCUN-BPDUN,<PRINTX ?Cannot define more than 64 disks>
    71			000001	IFG BPAUN,<BP01==1>	;At least 1 controller if any BPA units defined
    72			000002	IFG BPBUN,<BP01==2>	;At least 2 controllers if any BPB units defined
    73			000003	IFG BPCUN,<BP01==3>	;At least 3 controllers if any BPC units defined
    74			000004	IFG BPDUN,<BP01==4>	;All four controllers if any BPD units defined
    75				IFGE BP01-3,<IFN BPCUN-BPAUN,<PRINTX ?BPCUN must equal BPAUN for UNIOLV>>
    76				IFE  BP01-4,<IFN BPDUN-BPBUN,<PRINTX ?BPDUN must equal BPBUN for UNIOLV>>
    77			000300	      BPA==300		;First disk on 1st kontroller = 'C0' hex = 300 octal
    78			000320	      BPB==BPA+BPAMX	;First disk on 2nd kontroller = 'D0' hex = 320 octal
    79			000340	      BPC==BPB+BPBMX	;First disk on 3rd kontroller = 'E0' hex = 340 octal
    80			000360	      BPD==BPC+BPCMX	;First disk on 4th kontroller = 'F0' hex = 360 octal
    81			000004	  XP FTAUN,TAPES	;All tapes are on STC controller
    82			000200	      FTA==200		;First unit on tape Kontroller = '80' hex
    83			000002	      FTATYP==2
    84			000000	  ND MAGUN,0		;No tapes on the I/O bus (MTASER)
    85				>  ;End KI,KL
    86
    87				IFNCPU(<KI,KL>),<
    88				  ND DISKS,4		;Default 4 disks on F3 and KS
    89				  ND TAPES,1		;Default 1 tape on F3 and KS
    90				  XP SAXN,0		;No SA10 on F3 or KS
    91				  XP FTAUN,0		;No FTA on F3 or KS
    92				  XP MAGUN,TAPES	;Tapes for MAGSER or F3TSER
    93				  ND DSKTYP,0		;Disk type not applicable to KS,F3
    94				>
    95
    96				IFCPU(KS),<
    97				  XP RMXN,1		;RMXKON for RM03 or RP06 disks
    98				  XP RMAUN,DISKS	;Disk units on RMA
    99				  XP C0RMN,1		;RMA is on "channel 0"
   100				> ; End IFCPU(KS)
   101
   102				IFCPU(F3),<
   103				  XP APXN,1		;APXKON for Ampex or CDC disks
   104				  XP APAUN,DISKS	;Disk units on APA
   105				  XP C0APN,1		;APA is on "channel 0"
   106				> ; End IFCPU(F3)
COMMOD - COMMON DATA LOCATIONS USED BY DISK SERVICE	MACRO 12.5-46.0 14:24 13-JAN-88 PAGE 1-2
COMMOD.MAC	20-NOV-87 23:00		CONFIG - CONFIGURATION DEFINITION - KL

   107
   108			000000		ND C0DPN,0	;No DP on channel 0
   109			000000		ND C1DPN,0	;No DP on channel 1
   110			000000		ND C0FHN,0	;No FH on channel 0
   111			000000		ND C1FHN,0	;No FH on channel 1
   112			000000		ND C0MDN,0	;No MD on channel 0
   113			000000		ND C1MDN,0	;No MD on channel 1
   114			000000		ND C0APN,0	;No AP on KS, 1 AP on F3
   115			000000		ND C0RMN,0	;No RM on F3, 1 RM on KS
   116
   117				IFN C0DPN!C0FHN!C0MDN!C0APN!C0RMN,<CHNN==1>
   118				IFN C1DPN!C1FHN!C1MDN,<		   CHNN==2>
   119			000000		ND CHNN,0		;No DF10 channels on KI or KL
   120
   121			000020		ND RPCBN,JOBS/3		;Number of RIB PCBs
   122			000020		ND SPCBN,DISKS*3	;Number of SAT PCBs
   123				IFG RPCBN-20,<RPCBN==20>	;Not more than 16
   124				IFG SPCBN-20,<SPCBN==20>	;Causes NAILI3 crashes if too big
   125				; ALL IN LEFT HALF
   126
   127				;BITS IN SAME POSITION AS IN RIB STATUS, FOR ERRORS
   128			000100	IOSHRE==RIPHRE	;HARD READ ERR,HARD WRITE ERR,
   129			000200	IOSHWE==RIPHWE
   130			002000	IOBDRB==RIPBDR	;FILE IS BAD(DEAD),DONT LET ANYONE AT IT.
   131			002300	IOSERR==IOSHRE!IOSHWE!IOBDRB
   132
   133			400000	IOSRIB==400000	;RIB IS CURRENT IN (IN %RIB)
   134			200000	IOSRBE==200000	;SOME KIND OF ERROR READING RIB OR UFD
   135			100000	IOSUPR==100000	;SUPER USETI/USETO MODE
   136			040000	IOSALC==040000	;ALLOCATION FOR SOMETHING OTHER THAN FILE (UFD)
   137			020000	IOSSAE==020000	;SAT IS BAD.
   138
   139				INTERNAL IOSHRE,IOSHWE,IOSERR,IOSRBE,IOSRIB,IOSALC,IOSUPR
   140				INTERN IOBDRB,IOSSAE
   141
COMMOD - COMMON DATA LOCATIONS USED BY DISK SERVICE	MACRO 12.5-46.0 14:24 13-JAN-88 PAGE 2
COMMOD.MAC	20-NOV-87 23:00		CONFIG - CONFIGURATION DEFINITION - KL

   142				;SYMBOLS WHICH MAY BE DEFINED IN CONFIG IF A USER DOES NOT LIKE
   143				;STANDARD DEFNS.  HOWEVER MOST CUSTOMERS WILL BE HAPPY WITH THE STANDARD
   144				;VALUES.
   145
   146					INTERN CCWMAX,PRVFIL,PRVUFD,PTRLEN
   147
   148				IFNDEF CCWMAX,<XP CCWMAX,^D10>	;MAX. NO OF DATA CHANNEL COMMAND WORDS. CUSTOMER MAY
   149							; CHANGE TO BIGGER OR SMALLER VALUE TO INCREASE THRUPUT
   150							; OR DECREASE SPACE.
   151				IFNDEF PRVFIL,<PRVFIL==047>	;STANDARD FILE PRIVILEGE
   152								;OWNER=EVERYTHING,PROJ=READ,REST=NO ACCESS
   153				IFNDEF PRVUFD,<PRVUFD==754>	;STANDARD UFD PRIVILEGE
   154								;OWNER=ALL,PROJ=ALL,REST=READ+LOOKUPS
   155				IFNDEF PTRLEN,<PTRLEN==^D10>	;NO. OF IN CORE RETRIEVAL POINTERS PER FILE
   156								; LENGTH AFFECTS SIZE OF DEVICE DATA BLOCK
   157				IFNDEF UNVRSF,<XP UNVRSF,^D500>	;RECIPROCAL SAFETY FACTOR FOR EACH UNIT
   158								; IE NO. BLKS ON UNIT/UNVRSF
   159								; IS SUBTRACTED FROM NO OF FREE BLOCKS
   160								; SEE STRTAL,UNITAL
   161
   162
   163				IFNDEF OPNFPF,<OPNFPF==^D10>	;OPEN FIL/FRAME ESTIMATE. MUST BE SAME
   164								;VALUE AS IFNDEF'D IN COMMON. MAY
   165								;BE DEF'D IN CONFIG FOR SOME SYSTEMS. /AA
   166
COMMOD - COMMON DATA LOCATIONS USED BY DISK SERVICE	MACRO 12.5-46.0 14:24 13-JAN-88 PAGE 3
COMMOD.MAC	20-NOV-87 23:00		CONFIG - CONFIGURATION DEFINITION - KL

   167				IFNDEF SYRDPR,<XP SYRDPR,444000>	;NON-PRIVILEGED FILES IN SYS
   168								; HOME.SYS,SAT.SYS
   169				IFNDEF SYNRPR,<XP SYNRPR,447000>	;PRIVILEGED FILES IN SYS
   170							; CRASH.SAV, SNAP.SYS,RECOV.SYS,BADBLK.SYS
   171				IFNDEF MFDPRV,<XP MFDPRV,544000>	;MFD PRIVILEGES(ALL CAN READ,LOOKUP)
   172							; BUT NOT CREATE
   173				IFNDEF SYSPRV,<XP SYSPRV,754000>	;SYS UFD PRIVILEGES(PROJ 1 READ,CREATE
   174							;LOOKUP, OTHERS READ
   175							; LOOKUP ONLY
   176
   177
   178				;LIMITS OF VARIOUS FIELD WIDTHS IN FILE STRUCTURES
   179
   180				;B2WLSH and P2WLSH now defined in S.MAC
   181				;*;  XP BLKSPK,^D3	;# OF PLACES TO SHIFT LEFT TO CONVERT BLOCKS TO K
   182				;*;  XP BLKSPP,^D2	;# OF PLACES TO SHIFT LEFT TO CONVERT BLOCKS TO PAGES
   183				;*;  BLKSIZ==1_B2WLSH	;# OF WORDS IN A DISK BLOCK (MUST BE POWER OF 2)
   184				;*;  XP WRDSPP,^D9	;# OF PLACES TO SHIFT LEFT TO CONVERT PAGES TO WORDS
   185				;*;  BLKBPK==^D1024/BLKSIZ	;# OF BLOCKS PER J WORDS
   186
   187				;COMMON LOCATIONS (FOR COMMON SEARCH ROUTINES)
   188				INTERNAL CMBLNK,CMBNAM
   189
   190			000000	CMBNAM==0	;NAME DRBNAM AND FNBNAM MUST BE THE SAME AS THIS
   191
   192			000001	CMBLNK==1	;LINK (LH) DRBLNK AND FNBLNK MUST BE SAME
   193
   194			000002	CMBDWN==2	;DOWN POINTER (LH) DRBFNB AND FNBATB MUST BE SAME
   195			000013	XP CMBSIZ,ATBSPT+1	;SIZE OF A CORE BLOCK
   196
   197
   198				;PAG - PARAMETERS WHICH APPEAR IN MORE THAN ONE DISK PAGE.
   199				INTERN PAGNAM,PAGCOD,PAGSLF
   200
   201			000000	PAGNAM==0		;SIXBIT NAME OF LPAGE (HOM OR BAT).
   202			000776	PAGCOD==776		;SELF INDENTIFYING CODE FOR PAGE RH ONLY, LH=0.
   203			000777	PAGSLF==777		;RETRIEVAL POINTER TO THIS PAGE.
COMMOD - COMMON DATA LOCATIONS USED BY DISK SERVICE	MACRO 12.5-46.0 14:24 13-JAN-88 PAGE 4
COMMOD.MAC	20-NOV-87 23:00		CONFIG - CONFIGURATION DEFINITION - KL

   204				COMMENT ; ATB (ACCESS TABLE BLOCK ) DEFINITIONS
   205
   206				THERE IS ONE ATB FOR EACH ACTUAL FILE ON THE DISK THAT IS
   207				IN USE. THE 'FILE' THE ATB CORRESPONDS TO MAY NOT APPEAR
   208				IN THE DIRECTORY, IT MAY HAVE BEEN SUPERCEDED OR NOT YET
   209				ENTERED. IN THIS CASE, THE ATB WILL BE IN THE MARKED FOR
   210				DELETION, OR IN THE CREATE STATE. THE FOLLOWING ARE THE ATB
   211				STATES
   212
   213				CREATE
   214				SUPERCEDE
   215				READ
   216				UPDATE
   217				RENAME
   218				MARKED FOR DELETION.
   219
   220				THERE MAY BE ANY NUMBER OF ATB'S MARKED FOR DELETETION FOR A FILE NAME.
   221				THESE ATBS CANNOT HAVE ANY "WRITE" FIELDS ON (UPD, CRE, SUP, MXU)
   222				THE REMAINING ATBS FOR A GIVEN FILE NAME CAN ONLY OCCUR IN THE
   223				FOLLOWING CONFIGURATIONS:
   224				1) EXACTLY ONE SUPERCEDE ATB, WHOSE UMC,CNT,MWC FIELDS MAY
   225				   BE NON-ZERO, PLUS A POSSIBLE ATB WHICH HAS ALL "WRITE"
   226				   FIELDS AND BITS ZERO, AND ATBCNT AND/OR ATBUMC NON-ZERO.
   227				   SOMETIMES THIS SUPERCEDE ATB HAS ATPUPD
   228				   ON INSTEAD OF ATPSUP SO THAT USERS WHO LOOKUP THE
   229				   FILE WHILE THE NEW VERSION IS BEING CLOSED WILL GET
   230				   THE NEW VERSION.  THUS, THE SUPERCEDE ATB CAN ONLY HAVE
   231				   ATBCNT NON-ZERO AFTER ATPUPD IS SET. ATBUMC AND MWC
   232				   CAN BE NON-ZERO DUE TO EITHER THE SUPERCEDER OR TO LOOKUPS
   233				   DONE AFTER ATPUPD IS SET.
   234				2) EXACLY ONE ATB WITH ATPUPD OR ATPMXU ON (SINGLE OR SIMULTANEOUS
   235				   UPDATE).  ATBCNT, ATBMWC, AND ATBUMC MAY BE INCREMENTED.
   236				3) EXACTLY ONE ATB WITH ATPCRE ON. ATMUMC MAY BE NON-ZERO,
   237				   BUT ONLY THE CREATOR HAS ANYTHING MAPPED FROM THE FILE
   238				   BEING CREATED. ATBCNT MUST BE ZERO, SINCE NO CHANNEL
   239				   INCLUDING THE OWNER CAN HAVE A FILE BEING CREATED
   240				   OPEN FOR READ OR UPDATE.
   241				4) EXACLY ONE ATB WITH ATPREN ON. ATBUMC AND ATBCNT MAY
   242				   BE NON-ZERO, REPRESENTING READERS OF THE FILE WHEN
   243				   THE RENAME IS BEING DONE, BUT ATPMXU, ATPCRE, ATPSUP,
   244				   AND ATPUPD MUST BE ZERO, I.E. NO WRITERS OF THE FILE
   245				   CAN EXIST.
   246				;
   247				INTERNAL ATPCNT,ATPUFE,ATPPID,ATPALC,ATBRIB,ATMCSC,ATBSTS,ATMUFU,ATYCNT
   248				INTERNAL ATBPVW,ATPDMP,ATYADT,ATYBLK,ATYCDT,ATYCSC,ATYCTD
   249				INTERNAL ATYCTM,ATYPRV,ATYUF1,ATYUF2,ATYXCD
   250				INTERN ATYBSZ,ATYWSZ,ATYALP,ATPSUP,ATPUPD,ATPCRE,ATPREN
   251				INTERN ATPDEL,ATPNDL,ATPDIR,ATBDOR,ATBLNK,ATBSIZ,ATBPRV
   252				INTERN ATBMSC,ATBLIC,ATBLCW,ATBFNB,ATBCNT,ATBALP,ATMUFP,ATMCNT
   253				INTERN ATPDUM,ATPUMC,ATMUMC,ATBUMC,ATBSPT,ATPMWC,ATPMWC,ATMMWC
   254				INTERN ATBMWC,ATPMXU,ATBDUM,ATBLOK,ATSWRD,ATSBLK,ATBPID
   255
   256			000000	ATBRIB==0	;RETRIEVAL POINTER FOR THE FILE'S RIB
COMMOD - COMMON DATA LOCATIONS USED BY DISK SERVICE	MACRO 12.5-46.0 14:24 13-JAN-88 PAGE 4-2
COMMOD.MAC	20-NOV-87 23:00		CONFIG - CONFIGURATION DEFINITION - KL

   257			000001	ATBFNB==1	;RH POINTER TO THE NAME BLOCK FOR THIS FILE
   258			000001	ATBLNK==1	;LH LINK TO NEXT ATB FOR THIS FILE
   259			000002	ATBSIZ==2	;NUMBER OF WORDS IN THIS FILE (IN 3 FIELDS)
   260						;(THAT IS, NUMBER OF HIGHEST WORD WRITTEN.).
   261			000007	 ATSWRD==7	;7 BITS OF WORDS
   262			000043	 ATNWRD==^D35	;RIGHT 7 BITS
   263			000002	 ATBWRD==ATBSIZ
   264
   265			000002	 ATSBLK==2	;2 BITS OF BLOCKS
   266			000034	 ATNBLK==^D28
   267			000002	 ATBBLK==ATBSIZ
   268
   269			000032	 ATSPGS==^D26
   270			000032	 ATNPGS==^D26
   271			000002	 ATBPGS==ATBSIZ	;PAGES IN FILE (FULL PAGES)
   272
   273	000003'	073407	000002	 ATYBSZ: POINT ATSBLK+ATSPGS,ATBSIZ(T2),ATNBLK ;POINTER TO NO.
   274						;OF BLOCKS (ROUNDED UP) IN FILE.
   275
   276	000004'	000707	000002	ATYWSZ: POINT ATSWRD,ATBSIZ(T2),ATNWRD ;POINTER TO NO. OF WORDS
   277						;IN LAST BLOCK OF FILE.
   278
   279			000003	ATBPVW==3	;PRIV WORD FOR LOOKUP (DATE, MODE, ETC)
   280			000011	 ATSPRV==^D9	;PRIV FIELD
   281			000010	 ATNPRV==^D8
   282			000003	 ATBPRV==ATBPVW
   283
   284			000004	 ATSMOD==4	;MODE
   285			000014	 ATNMOD==^D12
   286			000003	 ATBMOD==ATBPRV
   287
   288			000013	 ATSCTM==^D11	;CREATION TIME IN MIN
   289			000027	 ATNCTM==^D23
   290			000003	 ATBCTM==ATBPVW
   291
   292			000014	 ATSCDT==^D12	;CREATION DATE (LOW 12 BITS)
   293			000043	 ATNCDT==^D35
   294			000003	 ATBCDT==ATBPVW
   295
   296
COMMOD - COMMON DATA LOCATIONS USED BY DISK SERVICE	MACRO 12.5-46.0 14:24 13-JAN-88 PAGE 5
COMMOD.MAC	20-NOV-87 23:00		CONFIG - CONFIGURATION DEFINITION - KL

   297			000004	ATBLCW==4	;LIC ETC, GOES IN RIBCNA
   298
   299			000004	ATSUF1==4	;FIRST 4 UFD BITS
   300			000003	 ATNUF1==3
   301			000004	 ATBUF1==ATBLCW
   302
   303			000010	 ATSUF2==^D8	;NEXT 8 BITS
   304			000013	 ATNUF2==^D11
   305			000004	 ATBUF2==ATBLCW
   306
   307			020000	 ATPDMP==(1B4)	;IF ON SAYS FILE DUMPED SINCE LAST CAHNGE
   308			010000	 ATPUFE==(1B5)	;A BIT SO AN ERROR GETS RECORDED IN THE UFD
   309						;NOTE THAT ATPUFE MUST=RIPUFE.
   310			004000	 ATPPID==(1B6)	;FOR UFDS, MEANS THIS UFD SHOULD HAVE SPECIAL PID
   311						; STORAGE ACCOUNTING (NOT USED BY MONITOR).
   312						;FOR FILES, MEANS THIS FILE HAS A NON-ZERO PID
   313						; (KEPT BY THE MONITOR).
   314			002000	 ATPALC==(1B7)	;BIT THAT SAYS ALLOCATION HAS CHANGED ON THIS FILE.
   315						; BIT APPEARS IN UFD SO DSKCLN CAN SCAN IN FAST MODE
   316						; AND ONLY OR IN THE BITS IN THE SATS FOR FILES WITH
   317						; THIS BIT ON.
   318
   319			636000	 ATMUFP==(GENMSK(2,\<ATNUF1-ATSUF1+2>)+GENMSK(4,\<ATNUF2-ATSUF2+4>))
   320			777700	 ATMUFU==(GENMSK(ATSUF1,ATNUF1)+GENMSK(ATSUF2,ATNUF2))
   321			141700	ATMUFU==ATMUFU-ATMUFP
   322			000006	 ATSCSC==^D6	;CREATION TIME SECONDS
   323			000021	 ATNCSC==^D17
   324			000004	 ATBCSC==ATBLCW
   325
   326			000077	 ATMCSC==(GENMSK(ATSCSC,ATNCSC))
   327
   328			000022	 ATSLIC==^D18
   329			000043	 ATNLIC==^D35
   330			000004	 ATBLIC==ATBLCW	;LIC IN RH
   331
   332			000005	ATBMSC==5	;MISC STUFF
   333			000002	 ATSXCD==2	;EXTENDED DATE INFO
   334			000003	 ATNXCD==^D3	;HIGH ORDER 2 BITS UNUSED
   335			000005	 ATBXCD==ATBMSC
   336
   337			000016	 ATSADT==^D14	;ACCESS DATE
   338			000021	 ATNADT==^D17
   339			000005	 ATBADT==ATBMSC
   340
   341			000005	ATBLOK==ATBMSC	;FIRST DDB ON ATOMIC FILE LOCKING QUEUE.
   342
   343			000006	ATBDOR==6	;DORMANT POINTER
   344			000007	ATBALP==7	;NUMBER OF ALLOCATED PAGES (RIGHT 26 BITS ONLY)
   345						;BIT 0 MUST BE 0.
   346						;INCLUDES RIBS.
   347						;DOES NOT INCLULES.
   348	000005'	003207	000007	  ATYALP: POINT ^D26,ATBALP(T2),^D35
   349
COMMOD - COMMON DATA LOCATIONS USED BY DISK SERVICE	MACRO 12.5-46.0 14:24 13-JAN-88 PAGE 5-2
COMMOD.MAC	20-NOV-87 23:00		CONFIG - CONFIGURATION DEFINITION - KL

   350			000010	ATBPID==10	;PROCESSOR ID OF THE FILE. IN ATB FOR ACCESS CHECKING.
   351
   352				;THE FOLLOWING LOCATIONS ARE CONTAINED IN BOTH A REAL
   353				; ATB AND DUMMY ATBS.
   354
   355			000011	XP DABOFS,11	;HOW MUCH TO SUBTRACT FROM ADDRESS IN JBTDAB
   356						; TO GET SOMETHING THAT CAN BE INDEXED BY THE
   357						; FOLLOWING WORD VALUES.
   358
   359			000011	ATBSTS==11	;GENERAL STATUS INFORMATION
   360			000011	 ATBDUM==ATBSTS	;WORD WITH "THIS IS A DUMMY ATB BIT" IN IT
   361			400000	 ATPDUM==400000	;THIS IS A DUMMY ATB (MUST BE SIGN BIT)
   362
   363			000021	 ATSUMC==^D17	;COUNT OF NUMBER OF SLOTS MAPPING
   364						; A PAGE FROM THIS FILE WHOSE DP IS NOT IN SPT,
   365						; PLUS ONE IF AN SPT EXISTS.
   366			000021	 ATNUMC==^D17	;ALL BUT SIGN BIT
   367			000001	 ATPUMC==(1B<ATNUMC>) ;FOR INCREMENTING
   368			377777	 ATMUMC==(GENMSK(ATSUMC,ATNUMC))
   369			000011	 ATBUMC==ATBSTS
   370
   371			000010	 ATSCNT==^D8	;COUNT OF NUMBER OF I/O CHANNELS OPEN FOR READ.
   372			000043	 ATNCNT==^D35	;RIGHT JUSTIFIED
   373			000011	 ATBCNT==ATBSTS
   374			000001	 ATPCNT==1B<ATNCNT>
   375			000377	 ATMCNT==GENMSK(ATSCNT,ATNCNT)
   376
   377			000400	 ATPCRE==000400	;CREATE
   378			001000	 ATPSUP==001000	;SUPERCEDE
   379			002000	 ATPREN==002000	;RENAME
   380			004000	 ATPUPD==004000	;SINGLE UPDATE (ALSO USED TO LOCK THE FILE)
   381			010000	 ATPDEL==010000	;MARKED FOR DELETEION
   382			020000	 ATPNDL==020000	;DO NOT ALLOW DELETE, RENAME, SUPERCEDE, ETC
   383			040000	 ATPDIR==040000	;THIS IS A DIRECTORY
   384			100000	 ATPMXU==100000	;THE MAX WRITE COUNT IS UP. (SO DON'T HAVE TO CHECK ANOTHER WORD
   385						; TO SEE IF ATB IS UNUSED.
   386
   387			000012	ATBSPT==12	;SPT AND MAX WRITE WORD
   388						;LH IS SPT POINTER TO FIRST SPT TABLE, RH
   389						; IS MAX WRITE COUNT
   390
   391			000022	 ATSMWC==^D18	;COUNT OF 1) NUMBER OF I/O CHANNELS OPEN FOR UPDATE (BOTH FLAVORS)
   392						; 2) NUMBER OF SLOTS MAPPING A PAGE OF THIS FILE
   393						;THAT HAVE MAX WRITE BIT SET.
   394			000043	 ATNMWC==^D35	;POSITION RIGHT JUSTIFIED SO CAN AOS
   395			000001	 ATPMWC==1B<ATNMWC>
   396			777777	 ATMMWC==GENMSK(ATSMWC,ATNMWC)
   397			000012	 ATBMWC==ATBSPT
   398
   399			000002	XP DABSIZ,ATBSPT-DABOFS+1	;NUMBER OF WORDS PER DUMMY ATB.
   400
   401	000006'	221615	000005	ATYADT:	POINT ATSADT,ATBADT(P2),ATNADT
   402	000007'	001415	000003	ATYCDT:	POINT ATSCDT,ATBCDT(P2),ATNCDT
COMMOD - COMMON DATA LOCATIONS USED BY DISK SERVICE	MACRO 12.5-46.0 14:24 13-JAN-88 PAGE 5-3
COMMOD.MAC	20-NOV-87 23:00		CONFIG - CONFIGURATION DEFINITION - KL

   403	000010'	220615	000004	ATYCSC:	POINT ATSCSC,ATBCSC(P2),ATNCSC
   404	000011'	141315	000003	ATYCTM:	POINT ATSCTM,ATBCTM(P2),ATNCTM
   405	000012'	331115	000003	ATYPRV:	POINT ATSPRV,ATBPRV(P2),ATNPRV
   406	000013'	400415	000004	ATYUF1:	POINT ATSUF1,ATBUF1(P2),ATNUF1
   407	000014'	301015	000004	ATYUF2:	POINT ATSUF2,ATBUF2(P2),ATNUF2
   408	000015'	400215	000005	ATYXCD:	POINT ATSXCD,ATBXCD(P2),ATNXCD
   409	000016'	002715	000003	ATYCTD:	POINT ATSCTM+ATSCDT,ATBCTM(P2),ATNCDT
   410	000017'	073415	000002	ATYBLK:	POINT ATSBLK+ATSPGS,ATBBLK(P2),ATNBLK
   411	000020'	001015	000011	ATYCNT:	POINT ATSCNT,ATBCNT(P2),ATNCNT
   412
   413
COMMOD - COMMON DATA LOCATIONS USED BY DISK SERVICE	MACRO 12.5-46.0 14:24 13-JAN-88 PAGE 6
COMMOD.MAC	20-NOV-87 23:00		CONFIG - CONFIGURATION DEFINITION - KL

   414				COMMENT ; FNB - THE FILE NAME BLOCK, THERE IS ONE OF THESE FOR
   415				EACH FILE IN USE OR DORMANT. THERE MAY BE SEVERAL ATB'S FFOR
   416				EACH FNB IF SOME ARE MARKED FOR DELETION OR THERE IS A SUPERCEDE
   417				AND A READ BLOCK ;
   418
   419				INTERN FNBNAM,FNBLNK,FNBEXT,FNBATB,FNBDRB,FNBRIB,FNBAPD
   420				INTERN FNBSTS,FNBDBL,FNPLOK,FNBLOK,FNYUFP,FNPNX,FNBNX,FNBUPD,FNBALT
   421			000000	FNBNAM==0	;FILE NAME IN SIXBIT
   422			000001	FNBLNK==1	;LH POINTER TO NEXT FNB FOR THIS USER
   423			000001	FNBEXT==1	;RH EXTENSION OF FILE IN SIXBIT
   424			000002	FNBATB==2	;LH POINTER TO ATB'S FOR THIS FILE
   425			000002	FNBDRB==2	;RH POINTER TO DIRECTORY BLOCK (DRB)
   426			000003	FNBRIB==3	;RETRIEVAL POINTER TO FILE RIB
   427			000004	FNBAPD==4	;APPEND WORD (IF UPDATE APPEND MODE)
   428
   429			000005	FNBSTS==5	;A STATUS WORD
   430
   431			000001	 FNSNX==1	;DOES NOT EXIST BIT
   432			000000	 FNNNX==0
   433			000005	 FNBNX==FNBSTS
   434			400000	 FNPNX==400000
   435
   436			000001	 FNSLOK==1	;LOCKED, USED SO FNB NOT TAKEN TO MAKE ATB
   437			000001	 FNNLOK==1
   438			200000	 FNPLOK==200000
   439			000005	 FNBLOK==FNBSTS
   440
   441			000032	 FNSUFP==^D26	;PAGE OF UFD IN WHICH FILE NAME EXISTS (0 IF CRE)
   442			000043	 FNNUFP==^D35
   443			000005	 FNBUFP==FNBSTS
   444
   445			000006	FNBDBL==6	;RH POINTER TO DDB CHAIN OF READERS (FOR INSERT DELETE BLOCK)
   446
   447			000007	FNBUPD==7		;COUNT OF UPDATERS FOR THIS FILE.
   448			000010	FNBALT==10		;PCB DIRTY MONITOR CLOCK FOR FILE. KEEP HERE
   449							; INSTEAD OF ATB SINCE ONLY ONE PER UFD ENTRY, NOT
   450							; ONE PER VERSION OF FILE.
   451
   452				IFN <FNBNAM-CMBNAM>,<PRINTX ERROR IN FNBNAM DEF
   453					QQQQQ>
   454				IFN <FNBLNK-CMBLNK>,<PRINTX ERROR IN FNBLNK DEF
   455					QQQQQ>
   456				IFN <FNBATB-CMBDWN>,<PRINTX ERROR IN FNBATB DEF
   457					QQQQQ>
   458	000021'	003216	000005	FNYUFP:	POINT FNSUFP,FNBUFP(P3),FNNUFP
   459
   460
COMMOD - COMMON DATA LOCATIONS USED BY DISK SERVICE	MACRO 12.5-46.0 14:24 13-JAN-88 PAGE 7
COMMOD.MAC	20-NOV-87 23:00		CONFIG - CONFIGURATION DEFINITION - KL

   461				COMMENT ; DRB - THE DIRECTORY BLOCK. ONE PER USER NAME WITH FILES
   462				OPEN ;
   463
   464				INTERN DRBNAM,DRBLNK,DRBCNT,DRBSTS,DRBRIB,DRBMXA,DRBLOK
   465				INTERN DRBLOG,DRBFNB,DRPLOK,DRBUNM,DRBUN1,DRBALC,DRPLOG
   466
   467				INTERNAL DRYPRV,DRYCNT,DRPNX,DRPMXC,DRMCNT,DRBNX
   468			000000	DRBNAM==0	;NAME OF DIRECTORY (PPN)
   469			000001	DRBLNK==1	;LH NEXT DRB IN SYSTEM
   470
   471			000017	 DRSCNT==^D15	;COUNT OF PEOPLE USING THIS DRB
   472			000043	 DRNCNT==^D35
   473			000001	 DRBCNT==DRBLNK	;RH
   474			100000	 DRPMXC==1B<DRNCNT-DRSCNT>
   475			077777	 DRMCNT==GENMSK(DRSCNT,DRNCNT)
   476
   477			000001	DRBSTS==DRBLNK	;STATUS BITS IN HIGH 3 BITS OF COUUNT
   478
   479			000001	 DRSNX==1	;NX BIT
   480			000024	 DRNNX==^D20
   481			100000	 DRPNX==100000
   482			000001	 DRBNX==DRBSTS
   483
   484			000001	 DRSLOK==1	;INTERLOCK BIT
   485			000023	 DRNLOK==^D19
   486			200000	 DRPLOK==200000
   487			000001	 DRBLOK==DRBSTS
   488
   489			000001	 DRSLOG==1	;USER LOGGED IN BIT, KEEP DRB AROUND
   490			000022	 DRNLOG==^D18
   491			400000	 DRPLOG==400000
   492			000001	 DRBLOG==DRBSTS
   493
   494			000002	DRBFNB==2	;LH FIRST FNB FOR THIS USER
   495			000002	DRBPRV==DRBFNB	;STATUS WORD
   496
   497			000011	 DRSPRV==^D9	;PROTECTION CODE
   498			000043	 DRNPRV==^D35
   499
   500			000002	 DRBSLT==DRBFNB	;SLOT NUMBER OF UFD BLOCK WITH KNOWN HOLE
   501			000011	 DRSSLT==^D9
   502			000032	 DRNSLT==^D26
   503			000003	DRBALC==3	;ALLOCATION LEFT IN THIS DIR (FROM QUOTA IN)
   504			000004	DRBMXA==4	;MAX ALLOCATION HAS EVER BIN (FOR ACCOUNTING)
   505			000005	DRBRIB==5	;RETRIEVAL POINTER TO RIB
   506			000006	DRBUNM==6	;USER NAME (IF KNOWN 0 IF NOT)
   507			000007	DRBUN1==7	;SECOND HALF OF USER NAME (IF KNOWN)
   508
   509				IFN <DRBNAM-CMBNAM>,<PRINTX ERROR IN DRBNAM DEF
   510					QQQQQ>
   511				IFN <DRBLNK-CMBLNK>,<PRINTX ERROR IN DRBLNK DEF
   512					QQQQQ>
   513				IFN <DRBFNB-CMBDWN>,<PRINTX ERROR IN DRBFNB DEF
COMMOD - COMMON DATA LOCATIONS USED BY DISK SERVICE	MACRO 12.5-46.0 14:24 13-JAN-88 PAGE 7-2
COMMOD.MAC	20-NOV-87 23:00		CONFIG - CONFIGURATION DEFINITION - KL

   514					QQQQQ>
   515
   516	000022'	001117	000002	DRYPRV:	POINT DRSPRV,DRBPRV(P4),DRNPRV
   517	000023'	001717	000001	DRYCNT:	POINT DRSCNT,DRBCNT(P4),DRNCNT
   518
   519
COMMOD - COMMON DATA LOCATIONS USED BY DISK SERVICE	MACRO 12.5-46.0 14:24 13-JAN-88 PAGE 8
COMMOD.MAC	20-NOV-87 23:00		CONFIG - CONFIGURATION DEFINITION - KL

   520				COMMENT ; SPT (SHARED PAGE TABLE) DEFINITIONS
   521
   522				THE SHARED PAGE TABLE CONSISTS OF ONE OR MORE SPT SECTIONS,
   523				THE FIRST OF WHICH IS POINTED TO BY AN ATB THROUGH
   524				ATBSPT.  EACH SECTION CONSISTS OF A HEADER, CONTAINING
   525				FORWARD AND BACKWARD LINKS TO OTHER SPT SECTIONS, AND
   526				A BACK LINK TO THE ORIGINATING ATB. ALSO CONTAINED
   527				IN THE HEADER IS A COUNT OF FREE ENTRY SLOTS IN THE SPT
   528				SECTION, FOR FAST INSERTION OF NEW ENTRIES IN THE
   529				SPT.
   530
   531				THE SPT ENTRIES THEMSELVES ARE FOUND AFTER THE HEADER. EACH
   532				ENTRY CONSISTS OF TWO WORDS. ENTRY WORDS OF THE SAME TYPE
   533				APPEAR CONSECUTIVELY, RATHER THAN HAVING EACH TWO WORD ENTRY
   534				CONTIGUOUS IN MEMORY, TO MAKE LOOPS SHORTER. DATA IN THE
   535				ENTRIES CAN BE ACCESS EITHER DIRECTLY OR THROUGH THE BYTE
   536				POINTERS PROVIDED.
   537
   538				SPTS DO NOT COME FROM FILSER CORE. THEY COME FROM DDB FREE CORE.
   539				;
   540
   541			000000	XP SPTBEG,0		;FIRST WORD
   542
   543			000000	 XP SPTBLN,SPTBEG	;LH = BACK LINK TO LAST SPT. SET TO
   544							; ATB+ATBSPT-SPTLNK FOR FIRST
   545							; SPT SECTION SO THAT SPTLNK(AC) CAN STORE
   546							; INTO FORWARD POINTER OF ATB. NOTE THAT
   547							; SPTLNK AND ATBSPT MUST BE IN SAME HALF
   548							; OF A WORD.
   549
   550			000000	 XP SPTNFE,SPTBEG	;RH = NUMBER OF FREE ENTRIES
   551			000004	  XP SPSNFE,^D4		;FIELD IS 4 BITS WIDE (15 ENTRIES)
   552			000043	  XP SPNNFE,^D35	;RIGHT JUSTIFIED FOR AOS AND SOSING.
   553			000001	  XP SPPNFE,1B<SPNNFE>	;RIGHTMOST BIT
   554			000017	  XP SPMNFE,<GENMSK(SPSNFE,SPNNFE)> ;MASK
   555
   556	000024'	000411	000000	  SPYNFE::POINT SPSNFE,SPTNFE(T4),SPNNFE	;BYTE POINTER TO FIELD
   557
   558			000017	 XP SPTNME,1_SPSNFE-1	;NUMBER OF ENTRIES IS THIS.
   559			000017	 XP SPTNMM,<<SPTNME>B<SPNNFE>>	;# entries justified.
   560
   561			000001	XP SPTLNK,SPTBEG+1	;NEXT WORD OF HEADER IS LINK IN LH,
   562			000001	 XP SPTATB,SPTBEG+1	;AND ATB BACK POINTER IN RH, JUST LIKE IN
   563							; OTHER FILSER CORE BLOCKS.
   564
   565			000002	XP SPTEN1,SPTBEG+2	;FIRST ENTRY WORD
   566
   567				;SPT ENTRY DEFINITIONS, RELATIVE TO SPT ENTRY ADDRESS.
   568				; FIRST SPT ENTRY ADDRESS IS SPT SECTION BASE ADDRESS
   569				; PLUS SPTEN1.
   570
   571			000000	XP SPTUSC,0*SPTNME	;USE COUNT. RIGHT JUSTIFIED SO CAN AOS AND SOS
   572			000022	 XP SPSUSC,^D18		;18 BITS WIDE
COMMOD - COMMON DATA LOCATIONS USED BY DISK SERVICE	MACRO 12.5-46.0 14:24 13-JAN-88 PAGE 8-2
COMMOD.MAC	20-NOV-87 23:00		CONFIG - CONFIGURATION DEFINITION - KL

   573			000043	 XP SPNUSC,^D35		;RIGHT JUSTIFIED IN WORD
   574			000001	 XP SPPUSC,1B<SPNUSC>	;RIGHTMOST BIT
   575			777777	 XP SPMUSC,<GENMSK(SPSUSC,SPNUSC)> ;MASK
   576
   577			000000	XP SPTVIR,0*SPTNME	;WORD WITH VIRGIN BIT IN IT
   578			400000	 XP SPPVIR,400000	;ITS THE SIGN BIT. CAN DO SKIPL SPTVIR(T1)
   579
   580			000017	XP SPTPNO,1*SPTNME	;THE NEXT SPTNME WORDS ARE THE DISK PAGE NUMBER
   581							; ALL BY ITSELF FOR QUICK COMPARES IN SRCSPT.
   582
   583			000002	XP SPHSIZ,SPTEN1-SPTBEG	;SIZE OF SPT SECTION HEADER
   584			000040	XP SPTSIZ,<2*SPTNME>+SPHSIZ ;NUMBER OF WORDS IN AN SPT SECTION
   585
   586
COMMOD - COMMON DATA LOCATIONS USED BY DISK SERVICE	MACRO 12.5-46.0 14:24 13-JAN-88 PAGE 9
COMMOD.MAC	20-NOV-87 23:00		CONFIG - CONFIGURATION DEFINITION - KL

   587				;MORE OF SPT DEFINITIONS
   588
   589				;SPT POINTER FORMAT. AN SPT POINTER IS JUST THE SPT SECTION ADDRESS
   590				; CONCATENATED WITH A RIGHT JUSTIFIED SPT ENTRY OFFSET.
   591
   592			000004	XP SPSOFS,SPSNFE	;SIZE OF OFFSET FIELD SAME AS SIZE OF
   593							; FREE ENTRY FIELD. ONE VALUE IS UNUSED.
   594			000043	XP SPNOFS,^D35		;OFFSET IS RIGHT JUSTIFIED.
   595			000017	XP SPMOFS,<GENMSK(SPSOFS,SPNOFS)> ;THE MASK
   596
   597	000025'	000400	000011	SP4OFS::POINT SPSOFS,T4,SPNOFS	;POINTER TO POINTER IN T4
   598
   599			000022	XP SPSBAS,^D18	;ITS AN 18 BIT ADDRESS
   600			000037	XP SPNBAS,^D35-SPSOFS	;STARTS WHERE OFFSET ENDED
   601		000017	777760	XP SPMBAS,<GENMSK(SPSBAS,SPNBAS)> ;A MASK FOR THE BASE
   602
   603	000026'	042200	000011	SP4BAS::POINT SPSBAS,T4,SPNBAS	;BYTE POINTER TO SPT POINTER IN T4
   604
   605
COMMOD - COMMON DATA LOCATIONS USED BY DISK SERVICE	MACRO 12.5-46.0 14:24 13-JAN-88 PAGE 10
COMMOD.MAC	20-NOV-87 23:00		CONFIG - CONFIGURATION DEFINITION - KL

   606				;DEV:	DEVICE DATA BLOCK (ONE FOR EACH ACTIVE SOFTWARE USER CHANNEL)
   607
   608				EXTERN	DSKDSP
   609				INTERN DEVNAM,DEVCHR,DEVIOS,DEVSER,DEVMOD,DEVLOG,DEVBUF,DEVIAD,DEPMGN,DEVBTS
   610				INTERN DEVOAD,DEVRET,DEVPOS,DEVRIB,DEYRPS,NORED,NOWRT,PIDACC
   611				INTERN DEVFLO,DEVSZS,DEVATB,DEVDRB,PTRCHG,DEYSTC,DEV1UN,DEVFUF
   612				INTERN PTRLEN,DEVRB1,DEVRBN,DEVSUP,DEPFLK,DEVLOK
   613				INTERN DDBCOR,DSKDDB,DDBLEN,DEVELB,DEVDBL
   614				INTERN DEVBLK
   615
   616	000027'			DSKDDB:			;ADDRESS OF PROTOTYPE DISK DDB FOR SYSTEM.
   617							; LINKED TO DDB LIST BUT NEVER USED.
   618
   619	000000			PHASE	0
   620
   621	000027'	446353	000000	DEVNAM:!SIXBIT	/DSK/	;DEVICE NAME IN SIXBIT OF STR OR MORE USUALLY GENERIC DSK
   622	000030'	000000	000201	DEVCHR:!XWD 0*HUNGST,201 ;HUNG TIME COUNT, BUFFER SIZE
   623	000031'	000000	000000	DEVIOS:!0		;LH=MONITOR, RH=USER IO STATUS
   624	000032'	000000	000000*	DEVSER:!EXP DSKDSP	;LH=LINK TO NEXT DDB, RH=DISPATCH TABLE ADDRESS
   625							; IN FILSER SAME FOR ALL DISKS
   626	000033'	200007	154407	DEVMOD:!XWD DVIN+DVOUT+DVDSK+DVDIR,154407 ;LH=CHARACTERISTICS, RH=MODES
   627	000034'	000000	000000	DEVLOG:!0		;LOGICAL NAME IN SIXBIT
   628	000035'	000000	000000	DEVBUF:!0		;LH=OUTPUT BUFFER HEADER, RH=INPUT BUFFER HEADER
   629	000036'	000000	000000	DEVIAD:!0		;BIT 13=0, RH=POINTER TO USER INPUT BUFFER
   630			400000	  NORED==400000		;
   631			200000	  NOWRT==200000		;
   632			100000	  PTRCHG==100000	;ON IF RETRIEVAL PNTRS IN DDB HAVE BEEN
   633							;MODIFIED (AND CONSEQUENTLY HAVE TO BE
   634							;WRITTEN OUT TO THE RIB.).
   635			040000	  PIDACC==40000		;SET IF DDB IS SUBJECT TO PID ACCESS RULES.
   636							; (IF LAST UUO HAS UUPPID ON ON EXTENDED BLOCK)
   637
   638	000037'	000000	000000	DEVOAD:!0
   639							;BIT 13=0,BITS 14-17=R, RH=POINTER TO USER OUTPUT BUFFER
   640	000040'	400000	000000	DEVCLS:!BYTE (2) 2 (8)0 (4) 0!;CLASS 2, 0 BLKS FOR IO LIST
   641	000041'	000000	000000	DEVSTS:!0		;WORD FOR DEVICE CONI
   642	000042'	000000	000000	DEVBLK:!0		;THIS REMAINS HERE FOR USE BY
   643							;DIRECTORY-MANIPULATION ROUTINES
   644							;(INSNAM,INSFAK,INSEOF), AND
   645							;GETBLK ROUTINE FILRIB, WHEN THERE
   646							;ARE SPARE RIB PNTRS.
   647			000013	DEVABC==DEVBLK		;(NO LONGER USED FOR DSK, VM SYSTEM)
   648	000043'	000000	000000	DEVBWC:!0		;(NO LONGER USED FOR DSK, VM SYSTEM).
   649	000044'	000000	000000	DEVFIL:!0		;OLD FILE NAME (LAST LOOKUP OR ENTER) - ARG TO FNDFIL
   650	000045'	000000	000000	DEVEXT:!XWD 0,0		;LH=OLD FILE EXTENSION (LAST LOOKUP OR ENTER) -ARG TO FNDFIL
   651			000016	DEVSUP==DEVEXT		;RH=LOC FOR USE BY SUPER IO. WHEN IOSUPR
   652							;IS ON, THIS LOC=0 IF STR IS INITED,
   653							;ELSE IT IS DDB OF UNIT THAT IS INITED.
   654	000046'	000000	000000	DEVPPN:!0		;OLD DIRECTORY NAME (PROJ,R) -NOT ARG TO FNDFIL
   655	000047'	000000	000000	DEVPOS:!0		;BLK POSITION IN FILE, TO BE
   656			000020	DEVREL==DEVPOS ;TEMP DEBUGGING AID.
   657				INTERN DEVREL ;TEMP DEBUGGING AID.
   658							;READ/WRITTEN NEXT INPUT/OUTPUT UUO.
COMMOD - COMMON DATA LOCATIONS USED BY DISK SERVICE	MACRO 12.5-46.0 14:24 13-JAN-88 PAGE 10-2
COMMOD.MAC	20-NOV-87 23:00		CONFIG - CONFIGURATION DEFINITION - KL

   659							;SIGN BIT SET IF USETI/O SET IT AND
   660							;SIMIO HAS NOT YET ADJUSTED UPTPOS
   661	000050'	000000	000000	DEVRET:!XWD ZERO18,0	;RH=CORE  ADR IN DDB OF CURRENT RETRIEVAL POINTER
   662
   663
COMMOD - COMMON DATA LOCATIONS USED BY DISK SERVICE	MACRO 12.5-46.0 14:24 13-JAN-88 PAGE 11
COMMOD.MAC	20-NOV-87 23:00		CONFIG - CONFIGURATION DEFINITION - KL

   664	000051'	000000	000000	DEVLOK:!0		;BOTH HALVES USED BY THE RIB STRUCTURE
   665							;LOCKING ROUTINES.
   666	000052'	000000	000000	DEV1UN:!0		;UNIT DB ADDRESS IF THIS IS SPECIAL
   667							;UNIT IN STR STUFF (ELSE ZERO).
   668	000053'	000000	000000	DEVFLO:!0		;DEVREL ASSOCIATED WITH THE FIRST
   669							;RETRIEVAL POINTER IN THE DDB, OR
   670							;-1 IF NO RET PNTRS IN THE DDB.
   671							;(IF 1ST RET PNTR IS A SPARE RIB PNTR,
   672							;FLO=DEVREL OF THE 1ST REAL RET PNTR
   673							;AT THE BOTTOM OF ITS CHAIN.).
   674	000054'	000000	000000	DEVFUF:!0		;DEVFLO TYPE LOCATION FOR USE BY THE
   675							;ROUTINES IN FILFNX, ETC. THAT READ THE UFD, ETC.
   676	000055'	000000	000000	DEVSZS:!0		;RIBSZS OF THE RIB FROM WHICH THE DDB
   677							;RET PNTRS CAME.  (OR IF = 0, FLAG
   678							;THAT JUST THE PRIME RIB RET
   679							;PNTR IS IN THE DDB.).
   680	000056'	000000	000000	DEVRIB:!0		;DISK POINTER TO THE RIB FROM WHICH
   681							;THE DDB RET PNTRS CAME.
   682	000057'	000000	000000	DEVELB:!0		;TO STORE BLOCK (REALLY PAGE) NUMBER OF ERR
   683	000060'	000000	000000	DEVRPS:!0		;BITS 0 TO 8 ARE THE REL ADDR IN
   684							;RIB OF LAST OF THE DDB RETRIEVAL PNTRS.
   685			000011	  DESRPS==^D9
   686			000010	  DENRPS==^D8
   687			000031	DEVSTC==DEVRPS		;CODE IN CASE SWPCLN NEEDED
   688			000003	  DESSTC==3
   689			000013	  DENSTC==^D11
   690			000031	DEVBTS==DEVRPS		;PLACE FOR SOME STATUS BITS.
   691			000040	  DEPMGN==000040	;BIT 12.
   692			000020	  DEPFLK==000020	;BIT 13. FILE IS LOCKED FOR MODIFYING.
   693							;BITS 14 TO 17 ARE UNDEFINED
   694			000031	DEVDBL==DEVRPS		;RH IS LINK FOR DDBS ON FNB
   695
   696	000061'	000000	000000	DEVRB1:!0		;FIRST RETRIEVAL POINTER GOES HERE IN DDB
   697							;FOR NORMAL IO.  FOR SUPER USETI/O RH
   698							;HAS UNIT DB ADDR.
   699	000033				BLOCK PTRLEN-2	;IN-CORE RET. PTRS HERE 3,4,...RBN-1
   700	000072'	000000	000000	DEVRBN:!0		;LAST RETRIEVAL PTR IN CORE
   701
   702	000073'	000000	000000	DEVATB:!0		;RH=ADDRESS OF ATB.
   703			000044	DEVDRB==DEVATB		;LH=ADDRESS OF DRB.
   704
   705			000004	CORSIZ==4		;NO OF WORDS IN MONITOR FREE CORE BLOCKS
   706			000012	DDBCOR==<.-DEVNAM+CORSIZ-1>/CORSIZ ;NO OF MONITOR FREE CORE BLOCKS FOR DDB
   707			000045	DDBLEN==.-DEVNAM	;LENGTH OF DSK DDB IN WORDS
   708
   709	000074'			DEPHASE
   710
   711	000074'	331104	000031	DEYRPS: POINT DESRPS,DEVRPS(F),DENRPS ;REL POSITION OF LAST DDB
   712							;PNTR IN ITS RIB.
   713	000075'	300304	000031	DEYSTC:	POINT DESSTC,DEVSTC(F),DENSTC	;STATUS CODE FOR SWPCLN
   714
COMMOD - COMMON DATA LOCATIONS USED BY DISK SERVICE	MACRO 12.5-46.0 14:24 13-JAN-88 PAGE 12
COMMOD.MAC	20-NOV-87 23:00		CONFIG - CONFIGURATION DEFINITION - KL

   715				;EACH FILE STRUCTURE HAS ONE HOME FILE: HOME.SYS.  (PREFIX "HOM")
   716
   717				;DATA LOCATIONS IN HOME BLOCK:  (WRITTEN BY PAKCOP PROGRAM)
   718			000000	HOMNAM==:0	;"HOM" IN SIXBIT (WRITTEN BY PAKCOP PROGRAM)
   719			000001	HOMHID==:1	;SIXBIT UNIT ID (WRITTEN BY PAKCOP PROGRAM)
   720
   721				;WRITTEN BY OPTIONAL ONCE ONLY DIALOG:
   722			000002	HOMSNM==:2	;SIXBIT FILE STRUCTURE NAME THIS UNIT BELONGS TO
   723						; 0 INDICATES NOT IN A FILE STRUCTURE
   724						; [IGNORED BY MONITOR WHEN A PACK IS MOUNTED
   725						; FILE STRLST.SYS IS FINAL AUTHORITY FOR THE STR NAME]
   726			000003	HOMNXT==:3	;SIXBIT UNIT ID OF NEXT UNIT IN THIS FILE STRUCTURE.
   727						; 0 IF THIS UNIT IS LAST OR ONLY UNIT IN FILE STRUCTURE.
   728						; [CHECKED BY MONITOR AND OMOUNT CUSP WHENEVER PACK IS MOUNTED]
   729			000004	HOMPRV==:4	;SIXBIT UNIT ID OF PREVIOUS UNIT IN THIS FILE STRUCTURE.
   730						; 0 IF THIS UNIT IS ONLY UNIT IN FILE STRUCTURE.
   731						; [CHECKED BY MONITOR & OMOUNT CUSP WHENEVER PACK IS MOUNTED]
   732			000005	HOMLOG==:5	;SIXBIT LOGICAL UNIT NUMBER WITHIN FILE STRUCTURE OF THIS UNIT
   733						; (E.G. DSKA0,DSKC12)
   734			000006	HOMLUN==:6	;LOGICAL UNIT NUMBER WITHIN FILE STRUCTURE OF THIS UNIT
   735						; [CHECKED BY MONITOR AND OMOUNT CUSP WHENEVER PACK MOUNTED]
   736			000007	HOMSPS==:7	;System pack-set serial number.  e.g. C24 set 3
   737						; LH= System pack-set Id number.  (as above, = ^D 3)
   738						; RH= System number.              (as above, = ^D24)
   739			000010	HOMREF==:10	;NON-ZERO IF FILE STRUCTURE MUST BE REFRESHED
   740						; BECAUSE SOME PARAMETER FOR THIS UNIT HAS BEEN CHANGED
   741						; SET BY DISK ONCE ONLY CODE,CHECKED WHEN SYSTEM IS STARTED
   742						; AND BY OMOUNT WHEN PACK MOUNTED
   743				;HOMSID==:11	;(obsolete) Swap ID - sixbit /UNITID/ of next unit in swap list
   744				;HOMSUN==:12	;(obsolete) Logical unit number in swap list, -1 if not in list
   745				;HOMSLB==:13	;(obsolete) First logical block for swapping
   746				;HOMCFS==:14	;(obsolete) Class for swapping, 0, 1, 2, etc
   747			000014	HOMFEP==:14	;# FE FILE PAGES PER UNIT,,FIRST FE FILE PAGE ON THIS UNIT
   748			000015	HOMSPU==:15	;# SAT PAGES PER UNIT.
   749			000016	HOMOVR==:16	;-# OF PAGES OF OVERDRAW ALLOWED A USER ON THIS STR
   750				  ;WORDS WRITTEN BY REFRESHER:
   751			000017	HOMTAB==:17	;FIRST LOC OF TABLE OF LOG. PAGE NOS OF SYSTEM FILES
   752			000017	HOMSAT==:17	;LOGICAL PAGE NO. WITHIN STR(NOT UNIT) OF 1ST RIB FOR SAT.SYS
   753			000020	HOMHMS==:20	; " FOR HOME.SYS
   754			000021	HOMSPG==:21	; " FOR SPAGES.SYS
   755			000022	HOMCRS==:22	; " FOR CRASH.SAV
   756			000023	HOMSUF==:23	; " SYS UFD
   757			000024	HOMPUF==:24	; " PRINTR UFD
   758			000025	HOMMFD==:25	; " FOR MFD [1,1].UFD
   759			000026	HOMP4C==:26	;PAGES FOR CRASH.SAV FILE..
   760			000027	HOMHSH==:27	;LH IS HASH CONSTANT.
   761			000027	HOMRAN==:27	;RH IS PACK SET IDENTIFIER.
   762			000027	HOMEND==:27	;LAST WORD NOT TO ZERO BY ONCDSK.
   763			444366	HOMDCV==:(SIXBIT/DCV/)	;DSKCLN TYPE VALIDATOR
   764			000030	HOMDCT==:30	;DSKCLN TYPE
   765			000174	HOMSER==:174	;SERIAL NUMBER INCREMENTED ON SYSTEM UP
   766			000774	HOMDAT==:774	;CONTAINS DATE OF LAST PACK COPY
   767			000776	HOMCOD==:PAGCOD	;CONTAINS UNLIKELY CODE, LH=0
COMMOD - COMMON DATA LOCATIONS USED BY DISK SERVICE	MACRO 12.5-46.0 14:24 13-JAN-88 PAGE 12-2
COMMOD.MAC	20-NOV-87 23:00		CONFIG - CONFIGURATION DEFINITION - KL

   768			070717	CODHOM==:070717  ;THE UNLIKELY CODE FOR THE HOME BLOCK
   769			000777	HOMSLF==:PAGSLF	;LH=0, RH=THIS PAGE ADDR WITHIN UNIT (SELF).
COMMOD - COMMON DATA LOCATIONS USED BY DISK SERVICE	MACRO 12.5-46.0 14:24 13-JAN-88 PAGE 13
COMMOD.MAC	20-NOV-87 23:00		CONFIG - CONFIGURATION DEFINITION - KL

   770				;WORD POSITIONS FOR RETRIEVAL INFORMATION BLOCK
   771				;PREFIX "RIB"
   772				;THE FIRST "RIBDDB" LOCATIONS OF THE RIB ARE KEPT IN CORE IN THE
   773				; DDB WHILE THE FILE IS ACTIVE, THEY ARE FLAGGED (DDB).
   774				;SOME OF THE SAME INFORMATION ALSO APPEARS IN THE ACCESS TABLE ENTRY
   775				; THEY ARE FLAGGED (ACT).
   776				;THE ORDER OF THESE ARGUMENTS CORRESPONDS EXACTLY TO THE EXTENDED LOOKUP,
   777				; ENTER, RENAME BLOCKS.  WORDS APPEARING IN EXTENDED LOOKUP, ENTER, RENAME
   778				; ARE FLAGGED WITH (ENT). SEE LEVEL D PROJECT SPECIFICATION FOR MORE
   779				; INFORMATION ON LOOKUP/ENTRY/RENAME ARGUMENTS AND VALUES.
   780				;A FEW EXTRA WORDS WHICH HAVE MEANING FOR UFD'S ONLY HAVE BEEN ADDED
   781				; TO ALL FILES.  THEY HAVE NO MEANING FOR DATA FILES.  THESE WORDS ARE
   782				; FLAGGED (UFD-ONLY).
   783				;ALL QUANTITIES ARE IN BLOCKS EXCEPT THE FILE SIZE (RIBSIZ), WHERE
   784				;USER MAY WANT TO KNOW NO. OF DATA WORDS IN LAST BLOCK
   785
   786					INTERN RIBPPN,RIBNAM,RIBEXT,RIBPRV,RIYPRV,RIBUNM,RIBUN1
   787					INTERN PRTEXC,PRTRED,PRTAPP,PRTUPD,PRTWRT,PRTREN,PRTCPR,RIRXLK,RIRXCR,RIRXRD
   788					INTERN RIBSIZ,RIBVER,RIBSFS,RIBPFS,RIBLST,RIBALP,RIBMXA
   789					INTERN RIBMTA,RIBQTF,RIBQTO,RIBUSD,RIPDIR,RIPPID,RIPALC
   790					INTERN RIBSTS,RIPLOG,RIPHRE,RIPHWE,RIPBDA,RIPBFS,RIPBDR
   791					INTERN RIBRIB,RIBSZS,RIBSNM,RIBRPS,RIBLCW,RIBMSC,RIBPVW
   792					INTERN RIBCOD,CODRIB,RIBSLF,RIBELB,RIBFUT,RIBFT1,RIPUFE
   793					INTERN RIPNDL,RIPNFS,RIBAUT,RIBDEV,RIBPOS,RIBEST,RIBALC
   794					INTERN RBSPAR,RBREAL,RBINDX,RBDLTA,RBLVSP,RBLVPR
   795					INTERN PTSUNI,PTNUNI,PTSPNO,PTNPNO,RIBTRU,RIBXT1,RIBXT2
   796					INTERN RBYUNI,RBYPNO,RBMASK,RBYUN1,RBYUN4,RBYPN1,RB1PNO
   797					INTERN RBYUNA,RBYUNR,RBYUNV
   798					INTERN RIBPJC,RIBPJ1,RIBPJ2,RIBPID,RIBALT	;-
   799
   800			000000	RIBRIB==0	;POINTER TO THE NEXT UPPER RIB, 0 IN PRIME RIB
   801			000001	RIBRPS==1	;LOCATION (WORD) OF POINTER TO THIS RIB IN NEXT UPPER RIB
   802			000002	RIBSZS==2	;NUMBER OF BLOCKS REPRESENTED BY EACH SUBRIB POINTER
   803						;IN THIS RIB
   804			000003	RIBSNM==3	;NUMBER OF SUBRIBS THIS RIB HAS (FIRST LEVEL ONLY)
   805
   806			000004	RIBSFS==4	;FIRST RIB POINTER LOCATION IN A SUBRIB
   807
   808			000004	RIBPPN==4	;(ACT)(DDB) (ENT) PROJECT,PROGRAMMER # IN OCTAL OR PROJECT
   809						; NAME (3 CHAR SIXBIT LEFT JUSTIFIED IN LH) OR PROGRAMMER
   810						; INITIALS (3 CHAR SIXBIT LEFT JUSTIFIED IN RH) (AS LOOKUP ENTER
   811						; RENAME ARG APPEARS AT RIBSIZ POSITION) OF UFD IN WHICH
   812						; THIS FILE APPEARS.  NEVER CONVERTED TO DECIMAL BY MAN OR MACHINE.
   813			000005	RIBNAM==RIBPPN+1;(ACT)(DDB) (ENT) 6 CHAR FILE NAME IN SIXBIT (OR OCTAL PROJECT
   814						; PROGRAMMER NO. OR SIXBIT IF THIS FILE IS MDF OR UFD).
   815			000006	RIBEXT==RIBNAM+1;(ACT)(DDB) (ENT) LH 3 CHAR FILE EXTENSION IN SIXBIT; BITS 24-35
   816			000006	RIBMSC==RIBEXT	; ACCESS DATE. BYTE=RIBACD.
   817			000007	RIBPVW==7	;(ACT)(DDB) (ENT)FILE ATTRIBUTES 0-8 ACCESS CODE, 9-12 MODE, 13-23
   818						; CREATION TIME IN MINUTES SINCE MIDNIGHT, 24-35 CREATION DATE
   819			000007	RIBPRV==RIBPVW	;ANOTHER SYMBOL FOR SAME LOCATION
   820			000011	  RISPRV==^D9
   821			000010	  RINPRV==^D8
   822
COMMOD - COMMON DATA LOCATIONS USED BY DISK SERVICE	MACRO 12.5-46.0 14:24 13-JAN-88 PAGE 14
COMMOD.MAC	20-NOV-87 23:00		CONFIG - CONFIGURATION DEFINITION - KL

   823
   824
   825	000076'	331100	376007	RIYPRV:	POINT RISPRV,RIBPRV+%RIB,RINPRV  ;BYTE POINTER TO ACCESS PRIVILEGES
   826						;ACCESS PRIVILEGES DEFINED IN INCREASING ORDER OF POWER FOR
   827						; DATA FILES (IE NON-DIRECTORY)
   828						; BITS 0-2 FOR ANY JOB WITH MATCHING PROGRAMMER NO.
   829						; (NO MATTER WHAT THE PROJECT)
   830						; BITS 3-5 FOR ANY JOB WITH MATCHING PROJECT NO.
   831						; (NO MATTER WHAT THE R NO.
   832						; BITS 6-8 NEITHER PROJ NOR R MATCH
   833			000001	  PRTEXC==1	;EXECUTE ONLY-IE GET, R,RUN ACCESS
   834			000002	  PRTRED==2	;READ ONLY
   835			000003	  PRTAPP==3	;APPEND (ALLOCATE, DEALLOCATE, APPEND)
   836			000004	  PRTUPD==4	;UPDATE
   837			000005	  PRTWRT==5	;WRITE (SUPERSEDE,TRUNCATE)
   838			000006	  PRTREN==6	;RENAME (CHANGE ATTRIBUTES, NAME, EXT, DIR)
   839			000007	  PRTCPR==7	;CHANGE PRIVILEGE
   840						;ACCESS PROVILEGES FOR DIRECTIORY FILES (RIPDIR SET IN RIBSTS)
   841						; 3 INDEPENDANT ACCESS PRIVILEGES
   842						; BITS 0-2 FOR ANY JOB WITH MATCHING PROG. NO, 3-5 MATCHING PROJ
   843						; 6-8 NEITHER MATCHING
   844			000004	  RIRXLK==4	;1 ALLOWS LOOKUPS IN DIRECTORY
   845			000002	  RIRXCR==2	;1 ALLOWS CREATES IN DIRECTORY
   846						; (IE ADD NAMES WHICH ARE NOT ALREADY THERE)
   847			000001	  RIRXRD==1	;1 ALLOWS DIRECTORY TO BE READ AS A DATA FILE
   848			000010	RIBSIZ==10	;(ACT)(DDB) (ENT) RIGHT ADJUSTED WRITTEN LENGTH
   849						;OF FILE IN WORDS (POSITIVE QUANTITY).
   850						; MAYBE LESS THAN NO. OF WORDS ALLOCATED
   851			000011	RIBVER==RIBSIZ+1;(ENT) VERSION NUMBER (LIKE JOBVER)
   852						; LH=PROGRAMMER NUMBER LAST MAKING CHANGE
   853						; RH=OCTAL VERSION NUMBER NEVER CONVERTED TO DECIMAL
   854						; BY MAN OR MACHINE.
   855			000012	RIBFUT==12	;RESERVED
   856			000013	RIBEST==13	;WAS ESTIMMATED SIZE. TREATED SPECIALLY TO
   857						;MAKE OLD PROGRAMS THAT LOOKED AT IT WORK
   858			000014	RIBALC==14	;SIMMILARY WAS AMMOUNT ALLOCATED
   859			000015	RIBPOS==15	;USED TO BE POSITION ALLOCATED. NOW AVAIL
   860			000016	RIBFT1==16	;ALSO RESERVED
COMMOD - COMMON DATA LOCATIONS USED BY DISK SERVICE	MACRO 12.5-46.0 14:24 13-JAN-88 PAGE 15
COMMOD.MAC	20-NOV-87 23:00		CONFIG - CONFIGURATION DEFINITION - KL

   861			000017	RIBLCW==17	;LICENSE WORD   (this word exactly matches ATBLCW)
   862			020000	  RIPDMP==ATPDMP	;(LH)SET BY MONITOR IF FILE CHANGED, CLEARED
   863							; BY TAPE BACKUP PROGRAM.
   864			010000	  RIPUFE==ATPUFE	;(LH)THIS FILE HAS AN ERROR OF SOME SORT(RIPHWE,
   865							;RIPHRE,RIPBDR,RIPBFS,RIBBDA.).
   866							;NOTE THAT RIPUFE MUST=ATPUFE.
   867			004000	  RIPPID==ATPPID	;(LH)IF UFD, SET BY SYS ADMINISTRATOR TO FLAG
   868							; THAT THIS UFD NEEDS SPECIAL PID STORAGE ACCOUTNING.
   869							; IF FILE, SET/CLEARED BY MONITOR WHEN PID IS
   870							; SET/CLEARED.
   871			002000	  RIPALC==ATPALC	;(LH)FOR FILES, NOT UFDS, SAYS THAT
   872							; THIS FILE HAS HAD AN ALLOCATION CHANGE
   873							; AND THE MONITOR DOESN'T KNOW IF ALL RIBS
   874							; AND SATS AND UFDS HAVE BEEN WRITTEN OUT YET.
   875			000020	RIBMTA==20	;(ENT) 36 BIT TAPE LABEL IF FILE HAS BEEN PUT ON MAGTAPE
   876			000021	RIBDEV==21	;VALUE ONLY-FILE STRUCTURE NAME FILE STARTS ON
   877
   878			000022	RIBSTS==22	;STATUS BITS FOR ALL FILES IN UFD(LH),
   879						; THIS FILE IN RH
   880
   881			400000	  RIPLOG==400000;(LH) IF 1 SAYS USER IS LOGGED IN. SET BY LOGIN CUSP
   882						; RENAME UUO.  SET TO 0 BY LOGOUT CUSP RENAME UUO.
   883						; BIT CHECKED BY LOGIN IN ORDER TO DETERMINE IF
   884						; RIBTOT IS TO BE BELIEVED (IF RIBLOG==1) SYSTEM
   885						; MUST HAVE CRASHED OR BEEN RELOADED WITHOUT LOGGING
   886						; OUT ALL USERS.
   887
   888			000001	  RIPBDA==1	;(LH/RH) 1 IF ANY FILE IN UFD/THIS FILE IN UFD FOUND BAD BY DAMAGE
   889						; ASSESSMENT CUSP
   890			000010	  RIPBFS==10	;(LH/RH) 1 IF ANY FILE IN UFD/THIS FILE IN UFD FOUND BAD BY FAILSAFE
   891						; WHEN READING MAGNETIC TAPE TO RESTORE TO DISK.
   892			000100	  RIPHRE==100	;(LH/RH) 1 IF ANY FILE IN UFD/THIS FILE HAS HARD (3 TIMES)
   893						; READ DATA ERROR DETECTED BY MONITOR.(IODTER)
   894
   895			000200	  RIPHWE==200	;(LH/RH) 1 IF ANY FILE IN UFD/THIS FILE HAS HARD (3 TIMES)
   896						; WRITE DATA ERROR DETECTED BY MONITOR.(IODTER)
   897
   898			002000	  RIPBDR==2000	;(LH/RH) 1 IF ANY FILE IN UFD/THIS FILE IN UFD FOUND BAD BY OPERATING SYSTEM.
   899
   900
COMMOD - COMMON DATA LOCATIONS USED BY DISK SERVICE	MACRO 12.5-46.0 14:24 13-JAN-88 PAGE 16
COMMOD.MAC	20-NOV-87 23:00		CONFIG - CONFIGURATION DEFINITION - KL

   901				INTERN RIPSPP
   902
   903			400000	  RIPDIR==400000;(RH) 1 IF THIS FILE IS A DIRECTORY FILE (UFD OR MFD)
   904						; RATHER THAN A DATA FILE. NEEDED TO PROTECT
   905						; THE SYSTEM FROM THE USER WHO MIGHT TRY
   906						; TO MODIFY A DIRECTORY AS A DATA FILE
   907			200000	  RIPNDL==200000	;(RH)[NO DELETE] 1 IF THIS FILE CANNOT BY
   908						; DELETED EVEN BY A PRIVILEGED PROGRAM.  THESE FILES ARE IN
   909						; SOME SENSE FAKE OR CRUCIAL TO FILE STRUCTURE.
   910						; EG. HOME.SYS, SAT.SYS, MAINT.SYS, BADBLK.SYS
   911						; NAME CHANGED FOR SAVE REASONS AS NO DELETES ABOVE.
   912			040000	  RIPNFS==40000	;(RH)[NO FAILSAFE] 1 IF THIS FILE SHOULD NOT
   913						; BE DUMPED BY FAILSAFE BECAUSE IT IS A FUNNY FILE AND
   914						; SHOULD NOT BE RESTORED OR IS PART OF THE SKELETON
   915						; FILE STRUCTURE.  (BADBLK.SYS,SAT.SYS,HOME.SYS,MAINT.SYS
   916						; RECOV.SYS).  (SNAP.SYS, CRASH.SAV, UFD'S AND MFD
   917						; DO NOT HAVE RIPNFS ON, SO THEY ARE ALL SAVED).
   918			001000	RIPSPP==1000	;FILE HAD DEVPPN=JBTPPN AT CREATION TIME
   919
   920
COMMOD - COMMON DATA LOCATIONS USED BY DISK SERVICE	MACRO 12.5-46.0 14:24 13-JAN-88 PAGE 17
COMMOD.MAC	20-NOV-87 23:00		CONFIG - CONFIGURATION DEFINITION - KL

   921			000023	RIBELB==23	;ERROR BLOCK IN FILE
   922			000024	RIBXT1==24	;EXTRA ARGUMENT
   923			000025	RIBQTF==25	;(UFD ONLY) FIRST COME FIRST SERVE LOGGED IN QUOTA IN TOTAL
   924						; NUMBER OF DATA + RIB BLOCKS (I.E. ALL OVERHEAD BLOCKS TOO
   925						; EXCEPT NOT UFD + ITS RIB - THAT IS CHARGED TO 1,1) ALLOWED THIS
   926						; USER IN THIS DIRECTORY IN THIS FILE STRUCTURE WHILE
   927						; LOGGED-IN.  SET BY LOGINN. SEE THE DRB
   928
   929
   930			000026	RIBQTO==26	;(UFD-ONLY) LOGGED-OUT QUOTA IN TOTAL NUMBER OF DATA + RIB
   931						; BLOCKS ALLOWED THIS USER IN THIS DIRECTORY IN THIS STR
   932						; WHILE LOGGED-OUT.(I.E. ALL OVERHEAD BLOCKS TOO EXCEPT UFD
   933						; + ITS RIB -  THAT'S CHARGED TO 1,1).  SET BY LOGIN FROM ACCT.SYS
   934						; FILE (SO LOGOUT WILL NOT HAVE TO SEARCH ACCT.SYS).
   935						; LOGOUT WILL FORCE USER TO DELETE ENOUGH FILES SO AS TO BE
   936						; BELOW THIS LIMIT.  THIS QUANTITY IS NOT KEPT IN CORE
   937
   938			000027	RIBMXA==27	;MAX USD HAS EVER BEEN. MAY BE USED FOR
   939						;ACOUNTING
   940
   941			000030	RIBUSD==30	;(UFD-ONLY) COUNT OF BLOCKS USED (INCLUDING ALL OVERHEAD BLOCKS)
   942						; WHEN JOB WAS LOGGED OUT
   943						; (PROVIDED LOGBIT=0). WRITTEN BY LOGOUT, READ BY LOGIN.
   944			000031	RIBAUT==31	;PROJ-R # OF AUTHOR OF FILE, IE USER DOING
   945						; CREATE OR SUPERSEDE. (USUALLY THE SAME AS OWNER, IE
   946						; UFD IN WHICH FILE EXISTS, EXCEPT WHEN A FILE
   947						; IS CREATED OR SUPERSEDED IN SOMEONE ELSES UFD)
   948			000032	RIBUNM==32	;FOR UFDS ONLY, THIS AND RIBUN1 ARE THE
   949						;SIXBIT USER NAME.  FOR OTHERS, THESE WORDS
   950						;ARE 0.
   951			000033	RIBUN1==33	;SEE RIBUNM.
   952			000034	RIBTRU==34	;PRIVILEGED ARG FOR EACH CUSTOMER TO DEFINE
   953			000035	RIBXT2==35	;ANOTHER EXTRA ARGUMENT
   954			000036	RIBALP==36	;NUMBER OF PAGES ALLOCATED TO THIS FILE(REALLY)
   955			000037	RIBPJC==37	;FILE PROJECT CODE WORD 0
   956			000040	RIBPJ1==40
   957			000041	RIBPJ2==41
   958			000042	RIBPID==42
   959			000043	RIBALT==43
   960				;(SEE RIBPFS, NEXT PAGE)
   961
COMMOD - COMMON DATA LOCATIONS USED BY DISK SERVICE	MACRO 12.5-46.0 14:24 13-JAN-88 PAGE 18
COMMOD.MAC	20-NOV-87 23:00		CONFIG - CONFIGURATION DEFINITION - KL

   962
   963
   964
   965				;THE NEXT LOCATIONS ARE USED FOR RIB POINTERS. THE RIB POINTERS
   966				;HAVE THE FOLLOWING FORMAT
   967			400000	    RBSPAR==400000
   968				;	BIT 0 POINTER TO A SPARE RIB NOT DATA
   969			200000	    RBREAL==200000
   970				;	BIT 1 IS POINTER TO A REAL PAGE (AS OPPOSED TO JUST A PLACE HOLDER.).
   971			100000	    RBINDX==100000
   972				;	BIT 2 SPECIAL BLOCK (INDEX) SKIP UNLESS MODE 200+N
   973			040000	    RBDLTA==40000
   974				;	BIT 3 POINTER HAS BEEN CHANGED
   975				;
   976			740000	    RBMASK==RBSPAR!RBREAL!RBINDX!RBDLTA
   977
   978			000010		PTSUNI==^D8
   979			000020		PTNUNI==^D16
   980			000023		PTSPNO==^D19
   981			000043		PTNPNO==^D35
   982	000077'	231000	000007	RBYUNI::POINT PTSUNI,T2,PTNUNI
   983	000100'	231000	000006	RBYUN1::POINT PTSUNI,T1,PTNUNI
   984	000101'	231000	000014	RB1UNI::POINT PTSUNI,P1,PTNUNI
   985	000102'	231000	000011	RBYUN4::POINT PTSUNI,T4,PTNUNI
   986	000103'	231015	000000	RBYUNA::POINT PTSUNI,ATBRIB(P2),PTNUNI
   987	000104'	231014	000005	RBYUNR::POINT PTSUNI,DRBRIB(P1),PTNUNI
   988	000105'	231004	000027	RBYUNV::POINT PTSUNI,DEVRIB(F),PTNUNI
   989				;	BITS 9-16 UNIT NUMBER
   990	000106'	002300	000007	RBYPNO::POINT PTSPNO,T2,PTNPNO
   991	000107'	002300	000006	RBYPN1::POINT PTSPNO,T1,PTNPNO
   992	000110'	002300	000014	RB1PNO::POINT PTSPNO,P1,PTNPNO
   993	000111'	002304	000027	RBYPNV::POINT PTSPNO,DEVRIB(F),PTNPNO
   994				;	BITS 17-35 PAGE NUMBER ON UNIT
   995
   996			000051	RIBPFS==51		;FIRST SPOT WHICH CAN BE USED FOR RIB POINTERS
   997
   998
   999			000776	RIBCOD==PAGCOD	;CONTAINS UNLIKELY DATA WORD (I.E., NOT ASCII OR FLOATING POINT)
  1000						;LH=0
  1001			666666	  CODRIB==666666  ; THE UNLIKELY CODE
  1002			000775	RIBLST==RIBCOD-1	;LAST LOCATION FOR POINTERS
  1003			000725	  RBLVPR==RIBLST-RIBPFS+1  ;NO. OF PRIME RIB PNTRS.
  1004			000772	  RBLVSP==RIBLST-RIBSFS+1  ;NO. OF SPARE RIB PNTRS.
  1005			000772	ONELVL==:RBLVSP		;772 = 506. (RBLVPR = 725 = 469.)
  1006			764044	TWOLVL==:RBLVSP*RBLVSP	;764044 = 256036.
  1007
  1008			000777	RIBSLF==PAGSLF	;A POINTER TO THIS RIB ITSELF
COMMOD - COMMON DATA LOCATIONS USED BY DISK SERVICE	MACRO 12.5-46.0 14:24 13-JAN-88 PAGE 19
COMMOD.MAC	20-NOV-87 23:00		Prototype STR Data Block

  1009				SUBTTL	Prototype STR Data Block
  1010
  1011	000112'			STRDDB::	;Currently, this is the ONLY STR DDB
  1012	000000				PHASE	0	; ** Note some code expects STRNAM == STRDDB **
  1013
  1014	000112'	000000	000000	STRNAM::!0	; 0 SIXBIT name of file structure, nonzero if str exists
  1015	000001			STRHSH::!	; 1 RH=hash constant (currently 7 on all structures)
  1016	000113'	000000	000000	STRUNI::!0	; 1 LH=addr of 1st unit data block, linked thru UNISTR
  1017	000002			STRP4C::!	; 2 RH=pages for CRASH.SAV.
  1018	000114'	000000	000000	STRNXT::!0	; 2 LH=addr of next STR data block, zero for last STR
  1019	000003			STRUNM::!	; 3 RH=# of units in this STR
  1020	000115'	000000	000000	STRREF::!0	; 3 LH=non-zero if this STR needs refreshing
  1021	000116'	000000	000000	STROVR::!0	; 4 -# of pages a user is allowed to go over quota (-125)
  1022	000117'	000000	000000	STRTAL::!0	; 5 # of FCFS free pages left in this STR minus safety factor
  1023						;  (safety factor is STVSFC, a MONGEN symbol)
  1024	000120'	000000	000000	STRPPU::!0	; 6 # of pages per smallest unit on this STR
  1025	000007			STRPID::!	; 7 LH=STR pack set ID  (See HOMRAN/RANNO in ONCDSK)
  1026	000121'	000000	000000	STRBTS::!0	; 7 RH=some status bits (bits 18 - 29 are unused)
  1027			000001	  SRPRPT==:1B35  ;A SAT has been found bad since the last report
  1028			000016	  SRPNDS==:7B34  ;DSKCLN needs to be run for this STR if nonzero
  1029			000020	  SRPREF==:1B31  ;This structure has been refreshed
  1030	000122'	000000	000000	STRSID::!0	;STRucture Set IDentifier.  RH=SYSTEM NUMBER
  1031						;LH=Logical pack set designation, eg. A, B, etc.
  1032			000011	STRLEN==:.-STRNAM
  1033
  1034	000123'			DEPHASE
  1035
  1036				IFNDEF NUMSTR,<NUMSTR==:1>		; Default to a single structure
  1037	000123'			NXTSTR:	BLOCK	<NUMSTR-1>*STRLEN	; Additional structures
COMMOD - COMMON DATA LOCATIONS USED BY DISK SERVICE	MACRO 12.5-46.0 14:24 13-JAN-88 PAGE 20
COMMOD.MAC	20-NOV-87 23:00		Prototype STR Data Block

  1038				;WORD POSITIONS IN USER FILE DIRECTORIES
  1039				;PREFIX "UFD"
  1040				;THESE HAVE SAME FORMAT AS THE MFD.
  1041				;NEITHER THE MFD NOR THE UFD NAME APPEAR IN THE UFD.
  1042				;FILE ENTRIES OCCUR IN PAIRS.
  1043
  1044				INTERNAL UFDHSI,UFDLNK,UFDSIZ,UFDRIB,UFYUF1,UFYUF2,UFPERR,UFDERR
  1045				INTERNAL UFDCDT,UFDALP,UFYPRV,UFDNAM,UFDEXT,UFDLIC,UFYXCD
  1046				INTERNAL UFYCTM,UFYCDT
  1047			000000	UFDNAM==0		;SIXBIT FILE NAME
  1048			000001	UFDEXT==1		;LH=SIXBIT EXTENSION
  1049			000001	UFDUF2==1
  1050			000001	UFDERR==UFDUF2
  1051			000010	  UFSUF2==^D8		;UFDEXT bits 19-26 set from .RBLIC bits 4-11
  1052			000032	  UFNUF2==^D26		; (UFPDMP,UFPERR,UFPPID,UFDALC require JL or WC)
  1053				  ;;;;;;==1B18		;unused bit !!!
  1054			200000	  UFPDMP==1B19		;File has been dumped by TITO
  1055			100000	  UFPERR==1B20		;File has some sort of error
  1056			040000	  UFPPID==1B21		;FOR UFD, MEANS SPECIAL PID STORAGE ACCOUNTING, NOT
  1057							; SET BY MONITOR, SET BY USER.
  1058							;FOR REGULAR FILE, SET/CLEARED BY MONITOR WHEN PID
  1059							; IS SET/CLEARED.
  1060			020000	  UFPALC==1B22		;NOT CURRENTLY USED FOR UFD, FOR FILE, MEANS ALLOCATION
  1061							; HAS CHANGED (DSKCLN/FAST LOOKS FOR THIS BIT)
  1062			010000	  UFPTMP==1B23		;SET BY USER TO SAY THAT THIS IS A TMP FILE,
  1063							;EVEN THOUGH IT MAY NOT HAVE THE EXT TMP.
  1064				  ;;;;;;==1B24		;Used by MAGNUM to indicate JIS-8 Katakana file
  1065				  ;;;;;;==1B25		;Unprivileged bit (.RBLIC bit 10)
  1066				  ;;;;;;==1B26		;Unprivileged bit (.RBLIC bit 11)
  1067			000001	UFDPRV==1		;PROTECTION IN UFD
  1068			000011	  UFSPRV==^D9
  1069			000043	  UFNPRV==^D35
  1070			000002	UFDUF1==2
  1071			000004	  UFSUF1==4		;2 privileged and 2 unprivileged bits for .RBLIC
  1072			000004	  UFNUF1==4
  1073			000002	UFDXCD==2		;EXTENDED DATE BITS
  1074			000002	  UFSXCD==2
  1075			000006	  UFNXCD==6
  1076			000002	UFDCTM==2		;CREATION TIME
  1077			000021	  UFSCTM==^D17
  1078			000027	  UFNCTM==^D23
  1079			000002	UFDCDT==2		;CREATION DATE
  1080			000014	  UFSCDT==^D12
  1081			000043	  UFNCDT==^D35
  1082			000003	UFDALP==3		;SPACE ALLOCATED (# OF PAGES IN LH)
  1083			000003	UFDLIC==3		;LICENSE BITS IN RH
  1084			000004	UFDRIB==4	;RETRIEVAL PNTR TO PRIME RIB OF FILE.
  1085
  1086			000007	UFDHSI==7	;THIS IS THE HASH CODE USED TO LOOKUP FILES
  1087			000777	UFDLNK==^D511	;THIS IS WHERE THE LINK TO THE NEXT BLOCK IS
  1088			000005	UFDSIZ==5	;NUMBER OF WORDS/ENTRY
  1089
  1090				;BYTE POINTERS
COMMOD - COMMON DATA LOCATIONS USED BY DISK SERVICE	MACRO 12.5-46.0 14:24 13-JAN-88 PAGE 20-2
COMMOD.MAC	20-NOV-87 23:00		Prototype STR Data Block

  1091
  1092	000123'	111007	376001	UFYUF2:	POINT UFSUF2,%RIB+UFDUF2(T2),UFNUF2
  1093	000124'	370407	376002	UFYUF1:	POINT UFSUF1,%RIB+UFDUF1(T2),UFNUF1
  1094	000125'	001107	376001	UFYPRV:	POINT UFSPRV,%RIB+UFDPRV(T2),UFNPRV
  1095	000126'	350207	376002	UFYXCD:	POINT UFSXCD,%RIB+UFDXCD(T2),UFNXCD
  1096	000127'	142107	376002	UFYCTM:	POINT UFSCTM,%RIB+UFDCTM(T2),UFNCTM
  1097	000130'	001407	376002	UFYCDT:	POINT UFSCDT,%RIB+UFDCDT(T2),UFNCDT
  1098
  1099				;JBTRCT: JBTWCT: JBTMPC: JBTPWS: JBTPWH: JBTPWL: JBTDAB: moved to COMMOD
COMMOD - COMMON DATA LOCATIONS USED BY DISK SERVICE	MACRO 12.5-46.0 14:24 13-JAN-88 PAGE 21
COMMOD.MAC	20-NOV-87 23:00		Prototype STR Data Block

  1100				;STT - SAT TABLE FOR SATS IN CORE AND DISK FOR A UNIT.
  1101				;THERE IS ONE ENTRY FOR EACH SAT ON THE UNIT, EVEN THOUGH NOT
  1102				;ALL SATS ARE KEPT IN CORE.
  1103				;THERE IS AN EXTRA ZERO WORD TO MARK THE END OF EACH STT.
  1104				;
  1105				;AN ENTRY CONSISTS OF:
  1106
  1107				INTERNAL STTFPC,STTPTR,STTAOB,STTSTS,STTLEN,STYINC,STYBAD,STYCHK
  1108				INTERNAL STPINC,STPBAD,STPCHK,STPRPT
  1109
  1110			000000	STTPTR==0	;DISK POINTER TO THIS SAT.
  1111			000001	STTFPC==1	;FREE PAGE COUNT.
  1112			000002	STTAOB==2	;AOBJN WORD.  (NOT REALLY.  REALLY THE LH/
  1113						;-BIT NO IN WORD AND RH/WORD WRS START OF SAT.).
  1114			000003	STTSTS==3	;BITS OF INTEREST.
  1115	000131'	420107	000003	  STYINC: POINT 1,STTSTS(T2),1	;ON IF SAT IS IN CORE IN A PCB.
  1116			200000	  STPINC==200000
  1117	000132'	410107	000003	  STYBAD: POINT 1,STTSTS(T2),2	;ON IF SAT IS BAD.
  1118			100000	  STPBAD==100000
  1119	000133'	400107	000003	  STYCHK: POINT 1,STTSTS(T2),3	;ON IF SAT HAS BEEN CHECKED.
  1120			040000	  STPCHK==40000
  1121			020000	  STPRPT==20000	;ON IF THE SAT NEEDS TO BE REPORTED AS BAD.
  1122
  1123			000004	STTLEN==STTSTS-STTPTR+1
  1124
  1125
COMMOD - COMMON DATA LOCATIONS USED BY DISK SERVICE	MACRO 12.5-46.0 14:24 13-JAN-88 PAGE 22
COMMOD.MAC	20-NOV-87 23:00		Prototype STR Data Block

  1126				;"SYS" - SYSTEM WIDE QUANTITIES
  1127				; NO SPECIAL PREFIX
  1128
  1129				INTERN	MFDPPN,SYSPP,FSFPPN,SPLPPN,SYSDRB
  1130					INTERNAL ACTPPN,CBUSER,CBADR,CNTBLK
  1131				INTERN	SYSDOR,SYSCOR
  1132				INTERN	STNPRT,CUSPPP,DUMPPP,HELPPP,SYSPP,QUEPPN
  1133				INTERN  SYSUNI,LVDTBL,LVDMXL,UFDPRT,SYSPPN,CORNUM,QUESTR,CRUPPN
  1134				INTERN  ETSUNI,ETSGTI,ETSBDT,ETSDCO,ETSDCA,ETSBCN,ETSCCO,ETSCCA
  1135				INTERN  ETSTAB,METSLN
  1136
  1137	000134'			LVDTBL:!	;GETTAB TABLE NO. 16(OCTAL)-LEVEL D DISK PARAMTERS
  1138
  1139	000134'	000001	000001	MFDPPN:	XWD 1,1		;(0)PROJECT-PROGRAMMER NUMBER FOR STORING UFDS ONLY
  1140							;  (ALL OTHER FILE STRUCTURE FILES ARE STORED IN DEVICE SYS
  1141							;  (SEE SYSPPN))
  1142	000135'			CUSPPP:
  1143	000135'			SYSPP:
  1144	000135'	000001	000004	SYSPPN:	XWD 1,4		;(1)PROJ-R NO. FOR DEVICE 'SYS' (I.E. CUSPS,LIBRARY)
  1145							;  DIRECTORIES ARE STORED IN MDFPPN
  1146	000136'			DUMPPP: OPRPPN::
  1147	000136'	000001	000021	FSFPPN:	XWD 1,21	;(2)PROJ-R NO. FOR FAILSAFE - ALL PRIVILEGED PROGRAM
  1148
  1149	000137'	000002	000005	HELPPP:	XWD 2,5		;(3)SYSTAT AND HELP RUN UNDER THIS NUMBER
  1150							;  (IF NOT ALREADY LOGGED IN)
  1151	000140'			QUEPPN:
  1152	000140'	011653	115244	SPLPPN:	XWD 11653,115244;(4)PROJ-R NO. FOR PRINTR SPOOLING PROGRAM
  1153
  1154	000141'	000000	000000	SYSDRB:	XWD 0,0		;(5)LH=FIRST DRB IN FILSER FREECORE
  1155							;  [THIS NEXT COMMENT LOOKS OBSOLETE.../AAA]
  1156							;  RH=CORE ADDRESS OF NEXT PPB BLOCK TO SCAN
  1157							;  NAME LIST TO RECLAIM GRABBABLE NMB BLOCK
  1158							;  IF RH=0 CORE GRABBER SHOULD START OVER AT BEGINNING
  1159							;  OF PPB LIST (I.E., LH OF SYSPPB)
  1160
  1161	000142'	000000	000000		0		;(6) NOT USED
  1162
  1163	000143'	003001'	000003	SYSUNI:	XWD FIRUNI,UNISYS;(7)LH=CORE ADDRESS(DOWNWARD POINTER)OF FIRST UNIT
  1164							;  RH UNUSED
  1165							;  DATA BLOCK IN SYSTEM
  1166							;  RH=UNUSED.
  1167
  1168	000144'	000000	000000		XWD	0,0	;(10) PLACE HOLDER FOR OBSOLETED ENTRY
  1169
  1170							;CORNUM is set nonzero by LINKDB in COMMON
  1171	000145'	000000	000000	CORNUM:	EXP 0		;(11)# PERMANENT FILSER CORE BLOCKS GENERATED AT ONCE ONLY TIME
  1172
  1173	000146'	047000	000000	STNPRT:	XWD PRVFIL*1000,0;(12)STANDARD PRIVILEGE
  1174
  1175	000147'	754000	000000	UFDPRT:	XWD PRVUFD*1000,0;(13)STANDARD UFD PRIVILEGE
  1176							;  SYMBOL PRVUFD SHOULD NOT BE USED. INSTEAD
  1177							;  UFDPRT SHOULD BE USED, SO CAN PATCH STANDARD.
COMMOD - COMMON DATA LOCATIONS USED BY DISK SERVICE	MACRO 12.5-46.0 14:24 13-JAN-88 PAGE 23
COMMOD.MAC	20-NOV-87 23:00		Prototype STR Data Block

  1178				;RIB and SAT PCBs
  1179
  1180				IFNDEF RPCBN,<RPCBN==7>
  1181				IFLE <RPCBN-4>,<RPCBN==5>
  1182	000150'	000000	000020	NMRBPC::EXP RPCBN	;(14) NO. OF SYSTEM-TIME PCBS FOR RIBS (CAN
  1183							;  BE CHANGED AT ONCE ONLY TIME.
  1184
  1185				IFNDEF SPCBN,<SPCBN==17>
  1186				IFLE <SPCBN-4>,<SPCBN==5>
  1187	000151'	000000	000020	NMSTPC::EXP SPCBN	;(15) NO. OF SYSTEM-TIME PCBS FOR SATS (CAN
  1188							;  BE CHANGED AT ONCE ONLY TIME.
  1189
  1190	000152'	000000	000000	QUESTR:	0		;(16) SIXBIT NAME OF FILE STRUCTURE
  1191							;  FOR QUEUEING PROGRAMS LIKE PRINT,UMOUNT, ETC
  1192							;  SETUP BY MANDATORY ONCE ONLY CODE TO BE
  1193							;  THE FIRST(FASTEST) STR WHICH IS UP(TABSTR(0)).
  1194
  1195	000153'	000006	000270	ACTPPN:	XWD 6,270	;(17)ACCOUNTING, JL ON CAN ACCESS THESE
  1196
  1197	000154'	000010	000001	CRUPPN:	XWD	10,1	;(20) UFD FOR DUMPING CRASHES
  1198
  1199	000155'	000000	000040	LKBSIZ:	EXP UUXENT	;(21) SIZE OF LARGEST MEANINGFUL
  1200							;  EXTENDED LOOKUP BLOCK
  1201
  1202			021000	LVDMXL==<.-LVDTBL-1>B26	;END OF GETTAB TABLE
  1203
  1204
  1205
  1206				IFG FTAUN,<EXTERN SYDFTA>	;Routine for SYSDVF function 4
  1207				IFE FTAUN,<XP SYDFTA,0>
  1208				IFG MAGUN,<EXTERN SYDTMX>	;Routine for SYSDVF function 5
  1209			000000	IFE MAGUN,<XP SYDTMX,0>
  1210
COMMOD - COMMON DATA LOCATIONS USED BY DISK SERVICE	MACRO 12.5-46.0 14:24 13-JAN-88 PAGE 24
COMMOD.MAC	20-NOV-87 23:00		Prototype STR Data Block

  1211				;SYSTEM VARIABLES NOT IN GETTAB:
  1212
  1213	000156'	000000	000000	SYSDOR:	XWD 0,0		;BEGINNING OF DORMANT ACCESS BLOCK LIST FOR SYSTEM
  1214							;LH=ADDRESS OF FIRST DORMANT ACCESS BLOCK IN SYSTEM
  1215							;LH=0 IF NO DORMANT ACCESS BLOCKS
  1216							;RH=ADDRESS OF LAST DORMANT ACCESS BLOCK IN SYSTEM
  1217	000157'	000157'	000000	SYSCOR:	XWD .,ZERO18	;BEGINNING OF PERMANENT FILSER CORE BLOCK LIST
  1218							;LH=ADDRESS OF FIRST FREE FILSER CORE BLOCK,RH=0 ALWAYS
  1219							; IF NO FREE BLOCKS, WHOLE WORD=0.
  1220							; BLOCKS ARE LINKED TOGETHER BY CORLNK WORD.
  1221
  1222	000160'	000000	000000	CORBAS::0		;CONTAINS BASE ADDRESS OF FILSER CORE BLOCKS
  1223							; FOR ATB POINTER COMPUTATIONS.
  1224
  1225			000035	MFDSZ==:1+7+7+7+7	;Largest MFD was 25 pages in December 1986
  1226			000017	SYSSZ==:1+7+7		;Largest SYS.UFD was 15 pages in December 1986
  1227	000161'	777743	000164'	SPUFDS::-MFDSZ,,MFDRIB	;Watch out for (UFD)=[1,1]
  1228	000162'	777761	000221'		-SYSSZ,,SYSRIB	;Watch out for (SYS)=[1,4]
  1229	000163'	000000	000000		0		;End of SPecial UFDS list
  1230
  1231	000164'			MFDRIB::BLOCK MFDSZ	;RETRIEVAL POINTER TO PRIME RIB OF [1,1].UFD
  1232	000221'			SYSRIB::BLOCK SYSSZ	;RETRIEVAL POINTER TO PRIME RIB OF [1,4].UFD
  1233
  1234
  1235				;SOFTWARE ERROR TESTING - SET AND CLEAR SELECTED CONI OR DATAI ERROR BIT
  1236				; N TIMES AFTER M TIMES
  1237				; .FSETS M ARGS ARE IN SAME ORDER AS BELOW:
  1238	000240'	000000	000000	ETSUNI:	0		;(0) CONTAINS UNIT DATA BLOCK ADDRESS OF
  1239							; A UNIT WHICH IS BEING ERRROR TESTED WITH
  1240							; .FSETS UUO.  IF THIS LOC CONTAINS 0, NO
  1241							; ERROR TESTING (FOLLOWING LOC ARE IGNORED)!
  1242	000241'			ETSTAB:			;0TH ENTRY FOR ARG PICKUP LOOP
  1243	000241'	000000	000000	ETSGTI:	0		;(1)NO, OF GOOD TRANSFER INTERRUPTS BEFORE BAD TIMES
  1244	000242'	000000	000000	ETSBDT:	0		;(2)NO. OF BAD DATAI BEFORE CLEARING ETSUNI
  1245	000243'	000000	000000	ETSDCO:	0		;(3)ERROR DATAI BITS ORED WITH DATAI BITS
  1246	000244'	000000	000000	ETSDCA:	0		;(4)ERROR DATAI BITS ANDCMED WITH DATAI BITS
  1247	000245'	000000	000000	ETSBCN:	0		;(5)NO. OF BAD CONI BEFORE CLEARING ETSUNI
  1248	000246'	000000	000000	ETSCCO:	0		;(6)ERROR CONI BITS ORED WITH CONI BITS
  1249	000247'	000000	000000	ETSCCA:	0		;(7)ERROR CONI BITS ANDCMED WITH CONI BITS
  1250			000007	ETSLEN==.-ETSTAB	;LENGTH OF .FSETS ARGS
  1251		777777	777771	XP METSLN,-ETSLEN
  1252
  1253	000250'	000000	000000	CBUSER:	0		;USER OF CB QUE (FOR ERROR TRACING)
  1254				;ALL THE FOLLOWING HAVE F IN LH ADR OF CALL IN RH FOR ERROR TRACE
  1255	000251'	000000	000000	CBADR:	0
  1256	000252'	000000	000000	CNTBLK:	0
  1257
  1258	000253'	435664	425453		GTLNK (CNTBLK)
  1259	000254'	000001	000000
  1260	000255'	000252'	000253'
  1261					;.LINK for .GTLNK
  1262
  1263							; DEVICE SYS. (4 BIT BYTES ENDED WITH BYTE FSNEND
COMMOD - COMMON DATA LOCATIONS USED BY DISK SERVICE	MACRO 12.5-46.0 14:24 13-JAN-88 PAGE 24-2
COMMOD.MAC	20-NOV-87 23:00		Prototype STR Data Block

  1264							; OR OFF THE END OF WORD, IE MAX OF 9 BYTES)
COMMOD - COMMON DATA LOCATIONS USED BY DISK SERVICE	MACRO 12.5-46.0 14:24 13-JAN-88 PAGE 25
COMMOD.MAC	20-NOV-87 23:00		Prototype STR Data Block

  1265				;BAD ALLOCATION FILE.
  1266
  1267				; A (DUPLICATED) PAGE IN HOME.SYS.
  1268				; PROGRAMS SEARCHING HOME.SYS SHOULD LOOK FOR SIXBIT IDENTIFICATION IN
  1269				; FIRST WORD OF EACH PAGE.
  1270
  1271				INTERNAL BATNBB,BAYNBB,BA1NBB,BATREG,BATFIR,BRMAX,BATPAT
  1272				INTERNAL CODBAT,BANNBB,BASNBB,BATNAM,BATSLF,BATCOD
  1273				INTERNAL BATCNT,BATELB,MAPBIT
  1274
  1275				;NOTE: The comments here apply to the MAP subroutine in DEC's disk
  1276				;      formatting program.  Tymshare's PAKCOP program is different.
  1277
  1278			000000	BATNAM==PAGNAM	;CONTAINS SIXBIT /BAT/ FOR IDENTIFICATION
  1279			000001	BATFIR==1	;LH=-MAX. POSSIBLE NO. OF WORDS FOR BAD REGIONS MAP PROGRAM
  1280						; AND MONITOR CAN ADD BEFORE PAGE FILLS UP
  1281						;RH=REL ADR. WITHIN THIS PAGE OF FIRST BAD REGION PAIR
  1282						; MAP PROGRAM FORCES LH TO BE EVEN NUMBER.
  1283						;ALL PROGRAMS SHOULD SCAN THE BAT PAGE BY STARTING WITH THIS WORD
  1284						; RATHER THAN KNOWING WHERE DATA PAIRS START.  IN THIS WAY
  1285						; ADDITIONAL HEADER WORDS CAN BE ADDED WITHOUT INVALIDATING ANY
  1286						; PROGRAMS WHICH READ BAT PAGE.
  1287						;BOTH HALVES WRITTEN BY MAP PROGRAM AND NEVER CHANGED BY MONITOR
  1288			000002	BATPAT==2	;TOTAL NUMBER OF BAD PAGES
  1289
  1290			000003	BATCNT==3	;NO. OF DISTINCT BAD REGION WORD PAIRS
  1291
  1292			000004	BATREG==4	;FIRST BAD REGION WORD GOES HERE. THIS SYMBOL NEVER APPEARS IN
  1293						; ANY CODE WHICH READS BAT PAGE - EXCEPT MAP PROGRAM OR OPTIONAL
  1294						; ONCE ONLY CODE WHICH WRITES IT THE FIRST TIME.  INSTEAD SEE
  1295						; RH OF BATFIR
  1296						;NOTE: BATREG MUST BE AN EVEN NUMBER
  1297
  1298				;THE MAP PROGRAM IS NOT PART OF THE MONITOR - IT RUNS AS A STAND-ALONE PROGRAM
  1299				; WHICH WRITES AN INITIAL BAT PAGE WITH ALL THE BAD REGIONS IT FINDS.
  1300				;BOTH THE MAP PROGRAM AND THE MONITOR WRITE TWO WORD ENTRIES OF THE SAME FORMAT
  1301				;THE MONITOR ADDS TWO-WORD ENTRIES WHENEVER IT FINDS BAD REGIONS
  1302				;WHILE READING, WRITING, OR POSITIONING (READ OR WRITE)
  1303				;THE MAP PROGRAM AND MONITOR STORE LOGICAL RATHER THAN PHYSICAL ADDRESSES
  1304
  1305			000000	BATNBB==0	;(1 OF 2 WORDS) NUMBER OF BAD SECTORS-1 IN THIS BAD REGION
  1306			000777	  BATNUM==777	;MAX NUMBER OF BAD PAGES IN A REGION-1
  1307			000011	  BASNBB==^D9	;BYTE SIZE
  1308			000010	  BANNBB==^D8	;BYTE PTR. POS.
  1309		000400	000000	MAPBIT==1B9	;SET BY MAP PROGRAM IF DATE IS UNKNOWN TO MAKE NON-ZERO
  1310						;BITS 18-35 ARE DATE OF ENTRY IN TYMCOM-X FORMAT
  1311	000256'	331107	000000	BAYNBB:	POINT BASNBB,BATNBB(T2),BANNBB		;BYTE PTR
  1312	000257'	331106	376000	BA1NBB:	POINT BASNBB,%RIB+BATNBB(T1),BANNBB	; Used in (CORE1)
  1313
  1314			000001	BATELB==1	;(2 OF 2 WORDS) ERROR LOGICAL SECTOR ADR. WITHIN UNIT
  1315						;BLOCK NUMBER IF FORMATTED IN BLOCKS, ELSE PAGE NUMBER
  1316
  1317			000776	BATCOD==PAGCOD	;CONTAINS UNLIKELY CODE
COMMOD - COMMON DATA LOCATIONS USED BY DISK SERVICE	MACRO 12.5-46.0 14:24 13-JAN-88 PAGE 25-2
COMMOD.MAC	20-NOV-87 23:00		Prototype STR Data Block

  1318						;LH=0
  1319			505050	CODBAT==505050	;UNLIKELY CODE FOR BAT PAGE
  1320			000777	BATSLF==PAGSLF	;LH=0, RH=THIS PAGE(NOT CLUSTER) AADR. WITHIN UNIT
  1321
  1322			000772	BRMAX==BATCOD-BATREG	;MAX LENGTH OF AREA FOR APPENDING BAD REGIONS
COMMOD - COMMON DATA LOCATIONS USED BY DISK SERVICE	MACRO 12.5-46.0 14:24 13-JAN-88 PAGE 26
COMMOD.MAC	20-NOV-87 23:00		Prototype STR Data Block

  1323				;DEFINE PROTECTION LEVELS AND UFD PROTECTION BITS
  1324
  1325				;UFD
  1326
  1327			000004	UFRXLK==4	;"TRANSPARENT" UFD
  1328			000002	UFRXCR==2	;CAN CREATE NEW FILE
  1329			000001	UFRXRD==1	;CAN READ UFD AS A FILE
  1330
  1331				INTERNAL UFRXLK,UFRXCR,UFRXRD
  1332
  1333				;PROTECTION FUNCTIONS. NESTED
  1334
  1335			000001	FNCLOK==1	;LOKUP ONLY
  1336			000002	FNCEXC==2	;EXECUTE
  1337			000003	FNCRED==3	;READ
  1338			000004	FNCAPP==4	;APPEND
  1339			000005	FNCUPD==5	;UPDATE
  1340			000006	FNCCRE==6	;CREATE
  1341			000007	FNCCAT==7	;CHANGE ATRIBUTES
  1342			000010	FNCCNM==10	;CHANGE NAME
  1343			000011	FNCCPR==11	;CHANGE PROTECTION
  1344			000012	FNCSUP==12	;SUPERCEDE
  1345			000013	FNCTRN==13	;TRUNCATE
  1346			000014	FNCDEL==14	;DELETE
  1347
  1348				INTERNAL FNCLOK,FNCEXC,FNCRED,FNCAPP,FNCUPD,FNCCRE
  1349				INTERNAL FNCCAT,FNCCNM,FNCCPR,FNCSUP,FNCTRN,FNCDEL
COMMOD - COMMON DATA LOCATIONS USED BY DISK SERVICE	MACRO 12.5-46.0 14:24 13-JAN-88 PAGE 27
COMMOD.MAC	20-NOV-87 23:00		Prototype STR Data Block

  1350				;CHN:	CHANNEL DATA BLOCK
  1351
  1352				;THESE LOCATIONS ARE SET, LOOKED AT AND CHANGED BY FILIO.
  1353				;DEVICE DEPENDENT MODULES DO NOT LOOK AT THEM.
  1354				;PARAMETERS FOR CHNCB:
  1355
  1356				INTERN CHNN	;Number of DF10-like channels, 1 for KS/F3, 0 for KI/KL
  1357
  1358					DEFINE	CHNCB <
  1359
  1360				$CHUNN==0	;UNIT NUMBER WITHIN CHANEL
  1361				$KCHNN==0	;KONTROLER NUMBER WITHIN CHANNEL
  1362
  1363					;Note: BP and FT use SACCB instead of CHNCB
  1364				REPEAT %KNCHN(\$CHN,FH),<KONTCB FH>
  1365				REPEAT %KNCHN(\$CHN,DP),<KONTCB DP>
  1366				REPEAT %KNCHN(\$CHN,MD),<KONTCB MD>
  1367				REPEAT %KNCHN(\$CHN,RM),<KONTCB RM>
  1368				REPEAT %KNCHN(\$CHN,AP),<KONTCB AP>
  1369
  1370				IFN $CHUNN,<NMCHUN(\$CHN,\$CHUNN)==NMCHUN(\$CHN,0)>
  1371
  1372				%NCH(INTERNAL,\$CHN)	;Define CHN0CB::
  1373				CHNBSY==:0	;;MAKE SURE FIRST ENTRY IN DATA BLOCK ELSE MACRO ERROR
  1374				NMCH(\$CHN):0	;;0 IS IDLE, NEGATIVE IS BUSY
  1375						;; MUST BE WORD 0 OF CHN DATA BLOCK
  1376						;; SO AOSG @KONCHN(J) WILL TEST BUSY AND SET
  1377						;; BUSY IN ONE INSTRUCTION
  1378				NMKCN(\$CHN,\$KCHNN)==0
  1379				$CHN==$CHN+1
  1380				>	;END MACRO DEF OF CHNCB
COMMOD - COMMON DATA LOCATIONS USED BY DISK SERVICE	MACRO 12.5-46.0 14:24 13-JAN-88 PAGE 28
COMMOD.MAC	20-NOV-87 23:00		Prototype STR Data Block

  1381				;SA-10 DATA BLOCKS AND CHANNEL DATA BLOCKS
  1382
  1383				COMMENT ;
  1384
  1385				THE SA-10 STRUCTURE IS CONTROLLED BY THE FOLLOWING SYMBOLS:
  1386
  1387					SAXN	- IS THE NUMBER OF SA-10'S CONNECTED TO THE SYSTEM.
  1388						  FOR EACH SA-10, (#=THE NUMBER OF THE SA-10)
  1389					SAX#	- IS THE DEVICE MNEMONIC
  1390					SA#INT	- IS THE INTERUPT LOCATION
  1391					SAXC#N	- IS THE NUMBER OF CHANNELS ON THIS SA-10
  1392					BP<#1><#2> IS THE NUMBER OF 3330'S ON THE CHANNEL WHERE:
  1393							<#1> IS THE SA-10 NUMBER
  1394							<#2> IS THE CHANNEL NUMBER
  1395					FT<#1><#2> IS THE NUMBER OF 3420'S (MAGTAPES)
  1396				;
  1397
  1398			000274	SAX0==274		;DEVICE CODE FOR FIRST SA-10 IBM DISK/TAPE CONTROLLER
  1399			000400	SAX1==400		;            FOR SECOND SA-10
  1400
  1401				DEFINE SAXCB(NUM)<LALL	;; GENERATE THE SA-10 CHANNEL BLOCKS
  1402					$SAXCN==0
  1403				    REPEAT SAXC'NUM'N,<SACCB (NUM,\$SAXCN)>
  1404
  1405				SA'NUM'INT::CONSO SAX'NUM,1B18	;Is the SA10 requesting an interrupt?
  1406					 JRST .-.
  1407					JSR SAXSAV##		;Yes, save ACs
  1408					JSP M,SAXINT		;Point to SAX0CB
  1409
  1410				SAX'NUM'CB::
  1411					PHASE 0
  1412				SAXCNI::! CONI SAX'NUM,T1
  1413				SAXCNO::! CONO SAX'NUM,(T1)
  1414				SAXDTI::! DATAI SAX'NUM,T1
  1415				SAXCHL::!			;Pointers to channel blocks
  1416					%%XXQ=0
  1417				    REPEAT SAXC'NUM'N,<
  1418					NMSCH(NUM,\%%XXQ)
  1419					%%XXQ==%%XXQ+1
  1420				    > ; End REPEAT SAXC'NUM'N
  1421
  1422				    REPEAT 4-SAXC'NUM'N,<0>	;Zero for unused channels
  1423					DEPHASE
  1424
  1425				> ; End DEFINE SAXCB
  1426
  1427				DEFINE SACCB(XNUM,CNUM)<	;; NOW THE SA-10 CHANNEL BLOCK
  1428
  1429				IFE BP'XNUM'CNUM+FT'XNUM'CNUM,<SC'XNUM'CNUM'CB==:0>
  1430				IFN BP'XNUM'CNUM+FT'XNUM'CNUM,<
  1431					$SAXUN==0	;NUMBER OF UNITS (MAX)
  1432					$CHUNN==0	;NUMBER OF UNITS (ACTUAL)
  1433					$KCHNN==0
COMMOD - COMMON DATA LOCATIONS USED BY DISK SERVICE	MACRO 12.5-46.0 14:24 13-JAN-88 PAGE 28-2
COMMOD.MAC	20-NOV-87 23:00		Prototype STR Data Block

  1434				    REPEAT BP'XNUM'CNUM,<KONTCB (BP)>
  1435				    REPEAT FT'XNUM'CNUM,<KONTCB (FT)>
  1436				    IFN BP'XNUM'CNUM,<NMCHUN(\$CHN,\$CHUNN)==NMCHUN(\$CHN,0)>
  1437					NMKCN(\$CHN,\$KCHNN)==0
  1438
  1439				SC'XNUM'CNUM'CB::	;SC00CB is tapes (FTA), SC01CB is disks (BPA,BPB...)
  1440				NMCH(\$CHN)::
  1441					PHASE 0
  1442				CHNBSY::! 0	;NORMALLY CHANNEL BUSY
  1443				CHNSTB::! SAXBAS##+XNUM*^D16+CNUM*4+1	;Address of status word in low core
  1444				CHNGO::!  CONO SAX'XNUM,4B29+1B30+<CNUM>B32+SAXCHN##	;Set GO (and PIA)
  1445				CHNCLR::! CONO SAX'XNUM,6B29+0B30+<CNUM>B32+SAXCHN##	;Dismiss interrupt
  1446				CHNIIE::! CONO SAX'XNUM,7B29+1B30+<CNUM>B32+SAXCHN##	;Enable interrupt
  1447				CHNMER::! 0			;Location of memory error
  1448				CHNACT::! 0			;Number of interrupts since reload
  1449				CHNKON::! NMKCN(\$CHN,0)	;Pointer to first KON on this CHN
  1450				CHNBMX::! REPEAT $SAXUN,<-1>	;Block MUX list
  1451							0	;Zero at end of list
  1452					DEPHASE
  1453					$CHN==$CHN+1
  1454				> ; End IFN BP'XNUM'CNUM+FT'XNUM'CNUM
  1455					$SAXCN==$SAXCN+1
  1456				> ; End DEFINE SACCB
COMMOD - COMMON DATA LOCATIONS USED BY DISK SERVICE	MACRO 12.5-46.0 14:24 13-JAN-88 PAGE 29
COMMOD.MAC	20-NOV-87 23:00		Prototype STR Data Block

  1457				;SA10 COMMON INTERUPT CODE
  1458				EXTERNAL EPT,CURUPT
  1459
  1460				IFN SAXN,<
  1461	000260'	256013	000000	SAXINT:	XCT	SAXCNI(M)	;Do <CONI SAX,T1>
  1462	000261'	602300	300000		TRNE	T1,1B19!1B20	;Parity error or NXM?
  1463	000262'	254000	000330'		 JRST	SAXMEM		;Yes
  1464	000263'	200440	000006		MOVE	T4,T1		;Save a copy of CONI bits
  1465	000264'	405300	000170		ANDI	T1,170		;Keep only the "Status Available" flags
  1466	000265'	243300	000276'		JFFO	T1,SAXIN1	;Determine which channel caused interrupt
  1467				;P035/B09 - try to handle spurious SA10 interrupts better.  They should
  1468				; never happen if the hardware is working.  Failure to clear it causes
  1469				; looping at Channel 3 and KAF (Keep Alive Failure).
  1470	000266'	201300	400000		MOVEI	T1,1B18		;Reset SA10 (clear PIA)
  1471	000267'	256013	000001		XCT	SAXCNO(M)	; ...
  1472	000270'	202440	000275'		MOVEM	T4,SAXIN0	;Store CONI that has no bits set
  1473	000271'	256000	033631'		 STOPCD (.+1,INFO,SAXINX,PRTT4##,<Spurious SA-10 interrupt>)
  1474				 ;;SAXINT+5
  1475	000272'	201300	000000*		MOVEI	T1,SAXCHN	;Set PIA
  1476	000273'	256013	000001		XCT	SAXCNO(M)	; ...
  1477	000274'	263040	000000		POPJ	P,		;Wait for hung timer to restart things
  1478
  1479	000275'			SAXIN0:	BLOCK	1		;Spurious CONI bits
  1480
  1481	000276'	200300	000007	SAXIN1:	MOVE	T1,T2		;Get bit number (29 thru 32)
  1482	000277'	271313	777746		ADDI	T1,SAXCHL-^D29(M);Convert to 0 thru 3 and add
  1483	000300'	336146	000000		SKIPN	PG,(T1)		;Get pointer to channel
  1484	000301'	254000	000321'		 JRST	SAXIGN		;Unused channel, dismiss it
  1485	000302'	350003	000006		AOS	CHNACT(PG)	;Count interrupts from active channel
  1486	000303'	135340	033635'		LDB	T2,[POINT 8,@CHNSTB(PG),23]	;Get unit address (8 bits)
  1487	000304'	505447	400000		HRLI	T4,400000(T2)	;Copy unit for MOVEM T4,SAXIN0
  1488	000305'	550103	000007		HRRZ	J,CHNKON(PG)	;Chain of channels on this controller
  1489	000306'	322100	000321'		JUMPE	J,SAXIGN	;J is never zero
  1490	000307'	550402	000017	SAXLP1:	HRRZ	T3,KONBSU(J)	;Get lowest unit addr this Kon handles
  1491	000310'	315340	000010		CAMGE	T2,T3		;Within range?
  1492	000311'	254000	000315'		 JRST	SAXLP2		;No
  1493	000312'	550402	000020		HRRZ	T3,KONUMX(J)	;Get highest unit addr this Kon handles
  1494	000313'	315340	000010		CAMGE	T2,T3		;Within range?
  1495	000314'	254022	000021		 JRST	@KONSNT(J)	;Yes, go to BPXINT or FTXINT
  1496	000315'	554102	000015	SAXLP2:	HLRZ	J,KONCHN(J)	;Next in chain
  1497	000316'	326100	000307'		JUMPN	J,SAXLP1	;Try next KON
  1498				;Change in P035/C02 - Assume BPA or FTA for unit address X'00'
  1499	000317'	550103	000007		HRRZ	J,CHNKON(PG)	;Bad unit address (such as 0)
  1500	000320'	254022	000021		JRST	@KONSNT(J)	;Let Kontroller "A" handle it
  1501
  1502	000321'	202440	000275'	SAXIGN:	MOVEM	T4,SAXIN0	;Store CONI that has no bits set
  1503	000322'	256000	033636'		 STOPCD (.+1,INFO,SAXINY,PRTT4##,<SA-10 interrupt ignored>);;SAXIGN+0
  1504	000323'	275313	000003		SUBI	T1,SAXCHL(M)	;Get channel number 0 thru 3
  1505	000324'	242300	000003		LSH	T1,3		;Put in bits 31-32
  1506	000325'	435300	000600*		IORI	T1,0B30+6B29+SAXCHN ;Clear status for chan, set PIA
  1507	000326'	256013	000001		XCT	SAXCNO(M)	;(this clears the interrupt request)
  1508	000327'	263040	000000		POPJ	P,
  1509
COMMOD - COMMON DATA LOCATIONS USED BY DISK SERVICE	MACRO 12.5-46.0 14:24 13-JAN-88 PAGE 29-2
COMMOD.MAC	20-NOV-87 23:00		Prototype STR Data Block

  1510
  1511				;SA-10 detected memory error
  1512
  1513	000330'	200340	000006	SAXMEM:	MOVE	T2,T1
  1514	000331'	201300	000020*		MOVEI	T1,2B32+SAXCHN	;GET SET TO FIND CORRECT CHANNEL
  1515	000332'	256013	000001		XCT	SAXCNO(M)
  1516	000333'	256013	000002		XCT	SAXDTI(M)
  1517	000334'	135300	033642'		LDB	T1,[POINT 2,T1,17] ;GET NO. OF CHANNEL WITH BAD MEMORY REF.
  1518	000335'	271313	000003		ADDI	T1,SAXCHL(M)
  1519	000336'	336146	000000		SKIPN	PG,(T1)		;GET R=CHAN DDB ADDRESS.
  1520	000337'	256000	033643'		 STOPCD (.,CPU,SAXMM1,,<Spurious SA-10 memory error>)
  1521				 ;;SAXMEM+7
  1522	000340'	405340	700000		ANDI	T2,7B20		;GET BITS
  1523	000341'	517000	000007		HRLZS	T2
  1524	000342'	436343	000001		IORM	T2,CHNSTB(PG)	;STORE IT HERE.
  1525	000343'	502343	000005		HLLM	T2,CHNMER(PG)	;SET UP 1ST 3 BITS OF CHNMER.
  1526	000344'	201300	000010		MOVEI	T1,1B32		;GET PART
  1527	000345'	256013	000001		XCT	SAXCNO(M)	;OF
  1528	000346'	256013	000002		XCT	SAXDTI(M)	;THE
  1529	000347'	200340	000006		MOVE	T2,T1		;MEMORY
  1530	000350'	621340	777774		TLZ	T2,777774	;ADDRESS INTO T2.
  1531	000351'	201300	000050		MOVEI	T1,5B32		;GET THE REST OF
  1532	000352'	256013	000001		XCT	SAXCNO(M)	;THE
  1533	000353'	256013	000002		XCT	SAXDTI(M)	;MEMORY ADDRESS
  1534	000354'	137300	033646'		DPB	T1,[POINT 2,T2,15] ;INTO T2 AND ALSO TO PART OF
  1535	000355'	137340	033647'		DPB	T2,[POINT ^D22,CHNMER(PG),^D24] ;CHNMER.
  1536	000356'	200300	000007		MOVE	T1,T2		;REFERENCE
  1537	000357'	242300	777767		LSH	T1,-9		;THE
  1538	000360'	660300	700000		TRO	T1,PGE.A!PGE.P!PGE.W ;"BAD"
  1539	000361'	137300	033650'		DPB	T1,[EPTPGP(%ERR.N)] ;LOC TO
  1540	000362'	701100	777000		CLRPTO	%ERR		;CRASH THE SYSTEM IF
  1541	000363'	405340	000777		ANDI	T2,777		;IT IS REALLY
  1542	000364'	200347	777000		MOVE	T2,%ERR(T2)	;BAD.
  1543	000365'	201300	000030		MOVEI	T1,3B32		;GET MEM
  1544	000366'	256013	000001		XCT	SAXCNO(M)	;BUFFER
  1545	000367'	256013	000002		XCT	SAXDTI(M)	;LH AND XOR IT
  1546	000370'	431346	000000		XORI	T2,(T1)		;INTO WORD IN T2.
  1547	000371'	201300	000020		MOVEI	T1,2B32		;GET MEM
  1548	000372'	256013	000001		XCT	SAXCNO(M)	;BUFFER
  1549	000373'	256013	000002		XCT	SAXDTI(M)	;RH AND
  1550	000374'	517000	000006		HRLZS	T1		;XOR IT
  1551	000375'	430300	000007		XOR	T1,T2		;INTO T2.
  1552	000376'	243300	000400'		JFFO	T1,.+2		;FIND NO. OF 1ST BAD BIT.
  1553	000377'	201340	000044		 MOVEI	T2,^D36		;MARK NONE.
  1554	000400'	137340	033651'		DPB	T2,[POINT 6,CHNMER(PG),^D30] ;STORE NO.
  1555	000401'	200303	000002		MOVE	T1,CHNGO(PG)	;CLEAR THE
  1556	000402'	640300	200700		TRC	T1,7B29+1B19 	;MEM ERR AND
  1557	000403'	256013	000001		XCT	SAXCNO(M)	;THE CHANNEL.
  1558	000404'	263040	000000		POPJ	P,
  1559				> ; End IFN SAXN
  1560
  1561
COMMOD - COMMON DATA LOCATIONS USED BY DISK SERVICE	MACRO 12.5-46.0 14:24 13-JAN-88 PAGE 30
COMMOD.MAC	20-NOV-87 23:00		Prototype STR Data Block

  1562				REPEAT 0,<
  1563				A SERIES OF MACROS ARE INCLUDED HERE FOR GENERATING CHANNEL, KONTROLLER,
  1564				AND UNIT CORE BLOCKS.  THE VARIOUS CORE BLOCKS ARE LINKED TOGETHER
  1565				APPROPRIATELY; THE NUMBER OF EACH TYPE AND APPROPRIATE LINKAGE ARE
  1566				DETERMINED BY SYMBOLS GENERATED BY MONGEN.  SYMBOLS GENERATED ARE:
  1567
  1568					CHNN	TOTAL NUMBER OF DATA CHANNELS (DF10) FOR DISKS
  1569						CHANNELS ARE NUMBERED FROM 0 TO CHNN - 1
  1570
  1571					CNFH	NUMBER OF FIXED HEAD KONTROLLERS ON CHANNEL N
  1572					CNDP	NUMBER OF DISK PACK KONTROLLERS ON CHANNEL N
  1573					CNMD	NUMBER OF MASS FILE (BRYANT DISK) KONTROLLERS ON CHANNEL N
  1574
  1575						KONTROLLERS OF EACH TYPE ARE LETTERED A,B,C, ETC., SO
  1576						THE FIRST DISK PACK KONTROLLER IS DPA, THE SECOND DPB, ETC.
  1577
  1578					XXYUN	NUMBER OF UNITS ON KONTROLLER XXY
  1579
  1580				THE CHNCB MACRO GENERATES A CHANNEL CORE BLOCK, THEN CALLS MACROS TO
  1581				GENERATE KONTROLLER AND UNIT CORE BLOCKS.  ITS ARGUMENT IS THE CHANNEL NUMBER,
  1582				IN ASCII.  CHNCB CALLS MACRO KONTCB FOR EACH KONTROLLER ON THE CHANNEL.  THERE
  1583				IS A REPEAT LOOP FOR EACH KONTROLLER TYPE, REPEATED CNXX TIMES, WHERE N IS THE
  1584				CHANNEL NUMBER AND XX IS THE KONTROLLER TYPE, EACH LOOP CALLING KONTCB ONCE.
  1585				THE ARGUMENTS FOR KONTCB ARE THE KONTROLLER TYPE, A LIST CONTAINING THE LETTERS
  1586				TO IDENTIFY SUCCESSIVE KONTROLLERS, AND THE CHANNEL NUMBER, IN ASCII.
  1587
  1588				KONTCB FIRST CALLS MACRO XXKON TO GENERATE A KONTROLLER CORE BLOCK FOR THE
  1589				KONTROLLER, THEN REPEATS XXYUN TIMES CALLING UNITCB MACRO TO GENERATE UNIT CORE
  1590				BLOCKS FOR THE KONTROLLER.  ARGUMENTS FOR XXKON ARE KONTROLLER TYPE (XX),
  1591				KONTROLLER IDENTIFIER, AND THE ASCII VALUE OF SYMBOL XXNUM, WHICH IS INCREMENTED
  1592				FOR EACH KONTROLLER OF TYPE XX.  XXKON FORMS SYMBOL XX'XXNUM (XX0, XX1, ...),
  1593				WHICH IS USED AS THE DEVICE CODE FOR THE KONTROLLER.  ARGUMENTS FOR UNITCB
  1594				INCLUDE KONTROLLER TYPE, KONTROLLER IDENTIFIER, UNIT NUMBER, AND SYMBOLS TO USE
  1595				IN LINKING THE UNIT CORE BLOCKS TOGETHER (SEE UNITCB MACRO).
  1596
  1597				EACH XXKON MACRO SHOULD CALL THE KONKON MACRO FOR THE KONTROLLER INDEPENDENT
  1598				PART OF THE KONTROLLER CORE BLOCK.  ARGUMENTS FOR KONKON MACRO ARE KONTROLLER
  1599				TYPE (XX), KONTROLLER IDENTIFIER (Y), AND SYMBOL XX'NUM WHICH IS THE DEVICE CODE
  1600				FOR THE KONTROLLER.  NUM IS INCREMENTED FOR EACH KONTROLLER OF TYPE XX.
  1601
  1602				THE UNIT CORE BLOCKS ARE LINKED IN THREE DIFFERENT WAYS.  ALL UNIT CORE
  1603				BLOCKS ON A KONTROLLER ARE LINKED IN A RING (THE LAST POINTS TO THE FIRST),
  1604				ALL UNIT CORE BLOCKS ON A CHANNEL ARE LINKED IN A RING, AND ALL UNIT CORE
  1605				BLOCKS IN THE SYSTEM ARE LINKED IN A LIST (THE LAST LINK IS 0).  TO
  1606				COMPLETE THIS LINKAGE, KONTCB CALLS MACRO KONCLS TO CLOSE THE KONTROLLER
  1607				RING, AFTER ALL UNIT CORE BLOCKS FOR THAT KONTROLLER HAVE BEEN GENERATED; CHNCB
  1608				CALLS CHNCLS TO CLOSE THE CHANNEL RING; AND AFTER ALL SYSTEM UNIT CORE BLOCKS
  1609				HAVE BEEN GENERATED, SYSCLS IS CALLED TO TERMINATE THE SYSTEM LIST.
  1610
  1611				TO ADD ANOTHER KONTROLLER TYPE XY, YOU MUST ADD ANOTHER REPEAT LOOP IN CHNCB,
  1612				REPEATING CNXY TIMES AND PASSING ARGUMENT XY TO KONTCB MACRO.  KONTCB
  1613				CALLS MACRO XYKON FOR THE KONTROLLER DEPENDENT PART OF THE KONTROLLER CORE
  1614				BLOCK; THAT MUST ALSO BE SUPPLIED.  XYKON SHOULD CALL THE KONKON MACRO FOR
COMMOD - COMMON DATA LOCATIONS USED BY DISK SERVICE	MACRO 12.5-46.0 14:24 13-JAN-88 PAGE 30-2
COMMOD.MAC	20-NOV-87 23:00		Prototype STR Data Block

  1615				THE KONTROLLER INDEPENDENT PART OF THE KONTROLLER CORE BLOCK.
  1616				> ; End REPEAT 0
  1617
  1618
COMMOD - COMMON DATA LOCATIONS USED BY DISK SERVICE	MACRO 12.5-46.0 14:24 13-JAN-88 PAGE 31
COMMOD.MAC	20-NOV-87 23:00		Prototype STR Data Block

  1619				INTERN	KONERM,KOPOFL,KOPFUS
  1620
  1621				;DEVICE INDEPENDENT STUFF
  1622
  1623			740000	KONERM==740000		;MASK FOR ERROR BITS RETURNED IN T1 ON NON-SKIP RETURNS
  1624			400000	KOPOFL==400000		;'OFF-LINE' OR 'NOT-READY' OR 'FILE UNSAFE' BIT (LIGHTS UNPOFL IN UNIDE

  1625				S)
  1626			200000	KOPFUS==200000		;FILE UNSAFE
  1627
  1628				DEFINE KONTCB(%TYP)<KONCB1 (%TYP,<A,B,C,D,E,F,G,H,I,J,K,L>)>
  1629
  1630				DEFINE PRINT2(A,B),<IF2,<PRINTX [A B]>>
  1631
  1632				DEFINE KONCB1(%TYP,TYPL)<
  1633					$U==0
  1634				    IRP TYPL,<
  1635					IFE $U-$'%TYP'NUM,<
  1636					    STOPI
  1637					    IFN %TYP'TYPL'UN,<	RADIX 5+5
  1638						PRINT2(\%TYP'TYPL'UN,units on %TYP'TYPL)
  1639								RADIX 8
  1640						$KNUNN==0	;UNIT NUMBER IN KON
  1641						REPEAT %TYP'TYPL'UN,<
  1642							IFGE $SYUNN-4,<XLIST>;List only the first 4
  1643							IFE  $KNUNN,<LIST>  ;Show first unit on each KON
  1644							IFL  $SYUNN-4,<PAGE>;;Start UNITCB on a new page
  1645							%TYP'ITCB (%TYP,TYPL,\$'%TYP'NUM)>
  1646									LIST
  1647						NMKNUN(%TYP'TYPL,\$KNUNN)==NMKNUN(%TYP'TYPL,0)
  1648						IFIDN <%TYP> <FT>,<NMFTDB(TYPL,\$KNUNN)==>
  1649								PAGE
  1650						%TYP'KON(TYPL,\$'%TYP'NUM)
  1651						$KCHNN==$KCHNN+1
  1652					    > ; End IFN %TYP'TYPL'UN
  1653					    IFE %TYP'TYPL'UN,<$'%TYP'NUM==$'%TYP'NUM+1>
  1654					> ; End IFE $U-$'%TYP'NUM
  1655					$U==$U+1
  1656				    > ; End IRP TYPL
  1657				> ; End DEFINE KONCB1
  1658
COMMOD - COMMON DATA LOCATIONS USED BY DISK SERVICE	MACRO 12.5-46.0 14:24 13-JAN-88 PAGE 32
COMMOD.MAC	20-NOV-87 23:00		Prototype STR Data Block

  1659
  1660				;KONTROLLER DATA BLOCK DISK PACKS (ONE DEFINITION NO MATTER
  1661				;HOW MANY DISK PACK KONTROLLERS)
  1662
  1663				;RP10 - CONTROLLER FOR RP01(MEMOREX) DISK PACK UNIT AND/OR RP02
  1664				;  (MEMOREX) DISK PACK UNIT:
  1665
  1666			000002	XP TYPDP,2		;ALWAYS DEFINE CONTROLLER TYPE CODE - SEE UNIKTP
  1667
  1668				DEFINE DPKON (TYPL,N)<
  1669					DPFIX==0		;;NOT A FIXED HEAD DEVICE (IF 0)
  1670					KONMXU==10
  1671					DPCHN==0
  1672					INTCON (DP,TYPL,DP'N)
  1673				    EXTERNAL DP'N'CHN
  1674					KONKON (DP,TYPL,DP'N'CHN)
  1675					KONUNL (DP,TYPL)	;;GENERATE UNIT LIST
  1676					DFCON(DP,TYPL,DP'N)
  1677
  1678				;;KONTROLLER TYPE DEPENDENT PART OF KONTROLLER DATA BLOCK
  1679					DPC==250		;;DEF DISK PACK CONTROLLER DEVICE CODE
  1680					DPC2==254		;;AND SECOND CONTROLLER(UNTIL ADDED TO MACRO)
  1681					DPINF==10		;;INTERRUPT FLAGS FOR CONSO INSTR.
  1682								;;(DONE FLAGS)
  1683
  1684				    IFNDEF DP0,<DP0==DPC>	;;DEFINE STANDARD MNEMONIC DEFINITIONS
  1685				    IFNDEF DP1,<DP1==DPC2>	;;BUT ALLOW FOR OVERRIDE
  1686
  1687				DPXCO1::! CONO	DP'N,(T2)
  1688				DPXDOT::! DATAO	DP'N,T1
  1689				DPXDO1::! DATAO	DP'N,T2
  1690				DPXDI1::! DATAI	DP'N,T2
  1691				DPXCIT::! CONI	DP'N,T1
  1692					DEPHASE
  1693					$DPNUM==$DPNUM+1
  1694				> ; End DEFINE DPKON
  1695
COMMOD - COMMON DATA LOCATIONS USED BY DISK SERVICE	MACRO 12.5-46.0 14:24 13-JAN-88 PAGE 33
COMMOD.MAC	20-NOV-87 23:00		Prototype STR Data Block

  1696				;RC10 CONTROLLER FOR RD10(BURROUGHS) FIXED HEAD DISK UNIT AND/OR
  1697				; RM10B(BRYANT) DRUM UNIT:
  1698
  1699				DEFINE	FHKON (TYPL,N)<
  1700
  1701					FHFIX==400000		;BIT 0 = 1 IF FIXED HEAD DEVICE
  1702					KONMXU==10		;MAX NUMBER OF UNITS THIS KONTROLER
  1703					FHCHN==0		;DOES REQUIRE CHANNEL
  1704					INTCON (FH,TYPL,FH'N)
  1705				    EXTERNAL FH'N'CHN
  1706					KONKON (FH,TYPL,FH'N'CHN)
  1707					KONUNL (FH,TYPL)
  1708					DFCON (FH,TYPL,FH'N)
  1709
  1710					FHD==170
  1711					FHD2==174
  1712					FHINF==10		;INTERRUPT FLAGS FOR CONSO INSTR.
  1713								;;(DONE FLAG)
  1714
  1715					IFNDEF FH0,<FH0==FHD>
  1716					IFNDEF FH1,<FH1==FHD2>
  1717
  1718				FHXCI1::! CONI	FH'N,T2
  1719				FHXCOT::! CONO	FH'N,(T1)
  1720				FHXCO1::! CONO	FH'N,(T2)
  1721				FHXDI2::! DATAI	FH'N,T3
  1722				FHXDOT::! DATAO	FH'N,T1
  1723				FHXIWD::! 0			;INIT WORD STORAGE
  1724					DEPHASE
  1725					$FHNUM==$FHNUM+1
  1726				> ;End DEFINE FHKON
  1727
COMMOD - COMMON DATA LOCATIONS USED BY DISK SERVICE	MACRO 12.5-46.0 14:24 13-JAN-88 PAGE 34
COMMOD.MAC	20-NOV-87 23:00		Prototype STR Data Block

  1728
  1729
  1730				DEFINE BPKON(TYPL,N)<	;; 3330 CONTROLLER
  1731					BPFIX==0
  1732					BPCHN==400000
  1733					KONMXU==BP'TYPL'MX
  1734					KONKON(BP,TYPL,0)
  1735					KONSAX(BP,TYPL,N)
  1736				BPXCUB::! 0		;KONTROL UNIT BUSY BITS
  1737					KONUNL (BP,TYPL)
  1738					DEPHASE
  1739
  1740					$BPNUM==$BPNUM+1
  1741				> ; End DEFINE BPKON
  1742
  1743				DEFINE KONSAX(%TYP,TYPL,N)<
  1744				KONBSU::! XWD NMSCH(\$SAXN,\$SAXCN)+CHNBMX+$SAXUN,%TYP'TYPL
  1745				KONBMX==:KONBSU	;L.H. POINTER TO BLOCK MULTIPLEX AREA FOR KON
  1746						;R.H. BASE UNIT ADDRESS
  1747				KONUMX:!  %TYP'TYPL+KONMXU
  1748				KONSNT::! %TYP'XINT	;POINTER TO INTERUPT ROUTINE
  1749					$SAXUN==$SAXUN+KONMXU
  1750				    EXTERNAL %TYP'XINT
  1751				> ; End DEFINE KONSAX
  1752
  1753
  1754				DEFINE RMKON(TYPL,N)<	;Generate data blocks for the 2020 disk system.
  1755					RMFIX==0		;Not fixed head.
  1756					RMCHN==0		;Operations require channel to be idle
  1757					KONMXU==8		;Maximum number of units on this controller
  1758					KONKON(RM,TYPL,0)
  1759					KONUNL(RM,TYPL)
  1760				KONCUA::!ZERO18,,0		;UDB of transferring unit
  1761					DEPHASE
  1762					$RMNUM==$RMNUM+1
  1763				> ; End DEFINE RMKON
  1764
  1765
  1766				DEFINE APKON(TYPL,N)<	;;FOR APX AMPEX F3 DISKS
  1767					APFIX==0		;NOT FIXED HEAD
  1768					APCHN==0		;CHANNEL MUST BE IDLE
  1769					KONMXU==4		;MAXIMUM NUMBER OF UNITS IS 4
  1770					KONKON(AP,TYPL,0)
  1771					KONUNL(AP,TYPL)
  1772				KONCUA::!ZERO18,,0		;;UDB OF XFERRING UNIT
  1773					XP BLMSIZ,<^D8*^D10>
  1774				KONBLM::!BLOCK BLMSIZ+1	;;LIST OF MEMORY ADDRESSES
  1775							;; (IN FORMAT OF LMA DISK INSTRUCTION)
  1776							;; MUST BE ENOUGH TO HOLD ENTIRE CYLINDER.
  1777							;; ONE EXTRA SO THAT ZERO TERMINATES THE LIST.
  1778				KONNLM::!BLOCK 1	;PLACE TO STORE ADDRESS OF NEXT LMA TO DO AT IRP LEVEL
  1779				KONNLD::!BLOCK 1	;PLACE TO STORE LDA DATA FOR NEXT XFER TO START AT IRP LEVEL
  1780				KONNL1::!BLOCK 1	;;COPY OF KONNLD WITH SU SET TO MAKE STARTING XFER FASTER
COMMOD - COMMON DATA LOCATIONS USED BY DISK SERVICE	MACRO 12.5-46.0 14:24 13-JAN-88 PAGE 34-2
COMMOD.MAC	20-NOV-87 23:00		Prototype STR Data Block

  1781
  1782				KONXFR::!BLOCK	1	;;INSTRUCTION TO EXECUTE AFTER A TRANSFER
  1783				KONNRM::!BLOCK 1	;;PLACE TO STORE VALUE WE EXPECT ON RMA AT END OF XFER.
  1784							;; (SO DON'T WASTE PRECIOUS INSTRUCTIONS BETWEEN
  1785							;; TRANSFERS OF A CHAIN.
  1786				KONNCM::!BLOCK 1	;PLACE TO STORE LCMD DATA FOR NEXT XFER (USUALLY SAME)
  1787				KONLRC::!BLOCK 1	;;PLACE TO REMEMBER RCMD OF LAST XFER TO INTERRUPT
  1788				KONLRM::!BLOCK 1	;;LAST RMA FOR XFER TO INTERRUPT
  1789				KONLRD::!BLOCK 1	;;LAST RDA FOR LAST XFER TO INTERRUPT
  1790					DEPHASE
  1791					$APNUM==$APNUM+1
  1792				> ; End DEFINE APKON
  1793
COMMOD - COMMON DATA LOCATIONS USED BY DISK SERVICE	MACRO 12.5-46.0 14:24 13-JAN-88 PAGE 35
COMMOD.MAC	20-NOV-87 23:00		Prototype STR Data Block

  1794
  1795				DEFINE FTKCHN(XX)<	;;3803 KONTROLLER FOR 3420'S
  1796					XX==1B32
  1797				    REPEAT 3-$SAXCN,<XX==XX*2>
  1798				> ; End DEFINE FTKCHN
  1799
  1800				DEFINE FTKON(TYPL,N)<
  1801					FTFIX==0
  1802					FTCHN==0
  1803					KONMXU==10
  1804					KONKON(FT,TYPL,0)
  1805					KONSAX(FT,TYPL,N)
  1806					$SAXUN==$SAXUN+1	;FOR SPECIAL SENSE LOC.
  1807					KONUNL (FT,TYPL)
  1808					DEPHASE
  1809
  1810				;OVERLAYING HERE.
  1811				    IFL KONLEN-FTXSMY+FTXMCH,<
  1812				PRINTX ?ERROR IN FTKON OVERLAY OF KONT. DB.  SEE COMMOD AT THIS PRINTX.
  1813				    > ; End IFL KONLEN-FTXSMY+FTXMCH
  1814					STAR==.
  1815					RELOC FT'TYPL'CB
  1816					PHASE 0
  1817					FTKCHN YY
  1818				FTXMCH::! XWD FT'TYPL'TYP,YY	;TYPE INFO,, CHN NO AS STAT FLG.
  1819				FTXBSY::! 0
  1820				FTXSNS::! BYTE(8)72,4,FT'TYPL	;SENSE.
  1821				FTXDAT:! BYTE(1)1(11)-^D24(24)FTXSTS+FT'TYPL'CB ;INFO TO FTXSTS.
  1822				FTXHLT:! Z			;HALT
  1823				FTXSS1::! Z
  1824				FTXSS2::! Z
  1825				FTXSM0::! Z
  1826				FTXSMY::! Z			;MEM ERR FLAG,, BUSY BITS
  1827					DEPHASE
  1828					RELOC STAR
  1829					PHASE STAR-FT'TYPL'CB
  1830				FTXSTS::! Z
  1831					Z
  1832					Z
  1833					Z
  1834					Z
  1835					Z
  1836				FTXSPR::! Z
  1837				FTXSP1::! Z
  1838				FTXSX1::! Z			;MOST RECENT SAXBAS+1(+5, ETC.)
  1839					DEPHASE
  1840					$FTMODE==1_D+1_DR+1_B+1_IB+1_I+1_AL+1_A
  1841				    EXTERNAL MTSIZ,FTADSP
  1842					$FTNUM==$FTNUM+1
  1843				> ; End DEFINE FTKON
  1844
COMMOD - COMMON DATA LOCATIONS USED BY DISK SERVICE	MACRO 12.5-46.0 14:24 13-JAN-88 PAGE 36
COMMOD.MAC	20-NOV-87 23:00		Prototype STR Data Block

  1845
  1846				DEFINE INTCON (%TYP,TYPL,SYM)<	EXTERNAL %TYP'XINT,SYM'SAV
  1847				SYM'INT:: CONSO	SYM,%TYP'INF	;;(-4)SKIP IF INTERRUPT FOR THIS KONTROLLER
  1848								;;ALWAYS HAVE INTERRUPT ROUTINE LOOKING FOR INTERRUPS
  1849								;;THIS FLAG NEVER CLEARED (NEEDED FOR DISK PACKS
  1850								;;OPERATOR MOUNTING AND REMOVING PACKS)
  1851					JRST	.		;;(-3)GO TO NEXT SKIP CHAIN ELEMENT
  1852					JSR	SYM'SAV		;;(-2) SAVE INTERRUPT ACS
  1853					JSP	J,%TYP'XINT	;;(-1) SETUP ADDRESS OF KONTROLLER DATA BLOCK
  1854								;; AND BRANCH INTO CODE WHICH IS COMMON
  1855								;; TO ALL KONTROLLERS OF SAME TYPE
  1856								;; (INTERRUPT DISMISSED BY EXTRA POPJ OR JRST XXRET)
  1857				KONINT==:SYM'INT-.		;;INDEX TO CLEAR AND SET INTERRUPT CONSO FLAGS
  1858				> ; End DEFINE INTCON
  1859
  1860				DEFINE KONUNL (%TYP,TYPL)<	;;GENERATE UNIT LIST FOR KONTROLLER
  1861					%%KONUS==.
  1862					DEPHASE
  1863				%TYP'TYPL'CU:
  1864					$U1==0
  1865				    REPEAT %TYP'TYPL'UN,<
  1866					NMUN(\$U1,%TYP'TYPL)
  1867					$U1=$U1+1
  1868				    > ; End REPEAT %TYP'TYPL'UN
  1869					BLOCK KONMXU-$U1	;UNIT ADDRESSES
  1870					PHASE %%KONU+KONMXU
  1871				> ; End DEFINE KONUNL
  1872
  1873
COMMOD - COMMON DATA LOCATIONS USED BY DISK SERVICE	MACRO 12.5-46.0 14:24 13-JAN-88 PAGE 37
COMMOD.MAC	20-NOV-87 23:00		Prototype STR Data Block

  1874				;KON:	KONTROLLER DATA BLOCK
  1875				;DEFINE FIRST PART OF KONTROLLER DATA BLOCK
  1876				;WHICH IS THE SAME FOR ALL KONTROLLER DATA BLOCKS
  1877
  1878				;FOR EACH KONTROLLER IN SYSTEM:
  1879				; PARAMETERS FOR KONKON
  1880				; %TYP  - KONTROLLER TYPE (ASCIZ) EG. DP,FH,DR,MD
  1881				; TYPL   - KONTROLLER NUMBER SYMBOL (ASCIZ) EG. A,B,C
  1882				; SYM - KONTROLLER SYMBOL (ASCIZ) EG. DP0,DP1,FH0,FH1
  1883
  1884				DEFINE	KONKON (%TYP,TYPL,SYM)<
  1885								;; FROM DEV. DEP. CODE
  1886				%TYP'TYPL'CB::	PHASE	0	;;CHANGE PHASE SO CAN DEFINE ALL SYMBOLS
  1887								;; RELATIVE TO BEGINNING OF KONTROLLER
  1888								;; DATA BLOCK. ALSO A CHECK TO BE SURE ALL
  1889								;; KONTROLLER DATA BLOCKS ARE DEFINED THE
  1890								;; SAME WAY.
  1891
  1892				NMKCN(\$CHN,\$KCHNN)==%TYP'TYPL'CB
  1893
  1894						;;ENTRY POINTS INTO KONTROLLER TYPE DEPENDENT CODE:
  1895						;;INDIRECT AND INDEX FIELDS MUST BE 0 SINCE PUSHJ P,@KONYYY(J)
  1896						;; IS USED TO CALL
  1897
  1898				IFDIF <%TYP> <FT>,<
  1899				    EXTERN %TYP'XRED,%TYP'XWRT,%TYP'XADD
  1900				    EXTERN %TYP'XFIN,%TYP'XPOS,%TYP'XLTM,%TYP'XUPA,%TYP'XCPY
  1901				    EXTERN %TYP'XRCL,%TYP'XSTP,%TYP'XOFS,%TYP'XHRD,%TYP'XSFT
  1902				> ; End IFDIF <%TYP> <FT>
  1903
  1904				IFIDN <%TYP> <FT>,<
  1905					%TYP'XRED==0
  1906					%TYP'XWRT==0
  1907					%TYP'XADD==0
  1908					%TYP'XFIN==0
  1909					%TYP'XPOS==0
  1910					%TYP'XLTM==0
  1911					%TYP'XUPA==0
  1912					%TYP'XCPY==0
  1913					%TYP'XRCL==0
  1914					%TYP'XSTP==0
  1915					%TYP'XOFS==0
  1916					%TYP'XHRD==0
  1917					%TYP'XSFT==0
  1918				> ; End IFIDN <%TYP> <FT>
  1919
  1920				KONRED::!XWD SYM_^D15,%TYP'XRED;;ENTRY POINT TO READ
  1921				KOBPI==KONRED			;;PI CHANNEL THIS KONTROLLER IS ASSIGNED TO-WORD ADR.
  1922				  KOSPI==^D3			;;BYTE SIZE
  1923				  KONPI==^D2			;;BYTE PTR POS.
  1924				KONWRT::!XWD ZERO5,%TYP'XWRT	;;ENTRY POINT TO WRITE
  1925				KONADD::!XWD ZERO5,%TYP'XADD	;;ENTRY POINT TO READ,STOP ON ERR
  1926				KONFIN::!XWD ZERO5,%TYP'XFIN	;;ENTRY POINT TO WRITE,STOP ON ERR
COMMOD - COMMON DATA LOCATIONS USED BY DISK SERVICE	MACRO 12.5-46.0 14:24 13-JAN-88 PAGE 37-2
COMMOD.MAC	20-NOV-87 23:00		Prototype STR Data Block

  1927				KONPOS::!XWD %TYP'FIX!ZERO5,%TYP'XPOS ;;ENTRY POINT TO POSITION-BIT 0=1 IF FIXED HEAD DEV.
  1928				KONLTM::!XWD %TYP'CHN,%TYP'XLTM	;;ENTRY POINT FOR LATENCY TIME (if 1B0 is off)
  1929				KONIBM==:<KONRBL==:KONLTM>	;;1B0 set if IBM disks, read buffered log
  1930				KONUPA::!XWD ZERO5,%TYP'XUPA	;;ENTRY POINT TO TEST IF KONTROLLER IS ON-LINE
  1931				KONDWN==:KONUPA			;;BIT0=1 IF KONTROLLER IS DOWN - WORD ADDRESS
  1932				  KOPDWN==:400000		;; THE BIT (SET BY KONCHK - NOT BY %TYP'XUPA)
  1933								;;KONTROLLER WAS OFF-LINEWHEN SYSTEM STARTED
  1934								;; AND OPERATOR COULD NOT PUT IT ON-LINE
  1935								;; SKIP RETURN IF YES, NO SKIP IF NOT
  1936
  1937				KONCPY::!XWD ZERO5,%TYP'XCPY	;;ENTRY POINT TO DETERMINE TYPE & CAPACITY OF UNIT
  1938				KONRCL::!XWD ZERO18,%TYP'XRCL	;;ENTRY POINT TO RECALIBRATE THIS UNIT
  1939								;; NO-SKIP IN UNIT DOES NOT RECALIBRATE OR IS BAD
  1940								;; SKIP RETURN IF RECALIBRATE STARTED OK
  1941				KONSTP::!XWD ZERO5,%TYP'XSTP	;;ENTRY POINT TO STOP A HUNG DISK
  1942								;; NO-SKIP IF CAN'T, SKIP IF CAN
  1943				KONOFS::!XWD ZERO5,%TYP'XOFS	;;ENTRY POINT TO SET UNIT IN OFFSET MODE
  1944				KONHRD::!XWD ZERO5,%TYP'XHRD	;;ROUTINE TO CALL FOR HARD ERRORS
  1945				KONSFT::!XWD ZERO5,%TYP'XSFT	;;ROUTINE TO CALL FOR SOFT ERRORS
  1946				KONLEN==KONSFT-KONRED	;;FTKON OVERLAYS UNNEEDED KONT. DB LOCS.
  1947				KONCHN::!XWD NMKCN(\$CHN,\<$KCHNN+1>),NMCH(\$CHN)	;;ADDRESS OF CHANNEL DATA BLOCK TO WHIC
  1948				H THIS KON
  1949								;; CONNECTED (@USED TO TEST CHANNEL BUSY)
  1950				KONPTR::!XWD ZERO5,%TYP'TYPL'CU(P3) ;;USED TO PICKUP UNIT DATA BLOCK ADDRESS
  1951								;; GIVEN PHYSICAL UNIT NUMBER IN AC P3. (@ USED)
  1952
  1953				> ; End DEFINE KONKON
  1954
  1955
COMMOD - COMMON DATA LOCATIONS USED BY DISK SERVICE	MACRO 12.5-46.0 14:24 13-JAN-88 PAGE 38
COMMOD.MAC	20-NOV-87 23:00		Prototype STR Data Block

  1956				DEFINE DFCON (%TYP,TYPL,SYM)<	EXTERNAL LOCOCW
  1957				KONSWC::! 0		;SAVE WORD COUNT FOR THIS OPERATION
  1958				KONCOM::! XWD -CCWMAX,%TYP'TYPL'CB+KONLST
  1959				KONLST:!  BLOCK CCWMAX
  1960					  0
  1961				KONCUA::! XWD ZERO18,0		;;CURRENT UNIT DATA BLOCK ADDRESS DOING
  1962								;; DATA TRANSFER (OR LAST ONE)
  1963				KONIOC::! XWD ZERO18,SYM'IOC	;;CONTAINS ADR. OF LOWER CORE CHANNEL
  1964								;; PAIR FOR THIS PHYSICAL KONTROLLER
  1965								;; (DIFF. PAIR FOR EACH KONTROLLER SO NO
  1966								;;CHANNEL CONFLICT IF RECONFIGURE CHANNELS)
  1967				XP SYM'IOC,LOCOCW+$LOCW
  1968				$LOCW==$LOCW+2
  1969				KONINS:!			;;ADD IO INSTRUCTIONS AND ALL DATA LOCATIONS HERE:
  1970				> ; End DEFINE DFCON
  1971
  1972				;;BYTE POINTERS
  1973	000405'	410302	000000	KOYPI::	POINT KOSPI,KOBPI(J),KONPI     ;;PI CHANNEL THIS KONTROLLER ASSIGNED TO
  1974
  1975				;INTERUPT COMMUNICATION BITS
  1976
  1977				;Bits 0-7 are attention interrupt bits for non-IBM disks
  1978			002000	KCMPOS==:(1B7)	;SPECIAL POSITION INTERRUPT (U already set up by BPXKON)
  1979			001000	KCMRER==:(1B8)	;RECOVERED ERROR
  1980			000400	KCMFUS==:(1B9)	;FILE UNSAFE
  1981			000200	KCMERR==:(1B10)	;ERROR
  1982			000100	KCMDTA==:(1B11)	;DATA TRANSFER
  1983			000040	KCMIOS==:(1B12)	;I/O SELECT NEEDED (ONLY SET BY DEV-INDEP)
  1984			000020	KCMOFL==:(1B13)	;OFF-LINE
  1985						;RH is number of blocks transferred
COMMOD - COMMON DATA LOCATIONS USED BY DISK SERVICE	MACRO 12.5-46.0 14:24 13-JAN-88 PAGE 39
COMMOD.MAC	20-NOV-87 23:00		Prototype STR Data Block

  1986				;UNI:	UNIT DATA BLOCK
  1987
  1988				;PARAMETERS FOR UNITCB
  1989				;%TYP	- KONTROLLER TYPE (E.G. FH,DP,MD)
  1990				;TYPL	- KONTROLLER IDENTIFIER (STARTS AT A)
  1991
  1992				;UNI:	UNIT DATA BLOCK
  1993				;POINTED TO BY EACH STR (FANOUT)(STRTAB)
  1994				;POINTS TO NEXT UNI IN SYS (ACROSS POINTER)(LH UNISYS)
  1995				;POINTS TO NEXT UNI WITHIN CHANNEL (RING)(RH UNICHN)
  1996				;POINTE TO NEXT UNI WITHIN KONTROLLER(ACROSS POINTER)(LH UNIKON)
  1997				;POINTS TO ITS CHN (UPWARD PTR)(RH UNICHN)
  1998				;POINTS TO ITS KON (UPWARD PTR)(RH UNIKON)
  1999				;POINTS TO NEXT UNI IN STR(ACROSS PTR)(LH UNISTR)
  2000				;POINTS TO ITS STR DATA BLOCK(UPWARD POINTER)(RH UNISTR)
  2001
  2002				DEFINE UNITCB (%TYP,TYPL)<
  2003				%NUN (INTERNAL,\$KNUNN,%TYP'TYPL)
  2004				IFNDEF FIRUNI,<FIRUNI:>	;;DEFINE FIRST UNIT DATA BLOCK ADR. IN SYSTEM
  2005				NMUN(\$KNUNN,%TYP'TYPL):	%SUN(\$KNUNN,%TYP'TYPL)
  2006				UNINAM==:0	;;(0)SIXBIT PHYSICAL UNIT NAME WITHIN KONTROLLER
  2007						;;LAST DIGIT IS 0 TO 7 -LEFT JUSTIFIED
  2008						;; EXAMPLE:  DRA0,FHA0,MDA0,DPA0;;DPA1,DPB3
  2009						;;[NEVER CHANGED BY MONITOR]
  2010
  2011					PHASE	1
  2012				UNILOG::!0	;;(1)SIXBIT LOGICAL UNIT NAME WITHIN STR
  2013						;; LAST DIGIT OR TWO IS 0 TO 77 LEFT JUSTIFIED
  2014						;; EXAMPLE:  DSKA0,DSKB0,DSKC0;;DSKA17 [SET FROM HOMLOG BY HOMRED]
  2015				UNIHID::!0	;;(2)SIXBIT HOME BLOCK IDNAME - NEVER CHANGED IN HOME BLOCK
  2016						;; SET WHEN SECTOR HEADERS ARE WRITTEN.  FOR DISK PACKS
  2017						;; THE HOME BLOCK ID NAME IS THE PACK ID.
  2018				NMSYUN(\$SYUNN)==NMUN(\$KNUNN,%TYP'TYPL)
  2019				UNISYS::!XWD NMSYUN(\<$SYUNN+1>),0 ;;(3)LH=CORE ADDRESS(ACCROSS POINTER) OF NEXT
  2020						;; UNIT DATA BLOCK IN SYSTEM, LH=0 IN LAST UNIT IN SYSTEM
  2021				UNILUN==UNISYS	;;RH. LOGICAL UNIT NUMBER WITHIN FILE STRUCTURE OF THIS UNIT-WORD ADR.
  2022				  UNSLUN==^D6	;;BYTE SIZE
  2023				  UNNLUN==^D35	;;BYTE PTR POS.
  2024
  2025				UNISTR::!0	;LH=ADDRESS OF NEXT UNIT DATA BLOCK IN STR
  2026						;LH=0 IN LAST UNIT IN FILE STRUCTURE
  2027						;RH=UPWARD POINTER TO FILE STR. DATA BLOCK.
  2028						;WORD=0 IF THIS UNIT IS NOT IN A STR
  2029
  2030				NMCHUN(\$CHN,\$CHUNN)==NMUN(\$KNUNN,%TYP'TYPL)
  2031				UNICHN::!XWD NMCHUN(\$CHN,\<$CHUNN+1>),NMCH(\$CHN)	;;(5)LH=ADDRESS OF NEXT UNIT DATA BLOCK
  2032				 ON SAME CHANNEL
  2033						;; LAST UNIT POINTS BACK TO FIRST UNIT (RING)
  2034						;; RH=UPWARD POINTER TO CHANNEL DATA BLOCK.
  2035				NMKNUN(%TYP'TYPL,\$KNUNN)==NMUN(\$KNUNN,%TYP'TYPL)
  2036				UNIKON::!XWD NMKNUN(%TYP'TYPL,\<$KNUNN+1>),%TYP'TYPL'CB	;;(6)LH=ADDRESS OF NEXT UNIT DATA BLOCK
  2037				 ON SAME KON
  2038						;; LAST UNIT POINTS BACK TO FIRST UNIT (RING)
COMMOD - COMMON DATA LOCATIONS USED BY DISK SERVICE	MACRO 12.5-46.0 14:24 13-JAN-88 PAGE 39-2
COMMOD.MAC	20-NOV-87 23:00		Prototype STR Data Block

  2039						;; RH=UPWARD POINTER TO KONTROLLER DATA BLOCK
  2040				UNIFEP::!0	;; (7) Front-End File Pointer on this unit. LH=RH=0 if none.
  2041						;; LH=No. of consecutive pages in front-end area on this unit.
  2042						;; RH=First (directory) page of front-end area on this unit.
  2043
  2044				;ERROR STATISTICS:
  2045				UNIHCT::!0	;;(10)NO. OF HARD DISK ERRORS ON THIS UNIT (RETRYS FAILED TO CLEAR ERROR)
  2046						;; LH=NO. DEVICE+SEARCH ERRORS(IODERR)(CHAN+CONTROL)(SEE UNIPCT)
  2047						;; RH=NO. DATA ERRORS(IODTER)(HARDWARE PARITY AND SEARCH)
  2048				UNISCT::!0	;;(11)NO. OF SOFT + NO. OF HARD ERRORS - INCREMENTED ON EVERY ERROR
  2049						;; INTERRUPT
  2050						;;LH=NO. SOFT+HARD DEVICE+SEARCH ERRORS(SEE UNIPCT)
  2051						;; RH=NO SOFT+HARD DATA ERRORS
  2052				UNIMCT::!0	;;(12)NO. OF MONITOR DETECTED ERRORS(3 12 BIT FIELDS)
  2053						;; USER PROGRAM SEES IOIMPM ERROR BIT SET FOR ALL 3 TYPES OF ERRORS
  2054				  UNPSER==:100	;;NO. OF SAT FAILURES(NO. OF FREE BIT-PAIRS ON DISK SAT
  2055						;; DISAGREE WITH EXPECTED NO AS STORED IN CORE)
  2056				  UNPRER==:10000;;NO. OF RIB REDUNDANT INFO FAILED TO COMPARE
  2057				  UNPCER==:1	;;NO. OF SOFTWARE FOLDED CHECKSUM FAILURES(SWAP+USER IO)
  2058						;; (MUST BE RIGHT JUSTIFIED FOR AOS)
  2059				UNIERR::!0	;;(13)LAST HARD ERROR DEVICE STATUS(IE STYTRY TIMES FAILED IN A ROW)
  2060						;; WHICH OCCURRED ON THIS UNIT. SET BY MOVEM T2,UNIERR(U)
  2061						;; IN FILSER WHERE T2 IS SET DIRECTLY FROM
  2062						;; KONTROLLER STATUS WORD IN KONTROLLER DEPENDENT ROUTINE.
  2063				UNISOF::!0	;;(14)LAST SOFT OR HARD ERROR DEVICE STATUS
  2064				UNIHBN::!0	;;(15)LAST LOGICAL BLOCK NUMBER ON HARD ERROR
  2065
  2066				;;PERFORMANCE MONITORING DATA LOCATIONS:
  2067				;;NOTE FOLLOWING 6 ENTRIES ARE MUTUALLY EXCLUSIVE AND ACCOUNT FOR ALL
  2068				;; TRANSFERS ON THIS UNIT(EXCEPT ERROR RETRYS)
  2069				;WRITE COUNT MUST BE READ COUNT+1
  2070				UNIBRC::!0	;;(16)NO. OF BUFFERED MODE 128 WORD BLOCKS READ
  2071				UNIBWC::!0	;;(17)NO. OF BUFFERRED MODE 128 WORD BLOCKS WRITTEN
  2072				UNIDRC::!0	;;(20)NO. OF DUMP MODE 128 WORD BLOCKS READ(INCLUDEING GETS)
  2073				UNIDWC::!0	;;(21)NO. OF DUMP MODE 128 WORD BLOCKS WRITTEN(INCLUDING SAVES)
  2074				UNIMRC::!0	;;(22)NO. OF MONITOR PAGES READ(SAT,UFD,MFD,BAT)
  2075				UNIMWC::!0	;;(23)NO. OF MONITOR PAGES WRITTEN(SAT,UFD,MFD,BAT)
  2076				UNIHNG::!0	; NO OF HUNG TIME OUTS WHICH COUNT NOT BE RECOVERED
  2077						;LH HUNG FROM TRANSFER, RH OTHER (POSITION)
  2078
  2079				UNIICT::!0	;;(24)NO. OF 128 WORD BLOCKS SWAPPED IN(SET BY SWPINT)
  2080				UNIOCT::!0	;;(25)NO. OF 128 WORD BLOCKS SWAPPED OUT(SET BY SWPINT)
  2081				;;NOTE:!FOLLOWING 2 ENTRIES ARE MUTUALLY EXCLUSIVE AND ACCOUNT FOR ALL SEEKS
  2082				;; ON THIS UNIT EXCEPT END OF CYLINDER ADN RECALLIBRATION AND SEEK UUOS
  2083				UNIMSC::!0	;;(26)COUNT OF NO. OF MONITOR+SWAP SEEKS
  2084				UNIUSC::!0	;;(27)COUNT OF NO. OF USER(BUFFER+DUMP) SEEKS
  2085						;; (INCLUDES GETS AND SAVES)
  2086						;;(30)COUNT OF POSITIONING FAILURES
  2087				;;MORE ERROR STATISTICS:
  2088					0	;;(31) (obsolete: Free K for swapping on this unit)
  2089				UNISDI::!0	;;(32)LAST SOFT OR HARD ERROR DATAI IN STATUS WORD
  2090						;; DATA,DEVICE,SEARCH ERRORS
  2091				UNIHDI::!0	;;(33)LAST HARD ERROR DATAI IN STATUS WORD
COMMOD - COMMON DATA LOCATIONS USED BY DISK SERVICE	MACRO 12.5-46.0 14:24 13-JAN-88 PAGE 39-3
COMMOD.MAC	20-NOV-87 23:00		Prototype STR Data Block

  2092						;; DATA,DEVICE,SEARCH ERRORS
  2093				UNIECT::!0	;;(34) NO. OF CONSECUTIVE TIMES AN ERROR STATUS WAS RETURNED
  2094						;; FOR THE LAST OPERATION ON THIS UNIT. (IE, FIRST+RETRIES
  2095						;; WITH ERRORS).  SET BACK TO 1 ON FIRST ERROR, RATHER THAN
  2096						;; BEGINNING OF NEW OPERATION, SO USER PROGRAMS HAVE MORE
  2097						;; TIME TO LOOK AT IT.
  2098				UNISBN::!0	;;(35) BLOCK NUMBER WITH LAST SOFT ERROR
  2099				UNISTS::!0	;;(36) STATUS WORD FOR UNIT - SET, CHANGED BY FILSER ONLY
  2100						;;ONLY WHOLE WORD USED SO THAT EXCH TRICK CAN BE USED
  2101						;;THESE SAME CODES ARE USED IN DEYCOD BYTE
  2102				  ;Here starts descrepency between TYMCOM-X and TOPS-10 "UDB" definitions
  2103				UNIQUE::!XWD 0,0;;LH=ADDRESS OF FIRST (LONGEST WAITING) DEVICE DATA BLOCK (FILE)
  2104						;; IN POSITION WAIT FOR THIS UNIT (PW QUEUE)
  2105						;;RH=ADDRESS OF LAST (SHORTEST WAITING) DEVICE DATA BLOCK (FILE)
  2106						;; IN POSITION WAIT FOR THIS UNIT
  2107						;;AS A FLAG, BOTH HALVES ARE SET TO 0 WHEN NO FILES IN
  2108						;; POSITION WAIT QUEUE.
  2109						;;NOTE:!THE FILE WHICH IS IN P STATE IS NOT IN QUEUE
  2110						;; QUEUE SEARCH
  2111				UNICDA::!0	;;RH=current DDB address of file doing I/O on this unit
  2112				UNIPPU::!0	;;# of usable pages per unit (returned as word 6 by DSKCHR)
  2113				UNICHR::!0	;;Unit characteristics (returned as word 5 by DSKCHR muuo)
  2114				  ;;1B0		;;Sign bit set if formatted in pages, clear if in blocks
  2115				UNIBPR==:UNICHR	;;Bits 1-8  = # of blocks per record
  2116				  UNSBPR==^D8	;; UNYBPR = 1 if formatted in blocks
  2117				  UNNBPR==^D9	;; UNYBPR = 4 if formatted in pages
  2118				UNIBPT==:UNICHR	;;Bits 9-17 = # Blocks per track (9-15 = pages per track)
  2119				  UNSBPT==^D9	;; Used only by device drivers (APXKON,BPXKON,RMXKON)
  2120				  UNNBPT==^D17
  2121				UNIBPY==:UNICHR	;;Bits 18-35 = # blocks per cylinder (18-33 = # pages per cyl)
  2122				  UNSBPY==^D18	;; Must be a multiple of 4 for integral pages per cylinder
  2123				  UNNBPY==^D35	;; UNYPPY used by FILIO
  2124				UNIWPS::!0	;;# of words per SAT page, 0 means 512
  2125				  UNSWPS==^D9
  2126				  UNNWPS==^D8	;;BIT 9 UNUSED
  2127				UNISPU==:UNIWPS	;;# of SAT pages on unit
  2128				  UNSSPU==^D8
  2129				  UNNSPU==^D17
  2130				UNICYL::!-1	;;Physical cylinder unit is currently at or positioning towards.
  2131						;; Checked by FILIO to see if seek is needed, set only by device
  2132						;; driver.  Initialized to -1 to force positioning.
  2133				IFE FTDPAG,<
  2134				UNIBLK::!0	;;Logical block number for next transfer (replaced by UNIPAG)
  2135				UNIONC==:UNIBLK	;;Flag bits for ONCDSK (capacity test, off-line test)
  2136				>
  2137				IFN FTDPAG,<
  2138				UNIPAG::!0	;;Logical page number for next transfer  (formerly UNIBLK::)
  2139				UNIONC==:UNIPAG	;;Flag bits for ONCDSK (capacity test, off-line test)
  2140				>
  2141				UNISTT::!0	;;LH undefined, RH=addr of STT for this unit
  2142				UNITAL::!0	;;NO. OF FREE PAGES(RESERVED+FCFS) LEFT ON THIS UNIT
  2143						;; [NO SAFETY FACTOR FOR UNIT, INSTEAD THERE IS ONE FOR THE STR]
  2144				UNIDES::!BYTE (10)0(8)%UNSZ(\$SYUNN)(3)$CHN(6)TYP'%TYP(3)$'%TYP'NUM(2)0(4)$KNUNN
COMMOD - COMMON DATA LOCATIONS USED BY DISK SERVICE	MACRO 12.5-46.0 14:24 13-JAN-88 PAGE 39-4
COMMOD.MAC	20-NOV-87 23:00		Prototype STR Data Block

  2145						;;WORD RETURNED IN AC FOR DSKCHR MUUO DESCRIBES THIS DISK
  2146						;; UNIT IN TERMS OF STR NUMBER, CHANNEL,
  2147						;; KONTROLLER UNIT NUMBER. ETC.
  2148						;; $K   = BINARY NUMBER OF NEXT UNIT ON KONTROLLER (STARTS AT 0)
  2149						;; $CHN = BINARY CHANNEL NUMBER (STARTS AT 0)
  2150						;; XX   = BINARY KONTROLLER NUMBER (STARTS 0 FOR EACH KONTROLLER TYPE)
  2151						;;HENCE, UNIDES RH=(3)CHANNEL NUM(6)KONTROLLER TYPE
  2152						;; (3)KONTROLLER NUM(3)UNIT TYPE(3)UNIT NUMBER
  2153				  ;;;RHB==:400000 ;;BIT 0=1 IF THE MONITOR MUST READ HOME BLOCK (PACK OFFLINE)
  2154				  UNPOFL==:200000 ;;BIT 1=1 IF THE UNIT IS OFF LINE
  2155				  UNPHWP==:100000 ;;BIT 2=1 IF THE UNIT IS HARDWARE WRITE PROTECTED
  2156				  ;;;SWP==: 40000 ;;BIT 3=1 IF STRUCTURE IS SOFTWARE WRITE PROTECTED
  2157				  UNPCHG==: 40000 ;;TIMESHARED BIT - A PARAMETER WAS CHANGED SO HOME BLOCK MUST
  2158						  ;; BE WRITTEN.  USED AND CLEARED BY ONCE-ONLY CODE.
  2159				  UNPPRV==: 20000 ;;BIT 4=1 IF THIS IS A PRIVATE PACK/STRUCTURE.
  2160				  ;;;ZMT==: 10000 ;;BIT 5=1 IF ZERO MOUNT COUNT.
  2161				  UNPFUS==:  4000 ;;BIT 6=1 IF FILE UNSAFE.
  2162				  UNPRRS==:  2000 ;;BIT 7=1 IF UNIT NEEDS READ AND RESET BUFFERED LOG
  2163				  ;;;STS==:  1000 ;;BITS 7&8 USED FOR TOPS-10 STATUS
  2164				  UNPMSB==:   400 ;;BIT 9=1 IF THIS UNIT HAS MORE THAN ONE SAT PAGE
  2165				  ;;;NNA==:   200 ;;BIT 10=1 IF NO NEW ACCESSES, STRUCTURE IS LOCKED
  2166				  ;;;AWL==:   100 ;;BIT 11=1 IF WRITE-LOCKED FOR ALL JOBS
  2167				  ;;;CPU==:    60 ;;BITS 12&13 HAVE CPU NUMBER (TRI-SMP)
  2168				  ;;;ALT==:    10 ;;BIT 14=1 IF DUAL PORTED UNIT
  2169				  ;;;TYP==:     7 ;;BITS 15-17 TYPE OF ARGUMENT TO DSKCHR UUO
  2170
  2171				UNISIZ==:UNIDES	;;SIZE OF UNIT DATA BLOCK
  2172				  UNSSIZ==^D8	;;BYTE SIZE
  2173				  UNNSIZ==^D17	;;BYTE PTR POS.
  2174
  2175						;;BITS 15 - 17 ARE A CODE WHICH TELLS WHETHER THE ARGUMENT PASSED TO
  2176						;; MONITOR IN LOC WAS:(NEVER STORED IN UNIT DATA BLOCK)
  2177						;; 0	GENERIC DEVICE DSK OR LOGICAL NAME FOR IT (E.G., DSK)
  2178						;; 1	SUBSET OF STR BECAUSE OF AN STR ABBREVIATION
  2179						;; 2	STR NAME OR LOGICAL NAME FOR IT (E.G., DSKA)
  2180						;; 3	UNIT WITHIN A FILE STRUCTURE OR A LOGICAL NAME FOR IT
  2181						;; 	(E.G., DSKA0)
  2182						;; 4	A KONTROLLER CLASS NAME OR A LOGICAL NAME FOR IT
  2183						;; 	(E.G., DR,FH,DP,MD,BP,AP,RP)
  2184						;; 5	A KONTROLLER NAME OR A LOGICAL NAME FOR IT
  2185						;; 	(E.G., DRA,FHA,DPA,MDA,DPB,BPA,APA,RPA)
  2186						;; 6	A PHYSICAL DISK UNIT NAME OR A LOGICAL NAME FOR IT
  2187						;; 	(E.G., DRA0,DPA3)
  2188						;;RH CONFIGURATION INFORMATION:
  2189				UNISCN==:UNIDES	;;BITS 18-20 DATA CHANNEL NUMBER SOFTWARE THINKS HARDWARE IS
  2190				  UNSSCN==^D3	;; CONNECTED TO.  STARTS AT 0 SO FIRST DATA CHANNEL IS 0.
  2191				  UNNSCN==^D20	;;BYTE PTR POS.
  2192				UNIKTP==:UNIDES	;;BITS 21-26 CONTROLLER TYPE
  2193				  UNSKTP==^D6	;;BYTE SIZE
  2194				  UNNKTP==^D26	;;BYTE PTR POS.
  2195				;*; TYPDR==0	;; 0	DR (DRUM THAT DEC NEVER BUILT)
  2196				    TYPFT==0	;; 0	FT 3380 KONTROLLER FOR IBM 3420'S
  2197				    TYPFH==1	;; 1	FH (BURROUGHS DISK OR BRYANT DRUM)
COMMOD - COMMON DATA LOCATIONS USED BY DISK SERVICE	MACRO 12.5-46.0 14:24 13-JAN-88 PAGE 39-5
COMMOD.MAC	20-NOV-87 23:00		Prototype STR Data Block

  2198				    TYPDP==2	;; 2	DP (MEMOREX RP01,RP02)
  2199				    TYPMD==3	;; 3	MD (BRYANT MASS DISK)
  2200				    TYPBP==4	;; 4	BP (BIG PACK, IBM 3330 DISK ON SA10 CONTROLLER)
  2201				    TYPRM==5	;; 5	RM (RH11C CONTROLLER FOR RM03, RP06 UNITS)
  2202				    TYPAP==6	;; 6	AP (AMPEX OR CDC DISKS FOUND ON F3)
  2203						;; 7	-- unused
  2204
  2205				UNIKNM==:UNIDES	;;BITS 27-29 KONTROLLER NUMBER.  STARTS AT 0, SO FIRST KONTROLLER OF
  2206				  UNSKNM==^D3	;; EACH TYPE STARTS AT 0.  (E.G., DPA=0,DPB=1,ETC.)
  2207				  UNNKNM==^D29	;;BYTE PTR POS.
  2208				UNIUTP==:UNIDES	;;BITS 30-31 UNIT TYPE - A KONTROLLER DEPENDENT FIELD USED TO
  2209				  UNSUTP==^D2	;; DISTINGUISH VARIOUS OPTIONS OF A UNIT ON ITS KONTROLLER
  2210				  UNNUTP==^D31	;;BITS 21-26   BITS 30-31
  2211						;;   DR 0	0
  2212						;;   FT 0	1  IBM 3420 TAPE ON SA10
  2213						;;   FH 1	0  BURROUGHS DISK ON RC10
  2214						;;   FH 1	1  BRYANT DRUM ON RC10
  2215						;;   DP 2	0  RP01
  2216						;;   DP 2	1  RP02
  2217						;;   MD 3	0  DUAL POSITIONER
  2218						;;   MD 3	1  SINGLE POSITIONER
  2219						;;   BP 4	0  3330-1  (100 MEGABYTE) IBM DISK ON SA10
  2220						;;   BP 4   *	1  3330-11 (200 MEGABYTE) IBM DISK ON SA10
  2221						;;   BP 4   *	2  3650/52 (300 MEGABYTE) Memorex disk on SA10
  2222						;;   BP 4   *	3  reserved for other IBM disk on SA10
  2223						;;   RM 5   *	0  RM03 UNIT ON 2020
  2224						;;   RM 5   *	1  RP06 UNIT ON 2020
  2225						;;   AP 6	0  AMPEX DISK FORMATTED IN BLOCKS
  2226						;;   AP 6	1  CDC DISK FORMATTED IN BLOCKS
  2227						;;   AP 6   *	2  CDC DISK FORMATTED IN PAGES
  2228						;;          *   marks supported disk types in P034/P
  2229				  UNPUTP==:20	;;THE BIT WHICH DISTINGUISHES THE DISK TYPES (if only 2)
  2230				UNIPUN==:UNIDES	;;BITS 32-35 PHYSICAL UNIT NUMBER WITHIN KONTROLLER - STARTS AT
  2231				  UNSPUN==^D4	;; 0 FOR EACH KONTROLLER SO FIRST UNIT IS 0, MAX IS 17
  2232				  UNNPUN==^D35	;;BYTE PTR POS.
  2233					0	; Place holder for obsolete entry (for SYSTAT and ERRCHK)
  2234					0	;   "	  "	"	"	"
  2235				UNIRCT::!0	;;HOLDS RETRY COUNTS FROM DEVICE DEPENDENT CODE
  2236				UNIRTY==UNIRCT	;;NUMBER OF TIMES TO RETRY BEFORE RECAL
  2237				 UNSRTY==^D9
  2238				 UNNRTY==^D35	;POSITION OF FIELD
  2239				UNIRCL==UNIRCT	;;NUMBER OF TIMES TO RECALIBRATE
  2240				 UNSRCL==^D9
  2241				 UNNRCL==^D26
  2242				UNIRRT==UNIRCT	;;NUMBER OF TIMES TO RETRY BETWEEN RECALS
  2243				 UNSRRT==^D9
  2244				 UNNRRT==^D17
  2245
  2246				 UNPDEV==:1000	;;FLAG THAT THIS WAS A DEVICE ERROR NOT DATA ERROR
  2247
  2248				UNIFCT::!0	;;FAIRNESS COUNT (USED ON UNITS WHICH POSITION)
  2249				UNIDIR::!0	;;ON UNITS WHICH POSITION, BIT 0 IS DIRECTION OF
  2250						;;LAST POSITION
COMMOD - COMMON DATA LOCATIONS USED BY DISK SERVICE	MACRO 12.5-46.0 14:24 13-JAN-88 PAGE 39-6
COMMOD.MAC	20-NOV-87 23:00		Prototype STR Data Block

  2251				UNITIM==UNIDIR	;;TIMER FOR HUNG DEVICE (AND OFF-LINE)
  2252				 UNSTIM==6	;;SIZE
  2253				 UNNTIM==6
  2254				UNIPAC==UNIDIR	;;ACTIVE PAGE POINTER FOR PAGE REQ'S
  2255				 UNSPAC==^D13	;;SIZE
  2256				 UNNPAC==^D19	;;LOCATION
  2257				UNIPGL==UNIDIR	;;LIST OF PAGES TO DO REQUESTS FOR (POINTER TO FIRST)
  2258				 UNSPGL==^D13	;;SIZE
  2259				 UNNPGL==^D32	;;LOCATION
  2260				UNIPPL==UNIDIR	;;NUMBER OF BLOCKS OF PAGE COMPLETED (IN CASE OF ERROR)
  2261				 UNSPPL==2	;;SIZE
  2262				 UNNPPL==^D34	;;LOCATION
  2263						;;BIT 35 IS UNUSED
  2264
  2265				UNIRC1::!0	;;SECOND CELL USED BY E.R.
  2266				 UNIOCV==:UNIRC1;;STATE OF OFFSET E.R. 0 IMP FINISHED; ODD IMP AWAY,
  2267				  UNSOCV==^D9			;; EVEN IMP TOWARDS SPINDLE. (VARIABLE W)
  2268				  UNNOCV==^D35
  2269				 UNIRTO==:UNIRC1;;NUMBER OF TIMES TO RETRY AFTER OFFSET (PARAMETER X)
  2270				  UNSRTO==^D9
  2271				  UNNRTO==^D26
  2272				 UNIRCO==:UNIRC1;;NUMBER OF TIMES TO RECAL AFTER RETRIES AFTER OFFSET
  2273				  UNSRCO==^D9			;; (PARAMETER Y)
  2274				  UNNRCO==^D17
  2275				 UNIOS==:UNIRC1	;;1 IFF SHOULD ENTER OFFSET MODE BEFORE STARTING A TRANSFER
  2276				  UNSOS==^D1
  2277				  UNNOS==^D7
  2278
  2279					$SYUNN==$SYUNN+1
  2280					$KNUNN==$KNUNN+1
  2281					$CHUNN==$CHUNN+1
  2282				> ; End DEFINE UNITCB
  2283
  2284
  2285				DEFINE DPITCB(%TYP,TYPL,N)<
  2286					UNITCB (%TYP,TYPL)
  2287					%UNSZ(\<$SYUNN-1>)==.
  2288					DEPHASE
  2289				> ; End DEFINE DPITCB
  2290
  2291				DEFINE RMITCB(%TYP,TYPL,N)<
  2292					UNITCB(%TYP,TYPL)
  2293				UNISVA::!0		;Starting virtual address of transfer on unit.
  2294				UNITWC::!0
  2295				UNIOFS::!0
  2296					XP SBSIZ,11	;NUMBER OF WORDS NEEDED TO SAVE RH11 REGISTERS.
  2297				UNISBH::!BLOCK SBSIZ	;RH11C/Rm03 registers of most recent hard error.
  2298				UNISBS::!BLOCK SBSIZ	; ditto for soft errors.
  2299				UNISB::!	BLOCK SBSIZ	;RH11C/RM03 registers saved here on error.
  2300					; 0,10,14,42,2,12,4,16,20,22,24,26,30,32,34,40,6,44 saved in
  2301					; that order (see SAVSTS in RM03), two per word, first in Lh.
  2302					%UNSZ(\<$SYUNN-1>)==.
  2303					DEPHASE
COMMOD - COMMON DATA LOCATIONS USED BY DISK SERVICE	MACRO 12.5-46.0 14:24 13-JAN-88 PAGE 39-7
COMMOD.MAC	20-NOV-87 23:00		Prototype STR Data Block

  2304				> ; End DEFINE RMITCB
  2305
  2306				DEFINE APITCB(%TYP,TYPL,N)<
  2307					UNITCB(%TYP,TYPL)
  2308					XP SBSIZ,4	;NUMBER OF LOCATIONS NEEDED TO SAVE F3 DISK REGISTERS
  2309				UNISBH::!BLOCK SBSIZ	;CONTROL REGISTERS OF MOST RECENT HARD ERROR
  2310				UNISBS::!BLOCK SBSIZ	;SAME FOR SOFT ERRORS
  2311				UNISB::! BLOCK SBSIZ	;USED BY DEVICE DEPENDENT ROUTINE
  2312				UNITWC::! BLOCK 1	;TOTAL WORD COUNT, FOR INTERRUPT LEVEL CHECING
  2313				UNISVA::! BLOCK 1	;PLACE TO SAVE MEMORY ADDRESS
  2314					%UNSZ(\<$SYUNN-1>)==.
  2315					DEPHASE
  2316				> ; End DEFINE APITCB
  2317
  2318				IFCPU (<KI,KL>),<
  2319			000000		UNISB==:0
  2320			000000		UNISBH==:0
  2321			000000		UNISBS==:0
  2322				>
  2323
  2324				DEFINE FHITCB(%TYP,TYPL,N)<
  2325					UNITCB(%TYP,TYPL)
  2326					%UNSZ(\<$SYUNN-1>)==.
  2327					DEPHASE
  2328				> ; End DEFINE FHITCB
  2329
  2330				DEFINE BPITCB(%TYP,TYPL,N)<
  2331					UNITCB(%TYP,TYPL)
  2332				UNISWC::!0	;SAVE WORD COUNT FOR THIS OPERATION
  2333				UNICNA::!0	;CONTINUE ADDRESS FOR LARGE TRANSFERS
  2334				UNICNC::!0	;CONTINUE COUNT
  2335				UNICCC::!0	;CURRENT COUNT IF TRANSFER BROKEN
  2336				UNISNS::!BYTE (8) 72,4,$KNUNN+BP'TYPL-1	;SENSE COMMAND
  2337					BYTE (12) -^D24 (24) UNISND+NMUN(\<$KNUNN-1>,%TYP'TYPL)
  2338					BYTE (8) 200			;End of command list for SENSE
  2339				UNISSD==:.-1			;Bits 9-35 for set sector data
  2340				UNISND::!BLOCK ^D<24/4>		;READ SENSE INFORMATION HERE
  2341				UNISNC::!0	;NUMBER OF SENSES DONE
  2342				UNISVC::!0	;SAVE COUNT HERE ON SENSE
  2343				UNISCM::!0	;SAVE COMMAND HERE ON SENSE
  2344				UNIACT::!0	;SAVE CHANNEL ACTIVE COUNT FOR HUNG
  2345				UNICOM::!-BPCMSZ,,.+1+NMUN(\<$KNUNN-1>,%TYP'TYPL)
  2346					BLOCK BPCMSZ		;Command list goes here
  2347						;;If BPCUN is nonzero, it must be same as BPAUN (and D=B)
  2348					OLV==0	;;Zero if 32 or less disk unit addresses
  2349				IFIDN <TYPL>,<A>,<IFN BPCUN,<OLV==NMUN(\<$KNUNN-1>,BPC)+UNISTS>>
  2350				IFIDN <TYPL>,<B>,<IFN BPDUN,<OLV==NMUN(\<$KNUNN-1>,BPD)+UNISTS>>
  2351				IFIDN <TYPL>,<C>,<IFN BPAUN,<OLV==NMUN(\<$KNUNN-1>,BPA)+UNISTS>>
  2352				IFIDN <TYPL>,<D>,<IFN BPBUN,<OLV==NMUN(\<$KNUNN-1>,BPB)+UNISTS>>
  2353				UNIOLV::!XWD ZERO18,OLV	;Pointer to other logical volume of 3652 disk
  2354					%UNSZ(\<$SYUNN-1>)==.
  2355					DEPHASE
  2356					LIST
COMMOD - COMMON DATA LOCATIONS USED BY DISK SERVICE	MACRO 12.5-46.0 14:24 13-JAN-88 PAGE 39-8
COMMOD.MAC	20-NOV-87 23:00		Prototype STR Data Block

  2357				> ; End DEFINE BPITCB
  2358
  2359				;Size of 3330/3675 command list is enough for 1 track of 18 blocks.
  2360				;This is 18*7 (7 per record = 2 data address words + 2 transfer command words +
  2361				; 3 search & TIC words) +1 for end of list +3 for SET SECTOR & its data +2 for
  2362				; seek +1 in case last transfer is in two parts (crosses a page boundry).
  2363				;A 3650 or 3652 disk formatted in blocks needs to handle 25 blocks per track.
  2364				;If formatted in pages, a single transfer spanning up to 4 tracks can be
  2365				;accommodated.  BPCMSZ = BPX command-list size.
  2366
  2367				;; BPCMSZ,<^D<18*7+1+3+2+1>>	;3330 in blocks = 18 records * 19 heads
  2368			000266	ND BPCMSZ,<^D<25*7+1+3+2+1>>	;3650 in blocks = 25 records * 30 heads
COMMOD - COMMON DATA LOCATIONS USED BY DISK SERVICE	MACRO 12.5-46.0 14:24 13-JAN-88 PAGE 40
COMMOD.MAC	20-NOV-87 23:00		Prototype STR Data Block

  2369				DEFINE NMFTDB(TYPL,NUMM)<FT'TYPL'NUMM'DB>
  2370
  2371				DEFINE NMFTDI(TYPL,NUMM)<INTERNAL FT'TYPL'NUMM'DB>
  2372
  2373				DEFINE SYFTNM(NM)<%SYF'NM>
  2374
  2375				DEFINE FTDDB(TYPL,NUMM)<
  2376				NMFTDB(TYPL,\NUMM):
  2377					PHASE 0
  2378				IFE NUMM,<
  2379					FT'TYPL'DDB==NMFTDB(TYPL,\NUMM)
  2380					NMFTDI(TYPL,D)
  2381				> ; End IFE NUMM
  2382				DEVNAM:!%SUN(\NUMM,FT'TYPL)
  2383				DEVCHR:!XWD 7*HUNGST,MTSIZ+1
  2384				DEVIOS:!Z
  2385				DEVSER:!XWD NMFTDB(TYPL,\<NUMM+1>),FTADSP
  2386				DEVMOD:!XWD DVIN+DVOUT+DVMTA,$FTMODE
  2387				DEVLOG:!Z
  2388				DEVBUF:!Z
  2389				DEVIAD:!0
  2390				DEVOAD:!0
  2391				DEVCLS:!XWD 600000,DEVLSA+NMFTDB(TYPL,\NUMM)
  2392				DEVSTS:!Z
  2393				DEVABC:!Z
  2394				DEVBWC:!Z
  2395				DEVLSA:!BLOCK LENFXL
  2396				DEVUDB::!NMUN(\NUMM,FT'TYPL)	;STORAGE FOR DR,, UNIT DB ADDR.
  2397				DEVCNT::!Z
  2398				DEVFNJ::!Z			;FN IN PROGRESS,,IBM 9 TRK ADJ.
  2399				DEVADD::!<FT'TYPL+$KNUNN>*10000
  2400				DEVDWC::!Z
  2401				DEVER1::!Z
  2402				DEVER2::!Z
  2403				DEVOUT::!Z
  2404				DEVINS::!Z
  2405				DEV40::! Z
  2406				DEVNOI::!Z
  2407				DEVACT::!Z
  2408				DEVDIO::!Z			;LH UNUSED, RH USED FOR PGYDIO
  2409								;CALCULATIONS.
  2410
  2411				NMFTDI(TYPL,\NUMM)
  2412
  2413				XP FT'TYPL'DDS,.
  2414				INTERNAL FT'TYPL'DDS
  2415
  2416					DEPHASE
  2417				> ; End DEFINE FTDDB
  2418
  2419			000104	FTCMLN==:104
  2420
  2421				DEFINE FTITCB (%TYP,TYPL,%%N)<
COMMOD - COMMON DATA LOCATIONS USED BY DISK SERVICE	MACRO 12.5-46.0 14:24 13-JAN-88 PAGE 40-2
COMMOD.MAC	20-NOV-87 23:00		Prototype STR Data Block

  2422					%NUN(INTERNAL,\$KNUNN,%TYP'TYPL)
  2423				NMUN(\$KNUNN,%TYP'TYPL):
  2424				SYFTNM(\$SYFTN)==.
  2425
  2426					PHASE 0
  2427				UNIDDB::! NMFTDB(TYPL,\$KNUNN)	;ADDR OF ASSOCIATED DDB.
  2428				UNILNK::! SYFTNM(\<$SYFTN+1>)
  2429
  2430				;ERROR REPORTING.
  2431				FDHFUN::! Z		;FN IN PROGRESS WHEN DEVICE HUNG.
  2432				FDHCNT::! Z		;# OF TIMES UNIT HAS HUNG.
  2433				FDHCNI::! Z
  2434				FDCNI1::! Z
  2435				FDCNIE::! Z
  2436				FDNRE1::! Z		;# READS NOT SUCCEEDING ON 1ST TRY.
  2437				FDNWR1::! Z		;# WRITES NOT SUCCEEDING ON 1ST TRY.
  2438				FDNREE::! Z		;" READS     "       "   EVER.
  2439				FDNWRE::! Z		;" WRITES    "       "   EVER.
  2440				FDERBT::! Z
  2441				FDSENS::! Z
  2442					Z
  2443					Z
  2444					Z
  2445					Z
  2446					Z
  2447				FDSCHR::! Z
  2448					Z
  2449					Z
  2450					Z
  2451					Z
  2452					Z
  2453				FDMEMR::! Z		;INFORMATION ABOUT THE LAST MEM ERR
  2454							;SEEN (CHNMER COPY).
  2455
  2456				;END OF ERROR REPORTING.
  2457
  2458				UNIKNT::! XWD NMCH(\$CHN),FT'TYPL'CB  ;CHAN DB,,KONT DB.
  2459				UNIERO::! BLOCK 7		;ERROR SPACE IS HERE TO UNICMD.
  2460				UNICMD::! BLOCK FTCMLN		;NORMAL COMMAND SPACE IS FROM
  2461				UNIDON::!			;UNICMD TO UNIDON.
  2462				UNIDCR::! BLOCK 1		;DURING DATA CHECK-READ RECOVERY
  2463								;READ CMD SAVED HERE,
  2464				UNIDCN::! BLOCK 1		;NEXT CMD SAVED HERE,
  2465				UNIDC1::! BLOCK 1		;POINTER TO READ SAVED HERE.
  2466				UNITYP::! Z			;LH=7/9 TRK, DENS.
  2467								;RH=FOR HUNG ROUTINE.(SIGN BIT MUST BE 0).
  2468				UNISX1::! Z			;MOST RECENT SAXBAS+1(+5, ETC.) FOR THIS UNIT
  2469				UNISX2::! Z			;SAXBAS+2, OR +6, ETC.
  2470				UNISX3::! Z			;SAXBAS+3, OR +7, ETC.
  2471				$SYFTN==$SYFTN+1		;NO. OF FT UNITS ON SYSTEM.
  2472
  2473					FTULNH==:.-UNIDDB+1
  2474					DEPHASE
COMMOD - COMMON DATA LOCATIONS USED BY DISK SERVICE	MACRO 12.5-46.0 14:24 13-JAN-88 PAGE 40-3
COMMOD.MAC	20-NOV-87 23:00		Prototype STR Data Block

  2475
  2476					FTDDB(TYPL,$KNUNN)
  2477					$KNUNN==$KNUNN+1
  2478					%'%TYP'TYPL'0==0
  2479				> ; End DEFINE FTITCB
  2480
  2481				IFN MAGUN,<;IF ANY KS10 OR F3 STYLE TAPE CONTROLLERS
  2482				;Magtape data structures: KDB, UDBs, DDBs
  2483				;Note: the KS-10 allows only one TM03 and a maximum of 4 TU45s.
  2484
  2485				;UDB.   TU0CB::, TU1CB::
  2486				DEFINE MTUDB(NUMBER),<
  2487				TU'NUMBER'CB::
  2488					PHASE 0
  2489				TUBDDB::!TU'NUMBER'DDB		;(0)Address of this unit's DDB
  2490				TUBDA::!NUMBER			;(1) 7*<TM03 #> + <TU45 #> (TM03 #=0)
  2491				TUBKDB::!TMX0CB			;(2)Pointer to KBD of this unit.
  2492				UNITYP::!0			;(3)Lh: <>0 if unit online, 0 ow. Rh:<>0 if
  2493								; device has timed out once.
  2494				TUBHC::!0			;(4)Number of times this unit called, "hung."
  2495				TUBIWC::!0			;(5)WC register before transfer.
  2496				TUBIFC::!0			;(6)FC register before transfer.
  2497				TUBCNT::!0			;(7)DEVCNT copied b4 transfer
  2498				TUBCLS::!0			;(10)DEVCLS copied b4 transfer
  2499				TUBER1::!0			;(11)Error rec. coroutine adr or 0
  2500				TUBER2::!0			;(12)Error rec. # tries left.
  2501				TUBS::!	0			;(13)Lh: On line state. Rh: rewind state
  2502				TUBEC::!0			;(14)number of device errors
  2503				TUBSB::!BLOCK 7			;(15:23)device regs last error.
  2504				TUBICW::!0			;INITIAL COMMAND WORD FOR CHANNEL
  2505				LENFXL==44
  2506				TUBCOM::!BLOCK LENFXL		;SPACE FOR COMMAND LIST, ONE WORD FOR EVERY DDB IOWD
  2507				MTUDBL==.			;Length of magtape UDB.
  2508				INTERNAL MTUDBL
  2509					DEPHASE
  2510				>
  2511				ZZ==0
  2512				REPEAT MAGUN,<
  2513					MTUDB(\ZZ)		;Create TU0CB (and TU1CB for TRW)
  2514				ZZ==ZZ+1
  2515				>
  2516				TUYTMN::POINT 3,TUBDA(U),33	;Pointer to TM03 number (0-7, only 0 supported)
  2517				TUYTUN::POINT 2,TUBDA(U),35	;Pointer to TU45 number (0-3, only 0 & 1 used)
  2518
  2519				;KDB.
  2520				TMX0CB::  MT0KDB::
  2521					PHASE 0
  2522				TKBCUN::!0			;(0)Address of UDB of currently active unit
  2523				IFCPU (KS),<
  2524				TKBCBA::!UA3,,772440		;(1)Base address of Rh11C
  2525				>;END IFCPU(KS)
  2526				TKBSPR::!0			;(2)Count of spurious interrupts received
  2527				TKBIUN::!-MAGUN,,TMX0CB+.+1	;Pointer to vector of addressess
COMMOD - COMMON DATA LOCATIONS USED BY DISK SERVICE	MACRO 12.5-46.0 14:24 13-JAN-88 PAGE 40-4
COMMOD.MAC	20-NOV-87 23:00		Prototype STR Data Block

  2528								; of all UDBs on the TM03.
  2529					DEPHASE
  2530
  2531				DEFINE TUCBNM(NUM)<
  2532					TU'NUM'CB
  2533				>
  2534				ZZ==0
  2535				REPEAT MAGUN,<
  2536				TUCBNM(\ZZ)
  2537				ZZ==ZZ+1>
  2538
  2539					BLOCK	<<-MAGUN>&3>	;Zero's for unused TU45 slaves
  2540					0		;There must be one extra 0 at the end of the vector.
  2541
  2542				;DDB.		TU0DDB::SIXBIT/MTA0/, TU1DDB::SIXBIT/MTA1/
  2543				;This macro, given a unit number, returns the name of the DDB.  It is
  2544				; necessary because of MACRO's primative macro processor.
  2545				DEFINE MFOO1(X)<TU'X'DDB>
  2546				DEFINE MTDDB(NUMBER),<
  2547				TU'NUMBER'DDB::
  2548					PHASE 0
  2549				DEVNAM::!<SIXBIT/MTA/>+<NUMBER+20>_14
  2550				DEVCHR::!XWD 7*HUNGST,MTSIZ##+1
  2551				DEVIOS::!0
  2552				DEVSER::!XWD MFOO1(\<NUMBER+1>),MAGDSP##
  2553				DEVMOD::!XWD DVIN+DVOUT+DVMTA,<1_D+1_DR+1_B+1_IB+1_I+1_AL+1_A>
  2554				DEVLOG::!0
  2555				DEVBUF::!0
  2556				DEVIAD::!0
  2557				DEVOAD::!0
  2558				DEVCLS::!XWD 600000,DEVLSA+TU'NUMBER'DDB
  2559				DEVSTS::!0
  2560				DEVABC::!0
  2561				DEVBWC::!0
  2562				LENFXL==44		;At least that's what it is in other systems.
  2563				DEVLSA::!BLOCK LENFXL
  2564				DEVUDB::!TU'NUMBER'CB
  2565				DEVDIO::!0
  2566				DEVFNJ::!0
  2567				DEVMD1::!0			;Rh: mode.
  2568				DEVER1::!0			;Rh: MTER after error
  2569				DEVDWC::!0
  2570				DEVCNT::!0
  2571				MAGDDS==.
  2572				INTERNAL MAGDDS
  2573					DEPHASE
  2574				>
  2575				;This makes the last link 0.
  2576				MFOO1(\<MAGUN>)==0
  2577
  2578				MAGDDB:: MT0DDB::
  2579				ZZ==0
  2580				REPEAT MAGUN,<
COMMOD - COMMON DATA LOCATIONS USED BY DISK SERVICE	MACRO 12.5-46.0 14:24 13-JAN-88 PAGE 40-5
COMMOD.MAC	20-NOV-87 23:00		Prototype STR Data Block

  2581					MTDDB(\ZZ)
  2582				ZZ==ZZ+1
  2583				>
  2584				>;END IFN MAGUN
COMMOD - COMMON DATA LOCATIONS USED BY DISK SERVICE	MACRO 12.5-46.0 14:24 13-JAN-88 PAGE 41
COMMOD.MAC	20-NOV-87 23:00		Prototype STR Data Block

  2585				;DEFINE NAME DEFINERS
  2586
  2587					DEFINE %NCH (ARG,NUM)	;FUNCTION USING NAME OF CHANNEL
  2588				<ARG CHN'NUM'CB>
  2589
  2590					DEFINE NMCH(NUM)	;NAME OF CHANNEL
  2591				<%NCH (,NUM)>
  2592
  2593					DEFINE NMCHUN(CHN,UNIN)	;UNIT WITHIN CHANEL
  2594				<%CH'CHN'UNIN>
  2595
  2596					DEFINE %KNCHN (CHN,TYP)	;NUMBER OF TYPES OF UNIT ON CHANNEL
  2597				<C'CHN'TYP'N>
  2598
  2599					DEFINE NMKNUN (SYM,NUM)	;NAME OF UNIT ON KONTROLER
  2600				<%'SYM'NUM>
  2601
  2602					DEFINE %NUN(ARG,NUM,TYP)	;FUNCTION OF UNIT
  2603				<ARG TYP'NUM'CB>
  2604
  2605					DEFINE NMUN (NUM,TYP)	;NAME OF UNIT
  2606				<%NUN (,NUM,TYP)>
  2607
  2608					DEFINE %SUN (NUM,TYP)	;SIXBIT NAME OF UNIT
  2609				<SIXBIT /TYP'NUM/>
  2610
  2611					DEFINE NMSYUN (NUM)	;UNIT WITHIN SYSTEM
  2612				<%SY'NUM>
  2613
  2614					DEFINE NMKCN(CHN,KON)	;NAME OF KON IN CHL
  2615				<%CK'CHN'KON>
  2616
  2617					DEFINE NMSCH(SAN,CHN)	;NAME OF CHANNEL ON SA-10
  2618				<SC'SAN'CHN'CB>
  2619
  2620					DEFINE %UNSZ(NUM)	;SIZE OF UNIT DATA BLOCK
  2621				<%SIZ'NUM>
COMMOD - COMMON DATA LOCATIONS USED BY DISK SERVICE	MACRO 12.5-46.0 14:24 13-JAN-88 PAGE 42
COMMOD.MAC	20-NOV-87 23:00		Byte pointers to UNI

  2622				SUBTTL	Byte pointers to UNI
  2623				IFE DSKTYP-'3675B',<DSKPPU::^D68680>	;BPXKON works only with 3675 blocks
  2624	000406'	000000	000000	IFN DSKTYP-'3675B',<DSKPPU::0>		;Pages per unit not critical on all others
  2625	000407'	221005	000050	UNYSIZ::POINT UNSSIZ,UNISIZ(U),UNNSIZ	;Unit data block size
  2626	000410'	170305	000050	UNYSCN::POINT UNSSCN,UNISCN(U),UNNSCN	;Channel #
  2627	000411'	110605	000050	UNYKTP::POINT UNSKTP,UNIKTP(U),UNNKTP	;Kontroller type unit is connected to
  2628	000412'	060305	000050	UNYKNM::POINT UNSKNM,UNIKNM(U),UNNKNM	;Kontroller number within type
  2629	000413'	040205	000050	UNYUTP::POINT UNSUTP,UNIUTP(U),UNNUTP	;Unit type (Kontroller dependent)
  2630	000414'	000405	000050	UNYPUN::POINT UNSPUN,UNIPUN(U),UNNPUN	;Physical unit # (0-17) within Kontroller
  2631	000415'	000605	000003	UNYLUN::POINT UNSLUN,UNILUN(U),UNNLUN	;Logical unit # (0-77) within STR
  2632	000416'	000606	000003	UNYLN1::POINT UNSLUN,UNILUN(T1),UNNLUN	;Logical unit # - for ONCE only
  2633	000417'	331105	000043	UNYWPS::POINT UNSWPS,UNIWPS(U),UNNWPS	;Words per SAT page (0 means 512)
  2634	000420'	321005	000042	UNYBPR::POINT UNSBPR,UNIBPR(U),UNNBPR	;Blocks per sector (1 or 4)
  2635	000421'	221105	000042	UNYBPT::POINT UNSBPT,UNIBPT(U),UNNBPT	;Blocks per track, for BPXKON,RMXKON
  2636	000422'	240705	000042	UNYPPT::POINT UNSBPT-2,UNIBPT(U),UNNBPT-2 ;Pages per track, for APXKON,CPXKON
  2637	000423'	002205	000042	UNYBPY::POINT UNSBPY,UNIBPY(U),UNNBPY	;Blocks per cylinder, for BPXKON,RMXKON
  2638	000424'	022005	000042	UNYPPY::POINT UNSBPY-2,UNIBPY(U),UNNBPY-2 ;Pages per cyl, for FILIO,APXKON,CPXKON,REFSTR
  2639	000425'	221005	000043	UNYSPU::POINT UNSSPU,UNISPU(U),UNNSPU	;# SAT pages per unit
  2640	000426'	350605	000055	UNYTIM::POINT UNSTIM,UNITIM(U),UNNTIM	;Timer for hung device
  2641	000427'	201505	000055	UNYPAC::POINT UNSPAC,UNIPAC(U),UNNPAC	;Active page pointer
  2642	000430'	031505	000055	UNYPGL::POINT UNSPGL,UNIPGL(U),UNNPGL	;Request list pointer
  2643	000431'	001105	000053	UNYRTY::POINT UNSRTY,UNIRTY(U),UNNRTY	;Retry count
  2644	000432'	111105	000053	UNYRCL::POINT UNSRCL,UNIRCL(U),UNNRCL	;RECAL count
  2645	000433'	221105	000053	UNYRRT::POINT UNSRRT,UNIRRT(U),UNNRRT	;Retry count between RECALs
  2646	000434'	001105	000056	UNYOCV::POINT UNSOCV,UNIOCV(U),UNNOCV	;Offset state (error recovery)
  2647	000435'	111105	000056	UNYRTO::POINT UNSRTO,UNIRTO(U),UNNRTO	;Retry this many times after offset
  2648	000436'	221105	000056	UNYRCO::POINT UNSRCO,UNIRCO(U),UNNRCO	;RECAL after retry after offset
  2649	000437'	340105	000056	UNYOS::	POINT UNSOS,UNIOS(U),UNNOS	;1 <=> Set offset mode before XFR
  2650	000440'	010205	000055	UNYPPL::POINT UNSPPL,UNIPPL(U),UNNPPL	;Partial page transfer byte, for FILIO
COMMOD - COMMON DATA LOCATIONS USED BY DISK SERVICE	MACRO 12.5-46.0 14:24 13-JAN-88 PAGE 43
COMMOD.MAC	20-NOV-87 23:00		Channel DB, SAX DB, unit DB

  2651				SUBTTL	Channel DB, SAX DB, unit DB
  2652			000000	$FTNUM==0
  2653			000000	$SYFTN==0	;NO. OF FTS ON SYSTEM (FOR ERROR REPORTING.)
  2654			000000	$BPNUM==0
  2655			000000	$FHNUM==0
  2656			000000	$DPNUM==0
  2657			000000	$MDNUM==0
  2658			000000	$RMNUM==0
  2659			000000	$APNUM==0
  2660			000000	$SYUNN==0	;UNIT WITHIN SYSTEM
  2661			000000	$CHN==0		;CHANNEL NUMBER
  2662			000000	$LOCW==0	;USED FOR DEFINING LOW CORE CHANNEL KONTROL WORD
  2663
  2664	000441'	777776	000000		SYDVF (<<CTYBUF,CTYBLN>,<CTYPTR,1>>)
  2665	000442'	436471	426546
  2666	000443'	001000	000447'
  2667	000444'	436471	606462
  2668	000445'	000001	000446'
  2669					;For SYSDVF function 6
  2670				;*;IFCPU (KL),<BLOCK 1000> ;MAKE SURE NO IMPORTANT CODE IS UNCACHED.
  2671	000446'	440700	000000	CTYPTR::POINT 7,<CTYBUF-CTYBUF>&777	;Relative position in CTYBUF
  2672	000447'			CTYBUF::BLOCK 1000	;Buffer for copy of everything sent to CTY
  2673			001000	  CTYBLN==.-CTYBUF	;Define length for SYSDVF
  2674	001447'	361747	437000		ASCIZ /<><>/	;Null at end so can use CTYBUF$0T in FILDDT
  2675				IF2,<IFN CTYBUF+1001-CHNUNC,<   ;Do NOT move CTYBUF!
  2676				  PRINTX ?CHNUNC cannot be in same page as cached items in COMMON!>>
  2677
  2678	001450'			CHNUNC::!		;START OF UNCACHED AREA
  2679					LALL		;MAKE SURE THE CONTROLLER BLOCKS SHOW UP
  2680				REPEAT CHNN,<CHNCB>
  2681			000000		$SAXN==0
  2682				REPEAT SAXN,<
  2683					SAXCB (\$SAXN)^LALL
  2684			000000		$SAXCN==0
  2685				    REPEAT SAXC0N,
  2686				SACCB (0,\$SAXCN)^
  2687
  2688				IFE BP00+FT00,<SC00CB==:0>
  2689				IFN BP00+FT00,<
  2690			000000		$SAXUN==0	;NUMBER OF UNITS (MAX)
  2691			000000		$CHUNN==0	;NUMBER OF UNITS (ACTUAL)
  2692			000000		$KCHNN==0
  2693				    REPEAT BP00,<KONTCB (BP)>
  2694				    REPEAT FT00,<KONTCB (FT)>^KONCB1 (FT,<A,B,C,D,E,F,G,H,I,J,K,L>)^
  2695			000000		$U==0
  2696				    IRP
  2697
  2698					IFE $U-$FTNUM,<
  2699					    STOPI
  2700					    IFN FTAUN,<	RADIX 5+5
  2701						PRINT2(\FTAUN,units on FTA)^IF2,<PRINTX [4 units on FTA]>^
  2702								RADIX 8
COMMOD - COMMON DATA LOCATIONS USED BY DISK SERVICE	MACRO 12.5-46.0 14:24 13-JAN-88 PAGE 43-2
COMMOD.MAC	20-NOV-87 23:00		Channel DB, SAX DB, unit DB

  2703			000000			$KNUNN==0	;UNIT NUMBER IN KON
  2704						REPEAT FTAUN,
  2705
  2706							IFGE $SYUNN-4,<XLIST>;List only the first 4
  2707							IFE  $KNUNN,<LIST>  ;Show first unit on each KON
  2708							IFL  $SYUNN-4,<PAGE>
COMMOD - COMMON DATA LOCATIONS USED BY DISK SERVICE	MACRO 12.5-46.0 14:24 13-JAN-88 PAGE 44
COMMOD.MAC	20-NOV-87 23:00		Channel DB, SAX DB, unit DB

  2709							FTITCB (FT,A,\$FTNUM)^
  2710					%NUN(INTERNAL,\$KNUNN,FTA)^INTERNAL FTA0CB^
  2711	001450'			NMUN(\$KNUNN,FTA)^%NUN (,0,FTA)^ FTA0CB^^:
  2712			001450'	SYFTNM(\$SYFTN)^%SYF0^==.
  2713
  2714	000000				PHASE 0
  2715	001450'	000000	001624'	UNIDDB::! NMFTDB(A,\$KNUNN)^FTA0DB^	;ADDR OF ASSOCIATED DDB.
  2716	001451'	000000	001721'	UNILNK::! SYFTNM(\<$SYFTN+1>)^%SYF1^
  2717
  2718				;ERROR REPORTING.
  2719	001452'	000000	000000	FDHFUN::! Z		;FN IN PROGRESS WHEN DEVICE HUNG.
  2720	001453'	000000	000000	FDHCNT::! Z		;# OF TIMES UNIT HAS HUNG.
  2721	001454'	000000	000000	FDHCNI::! Z
  2722	001455'	000000	000000	FDCNI1::! Z
  2723	001456'	000000	000000	FDCNIE::! Z
  2724	001457'	000000	000000	FDNRE1::! Z		;# READS NOT SUCCEEDING ON 1ST TRY.
  2725	001460'	000000	000000	FDNWR1::! Z		;# WRITES NOT SUCCEEDING ON 1ST TRY.
  2726	001461'	000000	000000	FDNREE::! Z		;" READS     "       "   EVER.
  2727	001462'	000000	000000	FDNWRE::! Z		;" WRITES    "       "   EVER.
  2728	001463'	000000	000000	FDERBT::! Z
  2729	001464'	000000	000000	FDSENS::! Z
  2730	001465'	000000	000000		Z
  2731	001466'	000000	000000		Z
  2732	001467'	000000	000000		Z
  2733	001470'	000000	000000		Z
  2734	001471'	000000	000000		Z
  2735	001472'	000000	000000	FDSCHR::! Z
  2736	001473'	000000	000000		Z
  2737	001474'	000000	000000		Z
  2738	001475'	000000	000000		Z
  2739	001476'	000000	000000		Z
  2740	001477'	000000	000000		Z
  2741	001500'	000000	000000	FDMEMR::! Z		;INFORMATION ABOUT THE LAST MEM ERR
  2742							;SEEN (CHNMER COPY).
  2743
  2744				;END OF ERROR REPORTING.
  2745
  2746	001501'	002757'	002714'	UNIKNT::! XWD NMCH(\$CHN)^%NCH (,0)^ CHN0CB^^,FTACB  ;CHAN DB,,KONT DB.
  2747	000032			UNIERO::! BLOCK 7		;ERROR SPACE IS HERE TO UNICMD.
  2748	000041			UNICMD::! BLOCK FTCMLN		;NORMAL COMMAND SPACE IS FROM
  2749	000145			UNIDON::!			;UNICMD TO UNIDON.
  2750	000145			UNIDCR::! BLOCK 1		;DURING DATA CHECK-READ RECOVERY
  2751								;READ CMD SAVED HERE,
  2752	000146			UNIDCN::! BLOCK 1		;NEXT CMD SAVED HERE,
  2753	000147			UNIDC1::! BLOCK 1		;POINTER TO READ SAVED HERE.
  2754	001620'	000000	000000	UNITYP::! Z			;LH=7/9 TRK, DENS.
  2755								;RH=FOR HUNG ROUTINE.(SIGN BIT MUST BE 0).
  2756	001621'	000000	000000	UNISX1::! Z			;MOST RECENT SAXBAS+1(+5, ETC.) FOR THIS UNIT
  2757	001622'	000000	000000	UNISX2::! Z			;SAXBAS+2, OR +6, ETC.
  2758	001623'	000000	000000	UNISX3::! Z			;SAXBAS+3, OR +7, ETC.
  2759			000001	$SYFTN==$SYFTN+1		;NO. OF FT UNITS ON SYSTEM.
  2760
  2761			000155		FTULNH==:.-UNIDDB+1
COMMOD - COMMON DATA LOCATIONS USED BY DISK SERVICE	MACRO 12.5-46.0 14:24 13-JAN-88 PAGE 44-2
COMMOD.MAC	20-NOV-87 23:00		Channel DB, SAX DB, unit DB

  2762	001624'				DEPHASE
  2763
  2764					FTDDB(A,$KNUNN)^
  2765	001624'			NMFTDB(A,\$KNUNN)^FTA0DB^:
  2766	000000				PHASE 0
  2767				IFE $KNUNN,<
  2768			001624'		FTADDB==NMFTDB(A,\$KNUNN)^FTA0DB^
  2769					NMFTDI(A,D)^INTERNAL FTADDB^
  2770				> ; End IFE $KNUNN
  2771	001624'	466441	200000	DEVNAM:!%SUN(\$KNUNN,FTA)^SIXBIT /FTA0/^
  2772	001625'	003400	000001*	DEVCHR:!XWD 7*HUNGST,MTSIZ+1
  2773	001626'	000000	000000	DEVIOS:!Z
  2774	001627'	002075'	000000*	DEVSER:!XWD NMFTDB(A,\<$KNUNN+1>)^FTA1DB^,FTADSP
  2775	001630'	000023	154403	DEVMOD:!XWD DVIN+DVOUT+DVMTA,$FTMODE
  2776	001631'	000000	000000	DEVLOG:!Z
  2777	001632'	000000	000000	DEVBUF:!Z
  2778	001633'	000000	000000	DEVIAD:!0
  2779	001634'	000000	000000	DEVOAD:!0
  2780	001635'	600000	001641'	DEVCLS:!XWD 600000,DEVLSA+NMFTDB(A,\$KNUNN)^FTA0DB^
  2781	001636'	000000	000000	DEVSTS:!Z
  2782	001637'	000000	000000	DEVABC:!Z
  2783	001640'	000000	000000	DEVBWC:!Z
  2784	000015			DEVLSA:!BLOCK LENFXL
  2785	001704'	000000	001450'	DEVUDB::!NMUN(\$KNUNN,FTA)^%NUN (,0,FTA)^ FTA0CB^^	;STORAGE FOR DR,, UNIT DB ADDR.
  2786	001705'	000000	000000	DEVCNT::!Z
  2787	001706'	000000	000000	DEVFNJ::!Z			;FN IN PROGRESS,,IBM 9 TRK ADJ.
  2788	001707'	000002	000000	DEVADD::!<FTA+$KNUNN>*10000
  2789	001710'	000000	000000	DEVDWC::!Z
  2790	001711'	000000	000000	DEVER1::!Z
  2791	001712'	000000	000000	DEVER2::!Z
  2792	001713'	000000	000000	DEVOUT::!Z
  2793	001714'	000000	000000	DEVINS::!Z
  2794	001715'	000000	000000	DEV40::! Z
  2795	001716'	000000	000000	DEVNOI::!Z
  2796	001717'	000000	000000	DEVACT::!Z
  2797	001720'	000000	000000	DEVDIO::!Z			;LH UNUSED, RH USED FOR PGYDIO
  2798								;CALCULATIONS.
  2799
  2800				NMFTDI(A,\$KNUNN)^INTERNAL FTA0DB^
  2801
  2802			000075	XP FTADDS,.^FTADDS==:.^
  2803				INTERNAL FTADDS
  2804
  2805	001721'				DEPHASE
  2806				^
  2807			000001		$KNUNN==$KNUNN+1
  2808			000000		%FTA0==0
  2809				^
  2810
  2811							IFGE $SYUNN-4,<XLIST>;List only the first 4
  2812							IFE  $KNUNN,<LIST>  ;Show first unit on each KON
  2813							IFL  $SYUNN-4,<PAGE>
COMMOD - COMMON DATA LOCATIONS USED BY DISK SERVICE	MACRO 12.5-46.0 14:24 13-JAN-88 PAGE 45
COMMOD.MAC	20-NOV-87 23:00		Channel DB, SAX DB, unit DB

  2814							FTITCB (FT,A,\$FTNUM)^
  2815					%NUN(INTERNAL,\$KNUNN,FTA)^INTERNAL FTA1CB^
  2816	001721'			NMUN(\$KNUNN,FTA)^%NUN (,1,FTA)^ FTA1CB^^:
  2817			001721'	SYFTNM(\$SYFTN)^%SYF1^==.
  2818
  2819	000000				PHASE 0
  2820	001721'	000000	002075'	UNIDDB::! NMFTDB(A,\$KNUNN)^FTA1DB^	;ADDR OF ASSOCIATED DDB.
  2821	001722'	000000	002172'	UNILNK::! SYFTNM(\<$SYFTN+1>)^%SYF2^
  2822
  2823				;ERROR REPORTING.
  2824	001723'	000000	000000	FDHFUN::! Z		;FN IN PROGRESS WHEN DEVICE HUNG.
  2825	001724'	000000	000000	FDHCNT::! Z		;# OF TIMES UNIT HAS HUNG.
  2826	001725'	000000	000000	FDHCNI::! Z
  2827	001726'	000000	000000	FDCNI1::! Z
  2828	001727'	000000	000000	FDCNIE::! Z
  2829	001730'	000000	000000	FDNRE1::! Z		;# READS NOT SUCCEEDING ON 1ST TRY.
  2830	001731'	000000	000000	FDNWR1::! Z		;# WRITES NOT SUCCEEDING ON 1ST TRY.
  2831	001732'	000000	000000	FDNREE::! Z		;" READS     "       "   EVER.
  2832	001733'	000000	000000	FDNWRE::! Z		;" WRITES    "       "   EVER.
  2833	001734'	000000	000000	FDERBT::! Z
  2834	001735'	000000	000000	FDSENS::! Z
  2835	001736'	000000	000000		Z
  2836	001737'	000000	000000		Z
  2837	001740'	000000	000000		Z
  2838	001741'	000000	000000		Z
  2839	001742'	000000	000000		Z
  2840	001743'	000000	000000	FDSCHR::! Z
  2841	001744'	000000	000000		Z
  2842	001745'	000000	000000		Z
  2843	001746'	000000	000000		Z
  2844	001747'	000000	000000		Z
  2845	001750'	000000	000000		Z
  2846	001751'	000000	000000	FDMEMR::! Z		;INFORMATION ABOUT THE LAST MEM ERR
  2847							;SEEN (CHNMER COPY).
  2848
  2849				;END OF ERROR REPORTING.
  2850
  2851	001752'	002757'	002714'	UNIKNT::! XWD NMCH(\$CHN)^%NCH (,0)^ CHN0CB^^,FTACB  ;CHAN DB,,KONT DB.
  2852	000032			UNIERO::! BLOCK 7		;ERROR SPACE IS HERE TO UNICMD.
  2853	000041			UNICMD::! BLOCK FTCMLN		;NORMAL COMMAND SPACE IS FROM
  2854	000145			UNIDON::!			;UNICMD TO UNIDON.
  2855	000145			UNIDCR::! BLOCK 1		;DURING DATA CHECK-READ RECOVERY
  2856								;READ CMD SAVED HERE,
  2857	000146			UNIDCN::! BLOCK 1		;NEXT CMD SAVED HERE,
  2858	000147			UNIDC1::! BLOCK 1		;POINTER TO READ SAVED HERE.
  2859	002071'	000000	000000	UNITYP::! Z			;LH=7/9 TRK, DENS.
  2860								;RH=FOR HUNG ROUTINE.(SIGN BIT MUST BE 0).
  2861	002072'	000000	000000	UNISX1::! Z			;MOST RECENT SAXBAS+1(+5, ETC.) FOR THIS UNIT
  2862	002073'	000000	000000	UNISX2::! Z			;SAXBAS+2, OR +6, ETC.
  2863	002074'	000000	000000	UNISX3::! Z			;SAXBAS+3, OR +7, ETC.
  2864			000002	$SYFTN==$SYFTN+1		;NO. OF FT UNITS ON SYSTEM.
  2865
  2866			000155		FTULNH==:.-UNIDDB+1
COMMOD - COMMON DATA LOCATIONS USED BY DISK SERVICE	MACRO 12.5-46.0 14:24 13-JAN-88 PAGE 45-2
COMMOD.MAC	20-NOV-87 23:00		Channel DB, SAX DB, unit DB

  2867	002075'				DEPHASE
  2868
  2869					FTDDB(A,$KNUNN)^
  2870	002075'			NMFTDB(A,\$KNUNN)^FTA1DB^:
  2871	000000				PHASE 0
  2872				IFE $KNUNN,<
  2873					FTADDB==NMFTDB(A,\$KNUNN)
  2874					NMFTDI(A,D)
  2875				> ; End IFE $KNUNN
  2876	002075'	466441	210000	DEVNAM:!%SUN(\$KNUNN,FTA)^SIXBIT /FTA1/^
  2877	002076'	003400	000001*	DEVCHR:!XWD 7*HUNGST,MTSIZ+1
  2878	002077'	000000	000000	DEVIOS:!Z
  2879	002100'	002346'	001627*	DEVSER:!XWD NMFTDB(A,\<$KNUNN+1>)^FTA2DB^,FTADSP
  2880	002101'	000023	154403	DEVMOD:!XWD DVIN+DVOUT+DVMTA,$FTMODE
  2881	002102'	000000	000000	DEVLOG:!Z
  2882	002103'	000000	000000	DEVBUF:!Z
  2883	002104'	000000	000000	DEVIAD:!0
  2884	002105'	000000	000000	DEVOAD:!0
  2885	002106'	600000	002112'	DEVCLS:!XWD 600000,DEVLSA+NMFTDB(A,\$KNUNN)^FTA1DB^
  2886	002107'	000000	000000	DEVSTS:!Z
  2887	002110'	000000	000000	DEVABC:!Z
  2888	002111'	000000	000000	DEVBWC:!Z
  2889	000015			DEVLSA:!BLOCK LENFXL
  2890	002155'	000000	001721'	DEVUDB::!NMUN(\$KNUNN,FTA)^%NUN (,1,FTA)^ FTA1CB^^	;STORAGE FOR DR,, UNIT DB ADDR.
  2891	002156'	000000	000000	DEVCNT::!Z
  2892	002157'	000000	000000	DEVFNJ::!Z			;FN IN PROGRESS,,IBM 9 TRK ADJ.
  2893	002160'	000002	010000	DEVADD::!<FTA+$KNUNN>*10000
  2894	002161'	000000	000000	DEVDWC::!Z
  2895	002162'	000000	000000	DEVER1::!Z
  2896	002163'	000000	000000	DEVER2::!Z
  2897	002164'	000000	000000	DEVOUT::!Z
  2898	002165'	000000	000000	DEVINS::!Z
  2899	002166'	000000	000000	DEV40::! Z
  2900	002167'	000000	000000	DEVNOI::!Z
  2901	002170'	000000	000000	DEVACT::!Z
  2902	002171'	000000	000000	DEVDIO::!Z			;LH UNUSED, RH USED FOR PGYDIO
  2903								;CALCULATIONS.
  2904
  2905				NMFTDI(A,\$KNUNN)^INTERNAL FTA1DB^
  2906
  2907			000075	XP FTADDS,.^FTADDS==:.^
  2908				INTERNAL FTADDS
  2909
  2910	002172'				DEPHASE
  2911				^
  2912			000002		$KNUNN==$KNUNN+1
  2913			000000		%FTA0==0
  2914				^
  2915
  2916							IFGE $SYUNN-4,<XLIST>;List only the first 4
  2917							IFE  $KNUNN,<LIST>  ;Show first unit on each KON
  2918							IFL  $SYUNN-4,<PAGE>
COMMOD - COMMON DATA LOCATIONS USED BY DISK SERVICE	MACRO 12.5-46.0 14:24 13-JAN-88 PAGE 46
COMMOD.MAC	20-NOV-87 23:00		Channel DB, SAX DB, unit DB

  2919							FTITCB (FT,A,\$FTNUM)^
  2920					%NUN(INTERNAL,\$KNUNN,FTA)^INTERNAL FTA2CB^
  2921	002172'			NMUN(\$KNUNN,FTA)^%NUN (,2,FTA)^ FTA2CB^^:
  2922			002172'	SYFTNM(\$SYFTN)^%SYF2^==.
  2923
  2924	000000				PHASE 0
  2925	002172'	000000	002346'	UNIDDB::! NMFTDB(A,\$KNUNN)^FTA2DB^	;ADDR OF ASSOCIATED DDB.
  2926	002173'	000000	002443'	UNILNK::! SYFTNM(\<$SYFTN+1>)^%SYF3^
  2927
  2928				;ERROR REPORTING.
  2929	002174'	000000	000000	FDHFUN::! Z		;FN IN PROGRESS WHEN DEVICE HUNG.
  2930	002175'	000000	000000	FDHCNT::! Z		;# OF TIMES UNIT HAS HUNG.
  2931	002176'	000000	000000	FDHCNI::! Z
  2932	002177'	000000	000000	FDCNI1::! Z
  2933	002200'	000000	000000	FDCNIE::! Z
  2934	002201'	000000	000000	FDNRE1::! Z		;# READS NOT SUCCEEDING ON 1ST TRY.
  2935	002202'	000000	000000	FDNWR1::! Z		;# WRITES NOT SUCCEEDING ON 1ST TRY.
  2936	002203'	000000	000000	FDNREE::! Z		;" READS     "       "   EVER.
  2937	002204'	000000	000000	FDNWRE::! Z		;" WRITES    "       "   EVER.
  2938	002205'	000000	000000	FDERBT::! Z
  2939	002206'	000000	000000	FDSENS::! Z
  2940	002207'	000000	000000		Z
  2941	002210'	000000	000000		Z
  2942	002211'	000000	000000		Z
  2943	002212'	000000	000000		Z
  2944	002213'	000000	000000		Z
  2945	002214'	000000	000000	FDSCHR::! Z
  2946	002215'	000000	000000		Z
  2947	002216'	000000	000000		Z
  2948	002217'	000000	000000		Z
  2949	002220'	000000	000000		Z
  2950	002221'	000000	000000		Z
  2951	002222'	000000	000000	FDMEMR::! Z		;INFORMATION ABOUT THE LAST MEM ERR
  2952							;SEEN (CHNMER COPY).
  2953
  2954				;END OF ERROR REPORTING.
  2955
  2956	002223'	002757'	002714'	UNIKNT::! XWD NMCH(\$CHN)^%NCH (,0)^ CHN0CB^^,FTACB  ;CHAN DB,,KONT DB.
  2957	000032			UNIERO::! BLOCK 7		;ERROR SPACE IS HERE TO UNICMD.
  2958	000041			UNICMD::! BLOCK FTCMLN		;NORMAL COMMAND SPACE IS FROM
  2959	000145			UNIDON::!			;UNICMD TO UNIDON.
  2960	000145			UNIDCR::! BLOCK 1		;DURING DATA CHECK-READ RECOVERY
  2961								;READ CMD SAVED HERE,
  2962	000146			UNIDCN::! BLOCK 1		;NEXT CMD SAVED HERE,
  2963	000147			UNIDC1::! BLOCK 1		;POINTER TO READ SAVED HERE.
  2964	002342'	000000	000000	UNITYP::! Z			;LH=7/9 TRK, DENS.
  2965								;RH=FOR HUNG ROUTINE.(SIGN BIT MUST BE 0).
  2966	002343'	000000	000000	UNISX1::! Z			;MOST RECENT SAXBAS+1(+5, ETC.) FOR THIS UNIT
  2967	002344'	000000	000000	UNISX2::! Z			;SAXBAS+2, OR +6, ETC.
  2968	002345'	000000	000000	UNISX3::! Z			;SAXBAS+3, OR +7, ETC.
  2969			000003	$SYFTN==$SYFTN+1		;NO. OF FT UNITS ON SYSTEM.
  2970
  2971			000155		FTULNH==:.-UNIDDB+1
COMMOD - COMMON DATA LOCATIONS USED BY DISK SERVICE	MACRO 12.5-46.0 14:24 13-JAN-88 PAGE 46-2
COMMOD.MAC	20-NOV-87 23:00		Channel DB, SAX DB, unit DB

  2972	002346'				DEPHASE
  2973
  2974					FTDDB(A,$KNUNN)^
  2975	002346'			NMFTDB(A,\$KNUNN)^FTA2DB^:
  2976	000000				PHASE 0
  2977				IFE $KNUNN,<
  2978					FTADDB==NMFTDB(A,\$KNUNN)
  2979					NMFTDI(A,D)
  2980				> ; End IFE $KNUNN
  2981	002346'	466441	220000	DEVNAM:!%SUN(\$KNUNN,FTA)^SIXBIT /FTA2/^
  2982	002347'	003400	000001*	DEVCHR:!XWD 7*HUNGST,MTSIZ+1
  2983	002350'	000000	000000	DEVIOS:!Z
  2984	002351'	002617'	002100*	DEVSER:!XWD NMFTDB(A,\<$KNUNN+1>)^FTA3DB^,FTADSP
  2985	002352'	000023	154403	DEVMOD:!XWD DVIN+DVOUT+DVMTA,$FTMODE
  2986	002353'	000000	000000	DEVLOG:!Z
  2987	002354'	000000	000000	DEVBUF:!Z
  2988	002355'	000000	000000	DEVIAD:!0
  2989	002356'	000000	000000	DEVOAD:!0
  2990	002357'	600000	002363'	DEVCLS:!XWD 600000,DEVLSA+NMFTDB(A,\$KNUNN)^FTA2DB^
  2991	002360'	000000	000000	DEVSTS:!Z
  2992	002361'	000000	000000	DEVABC:!Z
  2993	002362'	000000	000000	DEVBWC:!Z
  2994	000015			DEVLSA:!BLOCK LENFXL
  2995	002426'	000000	002172'	DEVUDB::!NMUN(\$KNUNN,FTA)^%NUN (,2,FTA)^ FTA2CB^^	;STORAGE FOR DR,, UNIT DB ADDR.
  2996	002427'	000000	000000	DEVCNT::!Z
  2997	002430'	000000	000000	DEVFNJ::!Z			;FN IN PROGRESS,,IBM 9 TRK ADJ.
  2998	002431'	000002	020000	DEVADD::!<FTA+$KNUNN>*10000
  2999	002432'	000000	000000	DEVDWC::!Z
  3000	002433'	000000	000000	DEVER1::!Z
  3001	002434'	000000	000000	DEVER2::!Z
  3002	002435'	000000	000000	DEVOUT::!Z
  3003	002436'	000000	000000	DEVINS::!Z
  3004	002437'	000000	000000	DEV40::! Z
  3005	002440'	000000	000000	DEVNOI::!Z
  3006	002441'	000000	000000	DEVACT::!Z
  3007	002442'	000000	000000	DEVDIO::!Z			;LH UNUSED, RH USED FOR PGYDIO
  3008								;CALCULATIONS.
  3009
  3010				NMFTDI(A,\$KNUNN)^INTERNAL FTA2DB^
  3011
  3012			000075	XP FTADDS,.^FTADDS==:.^
  3013				INTERNAL FTADDS
  3014
  3015	002443'				DEPHASE
  3016				^
  3017			000003		$KNUNN==$KNUNN+1
  3018			000000		%FTA0==0
  3019				^
  3020
  3021							IFGE $SYUNN-4,<XLIST>;List only the first 4
  3022							IFE  $KNUNN,<LIST>  ;Show first unit on each KON
  3023							IFL  $SYUNN-4,<PAGE>
COMMOD - COMMON DATA LOCATIONS USED BY DISK SERVICE	MACRO 12.5-46.0 14:24 13-JAN-88 PAGE 47
COMMOD.MAC	20-NOV-87 23:00		Channel DB, SAX DB, unit DB

  3024							FTITCB (FT,A,\$FTNUM)^
  3025					%NUN(INTERNAL,\$KNUNN,FTA)^INTERNAL FTA3CB^
  3026	002443'			NMUN(\$KNUNN,FTA)^%NUN (,3,FTA)^ FTA3CB^^:
  3027			002443'	SYFTNM(\$SYFTN)^%SYF3^==.
  3028
  3029	000000				PHASE 0
  3030	002443'	000000	002617'	UNIDDB::! NMFTDB(A,\$KNUNN)^FTA3DB^	;ADDR OF ASSOCIATED DDB.
  3031	002444'	000000	000000	UNILNK::! SYFTNM(\<$SYFTN+1>)^%SYF4^
  3032
  3033				;ERROR REPORTING.
  3034	002445'	000000	000000	FDHFUN::! Z		;FN IN PROGRESS WHEN DEVICE HUNG.
  3035	002446'	000000	000000	FDHCNT::! Z		;# OF TIMES UNIT HAS HUNG.
  3036	002447'	000000	000000	FDHCNI::! Z
  3037	002450'	000000	000000	FDCNI1::! Z
  3038	002451'	000000	000000	FDCNIE::! Z
  3039	002452'	000000	000000	FDNRE1::! Z		;# READS NOT SUCCEEDING ON 1ST TRY.
  3040	002453'	000000	000000	FDNWR1::! Z		;# WRITES NOT SUCCEEDING ON 1ST TRY.
  3041	002454'	000000	000000	FDNREE::! Z		;" READS     "       "   EVER.
  3042	002455'	000000	000000	FDNWRE::! Z		;" WRITES    "       "   EVER.
  3043	002456'	000000	000000	FDERBT::! Z
  3044	002457'	000000	000000	FDSENS::! Z
  3045	002460'	000000	000000		Z
  3046	002461'	000000	000000		Z
  3047	002462'	000000	000000		Z
  3048	002463'	000000	000000		Z
  3049	002464'	000000	000000		Z
  3050	002465'	000000	000000	FDSCHR::! Z
  3051	002466'	000000	000000		Z
  3052	002467'	000000	000000		Z
  3053	002470'	000000	000000		Z
  3054	002471'	000000	000000		Z
  3055	002472'	000000	000000		Z
  3056	002473'	000000	000000	FDMEMR::! Z		;INFORMATION ABOUT THE LAST MEM ERR
  3057							;SEEN (CHNMER COPY).
  3058
  3059				;END OF ERROR REPORTING.
  3060
  3061	002474'	002757'	002714'	UNIKNT::! XWD NMCH(\$CHN)^%NCH (,0)^ CHN0CB^^,FTACB  ;CHAN DB,,KONT DB.
  3062	000032			UNIERO::! BLOCK 7		;ERROR SPACE IS HERE TO UNICMD.
  3063	000041			UNICMD::! BLOCK FTCMLN		;NORMAL COMMAND SPACE IS FROM
  3064	000145			UNIDON::!			;UNICMD TO UNIDON.
  3065	000145			UNIDCR::! BLOCK 1		;DURING DATA CHECK-READ RECOVERY
  3066								;READ CMD SAVED HERE,
  3067	000146			UNIDCN::! BLOCK 1		;NEXT CMD SAVED HERE,
  3068	000147			UNIDC1::! BLOCK 1		;POINTER TO READ SAVED HERE.
  3069	002613'	000000	000000	UNITYP::! Z			;LH=7/9 TRK, DENS.
  3070								;RH=FOR HUNG ROUTINE.(SIGN BIT MUST BE 0).
  3071	002614'	000000	000000	UNISX1::! Z			;MOST RECENT SAXBAS+1(+5, ETC.) FOR THIS UNIT
  3072	002615'	000000	000000	UNISX2::! Z			;SAXBAS+2, OR +6, ETC.
  3073	002616'	000000	000000	UNISX3::! Z			;SAXBAS+3, OR +7, ETC.
  3074			000004	$SYFTN==$SYFTN+1		;NO. OF FT UNITS ON SYSTEM.
  3075
  3076			000155		FTULNH==:.-UNIDDB+1
COMMOD - COMMON DATA LOCATIONS USED BY DISK SERVICE	MACRO 12.5-46.0 14:24 13-JAN-88 PAGE 47-2
COMMOD.MAC	20-NOV-87 23:00		Channel DB, SAX DB, unit DB

  3077	002617'				DEPHASE
  3078
  3079					FTDDB(A,$KNUNN)^
  3080	002617'			NMFTDB(A,\$KNUNN)^FTA3DB^:
  3081	000000				PHASE 0
  3082				IFE $KNUNN,<
  3083					FTADDB==NMFTDB(A,\$KNUNN)
  3084					NMFTDI(A,D)
  3085				> ; End IFE $KNUNN
  3086	002617'	466441	230000	DEVNAM:!%SUN(\$KNUNN,FTA)^SIXBIT /FTA3/^
  3087	002620'	003400	000001*	DEVCHR:!XWD 7*HUNGST,MTSIZ+1
  3088	002621'	000000	000000	DEVIOS:!Z
  3089	002622'	000000	002351*	DEVSER:!XWD NMFTDB(A,\<$KNUNN+1>)^FTA4DB^,FTADSP
  3090	002623'	000023	154403	DEVMOD:!XWD DVIN+DVOUT+DVMTA,$FTMODE
  3091	002624'	000000	000000	DEVLOG:!Z
  3092	002625'	000000	000000	DEVBUF:!Z
  3093	002626'	000000	000000	DEVIAD:!0
  3094	002627'	000000	000000	DEVOAD:!0
  3095	002630'	600000	002634'	DEVCLS:!XWD 600000,DEVLSA+NMFTDB(A,\$KNUNN)^FTA3DB^
  3096	002631'	000000	000000	DEVSTS:!Z
  3097	002632'	000000	000000	DEVABC:!Z
  3098	002633'	000000	000000	DEVBWC:!Z
  3099	000015			DEVLSA:!BLOCK LENFXL
  3100	002677'	000000	002443'	DEVUDB::!NMUN(\$KNUNN,FTA)^%NUN (,3,FTA)^ FTA3CB^^	;STORAGE FOR DR,, UNIT DB ADDR.
  3101	002700'	000000	000000	DEVCNT::!Z
  3102	002701'	000000	000000	DEVFNJ::!Z			;FN IN PROGRESS,,IBM 9 TRK ADJ.
  3103	002702'	000002	030000	DEVADD::!<FTA+$KNUNN>*10000
  3104	002703'	000000	000000	DEVDWC::!Z
  3105	002704'	000000	000000	DEVER1::!Z
  3106	002705'	000000	000000	DEVER2::!Z
  3107	002706'	000000	000000	DEVOUT::!Z
  3108	002707'	000000	000000	DEVINS::!Z
  3109	002710'	000000	000000	DEV40::! Z
  3110	002711'	000000	000000	DEVNOI::!Z
  3111	002712'	000000	000000	DEVACT::!Z
  3112	002713'	000000	000000	DEVDIO::!Z			;LH UNUSED, RH USED FOR PGYDIO
  3113								;CALCULATIONS.
  3114
  3115				NMFTDI(A,\$KNUNN)^INTERNAL FTA3DB^
  3116
  3117			000075	XP FTADDS,.^FTADDS==:.^
  3118				INTERNAL FTADDS
  3119
  3120	002714'				DEPHASE
  3121				^
  3122			000004		$KNUNN==$KNUNN+1
  3123			000000		%FTA0==0
  3124				^
  3125									LIST
  3126			000000			NMKNUN(FTA,\$KNUNN)^%FTA4^==NMKNUN(FTA,0)^%FTA0^
  3127			000000			IFIDN <FT> <FT>,<NMFTDB(A,\$KNUNN)^FTA4DB^==>
  3128								PAGE
COMMOD - COMMON DATA LOCATIONS USED BY DISK SERVICE	MACRO 12.5-46.0 14:24 13-JAN-88 PAGE 48
COMMOD.MAC	20-NOV-87 23:00		Channel DB, SAX DB, unit DB

  3129						FTKON(A,\$FTNUM)^
  3130			000000		FTFIX==0
  3131			000000		FTCHN==0
  3132			000010		KONMXU==10
  3133					KONKON(FT,A,0)^
  3134
  3135	000000			FTACB::	PHASE	0
  3136
  3137
  3138
  3139
  3140
  3141			002714'	NMKCN(\$CHN,\$KCHNN)^%CK00^==FTACB
  3142
  3143
  3144
  3145
  3146
  3147				IFDIF <FT> <FT>,<
  3148				    EXTERN FTXRED,FTXWRT,FTXADD
  3149				    EXTERN FTXFIN,FTXPOS,FTXLTM,FTXUPA,FTXCPY
  3150				    EXTERN FTXRCL,FTXSTP,FTXOFS,FTXHRD,FTXSFT
  3151				> ; End IFDIF <FT> <FT>
  3152
  3153				IFIDN <FT> <FT>,<
  3154			000000		FTXRED==0
  3155			000000		FTXWRT==0
  3156			000000		FTXADD==0
  3157			000000		FTXFIN==0
  3158			000000		FTXPOS==0
  3159			000000		FTXLTM==0
  3160			000000		FTXUPA==0
  3161			000000		FTXCPY==0
  3162			000000		FTXRCL==0
  3163			000000		FTXSTP==0
  3164			000000		FTXOFS==0
  3165			000000		FTXHRD==0
  3166			000000		FTXSFT==0
  3167				> ; End IFIDN <FT> <FT>
  3168
  3169	002714'	000000	000000	KONRED::!XWD 0_^D15,FTXRED
  3170			000000	KOBPI==KONRED
  3171			000003	  KOSPI==^D3
  3172			000002	  KONPI==^D2
  3173	002715'	000000	000000	KONWRT::!XWD ZERO5,FTXWRT
  3174	002716'	000000	000000	KONADD::!XWD ZERO5,FTXADD
  3175	002717'	000000	000000	KONFIN::!XWD ZERO5,FTXFIN
  3176	002720'	000000	000000	KONPOS::!XWD FTFIX!ZERO5,FTXPOS
  3177	002721'	000000	000000	KONLTM::!XWD FTCHN,FTXLTM
  3178			000005	KONIBM==:<KONRBL==:KONLTM>
  3179	002722'	000000	000000	KONUPA::!XWD ZERO5,FTXUPA
  3180			000006	KONDWN==:KONUPA
  3181			400000	  KOPDWN==:400000
COMMOD - COMMON DATA LOCATIONS USED BY DISK SERVICE	MACRO 12.5-46.0 14:24 13-JAN-88 PAGE 48-2
COMMOD.MAC	20-NOV-87 23:00		Channel DB, SAX DB, unit DB

  3182
  3183
  3184
  3185
  3186	002723'	000000	000000	KONCPY::!XWD ZERO5,FTXCPY
  3187	002724'	000000	000000	KONRCL::!XWD ZERO18,FTXRCL
  3188
  3189
  3190	002725'	000000	000000	KONSTP::!XWD ZERO5,FTXSTP
  3191
  3192	002726'	000000	000000	KONOFS::!XWD ZERO5,FTXOFS
  3193	002727'	000000	000000	KONHRD::!XWD ZERO5,FTXHRD
  3194	002730'	000000	000000	KONSFT::!XWD ZERO5,FTXSFT
  3195			000014	KONLEN==KONSFT-KONRED
  3196	002731'	000000	002757'	KONCHN::!XWD NMKCN(\$CHN,\<$KCHNN+1>)^%CK01^,NMCH(\$CHN)^%NCH (,0)^ CHN0CB^^
  3197
  3198	002732'	000016	002736'	KONPTR::!XWD ZERO5,FTACU(P3)
  3199
  3200
  3201				^
  3202					KONSAX(FT,A,0)^
  3203	002733'	002767'	000200	KONBSU::! XWD NMSCH(\$SAXN,\$SAXCN)^SC00CB^+CHNBMX+$SAXUN,FTA
  3204			000017	KONBMX==:KONBSU	;L.H. POINTER TO BLOCK MULTIPLEX AREA FOR KON
  3205						;R.H. BASE UNIT ADDRESS
  3206	002734'	000000	000210	KONUMX:!  FTA+KONMXU
  3207	002735'	000000	000000*	KONSNT::! FTXINT	;POINTER TO INTERUPT ROUTINE
  3208			000010		$SAXUN==$SAXUN+KONMXU
  3209				    EXTERNAL FTXINT
  3210				^
  3211			000011		$SAXUN==$SAXUN+1	;FOR SPECIAL SENSE LOC.
  3212					KONUNL (FT,A)^
  3213			000022		%%KONUS==.
  3214	002736'				DEPHASE
  3215	002736'			FTACU:
  3216			000000		$U1==0
  3217				    REPEAT FTAUN,
  3218
  3219	002736'	000000	001450'		NMUN(\$U1,FTA)^%NUN (,0,FTA)^ FTA0CB^^
  3220			000001		$U1=$U1+1
  3221
  3222
  3223	002737'	000000	001721'		NMUN(\$U1,FTA)^%NUN (,1,FTA)^ FTA1CB^^
  3224			000002		$U1=$U1+1
  3225
  3226
  3227	002740'	000000	002172'		NMUN(\$U1,FTA)^%NUN (,2,FTA)^ FTA2CB^^
  3228			000003		$U1=$U1+1
  3229
  3230
  3231	002741'	000000	002443'		NMUN(\$U1,FTA)^%NUN (,3,FTA)^ FTA3CB^^
  3232			000004		$U1=$U1+1
  3233				     ; End REPEAT FTAUN
  3234	002742'				BLOCK KONMXU-$U1	;UNIT ADDRESSES
COMMOD - COMMON DATA LOCATIONS USED BY DISK SERVICE	MACRO 12.5-46.0 14:24 13-JAN-88 PAGE 48-3
COMMOD.MAC	20-NOV-87 23:00		Channel DB, SAX DB, unit DB

  3235	000032				PHASE %%KONU+KONMXU
  3236				^
  3237	002746'				DEPHASE
  3238
  3239				;OVERLAYING HERE.
  3240				    IFL KONLEN-FTXSMY+FTXMCH,<
  3241				PRINTX ?ERROR IN FTKON OVERLAY OF KONT. DB.  SEE COMMOD AT THIS PRINTX.
  3242				    > ; End IFL KONLEN-FTXSMY+FTXMCH
  3243			002746'		STAR==.
  3244	002714'				RELOC FTACB
  3245	000000				PHASE 0
  3246					FTKCHN YY^
  3247			000010		YY==1B32
  3248				    REPEAT 3-$SAXCN,
  3249			000020	YY==YY*2
  3250			000040	YY==YY*2
  3251			000100	YY==YY*2
  3252				^
  3253	002714'	000002	000100	FTXMCH::! XWD FTATYP,YY	;TYPE INFO,, CHN NO AS STAT FLG.
  3254	002715'	000000	000000	FTXBSY::! 0
  3255	002716'	164022	000000	FTXSNS::! BYTE(8)72,4,FTA	;SENSE.
  3256	002717'	000000	000000*	FTXDAT:! BYTE(1)1(11)-^D24(24)FTXSTS+FTACB ;INFO TO FTXSTS.
  3257	002720'	000000	000000	FTXHLT:! Z			;HALT
  3258	002721'	000000	000000	FTXSS1::! Z
  3259	002722'	000000	000000	FTXSS2::! Z
  3260	002723'	000000	000000	FTXSM0::! Z
  3261	002724'	000000	000000	FTXSMY::! Z			;MEM ERR FLAG,, BUSY BITS
  3262	002725'				DEPHASE
  3263	002746'				RELOC STAR
  3264	000032				PHASE STAR-FTACB
  3265	002746'	000000	000000	FTXSTS::! Z
  3266	002747'	000000	000000		Z
  3267	002750'	000000	000000		Z
  3268	002751'	000000	000000		Z
  3269	002752'	000000	000000		Z
  3270	002753'	000000	000000		Z
  3271	002754'	000000	000000	FTXSPR::! Z
  3272	002755'	000000	000000	FTXSP1::! Z
  3273	002756'	000000	000000	FTXSX1::! Z			;MOST RECENT SAXBAS+1(+5, ETC.)
  3274	002757'				DEPHASE
  3275			154403		$FTMODE==1_D+1_DR+1_B+1_IB+1_I+1_AL+1_A
  3276				    EXTERNAL MTSIZ,FTADSP
  3277			000001		$FTNUM==$FTNUM+1
  3278				^
  3279			000001			$KCHNN==$KCHNN+1
  3280					    > ; End IFN FTAUN
  3281					    IFE FTAUN,<$FTNUM==$FTNUM+1>
  3282					> ; End IFE $U-$FTNUM
  3283			000001		$U==$U+1
  3284
  3285
  3286				 ; End IRP A,B,C,D,E,F,G,H,I,J,K,L
  3287				^^
COMMOD - COMMON DATA LOCATIONS USED BY DISK SERVICE	MACRO 12.5-46.0 14:24 13-JAN-88 PAGE 48-4
COMMOD.MAC	20-NOV-87 23:00		Channel DB, SAX DB, unit DB

  3288				    IFN BP00,<NMCHUN(\$CHN,\$CHUNN)==NMCHUN(\$CHN,0)>
  3289			000000		NMKCN(\$CHN,\$KCHNN)^%CK01^==0
  3290
  3291	002757'			SC00CB::	;SC00CB is tapes (FTA), SC01CB is disks (BPA,BPB...)
  3292	002757'			NMCH(\$CHN)^%NCH (,0)^ CHN0CB^^::
  3293	000000				PHASE 0
  3294	002757'	000000	000000	CHNBSY::! 0	;NORMALLY CHANNEL BUSY
  3295	002760'	000000	000001*	CHNSTB::! SAXBAS##+0*^D16+0*4+1	;Address of status word in low core
  3296	002761'	727600	000440*	CHNGO::!  CONO SAX0,4B29+1B30+<0>B32+SAXCHN##	;Set GO (and PIA)
  3297	002762'	727600	000600*	CHNCLR::! CONO SAX0,6B29+0B30+<0>B32+SAXCHN##	;Dismiss interrupt
  3298	002763'	727600	000740*	CHNIIE::! CONO SAX0,7B29+1B30+<0>B32+SAXCHN##	;Enable interrupt
  3299	002764'	000000	000000	CHNMER::! 0			;Location of memory error
  3300	002765'	000000	000000	CHNACT::! 0			;Number of interrupts since reload
  3301	002766'	000000	002714'	CHNKON::! NMKCN(\$CHN,0)^%CK00^	;Pointer to first KON on this CHN
  3302	000010			CHNBMX::! REPEAT $SAXUN,
  3303	002767'	777777	777777	-1
  3304	002770'	777777	777777	-1
  3305	002771'	777777	777777	-1
  3306	002772'	777777	777777	-1
  3307	002773'	777777	777777	-1
  3308	002774'	777777	777777	-1
  3309	002775'	777777	777777	-1
  3310	002776'	777777	777777	-1
  3311	002777'	777777	777777	-1	;Block MUX list
  3312	003000'	000000	000000				0	;Zero at end of list
  3313	003001'				DEPHASE
  3314			000001		$CHN==$CHN+1
  3315				> ; End IFN BP00+FT00
  3316			000001		$SAXCN==$SAXCN+1
  3317				^
  3318				SACCB (0,\$SAXCN)^
  3319
  3320				IFE BP01+FT01,<SC01CB==:0>
  3321				IFN BP01+FT01,<
  3322			000000		$SAXUN==0	;NUMBER OF UNITS (MAX)
  3323			000000		$CHUNN==0	;NUMBER OF UNITS (ACTUAL)
  3324			000000		$KCHNN==0
  3325				    REPEAT BP01,
  3326				KONTCB (BP)^KONCB1 (BP,<A,B,C,D,E,F,G,H,I,J,K,L>)^
  3327			000000		$U==0
  3328				    IRP
  3329
  3330					IFE $U-$BPNUM,<
  3331					    STOPI
  3332					    IFN BPAUN,<	RADIX 5+5
  3333						PRINT2(\BPAUN,units on BPA)^IF2,<PRINTX [16 units on BPA]>^
  3334								RADIX 8
  3335			000000			$KNUNN==0	;UNIT NUMBER IN KON
  3336						REPEAT BPAUN,
  3337
  3338							IFGE $SYUNN-4,<XLIST>;List only the first 4
  3339							IFE  $KNUNN,<LIST>  ;Show first unit on each KON
COMMOD - COMMON DATA LOCATIONS USED BY DISK SERVICE	MACRO 12.5-46.0 14:24 13-JAN-88 PAGE 48-5
COMMOD.MAC	20-NOV-87 23:00		Channel DB, SAX DB, unit DB

  3340							IFL  $SYUNN-4,<PAGE>
COMMOD - COMMON DATA LOCATIONS USED BY DISK SERVICE	MACRO 12.5-46.0 14:24 13-JAN-88 PAGE 49
COMMOD.MAC	20-NOV-87 23:00		Channel DB, SAX DB, unit DB

  3341							BPITCB (BP,A,\$BPNUM)^
  3342					UNITCB(BP,A)^
  3343				%NUN (INTERNAL,\$KNUNN,BPA)^INTERNAL BPA0CB^
  3344				IFNDEF FIRUNI,<FIRUNI:>
  3345	003001'	426041	200000	NMUN(\$KNUNN,BPA)^%NUN (,0,BPA)^ BPA0CB^^:	%SUN(\$KNUNN,BPA)^SIXBIT /BPA0/^
  3346			000000	UNINAM==:0
  3347
  3348
  3349
  3350
  3351	000001				PHASE	1
  3352	003002'	000000	000000	UNILOG::!0
  3353
  3354
  3355	003003'	000000	000000	UNIHID::!0
  3356
  3357
  3358			003001'	NMSYUN(\$SYUNN)^%SY0^==NMUN(\$KNUNN,BPA)^%NUN (,0,BPA)^ BPA0CB^^
  3359	003004'	003371'	000000	UNISYS::!XWD NMSYUN(\<$SYUNN+1>)^%SY1^,0
  3360
  3361			000003	UNILUN==UNISYS
  3362			000006	  UNSLUN==^D6
  3363			000043	  UNNLUN==^D35
  3364
  3365	003005'	000000	000000	UNISTR::!0	;LH=ADDRESS OF NEXT UNIT DATA BLOCK IN STR
  3366						;LH=0 IN LAST UNIT IN FILE STRUCTURE
  3367						;RH=UPWARD POINTER TO FILE STR. DATA BLOCK.
  3368						;WORD=0 IF THIS UNIT IS NOT IN A STR
  3369
  3370			003001'	NMCHUN(\$CHN,\$CHUNN)^%CH10^==NMUN(\$KNUNN,BPA)^%NUN (,0,BPA)^ BPA0CB^^
  3371	003006'	003371'	032415'	UNICHN::!XWD NMCHUN(\$CHN,\<$CHUNN+1>)^%CH11^,NMCH(\$CHN)^%NCH (,1)^ CHN1CB^^
  3372
  3373
  3374			003001'	NMKNUN(BPA,\$KNUNN)^%BPA0^==NMUN(\$KNUNN,BPA)^%NUN (,0,BPA)^ BPA0CB^^
  3375	003007'	003371'	012601'	UNIKON::!XWD NMKNUN(BPA,\<$KNUNN+1>)^%BPA1^,BPACB
  3376
  3377
  3378	003010'	000000	000000	UNIFEP::!0
  3379
  3380
  3381
  3382				;ERROR STATISTICS:
  3383	003011'	000000	000000	UNIHCT::!0
  3384
  3385
  3386	003012'	000000	000000	UNISCT::!0
  3387
  3388
  3389
  3390	003013'	000000	000000	UNIMCT::!0
  3391
  3392			000100	  UNPSER==:100
  3393
COMMOD - COMMON DATA LOCATIONS USED BY DISK SERVICE	MACRO 12.5-46.0 14:24 13-JAN-88 PAGE 49-2
COMMOD.MAC	20-NOV-87 23:00		Channel DB, SAX DB, unit DB

  3394			010000	  UNPRER==:10000
  3395			000001	  UNPCER==:1
  3396
  3397	003014'	000000	000000	UNIERR::!0
  3398
  3399
  3400
  3401	003015'	000000	000000	UNISOF::!0
  3402	003016'	000000	000000	UNIHBN::!0
  3403
  3404
  3405
  3406
  3407				;WRITE COUNT MUST BE READ COUNT+1
  3408	003017'	000000	000000	UNIBRC::!0
  3409	003020'	000000	000000	UNIBWC::!0
  3410	003021'	000000	000000	UNIDRC::!0
  3411	003022'	000000	000000	UNIDWC::!0
  3412	003023'	000000	000000	UNIMRC::!0
  3413	003024'	000000	000000	UNIMWC::!0
  3414	003025'	000000	000000	UNIHNG::!0	; NO OF HUNG TIME OUTS WHICH COUNT NOT BE RECOVERED
  3415						;LH HUNG FROM TRANSFER, RH OTHER (POSITION)
  3416
  3417	003026'	000000	000000	UNIICT::!0
  3418	003027'	000000	000000	UNIOCT::!0
  3419
  3420
  3421	003030'	000000	000000	UNIMSC::!0
  3422	003031'	000000	000000	UNIUSC::!0
  3423
  3424
  3425
  3426	003032'	000000	000000		0
  3427	003033'	000000	000000	UNISDI::!0
  3428
  3429	003034'	000000	000000	UNIHDI::!0
  3430
  3431	003035'	000000	000000	UNIECT::!0
  3432
  3433
  3434
  3435
  3436	003036'	000000	000000	UNISBN::!0
  3437	003037'	000000	000000	UNISTS::!0
  3438
  3439
  3440				  ;Here starts descrepency between TYMCOM-X and TOPS-10 "UDB" definitions
  3441	003040'	000000	000000	UNIQUE::!XWD 0,0
  3442
  3443
  3444
  3445
  3446
COMMOD - COMMON DATA LOCATIONS USED BY DISK SERVICE	MACRO 12.5-46.0 14:24 13-JAN-88 PAGE 49-3
COMMOD.MAC	20-NOV-87 23:00		Channel DB, SAX DB, unit DB

  3447
  3448
  3449	003041'	000000	000000	UNICDA::!0
  3450	003042'	000000	000000	UNIPPU::!0
  3451	003043'	000000	000000	UNICHR::!0
  3452
  3453			000042	UNIBPR==:UNICHR
  3454			000010	  UNSBPR==^D8
  3455			000011	  UNNBPR==^D9
  3456			000042	UNIBPT==:UNICHR
  3457			000011	  UNSBPT==^D9
  3458			000021	  UNNBPT==^D17
  3459			000042	UNIBPY==:UNICHR
  3460			000022	  UNSBPY==^D18
  3461			000043	  UNNBPY==^D35
  3462	003044'	000000	000000	UNIWPS::!0
  3463			000011	  UNSWPS==^D9
  3464			000010	  UNNWPS==^D8
  3465			000043	UNISPU==:UNIWPS
  3466			000010	  UNSSPU==^D8
  3467			000021	  UNNSPU==^D17
  3468	003045'	777777	777777	UNICYL::!-1
  3469
  3470
  3471				IFE FTDPAG,<
  3472	003046'	000000	000000	UNIBLK::!0
  3473			000045	UNIONC==:UNIBLK
  3474				>
  3475				IFN FTDPAG,<
  3476				UNIPAG::!0
  3477				UNIONC==:UNIPAG
  3478				>
  3479	003047'	000000	000000	UNISTT::!0
  3480	003050'	000000	000000	UNITAL::!0
  3481
  3482	003051'	000370	104000	UNIDES::!BYTE (10)0(8)%UNSZ(\$SYUNN)^%SIZ0^(3)$CHN(6)TYPBP(3)$BPNUM(2)0(4)$KNUNN
  3483
  3484
  3485
  3486
  3487
  3488
  3489
  3490
  3491
  3492			200000	  UNPOFL==:200000
  3493			100000	  UNPHWP==:100000
  3494
  3495			040000	  UNPCHG==: 40000
  3496
  3497			020000	  UNPPRV==: 20000
  3498
  3499			004000	  UNPFUS==:  4000
COMMOD - COMMON DATA LOCATIONS USED BY DISK SERVICE	MACRO 12.5-46.0 14:24 13-JAN-88 PAGE 49-4
COMMOD.MAC	20-NOV-87 23:00		Channel DB, SAX DB, unit DB

  3500			002000	  UNPRRS==:  2000
  3501
  3502			000400	  UNPMSB==:   400
  3503
  3504
  3505
  3506
  3507
  3508
  3509			000050	UNISIZ==:UNIDES
  3510			000010	  UNSSIZ==^D8
  3511			000021	  UNNSIZ==^D17
  3512
  3513
  3514
  3515
  3516
  3517
  3518
  3519
  3520
  3521
  3522
  3523
  3524
  3525
  3526
  3527			000050	UNISCN==:UNIDES
  3528			000003	  UNSSCN==^D3
  3529			000024	  UNNSCN==^D20
  3530			000050	UNIKTP==:UNIDES
  3531			000006	  UNSKTP==^D6
  3532			000032	  UNNKTP==^D26
  3533				;*; TYPDR==0
  3534			000000	    TYPFT==0
  3535			000001	    TYPFH==1
  3536			000002	    TYPDP==2
  3537			000003	    TYPMD==3
  3538			000004	    TYPBP==4
  3539			000005	    TYPRM==5
  3540			000006	    TYPAP==6
  3541
  3542
  3543			000050	UNIKNM==:UNIDES
  3544			000003	  UNSKNM==^D3
  3545			000035	  UNNKNM==^D29
  3546			000050	UNIUTP==:UNIDES
  3547			000002	  UNSUTP==^D2
  3548			000037	  UNNUTP==^D31
  3549
  3550
  3551
  3552
COMMOD - COMMON DATA LOCATIONS USED BY DISK SERVICE	MACRO 12.5-46.0 14:24 13-JAN-88 PAGE 49-5
COMMOD.MAC	20-NOV-87 23:00		Channel DB, SAX DB, unit DB

  3553
  3554
  3555
  3556
  3557
  3558
  3559
  3560
  3561
  3562
  3563
  3564
  3565
  3566
  3567			000020	  UNPUTP==:20
  3568			000050	UNIPUN==:UNIDES
  3569			000004	  UNSPUN==^D4
  3570			000043	  UNNPUN==^D35
  3571	003052'	000000	000000		0	; Place holder for obsolete entry (for SYSTAT and ERRCHK)
  3572	003053'	000000	000000		0	;   "	  "	"	"	"
  3573	003054'	000000	000000	UNIRCT::!0
  3574			000053	UNIRTY==UNIRCT
  3575			000011	 UNSRTY==^D9
  3576			000043	 UNNRTY==^D35	;POSITION OF FIELD
  3577			000053	UNIRCL==UNIRCT
  3578			000011	 UNSRCL==^D9
  3579			000032	 UNNRCL==^D26
  3580			000053	UNIRRT==UNIRCT
  3581			000011	 UNSRRT==^D9
  3582			000021	 UNNRRT==^D17
  3583
  3584			001000	 UNPDEV==:1000
  3585
  3586	003055'	000000	000000	UNIFCT::!0
  3587	003056'	000000	000000	UNIDIR::!0
  3588
  3589			000055	UNITIM==UNIDIR
  3590			000006	 UNSTIM==6
  3591			000006	 UNNTIM==6
  3592			000055	UNIPAC==UNIDIR
  3593			000015	 UNSPAC==^D13
  3594			000023	 UNNPAC==^D19
  3595			000055	UNIPGL==UNIDIR
  3596			000015	 UNSPGL==^D13
  3597			000040	 UNNPGL==^D32
  3598			000055	UNIPPL==UNIDIR
  3599			000002	 UNSPPL==2
  3600			000042	 UNNPPL==^D34
  3601
  3602
  3603	003057'	000000	000000	UNIRC1::!0
  3604			000056	 UNIOCV==:UNIRC1
  3605			000011	  UNSOCV==^D9
COMMOD - COMMON DATA LOCATIONS USED BY DISK SERVICE	MACRO 12.5-46.0 14:24 13-JAN-88 PAGE 49-6
COMMOD.MAC	20-NOV-87 23:00		Channel DB, SAX DB, unit DB

  3606			000043	  UNNOCV==^D35
  3607			000056	 UNIRTO==:UNIRC1
  3608			000011	  UNSRTO==^D9
  3609			000032	  UNNRTO==^D26
  3610			000056	 UNIRCO==:UNIRC1
  3611			000011	  UNSRCO==^D9
  3612			000021	  UNNRCO==^D17
  3613			000056	 UNIOS==:UNIRC1
  3614			000001	  UNSOS==^D1
  3615			000007	  UNNOS==^D7
  3616
  3617			000001		$SYUNN==$SYUNN+1
  3618			000001		$KNUNN==$KNUNN+1
  3619			000001		$CHUNN==$CHUNN+1
  3620				^
  3621	003060'	000000	000000	UNISWC::!0	;SAVE WORD COUNT FOR THIS OPERATION
  3622	003061'	000000	000000	UNICNA::!0	;CONTINUE ADDRESS FOR LARGE TRANSFERS
  3623	003062'	000000	000000	UNICNC::!0	;CONTINUE COUNT
  3624	003063'	000000	000000	UNICCC::!0	;CURRENT COUNT IF TRANSFER BROKEN
  3625	003064'	164023	000000	UNISNS::!BYTE (8) 72,4,$KNUNN+BPA-1	;SENSE COMMAND
  3626	003065'	000000	000000*		BYTE (12) -^D24 (24) UNISND+NMUN(\<$KNUNN-1>,BPA)^%NUN (,0,BPA)^ BPA0CB^^
  3627	003066'	400000	000000		BYTE (8) 200			;End of command list for SENSE
  3628			000065	UNISSD==:.-1			;Bits 9-35 for set sector data
  3629	000066			UNISND::!BLOCK ^D<24/4>		;READ SENSE INFORMATION HERE
  3630	003075'	000000	000000	UNISNC::!0	;NUMBER OF SENSES DONE
  3631	003076'	000000	000000	UNISVC::!0	;SAVE COUNT HERE ON SENSE
  3632	003077'	000000	000000	UNISCM::!0	;SAVE COMMAND HERE ON SENSE
  3633	003100'	000000	000000	UNIACT::!0	;SAVE CHANNEL ACTIVE COUNT FOR HUNG
  3634	003101'	777512	003102'	UNICOM::!-BPCMSZ,,.+1+NMUN(\<$KNUNN-1>,BPA)^%NUN (,0,BPA)^ BPA0CB^^
  3635	000101				BLOCK BPCMSZ		;Command list goes here
  3636
  3637			000000		OLV==0
  3638			016645'	IFIDN <A>,<A>,<IFN BPCUN,<OLV==NMUN(\<$KNUNN-1>,BPC)^%NUN (,0,BPC)^ BPC0CB^^+UNISTS>>
  3639				IFIDN <A>,<B>,<IFN BPDUN,<OLV==NMUN(\<$KNUNN-1>,BPD)+UNISTS>>
  3640				IFIDN <A>,<C>,<IFN BPAUN,<OLV==NMUN(\<$KNUNN-1>,BPA)+UNISTS>>
  3641				IFIDN <A>,<D>,<IFN BPBUN,<OLV==NMUN(\<$KNUNN-1>,BPB)+UNISTS>>
  3642	003370'	000000	016645'	UNIOLV::!XWD ZERO18,OLV	;Pointer to other logical volume of 3652 disk
  3643			000370		%UNSZ(\<$SYUNN-1>)^%SIZ0^==.
  3644	003371'				DEPHASE
  3645					LIST
  3646				^
  3647
  3648							IFGE $SYUNN-4,<XLIST>;List only the first 4
  3649							IFE  $KNUNN,<LIST>  ;Show first unit on each KON
  3650							IFL  $SYUNN-4,<PAGE>
COMMOD - COMMON DATA LOCATIONS USED BY DISK SERVICE	MACRO 12.5-46.0 14:24 13-JAN-88 PAGE 50
COMMOD.MAC	20-NOV-87 23:00		Channel DB, SAX DB, unit DB

  3651							BPITCB (BP,A,\$BPNUM)^
  3652					UNITCB(BP,A)^
  3653				%NUN (INTERNAL,\$KNUNN,BPA)^INTERNAL BPA1CB^
  3654				IFNDEF FIRUNI,<FIRUNI:>
  3655	003371'	426041	210000	NMUN(\$KNUNN,BPA)^%NUN (,1,BPA)^ BPA1CB^^:	%SUN(\$KNUNN,BPA)^SIXBIT /BPA1/^
  3656			000000	UNINAM==:0
  3657
  3658
  3659
  3660
  3661	000001				PHASE	1
  3662	003372'	000000	000000	UNILOG::!0
  3663
  3664
  3665	003373'	000000	000000	UNIHID::!0
  3666
  3667
  3668			003371'	NMSYUN(\$SYUNN)^%SY1^==NMUN(\$KNUNN,BPA)^%NUN (,1,BPA)^ BPA1CB^^
  3669	003374'	003761'	000000	UNISYS::!XWD NMSYUN(\<$SYUNN+1>)^%SY2^,0
  3670
  3671			000003	UNILUN==UNISYS
  3672			000006	  UNSLUN==^D6
  3673			000043	  UNNLUN==^D35
  3674
  3675	003375'	000000	000000	UNISTR::!0	;LH=ADDRESS OF NEXT UNIT DATA BLOCK IN STR
  3676						;LH=0 IN LAST UNIT IN FILE STRUCTURE
  3677						;RH=UPWARD POINTER TO FILE STR. DATA BLOCK.
  3678						;WORD=0 IF THIS UNIT IS NOT IN A STR
  3679
  3680			003371'	NMCHUN(\$CHN,\$CHUNN)^%CH11^==NMUN(\$KNUNN,BPA)^%NUN (,1,BPA)^ BPA1CB^^
  3681	003376'	003761'	032415'	UNICHN::!XWD NMCHUN(\$CHN,\<$CHUNN+1>)^%CH12^,NMCH(\$CHN)^%NCH (,1)^ CHN1CB^^
  3682
  3683
  3684			003371'	NMKNUN(BPA,\$KNUNN)^%BPA1^==NMUN(\$KNUNN,BPA)^%NUN (,1,BPA)^ BPA1CB^^
  3685	003377'	003761'	012601'	UNIKON::!XWD NMKNUN(BPA,\<$KNUNN+1>)^%BPA2^,BPACB
  3686
  3687
  3688	003400'	000000	000000	UNIFEP::!0
  3689
  3690
  3691
  3692				;ERROR STATISTICS:
  3693	003401'	000000	000000	UNIHCT::!0
  3694
  3695
  3696	003402'	000000	000000	UNISCT::!0
  3697
  3698
  3699
  3700	003403'	000000	000000	UNIMCT::!0
  3701
  3702			000100	  UNPSER==:100
  3703
COMMOD - COMMON DATA LOCATIONS USED BY DISK SERVICE	MACRO 12.5-46.0 14:24 13-JAN-88 PAGE 50-2
COMMOD.MAC	20-NOV-87 23:00		Channel DB, SAX DB, unit DB

  3704			010000	  UNPRER==:10000
  3705			000001	  UNPCER==:1
  3706
  3707	003404'	000000	000000	UNIERR::!0
  3708
  3709
  3710
  3711	003405'	000000	000000	UNISOF::!0
  3712	003406'	000000	000000	UNIHBN::!0
  3713
  3714
  3715
  3716
  3717				;WRITE COUNT MUST BE READ COUNT+1
  3718	003407'	000000	000000	UNIBRC::!0
  3719	003410'	000000	000000	UNIBWC::!0
  3720	003411'	000000	000000	UNIDRC::!0
  3721	003412'	000000	000000	UNIDWC::!0
  3722	003413'	000000	000000	UNIMRC::!0
  3723	003414'	000000	000000	UNIMWC::!0
  3724	003415'	000000	000000	UNIHNG::!0	; NO OF HUNG TIME OUTS WHICH COUNT NOT BE RECOVERED
  3725						;LH HUNG FROM TRANSFER, RH OTHER (POSITION)
  3726
  3727	003416'	000000	000000	UNIICT::!0
  3728	003417'	000000	000000	UNIOCT::!0
  3729
  3730
  3731	003420'	000000	000000	UNIMSC::!0
  3732	003421'	000000	000000	UNIUSC::!0
  3733
  3734
  3735
  3736	003422'	000000	000000		0
  3737	003423'	000000	000000	UNISDI::!0
  3738
  3739	003424'	000000	000000	UNIHDI::!0
  3740
  3741	003425'	000000	000000	UNIECT::!0
  3742
  3743
  3744
  3745
  3746	003426'	000000	000000	UNISBN::!0
  3747	003427'	000000	000000	UNISTS::!0
  3748
  3749
  3750				  ;Here starts descrepency between TYMCOM-X and TOPS-10 "UDB" definitions
  3751	003430'	000000	000000	UNIQUE::!XWD 0,0
  3752
  3753
  3754
  3755
  3756
COMMOD - COMMON DATA LOCATIONS USED BY DISK SERVICE	MACRO 12.5-46.0 14:24 13-JAN-88 PAGE 50-3
COMMOD.MAC	20-NOV-87 23:00		Channel DB, SAX DB, unit DB

  3757
  3758
  3759	003431'	000000	000000	UNICDA::!0
  3760	003432'	000000	000000	UNIPPU::!0
  3761	003433'	000000	000000	UNICHR::!0
  3762
  3763			000042	UNIBPR==:UNICHR
  3764			000010	  UNSBPR==^D8
  3765			000011	  UNNBPR==^D9
  3766			000042	UNIBPT==:UNICHR
  3767			000011	  UNSBPT==^D9
  3768			000021	  UNNBPT==^D17
  3769			000042	UNIBPY==:UNICHR
  3770			000022	  UNSBPY==^D18
  3771			000043	  UNNBPY==^D35
  3772	003434'	000000	000000	UNIWPS::!0
  3773			000011	  UNSWPS==^D9
  3774			000010	  UNNWPS==^D8
  3775			000043	UNISPU==:UNIWPS
  3776			000010	  UNSSPU==^D8
  3777			000021	  UNNSPU==^D17
  3778	003435'	777777	777777	UNICYL::!-1
  3779
  3780
  3781				IFE FTDPAG,<
  3782	003436'	000000	000000	UNIBLK::!0
  3783			000045	UNIONC==:UNIBLK
  3784				>
  3785				IFN FTDPAG,<
  3786				UNIPAG::!0
  3787				UNIONC==:UNIPAG
  3788				>
  3789	003437'	000000	000000	UNISTT::!0
  3790	003440'	000000	000000	UNITAL::!0
  3791
  3792	003441'	000370	104001	UNIDES::!BYTE (10)0(8)%UNSZ(\$SYUNN)^%SIZ1^(3)$CHN(6)TYPBP(3)$BPNUM(2)0(4)$KNUNN
  3793
  3794
  3795
  3796
  3797
  3798
  3799
  3800
  3801
  3802			200000	  UNPOFL==:200000
  3803			100000	  UNPHWP==:100000
  3804
  3805			040000	  UNPCHG==: 40000
  3806
  3807			020000	  UNPPRV==: 20000
  3808
  3809			004000	  UNPFUS==:  4000
COMMOD - COMMON DATA LOCATIONS USED BY DISK SERVICE	MACRO 12.5-46.0 14:24 13-JAN-88 PAGE 50-4
COMMOD.MAC	20-NOV-87 23:00		Channel DB, SAX DB, unit DB

  3810			002000	  UNPRRS==:  2000
  3811
  3812			000400	  UNPMSB==:   400
  3813
  3814
  3815
  3816
  3817
  3818
  3819			000050	UNISIZ==:UNIDES
  3820			000010	  UNSSIZ==^D8
  3821			000021	  UNNSIZ==^D17
  3822
  3823
  3824
  3825
  3826
  3827
  3828
  3829
  3830
  3831
  3832
  3833
  3834
  3835
  3836
  3837			000050	UNISCN==:UNIDES
  3838			000003	  UNSSCN==^D3
  3839			000024	  UNNSCN==^D20
  3840			000050	UNIKTP==:UNIDES
  3841			000006	  UNSKTP==^D6
  3842			000032	  UNNKTP==^D26
  3843				;*; TYPDR==0
  3844			000000	    TYPFT==0
  3845			000001	    TYPFH==1
  3846			000002	    TYPDP==2
  3847			000003	    TYPMD==3
  3848			000004	    TYPBP==4
  3849			000005	    TYPRM==5
  3850			000006	    TYPAP==6
  3851
  3852
  3853			000050	UNIKNM==:UNIDES
  3854			000003	  UNSKNM==^D3
  3855			000035	  UNNKNM==^D29
  3856			000050	UNIUTP==:UNIDES
  3857			000002	  UNSUTP==^D2
  3858			000037	  UNNUTP==^D31
  3859
  3860
  3861
  3862
COMMOD - COMMON DATA LOCATIONS USED BY DISK SERVICE	MACRO 12.5-46.0 14:24 13-JAN-88 PAGE 50-5
COMMOD.MAC	20-NOV-87 23:00		Channel DB, SAX DB, unit DB

  3863
  3864
  3865
  3866
  3867
  3868
  3869
  3870
  3871
  3872
  3873
  3874
  3875
  3876
  3877			000020	  UNPUTP==:20
  3878			000050	UNIPUN==:UNIDES
  3879			000004	  UNSPUN==^D4
  3880			000043	  UNNPUN==^D35
  3881	003442'	000000	000000		0	; Place holder for obsolete entry (for SYSTAT and ERRCHK)
  3882	003443'	000000	000000		0	;   "	  "	"	"	"
  3883	003444'	000000	000000	UNIRCT::!0
  3884			000053	UNIRTY==UNIRCT
  3885			000011	 UNSRTY==^D9
  3886			000043	 UNNRTY==^D35	;POSITION OF FIELD
  3887			000053	UNIRCL==UNIRCT
  3888			000011	 UNSRCL==^D9
  3889			000032	 UNNRCL==^D26
  3890			000053	UNIRRT==UNIRCT
  3891			000011	 UNSRRT==^D9
  3892			000021	 UNNRRT==^D17
  3893
  3894			001000	 UNPDEV==:1000
  3895
  3896	003445'	000000	000000	UNIFCT::!0
  3897	003446'	000000	000000	UNIDIR::!0
  3898
  3899			000055	UNITIM==UNIDIR
  3900			000006	 UNSTIM==6
  3901			000006	 UNNTIM==6
  3902			000055	UNIPAC==UNIDIR
  3903			000015	 UNSPAC==^D13
  3904			000023	 UNNPAC==^D19
  3905			000055	UNIPGL==UNIDIR
  3906			000015	 UNSPGL==^D13
  3907			000040	 UNNPGL==^D32
  3908			000055	UNIPPL==UNIDIR
  3909			000002	 UNSPPL==2
  3910			000042	 UNNPPL==^D34
  3911
  3912
  3913	003447'	000000	000000	UNIRC1::!0
  3914			000056	 UNIOCV==:UNIRC1
  3915			000011	  UNSOCV==^D9
COMMOD - COMMON DATA LOCATIONS USED BY DISK SERVICE	MACRO 12.5-46.0 14:24 13-JAN-88 PAGE 50-6
COMMOD.MAC	20-NOV-87 23:00		Channel DB, SAX DB, unit DB

  3916			000043	  UNNOCV==^D35
  3917			000056	 UNIRTO==:UNIRC1
  3918			000011	  UNSRTO==^D9
  3919			000032	  UNNRTO==^D26
  3920			000056	 UNIRCO==:UNIRC1
  3921			000011	  UNSRCO==^D9
  3922			000021	  UNNRCO==^D17
  3923			000056	 UNIOS==:UNIRC1
  3924			000001	  UNSOS==^D1
  3925			000007	  UNNOS==^D7
  3926
  3927			000002		$SYUNN==$SYUNN+1
  3928			000002		$KNUNN==$KNUNN+1
  3929			000002		$CHUNN==$CHUNN+1
  3930				^
  3931	003450'	000000	000000	UNISWC::!0	;SAVE WORD COUNT FOR THIS OPERATION
  3932	003451'	000000	000000	UNICNA::!0	;CONTINUE ADDRESS FOR LARGE TRANSFERS
  3933	003452'	000000	000000	UNICNC::!0	;CONTINUE COUNT
  3934	003453'	000000	000000	UNICCC::!0	;CURRENT COUNT IF TRANSFER BROKEN
  3935	003454'	164023	010000	UNISNS::!BYTE (8) 72,4,$KNUNN+BPA-1	;SENSE COMMAND
  3936	003455'	000000	000000*		BYTE (12) -^D24 (24) UNISND+NMUN(\<$KNUNN-1>,BPA)^%NUN (,1,BPA)^ BPA1CB^^
  3937	003456'	400000	000000		BYTE (8) 200			;End of command list for SENSE
  3938			000065	UNISSD==:.-1			;Bits 9-35 for set sector data
  3939	000066			UNISND::!BLOCK ^D<24/4>		;READ SENSE INFORMATION HERE
  3940	003465'	000000	000000	UNISNC::!0	;NUMBER OF SENSES DONE
  3941	003466'	000000	000000	UNISVC::!0	;SAVE COUNT HERE ON SENSE
  3942	003467'	000000	000000	UNISCM::!0	;SAVE COMMAND HERE ON SENSE
  3943	003470'	000000	000000	UNIACT::!0	;SAVE CHANNEL ACTIVE COUNT FOR HUNG
  3944	003471'	777512	003472'	UNICOM::!-BPCMSZ,,.+1+NMUN(\<$KNUNN-1>,BPA)^%NUN (,1,BPA)^ BPA1CB^^
  3945	000101				BLOCK BPCMSZ		;Command list goes here
  3946
  3947			000000		OLV==0
  3948			017235'	IFIDN <A>,<A>,<IFN BPCUN,<OLV==NMUN(\<$KNUNN-1>,BPC)^%NUN (,1,BPC)^ BPC1CB^^+UNISTS>>
  3949				IFIDN <A>,<B>,<IFN BPDUN,<OLV==NMUN(\<$KNUNN-1>,BPD)+UNISTS>>
  3950				IFIDN <A>,<C>,<IFN BPAUN,<OLV==NMUN(\<$KNUNN-1>,BPA)+UNISTS>>
  3951				IFIDN <A>,<D>,<IFN BPBUN,<OLV==NMUN(\<$KNUNN-1>,BPB)+UNISTS>>
  3952	003760'	000000	017235'	UNIOLV::!XWD ZERO18,OLV	;Pointer to other logical volume of 3652 disk
  3953			000370		%UNSZ(\<$SYUNN-1>)^%SIZ1^==.
  3954	003761'				DEPHASE
  3955					LIST
  3956				^
  3957
  3958							IFGE $SYUNN-4,<XLIST>;List only the first 4
  3959							IFE  $KNUNN,<LIST>  ;Show first unit on each KON
  3960							IFL  $SYUNN-4,<PAGE>
COMMOD - COMMON DATA LOCATIONS USED BY DISK SERVICE	MACRO 12.5-46.0 14:24 13-JAN-88 PAGE 51
COMMOD.MAC	20-NOV-87 23:00		Channel DB, SAX DB, unit DB

  3961							BPITCB (BP,A,\$BPNUM)^
  3962					UNITCB(BP,A)^
  3963				%NUN (INTERNAL,\$KNUNN,BPA)^INTERNAL BPA2CB^
  3964				IFNDEF FIRUNI,<FIRUNI:>
  3965	003761'	426041	220000	NMUN(\$KNUNN,BPA)^%NUN (,2,BPA)^ BPA2CB^^:	%SUN(\$KNUNN,BPA)^SIXBIT /BPA2/^
  3966			000000	UNINAM==:0
  3967
  3968
  3969
  3970
  3971	000001				PHASE	1
  3972	003762'	000000	000000	UNILOG::!0
  3973
  3974
  3975	003763'	000000	000000	UNIHID::!0
  3976
  3977
  3978			003761'	NMSYUN(\$SYUNN)^%SY2^==NMUN(\$KNUNN,BPA)^%NUN (,2,BPA)^ BPA2CB^^
  3979	003764'	004351'	000000	UNISYS::!XWD NMSYUN(\<$SYUNN+1>)^%SY3^,0
  3980
  3981			000003	UNILUN==UNISYS
  3982			000006	  UNSLUN==^D6
  3983			000043	  UNNLUN==^D35
  3984
  3985	003765'	000000	000000	UNISTR::!0	;LH=ADDRESS OF NEXT UNIT DATA BLOCK IN STR
  3986						;LH=0 IN LAST UNIT IN FILE STRUCTURE
  3987						;RH=UPWARD POINTER TO FILE STR. DATA BLOCK.
  3988						;WORD=0 IF THIS UNIT IS NOT IN A STR
  3989
  3990			003761'	NMCHUN(\$CHN,\$CHUNN)^%CH12^==NMUN(\$KNUNN,BPA)^%NUN (,2,BPA)^ BPA2CB^^
  3991	003766'	004351'	032415'	UNICHN::!XWD NMCHUN(\$CHN,\<$CHUNN+1>)^%CH13^,NMCH(\$CHN)^%NCH (,1)^ CHN1CB^^
  3992
  3993
  3994			003761'	NMKNUN(BPA,\$KNUNN)^%BPA2^==NMUN(\$KNUNN,BPA)^%NUN (,2,BPA)^ BPA2CB^^
  3995	003767'	004351'	012601'	UNIKON::!XWD NMKNUN(BPA,\<$KNUNN+1>)^%BPA3^,BPACB
  3996
  3997
  3998	003770'	000000	000000	UNIFEP::!0
  3999
  4000
  4001
  4002				;ERROR STATISTICS:
  4003	003771'	000000	000000	UNIHCT::!0
  4004
  4005
  4006	003772'	000000	000000	UNISCT::!0
  4007
  4008
  4009
  4010	003773'	000000	000000	UNIMCT::!0
  4011
  4012			000100	  UNPSER==:100
  4013
COMMOD - COMMON DATA LOCATIONS USED BY DISK SERVICE	MACRO 12.5-46.0 14:24 13-JAN-88 PAGE 51-2
COMMOD.MAC	20-NOV-87 23:00		Channel DB, SAX DB, unit DB

  4014			010000	  UNPRER==:10000
  4015			000001	  UNPCER==:1
  4016
  4017	003774'	000000	000000	UNIERR::!0
  4018
  4019
  4020
  4021	003775'	000000	000000	UNISOF::!0
  4022	003776'	000000	000000	UNIHBN::!0
  4023
  4024
  4025
  4026
  4027				;WRITE COUNT MUST BE READ COUNT+1
  4028	003777'	000000	000000	UNIBRC::!0
  4029	004000'	000000	000000	UNIBWC::!0
  4030	004001'	000000	000000	UNIDRC::!0
  4031	004002'	000000	000000	UNIDWC::!0
  4032	004003'	000000	000000	UNIMRC::!0
  4033	004004'	000000	000000	UNIMWC::!0
  4034	004005'	000000	000000	UNIHNG::!0	; NO OF HUNG TIME OUTS WHICH COUNT NOT BE RECOVERED
  4035						;LH HUNG FROM TRANSFER, RH OTHER (POSITION)
  4036
  4037	004006'	000000	000000	UNIICT::!0
  4038	004007'	000000	000000	UNIOCT::!0
  4039
  4040
  4041	004010'	000000	000000	UNIMSC::!0
  4042	004011'	000000	000000	UNIUSC::!0
  4043
  4044
  4045
  4046	004012'	000000	000000		0
  4047	004013'	000000	000000	UNISDI::!0
  4048
  4049	004014'	000000	000000	UNIHDI::!0
  4050
  4051	004015'	000000	000000	UNIECT::!0
  4052
  4053
  4054
  4055
  4056	004016'	000000	000000	UNISBN::!0
  4057	004017'	000000	000000	UNISTS::!0
  4058
  4059
  4060				  ;Here starts descrepency between TYMCOM-X and TOPS-10 "UDB" definitions
  4061	004020'	000000	000000	UNIQUE::!XWD 0,0
  4062
  4063
  4064
  4065
  4066
COMMOD - COMMON DATA LOCATIONS USED BY DISK SERVICE	MACRO 12.5-46.0 14:24 13-JAN-88 PAGE 51-3
COMMOD.MAC	20-NOV-87 23:00		Channel DB, SAX DB, unit DB

  4067
  4068
  4069	004021'	000000	000000	UNICDA::!0
  4070	004022'	000000	000000	UNIPPU::!0
  4071	004023'	000000	000000	UNICHR::!0
  4072
  4073			000042	UNIBPR==:UNICHR
  4074			000010	  UNSBPR==^D8
  4075			000011	  UNNBPR==^D9
  4076			000042	UNIBPT==:UNICHR
  4077			000011	  UNSBPT==^D9
  4078			000021	  UNNBPT==^D17
  4079			000042	UNIBPY==:UNICHR
  4080			000022	  UNSBPY==^D18
  4081			000043	  UNNBPY==^D35
  4082	004024'	000000	000000	UNIWPS::!0
  4083			000011	  UNSWPS==^D9
  4084			000010	  UNNWPS==^D8
  4085			000043	UNISPU==:UNIWPS
  4086			000010	  UNSSPU==^D8
  4087			000021	  UNNSPU==^D17
  4088	004025'	777777	777777	UNICYL::!-1
  4089
  4090
  4091				IFE FTDPAG,<
  4092	004026'	000000	000000	UNIBLK::!0
  4093			000045	UNIONC==:UNIBLK
  4094				>
  4095				IFN FTDPAG,<
  4096				UNIPAG::!0
  4097				UNIONC==:UNIPAG
  4098				>
  4099	004027'	000000	000000	UNISTT::!0
  4100	004030'	000000	000000	UNITAL::!0
  4101
  4102	004031'	000370	104002	UNIDES::!BYTE (10)0(8)%UNSZ(\$SYUNN)^%SIZ2^(3)$CHN(6)TYPBP(3)$BPNUM(2)0(4)$KNUNN
  4103
  4104
  4105
  4106
  4107
  4108
  4109
  4110
  4111
  4112			200000	  UNPOFL==:200000
  4113			100000	  UNPHWP==:100000
  4114
  4115			040000	  UNPCHG==: 40000
  4116
  4117			020000	  UNPPRV==: 20000
  4118
  4119			004000	  UNPFUS==:  4000
COMMOD - COMMON DATA LOCATIONS USED BY DISK SERVICE	MACRO 12.5-46.0 14:24 13-JAN-88 PAGE 51-4
COMMOD.MAC	20-NOV-87 23:00		Channel DB, SAX DB, unit DB

  4120			002000	  UNPRRS==:  2000
  4121
  4122			000400	  UNPMSB==:   400
  4123
  4124
  4125
  4126
  4127
  4128
  4129			000050	UNISIZ==:UNIDES
  4130			000010	  UNSSIZ==^D8
  4131			000021	  UNNSIZ==^D17
  4132
  4133
  4134
  4135
  4136
  4137
  4138
  4139
  4140
  4141
  4142
  4143
  4144
  4145
  4146
  4147			000050	UNISCN==:UNIDES
  4148			000003	  UNSSCN==^D3
  4149			000024	  UNNSCN==^D20
  4150			000050	UNIKTP==:UNIDES
  4151			000006	  UNSKTP==^D6
  4152			000032	  UNNKTP==^D26
  4153				;*; TYPDR==0
  4154			000000	    TYPFT==0
  4155			000001	    TYPFH==1
  4156			000002	    TYPDP==2
  4157			000003	    TYPMD==3
  4158			000004	    TYPBP==4
  4159			000005	    TYPRM==5
  4160			000006	    TYPAP==6
  4161
  4162
  4163			000050	UNIKNM==:UNIDES
  4164			000003	  UNSKNM==^D3
  4165			000035	  UNNKNM==^D29
  4166			000050	UNIUTP==:UNIDES
  4167			000002	  UNSUTP==^D2
  4168			000037	  UNNUTP==^D31
  4169
  4170
  4171
  4172
COMMOD - COMMON DATA LOCATIONS USED BY DISK SERVICE	MACRO 12.5-46.0 14:24 13-JAN-88 PAGE 51-5
COMMOD.MAC	20-NOV-87 23:00		Channel DB, SAX DB, unit DB

  4173
  4174
  4175
  4176
  4177
  4178
  4179
  4180
  4181
  4182
  4183
  4184
  4185
  4186
  4187			000020	  UNPUTP==:20
  4188			000050	UNIPUN==:UNIDES
  4189			000004	  UNSPUN==^D4
  4190			000043	  UNNPUN==^D35
  4191	004032'	000000	000000		0	; Place holder for obsolete entry (for SYSTAT and ERRCHK)
  4192	004033'	000000	000000		0	;   "	  "	"	"	"
  4193	004034'	000000	000000	UNIRCT::!0
  4194			000053	UNIRTY==UNIRCT
  4195			000011	 UNSRTY==^D9
  4196			000043	 UNNRTY==^D35	;POSITION OF FIELD
  4197			000053	UNIRCL==UNIRCT
  4198			000011	 UNSRCL==^D9
  4199			000032	 UNNRCL==^D26
  4200			000053	UNIRRT==UNIRCT
  4201			000011	 UNSRRT==^D9
  4202			000021	 UNNRRT==^D17
  4203
  4204			001000	 UNPDEV==:1000
  4205
  4206	004035'	000000	000000	UNIFCT::!0
  4207	004036'	000000	000000	UNIDIR::!0
  4208
  4209			000055	UNITIM==UNIDIR
  4210			000006	 UNSTIM==6
  4211			000006	 UNNTIM==6
  4212			000055	UNIPAC==UNIDIR
  4213			000015	 UNSPAC==^D13
  4214			000023	 UNNPAC==^D19
  4215			000055	UNIPGL==UNIDIR
  4216			000015	 UNSPGL==^D13
  4217			000040	 UNNPGL==^D32
  4218			000055	UNIPPL==UNIDIR
  4219			000002	 UNSPPL==2
  4220			000042	 UNNPPL==^D34
  4221
  4222
  4223	004037'	000000	000000	UNIRC1::!0
  4224			000056	 UNIOCV==:UNIRC1
  4225			000011	  UNSOCV==^D9
COMMOD - COMMON DATA LOCATIONS USED BY DISK SERVICE	MACRO 12.5-46.0 14:24 13-JAN-88 PAGE 51-6
COMMOD.MAC	20-NOV-87 23:00		Channel DB, SAX DB, unit DB

  4226			000043	  UNNOCV==^D35
  4227			000056	 UNIRTO==:UNIRC1
  4228			000011	  UNSRTO==^D9
  4229			000032	  UNNRTO==^D26
  4230			000056	 UNIRCO==:UNIRC1
  4231			000011	  UNSRCO==^D9
  4232			000021	  UNNRCO==^D17
  4233			000056	 UNIOS==:UNIRC1
  4234			000001	  UNSOS==^D1
  4235			000007	  UNNOS==^D7
  4236
  4237			000003		$SYUNN==$SYUNN+1
  4238			000003		$KNUNN==$KNUNN+1
  4239			000003		$CHUNN==$CHUNN+1
  4240				^
  4241	004040'	000000	000000	UNISWC::!0	;SAVE WORD COUNT FOR THIS OPERATION
  4242	004041'	000000	000000	UNICNA::!0	;CONTINUE ADDRESS FOR LARGE TRANSFERS
  4243	004042'	000000	000000	UNICNC::!0	;CONTINUE COUNT
  4244	004043'	000000	000000	UNICCC::!0	;CURRENT COUNT IF TRANSFER BROKEN
  4245	004044'	164023	020000	UNISNS::!BYTE (8) 72,4,$KNUNN+BPA-1	;SENSE COMMAND
  4246	004045'	000000	000000*		BYTE (12) -^D24 (24) UNISND+NMUN(\<$KNUNN-1>,BPA)^%NUN (,2,BPA)^ BPA2CB^^
  4247	004046'	400000	000000		BYTE (8) 200			;End of command list for SENSE
  4248			000065	UNISSD==:.-1			;Bits 9-35 for set sector data
  4249	000066			UNISND::!BLOCK ^D<24/4>		;READ SENSE INFORMATION HERE
  4250	004055'	000000	000000	UNISNC::!0	;NUMBER OF SENSES DONE
  4251	004056'	000000	000000	UNISVC::!0	;SAVE COUNT HERE ON SENSE
  4252	004057'	000000	000000	UNISCM::!0	;SAVE COMMAND HERE ON SENSE
  4253	004060'	000000	000000	UNIACT::!0	;SAVE CHANNEL ACTIVE COUNT FOR HUNG
  4254	004061'	777512	004062'	UNICOM::!-BPCMSZ,,.+1+NMUN(\<$KNUNN-1>,BPA)^%NUN (,2,BPA)^ BPA2CB^^
  4255	000101				BLOCK BPCMSZ		;Command list goes here
  4256
  4257			000000		OLV==0
  4258			017625'	IFIDN <A>,<A>,<IFN BPCUN,<OLV==NMUN(\<$KNUNN-1>,BPC)^%NUN (,2,BPC)^ BPC2CB^^+UNISTS>>
  4259				IFIDN <A>,<B>,<IFN BPDUN,<OLV==NMUN(\<$KNUNN-1>,BPD)+UNISTS>>
  4260				IFIDN <A>,<C>,<IFN BPAUN,<OLV==NMUN(\<$KNUNN-1>,BPA)+UNISTS>>
  4261				IFIDN <A>,<D>,<IFN BPBUN,<OLV==NMUN(\<$KNUNN-1>,BPB)+UNISTS>>
  4262	004350'	000000	017625'	UNIOLV::!XWD ZERO18,OLV	;Pointer to other logical volume of 3652 disk
  4263			000370		%UNSZ(\<$SYUNN-1>)^%SIZ2^==.
  4264	004351'				DEPHASE
  4265					LIST
  4266				^
  4267
  4268							IFGE $SYUNN-4,<XLIST>;List only the first 4
  4269							IFE  $KNUNN,<LIST>  ;Show first unit on each KON
  4270							IFL  $SYUNN-4,<PAGE>
COMMOD - COMMON DATA LOCATIONS USED BY DISK SERVICE	MACRO 12.5-46.0 14:24 13-JAN-88 PAGE 52
COMMOD.MAC	20-NOV-87 23:00		Channel DB, SAX DB, unit DB

  4271							BPITCB (BP,A,\$BPNUM)^
  4272					UNITCB(BP,A)^
  4273				%NUN (INTERNAL,\$KNUNN,BPA)^INTERNAL BPA3CB^
  4274				IFNDEF FIRUNI,<FIRUNI:>
  4275	004351'	426041	230000	NMUN(\$KNUNN,BPA)^%NUN (,3,BPA)^ BPA3CB^^:	%SUN(\$KNUNN,BPA)^SIXBIT /BPA3/^
  4276			000000	UNINAM==:0
  4277
  4278
  4279
  4280
  4281	000001				PHASE	1
  4282	004352'	000000	000000	UNILOG::!0
  4283
  4284
  4285	004353'	000000	000000	UNIHID::!0
  4286
  4287
  4288			004351'	NMSYUN(\$SYUNN)^%SY3^==NMUN(\$KNUNN,BPA)^%NUN (,3,BPA)^ BPA3CB^^
  4289	004354'	004741'	000000	UNISYS::!XWD NMSYUN(\<$SYUNN+1>)^%SY4^,0
  4290
  4291			000003	UNILUN==UNISYS
  4292			000006	  UNSLUN==^D6
  4293			000043	  UNNLUN==^D35
  4294
  4295	004355'	000000	000000	UNISTR::!0	;LH=ADDRESS OF NEXT UNIT DATA BLOCK IN STR
  4296						;LH=0 IN LAST UNIT IN FILE STRUCTURE
  4297						;RH=UPWARD POINTER TO FILE STR. DATA BLOCK.
  4298						;WORD=0 IF THIS UNIT IS NOT IN A STR
  4299
  4300			004351'	NMCHUN(\$CHN,\$CHUNN)^%CH13^==NMUN(\$KNUNN,BPA)^%NUN (,3,BPA)^ BPA3CB^^
  4301	004356'	004741'	032415'	UNICHN::!XWD NMCHUN(\$CHN,\<$CHUNN+1>)^%CH14^,NMCH(\$CHN)^%NCH (,1)^ CHN1CB^^
  4302
  4303
  4304			004351'	NMKNUN(BPA,\$KNUNN)^%BPA3^==NMUN(\$KNUNN,BPA)^%NUN (,3,BPA)^ BPA3CB^^
  4305	004357'	004741'	012601'	UNIKON::!XWD NMKNUN(BPA,\<$KNUNN+1>)^%BPA4^,BPACB
  4306
  4307
  4308	004360'	000000	000000	UNIFEP::!0
  4309
  4310
  4311
  4312				;ERROR STATISTICS:
  4313	004361'	000000	000000	UNIHCT::!0
  4314
  4315
  4316	004362'	000000	000000	UNISCT::!0
  4317
  4318
  4319
  4320	004363'	000000	000000	UNIMCT::!0
  4321
  4322			000100	  UNPSER==:100
  4323
COMMOD - COMMON DATA LOCATIONS USED BY DISK SERVICE	MACRO 12.5-46.0 14:24 13-JAN-88 PAGE 52-2
COMMOD.MAC	20-NOV-87 23:00		Channel DB, SAX DB, unit DB

  4324			010000	  UNPRER==:10000
  4325			000001	  UNPCER==:1
  4326
  4327	004364'	000000	000000	UNIERR::!0
  4328
  4329
  4330
  4331	004365'	000000	000000	UNISOF::!0
  4332	004366'	000000	000000	UNIHBN::!0
  4333
  4334
  4335
  4336
  4337				;WRITE COUNT MUST BE READ COUNT+1
  4338	004367'	000000	000000	UNIBRC::!0
  4339	004370'	000000	000000	UNIBWC::!0
  4340	004371'	000000	000000	UNIDRC::!0
  4341	004372'	000000	000000	UNIDWC::!0
  4342	004373'	000000	000000	UNIMRC::!0
  4343	004374'	000000	000000	UNIMWC::!0
  4344	004375'	000000	000000	UNIHNG::!0	; NO OF HUNG TIME OUTS WHICH COUNT NOT BE RECOVERED
  4345						;LH HUNG FROM TRANSFER, RH OTHER (POSITION)
  4346
  4347	004376'	000000	000000	UNIICT::!0
  4348	004377'	000000	000000	UNIOCT::!0
  4349
  4350
  4351	004400'	000000	000000	UNIMSC::!0
  4352	004401'	000000	000000	UNIUSC::!0
  4353
  4354
  4355
  4356	004402'	000000	000000		0
  4357	004403'	000000	000000	UNISDI::!0
  4358
  4359	004404'	000000	000000	UNIHDI::!0
  4360
  4361	004405'	000000	000000	UNIECT::!0
  4362
  4363
  4364
  4365
  4366	004406'	000000	000000	UNISBN::!0
  4367	004407'	000000	000000	UNISTS::!0
  4368
  4369
  4370				  ;Here starts descrepency between TYMCOM-X and TOPS-10 "UDB" definitions
  4371	004410'	000000	000000	UNIQUE::!XWD 0,0
  4372
  4373
  4374
  4375
  4376
COMMOD - COMMON DATA LOCATIONS USED BY DISK SERVICE	MACRO 12.5-46.0 14:24 13-JAN-88 PAGE 52-3
COMMOD.MAC	20-NOV-87 23:00		Channel DB, SAX DB, unit DB

  4377
  4378
  4379	004411'	000000	000000	UNICDA::!0
  4380	004412'	000000	000000	UNIPPU::!0
  4381	004413'	000000	000000	UNICHR::!0
  4382
  4383			000042	UNIBPR==:UNICHR
  4384			000010	  UNSBPR==^D8
  4385			000011	  UNNBPR==^D9
  4386			000042	UNIBPT==:UNICHR
  4387			000011	  UNSBPT==^D9
  4388			000021	  UNNBPT==^D17
  4389			000042	UNIBPY==:UNICHR
  4390			000022	  UNSBPY==^D18
  4391			000043	  UNNBPY==^D35
  4392	004414'	000000	000000	UNIWPS::!0
  4393			000011	  UNSWPS==^D9
  4394			000010	  UNNWPS==^D8
  4395			000043	UNISPU==:UNIWPS
  4396			000010	  UNSSPU==^D8
  4397			000021	  UNNSPU==^D17
  4398	004415'	777777	777777	UNICYL::!-1
  4399
  4400
  4401				IFE FTDPAG,<
  4402	004416'	000000	000000	UNIBLK::!0
  4403			000045	UNIONC==:UNIBLK
  4404				>
  4405				IFN FTDPAG,<
  4406				UNIPAG::!0
  4407				UNIONC==:UNIPAG
  4408				>
  4409	004417'	000000	000000	UNISTT::!0
  4410	004420'	000000	000000	UNITAL::!0
  4411
  4412	004421'	000370	104003	UNIDES::!BYTE (10)0(8)%UNSZ(\$SYUNN)^%SIZ3^(3)$CHN(6)TYPBP(3)$BPNUM(2)0(4)$KNUNN
  4413
  4414
  4415
  4416
  4417
  4418
  4419
  4420
  4421
  4422			200000	  UNPOFL==:200000
  4423			100000	  UNPHWP==:100000
  4424
  4425			040000	  UNPCHG==: 40000
  4426
  4427			020000	  UNPPRV==: 20000
  4428
  4429			004000	  UNPFUS==:  4000
COMMOD - COMMON DATA LOCATIONS USED BY DISK SERVICE	MACRO 12.5-46.0 14:24 13-JAN-88 PAGE 52-4
COMMOD.MAC	20-NOV-87 23:00		Channel DB, SAX DB, unit DB

  4430			002000	  UNPRRS==:  2000
  4431
  4432			000400	  UNPMSB==:   400
  4433
  4434
  4435
  4436
  4437
  4438
  4439			000050	UNISIZ==:UNIDES
  4440			000010	  UNSSIZ==^D8
  4441			000021	  UNNSIZ==^D17
  4442
  4443
  4444
  4445
  4446
  4447
  4448
  4449
  4450
  4451
  4452
  4453
  4454
  4455
  4456
  4457			000050	UNISCN==:UNIDES
  4458			000003	  UNSSCN==^D3
  4459			000024	  UNNSCN==^D20
  4460			000050	UNIKTP==:UNIDES
  4461			000006	  UNSKTP==^D6
  4462			000032	  UNNKTP==^D26
  4463				;*; TYPDR==0
  4464			000000	    TYPFT==0
  4465			000001	    TYPFH==1
  4466			000002	    TYPDP==2
  4467			000003	    TYPMD==3
  4468			000004	    TYPBP==4
  4469			000005	    TYPRM==5
  4470			000006	    TYPAP==6
  4471
  4472
  4473			000050	UNIKNM==:UNIDES
  4474			000003	  UNSKNM==^D3
  4475			000035	  UNNKNM==^D29
  4476			000050	UNIUTP==:UNIDES
  4477			000002	  UNSUTP==^D2
  4478			000037	  UNNUTP==^D31
  4479
  4480
  4481
  4482
COMMOD - COMMON DATA LOCATIONS USED BY DISK SERVICE	MACRO 12.5-46.0 14:24 13-JAN-88 PAGE 52-5
COMMOD.MAC	20-NOV-87 23:00		Channel DB, SAX DB, unit DB

  4483
  4484
  4485
  4486
  4487
  4488
  4489
  4490
  4491
  4492
  4493
  4494
  4495
  4496
  4497			000020	  UNPUTP==:20
  4498			000050	UNIPUN==:UNIDES
  4499			000004	  UNSPUN==^D4
  4500			000043	  UNNPUN==^D35
  4501	004422'	000000	000000		0	; Place holder for obsolete entry (for SYSTAT and ERRCHK)
  4502	004423'	000000	000000		0	;   "	  "	"	"	"
  4503	004424'	000000	000000	UNIRCT::!0
  4504			000053	UNIRTY==UNIRCT
  4505			000011	 UNSRTY==^D9
  4506			000043	 UNNRTY==^D35	;POSITION OF FIELD
  4507			000053	UNIRCL==UNIRCT
  4508			000011	 UNSRCL==^D9
  4509			000032	 UNNRCL==^D26
  4510			000053	UNIRRT==UNIRCT
  4511			000011	 UNSRRT==^D9
  4512			000021	 UNNRRT==^D17
  4513
  4514			001000	 UNPDEV==:1000
  4515
  4516	004425'	000000	000000	UNIFCT::!0
  4517	004426'	000000	000000	UNIDIR::!0
  4518
  4519			000055	UNITIM==UNIDIR
  4520			000006	 UNSTIM==6
  4521			000006	 UNNTIM==6
  4522			000055	UNIPAC==UNIDIR
  4523			000015	 UNSPAC==^D13
  4524			000023	 UNNPAC==^D19
  4525			000055	UNIPGL==UNIDIR
  4526			000015	 UNSPGL==^D13
  4527			000040	 UNNPGL==^D32
  4528			000055	UNIPPL==UNIDIR
  4529			000002	 UNSPPL==2
  4530			000042	 UNNPPL==^D34
  4531
  4532
  4533	004427'	000000	000000	UNIRC1::!0
  4534			000056	 UNIOCV==:UNIRC1
  4535			000011	  UNSOCV==^D9
COMMOD - COMMON DATA LOCATIONS USED BY DISK SERVICE	MACRO 12.5-46.0 14:24 13-JAN-88 PAGE 52-6
COMMOD.MAC	20-NOV-87 23:00		Channel DB, SAX DB, unit DB

  4536			000043	  UNNOCV==^D35
  4537			000056	 UNIRTO==:UNIRC1
  4538			000011	  UNSRTO==^D9
  4539			000032	  UNNRTO==^D26
  4540			000056	 UNIRCO==:UNIRC1
  4541			000011	  UNSRCO==^D9
  4542			000021	  UNNRCO==^D17
  4543			000056	 UNIOS==:UNIRC1
  4544			000001	  UNSOS==^D1
  4545			000007	  UNNOS==^D7
  4546
  4547			000004		$SYUNN==$SYUNN+1
  4548			000004		$KNUNN==$KNUNN+1
  4549			000004		$CHUNN==$CHUNN+1
  4550				^
  4551	004430'	000000	000000	UNISWC::!0	;SAVE WORD COUNT FOR THIS OPERATION
  4552	004431'	000000	000000	UNICNA::!0	;CONTINUE ADDRESS FOR LARGE TRANSFERS
  4553	004432'	000000	000000	UNICNC::!0	;CONTINUE COUNT
  4554	004433'	000000	000000	UNICCC::!0	;CURRENT COUNT IF TRANSFER BROKEN
  4555	004434'	164023	030000	UNISNS::!BYTE (8) 72,4,$KNUNN+BPA-1	;SENSE COMMAND
  4556	004435'	000000	000000*		BYTE (12) -^D24 (24) UNISND+NMUN(\<$KNUNN-1>,BPA)^%NUN (,3,BPA)^ BPA3CB^^
  4557	004436'	400000	000000		BYTE (8) 200			;End of command list for SENSE
  4558			000065	UNISSD==:.-1			;Bits 9-35 for set sector data
  4559	000066			UNISND::!BLOCK ^D<24/4>		;READ SENSE INFORMATION HERE
  4560	004445'	000000	000000	UNISNC::!0	;NUMBER OF SENSES DONE
  4561	004446'	000000	000000	UNISVC::!0	;SAVE COUNT HERE ON SENSE
  4562	004447'	000000	000000	UNISCM::!0	;SAVE COMMAND HERE ON SENSE
  4563	004450'	000000	000000	UNIACT::!0	;SAVE CHANNEL ACTIVE COUNT FOR HUNG
  4564	004451'	777512	004452'	UNICOM::!-BPCMSZ,,.+1+NMUN(\<$KNUNN-1>,BPA)^%NUN (,3,BPA)^ BPA3CB^^
  4565	000101				BLOCK BPCMSZ		;Command list goes here
  4566
  4567			000000		OLV==0
  4568			020215'	IFIDN <A>,<A>,<IFN BPCUN,<OLV==NMUN(\<$KNUNN-1>,BPC)^%NUN (,3,BPC)^ BPC3CB^^+UNISTS>>
  4569				IFIDN <A>,<B>,<IFN BPDUN,<OLV==NMUN(\<$KNUNN-1>,BPD)+UNISTS>>
  4570				IFIDN <A>,<C>,<IFN BPAUN,<OLV==NMUN(\<$KNUNN-1>,BPA)+UNISTS>>
  4571				IFIDN <A>,<D>,<IFN BPBUN,<OLV==NMUN(\<$KNUNN-1>,BPB)+UNISTS>>
  4572	004740'	000000	020215'	UNIOLV::!XWD ZERO18,OLV	;Pointer to other logical volume of 3652 disk
  4573			000370		%UNSZ(\<$SYUNN-1>)^%SIZ3^==.
  4574	004741'				DEPHASE
  4575					LIST
  4576				^
  4577
  4578							IFGE $SYUNN-4,<XLIST>;List only the first 4
  4579					LIST
  4580				^
  4581
  4582							IFGE $SYUNN-4,<XLIST>;List only the first 4
  4583					LIST
  4584				^
  4585
  4586							IFGE $SYUNN-4,<XLIST>;List only the first 4
  4587					LIST
  4588				^
COMMOD - COMMON DATA LOCATIONS USED BY DISK SERVICE	MACRO 12.5-46.0 14:24 13-JAN-88 PAGE 52-7
COMMOD.MAC	20-NOV-87 23:00		Channel DB, SAX DB, unit DB

  4589
  4590							IFGE $SYUNN-4,<XLIST>;List only the first 4
  4591					LIST
  4592				^
  4593
  4594							IFGE $SYUNN-4,<XLIST>;List only the first 4
  4595					LIST
  4596				^
  4597
  4598							IFGE $SYUNN-4,<XLIST>;List only the first 4
  4599					LIST
  4600				^
  4601
  4602							IFGE $SYUNN-4,<XLIST>;List only the first 4
  4603					LIST
  4604				^
  4605
  4606							IFGE $SYUNN-4,<XLIST>;List only the first 4
  4607					LIST
  4608				^
  4609
  4610							IFGE $SYUNN-4,<XLIST>;List only the first 4
  4611					LIST
  4612				^
  4613
  4614							IFGE $SYUNN-4,<XLIST>;List only the first 4
  4615					LIST
  4616				^
  4617
  4618							IFGE $SYUNN-4,<XLIST>;List only the first 4
  4619					LIST
  4620				^
  4621
  4622							IFGE $SYUNN-4,<XLIST>;List only the first 4
  4623					LIST
  4624				^
  4625									LIST
  4626			003001'			NMKNUN(BPA,\$KNUNN)^%BPA20^==NMKNUN(BPA,0)^%BPA0^
  4627						IFIDN <BP> <FT>,<NMFTDB(A,\$KNUNN)==>
  4628								PAGE
COMMOD - COMMON DATA LOCATIONS USED BY DISK SERVICE	MACRO 12.5-46.0 14:24 13-JAN-88 PAGE 53
COMMOD.MAC	20-NOV-87 23:00		Channel DB, SAX DB, unit DB

  4629						BPKON(A,\$BPNUM)^
  4630			000000		BPFIX==0
  4631			400000		BPCHN==400000
  4632			000020		KONMXU==BPAMX
  4633					KONKON(BP,A,0)^
  4634
  4635	000000			BPACB::	PHASE	0
  4636
  4637
  4638
  4639
  4640
  4641			012601'	NMKCN(\$CHN,\$KCHNN)^%CK10^==BPACB
  4642
  4643
  4644
  4645
  4646
  4647				IFDIF <BP> <FT>,<
  4648				    EXTERN BPXRED,BPXWRT,BPXADD
  4649				    EXTERN BPXFIN,BPXPOS,BPXLTM,BPXUPA,BPXCPY
  4650				    EXTERN BPXRCL,BPXSTP,BPXOFS,BPXHRD,BPXSFT
  4651				> ; End IFDIF <BP> <FT>
  4652
  4653				IFIDN <BP> <FT>,<
  4654					BPXRED==0
  4655					BPXWRT==0
  4656					BPXADD==0
  4657					BPXFIN==0
  4658					BPXPOS==0
  4659					BPXLTM==0
  4660					BPXUPA==0
  4661					BPXCPY==0
  4662					BPXRCL==0
  4663					BPXSTP==0
  4664					BPXOFS==0
  4665					BPXHRD==0
  4666					BPXSFT==0
  4667				> ; End IFIDN <BP> <FT>
  4668
  4669	012601'	000000	000000*	KONRED::!XWD 0_^D15,BPXRED
  4670			000000	KOBPI==KONRED
  4671			000003	  KOSPI==^D3
  4672			000002	  KONPI==^D2
  4673	012602'	000000	000000*	KONWRT::!XWD ZERO5,BPXWRT
  4674	012603'	000000	000000*	KONADD::!XWD ZERO5,BPXADD
  4675	012604'	000000	000000*	KONFIN::!XWD ZERO5,BPXFIN
  4676	012605'	000000	000000*	KONPOS::!XWD BPFIX!ZERO5,BPXPOS
  4677	012606'	400000	000000*	KONLTM::!XWD BPCHN,BPXLTM
  4678			000005	KONIBM==:<KONRBL==:KONLTM>
  4679	012607'	000000	000000*	KONUPA::!XWD ZERO5,BPXUPA
  4680			000006	KONDWN==:KONUPA
  4681			400000	  KOPDWN==:400000
COMMOD - COMMON DATA LOCATIONS USED BY DISK SERVICE	MACRO 12.5-46.0 14:24 13-JAN-88 PAGE 53-2
COMMOD.MAC	20-NOV-87 23:00		Channel DB, SAX DB, unit DB

  4682
  4683
  4684
  4685
  4686	012610'	000000	000000*	KONCPY::!XWD ZERO5,BPXCPY
  4687	012611'	000000	000000*	KONRCL::!XWD ZERO18,BPXRCL
  4688
  4689
  4690	012612'	000000	000000*	KONSTP::!XWD ZERO5,BPXSTP
  4691
  4692	012613'	000000	000000*	KONOFS::!XWD ZERO5,BPXOFS
  4693	012614'	000000	000000*	KONHRD::!XWD ZERO5,BPXHRD
  4694	012615'	000000	000000*	KONSFT::!XWD ZERO5,BPXSFT
  4695			000014	KONLEN==KONSFT-KONRED
  4696	012616'	016544'	032415'	KONCHN::!XWD NMKCN(\$CHN,\<$KCHNN+1>)^%CK11^,NMCH(\$CHN)^%NCH (,1)^ CHN1CB^^
  4697
  4698	012617'	000016	012624'	KONPTR::!XWD ZERO5,BPACU(P3)
  4699
  4700
  4701				^
  4702					KONSAX(BP,A,0)^
  4703	012620'	032425'	000300	KONBSU::! XWD NMSCH(\$SAXN,\$SAXCN)^SC01CB^+CHNBMX+$SAXUN,BPA
  4704			000017	KONBMX==:KONBSU	;L.H. POINTER TO BLOCK MULTIPLEX AREA FOR KON
  4705						;R.H. BASE UNIT ADDRESS
  4706	012621'	000000	000320	KONUMX:!  BPA+KONMXU
  4707	012622'	000000	000000*	KONSNT::! BPXINT	;POINTER TO INTERUPT ROUTINE
  4708			000020		$SAXUN==$SAXUN+KONMXU
  4709				    EXTERNAL BPXINT
  4710				^
  4711	012623'	000000	000000	BPXCUB::! 0		;KONTROL UNIT BUSY BITS
  4712					KONUNL (BP,A)^
  4713			000023		%%KONUS==.
  4714	012624'				DEPHASE
  4715	012624'			BPACU:
  4716			000000		$U1==0
  4717				    REPEAT BPAUN,
  4718
  4719	012624'	000000	003001'		NMUN(\$U1,BPA)^%NUN (,0,BPA)^ BPA0CB^^
  4720			000001		$U1=$U1+1
  4721
  4722
  4723	012625'	000000	003371'		NMUN(\$U1,BPA)^%NUN (,1,BPA)^ BPA1CB^^
  4724			000002		$U1=$U1+1
  4725
  4726
  4727	012626'	000000	003761'		NMUN(\$U1,BPA)^%NUN (,2,BPA)^ BPA2CB^^
  4728			000003		$U1=$U1+1
  4729
  4730
  4731	012627'	000000	004351'		NMUN(\$U1,BPA)^%NUN (,3,BPA)^ BPA3CB^^
  4732			000004		$U1=$U1+1
  4733
  4734
COMMOD - COMMON DATA LOCATIONS USED BY DISK SERVICE	MACRO 12.5-46.0 14:24 13-JAN-88 PAGE 53-3
COMMOD.MAC	20-NOV-87 23:00		Channel DB, SAX DB, unit DB

  4735	012630'	000000	004741'		NMUN(\$U1,BPA)^%NUN (,4,BPA)^ BPA4CB^^
  4736			000005		$U1=$U1+1
  4737
  4738
  4739	012631'	000000	005331'		NMUN(\$U1,BPA)^%NUN (,5,BPA)^ BPA5CB^^
  4740			000006		$U1=$U1+1
  4741
  4742
  4743	012632'	000000	005721'		NMUN(\$U1,BPA)^%NUN (,6,BPA)^ BPA6CB^^
  4744			000007		$U1=$U1+1
  4745
  4746
  4747	012633'	000000	006311'		NMUN(\$U1,BPA)^%NUN (,7,BPA)^ BPA7CB^^
  4748			000010		$U1=$U1+1
  4749
  4750
  4751	012634'	000000	006701'		NMUN(\$U1,BPA)^%NUN (,10,BPA)^ BPA10CB^^
  4752			000011		$U1=$U1+1
  4753
  4754
  4755	012635'	000000	007271'		NMUN(\$U1,BPA)^%NUN (,11,BPA)^ BPA11CB^^
  4756			000012		$U1=$U1+1
  4757
  4758
  4759	012636'	000000	007661'		NMUN(\$U1,BPA)^%NUN (,12,BPA)^ BPA12CB^^
  4760			000013		$U1=$U1+1
  4761
  4762
  4763	012637'	000000	010251'		NMUN(\$U1,BPA)^%NUN (,13,BPA)^ BPA13CB^^
  4764			000014		$U1=$U1+1
  4765
  4766
  4767	012640'	000000	010641'		NMUN(\$U1,BPA)^%NUN (,14,BPA)^ BPA14CB^^
  4768			000015		$U1=$U1+1
  4769
  4770
  4771	012641'	000000	011231'		NMUN(\$U1,BPA)^%NUN (,15,BPA)^ BPA15CB^^
  4772			000016		$U1=$U1+1
  4773
  4774
  4775	012642'	000000	011621'		NMUN(\$U1,BPA)^%NUN (,16,BPA)^ BPA16CB^^
  4776			000017		$U1=$U1+1
  4777
  4778
  4779	012643'	000000	012211'		NMUN(\$U1,BPA)^%NUN (,17,BPA)^ BPA17CB^^
  4780			000020		$U1=$U1+1
  4781				     ; End REPEAT BPAUN
  4782	012644'				BLOCK KONMXU-$U1	;UNIT ADDRESSES
  4783	000043				PHASE %%KONU+KONMXU
  4784				^
  4785	012644'				DEPHASE
  4786
  4787			000001		$BPNUM==$BPNUM+1
COMMOD - COMMON DATA LOCATIONS USED BY DISK SERVICE	MACRO 12.5-46.0 14:24 13-JAN-88 PAGE 53-4
COMMOD.MAC	20-NOV-87 23:00		Channel DB, SAX DB, unit DB

  4788				^
  4789			000001			$KCHNN==$KCHNN+1
  4790					    > ; End IFN BPAUN
  4791					    IFE BPAUN,<$BPNUM==$BPNUM+1>
  4792					> ; End IFE $U-$BPNUM
  4793			000001		$U==$U+1
  4794
  4795
  4796				 ; End IRP A,B,C,D,E,F,G,H,I,J,K,L
  4797				^^
  4798				KONTCB (BP)^KONCB1 (BP,<A,B,C,D,E,F,G,H,I,J,K,L>)^
  4799			000000		$U==0
  4800				    IRP
  4801
  4802					IFE $U-$BPNUM,<
  4803					    STOPI
  4804					    IFN BPAUN,<	RADIX 5+5
  4805						PRINT2(\BPAUN,units on BPA)
  4806								RADIX 8
  4807						$KNUNN==0	;UNIT NUMBER IN KON
  4808						REPEAT BPAUN,<
  4809							IFGE $SYUNN-4,<XLIST>;List only the first 4
  4810							IFE  $KNUNN,<LIST>  ;Show first unit on each KON
  4811							IFL  $SYUNN-4,<PAGE>
  4812							BPITCB (BP,A,\$BPNUM)>
  4813									LIST
  4814						NMKNUN(BPA,\$KNUNN)==NMKNUN(BPA,0)
  4815						IFIDN <BP> <FT>,<NMFTDB(A,\$KNUNN)==>
  4816								PAGE
  4817						BPKON(A,\$BPNUM)
  4818						$KCHNN==$KCHNN+1
  4819					    > ; End IFN BPAUN
  4820					    IFE BPAUN,<$BPNUM==$BPNUM+1>
  4821					> ; End IFE $U-$BPNUM
  4822			000001		$U==$U+1
  4823
  4824
  4825
  4826					IFE $U-$BPNUM,<
  4827					    STOPI
  4828					    IFN BPBUN,<	RADIX 5+5
  4829						PRINT2(\BPBUN,units on BPB)^IF2,<PRINTX [8 units on BPB]>^
  4830								RADIX 8
  4831			000000			$KNUNN==0	;UNIT NUMBER IN KON
  4832						REPEAT BPBUN,
  4833
  4834							IFGE $SYUNN-4,<XLIST>;List only the first 4
  4835							IFE  $KNUNN,<LIST>  ;Show first unit on each KON
  4836							IFL  $SYUNN-4,<PAGE>
  4837							BPITCB (BP,B,\$BPNUM)^
  4838					UNITCB(BP,B)^
  4839				%NUN (INTERNAL,\$KNUNN,BPB)^INTERNAL BPB0CB^
COMMOD - COMMON DATA LOCATIONS USED BY DISK SERVICE	MACRO 12.5-46.0 14:24 13-JAN-88 PAGE 53-5
COMMOD.MAC	20-NOV-87 23:00		Channel DB, SAX DB, unit DB

  4840				IFNDEF FIRUNI,<FIRUNI:>
  4841	012644'	426042	200000	NMUN(\$KNUNN,BPB)^%NUN (,0,BPB)^ BPB0CB^^:	%SUN(\$KNUNN,BPB)^SIXBIT /BPB0/^
  4842			000000	UNINAM==:0
  4843
  4844
  4845
  4846
  4847	000001				PHASE	1
  4848	012645'	000000	000000	UNILOG::!0
  4849
  4850
  4851	012646'	000000	000000	UNIHID::!0
  4852
  4853
  4854			012644'	NMSYUN(\$SYUNN)^%SY20^==NMUN(\$KNUNN,BPB)^%NUN (,0,BPB)^ BPB0CB^^
  4855	012647'	013234'	000000	UNISYS::!XWD NMSYUN(\<$SYUNN+1>)^%SY21^,0
  4856
  4857			000003	UNILUN==UNISYS
  4858			000006	  UNSLUN==^D6
  4859			000043	  UNNLUN==^D35
  4860
  4861	012650'	000000	000000	UNISTR::!0	;LH=ADDRESS OF NEXT UNIT DATA BLOCK IN STR
  4862						;LH=0 IN LAST UNIT IN FILE STRUCTURE
  4863						;RH=UPWARD POINTER TO FILE STR. DATA BLOCK.
  4864						;WORD=0 IF THIS UNIT IS NOT IN A STR
  4865
  4866			012644'	NMCHUN(\$CHN,\$CHUNN)^%CH120^==NMUN(\$KNUNN,BPB)^%NUN (,0,BPB)^ BPB0CB^^
  4867	012651'	013234'	032415'	UNICHN::!XWD NMCHUN(\$CHN,\<$CHUNN+1>)^%CH121^,NMCH(\$CHN)^%NCH (,1)^ CHN1CB^^
  4868
  4869
  4870			012644'	NMKNUN(BPB,\$KNUNN)^%BPB0^==NMUN(\$KNUNN,BPB)^%NUN (,0,BPB)^ BPB0CB^^
  4871	012652'	013234'	016544'	UNIKON::!XWD NMKNUN(BPB,\<$KNUNN+1>)^%BPB1^,BPBCB
  4872
  4873
  4874	012653'	000000	000000	UNIFEP::!0
  4875
  4876
  4877
  4878				;ERROR STATISTICS:
  4879	012654'	000000	000000	UNIHCT::!0
  4880
  4881
  4882	012655'	000000	000000	UNISCT::!0
  4883
  4884
  4885
  4886	012656'	000000	000000	UNIMCT::!0
  4887
  4888			000100	  UNPSER==:100
  4889
  4890			010000	  UNPRER==:10000
  4891			000001	  UNPCER==:1
  4892
COMMOD - COMMON DATA LOCATIONS USED BY DISK SERVICE	MACRO 12.5-46.0 14:24 13-JAN-88 PAGE 53-6
COMMOD.MAC	20-NOV-87 23:00		Channel DB, SAX DB, unit DB

  4893	012657'	000000	000000	UNIERR::!0
  4894
  4895
  4896
  4897	012660'	000000	000000	UNISOF::!0
  4898	012661'	000000	000000	UNIHBN::!0
  4899
  4900
  4901
  4902
  4903				;WRITE COUNT MUST BE READ COUNT+1
  4904	012662'	000000	000000	UNIBRC::!0
  4905	012663'	000000	000000	UNIBWC::!0
  4906	012664'	000000	000000	UNIDRC::!0
  4907	012665'	000000	000000	UNIDWC::!0
  4908	012666'	000000	000000	UNIMRC::!0
  4909	012667'	000000	000000	UNIMWC::!0
  4910	012670'	000000	000000	UNIHNG::!0	; NO OF HUNG TIME OUTS WHICH COUNT NOT BE RECOVERED
  4911						;LH HUNG FROM TRANSFER, RH OTHER (POSITION)
  4912
  4913	012671'	000000	000000	UNIICT::!0
  4914	012672'	000000	000000	UNIOCT::!0
  4915
  4916
  4917	012673'	000000	000000	UNIMSC::!0
  4918	012674'	000000	000000	UNIUSC::!0
  4919
  4920
  4921
  4922	012675'	000000	000000		0
  4923	012676'	000000	000000	UNISDI::!0
  4924
  4925	012677'	000000	000000	UNIHDI::!0
  4926
  4927	012700'	000000	000000	UNIECT::!0
  4928
  4929
  4930
  4931
  4932	012701'	000000	000000	UNISBN::!0
  4933	012702'	000000	000000	UNISTS::!0
  4934
  4935
  4936				  ;Here starts descrepency between TYMCOM-X and TOPS-10 "UDB" definitions
  4937	012703'	000000	000000	UNIQUE::!XWD 0,0
  4938
  4939
  4940
  4941
  4942
  4943
  4944
  4945	012704'	000000	000000	UNICDA::!0
COMMOD - COMMON DATA LOCATIONS USED BY DISK SERVICE	MACRO 12.5-46.0 14:24 13-JAN-88 PAGE 53-7
COMMOD.MAC	20-NOV-87 23:00		Channel DB, SAX DB, unit DB

  4946	012705'	000000	000000	UNIPPU::!0
  4947	012706'	000000	000000	UNICHR::!0
  4948
  4949			000042	UNIBPR==:UNICHR
  4950			000010	  UNSBPR==^D8
  4951			000011	  UNNBPR==^D9
  4952			000042	UNIBPT==:UNICHR
  4953			000011	  UNSBPT==^D9
  4954			000021	  UNNBPT==^D17
  4955			000042	UNIBPY==:UNICHR
  4956			000022	  UNSBPY==^D18
  4957			000043	  UNNBPY==^D35
  4958	012707'	000000	000000	UNIWPS::!0
  4959			000011	  UNSWPS==^D9
  4960			000010	  UNNWPS==^D8
  4961			000043	UNISPU==:UNIWPS
  4962			000010	  UNSSPU==^D8
  4963			000021	  UNNSPU==^D17
  4964	012710'	777777	777777	UNICYL::!-1
  4965
  4966
  4967				IFE FTDPAG,<
  4968	012711'	000000	000000	UNIBLK::!0
  4969			000045	UNIONC==:UNIBLK
  4970				>
  4971				IFN FTDPAG,<
  4972				UNIPAG::!0
  4973				UNIONC==:UNIPAG
  4974				>
  4975	012712'	000000	000000	UNISTT::!0
  4976	012713'	000000	000000	UNITAL::!0
  4977
  4978	012714'	000370	104100	UNIDES::!BYTE (10)0(8)%UNSZ(\$SYUNN)^%SIZ20^(3)$CHN(6)TYPBP(3)$BPNUM(2)0(4)$KNUNN
  4979
  4980
  4981
  4982
  4983
  4984
  4985
  4986
  4987
  4988			200000	  UNPOFL==:200000
  4989			100000	  UNPHWP==:100000
  4990
  4991			040000	  UNPCHG==: 40000
  4992
  4993			020000	  UNPPRV==: 20000
  4994
  4995			004000	  UNPFUS==:  4000
  4996			002000	  UNPRRS==:  2000
  4997
  4998			000400	  UNPMSB==:   400
COMMOD - COMMON DATA LOCATIONS USED BY DISK SERVICE	MACRO 12.5-46.0 14:24 13-JAN-88 PAGE 53-8
COMMOD.MAC	20-NOV-87 23:00		Channel DB, SAX DB, unit DB

  4999
  5000
  5001
  5002
  5003
  5004
  5005			000050	UNISIZ==:UNIDES
  5006			000010	  UNSSIZ==^D8
  5007			000021	  UNNSIZ==^D17
  5008
  5009
  5010
  5011
  5012
  5013
  5014
  5015
  5016
  5017
  5018
  5019
  5020
  5021
  5022
  5023			000050	UNISCN==:UNIDES
  5024			000003	  UNSSCN==^D3
  5025			000024	  UNNSCN==^D20
  5026			000050	UNIKTP==:UNIDES
  5027			000006	  UNSKTP==^D6
  5028			000032	  UNNKTP==^D26
  5029				;*; TYPDR==0
  5030			000000	    TYPFT==0
  5031			000001	    TYPFH==1
  5032			000002	    TYPDP==2
  5033			000003	    TYPMD==3
  5034			000004	    TYPBP==4
  5035			000005	    TYPRM==5
  5036			000006	    TYPAP==6
  5037
  5038
  5039			000050	UNIKNM==:UNIDES
  5040			000003	  UNSKNM==^D3
  5041			000035	  UNNKNM==^D29
  5042			000050	UNIUTP==:UNIDES
  5043			000002	  UNSUTP==^D2
  5044			000037	  UNNUTP==^D31
  5045
  5046
  5047
  5048
  5049
  5050
  5051
COMMOD - COMMON DATA LOCATIONS USED BY DISK SERVICE	MACRO 12.5-46.0 14:24 13-JAN-88 PAGE 53-9
COMMOD.MAC	20-NOV-87 23:00		Channel DB, SAX DB, unit DB

  5052
  5053
  5054
  5055
  5056
  5057
  5058
  5059
  5060
  5061
  5062
  5063			000020	  UNPUTP==:20
  5064			000050	UNIPUN==:UNIDES
  5065			000004	  UNSPUN==^D4
  5066			000043	  UNNPUN==^D35
  5067	012715'	000000	000000		0	; Place holder for obsolete entry (for SYSTAT and ERRCHK)
  5068	012716'	000000	000000		0	;   "	  "	"	"	"
  5069	012717'	000000	000000	UNIRCT::!0
  5070			000053	UNIRTY==UNIRCT
  5071			000011	 UNSRTY==^D9
  5072			000043	 UNNRTY==^D35	;POSITION OF FIELD
  5073			000053	UNIRCL==UNIRCT
  5074			000011	 UNSRCL==^D9
  5075			000032	 UNNRCL==^D26
  5076			000053	UNIRRT==UNIRCT
  5077			000011	 UNSRRT==^D9
  5078			000021	 UNNRRT==^D17
  5079
  5080			001000	 UNPDEV==:1000
  5081
  5082	012720'	000000	000000	UNIFCT::!0
  5083	012721'	000000	000000	UNIDIR::!0
  5084
  5085			000055	UNITIM==UNIDIR
  5086			000006	 UNSTIM==6
  5087			000006	 UNNTIM==6
  5088			000055	UNIPAC==UNIDIR
  5089			000015	 UNSPAC==^D13
  5090			000023	 UNNPAC==^D19
  5091			000055	UNIPGL==UNIDIR
  5092			000015	 UNSPGL==^D13
  5093			000040	 UNNPGL==^D32
  5094			000055	UNIPPL==UNIDIR
  5095			000002	 UNSPPL==2
  5096			000042	 UNNPPL==^D34
  5097
  5098
  5099	012722'	000000	000000	UNIRC1::!0
  5100			000056	 UNIOCV==:UNIRC1
  5101			000011	  UNSOCV==^D9
  5102			000043	  UNNOCV==^D35
  5103			000056	 UNIRTO==:UNIRC1
  5104			000011	  UNSRTO==^D9
COMMOD - COMMON DATA LOCATIONS USED BY DISK SERVICE	MACRO 12.5-46.0 14:24 13-JAN-88 PAGE 53-10
COMMOD.MAC	20-NOV-87 23:00		Channel DB, SAX DB, unit DB

  5105			000032	  UNNRTO==^D26
  5106			000056	 UNIRCO==:UNIRC1
  5107			000011	  UNSRCO==^D9
  5108			000021	  UNNRCO==^D17
  5109			000056	 UNIOS==:UNIRC1
  5110			000001	  UNSOS==^D1
  5111			000007	  UNNOS==^D7
  5112
  5113			000021		$SYUNN==$SYUNN+1
  5114			000001		$KNUNN==$KNUNN+1
  5115			000021		$CHUNN==$CHUNN+1
  5116				^
  5117	012723'	000000	000000	UNISWC::!0	;SAVE WORD COUNT FOR THIS OPERATION
  5118	012724'	000000	000000	UNICNA::!0	;CONTINUE ADDRESS FOR LARGE TRANSFERS
  5119	012725'	000000	000000	UNICNC::!0	;CONTINUE COUNT
  5120	012726'	000000	000000	UNICCC::!0	;CURRENT COUNT IF TRANSFER BROKEN
  5121	012727'	164023	200000	UNISNS::!BYTE (8) 72,4,$KNUNN+BPB-1	;SENSE COMMAND
  5122	012730'	000000	000000*		BYTE (12) -^D24 (24) UNISND+NMUN(\<$KNUNN-1>,BPB)^%NUN (,0,BPB)^ BPB0CB^^
  5123	012731'	400000	000000		BYTE (8) 200			;End of command list for SENSE
  5124			000065	UNISSD==:.-1			;Bits 9-35 for set sector data
  5125	000066			UNISND::!BLOCK ^D<24/4>		;READ SENSE INFORMATION HERE
  5126	012740'	000000	000000	UNISNC::!0	;NUMBER OF SENSES DONE
  5127	012741'	000000	000000	UNISVC::!0	;SAVE COUNT HERE ON SENSE
  5128	012742'	000000	000000	UNISCM::!0	;SAVE COMMAND HERE ON SENSE
  5129	012743'	000000	000000	UNIACT::!0	;SAVE CHANNEL ACTIVE COUNT FOR HUNG
  5130	012744'	777512	012745'	UNICOM::!-BPCMSZ,,.+1+NMUN(\<$KNUNN-1>,BPB)^%NUN (,0,BPB)^ BPB0CB^^
  5131	000101				BLOCK BPCMSZ		;Command list goes here
  5132
  5133			000000		OLV==0
  5134				IFIDN <B>,<A>,<IFN BPCUN,<OLV==NMUN(\<$KNUNN-1>,BPC)+UNISTS>>
  5135			026510'	IFIDN <B>,<B>,<IFN BPDUN,<OLV==NMUN(\<$KNUNN-1>,BPD)^%NUN (,0,BPD)^ BPD0CB^^+UNISTS>>
  5136				IFIDN <B>,<C>,<IFN BPAUN,<OLV==NMUN(\<$KNUNN-1>,BPA)+UNISTS>>
  5137				IFIDN <B>,<D>,<IFN BPBUN,<OLV==NMUN(\<$KNUNN-1>,BPB)+UNISTS>>
  5138	013233'	000000	026510'	UNIOLV::!XWD ZERO18,OLV	;Pointer to other logical volume of 3652 disk
  5139			000370		%UNSZ(\<$SYUNN-1>)^%SIZ20^==.
  5140	013234'				DEPHASE
  5141					LIST
  5142				^
  5143
  5144							IFGE $SYUNN-4,<XLIST>;List only the first 4
  5145					LIST
  5146				^
  5147
  5148							IFGE $SYUNN-4,<XLIST>;List only the first 4
  5149					LIST
  5150				^
  5151
  5152							IFGE $SYUNN-4,<XLIST>;List only the first 4
  5153					LIST
  5154				^
  5155
  5156							IFGE $SYUNN-4,<XLIST>;List only the first 4
  5157					LIST
COMMOD - COMMON DATA LOCATIONS USED BY DISK SERVICE	MACRO 12.5-46.0 14:24 13-JAN-88 PAGE 53-11
COMMOD.MAC	20-NOV-87 23:00		Channel DB, SAX DB, unit DB

  5158				^
  5159
  5160							IFGE $SYUNN-4,<XLIST>;List only the first 4
  5161					LIST
  5162				^
  5163
  5164							IFGE $SYUNN-4,<XLIST>;List only the first 4
  5165					LIST
  5166				^
  5167
  5168							IFGE $SYUNN-4,<XLIST>;List only the first 4
  5169					LIST
  5170				^
  5171									LIST
  5172			012644'			NMKNUN(BPB,\$KNUNN)^%BPB10^==NMKNUN(BPB,0)^%BPB0^
  5173						IFIDN <BP> <FT>,<NMFTDB(B,\$KNUNN)==>
  5174								PAGE
COMMOD - COMMON DATA LOCATIONS USED BY DISK SERVICE	MACRO 12.5-46.0 14:24 13-JAN-88 PAGE 54
COMMOD.MAC	20-NOV-87 23:00		Channel DB, SAX DB, unit DB

  5175						BPKON(B,\$BPNUM)^
  5176			000000		BPFIX==0
  5177			400000		BPCHN==400000
  5178			000020		KONMXU==BPBMX
  5179					KONKON(BP,B,0)^
  5180
  5181	000000			BPBCB::	PHASE	0
  5182
  5183
  5184
  5185
  5186
  5187			016544'	NMKCN(\$CHN,\$KCHNN)^%CK11^==BPBCB
  5188
  5189
  5190
  5191
  5192
  5193				IFDIF <BP> <FT>,<
  5194				    EXTERN BPXRED,BPXWRT,BPXADD
  5195				    EXTERN BPXFIN,BPXPOS,BPXLTM,BPXUPA,BPXCPY
  5196				    EXTERN BPXRCL,BPXSTP,BPXOFS,BPXHRD,BPXSFT
  5197				> ; End IFDIF <BP> <FT>
  5198
  5199				IFIDN <BP> <FT>,<
  5200					BPXRED==0
  5201					BPXWRT==0
  5202					BPXADD==0
  5203					BPXFIN==0
  5204					BPXPOS==0
  5205					BPXLTM==0
  5206					BPXUPA==0
  5207					BPXCPY==0
  5208					BPXRCL==0
  5209					BPXSTP==0
  5210					BPXOFS==0
  5211					BPXHRD==0
  5212					BPXSFT==0
  5213				> ; End IFIDN <BP> <FT>
  5214
  5215	016544'	000000	012601*	KONRED::!XWD 0_^D15,BPXRED
  5216			000000	KOBPI==KONRED
  5217			000003	  KOSPI==^D3
  5218			000002	  KONPI==^D2
  5219	016545'	000000	012602*	KONWRT::!XWD ZERO5,BPXWRT
  5220	016546'	000000	012603*	KONADD::!XWD ZERO5,BPXADD
  5221	016547'	000000	012604*	KONFIN::!XWD ZERO5,BPXFIN
  5222	016550'	000000	012605*	KONPOS::!XWD BPFIX!ZERO5,BPXPOS
  5223	016551'	400000	012606*	KONLTM::!XWD BPCHN,BPXLTM
  5224			000005	KONIBM==:<KONRBL==:KONLTM>
  5225	016552'	000000	012607*	KONUPA::!XWD ZERO5,BPXUPA
  5226			000006	KONDWN==:KONUPA
  5227			400000	  KOPDWN==:400000
COMMOD - COMMON DATA LOCATIONS USED BY DISK SERVICE	MACRO 12.5-46.0 14:24 13-JAN-88 PAGE 54-2
COMMOD.MAC	20-NOV-87 23:00		Channel DB, SAX DB, unit DB

  5228
  5229
  5230
  5231
  5232	016553'	000000	012610*	KONCPY::!XWD ZERO5,BPXCPY
  5233	016554'	000000	012611*	KONRCL::!XWD ZERO18,BPXRCL
  5234
  5235
  5236	016555'	000000	012612*	KONSTP::!XWD ZERO5,BPXSTP
  5237
  5238	016556'	000000	012613*	KONOFS::!XWD ZERO5,BPXOFS
  5239	016557'	000000	012614*	KONHRD::!XWD ZERO5,BPXHRD
  5240	016560'	000000	012615*	KONSFT::!XWD ZERO5,BPXSFT
  5241			000014	KONLEN==KONSFT-KONRED
  5242	016561'	026407'	032415'	KONCHN::!XWD NMKCN(\$CHN,\<$KCHNN+1>)^%CK12^,NMCH(\$CHN)^%NCH (,1)^ CHN1CB^^
  5243
  5244	016562'	000016	016567'	KONPTR::!XWD ZERO5,BPBCU(P3)
  5245
  5246
  5247				^
  5248					KONSAX(BP,B,1)^
  5249	016563'	032445'	000320	KONBSU::! XWD NMSCH(\$SAXN,\$SAXCN)^SC01CB^+CHNBMX+$SAXUN,BPB
  5250			000017	KONBMX==:KONBSU	;L.H. POINTER TO BLOCK MULTIPLEX AREA FOR KON
  5251						;R.H. BASE UNIT ADDRESS
  5252	016564'	000000	000340	KONUMX:!  BPB+KONMXU
  5253	016565'	000000	012622*	KONSNT::! BPXINT	;POINTER TO INTERUPT ROUTINE
  5254			000040		$SAXUN==$SAXUN+KONMXU
  5255				    EXTERNAL BPXINT
  5256				^
  5257	016566'	000000	000000	BPXCUB::! 0		;KONTROL UNIT BUSY BITS
  5258					KONUNL (BP,B)^
  5259			000023		%%KONUS==.
  5260	016567'				DEPHASE
  5261	016567'			BPBCU:
  5262			000000		$U1==0
  5263				    REPEAT BPBUN,
  5264
  5265	016567'	000000	012644'		NMUN(\$U1,BPB)^%NUN (,0,BPB)^ BPB0CB^^
  5266			000001		$U1=$U1+1
  5267
  5268
  5269	016570'	000000	013234'		NMUN(\$U1,BPB)^%NUN (,1,BPB)^ BPB1CB^^
  5270			000002		$U1=$U1+1
  5271
  5272
  5273	016571'	000000	013624'		NMUN(\$U1,BPB)^%NUN (,2,BPB)^ BPB2CB^^
  5274			000003		$U1=$U1+1
  5275
  5276
  5277	016572'	000000	014214'		NMUN(\$U1,BPB)^%NUN (,3,BPB)^ BPB3CB^^
  5278			000004		$U1=$U1+1
  5279
  5280
COMMOD - COMMON DATA LOCATIONS USED BY DISK SERVICE	MACRO 12.5-46.0 14:24 13-JAN-88 PAGE 54-3
COMMOD.MAC	20-NOV-87 23:00		Channel DB, SAX DB, unit DB

  5281	016573'	000000	014604'		NMUN(\$U1,BPB)^%NUN (,4,BPB)^ BPB4CB^^
  5282			000005		$U1=$U1+1
  5283
  5284
  5285	016574'	000000	015174'		NMUN(\$U1,BPB)^%NUN (,5,BPB)^ BPB5CB^^
  5286			000006		$U1=$U1+1
  5287
  5288
  5289	016575'	000000	015564'		NMUN(\$U1,BPB)^%NUN (,6,BPB)^ BPB6CB^^
  5290			000007		$U1=$U1+1
  5291
  5292
  5293	016576'	000000	016154'		NMUN(\$U1,BPB)^%NUN (,7,BPB)^ BPB7CB^^
  5294			000010		$U1=$U1+1
  5295				     ; End REPEAT BPBUN
  5296	016577'				BLOCK KONMXU-$U1	;UNIT ADDRESSES
  5297	000043				PHASE %%KONU+KONMXU
  5298				^
  5299	016607'				DEPHASE
  5300
  5301			000002		$BPNUM==$BPNUM+1
  5302				^
  5303			000002			$KCHNN==$KCHNN+1
  5304					    > ; End IFN BPBUN
  5305					    IFE BPBUN,<$BPNUM==$BPNUM+1>
  5306					> ; End IFE $U-$BPNUM
  5307			000002		$U==$U+1
  5308
  5309
  5310				 ; End IRP A,B,C,D,E,F,G,H,I,J,K,L
  5311				^^
  5312				KONTCB (BP)^KONCB1 (BP,<A,B,C,D,E,F,G,H,I,J,K,L>)^
  5313			000000		$U==0
  5314				    IRP
  5315
  5316					IFE $U-$BPNUM,<
  5317					    STOPI
  5318					    IFN BPAUN,<	RADIX 5+5
  5319						PRINT2(\BPAUN,units on BPA)
  5320								RADIX 8
  5321						$KNUNN==0	;UNIT NUMBER IN KON
  5322						REPEAT BPAUN,<
  5323							IFGE $SYUNN-4,<XLIST>;List only the first 4
  5324							IFE  $KNUNN,<LIST>  ;Show first unit on each KON
  5325							IFL  $SYUNN-4,<PAGE>
  5326							BPITCB (BP,A,\$BPNUM)>
  5327									LIST
  5328						NMKNUN(BPA,\$KNUNN)==NMKNUN(BPA,0)
  5329						IFIDN <BP> <FT>,<NMFTDB(A,\$KNUNN)==>
  5330								PAGE
  5331						BPKON(A,\$BPNUM)
  5332						$KCHNN==$KCHNN+1
  5333					    > ; End IFN BPAUN
COMMOD - COMMON DATA LOCATIONS USED BY DISK SERVICE	MACRO 12.5-46.0 14:24 13-JAN-88 PAGE 54-4
COMMOD.MAC	20-NOV-87 23:00		Channel DB, SAX DB, unit DB

  5334					    IFE BPAUN,<$BPNUM==$BPNUM+1>
  5335					> ; End IFE $U-$BPNUM
  5336			000001		$U==$U+1
  5337
  5338
  5339
  5340					IFE $U-$BPNUM,<
  5341					    STOPI
  5342					    IFN BPBUN,<	RADIX 5+5
  5343						PRINT2(\BPBUN,units on BPB)
  5344								RADIX 8
  5345						$KNUNN==0	;UNIT NUMBER IN KON
  5346						REPEAT BPBUN,<
  5347							IFGE $SYUNN-4,<XLIST>;List only the first 4
  5348							IFE  $KNUNN,<LIST>  ;Show first unit on each KON
  5349							IFL  $SYUNN-4,<PAGE>
  5350							BPITCB (BP,B,\$BPNUM)>
  5351									LIST
  5352						NMKNUN(BPB,\$KNUNN)==NMKNUN(BPB,0)
  5353						IFIDN <BP> <FT>,<NMFTDB(B,\$KNUNN)==>
  5354								PAGE
  5355						BPKON(B,\$BPNUM)
  5356						$KCHNN==$KCHNN+1
  5357					    > ; End IFN BPBUN
  5358					    IFE BPBUN,<$BPNUM==$BPNUM+1>
  5359					> ; End IFE $U-$BPNUM
  5360			000002		$U==$U+1
  5361
  5362
  5363
  5364					IFE $U-$BPNUM,<
  5365					    STOPI
  5366					    IFN BPCUN,<	RADIX 5+5
  5367						PRINT2(\BPCUN,units on BPC)^IF2,<PRINTX [16 units on BPC]>^
  5368								RADIX 8
  5369			000000			$KNUNN==0	;UNIT NUMBER IN KON
  5370						REPEAT BPCUN,
  5371
  5372							IFGE $SYUNN-4,<XLIST>;List only the first 4
  5373							IFE  $KNUNN,<LIST>  ;Show first unit on each KON
  5374							IFL  $SYUNN-4,<PAGE>
  5375							BPITCB (BP,C,\$BPNUM)^
  5376					UNITCB(BP,C)^
  5377				%NUN (INTERNAL,\$KNUNN,BPC)^INTERNAL BPC0CB^
  5378				IFNDEF FIRUNI,<FIRUNI:>
  5379	016607'	426043	200000	NMUN(\$KNUNN,BPC)^%NUN (,0,BPC)^ BPC0CB^^:	%SUN(\$KNUNN,BPC)^SIXBIT /BPC0/^
  5380			000000	UNINAM==:0
  5381
  5382
  5383
  5384
  5385	000001				PHASE	1
COMMOD - COMMON DATA LOCATIONS USED BY DISK SERVICE	MACRO 12.5-46.0 14:24 13-JAN-88 PAGE 54-5
COMMOD.MAC	20-NOV-87 23:00		Channel DB, SAX DB, unit DB

  5386	016610'	000000	000000	UNILOG::!0
  5387
  5388
  5389	016611'	000000	000000	UNIHID::!0
  5390
  5391
  5392			016607'	NMSYUN(\$SYUNN)^%SY30^==NMUN(\$KNUNN,BPC)^%NUN (,0,BPC)^ BPC0CB^^
  5393	016612'	017177'	000000	UNISYS::!XWD NMSYUN(\<$SYUNN+1>)^%SY31^,0
  5394
  5395			000003	UNILUN==UNISYS
  5396			000006	  UNSLUN==^D6
  5397			000043	  UNNLUN==^D35
  5398
  5399	016613'	000000	000000	UNISTR::!0	;LH=ADDRESS OF NEXT UNIT DATA BLOCK IN STR
  5400						;LH=0 IN LAST UNIT IN FILE STRUCTURE
  5401						;RH=UPWARD POINTER TO FILE STR. DATA BLOCK.
  5402						;WORD=0 IF THIS UNIT IS NOT IN A STR
  5403
  5404			016607'	NMCHUN(\$CHN,\$CHUNN)^%CH130^==NMUN(\$KNUNN,BPC)^%NUN (,0,BPC)^ BPC0CB^^
  5405	016614'	017177'	032415'	UNICHN::!XWD NMCHUN(\$CHN,\<$CHUNN+1>)^%CH131^,NMCH(\$CHN)^%NCH (,1)^ CHN1CB^^
  5406
  5407
  5408			016607'	NMKNUN(BPC,\$KNUNN)^%BPC0^==NMUN(\$KNUNN,BPC)^%NUN (,0,BPC)^ BPC0CB^^
  5409	016615'	017177'	026407'	UNIKON::!XWD NMKNUN(BPC,\<$KNUNN+1>)^%BPC1^,BPCCB
  5410
  5411
  5412	016616'	000000	000000	UNIFEP::!0
  5413
  5414
  5415
  5416				;ERROR STATISTICS:
  5417	016617'	000000	000000	UNIHCT::!0
  5418
  5419
  5420	016620'	000000	000000	UNISCT::!0
  5421
  5422
  5423
  5424	016621'	000000	000000	UNIMCT::!0
  5425
  5426			000100	  UNPSER==:100
  5427
  5428			010000	  UNPRER==:10000
  5429			000001	  UNPCER==:1
  5430
  5431	016622'	000000	000000	UNIERR::!0
  5432
  5433
  5434
  5435	016623'	000000	000000	UNISOF::!0
  5436	016624'	000000	000000	UNIHBN::!0
  5437
  5438
COMMOD - COMMON DATA LOCATIONS USED BY DISK SERVICE	MACRO 12.5-46.0 14:24 13-JAN-88 PAGE 54-6
COMMOD.MAC	20-NOV-87 23:00		Channel DB, SAX DB, unit DB

  5439
  5440
  5441				;WRITE COUNT MUST BE READ COUNT+1
  5442	016625'	000000	000000	UNIBRC::!0
  5443	016626'	000000	000000	UNIBWC::!0
  5444	016627'	000000	000000	UNIDRC::!0
  5445	016630'	000000	000000	UNIDWC::!0
  5446	016631'	000000	000000	UNIMRC::!0
  5447	016632'	000000	000000	UNIMWC::!0
  5448	016633'	000000	000000	UNIHNG::!0	; NO OF HUNG TIME OUTS WHICH COUNT NOT BE RECOVERED
  5449						;LH HUNG FROM TRANSFER, RH OTHER (POSITION)
  5450
  5451	016634'	000000	000000	UNIICT::!0
  5452	016635'	000000	000000	UNIOCT::!0
  5453
  5454
  5455	016636'	000000	000000	UNIMSC::!0
  5456	016637'	000000	000000	UNIUSC::!0
  5457
  5458
  5459
  5460	016640'	000000	000000		0
  5461	016641'	000000	000000	UNISDI::!0
  5462
  5463	016642'	000000	000000	UNIHDI::!0
  5464
  5465	016643'	000000	000000	UNIECT::!0
  5466
  5467
  5468
  5469
  5470	016644'	000000	000000	UNISBN::!0
  5471	016645'	000000	000000	UNISTS::!0
  5472
  5473
  5474				  ;Here starts descrepency between TYMCOM-X and TOPS-10 "UDB" definitions
  5475	016646'	000000	000000	UNIQUE::!XWD 0,0
  5476
  5477
  5478
  5479
  5480
  5481
  5482
  5483	016647'	000000	000000	UNICDA::!0
  5484	016650'	000000	000000	UNIPPU::!0
  5485	016651'	000000	000000	UNICHR::!0
  5486
  5487			000042	UNIBPR==:UNICHR
  5488			000010	  UNSBPR==^D8
  5489			000011	  UNNBPR==^D9
  5490			000042	UNIBPT==:UNICHR
  5491			000011	  UNSBPT==^D9
COMMOD - COMMON DATA LOCATIONS USED BY DISK SERVICE	MACRO 12.5-46.0 14:24 13-JAN-88 PAGE 54-7
COMMOD.MAC	20-NOV-87 23:00		Channel DB, SAX DB, unit DB

  5492			000021	  UNNBPT==^D17
  5493			000042	UNIBPY==:UNICHR
  5494			000022	  UNSBPY==^D18
  5495			000043	  UNNBPY==^D35
  5496	016652'	000000	000000	UNIWPS::!0
  5497			000011	  UNSWPS==^D9
  5498			000010	  UNNWPS==^D8
  5499			000043	UNISPU==:UNIWPS
  5500			000010	  UNSSPU==^D8
  5501			000021	  UNNSPU==^D17
  5502	016653'	777777	777777	UNICYL::!-1
  5503
  5504
  5505				IFE FTDPAG,<
  5506	016654'	000000	000000	UNIBLK::!0
  5507			000045	UNIONC==:UNIBLK
  5508				>
  5509				IFN FTDPAG,<
  5510				UNIPAG::!0
  5511				UNIONC==:UNIPAG
  5512				>
  5513	016655'	000000	000000	UNISTT::!0
  5514	016656'	000000	000000	UNITAL::!0
  5515
  5516	016657'	000370	104200	UNIDES::!BYTE (10)0(8)%UNSZ(\$SYUNN)^%SIZ30^(3)$CHN(6)TYPBP(3)$BPNUM(2)0(4)$KNUNN
  5517
  5518
  5519
  5520
  5521
  5522
  5523
  5524
  5525
  5526			200000	  UNPOFL==:200000
  5527			100000	  UNPHWP==:100000
  5528
  5529			040000	  UNPCHG==: 40000
  5530
  5531			020000	  UNPPRV==: 20000
  5532
  5533			004000	  UNPFUS==:  4000
  5534			002000	  UNPRRS==:  2000
  5535
  5536			000400	  UNPMSB==:   400
  5537
  5538
  5539
  5540
  5541
  5542
  5543			000050	UNISIZ==:UNIDES
  5544			000010	  UNSSIZ==^D8
COMMOD - COMMON DATA LOCATIONS USED BY DISK SERVICE	MACRO 12.5-46.0 14:24 13-JAN-88 PAGE 54-8
COMMOD.MAC	20-NOV-87 23:00		Channel DB, SAX DB, unit DB

  5545			000021	  UNNSIZ==^D17
  5546
  5547
  5548
  5549
  5550
  5551
  5552
  5553
  5554
  5555
  5556
  5557
  5558
  5559
  5560
  5561			000050	UNISCN==:UNIDES
  5562			000003	  UNSSCN==^D3
  5563			000024	  UNNSCN==^D20
  5564			000050	UNIKTP==:UNIDES
  5565			000006	  UNSKTP==^D6
  5566			000032	  UNNKTP==^D26
  5567				;*; TYPDR==0
  5568			000000	    TYPFT==0
  5569			000001	    TYPFH==1
  5570			000002	    TYPDP==2
  5571			000003	    TYPMD==3
  5572			000004	    TYPBP==4
  5573			000005	    TYPRM==5
  5574			000006	    TYPAP==6
  5575
  5576
  5577			000050	UNIKNM==:UNIDES
  5578			000003	  UNSKNM==^D3
  5579			000035	  UNNKNM==^D29
  5580			000050	UNIUTP==:UNIDES
  5581			000002	  UNSUTP==^D2
  5582			000037	  UNNUTP==^D31
  5583
  5584
  5585
  5586
  5587
  5588
  5589
  5590
  5591
  5592
  5593
  5594
  5595
  5596
  5597
COMMOD - COMMON DATA LOCATIONS USED BY DISK SERVICE	MACRO 12.5-46.0 14:24 13-JAN-88 PAGE 54-9
COMMOD.MAC	20-NOV-87 23:00		Channel DB, SAX DB, unit DB

  5598
  5599
  5600
  5601			000020	  UNPUTP==:20
  5602			000050	UNIPUN==:UNIDES
  5603			000004	  UNSPUN==^D4
  5604			000043	  UNNPUN==^D35
  5605	016660'	000000	000000		0	; Place holder for obsolete entry (for SYSTAT and ERRCHK)
  5606	016661'	000000	000000		0	;   "	  "	"	"	"
  5607	016662'	000000	000000	UNIRCT::!0
  5608			000053	UNIRTY==UNIRCT
  5609			000011	 UNSRTY==^D9
  5610			000043	 UNNRTY==^D35	;POSITION OF FIELD
  5611			000053	UNIRCL==UNIRCT
  5612			000011	 UNSRCL==^D9
  5613			000032	 UNNRCL==^D26
  5614			000053	UNIRRT==UNIRCT
  5615			000011	 UNSRRT==^D9
  5616			000021	 UNNRRT==^D17
  5617
  5618			001000	 UNPDEV==:1000
  5619
  5620	016663'	000000	000000	UNIFCT::!0
  5621	016664'	000000	000000	UNIDIR::!0
  5622
  5623			000055	UNITIM==UNIDIR
  5624			000006	 UNSTIM==6
  5625			000006	 UNNTIM==6
  5626			000055	UNIPAC==UNIDIR
  5627			000015	 UNSPAC==^D13
  5628			000023	 UNNPAC==^D19
  5629			000055	UNIPGL==UNIDIR
  5630			000015	 UNSPGL==^D13
  5631			000040	 UNNPGL==^D32
  5632			000055	UNIPPL==UNIDIR
  5633			000002	 UNSPPL==2
  5634			000042	 UNNPPL==^D34
  5635
  5636
  5637	016665'	000000	000000	UNIRC1::!0
  5638			000056	 UNIOCV==:UNIRC1
  5639			000011	  UNSOCV==^D9
  5640			000043	  UNNOCV==^D35
  5641			000056	 UNIRTO==:UNIRC1
  5642			000011	  UNSRTO==^D9
  5643			000032	  UNNRTO==^D26
  5644			000056	 UNIRCO==:UNIRC1
  5645			000011	  UNSRCO==^D9
  5646			000021	  UNNRCO==^D17
  5647			000056	 UNIOS==:UNIRC1
  5648			000001	  UNSOS==^D1
  5649			000007	  UNNOS==^D7
  5650
COMMOD - COMMON DATA LOCATIONS USED BY DISK SERVICE	MACRO 12.5-46.0 14:24 13-JAN-88 PAGE 54-10
COMMOD.MAC	20-NOV-87 23:00		Channel DB, SAX DB, unit DB

  5651			000031		$SYUNN==$SYUNN+1
  5652			000001		$KNUNN==$KNUNN+1
  5653			000031		$CHUNN==$CHUNN+1
  5654				^
  5655	016666'	000000	000000	UNISWC::!0	;SAVE WORD COUNT FOR THIS OPERATION
  5656	016667'	000000	000000	UNICNA::!0	;CONTINUE ADDRESS FOR LARGE TRANSFERS
  5657	016670'	000000	000000	UNICNC::!0	;CONTINUE COUNT
  5658	016671'	000000	000000	UNICCC::!0	;CURRENT COUNT IF TRANSFER BROKEN
  5659	016672'	164023	400000	UNISNS::!BYTE (8) 72,4,$KNUNN+BPC-1	;SENSE COMMAND
  5660	016673'	000000	000000*		BYTE (12) -^D24 (24) UNISND+NMUN(\<$KNUNN-1>,BPC)^%NUN (,0,BPC)^ BPC0CB^^
  5661	016674'	400000	000000		BYTE (8) 200			;End of command list for SENSE
  5662			000065	UNISSD==:.-1			;Bits 9-35 for set sector data
  5663	000066			UNISND::!BLOCK ^D<24/4>		;READ SENSE INFORMATION HERE
  5664	016703'	000000	000000	UNISNC::!0	;NUMBER OF SENSES DONE
  5665	016704'	000000	000000	UNISVC::!0	;SAVE COUNT HERE ON SENSE
  5666	016705'	000000	000000	UNISCM::!0	;SAVE COMMAND HERE ON SENSE
  5667	016706'	000000	000000	UNIACT::!0	;SAVE CHANNEL ACTIVE COUNT FOR HUNG
  5668	016707'	777512	016710'	UNICOM::!-BPCMSZ,,.+1+NMUN(\<$KNUNN-1>,BPC)^%NUN (,0,BPC)^ BPC0CB^^
  5669	000101				BLOCK BPCMSZ		;Command list goes here
  5670
  5671			000000		OLV==0
  5672				IFIDN <C>,<A>,<IFN BPCUN,<OLV==NMUN(\<$KNUNN-1>,BPC)+UNISTS>>
  5673				IFIDN <C>,<B>,<IFN BPDUN,<OLV==NMUN(\<$KNUNN-1>,BPD)+UNISTS>>
  5674			003037'	IFIDN <C>,<C>,<IFN BPAUN,<OLV==NMUN(\<$KNUNN-1>,BPA)^%NUN (,0,BPA)^ BPA0CB^^+UNISTS>>
  5675				IFIDN <C>,<D>,<IFN BPBUN,<OLV==NMUN(\<$KNUNN-1>,BPB)+UNISTS>>
  5676	017176'	000000	003037'	UNIOLV::!XWD ZERO18,OLV	;Pointer to other logical volume of 3652 disk
  5677			000370		%UNSZ(\<$SYUNN-1>)^%SIZ30^==.
  5678	017177'				DEPHASE
  5679					LIST
  5680				^
  5681
  5682							IFGE $SYUNN-4,<XLIST>;List only the first 4
  5683					LIST
  5684				^
  5685
  5686							IFGE $SYUNN-4,<XLIST>;List only the first 4
  5687					LIST
  5688				^
  5689
  5690							IFGE $SYUNN-4,<XLIST>;List only the first 4
  5691					LIST
  5692				^
  5693
  5694							IFGE $SYUNN-4,<XLIST>;List only the first 4
  5695					LIST
  5696				^
  5697
  5698							IFGE $SYUNN-4,<XLIST>;List only the first 4
  5699					LIST
  5700				^
  5701
  5702							IFGE $SYUNN-4,<XLIST>;List only the first 4
  5703					LIST
COMMOD - COMMON DATA LOCATIONS USED BY DISK SERVICE	MACRO 12.5-46.0 14:24 13-JAN-88 PAGE 54-11
COMMOD.MAC	20-NOV-87 23:00		Channel DB, SAX DB, unit DB

  5704				^
  5705
  5706							IFGE $SYUNN-4,<XLIST>;List only the first 4
  5707					LIST
  5708				^
  5709
  5710							IFGE $SYUNN-4,<XLIST>;List only the first 4
  5711					LIST
  5712				^
  5713
  5714							IFGE $SYUNN-4,<XLIST>;List only the first 4
  5715					LIST
  5716				^
  5717
  5718							IFGE $SYUNN-4,<XLIST>;List only the first 4
  5719					LIST
  5720				^
  5721
  5722							IFGE $SYUNN-4,<XLIST>;List only the first 4
  5723					LIST
  5724				^
  5725
  5726							IFGE $SYUNN-4,<XLIST>;List only the first 4
  5727					LIST
  5728				^
  5729
  5730							IFGE $SYUNN-4,<XLIST>;List only the first 4
  5731					LIST
  5732				^
  5733
  5734							IFGE $SYUNN-4,<XLIST>;List only the first 4
  5735					LIST
  5736				^
  5737
  5738							IFGE $SYUNN-4,<XLIST>;List only the first 4
  5739					LIST
  5740				^
  5741									LIST
  5742			016607'			NMKNUN(BPC,\$KNUNN)^%BPC20^==NMKNUN(BPC,0)^%BPC0^
  5743						IFIDN <BP> <FT>,<NMFTDB(C,\$KNUNN)==>
  5744								PAGE
COMMOD - COMMON DATA LOCATIONS USED BY DISK SERVICE	MACRO 12.5-46.0 14:24 13-JAN-88 PAGE 55
COMMOD.MAC	20-NOV-87 23:00		Channel DB, SAX DB, unit DB

  5745						BPKON(C,\$BPNUM)^
  5746			000000		BPFIX==0
  5747			400000		BPCHN==400000
  5748			000020		KONMXU==BPCMX
  5749					KONKON(BP,C,0)^
  5750
  5751	000000			BPCCB::	PHASE	0
  5752
  5753
  5754
  5755
  5756
  5757			026407'	NMKCN(\$CHN,\$KCHNN)^%CK12^==BPCCB
  5758
  5759
  5760
  5761
  5762
  5763				IFDIF <BP> <FT>,<
  5764				    EXTERN BPXRED,BPXWRT,BPXADD
  5765				    EXTERN BPXFIN,BPXPOS,BPXLTM,BPXUPA,BPXCPY
  5766				    EXTERN BPXRCL,BPXSTP,BPXOFS,BPXHRD,BPXSFT
  5767				> ; End IFDIF <BP> <FT>
  5768
  5769				IFIDN <BP> <FT>,<
  5770					BPXRED==0
  5771					BPXWRT==0
  5772					BPXADD==0
  5773					BPXFIN==0
  5774					BPXPOS==0
  5775					BPXLTM==0
  5776					BPXUPA==0
  5777					BPXCPY==0
  5778					BPXRCL==0
  5779					BPXSTP==0
  5780					BPXOFS==0
  5781					BPXHRD==0
  5782					BPXSFT==0
  5783				> ; End IFIDN <BP> <FT>
  5784
  5785	026407'	000000	016544*	KONRED::!XWD 0_^D15,BPXRED
  5786			000000	KOBPI==KONRED
  5787			000003	  KOSPI==^D3
  5788			000002	  KONPI==^D2
  5789	026410'	000000	016545*	KONWRT::!XWD ZERO5,BPXWRT
  5790	026411'	000000	016546*	KONADD::!XWD ZERO5,BPXADD
  5791	026412'	000000	016547*	KONFIN::!XWD ZERO5,BPXFIN
  5792	026413'	000000	016550*	KONPOS::!XWD BPFIX!ZERO5,BPXPOS
  5793	026414'	400000	016551*	KONLTM::!XWD BPCHN,BPXLTM
  5794			000005	KONIBM==:<KONRBL==:KONLTM>
  5795	026415'	000000	016552*	KONUPA::!XWD ZERO5,BPXUPA
  5796			000006	KONDWN==:KONUPA
  5797			400000	  KOPDWN==:400000
COMMOD - COMMON DATA LOCATIONS USED BY DISK SERVICE	MACRO 12.5-46.0 14:24 13-JAN-88 PAGE 55-2
COMMOD.MAC	20-NOV-87 23:00		Channel DB, SAX DB, unit DB

  5798
  5799
  5800
  5801
  5802	026416'	000000	016553*	KONCPY::!XWD ZERO5,BPXCPY
  5803	026417'	000000	016554*	KONRCL::!XWD ZERO18,BPXRCL
  5804
  5805
  5806	026420'	000000	016555*	KONSTP::!XWD ZERO5,BPXSTP
  5807
  5808	026421'	000000	016556*	KONOFS::!XWD ZERO5,BPXOFS
  5809	026422'	000000	016557*	KONHRD::!XWD ZERO5,BPXHRD
  5810	026423'	000000	016560*	KONSFT::!XWD ZERO5,BPXSFT
  5811			000014	KONLEN==KONSFT-KONRED
  5812	026424'	032352'	032415'	KONCHN::!XWD NMKCN(\$CHN,\<$KCHNN+1>)^%CK13^,NMCH(\$CHN)^%NCH (,1)^ CHN1CB^^
  5813
  5814	026425'	000016	026432'	KONPTR::!XWD ZERO5,BPCCU(P3)
  5815
  5816
  5817				^
  5818					KONSAX(BP,C,2)^
  5819	026426'	032465'	000340	KONBSU::! XWD NMSCH(\$SAXN,\$SAXCN)^SC01CB^+CHNBMX+$SAXUN,BPC
  5820			000017	KONBMX==:KONBSU	;L.H. POINTER TO BLOCK MULTIPLEX AREA FOR KON
  5821						;R.H. BASE UNIT ADDRESS
  5822	026427'	000000	000360	KONUMX:!  BPC+KONMXU
  5823	026430'	000000	016565*	KONSNT::! BPXINT	;POINTER TO INTERUPT ROUTINE
  5824			000060		$SAXUN==$SAXUN+KONMXU
  5825				    EXTERNAL BPXINT
  5826				^
  5827	026431'	000000	000000	BPXCUB::! 0		;KONTROL UNIT BUSY BITS
  5828					KONUNL (BP,C)^
  5829			000023		%%KONUS==.
  5830	026432'				DEPHASE
  5831	026432'			BPCCU:
  5832			000000		$U1==0
  5833				    REPEAT BPCUN,
  5834
  5835	026432'	000000	016607'		NMUN(\$U1,BPC)^%NUN (,0,BPC)^ BPC0CB^^
  5836			000001		$U1=$U1+1
  5837
  5838
  5839	026433'	000000	017177'		NMUN(\$U1,BPC)^%NUN (,1,BPC)^ BPC1CB^^
  5840			000002		$U1=$U1+1
  5841
  5842
  5843	026434'	000000	017567'		NMUN(\$U1,BPC)^%NUN (,2,BPC)^ BPC2CB^^
  5844			000003		$U1=$U1+1
  5845
  5846
  5847	026435'	000000	020157'		NMUN(\$U1,BPC)^%NUN (,3,BPC)^ BPC3CB^^
  5848			000004		$U1=$U1+1
  5849
  5850
COMMOD - COMMON DATA LOCATIONS USED BY DISK SERVICE	MACRO 12.5-46.0 14:24 13-JAN-88 PAGE 55-3
COMMOD.MAC	20-NOV-87 23:00		Channel DB, SAX DB, unit DB

  5851	026436'	000000	020547'		NMUN(\$U1,BPC)^%NUN (,4,BPC)^ BPC4CB^^
  5852			000005		$U1=$U1+1
  5853
  5854
  5855	026437'	000000	021137'		NMUN(\$U1,BPC)^%NUN (,5,BPC)^ BPC5CB^^
  5856			000006		$U1=$U1+1
  5857
  5858
  5859	026440'	000000	021527'		NMUN(\$U1,BPC)^%NUN (,6,BPC)^ BPC6CB^^
  5860			000007		$U1=$U1+1
  5861
  5862
  5863	026441'	000000	022117'		NMUN(\$U1,BPC)^%NUN (,7,BPC)^ BPC7CB^^
  5864			000010		$U1=$U1+1
  5865
  5866
  5867	026442'	000000	022507'		NMUN(\$U1,BPC)^%NUN (,10,BPC)^ BPC10CB^^
  5868			000011		$U1=$U1+1
  5869
  5870
  5871	026443'	000000	023077'		NMUN(\$U1,BPC)^%NUN (,11,BPC)^ BPC11CB^^
  5872			000012		$U1=$U1+1
  5873
  5874
  5875	026444'	000000	023467'		NMUN(\$U1,BPC)^%NUN (,12,BPC)^ BPC12CB^^
  5876			000013		$U1=$U1+1
  5877
  5878
  5879	026445'	000000	024057'		NMUN(\$U1,BPC)^%NUN (,13,BPC)^ BPC13CB^^
  5880			000014		$U1=$U1+1
  5881
  5882
  5883	026446'	000000	024447'		NMUN(\$U1,BPC)^%NUN (,14,BPC)^ BPC14CB^^
  5884			000015		$U1=$U1+1
  5885
  5886
  5887	026447'	000000	025037'		NMUN(\$U1,BPC)^%NUN (,15,BPC)^ BPC15CB^^
  5888			000016		$U1=$U1+1
  5889
  5890
  5891	026450'	000000	025427'		NMUN(\$U1,BPC)^%NUN (,16,BPC)^ BPC16CB^^
  5892			000017		$U1=$U1+1
  5893
  5894
  5895	026451'	000000	026017'		NMUN(\$U1,BPC)^%NUN (,17,BPC)^ BPC17CB^^
  5896			000020		$U1=$U1+1
  5897				     ; End REPEAT BPCUN
  5898	026452'				BLOCK KONMXU-$U1	;UNIT ADDRESSES
  5899	000043				PHASE %%KONU+KONMXU
  5900				^
  5901	026452'				DEPHASE
  5902
  5903			000003		$BPNUM==$BPNUM+1
COMMOD - COMMON DATA LOCATIONS USED BY DISK SERVICE	MACRO 12.5-46.0 14:24 13-JAN-88 PAGE 55-4
COMMOD.MAC	20-NOV-87 23:00		Channel DB, SAX DB, unit DB

  5904				^
  5905			000003			$KCHNN==$KCHNN+1
  5906					    > ; End IFN BPCUN
  5907					    IFE BPCUN,<$BPNUM==$BPNUM+1>
  5908					> ; End IFE $U-$BPNUM
  5909			000003		$U==$U+1
  5910
  5911
  5912				 ; End IRP A,B,C,D,E,F,G,H,I,J,K,L
  5913				^^
  5914				KONTCB (BP)^KONCB1 (BP,<A,B,C,D,E,F,G,H,I,J,K,L>)^
  5915			000000		$U==0
  5916				    IRP
  5917
  5918					IFE $U-$BPNUM,<
  5919					    STOPI
  5920					    IFN BPAUN,<	RADIX 5+5
  5921						PRINT2(\BPAUN,units on BPA)
  5922								RADIX 8
  5923						$KNUNN==0	;UNIT NUMBER IN KON
  5924						REPEAT BPAUN,<
  5925							IFGE $SYUNN-4,<XLIST>;List only the first 4
  5926							IFE  $KNUNN,<LIST>  ;Show first unit on each KON
  5927							IFL  $SYUNN-4,<PAGE>
  5928							BPITCB (BP,A,\$BPNUM)>
  5929									LIST
  5930						NMKNUN(BPA,\$KNUNN)==NMKNUN(BPA,0)
  5931						IFIDN <BP> <FT>,<NMFTDB(A,\$KNUNN)==>
  5932								PAGE
  5933						BPKON(A,\$BPNUM)
  5934						$KCHNN==$KCHNN+1
  5935					    > ; End IFN BPAUN
  5936					    IFE BPAUN,<$BPNUM==$BPNUM+1>
  5937					> ; End IFE $U-$BPNUM
  5938			000001		$U==$U+1
  5939
  5940
  5941
  5942					IFE $U-$BPNUM,<
  5943					    STOPI
  5944					    IFN BPBUN,<	RADIX 5+5
  5945						PRINT2(\BPBUN,units on BPB)
  5946								RADIX 8
  5947						$KNUNN==0	;UNIT NUMBER IN KON
  5948						REPEAT BPBUN,<
  5949							IFGE $SYUNN-4,<XLIST>;List only the first 4
  5950							IFE  $KNUNN,<LIST>  ;Show first unit on each KON
  5951							IFL  $SYUNN-4,<PAGE>
  5952							BPITCB (BP,B,\$BPNUM)>
  5953									LIST
  5954						NMKNUN(BPB,\$KNUNN)==NMKNUN(BPB,0)
  5955						IFIDN <BP> <FT>,<NMFTDB(B,\$KNUNN)==>
  5956								PAGE
COMMOD - COMMON DATA LOCATIONS USED BY DISK SERVICE	MACRO 12.5-46.0 14:24 13-JAN-88 PAGE 55-5
COMMOD.MAC	20-NOV-87 23:00		Channel DB, SAX DB, unit DB

  5957						BPKON(B,\$BPNUM)
  5958						$KCHNN==$KCHNN+1
  5959					    > ; End IFN BPBUN
  5960					    IFE BPBUN,<$BPNUM==$BPNUM+1>
  5961					> ; End IFE $U-$BPNUM
  5962			000002		$U==$U+1
  5963
  5964
  5965
  5966					IFE $U-$BPNUM,<
  5967					    STOPI
  5968					    IFN BPCUN,<	RADIX 5+5
  5969						PRINT2(\BPCUN,units on BPC)
  5970								RADIX 8
  5971						$KNUNN==0	;UNIT NUMBER IN KON
  5972						REPEAT BPCUN,<
  5973							IFGE $SYUNN-4,<XLIST>;List only the first 4
  5974							IFE  $KNUNN,<LIST>  ;Show first unit on each KON
  5975							IFL  $SYUNN-4,<PAGE>
  5976							BPITCB (BP,C,\$BPNUM)>
  5977									LIST
  5978						NMKNUN(BPC,\$KNUNN)==NMKNUN(BPC,0)
  5979						IFIDN <BP> <FT>,<NMFTDB(C,\$KNUNN)==>
  5980								PAGE
  5981						BPKON(C,\$BPNUM)
  5982						$KCHNN==$KCHNN+1
  5983					    > ; End IFN BPCUN
  5984					    IFE BPCUN,<$BPNUM==$BPNUM+1>
  5985					> ; End IFE $U-$BPNUM
  5986			000003		$U==$U+1
  5987
  5988
  5989
  5990					IFE $U-$BPNUM,<
  5991					    STOPI
  5992					    IFN BPDUN,<	RADIX 5+5
  5993						PRINT2(\BPDUN,units on BPD)^IF2,<PRINTX [8 units on BPD]>^
  5994								RADIX 8
  5995			000000			$KNUNN==0	;UNIT NUMBER IN KON
  5996						REPEAT BPDUN,
  5997
  5998							IFGE $SYUNN-4,<XLIST>;List only the first 4
  5999							IFE  $KNUNN,<LIST>  ;Show first unit on each KON
  6000							IFL  $SYUNN-4,<PAGE>
  6001							BPITCB (BP,D,\$BPNUM)^
  6002					UNITCB(BP,D)^
  6003				%NUN (INTERNAL,\$KNUNN,BPD)^INTERNAL BPD0CB^
  6004				IFNDEF FIRUNI,<FIRUNI:>
  6005	026452'	426044	200000	NMUN(\$KNUNN,BPD)^%NUN (,0,BPD)^ BPD0CB^^:	%SUN(\$KNUNN,BPD)^SIXBIT /BPD0/^
  6006			000000	UNINAM==:0
  6007
  6008
COMMOD - COMMON DATA LOCATIONS USED BY DISK SERVICE	MACRO 12.5-46.0 14:24 13-JAN-88 PAGE 55-6
COMMOD.MAC	20-NOV-87 23:00		Channel DB, SAX DB, unit DB

  6009
  6010
  6011	000001				PHASE	1
  6012	026453'	000000	000000	UNILOG::!0
  6013
  6014
  6015	026454'	000000	000000	UNIHID::!0
  6016
  6017
  6018			026452'	NMSYUN(\$SYUNN)^%SY50^==NMUN(\$KNUNN,BPD)^%NUN (,0,BPD)^ BPD0CB^^
  6019	026455'	027042'	000000	UNISYS::!XWD NMSYUN(\<$SYUNN+1>)^%SY51^,0
  6020
  6021			000003	UNILUN==UNISYS
  6022			000006	  UNSLUN==^D6
  6023			000043	  UNNLUN==^D35
  6024
  6025	026456'	000000	000000	UNISTR::!0	;LH=ADDRESS OF NEXT UNIT DATA BLOCK IN STR
  6026						;LH=0 IN LAST UNIT IN FILE STRUCTURE
  6027						;RH=UPWARD POINTER TO FILE STR. DATA BLOCK.
  6028						;WORD=0 IF THIS UNIT IS NOT IN A STR
  6029
  6030			026452'	NMCHUN(\$CHN,\$CHUNN)^%CH150^==NMUN(\$KNUNN,BPD)^%NUN (,0,BPD)^ BPD0CB^^
  6031	026457'	027042'	032415'	UNICHN::!XWD NMCHUN(\$CHN,\<$CHUNN+1>)^%CH151^,NMCH(\$CHN)^%NCH (,1)^ CHN1CB^^
  6032
  6033
  6034			026452'	NMKNUN(BPD,\$KNUNN)^%BPD0^==NMUN(\$KNUNN,BPD)^%NUN (,0,BPD)^ BPD0CB^^
  6035	026460'	027042'	032352'	UNIKON::!XWD NMKNUN(BPD,\<$KNUNN+1>)^%BPD1^,BPDCB
  6036
  6037
  6038	026461'	000000	000000	UNIFEP::!0
  6039
  6040
  6041
  6042				;ERROR STATISTICS:
  6043	026462'	000000	000000	UNIHCT::!0
  6044
  6045
  6046	026463'	000000	000000	UNISCT::!0
  6047
  6048
  6049
  6050	026464'	000000	000000	UNIMCT::!0
  6051
  6052			000100	  UNPSER==:100
  6053
  6054			010000	  UNPRER==:10000
  6055			000001	  UNPCER==:1
  6056
  6057	026465'	000000	000000	UNIERR::!0
  6058
  6059
  6060
  6061	026466'	000000	000000	UNISOF::!0
COMMOD - COMMON DATA LOCATIONS USED BY DISK SERVICE	MACRO 12.5-46.0 14:24 13-JAN-88 PAGE 55-7
COMMOD.MAC	20-NOV-87 23:00		Channel DB, SAX DB, unit DB

  6062	026467'	000000	000000	UNIHBN::!0
  6063
  6064
  6065
  6066
  6067				;WRITE COUNT MUST BE READ COUNT+1
  6068	026470'	000000	000000	UNIBRC::!0
  6069	026471'	000000	000000	UNIBWC::!0
  6070	026472'	000000	000000	UNIDRC::!0
  6071	026473'	000000	000000	UNIDWC::!0
  6072	026474'	000000	000000	UNIMRC::!0
  6073	026475'	000000	000000	UNIMWC::!0
  6074	026476'	000000	000000	UNIHNG::!0	; NO OF HUNG TIME OUTS WHICH COUNT NOT BE RECOVERED
  6075						;LH HUNG FROM TRANSFER, RH OTHER (POSITION)
  6076
  6077	026477'	000000	000000	UNIICT::!0
  6078	026500'	000000	000000	UNIOCT::!0
  6079
  6080
  6081	026501'	000000	000000	UNIMSC::!0
  6082	026502'	000000	000000	UNIUSC::!0
  6083
  6084
  6085
  6086	026503'	000000	000000		0
  6087	026504'	000000	000000	UNISDI::!0
  6088
  6089	026505'	000000	000000	UNIHDI::!0
  6090
  6091	026506'	000000	000000	UNIECT::!0
  6092
  6093
  6094
  6095
  6096	026507'	000000	000000	UNISBN::!0
  6097	026510'	000000	000000	UNISTS::!0
  6098
  6099
  6100				  ;Here starts descrepency between TYMCOM-X and TOPS-10 "UDB" definitions
  6101	026511'	000000	000000	UNIQUE::!XWD 0,0
  6102
  6103
  6104
  6105
  6106
  6107
  6108
  6109	026512'	000000	000000	UNICDA::!0
  6110	026513'	000000	000000	UNIPPU::!0
  6111	026514'	000000	000000	UNICHR::!0
  6112
  6113			000042	UNIBPR==:UNICHR
  6114			000010	  UNSBPR==^D8
COMMOD - COMMON DATA LOCATIONS USED BY DISK SERVICE	MACRO 12.5-46.0 14:24 13-JAN-88 PAGE 55-8
COMMOD.MAC	20-NOV-87 23:00		Channel DB, SAX DB, unit DB

  6115			000011	  UNNBPR==^D9
  6116			000042	UNIBPT==:UNICHR
  6117			000011	  UNSBPT==^D9
  6118			000021	  UNNBPT==^D17
  6119			000042	UNIBPY==:UNICHR
  6120			000022	  UNSBPY==^D18
  6121			000043	  UNNBPY==^D35
  6122	026515'	000000	000000	UNIWPS::!0
  6123			000011	  UNSWPS==^D9
  6124			000010	  UNNWPS==^D8
  6125			000043	UNISPU==:UNIWPS
  6126			000010	  UNSSPU==^D8
  6127			000021	  UNNSPU==^D17
  6128	026516'	777777	777777	UNICYL::!-1
  6129
  6130
  6131				IFE FTDPAG,<
  6132	026517'	000000	000000	UNIBLK::!0
  6133			000045	UNIONC==:UNIBLK
  6134				>
  6135				IFN FTDPAG,<
  6136				UNIPAG::!0
  6137				UNIONC==:UNIPAG
  6138				>
  6139	026520'	000000	000000	UNISTT::!0
  6140	026521'	000000	000000	UNITAL::!0
  6141
  6142	026522'	000370	104300	UNIDES::!BYTE (10)0(8)%UNSZ(\$SYUNN)^%SIZ50^(3)$CHN(6)TYPBP(3)$BPNUM(2)0(4)$KNUNN
  6143
  6144
  6145
  6146
  6147
  6148
  6149
  6150
  6151
  6152			200000	  UNPOFL==:200000
  6153			100000	  UNPHWP==:100000
  6154
  6155			040000	  UNPCHG==: 40000
  6156
  6157			020000	  UNPPRV==: 20000
  6158
  6159			004000	  UNPFUS==:  4000
  6160			002000	  UNPRRS==:  2000
  6161
  6162			000400	  UNPMSB==:   400
  6163
  6164
  6165
  6166
  6167
COMMOD - COMMON DATA LOCATIONS USED BY DISK SERVICE	MACRO 12.5-46.0 14:24 13-JAN-88 PAGE 55-9
COMMOD.MAC	20-NOV-87 23:00		Channel DB, SAX DB, unit DB

  6168
  6169			000050	UNISIZ==:UNIDES
  6170			000010	  UNSSIZ==^D8
  6171			000021	  UNNSIZ==^D17
  6172
  6173
  6174
  6175
  6176
  6177
  6178
  6179
  6180
  6181
  6182
  6183
  6184
  6185
  6186
  6187			000050	UNISCN==:UNIDES
  6188			000003	  UNSSCN==^D3
  6189			000024	  UNNSCN==^D20
  6190			000050	UNIKTP==:UNIDES
  6191			000006	  UNSKTP==^D6
  6192			000032	  UNNKTP==^D26
  6193				;*; TYPDR==0
  6194			000000	    TYPFT==0
  6195			000001	    TYPFH==1
  6196			000002	    TYPDP==2
  6197			000003	    TYPMD==3
  6198			000004	    TYPBP==4
  6199			000005	    TYPRM==5
  6200			000006	    TYPAP==6
  6201
  6202
  6203			000050	UNIKNM==:UNIDES
  6204			000003	  UNSKNM==^D3
  6205			000035	  UNNKNM==^D29
  6206			000050	UNIUTP==:UNIDES
  6207			000002	  UNSUTP==^D2
  6208			000037	  UNNUTP==^D31
  6209
  6210
  6211
  6212
  6213
  6214
  6215
  6216
  6217
  6218
  6219
  6220
COMMOD - COMMON DATA LOCATIONS USED BY DISK SERVICE	MACRO 12.5-46.0 14:24 13-JAN-88 PAGE 55-10
COMMOD.MAC	20-NOV-87 23:00		Channel DB, SAX DB, unit DB

  6221
  6222
  6223
  6224
  6225
  6226
  6227			000020	  UNPUTP==:20
  6228			000050	UNIPUN==:UNIDES
  6229			000004	  UNSPUN==^D4
  6230			000043	  UNNPUN==^D35
  6231	026523'	000000	000000		0	; Place holder for obsolete entry (for SYSTAT and ERRCHK)
  6232	026524'	000000	000000		0	;   "	  "	"	"	"
  6233	026525'	000000	000000	UNIRCT::!0
  6234			000053	UNIRTY==UNIRCT
  6235			000011	 UNSRTY==^D9
  6236			000043	 UNNRTY==^D35	;POSITION OF FIELD
  6237			000053	UNIRCL==UNIRCT
  6238			000011	 UNSRCL==^D9
  6239			000032	 UNNRCL==^D26
  6240			000053	UNIRRT==UNIRCT
  6241			000011	 UNSRRT==^D9
  6242			000021	 UNNRRT==^D17
  6243
  6244			001000	 UNPDEV==:1000
  6245
  6246	026526'	000000	000000	UNIFCT::!0
  6247	026527'	000000	000000	UNIDIR::!0
  6248
  6249			000055	UNITIM==UNIDIR
  6250			000006	 UNSTIM==6
  6251			000006	 UNNTIM==6
  6252			000055	UNIPAC==UNIDIR
  6253			000015	 UNSPAC==^D13
  6254			000023	 UNNPAC==^D19
  6255			000055	UNIPGL==UNIDIR
  6256			000015	 UNSPGL==^D13
  6257			000040	 UNNPGL==^D32
  6258			000055	UNIPPL==UNIDIR
  6259			000002	 UNSPPL==2
  6260			000042	 UNNPPL==^D34
  6261
  6262
  6263	026530'	000000	000000	UNIRC1::!0
  6264			000056	 UNIOCV==:UNIRC1
  6265			000011	  UNSOCV==^D9
  6266			000043	  UNNOCV==^D35
  6267			000056	 UNIRTO==:UNIRC1
  6268			000011	  UNSRTO==^D9
  6269			000032	  UNNRTO==^D26
  6270			000056	 UNIRCO==:UNIRC1
  6271			000011	  UNSRCO==^D9
  6272			000021	  UNNRCO==^D17
  6273			000056	 UNIOS==:UNIRC1
COMMOD - COMMON DATA LOCATIONS USED BY DISK SERVICE	MACRO 12.5-46.0 14:24 13-JAN-88 PAGE 55-11
COMMOD.MAC	20-NOV-87 23:00		Channel DB, SAX DB, unit DB

  6274			000001	  UNSOS==^D1
  6275			000007	  UNNOS==^D7
  6276
  6277			000051		$SYUNN==$SYUNN+1
  6278			000001		$KNUNN==$KNUNN+1
  6279			000051		$CHUNN==$CHUNN+1
  6280				^
  6281	026531'	000000	000000	UNISWC::!0	;SAVE WORD COUNT FOR THIS OPERATION
  6282	026532'	000000	000000	UNICNA::!0	;CONTINUE ADDRESS FOR LARGE TRANSFERS
  6283	026533'	000000	000000	UNICNC::!0	;CONTINUE COUNT
  6284	026534'	000000	000000	UNICCC::!0	;CURRENT COUNT IF TRANSFER BROKEN
  6285	026535'	164023	600000	UNISNS::!BYTE (8) 72,4,$KNUNN+BPD-1	;SENSE COMMAND
  6286	026536'	000000	000000*		BYTE (12) -^D24 (24) UNISND+NMUN(\<$KNUNN-1>,BPD)^%NUN (,0,BPD)^ BPD0CB^^
  6287	026537'	400000	000000		BYTE (8) 200			;End of command list for SENSE
  6288			000065	UNISSD==:.-1			;Bits 9-35 for set sector data
  6289	000066			UNISND::!BLOCK ^D<24/4>		;READ SENSE INFORMATION HERE
  6290	026546'	000000	000000	UNISNC::!0	;NUMBER OF SENSES DONE
  6291	026547'	000000	000000	UNISVC::!0	;SAVE COUNT HERE ON SENSE
  6292	026550'	000000	000000	UNISCM::!0	;SAVE COMMAND HERE ON SENSE
  6293	026551'	000000	000000	UNIACT::!0	;SAVE CHANNEL ACTIVE COUNT FOR HUNG
  6294	026552'	777512	026553'	UNICOM::!-BPCMSZ,,.+1+NMUN(\<$KNUNN-1>,BPD)^%NUN (,0,BPD)^ BPD0CB^^
  6295	000101				BLOCK BPCMSZ		;Command list goes here
  6296
  6297			000000		OLV==0
  6298				IFIDN <D>,<A>,<IFN BPCUN,<OLV==NMUN(\<$KNUNN-1>,BPC)+UNISTS>>
  6299				IFIDN <D>,<B>,<IFN BPDUN,<OLV==NMUN(\<$KNUNN-1>,BPD)+UNISTS>>
  6300				IFIDN <D>,<C>,<IFN BPAUN,<OLV==NMUN(\<$KNUNN-1>,BPA)+UNISTS>>
  6301			012702'	IFIDN <D>,<D>,<IFN BPBUN,<OLV==NMUN(\<$KNUNN-1>,BPB)^%NUN (,0,BPB)^ BPB0CB^^+UNISTS>>
  6302	027041'	000000	012702'	UNIOLV::!XWD ZERO18,OLV	;Pointer to other logical volume of 3652 disk
  6303			000370		%UNSZ(\<$SYUNN-1>)^%SIZ50^==.
  6304	027042'				DEPHASE
  6305					LIST
  6306				^
  6307
  6308							IFGE $SYUNN-4,<XLIST>;List only the first 4
  6309					LIST
  6310				^
  6311
  6312							IFGE $SYUNN-4,<XLIST>;List only the first 4
  6313					LIST
  6314				^
  6315
  6316							IFGE $SYUNN-4,<XLIST>;List only the first 4
  6317					LIST
  6318				^
  6319
  6320							IFGE $SYUNN-4,<XLIST>;List only the first 4
  6321					LIST
  6322				^
  6323
  6324							IFGE $SYUNN-4,<XLIST>;List only the first 4
  6325					LIST
  6326				^
COMMOD - COMMON DATA LOCATIONS USED BY DISK SERVICE	MACRO 12.5-46.0 14:24 13-JAN-88 PAGE 55-12
COMMOD.MAC	20-NOV-87 23:00		Channel DB, SAX DB, unit DB

  6327
  6328							IFGE $SYUNN-4,<XLIST>;List only the first 4
  6329					LIST
  6330				^
  6331
  6332							IFGE $SYUNN-4,<XLIST>;List only the first 4
  6333					LIST
  6334				^
  6335									LIST
  6336			026452'			NMKNUN(BPD,\$KNUNN)^%BPD10^==NMKNUN(BPD,0)^%BPD0^
  6337						IFIDN <BP> <FT>,<NMFTDB(D,\$KNUNN)==>
  6338								PAGE
COMMOD - COMMON DATA LOCATIONS USED BY DISK SERVICE	MACRO 12.5-46.0 14:24 13-JAN-88 PAGE 56
COMMOD.MAC	20-NOV-87 23:00		Channel DB, SAX DB, unit DB

  6339						BPKON(D,\$BPNUM)^
  6340			000000		BPFIX==0
  6341			400000		BPCHN==400000
  6342			000020		KONMXU==BPDMX
  6343					KONKON(BP,D,0)^
  6344
  6345	000000			BPDCB::	PHASE	0
  6346
  6347
  6348
  6349
  6350
  6351			032352'	NMKCN(\$CHN,\$KCHNN)^%CK13^==BPDCB
  6352
  6353
  6354
  6355
  6356
  6357				IFDIF <BP> <FT>,<
  6358				    EXTERN BPXRED,BPXWRT,BPXADD
  6359				    EXTERN BPXFIN,BPXPOS,BPXLTM,BPXUPA,BPXCPY
  6360				    EXTERN BPXRCL,BPXSTP,BPXOFS,BPXHRD,BPXSFT
  6361				> ; End IFDIF <BP> <FT>
  6362
  6363				IFIDN <BP> <FT>,<
  6364					BPXRED==0
  6365					BPXWRT==0
  6366					BPXADD==0
  6367					BPXFIN==0
  6368					BPXPOS==0
  6369					BPXLTM==0
  6370					BPXUPA==0
  6371					BPXCPY==0
  6372					BPXRCL==0
  6373					BPXSTP==0
  6374					BPXOFS==0
  6375					BPXHRD==0
  6376					BPXSFT==0
  6377				> ; End IFIDN <BP> <FT>
  6378
  6379	032352'	000000	026407*	KONRED::!XWD 0_^D15,BPXRED
  6380			000000	KOBPI==KONRED
  6381			000003	  KOSPI==^D3
  6382			000002	  KONPI==^D2
  6383	032353'	000000	026410*	KONWRT::!XWD ZERO5,BPXWRT
  6384	032354'	000000	026411*	KONADD::!XWD ZERO5,BPXADD
  6385	032355'	000000	026412*	KONFIN::!XWD ZERO5,BPXFIN
  6386	032356'	000000	026413*	KONPOS::!XWD BPFIX!ZERO5,BPXPOS
  6387	032357'	400000	026414*	KONLTM::!XWD BPCHN,BPXLTM
  6388			000005	KONIBM==:<KONRBL==:KONLTM>
  6389	032360'	000000	026415*	KONUPA::!XWD ZERO5,BPXUPA
  6390			000006	KONDWN==:KONUPA
  6391			400000	  KOPDWN==:400000
COMMOD - COMMON DATA LOCATIONS USED BY DISK SERVICE	MACRO 12.5-46.0 14:24 13-JAN-88 PAGE 56-2
COMMOD.MAC	20-NOV-87 23:00		Channel DB, SAX DB, unit DB

  6392
  6393
  6394
  6395
  6396	032361'	000000	026416*	KONCPY::!XWD ZERO5,BPXCPY
  6397	032362'	000000	026417*	KONRCL::!XWD ZERO18,BPXRCL
  6398
  6399
  6400	032363'	000000	026420*	KONSTP::!XWD ZERO5,BPXSTP
  6401
  6402	032364'	000000	026421*	KONOFS::!XWD ZERO5,BPXOFS
  6403	032365'	000000	026422*	KONHRD::!XWD ZERO5,BPXHRD
  6404	032366'	000000	026423*	KONSFT::!XWD ZERO5,BPXSFT
  6405			000014	KONLEN==KONSFT-KONRED
  6406	032367'	000000	032415'	KONCHN::!XWD NMKCN(\$CHN,\<$KCHNN+1>)^%CK14^,NMCH(\$CHN)^%NCH (,1)^ CHN1CB^^
  6407
  6408	032370'	000016	032375'	KONPTR::!XWD ZERO5,BPDCU(P3)
  6409
  6410
  6411				^
  6412					KONSAX(BP,D,3)^
  6413	032371'	032505'	000360	KONBSU::! XWD NMSCH(\$SAXN,\$SAXCN)^SC01CB^+CHNBMX+$SAXUN,BPD
  6414			000017	KONBMX==:KONBSU	;L.H. POINTER TO BLOCK MULTIPLEX AREA FOR KON
  6415						;R.H. BASE UNIT ADDRESS
  6416	032372'	000000	000400	KONUMX:!  BPD+KONMXU
  6417	032373'	000000	026430*	KONSNT::! BPXINT	;POINTER TO INTERUPT ROUTINE
  6418			000100		$SAXUN==$SAXUN+KONMXU
  6419				    EXTERNAL BPXINT
  6420				^
  6421	032374'	000000	000000	BPXCUB::! 0		;KONTROL UNIT BUSY BITS
  6422					KONUNL (BP,D)^
  6423			000023		%%KONUS==.
  6424	032375'				DEPHASE
  6425	032375'			BPDCU:
  6426			000000		$U1==0
  6427				    REPEAT BPDUN,
  6428
  6429	032375'	000000	026452'		NMUN(\$U1,BPD)^%NUN (,0,BPD)^ BPD0CB^^
  6430			000001		$U1=$U1+1
  6431
  6432
  6433	032376'	000000	027042'		NMUN(\$U1,BPD)^%NUN (,1,BPD)^ BPD1CB^^
  6434			000002		$U1=$U1+1
  6435
  6436
  6437	032377'	000000	027432'		NMUN(\$U1,BPD)^%NUN (,2,BPD)^ BPD2CB^^
  6438			000003		$U1=$U1+1
  6439
  6440
  6441	032400'	000000	030022'		NMUN(\$U1,BPD)^%NUN (,3,BPD)^ BPD3CB^^
  6442			000004		$U1=$U1+1
  6443
  6444
COMMOD - COMMON DATA LOCATIONS USED BY DISK SERVICE	MACRO 12.5-46.0 14:24 13-JAN-88 PAGE 56-3
COMMOD.MAC	20-NOV-87 23:00		Channel DB, SAX DB, unit DB

  6445	032401'	000000	030412'		NMUN(\$U1,BPD)^%NUN (,4,BPD)^ BPD4CB^^
  6446			000005		$U1=$U1+1
  6447
  6448
  6449	032402'	000000	031002'		NMUN(\$U1,BPD)^%NUN (,5,BPD)^ BPD5CB^^
  6450			000006		$U1=$U1+1
  6451
  6452
  6453	032403'	000000	031372'		NMUN(\$U1,BPD)^%NUN (,6,BPD)^ BPD6CB^^
  6454			000007		$U1=$U1+1
  6455
  6456
  6457	032404'	000000	031762'		NMUN(\$U1,BPD)^%NUN (,7,BPD)^ BPD7CB^^
  6458			000010		$U1=$U1+1
  6459				     ; End REPEAT BPDUN
  6460	032405'				BLOCK KONMXU-$U1	;UNIT ADDRESSES
  6461	000043				PHASE %%KONU+KONMXU
  6462				^
  6463	032415'				DEPHASE
  6464
  6465			000004		$BPNUM==$BPNUM+1
  6466				^
  6467			000004			$KCHNN==$KCHNN+1
  6468					    > ; End IFN BPDUN
  6469					    IFE BPDUN,<$BPNUM==$BPNUM+1>
  6470					> ; End IFE $U-$BPNUM
  6471			000004		$U==$U+1
  6472
  6473
  6474				 ; End IRP A,B,C,D,E,F,G,H,I,J,K,L
  6475				^^
  6476				    REPEAT FT01,<KONTCB (FT)>
  6477			003001'	    IFN BP01,<NMCHUN(\$CHN,\$CHUNN)^%CH160^==NMCHUN(\$CHN,0)>^%CH10^
  6478			000000		NMKCN(\$CHN,\$KCHNN)^%CK14^==0
  6479
  6480	032415'			SC01CB::	;SC00CB is tapes (FTA), SC01CB is disks (BPA,BPB...)
  6481	032415'			NMCH(\$CHN)^%NCH (,1)^ CHN1CB^^::
  6482	000000				PHASE 0
  6483	032415'	000000	000000	CHNBSY::! 0	;NORMALLY CHANNEL BUSY
  6484	032416'	000000	000005*	CHNSTB::! SAXBAS##+0*^D16+1*4+1	;Address of status word in low core
  6485	032417'	727600	000450*	CHNGO::!  CONO SAX0,4B29+1B30+<1>B32+SAXCHN##	;Set GO (and PIA)
  6486	032420'	727600	000610*	CHNCLR::! CONO SAX0,6B29+0B30+<1>B32+SAXCHN##	;Dismiss interrupt
  6487	032421'	727600	000750*	CHNIIE::! CONO SAX0,7B29+1B30+<1>B32+SAXCHN##	;Enable interrupt
  6488	032422'	000000	000000	CHNMER::! 0			;Location of memory error
  6489	032423'	000000	000000	CHNACT::! 0			;Number of interrupts since reload
  6490	032424'	000000	012601'	CHNKON::! NMKCN(\$CHN,0)^%CK10^	;Pointer to first KON on this CHN
  6491	000010			CHNBMX::! REPEAT $SAXUN,
  6492	032425'	777777	777777	-1
  6493	032426'	777777	777777	-1
  6494	032427'	777777	777777	-1
  6495	032430'	777777	777777	-1
  6496	032431'	777777	777777	-1
  6497	032432'	777777	777777	-1
COMMOD - COMMON DATA LOCATIONS USED BY DISK SERVICE	MACRO 12.5-46.0 14:24 13-JAN-88 PAGE 56-4
COMMOD.MAC	20-NOV-87 23:00		Channel DB, SAX DB, unit DB

  6498	032433'	777777	777777	-1
  6499	032434'	777777	777777	-1
  6500	032435'	777777	777777	-1
  6501	032436'	777777	777777	-1
  6502	032437'	777777	777777	-1
  6503	032440'	777777	777777	-1
  6504	032441'	777777	777777	-1
  6505	032442'	777777	777777	-1
  6506	032443'	777777	777777	-1
  6507	032444'	777777	777777	-1
  6508	032445'	777777	777777	-1
  6509	032446'	777777	777777	-1
  6510	032447'	777777	777777	-1
  6511	032450'	777777	777777	-1
  6512	032451'	777777	777777	-1
  6513	032452'	777777	777777	-1
  6514	032453'	777777	777777	-1
  6515	032454'	777777	777777	-1
  6516	032455'	777777	777777	-1
  6517	032456'	777777	777777	-1
  6518	032457'	777777	777777	-1
  6519	032460'	777777	777777	-1
  6520	032461'	777777	777777	-1
  6521	032462'	777777	777777	-1
  6522	032463'	777777	777777	-1
  6523	032464'	777777	777777	-1
  6524	032465'	777777	777777	-1
  6525	032466'	777777	777777	-1
  6526	032467'	777777	777777	-1
  6527	032470'	777777	777777	-1
  6528	032471'	777777	777777	-1
  6529	032472'	777777	777777	-1
  6530	032473'	777777	777777	-1
  6531	032474'	777777	777777	-1
  6532	032475'	777777	777777	-1
  6533	032476'	777777	777777	-1
  6534	032477'	777777	777777	-1
  6535	032500'	777777	777777	-1
  6536	032501'	777777	777777	-1
  6537	032502'	777777	777777	-1
  6538	032503'	777777	777777	-1
  6539	032504'	777777	777777	-1
  6540	032505'	777777	777777	-1
  6541	032506'	777777	777777	-1
  6542	032507'	777777	777777	-1
  6543	032510'	777777	777777	-1
  6544	032511'	777777	777777	-1
  6545	032512'	777777	777777	-1
  6546	032513'	777777	777777	-1
  6547	032514'	777777	777777	-1
  6548	032515'	777777	777777	-1
  6549	032516'	777777	777777	-1
  6550	032517'	777777	777777	-1
COMMOD - COMMON DATA LOCATIONS USED BY DISK SERVICE	MACRO 12.5-46.0 14:24 13-JAN-88 PAGE 56-5
COMMOD.MAC	20-NOV-87 23:00		Channel DB, SAX DB, unit DB

  6551	032520'	777777	777777	-1
  6552	032521'	777777	777777	-1
  6553	032522'	777777	777777	-1
  6554	032523'	777777	777777	-1
  6555	032524'	777777	777777	-1	;Block MUX list
  6556	032525'	000000	000000				0	;Zero at end of list
  6557	032526'				DEPHASE
  6558			000002		$CHN==$CHN+1
  6559				> ; End IFN BP01+FT01
  6560			000002		$SAXCN==$SAXCN+1
  6561				^
  6562
  6563	032526'	727740	400000	SA0INT::CONSO SAX0,1B18	;Is the SA10 requesting an interrupt?
  6564	032527'	254000	000000		 JRST .-.
  6565	032530'	264000	000000*		JSR SAXSAV##		;Yes, save ACs
  6566	032531'	265540	000260'		JSP M,SAXINT		;Point to SAX0CB
  6567
  6568	032532'			SAX0CB::
  6569	000000				PHASE 0
  6570	032532'	727640	000006	SAXCNI::! CONI SAX0,T1
  6571	032533'	727606	000000	SAXCNO::! CONO SAX0,(T1)
  6572	032534'	727440	000006	SAXDTI::! DATAI SAX0,T1
  6573	000003			SAXCHL::!			;Pointers to channel blocks
  6574			000000		%%XXQ=0
  6575				    REPEAT SAXC0N,
  6576
  6577	032535'	000000	002757'		NMSCH(0,\%%XXQ)^SC00CB^
  6578			000001		%%XXQ==%%XXQ+1
  6579
  6580
  6581	032536'	000000	032415'		NMSCH(0,\%%XXQ)^SC01CB^
  6582			000002		%%XXQ==%%XXQ+1
  6583				     ; End REPEAT SAXC0N
  6584
  6585				    REPEAT 4-SAXC0N,
  6586	032537'	000000	000000	0
  6587	032540'	000000	000000	0	;Zero for unused channels
  6588	032541'				DEPHASE
  6589
  6590				^
  6591			000001		$SAXN==$SAXN+1
  6592				> ; End REPEAT SAXN
  6593				XP CHNUNE,.-1		;END OF UNCACHED AREA.
  6594			032540'	CHNUNE==:.-1
  6595				;*;IFCPU (KL),<BLOCK 1000> ;MAKE SURE NO IMPORTANT CODE IS UNCACHED
  6596				IFN SAXN,<
  6597	032541'	777777	777777	SAXPTR::EXP -1		;Relative position (AOS'ed before use)
  6598	032542'			SAXBUF::BLOCK 1000	;SA-10 status bits (for tracking down 3652 problems)
  6599			001000	  SAXBLN==.-SAXBUF	;Define length for SYSDVF
  6600				IF2,<IFN .-CHNUNE-1002,<   ;Do NOT move SAXBUF!
  6601				  PRINTX ?CHNUNE cannot have share the same page with cached data!>>
  6602					SYDVF (<<SAXBUF,SAXBLN>,<SAXPTR,1>>)^
  6603			000000		..=0
COMMOD - COMMON DATA LOCATIONS USED BY DISK SERVICE	MACRO 12.5-46.0 14:24 13-JAN-88 PAGE 56-6
COMMOD.MAC	20-NOV-87 23:00		Channel DB, SAX DB, unit DB

  6604					IRP
  6605			000001	..=..+1
  6606
  6607			000002	..=..+1
  6608
  6609
  6610	033542'	777776	000000		XWD	-..,0
  6611					.LINK	2,.-1
  6612					DEFINE SY$DV0(ARG1),<SY$DV1(ARG1)>
  6613					DEFINE SY$DV1(NAME,SIZE),<
  6614					  SIXBIT /NAME/
  6615					  XWD <SIZE>,NAME>
  6616					IRP
  6617				SY$DV0(<SAXBUF,SAXBLN>)^SY$DV1(SAXBUF,SAXBLN)^
  6618	033543'	634170	426546		  SIXBIT /SAXBUF/
  6619	033544'	001000	032542'		  XWD <SAXBLN>,SAXBUF^^
  6620
  6621				SY$DV0(<SAXPTR,1>)^SY$DV1(SAXPTR,1)^
  6622	033545'	634170	606462		  SIXBIT /SAXPTR/
  6623	033546'	000001	032541'		  XWD <1>,SAXPTR^^
  6624
  6625
  6626				PURGE ..,SY$DV0,SY$DV1^	;For SYSDVF function 6
  6627				>  ;End IFN SAXN
  6628
  6629			000000	NMSYUN(\$SYUNN)^%SY60^==0		;Last disk unit has a zero pointer
  6630			000000	SYFTNM(\$SYFTN)^%SYF4^==0		;Last tape unit has a zero pointer
  6631
  6632				PRINTF (<[UNTTBL set up for DSKB only - need STROFS offset]>)^^
  6633	033547'			UNTTBL:: REPEAT <$SYUNN+2>,<Z>	;1 for SWAP, 1 for ?
  6634	033547'	000000	000000	Z
  6635	033550'	000000	000000	Z
  6636	033551'	000000	000000	Z
  6637	033552'	000000	000000	Z
  6638	033553'	000000	000000	Z
  6639	033554'	000000	000000	Z
  6640	033555'	000000	000000	Z
  6641	033556'	000000	000000	Z
  6642	033557'	000000	000000	Z
  6643	033560'	000000	000000	Z
  6644	033561'	000000	000000	Z
  6645	033562'	000000	000000	Z
  6646	033563'	000000	000000	Z
  6647	033564'	000000	000000	Z
  6648	033565'	000000	000000	Z
  6649	033566'	000000	000000	Z
  6650	033567'	000000	000000	Z
  6651	033570'	000000	000000	Z
  6652	033571'	000000	000000	Z
  6653	033572'	000000	000000	Z
  6654	033573'	000000	000000	Z
  6655	033574'	000000	000000	Z
  6656	033575'	000000	000000	Z
COMMOD - COMMON DATA LOCATIONS USED BY DISK SERVICE	MACRO 12.5-46.0 14:24 13-JAN-88 PAGE 56-7
COMMOD.MAC	20-NOV-87 23:00		Channel DB, SAX DB, unit DB

  6657	033576'	000000	000000	Z
  6658	033577'	000000	000000	Z
  6659	033600'	000000	000000	Z
  6660	033601'	000000	000000	Z
  6661	033602'	000000	000000	Z
  6662	033603'	000000	000000	Z
  6663	033604'	000000	000000	Z
  6664	033605'	000000	000000	Z
  6665	033606'	000000	000000	Z
  6666	033607'	000000	000000	Z
  6667	033610'	000000	000000	Z
  6668	033611'	000000	000000	Z
  6669	033612'	000000	000000	Z
  6670	033613'	000000	000000	Z
  6671	033614'	000000	000000	Z
  6672	033615'	000000	000000	Z
  6673	033616'	000000	000000	Z
  6674	033617'	000000	000000	Z
  6675	033620'	000000	000000	Z
  6676	033621'	000000	000000	Z
  6677	033622'	000000	000000	Z
  6678	033623'	000000	000000	Z
  6679	033624'	000000	000000	Z
  6680	033625'	000000	000000	Z
  6681	033626'	000000	000000	Z
  6682	033627'	000000	000000	Z
  6683	033630'	000000	000000	Z
  6684			000062	UNTLEN==:.-UNTTBL		;Pointers to logical units of DSKB
  6685
  6686				IFCPU(<KI,KL>)^
  6687			000000	CPZZ==0
  6688				IRP
  6689
  6690				IFE CPUTYP-CPUKI,<CPZZ==1>
  6691
  6692
  6693
  6694			000001	IFE CPUTYP-CPUKL,<CPZZ==1>
  6695
  6696
  6697				;END IRP
  6698				REPEAT CPZZ^,<
  6699			000000		TUBDDB==:UNIDDB		;Pointer to DDB in Tape Unit Block
  6700			001624'		MT0DDB==:FTA0DB		;First tape DDB on KI,KL
  6701			002714'		MT0KDB==:FTACB		;First kontroller on KI,KL
  6702				>  ;End IFCPU(KI,KL)
  6703			000005		TKBCDB==:UNICHN		;Pointer to channel in TUB
  6704			000000		TUBRID==:0		;We don't have REELID's for our tapes
  6705
  6706					$END	(CMD)^
  6707	033631'			CMDLIT:: LIT		;Literals (define label for DDT typeout)
  6708	033631'	260040	000000*
  6709	033632'	634170	515670
COMMOD - COMMON DATA LOCATIONS USED BY DISK SERVICE	MACRO 12.5-46.0 14:24 13-JAN-88 PAGE 56-8
COMMOD.MAC	20-NOV-87 23:00		Channel DB, SAX DB, unit DB

  6710	033633'	400005	000000
  6711	033634'	000000	000000*
  6712	033635'	141023	000001
  6713	033636'	260040	033631*
  6714	033637'	634170	515671
  6715	033640'	400005	000000
  6716	033641'	000000	033634*
  6717	033642'	220200	000006
  6718	033643'	260040	000000*
  6719	033644'	634170	555521
  6720	033645'	000004	000000
  6721	033646'	240200	000007
  6722	033647'	132603	000005
  6723	033650'	002200	000377*
  6724	033651'	050603	000005
  6725			033651'	CMDEND=: .-1		;Last word in this module
  6726					END	<>^		;End of COMMOD (CMDLIT: CMDEND:)
  6727
NO ERRORS DETECTED
PROGRAM BREAK IS 033652
17K CORE USED
COMMOD - COMMON DATA LOCATIONS USED BY DISK SERVICE	MACRO 12.5-46.0 14:24 13-JAN-88 PAGE 57
COMMOD.MAC	20-NOV-87 23:00		SYMBOL TABLE

A		000000	SIN	ATNUF2		000013	SPD	BASNBB		000011	SIN	BPC13C		024057'	INT
ACTPPN		000153'	INT	ATNUMC		000021	SPD	BATCNT		000003	SIN	BPC14C		024447'	INT
AL		000001	SIN	ATNWRD		000043	SPD	BATCOD		000776	SIN	BPC15C		025037'	INT
APRNAM	125412	007777	SIN	ATNXCD		000003	SPD	BATELB		000001	SIN	BPC16C		025427'	INT
APRSN	005354	000000	SIN	ATPALC		002000	SIN	BATFIR		000001	SIN	BPC17C		026017'	INT
ATBADT		000005	SPD	ATPCNT		000001	SIN	BATNAM		000000	SIN	BPC1CB		017177'	INT
ATBALP		000007	SIN	ATPCRE		000400	SIN	BATNBB		000000	SIN	BPC2CB		017567'	INT
ATBBLK		000002	SPD	ATPDEL		010000	SIN	BATNUM		000777	SPD	BPC3CB		020157'	INT
ATBCDT		000003	SPD	ATPDIR		040000	SIN	BATPAT		000002	SIN	BPC4CB		020547'	INT
ATBCNT		000011	SIN	ATPDMP		020000	SIN	BATREG		000004	SIN	BPC5CB		021137'	INT
ATBCSC		000004	SPD	ATPDUM		400000	SIN	BATSLF		000777	SIN	BPC6CB		021527'	INT
ATBCTM		000003	SPD	ATPMWC		000001	SIN	BAYNBB		000256'	INT	BPC7CB		022117'	INT
ATBDOR		000006	SIN	ATPMXU		100000	SIN	BP00		000000	SIN	BPCCB		026407'	INT
ATBDUM		000011	SIN	ATPNDL		020000	SIN	BP01		000004	SIN	BPCCU		026432'
ATBFNB		000001	SIN	ATPPID		004000	SIN	BPA		000300	SPD	BPCHN		400000	SPD
ATBLCW		000004	SIN	ATPREN		002000	SIN	BPA0CB		003001'	INT	BPCMSZ		000266	SIN
ATBLIC		000004	SIN	ATPSUP		001000	SIN	BPA10C		006701'	INT	BPCMX		000020
ATBLNK		000001	SIN	ATPUFE		010000	SIN	BPA11C		007271'	INT	BPCUN		000020	SIN
ATBLOK		000005	SIN	ATPUMC		000001	SIN	BPA12C		007661'	INT	BPD		000360	SPD
ATBMOD		000003	SPD	ATPUPD		004000	SIN	BPA13C		010251'	INT	BPD0CB		026452'	INT
ATBMSC		000005	SIN	ATSADT		000016	SPD	BPA14C		010641'	INT	BPD1CB		027042'	INT
ATBMWC		000012	SIN	ATSBLK		000002	SIN	BPA15C		011231'	INT	BPD2CB		027432'	INT
ATBPGS		000002	SPD	ATSCDT		000014	SPD	BPA16C		011621'	INT	BPD3CB		030022'	INT
ATBPID		000010	SIN	ATSCNT		000010	SPD	BPA17C		012211'	INT	BPD4CB		030412'	INT
ATBPRV		000003	SIN	ATSCSC		000006	SPD	BPA1CB		003371'	INT	BPD5CB		031002'	INT
ATBPVW		000003	SIN	ATSCTM		000013	SPD	BPA2CB		003761'	INT	BPD6CB		031372'	INT
ATBRIB		000000	SIN	ATSLIC		000022	SPD	BPA3CB		004351'	INT	BPD7CB		031762'	INT
ATBSIZ		000002	SIN	ATSMOD		000004	SPD	BPA4CB		004741'	INT	BPDCB		032352'	INT
ATBSPT		000012	SIN	ATSMWC		000022	SPD	BPA5CB		005331'	INT	BPDCU		032375'
ATBSTS		000011	SIN	ATSPGS		000032	SPD	BPA6CB		005721'	INT	BPDMX		000020
ATBUF1		000004	SPD	ATSPRV		000011	SPD	BPA7CB		006311'	INT	BPDUN		000010	SIN
ATBUF2		000004	SPD	ATSUF1		000004	SPD	BPACB		012601'	INT	BPFIX		000000	SPD
ATBUMC		000011	SIN	ATSUF2		000010	SPD	BPACU		012624'		BPXADD		032354'	EXT
ATBWRD		000002	SPD	ATSUMC		000021	SPD	BPAMX		000020		BPXCPY		032361'	EXT
ATBXCD		000005	SPD	ATSWRD		000007	SIN	BPAUN		000020	SIN	BPXCUB		000022	SIN
ATMCNT		000377	SIN	ATSXCD		000002	SPD	BPB		000320	SPD	BPXFIN		032355'	EXT
ATMCSC		000077	SIN	ATYADT		000006'	INT	BPB0CB		012644'	INT	BPXHRD		032365'	EXT
ATMMWC		777777	SIN	ATYALP		000005'	INT	BPB1CB		013234'	INT	BPXINT		032373'	EXT
ATMUFP		636000	SIN	ATYBLK		000017'	INT	BPB2CB		013624'	INT	BPXKON		000000	SIN
ATMUFU		141700	SIN	ATYBSZ		000003'	INT	BPB3CB		014214'	INT	BPXLTM		032357'	EXT
ATMUMC		377777	SIN	ATYCDT		000007'	INT	BPB4CB		014604'	INT	BPXOFS		032364'	EXT
ATNADT		000021	SPD	ATYCNT		000020'	INT	BPB5CB		015174'	INT	BPXPOS		032356'	EXT
ATNBLK		000034	SPD	ATYCSC		000010'	INT	BPB6CB		015564'	INT	BPXRCL		032362'	EXT
ATNCDT		000043	SPD	ATYCTD		000016'	INT	BPB7CB		016154'	INT	BPXRED		032352'	EXT
ATNCNT		000043	SPD	ATYCTM		000011'	INT	BPBCB		016544'	INT	BPXSFT		032366'	EXT
ATNCSC		000021	SPD	ATYPRV		000012'	INT	BPBCU		016567'		BPXSTP		032363'	EXT
ATNCTM		000027	SPD	ATYUF1		000013'	INT	BPBMX		000020		BPXUPA		032360'	EXT
ATNLIC		000043	SPD	ATYUF2		000014'	INT	BPBUN		000010	SIN	BPXWRT		032353'	EXT
ATNMOD		000014	SPD	ATYWSZ		000004'	INT	BPC		000340	SPD	BRMAX		000772	SIN
ATNMWC		000043	SPD	ATYXCD		000015'	INT	BPC0CB		016607'	INT	C0APN		000000	SIN
ATNPGS		000032	SPD	B		000014	SIN	BPC10C		022507'	INT	C0DPN		000000	SIN
ATNPRV		000010	SPD	BA1NBB		000257'	INT	BPC11C		023077'	INT	C0FHN		000000	SIN
ATNUF1		000003	SPD	BANNBB		000010	SIN	BPC12C		023467'	INT	C0MDN		000000	SIN
COMMOD - COMMON DATA LOCATIONS USED BY DISK SERVICE	MACRO 12.5-46.0 14:24 13-JAN-88 PAGE 57-2
COMMOD.MAC	20-NOV-87 23:00		SYMBOL TABLE

C0RMN		000000	SIN	DDBCOR		000012	SIN	DEVSTS		000012	SIN	DVOUT		000001	SIN
C1DPN		000000	SIN	DDBLEN		000045	SIN	DEVSUP		000016	SIN	EPT		000000	EXT
C1FHN		000000	SIN	DENRPS		000010	SPD	DEVSZS		000026	SIN	EPTPG0		000200	SIN
C1MDN		000000	SIN	DENSTC		000013	SPD	DEVUDB		000060	SIN	ETSBCN		000245'	INT
CBADR		000251'	INT	DEPFLK		000020	SIN	DEYRPS		000074'	INT	ETSBDT		000242'	INT
CBUSER		000250'	INT	DEPMGN		000040	SIN	DEYSTC		000075'	INT	ETSCCA		000247'	INT
CCWMAX		000012	SIN	DESRPS		000011	SPD	DIE		033643'	EXT	ETSCCO		000246'	INT
CHN0CB		002757'	INT	DESSTC		000003	SPD	DISKS		000060	SIN	ETSDCA		000244'	INT
CHN1CB		032415'	INT	DEV1UN		000023	SIN	DR		000016	SIN	ETSDCO		000243'	INT
CHNACT		000006	SIN	DEV40		000071	SIN	DRBALC		000003	SIN	ETSGTI		000241'	INT
CHNBMX		000010	SIN	DEVABC		000013	SIN	DRBCNT		000001	SIN	ETSLEN		000007	SPD
CHNBSY		000000	SIN	DEVACT		000073	SIN	DRBFNB		000002	SIN	ETSTAB		000241'	INT
CHNCLR		000003	SIN	DEVADD		000063	SIN	DRBLNK		000001	SIN	ETSUNI		000240'	INT
CHNGO		000002	SIN	DEVATB		000044	SIN	DRBLOG		000001	SIN	F		000004	INT
CHNIIE		000004	SIN	DEVBLK		000013	SIN	DRBLOK		000001	SIN	FDCNI1		000005	SIN
CHNKON		000007	SIN	DEVBTS		000031	SIN	DRBMXA		000004	SIN	FDCNIE		000006	SIN
CHNMER		000005	SIN	DEVBUF		000006	SIN	DRBNAM		000000	SIN	FDERBT		000013	SIN
CHNN		000000	SIN	DEVBWC		000014	SIN	DRBNX		000001	SIN	FDHCNI		000004	SIN
CHNSTB		000001	SIN	DEVCHR		000001	SIN	DRBPRV		000002	SPD	FDHCNT		000003	SIN
CHNUNC		001450'	SIN	DEVCLS		000011	SIN	DRBRIB		000005	SIN	FDHFUN		000002	SIN
CHNUNE		032540'	SIN	DEVCNT		000061	SIN	DRBSLT		000002	SPD	FDMEMR		000030	SIN
CLRPT	701100	000000		DEVDBL		000031	SIN	DRBSTS		000001	SIN	FDNRE1		000007	SIN
CMBDWN		000002	SPD	DEVDIO		000074	SIN	DRBUN1		000007	SIN	FDNREE		000011	SIN
CMBLNK		000001	SIN	DEVDRB		000044	SIN	DRBUNM		000006	SIN	FDNWR1		000010	SIN
CMBNAM		000000	SIN	DEVDWC		000064	SIN	DRMCNT		077777	SIN	FDNWRE		000012	SIN
CMBSIZ		000013	SIN	DEVELB		000030	SIN	DRNCNT		000043	SPD	FDSCHR		000022	SIN
CMDEND		033651'	INT	DEVER1		000065	SIN	DRNLOG		000022	SPD	FDSENS		000014	SIN
CMDLIT		033631'	INT	DEVER2		000066	SIN	DRNLOK		000023	SPD	FIRUNI		003001'
CNTBLK		000252'	INT	DEVEXT		000016	SIN	DRNNX		000024	SPD	FNBALT		000010	SIN
CODBAT		505050	SIN	DEVFIL		000015	SIN	DRNPRV		000043	SPD	FNBAPD		000004	SIN
CODHOM		070717	SIN	DEVFLO		000024	SIN	DRNSLT		000032	SPD	FNBATB		000002	SIN
CODRIB		666666	SIN	DEVFNJ		000062	SIN	DRPLOG		400000	SIN	FNBDBL		000006	SIN
COMMOD		000000'	ENT	DEVFUF		000025	SIN	DRPLOK		200000	SIN	FNBDRB		000002	SIN
CORBAS		000160'	INT	DEVIAD		000007	SIN	DRPMXC		100000	SIN	FNBEXT		000001	SIN
CORNUM		000145'	INT	DEVINS		000070	SIN	DRPNX		100000	SIN	FNBLNK		000001	SIN
CORSIZ		000004	SPD	DEVIOS		000002	SIN	DRSCNT		000017	SPD	FNBLOK		000005	SIN
CPUF3		000004	SPD	DEVLOG		000005	SIN	DRSLOG		000001	SPD	FNBNAM		000000	SIN
CPUKI		000001	SPD	DEVLOK		000022	SIN	DRSLOK		000001	SPD	FNBNX		000005	SIN
CPUKL		000002	SPD	DEVLSA		000015	SPD	DRSNX		000001	SPD	FNBRIB		000003	SIN
CPUKS		000003	SPD	DEVMOD		000004	SIN	DRSPRV		000011	SPD	FNBSTS		000005	SIN
CPUTYP		000002	SPD	DEVNAM		000000	SIN	DRSSLT		000011	SPD	FNBUFP		000005	SPD
CPXKON		000000	EXT	DEVNOI		000072	SIN	DRYCNT		000023'	INT	FNBUPD		000007	SIN
CPZZ		000001	SPD	DEVOAD		000010	SIN	DRYPRV		000022'	INT	FNCAPP		000004	SIN
CRUPPN		000154'	INT	DEVOUT		000067	SIN	DSKDDB		000027'	INT	FNCCAT		000007	SIN
CTYBLN		001000	SPD	DEVPOS		000020	SIN	DSKDSP		000032'	EXT	FNCCNM		000010	SIN
CTYBUF		000447'	INT	DEVPPN		000017	SIN	DSKPPU		000406'	INT	FNCCPR		000011	SIN
CTYPTR		000446'	INT	DEVRB1		000032	SIN	DSKTYP	002326	252242	SIN	FNCCRE		000006	SIN
CURUPT		000000	EXT	DEVRBN		000043	SIN	DUMPPP		000136'	INT	FNCDEL		000014	SIN
CUSPPP		000135'	INT	DEVREL		000020	SIN	DVDIR		000004	SIN	FNCEXC		000002	SIN
D		000017	SIN	DEVRET		000021	SIN	DVDSK		200000	SIN	FNCLOK		000001	SIN
DABOFS		000011	SIN	DEVRIB		000027	SIN	DVIN		000002	SIN	FNCRED		000003	SIN
DABSIZ		000002	SIN	DEVRPS		000031	SPD	DVMTA		000020	SIN	FNCSUP		000012	SIN
DDBCOR		000012	SIN	DEVSER		000003	SIN	DVOUT		000001	SIN	FNCTRN		000013	SIN
COMMOD - COMMON DATA LOCATIONS USED BY DISK SERVICE	MACRO 12.5-46.0 14:24 13-JAN-88 PAGE 57-3
COMMOD.MAC	20-NOV-87 23:00		SYMBOL TABLE

FNCUPD		000005	SIN	FTXSP1		000041	SIN	J		000002	INT	MT0DDB		001624'	SIN
FNNLOK		000001	SPD	FTXSPR		000040	SIN	JOBS		000100	SIN	MT0KDB		002714'	SIN
FNNNX		000000	SPD	FTXSS1		000005	SIN	KCMDTA		000100	SIN	MTSIZ		000000	EXT
FNNUFP		000043	SPD	FTXSS2		000006	SIN	KCMERR		000200	SIN	NMRBPC		000150'	INT
FNPLOK		200000	SIN	FTXSTP		000000	SPD	KCMFUS		000400	SIN	NMSTPC		000151'	INT
FNPNX		400000	SIN	FTXSTS		000032	SIN	KCMIOS		000040	SIN	NODIE		033636'	EXT
FNSLOK		000001	SPD	FTXSX1		000042	SIN	KCMOFL		000020	SIN	NORED		400000	SIN
FNSNX		000001	SPD	FTXUPA		000000	SPD	KCMPOS		002000	SIN	NOWRT		200000	SIN
FNSUFP		000032	SPD	FTXWRT		000000	SPD	KCMRER		001000	SIN	NUMSTR		000001	SIN
FNYUFP		000021'	INT	HELPPP		000137'	INT	KOBPI		000000	SPD	NXTSTR		000123'
FSFPPN		000136'	INT	HOMCOD		000776	SIN	KONADD		000002	SIN	OLV		016212'	SPD
FT00		000001	SIN	HOMCRS		000022	SIN	KONBMX		000017	SIN	ONELVL		000772	SIN
FT01		000000	SIN	HOMDAT		000774	SIN	KONBSU		000017	SIN	OPNFPF		000012	SPD
FTA		000200	SPD	HOMDCT		000030	SIN	KONCHN		000015	SIN	OPRPPN		000136'	INT
FTA0CB		001450'	INT	HOMDCV		444366	SIN	KONCPY		000007	SIN	P		000001	INT
FTA0DB		001624'	INT	HOMEND		000027	SIN	KONDWN		000006	SIN	P1		000014	INT
FTA1CB		001721'	INT	HOMFEP		000014	SIN	KONERM		740000	SIN	P2		000015	INT
FTA1DB		002075'	INT	HOMHID		000001	SIN	KONFIN		000003	SIN	P3		000016	INT
FTA2CB		002172'	INT	HOMHMS		000020	SIN	KONHRD		000013	SIN	P4		000017	INT
FTA2DB		002346'	INT	HOMHSH		000027	SIN	KONIBM		000005	SIN	PAGCOD		000776	SIN
FTA3CB		002443'	INT	HOMLOG		000005	SIN	KONLEN		000014	SPD	PAGNAM		000000	SIN
FTA3DB		002617'	INT	HOMLUN		000006	SIN	KONLTM		000005	SIN	PAGSLF		000777	SIN
FTA4DB		000000	SPD	HOMMFD		000025	SIN	KONMXU		000020	SPD	PG		000003	INT
FTACB		002714'	INT	HOMNAM		000000	SIN	KONOFS		000012	SIN	PGE.A		400000	SIN
FTACU		002736'		HOMNXT		000003	SIN	KONPI		000002	SPD	PGE.P		200000	SIN
FTADDB		001624'	SIN	HOMOVR		000016	SIN	KONPOS		000004	SIN	PGE.W		100000	SIN
FTADDS		000075	SIN	HOMP4C		000026	SIN	KONPTR		000016	SIN	PIDACC		040000	SIN
FTADSP		002622'	EXT	HOMPRV		000004	SIN	KONRBL		000005	SIN	PORTS		000200	SIN
FTATYP		000002	SPD	HOMPUF		000024	SIN	KONRCL		000010	SIN	PRTAPP		000003	SIN
FTAUN		000004	SIN	HOMRAN		000027	SIN	KONRED		000000	SIN	PRTCPR		000007	SIN
FTCHN		000000	SPD	HOMREF		000010	SIN	KONSFT		000014	SIN	PRTEXC		000001	SIN
FTCMLN		000104	SIN	HOMSAT		000017	SIN	KONSNT		000021	SIN	PRTRED		000002	SIN
FTDPAG		000000	SIN	HOMSER		000174	SIN	KONSTP		000011	SIN	PRTREN		000006	SIN
FTFIX		000000	SPD	HOMSLF		000777	SIN	KONUMX		000020	SPD	PRTT4		033641'	EXT
FTULNH		000155	SIN	HOMSNM		000002	SIN	KONUPA		000006	SIN	PRTUPD		000004	SIN
FTXADD		000000	SPD	HOMSPG		000021	SIN	KONWRT		000001	SIN	PRTWRT		000005	SIN
FTXBSY		000001	SIN	HOMSPS		000007	SIN	KOPDWN		400000	SIN	PRVFIL		000047	SIN
FTXCPY		000000	SPD	HOMSPU		000015	SIN	KOPFUS		200000	SIN	PRVUFD		000754	SIN
FTXDAT		000003	SPD	HOMSUF		000023	SIN	KOPOFL		400000	SIN	PTNPNO		000043	SIN
FTXFIN		000000	SPD	HOMTAB		000017	SIN	KOSPI		000003	SPD	PTNUNI		000020	SIN
FTXHLT		000004	SPD	HUNGST		000400	SIN	KOYPI		000405'	INT	PTRCHG		100000	SIN
FTXHRD		000000	SPD	I		000010	SIN	LENFXL		000043		PTRLEN		000012	SIN
FTXINT		002735'	EXT	IB		000013	SIN	LKBSIZ		000155'		PTSPNO		000023	SIN
FTXLTM		000000	SPD	IOBDRB		002000	SIN	LVDMXL		021000	SIN	PTSUNI		000010	SIN
FTXMCH		000000	SIN	IOSALC		040000	SIN	LVDTBL		000134'	SIN	QUEPPN		000140'	INT
FTXOFS		000000	SPD	IOSERR		002300	SIN	M		000013	INT	QUESTR		000152'	INT
FTXPOS		000000	SPD	IOSHRE		000100	SIN	MAGUN		000000	SIN	RB1PNO		000110'	INT
FTXRCL		000000	SPD	IOSHWE		000200	SIN	MAPBIT	000400	000000	SIN	RB1UNI		000101'	INT
FTXRED		000000	SPD	IOSRBE		200000	SIN	METSLN	777777	777771	SIN	RBDLTA		040000	SIN
FTXSFT		000000	SPD	IOSRIB		400000	SIN	MFDPPN		000134'	INT	RBINDX		100000	SIN
FTXSM0		000007	SIN	IOSSAE		020000	SIN	MFDPRV		544000	SIN	RBLVPR		000725	SIN
FTXSMY		000010	SIN	IOSUPR		100000	SIN	MFDRIB		000164'	INT	RBLVSP		000772	SIN
FTXSNS		000002	SIN	J		000002	INT	MFDSZ		000035	SIN	RBMASK		740000	SIN
COMMOD - COMMON DATA LOCATIONS USED BY DISK SERVICE	MACRO 12.5-46.0 14:24 13-JAN-88 PAGE 57-4
COMMOD.MAC	20-NOV-87 23:00		SYMBOL TABLE

RBREAL		200000	SIN	RIBXT2		000035	SIN	SAXMEM		000330'		STRLEN		000011	SIN
RBSPAR		400000	SIN	RINPRV		000010	SPD	SAXMM1		000337'	INT	STRNAM		000000	SIN
RBYPN1		000107'	INT	RIPALC		002000	SIN	SAXN		000001	SIN	STRNXT		000002	SIN
RBYPNO		000106'	INT	RIPBDA		000001	SIN	SAXPTR		032541'	INT	STROVR		000004	SIN
RBYPNV		000111'	INT	RIPBDR		002000	SIN	SAXSAV		032530'	EXT	STRP4C		000002	SIN
RBYUN1		000100'	INT	RIPBFS		000010	SIN	SC00CB		002757'	INT	STRPID		000007	SIN
RBYUN4		000102'	INT	RIPDIR		400000	SIN	SC01CB		032415'	INT	STRPPU		000006	SIN
RBYUNA		000103'	INT	RIPDMP		020000	SPD	SP4BAS		000026'	INT	STRREF		000003	SIN
RBYUNI		000077'	INT	RIPHRE		000100	SIN	SP4OFS		000025'	INT	STRSID		000010	SIN
RBYUNR		000104'	INT	RIPHWE		000200	SIN	SPCBN		000020	SIN	STRTAL		000005	SIN
RBYUNV		000105'	INT	RIPLOG		400000	SIN	SPHSIZ		000002	SIN	STRUNI		000001	SIN
RIBALC		000014	SIN	RIPNDL		200000	SIN	SPLPPN		000140'	INT	STRUNM		000003	SIN
RIBALP		000036	SIN	RIPNFS		040000	SIN	SPMBAS	000017	777760	SIN	STTAOB		000002	SIN
RIBALT		000043	SIN	RIPPID		004000	SIN	SPMNFE		000017	SIN	STTFPC		000001	SIN
RIBAUT		000031	SIN	RIPSPP		001000	SIN	SPMOFS		000017	SIN	STTLEN		000004	SIN
RIBCOD		000776	SIN	RIPUFE		010000	SIN	SPMUSC		777777	SIN	STTPTR		000000	SIN
RIBDEV		000021	SIN	RIRXCR		000002	SIN	SPNBAS		000037	SIN	STTSTS		000003	SIN
RIBELB		000023	SIN	RIRXLK		000004	SIN	SPNNFE		000043	SIN	STYBAD		000132'	INT
RIBEST		000013	SIN	RIRXRD		000001	SIN	SPNOFS		000043	SIN	STYCHK		000133'	INT
RIBEXT		000006	SIN	RISPRV		000011	SPD	SPNUSC		000043	SIN	STYINC		000131'	INT
RIBFT1		000016	SIN	RIYPRV		000076'	INT	SPPNFE		000001	SIN	SYDFTA		000000	EXT
RIBFUT		000012	SIN	RPCBN		000020	SIN	SPPUSC		000001	SIN	SYDTMX		000000	SIN
RIBLCW		000017	SIN	S$CPU		000004	SIN	SPPVIR		400000	SIN	SYNRPR		447000	SIN
RIBLST		000775	SIN	S$ENTR	777777	777775	SIN	SPSBAS		000022	SIN	SYRDPR		444000	SIN
RIBMSC		000006	SIN	S$EVEN		000006	SIN	SPSNFE		000004	SIN	SYSCOR		000157'	INT
RIBMTA		000020	SIN	S$HALT	777777	777777	SIN	SPSOFS		000004	SIN	SYSDOR		000156'	INT
RIBMXA		000027	SIN	S$INFO		000005	SIN	SPSUSC		000022	SIN	SYSDRB		000141'	INT
RIBNAM		000005	SIN	S$NAME		000000'	SPD	SPTATB		000001	SIN	SYSNO	535423	262522	SIN
RIBPFS		000051	SIN	S$NONA		000000	SIN	SPTBEG		000000	SIN	SYSPP		000135'	INT
RIBPID		000042	SIN	S$PATC		000007	SIN	SPTBLN		000000	SIN	SYSPPN		000135'	INT
RIBPJ1		000040	SIN	S$TEMP	000004	000000	SPD	SPTEN1		000002	SIN	SYSPRV		754000	SIN
RIBPJ2		000041	SIN	S$XCT	777777	777776	SIN	SPTLNK		000001	SIN	SYSRIB		000221'	INT
RIBPJC		000037	SIN	SA0INT		032526'	INT	SPTNFE		000000	SIN	SYSSZ		000017	SIN
RIBPOS		000015	SIN	SAX0		000274	SPD	SPTNME		000017	SIN	SYSUNI		000143'	INT
RIBPPN		000004	SIN	SAX0CB		032532'	INT	SPTNMM		000017	SIN	T1		000006	INT
RIBPRV		000007	SIN	SAX1		000400	SPD	SPTPNO		000017	SIN	T2		000007	INT
RIBPVW		000007	SIN	SAXBAS		000000	EXT	SPTSIZ		000040	SIN	T3		000010	INT
RIBQTF		000025	SIN	SAXBLN		001000	SPD	SPTUSC		000000	SIN	T4		000011	INT
RIBQTO		000026	SIN	SAXBUF		032542'	INT	SPTVIR		000000	SIN	TAPES		000004	SIN
RIBRIB		000000	SIN	SAXC0N		000002	SIN	SPUFDS		000161'	INT	TIMZON	777777	777770	SIN
RIBRPS		000001	SIN	SAXCHL		000003	SIN	SPYNFE		000024'	INT	TKBCDB		000005	SIN
RIBSFS		000004	SIN	SAXCHN		000272'	EXT	SRPNDS		000016	SIN	TUBDDB		000000	SIN
RIBSIZ		000010	SIN	SAXCNI		000000	SIN	SRPREF		000020	SIN	TUBRID		000000	SIN
RIBSLF		000777	SIN	SAXCNO		000001	SIN	SRPRPT		000001	SIN	TWOLVL		764044	SIN
RIBSNM		000003	SIN	SAXDTI		000002	SIN	STAR		002746'	SPD	TYPAP		000006	SPD
RIBSTS		000022	SIN	SAXIGN		000321'		STNPRT		000146'	INT	TYPBP		000004	SPD
RIBSZS		000002	SIN	SAXIN0		000275'		STPBAD		100000	SIN	TYPDP		000002	SIN
RIBTRU		000034	SIN	SAXIN1		000276'		STPCHK		040000	SIN	TYPFH		000001	SPD
RIBUN1		000033	SIN	SAXINT		000260'		STPINC		200000	SIN	TYPFT		000000	SPD
RIBUNM		000032	SIN	SAXINX		000271'	INT	STPRPT		020000	SIN	TYPMD		000003	SPD
RIBUSD		000030	SIN	SAXINY		000322'	INT	STRBTS		000007	SIN	TYPRM		000005	SPD
RIBVER		000011	SIN	SAXLP1		000307'		STRDDB		000112'	INT	U		000005	INT
RIBXT1		000024	SIN	SAXLP2		000315'		STRHSH		000001	SIN	UFDALP		000003	SIN
COMMOD - COMMON DATA LOCATIONS USED BY DISK SERVICE	MACRO 12.5-46.0 14:24 13-JAN-88 PAGE 57-5
COMMOD.MAC	20-NOV-87 23:00		SYMBOL TABLE

UFDCDT		000002	SIN	UNICNA		000060	SIN	UNIRTY		000053	SPD	UNNWPS		000010	SPD
UFDCTM		000002	SPD	UNICNC		000061	SIN	UNISB		000000	SIN	UNPCER		000001	SIN
UFDERR		000001	SIN	UNICOM		000100	SIN	UNISBH		000000	SIN	UNPCHG		040000	SIN
UFDEXT		000001	SIN	UNICYL		000044	SIN	UNISBN		000035	SIN	UNPDEV		001000	SIN
UFDHSI		000007	SIN	UNIDC1		000147	SIN	UNISBS		000000	SIN	UNPFUS		004000	SIN
UFDLIC		000003	SIN	UNIDCN		000146	SIN	UNISCM		000076	SIN	UNPHWP		100000	SIN
UFDLNK		000777	SIN	UNIDCR		000145	SIN	UNISCN		000050	SIN	UNPMSB		000400	SIN
UFDNAM		000000	SIN	UNIDDB		000000	SIN	UNISCT		000011	SIN	UNPOFL		200000	SIN
UFDPRT		000147'	INT	UNIDES		000050	SIN	UNISDI		000032	SIN	UNPPRV		020000	SIN
UFDPRV		000001	SPD	UNIDIR		000055	SIN	UNISIZ		000050	SIN	UNPRER		010000	SIN
UFDRIB		000004	SIN	UNIDON		000145	SIN	UNISNC		000074	SIN	UNPRRS		002000	SIN
UFDSIZ		000005	SIN	UNIDRC		000020	SIN	UNISND		000066	SIN	UNPSER		000100	SIN
UFDUF1		000002	SPD	UNIDWC		000021	SIN	UNISNS		000063	SIN	UNPUTP		000020	SIN
UFDUF2		000001	SPD	UNIECT		000034	SIN	UNISOF		000014	SIN	UNSBPR		000010	SPD
UFDXCD		000002	SPD	UNIERO		000032	SIN	UNISPU		000043	SIN	UNSBPT		000011	SPD
UFNCDT		000043	SPD	UNIERR		000013	SIN	UNISSD		000065	SIN	UNSBPY		000022	SPD
UFNCTM		000027	SPD	UNIFCT		000054	SIN	UNISTR		000004	SIN	UNSKNM		000003	SPD
UFNPRV		000043	SPD	UNIFEP		000007	SIN	UNISTS		000036	SIN	UNSKTP		000006	SPD
UFNUF1		000004	SPD	UNIHBN		000015	SIN	UNISTT		000046	SIN	UNSLUN		000006	SPD
UFNUF2		000032	SPD	UNIHCT		000010	SIN	UNISVC		000075	SIN	UNSOCV		000011	SPD
UFNXCD		000006	SPD	UNIHDI		000033	SIN	UNISWC		000057	SIN	UNSOS		000001	SPD
UFPALC		020000	SPD	UNIHID		000002	SIN	UNISX1		000151	SIN	UNSPAC		000015	SPD
UFPDMP		200000	SPD	UNIHNG		000024	SIN	UNISX2		000152	SIN	UNSPGL		000015	SPD
UFPERR		100000	SIN	UNIICT		000025	SIN	UNISX3		000153	SIN	UNSPPL		000002	SPD
UFPPID		040000	SPD	UNIKNM		000050	SIN	UNISYS		000003	SIN	UNSPUN		000004	SPD
UFPTMP		010000	SPD	UNIKNT		000031	SIN	UNITAL		000047	SIN	UNSRCL		000011	SPD
UFRXCR		000002	SIN	UNIKON		000006	SIN	UNITIM		000055	SPD	UNSRCO		000011	SPD
UFRXLK		000004	SIN	UNIKTP		000050	SIN	UNITYP		000150	SIN	UNSRRT		000011	SPD
UFRXRD		000001	SIN	UNILNK		000001	SIN	UNIUSC		000030	SIN	UNSRTO		000011	SPD
UFSCDT		000014	SPD	UNILOG		000001	SIN	UNIUTP		000050	SIN	UNSRTY		000011	SPD
UFSCTM		000021	SPD	UNILUN		000003	SPD	UNIWPS		000043	SIN	UNSSCN		000003	SPD
UFSPRV		000011	SPD	UNIMCT		000012	SIN	UNNBPR		000011	SPD	UNSSIZ		000010	SPD
UFSUF1		000004	SPD	UNIMRC		000022	SIN	UNNBPT		000021	SPD	UNSSPU		000010	SPD
UFSUF2		000010	SPD	UNIMSC		000027	SIN	UNNBPY		000043	SPD	UNSTIM		000006	SPD
UFSXCD		000002	SPD	UNIMWC		000023	SIN	UNNKNM		000035	SPD	UNSUTP		000002	SPD
UFYCDT		000130'	INT	UNINAM		000000	SIN	UNNKTP		000032	SPD	UNSWPS		000011	SPD
UFYCTM		000127'	INT	UNIOCT		000026	SIN	UNNLUN		000043	SPD	UNTLEN		000062	SIN
UFYPRV		000125'	INT	UNIOCV		000056	SIN	UNNOCV		000043	SPD	UNTTBL		033547'	INT
UFYUF1		000124'	INT	UNIOLV		000367	SIN	UNNOS		000007	SPD	UNVRSF		000764	SIN
UFYUF2		000123'	INT	UNIONC		000045	SIN	UNNPAC		000023	SPD	UNYBPR		000420'	INT
UFYXCD		000126'	INT	UNIOS		000056	SIN	UNNPGL		000040	SPD	UNYBPT		000421'	INT
UNIACT		000077	SIN	UNIPAC		000055	SPD	UNNPPL		000042	SPD	UNYBPY		000423'	INT
UNIBLK		000045	SIN	UNIPGL		000055	SPD	UNNPUN		000043	SPD	UNYKNM		000412'	INT
UNIBPR		000042	SIN	UNIPPL		000055	SPD	UNNRCL		000032	SPD	UNYKTP		000411'	INT
UNIBPT		000042	SIN	UNIPPU		000041	SIN	UNNRCO		000021	SPD	UNYLN1		000416'	INT
UNIBPY		000042	SIN	UNIPUN		000050	SIN	UNNRRT		000021	SPD	UNYLUN		000415'	INT
UNIBRC		000016	SIN	UNIQUE		000037	SIN	UNNRTO		000032	SPD	UNYOCV		000434'	INT
UNIBWC		000017	SIN	UNIRC1		000056	SIN	UNNRTY		000043	SPD	UNYOS		000437'	INT
UNICCC		000062	SIN	UNIRCL		000053	SPD	UNNSCN		000024	SPD	UNYPAC		000427'	INT
UNICDA		000040	SIN	UNIRCO		000056	SIN	UNNSIZ		000021	SPD	UNYPGL		000430'	INT
UNICHN		000005	SIN	UNIRCT		000053	SIN	UNNSPU		000021	SPD	UNYPPL		000440'	INT
UNICHR		000042	SIN	UNIRRT		000053	SPD	UNNTIM		000006	SPD	UNYPPT		000422'	INT
UNICMD		000041	SIN	UNIRTO		000056	SIN	UNNUTP		000037	SPD	UNYPPY		000424'	INT
COMMOD - COMMON DATA LOCATIONS USED BY DISK SERVICE	MACRO 12.5-46.0 14:24 13-JAN-88 PAGE 57-6
COMMOD.MAC	20-NOV-87 23:00		SYMBOL TABLE

UNYPUN		000414'	INT	%BPA6		005721'	SPD	%CH125		015174'	SPD	%SIZ16		000370	SPD
UNYRCL		000432'	INT	%BPA7		006311'	SPD	%CH126		015564'	SPD	%SIZ17		000370	SPD
UNYRCO		000436'	INT	%BPB0		012644'	SPD	%CH127		016154'	SPD	%SIZ2		000370	SPD
UNYRRT		000433'	INT	%BPB1		013234'	SPD	%CH13		004351'	SPD	%SIZ20		000370	SPD
UNYRTO		000435'	INT	%BPB10		012644'	SPD	%CH130		016607'	SPD	%SIZ21		000370	SPD
UNYRTY		000431'	INT	%BPB2		013624'	SPD	%CH131		017177'	SPD	%SIZ22		000370	SPD
UNYSCN		000410'	INT	%BPB3		014214'	SPD	%CH132		017567'	SPD	%SIZ23		000370	SPD
UNYSIZ		000407'	INT	%BPB4		014604'	SPD	%CH133		020157'	SPD	%SIZ24		000370	SPD
UNYSPU		000425'	INT	%BPB5		015174'	SPD	%CH134		020547'	SPD	%SIZ25		000370	SPD
UNYTIM		000426'	INT	%BPB6		015564'	SPD	%CH135		021137'	SPD	%SIZ26		000370	SPD
UNYUTP		000413'	INT	%BPB7		016154'	SPD	%CH136		021527'	SPD	%SIZ27		000370	SPD
UNYWPS		000417'	INT	%BPC0		016607'	SPD	%CH137		022117'	SPD	%SIZ3		000370	SPD
UUXENT		000040	SIN	%BPC1		017177'	SPD	%CH14		004741'	SPD	%SIZ30		000370	SPD
YY		000100	SPD	%BPC10		022507'	SPD	%CH140		022507'	SPD	%SIZ31		000370	SPD
ZERO18		000000	SIN	%BPC11		023077'	SPD	%CH141		023077'	SPD	%SIZ32		000370	SPD
ZERO5		000000	SIN	%BPC12		023467'	SPD	%CH142		023467'	SPD	%SIZ33		000370	SPD
$APNUM		000000	SPD	%BPC13		024057'	SPD	%CH143		024057'	SPD	%SIZ34		000370	SPD
$BPNUM		000004	SPD	%BPC14		024447'	SPD	%CH144		024447'	SPD	%SIZ35		000370	SPD
$CHN		000002	SPD	%BPC15		025037'	SPD	%CH145		025037'	SPD	%SIZ36		000370	SPD
$CHUNN		000060	SPD	%BPC16		025427'	SPD	%CH146		025427'	SPD	%SIZ37		000370	SPD
$DPNUM		000000	SPD	%BPC17		026017'	SPD	%CH147		026017'	SPD	%SIZ4		000370	SPD
$FHNUM		000000	SPD	%BPC2		017567'	SPD	%CH15		005331'	SPD	%SIZ40		000370	SPD
$FTMOD		154403	SPD	%BPC20		016607'	SPD	%CH150		026452'	SPD	%SIZ41		000370	SPD
$FTNUM		000001	SPD	%BPC3		020157'	SPD	%CH151		027042'	SPD	%SIZ42		000370	SPD
$KCHNN		000004	SPD	%BPC4		020547'	SPD	%CH152		027432'	SPD	%SIZ43		000370	SPD
$KNUNN		000010	SPD	%BPC5		021137'	SPD	%CH153		030022'	SPD	%SIZ44		000370	SPD
$LOCW		000000	SPD	%BPC6		021527'	SPD	%CH154		030412'	SPD	%SIZ45		000370	SPD
$MDNUM		000000	SPD	%BPC7		022117'	SPD	%CH155		031002'	SPD	%SIZ46		000370	SPD
$RMNUM		000000	SPD	%BPD0		026452'	SPD	%CH156		031372'	SPD	%SIZ47		000370	SPD
$SAXCN		000002	SPD	%BPD1		027042'	SPD	%CH157		031762'	SPD	%SIZ5		000370	SPD
$SAXN		000001	SPD	%BPD10		026452'	SPD	%CH16		005721'	SPD	%SIZ50		000370	SPD
$SAXUN		000100	SPD	%BPD2		027432'	SPD	%CH160		003001'	SPD	%SIZ51		000370	SPD
$SYFTN		000004	SPD	%BPD3		030022'	SPD	%CH17		006311'	SPD	%SIZ52		000370	SPD
$SYUNN		000060	SPD	%BPD4		030412'	SPD	%CK00		002714'	SPD	%SIZ53		000370	SPD
$U		000004	SPD	%BPD5		031002'	SPD	%CK01		000000	SPD	%SIZ54		000370	SPD
$U1		000010	SPD	%BPD6		031372'	SPD	%CK10		012601'	SPD	%SIZ55		000370	SPD
%%KONU		000023	SPD	%BPD7		031762'	SPD	%CK11		016544'	SPD	%SIZ56		000370	SPD
%%XXQ		000002	SPD	%CH10		003001'	SPD	%CK12		026407'	SPD	%SIZ57		000370	SPD
%BPA0		003001'	SPD	%CH11		003371'	SPD	%CK13		032352'	SPD	%SIZ6		000370	SPD
%BPA1		003371'	SPD	%CH110		006701'	SPD	%CK14		000000	SPD	%SIZ7		000370	SPD
%BPA10		006701'	SPD	%CH111		007271'	SPD	%ERR		777000	SIN	%SY0		003001'	SPD
%BPA11		007271'	SPD	%CH112		007661'	SPD	%ERR.N		000777	SIN	%SY1		003371'	SPD
%BPA12		007661'	SPD	%CH113		010251'	SPD	%FTA0		000000	SPD	%SY10		006701'	SPD
%BPA13		010251'	SPD	%CH114		010641'	SPD	%FTA4		000000	SPD	%SY11		007271'	SPD
%BPA14		010641'	SPD	%CH115		011231'	SPD	%RIB		376000	SIN	%SY12		007661'	SPD
%BPA15		011231'	SPD	%CH116		011621'	SPD	%SIZ0		000370	SPD	%SY13		010251'	SPD
%BPA16		011621'	SPD	%CH117		012211'	SPD	%SIZ1		000370	SPD	%SY14		010641'	SPD
%BPA17		012211'	SPD	%CH12		003761'	SPD	%SIZ10		000370	SPD	%SY15		011231'	SPD
%BPA2		003761'	SPD	%CH120		012644'	SPD	%SIZ11		000370	SPD	%SY16		011621'	SPD
%BPA20		003001'	SPD	%CH121		013234'	SPD	%SIZ12		000370	SPD	%SY17		012211'	SPD
%BPA3		004351'	SPD	%CH122		013624'	SPD	%SIZ13		000370	SPD	%SY2		003761'	SPD
%BPA4		004741'	SPD	%CH123		014214'	SPD	%SIZ14		000370	SPD	%SY20		012644'	SPD
%BPA5		005331'	SPD	%CH124		014604'	SPD	%SIZ15		000370	SPD	%SY21		013234'	SPD
COMMOD - COMMON DATA LOCATIONS USED BY DISK SERVICE	MACRO 12.5-46.0 14:24 13-JAN-88 PAGE 57-7
COMMOD.MAC	20-NOV-87 23:00		SYMBOL TABLE

%SY22		013624'	SPD
%SY23		014214'	SPD
%SY24		014604'	SPD
%SY25		015174'	SPD
%SY26		015564'	SPD
%SY27		016154'	SPD
%SY3		004351'	SPD
%SY30		016607'	SPD
%SY31		017177'	SPD
%SY32		017567'	SPD
%SY33		020157'	SPD
%SY34		020547'	SPD
%SY35		021137'	SPD
%SY36		021527'	SPD
%SY37		022117'	SPD
%SY4		004741'	SPD
%SY40		022507'	SPD
%SY41		023077'	SPD
%SY42		023467'	SPD
%SY43		024057'	SPD
%SY44		024447'	SPD
%SY45		025037'	SPD
%SY46		025427'	SPD
%SY47		026017'	SPD
%SY5		005331'	SPD
%SY50		026452'	SPD
%SY51		027042'	SPD
%SY52		027432'	SPD
%SY53		030022'	SPD
%SY54		030412'	SPD
%SY55		031002'	SPD
%SY56		031372'	SPD
%SY57		031762'	SPD
%SY6		005721'	SPD
%SY60		000000	SPD
%SY7		006311'	SPD
%SYF0		001450'	SPD
%SYF1		001721'	SPD
%SYF2		002172'	SPD
%SYF3		002443'	SPD
%SYF4		000000	SPD

COMMOD - COMMON DATA LOCATIONS USED BY DISK SERVICE	MACRO 12.5-46.0 14:24 13-JAN-88
COMMOD.MAC	20-NOV-87 23:00		Symbol cross reference

A	  3275
ACTPPN	  1130	  1195#
AL	  3275
APRNAM	    12#
APRSN	    11#
ATBADT	   339#	   401
ATBALP	   252	   344#	   348
ATBBLK	   267#	   410
ATBCDT	   294#	   402
ATBCNT	   252	   373#	   411
ATBCSC	   324#	   403
ATBCTM	   290#	   404	   409
ATBDOR	   251	   343#
ATBDUM	   254	   360#
ATBFNB	   252	   257#
ATBLCW	   252	   297#	   301	   305	   324	   330
ATBLIC	   252	   330#
ATBLNK	   251	   258#
ATBLOK	   254	   341#
ATBMOD	   286#
ATBMSC	   252	   332#	   335	   339	   341
ATBMWC	   254	   397#
ATBPGS	   271#
ATBPID	   254	   350#
ATBPRV	   251	   282#	   286	   405
ATBPVW	   248	   279#	   282	   290	   294
ATBRIB	   247	   256#	   986
ATBSIZ	   251	   259#	   263	   267	   271	   273	   276
ATBSPT	   195	   253	   387#	   397	   399
ATBSTS	   247	   359#	   360	   369	   373
ATBUF1	   301#	   406
ATBUF2	   305#	   407
ATBUMC	   253	   369#
ATBWRD	   263#
ATBXCD	   335#	   408
ATMCNT	   252	   375#
ATMCSC	   247	   326#
ATMMWC	   253	   396#
ATMUFP	   252	   319#	   321
ATMUFU	   247	   320#	   321	   321#
ATMUMC	   253	   368#
ATNADT	   338#	   401
ATNBLK	   266#	   273	   410
ATNCDT	   293#	   402	   409
ATNCNT	   372#	   374	   375	   411
ATNCSC	   323#	   326	   403
ATNCTM	   289#	   404
ATNLIC	   329#
ATNMOD	   285#
ATNMWC	   394#	   395	   396
ATNPGS	   270#
ATNPRV	   281#	   405
ATNUF1	   300#	   319	   320	   406
COMMOD - COMMON DATA LOCATIONS USED BY DISK SERVICE	MACRO 12.5-46.0 14:24 13-JAN-88
COMMOD.MAC	20-NOV-87 23:00		Symbol cross reference

ATNUF2	   304#	   319	   320	   407
ATNUMC	   366#	   367	   368
ATNWRD	   262#	   276
ATNXCD	   334#	   408
ATPALC	   247	   314#	   871
ATPCNT	   247	   374#
ATPCRE	   250	   377#
ATPDEL	   251	   381#
ATPDIR	   251	   383#
ATPDMP	   248	   307#	   862
ATPDUM	   253	   361#
ATPMWC	   253	   395#
ATPMXU	   254	   384#
ATPNDL	   251	   382#
ATPPID	   247	   310#	   867
ATPREN	   250	   379#
ATPSUP	   250	   378#
ATPUFE	   247	   308#	   864
ATPUMC	   253	   367#
ATPUPD	   250	   380#
ATSADT	   337#	   401
ATSBLK	   254	   265#	   273	   410
ATSCDT	   292#	   402	   409
ATSCNT	   371#	   375	   411
ATSCSC	   322#	   326	   403
ATSCTM	   288#	   404	   409
ATSLIC	   328#
ATSMOD	   284#
ATSMWC	   391#	   396
ATSPGS	   269#	   273	   410
ATSPRV	   280#	   405
ATSUF1	   299#	   319	   320	   406
ATSUF2	   303#	   319	   320	   407
ATSUMC	   363#	   368
ATSWRD	   254	   261#	   276
ATSXCD	   333#	   408
ATYADT	   248	   401#
ATYALP	   250	   348#
ATYBLK	   248	   410#
ATYBSZ	   250	   273#
ATYCDT	   248	   402#
ATYCNT	   247	   411#
ATYCSC	   248	   403#
ATYCTD	   248	   409#
ATYCTM	   249	   404#
ATYPRV	   249	   405#
ATYUF1	   249	   406#
ATYUF2	   249	   407#
ATYWSZ	   250	   276#
ATYXCD	   249	   408#
B	  3275
BA1NBB	  1271	  1312#
BANNBB	  1272	  1308#	  1311	  1312
COMMOD - COMMON DATA LOCATIONS USED BY DISK SERVICE	MACRO 12.5-46.0 14:24 13-JAN-88
COMMOD.MAC	20-NOV-87 23:00		Symbol cross reference

BASNBB	  1272	  1307#	  1311	  1312
BATCNT	  1273	  1290#
BATCOD	  1272	  1317#	  1322
BATELB	  1273	  1314#
BATFIR	  1271	  1279#
BATNAM	  1272	  1278#
BATNBB	  1271	  1305#	  1311	  1312
BATNUM	  1306#
BATPAT	  1271	  1288#
BATREG	  1271	  1292#	  1322
BATSLF	  1272	  1320#
BAYNBB	  1271	  1311#
BP00	    41#	  2688	  2689	  2693	  3288
BP01	    43#	    71#	    72#	    73#	    74#	    75	    76	  3320	  3321	  3325	  6477
BPA	    77#	    78	  3625	  3935	  4245	  4555	  4579	  4583	  4587	  4591	  4595	  4599	  4603	  4607
	  4611	  4615	  4619	  4623	  4703	  4706
BPA0CB	  3343	  3345#	  3358	  3370	  3374	  3626	  3634	  4719	  5674
BPA10C	  4595	  4595#	  4751	  5711
BPA11C	  4599	  4599#	  4755	  5715
BPA12C	  4603	  4603#	  4759	  5719
BPA13C	  4607	  4607#	  4763	  5723
BPA14C	  4611	  4611#	  4767	  5727
BPA15C	  4615	  4615#	  4771	  5731
BPA16C	  4619	  4619#	  4775	  5735
BPA17C	  4623	  4623#	  4779	  5739
BPA1CB	  3653	  3655#	  3668	  3680	  3684	  3936	  3944	  4723	  5683
BPA2CB	  3963	  3965#	  3978	  3990	  3994	  4246	  4254	  4727	  5687
BPA3CB	  4273	  4275#	  4288	  4300	  4304	  4556	  4564	  4731	  5691
BPA4CB	  4579	  4579#	  4735	  5695
BPA5CB	  4583	  4583#	  4739	  5699
BPA6CB	  4587	  4587#	  4743	  5703
BPA7CB	  4591	  4591#	  4747	  5707
BPACB	  3375	  3685	  3995	  4305	  4579	  4583	  4587	  4591	  4595	  4599	  4603	  4607	  4611	  4615
	  4619	  4623	  4635#	  4641
BPACU	  4698	  4715#
BPAMX	    45#	    63	    78	  4632
BPAUN	    51	    51#	    62	    62#	    63	    70	    71	    75	  3332	  3333	  3336	  4717	  4791	  5674
	  5683	  5687	  5691	  5695	  5699	  5703	  5707	  5711	  5715	  5719	  5723	  5727	  5731	  5735
	  5739
BPB	    78#	    79	  5121	  5145	  5149	  5153	  5157	  5161	  5165	  5169	  5249	  5252
BPB0CB	  4839	  4841#	  4854	  4866	  4870	  5122	  5130	  5265	  6301
BPB1CB	  5145	  5145#	  5269	  6309
BPB2CB	  5149	  5149#	  5273	  6313
BPB3CB	  5153	  5153#	  5277	  6317
BPB4CB	  5157	  5157#	  5281	  6321
BPB5CB	  5161	  5161#	  5285	  6325
BPB6CB	  5165	  5165#	  5289	  6329
BPB7CB	  5169	  5169#	  5293	  6333
BPBCB	  4871	  5145	  5149	  5153	  5157	  5161	  5165	  5169	  5181#	  5187
BPBCU	  5244	  5261#
BPBMX	    45#	    65	    79	  5178
BPBUN	    52	    52#	    64	    64#	    65	    70	    72	    76	  4828	  4829	  4832	  5263	  5305	  6301
	  6309	  6313	  6317	  6321	  6325	  6329	  6333
COMMOD - COMMON DATA LOCATIONS USED BY DISK SERVICE	MACRO 12.5-46.0 14:24 13-JAN-88
COMMOD.MAC	20-NOV-87 23:00		Symbol cross reference

BPC	    79#	    80	  5659	  5683	  5687	  5691	  5695	  5699	  5703	  5707	  5711	  5715	  5719	  5723
	  5727	  5731	  5735	  5739	  5819	  5822
BPC0CB	  3638	  5377	  5379#	  5392	  5404	  5408	  5660	  5668	  5835
BPC10C	  4595	  5711	  5711#	  5867
BPC11C	  4599	  5715	  5715#	  5871
BPC12C	  4603	  5719	  5719#	  5875
BPC13C	  4607	  5723	  5723#	  5879
BPC14C	  4611	  5727	  5727#	  5883
BPC15C	  4615	  5731	  5731#	  5887
BPC16C	  4619	  5735	  5735#	  5891
BPC17C	  4623	  5739	  5739#	  5895
BPC1CB	  3948	  5683	  5683#	  5839
BPC2CB	  4258	  5687	  5687#	  5843
BPC3CB	  4568	  5691	  5691#	  5847
BPC4CB	  4579	  5695	  5695#	  5851
BPC5CB	  4583	  5699	  5699#	  5855
BPC6CB	  4587	  5703	  5703#	  5859
BPC7CB	  4591	  5707	  5707#	  5863
BPCCB	  5409	  5683	  5687	  5691	  5695	  5699	  5703	  5707	  5711	  5715	  5719	  5723	  5727	  5731
	  5735	  5739	  5751#	  5757
BPCCU	  5814	  5831#
BPCHN	  4631#	  4677	  5177#	  5223	  5747#	  5793	  6341#	  6387
BPCMSZ	  2368	  2368#	  3634	  3635	  3944	  3945	  4254	  4255	  4564	  4565	  4579	  4583	  4587	  4591
	  4595	  4599	  4603	  4607	  4611	  4615	  4619	  4623	  5130	  5131	  5145	  5149	  5153	  5157
	  5161	  5165	  5169	  5668	  5669	  5683	  5687	  5691	  5695	  5699	  5703	  5707	  5711	  5715
	  5719	  5723	  5727	  5731	  5735	  5739	  6294	  6295	  6309	  6313	  6317	  6321	  6325	  6329
	  6333
BPCMX	    45#	    67	    80	  5748
BPCUN	    66	    66#	    67	    70	    73	    75	  3638	  3948	  4258	  4568	  4579	  4583	  4587	  4591
	  4595	  4599	  4603	  4607	  4611	  4615	  4619	  4623	  5366	  5367	  5370	  5833	  5907
BPD	    80#	  6285	  6309	  6313	  6317	  6321	  6325	  6329	  6333	  6413	  6416
BPD0CB	  5135	  6003	  6005#	  6018	  6030	  6034	  6286	  6294	  6429
BPD1CB	  5145	  6309	  6309#	  6433
BPD2CB	  5149	  6313	  6313#	  6437
BPD3CB	  5153	  6317	  6317#	  6441
BPD4CB	  5157	  6321	  6321#	  6445
BPD5CB	  5161	  6325	  6325#	  6449
BPD6CB	  5165	  6329	  6329#	  6453
BPD7CB	  5169	  6333	  6333#	  6457
BPDCB	  6035	  6309	  6313	  6317	  6321	  6325	  6329	  6333	  6345#	  6351
BPDCU	  6408	  6425#
BPDMX	    45#	    69	  6342
BPDUN	    68	    68#	    69	    70	    74	    76	  5135	  5145	  5149	  5153	  5157	  5161	  5165	  5169
	  5992	  5993	  5996	  6427	  6469
BPFIX	  4630#	  4676	  5176#	  5222	  5746#	  5792	  6340#	  6386
BPXADD	  4648%	  4674	  5194%	  5220	  5764%	  5790	  6358%	  6384
BPXCPY	  4649%	  4686	  5195%	  5232	  5765%	  5802	  6359%	  6396
BPXCUB	  4711#	  5257#	  5827#	  6421#
BPXFIN	  4649%	  4675	  5195%	  5221	  5765%	  5791	  6359%	  6385
BPXHRD	  4650%	  4693	  5196%	  5239	  5766%	  5809	  6360%	  6403
BPXINT	  4707	  4709%	  5253	  5255%	  5823	  5825%	  6417	  6419%
BPXKON	    54#
BPXLTM	  4649%	  4677	  5195%	  5223	  5765%	  5793	  6359%	  6387
COMMOD - COMMON DATA LOCATIONS USED BY DISK SERVICE	MACRO 12.5-46.0 14:24 13-JAN-88
COMMOD.MAC	20-NOV-87 23:00		Symbol cross reference

BPXOFS	  4650%	  4692	  5196%	  5238	  5766%	  5808	  6360%	  6402
BPXPOS	  4649%	  4676	  5195%	  5222	  5765%	  5792	  6359%	  6386
BPXRCL	  4650%	  4687	  5196%	  5233	  5766%	  5803	  6360%	  6397
BPXRED	  4648%	  4669	  5194%	  5215	  5764%	  5785	  6358%	  6379
BPXSFT	  4650%	  4694	  5196%	  5240	  5766%	  5810	  6360%	  6404
BPXSTP	  4650%	  4690	  5196%	  5236	  5766%	  5806	  6360%	  6400
BPXUPA	  4649%	  4679	  5195%	  5225	  5765%	  5795	  6359%	  6389
BPXWRT	  4648%	  4673	  5194%	  5219	  5764%	  5789	  6358%	  6383
BRMAX	  1271	  1322#
C0APN	   114	   114#	   117
C0DPN	   108	   108#	   117
C0FHN	   110	   110#	   117
C0MDN	   112	   112#	   117
C0RMN	   115	   115#	   117
C1DPN	   109	   109#	   118
C1FHN	   111	   111#	   118
C1MDN	   113	   113#	   118
CBADR	  1130	  1255#
CBUSER	  1130	  1253#
CCWMAX	   146	   148
CHN0CB	  2746	  2851	  2956	  3061	  3196	  3292#
CHN1CB	  3371	  3681	  3991	  4301	  4579	  4583	  4587	  4591	  4595	  4599	  4603	  4607	  4611	  4615
	  4619	  4623	  4696	  4867	  5145	  5149	  5153	  5157	  5161	  5165	  5169	  5242	  5405	  5683
	  5687	  5691	  5695	  5699	  5703	  5707	  5711	  5715	  5719	  5723	  5727	  5731	  5735	  5739
	  5812	  6031	  6309	  6313	  6317	  6321	  6325	  6329	  6333	  6406	  6481#
CHNACT	  1485	  3300#	  6489#
CHNBMX	  3203	  3302#	  4703	  5249	  5819	  6413	  6491#
CHNBSY	  3294#	  6483#
CHNCLR	  3297#	  6486#
CHNGO	  1555	  3296#	  6485#
CHNIIE	  3298#	  6487#
CHNKON	  1488	  1499	  3301#	  6490#
CHNMER	  1525	  1535	  1554	  3299#	  6488#
CHNN	   119	   119#	  1356	  2680
CHNSTB	  1486	  1524	  3295#	  6484#
CHNUNC	  2675	  2678#
CHNUNE	  6594#	  6600
CMBDWN	   194#	   456	   513
CMBLNK	   188	   192#	   454	   511
CMBNAM	   188	   190#	   452	   509
CMBSIZ	   195#
CMDEND	  6725#
CMDLIT	  6707#
CNTBLK	  1130	  1256#	  1260
CODBAT	  1272	  1319#
CODHOM	   768#
CODRIB	   792	  1001#
COMMOD	    24	    25#	    28
CORBAS	  1222#
CORNUM	  1133	  1171#
CORSIZ	   705#	   706
CPUF3	   102
CPUKI	    35	    87	  2318	  6690
COMMOD - COMMON DATA LOCATIONS USED BY DISK SERVICE	MACRO 12.5-46.0 14:24 13-JAN-88
COMMOD.MAC	20-NOV-87 23:00		Symbol cross reference

CPUKL	    35	    87	  2318	  6694
CPUKS	    96
CPUTYP	    35	    87	    96	   102	  2318	  6690	  6694
CPXKON	    55%
CPZZ	    35#	    35	    87#	    87	    96#	    96	   102#	   102	  2318#	  2318	  6687#	  6694#	  6698
CRUPPN	  1133	  1197#
CTYBLN	  2666	  2673#
CTYBUF	  2666	  2671	  2672#	  2673	  2675
CTYPTR	  2668	  2671#
CURUPT	  1458%
CUSPPP	  1132	  1142#
D	  3275
DABOFS	   355#	   399
DABSIZ	   399#
DDBCOR	   613	   706#
DDBLEN	   613	   707#
DENRPS	   686#	   711
DENSTC	   689#	   713
DEPFLK	   612	   692#
DEPMGN	   609	   691#
DESRPS	   685#	   711
DESSTC	   688#	   713
DEV1UN	   611	   666#
DEV40	  2794#	  2899#	  3004#	  3109#
DEVABC	   647#	  2782#	  2887#	  2992#	  3097#
DEVACT	  2796#	  2901#	  3006#	  3111#
DEVADD	  2788#	  2893#	  2998#	  3103#
DEVATB	   611	   702#	   703
DEVBLK	   614	   642#	   647
DEVBTS	   609	   690#
DEVBUF	   609	   628#	  2777#	  2882#	  2987#	  3092#
DEVBWC	   648#	  2783#	  2888#	  2993#	  3098#
DEVCHR	   609	   622#	  2772#	  2877#	  2982#	  3087#
DEVCLS	   640#	  2780#	  2885#	  2990#	  3095#
DEVCNT	  2786#	  2891#	  2996#	  3101#
DEVDBL	   613	   694#
DEVDIO	  2797#	  2902#	  3007#	  3112#
DEVDRB	   611	   703#
DEVDWC	  2789#	  2894#	  2999#	  3104#
DEVELB	   613	   682#
DEVER1	  2790#	  2895#	  3000#	  3105#
DEVER2	  2791#	  2896#	  3001#	  3106#
DEVEXT	   650#	   651
DEVFIL	   649#
DEVFLO	   611	   668#
DEVFNJ	  2787#	  2892#	  2997#	  3102#
DEVFUF	   611	   674#
DEVIAD	   609	   629#	  2778#	  2883#	  2988#	  3093#
DEVINS	  2793#	  2898#	  3003#	  3108#
DEVIOS	   609	   623#	  2773#	  2878#	  2983#	  3088#
DEVLOG	   609	   627#	  2776#	  2881#	  2986#	  3091#
DEVLOK	   612	   664#
DEVLSA	  2780	  2784#	  2885	  2889#	  2990	  2994#	  3095	  3099#
COMMOD - COMMON DATA LOCATIONS USED BY DISK SERVICE	MACRO 12.5-46.0 14:24 13-JAN-88
COMMOD.MAC	20-NOV-87 23:00		Symbol cross reference

DEVMOD	   609	   626#	  2775#	  2880#	  2985#	  3090#
DEVNAM	   609	   621#	   706	   707	  2771#	  2876#	  2981#	  3086#
DEVNOI	  2795#	  2900#	  3005#	  3110#
DEVOAD	   610	   638#	  2779#	  2884#	  2989#	  3094#
DEVOUT	  2792#	  2897#	  3002#	  3107#
DEVPOS	   610	   655#	   656
DEVPPN	   654#
DEVRB1	   612	   696#
DEVRBN	   612	   700#
DEVREL	   656#	   657
DEVRET	   610	   661#
DEVRIB	   610	   680#	   988	   993
DEVRPS	   683#	   687	   690	   694	   711
DEVSER	   609	   624#	  2774#	  2879#	  2984#	  3089#
DEVSTC	   687#	   713
DEVSTS	   641#	  2781#	  2886#	  2991#	  3096#
DEVSUP	   612	   651#
DEVSZS	   611	   676#
DEVUDB	  2785#	  2890#	  2995#	  3100#
DEYRPS	   610	   711#
DEYSTC	   611	   713#
DIE	    24	    24%	    25	  1473	  1503	  1520
DISKS	    18#	    37	    37#	    47	    49	    51	    53	    70
DR	  3275
DRBALC	   465	   503#
DRBCNT	   464	   473#	   517
DRBFNB	   465	   494#	   495	   500	   513
DRBLNK	   464	   469#	   473	   477	   511
DRBLOG	   465	   492#
DRBLOK	   464	   487#
DRBMXA	   464	   504#
DRBNAM	   464	   468#	   509
DRBNX	   467	   482#
DRBPRV	   495#	   516
DRBRIB	   464	   505#	   987
DRBSLT	   500#
DRBSTS	   464	   477#	   482	   487	   492
DRBUN1	   465	   507#
DRBUNM	   465	   506#
DRMCNT	   467	   475#
DRNCNT	   472#	   474	   475	   517
DRNLOG	   490#
DRNLOK	   485#
DRNNX	   480#
DRNPRV	   498#	   516
DRNSLT	   502#
DRPLOG	   465	   491#
DRPLOK	   465	   486#
DRPMXC	   467	   474#
DRPNX	   467	   481#
DRSCNT	   471#	   474	   475	   517
DRSLOG	   489#
DRSLOK	   484#
COMMOD - COMMON DATA LOCATIONS USED BY DISK SERVICE	MACRO 12.5-46.0 14:24 13-JAN-88
COMMOD.MAC	20-NOV-87 23:00		Symbol cross reference

DRSNX	   479#
DRSPRV	   497#	   516
DRSSLT	   501#
DRYCNT	   467	   517#
DRYPRV	   467	   516#
DSKDDB	   613	   616#
DSKDSP	   608%	   624
DSKPPU	  2624#
DSKTYP	    19#	    38	    38#	    46	    57	    60	  2623	  2624
DUMPPP	  1132	  1146#
DVDIR	   626
DVDSK	   626
DVIN	   626	  2775	  2880	  2985	  3090
DVMTA	  2775	  2880	  2985	  3090
DVOUT	   626	  2775	  2880	  2985	  3090
EPT	  1458%	  1539
EPTPG0	  1539
ETSBCN	  1134	  1247#
ETSBDT	  1134	  1244#
ETSCCA	  1134	  1249#
ETSCCO	  1134	  1248#
ETSDCA	  1134	  1246#
ETSDCO	  1134	  1245#
ETSGTI	  1134	  1243#
ETSLEN	  1250#	  1251
ETSTAB	  1135	  1242#	  1250
ETSUNI	  1134	  1238#
F	   711	   713	   988	   993
FDCNI1	  2722#	  2827#	  2932#	  3037#
FDCNIE	  2723#	  2828#	  2933#	  3038#
FDERBT	  2728#	  2833#	  2938#	  3043#
FDHCNI	  2721#	  2826#	  2931#	  3036#
FDHCNT	  2720#	  2825#	  2930#	  3035#
FDHFUN	  2719#	  2824#	  2929#	  3034#
FDMEMR	  2741#	  2846#	  2951#	  3056#
FDNRE1	  2724#	  2829#	  2934#	  3039#
FDNREE	  2726#	  2831#	  2936#	  3041#
FDNWR1	  2725#	  2830#	  2935#	  3040#
FDNWRE	  2727#	  2832#	  2937#	  3042#
FDSCHR	  2735#	  2840#	  2945#	  3050#
FDSENS	  2729#	  2834#	  2939#	  3044#
FIRUNI	  1163	  3344	  3654	  3964	  4274	  4579	  4583	  4587	  4591	  4595	  4599	  4603	  4607	  4611
	  4615	  4619	  4623	  4840	  5145	  5149	  5153	  5157	  5161	  5165	  5169	  5378	  5683	  5687
	  5691	  5695	  5699	  5703	  5707	  5711	  5715	  5719	  5723	  5727	  5731	  5735	  5739	  6004
	  6309	  6313	  6317	  6321	  6325	  6329	  6333
FNBALT	   420	   448#
FNBAPD	   419	   427#
FNBATB	   419	   424#	   456
FNBDBL	   420	   445#
FNBDRB	   419	   425#
FNBEXT	   419	   423#
FNBLNK	   419	   422#	   454
FNBLOK	   420	   439#
COMMOD - COMMON DATA LOCATIONS USED BY DISK SERVICE	MACRO 12.5-46.0 14:24 13-JAN-88
COMMOD.MAC	20-NOV-87 23:00		Symbol cross reference

FNBNAM	   419	   421#	   452
FNBNX	   420	   433#
FNBRIB	   419	   426#
FNBSTS	   420	   429#	   433	   439	   443
FNBUFP	   443#	   458
FNBUPD	   420	   447#
FNCAPP	  1338#	  1348
FNCCAT	  1341#	  1349
FNCCNM	  1342#	  1349
FNCCPR	  1343#	  1349
FNCCRE	  1340#	  1348
FNCDEL	  1346#	  1349
FNCEXC	  1336#	  1348
FNCLOK	  1335#	  1348
FNCRED	  1337#	  1348
FNCSUP	  1344#	  1349
FNCTRN	  1345#	  1349
FNCUPD	  1339#	  1348
FNNLOK	   437#
FNNNX	   432#
FNNUFP	   442#	   458
FNPLOK	   420	   438#
FNPNX	   420	   434#
FNSLOK	   436#
FNSNX	   431#
FNSUFP	   441#	   458
FNYUFP	   420	   458#
FSFPPN	  1129	  1147#
FT00	    42#	  2688	  2689	  2694
FT01	    44#	  3320	  3321	  6476
FTA	    82#	  2788	  2893	  2998	  3103	  3203	  3206	  3255
FTA0CB	  2710	  2711#	  2785	  3219
FTA0DB	  2715	  2765#	  2768	  2780	  2800	  6700
FTA1CB	  2815	  2816#	  2890	  3223
FTA1DB	  2774	  2820	  2870#	  2885	  2905
FTA2CB	  2920	  2921#	  2995	  3227
FTA2DB	  2879	  2925	  2975#	  2990	  3010
FTA3CB	  3025	  3026#	  3100	  3231
FTA3DB	  2984	  3030	  3080#	  3095	  3115
FTA4DB	  3089	  3127#
FTACB	  2746	  2851	  2956	  3061	  3135#	  3141	  3244	  3256	  3264	  6701
FTACU	  3198	  3215#
FTADDB	  2768#	  2769
FTADDS	  2802#	  2803	  2907#	  2908	  3012#	  3013	  3117#	  3118
FTADSP	  2774	  2879	  2984	  3089	  3276%
FTATYP	    83#	  3253
FTAUN	    81#	  1206	  1207	  2700	  2701	  2704	  3217	  3281
FTCHN	  3131#	  3177
FTCMLN	  2419#	  2748	  2853	  2958	  3063
FTDPAG	    33	    33#	  3471	  3475	  3781	  3785	  4091	  4095	  4401	  4405	  4579	  4583	  4587	  4591
	  4595	  4599	  4603	  4607	  4611	  4615	  4619	  4623	  4967	  4971	  5145	  5149	  5153	  5157
	  5161	  5165	  5169	  5505	  5509	  5683	  5687	  5691	  5695	  5699	  5703	  5707	  5711	  5715
	  5719	  5723	  5727	  5731	  5735	  5739	  6131	  6135	  6309	  6313	  6317	  6321	  6325	  6329
COMMOD - COMMON DATA LOCATIONS USED BY DISK SERVICE	MACRO 12.5-46.0 14:24 13-JAN-88
COMMOD.MAC	20-NOV-87 23:00		Symbol cross reference

	  6333
FTFIX	  3130#	  3176
FTULNH	  2761#	  2866#	  2971#	  3076#
FTXADD	  3156#	  3174
FTXBSY	  3254#
FTXCPY	  3161#	  3186
FTXDAT	  3256#
FTXFIN	  3157#	  3175
FTXHLT	  3257#
FTXHRD	  3165#	  3193
FTXINT	  3207	  3209%
FTXLTM	  3159#	  3177
FTXMCH	  3240	  3253#
FTXOFS	  3164#	  3192
FTXPOS	  3158#	  3176
FTXRCL	  3162#	  3187
FTXRED	  3154#	  3169
FTXSFT	  3166#	  3194
FTXSM0	  3260#
FTXSMY	  3240	  3261#
FTXSNS	  3255#
FTXSP1	  3272#
FTXSPR	  3271#
FTXSS1	  3258#
FTXSS2	  3259#
FTXSTP	  3163#	  3190
FTXSTS	  3256	  3265#
FTXSX1	  3273#
FTXUPA	  3160#	  3179
FTXWRT	  3155#	  3173
HELPPP	  1132	  1149#
HOMCOD	   767#
HOMCRS	   755#
HOMDAT	   766#
HOMDCT	   764#
HOMDCV	   763#
HOMEND	   762#
HOMFEP	   747#
HOMHID	   719#
HOMHMS	   753#
HOMHSH	   760#
HOMLOG	   732#
HOMLUN	   734#
HOMMFD	   758#
HOMNAM	   718#
HOMNXT	   726#
HOMOVR	   749#
HOMP4C	   759#
HOMPRV	   729#
HOMPUF	   757#
HOMRAN	   761#
HOMREF	   739#
HOMSAT	   752#
COMMOD - COMMON DATA LOCATIONS USED BY DISK SERVICE	MACRO 12.5-46.0 14:24 13-JAN-88
COMMOD.MAC	20-NOV-87 23:00		Symbol cross reference

HOMSER	   765#
HOMSLF	   769#
HOMSNM	   722#
HOMSPG	   754#
HOMSPS	   736#
HOMSPU	   748#
HOMSUF	   756#
HOMTAB	   751#
HUNGST	   622	  2772	  2877	  2982	  3087
I	  3275
IB	  3275
IOBDRB	   130#	   131	   140
IOSALC	   136#	   139
IOSERR	   131#	   139
IOSHRE	   128#	   131	   139
IOSHWE	   129#	   131	   139
IOSRBE	   134#	   139
IOSRIB	   133#	   139
IOSSAE	   137#	   140
IOSUPR	   135#	   139
J	  1488	  1489	  1490	  1493	  1495	  1496	  1497	  1499	  1500	  1973
JOBS	    15#
KCMDTA	  1982#
KCMERR	  1981#
KCMFUS	  1980#
KCMIOS	  1983#
KCMOFL	  1984#
KCMPOS	  1978#
KCMRER	  1979#
KOBPI	  1973	  3170#	  4670#	  5216#	  5786#	  6380#
KONADD	  3174#	  4674#	  5220#	  5790#	  6384#
KONBMX	  3204#	  4704#	  5250#	  5820#	  6414#
KONBSU	  1490	  3203#	  3204	  4703#	  4704	  5249#	  5250	  5819#	  5820	  6413#	  6414
KONCHN	  1496	  3196#	  4696#	  5242#	  5812#	  6406#
KONCPY	  3186#	  4686#	  5232#	  5802#	  6396#
KONDWN	  3180#	  4680#	  5226#	  5796#	  6390#
KONERM	  1619	  1623#
KONFIN	  3175#	  4675#	  5221#	  5791#	  6385#
KONHRD	  3193#	  4693#	  5239#	  5809#	  6403#
KONIBM	  3178#	  4678#	  5224#	  5794#	  6388#
KONLEN	  3195#	  3240	  4695#	  5241#	  5811#	  6405#
KONLTM	  3177#	  3178	  4677#	  4678	  5223#	  5224	  5793#	  5794	  6387#	  6388
KONMXU	  3132#	  3206	  3208	  3234	  3235	  4632#	  4706	  4708	  4782	  4783	  5178#	  5252	  5254	  5296
	  5297	  5748#	  5822	  5824	  5898	  5899	  6342#	  6416	  6418	  6460	  6461
KONOFS	  3192#	  4692#	  5238#	  5808#	  6402#
KONPI	  1973	  3172#	  4672#	  5218#	  5788#	  6382#
KONPOS	  3176#	  4676#	  5222#	  5792#	  6386#
KONPTR	  3198#	  4698#	  5244#	  5814#	  6408#
KONRBL	  3178#	  4678#	  5224#	  5794#	  6388#
KONRCL	  3187#	  4687#	  5233#	  5803#	  6397#
KONRED	  3169#	  3170	  3195	  4669#	  4670	  4695	  5215#	  5216	  5241	  5785#	  5786	  5811	  6379#	  6380
	  6405
KONSFT	  3194#	  3195	  4694#	  4695	  5240#	  5241	  5810#	  5811	  6404#	  6405
COMMOD - COMMON DATA LOCATIONS USED BY DISK SERVICE	MACRO 12.5-46.0 14:24 13-JAN-88
COMMOD.MAC	20-NOV-87 23:00		Symbol cross reference

KONSNT	  1495	  1500	  3207#	  4707#	  5253#	  5823#	  6417#
KONSTP	  3190#	  4690#	  5236#	  5806#	  6400#
KONUMX	  1493	  3206#	  4706#	  5252#	  5822#	  6416#
KONUPA	  3179#	  3180	  4679#	  4680	  5225#	  5226	  5795#	  5796	  6389#	  6390
KONWRT	  3173#	  4673#	  5219#	  5789#	  6383#
KOPDWN	  3181#	  4681#	  5227#	  5797#	  6391#
KOPFUS	  1619	  1626#
KOPOFL	  1619	  1624#
KOSPI	  1973	  3171#	  4671#	  5217#	  5787#	  6381#
KOYPI	  1973#
LENFXL	  2784	  2889	  2994	  3099
LISTSN	     3	     6
LKBSIZ	  1199#
LVDMXL	  1133	  1202#
LVDTBL	  1133	  1137#	  1202
M	  1461	  1471	  1476	  1482	  1504	  1507	  1515	  1516	  1518	  1527	  1528	  1532	  1533	  1544
	  1545	  1548	  1549	  1557	  6566
MAGUN	    84	    84#	  1208	  1209	  2481
MAPBIT	  1273	  1309#
METSLN	  1135	  1251#
MFDPPN	  1129	  1139#
MFDPRV	   171
MFDRIB	  1227	  1231#
MFDSZ	  1225#	  1227	  1231
MT0DDB	  6700#
MT0KDB	  6701#
MTSIZ	  2772	  2877	  2982	  3087	  3276%
NMRBPC	  1182#
NMSTPC	  1187#
NODIE	    24%	  1473	  1503
NORED	   610	   630#
NOWRT	   610	   631#
NUMSTR	  1036	  1037
NXTSTR	  1037#
OLV	  3637#	  3638#	  3642	  3947#	  3948#	  3952	  4257#	  4258#	  4262	  4567#	  4568#	  4572	  4579#	  4579
	  4583#	  4583	  4587#	  4587	  4591#	  4591	  4595#	  4595	  4599#	  4599	  4603#	  4603	  4607#	  4607
	  4611#	  4611	  4615#	  4615	  4619#	  4619	  4623#	  4623	  5133#	  5135#	  5138	  5145#	  5145	  5149#
	  5149	  5153#	  5153	  5157#	  5157	  5161#	  5161	  5165#	  5165	  5169#	  5169	  5671#	  5674#	  5676
	  5683#	  5683	  5687#	  5687	  5691#	  5691	  5695#	  5695	  5699#	  5699	  5703#	  5703	  5707#	  5707
	  5711#	  5711	  5715#	  5715	  5719#	  5719	  5723#	  5723	  5727#	  5727	  5731#	  5731	  5735#	  5735
	  5739#	  5739	  6297#	  6301#	  6302	  6309#	  6309	  6313#	  6313	  6317#	  6317	  6321#	  6321	  6325#
	  6325	  6329#	  6329	  6333#	  6333
ONELVL	  1005#
OPNFPF	   163
OPRPPN	  1146#
P	    25	  1473	  1477	  1503	  1508	  1520	  1558
P1	   984	   987	   992
P2	   401	   402	   403	   404	   405	   406	   407	   408	   409	   410	   411	   986
P3	   458	  3198	  4698	  5244	  5814	  6408
P4	   516	   517
PAGCOD	   199	   202#	   767	   999	  1317
PAGNAM	   199	   201#	  1278
PAGSLF	   199	   203#	   769	  1008	  1320
COMMOD - COMMON DATA LOCATIONS USED BY DISK SERVICE	MACRO 12.5-46.0 14:24 13-JAN-88
COMMOD.MAC	20-NOV-87 23:00		Symbol cross reference

PG	  1483	  1485	  1486	  1488	  1499	  1519	  1524	  1525	  1535	  1554	  1555
PGE.A	  1538
PGE.P	  1538
PGE.W	  1538
PIDACC	   610	   635#
PORTS	    16#
PRTAPP	   787	   835#
PRTCPR	   787	   839#
PRTEXC	   787	   833#
PRTRED	   787	   834#
PRTREN	   787	   838#
PRTT4	  1473%	  1473	  1503%	  1503
PRTUPD	   787	   836#
PRTWRT	   787	   837#
PRVFIL	   146	   151	  1173
PRVUFD	   146	   153	  1175
PTNPNO	   795	   981#	   990	   991	   992	   993
PTNUNI	   795	   979#	   982	   983	   984	   985	   986	   987	   988
PTRCHG	   611	   632#
PTRLEN	   146	   155	   612	   699
PTSPNO	   795	   980#	   990	   991	   992	   993
PTSUNI	   795	   978#	   982	   983	   984	   985	   986	   987	   988
QUEPPN	  1132	  1151#
QUESTR	  1133	  1190#
RB1PNO	   796	   992#
RB1UNI	   984#
RBDLTA	   794	   973#	   976
RBINDX	   794	   971#	   976
RBLVPR	   794	  1003#
RBLVSP	   794	  1004#	  1005	  1006
RBMASK	   796	   976#
RBREAL	   794	   969#	   976
RBSPAR	   794	   967#	   976
RBYPN1	   796	   991#
RBYPNO	   796	   990#
RBYPNV	   993#
RBYUN1	   796	   983#
RBYUN4	   796	   985#
RBYUNA	   797	   986#
RBYUNI	   796	   982#
RBYUNR	   797	   987#
RBYUNV	   797	   988#
RIBALC	   793	   858#
RIBALP	   788	   954#
RIBALT	   798	   959#
RIBAUT	   793	   944#
RIBCOD	   792	   999#	  1002
RIBDEV	   793	   876#
RIBELB	   792	   921#
RIBEST	   793	   856#
RIBEXT	   786	   815#	   816
RIBFT1	   792	   860#
RIBFUT	   792	   855#
COMMOD - COMMON DATA LOCATIONS USED BY DISK SERVICE	MACRO 12.5-46.0 14:24 13-JAN-88
COMMOD.MAC	20-NOV-87 23:00		Symbol cross reference

RIBLCW	   791	   861#
RIBLST	   788	  1002#	  1003	  1004
RIBMSC	   791	   816#
RIBMTA	   789	   875#
RIBMXA	   788	   938#
RIBNAM	   786	   813#	   815
RIBPFS	   788	   996#	  1003
RIBPID	   798	   958#
RIBPJ1	   798	   956#
RIBPJ2	   798	   957#
RIBPJC	   798	   955#
RIBPOS	   793	   859#
RIBPPN	   786	   808#	   813
RIBPRV	   786	   819#	   825
RIBPVW	   791	   817#	   819
RIBQTF	   789	   923#
RIBQTO	   789	   930#
RIBRIB	   791	   800#
RIBRPS	   791	   801#
RIBSFS	   788	   806#	  1004
RIBSIZ	   788	   848#	   851
RIBSLF	   792	  1008#
RIBSNM	   791	   804#
RIBSTS	   790	   878#
RIBSZS	   791	   802#
RIBTRU	   795	   952#
RIBUN1	   786	   951#
RIBUNM	   786	   948#
RIBUSD	   789	   941#
RIBVER	   788	   851#
RIBXT1	   795	   922#
RIBXT2	   795	   953#
RINPRV	   821#	   825
RIPALC	   789	   871#
RIPBDA	   790	   888#
RIPBDR	   130	   790	   898#
RIPBFS	   790	   890#
RIPDIR	   789	   903#
RIPDMP	   862#
RIPHRE	   128	   790	   892#
RIPHWE	   129	   790	   895#
RIPLOG	   790	   881#
RIPNDL	   793	   907#
RIPNFS	   793	   912#
RIPPID	   789	   867#
RIPSPP	   901	   918#
RIPUFE	   792	   864#
RIRXCR	   787	   845#
RIRXLK	   787	   844#
RIRXRD	   787	   847#
RISPRV	   820#	   825
RIYPRV	   786	   825#
RPCBN	   121	   121#	   123	  1180	  1181	  1182
COMMOD - COMMON DATA LOCATIONS USED BY DISK SERVICE	MACRO 12.5-46.0 14:24 13-JAN-88
COMMOD.MAC	20-NOV-87 23:00		Symbol cross reference

S$CPU	  1520	  1521
S$ENTR	    24	    30	  1474	  1504	  1521
S$EVEN	  1473	  1503	  1520
S$HALT	    24	  1473	  1503	  1520
S$INFO	  1473	  1474	  1503	  1504	  1520
S$NAME	    28#
S$NONA	    27	    30	  1474	  1504	  1521
S$PATC	  1473	  1503	  1520
S$TEMP	    24#	    24	  1473#	  1473	  1503#	  1503	  1520#	  1520
S$XCT	    30	  1474	  1504	  1521
SA0INT	  6563#
SAX0	  1398#	  3296	  3297	  3298	  6485	  6486	  6487	  6563	  6570	  6571	  6572
SAX0CB	  6568#
SAX1	  1399#
SAXBAS	  3295%	  3295	  6484%	  6484
SAXBLN	  6599#	  6619
SAXBUF	  6598#	  6599	  6619
SAXC0N	    40#	  2685	  6575	  6585
SAXCHL	  1482	  1504	  1518	  6573#
SAXCHN	  1475	  1506	  1514	  3296%	  3296	  3297%	  3297	  3298%	  3298	  6485%	  6485	  6486%	  6486	  6487%
	  6487
SAXCNI	  1461	  6570#
SAXCNO	  1471	  1476	  1507	  1515	  1527	  1532	  1544	  1548	  1557	  6571#
SAXDTI	  1516	  1528	  1533	  1545	  1549	  6572#
SAXIGN	  1484	  1489	  1502#
SAXIN0	  1472	  1479#	  1502
SAXIN1	  1466	  1481#
SAXINT	  1461#	  6566
SAXINX	  1473#
SAXINY	  1503#
SAXLP1	  1490#	  1497
SAXLP2	  1492	  1496#
SAXMEM	  1463	  1513#
SAXMM1	  1520#
SAXN	    39#	  1460	  2682	  6596
SAXPTR	  6597#	  6623
SAXSAV	  6565%	  6565
SC00CB	  3203	  3291#	  6577
SC01CB	  4703	  5249	  5819	  6413	  6480#	  6581
SP4BAS	   603#
SP4OFS	   597#
SPCBN	   122	   122#	   124	  1185	  1186	  1187
SPHSIZ	   583#	   584
SPLPPN	  1129	  1152#
SPMBAS	   601#
SPMNFE	   554#
SPMOFS	   595#
SPMUSC	   575#
SPNBAS	   600#	   601	   603
SPNNFE	   552#	   553	   554	   556	   559
SPNOFS	   594#	   595	   597
SPNUSC	   573#	   574	   575
SPPNFE	   553#
COMMOD - COMMON DATA LOCATIONS USED BY DISK SERVICE	MACRO 12.5-46.0 14:24 13-JAN-88
COMMOD.MAC	20-NOV-87 23:00		Symbol cross reference

SPPUSC	   574#
SPPVIR	   578#
SPSBAS	   599#	   601	   603
SPSNFE	   551#	   554	   556	   558	   592
SPSOFS	   592#	   595	   597	   600
SPSUSC	   572#	   575
SPTATB	   562#
SPTBEG	   541#	   543	   550	   561	   562	   565	   583
SPTBLN	   543#
SPTEN1	   565#	   583
SPTLNK	   561#
SPTNFE	   550#	   556
SPTNME	   558#	   559	   571	   577	   580	   584
SPTNMM	   559#
SPTPNO	   580#
SPTSIZ	   584#
SPTUSC	   571#
SPTVIR	   577#
SPUFDS	  1227#
SPYNFE	   556#
SRPNDS	  1028#
SRPREF	  1029#
SRPRPT	  1027#
STAR	  3243#	  3263	  3264
STNPRT	  1132	  1173#
STPBAD	  1108	  1118#
STPCHK	  1108	  1120#
STPINC	  1108	  1116#
STPRPT	  1108	  1121#
STRBTS	  1026#
STRDDB	  1011#
STRHSH	  1015#
STRLEN	  1032#	  1037
STRNAM	  1014#	  1032
STRNXT	  1018#
STROVR	  1021#
STRP4C	  1017#
STRPID	  1025#
STRPPU	  1024#
STRREF	  1020#
STRSID	  1030#
STRTAL	  1022#
STRUNI	  1016#
STRUNM	  1019#
STTAOB	  1107	  1112#
STTFPC	  1107	  1111#
STTLEN	  1107	  1123#
STTPTR	  1107	  1110#	  1123
STTSTS	  1107	  1114#	  1115	  1117	  1119	  1123
STYBAD	  1107	  1117#
STYCHK	  1107	  1119#
STYINC	  1107	  1115#
SYDFTA	  1206%
COMMOD - COMMON DATA LOCATIONS USED BY DISK SERVICE	MACRO 12.5-46.0 14:24 13-JAN-88
COMMOD.MAC	20-NOV-87 23:00		Symbol cross reference

SYDTMX	  1209#
SYNRPR	   169
SYRDPR	   167
SYSCOR	  1131	  1217#
SYSDOR	  1131	  1213#
SYSDRB	  1129	  1154#
SYSNO	    10#
SYSPP	  1129	  1132	  1143#
SYSPPN	  1133	  1144#
SYSPRV	   173
SYSRIB	  1228	  1232#
SYSSZ	  1226#	  1228	  1232
SYSUNI	  1133	  1163#
T1	   983	   991	  1312	  1462	  1464	  1465	  1466	  1470	  1475	  1481	  1482	  1483	  1504	  1505
	  1506	  1513	  1514	  1517	  1518	  1519	  1526	  1529	  1531	  1534	  1536	  1537	  1538	  1539
	  1543	  1546	  1547	  1550	  1551	  1552	  1555	  1556	  2632	  6570	  6571	  6572
T2	   273	   276	   348	   982	   990	  1092	  1093	  1094	  1095	  1096	  1097	  1115	  1117	  1119
	  1311	  1481	  1486	  1487	  1491	  1494	  1513	  1522	  1523	  1524	  1525	  1529	  1530	  1534
	  1535	  1536	  1541	  1542	  1546	  1551	  1553	  1554
T3	  1490	  1491	  1493	  1494
T4	   556	   597	   603	   985	  1464	  1472	  1487	  1502
TAPES	    17#	    36	    36#	    81
TIMZON	    13#
TKBCDB	  6703#
TUBDDB	  6699#
TUBRID	  6704#
TWOLVL	  1006#
TYPAP	  3540#	  3850#	  4160#	  4470#	  4579#	  4583#	  4587#	  4591#	  4595#	  4599#	  4603#	  4607#	  4611#	  4615#
	  4619#	  4623#	  5036#	  5145#	  5149#	  5153#	  5157#	  5161#	  5165#	  5169#	  5574#	  5683#	  5687#	  5691#
	  5695#	  5699#	  5703#	  5707#	  5711#	  5715#	  5719#	  5723#	  5727#	  5731#	  5735#	  5739#	  6200#	  6309#
	  6313#	  6317#	  6321#	  6325#	  6329#	  6333#
TYPBP	  3482	  3538#	  3792	  3848#	  4102	  4158#	  4412	  4468#	  4579	  4579#	  4583	  4583#	  4587	  4587#
	  4591	  4591#	  4595	  4595#	  4599	  4599#	  4603	  4603#	  4607	  4607#	  4611	  4611#	  4615	  4615#
	  4619	  4619#	  4623	  4623#	  4978	  5034#	  5145	  5145#	  5149	  5149#	  5153	  5153#	  5157	  5157#
	  5161	  5161#	  5165	  5165#	  5169	  5169#	  5516	  5572#	  5683	  5683#	  5687	  5687#	  5691	  5691#
	  5695	  5695#	  5699	  5699#	  5703	  5703#	  5707	  5707#	  5711	  5711#	  5715	  5715#	  5719	  5719#
	  5723	  5723#	  5727	  5727#	  5731	  5731#	  5735	  5735#	  5739	  5739#	  6142	  6198#	  6309	  6309#
	  6313	  6313#	  6317	  6317#	  6321	  6321#	  6325	  6325#	  6329	  6329#	  6333	  6333#
TYPDP	  1666#	  3536#	  3846#	  4156#	  4466#	  4579#	  4583#	  4587#	  4591#	  4595#	  4599#	  4603#	  4607#	  4611#
	  4615#	  4619#	  4623#	  5032#	  5145#	  5149#	  5153#	  5157#	  5161#	  5165#	  5169#	  5570#	  5683#	  5687#
	  5691#	  5695#	  5699#	  5703#	  5707#	  5711#	  5715#	  5719#	  5723#	  5727#	  5731#	  5735#	  5739#	  6196#
	  6309#	  6313#	  6317#	  6321#	  6325#	  6329#	  6333#
TYPFH	  3535#	  3845#	  4155#	  4465#	  4579#	  4583#	  4587#	  4591#	  4595#	  4599#	  4603#	  4607#	  4611#	  4615#
	  4619#	  4623#	  5031#	  5145#	  5149#	  5153#	  5157#	  5161#	  5165#	  5169#	  5569#	  5683#	  5687#	  5691#
	  5695#	  5699#	  5703#	  5707#	  5711#	  5715#	  5719#	  5723#	  5727#	  5731#	  5735#	  5739#	  6195#	  6309#
	  6313#	  6317#	  6321#	  6325#	  6329#	  6333#
TYPFT	  3534#	  3844#	  4154#	  4464#	  4579#	  4583#	  4587#	  4591#	  4595#	  4599#	  4603#	  4607#	  4611#	  4615#
	  4619#	  4623#	  5030#	  5145#	  5149#	  5153#	  5157#	  5161#	  5165#	  5169#	  5568#	  5683#	  5687#	  5691#
	  5695#	  5699#	  5703#	  5707#	  5711#	  5715#	  5719#	  5723#	  5727#	  5731#	  5735#	  5739#	  6194#	  6309#
	  6313#	  6317#	  6321#	  6325#	  6329#	  6333#
TYPMD	  3537#	  3847#	  4157#	  4467#	  4579#	  4583#	  4587#	  4591#	  4595#	  4599#	  4603#	  4607#	  4611#	  4615#
	  4619#	  4623#	  5033#	  5145#	  5149#	  5153#	  5157#	  5161#	  5165#	  5169#	  5571#	  5683#	  5687#	  5691#
	  5695#	  5699#	  5703#	  5707#	  5711#	  5715#	  5719#	  5723#	  5727#	  5731#	  5735#	  5739#	  6197#	  6309#
COMMOD - COMMON DATA LOCATIONS USED BY DISK SERVICE	MACRO 12.5-46.0 14:24 13-JAN-88
COMMOD.MAC	20-NOV-87 23:00		Symbol cross reference

	  6313#	  6317#	  6321#	  6325#	  6329#	  6333#
TYPRM	  3539#	  3849#	  4159#	  4469#	  4579#	  4583#	  4587#	  4591#	  4595#	  4599#	  4603#	  4607#	  4611#	  4615#
	  4619#	  4623#	  5035#	  5145#	  5149#	  5153#	  5157#	  5161#	  5165#	  5169#	  5573#	  5683#	  5687#	  5691#
	  5695#	  5699#	  5703#	  5707#	  5711#	  5715#	  5719#	  5723#	  5727#	  5731#	  5735#	  5739#	  6199#	  6309#
	  6313#	  6317#	  6321#	  6325#	  6329#	  6333#
U	  2625	  2626	  2627	  2628	  2629	  2630	  2631	  2633	  2634	  2635	  2636	  2637	  2638	  2639
	  2640	  2641	  2642	  2643	  2644	  2645	  2646	  2647	  2648	  2649	  2650
UFDALP	  1045	  1082#
UFDCDT	  1045	  1079#	  1097
UFDCTM	  1076#	  1096
UFDERR	  1044	  1050#
UFDEXT	  1045	  1048#
UFDHSI	  1044	  1086#
UFDLIC	  1045	  1083#
UFDLNK	  1044	  1087#
UFDNAM	  1045	  1047#
UFDPRT	  1133	  1175#
UFDPRV	  1067#	  1094
UFDRIB	  1044	  1084#
UFDSIZ	  1044	  1088#
UFDUF1	  1070#	  1093
UFDUF2	  1049#	  1050	  1092
UFDXCD	  1073#	  1095
UFNCDT	  1081#	  1097
UFNCTM	  1078#	  1096
UFNPRV	  1069#	  1094
UFNUF1	  1072#	  1093
UFNUF2	  1052#	  1092
UFNXCD	  1075#	  1095
UFPALC	  1060#
UFPDMP	  1054#
UFPERR	  1044	  1055#
UFPPID	  1056#
UFPTMP	  1062#
UFRXCR	  1328#	  1331
UFRXLK	  1327#	  1331
UFRXRD	  1329#	  1331
UFSCDT	  1080#	  1097
UFSCTM	  1077#	  1096
UFSPRV	  1068#	  1094
UFSUF1	  1071#	  1093
UFSUF2	  1051#	  1092
UFSXCD	  1074#	  1095
UFYCDT	  1046	  1097#
UFYCTM	  1046	  1096#
UFYPRV	  1045	  1094#
UFYUF1	  1044	  1093#
UFYUF2	  1044	  1092#
UFYXCD	  1045	  1095#
UNIACT	  3633#	  3943#	  4253#	  4563#	  4579#	  4583#	  4587#	  4591#	  4595#	  4599#	  4603#	  4607#	  4611#	  4615#
	  4619#	  4623#	  5129#	  5145#	  5149#	  5153#	  5157#	  5161#	  5165#	  5169#	  5667#	  5683#	  5687#	  5691#
	  5695#	  5699#	  5703#	  5707#	  5711#	  5715#	  5719#	  5723#	  5727#	  5731#	  5735#	  5739#	  6293#	  6309#
	  6313#	  6317#	  6321#	  6325#	  6329#	  6333#
COMMOD - COMMON DATA LOCATIONS USED BY DISK SERVICE	MACRO 12.5-46.0 14:24 13-JAN-88
COMMOD.MAC	20-NOV-87 23:00		Symbol cross reference

UNIBLK	  3472#	  3473	  3782#	  3783	  4092#	  4093	  4402#	  4403	  4579#	  4579	  4583#	  4583	  4587#	  4587
	  4591#	  4591	  4595#	  4595	  4599#	  4599	  4603#	  4603	  4607#	  4607	  4611#	  4611	  4615#	  4615
	  4619#	  4619	  4623#	  4623	  4968#	  4969	  5145#	  5145	  5149#	  5149	  5153#	  5153	  5157#	  5157
	  5161#	  5161	  5165#	  5165	  5169#	  5169	  5506#	  5507	  5683#	  5683	  5687#	  5687	  5691#	  5691
	  5695#	  5695	  5699#	  5699	  5703#	  5703	  5707#	  5707	  5711#	  5711	  5715#	  5715	  5719#	  5719
	  5723#	  5723	  5727#	  5727	  5731#	  5731	  5735#	  5735	  5739#	  5739	  6132#	  6133	  6309#	  6309
	  6313#	  6313	  6317#	  6317	  6321#	  6321	  6325#	  6325	  6329#	  6329	  6333#	  6333
UNIBPR	  2634	  3453#	  3763#	  4073#	  4383#	  4579#	  4583#	  4587#	  4591#	  4595#	  4599#	  4603#	  4607#	  4611#
	  4615#	  4619#	  4623#	  4949#	  5145#	  5149#	  5153#	  5157#	  5161#	  5165#	  5169#	  5487#	  5683#	  5687#
	  5691#	  5695#	  5699#	  5703#	  5707#	  5711#	  5715#	  5719#	  5723#	  5727#	  5731#	  5735#	  5739#	  6113#
	  6309#	  6313#	  6317#	  6321#	  6325#	  6329#	  6333#
UNIBPT	  2635	  2636	  3456#	  3766#	  4076#	  4386#	  4579#	  4583#	  4587#	  4591#	  4595#	  4599#	  4603#	  4607#
	  4611#	  4615#	  4619#	  4623#	  4952#	  5145#	  5149#	  5153#	  5157#	  5161#	  5165#	  5169#	  5490#	  5683#
	  5687#	  5691#	  5695#	  5699#	  5703#	  5707#	  5711#	  5715#	  5719#	  5723#	  5727#	  5731#	  5735#	  5739#
	  6116#	  6309#	  6313#	  6317#	  6321#	  6325#	  6329#	  6333#
UNIBPY	  2637	  2638	  3459#	  3769#	  4079#	  4389#	  4579#	  4583#	  4587#	  4591#	  4595#	  4599#	  4603#	  4607#
	  4611#	  4615#	  4619#	  4623#	  4955#	  5145#	  5149#	  5153#	  5157#	  5161#	  5165#	  5169#	  5493#	  5683#
	  5687#	  5691#	  5695#	  5699#	  5703#	  5707#	  5711#	  5715#	  5719#	  5723#	  5727#	  5731#	  5735#	  5739#
	  6119#	  6309#	  6313#	  6317#	  6321#	  6325#	  6329#	  6333#
UNIBRC	  3408#	  3718#	  4028#	  4338#	  4579#	  4583#	  4587#	  4591#	  4595#	  4599#	  4603#	  4607#	  4611#	  4615#
	  4619#	  4623#	  4904#	  5145#	  5149#	  5153#	  5157#	  5161#	  5165#	  5169#	  5442#	  5683#	  5687#	  5691#
	  5695#	  5699#	  5703#	  5707#	  5711#	  5715#	  5719#	  5723#	  5727#	  5731#	  5735#	  5739#	  6068#	  6309#
	  6313#	  6317#	  6321#	  6325#	  6329#	  6333#
UNIBWC	  3409#	  3719#	  4029#	  4339#	  4579#	  4583#	  4587#	  4591#	  4595#	  4599#	  4603#	  4607#	  4611#	  4615#
	  4619#	  4623#	  4905#	  5145#	  5149#	  5153#	  5157#	  5161#	  5165#	  5169#	  5443#	  5683#	  5687#	  5691#
	  5695#	  5699#	  5703#	  5707#	  5711#	  5715#	  5719#	  5723#	  5727#	  5731#	  5735#	  5739#	  6069#	  6309#
	  6313#	  6317#	  6321#	  6325#	  6329#	  6333#
UNICCC	  3624#	  3934#	  4244#	  4554#	  4579#	  4583#	  4587#	  4591#	  4595#	  4599#	  4603#	  4607#	  4611#	  4615#
	  4619#	  4623#	  5120#	  5145#	  5149#	  5153#	  5157#	  5161#	  5165#	  5169#	  5658#	  5683#	  5687#	  5691#
	  5695#	  5699#	  5703#	  5707#	  5711#	  5715#	  5719#	  5723#	  5727#	  5731#	  5735#	  5739#	  6284#	  6309#
	  6313#	  6317#	  6321#	  6325#	  6329#	  6333#
UNICDA	  3449#	  3759#	  4069#	  4379#	  4579#	  4583#	  4587#	  4591#	  4595#	  4599#	  4603#	  4607#	  4611#	  4615#
	  4619#	  4623#	  4945#	  5145#	  5149#	  5153#	  5157#	  5161#	  5165#	  5169#	  5483#	  5683#	  5687#	  5691#
	  5695#	  5699#	  5703#	  5707#	  5711#	  5715#	  5719#	  5723#	  5727#	  5731#	  5735#	  5739#	  6109#	  6309#
	  6313#	  6317#	  6321#	  6325#	  6329#	  6333#
UNICHN	  3371#	  3681#	  3991#	  4301#	  4579#	  4583#	  4587#	  4591#	  4595#	  4599#	  4603#	  4607#	  4611#	  4615#
	  4619#	  4623#	  4867#	  5145#	  5149#	  5153#	  5157#	  5161#	  5165#	  5169#	  5405#	  5683#	  5687#	  5691#
	  5695#	  5699#	  5703#	  5707#	  5711#	  5715#	  5719#	  5723#	  5727#	  5731#	  5735#	  5739#	  6031#	  6309#
	  6313#	  6317#	  6321#	  6325#	  6329#	  6333#	  6703
UNICHR	  3451#	  3453	  3456	  3459	  3761#	  3763	  3766	  3769	  4071#	  4073	  4076	  4079	  4381#	  4383
	  4386	  4389	  4579#	  4579	  4583#	  4583	  4587#	  4587	  4591#	  4591	  4595#	  4595	  4599#	  4599
	  4603#	  4603	  4607#	  4607	  4611#	  4611	  4615#	  4615	  4619#	  4619	  4623#	  4623	  4947#	  4949
	  4952	  4955	  5145#	  5145	  5149#	  5149	  5153#	  5153	  5157#	  5157	  5161#	  5161	  5165#	  5165
	  5169#	  5169	  5485#	  5487	  5490	  5493	  5683#	  5683	  5687#	  5687	  5691#	  5691	  5695#	  5695
	  5699#	  5699	  5703#	  5703	  5707#	  5707	  5711#	  5711	  5715#	  5715	  5719#	  5719	  5723#	  5723
	  5727#	  5727	  5731#	  5731	  5735#	  5735	  5739#	  5739	  6111#	  6113	  6116	  6119	  6309#	  6309
	  6313#	  6313	  6317#	  6317	  6321#	  6321	  6325#	  6325	  6329#	  6329	  6333#	  6333
UNICMD	  2748#	  2853#	  2958#	  3063#
UNICNA	  3622#	  3932#	  4242#	  4552#	  4579#	  4583#	  4587#	  4591#	  4595#	  4599#	  4603#	  4607#	  4611#	  4615#
	  4619#	  4623#	  5118#	  5145#	  5149#	  5153#	  5157#	  5161#	  5165#	  5169#	  5656#	  5683#	  5687#	  5691#
	  5695#	  5699#	  5703#	  5707#	  5711#	  5715#	  5719#	  5723#	  5727#	  5731#	  5735#	  5739#	  6282#	  6309#
	  6313#	  6317#	  6321#	  6325#	  6329#	  6333#
UNICNC	  3623#	  3933#	  4243#	  4553#	  4579#	  4583#	  4587#	  4591#	  4595#	  4599#	  4603#	  4607#	  4611#	  4615#
COMMOD - COMMON DATA LOCATIONS USED BY DISK SERVICE	MACRO 12.5-46.0 14:24 13-JAN-88
COMMOD.MAC	20-NOV-87 23:00		Symbol cross reference

	  4619#	  4623#	  5119#	  5145#	  5149#	  5153#	  5157#	  5161#	  5165#	  5169#	  5657#	  5683#	  5687#	  5691#	  5695#
	  5699#	  5703#	  5707#	  5711#	  5715#	  5719#	  5723#	  5727#	  5731#	  5735#	  5739#	  6283#	  6309#	  6313#
	  6317#	  6321#	  6325#	  6329#	  6333#
UNICOM	  3634#	  3944#	  4254#	  4564#	  4579#	  4583#	  4587#	  4591#	  4595#	  4599#	  4603#	  4607#	  4611#	  4615#
	  4619#	  4623#	  5130#	  5145#	  5149#	  5153#	  5157#	  5161#	  5165#	  5169#	  5668#	  5683#	  5687#	  5691#
	  5695#	  5699#	  5703#	  5707#	  5711#	  5715#	  5719#	  5723#	  5727#	  5731#	  5735#	  5739#	  6294#	  6309#
	  6313#	  6317#	  6321#	  6325#	  6329#	  6333#
UNICYL	  3468#	  3778#	  4088#	  4398#	  4579#	  4583#	  4587#	  4591#	  4595#	  4599#	  4603#	  4607#	  4611#	  4615#
	  4619#	  4623#	  4964#	  5145#	  5149#	  5153#	  5157#	  5161#	  5165#	  5169#	  5502#	  5683#	  5687#	  5691#
	  5695#	  5699#	  5703#	  5707#	  5711#	  5715#	  5719#	  5723#	  5727#	  5731#	  5735#	  5739#	  6128#	  6309#
	  6313#	  6317#	  6321#	  6325#	  6329#	  6333#
UNIDC1	  2753#	  2858#	  2963#	  3068#
UNIDCN	  2752#	  2857#	  2962#	  3067#
UNIDCR	  2750#	  2855#	  2960#	  3065#
UNIDDB	  2715#	  2761	  2820#	  2866	  2925#	  2971	  3030#	  3076	  6699
UNIDES	  3482#	  3509	  3527	  3530	  3543	  3546	  3568	  3792#	  3819	  3837	  3840	  3853	  3856	  3878
	  4102#	  4129	  4147	  4150	  4163	  4166	  4188	  4412#	  4439	  4457	  4460	  4473	  4476	  4498
	  4579#	  4579	  4583#	  4583	  4587#	  4587	  4591#	  4591	  4595#	  4595	  4599#	  4599	  4603#	  4603
	  4607#	  4607	  4611#	  4611	  4615#	  4615	  4619#	  4619	  4623#	  4623	  4978#	  5005	  5023	  5026
	  5039	  5042	  5064	  5145#	  5145	  5149#	  5149	  5153#	  5153	  5157#	  5157	  5161#	  5161	  5165#
	  5165	  5169#	  5169	  5516#	  5543	  5561	  5564	  5577	  5580	  5602	  5683#	  5683	  5687#	  5687
	  5691#	  5691	  5695#	  5695	  5699#	  5699	  5703#	  5703	  5707#	  5707	  5711#	  5711	  5715#	  5715
	  5719#	  5719	  5723#	  5723	  5727#	  5727	  5731#	  5731	  5735#	  5735	  5739#	  5739	  6142#	  6169
	  6187	  6190	  6203	  6206	  6228	  6309#	  6309	  6313#	  6313	  6317#	  6317	  6321#	  6321	  6325#
	  6325	  6329#	  6329	  6333#	  6333
UNIDIR	  3587#	  3589	  3592	  3595	  3598	  3897#	  3899	  3902	  3905	  3908	  4207#	  4209	  4212	  4215
	  4218	  4517#	  4519	  4522	  4525	  4528	  4579#	  4579	  4583#	  4583	  4587#	  4587	  4591#	  4591
	  4595#	  4595	  4599#	  4599	  4603#	  4603	  4607#	  4607	  4611#	  4611	  4615#	  4615	  4619#	  4619
	  4623#	  4623	  5083#	  5085	  5088	  5091	  5094	  5145#	  5145	  5149#	  5149	  5153#	  5153	  5157#
	  5157	  5161#	  5161	  5165#	  5165	  5169#	  5169	  5621#	  5623	  5626	  5629	  5632	  5683#	  5683
	  5687#	  5687	  5691#	  5691	  5695#	  5695	  5699#	  5699	  5703#	  5703	  5707#	  5707	  5711#	  5711
	  5715#	  5715	  5719#	  5719	  5723#	  5723	  5727#	  5727	  5731#	  5731	  5735#	  5735	  5739#	  5739
	  6247#	  6249	  6252	  6255	  6258	  6309#	  6309	  6313#	  6313	  6317#	  6317	  6321#	  6321	  6325#
	  6325	  6329#	  6329	  6333#	  6333
UNIDON	  2749#	  2854#	  2959#	  3064#
UNIDRC	  3410#	  3720#	  4030#	  4340#	  4579#	  4583#	  4587#	  4591#	  4595#	  4599#	  4603#	  4607#	  4611#	  4615#
	  4619#	  4623#	  4906#	  5145#	  5149#	  5153#	  5157#	  5161#	  5165#	  5169#	  5444#	  5683#	  5687#	  5691#
	  5695#	  5699#	  5703#	  5707#	  5711#	  5715#	  5719#	  5723#	  5727#	  5731#	  5735#	  5739#	  6070#	  6309#
	  6313#	  6317#	  6321#	  6325#	  6329#	  6333#
UNIDWC	  3411#	  3721#	  4031#	  4341#	  4579#	  4583#	  4587#	  4591#	  4595#	  4599#	  4603#	  4607#	  4611#	  4615#
	  4619#	  4623#	  4907#	  5145#	  5149#	  5153#	  5157#	  5161#	  5165#	  5169#	  5445#	  5683#	  5687#	  5691#
	  5695#	  5699#	  5703#	  5707#	  5711#	  5715#	  5719#	  5723#	  5727#	  5731#	  5735#	  5739#	  6071#	  6309#
	  6313#	  6317#	  6321#	  6325#	  6329#	  6333#
UNIECT	  3431#	  3741#	  4051#	  4361#	  4579#	  4583#	  4587#	  4591#	  4595#	  4599#	  4603#	  4607#	  4611#	  4615#
	  4619#	  4623#	  4927#	  5145#	  5149#	  5153#	  5157#	  5161#	  5165#	  5169#	  5465#	  5683#	  5687#	  5691#
	  5695#	  5699#	  5703#	  5707#	  5711#	  5715#	  5719#	  5723#	  5727#	  5731#	  5735#	  5739#	  6091#	  6309#
	  6313#	  6317#	  6321#	  6325#	  6329#	  6333#
UNIERO	  2747#	  2852#	  2957#	  3062#
UNIERR	  3397#	  3707#	  4017#	  4327#	  4579#	  4583#	  4587#	  4591#	  4595#	  4599#	  4603#	  4607#	  4611#	  4615#
	  4619#	  4623#	  4893#	  5145#	  5149#	  5153#	  5157#	  5161#	  5165#	  5169#	  5431#	  5683#	  5687#	  5691#
	  5695#	  5699#	  5703#	  5707#	  5711#	  5715#	  5719#	  5723#	  5727#	  5731#	  5735#	  5739#	  6057#	  6309#
	  6313#	  6317#	  6321#	  6325#	  6329#	  6333#
UNIFCT	  3586#	  3896#	  4206#	  4516#	  4579#	  4583#	  4587#	  4591#	  4595#	  4599#	  4603#	  4607#	  4611#	  4615#
COMMOD - COMMON DATA LOCATIONS USED BY DISK SERVICE	MACRO 12.5-46.0 14:24 13-JAN-88
COMMOD.MAC	20-NOV-87 23:00		Symbol cross reference

	  4619#	  4623#	  5082#	  5145#	  5149#	  5153#	  5157#	  5161#	  5165#	  5169#	  5620#	  5683#	  5687#	  5691#	  5695#
	  5699#	  5703#	  5707#	  5711#	  5715#	  5719#	  5723#	  5727#	  5731#	  5735#	  5739#	  6246#	  6309#	  6313#
	  6317#	  6321#	  6325#	  6329#	  6333#
UNIFEP	  3378#	  3688#	  3998#	  4308#	  4579#	  4583#	  4587#	  4591#	  4595#	  4599#	  4603#	  4607#	  4611#	  4615#
	  4619#	  4623#	  4874#	  5145#	  5149#	  5153#	  5157#	  5161#	  5165#	  5169#	  5412#	  5683#	  5687#	  5691#
	  5695#	  5699#	  5703#	  5707#	  5711#	  5715#	  5719#	  5723#	  5727#	  5731#	  5735#	  5739#	  6038#	  6309#
	  6313#	  6317#	  6321#	  6325#	  6329#	  6333#
UNIHBN	  3402#	  3712#	  4022#	  4332#	  4579#	  4583#	  4587#	  4591#	  4595#	  4599#	  4603#	  4607#	  4611#	  4615#
	  4619#	  4623#	  4898#	  5145#	  5149#	  5153#	  5157#	  5161#	  5165#	  5169#	  5436#	  5683#	  5687#	  5691#
	  5695#	  5699#	  5703#	  5707#	  5711#	  5715#	  5719#	  5723#	  5727#	  5731#	  5735#	  5739#	  6062#	  6309#
	  6313#	  6317#	  6321#	  6325#	  6329#	  6333#
UNIHCT	  3383#	  3693#	  4003#	  4313#	  4579#	  4583#	  4587#	  4591#	  4595#	  4599#	  4603#	  4607#	  4611#	  4615#
	  4619#	  4623#	  4879#	  5145#	  5149#	  5153#	  5157#	  5161#	  5165#	  5169#	  5417#	  5683#	  5687#	  5691#
	  5695#	  5699#	  5703#	  5707#	  5711#	  5715#	  5719#	  5723#	  5727#	  5731#	  5735#	  5739#	  6043#	  6309#
	  6313#	  6317#	  6321#	  6325#	  6329#	  6333#
UNIHDI	  3429#	  3739#	  4049#	  4359#	  4579#	  4583#	  4587#	  4591#	  4595#	  4599#	  4603#	  4607#	  4611#	  4615#
	  4619#	  4623#	  4925#	  5145#	  5149#	  5153#	  5157#	  5161#	  5165#	  5169#	  5463#	  5683#	  5687#	  5691#
	  5695#	  5699#	  5703#	  5707#	  5711#	  5715#	  5719#	  5723#	  5727#	  5731#	  5735#	  5739#	  6089#	  6309#
	  6313#	  6317#	  6321#	  6325#	  6329#	  6333#
UNIHID	  3355#	  3665#	  3975#	  4285#	  4579#	  4583#	  4587#	  4591#	  4595#	  4599#	  4603#	  4607#	  4611#	  4615#
	  4619#	  4623#	  4851#	  5145#	  5149#	  5153#	  5157#	  5161#	  5165#	  5169#	  5389#	  5683#	  5687#	  5691#
	  5695#	  5699#	  5703#	  5707#	  5711#	  5715#	  5719#	  5723#	  5727#	  5731#	  5735#	  5739#	  6015#	  6309#
	  6313#	  6317#	  6321#	  6325#	  6329#	  6333#
UNIHNG	  3414#	  3724#	  4034#	  4344#	  4579#	  4583#	  4587#	  4591#	  4595#	  4599#	  4603#	  4607#	  4611#	  4615#
	  4619#	  4623#	  4910#	  5145#	  5149#	  5153#	  5157#	  5161#	  5165#	  5169#	  5448#	  5683#	  5687#	  5691#
	  5695#	  5699#	  5703#	  5707#	  5711#	  5715#	  5719#	  5723#	  5727#	  5731#	  5735#	  5739#	  6074#	  6309#
	  6313#	  6317#	  6321#	  6325#	  6329#	  6333#
UNIICT	  3417#	  3727#	  4037#	  4347#	  4579#	  4583#	  4587#	  4591#	  4595#	  4599#	  4603#	  4607#	  4611#	  4615#
	  4619#	  4623#	  4913#	  5145#	  5149#	  5153#	  5157#	  5161#	  5165#	  5169#	  5451#	  5683#	  5687#	  5691#
	  5695#	  5699#	  5703#	  5707#	  5711#	  5715#	  5719#	  5723#	  5727#	  5731#	  5735#	  5739#	  6077#	  6309#
	  6313#	  6317#	  6321#	  6325#	  6329#	  6333#
UNIKNM	  2628	  3543#	  3853#	  4163#	  4473#	  4579#	  4583#	  4587#	  4591#	  4595#	  4599#	  4603#	  4607#	  4611#
	  4615#	  4619#	  4623#	  5039#	  5145#	  5149#	  5153#	  5157#	  5161#	  5165#	  5169#	  5577#	  5683#	  5687#
	  5691#	  5695#	  5699#	  5703#	  5707#	  5711#	  5715#	  5719#	  5723#	  5727#	  5731#	  5735#	  5739#	  6203#
	  6309#	  6313#	  6317#	  6321#	  6325#	  6329#	  6333#
UNIKNT	  2746#	  2851#	  2956#	  3061#
UNIKON	  3375#	  3685#	  3995#	  4305#	  4579#	  4583#	  4587#	  4591#	  4595#	  4599#	  4603#	  4607#	  4611#	  4615#
	  4619#	  4623#	  4871#	  5145#	  5149#	  5153#	  5157#	  5161#	  5165#	  5169#	  5409#	  5683#	  5687#	  5691#
	  5695#	  5699#	  5703#	  5707#	  5711#	  5715#	  5719#	  5723#	  5727#	  5731#	  5735#	  5739#	  6035#	  6309#
	  6313#	  6317#	  6321#	  6325#	  6329#	  6333#
UNIKTP	  2627	  3530#	  3840#	  4150#	  4460#	  4579#	  4583#	  4587#	  4591#	  4595#	  4599#	  4603#	  4607#	  4611#
	  4615#	  4619#	  4623#	  5026#	  5145#	  5149#	  5153#	  5157#	  5161#	  5165#	  5169#	  5564#	  5683#	  5687#
	  5691#	  5695#	  5699#	  5703#	  5707#	  5711#	  5715#	  5719#	  5723#	  5727#	  5731#	  5735#	  5739#	  6190#
	  6309#	  6313#	  6317#	  6321#	  6325#	  6329#	  6333#
UNILNK	  2716#	  2821#	  2926#	  3031#
UNILOG	  3352#	  3662#	  3972#	  4282#	  4579#	  4583#	  4587#	  4591#	  4595#	  4599#	  4603#	  4607#	  4611#	  4615#
	  4619#	  4623#	  4848#	  5145#	  5149#	  5153#	  5157#	  5161#	  5165#	  5169#	  5386#	  5683#	  5687#	  5691#
	  5695#	  5699#	  5703#	  5707#	  5711#	  5715#	  5719#	  5723#	  5727#	  5731#	  5735#	  5739#	  6012#	  6309#
	  6313#	  6317#	  6321#	  6325#	  6329#	  6333#
UNILUN	  2631	  2632	  3361#	  3671#	  3981#	  4291#	  4579#	  4583#	  4587#	  4591#	  4595#	  4599#	  4603#	  4607#
	  4611#	  4615#	  4619#	  4623#	  4857#	  5145#	  5149#	  5153#	  5157#	  5161#	  5165#	  5169#	  5395#	  5683#
	  5687#	  5691#	  5695#	  5699#	  5703#	  5707#	  5711#	  5715#	  5719#	  5723#	  5727#	  5731#	  5735#	  5739#
	  6021#	  6309#	  6313#	  6317#	  6321#	  6325#	  6329#	  6333#
COMMOD - COMMON DATA LOCATIONS USED BY DISK SERVICE	MACRO 12.5-46.0 14:24 13-JAN-88
COMMOD.MAC	20-NOV-87 23:00		Symbol cross reference

UNIMCT	  3390#	  3700#	  4010#	  4320#	  4579#	  4583#	  4587#	  4591#	  4595#	  4599#	  4603#	  4607#	  4611#	  4615#
	  4619#	  4623#	  4886#	  5145#	  5149#	  5153#	  5157#	  5161#	  5165#	  5169#	  5424#	  5683#	  5687#	  5691#
	  5695#	  5699#	  5703#	  5707#	  5711#	  5715#	  5719#	  5723#	  5727#	  5731#	  5735#	  5739#	  6050#	  6309#
	  6313#	  6317#	  6321#	  6325#	  6329#	  6333#
UNIMRC	  3412#	  3722#	  4032#	  4342#	  4579#	  4583#	  4587#	  4591#	  4595#	  4599#	  4603#	  4607#	  4611#	  4615#
	  4619#	  4623#	  4908#	  5145#	  5149#	  5153#	  5157#	  5161#	  5165#	  5169#	  5446#	  5683#	  5687#	  5691#
	  5695#	  5699#	  5703#	  5707#	  5711#	  5715#	  5719#	  5723#	  5727#	  5731#	  5735#	  5739#	  6072#	  6309#
	  6313#	  6317#	  6321#	  6325#	  6329#	  6333#
UNIMSC	  3421#	  3731#	  4041#	  4351#	  4579#	  4583#	  4587#	  4591#	  4595#	  4599#	  4603#	  4607#	  4611#	  4615#
	  4619#	  4623#	  4917#	  5145#	  5149#	  5153#	  5157#	  5161#	  5165#	  5169#	  5455#	  5683#	  5687#	  5691#
	  5695#	  5699#	  5703#	  5707#	  5711#	  5715#	  5719#	  5723#	  5727#	  5731#	  5735#	  5739#	  6081#	  6309#
	  6313#	  6317#	  6321#	  6325#	  6329#	  6333#
UNIMWC	  3413#	  3723#	  4033#	  4343#	  4579#	  4583#	  4587#	  4591#	  4595#	  4599#	  4603#	  4607#	  4611#	  4615#
	  4619#	  4623#	  4909#	  5145#	  5149#	  5153#	  5157#	  5161#	  5165#	  5169#	  5447#	  5683#	  5687#	  5691#
	  5695#	  5699#	  5703#	  5707#	  5711#	  5715#	  5719#	  5723#	  5727#	  5731#	  5735#	  5739#	  6073#	  6309#
	  6313#	  6317#	  6321#	  6325#	  6329#	  6333#
UNINAM	  3346#	  3656#	  3966#	  4276#	  4579#	  4583#	  4587#	  4591#	  4595#	  4599#	  4603#	  4607#	  4611#	  4615#
	  4619#	  4623#	  4842#	  5145#	  5149#	  5153#	  5157#	  5161#	  5165#	  5169#	  5380#	  5683#	  5687#	  5691#
	  5695#	  5699#	  5703#	  5707#	  5711#	  5715#	  5719#	  5723#	  5727#	  5731#	  5735#	  5739#	  6006#	  6309#
	  6313#	  6317#	  6321#	  6325#	  6329#	  6333#
UNIOCT	  3418#	  3728#	  4038#	  4348#	  4579#	  4583#	  4587#	  4591#	  4595#	  4599#	  4603#	  4607#	  4611#	  4615#
	  4619#	  4623#	  4914#	  5145#	  5149#	  5153#	  5157#	  5161#	  5165#	  5169#	  5452#	  5683#	  5687#	  5691#
	  5695#	  5699#	  5703#	  5707#	  5711#	  5715#	  5719#	  5723#	  5727#	  5731#	  5735#	  5739#	  6078#	  6309#
	  6313#	  6317#	  6321#	  6325#	  6329#	  6333#
UNIOCV	  2646	  3604#	  3914#	  4224#	  4534#	  4579#	  4583#	  4587#	  4591#	  4595#	  4599#	  4603#	  4607#	  4611#
	  4615#	  4619#	  4623#	  5100#	  5145#	  5149#	  5153#	  5157#	  5161#	  5165#	  5169#	  5638#	  5683#	  5687#
	  5691#	  5695#	  5699#	  5703#	  5707#	  5711#	  5715#	  5719#	  5723#	  5727#	  5731#	  5735#	  5739#	  6264#
	  6309#	  6313#	  6317#	  6321#	  6325#	  6329#	  6333#
UNIOLV	  3642#	  3952#	  4262#	  4572#	  4579#	  4583#	  4587#	  4591#	  4595#	  4599#	  4603#	  4607#	  4611#	  4615#
	  4619#	  4623#	  5138#	  5145#	  5149#	  5153#	  5157#	  5161#	  5165#	  5169#	  5676#	  5683#	  5687#	  5691#
	  5695#	  5699#	  5703#	  5707#	  5711#	  5715#	  5719#	  5723#	  5727#	  5731#	  5735#	  5739#	  6302#	  6309#
	  6313#	  6317#	  6321#	  6325#	  6329#	  6333#
UNIONC	  3473#	  3783#	  4093#	  4403#	  4579#	  4583#	  4587#	  4591#	  4595#	  4599#	  4603#	  4607#	  4611#	  4615#
	  4619#	  4623#	  4969#	  5145#	  5149#	  5153#	  5157#	  5161#	  5165#	  5169#	  5507#	  5683#	  5687#	  5691#
	  5695#	  5699#	  5703#	  5707#	  5711#	  5715#	  5719#	  5723#	  5727#	  5731#	  5735#	  5739#	  6133#	  6309#
	  6313#	  6317#	  6321#	  6325#	  6329#	  6333#
UNIOS	  2649	  3613#	  3923#	  4233#	  4543#	  4579#	  4583#	  4587#	  4591#	  4595#	  4599#	  4603#	  4607#	  4611#
	  4615#	  4619#	  4623#	  5109#	  5145#	  5149#	  5153#	  5157#	  5161#	  5165#	  5169#	  5647#	  5683#	  5687#
	  5691#	  5695#	  5699#	  5703#	  5707#	  5711#	  5715#	  5719#	  5723#	  5727#	  5731#	  5735#	  5739#	  6273#
	  6309#	  6313#	  6317#	  6321#	  6325#	  6329#	  6333#
UNIPAC	  2641	  3592#	  3902#	  4212#	  4522#	  4579#	  4583#	  4587#	  4591#	  4595#	  4599#	  4603#	  4607#	  4611#
	  4615#	  4619#	  4623#	  5088#	  5145#	  5149#	  5153#	  5157#	  5161#	  5165#	  5169#	  5626#	  5683#	  5687#
	  5691#	  5695#	  5699#	  5703#	  5707#	  5711#	  5715#	  5719#	  5723#	  5727#	  5731#	  5735#	  5739#	  6252#
	  6309#	  6313#	  6317#	  6321#	  6325#	  6329#	  6333#
UNIPGL	  2642	  3595#	  3905#	  4215#	  4525#	  4579#	  4583#	  4587#	  4591#	  4595#	  4599#	  4603#	  4607#	  4611#
	  4615#	  4619#	  4623#	  5091#	  5145#	  5149#	  5153#	  5157#	  5161#	  5165#	  5169#	  5629#	  5683#	  5687#
	  5691#	  5695#	  5699#	  5703#	  5707#	  5711#	  5715#	  5719#	  5723#	  5727#	  5731#	  5735#	  5739#	  6255#
	  6309#	  6313#	  6317#	  6321#	  6325#	  6329#	  6333#
UNIPPL	  2650	  3598#	  3908#	  4218#	  4528#	  4579#	  4583#	  4587#	  4591#	  4595#	  4599#	  4603#	  4607#	  4611#
	  4615#	  4619#	  4623#	  5094#	  5145#	  5149#	  5153#	  5157#	  5161#	  5165#	  5169#	  5632#	  5683#	  5687#
	  5691#	  5695#	  5699#	  5703#	  5707#	  5711#	  5715#	  5719#	  5723#	  5727#	  5731#	  5735#	  5739#	  6258#
	  6309#	  6313#	  6317#	  6321#	  6325#	  6329#	  6333#
UNIPPU	  3450#	  3760#	  4070#	  4380#	  4579#	  4583#	  4587#	  4591#	  4595#	  4599#	  4603#	  4607#	  4611#	  4615#
COMMOD - COMMON DATA LOCATIONS USED BY DISK SERVICE	MACRO 12.5-46.0 14:24 13-JAN-88
COMMOD.MAC	20-NOV-87 23:00		Symbol cross reference

	  4619#	  4623#	  4946#	  5145#	  5149#	  5153#	  5157#	  5161#	  5165#	  5169#	  5484#	  5683#	  5687#	  5691#	  5695#
	  5699#	  5703#	  5707#	  5711#	  5715#	  5719#	  5723#	  5727#	  5731#	  5735#	  5739#	  6110#	  6309#	  6313#
	  6317#	  6321#	  6325#	  6329#	  6333#
UNIPUN	  2630	  3568#	  3878#	  4188#	  4498#	  4579#	  4583#	  4587#	  4591#	  4595#	  4599#	  4603#	  4607#	  4611#
	  4615#	  4619#	  4623#	  5064#	  5145#	  5149#	  5153#	  5157#	  5161#	  5165#	  5169#	  5602#	  5683#	  5687#
	  5691#	  5695#	  5699#	  5703#	  5707#	  5711#	  5715#	  5719#	  5723#	  5727#	  5731#	  5735#	  5739#	  6228#
	  6309#	  6313#	  6317#	  6321#	  6325#	  6329#	  6333#
UNIQUE	  3441#	  3751#	  4061#	  4371#	  4579#	  4583#	  4587#	  4591#	  4595#	  4599#	  4603#	  4607#	  4611#	  4615#
	  4619#	  4623#	  4937#	  5145#	  5149#	  5153#	  5157#	  5161#	  5165#	  5169#	  5475#	  5683#	  5687#	  5691#
	  5695#	  5699#	  5703#	  5707#	  5711#	  5715#	  5719#	  5723#	  5727#	  5731#	  5735#	  5739#	  6101#	  6309#
	  6313#	  6317#	  6321#	  6325#	  6329#	  6333#
UNIRC1	  3603#	  3604	  3607	  3610	  3613	  3913#	  3914	  3917	  3920	  3923	  4223#	  4224	  4227	  4230
	  4233	  4533#	  4534	  4537	  4540	  4543	  4579#	  4579	  4583#	  4583	  4587#	  4587	  4591#	  4591
	  4595#	  4595	  4599#	  4599	  4603#	  4603	  4607#	  4607	  4611#	  4611	  4615#	  4615	  4619#	  4619
	  4623#	  4623	  5099#	  5100	  5103	  5106	  5109	  5145#	  5145	  5149#	  5149	  5153#	  5153	  5157#
	  5157	  5161#	  5161	  5165#	  5165	  5169#	  5169	  5637#	  5638	  5641	  5644	  5647	  5683#	  5683
	  5687#	  5687	  5691#	  5691	  5695#	  5695	  5699#	  5699	  5703#	  5703	  5707#	  5707	  5711#	  5711
	  5715#	  5715	  5719#	  5719	  5723#	  5723	  5727#	  5727	  5731#	  5731	  5735#	  5735	  5739#	  5739
	  6263#	  6264	  6267	  6270	  6273	  6309#	  6309	  6313#	  6313	  6317#	  6317	  6321#	  6321	  6325#
	  6325	  6329#	  6329	  6333#	  6333
UNIRCL	  2644	  3577#	  3887#	  4197#	  4507#	  4579#	  4583#	  4587#	  4591#	  4595#	  4599#	  4603#	  4607#	  4611#
	  4615#	  4619#	  4623#	  5073#	  5145#	  5149#	  5153#	  5157#	  5161#	  5165#	  5169#	  5611#	  5683#	  5687#
	  5691#	  5695#	  5699#	  5703#	  5707#	  5711#	  5715#	  5719#	  5723#	  5727#	  5731#	  5735#	  5739#	  6237#
	  6309#	  6313#	  6317#	  6321#	  6325#	  6329#	  6333#
UNIRCO	  2648	  3610#	  3920#	  4230#	  4540#	  4579#	  4583#	  4587#	  4591#	  4595#	  4599#	  4603#	  4607#	  4611#
	  4615#	  4619#	  4623#	  5106#	  5145#	  5149#	  5153#	  5157#	  5161#	  5165#	  5169#	  5644#	  5683#	  5687#
	  5691#	  5695#	  5699#	  5703#	  5707#	  5711#	  5715#	  5719#	  5723#	  5727#	  5731#	  5735#	  5739#	  6270#
	  6309#	  6313#	  6317#	  6321#	  6325#	  6329#	  6333#
UNIRCT	  3573#	  3574	  3577	  3580	  3883#	  3884	  3887	  3890	  4193#	  4194	  4197	  4200	  4503#	  4504
	  4507	  4510	  4579#	  4579	  4583#	  4583	  4587#	  4587	  4591#	  4591	  4595#	  4595	  4599#	  4599
	  4603#	  4603	  4607#	  4607	  4611#	  4611	  4615#	  4615	  4619#	  4619	  4623#	  4623	  5069#	  5070
	  5073	  5076	  5145#	  5145	  5149#	  5149	  5153#	  5153	  5157#	  5157	  5161#	  5161	  5165#	  5165
	  5169#	  5169	  5607#	  5608	  5611	  5614	  5683#	  5683	  5687#	  5687	  5691#	  5691	  5695#	  5695
	  5699#	  5699	  5703#	  5703	  5707#	  5707	  5711#	  5711	  5715#	  5715	  5719#	  5719	  5723#	  5723
	  5727#	  5727	  5731#	  5731	  5735#	  5735	  5739#	  5739	  6233#	  6234	  6237	  6240	  6309#	  6309
	  6313#	  6313	  6317#	  6317	  6321#	  6321	  6325#	  6325	  6329#	  6329	  6333#	  6333
UNIRRT	  2645	  3580#	  3890#	  4200#	  4510#	  4579#	  4583#	  4587#	  4591#	  4595#	  4599#	  4603#	  4607#	  4611#
	  4615#	  4619#	  4623#	  5076#	  5145#	  5149#	  5153#	  5157#	  5161#	  5165#	  5169#	  5614#	  5683#	  5687#
	  5691#	  5695#	  5699#	  5703#	  5707#	  5711#	  5715#	  5719#	  5723#	  5727#	  5731#	  5735#	  5739#	  6240#
	  6309#	  6313#	  6317#	  6321#	  6325#	  6329#	  6333#
UNIRTO	  2647	  3607#	  3917#	  4227#	  4537#	  4579#	  4583#	  4587#	  4591#	  4595#	  4599#	  4603#	  4607#	  4611#
	  4615#	  4619#	  4623#	  5103#	  5145#	  5149#	  5153#	  5157#	  5161#	  5165#	  5169#	  5641#	  5683#	  5687#
	  5691#	  5695#	  5699#	  5703#	  5707#	  5711#	  5715#	  5719#	  5723#	  5727#	  5731#	  5735#	  5739#	  6267#
	  6309#	  6313#	  6317#	  6321#	  6325#	  6329#	  6333#
UNIRTY	  2643	  3574#	  3884#	  4194#	  4504#	  4579#	  4583#	  4587#	  4591#	  4595#	  4599#	  4603#	  4607#	  4611#
	  4615#	  4619#	  4623#	  5070#	  5145#	  5149#	  5153#	  5157#	  5161#	  5165#	  5169#	  5608#	  5683#	  5687#
	  5691#	  5695#	  5699#	  5703#	  5707#	  5711#	  5715#	  5719#	  5723#	  5727#	  5731#	  5735#	  5739#	  6234#
	  6309#	  6313#	  6317#	  6321#	  6325#	  6329#	  6333#
UNISB	  2319#
UNISBH	  2320#
UNISBN	  3436#	  3746#	  4056#	  4366#	  4579#	  4583#	  4587#	  4591#	  4595#	  4599#	  4603#	  4607#	  4611#	  4615#
	  4619#	  4623#	  4932#	  5145#	  5149#	  5153#	  5157#	  5161#	  5165#	  5169#	  5470#	  5683#	  5687#	  5691#
	  5695#	  5699#	  5703#	  5707#	  5711#	  5715#	  5719#	  5723#	  5727#	  5731#	  5735#	  5739#	  6096#	  6309#
COMMOD - COMMON DATA LOCATIONS USED BY DISK SERVICE	MACRO 12.5-46.0 14:24 13-JAN-88
COMMOD.MAC	20-NOV-87 23:00		Symbol cross reference

	  6313#	  6317#	  6321#	  6325#	  6329#	  6333#
UNISBS	  2321#
UNISCM	  3632#	  3942#	  4252#	  4562#	  4579#	  4583#	  4587#	  4591#	  4595#	  4599#	  4603#	  4607#	  4611#	  4615#
	  4619#	  4623#	  5128#	  5145#	  5149#	  5153#	  5157#	  5161#	  5165#	  5169#	  5666#	  5683#	  5687#	  5691#
	  5695#	  5699#	  5703#	  5707#	  5711#	  5715#	  5719#	  5723#	  5727#	  5731#	  5735#	  5739#	  6292#	  6309#
	  6313#	  6317#	  6321#	  6325#	  6329#	  6333#
UNISCN	  2626	  3527#	  3837#	  4147#	  4457#	  4579#	  4583#	  4587#	  4591#	  4595#	  4599#	  4603#	  4607#	  4611#
	  4615#	  4619#	  4623#	  5023#	  5145#	  5149#	  5153#	  5157#	  5161#	  5165#	  5169#	  5561#	  5683#	  5687#
	  5691#	  5695#	  5699#	  5703#	  5707#	  5711#	  5715#	  5719#	  5723#	  5727#	  5731#	  5735#	  5739#	  6187#
	  6309#	  6313#	  6317#	  6321#	  6325#	  6329#	  6333#
UNISCT	  3386#	  3696#	  4006#	  4316#	  4579#	  4583#	  4587#	  4591#	  4595#	  4599#	  4603#	  4607#	  4611#	  4615#
	  4619#	  4623#	  4882#	  5145#	  5149#	  5153#	  5157#	  5161#	  5165#	  5169#	  5420#	  5683#	  5687#	  5691#
	  5695#	  5699#	  5703#	  5707#	  5711#	  5715#	  5719#	  5723#	  5727#	  5731#	  5735#	  5739#	  6046#	  6309#
	  6313#	  6317#	  6321#	  6325#	  6329#	  6333#
UNISDI	  3427#	  3737#	  4047#	  4357#	  4579#	  4583#	  4587#	  4591#	  4595#	  4599#	  4603#	  4607#	  4611#	  4615#
	  4619#	  4623#	  4923#	  5145#	  5149#	  5153#	  5157#	  5161#	  5165#	  5169#	  5461#	  5683#	  5687#	  5691#
	  5695#	  5699#	  5703#	  5707#	  5711#	  5715#	  5719#	  5723#	  5727#	  5731#	  5735#	  5739#	  6087#	  6309#
	  6313#	  6317#	  6321#	  6325#	  6329#	  6333#
UNISIZ	  2625	  3509#	  3819#	  4129#	  4439#	  4579#	  4583#	  4587#	  4591#	  4595#	  4599#	  4603#	  4607#	  4611#
	  4615#	  4619#	  4623#	  5005#	  5145#	  5149#	  5153#	  5157#	  5161#	  5165#	  5169#	  5543#	  5683#	  5687#
	  5691#	  5695#	  5699#	  5703#	  5707#	  5711#	  5715#	  5719#	  5723#	  5727#	  5731#	  5735#	  5739#	  6169#
	  6309#	  6313#	  6317#	  6321#	  6325#	  6329#	  6333#
UNISNC	  3630#	  3940#	  4250#	  4560#	  4579#	  4583#	  4587#	  4591#	  4595#	  4599#	  4603#	  4607#	  4611#	  4615#
	  4619#	  4623#	  5126#	  5145#	  5149#	  5153#	  5157#	  5161#	  5165#	  5169#	  5664#	  5683#	  5687#	  5691#
	  5695#	  5699#	  5703#	  5707#	  5711#	  5715#	  5719#	  5723#	  5727#	  5731#	  5735#	  5739#	  6290#	  6309#
	  6313#	  6317#	  6321#	  6325#	  6329#	  6333#
UNISND	  3626	  3629#	  3936	  3939#	  4246	  4249#	  4556	  4559#	  4579	  4579#	  4583	  4583#	  4587	  4587#
	  4591	  4591#	  4595	  4595#	  4599	  4599#	  4603	  4603#	  4607	  4607#	  4611	  4611#	  4615	  4615#
	  4619	  4619#	  4623	  4623#	  5122	  5125#	  5145	  5145#	  5149	  5149#	  5153	  5153#	  5157	  5157#
	  5161	  5161#	  5165	  5165#	  5169	  5169#	  5660	  5663#	  5683	  5683#	  5687	  5687#	  5691	  5691#
	  5695	  5695#	  5699	  5699#	  5703	  5703#	  5707	  5707#	  5711	  5711#	  5715	  5715#	  5719	  5719#
	  5723	  5723#	  5727	  5727#	  5731	  5731#	  5735	  5735#	  5739	  5739#	  6286	  6289#	  6309	  6309#
	  6313	  6313#	  6317	  6317#	  6321	  6321#	  6325	  6325#	  6329	  6329#	  6333	  6333#
UNISNS	  3625#	  3935#	  4245#	  4555#	  4579#	  4583#	  4587#	  4591#	  4595#	  4599#	  4603#	  4607#	  4611#	  4615#
	  4619#	  4623#	  5121#	  5145#	  5149#	  5153#	  5157#	  5161#	  5165#	  5169#	  5659#	  5683#	  5687#	  5691#
	  5695#	  5699#	  5703#	  5707#	  5711#	  5715#	  5719#	  5723#	  5727#	  5731#	  5735#	  5739#	  6285#	  6309#
	  6313#	  6317#	  6321#	  6325#	  6329#	  6333#
UNISOF	  3401#	  3711#	  4021#	  4331#	  4579#	  4583#	  4587#	  4591#	  4595#	  4599#	  4603#	  4607#	  4611#	  4615#
	  4619#	  4623#	  4897#	  5145#	  5149#	  5153#	  5157#	  5161#	  5165#	  5169#	  5435#	  5683#	  5687#	  5691#
	  5695#	  5699#	  5703#	  5707#	  5711#	  5715#	  5719#	  5723#	  5727#	  5731#	  5735#	  5739#	  6061#	  6309#
	  6313#	  6317#	  6321#	  6325#	  6329#	  6333#
UNISPU	  2639	  3465#	  3775#	  4085#	  4395#	  4579#	  4583#	  4587#	  4591#	  4595#	  4599#	  4603#	  4607#	  4611#
	  4615#	  4619#	  4623#	  4961#	  5145#	  5149#	  5153#	  5157#	  5161#	  5165#	  5169#	  5499#	  5683#	  5687#
	  5691#	  5695#	  5699#	  5703#	  5707#	  5711#	  5715#	  5719#	  5723#	  5727#	  5731#	  5735#	  5739#	  6125#
	  6309#	  6313#	  6317#	  6321#	  6325#	  6329#	  6333#
UNISSD	  3628#	  3938#	  4248#	  4558#	  4579#	  4583#	  4587#	  4591#	  4595#	  4599#	  4603#	  4607#	  4611#	  4615#
	  4619#	  4623#	  5124#	  5145#	  5149#	  5153#	  5157#	  5161#	  5165#	  5169#	  5662#	  5683#	  5687#	  5691#
	  5695#	  5699#	  5703#	  5707#	  5711#	  5715#	  5719#	  5723#	  5727#	  5731#	  5735#	  5739#	  6288#	  6309#
	  6313#	  6317#	  6321#	  6325#	  6329#	  6333#
UNISTR	  3365#	  3675#	  3985#	  4295#	  4579#	  4583#	  4587#	  4591#	  4595#	  4599#	  4603#	  4607#	  4611#	  4615#
	  4619#	  4623#	  4861#	  5145#	  5149#	  5153#	  5157#	  5161#	  5165#	  5169#	  5399#	  5683#	  5687#	  5691#
	  5695#	  5699#	  5703#	  5707#	  5711#	  5715#	  5719#	  5723#	  5727#	  5731#	  5735#	  5739#	  6025#	  6309#
	  6313#	  6317#	  6321#	  6325#	  6329#	  6333#
COMMOD - COMMON DATA LOCATIONS USED BY DISK SERVICE	MACRO 12.5-46.0 14:24 13-JAN-88
COMMOD.MAC	20-NOV-87 23:00		Symbol cross reference

UNISTS	  3437#	  3638	  3747#	  3948	  4057#	  4258	  4367#	  4568	  4579#	  4579	  4583#	  4583	  4587#	  4587
	  4591#	  4591	  4595#	  4595	  4599#	  4599	  4603#	  4603	  4607#	  4607	  4611#	  4611	  4615#	  4615
	  4619#	  4619	  4623#	  4623	  4933#	  5135	  5145#	  5145	  5149#	  5149	  5153#	  5153	  5157#	  5157
	  5161#	  5161	  5165#	  5165	  5169#	  5169	  5471#	  5674	  5683#	  5683	  5687#	  5687	  5691#	  5691
	  5695#	  5695	  5699#	  5699	  5703#	  5703	  5707#	  5707	  5711#	  5711	  5715#	  5715	  5719#	  5719
	  5723#	  5723	  5727#	  5727	  5731#	  5731	  5735#	  5735	  5739#	  5739	  6097#	  6301	  6309#	  6309
	  6313#	  6313	  6317#	  6317	  6321#	  6321	  6325#	  6325	  6329#	  6329	  6333#	  6333
UNISTT	  3479#	  3789#	  4099#	  4409#	  4579#	  4583#	  4587#	  4591#	  4595#	  4599#	  4603#	  4607#	  4611#	  4615#
	  4619#	  4623#	  4975#	  5145#	  5149#	  5153#	  5157#	  5161#	  5165#	  5169#	  5513#	  5683#	  5687#	  5691#
	  5695#	  5699#	  5703#	  5707#	  5711#	  5715#	  5719#	  5723#	  5727#	  5731#	  5735#	  5739#	  6139#	  6309#
	  6313#	  6317#	  6321#	  6325#	  6329#	  6333#
UNISVC	  3631#	  3941#	  4251#	  4561#	  4579#	  4583#	  4587#	  4591#	  4595#	  4599#	  4603#	  4607#	  4611#	  4615#
	  4619#	  4623#	  5127#	  5145#	  5149#	  5153#	  5157#	  5161#	  5165#	  5169#	  5665#	  5683#	  5687#	  5691#
	  5695#	  5699#	  5703#	  5707#	  5711#	  5715#	  5719#	  5723#	  5727#	  5731#	  5735#	  5739#	  6291#	  6309#
	  6313#	  6317#	  6321#	  6325#	  6329#	  6333#
UNISWC	  3621#	  3931#	  4241#	  4551#	  4579#	  4583#	  4587#	  4591#	  4595#	  4599#	  4603#	  4607#	  4611#	  4615#
	  4619#	  4623#	  5117#	  5145#	  5149#	  5153#	  5157#	  5161#	  5165#	  5169#	  5655#	  5683#	  5687#	  5691#
	  5695#	  5699#	  5703#	  5707#	  5711#	  5715#	  5719#	  5723#	  5727#	  5731#	  5735#	  5739#	  6281#	  6309#
	  6313#	  6317#	  6321#	  6325#	  6329#	  6333#
UNISX1	  2756#	  2861#	  2966#	  3071#
UNISX2	  2757#	  2862#	  2967#	  3072#
UNISX3	  2758#	  2863#	  2968#	  3073#
UNISYS	  1163	  3359#	  3361	  3669#	  3671	  3979#	  3981	  4289#	  4291	  4579#	  4579	  4583#	  4583	  4587#
	  4587	  4591#	  4591	  4595#	  4595	  4599#	  4599	  4603#	  4603	  4607#	  4607	  4611#	  4611	  4615#
	  4615	  4619#	  4619	  4623#	  4623	  4855#	  4857	  5145#	  5145	  5149#	  5149	  5153#	  5153	  5157#
	  5157	  5161#	  5161	  5165#	  5165	  5169#	  5169	  5393#	  5395	  5683#	  5683	  5687#	  5687	  5691#
	  5691	  5695#	  5695	  5699#	  5699	  5703#	  5703	  5707#	  5707	  5711#	  5711	  5715#	  5715	  5719#
	  5719	  5723#	  5723	  5727#	  5727	  5731#	  5731	  5735#	  5735	  5739#	  5739	  6019#	  6021	  6309#
	  6309	  6313#	  6313	  6317#	  6317	  6321#	  6321	  6325#	  6325	  6329#	  6329	  6333#	  6333
UNITAL	  3480#	  3790#	  4100#	  4410#	  4579#	  4583#	  4587#	  4591#	  4595#	  4599#	  4603#	  4607#	  4611#	  4615#
	  4619#	  4623#	  4976#	  5145#	  5149#	  5153#	  5157#	  5161#	  5165#	  5169#	  5514#	  5683#	  5687#	  5691#
	  5695#	  5699#	  5703#	  5707#	  5711#	  5715#	  5719#	  5723#	  5727#	  5731#	  5735#	  5739#	  6140#	  6309#
	  6313#	  6317#	  6321#	  6325#	  6329#	  6333#
UNITIM	  2640	  3589#	  3899#	  4209#	  4519#	  4579#	  4583#	  4587#	  4591#	  4595#	  4599#	  4603#	  4607#	  4611#
	  4615#	  4619#	  4623#	  5085#	  5145#	  5149#	  5153#	  5157#	  5161#	  5165#	  5169#	  5623#	  5683#	  5687#
	  5691#	  5695#	  5699#	  5703#	  5707#	  5711#	  5715#	  5719#	  5723#	  5727#	  5731#	  5735#	  5739#	  6249#
	  6309#	  6313#	  6317#	  6321#	  6325#	  6329#	  6333#
UNITYP	  2754#	  2859#	  2964#	  3069#
UNIUSC	  3422#	  3732#	  4042#	  4352#	  4579#	  4583#	  4587#	  4591#	  4595#	  4599#	  4603#	  4607#	  4611#	  4615#
	  4619#	  4623#	  4918#	  5145#	  5149#	  5153#	  5157#	  5161#	  5165#	  5169#	  5456#	  5683#	  5687#	  5691#
	  5695#	  5699#	  5703#	  5707#	  5711#	  5715#	  5719#	  5723#	  5727#	  5731#	  5735#	  5739#	  6082#	  6309#
	  6313#	  6317#	  6321#	  6325#	  6329#	  6333#
UNIUTP	  2629	  3546#	  3856#	  4166#	  4476#	  4579#	  4583#	  4587#	  4591#	  4595#	  4599#	  4603#	  4607#	  4611#
	  4615#	  4619#	  4623#	  5042#	  5145#	  5149#	  5153#	  5157#	  5161#	  5165#	  5169#	  5580#	  5683#	  5687#
	  5691#	  5695#	  5699#	  5703#	  5707#	  5711#	  5715#	  5719#	  5723#	  5727#	  5731#	  5735#	  5739#	  6206#
	  6309#	  6313#	  6317#	  6321#	  6325#	  6329#	  6333#
UNIWPS	  2633	  3462#	  3465	  3772#	  3775	  4082#	  4085	  4392#	  4395	  4579#	  4579	  4583#	  4583	  4587#
	  4587	  4591#	  4591	  4595#	  4595	  4599#	  4599	  4603#	  4603	  4607#	  4607	  4611#	  4611	  4615#
	  4615	  4619#	  4619	  4623#	  4623	  4958#	  4961	  5145#	  5145	  5149#	  5149	  5153#	  5153	  5157#
	  5157	  5161#	  5161	  5165#	  5165	  5169#	  5169	  5496#	  5499	  5683#	  5683	  5687#	  5687	  5691#
	  5691	  5695#	  5695	  5699#	  5699	  5703#	  5703	  5707#	  5707	  5711#	  5711	  5715#	  5715	  5719#
	  5719	  5723#	  5723	  5727#	  5727	  5731#	  5731	  5735#	  5735	  5739#	  5739	  6122#	  6125	  6309#
	  6309	  6313#	  6313	  6317#	  6317	  6321#	  6321	  6325#	  6325	  6329#	  6329	  6333#	  6333
COMMOD - COMMON DATA LOCATIONS USED BY DISK SERVICE	MACRO 12.5-46.0 14:24 13-JAN-88
COMMOD.MAC	20-NOV-87 23:00		Symbol cross reference

UNNBPR	  2634	  3455#	  3765#	  4075#	  4385#	  4579#	  4583#	  4587#	  4591#	  4595#	  4599#	  4603#	  4607#	  4611#
	  4615#	  4619#	  4623#	  4951#	  5145#	  5149#	  5153#	  5157#	  5161#	  5165#	  5169#	  5489#	  5683#	  5687#
	  5691#	  5695#	  5699#	  5703#	  5707#	  5711#	  5715#	  5719#	  5723#	  5727#	  5731#	  5735#	  5739#	  6115#
	  6309#	  6313#	  6317#	  6321#	  6325#	  6329#	  6333#
UNNBPT	  2635	  2636	  3458#	  3768#	  4078#	  4388#	  4579#	  4583#	  4587#	  4591#	  4595#	  4599#	  4603#	  4607#
	  4611#	  4615#	  4619#	  4623#	  4954#	  5145#	  5149#	  5153#	  5157#	  5161#	  5165#	  5169#	  5492#	  5683#
	  5687#	  5691#	  5695#	  5699#	  5703#	  5707#	  5711#	  5715#	  5719#	  5723#	  5727#	  5731#	  5735#	  5739#
	  6118#	  6309#	  6313#	  6317#	  6321#	  6325#	  6329#	  6333#
UNNBPY	  2637	  2638	  3461#	  3771#	  4081#	  4391#	  4579#	  4583#	  4587#	  4591#	  4595#	  4599#	  4603#	  4607#
	  4611#	  4615#	  4619#	  4623#	  4957#	  5145#	  5149#	  5153#	  5157#	  5161#	  5165#	  5169#	  5495#	  5683#
	  5687#	  5691#	  5695#	  5699#	  5703#	  5707#	  5711#	  5715#	  5719#	  5723#	  5727#	  5731#	  5735#	  5739#
	  6121#	  6309#	  6313#	  6317#	  6321#	  6325#	  6329#	  6333#
UNNKNM	  2628	  3545#	  3855#	  4165#	  4475#	  4579#	  4583#	  4587#	  4591#	  4595#	  4599#	  4603#	  4607#	  4611#
	  4615#	  4619#	  4623#	  5041#	  5145#	  5149#	  5153#	  5157#	  5161#	  5165#	  5169#	  5579#	  5683#	  5687#
	  5691#	  5695#	  5699#	  5703#	  5707#	  5711#	  5715#	  5719#	  5723#	  5727#	  5731#	  5735#	  5739#	  6205#
	  6309#	  6313#	  6317#	  6321#	  6325#	  6329#	  6333#
UNNKTP	  2627	  3532#	  3842#	  4152#	  4462#	  4579#	  4583#	  4587#	  4591#	  4595#	  4599#	  4603#	  4607#	  4611#
	  4615#	  4619#	  4623#	  5028#	  5145#	  5149#	  5153#	  5157#	  5161#	  5165#	  5169#	  5566#	  5683#	  5687#
	  5691#	  5695#	  5699#	  5703#	  5707#	  5711#	  5715#	  5719#	  5723#	  5727#	  5731#	  5735#	  5739#	  6192#
	  6309#	  6313#	  6317#	  6321#	  6325#	  6329#	  6333#
UNNLUN	  2631	  2632	  3363#	  3673#	  3983#	  4293#	  4579#	  4583#	  4587#	  4591#	  4595#	  4599#	  4603#	  4607#
	  4611#	  4615#	  4619#	  4623#	  4859#	  5145#	  5149#	  5153#	  5157#	  5161#	  5165#	  5169#	  5397#	  5683#
	  5687#	  5691#	  5695#	  5699#	  5703#	  5707#	  5711#	  5715#	  5719#	  5723#	  5727#	  5731#	  5735#	  5739#
	  6023#	  6309#	  6313#	  6317#	  6321#	  6325#	  6329#	  6333#
UNNOCV	  2646	  3606#	  3916#	  4226#	  4536#	  4579#	  4583#	  4587#	  4591#	  4595#	  4599#	  4603#	  4607#	  4611#
	  4615#	  4619#	  4623#	  5102#	  5145#	  5149#	  5153#	  5157#	  5161#	  5165#	  5169#	  5640#	  5683#	  5687#
	  5691#	  5695#	  5699#	  5703#	  5707#	  5711#	  5715#	  5719#	  5723#	  5727#	  5731#	  5735#	  5739#	  6266#
	  6309#	  6313#	  6317#	  6321#	  6325#	  6329#	  6333#
UNNOS	  2649	  3615#	  3925#	  4235#	  4545#	  4579#	  4583#	  4587#	  4591#	  4595#	  4599#	  4603#	  4607#	  4611#
	  4615#	  4619#	  4623#	  5111#	  5145#	  5149#	  5153#	  5157#	  5161#	  5165#	  5169#	  5649#	  5683#	  5687#
	  5691#	  5695#	  5699#	  5703#	  5707#	  5711#	  5715#	  5719#	  5723#	  5727#	  5731#	  5735#	  5739#	  6275#
	  6309#	  6313#	  6317#	  6321#	  6325#	  6329#	  6333#
UNNPAC	  2641	  3594#	  3904#	  4214#	  4524#	  4579#	  4583#	  4587#	  4591#	  4595#	  4599#	  4603#	  4607#	  4611#
	  4615#	  4619#	  4623#	  5090#	  5145#	  5149#	  5153#	  5157#	  5161#	  5165#	  5169#	  5628#	  5683#	  5687#
	  5691#	  5695#	  5699#	  5703#	  5707#	  5711#	  5715#	  5719#	  5723#	  5727#	  5731#	  5735#	  5739#	  6254#
	  6309#	  6313#	  6317#	  6321#	  6325#	  6329#	  6333#
UNNPGL	  2642	  3597#	  3907#	  4217#	  4527#	  4579#	  4583#	  4587#	  4591#	  4595#	  4599#	  4603#	  4607#	  4611#
	  4615#	  4619#	  4623#	  5093#	  5145#	  5149#	  5153#	  5157#	  5161#	  5165#	  5169#	  5631#	  5683#	  5687#
	  5691#	  5695#	  5699#	  5703#	  5707#	  5711#	  5715#	  5719#	  5723#	  5727#	  5731#	  5735#	  5739#	  6257#
	  6309#	  6313#	  6317#	  6321#	  6325#	  6329#	  6333#
UNNPPL	  2650	  3600#	  3910#	  4220#	  4530#	  4579#	  4583#	  4587#	  4591#	  4595#	  4599#	  4603#	  4607#	  4611#
	  4615#	  4619#	  4623#	  5096#	  5145#	  5149#	  5153#	  5157#	  5161#	  5165#	  5169#	  5634#	  5683#	  5687#
	  5691#	  5695#	  5699#	  5703#	  5707#	  5711#	  5715#	  5719#	  5723#	  5727#	  5731#	  5735#	  5739#	  6260#
	  6309#	  6313#	  6317#	  6321#	  6325#	  6329#	  6333#
UNNPUN	  2630	  3570#	  3880#	  4190#	  4500#	  4579#	  4583#	  4587#	  4591#	  4595#	  4599#	  4603#	  4607#	  4611#
	  4615#	  4619#	  4623#	  5066#	  5145#	  5149#	  5153#	  5157#	  5161#	  5165#	  5169#	  5604#	  5683#	  5687#
	  5691#	  5695#	  5699#	  5703#	  5707#	  5711#	  5715#	  5719#	  5723#	  5727#	  5731#	  5735#	  5739#	  6230#
	  6309#	  6313#	  6317#	  6321#	  6325#	  6329#	  6333#
UNNRCL	  2644	  3579#	  3889#	  4199#	  4509#	  4579#	  4583#	  4587#	  4591#	  4595#	  4599#	  4603#	  4607#	  4611#
	  4615#	  4619#	  4623#	  5075#	  5145#	  5149#	  5153#	  5157#	  5161#	  5165#	  5169#	  5613#	  5683#	  5687#
	  5691#	  5695#	  5699#	  5703#	  5707#	  5711#	  5715#	  5719#	  5723#	  5727#	  5731#	  5735#	  5739#	  6239#
	  6309#	  6313#	  6317#	  6321#	  6325#	  6329#	  6333#
UNNRCO	  2648	  3612#	  3922#	  4232#	  4542#	  4579#	  4583#	  4587#	  4591#	  4595#	  4599#	  4603#	  4607#	  4611#
COMMOD - COMMON DATA LOCATIONS USED BY DISK SERVICE	MACRO 12.5-46.0 14:24 13-JAN-88
COMMOD.MAC	20-NOV-87 23:00		Symbol cross reference

	  4615#	  4619#	  4623#	  5108#	  5145#	  5149#	  5153#	  5157#	  5161#	  5165#	  5169#	  5646#	  5683#	  5687#	  5691#
	  5695#	  5699#	  5703#	  5707#	  5711#	  5715#	  5719#	  5723#	  5727#	  5731#	  5735#	  5739#	  6272#	  6309#
	  6313#	  6317#	  6321#	  6325#	  6329#	  6333#
UNNRRT	  2645	  3582#	  3892#	  4202#	  4512#	  4579#	  4583#	  4587#	  4591#	  4595#	  4599#	  4603#	  4607#	  4611#
	  4615#	  4619#	  4623#	  5078#	  5145#	  5149#	  5153#	  5157#	  5161#	  5165#	  5169#	  5616#	  5683#	  5687#
	  5691#	  5695#	  5699#	  5703#	  5707#	  5711#	  5715#	  5719#	  5723#	  5727#	  5731#	  5735#	  5739#	  6242#
	  6309#	  6313#	  6317#	  6321#	  6325#	  6329#	  6333#
UNNRTO	  2647	  3609#	  3919#	  4229#	  4539#	  4579#	  4583#	  4587#	  4591#	  4595#	  4599#	  4603#	  4607#	  4611#
	  4615#	  4619#	  4623#	  5105#	  5145#	  5149#	  5153#	  5157#	  5161#	  5165#	  5169#	  5643#	  5683#	  5687#
	  5691#	  5695#	  5699#	  5703#	  5707#	  5711#	  5715#	  5719#	  5723#	  5727#	  5731#	  5735#	  5739#	  6269#
	  6309#	  6313#	  6317#	  6321#	  6325#	  6329#	  6333#
UNNRTY	  2643	  3576#	  3886#	  4196#	  4506#	  4579#	  4583#	  4587#	  4591#	  4595#	  4599#	  4603#	  4607#	  4611#
	  4615#	  4619#	  4623#	  5072#	  5145#	  5149#	  5153#	  5157#	  5161#	  5165#	  5169#	  5610#	  5683#	  5687#
	  5691#	  5695#	  5699#	  5703#	  5707#	  5711#	  5715#	  5719#	  5723#	  5727#	  5731#	  5735#	  5739#	  6236#
	  6309#	  6313#	  6317#	  6321#	  6325#	  6329#	  6333#
UNNSCN	  2626	  3529#	  3839#	  4149#	  4459#	  4579#	  4583#	  4587#	  4591#	  4595#	  4599#	  4603#	  4607#	  4611#
	  4615#	  4619#	  4623#	  5025#	  5145#	  5149#	  5153#	  5157#	  5161#	  5165#	  5169#	  5563#	  5683#	  5687#
	  5691#	  5695#	  5699#	  5703#	  5707#	  5711#	  5715#	  5719#	  5723#	  5727#	  5731#	  5735#	  5739#	  6189#
	  6309#	  6313#	  6317#	  6321#	  6325#	  6329#	  6333#
UNNSIZ	  2625	  3511#	  3821#	  4131#	  4441#	  4579#	  4583#	  4587#	  4591#	  4595#	  4599#	  4603#	  4607#	  4611#
	  4615#	  4619#	  4623#	  5007#	  5145#	  5149#	  5153#	  5157#	  5161#	  5165#	  5169#	  5545#	  5683#	  5687#
	  5691#	  5695#	  5699#	  5703#	  5707#	  5711#	  5715#	  5719#	  5723#	  5727#	  5731#	  5735#	  5739#	  6171#
	  6309#	  6313#	  6317#	  6321#	  6325#	  6329#	  6333#
UNNSPU	  2639	  3467#	  3777#	  4087#	  4397#	  4579#	  4583#	  4587#	  4591#	  4595#	  4599#	  4603#	  4607#	  4611#
	  4615#	  4619#	  4623#	  4963#	  5145#	  5149#	  5153#	  5157#	  5161#	  5165#	  5169#	  5501#	  5683#	  5687#
	  5691#	  5695#	  5699#	  5703#	  5707#	  5711#	  5715#	  5719#	  5723#	  5727#	  5731#	  5735#	  5739#	  6127#
	  6309#	  6313#	  6317#	  6321#	  6325#	  6329#	  6333#
UNNTIM	  2640	  3591#	  3901#	  4211#	  4521#	  4579#	  4583#	  4587#	  4591#	  4595#	  4599#	  4603#	  4607#	  4611#
	  4615#	  4619#	  4623#	  5087#	  5145#	  5149#	  5153#	  5157#	  5161#	  5165#	  5169#	  5625#	  5683#	  5687#
	  5691#	  5695#	  5699#	  5703#	  5707#	  5711#	  5715#	  5719#	  5723#	  5727#	  5731#	  5735#	  5739#	  6251#
	  6309#	  6313#	  6317#	  6321#	  6325#	  6329#	  6333#
UNNUTP	  2629	  3548#	  3858#	  4168#	  4478#	  4579#	  4583#	  4587#	  4591#	  4595#	  4599#	  4603#	  4607#	  4611#
	  4615#	  4619#	  4623#	  5044#	  5145#	  5149#	  5153#	  5157#	  5161#	  5165#	  5169#	  5582#	  5683#	  5687#
	  5691#	  5695#	  5699#	  5703#	  5707#	  5711#	  5715#	  5719#	  5723#	  5727#	  5731#	  5735#	  5739#	  6208#
	  6309#	  6313#	  6317#	  6321#	  6325#	  6329#	  6333#
UNNWPS	  2633	  3464#	  3774#	  4084#	  4394#	  4579#	  4583#	  4587#	  4591#	  4595#	  4599#	  4603#	  4607#	  4611#
	  4615#	  4619#	  4623#	  4960#	  5145#	  5149#	  5153#	  5157#	  5161#	  5165#	  5169#	  5498#	  5683#	  5687#
	  5691#	  5695#	  5699#	  5703#	  5707#	  5711#	  5715#	  5719#	  5723#	  5727#	  5731#	  5735#	  5739#	  6124#
	  6309#	  6313#	  6317#	  6321#	  6325#	  6329#	  6333#
UNPCER	  3395#	  3705#	  4015#	  4325#	  4579#	  4583#	  4587#	  4591#	  4595#	  4599#	  4603#	  4607#	  4611#	  4615#
	  4619#	  4623#	  4891#	  5145#	  5149#	  5153#	  5157#	  5161#	  5165#	  5169#	  5429#	  5683#	  5687#	  5691#
	  5695#	  5699#	  5703#	  5707#	  5711#	  5715#	  5719#	  5723#	  5727#	  5731#	  5735#	  5739#	  6055#	  6309#
	  6313#	  6317#	  6321#	  6325#	  6329#	  6333#
UNPCHG	  3495#	  3805#	  4115#	  4425#	  4579#	  4583#	  4587#	  4591#	  4595#	  4599#	  4603#	  4607#	  4611#	  4615#
	  4619#	  4623#	  4991#	  5145#	  5149#	  5153#	  5157#	  5161#	  5165#	  5169#	  5529#	  5683#	  5687#	  5691#
	  5695#	  5699#	  5703#	  5707#	  5711#	  5715#	  5719#	  5723#	  5727#	  5731#	  5735#	  5739#	  6155#	  6309#
	  6313#	  6317#	  6321#	  6325#	  6329#	  6333#
UNPDEV	  3584#	  3894#	  4204#	  4514#	  4579#	  4583#	  4587#	  4591#	  4595#	  4599#	  4603#	  4607#	  4611#	  4615#
	  4619#	  4623#	  5080#	  5145#	  5149#	  5153#	  5157#	  5161#	  5165#	  5169#	  5618#	  5683#	  5687#	  5691#
	  5695#	  5699#	  5703#	  5707#	  5711#	  5715#	  5719#	  5723#	  5727#	  5731#	  5735#	  5739#	  6244#	  6309#
	  6313#	  6317#	  6321#	  6325#	  6329#	  6333#
UNPFUS	  3499#	  3809#	  4119#	  4429#	  4579#	  4583#	  4587#	  4591#	  4595#	  4599#	  4603#	  4607#	  4611#	  4615#
	  4619#	  4623#	  4995#	  5145#	  5149#	  5153#	  5157#	  5161#	  5165#	  5169#	  5533#	  5683#	  5687#	  5691#
COMMOD - COMMON DATA LOCATIONS USED BY DISK SERVICE	MACRO 12.5-46.0 14:24 13-JAN-88
COMMOD.MAC	20-NOV-87 23:00		Symbol cross reference

	  5695#	  5699#	  5703#	  5707#	  5711#	  5715#	  5719#	  5723#	  5727#	  5731#	  5735#	  5739#	  6159#	  6309#	  6313#
	  6317#	  6321#	  6325#	  6329#	  6333#
UNPHWP	  3493#	  3803#	  4113#	  4423#	  4579#	  4583#	  4587#	  4591#	  4595#	  4599#	  4603#	  4607#	  4611#	  4615#
	  4619#	  4623#	  4989#	  5145#	  5149#	  5153#	  5157#	  5161#	  5165#	  5169#	  5527#	  5683#	  5687#	  5691#
	  5695#	  5699#	  5703#	  5707#	  5711#	  5715#	  5719#	  5723#	  5727#	  5731#	  5735#	  5739#	  6153#	  6309#
	  6313#	  6317#	  6321#	  6325#	  6329#	  6333#
UNPMSB	  3502#	  3812#	  4122#	  4432#	  4579#	  4583#	  4587#	  4591#	  4595#	  4599#	  4603#	  4607#	  4611#	  4615#
	  4619#	  4623#	  4998#	  5145#	  5149#	  5153#	  5157#	  5161#	  5165#	  5169#	  5536#	  5683#	  5687#	  5691#
	  5695#	  5699#	  5703#	  5707#	  5711#	  5715#	  5719#	  5723#	  5727#	  5731#	  5735#	  5739#	  6162#	  6309#
	  6313#	  6317#	  6321#	  6325#	  6329#	  6333#
UNPOFL	  3492#	  3802#	  4112#	  4422#	  4579#	  4583#	  4587#	  4591#	  4595#	  4599#	  4603#	  4607#	  4611#	  4615#
	  4619#	  4623#	  4988#	  5145#	  5149#	  5153#	  5157#	  5161#	  5165#	  5169#	  5526#	  5683#	  5687#	  5691#
	  5695#	  5699#	  5703#	  5707#	  5711#	  5715#	  5719#	  5723#	  5727#	  5731#	  5735#	  5739#	  6152#	  6309#
	  6313#	  6317#	  6321#	  6325#	  6329#	  6333#
UNPPRV	  3497#	  3807#	  4117#	  4427#	  4579#	  4583#	  4587#	  4591#	  4595#	  4599#	  4603#	  4607#	  4611#	  4615#
	  4619#	  4623#	  4993#	  5145#	  5149#	  5153#	  5157#	  5161#	  5165#	  5169#	  5531#	  5683#	  5687#	  5691#
	  5695#	  5699#	  5703#	  5707#	  5711#	  5715#	  5719#	  5723#	  5727#	  5731#	  5735#	  5739#	  6157#	  6309#
	  6313#	  6317#	  6321#	  6325#	  6329#	  6333#
UNPRER	  3394#	  3704#	  4014#	  4324#	  4579#	  4583#	  4587#	  4591#	  4595#	  4599#	  4603#	  4607#	  4611#	  4615#
	  4619#	  4623#	  4890#	  5145#	  5149#	  5153#	  5157#	  5161#	  5165#	  5169#	  5428#	  5683#	  5687#	  5691#
	  5695#	  5699#	  5703#	  5707#	  5711#	  5715#	  5719#	  5723#	  5727#	  5731#	  5735#	  5739#	  6054#	  6309#
	  6313#	  6317#	  6321#	  6325#	  6329#	  6333#
UNPRRS	  3500#	  3810#	  4120#	  4430#	  4579#	  4583#	  4587#	  4591#	  4595#	  4599#	  4603#	  4607#	  4611#	  4615#
	  4619#	  4623#	  4996#	  5145#	  5149#	  5153#	  5157#	  5161#	  5165#	  5169#	  5534#	  5683#	  5687#	  5691#
	  5695#	  5699#	  5703#	  5707#	  5711#	  5715#	  5719#	  5723#	  5727#	  5731#	  5735#	  5739#	  6160#	  6309#
	  6313#	  6317#	  6321#	  6325#	  6329#	  6333#
UNPSER	  3392#	  3702#	  4012#	  4322#	  4579#	  4583#	  4587#	  4591#	  4595#	  4599#	  4603#	  4607#	  4611#	  4615#
	  4619#	  4623#	  4888#	  5145#	  5149#	  5153#	  5157#	  5161#	  5165#	  5169#	  5426#	  5683#	  5687#	  5691#
	  5695#	  5699#	  5703#	  5707#	  5711#	  5715#	  5719#	  5723#	  5727#	  5731#	  5735#	  5739#	  6052#	  6309#
	  6313#	  6317#	  6321#	  6325#	  6329#	  6333#
UNPUTP	  3567#	  3877#	  4187#	  4497#	  4579#	  4583#	  4587#	  4591#	  4595#	  4599#	  4603#	  4607#	  4611#	  4615#
	  4619#	  4623#	  5063#	  5145#	  5149#	  5153#	  5157#	  5161#	  5165#	  5169#	  5601#	  5683#	  5687#	  5691#
	  5695#	  5699#	  5703#	  5707#	  5711#	  5715#	  5719#	  5723#	  5727#	  5731#	  5735#	  5739#	  6227#	  6309#
	  6313#	  6317#	  6321#	  6325#	  6329#	  6333#
UNSBPR	  2634	  3454#	  3764#	  4074#	  4384#	  4579#	  4583#	  4587#	  4591#	  4595#	  4599#	  4603#	  4607#	  4611#
	  4615#	  4619#	  4623#	  4950#	  5145#	  5149#	  5153#	  5157#	  5161#	  5165#	  5169#	  5488#	  5683#	  5687#
	  5691#	  5695#	  5699#	  5703#	  5707#	  5711#	  5715#	  5719#	  5723#	  5727#	  5731#	  5735#	  5739#	  6114#
	  6309#	  6313#	  6317#	  6321#	  6325#	  6329#	  6333#
UNSBPT	  2635	  2636	  3457#	  3767#	  4077#	  4387#	  4579#	  4583#	  4587#	  4591#	  4595#	  4599#	  4603#	  4607#
	  4611#	  4615#	  4619#	  4623#	  4953#	  5145#	  5149#	  5153#	  5157#	  5161#	  5165#	  5169#	  5491#	  5683#
	  5687#	  5691#	  5695#	  5699#	  5703#	  5707#	  5711#	  5715#	  5719#	  5723#	  5727#	  5731#	  5735#	  5739#
	  6117#	  6309#	  6313#	  6317#	  6321#	  6325#	  6329#	  6333#
UNSBPY	  2637	  2638	  3460#	  3770#	  4080#	  4390#	  4579#	  4583#	  4587#	  4591#	  4595#	  4599#	  4603#	  4607#
	  4611#	  4615#	  4619#	  4623#	  4956#	  5145#	  5149#	  5153#	  5157#	  5161#	  5165#	  5169#	  5494#	  5683#
	  5687#	  5691#	  5695#	  5699#	  5703#	  5707#	  5711#	  5715#	  5719#	  5723#	  5727#	  5731#	  5735#	  5739#
	  6120#	  6309#	  6313#	  6317#	  6321#	  6325#	  6329#	  6333#
UNSKNM	  2628	  3544#	  3854#	  4164#	  4474#	  4579#	  4583#	  4587#	  4591#	  4595#	  4599#	  4603#	  4607#	  4611#
	  4615#	  4619#	  4623#	  5040#	  5145#	  5149#	  5153#	  5157#	  5161#	  5165#	  5169#	  5578#	  5683#	  5687#
	  5691#	  5695#	  5699#	  5703#	  5707#	  5711#	  5715#	  5719#	  5723#	  5727#	  5731#	  5735#	  5739#	  6204#
	  6309#	  6313#	  6317#	  6321#	  6325#	  6329#	  6333#
UNSKTP	  2627	  3531#	  3841#	  4151#	  4461#	  4579#	  4583#	  4587#	  4591#	  4595#	  4599#	  4603#	  4607#	  4611#
	  4615#	  4619#	  4623#	  5027#	  5145#	  5149#	  5153#	  5157#	  5161#	  5165#	  5169#	  5565#	  5683#	  5687#
	  5691#	  5695#	  5699#	  5703#	  5707#	  5711#	  5715#	  5719#	  5723#	  5727#	  5731#	  5735#	  5739#	  6191#
COMMOD - COMMON DATA LOCATIONS USED BY DISK SERVICE	MACRO 12.5-46.0 14:24 13-JAN-88
COMMOD.MAC	20-NOV-87 23:00		Symbol cross reference

	  6309#	  6313#	  6317#	  6321#	  6325#	  6329#	  6333#
UNSLUN	  2631	  2632	  3362#	  3672#	  3982#	  4292#	  4579#	  4583#	  4587#	  4591#	  4595#	  4599#	  4603#	  4607#
	  4611#	  4615#	  4619#	  4623#	  4858#	  5145#	  5149#	  5153#	  5157#	  5161#	  5165#	  5169#	  5396#	  5683#
	  5687#	  5691#	  5695#	  5699#	  5703#	  5707#	  5711#	  5715#	  5719#	  5723#	  5727#	  5731#	  5735#	  5739#
	  6022#	  6309#	  6313#	  6317#	  6321#	  6325#	  6329#	  6333#
UNSOCV	  2646	  3605#	  3915#	  4225#	  4535#	  4579#	  4583#	  4587#	  4591#	  4595#	  4599#	  4603#	  4607#	  4611#
	  4615#	  4619#	  4623#	  5101#	  5145#	  5149#	  5153#	  5157#	  5161#	  5165#	  5169#	  5639#	  5683#	  5687#
	  5691#	  5695#	  5699#	  5703#	  5707#	  5711#	  5715#	  5719#	  5723#	  5727#	  5731#	  5735#	  5739#	  6265#
	  6309#	  6313#	  6317#	  6321#	  6325#	  6329#	  6333#
UNSOS	  2649	  3614#	  3924#	  4234#	  4544#	  4579#	  4583#	  4587#	  4591#	  4595#	  4599#	  4603#	  4607#	  4611#
	  4615#	  4619#	  4623#	  5110#	  5145#	  5149#	  5153#	  5157#	  5161#	  5165#	  5169#	  5648#	  5683#	  5687#
	  5691#	  5695#	  5699#	  5703#	  5707#	  5711#	  5715#	  5719#	  5723#	  5727#	  5731#	  5735#	  5739#	  6274#
	  6309#	  6313#	  6317#	  6321#	  6325#	  6329#	  6333#
UNSPAC	  2641	  3593#	  3903#	  4213#	  4523#	  4579#	  4583#	  4587#	  4591#	  4595#	  4599#	  4603#	  4607#	  4611#
	  4615#	  4619#	  4623#	  5089#	  5145#	  5149#	  5153#	  5157#	  5161#	  5165#	  5169#	  5627#	  5683#	  5687#
	  5691#	  5695#	  5699#	  5703#	  5707#	  5711#	  5715#	  5719#	  5723#	  5727#	  5731#	  5735#	  5739#	  6253#
	  6309#	  6313#	  6317#	  6321#	  6325#	  6329#	  6333#
UNSPGL	  2642	  3596#	  3906#	  4216#	  4526#	  4579#	  4583#	  4587#	  4591#	  4595#	  4599#	  4603#	  4607#	  4611#
	  4615#	  4619#	  4623#	  5092#	  5145#	  5149#	  5153#	  5157#	  5161#	  5165#	  5169#	  5630#	  5683#	  5687#
	  5691#	  5695#	  5699#	  5703#	  5707#	  5711#	  5715#	  5719#	  5723#	  5727#	  5731#	  5735#	  5739#	  6256#
	  6309#	  6313#	  6317#	  6321#	  6325#	  6329#	  6333#
UNSPPL	  2650	  3599#	  3909#	  4219#	  4529#	  4579#	  4583#	  4587#	  4591#	  4595#	  4599#	  4603#	  4607#	  4611#
	  4615#	  4619#	  4623#	  5095#	  5145#	  5149#	  5153#	  5157#	  5161#	  5165#	  5169#	  5633#	  5683#	  5687#
	  5691#	  5695#	  5699#	  5703#	  5707#	  5711#	  5715#	  5719#	  5723#	  5727#	  5731#	  5735#	  5739#	  6259#
	  6309#	  6313#	  6317#	  6321#	  6325#	  6329#	  6333#
UNSPUN	  2630	  3569#	  3879#	  4189#	  4499#	  4579#	  4583#	  4587#	  4591#	  4595#	  4599#	  4603#	  4607#	  4611#
	  4615#	  4619#	  4623#	  5065#	  5145#	  5149#	  5153#	  5157#	  5161#	  5165#	  5169#	  5603#	  5683#	  5687#
	  5691#	  5695#	  5699#	  5703#	  5707#	  5711#	  5715#	  5719#	  5723#	  5727#	  5731#	  5735#	  5739#	  6229#
	  6309#	  6313#	  6317#	  6321#	  6325#	  6329#	  6333#
UNSRCL	  2644	  3578#	  3888#	  4198#	  4508#	  4579#	  4583#	  4587#	  4591#	  4595#	  4599#	  4603#	  4607#	  4611#
	  4615#	  4619#	  4623#	  5074#	  5145#	  5149#	  5153#	  5157#	  5161#	  5165#	  5169#	  5612#	  5683#	  5687#
	  5691#	  5695#	  5699#	  5703#	  5707#	  5711#	  5715#	  5719#	  5723#	  5727#	  5731#	  5735#	  5739#	  6238#
	  6309#	  6313#	  6317#	  6321#	  6325#	  6329#	  6333#
UNSRCO	  2648	  3611#	  3921#	  4231#	  4541#	  4579#	  4583#	  4587#	  4591#	  4595#	  4599#	  4603#	  4607#	  4611#
	  4615#	  4619#	  4623#	  5107#	  5145#	  5149#	  5153#	  5157#	  5161#	  5165#	  5169#	  5645#	  5683#	  5687#
	  5691#	  5695#	  5699#	  5703#	  5707#	  5711#	  5715#	  5719#	  5723#	  5727#	  5731#	  5735#	  5739#	  6271#
	  6309#	  6313#	  6317#	  6321#	  6325#	  6329#	  6333#
UNSRRT	  2645	  3581#	  3891#	  4201#	  4511#	  4579#	  4583#	  4587#	  4591#	  4595#	  4599#	  4603#	  4607#	  4611#
	  4615#	  4619#	  4623#	  5077#	  5145#	  5149#	  5153#	  5157#	  5161#	  5165#	  5169#	  5615#	  5683#	  5687#
	  5691#	  5695#	  5699#	  5703#	  5707#	  5711#	  5715#	  5719#	  5723#	  5727#	  5731#	  5735#	  5739#	  6241#
	  6309#	  6313#	  6317#	  6321#	  6325#	  6329#	  6333#
UNSRTO	  2647	  3608#	  3918#	  4228#	  4538#	  4579#	  4583#	  4587#	  4591#	  4595#	  4599#	  4603#	  4607#	  4611#
	  4615#	  4619#	  4623#	  5104#	  5145#	  5149#	  5153#	  5157#	  5161#	  5165#	  5169#	  5642#	  5683#	  5687#
	  5691#	  5695#	  5699#	  5703#	  5707#	  5711#	  5715#	  5719#	  5723#	  5727#	  5731#	  5735#	  5739#	  6268#
	  6309#	  6313#	  6317#	  6321#	  6325#	  6329#	  6333#
UNSRTY	  2643	  3575#	  3885#	  4195#	  4505#	  4579#	  4583#	  4587#	  4591#	  4595#	  4599#	  4603#	  4607#	  4611#
	  4615#	  4619#	  4623#	  5071#	  5145#	  5149#	  5153#	  5157#	  5161#	  5165#	  5169#	  5609#	  5683#	  5687#
	  5691#	  5695#	  5699#	  5703#	  5707#	  5711#	  5715#	  5719#	  5723#	  5727#	  5731#	  5735#	  5739#	  6235#
	  6309#	  6313#	  6317#	  6321#	  6325#	  6329#	  6333#
UNSSCN	  2626	  3528#	  3838#	  4148#	  4458#	  4579#	  4583#	  4587#	  4591#	  4595#	  4599#	  4603#	  4607#	  4611#
	  4615#	  4619#	  4623#	  5024#	  5145#	  5149#	  5153#	  5157#	  5161#	  5165#	  5169#	  5562#	  5683#	  5687#
	  5691#	  5695#	  5699#	  5703#	  5707#	  5711#	  5715#	  5719#	  5723#	  5727#	  5731#	  5735#	  5739#	  6188#
	  6309#	  6313#	  6317#	  6321#	  6325#	  6329#	  6333#
COMMOD - COMMON DATA LOCATIONS USED BY DISK SERVICE	MACRO 12.5-46.0 14:24 13-JAN-88
COMMOD.MAC	20-NOV-87 23:00		Symbol cross reference

UNSSIZ	  2625	  3510#	  3820#	  4130#	  4440#	  4579#	  4583#	  4587#	  4591#	  4595#	  4599#	  4603#	  4607#	  4611#
	  4615#	  4619#	  4623#	  5006#	  5145#	  5149#	  5153#	  5157#	  5161#	  5165#	  5169#	  5544#	  5683#	  5687#
	  5691#	  5695#	  5699#	  5703#	  5707#	  5711#	  5715#	  5719#	  5723#	  5727#	  5731#	  5735#	  5739#	  6170#
	  6309#	  6313#	  6317#	  6321#	  6325#	  6329#	  6333#
UNSSPU	  2639	  3466#	  3776#	  4086#	  4396#	  4579#	  4583#	  4587#	  4591#	  4595#	  4599#	  4603#	  4607#	  4611#
	  4615#	  4619#	  4623#	  4962#	  5145#	  5149#	  5153#	  5157#	  5161#	  5165#	  5169#	  5500#	  5683#	  5687#
	  5691#	  5695#	  5699#	  5703#	  5707#	  5711#	  5715#	  5719#	  5723#	  5727#	  5731#	  5735#	  5739#	  6126#
	  6309#	  6313#	  6317#	  6321#	  6325#	  6329#	  6333#
UNSTIM	  2640	  3590#	  3900#	  4210#	  4520#	  4579#	  4583#	  4587#	  4591#	  4595#	  4599#	  4603#	  4607#	  4611#
	  4615#	  4619#	  4623#	  5086#	  5145#	  5149#	  5153#	  5157#	  5161#	  5165#	  5169#	  5624#	  5683#	  5687#
	  5691#	  5695#	  5699#	  5703#	  5707#	  5711#	  5715#	  5719#	  5723#	  5727#	  5731#	  5735#	  5739#	  6250#
	  6309#	  6313#	  6317#	  6321#	  6325#	  6329#	  6333#
UNSUTP	  2629	  3547#	  3857#	  4167#	  4477#	  4579#	  4583#	  4587#	  4591#	  4595#	  4599#	  4603#	  4607#	  4611#
	  4615#	  4619#	  4623#	  5043#	  5145#	  5149#	  5153#	  5157#	  5161#	  5165#	  5169#	  5581#	  5683#	  5687#
	  5691#	  5695#	  5699#	  5703#	  5707#	  5711#	  5715#	  5719#	  5723#	  5727#	  5731#	  5735#	  5739#	  6207#
	  6309#	  6313#	  6317#	  6321#	  6325#	  6329#	  6333#
UNSWPS	  2633	  3463#	  3773#	  4083#	  4393#	  4579#	  4583#	  4587#	  4591#	  4595#	  4599#	  4603#	  4607#	  4611#
	  4615#	  4619#	  4623#	  4959#	  5145#	  5149#	  5153#	  5157#	  5161#	  5165#	  5169#	  5497#	  5683#	  5687#
	  5691#	  5695#	  5699#	  5703#	  5707#	  5711#	  5715#	  5719#	  5723#	  5727#	  5731#	  5735#	  5739#	  6123#
	  6309#	  6313#	  6317#	  6321#	  6325#	  6329#	  6333#
UNTLEN	  6684#
UNTTBL	  6633#	  6684
UNVRSF	   157
UNYBPR	  2634#
UNYBPT	  2635#
UNYBPY	  2637#
UNYKNM	  2628#
UNYKTP	  2627#
UNYLN1	  2632#
UNYLUN	  2631#
UNYOCV	  2646#
UNYOS	  2649#
UNYPAC	  2641#
UNYPGL	  2642#
UNYPPL	  2650#
UNYPPT	  2636#
UNYPPY	  2638#
UNYPUN	  2630#
UNYRCL	  2644#
UNYRCO	  2648#
UNYRRT	  2645#
UNYRTO	  2647#
UNYRTY	  2643#
UNYSCN	  2626#
UNYSIZ	  2625#
UNYSPU	  2639#
UNYTIM	  2640#
UNYUTP	  2629#
UNYWPS	  2633#
UUXENT	  1199
YY	  3247#	  3249	  3249#	  3250	  3250#	  3251	  3251#	  3253
ZERO18	   661	  1217	  3187	  3642	  3952	  4262	  4572	  4579	  4583	  4587	  4591	  4595	  4599	  4603
	  4607	  4611	  4615	  4619	  4623	  4687	  5138	  5145	  5149	  5153	  5157	  5161	  5165	  5169
COMMOD - COMMON DATA LOCATIONS USED BY DISK SERVICE	MACRO 12.5-46.0 14:24 13-JAN-88
COMMOD.MAC	20-NOV-87 23:00		Symbol cross reference

	  5233	  5676	  5683	  5687	  5691	  5695	  5699	  5703	  5707	  5711	  5715	  5719	  5723	  5727	  5731
	  5735	  5739	  5803	  6302	  6309	  6313	  6317	  6321	  6325	  6329	  6333	  6397
ZERO5	  3173	  3174	  3175	  3176	  3179	  3186	  3190	  3192	  3193	  3194	  3198	  4673	  4674	  4675
	  4676	  4679	  4686	  4690	  4692	  4693	  4694	  4698	  5219	  5220	  5221	  5222	  5225	  5232
	  5236	  5238	  5239	  5240	  5244	  5789	  5790	  5791	  5792	  5795	  5802	  5806	  5808	  5809
	  5810	  5814	  6383	  6384	  6385	  6386	  6389	  6396	  6400	  6402	  6403	  6404	  6408
$APNUM	  2659#
$BPNUM	  2654#	  3330	  3341	  3482	  3651	  3792	  3961	  4102	  4271	  4412	  4579	  4583	  4587	  4591
	  4595	  4599	  4603	  4607	  4611	  4615	  4619	  4623	  4629	  4787	  4787#	  4802	  4826	  4837
	  4978	  5145	  5149	  5153	  5157	  5161	  5165	  5169	  5175	  5301	  5301#	  5316	  5340	  5364
	  5375	  5516	  5683	  5687	  5691	  5695	  5699	  5703	  5707	  5711	  5715	  5719	  5723	  5727
	  5731	  5735	  5739	  5745	  5903	  5903#	  5918	  5942	  5966	  5990	  6001	  6142	  6309	  6313
	  6317	  6321	  6325	  6329	  6333	  6339	  6465	  6465#
$CHN	  2661#	  2746	  2851	  2956	  3061	  3141	  3196	  3289	  3292	  3301	  3314	  3314#	  3370	  3371
	  3482	  3680	  3681	  3792	  3990	  3991	  4102	  4300	  4301	  4412	  4579	  4583	  4587	  4591
	  4595	  4599	  4603	  4607	  4611	  4615	  4619	  4623	  4641	  4696	  4866	  4867	  4978	  5145
	  5149	  5153	  5157	  5161	  5165	  5169	  5187	  5242	  5404	  5405	  5516	  5683	  5687	  5691
	  5695	  5699	  5703	  5707	  5711	  5715	  5719	  5723	  5727	  5731	  5735	  5739	  5757	  5812
	  6030	  6031	  6142	  6309	  6313	  6317	  6321	  6325	  6329	  6333	  6351	  6406	  6477	  6478
	  6481	  6490	  6558	  6558#
$CHUNN	  2691#	  3323#	  3370	  3371	  3619	  3619#	  3680	  3681	  3929	  3929#	  3990	  3991	  4239	  4239#
	  4300	  4301	  4549	  4549#	  4579	  4579#	  4583	  4583#	  4587	  4587#	  4591	  4591#	  4595	  4595#
	  4599	  4599#	  4603	  4603#	  4607	  4607#	  4611	  4611#	  4615	  4615#	  4619	  4619#	  4623	  4623#
	  4866	  4867	  5115	  5115#	  5145	  5145#	  5149	  5149#	  5153	  5153#	  5157	  5157#	  5161	  5161#
	  5165	  5165#	  5169	  5169#	  5404	  5405	  5653	  5653#	  5683	  5683#	  5687	  5687#	  5691	  5691#
	  5695	  5695#	  5699	  5699#	  5703	  5703#	  5707	  5707#	  5711	  5711#	  5715	  5715#	  5719	  5719#
	  5723	  5723#	  5727	  5727#	  5731	  5731#	  5735	  5735#	  5739	  5739#	  6030	  6031	  6279	  6279#
	  6309	  6309#	  6313	  6313#	  6317	  6317#	  6321	  6321#	  6325	  6325#	  6329	  6329#	  6333	  6333#
	  6477
$DPNUM	  2656#
$FHNUM	  2655#
$FTMOD	  2775	  2880	  2985	  3090	  3275#
$FTNUM	  2652#	  2698	  2709	  2814	  2919	  3024	  3129	  3277	  3277#
$KCHNN	  2692#	  3141	  3196	  3279	  3279#	  3289	  3324#	  4641	  4696	  4789	  4789#	  5187	  5242	  5303
	  5303#	  5757	  5812	  5905	  5905#	  6351	  6406	  6467	  6467#	  6478
$KNUNN	  2703#	  2707	  2710	  2711	  2715	  2765	  2767	  2768	  2771	  2774	  2780	  2785	  2788	  2800
	  2807	  2807#	  2812	  2815	  2816	  2820	  2870	  2872	  2876	  2879	  2885	  2890	  2893	  2905
	  2912	  2912#	  2917	  2920	  2921	  2925	  2975	  2977	  2981	  2984	  2990	  2995	  2998	  3010
	  3017	  3017#	  3022	  3025	  3026	  3030	  3080	  3082	  3086	  3089	  3095	  3100	  3103	  3115
	  3122	  3122#	  3126	  3127	  3335#	  3339	  3343	  3345	  3358	  3370	  3374	  3375	  3482	  3618
	  3618#	  3625	  3626	  3634	  3638	  3649	  3653	  3655	  3668	  3680	  3684	  3685	  3792	  3928
	  3928#	  3935	  3936	  3944	  3948	  3959	  3963	  3965	  3978	  3990	  3994	  3995	  4102	  4238
	  4238#	  4245	  4246	  4254	  4258	  4269	  4273	  4275	  4288	  4300	  4304	  4305	  4412	  4548
	  4548#	  4555	  4556	  4564	  4568	  4579	  4579#	  4583	  4583#	  4587	  4587#	  4591	  4591#	  4595
	  4595#	  4599	  4599#	  4603	  4603#	  4607	  4607#	  4611	  4611#	  4615	  4615#	  4619	  4619#	  4623
	  4623#	  4626	  4831#	  4835	  4839	  4841	  4854	  4866	  4870	  4871	  4978	  5114	  5114#	  5121
	  5122	  5130	  5135	  5145	  5145#	  5149	  5149#	  5153	  5153#	  5157	  5157#	  5161	  5161#	  5165
	  5165#	  5169	  5169#	  5172	  5369#	  5373	  5377	  5379	  5392	  5404	  5408	  5409	  5516	  5652
	  5652#	  5659	  5660	  5668	  5674	  5683	  5683#	  5687	  5687#	  5691	  5691#	  5695	  5695#	  5699
	  5699#	  5703	  5703#	  5707	  5707#	  5711	  5711#	  5715	  5715#	  5719	  5719#	  5723	  5723#	  5727
	  5727#	  5731	  5731#	  5735	  5735#	  5739	  5739#	  5742	  5995#	  5999	  6003	  6005	  6018	  6030
	  6034	  6035	  6142	  6278	  6278#	  6285	  6286	  6294	  6301	  6309	  6309#	  6313	  6313#	  6317
	  6317#	  6321	  6321#	  6325	  6325#	  6329	  6329#	  6333	  6333#	  6336
COMMOD - COMMON DATA LOCATIONS USED BY DISK SERVICE	MACRO 12.5-46.0 14:24 13-JAN-88
COMMOD.MAC	20-NOV-87 23:00		Symbol cross reference

$LOCW	  2662#
$MDNUM	  2657#
$RMNUM	  2658#
$SAXCN	  2684#	  2686	  3203	  3248	  3316	  3316#	  3318	  4703	  5249	  5819	  6413	  6560	  6560#
$SAXN	  2681#	  2683	  3203	  4703	  5249	  5819	  6413	  6591	  6591#
$SAXUN	  2690#	  3203	  3208	  3208#	  3211	  3211#	  3302	  3322#	  4703	  4708	  4708#	  5249	  5254	  5254#
	  5819	  5824	  5824#	  6413	  6418	  6418#	  6491
$SYFTN	  2653#	  2712	  2716	  2759	  2759#	  2817	  2821	  2864	  2864#	  2922	  2926	  2969	  2969#	  3027
	  3031	  3074	  3074#	  6630
$SYUNN	  2660#	  2706	  2708	  2811	  2813	  2916	  2918	  3021	  3023	  3338	  3340	  3358	  3359	  3482
	  3617	  3617#	  3643	  3648	  3650	  3668	  3669	  3792	  3927	  3927#	  3953	  3958	  3960	  3978
	  3979	  4102	  4237	  4237#	  4263	  4268	  4270	  4288	  4289	  4412	  4547	  4547#	  4573	  4578
	  4579	  4579#	  4582	  4583	  4583#	  4586	  4587	  4587#	  4590	  4591	  4591#	  4594	  4595	  4595#
	  4598	  4599	  4599#	  4602	  4603	  4603#	  4606	  4607	  4607#	  4610	  4611	  4611#	  4614	  4615
	  4615#	  4618	  4619	  4619#	  4622	  4623	  4623#	  4834	  4836	  4854	  4855	  4978	  5113	  5113#
	  5139	  5144	  5145	  5145#	  5148	  5149	  5149#	  5152	  5153	  5153#	  5156	  5157	  5157#	  5160
	  5161	  5161#	  5164	  5165	  5165#	  5168	  5169	  5169#	  5372	  5374	  5392	  5393	  5516	  5651
	  5651#	  5677	  5682	  5683	  5683#	  5686	  5687	  5687#	  5690	  5691	  5691#	  5694	  5695	  5695#
	  5698	  5699	  5699#	  5702	  5703	  5703#	  5706	  5707	  5707#	  5710	  5711	  5711#	  5714	  5715
	  5715#	  5718	  5719	  5719#	  5722	  5723	  5723#	  5726	  5727	  5727#	  5730	  5731	  5731#	  5734
	  5735	  5735#	  5738	  5739	  5739#	  5998	  6000	  6018	  6019	  6142	  6277	  6277#	  6303	  6308
	  6309	  6309#	  6312	  6313	  6313#	  6316	  6317	  6317#	  6320	  6321	  6321#	  6324	  6325	  6325#
	  6328	  6329	  6329#	  6332	  6333	  6333#	  6629	  6633
$U	  2695#	  2698	  3283	  3283#	  3327#	  3330	  4793	  4793#	  4799#	  4802	  4822	  4822#	  4826	  5307
	  5307#	  5313#	  5316	  5336	  5336#	  5340	  5360	  5360#	  5364	  5909	  5909#	  5915#	  5918	  5938
	  5938#	  5942	  5962	  5962#	  5966	  5986	  5986#	  5990	  6471	  6471#
$U1	  3216#	  3219	  3220	  3220#	  3223	  3224	  3224#	  3227	  3228	  3228#	  3231	  3232	  3232#	  3234
	  4716#	  4719	  4720	  4720#	  4723	  4724	  4724#	  4727	  4728	  4728#	  4731	  4732	  4732#	  4735
	  4736	  4736#	  4739	  4740	  4740#	  4743	  4744	  4744#	  4747	  4748	  4748#	  4751	  4752	  4752#
	  4755	  4756	  4756#	  4759	  4760	  4760#	  4763	  4764	  4764#	  4767	  4768	  4768#	  4771	  4772
	  4772#	  4775	  4776	  4776#	  4779	  4780	  4780#	  4782	  5262#	  5265	  5266	  5266#	  5269	  5270
	  5270#	  5273	  5274	  5274#	  5277	  5278	  5278#	  5281	  5282	  5282#	  5285	  5286	  5286#	  5289
	  5290	  5290#	  5293	  5294	  5294#	  5296	  5832#	  5835	  5836	  5836#	  5839	  5840	  5840#	  5843
	  5844	  5844#	  5847	  5848	  5848#	  5851	  5852	  5852#	  5855	  5856	  5856#	  5859	  5860	  5860#
	  5863	  5864	  5864#	  5867	  5868	  5868#	  5871	  5872	  5872#	  5875	  5876	  5876#	  5879	  5880
	  5880#	  5883	  5884	  5884#	  5887	  5888	  5888#	  5891	  5892	  5892#	  5895	  5896	  5896#	  5898
	  6426#	  6429	  6430	  6430#	  6433	  6434	  6434#	  6437	  6438	  6438#	  6441	  6442	  6442#	  6445
	  6446	  6446#	  6449	  6450	  6450#	  6453	  6454	  6454#	  6457	  6458	  6458#	  6460
%%KONU	  3213#	  3235	  4713#	  4783	  5259#	  5297	  5829#	  5899	  6423#	  6461
%%XXQ	  6574#	  6577	  6578	  6578#	  6581	  6582	  6582#
%BPA0	  3374#	  4626
%BPA1	  3375	  3684#
%BPA10	  4591	  4595#
%BPA11	  4595	  4599#
%BPA12	  4599	  4603#
%BPA13	  4603	  4607#
%BPA14	  4607	  4611#
%BPA15	  4611	  4615#
%BPA16	  4615	  4619#
%BPA17	  4619	  4623#
%BPA2	  3685	  3994#
%BPA20	  4623	  4626#
%BPA3	  3995	  4304#
COMMOD - COMMON DATA LOCATIONS USED BY DISK SERVICE	MACRO 12.5-46.0 14:24 13-JAN-88
COMMOD.MAC	20-NOV-87 23:00		Symbol cross reference

%BPA4	  4305	  4579#
%BPA5	  4579	  4583#
%BPA6	  4583	  4587#
%BPA7	  4587	  4591#
%BPB0	  4870#	  5172
%BPB1	  4871	  5145#
%BPB10	  5169	  5172#
%BPB2	  5145	  5149#
%BPB3	  5149	  5153#
%BPB4	  5153	  5157#
%BPB5	  5157	  5161#
%BPB6	  5161	  5165#
%BPB7	  5165	  5169#
%BPC0	  5408#	  5742
%BPC1	  5409	  5683#
%BPC10	  5707	  5711#
%BPC11	  5711	  5715#
%BPC12	  5715	  5719#
%BPC13	  5719	  5723#
%BPC14	  5723	  5727#
%BPC15	  5727	  5731#
%BPC16	  5731	  5735#
%BPC17	  5735	  5739#
%BPC2	  5683	  5687#
%BPC20	  5739	  5742#
%BPC3	  5687	  5691#
%BPC4	  5691	  5695#
%BPC5	  5695	  5699#
%BPC6	  5699	  5703#
%BPC7	  5703	  5707#
%BPD0	  6034#	  6336
%BPD1	  6035	  6309#
%BPD10	  6333	  6336#
%BPD2	  6309	  6313#
%BPD3	  6313	  6317#
%BPD4	  6317	  6321#
%BPD5	  6321	  6325#
%BPD6	  6325	  6329#
%BPD7	  6329	  6333#
%CH10	  3370#	  6477
%CH11	  3371	  3680#
%CH110	  4591	  4595#
%CH111	  4595	  4599#
%CH112	  4599	  4603#
%CH113	  4603	  4607#
%CH114	  4607	  4611#
%CH115	  4611	  4615#
%CH116	  4615	  4619#
%CH117	  4619	  4623#
%CH12	  3681	  3990#
%CH120	  4623	  4866#
%CH121	  4867	  5145#
%CH122	  5145	  5149#
COMMOD - COMMON DATA LOCATIONS USED BY DISK SERVICE	MACRO 12.5-46.0 14:24 13-JAN-88
COMMOD.MAC	20-NOV-87 23:00		Symbol cross reference

%CH123	  5149	  5153#
%CH124	  5153	  5157#
%CH125	  5157	  5161#
%CH126	  5161	  5165#
%CH127	  5165	  5169#
%CH13	  3991	  4300#
%CH130	  5169	  5404#
%CH131	  5405	  5683#
%CH132	  5683	  5687#
%CH133	  5687	  5691#
%CH134	  5691	  5695#
%CH135	  5695	  5699#
%CH136	  5699	  5703#
%CH137	  5703	  5707#
%CH14	  4301	  4579#
%CH140	  5707	  5711#
%CH141	  5711	  5715#
%CH142	  5715	  5719#
%CH143	  5719	  5723#
%CH144	  5723	  5727#
%CH145	  5727	  5731#
%CH146	  5731	  5735#
%CH147	  5735	  5739#
%CH15	  4579	  4583#
%CH150	  5739	  6030#
%CH151	  6031	  6309#
%CH152	  6309	  6313#
%CH153	  6313	  6317#
%CH154	  6317	  6321#
%CH155	  6321	  6325#
%CH156	  6325	  6329#
%CH157	  6329	  6333#
%CH16	  4583	  4587#
%CH160	  6333	  6477#
%CH17	  4587	  4591#
%CK00	  3141#	  3301
%CK01	  3196	  3289#
%CK10	  4641#	  6490
%CK11	  4696	  5187#
%CK12	  5242	  5757#
%CK13	  5812	  6351#
%CK14	  6406	  6478#
%ERR	  1540	  1542
%ERR.N	  1539
%FTA0	  2808#	  2913#	  3018#	  3123#	  3126
%FTA4	  3126#
%RIB	   825	  1092	  1093	  1094	  1095	  1096	  1097	  1312
%SIZ0	  3482	  3643#
%SIZ1	  3792	  3953#
%SIZ10	  4595	  4595#
%SIZ11	  4599	  4599#
%SIZ12	  4603	  4603#
%SIZ13	  4607	  4607#
COMMOD - COMMON DATA LOCATIONS USED BY DISK SERVICE	MACRO 12.5-46.0 14:24 13-JAN-88
COMMOD.MAC	20-NOV-87 23:00		Symbol cross reference

%SIZ14	  4611	  4611#
%SIZ15	  4615	  4615#
%SIZ16	  4619	  4619#
%SIZ17	  4623	  4623#
%SIZ2	  4102	  4263#
%SIZ20	  4978	  5139#
%SIZ21	  5145	  5145#
%SIZ22	  5149	  5149#
%SIZ23	  5153	  5153#
%SIZ24	  5157	  5157#
%SIZ25	  5161	  5161#
%SIZ26	  5165	  5165#
%SIZ27	  5169	  5169#
%SIZ3	  4412	  4573#
%SIZ30	  5516	  5677#
%SIZ31	  5683	  5683#
%SIZ32	  5687	  5687#
%SIZ33	  5691	  5691#
%SIZ34	  5695	  5695#
%SIZ35	  5699	  5699#
%SIZ36	  5703	  5703#
%SIZ37	  5707	  5707#
%SIZ4	  4579	  4579#
%SIZ40	  5711	  5711#
%SIZ41	  5715	  5715#
%SIZ42	  5719	  5719#
%SIZ43	  5723	  5723#
%SIZ44	  5727	  5727#
%SIZ45	  5731	  5731#
%SIZ46	  5735	  5735#
%SIZ47	  5739	  5739#
%SIZ5	  4583	  4583#
%SIZ50	  6142	  6303#
%SIZ51	  6309	  6309#
%SIZ52	  6313	  6313#
%SIZ53	  6317	  6317#
%SIZ54	  6321	  6321#
%SIZ55	  6325	  6325#
%SIZ56	  6329	  6329#
%SIZ57	  6333	  6333#
%SIZ6	  4587	  4587#
%SIZ7	  4591	  4591#
%SY0	  3358#
%SY1	  3359	  3668#
%SY10	  4591	  4595#
%SY11	  4595	  4599#
%SY12	  4599	  4603#
%SY13	  4603	  4607#
%SY14	  4607	  4611#
%SY15	  4611	  4615#
%SY16	  4615	  4619#
%SY17	  4619	  4623#
%SY2	  3669	  3978#
COMMOD - COMMON DATA LOCATIONS USED BY DISK SERVICE	MACRO 12.5-46.0 14:24 13-JAN-88
COMMOD.MAC	20-NOV-87 23:00		Symbol cross reference

%SY20	  4623	  4854#
%SY21	  4855	  5145#
%SY22	  5145	  5149#
%SY23	  5149	  5153#
%SY24	  5153	  5157#
%SY25	  5157	  5161#
%SY26	  5161	  5165#
%SY27	  5165	  5169#
%SY3	  3979	  4288#
%SY30	  5169	  5392#
%SY31	  5393	  5683#
%SY32	  5683	  5687#
%SY33	  5687	  5691#
%SY34	  5691	  5695#
%SY35	  5695	  5699#
%SY36	  5699	  5703#
%SY37	  5703	  5707#
%SY4	  4289	  4579#
%SY40	  5707	  5711#
%SY41	  5711	  5715#
%SY42	  5715	  5719#
%SY43	  5719	  5723#
%SY44	  5723	  5727#
%SY45	  5727	  5731#
%SY46	  5731	  5735#
%SY47	  5735	  5739#
%SY5	  4579	  4583#
%SY50	  5739	  6018#
%SY51	  6019	  6309#
%SY52	  6309	  6313#
%SY53	  6313	  6317#
%SY54	  6317	  6321#
%SY55	  6321	  6325#
%SY56	  6325	  6329#
%SY57	  6329	  6333#
%SY6	  4583	  4587#
%SY60	  6333	  6629#
%SY7	  4587	  4591#
%SYF0	  2712#
%SYF1	  2716	  2817#
%SYF2	  2821	  2922#
%SYF3	  2926	  3027#
%SYF4	  3031	  6630#
..	  1258#	  1259	  1260	  1261	  2664#	  2664	  2669	  6603#	  6605	  6605#	  6607	  6607#	  6610	  6626
COMMOD - COMMON DATA LOCATIONS USED BY DISK SERVICE	MACRO 12.5-46.0 14:24 13-JAN-88
COMMOD.MAC	20-NOV-87 23:00		Macro/Opdef cross reference

APITCB	  2306#
APKON	  1766#
BPITCB	  2330#	  3341	  3651	  3961	  4271	  4579	  4583	  4587	  4591	  4595	  4599	  4603	  4607	  4611
	  4615	  4619	  4623	  4837	  5145	  5149	  5153	  5157	  5161	  5165	  5169	  5375	  5683	  5687
	  5691	  5695	  5699	  5703	  5707	  5711	  5715	  5719	  5723	  5727	  5731	  5735	  5739	  6001
	  6309	  6313	  6317	  6321	  6325	  6329	  6333
BPKON	  1730#	  4629	  5175	  5745	  6339
CHNCB	  1358#
CLRPT	  1540
CLRPTO	  1540
DFCON	  1956#
DPITCB	  2285#
DPKON	  1668#
EPTPGP	  1539
EPTPGS	  1539
FHITCB	  2324#
FHKON	  1699#
FTDDB	  2375#	  2764	  2869	  2974	  3079
FTITCB	  2421#	  2709	  2814	  2919	  3024
FTKCHN	  1795#	  3246
FTKON	  1800#	  3129
GENMSK	    32#	   319	   320	   326	   368	   375	   396	   475	   554	   575	   595	   601
GTLNK	  1258
IFCPU	    35	    96	   102	  2318	  6686
IFNCPU	    87
INTCON	  1846#
KONCB1	  1632#	  2694	  3326	  4798	  5312	  5914
KONKON	  1884#	  3133	  4633	  5179	  5749	  6343
KONSAX	  1743#	  3202	  4702	  5248	  5818	  6412
KONTCB	  1628#	  2694	  3326	  4798	  5312	  5914
KONUNL	  1860#	  3212	  4712	  5258	  5828	  6422
ND	    33	    36	    37	    38	    51	    52	    62	    64	    66	    68	    84	   108	   109	   110
	   111	   112	   113	   114	   115	   119	   121	   122	  2368
NMCH	  2591#	  2746	  2851	  2956	  3061	  3196	  3292	  3371	  3681	  3991	  4301	  4579	  4583	  4587
	  4591	  4595	  4599	  4603	  4607	  4611	  4615	  4619	  4623	  4696	  4867	  5145	  5149	  5153
	  5157	  5161	  5165	  5169	  5242	  5405	  5683	  5687	  5691	  5695	  5699	  5703	  5707	  5711
	  5715	  5719	  5723	  5727	  5731	  5735	  5739	  5812	  6031	  6309	  6313	  6317	  6321	  6325
	  6329	  6333	  6406	  6481
NMCHUN	  2594#	  3370	  3371	  3680	  3681	  3990	  3991	  4300	  4301	  4579	  4583	  4587	  4591	  4595
	  4599	  4603	  4607	  4611	  4615	  4619	  4623	  4866	  4867	  5145	  5149	  5153	  5157	  5161
	  5165	  5169	  5404	  5405	  5683	  5687	  5691	  5695	  5699	  5703	  5707	  5711	  5715	  5719
	  5723	  5727	  5731	  5735	  5739	  6030	  6031	  6309	  6313	  6317	  6321	  6325	  6329	  6333
	  6477
NMFTDB	  2369#	  2715	  2765	  2768	  2774	  2780	  2820	  2870	  2879	  2885	  2925	  2975	  2984	  2990
	  3030	  3080	  3089	  3095	  3127
NMFTDI	  2371#	  2769	  2800	  2905	  3010	  3115
NMKCN	  2615#	  3141	  3196	  3289	  3301	  4641	  4696	  5187	  5242	  5757	  5812	  6351	  6406	  6478
	  6490
NMKNUN	  2600#	  3126	  3374	  3375	  3684	  3685	  3994	  3995	  4304	  4305	  4579	  4583	  4587	  4591
	  4595	  4599	  4603	  4607	  4611	  4615	  4619	  4623	  4626	  4870	  4871	  5145	  5149	  5153
	  5157	  5161	  5165	  5169	  5172	  5408	  5409	  5683	  5687	  5691	  5695	  5699	  5703	  5707
	  5711	  5715	  5719	  5723	  5727	  5731	  5735	  5739	  5742	  6034	  6035	  6309	  6313	  6317
	  6321	  6325	  6329	  6333	  6336
COMMOD - COMMON DATA LOCATIONS USED BY DISK SERVICE	MACRO 12.5-46.0 14:24 13-JAN-88
COMMOD.MAC	20-NOV-87 23:00		Macro/Opdef cross reference

NMSCH	  2618#	  3203	  4703	  5249	  5819	  6413	  6577	  6581
NMSYUN	  2612#	  3358	  3359	  3668	  3669	  3978	  3979	  4288	  4289	  4579	  4583	  4587	  4591	  4595
	  4599	  4603	  4607	  4611	  4615	  4619	  4623	  4854	  4855	  5145	  5149	  5153	  5157	  5161
	  5165	  5169	  5392	  5393	  5683	  5687	  5691	  5695	  5699	  5703	  5707	  5711	  5715	  5719
	  5723	  5727	  5731	  5735	  5739	  6018	  6019	  6309	  6313	  6317	  6321	  6325	  6329	  6333
	  6629
NMUN	  2606#	  2711	  2785	  2816	  2890	  2921	  2995	  3026	  3100	  3219	  3223	  3227	  3231	  3345
	  3358	  3370	  3374	  3626	  3634	  3638	  3655	  3668	  3680	  3684	  3936	  3944	  3948	  3965
	  3978	  3990	  3994	  4246	  4254	  4258	  4275	  4288	  4300	  4304	  4556	  4564	  4568	  4579
	  4583	  4587	  4591	  4595	  4599	  4603	  4607	  4611	  4615	  4619	  4623	  4719	  4723	  4727
	  4731	  4735	  4739	  4743	  4747	  4751	  4755	  4759	  4763	  4767	  4771	  4775	  4779	  4841
	  4854	  4866	  4870	  5122	  5130	  5135	  5145	  5149	  5153	  5157	  5161	  5165	  5169	  5265
	  5269	  5273	  5277	  5281	  5285	  5289	  5293	  5379	  5392	  5404	  5408	  5660	  5668	  5674
	  5683	  5687	  5691	  5695	  5699	  5703	  5707	  5711	  5715	  5719	  5723	  5727	  5731	  5735
	  5739	  5835	  5839	  5843	  5847	  5851	  5855	  5859	  5863	  5867	  5871	  5875	  5879	  5883
	  5887	  5891	  5895	  6005	  6018	  6030	  6034	  6286	  6294	  6301	  6309	  6313	  6317	  6321
	  6325	  6329	  6333	  6429	  6433	  6437	  6441	  6445	  6449	  6453	  6457
PRINT2	  1630#	  2701	  3333	  4829	  5367	  5993
PRINTF	  6632
RMITCB	  2291#
RMKON	  1754#
SACCB	  1427#	  2686	  3318
SAXCB	  1401#	  2683
STOPCD	    23	  1473	  1503	  1520
SY$DV0	  2665#	  2665	  2667	  2669	  6612#	  6617	  6621	  6626
SY$DV1	  2665#	  2665	  2667	  2669	  6613#	  6617	  6621	  6626
SYDVF	  2664	  6602
SYFTNM	  2373#	  2712	  2716	  2817	  2821	  2922	  2926	  3027	  3031	  6630
UNITCB	  2002#	  3342	  3652	  3962	  4272	  4579	  4583	  4587	  4591	  4595	  4599	  4603	  4607	  4611
	  4615	  4619	  4623	  4838	  5145	  5149	  5153	  5157	  5161	  5165	  5169	  5376	  5683	  5687
	  5691	  5695	  5699	  5703	  5707	  5711	  5715	  5719	  5723	  5727	  5731	  5735	  5739	  6002
	  6309	  6313	  6317	  6321	  6325	  6329	  6333
XP	     9	    10	    11	    12	    14	    15	    16	    17	    18	    39	    40	    41	    42	    43
	    44	    81	   195	   355	   399	   541	   543	   550	   551	   552	   553	   554	   558	   559
	   561	   562	   565	   571	   572	   573	   574	   575	   577	   578	   580	   583	   584	   592
	   594	   595	   599	   600	   601	  1209	  1251	  1666	  2802	  2907	  3012	  3117	  6593
$END	  6706
%KNCHN	  2597#
%NCH	  2588#	  2746	  2851	  2956	  3061	  3196	  3292	  3371	  3681	  3991	  4301	  4579	  4583	  4587
	  4591	  4595	  4599	  4603	  4607	  4611	  4615	  4619	  4623	  4696	  4867	  5145	  5149	  5153
	  5157	  5161	  5165	  5169	  5242	  5405	  5683	  5687	  5691	  5695	  5699	  5703	  5707	  5711
	  5715	  5719	  5723	  5727	  5731	  5735	  5739	  5812	  6031	  6309	  6313	  6317	  6321	  6325
	  6329	  6333	  6406	  6481
%NUN	  2603#	  2710	  2711	  2785	  2815	  2816	  2890	  2920	  2921	  2995	  3025	  3026	  3100	  3219
	  3223	  3227	  3231	  3343	  3345	  3358	  3370	  3374	  3626	  3634	  3638	  3653	  3655	  3668
	  3680	  3684	  3936	  3944	  3948	  3963	  3965	  3978	  3990	  3994	  4246	  4254	  4258	  4273
	  4275	  4288	  4300	  4304	  4556	  4564	  4568	  4579	  4583	  4587	  4591	  4595	  4599	  4603
	  4607	  4611	  4615	  4619	  4623	  4719	  4723	  4727	  4731	  4735	  4739	  4743	  4747	  4751
	  4755	  4759	  4763	  4767	  4771	  4775	  4779	  4839	  4841	  4854	  4866	  4870	  5122	  5130
	  5135	  5145	  5149	  5153	  5157	  5161	  5165	  5169	  5265	  5269	  5273	  5277	  5281	  5285
	  5289	  5293	  5377	  5379	  5392	  5404	  5408	  5660	  5668	  5674	  5683	  5687	  5691	  5695
	  5699	  5703	  5707	  5711	  5715	  5719	  5723	  5727	  5731	  5735	  5739	  5835	  5839	  5843
	  5847	  5851	  5855	  5859	  5863	  5867	  5871	  5875	  5879	  5883	  5887	  5891	  5895	  6003
COMMOD - COMMON DATA LOCATIONS USED BY DISK SERVICE	MACRO 12.5-46.0 14:24 13-JAN-88
COMMOD.MAC	20-NOV-87 23:00		Macro/Opdef cross reference

	  6005	  6018	  6030	  6034	  6286	  6294	  6301	  6309	  6313	  6317	  6321	  6325	  6329	  6333	  6429
	  6433	  6437	  6441	  6445	  6449	  6453	  6457
%SUN	  2609#	  2771	  2876	  2981	  3086	  3345	  3655	  3965	  4275	  4579	  4583	  4587	  4591	  4595
	  4599	  4603	  4607	  4611	  4615	  4619	  4623	  4841	  5145	  5149	  5153	  5157	  5161	  5165
	  5169	  5379	  5683	  5687	  5691	  5695	  5699	  5703	  5707	  5711	  5715	  5719	  5723	  5727
	  5731	  5735	  5739	  6005	  6309	  6313	  6317	  6321	  6325	  6329	  6333
%UNSZ	  2621#	  3482	  3643	  3792	  3953	  4102	  4263	  4412	  4573	  4579	  4583	  4587	  4591	  4595
	  4599	  4603	  4607	  4611	  4615	  4619	  4623	  4978	  5139	  5145	  5149	  5153	  5157	  5161
	  5165	  5169	  5516	  5677	  5683	  5687	  5691	  5695	  5699	  5703	  5707	  5711	  5715	  5719
	  5723	  5727	  5731	  5735	  5739	  6142	  6303	  6309	  6313	  6317	  6321	  6325	  6329	  6333tC