COMMON - MONITOR COMMON DATA AREA AND CONFIGURATION DEFINITION - V534	MACRO 12.5-46.0 14:23 13-JAN-88 PAGE 1
COMMON.MAC	 7-DEC-87 14:36		PART 3 COMMON.MAC - T. HASTINGS/CMF/TL/CHW/AF/TW/PFC/RCC/PH   TS  29 OCT 70

    41					ALL CONFIGURATIONS.  HOWEVER, THE ASSEMBLIES ARE CONDITIONED BY
    42					SYMBOLS AND MACROS DEFINED IN 2.
    43
    44					THE FOLLOWING SYMBOLS AND TABLES ARE GENERATED BELOW:
    45
    46					A. MONITOR STARTUP LOCATIONS (140-147), HENCE LOAD THIS FIRST.
    47					B. JOB TABLES - LENGTH DEPENDENT ON MAXIMUM NUMBER OF JOBS ALLOWED
    48					C. ALL VARIABLE STORAGE NOT ASSOCIATED WITH A PARTICULAR DEVICE
    49					D. COMMON SUBROUTINE RETURNS
    50					E. COMMON BYTE POINTERS
    51					F. TABLE OF SERVICE ROUTINE INTERRUPT LOCS TO BE LINKED BY ONCE ONLY CODE
    52					G. TABLE OF DEVICE DATA BLOCK ADDRESSES AND NUMBER TO BE USED BY ONCE TO
    53						LINK THEM TOGETHER AND GENERATE MULTIPLE COPIES.
    54				        H. ASSIGNMENT OF PI CHANNELS
    55					I. PI CHANNEL SAVE AND RESTORE ROUTINES
    56					J. M TRAP LOCATIONS 40/41, 60/61
    57					K. SYSTEM CRASH STOP CONI'S.
    58					L. CONFIGURATION DEPENDENT CODE FOR CERTAIN DEVICES AND THE SWAPPER.
    59
    60				LEVEL D DISK SERVICE PARAMETERS:
    61
    62				  ALL SYMBOLS AND LOCATIONS ARE IN A SEPARATE FILE CALLED
    63				  COMMOD.MAC WHICH IS ALSO ASSEMBLED WITH S AND CONFIG (BUT NOT WITH FEATURS FILES).
    64				  THE SEPARATE FILE IS FOR TWO REASONS:
    65				    1.  ANTICIPATING MULTIPROCESSING SYSTEMS WHICH SHARE DISKS AND 1 16K MEMORY
    66				        (THE DATA MUST BE IN THE COMMON MEMORY)
    67				    2.  ELIMINATE THE NEED TO ASSEMBLE COMMOD IF NOT A DISK SYSTEM
    68				        (COMMOD.MAC TAKES LOTS OF CORE FOR ITS COMPLICATED MACROS)
    69				  HOWEVER, THE TWO FILES MAY BE ASSEMBLED TOGETHER IF DESIRED.
    70				  TO DO THIS, COMMON.MAC MUST PRECEED COMMOD.MAC, AND SYMBOL FTCMBTH MUST BE DEFINED.
    71				  THUS, A COMMAND STRING WOULD BE
    72
    73					.R MACRO
    74					*COMMON,COMMON/C_TTY:,DSK:S,CONFIG,COMMON,COMMOD
    75					FTCMBTH==0
    76					^Z
    77
    78					END OF PASS 1
    79
    80					FTCMBTH==0
    81					^Z
    82				>
    83				;THE FOLLOWING STANDARD SYMBOLS CAN BE SUPERCEDED BY A CUSTOMER HAVING
    84				; PREVIOUSLY DEFINED THEM ON THE CONFIG.MAC FILE
    85
    86			000001	NDL LISTSN,1	;FORCE THE S.MAC FILE TO BE LISTED ON THE FRONT OF
    87						; COMMON (UNLESS LISTSN DEFINED TO BE 0 WITH MONGEN)
    88
    89				;THESE SYMBOLS DEFINE THE VALUES OF VERSION FROM MONGEN
    90
    91		060035	000000		A00CLH=:BYTE(9)'P',035	;Change this for P036
    92				EXTERN	A00CVN			;This is defined in COMTXT based on CNFN##.MAC
    93				EXTERN	A00EDT			;Defined in COMTXT, incremented by MONDOC
COMMON - MONITOR COMMON DATA AREA AND CONFIGURATION DEFINITION - V534	MACRO 12.5-46.0 14:23 13-JAN-88 PAGE 1-2
COMMON.MAC	 7-DEC-87 14:36		PART 3 COMMON.MAC - T. HASTINGS/CMF/TL/CHW/AF/TW/PFC/RCC/PH   TS  29 OCT 70

    94
    95			000002	IFNDEF	A00CLH,<AXXWHO=0;>AXXWHO==2 ;NONZERO IF CUSTOMER MODIFIED MONITOR
    96		060035	000000	ND	A00CLH,0		;CUSTOMER LH (%CNVER) (18-BITS)
    97				;;	A00CVN,0		;CUSTOMER VERSION NUMBER (36-BITS)
    98
    99			000502	ND	A00MVN,502		;MAJOR VERSION OF MONITOR--UPDATED AT
   100								; START OF DEVELOPMENT CYCLE (9-BITS)
   101			000000	ND	A00SVN,0		;SOUP NUMBER--UPDATED AT START
   102								; OF EACH SOUP DEVELOPMENT CYCLE (6-BITS)
   103				;;	A00MCO,^D1000		;HIGHEST MCO IN THIS LOAD (18-BITS)
   104								; 7.01 has A00MVN=701, A00MCO=^D 9337
   105								; 7.03 has A00MVN=703, A00MCO=^D12834
   106			000000	ND	A00DLN,0		;DEC LOAD NUMBER (6-BITS)
   107								; SET TO ZERO FOR ANY RELEASE, ELSE
   108								; 1-7 IF SOUP, 10-77 IF DEVELOPMENT
   109			000002	ND	A00WHO,AXXWHO		;DEC LAST EDITED (3-BITS)
   110
   111			050200	AXXVER==<BYTE(18)A00CLH(12)A00MVN-IFE A00SVN,<IFN A00DLN,<1>>(6)IFE A00SVN,<A00DLN>>
   112								;Note: CONFIG item 34 is not %CNVER in TYMCOM-X
   113			050200	ND	A00VER,AXXVER		;A00VER is in DEC's  %CNVER (GETTAB 34,,11)
   114								;A00CVN is stored in %CNCVN (GETTAB 70,,11)
   115			250200	A00DEC==<BYTE(3)A00WHO(9)A00MVN(6)A00SVN>_-^D18	;LH  %CNDVN (GETTAB 71,,11)
   116								;RH of %CNDVN is A00EDT (defined in COMTXT.MAC)
COMMON - MONITOR COMMON DATA AREA AND CONFIGURATION DEFINITION - V534	MACRO 12.5-46.0 14:23 13-JAN-88 PAGE 2
COMMON.MAC	 7-DEC-87 14:36		PART 3 COMMON.MAC - T. HASTINGS/CMF/TL/CHW/AF/TW/PFC/RCC/PH   TS  29 OCT 70

   117		300000	000000	IFNCPU(F3),<ND DEFDEB,DF.RJE!DF.RDC>	;Get crash dump on JOB and DEBUG stopcodes
   118		300000	000000	ND DEFDEB,0		;Default setting for DEBUGF
   119			000000	ND DEFBPT,0		;Default setting for SET EDDT ON/OFF
   120				IF2,<IFN DEFDEB&<DF.RJE!DF.RDC>,<PRINTX [Will reload on JOB/DEBUG stopcodes]>>
   121
   122								;STANDARD MAG TAPE DENSITY
   123				IFNDEF STDENS, <XP STDENS,3>	;STANDARD == ODD PARITY ("BINARY" MODE) AT 800 BPI
   124								;STDENS,D
   125								;D=1 (200 BPI), OR D=2 (556 BPI), OR D=3 (800 BPI)
   126
   127								;NUMBER OF CLOCK TICKS (JIFFIES) PER SECOND
   128
   129								;NUMBER OF NANO-SECONDS PER MEMORY CYCLE
   130				IFNDEF NSPMEM, <XP NSPMEM,^D1000>	;STANDARD == 1000 NANO-SECONDS PER MEMORY CYCLE
   131
   132
   133
   134								;NUMBER OF TIMES TO TRY ON DECTAPE ERRORS
   135				IFNDEF DTTRY, <XP DTTRY,4>	;STANDARD == 4 TRIES
   136
   137								;SIZE OF MAGTAPE RECORDS (DATA WORDS IN BUFFER)
   138				IFNDEF MTSIZ, <XP MTSIZ,^D128>	;STANDARD == 128 WORDS PER BUFFER
   139
   140								;SIZE OF LPT BUFFER (NUMBER OF DATA WORDS+2)
   141				IFNDEF LPTSIZ, <XP LPTSIZ,^D24+2>	;STANDARD == 24 WORDS PER LPT BUFFER
   142
   143								;MAXIMUM NUMBER OF CONSECUTIVE DECTAPE BLOCKS TO BE
   144								; SEARCHED BEFORE RESCHEDULING IF ANOTHER JOB IS
   145								; WAITING TO USE THE DECTAPE CONTROL.
   146				IFNDEF BLKQNT, <XP BLKQNT,^D50>	;STANDARD == 50 DECTAPE BLOCKS SEARCHED (3 SECS.)
   147
   148				IFNDEF M.SQTA,<XP M.SQTA,^D8> ;STANDARD == ^D8 PAGE TO SWAP IN AT, LIMIT SWAP RATE. (obsolete /
   149				AAA)
   150								; A TIME.
   151				IFNDEF M.IQTA,<XP M.IQTA,0>;STANDARD == ONE I/O PGE FOR EVERY FOURTH JOB. (never implemented /A
   152				AA)
   153								; (ZERO UNTIL BUG IS FIXED)
   154				IFNDEF M.SBSZ,<XP M.SBSZ,0>	;SNOOP BUFFER SIZE. STANDARD=NONE
   155				IFNDEF MAXNBP,<XP MAXNBP,0>	;MAX NUMBER OF SNOOP BREAKPOINTS, DEFAULT 0
   156
   157				IFNDEF AGESIZ,<XP AGESIZ,^D3>	;STANDARD = 3 BITS PER AGES CELL
   158
   159				IFNDEF SHRFPG,<XP SHRFPG,0>	;EXPECTED SHARED FILE PAGES..SET
   160								;NON-ZERO IN CONFIG FOR SYSTEMS WHOSE
   161								;LOADS INCLUDE ALOT OF FILE PAGE SHARING. /AAA
   162
   163				IFNDEF FHIN,<XP FHIN,^D22>	;STANDARD = 22 FRAME HANDLE SLOTS PER FRAME
   164				IFNDEF OPNFPF,<XP OPNFPF,^D10>	;STANDARD = 10 OPEN FILES/FRAME AVERAGE ESTIMATE
   165
   166			000017	DEVLSD==DEVINT+1		;Length of DDB with short dispatch
   167			000020	DEVLLD==DEVPPN+1		;Length of DDB wwth long dispatch (DSK,DECtape)
   168			000000	MONORG==0			;Monitor does not have a HISEG
COMMON - MONITOR COMMON DATA AREA AND CONFIGURATION DEFINITION - V534	MACRO 12.5-46.0 14:23 13-JAN-88 PAGE 2-2
COMMON.MAC	 7-DEC-87 14:36		PART 3 COMMON.MAC - T. HASTINGS/CMF/TL/CHW/AF/TW/PFC/RCC/PH   TS  29 OCT 70

   169
   170
   171				;DEVICE CODES
   172
   173			000274	SAX0==274		;DEVICE CODE FOR FIRST SA-10 IBM DISK/TAPE CONTROLLER
   174			000400	SAX1==400		;            FOR SECOND SA-10
   175			000170	FHD1==170		;DEVICE CODE FOR FIRST FIXED HEAD CONTROLLER
   176			000174	FHD2==174		;            FOR SECOND FIXED HEAD CONTROLLER
   177			000250	DPC1==250		;DEVICE CODE FOR FIRST DISK PACK CONTROLLER (RP02)
   178			000254	DPC2==254		;            FOR SECOND DISK PACK CONTROLLER
   179			000124	LPT1==124		;DEVICE CODE FOR FIRST LINE PRINTER
   180			000234	LPT2==234		;            FOR SECOND LINE PRINTER
   181			000230	LPT3==230		;            FOR THIRD LINE PRINTER
   182			000124	LP0==LPT1
   183			000234	LP1==LPT2
COMMON - MONITOR COMMON DATA AREA AND CONFIGURATION DEFINITION - V534	MACRO 12.5-46.0 14:23 13-JAN-88 PAGE 3
COMMON.MAC	 7-DEC-87 14:36		PART 3 COMMON.MAC - T. HASTINGS/CMF/TL/CHW/AF/TW/PFC/RCC/PH   TS  29 OCT 70

   184				;;;;;;;;;;;;;;;;;;;;;;;;;;;;;;;;;;;;;;;;;;;;;;;;;;;;;;;;;;;;;;;;;;;;;;;;
   185
   186					DEFINE SYSDEV
   187				<	SIXBIT	"DSK">
   188					DEFINE SYSNAM
   189				<IFNDEF SYSX0L,<EXTERNAL SYSX0L,SYSX0R,SYSX1L,SYSX1R,SYSX2L
   190					EXTERNAL SYSX2R,SYSX3L,SYSX3R,SYSX4L,SYSX4R>
   191					SYSX0L,,SYSX0R
   192					SYSX1L,,SYSX1R
   193					SYSX2L,,SYSX2R
   194					SYSX3L,,SYSX3R
   195					SYSX4L,,SYSX4R>
   196
   197					DEFINE SYSDAT
   198				<IFNDEF SYSX5L,<EXTERNAL SYSX5L,SYSX5R,SYSX6L,SYSX6R>
   199					SYSX5L,,SYSX5R
   200					SYSX6L,,SYSX6R>
   201
   202					DEFINE SYSVER
   203				<IFNDEF SYSX7L,<EXTERNAL SYSX7L,SYSX7R>
   204				        SYSX7L,,SYSX7R>
   205			000001	XP DSKN,1		;SYSTEM HAS DISK DRIVES
   206			001000	XP PMEMSZ,^D512
   207				IFCPU(<KI,KL>),<
   208				;*;IFNDEF CHNN,<XP CHNN,0>
   209				  IFNDEF SAXN,<XP SAXN,1>
   210				  > ; End IFCPU(<KI,KL>)
   211				IFCPU(<KS,F3>),<
   212				;*;IFNDEF CHNN,<XP CHNN,1>
   213				  IFNDEF SAXN,<XP SAXN,0>
   214				  > ; End IFCPU(<KS,F3>)
   215
   216			000000	IFNCPU(F3),<ND APXN,0>
   217				IFCPU (F3),<ND APXN,1>
   218			000000	IFCPU(<KI,KL>),<ND MAGN,0>
   219				IFCPU(<KS,F3>),<ND MAGN,1>
   220				IFNDEF RA10N,<XP RA10N,0>
   221				IFNDEF RP10N,<XP RP10N,0>
   222				IFNDEF RD10N,<XP RD10N,0>
   223
   224				IFCPU(KS),<
   225				  XP LPRUN,0
   226				IFN LPTN,<XP LPRUN,1>	;Set LPRUN=1 if one or more LPTs
   227				  XP LPRVEC,754
   228				> ;End IFCPU(KS)
   229
   230				IFCPU (KI),<
   231				  IFNDEF PTRN,<PTRN==1>
   232				  IFNDEF PTPN,<XP PTPN,1> >
   233				IFNCPU(KI),<
   234				  IFNDEF PTRN,<PTRN==0>		;NOT GLOBAL BECAUSE OF DSKSER USE
   235				  IFNDEF PTPN,<XP PTPN,0> >
   236				IFNDEF PLTN,<XP PLTN,0>
COMMON - MONITOR COMMON DATA AREA AND CONFIGURATION DEFINITION - V534	MACRO 12.5-46.0 14:23 13-JAN-88 PAGE 3-2
COMMON.MAC	 7-DEC-87 14:36		PART 3 COMMON.MAC - T. HASTINGS/CMF/TL/CHW/AF/TW/PFC/RCC/PH   TS  29 OCT 70

   237				IFNDEF CDRN,<XP CDRN,0>
   238				IFNDEF CR10N,<XP CR10N,0>
   239
   240				IFNDEF COREN,<XP COREN,^D8>
   241
   242				COMMENT ! FREE CORE ALLOCATION CALCULATIONS.  ALLOCATE FOR
   243					DSK DDB'S, BLOCK IO BUFFERS, SPT SECTIONS, ETC.
   244				!
   245
   246				INTERNAL BIOCOR
   247				EXTERNAL DDBCOR			;NUMBER FREECORE BLOCKS PER DDB
   248				EXTERNAL SPTNME,SPTSIZ
   249			000004	XP CORSIZ,4		;NO. OF WORDS IN MONITOR FREE CORE BLOCKS
   250			000152	XP BIOSIZ,<^D6+^D100>	;BLOCK I/O BUFFER SIZE
   251							;(HEADER + DATA AREA)
   252			000012	XP BIONUM,^D10		;NO. OF PORTS CONFIGURED FOR BLOCK I/O
   253			000033	BIOCOR==<BIOSIZ+CORSIZ-1>/CORSIZ  ;NO. OF 4WD BLOCKS FOR BIO BUFFER.
   254				IFCPU(KI),<ND FCWDS,140000>	;Limit monitor FRECOR allocation
   255				IFCPU(F3),<ND FCWDS,100000>	;Limit monitor FRECOR allocation
   256				IFCPU(KS),<ND FCWDS,040000>	;Limit monitor FRECOR allocation
   257				IF2,<
   258				IFDEF FCWDS,<
   259				DDBWDS==OPNFPF*DDBCOR*CORSIZ	;ESTIMATE OPNFPF DDB'S PER FRAME
   260				EFCWDS==JOBN*DDBWDS
   261				IFL JOBN-6,<EFCWDS==6*DDBWDS>	;PUT FLOOR UNDER FCWDS IF JOBN.LT.6
   262				BIOWDS==<BIOSIZ/2>*BIONUM	;FREECORE NEEDED FOR BLOCK IO BUFFERS
   263				SPTWDS==<SHRFPG/SPTNME>*SPTSIZ	;(VERY) ROUGH EST. OF SPT FREECORE
   264				EFCWDS==EFCWDS+BIOWDS+SPTWDS
   265				;IFL FCWDS-EFCWDS,<PRINTX FCWDS IS SMALLER THAN THE ESTIMATE EFCWDS
   266				;>
   267				>;END IFDEF
   268			000000	ND FCWDS,0			;No limit on KL
   269				>;END IF2
   270
   271				IFNDEF INDPPN,<XP INDPPN,777777>	;NON-ZERO IF CUSTOMER WANTS PROGRAMMER NOS
   272								; IN PROJECT X TO BE INDEPENDENT OF THOSE IN PROJECT Y
   273
   274				;NOTE--IN ORDER TO RESERVE PI-CHANNELS FOR
   275				;NON-STANDARD USAGE, FOR EACH CHANNEL (SAY N)
   276				;DEFINE SYMBOL UNIQN==1 VIA CONFIG.  FOR
   277				;EXAMPLE, TO RESERVE CHANNEL 4, DEFINE
   278				;UNIQ4==1.
   279
COMMON - MONITOR COMMON DATA AREA AND CONFIGURATION DEFINITION - V534	MACRO 12.5-46.0 14:23 13-JAN-88 PAGE 4
COMMON.MAC	 7-DEC-87 14:36		PART 3 COMMON.MAC - T. HASTINGS/CMF/TL/CHW/AF/TW/PFC/RCC/PH   TS  29 OCT 70

   280
   281				;DEFINE PARAMETERS THAT SPECIFY SIZE OF CORTAB, NUMBER OF BITS PER
   282				;ENTRY, AND BYTE POINTERS FOR CORE ALLOCATION ROUTINES
   283
   284				INTERNAL CTNMCI,CTNBSA,CTNBPW
   285
   286			000001	CTNBPE==1	;NUMBER OF BITS PER ENTRY IN CORTAB
   287						;MUST EVENLY DIVIDE 36 AND BE 1 OR A POWER OF TWO
   288			000001	CTNMCI==1	;PUT THIS IN CORTAB TO INDICATE A BLOCK IN USE BY MONITOR OR NXM
   289
   290			000044	CTNBPW==^D36/CTNBPE
   291						;NUMBER OF BYTES/WORD
   292
   293			000000	Z1==0
   294			000001	Z2==CTNBPE
   295
   296					XLIST
   297					LIST
   298
   299			000000	CTNBSA==Z1	;THE LARGEST POWER OF TWO IN CTNBPE
   300
   301				DEFINE NMCLC (SET,DE,X,U)
   302				<$U==0
   303				IRP U,<IFE X-$U,<SET==DE'U'UN>
   304					$U=$U+1>>
   305
   306				DEFINE CHNCLC (DE,NUM)
   307				<$UU==0
   308					REPEAT NUM,<
   309					NMCLC (XX,DE,\$UU,<A,B,C,D,E,F,G>)
   310					IFN XX,<ALLKON==ALLKON+1>
   311					$UU==$UU+1>>
   312
   313			000000	ALLKON==0
   314					CHNCLC (FH,RD10N)
   315					CHNCLC (DP,RP10N)
   316					CHNCLC (MD,RA10N)
   317
   318
   319				;PERFORM TRANSLATION FROM HARDWARE TO SOFTWARE DESIGNATION
   320				; FOR ALL DISK SYMBOLS
   321
   322			000000		FHDN==RD10N
   323			000000		DPCN==RP10N
   324			000000		MDFN==RA10N
COMMON - MONITOR COMMON DATA AREA AND CONFIGURATION DEFINITION - V534	MACRO 12.5-46.0 14:23 13-JAN-88 PAGE 5
COMMON.MAC	 7-DEC-87 14:36		Magic locations in low memory (used by BOOT, CTY, etc)

   325				SUBTTL	Magic locations in low memory (used by BOOT, CTY, etc)
   326				;*; DPCIOC==22		;CHANNEL ADDRESS FOR RP10 DATA CHANNEL (LEVEL C ONLY)
   327				;*; DPCCCW==DPCIOC+1	;CHANNEL STORE, TERMINATION WORD FOR RP10
   328				;*; MTIOC==24		;CHANNEL ADDRESS FOR TM10B DATA CHANNEL
   329				;*; MTCCW==MTIOC+1	;FINAL CONTROL WORD STORED HERE
   330				;*; RAXIOC==26		;XWD 0,ADDRESS FOR RA-10'S DATA CHANNEL (LEVEL C ONLY)
   331				;*; RAXCCW==RAXIOC+1	;CHANNEL STORE, TERMINATION WORD
   332				;*; RCXIOC==34		;INITIAL CONTROL WORD FOR RC-10'S DATA CHANNEL
   333				;*; RCXCCW==RCXIOC+1	;CHANNEL STORES FINAL CONTROL WORD HERE ON TERMINATION
   334
   335			000100		%100=:100	;Symbols for DDT
   336			000200		%200=:200
   337			000300		%300=:300
   338			000400		%400=:400
   339			000500		%500=:500
   340			000600		%600=:600
   341			000700		%700=:700
   342			001000		%1000=:1000
   343			002000		%2000=:2000
   344			003000		%3000=:3000
   345			004000		%4000=:4000
   346
   347				;*; CURJOB=:20	;RH=Current job on master CPU, LH=Current job on slave CPU
   348				;*; CLKDDT=:21	;Jump to EDDT if DEBUG set, else physical addr of BOOTS data
   349			000022	    BOOTWD=:22	;Pointer to BOOT text
   350				           ;23	; zero (22 and 23 used to read BOOTS from RP02 disk)
   351			000024	    KSSS4=: 24	;"Sense Switch 4" word for KS
   352				;*; CRSDTM=:24	;(TOPS10) Date/Time of previous crash (default time on RELOAD)
   353				;*; CRSWHY=:25	;(TOPS10) Stopcode name (duplicates %SYSNM but in low core)
   354			000026	    REPSID=:26	;Restart Pack Set ID to verify consistancy of disk packs
   355			000027	    RESTRT=:27	;Restart states and actions (MANUAL, FULL DSKCLN, etc)
   356				;*; CPNDDT=:27	;(TOPS10) Nonzero if at EDDT breakpoint, slave CPUs loop in ACs
   357			000030	    CRSHWD=:30	;If nonzero, jump to REBOOT at clock tick
   358			000031	    RLWORD=:31	;KS reload bits, to enable/disable Keep-Alive with the 8080
   359			000032	    CTYIWD=:32	;2020 CTY input word
   360			000033	    CTYOWD=:33	;2020 CTY output word
   361			0000  KLIIWD=:34	;2020 KLINIK input word
   362			000035	    KLIOWD=:35	;2020 KLINIK output word
   363			000036	    DDTSYM=:36	;Like JOBSYM, but after symbol table has been moved
   364				;*; SYSSNP=:37	;(TOPS10) If nonzero, JSR @SYSSNP at clock tick (output to LPT)
   365			000040	    FORTY=: 40	;LUUO stored at here on KL-10 (not in the EPT)
   366			000041	    JOB41=: 41	;JSR to LUUO handler on KL-10
   367				        ;42-57	;Priority interrupt for KA-10
   368			000044	    JOBREL=:44	;(user mode) Size of SYSTEM.SAV
   369				;*; ARSLOC=:70	;(TOPS10) Instruction executed on a reload after power failure
   370			000071	    KAFLOC=:71	;Instruction executed on a Keep Alive Failure
   371				;*; WRSINS=:72	;(TOPS10) Instruction executed on a Warm ReStart
   372				           ;73	; zero
   373			000074	    JOBDDT=:74	;<ending,,starting> address of EDDT
   374				;*; JOBHSO=:75	;(TOPS10) High Segment Origin
   375				;*; JOBBPT=:76	;(TOPS10) Address of DDT's breakpoint #0
   376				;*; LIGHTS= 77	;(TOPS10) Data to be displayed in lights (KA-10 and KI-10)
   377				;*; JOBEDV=:112	;(TOPS10) Address of Exec Data Vector
COMMON - MONITOR COMMON DATA AREA AND CONFIGURATION DEFINITION - V534	MACRO 12.5-46.0 14:23 13-JAN-88 PAGE 5-2
COMMON.MAC	 7-DEC-87 14:36		Magic locations in low memory (used by BOOT, CTY, etc)

   378			000114	    DDTSA=: 114	;Like JOBDDT, but after symbol table has been moved
   379			000115	    JOBHRL=:115	;(TOPS10) Length,,start of hiseg
   380			000116	    JOBSYM=:116	;Pointer to DDT symbol table as set up by LINK/LOADER
   381			000120	    JOBSA=: 120	;RH has starting address, LH has initial JOBFF
   382			000121	    JOBFF=: 121	;First Free location in lowseg, used by DDT autopatch
   383			000122	    JOBS41=:122	;Copy of JOB41 when creating/reading SAV file
   384			000133	    JOBCOR=:133	;Size of SYSTEM.SAV
   385			000136	    JOBCST=:136	;Reserved for customer definition
   386			000137	    JOBVER=:137	;Version number, pointer to CONFIG table in TYMCOM-X
   387
   388	000137				LOC	137
   389	000137	000000	021065		EXP	CONFIG	;Pointer to configuration table for CRSHID
   390
   391				;SYSTEM INITIALIZATION DISPATCH TABLE, STARTING AT LOCATION 140
   392
   393			000140		COMORG==140	;ORIGIN OF COMMON IS 140
   394	000140				LOC	COMORG	;MAKE LISTING BE SAME AS LOADING SO IT WILL BE EASY
   395							; TO EXAMINE SYSTEM LOCATIONS WITH CONSOLE SWITCHES
   396							; WITHOUT NEEDING LOADER MAP
   397
   398	000140	254000	000000*	SYSDSP::JRST ONCGO##	;(140) INITIALIZE SYSTEM VARIABLES ONCE ONLY
   399	000141	254000	000000*	SYSDDT::JRST PATSYM##	;(141) PATCH SYMBOL TABLE POINTER, THEN ENTER EXEC DDT
   400	000142	254000	000000*		JRST SYSZRO##	;(142) ONCE CODE TO ZAP EDDT & SYMBOL TABLE.
   401	000143	254200	000143		HALT .		;(143) INITIALIZE SYSTEM VARIABLES ALWAYS
   402	000144	254200	000144		HALT .		;(144) ERROR RECOVERY
   403	000145	254200	000145		HALT .		;(145) DO ONCE ONLY CODE OVER AGAIN
   404	000146	254000	000000*	SYSBTS::JRST BOTLOD	;(146) Reload BOOTS from HOM pages on disk
   405	000147	264000	022716	S..147::JSR  CRS147	;(147) CRASH, without STOPCD printout ;;SYSINA+4
   406
   407				IFNDEF SIZIRG,<XP SIZIRG,7>	;SIZE OF INPUT RING (AS POWER OF 2)
   408				IFNDEF SIZORG,<XP SIZORG,10>	;SIZE OF OUTPUT RING (AS POWER OF 2)
   409			000177	    XP MSKIRG,<1_SIZIRG-1>
   410			000377	    XP MSKORG,<1_SIZORG-1>
   411
   412	000150			IFNCPU(F3),<LOC 150	;Data locs for VARIAN-620 or EBUS base
   413	000150			BASEDB::!
   414	000150	000000	000000	KEY620::0		;(150) Set to 63375150626 when system is up
   415	000151	000000	000000		0		;(151) Alarm cell (BBORQ & BBOIO on F3)
   416	000152	000000	000000		0		;(152) Location for 620 to dump core (obsolete)
   417	000153	000000	044000	IRINGA::IRING_4		;(153) Location of input ring in BASE format
   418	000154	000000	004000	IRINGS::1_<SIZIRG+4>	;(154) Size of input ring in BASE format
   419	000155	000000	000000	IRPPDP::0		;(155) PDP-10 pointer to empty input ring
   420	000156	000000	000000	IRP620::0		;(156) BASE pointer to fill input ring
   421	000157	000000	050000	ORINGA::ORING_4		;(157) Location of output ring in BASE format
   422	000160	000000	010000	ORINGS::1_<SIZORG+4>	;(160) Size of output ring in BASE format
   423	000161	000000	000000	ORPPDP::0		;(161) PDP-10 pointer to fill output ring
   424	000162	000000	000000	ORP620::0		;(162) BASE pointer to empty output ring
   425	000163	777777	777777	D620FN:!-1		;(163) SET 0 BY 620 WHEN 10 COMES UP, NON-0 WHEN
   426							;      620 FINISHED DUMPING (OBSOLETE)
   427	000164	000000	000000	LIVWRD:!0		;(164) Used by RMTSER if NUMPRT # 0
   428	000165	000000	000000		0		;(165) if NUMPRT # 0, then QTOST_4
   429	000166	000000	000000		0		;(166) NOT USED
   430	000167	000000	000000		0		;(167) NOT USED
COMMON - MONITOR COMMON DATA AREA AND CONFIGURATION DEFINITION - V534	MACRO 12.5-46.0 14:23 13-JAN-88 PAGE 5-3
COMMON.MAC	 7-DEC-87 14:36		Magic locations in low memory (used by BOOT, CTY, etc)

   431				;Locations 150-167 are BLT'ed to 170-207 when the system crashes.  /JMS
   432			000020	BASEDL==:.-BASEDB
   433				>;END IFNCPU(F3)
   434			000020	ND BASEDL,<170-150>	;Resolve forward reference for F3
   435
   436	000170				LOC	170		;Even on the F3, so CRSHID can dump the rings
   437	000170			BASAVE::BLOCK BASEDL	;(170-207) Copy of IRING/ORING pointers in crash
   438	000210	000000	000001	BASDWN:: 1		;(210) + = startup, 0 = ok, - = base went down
   439							;(211-277 unused)
   440
   441			000300		ND SAXBAS,300	;This location set by DIP switches on the SA-10
   442	000300			IFN SAXN,<LOC	SAXBAS	;Low-core pointers to command lists
   443	000300			SA0BAS::BLOCK 20	;4 words per channel, 4 channels (we use 0=disk,1=tape)
   444	000320			SA1BAS::BLOCK 20	;Reserved for 2nd SA10
   445			000040	SAXLEN==:.-SAXBAS
   446	000340				LOC SAXBAS+40	;This area reserved, even on KS and F3
   447	000340			SASAVE::BLOCK 20+20	;340-377 Copy of SAXBAS in crash
   448				>;END IFN SAXN		;The TOPS-10 KL in St.Louis uses SA0BSE=460
   449							;(400-777 unused)
   450
   451				IFN RA10N!RP10N!RD10N,<
   452					LOC	540		; Channel command words (for now)
   453					LOC <.+1>&777776	;GET TO EVEN LOC FOR CHANNEL COMMAND WORDS
   454				LOCOCW:	BLOCK ALLKON*2
   455
   456				ifn <.+200>&777000,<PRINTX *** CHANNEL COMMAND WORDS PAST 600 ***>
   457				ifn <.&777000>,<PRINTX *** CHANNEL COMMAND WORDS OVERWRITING EPT ***
   458				STOPI>
   459				>  ;End of RA10N!RP10N!RD10N
   460
   461	001000				LOC 1000
   462	001000			EPT::	BLOCK 1000		;EPT in locations 1000-1777
COMMON - MONITOR COMMON DATA AREA AND CONFIGURATION DEFINITION - V534	MACRO 12.5-46.0 14:23 13-JAN-88 PAGE 6
COMMON.MAC	 7-DEC-87 14:36		Magic locations in low memory (used by BOOT, CTY, etc)

   463				IFCPU(F3),<LOC 2000	;The pointers and rings for the F3 must be in page 2
   464				BASEDB::!
   465				KEY620::0		;(2000) Set to 63375150626 when system is up
   466				BBORQ:	0		;(2001) BLOCK I/O REQUEST STORAGE WORD FOR UCODE
   467				BBOIO:	0		;(2002) BLOCK I/O IO WORD FOR MICROCODE
   468				IRINGA::IRING_4		;(173) LOC OF INPUT RING (for CRSHID, ignored by uCODE)
   469				IRINGS::1_<SIZIRG+4>	;(174) SIZE OF INPUT RING (for CRSHID, ignored by uCODE)
   470				IRPPDP::0		;(2005) HOST IRING POINTER
   471				IRP620::0		;(2006) BASE IRING POINTER
   472				ORINGA::ORING_4		;(177) LOC OF INPUT RING (for CRSHID, ignored by uCODE)
   473				ORINGS::1_<SIZORG+4>	;(200) SIZE OF INPUT RING (for CRSHID, ignored by uCODE)
   474				ORPPDP::0		;(2011) HOST OUTPUT RING POINTER
   475				ORP620::0		;(2012) BASE OUTPUT RING POINTER
   476				D620FN:!-1		;(2013) BASE NEVER DUMPS IN PDP-10 MEMORY
   477				LIVWRD:!0		;(2014) Unused if NUMPRT = 0
   478					0		;(2015) QTOST_4 if NUMPRT # 0
   479					0		;(2016) NOT USED
   480					0		;(2017) NOT USED
   481				;Locations 2000-2017 are BLT'ed to 170-207 when the system crashes.  /JMS
   482				BASEDL==:.-BASEDB
   483					BLOCK 2200-2020	;(2020-2200) unused
   484
   485				IFN SIZIRG-7,<	PRINTX ? F3 input ring size must be 200 octal
   486						STOPI>	;Size hardcoded in F3 microcode
   487				IFN SIZORG-10,<	PRINTX ? F3 output ring size must be 400 octal
   488						STOPI>	;Size hardcoded in F3 microcode
   489				IFN .-2200,<	PRINTX ? F3 IRING must be at 2200, ORING must be at 2400
   490						STOPI>	;Location hardcoded in F3 microcode
   491				IRING::	BLOCK	200	;SIZE FIXED BY F3 MICROCODE
   492				ORING::	BLOCK	400	;SIZE FIXED BY F3 MICROCODE
   493				>;END IFCPU (F3)
   494
   495				IFNCPU(F3),<
   496	002200				LOC 2200		;Make this be consistant on all CPUs
   497	002200			IRING::	BLOCK	1_SIZIRG	;2200-2377
   498	002400			ORING::	BLOCK	1_SIZORG	;2400-2777
   499				>;END IFNCPU(F3)
   500	003000				LOC <.+777>&777000	;Go to start of next page
   501
   502	003000			UPT::	BLOCK	SIZCTX*1000	;Context pages for null job (and crash dump)
   503			005777	UPDEND==.-1			;End of BLT for crash dump
COMMON - MONITOR COMMON DATA AREA AND CONFIGURATION DEFINITION - V534	MACRO 12.5-46.0 14:23 13-JAN-88 PAGE 7
COMMON.MAC	 7-DEC-87 14:36		KS-LPT - Page aligned data for the 2020 lineprinter

   504				SUBTTL	KS-LPT - Page aligned data for the 2020 lineprinter
   505				IFCPU (KS),< IFG LPTN,<LOC <.+777>&777000	;Go to start of next page
   506				  ;This data must all fit into one page or else LPTSER must be changed to use
   507				  ;more than one UNIBUS paging RAM register.
   508
   509				;MACROS TO GENERATE KS10 VFU LOADING DATA.  CODE COPIED FROM T10 MODULE LP2SER
   510				DEFINE MOD(A,B),<A-<<A/B>*B>>
   511				..BC==0
   512				..B==0
   513				DEFINE OUTBYT(C),<
   514				..C==C
   515				..BC==..BC+1
   516				IFE ..BC-1,<..C==<..C&377>_<^D18>>
   517				IFE ..BC-2,<..C==<..C&377>_<^D26>>
   518				IFE ..BC-3,<..C==<..C&377>>
   519				IFE ..BC-4,<..C==<..C&377>_<^D8>>
   520				..B==..C!..B
   521				IFE ..BC-4,<EXP ..B
   522					    ..BC==0
   523					    ..B==0>
   524				>;OUTBYT MACRO DEFINITION
   525				DEFINE LASBYT,<
   526				IFN ..B,<EXP ..B
   527				>
   528				>;LASBYT MACRO DEFINITION
   529				DEFINE VFUBIT(LINE),<
   530				..BT==0
   531				IFE LINE,<..BT==..BT!1>		;;LINE 0 GETS CH. 1
   532				IFE MOD(LINE,36),<..BT==..BT!2>	;;EVERY 30 LINES GET CH. 2
   533				IFE MOD(LINE,4),<..BT==..BT!4>	;;EVERY 4TH LINE GETS CH. 3
   534				IFE MOD(LINE,3),<..BT==..BT!10>	;;EVERY 3RD LINE GETS CH. 4
   535				IFE MOD(LINE,12),<..BT==..BT!40>	;;EVERY 10TH LINE GETS CH. 6
   536				IFLE LINE-<LPTLPP-1>,<..BT==..BT!20>	;;ALL LINES.LE.LINES/PAGE GET CH. 5
   537				IFGE LINE-LPTLPP,<..BT==20>	;;LINES ABOVE LINES/PAGE GET ONLY CH. 5
   538				OUTBYT(..BT)
   539				..BT==0
   540				IFE MOD(LINE,24),<..BT==..BT!1>	;;EVERY 20TH LINE GETS CH. 7
   541				IFLE LINE-<LPTLPP-1>,<..BT==..BT!2>	;;LINES 0-LINES/PAGE GET CH. 8
   542				IFE LINE-<LPTLPP-1>,<..BT==..BT!40>	;;LAST LINE ON PAGE GETS CH. 12
   543				IFGE LINE-LPTLPP,<..BT==0>	;;LINES ABOVE LAST GET NOTHING
   544				OUTBYT(..BT)
   545				>;VFUBIT MACRO DEFINITION
   546
   547				IFNDEF LPTLPP,<LPTLPP==^D60>	;default lines/page is 60
   548				IFNDEF LPTFS,<LPTFS==^D66>	;default form size is 66
   549				NXDLPT::EXP LPRUN		;IF 0 THEN LPT IS A NON-EXISTANT DEVICE
   550				LPVLPT::VLDATL,,<<.&777>*4>+4	;output pointer to load DAVFUQ
   551					XWD 356,37437		;start code,,channels 1-11
   552					REPEAT <<LPTFS-4>/2>,<	;this sets up most of the lines
   553					XWD 37037,37037		;generate 2 DAVFU lines w/ ch2-ch11
   554					>;REPEAT
   555					IFE MOD(LPTFS,2),<XWD 37037,37077
   556							  XWD 167400,0>;for even form sizes
COMMON - MONITOR COMMON DATA AREA AND CONFIGURATION DEFINITION - V534	MACRO 12.5-46.0 14:23 13-JAN-88 PAGE 7-2
COMMON.MAC	 7-DEC-87 14:36		KS-LPT - Page aligned data for the 2020 lineprinter

   557					IFN MOD(LPTFS,2),<XWD 37077,16740>;for odd form sizes
   558				VLDATL==.-LPVLPT-1
   559					BLOCK ^D46-VLDATL	;leave room for form sizes up to ~88/GL
   560				LPCFPT::1,,<<.&777>*4>+4
   561					BYTE (2) 0 (8) 14,15
   562				NEWTOF::1,,<<.&777>*4>+4	;new top of form /GL
   563					BYTE (2) 0 (8) 357,0	;stop byte /GL
   564				LPTEPT::LTEDAT,,<<.&777>*4>+4
   565				REPEAT ^D16,<BYTE (2) 0 (8) "8","8" (2) 0 (8) "8","8">
   566					BYTE (2) 0 (8) 12,15
   567				LTEDAT==.-LPTEPT-1
   568
   569				IFN LPTN-1,<PRINTX LPT BUFFER ALLOCTION DONE FOR ONLY ONE PRINTER.>
   570				LPBSIZ==40
   571				LPTBUF:	BLOCK <LPBSIZ*5>/4+1
   572				>>;IFCPU KS, IFG LPTN
COMMON - MONITOR COMMON DATA AREA AND CONFIGURATION DEFINITION - V534	MACRO 12.5-46.0 14:23 13-JAN-88 PAGE 8
COMMON.MAC	 7-DEC-87 14:36		Start of relocatable COMMON (byte pointers, etc)

   573				SUBTTL	Start of relocatable COMMON (byte pointers, etc)
   574
   575				;Everything defined before here have fixed locations in absolute low core
   576
   577					STOPCD(,ENTRY,COMMON)   578					ENTRY	COMMON		;For library searches
   579	006000	260040	000000*	COMMON::PUSHJ	P,DIE		;**** Default stopcode for "COMMON" ****
   580	006001	435755	555756		SIXBIT	/COMMON/  	;Title of module
   581	006002	000000	000000		S$NONAME,,0		;?NONAME stopcode "COMMON+nnn(nnnnnn)"
   582			006000	S$NAME==COMMON			;For STOPCDs with no arguments
   583					SALL>
   584					;Default for noname stopcodes
   585
   586					LALL
   587				        SYDVF (<<RTIME,JOBN>>)^
   588			000000		..=0
   589					IRP
   590			000001	..=..+1
   591
   592
   593	006003	777777	000000		XWD	-..,0
   594					.LINK	2,.-1
   595					DEFINE SY$DV0(ARG1),<SY$DV1(ARG1)>
   596					DEFINE SY$DV1(NAME,SIZE),<
   597					  SIXBIT /NAME/
   598					  XWD <SIZE>,NAME>
   599					IRP
   600				SY$DV0(<RTIME,JOBN>)^SY$DV1(RTIME,JOBN)^
   601	006004	626451	554500		  SIXBIT /RTIME/
   602	006005	000100	012024		  XWD <JOBN>,RTIME^^
   603
   604
   605				PURGE ..,SY$DV0,SY$DV1^			;For SYSDVF function 6
   606					SYDVF (<<IRING,<1_SIZIRG>> ,<ORING,<1_SIZORG>> ,<BASEDB,BASEDL>>)^
   607			000000		..=0
   608					IRP
   609			000001	..=..+1
   610
   611			000002	..=..+1
   612
   613			000003	..=..+1
   614
   615
   616	006006	777775	000000		XWD	-..,0
   617					.LINK	2,.-1
   618					DEFINE SY$DV0(ARG1),<SY$DV1(ARG1)>
   619					DEFINE SY$DV1(NAME,SIZE),<
   620					  SIXBIT /NAME/
   621					  XWD <SIZE>,NAME>
   622					IRP
   623				SY$DV0(<IRING,<1_SIZIRG>> )^SY$DV1(IRING,<1_SIZIRG> )^
   624	006007	516251	564700		  SIXBIT /IRING/
   625	006010	000200	002200		  XWD <1_SIZIRG >,IRING^^
   626
COMMON - MONITOR COMMON DATA AREA AND CONFIGURATION DEFINITION - V534	MACRO 12.5-46.0 14:23 13-JAN-88 PAGE 8-2
COMMON.MAC	 7-DEC-87 14:36		Start of relocatable COMMON (byte pointers, etc)

   627				SY$DV0(<ORING,<1_SIZORG>> )^SY$DV1(ORING,<1_SIZORG> )^
   628	006011	576251	564700		  SIXBIT /ORING/
   629	006012	000400	002400		  XWD <1_SIZORG >,ORING^^
   630
   631				SY$DV0(<BASEDB,BASEDL>)^SY$DV1(BASEDB,BASEDL)^
   632	006013	424163	454442		  SIXBIT /BASEDB/
   633	006014	000020	000150		  XWD <BASEDL>,BASEDB^^
   634
   635
   636				PURGE ..,SY$DV0,SY$DV1^
   637					SYDVF (<<IRINGX,<1_SIZIRG>>,<ORINGX,<1_SIZORG>>,<BASAVE,BASEDL>>)^
   638			000000		..=0
   639					IRP
   640			000001	..=..+1
   641
   642			000002	..=..+1
   643
   644			000003	..=..+1
   645
   646
   647	006015	777775	000000		XWD	-..,0
   648					.LINK	2,.-1
   649					DEFINE SY$DV0(ARG1),<SY$DV1(ARG1)>
   650					DEFINE SY$DV1(NAME,SIZE),<
   651					  SIXBIT /NAME/
   652					  XWD <SIZE>,NAME>
   653					IRP
   654				SY$DV0(<IRINGX,<1_SIZIRG>>)^SY$DV1(IRINGX,<1_SIZIRG>)^
   655	006016	516251	564770		  SIXBIT /IRINGX/
   656	006017	000200	006031		  XWD <1_SIZIRG>,IRINGX^^
   657
   658				SY$DV0(<ORINGX,<1_SIZORG>>)^SY$DV1(ORINGX,<1_SIZORG>)^
   659	006020	576251	564770		  SIXBIT /ORINGX/
   660	006021	000400	006231		  XWD <1_SIZORG>,ORINGX^^
   661
   662				SY$DV0(<BASAVE,BASEDL>)^SY$DV1(BASAVE,BASEDL)^
   663	006022	424163	416645		  SIXBIT /BASAVE/
   664	006023	000020	000170		  XWD <BASEDL>,BASAVE^^
   665
   666
   667				PURGE ..,SY$DV0,SY$DV1^
   668				IFN SAXN,<SYDVF(<<SAXBAS,SAXLEN>,<SASAVE,SAXLEN>>)>^
   669			000000		..=0
   670					IRP
   671			000001	..=..+1
   672
   673			000002	..=..+1
   674
   675
   676	006024	777776	000000		XWD	-..,0
   677					.LINK	2,.-1
   678					DEFINE SY$DV0(ARG1),<SY$DV1(ARG1)>
   679					DEFINE SY$DV1(NAME,SIZE),<
COMMON - MONITOR COMMON DATA AREA AND CONFIGURATION DEFINITION - V534	MACRO 12.5-46.0 14:23 13-JAN-88 PAGE 8-3
COMMON.MAC	 7-DEC-87 14:36		Start of relocatable COMMON (byte pointers, etc)

   680					  SIXBIT /NAME/
   681					  XWD <SIZE>,NAME>
   682					IRP
   683				SY$DV0(<SAXBAS,SAXLEN>)^SY$DV1(SAXBAS,SAXLEN)^
   684	006025	634170	424163		  SIXBIT /SAXBAS/
   685	006026	000040	000300		  XWD <SAXLEN>,SAXBAS^^
   686
   687				SY$DV0(<SASAVE,SAXLEN>)^SY$DV1(SASAVE,SAXLEN)^
   688	006027	634163	416645		  SIXBIT /SASAVE/
   689	006030	000040	000340		  XWD <SAXLEN>,SASAVE^^
   690
   691
   692				PURGE ..,SY$DV0,SY$DV1^ ;For SYSDVF function 6
   693					SALL
   694
   695	006031			IRINGX::BLOCK	1_SIZIRG	;Copy of IRING in crash dump
   696	006231			ORINGX::BLOCK	1_SIZORG	;Copy of ORING in crash dump
   697								;See also BASAVE at locations 170-207
   698	006631	000000	000000	KEYTIM::0			;UPTIME when the base last cleared KEY620
   699	006632	000000	000000	IRPTIM::0			;UPTIME when the message read from IRING
   700	006633	000000	000000	ORPTIM::0			;UPTIME when the last message was put in ORING
   701
   702			000001	XP EPT.PN,<EPT_-9>
   703			000003	XP UPT.PN,<UPT_-9>
   704			000760	IFNCPU(KI),<XP EPTEBR,EPTFSL>	;WHERE TO DO CONO PAG FROM.
   705				IFCPU (F3),<XP EPTACB,100>	;PLACE FOR F3 TO STORE NON-CURRENT AC BLOCKS
   706
   707				;LMAP AND UPT GENERATION
   708
   709			372000	  UP%000=:%UPT+000	;User page map
   710			372200	  UP%200=:%UPT+200	;User HISEG map
   711			372400	  UP%400=:%UPT+400	;Funnyspace map
   712			372500	  UP%500=:%UPT+500	;Page fail words (KI uses 426)
   713			372600	  UP%600=:%UPT+600	;Stack and such  (KI uses 440)
   714							;PGT,MUU,MUP,KNT defined in K?SYM
   715			372420	  UP%PGT=:%UPT+UPTPGT	;Trap instructions (420-423)
   716			372424	  UP%MUU=:%UPT+UPTMUU	;UUO or illegal instruction stored here (424)
   717			372425	  UP%MUP=:%UPT+UPTMUP	;PC of UUO or illegal instruction (425)
   718			372430	  UP%KNT=:%UPT+UPTKNT	;Start of dispatch table (430-437)
   719
   720					SALL		;MAKE COMMENTS COME OUT IN SPITE OF MACRO BUG.
   721
   722				DEFINE UVAR(LABEL)<UARRAY(LABEL,1)>
   723
   724				DEFINE UARRAY(LABEL,SIZE)<LABEL=:<%UPT.V==%UPT.V+SIZE>-<SIZE>>
   725				DEFINE UARRAY(LABEL,SIZE)<XP LABEL,%UPT.V
   726							  %UPT.V==%UPT.V+'SIZE>
   727
   728			000600	%UPT.V==UPTFSL		;START OF UPT LOCATIONS RELATIVE TO %UPT (440 or 600)
   729
   730				;THE FOLLOWING LOCATIONS MUST BE IN THE FIRST ^D512 WORDS
   731
   732			000004		XP XACSTL,4	;eXec AC STack Length (UUOs nested 4 deep)
COMMON - MONITOR COMMON DATA AREA AND CONFIGURATION DEFINITION - V534	MACRO 12.5-46.0 14:23 13-JAN-88 PAGE 8-4
COMMON.MAC	 7-DEC-87 14:36		Start of relocatable COMMON (byte pointers, etc)

   733			000701	UARRAY(UPTAC0,<<20*XACSTL>+1>)	;Extra word for stack pointer overflow
   734					IFN UPTAC0&17,<PRINTX UPTAC0 MUST BE ON 20 WORD BOUNDARY>
   735			372600	  UP%AC0=:%UPT+UPTAC0
   736			000702	UVAR(UPTSTS)	;JOB IN CORE STATUS BITS
   737							;18-35	STARTING ADDRESS IF STRTAD SET
   738			000001		XP XPNCOR,1	;17	CORE NEEDS TO BE EXPANDED
   739			000002		XP STRTAD,2	;16	RIGHT HALF CONTAINS A STARTING ADDRESS
   740			000004		XP UPSCLK,4	;15	CLOCK SHOULD BE ON
   741			000010		XP SAVCHG,10	;14	CHARGES ARE SAVED IN UPT
   742			000020		XP REC.WR,20	;13	WRITE STREAM ACCTG RECORD NEXT EXIT
   743			000040		XP LSAREC,40	;12	LOCAL STREAM ACCTG DONE
   744			000100		XP SG.SWR,100	;11	CURRENT HISEG LOADED FROM .SWR FILE
   745			000012		XP UPNPSR,^D10	;8-10	(POS) PENDING STREAM REC TYPE
   746			000003		XP UPSPSR,^D3	;	(SIZ) SEE START CMD AND USRXIT
   747			002000		XP UPSSWE,2000	;7	JOB GOT SWAP ERROR FOR USER PAGE
   748							;	WHILE IT OWNED DISK RESOURCE, AND
   749							;	JBTABT NOT SET UP. UTRP SET WITH
   750							;	THIS BIT SO USRXIT SEES IT.
   751			004000		XP UPSABK,4000	;6	ADDRESS BREAK DURING UUO.
   752			010000		XP STRTCL,10000	;5	INCREMENT START ADDRESS BEFORE USING IT.
   753							;0-4	(UNUSED)
   754
   755	006634	310300	372701	 UPYPSR::POINT UPSPSR,%UPT+UPTSTS,UPNPSR ;POINTER TO PENDING STREAM REC TYPE
   756	006635	310300	773701	 USYPSR::POINT UPSPSR,%UPS+UPTSTS,UPNPSR ; One for %UPS
   757	006636	310300	366701	 UXYPSR::POINT UPSPSR,%UPX+UPTSTS,UPNPSR ; One for %UPX
   758
   759			000703	UVAR(UPTJOB)		;HAS JOB NUMBER OWNING THIS UPT
   760			000704	UVAR(UPTPC)		;HAS THE JOB'S PC WHEN NEXT SET TO RUN
   761			372703	  UP%PC=:%UPT+UPTPC
   762			000705	UVAR(UPTACP)		;STACK POINTER TO SAVED EXEC AC'S
   763			000706	UVAR(UPTLDC)		;COUNT OF NUMBER OF LMAP SLOTS KEPT IN ACS FROM THIS UPT
   764			000707	UVAR(UPTABK)		;ADDRESS BREAK WORD.
   765			000176	  XP EPLLEN,176	;LENGTH EXEC PDL
   766			000710	UVAR(UPTUUO)		;Top level MUUO (called from user mode)
   767			372707	  UP%UUO=:%UPT+UPTUUO
   768			001106	UARRAY(UPTPDL,EPLLEN)	;SYSTEM UUO PDL FOR CURRENT JOB
   769			372710	  UP%PDL=:%UPT+UPTPDL		;Stack in funny space
   770			000060		XP NUMCHN,^D48		;MAX NUMBER OF IO CHANNELS
   771			000057		XP MAXCHN,<NUMCHN-1>
   772			001166	UARRAY(UPTJDA,NUMCHN)	;RH==DDB ADDRESSES (JOB DEV ASSIGNMENTS)
   773			373106	  UP%JDA=:%UPT+UPTJDA	;LH= VARIOUS STATUS BITS FOR CHANNEL:
   774							;(INITB,LOOKB,ICLOSB..ETC SEE S.MAC)
   775			001246	UARRAY(UPTSIM,NUMCHN)	;SIMULATED BUFF/DUMP MODE
   776							;IO DATABASE. LH=SEQUENCE STAMP. RH=
   777							;SIMIO STATUS BITS+PAGE NUMBER FIELD
   778			001326	UARRAY(UPTPOS,NUMCHN)	;BLOCK POSITION IN (DSK) FILE ON THIS CHANNEL
   779			001327	UVAR(UPTPBM)		;PAGE BIT MAP. BITS 0-31 SET IF PER-PROCESS
   780							;PGS 340-377 USED FOR SIMIO
   781			001330	UVAR(UPTIOC)	;SIMIO IO COUNT, FOR SEQ. STAMP
   782			001350	UARRAY(UPTXAC,20)	;EXEC ACS HERE WHEN JOB ISN'T RUNNING.
   783			001370	UARRAY(UPTUAC,20)	;USER ACS WHEN JOB ISN'T RUNNING (FORMERLY IN PAGE 0)
   784			373350	  UP%UAC=:%UPT+UPTUAC
   785			000026		XP CHGSIZ,<^D22>
COMMON - MONITOR COMMON DATA AREA AND CONFIGURATION DEFINITION - V534	MACRO 12.5-46.0 14:23 13-JAN-88 PAGE 8-5
COMMON.MAC	 7-DEC-87 14:36		Start of relocatable COMMON (byte pointers, etc)

   786			001416	UARRAY (UPTCHG,CHGSIZ)	;SAVED TRU COMPONENTS. 17 PRE-P031
   787
   788			001417	UVAR(UPTHCU)		;HIGHEST USER I/O CHANNEL IN USE.
   789			001420	UVAR(UPTENB)		;LH=UNUSED,RH=APR CONSO FLAGS FOR USER
   790							; APR TRAPPING.  SET BY APRENB UUO.
   791			001421	UVAR(UPTTPN)		;HAS TRAP NUMBERS FOR VARIOUS TRAPS
   792			001422	UVAR(UPTTP1)		;MORE TRAP NUMBERS
   793			001423	UVAR(UPTMTM)		;Micro-cycle interrupt timer
   794			001424	UVAR(UPTABL)		;SAVED LOCATION FOR ADDRESS BREAK (SO CAN REPORT WHERE UUO WAS)

   795
   796			001425	UVAR(UPTUFI)		;USER WORKING SET PAGE FAULT INFORMATION
   797			001426	UVAR(UPTXFI)		;LIKE UFI, BUT FOR TIMES TRAP CAN'T HAPPEN
   798			001427	UVAR(UPTUEI)		;USER ERROR INFORMATION (FOR PAGES)
   799			001430	UVAR(UPTXEI)		;LIKE UEI, BUT USED WHEN TRAP CAN'T HAPPEN
   800			001431	UVAR(UPTURI)		;USER REF BIT TRAP INFO
   801			001432	UVAR(UPTXRI)		;LIKE URI, BUT USED WHEN TRAP CAN'T HAPPEN.
   802			001433	UVAR(UPTUII)		;ILL MEM REF, WRITE VIOL, ADDR BREAK INFO WORDS
   803			001434	UVAR(UPTXII)		; RETURNED BY PGISTS UUO.
   804
   805			001420	  XP UPTTCB,UPTTPN	;FIRST LOC TO CLEAR IN APRENB
   806			001433	  XP UPTTCE,UPTXII	;LAST LOC.
   807			001435	UVAR(UPTREL)		;LH/0; RH/LOWSEG HI ADDR OR 0 IF NO LOWSEG
   808			001436	UVAR(UPTHRL)		;LH/0;  RH/HISEG HI ADDR, OR 0 IF NO HISEG
   809			001437	UVAR(UPTRNM)		;RESTRICTED COMMAND FILE NAME
   810			001440	UVAR(UPTRPN)		;RESTRICTED COMMAND FILE PPN
   811			001441	UVAR(UPTALD)		;ALTERNATE LOGOUT PROGRAM DEVICE
   812			001442	UVAR(UPTALP)		;ALTERNATE LOGOUT PROGRAM PPN
   813			001443	UVAR(UPTALN)		;ALTERNATE LOGOUT PROGRAM NAME
   814			001444	UVAR(UPTPJC)		;SESSION PROJECT CODE WORD 0
   815			001445	UVAR(UPTPJ1)		;WORD 1
   816			001446	UVAR(UPTPJ2)		;WORD 2,BIT 35 IS "LICENSE REQD" BIT
   817			001447	UVAR(UPTSAT)		;HAS STATUS BITS FOR + ADDR OF %SAT PCB.
   818			001450	UVAR(UPTRIB)		;HAS STATUS BITS FOR + ADDR OF %RIB PCB.
   819			001451	UVAR(UPTRB2)		;HAS STATUS BITS FOR + ADDR OF %RB2 PCB.
   820			001452	UVAR(UPTPID)		;PID FOR CURRENT PROGRAM - FROM RUN FILE'S PID.
   821			001453	UVAR(UPTSPD)		;SAVED PID, SO PIDSET UUO CAN SET IT TO 0 AND BACK
   822
   823			001454	UVAR(UPTLOG)		;Originating Port for this frame.
   824			373453	  UP%LOG=:%UPT+UPTLOG
   825			001455	UVAR(UPTLKJ)		;JOB NUMBER OF JOB WHO OWNS CONTEXT PAGE WRITE LOCK FOR THESE C

   826				ONTEXT PAGES
   827			001456	UVAR(UPTLKW)		;HEAD OF WAITERS FOR CTX PAGE WRITE INTERLOCK
   828			001457	UVAR(UPTOFD)		;FRAME DESCRIPTOR SET BY SETOTF UUO.
   829			001460	UVAR(UPTLKC)		;NUMBER OF TIMES OWNER OF LOCK CALLED FOR IT AGIN+1
   830							; (NESTED PAGE FAULTS INSIDE UUOS, ETC.)
   831			001461	UVAR(UPTETP)		;(0) CLASS,,TYPE WITHIN CLASS OF ERROR TRAP
   832			001460	XP UPTHST,UPTETP	;FIRST LOCATION OF HALT STATUS BLOCK
   833			001462	UVAR(UPTECN)		;(1) COUNT TO TELL HOW MANY ERRORS HAPPENED.
   834			001463	UVAR(UPTEPC)		;(2) PC OF ERROR TRAP
   835			001464	UVAR(UPTEUP)		;(3) PC OF LAST TOP LEVEL UUO PERFORMED
   836			001465	UVAR(UPTEDV)		;(4) DEVICE NAME, LOCATION, ETC.
COMMON - MONITOR COMMON DATA AREA AND CONFIGURATION DEFINITION - V534	MACRO 12.5-46.0 14:23 13-JAN-88 PAGE 8-6
COMMON.MAC	 7-DEC-87 14:36		Start of relocatable COMMON (byte pointers, etc)

   837			001466	UVAR(UPTELC)		;(5) LOCATION, OTHER DATA
   838			001467	UVAR(UPTEL1)		;(6) ANOTHER LOCATION FOR ERROR DATA.
   839			000007	XP FHSMXC,<UPTEL1-UPTHST+1> ;MAXIMUM COUNT
   840
   841			000025	XP FHIMAX,FHIN-1	;MAXIMUM VALUE FOR INDEXING INTO UPTFHT
   842
   843			001515	UARRAY(UPTFHT,FHIN)	;FRAME HANDLE ADDRESSES.
   844
   845			001516	UARRAY(UPTS2P,.ARSIZ)	;BITS FOR ACCESS RIGHTS OF SELF OVER PARENT
   846			001517	UARRAY(UPTP2S,.ARSIZ)	;BITS FOR ACCESS RIGHTS OF PARENT OVER SELF
   847			001520	UARRAY(UPTMFR,.ARSIZ)	;MAX INWARD RIGHTS FOR THINGS THAT NEED CONTEXT PAGES IN.
   848
   849			001521	UVAR(UPTSTV)		;CONTAINS SIZE,,START ADDRESS OF START VECTOR
   850				;DEFINE LMAP LOCATIONS
   851			002556	UARRAY(UPTLMA,<VPMAX+1>);BASIC LMAP SLOT DATA, INDEXED BY VP
   852			002576	UARRAY(UPTMWB,<<VPMAX+1+^D35>/^D36>)
   853							;MONITOR WORKING SET BIT TABLE.
   854			000014	AGECPW==:<^D36/AGESIZ>
   855			000007	AGEMAX==:<<1_AGESIZ>-1>
   856			002651	UARRAY(UPTAGE,<<^D512+AGECPW-1>/AGECPW>)
   857							;PAGE AGE TABLE
   858			002670	UARRAY(UPTUWB,<<^D512+^D35>/^D36>)
   859							;USER WORKING SET BIT TABLE
   860			002671	UVAR(UPTUWS)		;USER WORKING SET DATA
   861							;CURRENT SIZE IS IN JBYUWS.
   862	006637	121200	374670	 UPYUWL::POINT 10,%UPT+UPTUWS,25	;CURRENT LIMIT
   863	006640	121200	775670	 USYUWL::POINT 10,%UPS+UPTUWS,25 ;ONE FOR %UPS
   864	006641	121200	370670	 UXYUWL::POINT 10,%UPX+UPTUWS,25 ;ONE FOR %UPX
   865	006642	001200	374670	 UPYUWM::POINT 10,%UPT+UPTUWS,35	;CEILING FOR CURRENT LIMIT
   866	006643	001200	775670	 USYUWM::POINT 10,%UPS+UPTUWS,35 ;ONE FOR %UPS
   867	006644	001200	370670	 UXYUWM::POINT 10,%UPX+UPTUWS,35 ;ONE FOR %UPX
   868
   869			002672	UVAR(UPTNTV)		;TICKS UNTIL NEXT PAGE AGE RECOMPUTATION
   870			002673	UVAR(UPTMAT)		;# OF MATURE PAGES (AGE .GE. C(AGEMAT))
   871			002674	UVAR(UPTELD)		;# OF ELDERLY PAGES (AGE .GT. C(AGEELD))
   872			002675	UVAR(UPTRPT)		;POINTER FOR CIRCULAR PAGE REPLACEMENT ALGORITHM
   873
   874			002676	UVAR(UPTRES)		;WORD FOR SWAPPER TO REMEMBER RESERVED PAGES
   875	006645	241200	775675	 USYSIN::POINT 10,%UPS+UPTRES,15	;NUMBER OF PAGES SWAPPED IN
   876							; FOR SETTING UP ICPT
   877	006646	121200	775675	 USYRES::POINT 10,%UPS+UPTRES,25	;NUMBER OF RESERVES PAGES JOB OWNS STILL
   878	006647	001200	775675	 USYLSP::POINT 10,%UPS+UPTRES,35	;LMAP SCAN POINTER (WHERE
   879							; SWAPPER STARTS SWAPPING IN ON A CYCLE
   880
   881			002675	XP UPTEND,%UPT.V-1	;Ending location to clear, end of BLT when crashing
   882			000003	NCTXPG==:<%UPT.V!777+1>/1000
   883				ONSZCK(CONTEXT,NCTXPG,CTX)	;Check if enough space allocated for CTX pages
   884			005676	  PDL=:   UPT+%UPT.V		;Stack for null job and scheduler
   885			000102	  NULUPL==NCTXPG*1000-%UPT.V	;Null job UPT limit = until end of page
   886				  IFL <NULUPL-60>,<PRINTX ? Null job PDL is too small>
   887	006650	777676	005675	NULPDL::IOWD NULUPL,PDL		;Null job gets a short stack (70 words)
   888
   889			001031	VPUMAX==:VPMAX-NCTXPG	;MAXIMUM NON-CONTEXT PAGE VP
COMMON - MONITOR COMMON DATA AREA AND CONFIGURATION DEFINITION - V534	MACRO 12.5-46.0 14:23 13-JAN-88 PAGE 8-7
COMMON.MAC	 7-DEC-87 14:36		Start of relocatable COMMON (byte pointers, etc)

   890
   891			000372	XP %UPT.N,VPUMAX+1-CNVVPN 	;START PAGE OF CONTEXT PAGES
   892			372000	XP %UPT,<%UPT.N_9>	;START ADDRESS OF CONTEXT PAGES IN UPT
   893			373521	XP %UPLMA,%UPT+UPTLMA	;THIS ADDR+VP GIVES LMAP SLOT DATA
   894			367521	XP %UPLMX,%UPX+UPTLMA	;DITTO FOR %UPX.
   895
   896			000371	XP %COW.N,%UPT.N-1	;USED FOR COPY ON WRITE
   897			371000	XP %COW,<%COW.N_^D9>
   898
   899				;%UPX IS A SPECIAL SET OF PAGES THAT EITHER CONTAINS POINTERS IDENTICAL
   900				; TO %UPT POINTERS IF THE SLOTS DON'T EXIST, OR LMAP SLOTS FOR
   901				; ANOTHER FRAMES'S CONTEXT PAGES.
   902
   903			000366	XP %UPX.N,%COW.N-NCTXPG	;PLACE FOR VIRTUAL UUOS THAT WORK ON OTHER FRAMES TO
   904							; ACCESS CURRENT CONTEXT PAGES
   905			366000	XP %UPX,<%UPX.N_^D9>
   906
   907				;ADD OTHER PERMANENTLY ALLOCATED EXEC PER PROCESS VALUES ABOVE HERE
   908			000365	XP %LEP.N,%UPX.N-1	;LAST DYNAICALLY ALLOCATED EXEC PER PROCESS PAGE
   909
   910	006651	000000	177777	PBMMSK::-1_<340-%LEP.N+1>	;MASK FOR DYNAMIC ALLOCATER.
   911								; 1 MEANS IN USE.
   912
   913			000773	XP %UPS.N,EVPMAX-NCTXPG+1	;FIRST EPT PAGE NUMBER THAT CONTEXT PGES MAPPED IN
   914			773000	XP %UPS,<%UPS.N_9>	;FIRST CONTEXT PAGE ADDRESS IN EPT
   915			774521	XP %UPLMS,%UPS+UPTLMA	;THIS ADDR PLUS VP GIVES 36 BIT LMAP SLOT DATA
   916
   917	006652	222200	372415	UPYPTN:: UPMPTR(%UPT.N)		;
   918	006653	002200	372414	UPYPTM:: UPMPTR(%UPT.N-1)	; (CORE1)
   919	006654	222200	372413	UPYPXN:: UPMPTR(%UPX.N)		;
   920	006655	002200	372412	UPYPXM:: UPMPTR(%UPX.N-1)	; (CORE1)
   921
   922	006656	222200	773415	USYPTN:: UPSPTR(%UPT.N)		; (ONCE)(CORE1)
   923	006657	222200	773413	USYPXN:: UPSPTR(%UPX.N)		;
   924	006660	002200	773414	USYPTM:: UPSPTR(%UPT.N-1)	;
   925	006661	002200	773412	USYPXM:: UPSPTR(%UPX.N-1)	; (SCHED1)
   926
   927	006662	222200	372415	UXYPTN:: UPXPTR(%UPT.N,%UPT)	;
   928	006663	002200	372414	UXYPTM:: UPXPTR(%UPT.N-1,%UPT)	; (COMCON)
   929
   930	006664	002200	001375	EPYPSN:: EPTPTR(%UPS.N)
   931						; (ONCE)(PICON)(UUOCON)
   932	006665	222200	001375	EPYPSM:: EPTPTR(%UPS.N-1)
   933					; (CORE1)(SCHED1)
COMMON - MONITOR COMMON DATA AREA AND CONFIGURATION DEFINITION - V534	MACRO 12.5-46.0 14:23 13-JAN-88 PAGE 9
COMMON.MAC	 7-DEC-87 14:36		Start of relocatable COMMON (byte pointers, etc)

   934				;LMAP BIT DEFINITIONS
   935
   936			400000	XP LMPSHR,400000	;SHARED (OFF IS UNSHARED)
   937
   938			000002	XP LMSCUR,2		;SIZE OF PROTECTION FIELD
   939			000002	XP LMNCUR,2		;BIT POSITION
   940			100000	XP LMPCUR,(1B<LMNCUR>)	;THE BIT (see CPRRED, CPRCOW, CPRDRW in S.MAC
   941			000003	  XP MAXCPR,CPRRDW	;MAXIMUM DEFINED PROTECTION.
   942
   943	006666	410212	373521	LMYCUR:: POINT LMSCUR,%UPLMA(W),LMNCUR ;CURRENT PROTECTION: WRITE,
   944							;COW, OR READ ONLY.
   945	006667	410200	000016	LM3CUR:: POINT LMSCUR,P3,LMNCUR
   946			300000	XP LMMCUR,300000	;DEFINED ONLY BECAUSE OF LMMEXS.
   947			700000	XP LMMEXS,LMPSHR!LMMCUR ;IF ALL OF THE MASKED BITS ARE OFF,
   948							;THE PAGE IS NON-EXISTENT.
   949			040000	XP LMPACT,40000		;ACTIVE (SEMI IN-CORE BIT)
   950			020000	XP LMPMXW,20000		;MAXIMALLY WRITEABLE
   951			320000	  XP LMMMXW,LMPMXW!LMMCUR ; For use as Maximally writeable MASK
   952			320000	  XP LMMRED,LMPMXW!(<CPRRDW>B<LMNCUR>) ; Max WRITE, READ ONLY
   953			320000	  XP LMMRDW,LMPMXW!(<CPRRDW>B<LMNCUR>) ; PROTOTYPE LMAP SLOT
   954			010000	XP LMPREF,10000		;REF
   955			004000	XP LMPVIR,4000		;VIRGIN
   956			002000	XP LMPDER,2000		;DEVICE ERROR
   957			001000	XP LMPDTE,1000		;DATA ERROR
   958			003000	 XP LMMERR,LMPDER!LMPDTE ;MASK
   959	006670	330212	373521	LMYERR::POINT 2,%UPLMA(W),^L<LMPDTE>-^D18 ;SWAP ERROR BITS
   960	006671	330200	000016	LM3ERR::POINT 2,P3,^L<LMPDTE>-^D18	;ONE FOR P3
   961			000400	XP LMPSUP,400		;THIS IS A SUPER MAPPED PAGE.
   962			320400	  XP LMMSUP,LMPSUP!LMMMXW ; Super mapped, Maximally writeable MASK
   963			000200	XP LMPNER,200		;IGNORE I/O ERROR ON THIS PAGE.
   964			000100	XP LMPLOK,100		;SLOT IS LOCKED IN CORE (NEVER DEACTIVATED EXCEPT IN REMOVE)
   965
   966
   967	006672	002712	373521	LMYOVR: POINT ^D23,%UPLMA(W),^D35 ;AN AREA OF THE LMA SLOT
   968							; THAT IS SHARED BY LMYLMA, LMYSPT, LMYATB, AND
   969							; LMYHDA.
   970	006673	002700	000016	LM3OVR: POINT ^D23,P3,^D35
   971	006674	121512	373521	 LMYOV1: POINT ^D13,%UPLMA(W),^D25
   972	006675	121500	000016	 LM3OV1: POINT ^D13,P3,^D25
   973	006676	001212	373521	 LMYOV2: POINT ^D10,%UPLMA(W),^D35
   974	006677	001200	000016	 LM3OV2: POINT ^D10,P3,^D35
   975
   976				;THE FOLLOWING FIELDS EXIST IN AN ACTIVE LMAP SLOT.
   977
   978			006672	XPP LMYLMA,LMYOVR	;LINK OF PGYLMA CHAIN.ITS FORM IS
   979							; THAT OF A JOB-VM PNTR. THE END OF
   980							; THE CHAIN HAS A ZERO (THE SPT ENTRY
   981							; ADDR IS IN PGYSPT, SEE BELOW.).
   982			006674	 XPP LMYLMJ,LMYOV1
   983			006676	 XPP LMYLMV,LMYOV2
   984			006675	 XPP LM3LMJ,LM3OV1
   985			006677	 XPP LM3LMV,LM3OV2
   986
COMMON - MONITOR COMMON DATA AREA AND CONFIGURATION DEFINITION - V534	MACRO 12.5-46.0 14:23 13-JAN-88 PAGE 9-2
COMMON.MAC	 7-DEC-87 14:36		Start of relocatable COMMON (byte pointers, etc)

   987				;THE FOLLOWING FIELDS EXIST IN AN INACTIVE SHARED LMAP SLOT.
   988
   989			006672	XPP LMYSPT,LMYOVR	;AN SPT-ENTRY PNTR.
   990			006673	XPP LM3SPT,LM3OVR
   991	006700	042212	373521	 LMYSPB::POINT 18,%UPLMA(W),31 ;BASE ADDRESS OF SPT SECTION
   992	006701	042200	000016	 LM3SPB::POINT 18,P3,31		;SAME, BUT IN P3
   993	006702	000412	373521	 LMYSPO::POINT 4,%UPLMA(W),35	;OFFSET INTO ENTRIES OF THIS ENTRY
   994	006703	000400	000016	 LM3SPO::POINT 4,P3,35		;ONE FOR P3
   995
   996				;THE FOLLOWING FIELDS EXIST IN AN INACTIVE UNSHARED LMAP SLOT.
   997
   998			006674	XPP LMYATB,LMYOV1	;ADDR OF THE ATB. (REALLY AN OFFSET FROM
   999							;THE START OF A CORE STORAGE AREA.).
  1000			006675	XPP LM3ATB,LM3OV1
  1001			006676	XPP LMYHDA,LMYOV2	;HIGH PART OF THE DISK ADDRESS. (TOTAL
  1002							; DISK ADDRESS REQUIRES
  1003							; 8 BITS FOR UNIT FIELD AND 19 BITS FOR
  1004							; PAGE NUMBER.).LOW PART OF DISK ADDR
  1005							; IS IN UPT AT THIS POINT.
  1006			006677	XPP LM3HDA,LM3OV2
  1007
  1008			000021	XP LMASRP,^D17		;LSH BY THIS TO GET RID OF LOW 17 BITS,
  1009							; OBTAINING HI ORDER DISK ADDRESS.
  1010
  1011				;PARTS OF LMAP IN UPT MAP AREA
  1012
  1013	006704	002100	000017	UP4LDA::POINT 17,P4,35	;LOW ORDER PART OF DISK ADDRESS
  1014
  1015
  1016				;END OF LMAP/UPT DEFN'S
COMMON - MONITOR COMMON DATA AREA AND CONFIGURATION DEFINITION - V534	MACRO 12.5-46.0 14:23 13-JAN-88 PAGE 10
COMMON.MAC	 7-DEC-87 14:36		Start of relocatable COMMON (byte pointers, etc)

  1017				IFCPU(KS),<SUBTTL	Special defintions for the KS-2020
  1018
  1019				;Update the Keep Alive Counter for the KS 8080 front end every second
  1020				KSSEC::	LDB	T1,BKPALV	;Get current count from location 31
  1021					AOS	T1		;Increment it
  1022					DPB	T1,BKPALV	;Store 8 bits (0-377) back
  1023					POPJ	P,		;End of KSSEC
  1024				BKPALV:	POINT	KPALVL,RLWORD,KPALVE	;8080's keep alive count
  1025
  1026				IFNDEF LPTBAS,<LPTBAS==0>	;PDP11 PAGE RESERVED FOR LPT
  1027				XP UBATAP,<LPTBAS_-9>+1		;DEFINE THE PAGING RAM INDICES FOR TAPE
  1028				XP UBACM0,UBATAP+^D32		;SET CM 0 ADDRESS INDEX FOR PAGING RAM
  1029				XP UBAEND,^D64			;END OF PAGING RAM
  1030				XX==0
  1031				IFG 1000-<ORING+<1_SIZORG>>,<	;IF BOTH RINGS FIT INTO PAGE 0
  1032					XP UBANXT,UBACM0+1	;SET RAM INDEX FOR BLOCK IO AFTER RINGS
  1033					XP UBIRBG,UBACM0	;SET IRING BEGIN TO PAGE 0
  1034					XX==1>
  1035				IFL IRING-1000,<XP UBIRBG,UBACM0>;SET INDEX FOR START OF IRING
  1036				IFGE IRING-1000,<XP UBIRBG,UBACM0+1>
  1037				IFE XX,<			;ELSE RINGS DONT FIT IN PAGE 0
  1038					XX==<<ORING+<1_SIZORG>+777>_-9>-<IRING_-9>;CALC. # PAGES FOR RINGS
  1039					XP UBANXT,UBIRBG+XX	;SET RAM INDEX FOR BLOCK IO TO AFTER RINGS
  1040				>;END IFE XX
  1041
  1042				;HERE TO CHECK FOR EXISTENCE OF UBA DEVICES
  1043				; CALL	MOVE	T1,<ADR> OF DEVICE TO CHECK
  1044				;	PUSHJ	P,UBGOOD
  1045				;	LOSE RETURN
  1046				;	WIN RETURN
  1047				UBGOOD::PUSHJ	P,SAVT.		;PRESERVE T1-T4
  1048					SETZ	T2,		;BITS FOR TIOE
  1049					MOVE	T3,[EXP UBNOGD] ;TEMP PAGE FAIL TRAP ADDR
  1050					RDPI	T4		;SAVE STATE OF PI'S
  1051					WRPI	PI.OFF		;DISABLE INTERRUPTS
  1052					EXCH	T3,%UPT+UPTNPP	;SET TEMPORARY PAGE FAIL TRAP ADR
  1053					TIOE	T2,(T1)		;CHECK FOR DEVICE
  1054					  SKIPA			;FAILED
  1055					 AOS	(P)		;WIN
  1056					MOVEI	T2,UBANED!UBATO	;CLEAR NED IN UNIBUS ADAPTER
  1057					HRRI	T1,UBAADR	;GET BASIC ADDRESS OF UNIBUS
  1058					BSIO	T2,(T1)		;CLEAR FLAGS
  1059					MOVEM	T3,%UPT+UPTNPP	;RESTORE TRAP VECTOR
  1060					TRNE	T4,PI.ON	;WERE PI'S ON?
  1061					 WRPI	PI.ON		;YES--THEN ENABLE THEM
  1062					POPJ	P,		;RETURN
  1063
  1064				;HERE WHEN ADDRESS IS BUM
  1065				UBNOGD:	AOS	%UPT+UPTOPP	;SKIP LOSING INSTRUCTION
  1066					JRST	@%UPT+UPTOPP	;JUST RETURN(NONSKIP)
  1067				>;END IFCPU(KS)
  1068
  1069				;Routine SAVT in FILUUO does not preserve T1!
COMMON - MONITOR COMMON DATA AREA AND CONFIGURATION DEFINITION - V534	MACRO 12.5-46.0 14:23 13-JAN-88 PAGE 10-2
COMMON.MAC	 7-DEC-87 14:36		Start of relocatable COMMON (byte pointers, etc)

  1070	006705	250441	000000	SAVT.::	EXCH	T4,(P)		;SAVE T4, GET RETURN ADR.
  1071	006706	261040	000010		PUSH	P,T3		;SAVE T3
  1072	006707	261040	000007		PUSH	P,T2		;AND T2
  1073	006710	261040	000006		PUSH	P,T1		;AND T1
  1074	006711	202441	000001		MOVEM	T4,1(P)		;STORE PC
  1075	006712	200441	777775		MOVE	T4,-3(P)	;RESTORE T4
  1076	006713	260061	000001		PUSHJ	P,@1(P)		;RETURN TO CALLER
  1077	006714	334000	000000		  SKIPA			;POPJ RETURN
  1078	006715	350001	777774		AOS	-4(P)		;CPOPJ1 - SET SKIP RETURN
  1079	006716	262040	000006		POP	P,T1		;RESTORE T1
  1080	006717	262040	000007		POP	P,T2		;RESTORE T3 ACS
  1081	006720	262040	000010		POP	P,T3
  1082	006721	262040	000011		POP	P,T4
  1083	006722	263040	000000		POPJ	P,		;AND RETURN
COMMON - MONITOR COMMON DATA AREA AND CONFIGURATION DEFINITION - V534	MACRO 12.5-46.0 14:23 13-JAN-88 PAGE 11
COMMON.MAC	 7-DEC-87 14:36		Start of zeroed data

  1084				SUBTTL	Start of zeroed data
  1085
  1086	006723			SYSBEG::		;FIRST LOCATION CLEARED ON 143 RESTART (SEE SYSINI)
  1087
  1088			022542	   JOB=:.CPJOB		;Number of current job stored in CDB
  1089
  1090	006723	000000	000000	COMCNT::0			;NUMBER OF COMMANDS TYPED-IN BUT NOT DECODED
  1091								;SET BY SCNSER, DECREMENTED BY COMCON
  1092	006724	000000	000000	HNGTIM::0			;HUNG DEVICE TIME COUNT CHECK FOR HUNG I/O
  1093								;DEVICES WHEN THIS GOES TO ZERO (ONCE PER HNGSEC)
  1094	006725	000000	000000	HNGMIN::0			;COUNTER FOR ONCE A MINUTE
  1095	006726	000000	000000	CLKFLG::0			;NON-ZERO WHEN CLK INTERRUPT FORCED FOR ANY REASON
  1096	006727	000000	000000	STPFLG::0			;SET WHEN CURRENT JOB MAY BE STOPPED
  1097								;CLK INT AND NOT EXEC MODE OR USCHED
  1098	006730	000000	000000	TIMEF::	0			;NON-ZERO FOR CLOCK INTERRUPT ON APR
  1099								;SET BY APRSER, TESTED AND CLEARED BY CLK ROUTINE
  1100								;SET BY APRSER, CLEARED BY CLK ROUTINE (CLOCK)
  1101	006731	000000	000000	DTMADJ::0			;Number of ticks to adjust date/time
  1102	006732	000000	000000	APRPC::	0			;PC WHEN APR ERROR DETECTED
  1103								;LH=-1 ON MEM PARITY ERROR
  1104	006733	000000	000000	SCHEDF::0			;FORCED RESCHEDULING FLAG FOR CLK ROUTINE
  1105								;USED TO FORCE RESCHEDULING WHEN JOB IS IN EXEC MODE
  1106	006734	000000	000000	NULERR::0			;SET NON-ZERO IF MONITOR DETECTS ERROR WHILE
  1107								; NULL JOB IS RUNNING
  1108	006735	000000	000000	POTLST::0			;-1 WHEN SCHEDULER SEES THAT THERE ARE JOBS WHICH
  1109								; ARE POTENTIALLY RUNABLE BUT HAS TO RUN NULL JOB.
  1110								;0 WHEN IT FINDS A REAL JOB TO RUN OR NULL JOB IS
  1111								; ONLY JOB WHICH WANTS TO RUN.  'LSTWRD' IS
  1112								; INCREMENTED EVERY JIFFY IF THIS FLAG IS -1 AND
  1113								; PREVIOUS JOB WAS NULL JOB.
  1114			000200	SLJOBN==JOBN*2			;LEAVE TWO ENTRIES PER JOB
  1115	006736			CIPWT::	BLOCK SLJOBN+3		;CLOCK REQUEST QUEUE
  1116								; LH-MONITOR ADDRESS TO PUSHJ TO AT CLOCK LEVEL
  1117								; WHEN BITS 24-35 COUNT DOWN TO ZERO
  1118								; BITS 18-23 ARE DATA SET IN AC T1 WHEN PUSHJ DONE
  1119								; BITS 24-35 ARE NUMBER OF CLK TICKS LEFT TO GO
  1120			006735		CIPWTM==:CIPWT-1		;FIRST LOC-1 OF CLOCK QUEUE
COMMON - MONITOR COMMON DATA AREA AND CONFIGURATION DEFINITION - V534	MACRO 12.5-46.0 14:23 13-JAN-88 PAGE 12
COMMON.MAC	 7-DEC-87 14:36		Start of zeroed data

  1121				;STORAGE FOR VARIOUS CORE ALLOCATION FUNCTIONS
  1122
  1123
  1124			001000		XP PAGSIZ,1000		;BASIC UNIT OF CORE IN WORDS
  1125
  1126	007141	000000	000000	BASVER::BYTE(8)0,0,0,0		;BASE version from type 3 or type 4 message
  1127				;*;	BYTE(8)0,0,0,0		;Version # of 2nd base
  1128				;*;	BYTE(8)0,0,0,0		;Version # of 3rd base
  1129				;*;	BYTE(8)0,0,0,0		;Version # of 4th base
  1130
  1131	007142			NSWTBL::			;Words 0-7 were CORTAB on a PDP-6 monitor
  1132	007142	000000	000000		0			;(0) unused
  1133	007143	000000	000000		0			;(1) unused
  1134	007144	000000	000000		0			;(2) unused
  1135	007145	000000	000000		0			;(3) unused
  1136	007146	000000	000000		0			;(4) unused
  1137
  1138				;; NEW entries here re-using ancient CORTAB entries	;;  backwards
  1139				;;	which have also been made obsolete by DEC.	;;  from 7-0
  1140
  1141				;WARNING: This table is zeroed out at startup.  See NZRINI in ONCE
  1142
  1143	007147	777777	777777	SYSUDT::-1			;(5) Date/Time when system was loaded
  1144	007150	000000	000000	KSYS::  0			;(6) Minutes until timesharing ends
  1145	007151	000000	000017	INADEF::INADFL			;(7) DEFAULT INACTIVITY TIMEOUT LIMIT MINUTES
  1146	007152	000000	000000	CORMAX::0			;(10) MAXIMUM CORE REQUEST+1 (IE LARGEST REL. ADR,+1)
  1147								; CAN BE RESTRICTED TO LESS THAN ALL OF USER CORE
  1148								; BY BUILD AND/OR ONCE
  1149	007153	000000	000000		0			;*(11) 1 BIT BYTE POINTER TO LAST FREE BLOCK POSSIBLE
  1150								; SET BY SYSINI ON 143 STARTUP
  1151	007154	000000	000000		0			;?(12) TOTAL NUMBER OF FREE+DORMANT+IDLE CORE BLKS LEFT
  1152	007155	000000	000000		0			;*(13) JOB NUMBER SHUFFLER HAS TEMPORARILY STOPPED FOR
  1153								; ITS I/O DEVICES TO BECOME INACTIVE BEFORE SHUFFLING
  1154	007156	000000	000000		0			;*(14) ABSOLUTE ADDRESS OF LOWEST HOLE IN CORE, 0=NONE
  1155	007157	000000	000000	UPTIME::0			;(15) NUMBER OF CLOCK TICKS SINCE SYSTEM LOADED OR
  1156								; RESTARTED AT 143
  1157	007160	000000	000000		0			;*(16) TOTAL NUMBER OF WORDS SHUFFLED BY SYSTEM
  1158	007161	000000	000000		0			;*(17) JOB CURRENTLY USING THE SYSTEM TAPE
  1159								; NEEDED SO CONTROL C WILL NOT TIE UP SYSTEM TAPE
  1160	007162	000000	000000	HIGHJB::0			;(20) HIGHEST JOB NUMBER CURRENTLY ASSIGNED
  1161	007163	000000	000000	CLRWRD::0			;(21) TOTAL NUMBER OF WORDS CLEARED BY 'CLRCOR' RTN.
  1162	007164	000000	000000	LSTWRD::0			;(22) TOTAL NUMBER OF CLOCK TICKS WHEN NULL JOB RAN
  1163								; BUT OTHER JOBS WANTED TO RUN AND COULD NOT
  1164								; DO SO BECAUSE: ---
  1165								;  1. SWAPPED OUT OR ON WAY IN OR OUT
  1166								;  2. MONITOR WAITING FOR I/O TO STOP SO
  1167								;      IT CAN SHUFFLE OR SWAP
  1168								;  3. JOB BEING SWAPPED OUT BECAUSE IT IS
  1169								;      EXPANDING CORE
  1170	007165	000000	000000	MEMSIZ::0		;(23)SIZE OF PHYSICAL MEMORY IN WORDS (=FIRST NON EXIST WORD)
  1171							; SET BY SYSINI ON 143 RESTARTS UNLESS SYMBOLS SAVED BY
  1172							; PATCHING SYSLIM SMALLER.
  1173	007166	000000	000000	PARTOT::0		;(24) TOTAL NUMBER OF BAD MEMORY PARITY ERRORS FOUND BY MONITOR
COMMON - MONITOR COMMON DATA AREA AND CONFIGURATION DEFINITION - V534	MACRO 12.5-46.0 14:23 13-JAN-88 PAGE 12-2
COMMON.MAC	 7-DEC-87 14:36		Start of zeroed data

  1174							;WHILE PROCESSOR WAS IN USER MODE
  1175							; WHILE SYSTEM WAS RUNNING (IF MONITOR HALTS
  1176							; THIS LOC ALREADY UPDATED)
  1177	007167	000000	000000	PARSPR::0		;(25) TOTAL NUMBER OF SPURIOUS MEMORY PARITY ERRORS
  1178							; FOUND BY APR, I.E. ONES WHICH DID NOT OCCUR
  1179							; WHEN MONITOR SWEPT THRU CORE LOOKING FOR BAD
  1180							; PARITY.
  1181	007170	000000	000000	PARCON::0		;(26) COUNT OF NUMBER OF TIMES OPERATOR PUSHED CONTINUE
  1182							; AFTER MEMORY PARITY HALT (PC) IN EXEC MODE OR MORE THAN 1
  1183							; BAD PARITY WORD WHEN PC WAS IN USER MODE)
  1184	007171	000000	000000	PARADR::0		;(27) LAST BAD PHYSICAL MEMORY ADDRESS FOUND
  1185							; WHEN MONITOR SWEPT THRU CORE AFTER
  1186							; PROCESSOR DETECTED FIRST BAD PARITY
  1187	007172	000000	000000	PARWRD::0		;(30) CONTENTS OF LAST BAD WORD FOUND BY MONITOR
  1188							; WHEN MONITOR SWEPT THRU CORE AFTER FIRST PARITY
  1189	007173	000000	000000	PARPC::	0		;(31) PC OF LAST MEM PARITY (NOT COUNTING SWEEP THRU CORE)
  1190							;INSERT NEW LOCATIONS HERE WHICH ARE OF INTEREST
  1191							; TO USERS IN NON-SWAP AND SWAP SYSTEMS
  1192	007174	000000	000000	EPOCNT::0		;*(32) TOTAL #  OF PDL OVF'S  AT M LEVEL IN EXEC MODE
  1193	007175	000000	000000	EPOREC::0		;*(33) # OF PDL OVF'S AT M LEVEL IN EXEC MODE
  1194	007176	000000	000000	NULTIM::0		;(34) NUMBER OF CLOCK TICS NULL JOB HAS BEEN
  1195							;RUNNING SINCE STARTUP
  1196	007177	000000	000000	NULMNT::0		;(35) NUMBER OF CLOCK TICES NULL JOB RAN
  1197							;IN PREVIOUS MINUTE
  1198	007200	000000	000000	ALR620::0		;(36) 620 ALARM CELL (UNHAPPY MSGS)
  1199	007201	000000	000000	USRMAX::0		;(37) MAXIMUM SIZE THAT A JOB'S MWS CAN GET.
  1200							; SETUP BY ONCE TO BE NUMBER OF USER PAGES AVAILABLE.
  1201	007202	000000	000000	SYSUID::0		;(40) last allocated universal frame id number
  1202	007203	000000	000000	THSTIM::0		;(41) UPTIME when SCNSER last ran
  1203	007204	000000	000000	MXTIM::	0		;(42) all time max of (THSTIM-UPTIME)
  1204
  1205			042000	NSWMXL==:<.-NSWTBL-1>B26	;MAXIMUM ENTRY FOR GETTAB SHIFTED LEFT 9
  1206
  1207	007205			SYSBG2:			;1ST. LOCATION FOR ONCE ONLY CODE TO BE ASSEMBLED HERE
  1208							;CORE ALLOCATION DATA NOT AVAILABLE VIA GETTAB
  1209	007205	000000	000000	LASCOR::0		;LAST JOB OR HIGH SEG TO CALL CORE ROUTINES
  1210	007206	000000	000000	PARFLG::0		;-NO. OF PARITY ERRORS ALLOWED IN EXEC MODE
  1211							; BEFORE HALT.  USED TO DETECT SWEEP THRU CORE
  1212
  1213	007207	000000	000177	RCMAX:	177		;MAX SIZE OF USER JOB IN K
  1214	007210	000000	000000	CORMXK::0		;MIN-MAXIMUM SIZE OF USER JOB IN K
  1215	007211	000000	000000	MWSLIM::0		;CURRENT MWS LIMIT. SETUP BY ONCE TO C(USRMAX)
  1216	007212	000000	000000	HLTBRK::0		;IF NON-ZERO, WE WILL HALT ON ADRESS BRK
COMMON - MONITOR COMMON DATA AREA AND CONFIGURATION DEFINITION - V534	MACRO 12.5-46.0 14:23 13-JAN-88 PAGE 13
COMMON.MAC	 7-DEC-87 14:36		Start of zeroed data

  1217				;DATA LOCATIONS PRESENT ONLY IN SWAPPING SYSTEMS
  1218
  1219	007213			SWPTBL::			;FIRST LOCATION OF MONITOR DATA STORAGE
  1220								; RETURNED BY GETTAB M (THESE LOCATIONS
  1221								; PRESENT ONLY IN SWAP SYSTEMS)
  1222								; OCTAL NUMBERS IN () CORRESPOND TO GETTAB ARG
  1223	007213	000000	000000		0			;(0) CURRENT BIGGEST HOLE IN CORE (IN PAGES)
  1224	007214	000000	000000		0			;(1) IF +, THEN JOB NUMBER OF JOB BEING SWAPPED IN,
  1225								;IF -, THEN JOB NUMBER OF JOB BEING SWAPPED OUT
  1226	007215	000000	000000		0			;(2) JOB NUMBER BEING FORCED TO SWAP OUT
  1227	007216	000000	000000		0			;(3) JOB NUMBER WAITING TO BE FITTED INTO CORE
  1228	007217	000000	000000		0			;(4) NUMBER OF FREE PAGES OF SWAPPING SPACE LEFT
  1229								; (COUNTING DORMANT SEGMENTS AS IF FREE).
  1230								; PRINTED WITH CORE COMMAND (NO ARG) OR ERROR
  1231								; USUALLY THE SAME AS THE AMOUNT OF VIRTUAL CORE
  1232								; LEFT IN SYSTEM, EXCEPT WHILE R,RUN,KJOB,GET
  1233								; COMMAND ARE WAITING TO BE SWAPPED IN, BECAUSE
  1234								; THE OLD DISK SPACE HAS NOT BEEN RETURNED YET,
  1235								; BUT VIRTUAL CORE IS ONLY 140 WORDS FOR SWAPIN
  1236	007220	000000	000000	SWPERC::0			;(5) LH= NUMBER OF SWAPPER READ OR WRITE FAILURES
  1237								; RH= ERROR BITS (BITS 18-21) + NUMBER OF J OF
  1238								; DISCARDED SWAPPING SPACE
  1239
  1240								;INSERT NEW LOCATIONS HERE WHICH ARE OF INTEREST
  1241								; TO USER PROGS IN SWAPPING SYSTEMS
  1242	007221	000000	000000	LASIN::	0			;(6) last job or high seg swapped in
  1243	007222	000000	000000	LASOUT::0			;(7) last job or high seg swapped out
  1244			007000	SWPMXL==:<.-SWPTBL-1>B26	;MAXIMUM ENTRY FOR GETTAB SHIFTED LEFT 9
COMMON - MONITOR COMMON DATA AREA AND CONFIGURATION DEFINITION - V534	MACRO 12.5-46.0 14:23 13-JAN-88 PAGE 14
COMMON.MAC	 7-DEC-87 14:36		Start of zeroed data

  1245				;MORE SWAPPING SYSTEM LOCATIONS (NOT RETURNED BY GETTAB)
  1246
  1247	007223	000000	000000	FULCNT::0			;PRINT DISK IS FULL EVERY 30 SECONDS
  1248
  1249				;DEFINE BLOCK FOR BIT TABLE DENOTING 4 WORD BLOCKS AVAILABLE (=0), IN USE (=1)
  1250				; USE MULTIPLES OF 4*^D36 WORDS SO THE TABLE WILL HAVE A MULTIPLE OF ^D36 BITS
  1251				; ADD 7 WORDS TO ACCOMODATE A POSSIBLE 1K BEYOND FRECOR AMOUNT
COMMON - MONITOR COMMON DATA AREA AND CONFIGURATION DEFINITION - V534	MACRO 12.5-46.0 14:23 13-JAN-88 PAGE 15
COMMON.MAC	 7-DEC-87 14:36		Start of zeroed data

  1252				;MONITOR TABLES WITH ONE ENTRY PER JOB
  1253
  1254			000077		JOBMAX==:JOBN-1		;MAXIMUM LEGAL JOB NUMBER, HIGHEST JBT INDEX
  1255			077000		JOBMXL==:<JOBMAX>B26	;HIGH JOB NUMBER SHIFTED LEFT 9 (FOR GETTAB UUO)
  1256		777777	777700		MJOBN==:-JOBN		;NEGATIVE NUMBERS OF JOBS (COUNTING NULL JOB)
  1257
  1258	007224			JBTSTS::BLOCK 	JOBN		;JOB STATUS WORD
  1259								;LH==STATUS BITS (SEE S.MAC FOR DESCRIPTION)
  1260								;BITS 18-23=EXTENDED JOB STATUS BITS
  1261	007324			JBTST2::BLOCK	JOBN		;2nd job status word (P035/B04)
  1262	007424			JBTWRS::BLOCK	JOBN		;LAST 6 JOB STATE CODES (DEBUGGING)
  1263	007524			JBTCTX::BLOCK	JOBN*NCTXPG	;DISK ADDRESSES, STATUS BITS FOR
  1264								; CONTEXT PAGES
  1265
  1266	010024			JBTIOA::BLOCK	JOBN		;LH=UNUSED (Was interrupt assignments!!!)
  1267								;RH=COUNT OF CAN'T SWAP WHILE IO
  1268								;WHICH USES USER CORE IS IN
  1269								;PROGRESS. =0 MEANS SWAPPABLE.
  1270
  1271	010124			JBTUPM::BLOCK	JOBN		;LH = NUMBER OF EXISTENT PAGES IN
  1272								; USER ADDRESS SPACE. RH = USER
  1273								; AC BLOCK, LOAD UBR BIT
  1274								; AND PHYSICAL PAGE NUMBER OF UPT
  1275
  1276	010224			JBTPGO::BLOCK	JOBN		;LH SEE BELOW, RH LINK TO NEXT JOB
  1277								; WAITING FOR CORE PAGE. CHAIN STARTS
  1278								; IN PGYPGO.
  1279
  1280	010324			JBTFIT::BLOCK	JOBN		;DOUBLY LINKED LIST OF JOBS BEING
  1281								; SWAPPED IN.
  1282
  1283	010424			JBTMWS::BLOCK	JOBN		;MONITOR WORKING SET WORD
  1284								;BITS 26-35 (JBYUWS) UWS SIZE
  1285								;BITS 16-25 (JBYMWL) MWS SIZE LIMIT
  1286								;BITS  6-15 (JBYMWS) MWS SIZE
  1287								;BITS  0-5  (JBYPPP) # OF PER-PROCESS
  1288								;PAGES
  1289
  1290	010524			JBTICT::BLOCK	JOBN		;LH=IN CORE PROTECT TIME FOR JOB
  1291								;RH=QUANTUM RUN TIME
  1292
  1293			000014	XP JBSQNT,^D12
  1294			000043	XP JBNQNT,^D35
  1295			007777	XP JBMQNT,7777
  1296				INTERN	JBMQNT
  1297
  1298	010624			JBTFTR::BLOCK	JOBN		;FRAME TREE TABLE. CONTAINS 3 12 BIT
  1299								; FIELDS - PARENT, RIGHT HAND NEIGHBOR, AND LEFTMOST CHILD.
  1300
  1301	010724			JBTUID::BLOCK	JOBN		;UNIVERSAL FRAME ID
  1302	011024			JBTPNO::BLOCK	JOBN		;"PROGRAM NUMBER" - RIGHTS GO AWAY AFTER MISMATCH AGAINST THIS
  1303	011124			JBTSPN::BLOCK	JOBN		;SELF TO PARENT RIGHTS PROGRAM NUMBER
  1304	011224			JBTP2S::BLOCK	JOBN		;FAST ACCESS RIGHTS BITS FOR PARENT TO SELF
COMMON - MONITOR COMMON DATA AREA AND CONFIGURATION DEFINITION - V534	MACRO 12.5-46.0 14:23 13-JAN-88 PAGE 15-2
COMMON.MAC	 7-DEC-87 14:36		Start of zeroed data

  1305	011324			JBTS2P::BLOCK	JOBN		;FAST ACCESS RIGHTS BITS FOR SELF TO PRENT
  1306	011424			JBTMFR::BLOCK	JOBN		;FAST MAXIMUM INWARD RIGHTS
  1307								; (DEFAULT RIGHTS FOR FRAMES THAT DON'T KNOW EACH OTHER WELL)
  1308
  1309	011524			JBTPPN::BLOCK	JOBN	;.GTPPN=2  GFD'd Project Programmer Number
  1310	011624			JBTNM1::BLOCK	JOBN	;.GTNM1=31 GFD'd Username (1st half) sixbit chars 1-6
  1311	011724			JBTNM2::BLOCK	JOBN	;.GTNM2=32 GFD'd Username (2nd half) sixbit chars 7-12
  1312
  1313			077000		XP ITMDEV,JOBMXL	;LH SYMBOL FOR GETTAB M SO THAT JBTDEV IS
  1314								;UNDEFINED, IE. MAKE INDEXING BYITEM BE 0
  1315
  1316	012024			RTIME::	BLOCK	JOBN		;TOTAL RUN TIME SINCE LAST IJOB OR RUNTIME
  1317
  1318	012124			JBTTMP::BLOCK	JOBN		;TMPCOR POINTERS, FREE SPACE FOR NULL JOB.
  1319								; EACH ENTRY HAS THE FORM   XWD <QUOTA>,<LINK>
  1320
  1321	012224			JBTNAM::BLOCK	JOBN		;NAME OF FILE USED IN LAST R,RUN,GET, ETC
  1322								; USED BY SYSTAT PROGRAM, subject to SETNAM
  1323			012224	JBTPRG==:JBTNAM			;Name of program, immune to SETNAM uuo
  1324
  1325	012324			JBTKCT::BLOCK	JOBN		;PRODUCT OF CORE LENGTH (IN J) * NUMBER OF JIFFIES
  1326								; PROGRAM USED CPU. USED FOR TIME ACCOUNTING.
  1327
  1328	012424			JBTWCH::BLOCK	JOBN		;BITS 1-5 = ENABLE BITS - SEE S.MAC
  1329								;BITS 13-35 = TIME OF DAY IN JIFFIES USER
  1330								;STARTED TO WAIT FOR RESPONSE FROM SYSTEM
  1331								;REST UNUSED
  1332
  1333	012524			JBTINT::BLOCK	JOBN		; INTASS interrupt channel assignments.
  1334								; Bits  0-5  (4)  Timer trap (SETTIM)
  1335								; Bits  6-11 (6)  Wake UUO
  1336								; Bits 12-17 (13) Notice to quit/hang
  1337								; Bits 18-23 (14) Exit in any/all child frame
  1338								; Bits 24-29 (16) TRU limit exceeded
  1339
  1340	012624			JBTFNT::BLOCK	JOBN		; FINASS interrupt channel assignments.
  1341								; Bits  0-5  (2) Frame int from parent
  1342								; Bits  6-11 (3) Frame int from child
  1343								; Bits 12-17 (4) Frame int from sibling
  1344								; Bits 18-23 (5) Frame int from anyone
  1345
  1346	012724			JBTPNT::BLOCK	JOBN		; FINASS interrupt set by parent for child.
  1347								; Bits  0-5  (0) Int parent when child is lost
  1348								; Bits  6-11 (1) Int parent when child exits
  1349
  1350	013024			JBTSTA::BLOCK	JOBN		;Used by .USESTAT command
  1351
  1352	013124			JBTLIC::BLOCK	JOBN		;FOR LICENSE BITS (process,,frame)
  1353	013224			JBTSLC::BLOCK	JOBN		;Saved license    (process,,frame)
  1354								; RH use by ENABLE and DISABLE commands
  1355
  1356	013324			JBTFPN::BLOCK	JOBN		;PPN OF PROGRAM LAST RUN OR CURRENTLY
  1357								;BEING RUN BY THIS JOB.  (0 IF PROGRAM
COMMON - MONITOR COMMON DATA AREA AND CONFIGURATION DEFINITION - V534	MACRO 12.5-46.0 14:23 13-JAN-88 PAGE 15-3
COMMON.MAC	 7-DEC-87 14:36		Start of zeroed data

  1358								;CAME FROM MAGTAPE.).
  1359
  1360	013424			JBTAUN::BLOCK	JOBN	;.GTAUN=-23 Logged-in PPN (Accounting user number)
  1361	013524			JBTUNM::BLOCK	JOBN	;.GTUNM=-22 Logged-in Username (1st half) sixbit chars
  1362	013624			JBTUN1::BLOCK	JOBN	;.GTUN1=-21 Logged-in Username (2nd half) sixbit chars
  1363	013724			JBTSLM::BLOCK	JOBN	; Console settable TRU limit     - Frame global
  1364	014024			JBTLIM::BLOCK	JOBN	; Console/UUO settable TRU limit - Process local
  1365
  1366	014124			JBTDLK::BLOCK	JOBN	;LOOKUPS
  1367	014224			JBTERN::BLOCK	JOBN	;ENTERS AND RENAMES
  1368	014324			JBTSLK::BLOCK	JOBN	;LOOKUPS*SIZE
  1369	014424			JBTSER::BLOCK	JOBN	;ENTERS AND RENAMES*SIZE
  1370	014524			JBTSIN::BLOCK	JOBN	;DISK BLOCKS READ*SIZE
  1371	014624			JBTSOT::BLOCK	JOBN	;DISK BLOCKS WRITTEN*SIZE
  1372	014724			JBTCIN::BLOCK	JOBN	;CHRS IN
  1373	015024			JBTCOT::BLOCK	JOBN	;CHRS OUT
  1374	015124			JBTELP::BLOCK	JOBN	;ELAPSED TIME*SIZE
  1375	015224			JBTCNK::BLOCK	JOBN	;CONNECT TIME (DETACHED NOT COUNTED)
  1376	015324			JBTBCS::BLOCK	JOBN	;BREAK CHRS *SIZE
  1377	015424			JBTSOK::BLOCK	JOBN	;FROM SOAKEM UUO
  1378	015524			JBTCMP::BLOCK	JOBN	;MICRO CYCLES FROM DK10
  1379	015624			JBTCP2::BLOCK	JOBN	;HIGH ORDER PART OF MICRO CYCLES
  1380	015724			JBTCPU::BLOCK	JOBN	;HIGH ORDER BITS OF MICRO CYC*SIZE
  1381
  1382	016024			JBTABT::BLOCK	JOBN	;ROUTINE TO CALL ON SWAP ERROR OR ILL MEM REF
  1383
  1384
  1385	016124			JBTBET::BLOCK	JOBN		;ELAPSED TIME IN BLOCK I/O MODE (IN SECONDS)
  1386	016224			JBTBIO::BLOCK	JOBN		;BIO CHARS IN/OUT
  1387
  1388	016324			JBTAJF::BLOCK	JOBN		;# FAULTS FOR PAGES IN UWS BUT NOT
  1389								;IN MWS (# FAULTS CCAUSED BY MWS
  1390								;ADJUST ALGORITHM)
  1391
  1392	016424			JBTSCA::BLOCK	JOBN			;TRU scaling word
  1393
  1394	016524			JBTENB::BLOCK	JOBN	;CHANELS ENABLED. BIT 0 IS 1 IF PI SYSTEM
  1395							;IS ENABLED, BITS 1-35 INDICATE CHANELS ENABLED
  1396
  1397	016624			JBTPIP::BLOCK	JOBN	;CHANELS IN PROGRESS. BITS 0 INDICATES
  1398							;OLD APRENB SYSTEM. IF BIT 0=1 BITS 1 IS TRAP
  1399							;IN PROGRESS. IF BIT 0=0 BITS 1-35 ARE THE
  1400							;CHANELS IN PROGRESS
  1401
  1402	016724			JBTAWQ::BLOCK	JOBN	;CHANELS AWAITING REQUEST. IF BIT0=1
  1403							;MEANS TAKE A TRAP AS SOON AS POSSIBLE
  1404							;IF OLD STYLE APRENB, ALL BITS BUT BIT 0 USED
  1405							;TO STORE FLAGS GIVING REASON FOR TRAP
  1406
  1407				;THIS MAY NOT GO AWAY
  1408
  1409				;BITS 0-5 UUO TRAP NUMBER
  1410				;BITS 6-11 CLOCK TRAP NUMBER
COMMON - MONITOR COMMON DATA AREA AND CONFIGURATION DEFINITION - V534	MACRO 12.5-46.0 14:23 13-JAN-88 PAGE 15-4
COMMON.MAC	 7-DEC-87 14:36		Start of zeroed data

  1411				;BITS 12-17 PAGE TRAP NUMBER
  1412				;BITS 18-23 HUNG DEVICE TRAP NUMBER
  1413				;BITS 24-29 TIMER TRAP NUMBER
  1414				;BITS 30-35 DEVICE ERROR TRAP NUMBER
  1415
  1416	017024			JBTPRV::BLOCK	JOBN		;PRIVILEGE BITS FOR JOB SET BY LOGIN
  1417
  1418	017124			QUEPCB::BLOCK	JOBN		;PCBIO DATABASE AREA.
  1419	017224			JBTPCB::BLOCK	JOBN		;FOR LAYOUT, SEE PCBIO MODULE.
  1420
  1421	017324			JBTCLB::BLOCK	JOBN		;TABLE USED BY THE CLUB FACILITY
  1422
  1423	017424			JBTINA::BLOCK	JOBN		;INACTIVITY TIMEOUT
  1424								;LH - LIMIT
  1425								; NOTE THAT THIS FIELD IS MUCH LARGER THAN
  1426								; IT NEEDS TO BE
  1427								;RH - # MIN SINCE JOB LAST RAN
  1428
  1429	017524			JBTPC::	BLOCK	JOBN		;LH=DDB, RH=PC, for Control-T
  1430
  1431				;THE FOLLOWING ARE USED TO CREATE MXQUE
  1432				;THE MAXIMUM QUEUE SIZE, USED BY SWAPPING SCHEDULER (SCHED)
  1433			000000		XP	MXQUE,0
  1434
  1435					DEFINE	X	<MXQUE==MXQUE+1;>
  1436					QUEUES
  1437				DEFINE	X	(A)
  1438
  1439						<A'Z==MXQUE
  1440						MXQUE==MXQUE+1;>
  1441					CODES
  1442			000037			MXQUE==MXQUE+4
  1443
  1444	017624				BLOCK	MXQUE		;NUMBER OF QUEUES FOR SWAPPING SCHEDULER
  1445	017663			JBTQ::	BLOCK	JOBN		;ONE ENTRY PER JOB,
  1446								; LH=PREVIOUS JOB, RH=NEXT JOB IN QUEUE
  1447								; NEGATIVE MEANS THIS IS FIRST (LH) OR LAST (RH)
  1448								; JOB IN QUEUE
  1449			017632		JBQMN==:JBTQ-NULZ	;J1
COMMON - MONITOR COMMON DATA AREA AND CONFIGURATION DEFINITION - V534	MACRO 12.5-46.0 14:23 13-JAN-88 PAGE 16
COMMON.MAC	 7-DEC-87 14:36		Start of zeroed data

  1450				;DISK JOB TABLES (FORMERLY IN COMMOD)
  1451
  1452	017763			JBTRCT::BLOCK	JOBN	;NO. OF DISK BLOCKS READ ON ALL STRS SINCE JOB LOGGED IN
  1453							;JOB 0 = SWAP READ ON ALL UNITS
  1454							; ACTUALLY IT IS A COPY OF THE LOW ORDER 12 BITS
  1455							; OF THE ACCUMULATED READS FOR THIS JOB.
  1456							; IT IS RESET TO NEW LOW ORDER TOTAL AFTER EVERY
  1457							; "DISK" COMMAND.  IN THIS WAY ONLY ONE COUNT NEED
  1458							; BE INCREMENTED EVERY READ INSTEAD OF TWO.
  1459							; INCREMENTAL DISK BLOCKS READ IS COMPUTED BY:
  1460							;  LDB T1,JBYRCT;LDB T2,JBYIRD;DPB T1,JBYIRD;SUB T1,T2
  1461							;  ANDI T1,JBRIRD
  1462			000014	  JBSIRD==^D12		;BYTE SIZE
  1463			000013	  JBNIRD==^D11		;BYTE PTR POS.
  1464			007777	  JBRIRD==:1_JBSIRD-1	;BITS IN BYTE AFTER RIGHT JUSTIFIED
  1465			000030	  JBSRCT==^D24		;BYTE SIZE
  1466			000043	  JBNRCT==^D35		;BYTE PTR POS
  1467	020063			JBTWCT::BLOCK	JOBN	;NO. OF DISK BLOCK WRITTEN ON ALL STRS SINCE JOB LOGGED IN
  1468							;JOB 0=SWAP WRITE ON ALL UNITS
  1469			000014	  JBSIWT==^D12		;BYTE SIZE
  1470			000013	  JBNIWT==^D11		;BYTE PTR POS
  1471			007777	  JBRIWT==:1_JBSIWT-1	;BITS IN BYTE AFTER BEING RIGHT JUSTIFIED
  1472			000030	  JBSRCT==:^D24		;BYTE SIZE
  1473			000043	  JBNRCT==^D35		;BYTE PTR POS
  1474
  1475
  1476	020163			JBTMPC::BLOCK	JOBN	;NO. OF PAGES MAPPED BY USER DOING A MAP UUO
  1477
  1478	020263			JBTPWS::BLOCK	JOBN	;NO. OF PAGES USER HAS PUT INTO THE UWS.
  1479
  1480	020363			JBTPWH::BLOCK	JOBN	;HIGH PART OF NO. PAGES INTO UWS TIMES SIZE.
  1481
  1482	020463			JBTPWL::BLOCK	JOBN	;LOW PART OF NO. PAGES INTO UWS TIMES SIZE
  1483
  1484			000002	  XP DABSIZ,2	;LOADER will complain if this does not match COMMOD
  1485	020563			JBTDAB::BLOCK	<JOBN-1>*DABSIZ ;DUMMY ACCESS TABLES. SEE ATB DEFINITIONS
  1486							; FOR DATA FORMAT.
COMMON - MONITOR COMMON DATA AREA AND CONFIGURATION DEFINITION - V534	MACRO 12.5-46.0 14:23 13-JAN-88 PAGE 17
COMMON.MAC	 7-DEC-87 14:36		Start of zeroed data

  1487				;THE FOLLOWING GLOBALS ARE USED IN VARIOUS ROUTINES SUCH AS
  1488				;ONCE,SCNSER,ETC.
  1489
  1490				IFNDEF PPORTN,<XP PPORTN,<<<JOBN/4>+7>*2>>;32 pairs if JOBN=^D100
  1491				IFNDEF RPORTN,<XP RPORTN,PORTN-PPORTN>
  1492				IFNDEF PORTN,<XP PORTN,RPORTN+PPORTN>
  1493				IFG <PORTN-^D255>, <
  1494					PRINTX MORE THAN 255 PORTS!!!
  1495					STOPI>
  1496				IFL <RPORTN-^D11>, <
  1497					PRINTX MUST HAVE AT LEAST 11 REAL PORTS
  1498					STOPI>
  1499			000200	RPORTN==:RPORTN		;Show values in CREF listing
  1500			000056	PPORTN==:PPORTN		;Show values in CREF listing
  1501			000256	PORTN==:PORTN		;Show values in CREF listing
  1502
  1503			000177	XP RMXLIN,RPORTN-1	;"REAL" PORT #S ARE BELOW RPORTN,
  1504							;PTY PORT #S ARE ABOVE RMXLIN
  1505
  1506			000277	SCNN==<JOBN/4>+PORTN+1	;Number of TTY DDBs - enough for detached jobs
  1507							; plus all ports (TTY, AUX CIR, PTY, CTY).
  1508				IFG <SCNN-^D255>,<
  1509				IF2,<PRINTX More than 255 TTY DDBs requested - allocating 255 only.>
  1510				SCNN==^D255>
  1511			000255	XP MXLIN,PORTN-1
  1512			000005	NFLG==<PORTN+^D36>/^D36
  1513		777777	777773	XP NMXFLG,-NFLG
  1514		777777	777522	XP NMXLIN,-PORTN
  1515			255000	XP LINMXL,<<MXLIN>B26>
  1516
  1517			000001	ACTN==1			;NUMBER OF ACCOUNTING DDBS
COMMON - MONITOR COMMON DATA AREA AND CONFIGURATION DEFINITION - V534	MACRO 12.5-46.0 14:23 13-JAN-88 PAGE 18
COMMON.MAC	 7-DEC-87 14:36		Start of zeroed data

  1518				;TTYTAB IS A TABLE OF CONTROLLING (ATTACHED) TTY'S FOR EACH JOB,
  1519				;INDEXED BY JOB NUMBER. IF C(TTYTAB)=0 THEN NO TTY IS ATTACHED.
  1520				;OTHERWISE, RH(TTYTAB(N)) IS CONTROLLING DDB FOR JOB N.
  1521
  1522	020761			TTYTAB::BLOCK JOBN
  1523
  1524				;COMFLG is a bit table with one bit per frame, indicating whether
  1525				; there is a command pending for that frame.  Whenever the
  1526				; COMFLG bit is set for a particular frame, the "command
  1527				; request" bit (CMDCMR) in the left half of TTYTAB should also
  1528				; be set.
  1529			000002	CFLG==<JOBN/^D36>+1	;Number of entries in COMFLG table
  1530		777777	777776	XP NCMFLG,-CFLG
  1531	021061			COMFLG::BLOCK	CFLG
  1532					INTERN NCMFLG
  1533
  1534			021062		SYSEND=:.-1		;END OF CLEARED STORAGE ON RESTART
COMMON - MONITOR COMMON DATA AREA AND CONFIGURATION DEFINITION - V534	MACRO 12.5-46.0 14:23 13-JAN-88 PAGE 19
COMMON.MAC	 7-DEC-87 14:36		ONCE ONLY CODE TO CREATE DEVICE DATA BLOCKS

  1535				SUBTTL	ONCE ONLY CODE TO CREATE DEVICE DATA BLOCKS
  1536
  1537	007205				LOC SYSBG2		;PUT IN SYSTEM DATA AREA SO NOT TO TAKE
  1538								; VALUABLE SPACE.  THIS AREA IS CLEARED
  1539								; BY SYSINI AFTER IT HAS BEEN EXECUTED
  1540
  1541				COMMENT ! ROUTINE LINKDB
  1542				FUNCTION:  ONCE-TIME CODE TO ALLOCATE / CREATE / LINK DEVICE DDB'S,
  1543				FILSER CORE BLOCK, TTY DDB'S, AND VARIOUS OTHER SYSTEM DATA AREAS.
  1544				JSR HERE FROM ONCE CODE.
  1545
  1546				!
  1547
  1548	007205	000000	000000	LINKDB::0
  1549								;SO THAT E.G. SAT TABLES MAY BE SCANNED
  1550								; BE OVERLAYED BY MULTIPLE DEVICE DATA
  1551								; BLOCK GENERATION)
  1552
  1553				PRINTF(<[LINKDB: Store STRNAM of only STR in QUESTR]>)
  1554	007206	200300	000000*		MOVE	T1,STRNAM##+STRDDB## ;STORE ADDR OF FASTEST (ONLY)
  1555	007207	202300	000000*		MOVEM	T1,QUESTR##	;STR FOR QUEUEING CUSPS.
  1556
  1557	007210	205600	777760		MOVSI	P1,INTNUM	;NEG NUMBER OF ENTRIES IN TABLE
  1558	007211	201200	021076		MOVEI	F,DEVLST-DEVSER ;MAKE DEVLST LOOK LIKE DEVSER IN A DDB
  1559	007212	200654	007371	LOOP:	MOVE	P2,INTTB1(P1)	;GET NEXT DEVICE DATA BLOCK ADDRESS
  1560	007213	322640	007271		JUMPE	P2,NEXT		;0 MEANS NO DOB FOR DEVICE
  1561	007214	306215	000000		CAIN	F,(P2)		;IS THIS THE SAME AS LAST TIME (DSK)
  1562	007215	254000	007271		 JRST	NEXT		;YES, IGNOREM
  1563	007216	200555	000004		MOVE	M,DEVMOD(P2)
  1564	007217	607540	000010		TLNN	M,DVTTY		;IS IT TTY
  1565	007220	254000	007224		 JRST	NTYLNK		;NO
  1566	007221	202640	000000*		MOVEM	P2,FRETTY##
  1567	007222	202200	000000*		MOVEM	F,TTYFLK##
  1568	007223	254000	007225		JRST	TTYLNK
  1569
  1570	007224	506644	000003	NTYLNK:	HRLM	P2,DEVSER(F)	;YES, STORE IN PREVIOUS DEVICE DATA BLOCK
  1571	007225	550200	000015	TTYLNK:	HRRZ	F,P2		;MAKE F POINT TO CURRENT DOB
  1572	007226	135540	024772		LDB	M,[POINT 8,INTTAB(P1),8] ;GET NUMBER OF DDB'S
  1573	007227	554244	000003		HLRZ	U,DEVSER(F)	;MULTI FT'S ARE ALREADY LINKED.
  1574	007230	322240	007235		JUMPE	U,NOTFT
  1575	007231	551205	000000		HRRZI	F,(U)		;FT.
  1576	007232	554244	000003		HLRZ	U,DEVSER(F)	;FIND
  1577	007233	326240	007231		JUMPN	U,.-2		;LAST
  1578	007234	254000	007271		JRST	NEXT		;ONE.
  1579
  1580	007235	363540	007271	NOTFT:	SOJLE	M,NEXT		;ONE OR LESS ?
  1581	007236	550240	000004		HRRZ	U,F		;NO, CREATE MULTIPLE COPIES OF DOB
  1582								; SAVE ORIGINAL IN U
  1583	007237	201700	000001		MOVEI	P3,1		;STARTING WITH DEV1,DEV2,DEV77
  1584	007240	135740	023400		LDB	P4,PUNIT	;START UNIT NUMBER FROM
  1585								; ASSEMBLE DEVICE DATA BLOCK
  1586								; PTY STARTS UNIT NUMBER AT 1 INSTEAD OF 0
  1587								; ALTHOUGH DEVICE NAMES ARE PTY0,PTY1,ETC.
COMMON - MONITOR COMMON DATA AREA AND CONFIGURATION DEFINITION - V534	MACRO 12.5-46.0 14:23 13-JAN-88 PAGE 19-2
COMMON.MAC	 7-DEC-87 14:36		ONCE ONLY CODE TO CREATE DEVICE DATA BLOCKS

  1588
  1589	007241	554354	007371	MULDDB:	HLRZ	T2,INTTB1(P1)	;Size of these DDB's
  1590	007242	260040	000000*		PUSHJ	P,EVMALC##	;Allocate EVM for new DDB
  1591	007243	506304	000003		HRLM	T1,DEVSER(F)	;Point previous DDB to new one
  1592	007244	504200	000005		HRL	F,U		;Set up BLT word
  1593	007245	540200	000006		HRR	F,T1		;Make new DDB the current one
  1594	007246	271307	000000		ADDI	T1,(T2)		;Last word to be BLT'ed +1
  1595	007247	200400	000004		MOVE	T3,F		;KL SMASHES BLT AC
  1596	007250	251406	777777		BLT	T3,-1(T1)	;MOVE ORIGINAL TO FREE STORAGE
  1597	007251	200140	024773		MOVE	PG,[POINT 6,DEVNAM(F),17] ;BYTE POINTER TO NEWLY CREATED
  1598								; DDB PHYSICAL NAME
  1599	007252	200100	000016		MOVE	J,P3		;MAKE COPY OF UNIT NUMBER
  1600	007253	606100	000070		TRNN	J,70		;IS IT 10 OR MORE ?
  1601	007254	254000	007262		 JRST	SMALL		;NO
  1602	007255	241100	777775		ROT	J,-3		;YES, CONVERT HIGH ORDER OCTAL DIGIT TO
  1603	007256	271100	000020		ADDI	J,20		;SIXBIT
  1604	007257	136100	000003		IDPB	J,PG		;AND STORE
  1605	007260	620100	777777		TRZ	J,-1		;CLEAR OUT HIGH ORDER DIGIT
  1606	007261	241100	000003		ROT	J,3		;MOVE LOW ORDER DIGIT BACK
  1607	007262	271100	000020	SMALL:	ADDI	J,20		;CONVERT LOW ORDER DIGIT IN SIXBIT
  1608	007263	136100	000003		IDPB	J,PG		;AND STORE IN PHYSICAL NAME
  1609	007264	271740	000001		ADDI	P4,1		;INCREMENT BINARY UNIT NUMBER
  1610	007265	137740	023400		DPB	P4,PUNIT	;STORE UNIT NUMBER
  1611	007266	305713	000000		CAIGE	P3,(M)		;COMPARE WITH HIGHEST DEVICE NUMBER
  1612	007267	344700	007241		AOJA	P3,MULDDB	;DO ANOTHER COPY
  1613	007270	553004	000003		HRRZS	DEVSER(F)	;REMOVE THE LINK
  1614					PFALL	NEXT
COMMON - MONITOR COMMON DATA AREA AND CONFIGURATION DEFINITION - V534	MACRO 12.5-46.0 14:23 13-JAN-88 PAGE 20
COMMON.MAC	 7-DEC-87 14:36		ONCE ONLY CODE TO CREATE DEVICE DATA BLOCKS

  1615	007271	200704	000004	NEXT:	MOVE	P3,DEVMOD(F)
  1616	007272	603700	000010		TLNE	P3,DVTTY
  1617	007273	200200	007222*		 MOVE	F,TTYFLK##	;NO BACK TO REAL LINKING
  1618	007274	253600	007275		AOBJN	P1,.+1		;MOVE BY TWOS
  1619	007275	253600	007212		AOBJN	P1,LOOP		;ANY MORE DEVICES
  1620
  1621				;End of DDB loop
  1622
  1623	007276	201600	000000		MOVEI	P1,0		;NO, FLAG END OF DDB CHAIN WITH 0 LINK
  1624	007277	506604	000003		HRLM	P1,DEVSER(F)	;YES, STORE 0 IN CASE LAST DDB IS MULTIPLE
  1625	007300	201340	002400	TMPALC:	MOVEI	T2,TMPSZT	;Total storage for TMPINI
  1626	007301	260040	007242*		PUSHJ	P,EVMALC##	;Allocation base address returned in T1
  1627	007302	505300	002000		HRLI	T1,TMPSZ
  1628	007303	202300	000000*		MOVEM	T1,TMPTAB##	;FREE DATA SPACE,ADDRESS OF TABLE
  1629	007304	515300	000060		HRLZI	T1,TMPSZJ
  1630	007305	541300	000400		HRRI	T1,TMPBKS
  1631	007306	202300	000001*		MOVEM	T1,TMPTAB##+1	;USER QUOTA,NUMBER OF BLOCKS IN AREA
  1632
  1633				;FOLLOWING CODE ALLOCATES SPACE FOR THE LINE DATA BLOCKS & FOR CHARACTER LISTS
  1634
  1635	007307	554340	024310	LINALC:	HLRZ	T2,TTCLST	;Number of bufferlets
  1636	007310	221340	000004		IMULI	T2,TTCHKS	;Times chunk size
  1637	007311	271340	000003		ADDI	T2,3		;In case misaligned
  1638	007312	260040	007301*		PUSHJ	P,EVMALC##	;Allocate storage
  1639	007313	271300	000003		ADDI	T1,3
  1640	007314	620300	000003		TRZ	T1,3		;MAKE SURE A MULTIPLE OF 4
  1641	007315	542300	024310		HRRM	T1,TTCLST	;SAVE AS FIRST CHARACTER CHUNK ADDR
  1642
  1643	007316	205100	777521	LDBALC:	MOVSI	J,-PORTN-1	;Enough for 0 through PORTN
  1644	007317	201340	000000*		MOVEI	T2,LDBLEN##	;Constant throughout loop
  1645	007320	330300	024774	TTY0:	SKIP	T1,[CTYLDB##]	;Make TTY0 be the CTY
  1646				  PRINTF(<[Need to change SKIP to SKIPA at TTY0: for CTY]>)
  1647	007321	260040	007312*	LNKTTL:	PUSHJ	P,EVMALC##	;Allocate one LDB (Size in T2)
  1648	007322	542302	024030		HRRM	T1,LINTAB(J)	;Store address into table
  1649	007323	336000	021235		SKIPN	LDBVRG		;First LDB?
  1650	007324	552300	021235		 HRRZM	T1,LDBVRG	;Yes, store in CONFIG table item 150
  1651	007325	505240	000000*		HRLI	U,CTYLDB##	;GET THE ADR OF THE PROTO LDB
  1652	007326	541246	000000		HRRI	U,(T1)		;Rest of BLT word
  1653	007327	271307	000000		ADDI	T1,(T2)		;Last word of BLT target + 1
  1654	007330	200400	000005		MOVE	T3,U		;KL SMASHES BLT AC
  1655	007331	251406	777777		BLT	T3,-1(T1)	;COPY THE LDB
  1656	007332	137100	000000*		DPB	J,LDPLNO##	;STORE PHYSICAL LINE NUMBER IN LDB
  1657	007333	253100	007321		AOBJN	J,LNKTTL	;NO. MAKE ANOTHER ONE
  1658
  1659				;ALLOCATE BUFFER FOR SNOOP HISTOGRAMS, IF ANY DESIRED
  1660
  1661	007334	336340	021117	SNBALC:	SKIPN	T2,HFDBUF	;SIZE NONZERO IN LH?
  1662	007335	254000	007341		 JRST	NOSNBF		;NO, ALLOCATE NOTHING FOR SNOOPING
  1663	007336	557000	000007		HLRZS	T2		;T2/0,,MAX HISTOGRAM SIZE FOR SNOOPING
  1664	007337	260040	007321*		PUSHJ	P,EVMALC##	;Returns base address in T1
  1665	007340	542300	021117		HRRM	T1,HFDBUF	;HFDBUF/SIZE,,BEGINNING LOCATION
  1666	007341			NOSNBF:	;DONE SNOOP BUFF ALLOC
COMMON - MONITOR COMMON DATA AREA AND CONFIGURATION DEFINITION - V534	MACRO 12.5-46.0 14:23 13-JAN-88 PAGE 21
COMMON.MAC	 7-DEC-87 14:36		ONCE ONLY CODE TO CREATE DEVICE DATA BLOCKS

  1667				;ALLOCATE CORE BLOCKS
  1668			002600	ND FFCBLK,<JOBN*<2+<2*OPNFPF>>>;  FILSER FREE CORE BLKS SYSTEM-WIDE. FOR
  1669							;  EACH JOB ASSUME 2 DRB'S (LOGGED-IN AND GFD'D
  1670							;  DIRECTORY).  FOR EACH OF THE OPNFPF FILES
  1671							;  ASSUMED, EXPECT 1 ATB AND 1 FNB.
  1672				IFL FFCBLK-^D50,<FFCBLK==^D50>	;INSURE AT LEAST 50 FILSER BLOCKS
  1673								; EVEN IF JUST A 1 JOB SYSTEM
  1674
  1675	007341	336340	000000*	FILALC:	SKIPN	T2,CORNUM##	;Number of core blocks
  1676	007342	201340	002600		 MOVEI	T2,FFCBLK	;Use calculated value if not patched in
  1677	007343	202340	007341*		MOVEM	T2,CORNUM##
  1678	007344	221340	000000*		IMULI	T2,CMBSIZ##	;Times block size gives total storage
  1679	007345	260040	007337*		PUSHJ	P,EVMALC##	;Allocate, returns base in T1
  1680	007346	202300	000000*		MOVEM	T1,CORBAS##	;REMEMBER START OF FILSER FREE CORE SO CAN
  1681								; COMPUTE ATB POINTERS, WHICH ARE RELATIVE.
  1682	007347	516300	000000*		HRLZM	T1,SYSCOR##	;FIRST FREE FILSER CORE BLOCK
  1683	007350	200340	007343*		MOVE	T2,CORNUM##	;GET # OF BLOCKS TO BE GENERATED
  1684	007351	271300	007344*		ADDI	T1,CMBSIZ##	;COMPUTE ADR. OF NEXT BLOCK
  1685	007352	516306	000000*		HRLZM	T1,-CMBSIZ##+CMBLNK##(T1) ;YES - SAVE ADR. OF NEXT BLOCK IN THIS BLOCK
  1686	007353	367340	007351		SOJG	T2,.-2		;FINISHED YET?
  1687	007354	402006	000000*		SETZM	-CMBSIZ##+CMBLNK##(T1)	;YES - ZERO LINK IN LAST BLOCK TO SIGNALEND OF LIST
  1688	007355	254020	007205		JRST	@LINKDB		;RETURN TO CALLER
  1689
  1690	007356	000000	000000	NRSVDP::0			;Number of pages actually reserved by ONCE
  1691	007357			RSVDPG:: ;*;PRINTF(<[RSVDPG - reserving pages at 1 meg boundries for SA10 bug]>)
  1692				;*;	EXP 03777,04000		;*HACK* 1 page before and after 1 meg boundry
  1693				;*;	EXP 07777,10000		;*HACK* to get around SA10 bug that affects
  1694				;*;	EXP 13777,14000		;*HACK* systems with more than 1 meg of core
  1695				;*;	EXP 17777		;*HACK* (removed 20-Mar-87)
  1696				;*;	EXP 775,776,777		;Last 3 unmapped pages reserved for BOOTS
  1697	007357	000000	000000		EXP 0			;Zero marks end of list
  1698
  1699				;Here from the DEBUG command in ONCE
  1700
  1701	007360	205300	400000	ODEBUG::MOVSI	T1,(1B0)	;Set the sign bit in DEBUGF
  1702	007361	436300	021152		IORM	T1,DEBUGF
  1703	007362	205300	255000		MOVSI	T1,(JFCL)	;Disable Keep-Alive-Failure
  1704	007363	502300	022677		HLLM	T1,KAF
  1705					MOVEI	T1,[ASCIZ /Use 1^B if you want to set DDT break point
  1706	007364	201300	024775	/]
  1707	007365	260040	000000*		PUSHJ	P,CONMES##	;Output message to console
  1708				PRINTF(<[ODEBUG routine could use more work]>)
  1709								;Insert code to do 1^B to set EDDT breakpoints
  1710	007366	263040	000000		POPJ	P,
COMMON - MONITOR COMMON DATA AREA AND CONFIGURATION DEFINITION - V534	MACRO 12.5-46.0 14:23 13-JAN-88 PAGE 22
COMMON.MAC	 7-DEC-87 14:36		ONCE ONLY CODE TO CREATE DEVICE DATA BLOCKS

  1711				;MORE PARAMETERS FOR TEMPORARY IN-CORE FILE STORAGE FOR SHORT (CCL) FILES
  1712
  1713			002400	TMPNX==JOBN*^D20		;IF SIZE OF SPACE NOT SET, DEFAULT VALUE
  1714			000400	TMPBKS==<TMPNX+TMPBL>/<TMPBL+1>	;NUMBER OF BLOCKS (LINKED LIST) IN AREA
  1715			002000	TMPSZ==TMPBKS*TMPBL		;NUMBER OF DATA WORDS AVAILABLE
  1716			002400	TMPSZT==TMPBKS*<TMPBL+1>	;TOTAL TABLE LENGTH (ROUNDED)
  1717			000014	TMPBKJ==<<^D60+TMPBL>/<TMPBL+1>> ;USER SPACE QUOTA. DEFAULT VALUE
  1718			000060	TMPSZJ==TMPBKJ*TMPBL		;QUOTA OF DATA WORDS PER USER
  1719
  1720
  1721								; (DO NOT DESTROY ONCE)
  1722								; FLAG NON-ZERO IF CALLED BY JRST LINKDB
  1723								; (OK TO DESTROY ONCE CODE)
  1724
  1725	007367	000000	000000	DDSTAR::Z		;STARTING ADDR OF STR DATA BLOCKS ETC. IN HIGH CORE
  1726							;(USED BY ONCMOD AND REFSTR)
COMMON - MONITOR COMMON DATA AREA AND CONFIGURATION DEFINITION - V534	MACRO 12.5-46.0 14:23 13-JAN-88 PAGE 23
COMMON.MAC	 7-DEC-87 14:36		ONCE ONLY CODE TO CREATE DEVICE DATA BLOCKS

  1727				;;MACROS TO DEFINE PI CHANNEL NUMBER AND GENERATE INTERRUPT CHAINING
  1728				;; INFORMATION FOR ONCE SO IT CAN LINK THE DEVICE INTERRUPT SERVICE
  1729				;; ROUTINES AND THE DEVICE DATA BLOCKS
  1730
  1731				;;TABLE INTTAB IS GENERATED WITH PAIRS OF ENTRIES FOR EACH DEVICE
  1732				;; WHICH HAS A DEVICE DATA BLOCK
  1733				;;FIRST WORD: BIT 0==1 IF DECTAPE, BITS 1-9==NUMBER OF DDBS, BITS 9-17==PI
  1734				;; CHANNEL (0-7) WHERE 0 MEANS NO PI CHANNEL (E.G., PTY)
  1735				;;SECOND WORD: LH==0 IF SINGLE DEVICE,==LENGTH OF DDB IF MULTIPLE, RH==DDB ADDRESS
  1736
  1737				;;MACRO FOR DEVICES WHICH ARE ALWAYS PRESENT (AND WHICH DO NOT USE A
  1738				;; CHANNEL SAVE ROUTINE AND HAVE NO DDB)  EXAMPLES ARE APR, CTY, PEN, CLK...
  1739
  1740				;DEFINE SPASGINT (DEV,PI) <
  1741				;	DEV'N==1
  1742				;			ASGINT DEV,PI
  1743				;>
  1744
  1745				DEFINE ASGINT (DEV,PI) <
  1746					IFG DEV'N, <IFG PI, <
  1747					IFE <PI-.CH>, <.CHAS==1		;;CHANNEL PI IN USE.
  1748				>
  1749					UNASS'PI==0		;;MARK CHANNEL AS ASSIGNED
  1750					DEV'CHN==:PI		;;DEFINE INTERNAL PI CHAN FOR DEV'CHN
  1751					XWD	PI,DEV'INT##	;;GENERATE INT SERVICE CONSO ENTRY FOR ONCE
  1752					XWD	0,0		;;NO DDBS TO CHAIN TOGETHER
  1753					ASGIN1 DEV,\PI
  1754				>>
  1755				>
  1756
  1757				DEFINE ASGIN1 (DEV,PI) <
  1758				IFDEF CH'PI,<			;;WAIT TILL PASS 2 TO DEFINE
  1759					DEV'CHL==:CH'PI		;;DEFINE INTERNAL DEV'CHL
  1760				>>
  1761
  1762				;;MACRO FOR OPTIONAL DEVICES WHICH ALWAYS USE A CHANNEL SAVE ROUTINE
  1763				;; (EXAMPLES: CDR, DSK, PTR, ETC.  ALSO PTY WITH 0 PI)
  1764
  1765				;DEFINE SPASGDDB (DEV,PI,NUM) <
  1766				;	DEV'N==NUM
  1767				;	NOSAV==1
  1768				;	ASGSAV DEV,PI
  1769				;>
COMMON - MONITOR COMMON DATA AREA AND CONFIGURATION DEFINITION - V534	MACRO 12.5-46.0 14:23 13-JAN-88 PAGE 24
COMMON.MAC	 7-DEC-87 14:36		ONCE ONLY CODE TO CREATE DEVICE DATA BLOCKS

  1770				DEFINE ASGSAV (DEV,PI) <
  1771					IFG DEV'N, <IFG PI, <
  1772					UNASS'PI==0		;;MARK CHANNEL AS ASSIGNED
  1773				IF2, < IFNDEF DEV'INT, <EXTERNAL DEV'INT>>	;;INTERRUPT SERVICE CONSO INSTRUCTION
  1774				>
  1775				IF2, < IFNDEF DEV'DDB, <EXTERNAL DEV'DDB>>	;;DEVICE DATA BLOCK ADDRESS
  1776					ASGSV1 DEV,\PI
  1777					>>
  1778
  1779				;;MACRO FOR:	1. COMPLETION OF THE DEFINITION REQUIRED FOR THOSE
  1780				;;		   DEVICES INVOKING THE ASGSAV MACRO
  1781				;;		2. COMPLETE DEFINITION FOR THOSE DEVICES WITH THEIR INTERRUPT
  1782				;;		   ENTRY POINT AND DDB'S HERE IN COMMON  (EXAMPLE: LPT'S)
  1783
  1784				DEFINE ASGSV1 (DEV,PI) <
  1785					IFG PI,<
  1786					IFE <PI-.CH>,<.CHAS==1>		;;CHANNEL PI IN USE.
  1787						DEV'CHN==:PI		;;DEFINE DEVICE CHANNEL NUMBER
  1788					IFE NOSAV,<ASGSV2 DEV,PI>
  1789					>
  1790
  1791					DTBIT==0			;;ASSUME THIS IS NOT A DECTAPE
  1792					IFIDN <DEV> <DTA>, <DTBIT==1>	;;IS IT P-10 DECTAPES ?
  1793					IFIDN <DEV> <DTC>, <DTBIT==1>	;; OR P-6 DECTAPES ?
  1794
  1795					IFE PI,<XWD DEV'N*1000+0,0>	;;NO PI CHANNEL FOR THIS DEVICE
  1796					IFG PI, <
  1797					    XWD DTBIT*400000+DEV'N*1000+PI,DEV'INT	;;FIRST WORD OF INTTAB ENTRY
  1798					    IFE DEV'N,<EXTERNAL DEV'INT> ;;LEVEL D DISK IN COMMOD
  1799					>
  1800
  1801					IFG DEV'N-1,<XWD DEV'DDS##,DEV'DDB> ;;MULTIPLE DEVICE 2ND WRD OF INTTAB ENTRY
  1802					IFE DEV'N-1,<XWD 0,DEV'DDB>	;;SINGLE DEVICE 2ND WRD OF INTTAB ENTRY
  1803
  1804					IFE DEV'N,<
  1805					0	;NO DDBS FOR DISK
  1806						DEFBIT DEV
  1807						DSKPIF==DSKPIF!DEV'BIT ;;KEEP LOG. OR OF PI OFF BIT FOR DSK CONTROLLERS
  1808						DSKPIN==DSKPIN!DEV'BIT ;;AND FOR PI ON
  1809					>
  1810				>		;;END ASGSV1 DEFINITION
COMMON - MONITOR COMMON DATA AREA AND CONFIGURATION DEFINITION - V534	MACRO 12.5-46.0 14:23 13-JAN-88 PAGE 25
COMMON.MAC	 7-DEC-87 14:36		ONCE ONLY CODE TO CREATE DEVICE DATA BLOCKS

  1811				;;MACRO'S TO ALLOW GENERATION OF MULTIPLE INTTAB ENTRIES FOR MULTIPLE
  1812				;; DEVICES SUCH AS LINE-PRINTERS
  1813
  1814				DEFINE MULASG (DEV,DE,PI,DSKFL) <
  1815					IFG DEV'N, <
  1816						UNASS'PI==0		;;MARK CHANNEL AS ASSIGNED
  1817						ZZ==0
  1818						REPEAT DEV'N, <
  1819							DEVASG DE,\ZZ,PI,DSKFL
  1820							ZZ==ZZ+1
  1821						>
  1822					>
  1823				>
  1824
  1825				DEFINE DEVASG (DE,X,PI,DSKFL) <
  1826					IFE DSKFL,<DE'X'N==1
  1827						ASGSV1 DE'X,\PI>
  1828					IFL DSKFL,<DE'X'N=0	;-VE MEANS NO DDB GENERATED HERE
  1829						ASGSV1 DE'X,\PI>
  1830					IFG DSKFL,<	;DISK
  1831						NMCLC (XX,DE,X,<A,B,C,D,E,F,G>)
  1832						IFN XX,<DE'X'N==0	;SOME UNITS ON CONTROLER
  1833							ASGSV1 DE'X,\PI>>>
  1834
  1835				;;MACROS TO CONTROL ASSIGNMENT OF PI CHANNELS TO DEVICES
  1836
  1837				DEFINE NEXTCH < .CH==.CH+1		;;START ASSIGNING TO NEXT LOWER CHANNEL
  1838				.CHAS==0
  1839				NEXTCU \.CH
  1840				>
  1841				DEFINE NEXTCQ <	IFN .CHAS, <NEXTCH>>	;;START ASSIGNING TO NEXT LOWER CHANNEL IF
  1842									;; CURRENT CHANNEL HAS BEEN USED.
  1843				DEFINE NEXTCU (N) < IFDEF UNIQ'N, < IFN UNIQ'N, <NEXTCH>>>	;;TO SKIP OVER ANY
  1844									;; SPECIALLY SPECIFIED CHANNELS (RECURSIVELY!)
  1845
  1846				DEFINE DEFBIT (DEV) <
  1847					DEV'BIT==1
  1848					REPEAT 7-DEV'CHN, <DEV'BIT==DEV'BIT*2>
  1849				>
  1850
  1851				;;INITIALLY ASSUME NO PI CHANNEL SAVE ROUTINES NEEDED
  1852
  1853			000000		USED1==0
  1854			000000		USED2==0
  1855			000000		USED3==0
  1856			000000		USED4==0
  1857			000000		USED5==0
  1858			000000		USED6==0
  1859			000000		USED7==0
  1860
  1861				;;ALL CHANNELS ARE INITIALLY UNASSIGNED
  1862
  1863			000001		UNASS1==1
COMMON - MONITOR COMMON DATA AREA AND CONFIGURATION DEFINITION - V534	MACRO 12.5-46.0 14:23 13-JAN-88 PAGE 25-2
COMMON.MAC	 7-DEC-87 14:36		ONCE ONLY CODE TO CREATE DEVICE DATA BLOCKS

  1864			000001		UNASS2==1
  1865			000001		UNASS3==1
  1866			000001		UNASS4==1
  1867			000001		UNASS5==1
  1868			000001		UNASS6==1
  1869			000001		UNASS7==1
COMMON - MONITOR COMMON DATA AREA AND CONFIGURATION DEFINITION - V534	MACRO 12.5-46.0 14:23 13-JAN-88 PAGE 26
COMMON.MAC	 7-DEC-87 14:36		ONCE ONLY CODE TO CREATE DEVICE DATA BLOCKS

  1870				;MACRO TO ALLOW GENERATION OF CHANNEL SAVE ROUTINES ONLY
  1871
  1872				;DEFINE SPASGSAV (DEV,PI,%ACNUM) <
  1873				;	HIGAC'PI==%ACNUM
  1874				;	DEV'HAC==%ACNUM
  1875				;INTERNAL HIGAC'PI,DEV'HAC
  1876
  1877				;	ASGSV2 DEV,PI
  1878				;>
  1879
  1880				DEFINE ASGSV2 (DEV,PI) <
  1881						USED'PI==1		;SET FLAG SO THAT A CHANNEL SAVE
  1882									; ROUTINE WILL BE GENERATED FOR
  1883									; THIS PI CHANNEL
  1884
  1885				IFDEF DEV'ACB,<;DEFINED IF A KL10 AND AC BLOCK ALLOCATED TO THIS DEVICE'S CHANNEL
  1886					IFDEF ACBPI'PI,<IFN DEV'ACB-ACBPI'PI,<PRINTX CONFLICTING AC BLOCK ASSIGNMENTS
  1887						STOPI>>
  1888					ACBPI'PI==<DEV'ACB>	;NEGATIVE IS FLAG FOR CHANNEL
  1889								; MACROS TO GENERATE DIFFERENT CODE.
  1890				>;END IFDEF DEV'ACB
  1891
  1892					IFDEF SAV'PI, <		;WAIT TILL CHANNEL SAVE ROUTINES
  1893									; ARE DEFINED BELOW (IN PASS 2)
  1894
  1895						DEV'SAV==SAV'PI		;CHANNEL AC SAVE ROUTINE LOCATION
  1896						DEV'RET==RET'PI		;CHANNEL AC RESTORE ROUTINE LOCATION
  1897									; (USUALLY POPJ USED)
  1898						DEV'CHL==CH'PI		;LOCATION WHERE INTERRUPT PC IS STORED
  1899						DEV'SAC==SAVAC'PI	;STARTING CHANNEL SAVE LOCATION FOR AC'S
  1900						DEV'P==CH'PI'P	;LOCATION WHERE P STORED
  1901						DEV'JEN==CH'PI'JEN	;LOCATION WHERE INT. IS DISMISSED
  1902
  1903						INTERN DEV'SAV, DEV'RET, DEV'CHL, DEV'SAC,DEV'P,DEV'JEN
  1904				>>
COMMON - MONITOR COMMON DATA AREA AND CONFIGURATION DEFINITION - V534	MACRO 12.5-46.0 14:23 13-JAN-88 PAGE 27
COMMON.MAC	 7-DEC-87 14:36		ONCE ONLY CODE TO CREATE DEVICE DATA BLOCKS

  1905				;NOW GENERATE THE TABLE FOR ONCE AND DEFINE PI CHANNEL ASSIGNMENTS
  1906
  1907					INTERNAL INTTAB,INTTB1,INTNUM,SCNN,DSKPIF,DSKPIN
  1908
  1909								; ONE FOR EACH JOB + NULL JOB (EXTRA ONE)
  1910			000001			APRN==1		;ALWAYS AN APR
  1911			000001			CLKN==1		;ALWAYS LOWEST PRIORITY CLOCK
  1912				IFCPU (KI),<;DK10 ONLY AVAILABLE ON KI10
  1913						TIMN==1		;ALWAYS A DK10
  1914						TM2N==1		;SECOND DK-10 FOR TIMING
  1915				>;END IFCPU (KI)
  1916
  1917				IFCPU (<KI,KL,F3>),<
  1918			002000		DSKPIN==LI.CON	;SET PI ON BIT - WILL ALSO HAVE PI ON FOR DISK CONTOLLERS
  1919			001000		DSKPIF==LI.COF	;AND FOR PI OFF
  1920				> ;END IFCPU KI,KL,F3
  1921
  1922	007370			INTTAB:			;TABLE OF DATA FOR DEFINING PI CHAN AND NUMBER OF DOB
  1923			000000		NOSAV==0	;DO NOT SUPPRESS GENERATION OF SAVE ROUTINES
  1924			007371		INTTB1==INTTAB+1
  1925
  1926	007370	277000	000000		ASGSAV SCN,0	;NO PI CHANNEL FOR SCNSER (AT CLOCK)
  1927	007371	000000*	000000*
  1928	007372	001000	000000		ASGSAV ACT,0
  1929	007373	000000	000000*
  1930
  1931			000000	.CHAS==0
  1932			000000	.CH==0
  1933				NEXTCH		;BEGIN AT CHANNEL 1
  1934
  1935				IFCPU (<KI,KL,F3>),<
  1936				;THE FOLLOWING DEVICES MUST HAVE A UNIQUE, HIGH PRIORITY
  1937				; CHANNEL FOR BLOCK I/O TRANSFERS.
  1938
  1939
  1940				IFNDEF BLKMXC, <BLKMXC==.CH>	;REMEMBER THIS CHANNEL ON PASS 1
  1941			000001	.CH==BLKMXC			;ON PASS 2, SKIP OVER BLKI CHANNELS
  1942
  1943
COMMON - MONITOR COMMON DATA AREA AND CONFIGURATION DEFINITION - V534	MACRO 12.5-46.0 14:23 13-JAN-88 PAGE 28
COMMON.MAC	 7-DEC-87 14:36		ONCE ONLY CODE TO CREATE DEVICE DATA BLOCKS

  1944				;THE FOLLOWING ARE GROUPED ON A CHANNEL FOR HIGH-PRIORITY DEVICES
  1945					ASGSAV CDR,\.CH
  1946				> ;END IFCPU KI,KL,F3
  1947	007374	000001	000000*		ASGINT APR,\.CH
  1948	007375	000000	000000
  1949				IFCPU (KI),<;DK10S ONLY EXIST ON KI
  1950					ASGINT TIM,\.CH
  1951					ASGINT TM2,\.CH
  1952				>;END IFCPU (KI)
  1953
  1954				NEXTCQ
  1955
  1956				IFCPU (<KI,KL,F3>),<
  1957				;THE FOLLOWING ARE MEDIUM-PRIORITY DEVICES, AS A GROUP
  1958					ASGSAV PTR,\.CH
  1959	007376	001002	024324		MULASG LPT,LP,\.CH,0
  1960	007377	000000	024330
  1961				;	ASGSAV DTA,\.CH
  1962				;	ASGSAV DTC,\.CH
  1963				;	ASGSAV MTA,\.CH
  1964				;	ASGSAV MTB,\.CH
  1965				;	ASGSAV MTC,\.CH
  1966
  1967				NEXTCQ
COMMON - MONITOR COMMON DATA AREA AND CONFIGURATION DEFINITION - V534	MACRO 12.5-46.0 14:23 13-JAN-88 PAGE 29
COMMON.MAC	 7-DEC-87 14:36		ONCE ONLY CODE TO CREATE DEVICE DATA BLOCKS

  1968				;THE FOLLOWING ARE LOWER-PRIORITY DEVICES, AS A GROUP
  1969								;FIRST ARE THE VARIOUS TYPES OF DISK CONTROLLERS....
  1970
  1971					MULASG FHD,FH,\.CH,1
  1972					MULASG DPC,DP,\.CH,1
  1973	007400	000003	000000*		MULASG SAX,SA,\.CH,-1
  1974	007401	000000	000000
  1975					MULASG APX,AP,\.CH,-1
  1976			000003	IFN SAXN,<SAXCHN==:SA0CHN
  1977			023672		  SAXSAV==:SA0SAV>
  1978				IFN APXN,<APXCHN==:AP0CHN
  1979					  APXSAV==:AP0SAV>
  1980	007402	001000	000000		ASGSAV DSK,0	;GET DSK IN CHAIN, NO INTERUPT CODE (SEE ABOVE
  1981	007403	000000	000000*
  1982					ASGSAV MAG,\.CH
  1983
  1984
  1985				DEFINE MNYASG(DE,UU)
  1986				<IRP UU,<IFNDEF DE'UU'UN, <STOPI>
  1987					 IFDEF DE'UU'UN, <DE'UU'N==DE'UU'UN
  1988							  ASGSAV DE'UU,0
  1989							 >
  1990					>
  1991				>
  1992
  1993	007404	004000	000000	MNYASG(FT,<A,B,C,D,E,F,G,H,J,K,L>)
  1994	007405	000000*	000000*
  1995					;ASGSAV for FTA, FTB, FTC, etc
  1996
  1997				;	ASGSAV PEN,\.CH
  1998					ASGSAV PTP,\.CH
  1999				;	ASGSAV CDP,\.CH
  2000					ASGSAV PLT,\.CH
  2001
  2002				NEXTCQ
  2003
  2004				;THE DISPLAY GETS ITS OWN LOW-PRIORITY CHANNEL
  2005				;	ASGSAV DIS,\.CH
  2006
  2007				NEXTCQ
  2008				> ;END IFCPU KI,KL,F3
  2009
  2010				IFCPU (KS),<
  2011
  2012				;GEN INTTAB ENTRIES OF FORM: NO. OF DDBS, DEVINT
  2013				;			LENGTH OF DDBS , PROTOT DDB ADDR.
  2014				DEFINE GENDDB (DEV) <
  2015					IFG DEV'UN,<
  2016						EXTERN DEV'INT,DEV'DDS,DEV'DDB
  2017						XWD DEV'UN*1000,DEV'INT
  2018						XWD DEV'DDS,DEV'DDB>
  2019				> ;END DEF OF GENDDB.
  2020
COMMON - MONITOR COMMON DATA AREA AND CONFIGURATION DEFINITION - V534	MACRO 12.5-46.0 14:23 13-JAN-88 PAGE 29-2
COMMON.MAC	 7-DEC-87 14:36		ONCE ONLY CODE TO CREATE DEVICE DATA BLOCKS

  2021				;SET THE INTTAB ENTRY FOR THE DISK
  2022
  2023					XWD	0,RMXINT##	;WORD 1 OF INTTAB
  2024					0
  2025
  2026					ASGSAV DSK,0
  2027				IFN LPTN,<1*1000,,0
  2028					LP0DDS,,LP0DDB>
  2029
  2030				IFCPU(KS),<
  2031					0,,MAGINT##		;Entry for tapes.  Note 0 "units" indicates
  2032					MAGDDS##,,MAGDDB##	; the DDBs are already linked.
  2033				>;IFCPU(KS)END
  2034
  2035				PIHIGH==:3	;PI FOR DISK AND TAPE.
  2036				PILOW==:2	;PI FOR OTHER DEVICES.
  2037
  2038					DSKPIF==LI.COF!<1_<7-PIHIGH>>
  2039					DSKPIN==LI.CON!<1_<7-PIHIGH>>
  2040				> ;END IFCPU KS.
COMMON - MONITOR COMMON DATA AREA AND CONFIGURATION DEFINITION - V534	MACRO 12.5-46.0 14:23 13-JAN-88 PAGE 30
COMMON.MAC	 7-DEC-87 14:36		ONCE ONLY CODE TO CREATE DEVICE DATA BLOCKS

  2041				;LAST IS THE SCHEDULER, ON CHANNEL 7 BY ITSELF
  2042
  2043				IFG <.CH-7>, <	PRINTX ;NOT ENOUGH PI'S TO SERVICE THIS CONFIGURATION.
  2044						PRINTX ;SUGGEST EDITING COMMON TO PUT MORE DEVICES ON
  2045						PRINTX ; A SINGLE CHANNEL
  2046				>
  2047
  2048			000007	.CH==7
  2049	007406	000007	000000*		ASGINT CLK,\.CH
  2050	007407	000000	000000
  2051
  2052				;	SPCINT
  2053								;GENERATE ANY SPECIAL DEVICES CUSTOMER IS SUPPLYING
  2054								; WHICH DO NOT USE A CHANNEL SAVE ROUTINE AND HAVE
  2055								; NO DEVICE DATA BLOCK
  2056				;	SPCDDB
  2057								;GENERATE ANY SPECIAL DEVICES CUSTOMER IS SUPPLYING
  2058								;WHICH HAVE MULTIPLE DEVICE DATA BLOCKS (0 MEANS NONE)
  2059				;	SPCSAV
  2060								;GENERATE ANY SPECIAL DEVICES CUSTOMER IS SUPPLYING
  2061								; WHICH DO NEED A CHANNEL SAVE ROUTINE
  2062
  2063				;END OF THE ASSIGNMENT TABLE
  2064
  2065		777777	777760		INTNUM==INTTAB-.	;-LENGTH OF INTERRUPT CHANNEL ASSIGNMENT TABLE
  2066
  2067			000001	XP ITMCHN,APRCHN		;INTERVAL TIMER PI ASSIGNMENT SAME AS THAT OF APR.
  2068
  2069				IFCPU (KS),<
  2070				RM0VEC=254
  2071				MAGVEC=224
  2072				;GEN DISPATCH VECTOR TABLE ENTRIES.
  2073				DEFINE GENVEC (DEV), <
  2074					IRP DEV
  2075						<IFG DEV'UN,<
  2076							IFNDEF DEV'INT,<EXTERNAL DEV'INT>
  2077							XWD DEV'INT,DEV'VEC/4
  2078							>
  2079				>
  2080				>
  2081
  2082				TBISAV::GENVEC <RM0,LPR,MAG>
  2083					TBISIZ==:.-TBISAV
  2084
  2085				;EPT+EPTVIT WILL BE THE REAL TABLE, NO CONFLICT ASSUMED
  2086				;  BETWEEN THE DEVICE VECTOR ADDRESSES AND EPT DEFINED SLOTS
  2087				>;END IFCPU KS
  2088
  2089
  2090	021063				IFLE .-SYSEND, <LOC SYSEND+1>
  2091								; SET LOC UP TO SYSEND+1, UNLESS ONCE ONLY CODE
  2092								; IS BIGGER
COMMON - MONITOR COMMON DATA AREA AND CONFIGURATION DEFINITION - V534	MACRO 12.5-46.0 14:23 13-JAN-88 PAGE 31
COMMON.MAC	 7-DEC-87 14:36		ONCE ONLY CODE TO CREATE DEVICE DATA BLOCKS

  2093				;SYSTEM CONSTANTS AND PARAMETERS
  2094
  2095				;; Negative indexes from CNFTBL are used by CRSHID and are not GETTAB-able.
  2096				;; Their position is subject to change and should not be published!
  2097
  2098	021063	022650	000000*		CRSDB,,NUMTAB##		;(-2) so CRSHID can do "GETTABs"
  2099	021064	000000	000000	CURUPT::0			;(-1) CONTAINS DATAO STUFF FOR CURRENT UPT
  2100
  2101	021065			CNFTBL:: ;origin of GETTAB table 11 (configuration data)
  2102					; octal numbers in () correspond to the index relative to CNFTBL
  2103					; certain tools expect physical address 137 to point to CNFTBL
  2104					; (these locations not cleared by SYSINI)
  2105	021065	000000*	000000*	CONFIG::SYSNAM
  2106	021066	000000*	000000*
  2107	021067	000000*	000000*
  2108	021070	000000*	000000*
  2109	021071	000000*	000000*			;(0-4) NAME OF SYSTEM, IN ASCII
  2110	021072				LOC CONFIG+5		; ALWAYS LEAVE 5 WORDS (24 CHARS)
  2111	021072	000000*	000000*	SYSDAT::SYSDAT
  2112	021073	000000*	000000*			;(5,6) GENERATE SYSTEM DATE
  2113	021074				LOC SYSDAT+2		; ALWAYS LEAVE 2 WORDS (9 CHARS)
  2114	021074	446353	000000	SYSTAP::SYSDEV			;(7) NAME OF SYSTEM DEVICE, IN SIXBIT
  2115				;LOCATIONS SETUP BY ONCE ONLY OPERATOR DIALOGUE AND NEVER RESET ON RESTARTS
  2116	021075	000000	000000	TIME::	0			;(10) TIME OF DAY IN JIFFIES (60TH OR 50THS OF A SEC)
  2117	021076	000000	000000	THSDAT::0			;(11) TODAY'S DATE (we use consecutive days since
  2118								; 1-Jan-64, DEC uses ((Y-1964)*12+(M-1))*31+(D-1)
  2119	021077	000000	000000*	SYSSIZ::exp PATCH##		;(12) SIZE OF MONITOR (FIRST LOC NOT USED)
  2120	021100	436471	000000	DEVOPR::sixbit /CTY/		;(13) SIXBIT PHYSICAL NAME OF OPERATORS CONSOLE
  2121								; (IF THIS LOCATION CONTAINS 0, NONE HAS
  2122								; BEEN DESIGNATED)
  2123								; PUBLIC LOGICAL NAME "OPR" WILL BE THIS
  2124								; DEVICE. ALSO UNEXPLAINED MONITOR ERROR
  2125								; MESSAGES WILL BE TYPED ON TTY OPR:
  2126	021101	000000	000000	DEVLST::xwd 0,0			;(14) LH CONTAINS ADDRESS OF FIRST DEVICE DATA BLOCK
  2127								; ONCE ONLY CODE LINKS DEVICE DATA BLOCKS
  2128	021102	000000	000100		xwd 0,JOBN		;(15) AOBJN POINTER TO 1ST HIGH SEG IN JBTXXX TABLES
  2129								; LH= - NUMBER OF HIGH SEGS,  RH= 1ST HIGH SEG NUMBER
  2130	021103	000000	000000		0			;(16) FLAG TO INDICATE WHETHER BOTH HARDWARE AND
  2131								; SOFTWARE HAVE 2 RELOC REG CAPACITY
  2132								; NON-ZERO IF BOTH DO, 0 IF EITHER OR BOTH DO NOT
  2133								; SET BY ONCE ONLY CODE
  2134
  2135				;STATES WORD LH BITS:
  2136			000000		ZZ==0
  2137		400000	000000		ZZ==ZZ!1B0		; 1 IF DISK SYSTEM (ANALOGOUS TO FTDISK)
  2138		600000	000000		ZZ==ZZ!1B1		; 1 IF SWAPPING SYSTEM (ANALOGOUS TO FTSWAP)
  2139		700000	000000		ZZ==ZZ!1B2		; 1 IF LOGIN (ANALOGOUS TO FTLOGIN)
  2140		740000	000000		ZZ==ZZ!1B3		; 1 FOR TTCALL, FULL DUPLEX
  2141		760000	000000		ZZ==ZZ!1B4		; 1 IF PRIVILEGE FEATURE INCLUDED
  2142		770000	000000		ZZ==ZZ!1B5		; 1 IF REENTRANT SOFTWARE
  2143		770400	000000		ZZ==ZZ!1B9		; 1 IF LEVEL D DISK SOFTWARE
  2144								; 0 if level C, 2 if spooled disk
  2145		770600	000000		IFN INDPPN,<ZZ==ZZ!1B10>; 1 IF INDEPENDENT PROJ-R NUMBERS
COMMON - MONITOR COMMON DATA AREA AND CONFIGURATION DEFINITION - V534	MACRO 12.5-46.0 14:23 13-JAN-88 PAGE 31-2
COMMON.MAC	 7-DEC-87 14:36		ONCE ONLY CODE TO CREATE DEVICE DATA BLOCKS

  2146		770700	000000		ZZ==ZZ!1B11		; 1 FOR IMAGE, 8-BIT SCNSER
  2147				;B12-B17 defined for TOPS-10, not applicable to TYMCOM-X
  2148		770700	000000		ZZ==ZZ!0B12		; 1 if dual processor system
  2149		770700	000000		ZZ==ZZ!0B13		; 1 if TOPS-10 style multiple RIBs
  2150		770700	000000		ZZ==ZZ!0B14		; 1 if high precision time accounting
  2151				;*;	ZZ==ZZ!1B15		; 1 if exclude monitor overhead from accounting
  2152		770700	000000		ZZ==ZZ!0B16		; 1 if system includes real-time clock
  2153				;*;	ZZ==ZZ!1B17		; 1 if system built for FOROTS version 5A
  2154								;Bit 17 is used as STAUTO, below
  2155
  2156				;STATES word, TOPS-10 RH bits:
  2157				;000001=1B35  no login except on CTY or subjob of OPSER
  2158				;000002=1B34  no login on "remote" lines (don't answer datasets)
  2159				;000004=1B33  batch jobs only
  2160				;000010=1B32  no logins from ANF10 or DECnet nodes
  2161				;000100=1B29  allow ASSIGN of restricted devices
  2162				;000200=1B28  allow unspooling for all users
  2163				;000400=1B27  no operator in attendance
  2164				;001000=1B26  no automatic reload of ANF-10 nodes (NETLDR program)
  2165
  2166				;STATES word, TYMCOM-X RH bits (defined in S.MAC):
  2167				;STAUTO	;1B17 System in auto-restart (note: this is an LH bit!)
  2168				;STSHUT	;1B18 System is shut
  2169				;STSUPR	;1B19 System is super-shut (don't allow shut-override)
  2170				;STRLB	;1B20 Restricted logins.  See LOGINN.MAC at NONRES-7
  2171				;STMDED	;1B?? IF CHKPNT WATCHDOG FOUND CHKPNT DEAD
  2172
  2173	021104	770701	600000	STATES::exp ZZ!STAUTO!STSHUT!STSUPR ;(17) LH BITS=TYPE OF SYSTEM
  2174								; RH PATCHED BY "SCHED" COMMAND TO
  2175								; INDICATE OPERATIONAL STATE OF SYSTEM
  2176	021105	000000	000000	SERIAL::exp <APRSN&777777>	;(20) SERIAL NUMBER OF CENTRAL PROCESSOR (APR)
  2177								; GETS OVERWRITTEN BY APRID IN ONCE
  2178	021106	000000	001750	MEMNSP::exp NSPMEM		;(21) NANO-SEC PER MEMORY CYCLE
  2179	021107	000000	000000	FREPTR:: 0			;(22) AOBJN WORD POINTING TO USE BIT MAP OF
  2180								; MONITOR FREECORE BLOCKS. SET BY ONCE
  2181								; NEVER CHANGED WHILE MONITOR RUNS.
  2182				;T10; PTYCNF: XWD PTYOFS##,PTYN	;(22) PTY PARAMETERS FOR BATCH (RPORTN,,PPORTN)
  2183	021110	000000	000000	LOCORE:: 0			;(23) LH=0, RH=ABS. ADR. OF 1ST FREECORE CHUNK
  2184								; SET BY ONCE ONLY CODE AND NEVER CHANGED WHILE
  2185								; MONITOR RUNS.
  2186				;T10; FREPTR::0			;T10; (23) AOBJN WORD FOR FREE-CORE BIT MAP
  2187	021111	000000	000256	NUMLIN::exp PORTN		;(24) # OF PORTS
  2188				;T10; LOCORE::0			;T10; (24) RH=ABS. ADR. FOR 4-WORD CHUNKS
  2189	021112	545747	576564	LGONAM::SIXBIT /LOGOUT/		;(25) NAME OF LOGOUT PROGRAM
  2190				;T10; STBPTR::EXP 0		;T10; (25) POINTER NOT USED WITH NETWORKS
  2191	021113	000000	000000	JFYSEC::0			;(26) JIFFIES/SEC
  2192				;T10; OPRLDB::0			;T10; (26) LDB OF OPR TELETYPE
  2193	021114	000000	000000	JFYMIN::0			;(27) JIFFIES/MIN
  2194				;T10; TTFREE::0			;T10; (27) FILLED IN AT ONCE TIME BY FREE LIST ADR
  2195	021115	000000	000000	JFYHR::	0			;(30) JIFFIES/HOUR
  2196				;T10; TTCLST::XWD TTCHKN,0	;T10; (30) NUMBER OF TTY CHUNKS, ADDRESS OF FIRST ONE
  2197	021116	000000	000777	HGHBLK::777			;(31) HIGHEST BLOCK IN ADRESSABLE CORE
  2198				;T10; TTFREN::0			;T10; (31) NUMBER OF FREE TTY CHUNKS AT THE MOMENT
COMMON - MONITOR COMMON DATA AREA AND CONFIGURATION DEFINITION - V534	MACRO 12.5-46.0 14:23 13-JAN-88 PAGE 31-3
COMMON.MAC	 7-DEC-87 14:36		ONCE ONLY CODE TO CREATE DEVICE DATA BLOCKS

  2199	021117	000000	000000	HFDBUF::xwd M.SBSZ,0		;(32) HISTOGRAM FACILITY (SNOOPY)
  2200								; BUFF PTR. 0 IF NONE ALLOCATED BY LNKDB
  2201								; (STANDARD); ELSE SIZE,,BEG LOC
  2202				;T10; LINSAV::0			;T10; (32) POINTER TO CURRENT TTY SEEN BY COMMAND DECODER
  2203	021120	000000	000000	SYSNUM::.-.			;(33)SYSTEM NUMBER, FILLED IN BY ONCE ONLY.
  2204				;T10; LINPTR::XWD MTTYLN##,LINTAB;T10;(33) POINTER TO EXAMINE TTY LINE TABLE,
  2205	021121	000000	000000	FRECOR::exp FCWDS		;(34)AMOUNT OF FREECORE ALLOCATED
  2206				;T10; MONVER: EXP A00VER	;T10; (34) VERSION OF MONITOR (LH FOR CUSTOMER)
  2207	021122	000000	003410	CRSCNT::exp ^D1800		;(35)TICS ALLOWED FOR SOFT CRASH
  2208				;T10; DSCPTR::XWD MDSLN##,DSCTAB##;T10; (35) POINTER TO DATASET CONTROL TABLE
  2209	021123	022665	021063*		SAV30,,NUMTAB##		;(36)ADDRESS OF THINGS FOR CRSHID
  2210				;T10; DLSRWD::0			;T10; (36) LAST RECEIVE INTERRUPT FROM DC10
  2211				extern	PATCH,PATEND,TTYINI,TTIEND
  2212	021124	000000*	021077*	DSKPAT::PATCH-PATEND,,PATCH	;(37)AOBJN pointer to PATCH area patches
  2213				;T10; CCIRWD::0			;T10; (37) LAST RECEIVE INTERRUPT FROM 680
  2214	021125	000000*	000000*	RUNPAT::TTYINI-TTIEND,,TTYINI	;(40)AOBJN pointer to TTYINI area patches
  2215				;T10; SEGPT1::EXP JOBN		;T10; (40) LAST DORMANT SEG NUMBER THROWN AWAY
  2216	021126	000000	000002	CNFCPU::CPUTYP			;(41)cpu model index (KI,KL,KS,F3)
  2217				;T10; LASPOK::0			;T10; (41) CONTAINS ADR. OF LAST LOCATION POKED
  2218	021127	000000	000000	PATMAP::0			;(42)bit mask of patches installed
  2219				;T10; LASPUC::0			;T10; (42) JOB#,,COUNT OF POKES
  2220	021130			CNFSID::;SYSID			;(43)sixbit monitor ID (serial number)
  2221	021130	000000*	000000*	SYSIDL##,,SYSIDR##; work around MACRO/LOADER bug regarding 36bit externs
  2222				;T10; WHYCOD::0			;T10; (43) SIXBIT ANSWER FOR "WHY RELOAD" AT ONCE
  2223
  2224				  ;Start of TOPS-10 entries added in P034/P
  2225
  2226	021131	000000	000074	TICSEC:: ^D60		;(44) CONTAINS NUMBER OF TICKS PER SECOND
  2227	021132	000000	000000	PDBPTR:	XWD 0,0;JBTPDB	;(45) RH=POINTER TO TABLE OF PDB'S FOR JOBS
  2228							; LH=0 FOR FUTURE EXPANSION
  2229	021133	000000	000000	RTCUPS:: 0		;(46) RESOLUTION (UNITS/SEC.) OF CLOCK USED FOR RUN ACCT
  2230	021134	000000*	000000	SYSCHN::XWD CHN0CB##,0	;(47) LH=ADR OF FIRST CHANNEL (DF10) DATA BLOCK, RH=UNUSED
  2231	021135	000000	000077	LOGMAX::EXP	JOBMAX	;(50) MAX.# JOBS ALLOWED TO BE LOGGED IN
  2232	021136	000000	000000	BATMAX::EXP 0;	M.BMAX	;(51) MAX.# BATCH JOBS ALLOWED
  2233	021137	000000	000000	BATMIN::EXP 0;	M.BMIN	;(52) MIN.# BATCH JOBS GUARENTEED (RESERVED)
  2234	021140	000000	000000	DATE::	 0		;(53) DATE TIME IN UNIVERSAL DATE/TIME (UDT) FORMAT
  2235					;See also GMTUDT; LH = DAYS SINCE NOV. 17, 1858, RH = FRACTION OF A DAY
  2236	021141	000000	000000	LOGNUM:: 0		;(54) NUMBER JOBS CURRENTLY LOGGED IN
  2237	021142	000000	000000	BATNUM:: 0		;(55) NUMBER BATCH JOBS CURRENTLY LOGGED IN.
  2238	021143	000000	000000	LOCYER:: 0		;(56) LOCAL YEAR
  2239	021144	000000	000000	LOCMON:: 0		;(57) LOCAL MONTH (1,2,...,12)
  2240	021145	000000	000000	LOCDAY:: 0		;(60) LOCAL DAY OF MONTH (1,2,3,...)
  2241	021146	000000	000000	LOCHOR:: 0		;(61) LOCAL HOUR (MIDNIGHT=0) reset by HOUR routine
  2242	021147	000000	000000	LOCMIN:: 0		;(62) LOCAL MINUTE (0,1,...,59)
  2243	021150	000000	000000	LOCSEC:: 0		;(63) LOCAL SECOND (0,1,...,59)
  2244	021151	777777	525253	GMTDIF:: <TIMZON>B17/^D24;(64) DIFFERENCE BETWEEN LOCAL AND GMT TIME. (UDT)
  2245							; IN SAME UNITS AS DATE --
  2246							; E.G. DATE + GMTDIF = LOCAL DATE-TIME
  2247							; (LH = DAY, RH = FRACT. OF DAY)
  2248	021152	300000	000000	DEBUGF:: DEFDEB!DEFBPT	;(65) DEBUGGING STATES WORD - SIGN BIT=1 IF SYSTEM PROG IS
  2249							; DEBUGGING MONITOR (SPEED UP ONCE ONLY)
  2250							; BIT1=1 TO RELOAD ON DEBUG STOPCD'S
  2251							; BIT2=1 TO RELOAD ON STOPCD'S WHICH ONLY
COMMON - MONITOR COMMON DATA AREA AND CONFIGURATION DEFINITION - V534	MACRO 12.5-46.0 14:23 13-JAN-88 PAGE 31-4
COMMON.MAC	 7-DEC-87 14:36		ONCE ONLY CODE TO CREATE DEVICE DATA BLOCKS

  2252							; AFFECT 1 JOB
  2253							; BIT3=1 TO DISABLE AUTO-RELOADS
  2254							; BIT4=1 TO STOP SYSTEM IF ANY CPU GETS A CPU STOPCD
  2255	021153	000000	000000	FRUSED:: 0		;(66) AMOUNT OF FREE CORE IN USE
  2256	021154	000000	000000	RCCMAX:: 0		;(67) NUMBER OF BYTES IN TTY CHUNKS
  2257	021155	000000*	000000*	CNFCVN::SYSVER		;(70) CUSTOMER VERSION (=C(136)) = A00CVN
  2258	021156	250200	000000*	CNFDVN::A00DEC,,A00EDT	;(71) DEC VERSION IN LH, TYMCOM-X EDIT # IN RH
  2259	021157	000000	000000*	CNFCHN::EXP	CHNN##	;(72) NUMBER OF DATA CHANNELS (DF10 or RH11S or F3)
  2260	021160	000000	000000	CNFRTD::EXP 0;	M.RTD	;(73) NUMBER OF REAL TIME DEVICES
  2261	021161	000000	000000	CNFHPQ::EXP 0;	M.HPQ	;(74) NUMBER OF HPQ'S
  2262	021162	000000	000000*	CNFLDB::EXP	DDBLDB##;(75) WORD IN TTY DDB WHICH POINTS TO LDB
  2263	021163	000000	000000	CNFMVO::EXP 0;	PSIMVO	;(76)MAX. VECTOR OFFSET FOR PISYS. UUO
  2264	021164	000000	000000	CNFMIP::EXP 0;	PSIMPI	;(77)MAX. PRIORITY FOR PSISER
  2265	021165	000000*	000000*	CNFMTA::XWD	TUBRID##,MT0DDB##  ;(100) POINTER TO FIRST MTA DDB AND INDEX
  2266								   ; OF START OF DAEMON INFORMATION
  2267	021166	000000	000000	CNFET1:	EXP 0;	JOBDAC##+T1	;(101) EXEC AC1 IN USER'S ADDRESS SPACE
  2268	021167	000000	000017	CNFLSD:	EXP	DEVLSD		;(102) LENGTH OF SHORT DDB
  2269	021170	000000	000020	CNFLLD:	EXP	DEVLLD		;(103) LENGTH OF LONG DDB
  2270	021171	000000	000000*	CNFLDD:	EXP	DDBLEN##	;(104) LENGTH OF DISK DDB
  2271	021172	000000	000000*	CNFEXM:	EXP	JOBEXM##	;(105) WORD IN JOBDAT USED BY "E" AND "D" COMMAND
  2272			000000		ZZ==0
  2273			000001		ZZ==ZZ!1B35		;BIT 35=1 IF SWAP SPACE ALLOCATED IN PAGES
  2274				;IFN M.TM10,<ZZ==ZZ!1B34>	;BIT 34=1 IF MTA ERROR REPORTING
  2275			000005		ZZ==ZZ!1B33		;BIT 33=1 IF VM MONITOR
  2276				;IFN M.IPCF,<ZZ==ZZ!1B32>	;BIT 32=1 IF IPCSER IS LOADED
  2277				;IFN M.PSI,<ZZ==ZZ!1B31>	;BIT 31=1 IF PSISER IS LOADED
  2278				;IFN M.MSG,<ZZ==ZZ!1B30>	;BIT 30=1 IF MSGSER IS LOADED
  2279			000105		ZZ==ZZ!1B29		;BIT 29=1 IF NON-SUPER ENTER IS SUPPORTED
  2280				;IFN FTNSCHED,<ZZ==ZZ!1B28>	;BIT 28=1 IF NEW CLASS SCHEDULER IS PRESENT
  2281				;IFN M.EQDQ,<ZZ==ZZ!1B27>	;BIT 27=1 IF ENQ/DEQ IS LOADED
  2282				;IF2, <ZZ==ZZ!<<ZGAL>B26>>	;BIT 26=1 IF MONITOR CONTAINS GALAXY-10 FEATURES
  2283				;ZZ==ZZ!1B25			;BIT 25=1 MONITOR SUPPORTS MASSBUS ERROR REPORTING
  2284				;ZZ==ZZ!1B24			;BIT 24=1 IF NEW TAPSER
  2285				;ZZ==ZZ!1B23			;BIT 23=1 IF NEW ERROR REPORTING
  2286				;ZZ==ZZ!1B22			;BIT 22=1 IF JOB NUMBERS ARE 9 BITS NOT 7
  2287				;IFN M.EXE,<ZZ==ZZ!1B21>	;BIT 21=1 IF "SAVE" COMMAND PRODUCES EXE FILE
  2288				;IFN M.EMRT,<ZZ==ZZ!ST%EMR>	;BIT 20=1 IF EBOX/MBOX RUNTIME IS IN EFFECT (KL ONLY)
  2289				;IFN M.XPI,<ZZ==ZZ!ST%XPI>	;BIT 19=1 IF PI TIME IS EXCLUDED FROM USER RUNTIME (KL ONLY)
  2290				;ZZ==ZZ!1B18			;BIT 18=1 IF FULL 6 CHAR DEVICE NAMES "LPT231"
  2291				;IFN M.ITA,<ZZ==ZZ!ST%ITA>	;BIT 17=1 IF INTERVAL TIMER ON KL10 IS AVAILABLE
  2292				;IFE M.CLSS,<ZZ==ZZ!ST%NCS>	;BIT 16=1 IF NOT CLASS SYSTEM SCHED.
  2293				;ZZ==ZZ!ST%NER			;BIT 15=1 MONITOR SUPPORTS 6.03 ERROR REPORTING
  2294				;IFN M.ACV,<ZZ==ZZ!ST%ACV>	;BIT 14=1 IF ACCOUNT VERIFICATION SHOULD BE DONE
  2295				;IFN FTKL10!FTKS10,<ZZ==ZZ!ST%LSC> ;BIT 13=1 IF LOW SEGMENT OF MONITOR IS CACHED
  2296				;IFN FTMDA,<ZZ==ZZ!ST%MDA>	;BIT 12=1 IF ALLOCATOR WILL RUN
  2297				;IFN FTKLP,<ZZ==ZZ!1B11>	;BIT 11=1 IF KL RATHER THAN KI PAGING IN MONITOR
  2298				;IFN M.DECN,<ZZ==ZZ!1B10>	;BIT 10=1 IF PHASE 3 DECNET LOADED
  2299	021173	000000	000105	CNFST2::EXP	ZZ		;(106) FLAG BITS DEFINED ABOVE
  2300	021174	000000	000000	PISYMN: EXP 0;	M.PSI*C$MIN	;(107) MINIMUM CONDITION FOR PISYS.UUO
  2301	021175	000000	000000	PITLEN: EXP 0;	PITSIZ		;(110)LENGTH OF PI TABLE
  2302	021176	000000	000000	CNFPIA::EXP 0;	JBTPIA		;(111)ADDRESS OF JBTPIA
  2303	021177	000000	050000	%CNMNT:	BYTE	(1)0(17)0(6)5(6)0(6)0	;(112) TYPE OF MONITOR
  2304									;    (1)=STRANGE
COMMON - MONITOR COMMON DATA AREA AND CONFIGURATION DEFINITION - V534	MACRO 12.5-46.0 14:23 13-JAN-88 PAGE 31-5
COMMON.MAC	 7-DEC-87 14:36		ONCE ONLY CODE TO CREATE DEVICE DATA BLOCKS

  2305									;    (17)=RESERVED TO DEC
  2306									;    (6)=TYPE:	1=TOPS-10
  2307									;		2=I.T.S.
  2308									;		3=TENEX
  2309									;		4=TOPS-20
  2310									;		5=TYMCOM-X
  2311									;		REST RESERVED TO DEC
  2312									;    (6)=SUBTYPE (RESERVED TO DEC)
  2313									;    (6)=RESERVED TO CUSTOMERS
  2314
  2315				  ;Items added for P035 monitor
  2316
  2317	021200	000000	000000		EXP 0; CR0DDB,,CDRCNT##	;(113)OFFSET TO CARD COUNT FOR CDR
  2318	021201	000000	000000		EXP 0; CP0DDB##,,CDPCTO##;(114)OFFSET TO CARD COUNT FOR CDP
  2319	021202	000000	001000		EXP	PAGSIZ		;(115)BASIC UNIT OF CORE ALLOCATION
  2320	021203	000000	000000		EXP 0;	MINMAX		;(116)MIN VALUE FOR CORMAX
  2321	021204	000000	000000		EXP 0;	M.CLSN		;(117)NUMBER OF SCHEDULER CLASSES
  2322	021205	000000	000000		EXP	0		;(120)EXPONENTIAL FACTOR USED IN COMPUTING USER TIME
  2323	021206	000000	000000	SYSORG::	0		;(121)START OF MONITOR HISEG
  2324	021207	000000	000000	SYSLEN::	0		;(122)LENGTH OF MONITOR HISEG
  2325	021210	000002	000000	NWCORE::^D<512*1024>		;(123)NUMBER OF WORDS OF CORE MINIMUM
  2326	021211	000000	000000	NXMPTR::0			;(124)AOBJN POINTER TO NXMTAB USED TO SCAN FOR ZEROES
  2327	021212	000000	000000		EXP 0;	NETNDB##	;(125)POINTER TO THE FIRST NODE BLOCK
  2328	021213	000000	000000*	CNFTKB:	EXP	TKBCDB##	;(126)POINTER FROM KDB TO CDB FOR MAGTAPES
  2329	021214	000000*	000000*		XWD CTYPTR##,CTYBUF##	;(127)POINTER TO CTY OUTPUT,,ADDR OF BUFFER
  2330	021215	000000	000000	HNGLST::XWD	0,0		;(130)LH IS ADDRESS OF FIRST DEVICE WHICH SHOULD BE
  2331								; CHECKED TO SEE IF IT IS HUNG
  2332	021216	000000	023247		EXP	BOOTXT		;(131) ADDRESS OF RELOAD CCL TEXT
  2333	021217	000000	000000*		EXP	TUBDDB##	;(132) OFFSET OF DDB PTR'S IN TUB
  2334	021220	000000	000000*		EXP	MT0KDB##	;(133) 1ST MTA KDB IN SYS
  2335	021221	000000	000001	NOCPUS::EXP	1		;(134) NO OF CPUS MONITOR WAS BUILT FOR
  2336	021222	350700	000001	CNFDJB:	XWD	PJBNLH,DEVJOB	;(135) GETTABLE PJOBN (SANS INDEX FIELD)
  2337				;T10; UPTIME::
  2338	021223	000000	000000	SYSUPT::EXP	0		;(136) SYSTEM UPTIME
  2339	021224	777777	777777	BOOTCP::EXP	-1		;(137) BOOT CPU NUMBER
  2340	021225	000000	000000	BOOTCT::EXP 0;	CT0LIN		;(140) BOOT CPU CTY LINE NUMBER
  2341	021226	000000	000001	NCPRUN::EXP	1		;(141) NUMBER OF CPUS ALLOWED TO RUN
  2342	021227	637163	000000	STRMON::SIXBIT	/SYS/		;(142) FILE STRUCTURE MONITOR WAS BOOTED FROM
  2343	021230	637163	644555	FILMON::SIXBIT	/SYSTEM/	;(143) FILE NAME
  2344	021231	634166	000000	EXTMON::SIXBIT	/SAV/		;(144) EXTENSION
  2345	021232	000001	000004	PPNMON::XWD	1,4		;(145) PPN
  2346	021233	000000	000000	SYSNBP::EXP	MAXNBP		;(146) MAXIMUM NUMBER OF BREAK POINTS FOR SNOOP.
  2347	021234	000000	000000	MONVFF::EXP	MONORG		;(147) FIRST FREE VIRTUAL ADDRESS ABOVE MONITOR
  2348	021235	000000	000000	LDBVRG::EXP	0		;(150) VIRTUAL ADDRESS OF THE ORGIN OF LDBS
  2349	021236	000000	000000	FOPHXC::EXP 0;	HIGHXC-20	;(151) NUMBER OF EXTENDED CHANNELS AVAILABLE VIA FILOP.
  2350	021237	000000	000000	MONHSO:	EXP	MONORG		;(152) VIRTUAL ADDRESS OF START OF MONITOR HIGHSEG
  2351	021240	000000	000000	SUPTIM::EXP	0		;(153) UNIVERSAL DATE/TIME OF LAST ROLE SWITCH
  2352	021241	000000*	000000*	CNFDCH:	XWD LDBSTR##,LDBDCH##	;(154) OFFSET OF LDBDCH IN LDB'S, AUX STRING
  2353	021242	000000	000000	SFDMON::EXP	0		;(155) 1ST SFD MONITOR WAS BOOTED FROM
  2354	021243	000000	000000		EXP	0		;(156) 2ND SFD MONITOR WAS BOOTED FROM
  2355	021244	000000	000000		EXP	0		;(157) 3RD SFD MONITOR WAS BOOTED FROM
  2356	021245	000000	000000		EXP	0		;(160) 4TH SFD MONITOR WAS BOOTED FROM
  2357	021246	000000	000000		EXP	0		;(161) 5TH SFD MONITOR WAS BOOTED FROM
COMMON - MONITOR COMMON DATA AREA AND CONFIGURATION DEFINITION - V534	MACRO 12.5-46.0 14:23 13-JAN-88 PAGE 31-6
COMMON.MAC	 7-DEC-87 14:36		ONCE ONLY CODE TO CREATE DEVICE DATA BLOCKS

  2358	021247	000000	000000		EXP 0;	FRCLIN		;(162) TTY LINE NUMBER OF FRCLIN
  2359	021250	777722	024230	PTYPTR:	XWD	-PTYN,PTYTAB	;(163) POINTER TO PTY TABLE
  2360
  2361				;* * *
  2362				;* * * THIS IS THE END OF THE CONFIG GETTAB TABLE: add new entries above
  2363				;* * *
  2364			163000	CNFMXL==:<.-CNFTBL-1>B26		;MAXIMUM ENTRY IN CNFTBL FOR GETTAB M
  2365
  2366				REPEAT 0,<;Unused TOPS-10 entries
  2367					XWD	-LATLEN##,NETLAT## ;(164)-LENGTH,,LOCATION LINK ADDRESS TABLE
  2368				CNFLPD:	EXP	.PDLEN		;(165) LENGTH OF A PDB (SIZCTX*1000?)
  2369					XWD	0,PAGSIZ	;(166) XWD FLAG, SIZE OF LARGEST JOBPEK TRANSFER
  2370								; WHERE FLAG=0 IF SWAP SPACE JOBPEK'S MAY NOT
  2371								; CROSS A PAGE BOUNDARY, FLAG=1 IF THEY MAY
  2372					EXP	CNFDAE		;(167) XWD OLD DAEMON NAME,CURRENT MONITOR
  2373								; VERSION. OLD DAEMON NAME IS THE SIXBIT NAME
  2374								; OF THE PREVIOUS MONITOR, E.G. 701.
  2375				CNFHSH::XWD	-HSHLEN,HSHTAB	;(170) AOBJN POINTER TO HSHTAB FOR ENQ/DEQ
  2376					EXP	<.PDACS-.PDBEG>	;(171) OFFSET IN PDB FOR ACCOUNT STRING
  2377					XWD	TOPLN1##,TOPTB1## ;(172) POINTER TO TOPTB1, TRMOP DISPATCH
  2378					EXP	JBTSFD##	;(173) POINTER TO JBTSFD
  2379					EXP	CIPWT		;(174) POINTER TO CLOCK QUEUE
  2380				CNFMXL==:<.-CNFTBL-1>B26	;MAXIMUM ENTRY IN CNFTBL FOR GETTAB UUO
  2381								;(175) JBTPRV for INITIA
  2382								;(176) CTERM data in 8-bit bytes, first 4
  2383								;(177) CTERM data, 4 more 8-bit bytes
  2384								;(200) LAT host node database
  2385								;(201) AND mask for .GTIMI/.GTIMO
  2386								;(202) ACB
  2387								;(203) AHB
  2388
  2389				;----------------------------------
  2390				;INSERT HERE ANY NEW LOCATIONS OF INTEREST WHICH ARE SET UP BY ONCE ONLY CODE.
  2391				; OR ARE CONSTANTS WHICH ARE NOT CLEARED AT STARTUP
  2392				;-------------------------------------
  2393				TIMLST::0			;VALUE OF "TIME" LAST TIME AT CLOCK LEVEL
  2394								; USED FOR ALL TIMING FUNCTIONS, E.G.,
  2395								; MAINTAINING CLOCK QUEUE AND SMITHSONIAN DATE
  2396				>  ;End of TOPS-10 definitions
  2397
  2398	021251	400360	000000	BGBENF::1B0+<XWD ^D<4*60>,0>	;Output at system startup, then every 4 hours
  2399	021252	000000	000000	LOCWEK::0			;Pointer to ASCIZ string for day of week
COMMON - MONITOR COMMON DATA AREA AND CONFIGURATION DEFINITION - V534	MACRO 12.5-46.0 14:23 13-JAN-88 PAGE 32
COMMON.MAC	 7-DEC-87 14:36		ONCE ONLY CODE TO CREATE DEVICE DATA BLOCKS

  2400				;GETTAB TABLE OF QUEUE CODES FOR JOBS - TABLE(RH)=25
  2401				;MUST BE A SEPARATE TABLE SINCE THE NUMBER OF ENTRIES VARIES ACCORDING
  2402				;TO THE CONFIGURATION
  2403
  2404				;ENTRIES ARE 2 SIXBIT CHARACTERS, THREE PER WORD
  2405				;STATE CODE 0 IS LEFT THIRD, 1 IS MIDDLE THIRD, 2 IS RIGHT THIRD OF FIRST WORD
  2406				;STATE CODE 3 IS LEFT THIRD OF SECOND WORD, ETC.
  2407
  2408	021253			STSTBL::
  2409
  2410				DEFINE X(A,B,C)
  2411				<	IFE ZZ-ZZ/3*3-0,
  2412				  <	  XX==   <SIXBIT /A/&7777B11>B35>
  2413					IFE ZZ-ZZ/3*3-1,
  2414				  <	  XX==XX!<SIXBIT /A/&7777B11>B47>
  2415					IFE ZZ-ZZ/3*3-2,
  2416				  <	  XX==XX!<SIXBIT /A/&7777B11>B59
  2417					  EXP XX>
  2418				ZZ==ZZ+1
  2419				>
  2420
  2421			000000	ZZ==0
  2422	021253	625667	636463		QUEUES
  2423	021254	636363	516251
  2424	021255	606360	625522
  2425	021256	444143	424643
  2426	021257	556441	704143
  2427	021260	426051	575542		CODES
  2428	021261	436764	516367
  2429	021262	555451	544654
  2430	021263	635456	656364
  2431					IFN ZZ-ZZ/3*3-0,<
  2432					  EXP XX>
  2433
  2434			010000	STSMXL==:<.-STSTBL-1>B26	;MAX ENTRY IN STSTBL FOR GETTAB UUO
COMMON - MONITOR COMMON DATA AREA AND CONFIGURATION DEFINITION - V534	MACRO 12.5-46.0 14:23 13-JAN-88 PAGE 33
COMMON.MAC	 7-DEC-87 14:36		License bit defintions table

  2435				SUBTTL	License bit defintions table
  2436
  2437	021264	430100	674301	LICTBL::Point 1,'WC '!1,00		; Write Core
  2438	021265	420100	624301		Point 1,'RC '!1,01		; Read Core
  2439	021266	410100	576001		Point 1,'OP '!1,02		; Operator
  2440	021267	400100	637101		Point 1,'SY '!1,03		; Systat
  2441	021270	370100	474401		Point 1,'GD '!1,04		; Get Devices
  2442	021271	360100	644401		Point 1,'TD '!1,05		; Transfer Devices
  2443	021272	350100	636401		Point 1,'ST '!1,06		; Structures
  2444	021273	340100	504601		Point 1,'HF '!1,07		; Home Files (Write)
  2445	021274	330100	525401		Point 1,'JL '!1,08		; Jacct-Login
  2446	021275	320100	414301		Point 1,'AC '!1,09		; Aux Circuit
  2447	021276	310100	704301		Point 1,'XC '!1,10		; eXchange Charges
  2448	021277	300100	615501		Point 1,'QM '!1,11		; Queue Manager
  2449	021300	270100	506201		Point 1,'HR '!1,12		; Home Read
  2450	021301	260100	151500		Point 1,'-- '!0,13		; --Unused--
  2451	021302	240200	626001		Point 2,'RP '!1,15		; Read in Project
  2452	021303	240200	624602		Point 2,'RF '!2,15		; Read Files
  2453	021304	240200	624103		Point 2,'RA '!3,15		; Read Absolute
  2454	021305	220200	676001		Point 2,'WP '!1,17		; Write in Project
  2455	021306	220200	674602		Point 2,'WF '!2,17		; Write Files
  2456	021307	220200	674103		Point 2,'WA '!3,17		; Write Absolute
  2457			000024	LICMAX=:<.-LICTBL>		; Number of license entries
  2458			023000	LICMXL=:<.-LICTBL-1>B26		; Range of entries 0-n (shifted 9)
  2459
COMMON - MONITOR COMMON DATA AREA AND CONFIGURATION DEFINITION - V534	MACRO 12.5-46.0 14:23 13-JAN-88 PAGE 34
COMMON.MAC	 7-DEC-87 14:36		License bit defintions table

  2460	021310			ODPTBL::			;FIRST LOCATION IN MONITOR DATA AREA FOR DISK-
  2461								; RELATED LOCATIONS WHICH ARE NOT SET TO 0
  2462								; WHEN THE SYSTEM IS STARTED UP.
  2463								; ODPTBL IS GETTAB TABLE NUMBER 15.
  2464
  2465	021310	000000	000000	SWPHGH::0	; (obsolete)	;(0) HIGHEST LOGICAL BLOCK # ASSIGNED FOR
  2466								; SWAPPING. SPACE IS ASSIGNED FROM HIGHEST
  2467								; BLOCK # DOWNWARDS.
  2468
  2469	021311	000000	000000	K4SWAP:	0	; (obsolete)	;(1) # OF J OF DISK WORDS SET ASIDE FOR
  2470								; SWAPPING. ASSIGNED AT ONCE ONLY REFRESH
  2471								; TIME.
  2472
  2473			000001	ICPFACTOR==:1			;FACTOR BY WHICH TO MULTIPLY AVERAGE SWAP-IN
  2474								; TIMES TO PRODUCE IN-CORE PROTECT TIMES.
  2475			000001	KXFTIM==1			;SET PROTECT TIMES TO 1
  2476			000001	IFCPU (<KI,KL>),<SEEKTM==1>	;Set PROT0 to 2 for KI and KL
  2477				IFNCPU(<KI,KL>),<SEEKTM==3>	;Set PROT0 to 4 for KS and F3
  2478
  2479	021312	000000	000001	PROT::	EXP ICPFACTOR*KXFTIM	;(2) IN-CORE PROTECT TIME PARAMETER TO BE
  2480								; MULTIPLIED BY <J-1> OF CORE IN JOB.
  2481
  2482	021313	000000	000002	PROT0::	EXP ICPFACTOR*<SEEKTM+KXFTIM>;(3) IN-CORE PROTECT TIME PARAMETER TO
  2483								; BE ADDED TO ABOVE RESULT.
  2484
  2485	021314	000000	000074	MXPROT::  EXP ^D60		;(4) MAX VALUE FOR ICPT FUNCTION, KEEP CORE
  2486								; FROM GETTING CLOGGED WITH HUGE JOBS WITH
  2487								; HUGE ICPT WHICH SCHEDULER DOESNT WANT TO
  2488								; RUN. /AA
  2489
  2490	021315	000000*	000007	DCN::	DCFULL+(DCNDFT)		;(5) DSKCLN TYPE DESIRED, DEF IS FULL, INIT HM
  2491				EXTERN	DCNDFT			; Default DSKCLN bits from ONCDSK
  2492
  2493				;INSERT HERE ANY NEW LOCATIONS OF INTEREST WHICH ARE SET UP BY
  2494				; ONCE ONLY CODE AND WHICH PERTAIN ONLY TO DISK SYSTEMS.
  2495			005000	ODPMXL==:<.-ODPTBL-1>B26	;MAXIMUM ENTRY IN ODPTBL FOR GETTAB M
  2496
  2497				;DISK LOCATIONS NOT IN GETTAB
  2498
  2499	021316	000000	000000	REFLAG:: 0			;FLAG LOCATION TO INDICATE WHETHER ANY REFRESHING
  2500								; OCCURRED AND TO CONTAIN THE [PROJ,R]
  2501								; NUMBERS FOR AUTOMATIC LOG-IN FOLLOWING REFRESH.
COMMON - MONITOR COMMON DATA AREA AND CONFIGURATION DEFINITION - V534	MACRO 12.5-46.0 14:23 13-JAN-88 PAGE 35
COMMON.MAC	 7-DEC-87 14:36		License bit defintions table

  2502				;MORE DATA LOCATIONS SETUP AT ASSEMBLY TIME OR ONCE ONLY TIME
  2503				; BUT NOT OF INTEREST TO USER PROGRAMS
  2504
  2505				;MONTH TABLE FOR DAYTIME COMMAND PRINTING
  2506
  2507	021317	360606	021320	PMONTB::POINT 6,MONTAB(T1),5	;POINTER TO NUMBER OF DAYS IN MONTH
  2508	021320	360004	520316	MONTAB::EXP ^D30B5+"JAN"
  2509	021321	330004	321302		EXP ^D27B5+"FEB"
  2510	021322	360004	660322		EXP ^D30B5+"MAR"
  2511	021323	350004	064122		EXP ^D29B5+"APR"
  2512	021324	360004	660331		EXP ^D30B5+"MAY"
  2513	021325	350004	525316		EXP ^D29B5+"JUN"
  2514	021326	360004	525314		EXP ^D30B5+"JUL"
  2515	021327	360004	065307		EXP ^D30B5+"AUG"
  2516	021330	350005	161320		EXP ^D29B5+"SEP"
  2517	021331	360004	760724		EXP ^D30B5+"OCT"
  2518	021332	350004	723726		EXP ^D29B5+"NOV"
  2519	021333	360004	221303		EXP ^D30B5+"DEC"
  2520				;The following are set up by ONCE when it calculates jiffies per second
  2521	021334	000000	000000	MIDNIT::0	;JIFFIES TILL MIDNIGHT
  2522	021335	000000	000000	JFYSC2::0	;JIFFIES IN 1/2 SEC
  2523	021336	000000	000000	JFY2SC::0	;JIFFIES IN 2 SEC
  2524	021337	000000	000000	JFYS12::0	;Jiffies in 1/12 second
  2525	021340	000000	000000	QQYTTY::0	;Jiffies for TTY satisified quantum (1/2 second)
  2526	021341	000000	000000	QQYSD:: 0	;Jiffies for swap done (1/10 second)
  2527
  2528	021342	000000	000000	SYSSZP::0	;SYSTEM SIZE IN PAGES
  2529	021343	000000	000000	MEMSZP::0	;MEMORY SIZE IN PAGES
  2530	021344	000000	000000	MAXPCB::0	;LARGEST PCB PAGE NUMBER
  2531	021345	000000	000000	MINPCB::0	;SMALLEST PCB PAGE NUMBER
COMMON - MONITOR COMMON DATA AREA AND CONFIGURATION DEFINITION - V534	MACRO 12.5-46.0 14:23 13-JAN-88 PAGE 36
COMMON.MAC	 7-DEC-87 14:36		License bit defintions table

  2532				;TABLE TRANSLATING BIT NUMBERS TO BITS
  2533
  2534		400000	000000	BITTBL::ZZ==1B0
  2535				REPEAT ^D36,<
  2536					ZZ
  2537					ZZ==ZZ_<-1>
  2538				>;END REPEAT ^D36
  2539	021346	400000	000000
  2540	021347	200000	000000
  2541	021350	100000	000000
  2542	021351	040000	000000
  2543	021352	020000	000000
  2544	021353	010000	000000
  2545	021354	004000	000000
  2546	021355	002000	000000
  2547	021356	001000	000000
  2548	021357	000400	000000
  2549	021360	000200	000000
  2550	021361	000100	000000
  2551	021362	000040	000000
  2552	021363	000020	000000
  2553	021364	000010	000000
  2554	021365	000004	000000
  2555	021366	000002	000000
  2556	021367	000001	000000
  2557	021370	000000	400000
  2558	021371	000000	200000
  2559	021372	000000	100000
  2560	021373	000000	040000
  2561	021374	000000	020000
  2562	021375	000000	010000
  2563	021376	000000	004000
  2564	021377	000000	002000
  2565	021400	000000	001000
  2566	021401	000000	000400
  2567	021402	000000	000200
  2568	021403	000000	000100
  2569	021404	000000	000040
  2570	021405	000000	000020
  2571	021406	000000	000010
  2572	021407	000000	000004
  2573	021410	000000	000002
  2574	021411	000000	000001
  2575
COMMON - MONITOR COMMON DATA AREA AND CONFIGURATION DEFINITION - V534	MACRO 12.5-46.0 14:23 13-JAN-88 PAGE 37
COMMON.MAC	 7-DEC-87 14:36		License bit defintions table

  2576				;Table which gives the absolute number of bit 0 in any given word in a
  2577				; bit table.  This is used by SCNSER and COMCON to determine what port
  2578				; or frame number a given bit in a given word corresponds to.
  2579				; NFLG is the number of words in SCNSER's LINFLG table;
  2580				; CFLG is the number of words in COMCON's COMFLG table;
  2581				; BFLG is MAX(NFLG,CFLG)+1 for safety.
  2582
  2583			000006		BFLG==NFLG+1
  2584				IFG <CFLG-NFLG>,<BFLG==CFLG+1>
  2585
  2586			000000	BITNTB::XYZZY==0
  2587				REPEAT BFLG,<
  2588					XYZZY
  2589					XYZZY==XYZZY+^D36
  2590				>
  2591	021412	000000	000000
  2592	021413	000000	000044
  2593	021414	000000	000110
  2594	021415	000000	000154
  2595	021416	000000	000220
  2596	021417	000000	000264
  2597
COMMON - MONITOR COMMON DATA AREA AND CONFIGURATION DEFINITION - V534	MACRO 12.5-46.0 14:23 13-JAN-88 PAGE 38
COMMON.MAC	 7-DEC-87 14:36		Feature Test Table  (GETTAB '71)

  2598				SUBTTL	Feature Test Table  (GETTAB '71)
  2599
  2600					DEFINE	FTBITS(FET),<
  2601					.X==0
  2602					.Y==0
  2603					.Z==0
  2604				IRP FET<
  2605				IFGE .Y-21,<PRINTX ? FET CANT BE INSERTED>
  2606				IFN	FT'FET,<.X==.X!1_.Y>
  2607					.Z==.Z!1_.Y
  2608					F.'FET==1_.Y
  2609					.Y==.Y+1>
  2610					XWD .Z,.X>
  2611		777777	777777		FT1==-1			;FORCE ON (NAME=1)
  2612			000000		FT0==0			;FORCE OFF (NAME=0)
  2613
  2614				; "YES"=Is in P034/P      "NO"=Is not in P034/P    "NO !"=Should be in P034/Q
  2615				; "OTHER"=Same function, different UUO    "BUG??"=Not sure if it works right
  2616				  ;	%FTTYM==-1,,71       TYMSHARE
  2617				  ;F%14ND 35        YES   14-bit node numbers
  2618				  ;F%16ND 34        NO    16-bit node numbers
  2619				  ;F%LHST 33        MAYBE Login host number available
  2620				  ;F%SUDT 32        YES   SYSUDT in NSWTBL+5 and KSYS in NSWTBL+6
  2621	021420	000017	000015	FETTYM:	17,,1B32!1B33!1B35	;(-1) TYMSHARE bits
  2622
  2623	021421			FETTBL::		;Feature Test Table (GETTAB table 71)
  2624
  2625				  ;	%FTUUO==0,,71        UUOS
  2626				  ;F%2REL 35 FT0    NO    2-REGISTER RELOCATION
  2627				  ;F%GETT 34 FT1    YES   GETTAB UUO
  2628				  ;F%DAEM 33 FT1    NO    DAEMON FUNCTIONS, ETC.
  2629				  ;F%PRV  32 FT1    YES   JOB PRIVS
  2630				  ;F%SPL  31 FTSPL  NO    SPOOLING (LPT TO DSK)
  2631				  ;F%JCON 30 FT1    YES   JOB CONTINUE
  2632				  ;F%POKE 29 FTPOKE OTHER POKE. UUO
  2633				  ;F%PEEK 28 FTPEEK YES   PEEK UUO
  2634				  ;F%PTYU 27 FT1    NO !  JOBSTS AND CTLJOB UUOS
  2635				  ;F%CCIN 26 FT1    OTHER CONTROL-C INTERCEPT
  2636				  ;F%IPCF 25 FTIPCF NO    IPCF
  2637				  ;F%PI   24 FTPI   OTHER SOFT. PI SYS
  2638				  ;F%GALA 23 FT1    NO    GALAXY-10 FEATURES
  2639				  ;F%EQDQ 22 FTEQDQ OTHER ENQ./DEQ.
  2640				  ;F%MIC  21 FTMIC  NO !  MACRO COMMAND PROCESSOR
  2641				  ;F%MLOG 20 FTMLOG NO    MIC LOG FILE SUPPORT
  2642				  ;F%MDA  19 FTMDA  NO    MOUNTABLE DEVICE ALLOCATOR
  2643				    ;(0) LIST OF MONITOR NON-I/O FEATURES WHICH DIRECTLY IMPACT CUSPS (THIS WORD IS FULL)
  2644				  ;*;	FTBITS<0,1,1,1,SPL,1,POKE,PEEK,1,1,IPCF,PI,1,EQDQ,MIC,MLOG,MDA>
  2645	021421	377777	000252	FETUUO:	377777,,1B28!1B30!1B32!1B34	;(0) Monitor Call features
  2646
  2647				  ;	%FTRTS==1,,71        REAL TIME AND SCHEDULER
  2648				  ;F%HPQ  35 FTHPQ  NO    HIGH PRIORITY RUN QUEUES
  2649				  ;F%HIBW 34 FT1    YES   HIBER/WAKE UUOS
  2650				  ;F%SLEE 33 FT1    YES   SLEEP UUO
COMMON - MONITOR COMMON DATA AREA AND CONFIGURATION DEFINITION - V534	MACRO 12.5-46.0 14:23 13-JAN-88 PAGE 38-2
COMMON.MAC	 7-DEC-87 14:36		Feature Test Table  (GETTAB '71)

  2651				  ;F%RTTR 32 FTRTTR NO    RTTRAP UUO
  2652				  ;F%TRPS 31 FTTRPS NO    TRPSET UUO
  2653				  ;F%LOCK 30 FTLOCK NO    LOCK UUO
  2654				  ;F%RTC  29 FT0    KI10  DK10 SERVICE
  2655				  ;F%SHFL 28 FT0    NO    SHUFFLER
  2656				  ;F%SWAP 27 FT1    NO    SWAPPER
  2657				  ;F%VM   26 FT1    YES   VIRTUAL MEMORY
  2658				  ;F%NSCH 25 FTNSCH NO    NEW SCHEDULER
  2659				  ;F%PSCD 24 FTPSCD NO    SCHEDULER PERFORMANCE GATHERING
  2660				  ;F%CMSR 23 FTCMSR NO    COMMUNICATION MEASUREMENT CODE
  2661				  ;       22-19 unused as of 7.03
  2662				    ;(1) REAL-TIME AND SCHEDULING FEATURES
  2663				  ;*;	FTBITS<HPQ,1,1,RTTRAP,TRPSET,LOCK,0,0,1,1,NSCHED,PSCD,CMSR>
  2664	021422	017777	001006	FETRTS:	017777,,1B26!1B33!1B34	;(1) Realtime & Scheduler features
  2665
  2666				  ;	%FTCOM==2,,71        COMMANDS
  2667				  ;F%ATTA 35 FT1    YES   ATTACH COMMAND/UUO
  2668				  ;F%TALK 34 FT1    YES   SEND
  2669				  ;F%EXAM 33 FT1    YES   E AND D
  2670				  ;F%REAS 32 FT1    YES   REASSIGN UUO/COMMAND
  2671				  ;F%FINI 31 FT1    YES   FINISH AND CLOSE
  2672				  ;F%WATC 30 FT1    YES   WATCH
  2673				  ;F%SEDA 29 FT1    YES   SET DAYTIME AND SET DATE
  2674				  ;F%BCOM 28 FT1    NO !  BATCH CONTROL FILE
  2675				  ;F%VERS 27 FT1    YES   VERSION
  2676				  ;F%SET  26 FT1    YES   SET UUO/COMMAND
  2677				  ;F%QCOM 25 FT1    NO !  QUEUE AND FRIENDS
  2678				  ;F%CCLX 24 FT1    YES   COMPIL-CLASS
  2679				  ;F%CCL  23 FT1    YES   COMPIL COMMANDS
  2680				  ;F%MONL 22 FT1    NO    SET MEMORY ON LINE
  2681				  ;F%MOFF 21 FT1    NO    SET MEMORY OFF LINE
  2682				  ;F%EXE  20 FT1    NO !  .EXE FORMAT FILES SUPPORTED
  2683				  ;F%PJOB 19 FT1    YES   EXTENDED PJOB COMMAND
  2684				    ;(2) COMMAND FEATURES (THIS WORD IS FULL)
  2685				  ;*;	FTBITS<1,1,1,1,1,1,1,1,1,1,1,1,1,1,1,1,1>
  2686				FETCON:	377777,,1B19!1B23!1B24!1B26!1B27!1B29!1B30!1B31!1B32!1B33!1B34!1B35 ;(2) Command featur
  2687	021423	377777	215577	es
  2688
  2689				  ;	%FTACC==3,,71        ACCOUNTING INFO
  2690				  ;F%TIME 35 FT1    YES   RUN TIME
  2691				  ;F%KCT  34 FT1    YES   KILO-CORE-TICKS
  2692				  ;F%UNAM 33 FT1    YES   USER NAME
  2693				  ;F%CNO  32 FT1    NO    CHARGE NUMBER
  2694				  ;F%TLIM 31 FT1    YES   TIME/CORE LIMITS, ETC.
  2695				  ;F%FDAE 30 FTFDAE NO    FILE DAEMON SUPPORT
  2696				  ;F%EMRT 29 FTEMRT KL10  KL10 EBOX/MBOX USER RUNTIME CAPABILITY
  2697				  ;F%ACCT 28 FT1    YES   ACCOUNTING SUPPORT
  2698				  ;       27-19 unused as of 7.03
  2699				    ;(3) ACCOUNTING FEATURES
  2700				  ;*;	FTBITS<1,1,1,1,1,FDAE,EMRT,1>
  2701	021424	000377	000227	FETACC:	000377,,1B28!1B31!1B33!1B34!1B35	;(3) Accounting features
  2702
  2703				  ;	%FTERR==4,,71        ERROR CONTROL AND OPTIONS
COMMON - MONITOR COMMON DATA AREA AND CONFIGURATION DEFINITION - V534	MACRO 12.5-46.0 14:23 13-JAN-88 PAGE 38-3
COMMON.MAC	 7-DEC-87 14:36		Feature Test Table  (GETTAB '71)

  2704				  ;F%MEMP 35 FT1    YES   MEMORY PARITY RECOVERY CODE
  2705				  ;F%MS   34 FTMP   NO    MULTI-PROCESSORS
  2706				  ;F%EL   33 FT1    NO    DAEMON ERROR LOGGING
  2707				  ;F%2SWP 32 FT1    NO    MULT. SWAPPING DEVICES
  2708				  ;F%BOOT 31 FT1    YES   BOOTS BOOTSTRAP
  2709				  ;F%KII  30 FT1    NO    KI-10 INSTR CHECK ON KA10
  2710				  ;F%EXON 29 FT1    YES   EXECUTE ONLY FILES
  2711				  ;F%METR 28 FT0    NO    METER. UUO
  2712				  ;F%KI10 27 FT0    KI10  THIS IS A KI10
  2713				  ;F%PDBS 26 FT0    NO    SWAPPING PDB
  2714				  ;F%22BI 25 FT1    YES   22 BIT CHANNEL (DF10C)
  2715				  ;F%KA10 24 FT0    F3    THIS IS A KA10
  2716				  ;F%KL10 23 FTKL10 KS10  THIS IS A KL10
  2717				  ;F%MNXM 22 FT1    YES   NXM ERROR RECOVERY CODE
  2718				  ;F%KS10 21 FTKS10 KS10  THIS IS A KS10
  2719				  ;F%KLP  20 FT1    NO    KL10 PAGING
  2720				  ;F%SCA  19 FTSCA  NO    SYSTEMS COMMUNICATIONS ARCHITECTURE (ethernet)
  2721				    ;(4) NON I/O FEATURES NOT RELATED TO DEBUGGING (THIS WORD IS FULL)
  2722				  ;*;	FTBITS<1,MP,1,1,1,1,1,0,0,0,1,0,KL10,1,KS10,1,SCA>
  2723	021425			FETERR:				;(4) Error Recovery features
  2724				    IFCPU (KI),<177777,,1B22!1B27!1B29!1B31!1B35> ;(4) KI
  2725	021425	177777	030121	    IFCPU (KL),<177777,,1B22!1B23!1B29!1B31!1B35> ;(4) KL
  2726				    IFCPU (KS),<177777,,1B22!1B21!1B29!1B31!1B35> ;(4) KS
  2727				    IFCPU (F3),<177777,,1B22!1B24!1B29!1B31!1B35> ;(4) KA bit used for F3
  2728
  2729				  ;	%FTDEB==5,,71        DEBUGGING FEATURES
  2730				  ;F%CHEC 35 FT0    NO    MONITOR CHECKSUMMED
  2731				  ;F%MONP 34 FT0    NO    MONITOR WRITE PROTECTED
  2732				  ;F%RCHK 33 FT1    MAYBE INTERNAL REDUNDANCY CHECKS
  2733				  ;F%HALT 32 FT1    YES   HALTS IN MONITOR
  2734				  ;F%TRAC 31 FT0    NO    BACK TRACKING FEATURES
  2735				  ;F%PATT 30 FTPATT YES   PATCH SPACE IN TABLES
  2736				  ;F%WHY  29 FT1    NO !  WHY RELOAD
  2737				  ;F%RSP  28 FTRSP  NO    RESPONSE TIME
  2738				  ;F%2SEG 27 FT1    NO !  2 SEGMENT MONITOR
  2739				  ;       26-19 unused as of 7.03
  2740				    ;(5) NON I/O DEBUGGING FEATURES
  2741				  ;*;	FTBITS<0,0,1,1,0,PATT,1,RSP,1>
  2742	021426	000777	000054	FETDEB:	000777,,1B30!1B32!1B33	;(5) Debugging features
  2743
  2744				  ;	%FTSTR==6,,71        FILE STRUCTURE PARAMS
  2745				  ;F%MOUN 35 FT1    YES   STRUUO FUNCTIONS
  2746				  ;F%SFD  34 FT1    NO    SUB FILE DIRECTORIES
  2747				  ;F%PHYO 33 FT1    YES   PHYSICAL ONLY
  2748				  ;F%5UUO 32 FT1    NO !  MISC. 5-SERIES UUOS (LIB AND PATH)
  2749				  ;F%STR  31 FT1    NO !  MULTIPLE STRUCTURES
  2750				  ;F%DQTA 30 FT1    YES   DISK QUOTAS
  2751				  ;F%DSUP 29 FT1    YES   SUPER USETI/O
  2752				  ;F%DSEK 28 FT0    NO    SEEK UUO
  2753				  ;F%DRDR 27 FT1    YES   RENAME ACROSS DIRECTORIES
  2754				  ;F%GSRC 26 FT1    NO !  GENERIC DEVICE SEARCH
  2755				  ;F%AIR  25 FT1    MAYBE APPEND IMPLIES READ
  2756				  ;F%APLB 24 FTAPLB MAYBE APPEND TO LAST BLOCK
COMMON - MONITOR COMMON DATA AREA AND CONFIGURATION DEFINITION - V534	MACRO 12.5-46.0 14:23 13-JAN-88 PAGE 38-4
COMMON.MAC	 7-DEC-87 14:36		Feature Test Table  (GETTAB '71)

  2757				  ;F%DPRI 23 FTDPRI NO    DISK PRIORITY TRANSFERS
  2758				  ;F%LIB  22 FT1    NO !  LIB/SYS/OLD/NEW ETC.
  2759				  ;F%NUL  21 FT1    NO !  NUL
  2760				  ;F%DSIM 20 FT1    OTHER MULTI. ACCESS UPDATE
  2761				  ;F%DHIA 19 FT1    MAYBE HIGH AVAIL. FEATURES
  2762				    ;(6) DISK UUO FEATURES (THIS WORD IS FULL)
  2763				  ;*;	FTBITS<1,1,1,1,1,1,1,0,1,1,1,APLB,DPRI,1,1,1,1>
  2764	021427	377777	100545	FETSTR:	377777,,1B20!1B27!1B29!1B30!1B33!1B35	;(6) File structure features
  2765
  2766				  ;	%FTDSK==7,,71        INTERNAL DISK PARAMS
  2767				  ;F%DOPT 35 FT1    YES   LATENCY OPTIMIZATION
  2768				  ;F%DBAD 34 FT1    YES   DISK OFF-LINE RECOVERY
  2769				  ;F%DHNG 33 FT1    YES   HUNG DISK RECOVERY
  2770				  ;F%DSTT 32 FT1    YES   DISK USAGE STATISTICS
  2771				  ;F%DALC 31 FT1    NO    ALLOCATION OPTIMISATIONS
  2772				  ;F%DSMC 30 FT1    NO    SMALLER ALLOC. OF DISK CORE BLOCKS
  2773				  ;F%DMRB 29 FT1    YES   MULTI RIBS
  2774				  ;F%DETS 28 FT1    NO    DISK ERROR SIMULATOR
  2775				  ;F%DUFC 27 FTDUFC NO    UFD COMPRESSOR
  2776				  ;F%DBBK 26 FT1    BUG?? BAD BLOCK MARKING
  2777				  ;F%SWPE 25 FT1    NO    SWAP READ ERROR RECOVERY
  2778				  ;F%FFRE 24 FT0    NO    PREVENT RACES IN FILFND
  2779				  ;F%DISK 23 FT1    YES   DISK SYSTEM
  2780				  ;F%LOGI 22 FT1    YES   LOGIN
  2781				  ;F%CBDB 21 FTCBDB MAYBE DEBUG CB INTERLOCK
  2782				  ;F%2ATB 20 FT0    NO    2 PART ACCESS BLOCKS
  2783				  ;F%SLCK 19 FT0    NO    DEBUG SEARCH LIST CODE
  2784				    ;(7) DISK "INVISIBLE" FEATURES (THIS WORD IS FULL)
  2785				  ;*;	FTBITS<1,1,1,1,1,1,1,1,DUFC,1,1,0,1,1,CBDB,0,0>
  2786	021430	377777	030117	FETDSK:	377777,,1B22!1B23!1B29!1B32!1B33!1B34!1B35	;(7) Internal disk features
  2787
  2788				  ;	%FTSCN==10,,71        SCANNER OPTIONS
  2789				  ;F%HDPX 35 FT0    YES   TRULY HALF DUPLEX TERMINALS
  2790				  ;F%GPO2 34 FT0    NO    U.K. MODEM SUPPORT
  2791				  ;F%630H 33 FT0    NO    SINGLE SCANNER 630
  2792				  ;F%MODM 32 FT1    YES   MODEM CONTROL
  2793				  ;F%SCNR 31 FT1    YES   HARDWARE SCANNER
  2794				  ;F%SCLC 30 FT0    NO    SPECIAL LINE CONTROL
  2795				  ;F%DIAL 29 FT1    NO    AUTO DIALER
  2796				  ;F%TPAG 28 FT1    YES   PAGE AND DISPLAY KNOWLEDGE (^S/^Q BS-SP-BS)
  2797				  ;F%TBLK 27 FT1    NO !  TTY BLANK COMMAND
  2798				  ;F%CAFE 26 FT1    NO    DC76
  2799				  ;F%2741 25 FT0    YES   SUPPORT 2741-LIKE TERMINALS
  2800				  ;F%TYPE 24 FT0    NO    TYPESET-10 FEATURES IN DC76
  2801				  ;F%TVP  23 FT1    NO !  FANCY VERTICAL POSITIONING
  2802				  ;F%DCXH 22 FT1    NO    DC10-H (2741 ON DC10) SUPPORTED
  2803				  ;F%RDX  21 FTRDX  NO    REMOTE DATA ENTRY SERVICE
  2804				  ;F%RP04 20 FT1    KS10  INCLUDE RP04 & RP06 SUPPORT
  2805				  ;       19 unused as of 7.03
  2806				    ;(10) SCANNER, RP04 FEATURES
  2807				  ;*;	FTBITS<0,0,0,1,1,0,1,1,1,1,0,0,1,1,RDX,1>
  2808	021431	177777	002231	FETSCN:	177777,,1B25!1B28!1B31!1B32!1B35	;(10) Scanner features
  2809
COMMON - MONITOR COMMON DATA AREA AND CONFIGURATION DEFINITION - V534	MACRO 12.5-46.0 14:23 13-JAN-88 PAGE 38-5
COMMON.MAC	 7-DEC-87 14:36		Feature Test Table  (GETTAB '71)

  2810				  ;	%FTPER==11,,71        I/O PARAMS
  2811				  ;F%TMP  35 FT1    YES   TMPCOR AREA
  2812				  ;F%MTSE 34 FT1    NO !  MTA DENSITY/BLOCK COMMANDS
  2813				  ;F%CDRS 33 FT1    NO    CDR SUPER IMAGE MODE
  2814				  ;F%OPRE 32 FT1    YES   DEVICE ERRS TO OPER
  2815				  ;F%LPTR 31 FT1    YES   LPT DEVICE ERROR RECOVERY
  2816				  ;F%NET  30 FTNET  OTHER NETWORK SOFTWARE, REMOTE ANF10 STATIONS
  2817				  ;F%CTY1 29 FT1    NO !  SUPPORT CTY1 ON DUAL-SMP
  2818				  ;F%CRTR 28 FT1    NO    CDR TROUBLE INTERCEPT
  2819				  ;F%CPTR 27 FT1    NO    CDP TROUBLE INTERCEPT
  2820				  ;F%HSLN 26 FT1    NO !  HIGH-SPEED LOGICAL DEVICE SEARCH
  2821				  ;F%MSGS 25 FTMSGS NO    MSGSER (MPX DEVICE)
  2822				  ;F%XTC  24 FTXTC  NO    DA28-C NETWORK SUPPORT
  2823				  ;F%DAS7 23 FTDN60 NO    DAS78 (REMOTE 360/370/2780) SUPPORT
  2824				  ;F%TASK 22 FTTSK  OTHER TASK TO TASK NETWORK SUPPORT
  2825				  ;F%TLAB 21 FTTLAB NO    TAPE LABEL SUPPORT
  2826				  ;F%TAPO 20 FT1    NO !  TAPOP. UUO
  2827				  ;F%RDBA 19 FT1    NO    READ BACKWARDS ON TU70
  2828				    ;(11) OTHER PERIPHERALS (THIS WORD IS FULL)
  2829				  ;*;	FTBITS<1,1,1,1,1,NET,1,1,1,1,MSGS,XTC,DN60,TSK,TLAB,1,1>
  2830	021432	377777	000031	FETPER:	377777,,1B31!1B32!1B35	;(11) I/O features
  2831
  2832				  ;	%FTPE2==12,,71        I/O PARAMS (SECOND WORD)
  2833				  ;F%DX10 35 FTDX10 YES   DX10 DEVICE - CHAINING (MAGTAPES)
  2834				  ;       34-19 unused as of 7.03
  2835				    ;(12) OTHER PERIPERALS (SECOND WORD)
  2836				  ;*;	FTBITS<DX10>
  2837	021433	000001	000000	FETPE2:	1,,0			;(12) More I/O features
  2838
  2839				  ;	%FTDS2==13,,71        INTERNAL DISK PARAMS
  2840				  ;F%DUAL 35 FTDUAL NO    DUAL-PORTED DISKS (RP04,RP06)
  2841				  ;       34-19 unused as of 7.03
  2842				    ;(13) DISK "INVISIBLE" FEATURES (SECOND WORD)
  2843				  ;*;	FTBITS<DUAL>
  2844	021434	000001	000000	FETDS2:	1,,0			;(13) More Internal Disk features
  2845
  2846				  ;	%FTST2==14,,71        FILE STRUCTURE PARAMS
  2847				  ;F%PSTR 35 FTPSTR NO    PRIVATE FILE STRUCTURE
  2848				  ;F%SETS 34 FTSETS NO !  DON'T MOUNT CERTAIN DISKS AT ONCE-ONLY
  2849				  ;       33-19 unused as of 7.03
  2850				    ;(14) DISK UUO FEATURES (SECOND WORD)
  2851				  ;*;	FTBITS<PSTR,SETS>
  2852	021435	000003	000000	FETST2:	3,,0			;(14) More File Structure features
  2853
  2854				  ;	%FTUU2==15,,71        UUOS
  2855				  ;F%MPB  35 FTMPB  NO    OLD VBATCH CODE
  2856				  ;       34-19 unused as of 7.03
  2857				    ;(15) LIST OF MONITOR NON-I/O FEATURES WHICH DIRECTLY IMPACT CUSPS (SECOND WORD)
  2858				  ;*;	FTBITS <MPB>
  2859	021436	000001	000000	FETUU2:	1,,0			;(15) More Monitor Call features
  2860
  2861			000016	FETLEN==.-FETTBL		; Table length
  2862			015000	FETMXL==:<FETLEN-1>_^D9		; Length-1 for GETTABs
COMMON - MONITOR COMMON DATA AREA AND CONFIGURATION DEFINITION - V534	MACRO 12.5-46.0 14:23 13-JAN-88 PAGE 39
COMMON.MAC	 7-DEC-87 14:36		Start of STOPCD data (see DIE:: in ERRCON)

  2863				SUBTTL	Start of STOPCD data (see DIE:: in ERRCON)
  2864
  2865				;Data base to limit the number of STOPCD's per unit time so that we don't keep
  2866				;getting "continuable" STOPCD's that really aren't.  The data base consists of
  2867				;two tables, SCCTAB and SCLTAB.  SCCTAB is the count of the number of STOPCD's
  2868				;processed during the period indicated by the offset to it in the table.  SCLTAB
  2869				;contains, in the left half, the period for this entry and, in the right half,
  2870				;the limit of the number of STOPCD's during the period.  Both tables must be
  2871				;ordered such that the period of each entry is monotonically increasing.  The
  2872				;limits of each period are changable via the MONGEN dialog and may be changed
  2873				;by the customer.  When a STOPCD is processed by DIE, STCLIM increments the
  2874				;counts of STOPCD's for each entry and compares each with the limit for the
  2875				;entry.  If a limit has been exceeded, DIE turns the continuable STOPCD into a
  2876				;"stop" STOPCD.  If no limit has been exceeded, STCLIM puts in a clock request
  2877				;to call DECSCC after the period of the lowest entry in the table.  DECSCC
  2878				;decrements the count of STOPCD's for this entry and puts in a clock request to
  2879				;decrement the next higher count.  This continues until all have been
  2880				;decremented.  Note, that since the clock queue is used to decrement STOPCD
  2881				;counts, the period of the largest entry cannot be larger than 2**18-1 ticks.
  2882
  2883	021437	000000	000000	SCCTAB::EXP	0		;Number of stopcodes in the last 60 seconds
  2884	021440	000000	000000		EXP	0		;Number of stopcodes in the last  8 minutes
  2885	021441	000000	000000		EXP	0		;Number of stopcodes in the last 60 minutes
  2886			000003	SCCTBL==:.-SCCTAB		;LENGTH OF TABLE
  2887
  2888			000002	ND LIM1MS,2	;Default values, can be overridden by MONGEN
  2889			000004	ND LIM8MS,4
  2890			000010	ND LIM1HS,8
  2891
  2892	021442	000074	000002	SCLTAB::XWD	^D60,  LIM1MS	;Period = 1 minute,  Limit = LIM1MS = 2
  2893	021443	000740	000004		XWD	^D480, LIM8MS	;Period = 8 minutes, Limit = LIM8MS = 4
  2894	021444	007020	000010		XWD	^D3600,LIM1HS	;Period = 1 hour,    Limit = LIM1HS = 8
  2895
  2896	021445	112773	000000	GMTUDT::^D<30-17+31+1<<1964-1859>*365>+<<1964-1859>/4>-1>,,0 ;112773,,0
  2897							;Number of days since 17-NOV-1858 and 1-JAN-1964
  2898
  2899				  ;Disk flags
  2900	021446	000000	000001	CONTIG:: 1		;Nonzero to make files contiguous
  2901	021447	000000	000000	DINITF:: 0		;Nonzero during disk initialization (ONCE)
  2902
  2903				  ;Data for STOPCD processor (see DIE:: in ERRCON)
  2904	021450	000000	000000	DIECDB:: 0		;Physical address of CPU Data Block of crashing CPU
  2905	021451	000000	000000	EPTSTS:: 0		;EPT status
  2906	021452	000000	000000	UPTSTX:: 0		;UPT status
  2907
  2908		436263	436071	CCPNAM==:'CRSCPY'	;Name of program to run to copy crash
  2909
  2910				IFCPU (KL),<
  2911	021453			SKPMRN::	;Routine to skip if master PDP-11 is running on KL
  2912	021453	254000	023266		JRST	CPOPJ1
  2913	021454	260040	000000*	CSDMP::	CSHUNL	;Routine to do a cache sweep on a KL
  2914	021455	263040	000000		POPJ	P,
  2915				>  ;End of IFCPU KL
COMMON - MONITOR COMMON DATA AREA AND CONFIGURATION DEFINITION - V534	MACRO 12.5-46.0 14:23 13-JAN-88 PAGE 40
COMMON.MAC	 7-DEC-87 14:36		SYSTBL - System wide error data, GETTAB table .GTSYS=51

  2916				SUBTTL	SYSTBL - System wide error data, GETTAB table .GTSYS=51
  2917
  2918	021456			SYSTBL::!
  2919	021456	000000	000000	%SYERR:: 0		;(00) System wide error count
  2920	021457			%SYCCO::
  2921	021457	000000	000000	CMNOTF:: 0		;(01) Number of times COMCNT was wrong
  2922	021460	000000	000000	%SYDEL:: 0		;(02) Count of errors when error logging was disabled
  2923	021461	000000	000000	%SYSPC:: 0		;(03) EXEC PC of most recent stopcode
  2924	021462	000000	000000	%SYNDS:: 0		;(04) Number of DEBUG stopcodes
  2925	021463	000000	000000	%SYNJS:: 0		;(05) Number of JOB stopcodes
  2926	021464			%SYNCP::
  2927	021464	000000	000000	COMTOT:: 0		;(06) Number of commands processed
  2928	021465	000000	000000	%SYSJN:: 0		;(07) Job that caused most recent stopcode
  2929	021466	000000	000000	%SYSTN:: 0		;(10) TTY name belong to user at most recent stopcode
  2930	021467	000000	000000	%SYSPN:: 0		;(11) Program name running at most recent stopcode
  2931	021470	000000	000000	%SYSUU:: 0		;(12) UUO in progress at most recent stopcode
  2932	021471	000000	000000	%SYSUP:: 0		;(13) PC of UUO at most recent stopcode
  2933	021472	000000	000000	%SYSPP:: 0		;(14) PPN of user running at most recent stopcode
  2934	021473	000000	000000	%SYSPD:: 0		;Program directory
  2935	021474	000000	000000	%SYSCP:: 0		;Number of CPU that got most recent stopcode
  2936	021475	000000	000000	%SYSNM:: 0		;Name of most recent stopcode
  2937	021476	000000	000000	%SYSTY:: 0		;Type of most recent stopcode
  2938	021477	000000	000000	%SYSDT:: 0		;Date/time of most recent stopcode
  2939	021500	000000	000000	%SYNCS:: 0		;Number of continued CPU stopcodes
  2940	021501	000000	000000	%SYNIS:: 0		;Number of INFO/EVENT stopcodes
  2941			023000	SYSMXL==:<.-SYSTBL-1>B26
  2942
  2943	021502	000000	000000	DSKBAD:: 0		;Number of INFO/JOB stopcodes that set SLOCRS
  2944
  2945				SUBTTL	GTBWHY - Operator Reload Comments, GETTAB table .GTWHY=52
  2946				;In a running monitor, this table contains the comment the Operator gave when
  2947				;reloading the system, such as "Base crash - had to reload KL".
  2948				;In a crash dump, this table has the ACs in use at the time of a STOPCD.
  2949
  2950	021503			CRSHAC:: BLOCK	20	;Operators answer to "Why reload" question in ASCIZ
  2951	021523			PREVAC:: BLOCK	20	;Previous context ACs
  2952			037000	WHYMXL==:<.-CRSHAC-1>B26
  2953
  2954	021543			.CPCAC:: BLOCK 20	;Contents of AC block 0
  2955			021543	.CPCA0=.CPCAC
  2956	021563			.CPCA1::		;This block is not contiguous with .CPCAC in TOPS-10
  2957				IFCPU (F3),<BLOCK 20*3>	;AC blocks 1,2,3
  2958				IFCPU (KI),<BLOCK 20*3>	;AC blocks 1,2,3
  2959	021563			IFCPU (KL),<BLOCK 20*5>	;AC blocks 1,2,3,4,5 (6 and 7 are special in microcode)
  2960				IFCPU (KS),<BLOCK 20*5>	;AC blocks 1,2,3,4,5
COMMON - MONITOR COMMON DATA AREA AND CONFIGURATION DEFINITION - V534	MACRO 12.5-46.0 14:23 13-JAN-88 PAGE 41
COMMON.MAC	 7-DEC-87 14:36		SVSETS - Save all AC sets, call via JSR .CPSVA

  2961				SUBTTL	SVSETS - Save all AC sets, call via JSR .CPSVA
  2962
  2963				;Routine to save all AC sets in .CPAC0, .CPAC1, etc.  Returns with
  2964				;all ACs preserved and the following locations set up:
  2965				;
  2966				;	.CPCPG - Argument to DATAO PAG, to restore current AC set
  2967				;	.CPACA - Address of saved values for current AC set.
  2968				;
  2969				;Call:
  2970				;		JSR	.CPSVA
  2971				;		 return here always
  2972
  2973	021703	701040	022303	SVSETS:	DATAI	PAG,.CPCPG	;Save current state of AC blocks
  2974				IFNCPU(KI),<
  2975	021704	701140	025006		WRUBR	[LG.LAB+1B8]	;Save AC set 1
  2976	021705	202740	021602		MOVEM	17,.CPCA1+17
  2977	021706	201740	021563		MOVEI	17,.CPCA1+00
  2978	021707	251740	021601		BLT	17,.CPCA1+16
  2979	021710	200740	021602		MOVE	17,.CPCA1+17
  2980	021711	701140	025007		WRUBR	[LG.LAB+2B8]	;Save AC set 2
  2981	021712	202740	021622		MOVEM	17,.CPCA1+37
  2982	021713	201740	021603		MOVEI	17,.CPCA1+20
  2983	021714	251740	021621		BLT	17,.CPCA1+36
  2984	021715	200740	021622		MOVE	17,.CPCA1+37
  2985	021716	701140	025010		WRUBR	[LG.LAB+3B8]	;Save AC set 3
  2986	021717	202740	021642		MOVEM	17,.CPCA1+57
  2987	021720	201740	021623		MOVEI	17,.CPCA1+40
  2988	021721	251740	021641		BLT	17,.CPCA1+56
  2989	021722	200740	021642		MOVE	17,.CPCA1+57
  2990				IFG <NUMACB-4>,< ;F3 has only 0-3
  2991	021723	701140	025011		WRUBR	[LG.LAB+4B8]	;Save AC set 4
  2992	021724	202740	021662		MOVEM	17,.CPCA1+77
  2993	021725	201740	021643		MOVEI	17,.CPCA1+60
  2994	021726	251740	021661		BLT	17,.CPCA1+76
  2995	021727	200740	021662		MOVE	17,.CPCA1+77
  2996				>  ;End IFGE NUMACB-4
  2997				IFG <NUMACB-5>,< ;F3 has only 0-3
  2998	021730	701140	025012		WRUBR	[LG.LAB+5B8]	;Save AC set 5
  2999	021731	202740	021702		MOVEM	17,.CPCA1+117
  3000	021732	201740	021663		MOVEI	17,.CPCA1+100
  3001	021733	251740	021701		BLT	17,.CPCA1+116
  3002	021734	200740	021702		MOVE	17,.CPCA1+117
  3003				>  ;End IFGE NUMACB-5
  3004	021735	701140	025013		WRUBR	[LG.LAB+0B8]	;And leave AC set 0 as the current one
  3005	021736	202740	021562		MOVEM	17,.CPCA0+17
  3006	021737	201740	021543		MOVEI	17,.CPCA0+00
  3007	021740	251740	021561		BLT	17,.CPCA0+16
  3008	021741	135740	025014		LDB	17,[POINT 3,.CPCPG,8] ;Get number of current AC set
  3009	021742	326740	021745		JUMPN	17,SVSET1	;Go if not AC set 0
  3010	021743	201740	021543		MOVEI	17,.CPCA0	;AC set 0 might not be at .CPCA1-20
  3011	021744	254000	021747		JRST	SVSET2
  3012	021745	221740	000020	SVSET1:	IMULI	17,20		;Compute offset into .CPCA1 of this set
  3013	021746	271740	021543		ADDI	17,.CPCA1-20	;Compute address of this nonzero set
COMMON - MONITOR COMMON DATA AREA AND CONFIGURATION DEFINITION - V534	MACRO 12.5-46.0 14:23 13-JAN-88 PAGE 41-2
COMMON.MAC	 7-DEC-87 14:36		SVSETS - Save all AC sets, call via JSR .CPSVA

  3014	021747	202740	022634	SVSET2:	MOVEM	17,.CPACA	;Set address of active AC set
  3015				>  ;End IFNCPU(KI)
  3016				  PAGE
COMMON - MONITOR COMMON DATA AREA AND CONFIGURATION DEFINITION - V534	MACRO 12.5-46.0 14:23 13-JAN-88 PAGE 42
COMMON.MAC	 7-DEC-87 14:36		SVSETS - Save all AC sets, call via JSR .CPSVA

  3017				IFCPU (KI),<	;EXEC mode always uses AC block 0
  3018				IFN IG.LLH-400000,<PRINTX ?IG.LLH definition changed>
  3019					MOVEM	17,.CPCA0+17	;Save AC 17 of block 0
  3020					MOVEI	17,.CPCA0	;Place to store rest of AC's
  3021					BLT	17,.CPCA0+16	;Save the rest
  3022					JRSTF	@[PC.UIO,,.+1]	;Make XCTFU work
  3023					DATAO	PAG,[<IG.LLH,,0>!1B2]  ;Make AC set 1 be the user set
  3024					MOVEI	17,.CPCA1+00
  3025					XCTFU	<BLT 17,.CPCA1+17>;Save AC block 1
  3026					DATAO	PAG,[<IG.LLH,,0>!2B2]  ;Make AC set 2 be the user set
  3027					MOVEI	17,.CPCA1+20
  3028					XCTFU	<BLT 17,.CPCA1+37>;Save AC block 2
  3029					DATAO	PAG,[<IG.LLH,,0>!3B2]  ;Make AC set 3 be the user set
  3030					MOVEI	17,.CPCA1+40
  3031					XCTFU	<BLT 17,.CPCA1+57>;Save AC block 3
  3032					MOVE	17,[IG.LLH,,IG.LRH];Get Load Left and Load Right bits
  3033					IORM	17,.CPCPG	;Set for restore
  3034					MOVEI	17,.CPCA0	;Address of saved AC block
  3035					MOVEM	17,.CPACA	;Set address of active AC set
  3036				>  ;End IFCPU (KI)
  3037
  3038				;Save important stuff where CRSHID can find it
  3039	021750	200740	000030		MOVE	17,CRSHWD
  3040	021751	202740	022665		MOVEM	17,SAV30	;Save contents of location 30
  3041	021752	200740	025015		MOVE	17,[BASEDB,,BASAVE]
  3042	021753	251740	000207		BLT	17,BASAVE+BASEDL-1 ;Save IRING/ORING pointers in 170-207
  3043	021754	200740	025016		MOVE	17,[IRING,,IRINGX]
  3044	021755	251740	006230		BLT	17,IRINGX+<1_SIZIRG>-1;Save a snapshot of the IRING and ORING
  3045	021756	200740	025017		MOVE	17,[ORING,,ORINGX]
  3046	021757	251740	006630		BLT	17,ORINGX+<1_SIZORG>-1
  3047	021760	201740	140620		MOVEI	17,IRINGX_4	;Update pointer to copy of IRING
  3048	021761	202740	000173		MOVEM	17,BASAVE+IRINGA-BASEDB
  3049	021762	201740	144620		MOVEI	17,ORINGX_4	;Update pointer to copy of ORING
  3050	021763	202740	000177		MOVEM	17,BASAVE+ORINGA-BASEDB
  3051	021764	200740	021562		MOVE	17,.CPCA0+17	;Restore AC 17 of set 0
  3052	021765	701140	022303		DATAO	PAG,.CPCPG	;Restore current AC set
  3053	021766	254120	022632		JRSTF	@.CPSVA		;Return to caller
COMMON - MONITOR COMMON DATA AREA AND CONFIGURATION DEFINITION - V534	MACRO 12.5-46.0 14:23 13-JAN-88 PAGE 43
COMMON.MAC	 7-DEC-87 14:36		RCDSTB and CPUSTS - Save CPU status

  3054				SUBTTL	RCDSTB and CPUSTS - Save CPU status
  3055
  3056				;ROUTINE TO RECORD THE CPU AND DEVICE STATUS BLOCKS.
  3057				;CALL:	PUSHJ	P,RCDSTB
  3058				;	RETURN
  3059
  3060	021767	260040	021772	RCDSTB::PUSHJ	P,CPUSTS	;READ CPU STATUS BLOCK
  3061	021770	260040	022127		PUSHJ	P,DVCSTS	;READ DEVICE STATUS BLOCK
  3062			000000	  ftdaem==0
  3063				IFN FTDAEM,<
  3064					MOVEI	T1,.ERCSB	;CPU STATUS BLOCK ERROR CODE
  3065					HRL	T1,.CPSLF	;CDB ADDRESS TO LH
  3066					PUSHJ	P,DAEDIE##	;STORE ENTRY FOR DAEMON
  3067					MOVEI	T1,.ERDSB	;DEVICE STATUS BLOCK ERROR CODE
  3068					HRL	T1,.CPSLF	;CDB ADDRESS TO LH
  3069					PUSHJ	P,DAEDIE##	;STORE ENTRY
  3070				>;END IFN FTDAEM
  3071	021771			IFE FTDAEM,<DAEEST::>
  3072	021771	263040	000000		POPJ	P,		;RETURN
  3073
  3074				;SUBROUTINE TO STORE INFORMATION IN THE CPU STATUS BLOCK
  3075
  3076	021772			CPUSTS::	;Taken from DEC's COMMON.702
  3077	021772	700000	022324	IFNCPU(KI),<APRID .CPAPD	;(0) APRID >
  3078				IFCPU (KI),<CONI  PAG,T1	;(0) APR SERIAL NUMBER
  3079					    LSH   T1,-^D26	;Only the serial number
  3080					    MOVEM T1,.CPAPD  >
  3081	021773	700240	022325		CONI	APR,.CPACN	;(1) CONI APR,
  3082	021774	700640	022326		CONI	PI,.CPPIC	;(2) CONI PI,
  3083	021775	701040	022327		DATAI	PAG,.CPPGD	;(3) DATAI PAG,
  3084	021776	701240	022330		CONI	PAG,.CPPGC	;(4) CONI PAG,
  3085				IFCPU (KI),<HLRZ T1,.CPPGD	;Get UBR
  3086					    HRRZ T2,.CPPGD	;Get EBR >
  3087	021777	550300	022327	IFNCPU(KI),<HRRZ T1,.CPPGD	;Get UBR
  3088	022000	550340	022330		    HRRZ T2,.CPPGC	;Get EBR >
  3089	022001	202300	021452		MOVEM	T1,UPTSTX	;Store for FILDDT
  3090	022002	202340	021451		MOVEM	T2,EPTSTS	;           "
  3091	022003	405300	017777		ANDI	T1,17777	;Just the UBR
  3092	022004	242300	000011		LSH	T1,^D9		;Address of UPT
  3093	022005	311300	007165		CAML	T1,MEMSIZ	;Within physical memory?
  3094	022006	661300	400000		 TLO	T1,(1B0)	;No, flag it as being unreliable
  3095	022007	202300	022537		MOVEM	T1,.CPUPT	;Store physical address of UPT in the CDB
  3096	022010	200300	025020		MOVE	T1,[%UPT+424,,.CPUP0] ;(5) UPT LOCS 424-427
  3097	022011	331000	022537		SKIPL	.CPUPT		;Don't try to access funnyspace if bad UBR
  3098	022012	251300	022334		 BLT	T1,.CPUP0+3	;(5-10)
  3099				IFCPU(KL),<
  3100			000200		DTE0==200	;Data Ten/Eleven interface (DTE0=console front end)
  3101			000204		DTE1==204
  3102			000210		DTE2==210
  3103			000214		DTE3==214
  3104			000540		RH20==540	;RH20 Massbus controller - Disk and Tape on KL
  3105			000544		RH21==544	; (RP04/RP05/RP06 disks)
  3106			000550		RH22==550	; (DX20 with TU70/TU71/TU72 tape drives)
COMMON - MONITOR COMMON DATA AREA AND CONFIGURATION DEFINITION - V534	MACRO 12.5-46.0 14:23 13-JAN-88 PAGE 43-2
COMMON.MAC	 7-DEC-87 14:36		RCDSTB and CPUSTS - Save CPU status

  3107			000554		RH23==554	; (DX20 with RP20 fixed disk)
  3108			000560		RH24==560
  3109			000564		RH25==564
  3110			000570		RH26==570
  3111			000574		RH27==574
  3112			000024		MTR== 024	;Meter
  3113			000020		TIM== 020	;Timer
  3114
  3115	022013	700400	022335		RDERA	.CPERA		;(11) RDERA
  3116	022014	754240	022336		CONI	RH20,.CPRHC+0	;(12) CONI RH20, FOR ALL 8 RH'S
  3117	022015	754640	022337		CONI	RH21,.CPRHC+1
  3118	022016	755240	022340		CONI	RH22,.CPRHC+2
  3119	022017	755640	022341		CONI	RH23,.CPRHC+3
  3120	022020	756240	022342		CONI	RH24,.CPRHC+4
  3121	022021	756640	022343		CONI	RH25,.CPRHC+5
  3122	022022	757240	022344		CONI	RH26,.CPRHC+6
  3123	022023	757640	022345		CONI	RH27,.CPRHC+7
  3124	022024	720240	022346		CONI	DTE0,.CPDTC+0	;(22) CONI DTEn
  3125	022025	720640	022347		CONI	DTE1,.CPDTC+1
  3126	022026	721240	022350		CONI	DTE2,.CPDTC+2
  3127	022027	721640	022351		CONI	DTE3,.CPDTC+3
  3128	022030	514300	022540		HRLZ	T1,.CPEPT	;(26) EPT LOCS 0-37 (RH20 LOGOUT AREAS)
  3129	022031	541300	022352		HRRI	T1,.CPEP0
  3130	022032	251300	022411		BLT	T1,.CPEP0+37	;(26-65)
  3131	022033	200300	022540		MOVE	T1,.CPEPT	;(66) EPT LOCS 140-177  (DTE CONTROL BLOCKS)
  3132	022034	505306	000140		HRLI	T1,140(T1)
  3133	022035	541300	022412		HRRI	T1,.CPEP1
  3134	022036	251300	022451		BLT	T1,.CPEP1+37	;(66-125)
  3135				>  ;END IFCPU(KL)
  3136				IFNCPU(KI),<
  3137	022037	200300	025021		MOVE	T1,[%UPT+500,,.CPUP1] ;(126) UPT LOCS 500-503  (PAGE FAIL)
  3138	022040	331000	022537		SKIPL	.CPUPT		;Don't try to access funnyspace if bad UBR
  3139	022041	251300	022455		 BLT	T1,.CPUP1+3
  3140				>  ;END IFNCPU(KI)
  3141				IFCPU(<KL,KS>),<;F3 does not have AC blocks 4-7
  3142	022042	701140	025022		WRUBR	[LG.LAB+6B8]	;(132) AC BLOCK 6, REGS 0-3 AND 12
  3143	022043	202000	022456		MOVEM	0,.CP6
  3144	022044	202040	022457		MOVEM	1,.CP6+1
  3145	022045	202100	022460		MOVEM	2,.CP6+2
  3146	022046	202140	022461		MOVEM	3,.CP6+3
  3147	022047	202500	022462		MOVEM	12,.CP6+4
  3148	022050	701140	025023		WRUBR	[LG.LAB+7B8]	;(136) AC BLOCK 7, REGS 0-2
  3149	022051	202000	022463		MOVEM	0,.CP7
  3150	022052	202040	022464		MOVEM	1,.CP7+1
  3151	022053	202100	022465		MOVEM	2,.CP7+2
  3152	022054	701140	022327		DATAO	PAG,.CPPGD	;RESTORE ORIGIONAL AC BLOCK
  3153				>;END IFCPU(KL,KS)
  3154	022055	260040	022071	IFCPU(KL),<PUSHJ P,REDSBC>	;READ SBDIAG INFO
  3155	022056	201300	000001		MOVEI	T1,SR.CSB	;SET FLAG TO INDICATE CPU
  3156	022057	436300	022536		IORM	T1,.CPSBR	;STATUS BLOCK READ ON THIS CPU
  3157	022060	263040	000000		POPJ	P,
COMMON - MONITOR COMMON DATA AREA AND CONFIGURATION DEFINITION - V534	MACRO 12.5-46.0 14:23 13-JAN-88 PAGE 44
COMMON.MAC	 7-DEC-87 14:36		S-BUS diagnostic routines

  3158				SUBTTL	S-BUS diagnostic routines
  3159				IFCPU(KL),<;ROUTINE TO CLEAR SBUS ERRORS IN EACH MEMORY CONTROLLER.  RETURNS
  3160					   ;CPOPJ ALWAYS AND PRESERVES ALL AC'S.
  3161
  3162	022061	265440	023361	CLRSBD::JSP	T4,SAVE4	;SAVE P1-P4 ;*NOTE*: Not PUSHJ P,SAVE4 !
  3163	022062	205600	777757		MOVSI	P1,-.SBNMC	;MAKE AOBJN POINTER TO ALL MEM CONTROLLERS
  3164	022063	205640	010000		MOVSI	P2,SB.CLR	;BIT TO CLEAR ALL ERRORS
  3165	022064	137600	025024	CLRSB1:	DPB	P1,[POINT 5,P2,4] ;STORE MEMORY CONTROLLER NUMBER
  3166	022065	700500	000015		SBDIAG	P2		;CLEAR THE ERROR BITS
  3167	022066	253600	022064		AOBJN	P1,CLRSB1	;LOOP FOR ALL CONTROLLERS
  3168	022067	263040	000000		POPJ	P,		;RETURN
  3169
  3170				;ROUTINES TO PERFORM SBDIAG FUNCTIONS 0 AND 1 FOR EACH MEMORY CONTROLLER.
  3171				;CALL REDSBD TO JUST READ THE DATA.  CALL REDSBC TO READ THE DATA AND
  3172				;CLEAR THE ERRORS.  THE FORMAT OF THE SBDIAG STATUS BLOCK IS AS FOLLOWS:
  3173				;	WORD 0: -NUMBER OF DATA BLOCKS,,OFFSET TO FIRST BLOCK
  3174				;EACH DATA BLOCK HAS THE FOLLOWING FORMAT:
  3175				;	WORD 0: -NUMBER OF WORDS FOLLOWING,,CONTROLLER NUMBER
  3176				;	WORD 1: SBDIAG FUNCTION 0 FROM-MEMORY WORD
  3177				;	WORD 2: SBDIAG FUNCTION 1 FROM-MEMORY WORD
  3178				;DESTROYS T1, PRESERVES ALL OTHERS
  3179
  3180	022070	634300	000006	REDSBD::TDZA	T1,T1		;CLEAR T1 AND SKIP
  3181	022071	205300	010000	REDSBC::MOVSI	T1,SB.CLR	;BIT TO CLEAR ERRORS
  3182	022072	265440	023361		JSP	T4,SAVE4	;SAVE P1-P4 ;*NOTE*: Not PUSHJ P,SAVE4 !
  3183	022073	402000	022466		SETZM	.CPSBD		;CLEAR FIRST WORD OF BLOCK FOR COUNT
  3184	022074	205600	777757		MOVSI	P1,-.SBNMC	;AOBJN POINTER TO MEMORY CONTROLLERS
  3185	022075	201640	022467		MOVEI	P2,.CPSBD+1	;START FIRST BLOCK HERE
  3186	022076	505640	777776		HRLI	P2,-.SBFNC	;-FUNCTIONS TO LH
  3187	022077	201700	000000	REDSB1:	MOVEI	P3,0		;SET TO BUILD TO-MEMORY WORD
  3188	022100	137600	025025		DPB	P1,[POINT 5,P3,4] ;STORE MEMORY CONTROLLER
  3189	022101	700500	000016		SBDIAG	P3		;DO FUNCTION 0
  3190	022102	261040	000017		PUSH	P,P4		;SAVE FUNCTION 0 FROM-MEMORY WORD
  3191	022103	322300	022106		JUMPE	T1,REDSB2	;AVOID 2ND SBDIAG IF NOT CLEARING CONTROLLER
  3192	022104	434700	000006		IOR	P3,T1		;SET SB.CLR
  3193	022105	700500	000016		SBDIAG	P3		;DO FUNCTION 0 TO CLEAR CONTROLLER
  3194	022106	660700	000001	REDSB2:	TRO	P3,1		;MAKE IT FUNCTION 1
  3195	022107	700500	000016		SBDIAG	P3		;DO FUNCTION 1
  3196	022110	262040	000016		POP	P,P3		;RESTORE FUNCTION 0 FROM-MEMORY WORD
  3197	022111	336000	000016		SKIPN	P3		;ANYTHING THERE?
  3198	022112	322740	022121		 JUMPE	P4,REDSB3	;NO, NO MEMORY CONTROLLER IF BOTH ZERO
  3199	022113	202715	000001		MOVEM	P3,1(P2)	;SAVE FUNCTION 0 WORD IN THE BLOCK
  3200	022114	202755	000002		MOVEM	P4,2(P2)	;  ALONG WITH FUNCTION 1 WORD
  3201	022115	552615	000000		HRRZM	P1,0(P2)	;SAVE CONTROLLER NUMBER AS WORD 0
  3202	022116	502655	000000		HLLM	P2,0(P2)	;MAKE IT -WORDS,,CONTROLLER
  3203	022117	350000	022466		AOS	.CPSBD		;COUNT THIS CONTROLLER
  3204	022120	271640	000003		ADDI	P2,.SBFNC+1	;INCREMENT TO NEXT BLOCK
  3205	022121	253600	022077	REDSB3:	AOBJN	P1,REDSB1	;LOOP FOR NEXT CONTROLLER
  3206	022122	210600	022466		MOVN	P1,.CPSBD	;GET NUMBER OF BLOCKS WE STORED
  3207	022123	322600	023270		JUMPE	P1,CPOPJ	;LEAVE IT ZERO IF NONE
  3208	022124	505600	000001		HRLI	P1,1		;MAKE SWAPPED HEADER WORD
  3209	022125	206600	022466		MOVSM	P1,.CPSBD	;SAVE IN WORD 0
  3210	022126	263040	000000		POPJ	P,		;RETURN
COMMON - MONITOR COMMON DATA AREA AND CONFIGURATION DEFINITION - V534	MACRO 12.5-46.0 14:23 13-JAN-88 PAGE 44-2
COMMON.MAC	 7-DEC-87 14:36		S-BUS diagnostic routines

  3211				>;END IFCPU (KL)
COMMON - MONITOR COMMON DATA AREA AND CONFIGURATION DEFINITION - V534	MACRO 12.5-46.0 14:23 13-JAN-88 PAGE 45
COMMON.MAC	 7-DEC-87 14:36		S-BUS diagnostic routines

  3212				;SUBROUTINE TO READ AND STORE DEVICE STATUS
  3213
  3214	022127	263040	000000	DVCSTS::POPJ P, ;*HACK*;	;Don't do CONI of all possible I/O devices
  3215				REPEAT 0,<;;Not needed yet for TYMCOM-X hardware
  3216				; 000=CPA   004=PI    010=PAG   014=CCA   020=TIM   024=MTR   030=ADC2  034=
  3217				; 040=      044=      050=      054=      060=DLB1  064=DLC2  070=CLK1  074=CLK2
  3218				; 100=PTP   104=PTR   110=CDP   114=CDR   120=TTY   124=LPT1  130=DIS1  134=DIS2
  3219				; 140=PLT1  144=PLT2  150=CR1   154=CR2   160=DLB2  164=DLC2  170=DSK1  174=DSK2
  3220				; 200=DTE0  204=DTE1  210=DTE2  214=DTE3  220=DX10  224=      230=LPT3  234=LPT2
  3221				; 240=DLS1  244=DLS2  250=DPC1  254=DPC2  260=DPC3  264=DPC4  270=FSD1  274=FSD2
  3222				; 300=DCSA  304=DCSB  310=      314=      320=DTC1  324=DTS1  330=DTC2  334=DTS2
  3223				; 340=TMC1  344=TMS1  350=TMC2  354=TMS2  360=FSD3  364=      370=      374=
  3224				; 400=      404=      410=      414=      420=      424=      430=      434=
  3225				; 440=      444=      450=      454=      460=DSS1  464=DSI1  470=DSS2  474=DSI2
  3226				; 500=      504=      510=      514=      520=      524=      530=      534=
  3227				; 540=RH20  544=RH21  550=RH22  554=RH23  560=RH24  564=RH25  570=RH26  574=RH27
  3228				; 600=      604=      610=      614=      620=      624=      630=      634=
  3229				; 640=      644=      650=      654=      660=      664=      670=      674=
  3230				; 700=      704=      710=      714=      720=      724=      730=      734=
  3231				; 740=user  744=user  750=user  754=user  760=user  764=user  770=user  774=user
  3232
  3233				;Device codes, in alphabetical order
  3234					CCI== 014	;Computer-Computer Interface (KI to PDP-8 on DA-10)
  3235					CLK1==070	;Real-time clock
  3236					CLK2==074
  3237					CDP== 110	;Card punch
  3238					CDR== 114	;Card reader
  3239					CDR1==150	;Buffered card reader
  3240					CDR2==154
  3241					DAC== 320	;DECtape controller (TD10+TU55)
  3242					DAS== 324
  3243					DBC== 330	;DTB:
  3244					DBS== 334
  3245					DLB1==060	;Old PDP-11 interface
  3246					DLB2==160
  3247					DLC1==064
  3248					DLC2==164
  3249					DLS1==240	;Data line scanner
  3250					DLS2==244
  3251					DPC1==250	;Disk pack control (RD10 with RP02 or RP03)
  3252					DPC2==254
  3253					DPC3==260
  3254					DPC4==264
  3255					DX10==220	;Old TU-70 tape controller
  3256					FHD1==170	;Fixed Head Disk controller (RD10)
  3257					FHD2==174
  3258					FSD1==270	;?
  3259					FSD2==274
  3260					FSD3==360
  3261					LPT1==124	;Lineprinter
  3262					LPT2==234
  3263					LPT3==230
  3264					PLT1==140	;Plotter
COMMON - MONITOR COMMON DATA AREA AND CONFIGURATION DEFINITION - V534	MACRO 12.5-46.0 14:23 13-JAN-88 PAGE 45-2
COMMON.MAC	 7-DEC-87 14:36		S-BUS diagnostic routines

  3265					PLT2==144
  3266					PTP== 100	;Paper tape reader/punch
  3267					PTR== 104
  3268					TMC1==340	;Magtape controller
  3269					TMS1==344
  3270					TMC2==350
  3271					TMS2==354
  3272					TTY== 120	;Console TTY (KI only)
  3273
  3274				DVCSTS::
  3275				IFCPU (KI),<CONI TTY,.CPTTY	;Console CTY
  3276					    CONI CCI,.CPCCI >       ;DA-CONI 014, sweeps cache on KL)
  3277				IFCPU (<KI,KL>),< ;Read status of devices on the I/O bus
  3278					CONI	PTR,.CPPRA
  3279					CONI	PTP,.CPPPA
  3280					CONI	DLS1,.CPDLS
  3281				;	CONI	DLS2,.CP---
  3282					CONI	DAC,.CPDAC
  3283					CONI	DAS,.CPDAS
  3284					CONI	TMS1,.CPTMS
  3285					CONI	TMC1,.CPTMC
  3286				;	CONI	TMS2,.CP---
  3287				;	CONI	TMC2,.CP---
  3288					CONI	DX10,.CPDX1
  3289					CONI	FHD1,.CPDSK
  3290					CONI	FHD2,.CPFH2
  3291					CONI	FSD1,.CPFSD
  3292					CONI	FSD2,.CPFS2
  3293					CONI	FSD3,.CPFS3
  3294					CONI	DPC1,.CPDPC
  3295					CONI	DPC2,.CPDP2
  3296					CONI	DPC3,.CPDP3
  3297					CONI	DPC4,.CPDP4
  3298					CONI	DBS,.CP2DS
  3299					CONI	DBC,.CP2DC
  3300					CONI	DLC1,.CPDLC
  3301					CONI	DLB1,.CPDLB
  3302					CONI	DLC2,.CPDC2
  3303					CONI	DLB2,.CPDB2
  3304					CONI	CDP,.CPCDP
  3305				;	CONI	CDR,.CP---
  3306					CONI	CDR1,.CPCRA
  3307					CONI	CDR2,.CPCRB
  3308					CONI	LPT1,.CPLPT
  3309					CONI	LPT2,.CPLPB
  3310					CONI	LPT3,.CPLPC
  3311					CONI	PLT1,.CPPLA
  3312					CONI	PLT2,.CPPLB
  3313				IFCPU (KI),<DATAI APR,.CPDST >		;CONSOLE SWITCHES
  3314				IFCPU (KL),<DATAI APR,.CPDAK >		;ADDRESS BREAK CONDITIONS
  3315					DATAI	DSK1,.CPDDK
  3316					DATAI	FHD2,.CPDH2
  3317					DATAI	FSD1,.CPDFS
COMMON - MONITOR COMMON DATA AREA AND CONFIGURATION DEFINITION - V534	MACRO 12.5-46.0 14:23 13-JAN-88 PAGE 45-3
COMMON.MAC	 7-DEC-87 14:36		S-BUS diagnostic routines

  3318					DATAI	FSD2,.CPDS2
  3319					DATAI	FSD3,.CPDS3
  3320					DATAI	DPC1,.CPDDP
  3321					DATAI	DPC2,.CPDD2
  3322					DATAI	DPC3,.CPDD3
  3323					DATAI	DPC4,.CPDD4
  3324					DATAI	DLC1,.CPDDC
  3325					DATAI	DLB1,.CPDDB
  3326					DATAI	DLC2,.CPD2C
  3327					DATAI	DLB2,.CPD2B
  3328				>;END IFCPU (<KI,KL>)
  3329				IFCPU (KL),<
  3330					CONI	TIM,.CPTMR	;KL interval timer status
  3331					CONI	MTR,.CPMTR	;KL meter status
  3332					DATAO	RH20,RH2IVI
  3333					DATAI	RH20,.CPIVI+1
  3334					DATAO	RH21,RH2IVI
  3335					DATAI	RH21,.CPIVI+3
  3336					DATAO	RH22,RH2IVI
  3337					DATAI	RH22,.CPIVI+5
  3338					DATAO	RH23,RH2IVI
  3339					DATAI	RH23,.CPIVI+7
  3340					DATAO	RH24,RH2IVI
  3341					DATAI	RH24,.CPIVI+11
  3342					DATAO	RH25,RH2IVI
  3343					DATAI	RH25,.CPIVI+13
  3344					DATAO	RH23,RH2IVI
  3345					DATAI	RH26,.CPIVI+15
  3346					DATAO	RH27,RH2IVI
  3347					DATAI	RH27,.CPIVI+17
  3348				>;END IFCPU (KL)
  3349				IFCPU (KS),<
  3350					RDINT	.CPTMR		;READ INTERVAL TIMER
  3351					RDTIME	.CPTMB		;READ TIME BASE
  3352					PUSH	P,%UPT+.LMPFP
  3353					PUSH	P,%UPT+.LMPFW
  3354					MOVE	T1,[-KSCTBL,,KSCTAB] ;POINTER TO DEVICE ADDRESS TABLE
  3355					MOVE	T2,[EXP XC.UIO+KSCTRP] ;TRAP ADDRESS FOR NX DEVICES
  3356					EXCH	T2,%UPT+.LMPFN	;SET IT AND SAVE CURRENT ONE
  3357					MOVEI	T3,.CPUB1	;FIRST STORE ADDRESS IN CDB SUB-TABLE
  3358				KSCLOP:	RDIO	T4,@(T1)	;READ SOME REGISTER
  3359					MOVEM	T4,(T3)		;SAVE IT IN RIGHT SLOT
  3360				KSCTRP:	AOS	T3		;BUMP CDB ADDRESS
  3361					AOBJN	T1,KSCLOP	;DO NEXT
  3362					EXCH	T2,%UPT+.LMPFN	;RESTORE TRAP ADDRESS
  3363					JRST	KSCEND		;DONE
  3364
  3365				KSCTAB==.			;START OF KS10 DEVICE ADDRESS TABLE
  3366				UB1STS:	XWD	1,UNBSTW	;UBA1 STATUS REGISTER
  3367				UB3STS:	XWD	3,UNBSTW	;UBA3 STATUS REGISTER
  3368				RH1STS:	RH11CA			;RPCS1
  3369				RH1ST2:	RH11CA+10		;RPCS2
  3370				RH2STS:	RH21CA			;MTCS1
COMMON - MONITOR COMMON DATA AREA AND CONFIGURATION DEFINITION - V534	MACRO 12.5-46.0 14:23 13-JAN-88 PAGE 45-4
COMMON.MAC	 7-DEC-87 14:36		S-BUS diagnostic routines

  3371				RH2ST2:	RH21CA+10		;MTCS2
  3372				LPTSTS:	LP11CA			;LPT CSRA
  3373				LPTST2:	LP11CA+2		;LPT CSRB
  3374				CDRSTS:	CD11BA			;CDR CDST
  3375				KSCEND==.			;END OF KS10 DEVICE ADDRESS TABLE
  3376				KSCTBL==KSCEND-KSCTAB	;LENGTH OF KS10 DEVICE ADDRESS TABLE
  3377					POP	P,%UPT+.LMPFW
  3378					POP	P,%UPT+.LMPFP
  3379				>;END IFCPU (KS)
  3380				LENDVS==:<.-DVCSTS-1>B26
  3381					MOVEI	T1,SR.DSB		;SET FLAG TO INDICATE
  3382					IORM	T1,.CPSBR		;DEVICE STATUS BLOCK READ
  3383					POPJ	P,
  3384				IFCPU (KL),< RH2IVI:	740000,,0 >
  3385				>  ;End of REPEAT 0
COMMON - MONITOR COMMON DATA AREA AND CONFIGURATION DEFINITION - V534	MACRO 12.5-46.0 14:23 13-JAN-88 PAGE 46
COMMON.MAC	 7-DEC-87 14:36		TYPCSB - Routine to type relevant parts of the CPU status block

  3386				SUBTTL	TYPCSB - Routine to type relevant parts of the CPU status block
  3387
  3388	022130	260040	000000*	TYPCSB::PUSHJ	P,INLMES##
  3389					ASCIZ/
  3390	022131	064250	350252	CPU Status Block
	022132	202476	460750
	022133	727464	041330
  3391	022134	677075	306424	/
	022135	000000	000000
  3392	022136	260040	022130*		PUSHJ	P,INLMES##
  3393					ASCIZ/
  3394	022137	064250	150244	APRID = /
	022140	446104	036500
	022141	000000	000000
  3395	022142	200300	022324		MOVE	T1,.CPAPD	;GET APRID
  3396	022143	260040	000000*		PUSHJ	P,HWDPNT##	;TYPE IT
  3397				IFCPU (KL),<
  3398	022144	260040	022136*		PUSHJ	P,INLMES##
  3399					ASCIZ/
  3400	022145	064250	551202	ERA = /
	022146	201724	000000
  3401	022147	336300	022636		SKIPN	T1,.CPAER
  3402	022150	200300	022335		 MOVE	T1,.CPERA	;GET ERA
  3403	022151	260040	022143*		PUSHJ	P,HWDPNT##	;TYPE IT
  3404				>  ;END IFCPU (KL)
  3405	022152	260040	022144*		PUSHJ	P,INLMES##
  3406					ASCIZ/
  3407	022153	064250	347634	CONI APR, = /
	022154	445010	150244
	022155	261007	520000
  3408	022156	200300	022325		MOVE	T1,.CPACN	;GET CONI APR
  3409	022157	260040	022151*		PUSHJ	P,HWDPNT##	;TYPE IT
  3410	022160	260040	022152*		PUSHJ	P,INLMES##
  3411					ASCIZ/
  3412	022161	064250	347634	CONI PI, = /
	022162	445012	044530
	022163	201724	000000
  3413	022164	336300	022302		SKIPN	T1,.CPCPI
  3414	022165	200300	022326		 MOVE	T1,.CPPIC	;GET CONI PI
  3415	022166	260040	022157*		PUSHJ	P,HWDPNT##	;TYPE IT
  3416	022167	260040	022160*		PUSHJ	P,INLMES##
  3417					ASCIZ/
  3418	022170	064250	347634	CONI PAG, = /
	022171	445012	040616
	022172	261007	520000
  3419	022173	200300	022330		MOVE 	T1,.CPPGC	;GET CONI PAG
  3420	022174	260040	022166*		PUSHJ	P,HWDPNT##	;TYPE IT
  3421	022175	260040	022167*		PUSHJ	P,INLMES##
  3422					ASCIZ/
  3423	022176	064250	440650	DATAI PAG, = /
	022177	406224	050202
	022200	435304	036500
	022201	000000	000000
COMMON - MONITOR COMMON DATA AREA AND CONFIGURATION DEFINITION - V534	MACRO 12.5-46.0 14:23 13-JAN-88 PAGE 46-2
COMMON.MAC	 7-DEC-87 14:36		TYPCSB - Routine to type relevant parts of the CPU status block

  3424	022202	200300	022327		MOVE	T1,.CPPGD	;GET DATAI PAG
  3425	022203	260040	022174*		PUSHJ	P,HWDPNT##	;TYPE IT
  3426				IFNCPU(KL),<PUSHJ P,CRLF##>	;Force blank line after CPU status block
  3427				IFCPU (KL),<
  3428	022204	260040	022175*		PUSHJ	P,INLMES##
  3429					 ASCIZ/
  3430	022205	064250	151100	AR ARX Data Words (7:0 & 7:1) = /
	022206	406453	020210
	022207	607514	120256
	022210	677454	471500
	022211	241567	230100
	022212	231006	735142
	022213	245007	520000
  3431	022214	200300	022463		MOVE	T1,.CP7+0	;GET AC BLOCK 7 LOC 0
  3432	022215	260040	022203*		PUSHJ	P,HWDPNT##	;TYPE IT
  3433	022216	260040	022204*		PUSHJ	P,INLMES##
  3434	022217	201144	000000		 ASCIZ/ & /
  3435	022220	200300	022464		MOVE	T1,.CP7+1	;GET AC BLOCK 7 LOC 1
  3436	022221	260040	022215*		PUSHJ	P,HWDPNT##	;TYPE IT
  3437	022222	260040	022216*		PUSHJ	P,INLMES##
  3438					 ASCIZ/
  3439	022223	064252	060716	Page Fail Words   (7:2 & 500) = /
	022224	625010	660722
	022225	661012	767744
	022226	623464	020100
	022227	241567	231100
	022230	231006	530140
	022231	245007	520000
  3440	022232	200300	022465		MOVE	T1,.CP7+2	;GET AC BLOCK 7 LOC 2
  3441	022233	260040	022221*		PUSHJ	P,HWDPNT##	;TYPE IT
  3442	022234	260040	022222*		PUSHJ	P,INLMES##
  3443	022235	201144	000000		 ASCIZ/ & /
  3444	022236	200300	022452		MOVE	T1,.CPUP1+0	;Page fail code from UPT location 500
  3445	022237	260040	022233*		PUSHJ	P,HWDPNT##	;TYPE IT
  3446	022240	260040	022234*		PUSHJ	P,INLMES##
  3447					 ASCIZ/
  3448
  3449	022241	064241	505246	SBUS Diags:
	022242	412532	320210
	022243	647034	771564
  3450
  3451	022244	064241	505206	CNTRLR FNC 0          FNC 1
	022245	472512	246244
	022246	202151	641500
	022247	301004	020100
	022250	201004	020100
	022251	202151	641500
  3452	022252	304321	200000	/
  3453	022253	260040	022255		PUSHJ	P,TYPSBD	;TYPE SBDIAG INFORMATION
  3454				>  ;END IFCPU(KL)
  3455	022254	324740	000000*		PJRST	CRLF##		;END WITH CRLF AND RETURN
COMMON - MONITOR COMMON DATA AREA AND CONFIGURATION DEFINITION - V534	MACRO 12.5-46.0 14:23 13-JAN-88 PAGE 47
COMMON.MAC	 7-DEC-87 14:36		TYPCSB - Routine to type relevant parts of the CPU status block

  3456				;Routine to type the SBDIAG functions and values on CTY during crash
  3457
  3458				IFCPU(KL),<
  3459	022255	261040	000014	TYPSBD::PUSH	P,P1		;SAVE P1
  3460	022256	261040	000015		PUSH	P,P2		;  AND P2
  3461	022257	200600	022466		MOVE	P1,.CPSBD	;GET -# BLOCKS,, OFFSET TO FIRST
  3462	022260	551654	022466		HRRZI	P2,.CPSBD(P1)	;POINT AT FIRST BLOCK
  3463	022261	500655	000000	TYPSB1:	HLL	P2,0(P2)	;MAKE P2 BE AOBJN POINTER TO THIS BLOCK
  3464	022262	550315	000000		HRRZ	T1,0(P2)	;GET CONTROLLER LOGICAL ADDRESS
  3465	022263	260040	000000*		PUSHJ	P,OCTPNT##	;PRINT IT
  3466	022264	541655	000001		HRRI	P2,1(P2)	;ADVANCE TO FIRST OF FUNCTION WORDS
  3467	022265	260040	000000*	TYPSB2:	PUSHJ	P,PRSPC##	;SEPARATE FIELDS WITH A SPACE
  3468	022266	200315	000000		MOVE	T1,0(P2)	;GET NEXT FUNCTION WORD
  3469	022267	260040	022237*		PUSHJ	P,HWDPNT##	;TYPE IT
  3470	022270	253640	022265		AOBJN	P2,TYPSB2	;LOOP FOR ALL WORDS IN THIS BLOCK
  3471	022271	260040	022254*		PUSHJ	P,CRLF##	;TYPE CRLF AT END OF LINE
  3472	022272	253600	022261		AOBJN	P1,TYPSB1	;LOOP FOR ALL BLOCKS
  3473	022273	262040	000015		POP	P,P2		;RESTORE P2
  3474	022274	262040	000014		POP	P,P1		;  AND P1
  3475	022275	263040	000000		POPJ	P,		;RETURN
  3476				>  ;END IFCPU(KL)
COMMON - MONITOR COMMON DATA AREA AND CONFIGURATION DEFINITION - V534	MACRO 12.5-46.0 14:23 13-JAN-88 PAGE 48
COMMON.MAC	 7-DEC-87 14:36		CRSDB - crash data block definitions

  3477				SUBTTL	CRSDB - crash data block definitions
  3478
  3479				  ;Per CPU data (This table needs to be rearranged in the right order)
  3480
  3481	022276	000000	022276	.CPSLF:: .		;Pointer to start of CDB for this CPU
  3482	022277	777777	777777	.CPDWD:: -1		;DIE word, checks for recursion in stopcode handler
  3483	022300	777777	777777	.CPEVN:: -1		;NODIE word, checks for INFO and EVENT stopcodes
  3484	022301	000000	000000	.CPCPC:: 0		;Continue PC, defaults to location after STOPCD macro
  3485	022302	000000	000000	.CPCPI:: 0		;Saves CONI PI, during STOPCD
  3486	022303	000000	000000	.CPCPG:: 0		;Pager status (including AC set in use) at STOPCD
  3487	022304	000000	000000	.CPSCB:: 0		;STOPCD block address
  3488	022305	000000	000000	.CPSNM:: 0		;STOPCD name
  3489	022306	000000	000000	.CPSPC:: 0		;STOPCD EXEC PC
  3490	022307	000000	000000	.CPSTY:: 0		;STOPCD type
  3491	022310	000000	000000	.CPSDT:: 0		;STOPCD date/time
  3492	022311	000000	000000	.CPSJN:: 0		;STOPCD job number
  3493	022312	000000	000000	.CPSPN:: 0		;STOPCD program name
  3494	022313	000000	000000	.CPSPD:: 0		;STOPCD program directory
  3495	022314	000000	000000	.CPSPP:: 0		;STOPCD PPN
  3496	022315	000000	000000	.CPSTN:: 0		;STOPCD TTY name
  3497	022316	000000	000000	.CPSUU:: 0		;STOPCD UUO
  3498	022317	000000	000000	.CPSUP:: 0		;STOPCD user PC
  3499	022320	000000	000000	.CPSND:: 0		;STOPCD number of DEBUG stopcodes
  3500	022321	000000	000000	.CPSNJ:: 0		;STOPCD number of JOB stopcodes
  3501	022322	000000	000000	.CPSNC:: 0		;STOPCD number of CPU stopcodes
  3502	022323	000000	000000	.CPSNI:: 0		;STOPCD number of INFO/EVENT stopcodes
  3503
  3504	022324			.GTCRS:: ;Crash data block (The numbers in parens are defined for TOPS-10)
  3505	022324	000000	000000	.CPAPD:: 0		;(0) APRID
  3506	022325	000000	000000	.CPACN:: 0		;(1) CONI APR,
  3507	022326	000000	000000	.CPPIC:: 0		;(2) CONI PI,
  3508	022327	000000	000000	.CPPGD:: 0		;(3) DATAI PAG,
  3509	022330	000000	000000	.CPPGC:: 0		;(4) CONI PAG,
  3510	022331			.CPUP0:: BLOCK 4	;(5-10) UPT LOCS 424-427 (MUUO AREA)
  3511				  ;11-125 meaningful on KL only
  3512	022335	000000	000000	.CPERA:: 0		;(11) RDERA
  3513	022336			.CPRHC:: BLOCK 8	;(12-21) CONI RH20, FOR ALL 8 RH'S
  3514	022346			.CPDTC:: BLOCK 4	;(22-25) CONI DTEn
  3515	022352			.CPEP0:: BLOCK 40	;(26-65) EPT LOCS 0-37 (RH20 LOGOUT AREAS)
  3516	022412			.CPEP1:: BLOCK 40	;(66-125) EPT LOCS 140-177  (DTE CONTROL BLOCKS)
  3517				  ;126-141 on KL and KS (not KI)
  3518	022452			.CPUP1:: BLOCK 4	;(126-131) UPT LOCS 500-503  (PAGE FAIL AREA)
  3519	022456			.CP6::   BLOCK 5	;(132-135) AC BLOCK 6, REGS 0-3 AND 12
  3520	022463			.CP7::   BLOCK 3	;(136-141) AC BLOCK 7, REGS 0-2
  3521				  ;142-211 on KL only
  3522	022466			.CPSBD:: BLOCK 50	;(142-211) SBDIAG DATA
  3523	022536	000000	000000	.CPSBR:: 0		;Status, SR.CSB set if 0-136 have saved data
  3524
  3525
  3526	022537	000000	003000	.CPUPT:: UPT		;Physical address of the UPT, negative if invalid
  3527	022540	000000	001000	.CPEPT:: EPT		;Physical address of the EPT for this CPU
  3528	022541	000000	000001	.CPCPN:: 1		;Number of this CPU
  3529	022542	000000	000000	.CPJOB:: 0		;Number of job running on this CPU
COMMON - MONITOR COMMON DATA AREA AND CONFIGURATION DEFINITION - V534	MACRO 12.5-46.0 14:23 13-JAN-88 PAGE 48-2
COMMON.MAC	 7-DEC-87 14:36		CRSDB - crash data block definitions

  3530	022543	000000	000000	.CPISF:: 0		;In Scheduler-context Flag
  3531	022544	000000	000000	.CPCTN:: '0'-'0'	;CTY: is line 0, TTY0:=CTYLDB
  3532			000000	.CPTOA==:COMTOA##	;Address of routine to output to the CTY
  3533	022545	777720	022545	.CPEPD:: IOWD 60,.CPPDL	;To reset the stack
  3534	022546			.CPPDL:: BLOCK 60	;Stack for error processing
  3535			022547	  SYSPDL=:.CPPDL+1	;Used by ONCE and CRASH code
  3536	022626	254000	000000*	.CPDDT:: JRST DDTX##	;Instruction to enter DDT on this CPU
  3537	022627	125412	007777	.CPLOG:: APRNAM		;Logical name (AA, BB, CC, etc) ,, base node #
  3538	022630	005354	000000	.CPCPU:: APRSN		;CPU type in LH,,Serial number system was built for
  3539							;ONCE sets SERIAL to APRID but leaves .CPCPU alone
  3540	022631	535423	262522	.CPSNO:: SYSNO		;System number from CONF##.MAC (right justified SIXBIT)
  3541	022632	000000	000000	.CPSVA:: 0		;Do JSR .CPSVA to save all AC blocks
  3542	022633	254000	021703		 JRST SVSETS	;Jump to routine to save ACs
  3543	022634	000000	000000	.CPACA:: 0		;Address of active ACs
  3544
  3545				;Data locations for PICON when APRINT detects parity error
  3546	022635	000000	000000	.CPPER:  0		;Results of CONI APR, on PARITY/NXM interrupt
  3547	022636	000000	000000	.CPAER:  0		;Results of RDERA on PARITY/NXM interrupt
  3548	022637	100000	000000	.CPSB0:  4B4+0		;SBUS DIAG, controller 4 (DMA20), function 0
  3549	022640	000000	000000	.CPS0A:  0		; result stored here after parity error
  3550	022641	100000	000001	.CPSB1:  4B4+1		;SBUS DIAG, controller 4 (DMA20), function 1
  3551	022642	000000	000000	.CPS1A:  0		; result stored here after parity error
  3552			022635		SAVAPR=:.CPPER		;CONI APR,SAVAPR done in PICON
  3553			022636		SAVERA=:.CPAER		;RDERA SAVERA done in PICON
  3554			022637		SAVSB0=:.CPSB0		;SBDIAG SAVSB0 done in PICON
  3555			022641		SAVSB1=:.CPSB1		;SBDIAG SAVSB1 done in PICON
  3556
  3557				;End of DEC's crash data block
  3558				;-------------------------------------------------------------------------------
  3559				;Start of TYMSHARE's crash data block
  3560
  3561				IFCPU (KL),<;KL specific CPU registers
  3562	022643	100000	000000	SBDST1:: 4B4+0		;(-5) SBUS DIAG, controller 4 (DMA20), function 0
  3563	022644	000000	000000	         0		;(-4) result stored here after stopcode
  3564	022645	100000	000001	SBDST2:: 4B4+1		;(-3) SBUS DIAG, controller 4 (DMA20), function 1
  3565	022646	000000	000000	         0		;(-2) result stored here after stopcode
  3566	022647	000000	000000	ERASTS:: 0		;(-1) Results of RDERA after stopcode
  3567				>; IFCPU KL
  3568
  3569				IFCPU (KS),<;KS specific CPU registers
  3570				KAFPC::	0		;(-25) 4 word block for XPCW if keep alive fails
  3571					0		;(-24) KAFPC+0 = old flags, KAFPC+1 = old 30-bit PC
  3572					0		;(-23) KAFPC+2 = new flags (zero for kernel)
  3573					KAFCRS		;(-22) KAFPC+3 = new 30-bit PC
  3574				HLTSTS::0		;(-21) MAG register
  3575					0		;(-20) PC register
  3576					0		;(-17) HR register
  3577					0		;(-16) AR register
  3578					0		;(-15) ARX register
  3579					0		;(-14) BR register
  3580					0		;(-13) BRX register
  3581					0		;(-12) ONE (1) register
  3582					0		;(-11) EBR register
COMMON - MONITOR COMMON DATA AREA AND CONFIGURATION DEFINITION - V534	MACRO 12.5-46.0 14:23 13-JAN-88 PAGE 48-3
COMMON.MAC	 7-DEC-87 14:36		CRSDB - crash data block definitions

  3583					0		;(-10) UBR register
  3584					0		;(-7) MASK register
  3585					0		;(-6) FLG (flags,page fail code) register
  3586					0		;(-5) PI register
  3587					0		;(-4) XWD1 (1,,1) register
  3588					0		;(-3) T0 register
  3589					0		;(-2) T1 register
  3590					0		;(-1) VMA (with flags)
  3591				>; IFCPU KS
  3592
  3593				IFCPU (KI),<;KI specific CPU registers - none>
  3594				IFCPU (F3),<;F3 specific CPU registers - none>
  3595
  3596	022650			CRSDB::	; * * * CRASH DATA BLOCK * * *
  3597					; + index are processor independent
  3598					; - index are processor dependent
  3599					; CRSDB is pointed to by lh(CONFIG-2) so CRSHID can find it
  3600				;symbol			index  instruction          cpus
  3601				;------			-----  ----------- 	    ----
  3602	022650	000000	000000	PISTS::	0		;(0)  CONI  PI,  (RDPI)	    ILS3
  3603	022651	000000	000000	APRSTS::0		;(1)  CONI  APR, (RDAPR)    ILS3
  3604	022652	000000	000000	PAGDTI::0		;(2)  DATAI PAG, (RDUBR)    ILS3
  3605	022653	000000	000000	PAGCNI::0		;(3)  CONI  PAG, (RDEBR)    ILS3
  3606	022654	000000	000000	AIDSTS::0		;(4)  BLKI  APR, (APRID)    .LS.
  3607	022655	000000	000000	APRDTI::0		;(5)  DATAI APR, (RSW)	    IL.3 (KL address break)
  3608	022656	000000	000000		0		;(6)
  3609	022657	000000	000000		0		;(7)
  3610	022660	000000	000000		0		;(10)
  3611	022661	000000	000000		0		;(11)
  3612	022662	000000	000000		0		;(12)
  3613	022663	000000	000000		0		;(13)
  3614	022664	001000	021503		EPT,,CRSHAC	;(14) address of some useful stuff
  3615	022665	000000	000000	SAV30::	0		;(15) value of 30 saved here
  3616	022666	000000	000000	STOPCN::0		;(16) count of times we tried to crash
  3617	022667	000000	000000	STOPPC::0		;(17) real PC of first STOPCD we hit
  3618			000020	CRSLEN==.-CRSDB
  3619			017000	CRSMXL==:<CRSLEN-1>_^D9
  3620
  3621				  ;These variables should be moved somewhere else
  3622	022670	000000	000000	BADINT::0		;bad interrupts weve gotten
  3623	022671	000000	000000	BADQUE::0		;attempts to assign a job not in NUL queue
  3624	022672	000000	000000	BADQTM::0		;time last job assignment was made
COMMON - MONITOR COMMON DATA AREA AND CONFIGURATION DEFINITION - V534	MACRO 12.5-46.0 14:23 13-JAN-88 PAGE 49
COMMON.MAC	 7-DEC-87 14:36		JSR SYSCRS and JRST CRASHX routines

  3625				SUBTTL	JSR SYSCRS and JRST CRASHX routines
  3626
  3627	022673	000000	000000	SLOCRS::0	;Nonzero for slow DSKCLN, set by STOPCD(.,DSKCLN) or STOPCD(SLO)
  3628	022674	000000	000000	NOCRS:: 0	;Nonzero for no dump + manual DSKCLN, PC of STOPCD(NO) in RH
  3629
  3630	022675	202040	022706	KAFCRS::MOVEM	P,KAFPDL	;Save possible stack pointer
  3631	022676	201040	022706		MOVEI	P,KAFPDL	;Point to 1-word stack
  3632	022677	256000	025026	S..KAF:: STOPCD (.,CPU,KAF,KAFPRT,<Keep Alive Failure>)
  3633
  3634	022700	260040	022240*	KAFPRT:	PUSHJ	P,INLMES##	;Routine for STOPCD(KAF)
  3635	022701	463036	372100		 ASCIZ	/Last interrupt/
	022702	647356	462744
	022703	713536	072000
  3636				IFCPU(KS),<SKIPN T2,KAFPC+1>	;Get old PC if 8080 did it to us
  3637	022704	200340	023767		MOVE	T2,CH1		;Get PC at time of channel-1 interrupt
  3638	022705	324740	000000*		PJRST	PCP##		;" at user PC 000000"
  3639
  3640	022706			KAFPDL:	BLOCK	2		;Old P at KAFPDL+0, PUSHJ stores PC at KAFPDL+2
  3641
  3642	022710	000000	000000	TAKDWN:: 0			;JSR here from CLOCK1 on an orderly shutdown
  3643	022711	250040	022710		EXCH	P,TAKDWN	;TAKDWN nonzero if TAKEIT ran
  3644	022712	275040	000001		SUBI	P,1
  3645	022713	202040	022667		MOVEM	P,STOPPC	;CRSDB+17
  3646	022714	250040	022710		EXCH	P,TAKDWN
  3647	022715	254000	022731		JRST	CRASHX
  3648
  3649	022716	000000	000000	CRS147:: 0			;JSR here from a 147 restart
  3650	022717	250040	022716		EXCH	P,CRS147
  3651	022720	275040	000001		SUBI	P,1
  3652	022721	202040	022667		MOVEM	P,STOPPC	;CRSDB+17
  3653	022722	250040	022716		EXCH	P,CRS147
  3654	022723	254000	022731		JRST	CRASHX
  3655
  3656	022724	000000	000000	CRASH2:: 0			;JSR here from PICON when "DM 30,1"
  3657	022725	250040	022724		EXCH	P,CRASH2
  3658	022726	275040	000001		SUBI	P,1
  3659	022727	202040	022667		MOVEM	P,STOPPC	;CRSDB+17
  3660	022730	250040	022724		EXCH	P,CRASH2
  3661					PFALL	CRASHX
  3662
  3663				;Here for a non-STOPCD crash (TAKEIT, DM 30.1, ST 147)
  3664				;Need to save things that the stopcode processor would have saved.
  3665
  3666	022731	332000	022666	CRASHX::SKIPE	STOPCN		;CRSDB+16 Have we been here before?
  3667	022732	254000	023005		 JRST	CRASHZ		;Don't wipe out saved data
  3668	022733	350000	022666		AOS	STOPCN		;Make nonzero so we don't come here again
  3669	022734	700640	022650		CONI	PI,PISTS	;CRSDB+0 (PIs active)
  3670	022735	700240	022651		CONI	APR,APRSTS	;CRSDB+1 (APR error bits)
  3671	022736	701040	022652		DATAI	PAG,PAGDTI	;CRSDB+2 (UPT and current AC block)
  3672	022737	701240	022653		CONI	PAG,PAGCNI	;CRSDB+3 (EPT addres)
  3673	022740	700000	022654	IFCPU(<KL,KS>),<APRID AIDSTS>	;CRSDB+4 (CPU serial number)
  3674	022741	700040	022655	IFNCPU(KS),<DATAI APR,APRDTI>	;CRSDB+5 (address break conditions)
  3675				IFCPU (KL),<
COMMON - MONITOR COMMON DATA AREA AND CONFIGURATION DEFINITION - V534	MACRO 12.5-46.0 14:23 13-JAN-88 PAGE 49-2
COMMON.MAC	 7-DEC-87 14:36		JSR SYSCRS and JRST CRASHX routines

  3676	022742	701540	000000		SWPUA			;Sweep cache, unload all words to memory
  3677	022743	700340	000020		CONSO	APR,LP.CSD      ;Wait for sweep done
  3678	022744	254000	022743		 JRST	.-1
  3679	022745	700400	022647		RDERA	ERASTS		;CRSDB-1 (error address)
  3680	022746	700500	022643		SBDIAG	SBDST1		;CRSDB-5 (function 0 for DMA20)
  3681	022747	700500	022645		SBDIAG	SBDST2		;CRSDB-3 (function 1 for DMA20)
  3682				>  ;End IFCPU(KL)
  3683	022750	202740	021522		MOVEM	17,CRSHAC+17
  3684	022751	201740	021503		MOVEI	17,CRSHAC	;Save current AC block
  3685	022752	251740	021521		BLT	17,CRSHAC+16
  3686	022753	201740	021523		MOVEI	17,PREVAC
  3687	022754	256040	022760		PXCT	1,BLTPRV	;XCTFU <BLT 17,PREVAC+17>;Save previous AC block
  3688	022755	200740	000030		MOVE	17,CRSHWD	;Contents of location 30
  3689	022756	202740	022665		MOVEM	17,SAV30	;CRSDB+15
  3690	022757	254000	023005		JRST	CRASHZ
  3691	022760	251740	021542	BLTPRV:	BLT	17,PREVAC+17	;Not in a literal in case COMLIT gets wiped out
  3692
  3693	022761			REBOOT::	;Enter here from DIE, the STOPCD processor
  3694				;Start of CRSHID kludge (store in old locations for CRSHID or curious CE's)
  3695	022761	200040	022302		MOVE	P,.CPCPI	;Get CONI PI that DIE saved
  3696	022762	202040	022650		MOVEM	P,PISTS		;CRSDB+0
  3697	022763	200040	022325		MOVE	P,.CPACN	;Get CONI APR from RCDSTB
  3698	022764	202040	022651		MOVEM	P,APRSTS	;CRSDB+1
  3699	022765	200040	022327		MOVE	P,.CPPGD	;Get DATAI PAG from RCDSTB
  3700	022766	202040	022652		MOVEM	P,PAGDTI	;CRSDB+2 (UPT and AC block status)
  3701	022767	200040	022330		MOVE	P,.CPPGC	;Get CONI PAG from RCDSTB
  3702	022770	202040	022653		MOVEM	P,PAGCNI	;CRSDB+3
  3703	022771	200040	022324		MOVE	P,.CPAPD	;Get APRID from RCDSTB
  3704	022772	202040	022654		MOVEM	P,AIDSTS	;CRSDB+4
  3705	022773	700040	022655	IFNCPU(KS),<DATAI APR,APRDTI>	;CRSDB+5 Console switches or KL address break
  3706	022774	200040	022306		MOVE	P,.CPSPC	;Get the STOP-PC saved by DIE
  3707	022775	202040	022667		MOVEM	P,STOPPC	;CRSDB+17 (CRSDB+15=SAV30 set by .CPSVA)
  3708				IFCPU (KL),<
  3709	022776	701540	000000		SWPUA			;Sweep cache, unload all words to memory
  3710	022777	700340	000020		CONSO	APR,LP.CSD      ;Wait for sweep done
  3711	023000	254000	022777		 JRST	.-1
  3712	023001	700400	022647		RDERA	ERASTS		;CRSDB-1
  3713	023002	700500	022643		SBDIAG	SBDST1		;CRSDB-5
  3714	023003	700500	022645		SBDIAG	SBDST2		;CRSDB-3
  3715				>  ;End IFCPU(KL)
  3716	023004	350000	022666		AOS	STOPCN		;CRSDB+16 Tell CRSHID that CRSDB is valid
  3717					PFALL	CRASHZ
  3718				;End of CRSHID kludge
  3719
  3720				;Here when all ACs have been saved, and crash data block set up
  3721
  3722	023005	700600	000400	CRASHZ:	SYSPIF			;Turn off PI system (again)
  3723	023006	701140	025013	IFNCPU(KI),<	WRUBR [LG.LAB+0B8+0B11]> ;KI always uses AC block 0
  3724				IFCPU(<KI,F3>),<DATAO PI,[-1]>	;Turn on all the lights
  3725				IFCPU (F3),<	TNCONO 0 >	;Reset interface to node
  3726	023007	700140	025032	IFNCPU(KS),<	WRADB [0]>	;Clear address break
  3727	023010	200040	022545		MOVE	P,.CPEPD	;Set up emergency PDL
  3728	023011	200300	022666		MOVE	T1,STOPCN	;Stop count
COMMON - MONITOR COMMON DATA AREA AND CONFIGURATION DEFINITION - V534	MACRO 12.5-46.0 14:23 13-JAN-88 PAGE 49-3
COMMON.MAC	 7-DEC-87 14:36		JSR SYSCRS and JRST CRASHX routines

  3729	023012	303300	000004		CAILE	T1,4		;Are we looping?
  3730	023013	254000	023024		 JRST	NOBOOT		;Yes, output message and halt
  3731	023014	260040	023025		PUSHJ	P,CRSWHY	;Tell OPR why we are crashing
  3732	023015	200300	022666		MOVE	T1,STOPCN	;This should be 1
  3733	023016	302300	000001		CAIE	T1,1		;Have we been here before?
  3734	023017	254000	000146*		 JRST	BOTLOD		;Go to BOOTS, don't touch HOM pages this time
  3735	023020	260040	023061		PUSHJ	P,CRSDEV	;Read device status (duplicates RCDSTB's work)
  3736	023021	260040	023070		PUSHJ	P,CRSMAP	;Remap context pages into exec memory
  3737	023022	260040	023116		PUSHJ	P,CRSHOM	;Update HOM pages if needed
  3738	023023	260040	000000*		PUSHJ	P,NEWMON##	;Go load new monitor, never returns
  3739	023024	254200	023017*	NOBOOT:	  HALT	BOTLOD##	;Load BOOTS only if NEWMON fails
COMMON - MONITOR COMMON DATA AREA AND CONFIGURATION DEFINITION - V534	MACRO 12.5-46.0 14:23 13-JAN-88 PAGE 50
COMMON.MAC	 7-DEC-87 14:36		JSR SYSCRS and JRST CRASHX routines

  3740				;Try to determine cause of crash, output message to CTY
  3741
  3742				CRSWHY:	MOVEI	P1,[ASCIZ /
  3743	023025	201600	025033	/]					;No message if STOPCD crash
  3744	023026	336300	022665		SKIPN	T1,SAV30
  3745	023027	254000	023044		 JRST	CRSWH1
  3746					MOVEI	P1,[ASCIZ /
  3747	023030	201600	025034	Crashed by deposit 1 in 30 /]
  3748	023031	362300	023053		SOJE	T1,CRSWH3		;Skip next tests if DM 30,1
  3749					MOVEI	P1,[ASCIZ /
  3750	023032	201600	025042	Crashed by deposit nonzero in location 30 /]
  3751	023033	135300	025053		LDB	T1,[POINT 16,SAV30,15]	; Get Base ORING pointer field
  3752	023034	312300	000162		CAME	T1,ORP620		; Does it match?
  3753	023035	254000	023047		 JRST	CRSWH2			; No! Skip this (not base)
  3754	023036	135300	025054		LDB	T1,[POINT 16,SAV30,31]	; Get Base IRING pointer field
  3755	023037	312300	000156		CAME	T1,IRP620		; Does it match?
  3756	023040	254000	023047		 JRST	CRSWH2			; No! Skip this (not base)
  3757	023041	200300	022665		MOVE	T1,SAV30		; Get entire quantity
  3758	023042	316300	000030		CAMN	T1,CRSHWD		; Does it STILL match 30?
  3759					 MOVEI	P1,[ASCIZ /
  3760	023043	201600	025055	Base initiated crash /]
  3761	023044	135300	025062	CRSWH1:	LDB	T1,[POINT 16,KEY620,15]	;Get the KEY value
  3762	023045	306300	000354		CAIN	T1,354			;Hex 'EC'?
  3763					 MOVEI	P1,[ASCIZ /
  3764	023046	201600	025063	Base halted itself /]
  3765	023047	332000	022710	CRSWH2:	SKIPE	TAKDWN			;System hung from TAKEIT?
  3766					 MOVEI	P1,[ASCIZ /
  3767	023050	201600	025070	TAKEIT run /]
  3768	023051	332000	022716		SKIPE	CRS147
  3769					 MOVEI	P1,[ASCIZ /
  3770	023052	201600	025073	Manual restart (from location 147) /]
  3771	023053	265300	000000*	CRSWH3:	JSP	T1,CTYTYP##		;Output reason for SYSTOP
  3772					MOVEI	P1,[ASCIZ /
  3773	023054	201600	025103	Full DSKCLN requested /]
  3774	023055	336000	022673		SKIPN	SLOCRS			;STOPCD(SLO) or STOPCD(,DSKCLN)?
  3775	023056	332000	022674		SKIPE	NOCRS			;STOPCD(NO) (too many RIB errors)?
  3776	023057	265300	023053*		 JSP	T1,CTYTYP##		;Yes
  3777	023060	324740	023254		PJRST	CTYTIM			;Output time
COMMON - MONITOR COMMON DATA AREA AND CONFIGURATION DEFINITION - V534	MACRO 12.5-46.0 14:23 13-JAN-88 PAGE 51
COMMON.MAC	 7-DEC-87 14:36		CRSDEV - Read status of all devices at time of crash

  3778				SUBTTL	CRSDEV - Read status of all devices at time of crash
  3779
  3780	023061			CRSDEV:	PRINTF(<[CRSDEV should be replaced by RCDSTB]>)
  3781				IFCPU(F3),<
  3782					CONI	TTY,TTYSTS#	;Status of CTY
  3783				>;END IFCPU(F3)
  3784				IFCPU (KI),<
  3785					CONI	TTY,TTYSTS#
  3786					CONI	PTR,PTRSTS#
  3787					CONI	PTP,PTPSTS#
  3788					CONI	CLK,CLKCNI#
  3789				>;END IFCPU (KI)
  3790				IFCPU (KL),<
  3791	023061	702240	025011'		CONI	TIM,TIMSTS#
  3792	023062	702640	025007'		CONI	MTR,MTRSTS#
  3793				> ;END IFCPU(KL)
  3794				IFCPU (KS),<
  3795					RDINT	TIMSTS#
  3796				KMCSTP:	SETZ	T1,		;Label for DDT
  3797					WRIO	T1,@[3,,760540]	;Stop the KMC
  3798				IFG TAPES,<
  3799					RDIO	T2,@[3,,772440]
  3800					MOVEM	T2,MAGSTS#
  3801				> ; End IFG TAPES
  3802				IFG LPTN,<
  3803					SKIPL	T2,NXDLPT
  3804					 RDIO	T2,@[3,,775400]
  3805					MOVEM	T2,LPRSTS#
  3806				> ; End IFG LPTN
  3807					RDIO	T2,@[1,,776700]
  3808					MOVEM	T2,DSKSTS#
  3809				> ; END IFCPU (KS)
  3810
  3811				IFCPU(<KI,KL>),<		;I/O bus devices
  3812				IFN CDRN,<CONI	CR,CDRSTS#>
  3813				IFN PLTN,<CONI	PLT,PLTSTS#>
  3814
  3815				DEFINE LPTMC (A)<CONI LP'A,LPT'A'STS#>
  3816			000000	    %LPTNN==0
  3817				    REPEAT LPTN,<
  3818	023063	712640	025006'		LPTMC (\%LPTNN)
  3819			000001		%LPTNN==%LPTNN+1
  3820				    > ; End REPEAT LPTN
  3821
  3822				DEFINE SAXMC (A)<CONI SAX'A,SA'A'STS#>
  3823			000000	    %SAXN==0
  3824				    REPEAT SAXN,<
  3825	023064	727640	025010'		SAXMC(\%SAXN)
  3826			000001		%SAXN==%SAXN+1
  3827				    > ; End REPEAT SAXN
  3828
  3829	023065	200300	025110		MOVE	T1,[SAXBAS,,SASAVE]
  3830	023066	251300	000377		BLT	T1,SASAVE+SAXLEN-1 ;Save SA-10 area in 340-377
COMMON - MONITOR COMMON DATA AREA AND CONFIGURATION DEFINITION - V534	MACRO 12.5-46.0 14:23 13-JAN-88 PAGE 51-2
COMMON.MAC	 7-DEC-87 14:36		CRSDEV - Read status of all devices at time of crash

  3831				> ; END IFCPU (<KI,KL>)
  3832
  3833	023067	263040	000000		POPJ	P,		;End of CRSDEV routine
COMMON - MONITOR COMMON DATA AREA AND CONFIGURATION DEFINITION - V534	MACRO 12.5-46.0 14:23 13-JAN-88 PAGE 52
COMMON.MAC	 7-DEC-87 14:36		CRSMAP - Map context pages into just before physcial page 337

  3834				SUBTTL	CRSMAP - Map context pages into just before physcial page 337
  3835
  3836	023070	336000	022542	CRSMAP:	SKIPN	JOB		;If null job is running
  3837	023071	263040	000000		 POPJ	P,		; then %UPT is already in UPT
  3838	023072	257300	372000		MAP	T1,%UPT		;PREVENT PG FAULTS HERE
  3839	023073	202300	024312		MOVEM	T1,CRSBLK	;SAVE IN CASE OF FAILURE
  3840				IFCPU (KI),<
  3841					TRNE	T1,MAP.M	;ONLY SAVE IF PAGED ACCESSIBLE REFERENCE (DON'T NEED TO WRITE)
  3842					 POPJ	P,		;NO GOOD.
  3843				> ; End IFCPU (KI)
  3844				IFNCPU(KI),<
  3845	023074	603300	200000		TLNE	T1,PFW.H	;IF HARD FAILURE, FORGET IT
  3846	023075	263040	000000		 POPJ	P,
  3847	023076	603300	001000		TLNE	T1,PFW.R	;SKIP IF UNPAGED REF - THATS NO GOOD.
  3848	023077	607300	100000		TLNN	T1,PFW.A	;IF A BIT IS ON, ITS OK, ELSE NOT
  3849	023100	263040	000000		 POPJ	P,		;YES, CANT ADDRESS UPT
  3850				>;END IFNCPU(KI)
  3851	023101	200300	025111	SUPT0:	MOVE	T1,[%UPT,,UPT]	;From 372000 to 3000
  3852	023102	251300	005675		BLT	T1,UPT+UPTEND	;Copy as much as will fit to the null job's UPT
  3853	023103	205300	777775		MOVSI	T1,-NCTXPG	;Alter copied mapping of context pages
  3854	023104	201346	000003	SUPT1:	MOVEI	T2,UPT.PN(T1)	;Physical page number (3,4,5)
  3855	023105	201406	001032		MOVEI	T3,%UPT.N+CNVVPN(T1)	;Virtual page number  (372,373,374)
  3856	023106	241400	777777		ROT	T3,-1		;Standard UPT calculation
  3857	023107	607400	400000		TLNN	T3,(1B0)	;If even
  3858	023110	137340	025112		 DPB	T2,[POINT 13,UPT(T3),17]
  3859	023111	603400	400000		TLNE	T3,(1B0)	;If odd
  3860	023112	137340	025113		 DPB	T2,[POINT 13,UPT(T3),35]
  3861	023113	253300	023104		AOBJN	T1,SUPT1	;Update all 3 self pointers
  3862	023114	263040	000000		POPJ	P,		;End of CRSMAP routine
  3863
  3864	023115	500003	420001	DDTMAP::500000+UPT.PN,,420000+EPT.PN	;For FILDDT
COMMON - MONITOR COMMON DATA AREA AND CONFIGURATION DEFINITION - V534	MACRO 12.5-46.0 14:23 13-JAN-88 PAGE 53
COMMON.MAC	 7-DEC-87 14:36		CRSHOM - Write DSKCLN indicator in the HOM pages

  3865				SUBTTL	CRSHOM - Write DSKCLN indicator in the HOM pages
  3866
  3867	023116	700200	200000	CRSHOM:	WRAPR	APRIOB			;Reset I/O bus devices
  3868	023117	254120	025114		JRSTF	@[PC.UIO,,.+1]		;Set user I-O in PC flags
  3869				IFCPU (KS),<
  3870					WRAPR	LP.DSF+LP.CSF+LP.TIM	;Disable interval timer interrupt
  3871					MOVSI	T1,(KPACT)		;Clear keep alive active
  3872					ANDCAM	T1,RLWORD
  3873				>;END IFCPU (KS)
  3874				IFCPU (KL),<
  3875	023120	702600	000000		CONO	MTR,0			;Turn off interval timer and meter
  3876	023121	701540	000000		SWPUA				;Sweep cache, unload all to memory
  3877	023122	700300	200000		CONSZ	APR,LP.CSB		;Wait for Cache Sweep Busy to clear
  3878	023123	254000	023122		 JRST	.-1			;(do this before the WREBR)
  3879				>;END IFCPU (KL)
  3880				IFCPU (KI),<				;AC block 0 always selected on KI
  3881					DATAO	PAG,[XWD 400000,400000]	;Turn off paging
  3882				>;END IFCPU (KI)
  3883				IFNCPU(KI),<
  3884	023124	701200	000001		WREBR	EPT.PN			;Turn off paging (turn off KL cache)
  3885				>;END IFNCPU(KI)
  3886				;*;	PUSHJ	P,FILSTP##		;In FILUUO, currently just a POPJ
  3887	023125	400340	000000		SETZ	T2,			;CLEAR HANG FLAGS
  3888
  3889	023126	336000	022674	MONCRS:	SKIPN	NOCRS			;HARDWARE TROUBLE?
  3890	023127	254000	023133		 JRST	MONCR1			;NO
  3891					MOVEI	P1,[ASCIZ /
  3892	023130	201600	025115	Severe ERROR encountered: HARDWARE SUSPECT /]
  3893	023131	265300	023057*		JSP	T1,CTYTYP##		;If STOPCD(NO)
  3894	023132	435340	000037		IORI	T2,RE.BTA!RE.ONA!DCFULL	;STOPCD(NO) WANT MAN BTS, MAN ONC, FULL DC
  3895
  3896				PRINTF(<[MONCRS check DSKCLN completed only SYSTEM structure?]>)
  3897	023133	200300	000000*	MONCR1:	MOVE	T1,STRDDB##+STRBTS##	;HAS DSKCLN NOT
  3898	023134	606300	000000*		TRNN	T1,SRPNDS##		; COMPLETED?
  3899	023135	332000	022673		SKIPE	SLOCRS			;Is it a STOPCD(.,DSKCLN) ?
  3900	023136	435340	000007		 IORI	T2,DCFULL		;Yes, set FULL-DSKCLN (old STOPCD(SLO))
  3901	023137	200440	023243		MOVE	T4,REUSER		;Get restart bits set by TAKEIT
  3902	023140	332000	022710		SKIPE	TAKDWN			;HANG (or TAKEIT run?)
  3903	023141	254000	023145		 JRST	MONCR2			;Yes
  3904	023142	435340	000001		IORI	T2,DCFAST		;No, force FAST DSKCLN
  3905	023143	242440	777770		LSH	T4,-RENUM		;Move bits 20-27 into bits 28-35
  3906	023144	334000	000000		SKIPA
  3907	023145	435340	000020	MONCR2:	 IORI	T2,RE.BTA		;HANG, cancel monitor's automatic "/D"
  3908	023146	405440	000377		ANDI	T4,1_RENUM-1		;Keep only bits 28-35
  3909	023147	505440	624563		HRLI	T4,RESCOD		;Include "valid" code
  3910	023150	202440	000027		MOVEM	T4,RESTRT		;Save for next monitor to see (loc 27)
  3911	023151	137340	023244		DPB	T2,REYMON		;Put MON restart stat in bits 23-27
  3912				;RE.BTA in T2 if monitor decides not to do automatic /D to save dump
  3913				;RE.ONA in T2 if monitor decides disk is not safe enough to have ONCE run
  3914				;DCFULL in T2 if full DSKCLN requested because SLOCRS or NOCRS was nonzero
  3915				;DCNONE in T2 if TAKEIT run
  3916				;DCFAST in T2 otherwise
  3917
COMMON - MONITOR COMMON DATA AREA AND CONFIGURATION DEFINITION - V534	MACRO 12.5-46.0 14:23 13-JAN-88 PAGE 53-2
COMMON.MAC	 7-DEC-87 14:36		CRSHOM - Write DSKCLN indicator in the HOM pages

  3918				PRINTF(<[MONCRS @MONCR2+5 Save STRPID in inter-monitor area REPSID]>)
  3919	023152	554300	000000*		HLRZ	T1,STRDDB##+STRPID##	;Get pack set ID
  3920	023153	202300	000026		MOVEM	T1,REPSID		;Save in inter-monitor area (loc 26)
  3921				IFCPU (KI),<
  3922					WRAPR	APRIOB			;RESET AGAIN TO MAKE SURE
  3923					WRPI	411577			;AND PI SYSTEM
  3924				>;END IFCPU (KI)
  3925				IFNCPU(KI),<
  3926	023154	700600	011577		WRPI	LI.CPS+LI.COF+LI.PIF+LI.ACO ;CLEAR PI SYSTEM
  3927	023155	700200	220040		WRAPR	LP.CSF+LP.PWF+LP.IOR	;AND APR
  3928				>;END IFNCPU(KI)
  3929	023156	201400	000200		MOVEI	T3,RE.BTD		;Check if BOOTS action is selected
  3930	023157	260040	023233		PUSHJ	P,RECOMP		; (read SS4 if RE.BTD not set)
  3931	023160	602340	000020		TRNE	T2,RE.BTA		;Manual BOOTS desired?
  3932	023161	402000	023247		 SETZM	BTSTR			;Yes, cancel the "/D<CR><CR>"
  3933	023162	135000	023245		LDB	S,REYDCA		;Get user "HANG" or "CRASH" DSKCLN type
  3934	023163	200440	000027		MOVE	T4,RESTRT
  3935	023164	606440	000040		TRNN	T4,RE.DCD		;Has TAKEIT explicitly set DSKCLN mode?
  3936	023165	135000	023246		 LDB	S,REYDCM		;No, get monitor DSKCLN type
  3937	023166	200300	023243		MOVE	T1,REUSER		;Get bit 19 from TAKEIT's restart word
  3938	023167	606300	200000		TRNN	T1,RE.DCW		;Don't write DC type to HOME page?
  3939	023170	306000	000007		CAIN	S,DCFULL		; or disk untrustworthy?
  3940	023171	263040	000000		 POPJ	P,			;Yes, don't write HOM pages
  3941				PRINTF(<[Need a SYSTEM structure to check BOOTS options?]>)
  3942	023172	336000	000000*		SKIPN	STRDDB##		;STRDDB and UNI tables set up?
  3943	023173	263040	000000		 POPJ	P,			;No, can't write to DSKB0 then
  3944	023174	505000	000000*		HRLI	S,HOMDCV##		;Get HOME DSKCLN type validator
  3945	023175	400740	000000		SETZ	P4,			;DSKB0 has no previous unit ID
  3946	023176	201240	023172*		MOVEI	U,STRDDB##		;DSKCLN stuff only on prime STR!
  3947	023177	554245	000000*		HLRZ	U,STRUNI##(U)		;Get addr of first unit CB in STR
  3948	023200	201200	777000*		MOVEI	F,BOOTS##-1000		;Read into page 774
  3949	023201	201140	000000*	NXTUNT:	MOVEI	PG,LPNHOM##		;1ST HOME page
  3950	023202	334000	000000		SKIPA
  3951	023203	201140	000000*	HOMP2:	 MOVEI	PG,LP2HOM##		;2ND HOME page
  3952	023204	260040	000000*		PUSHJ	P,PMDRD			;Read page off disk
  3953	023205	264000	023227		  JSR	TDERR			;"TAKE DOWN ERROR"
  3954	023206	205300	505755		MOVSI	T1,'HOM'
  3955	023207	201340	000000*		MOVEI	T2,CODHOM##
  3956	023210	316304	000000*		CAMN	T1,HOMNAM##(F)		;Verify HOME page name
  3957	023211	312344	000000*		CAME	T2,HOMCOD##(F)		;Verify HOME page code
  3958	023212	264000	023227		 JSR	TDERR
  3959	023213	312744	000000*		CAME	P4,HOMPRV##(F)		;Check previous unit for consistancy
  3960	023214	264000	023227		 JSR	TDERR
  3961	023215	202004	000000*		MOVEM	S,HOMDCT##(F)		;Set valid DSKCLN type
  3962	023216	260040	000000*		PUSHJ	P,PMDWT			;Write back to disk
  3963	023217	264000	023227		  JSR	TDERR
  3964	023220	553000	000003		HRRZS	PG
  3965	023221	302140	023203*		CAIE	PG,LP2HOM##		;See if both HOME blocks processed
  3966	023222	254000	023203		 JRST	HOMP2			;No, do 2nd HOME page
  3967	023223	200744	000000*		MOVE	P4,HOMHID##(F)		;Save current unit ID
  3968	023224	554245	000000*		HLRZ	U,UNISTR##(U)		;Point to next unit CB
  3969	023225	326240	023201		JUMPN	U,NXTUNT		;Finished if no more units in DSKB
  3970	023226	263040	000000		POPJ	P,			;End of WRTHOM routine
COMMON - MONITOR COMMON DATA AREA AND CONFIGURATION DEFINITION - V534	MACRO 12.5-46.0 14:23 13-JAN-88 PAGE 53-3
COMMON.MAC	 7-DEC-87 14:36		CRSHOM - Write DSKCLN indicator in the HOM pages

  3971
  3972	023227	000000	000000	TDERR::	0				;Nonzero (JSR) on take-down error
  3973					MOVEI	P1,[ASCIZ /
  3974				Serious restart error while writing to HOM pages
  3975	023230	201600	025127	/]
  3976	023231	265300	023131*		JSP	T1,CTYTYP##		;Serious restart error detected
  3977	023232	263040	000000		POPJ	P,			;Go get BOOTS
COMMON - MONITOR COMMON DATA AREA AND CONFIGURATION DEFINITION - V534	MACRO 12.5-46.0 14:23 13-JAN-88 PAGE 54
COMMON.MAC	 7-DEC-87 14:36		CRSHOM - Write DSKCLN indicator in the HOM pages

  3978				;ROUTINE TO COMPUTE RESTART STATE
  3979				;
  3980	023233	200340	000027	RECOMP::MOVE	T2,RESTRT	;GET INTER-MONITOR WORD
  3981						;ONCE does a PUSHJ P,RECOMP+1 with T2 set up
  3982	023234	612340	000010		TDNE	T2,T3		;IS USER ACTION DEFINED?
  3983	023235	263040	000000		 POPJ	P,		;YES
  3984				IFCPU (KI),<RDAPR T1>		;READ SENSE SWITCHES
  3985				IFCPU (F3),<DATAI APR,T1>	;READ PANEL SWITCHES
  3986	023236	260040	000000*	IFCPU (KL),<PUSHJ P,SPCGSW##>	;GET KLDCP SWITCHES
  3987				IFCPU (KS),<MOVE T1,KSSS4>	;GET SSW WORD
  3988				IFCPU (KI),<TLNE T1,SS4>	;IS SS4 ON?
  3989	023237	602300	000004	IFNCPU(KI),<TRNE T1,SS4>	;IS SS4 ON?
  3990					 JRST	[LSH	T3,-NUMREV	;SET SELECTED
  3991						 TDO	T2,T3		; ACTION BIT
  3992	023240	254000	025142			 POPJ	P,]
  3993	023241	242340	777770		LSH	T2,-RENUM		;NO: RETURN MONITOR ACTION
  3994	023242	263040	000000		POPJ	P,
  3995
  3996				;MACRO TO DEFINE RESTART SYMBOLS AND BYTE POINTERS.
  3997				; SYMBOL SUFFIX INERPRETATIONS:
  3998				;	'A'  [USER SELECTED] RESTART ACTION.
  3999				;	'D'  DEFINITION STATE OF USER ACTION.
  4000				;	'M'  MONITOR RESTART ACTION.
  4001				;
  4002				DEFINE RESYM (DCNAM,DCS,ACT)<
  4003				  INTERN  REUSER,REY'DCNAM'A,REY'DCNAM'M,RESCOD,RE.'DCNAM'D,DCSIZ
  4004					DCSIZ==DCS
  4005					RESCOD=='RES'			;INTER-MONITOR WORD VALIDATOR
  4006					REUSER:	EXP	0		;RECEPTACLE FOR USER RESTART
  4007					NUMREV==1			;COUNT NUM OF
  4008					IRP ACT, <NUMREV==NUMREV+1>	; RESTART TYPES
  4009					RENUM==DCSIZ+2*NUMREV-1		;NUMBER OF RESTART BITS
  4010					REYMON: POINT DCSIZ+NUMREV-1,RESTRT,35-RENUM
  4011					REY'DCNAM'A: POINT DCSIZ,RESTRT,35
  4012					RE.'DCNAM'D==1_<DCSIZ+NUMREV-1>
  4013					REY'DCNAM'M: POINT DCSIZ,RESTRT,35-RENUM
  4014				  INTERN  DCNAM'FULL,DCNAM'FAST, DCNAM'NONE
  4015					DCNAM'FULL==7
  4016					DCNAM'FAST==1
  4017					DCNAM'NONE==0
  4018					REXX==1_DCSIZ
  4019					IRP ACT, <RE.'ACT'A==REXX
  4020						  RE.'ACT'D==REXX_NUMREV
  4021						  RE.'ACT'M==REXX_RENUM
  4022						  REXX==REXX_1>
  4023					RE.'DCNAM'W==1B19
  4024				>
  4025
  4026					LALL
  4027				RESYM (DC,DC.SIZ,<ON,BT>);CREATE SYMBOLS FOR THE 3 BIT DSKCLN TYPE
  4028
  4029				  INTERN  REUSER,REYDCA,REYDCM,RESCOD,RE.DCD,DCSIZ
  4030			000003		DCSIZ==DC.SIZ
COMMON - MONITOR COMMON DATA AREA AND CONFIGURATION DEFINITION - V534	MACRO 12.5-46.0 14:23 13-JAN-88 PAGE 54-2
COMMON.MAC	 7-DEC-87 14:36		CRSHOM - Write DSKCLN indicator in the HOM pages

  4031			624563		RESCOD=='RES'			;INTER-MONITOR WORD VALIDATOR
  4032	023243	000000	000000		REUSER:	EXP	0		;RECEPTACLE FOR USER RESTART
  4033			000001		NUMREV==1			;COUNT NUM OF
  4034					IRP
  4035			000002	NUMREV==NUMREV+1
  4036
  4037			000003	NUMREV==NUMREV+1
  4038
  4039					; RESTART TYPES
  4040			000010		RENUM==DCSIZ+2*NUMREV-1		;NUMBER OF RESTART BITS
  4041	023244	100500	000027		REYMON: POINT DCSIZ+NUMREV-1,RESTRT,35-RENUM
  4042	023245	000300	000027		REYDCA: POINT DCSIZ,RESTRT,35
  4043			000040		RE.DCD==1_<DCSIZ+NUMREV-1>
  4044	023246	100300	000027		REYDCM: POINT DCSIZ,RESTRT,35-RENUM
  4045				  INTERN  DCFULL,DCFAST, DCNONE
  4046			000007		DCFULL==7
  4047			000001		DCFAST==1
  4048			000000		DCNONE==0
  4049			000010		REXX==1_DCSIZ
  4050					IRP
  4051			000010	RE.ONA==REXX
  4052			000100			  RE.OND==REXX_NUMREV
  4053			004000			  RE.ONM==REXX_RENUM
  4054			000020			  REXX==REXX_1
  4055
  4056			000020	RE.BTA==REXX
  4057			000200			  RE.BTD==REXX_NUMREV
  4058			010000			  RE.BTM==REXX_RENUM
  4059			000040			  REXX==REXX_1
  4060
  4061
  4062			200000		RE.DCW==1B19
  4063
  4064							; FIELD 'DC' AND FOR RESTART CONDITIONS
  4065							; 'ON' - AUTO/MANUAL ONCE AND
  4066					SALL		; 'BT' - STRING/MANUAL BOOTS
  4067
  4068				INTERN	RE.ONA,RE.OND
  4069
  4070			000030	BTSTLN==:^D24			;MAX CHARS IN BOOTS COMMAND STRING
  4071	023247			BOOTXT:
  4072	023247	276101	506400	BTSTR::	BYTE	(7)"/","D",15,15,0	;DEFAULT STRING: DUMP MEM,
  4073									; LOAD AND RUN DEFAULT MON
  4074	023250				BLOCK	BTSTLN/5
  4075
  4076				EXTERN	PMDRD,PMDWT		;Defined in MONBTS
  4077
  4078				;Type date and time on CTY
  4079
  4080	023254	261040	000007	CTYTIM::PUSH	P,T2		;PRESERVE T2
  4081	023255	261040	000000*		PUSH	P,COMTOA	;SAVE CURRENT TYPEOUT ROUTINE
  4082	023256	201300	000000*		MOVEI	T1,CTYTYO##	;Output to the CTY without interrupts
  4083	023257	202300	023255*		MOVEM	T1,COMTOA	; (no jobs are scheduled when CTYTYO is used)
COMMON - MONITOR COMMON DATA AREA AND CONFIGURATION DEFINITION - V534	MACRO 12.5-46.0 14:23 13-JAN-88 PAGE 54-3
COMMON.MAC	 7-DEC-87 14:36		CRSHOM - Write DSKCLN indicator in the HOM pages

  4084	023260	260040	000000*		PUSHJ	P,LOCTIM##	;Output time
  4085	023261	260040	022271*		PUSHJ	P,CRLF##
  4086	023262	262040	023257*		POP	P,COMTOA	;Restore typeout address
  4087	023263	262040	000007		POP	P,T2
  4088	023264	263040	000000		POPJ	P,
  4089
COMMON - MONITOR COMMON DATA AREA AND CONFIGURATION DEFINITION - V534	MACRO 12.5-46.0 14:23 13-JAN-88 PAGE 55
COMMON.MAC	 7-DEC-87 14:36		COMMON SUBROUTINE RETURNS

  4090				SUBTTL	COMMON SUBROUTINE RETURNS
  4091
  4092	023265	350001	000000	CPOPJ2::AOS	(P)		;DOUBLE SKIP SUBROUTINE RETURN
  4093	023266			RSKP::!				;FOR MACSYM USERS
  4094	023266	354001	000000	CPOPJ1::AOSA	(P)		;SKIP SUBROUTINE RETURN
  4095	023267	202004	000002	DPOPJ::	MOVEM	S,DEVIOS(F)	;DEPOSIT I/O STATUS WORD IN DDB
  4096	023270			RTN::!
  4097	023270	263040	000000	CPOPJ::	POPJ	P,
  4098
  4099	023271	354001	777777	TPOPJ1::AOSA	-1(P)		;RESTORE T1 THEN SKIP RETURN
  4100	023272	262040	000007	TTPOPJ::POP	P,T2
  4101	023273	262040	000006	TPOPJ::	POP	P,T1		;RESTORE T1
  4102	023274	263040	000000		POPJ	P,		;AND RETURN
  4103	023275			JPOPJ1::			;DUPLICATE NAME (PREFERRED)
  4104	023275	350001	777777	IPOPJ1::AOS	-1(P)		;SET FOR SKIP RETURN
  4105	023276			JPOPJ::				;DUPLICATE NAME (PREFERRED)
  4106	023276	262040	000002	IPOPJ::	POP	P,J		;RESTORE J (USUALLY JOB OR HIGH SEG NUMBER)
  4107	023277	263040	000000		POPJ	P,
  4108	023300	262040	000000		POP	P,
  4109	023301	350001	777777	T2POJ1::AOS	-1(P)
  4110	023302	262040	000007	T2POPJ::POP	P,T2		;RESTORE T2
  4111	023303	263040	000000		POPJ	P,
  4112	023304	262040	000013	MPOPJ::	POP	P,M
  4113	023305	263040	000000		POPJ	P,
  4114	023306	304000	000000	WPOPJX::CAIA			;NETSER PUSHES THIS ADDR ON THE STACK THEN
  4115	023307	350001	777777	WPOPJ1::AOS	-1(P)		; EVENTUALLY DOES A CPOPJ1 RETURN
  4116	023310	262040	000012	WPOPJ::	POP	P,W
  4117	023311	263040	000000		POPJ	P,
  4118	023312	262040	000010	T3POPJ::POP	P,T3
  4119	023313	263040	000000		POPJ	P,
  4120	023314	262040	000016	P3POPJ::POP	P,P3
  4121	023315	263040	000000		POPJ	P,
  4122
  4123
  4124	023316	262040	000004	FUPOJ1::POP	P,F
  4125	023317			UPOPJ1::
  4126	023317	354001	777777	LPOPJ1::AOSA	-1(P)		;SKIP AND RESTORE LINE
  4127	023320	262040	000004	FUPOPJ::POP	P,F
  4128	023321			UPOPJ::
  4129	023321	262040	000005	LPOPJ::	POP	P,U		;RESTORE LINE AND RETURN
  4130	023322	263040	000000		POPJ	P,0		;RETURN
  4131	023323	350001	777777	FPOPJ1::AOS	-1(P)
  4132	023324	262040	000004	FPOPJ::	POP	P,F		;RESTORE F
  4133	023325	263040	000000		POPJ	P,0		;RETURN
  4134	023326	634300	000006	ZPOPJ::	TDZA	T1,T1
  4135	023327	476000	000006	M1POPJ::SETOM	T1
  4136	023330	263040	000000		POPJ	P,
  4137
  4138
  4139	023331	312100	022542	ANYCPU::CAME	J,.CPJOB
  4140	023332	350001	000000		 AOS	(P)
  4141	023333	263040	000000		POPJ	P,		;TURN ON DEVICE PI LEVEL
  4142
COMMON - MONITOR COMMON DATA AREA AND CONFIGURATION DEFINITION - V534	MACRO 12.5-46.0 14:23 13-JAN-88 PAGE 55-2
COMMON.MAC	 7-DEC-87 14:36		COMMON SUBROUTINE RETURNS

  4143	023334	700600	000200	ONPOPJ::SYSPIN			;Turn on PI system
  4144	023335	263040	000000		POPJ	P,
  4145
  4146				DEFINE	NTGIVE,<		;;ROUTINE TO GIVE UP THE INTERLOCK ON AN ERROR
  4147				;*;	IFNDEF NTLERR,<EXTERNAL NTLERR>
  4148				;*;	PUSHJ	P,NTLERR>	;;GIVE UP THE INTERLOCK ONLY IF WE OWN IT
  4149
  4150	023336			GIVLOK::NTGIVE
  4151	023336	263040	000000		POPJ	P,
COMMON - MONITOR COMMON DATA AREA AND CONFIGURATION DEFINITION - V534	MACRO 12.5-46.0 14:23 13-JAN-88 PAGE 56
COMMON.MAC	 7-DEC-87 14:36		COMMON SUBROUTINE RETURNS

  4152				;SUBROUTINES TO SAVE AND RESTORE PRESERVED ACS
  4153
  4154	023337	261040	000014	SAVE1::	PUSH	P,P1		;JSP T4,SAVE1 to save P1
  4155	023340	260051	000000		PUSHJ	P,(T4)
  4156	023341	334000	000000		  SKIPA
  4157	023342	350001	777777		AOS	-1(P)
  4158	023343	254000	023373		JRST	RES1
  4159
  4160	023344	261040	000014	SAVE2::	PUSH	P,P1		;JSP T4,SAVE2 to save P1 and P2
  4161	023345	261040	000015		PUSH	P,P2
  4162	023346	260051	000000		PUSHJ	P,(T4)
  4163	023347	334000	000000		  SKIPA
  4164	023350	350001	777776		AOS	-2(P)
  4165	023351	254000	023372		JRST	RES2
  4166
  4167	023352	261040	000014	SAVE3::	PUSH	P,P1		;JSP T4,SAVE3 to save P1,P2,P3
  4168	023353	261040	000015		PUSH	P,P2
  4169	023354	261040	000016		PUSH	P,P3
  4170	023355	260051	000000		PUSHJ	P,(T4)
  4171	023356	334000	000000		  SKIPA
  4172	023357	350001	777775		AOS	-3(P)
  4173	023360	254000	023371		JRST	RES3
  4174
  4175	023361	261040	000014	SAVE4::	PUSH	P,P1		;JSP T4,SAVE4 to save P1,P2,P3,P4
  4176	023362	261040	000015		PUSH	P,P2
  4177	023363	261040	000016		PUSH	P,P3
  4178	023364	261040	000017		PUSH	P,P4
  4179	023365	260051	000000		PUSHJ	P,(T4)
  4180	023366	334000	000000		  SKIPA
  4181	023367	350001	777774		AOS	-4(P)
  4182	023370	262040	000017		POP	P,P4
  4183	023371	262040	000016	RES3:	POP	P,P3
  4184	023372	262040	000015	RES2:	POP	P,P2
  4185	023373	262040	000014	RES1:	POP	P,P1
  4186	023374	263040	000000		POPJ	P,
COMMON - MONITOR COMMON DATA AREA AND CONFIGURATION DEFINITION - V534	MACRO 12.5-46.0 14:23 13-JAN-88 PAGE 57
COMMON.MAC	 7-DEC-87 14:36		SYSTEM BYTE POINTERS

  4187				SUBTTL	SYSTEM BYTE POINTERS
  4188
  4189	023375	270400	000013	PUUOAC::POINT	4,M,12		;M AC FIELD
  4190	023376	000400	000000	PIOMOD::POINT	4,S,35		;MODE BITS
  4191			350700	XP PJBNLH,350700		;LEFT HALF OF "POINT 7,XXX,6"
  4192				IFG JOBS-<1_<<PJBNLH&007700>_-6>>,<;Check on maximum allowed by byte pointer
  4193					PRINTX ?PJBLNH can't handle that many jobs
  4194					TOOBIG##>		;Cause an undefined global at LOAD time
  4195			000001	DEVJOB==:DEVCHR	;BYTE(7)JOB(3)TIM(7)CNT(7)UNIT(12)SIZE
  4196	023377	350704	000001	PJOBN::	XWD PJBNLH+F,DEVJOB	;DEVICE JOB ASSIGNMENT
  4197	023400	140704	000001	PUNIT::	POINT	7,DEVCHR(F),23	;DEVICE UNIT NUMBER
  4198	023401	250502	007224	PJBSTS::POINT	JWSIZ,JBTSTS(J),JWPOS ;JOB WAIT STATE (QUEUE) CODE
  4199	023402	250500	000007	PJBST2::POINT	JWSIZ,T2,JWPOS	;ONE FOR T2
  4200								;IN JOB STATUS WORD
  4201	023403	320304	000001	PDVTIM::POINT	3,DEVCHR(F),9	;CODE FOR TIME DEVICE MAY
  4202								;BE ACTIVE BEFORE BEING DECLARED
  4203								;HUNG. N MEANS 2^N-1 SECONDS
  4204	023404	230704	000001	PDVCNT::POINT	7,DEVCHR(F),16	;COUNTED DOWN EACH SECOND,
  4205								;1 TO 0 TRANSITION MEANS HUNG DEVICE
  4206	023405	410204	000007	IADPTR::POINT	2,DEVIAD(F),2	;COUNT OF NUMBER OF USER CHANNELS INITED
  4207								; ON THIS DEVICE (DECTAPE ONLY)
  4208	023406	420204	000011	DEYCLS::POINT 2,DEVCLS(F),1	;DEVICE CLASS CODE
  4209	023407	260404	000011	DEYMCT::POINT 4,DEVCLS(F),13	;DEVICE MAX FREE CORE COUNT
  4210	023410	220404	000011	DEYTCT::POINT 4,DEVCLS(F),17	;DEVICE CURRENT FREE CORE COUNT
  4211	023411	001402	010524	JBYQNT::POINT JBSQNT,JBTICT(J),JBNQNT ;POINTER TO QUANTUM RUN TIME FOR JOB
  4212								;(NO OF JIFFIES BEFORE NEXT LOWER RUN QUEUE)
  4213
  4214	023412			CTXTAB::			;TABLE OF BYTE POINTERS TO DISK
  4215								; ADDRESSES. ALSO USED TO COMPUTE
  4216								; EFFECTIVE ADDRESSES IN JBTCTX
  4217			000000	ZZ==0
  4218				REPEAT NCTXPG,<
  4219					POINT 27,JBTCTX+ZZ(J),35 ;POINTER TO DISK ADDRESS FOR PAGE ZZ
  4220					ZZ==ZZ+JOBN
  4221				>
  4222	023412	003302	007524
  4223	023413	003302	007624
  4224	023414	003302	007724
  4225
  4226	023415	420202	010224	JBYSWS::POINT 2,JBTPGO(J),1	;SWAPPER STATE
  4227	023416	301202	010224	JBYACT::POINT 10,JBTPGO(J),11	;NUMBER OF ACTIVE LMAP SLOTS
  4228	023417	220502	010224	JBYCTR::POINT 5,JBTPGO(J),17	;NUMBER OF PAGES RESERVED FOR
  4229								;CONTEXT PAGES
  4230				IFG NCTXPG-<1_<5-1>>,<PRINTX JBYCTR FIELD OVERFLOW>
  4231	023420	360602	010424	JBYPPP::POINT 6,JBTMWS(J),5	;# OF PER-PROCESS PAGES
  4232	023421	241202	010424	JBYMWS::POINT 10,JBTMWS(J),15	;MONITOR WORKING SET SIZE
  4233	023422	121202	010424	JBYMWL::POINT 10,JBTMWS(J),25	;LIMIT
  4234	023423	001202	010424	JBYUWS::POINT 10,JBTMWS(J),35	;USER WORKING SET SIZE.
  4235
  4236	023424	002702	012424	JBYWCH::POINT 23,JBTWCH(J),35 ;BYTE POINTER TO TIME OF DAY STARTED WAITING
  4237
  4238	023425	240202	013124	JBYRPT::POINT 2,JBTLIC(J),LICRPS
  4239	023426	220202	013124	JBYWPT::POINT 2,JBTLIC(J),LICWPS
COMMON - MONITOR COMMON DATA AREA AND CONFIGURATION DEFINITION - V534	MACRO 12.5-46.0 14:23 13-JAN-88 PAGE 57-2
COMMON.MAC	 7-DEC-87 14:36		SYSTEM BYTE POINTERS

  4240			000021	JBLMSZ==:^D17				;INACTIVITY TIMEOUT LIMIT FIELD SIZE
  4241			377777	JBLMSK==:<1_JBLMSZ>-1			;INACTIVITY TIMEOUT LIMIT MASK
  4242			000017	INADFL==:^D15				;INACTIVITY TIMEOUT DEFAULT LIMIT
  4243			400000	INAHIT==:(1B0)				;INACTIVITY TIMEOUT LIMIT HAS BEEN HIT
  4244	023427	222102	017424	JBYINA:: POINT JBLMSZ,JBTINA(J),17	;POINTER TO INACTIVITY LIMIT FIELD (J)
  4245	023430	222107	017424	JBYIN2:: POINT JBLMSZ,JBTINA(T2),17	;POINTER TO INACTIVITY LIMIT FIELD (T2)
  4246	023431	070202	017024	PVYMOD::POINT PVSMOD,JBTPRV(J),PVNMOD
  4247	023432	070206	017024	PVZMOD::POINT PVSMOD,JBTPRV(T1),PVNMOD
  4248	023433	220702	017024	PVYCOR::POINT PVSCOR,JBTPRV(J),PVNCOR
  4249	023434	340602	017024	PVYTIM::POINT PVSTIM,JBTPRV(J),PVNTIM
  4250	023435	000702	017024	PVYCRM::POINT PVSCRM,JBTPRV(J),PVNCRM
  4251	023436	170202	017024	PVYHNG::POINT PVSHNG,JBTPRV(J),PVNHNG
  4252
  4253				;;;;;;;;;;;;;;;;;;;;;;;;;;;;;;;;;;;;;;;;;;;;;;;;;;;;;;;;;;;;;;;;;;;;;;;;;;;
  4254				;;;;;;;;;;;;;;;;;;;;;;;;;;;;;;;;;;;;;;;;;;;;;;;;;;;;;;;;;;;;;;;;;;;;;;;;;;;
  4255				;;;									;;;
  4256				;;;	NOTE:  This following table is in order by INTASS cause number	;;;
  4257				;;;	       and should not be re-arranged for any reason.		;;;
  4258				;;;									;;;
  4259				;;;;;;;;;;;;;;;;;;;;;;;;;;;;;;;;;;;;;;;;;;;;;;;;;;;;;;;;;;;;;;;;;;;;;;;;;;;
  4260				;;;;;;;;;;;;;;;;;;;;;;;;;;;;;;;;;;;;;;;;;;;;;;;;;;;;;;;;;;;;;;;;;;;;;;;;;;;
  4261
  4262	023437			INTBYP::	; INTASS interrupt channel assignments
  4263	023437	360600	373420	JBYUUO::POINT 6,%UPT+UPTTPN,5	; (0) UUO TRAP NUMBER
  4264	023440	300600	373420	JBYCLK::POINT 6,%UPT+UPTTPN,11	; (1) CLOCK TRAP NUMBER
  4265	023441	220600	373420	JBYPGT::POINT 6,%UPT+UPTTPN,17	; (2) PAGE TRAP NUMBER
  4266	023442	140600	373420	JBYHNG::POINT 6,%UPT+UPTTPN,23	; (3) HUNG DEVICE TRAP NUMBER
  4267	023443	360602	012524	JBYTIM::POINT 6,JBTINT(J),5	; (4) TIMER TRAP NUMBER
  4268	023444	060600	373420	JBYERR::POINT 6,%UPT+UPTTPN,29	; (5) DEVICE ERROR TRAP NUMBER
  4269	023445	300602	012524	JBYWAK::POINT 6,JBTINT(J),11	; (6) WAKE UUO
  4270	023446	360600	373421	JBYSAL::POINT 6,%UPT+UPTTP1,5	; (7) UWS FAULT, SIZE AT LEAST LIMIT
  4271	023447	300600	373421	JBYSLL::POINT 6,%UPT+UPTTP1,11	;(10) UWS FAULT, SIZE LESS THAN LIMIT
  4272	023450	220600	373421	JBYREF::POINT 6,%UPT+UPTTP1,17	;(11) REF BIT TRAP
  4273	023451	140600	373421	JBYPER::POINT 6,%UPT+UPTTP1,23	;(12) TRAP ON I/O ERRORS.
  4274	023452	220602	012524	JBYNTQ::POINT 6,JBTINT(J),17	;(13) NOTICE TO QUIT (TO BE HUNG)
  4275	023453	140602	012524	JBYEXC::POINT 6,JBTINT(J),23	;(14) Exit in any/all child frame
  4276	023454	060600	373421	JBYMCY::POINT 6,%UPT+UPTTP1,29	;(15) Micro-cycle interrupt timer
  4277	023455	060602	012524	JBYLIM::POINT 6,JBTINT(J),29	;(16) TRU limit interrupt
  4278			000017	INTRNM==:.-INTBYP	;Number of INTASS interrupts
  4279
  4280	023456	331102	016424	JBYSC1::POINT 9,JBTSCA(J),8	;Numerator for non-kcore factor
  4281	023457	221102	016424	JBYSC2::POINT 9,JBTSCA(J),17	;Denominator for non-kcore
  4282	023460	111102	016424	JBYSC3::POINT 9,JBTSCA(J),26	;Num. for kcore factor
  4283	023461	001102	016424	JBYSC4::POINT 9,JBTSCA(J),35	;Denom. for kcore (or 0 if absolute)
  4284
  4285				;Byte pointers formerly in COMMOD
  4286	023462	301402	017763	JBYIRD::POINT JBSIRD,JBTRCT(J),JBNIRD	;BYTE POINTER
  4287	023463	003002	017763	JBYRCT::POINT JBSRCT,JBTRCT(J),JBNRCT	;BYTE POINTER
  4288	023464	301402	020063	JBYIWT::POINT JBSIWT,JBTWCT(J),JBNIWT	;BYTE POINTER
  4289	023465	003002	017763	JBYWCT::POINT JBSRCT,JBTRCT(J),JBNRCT	;BYTE POINTER
COMMON - MONITOR COMMON DATA AREA AND CONFIGURATION DEFINITION - V534	MACRO 12.5-46.0 14:23 13-JAN-88 PAGE 58
COMMON.MAC	 7-DEC-87 14:36		SYSTEM BYTE POINTERS

  4290				COMMENT $
  4291				HERE IS THE INNFORMATION FOR THE PAGE TABLE. THIS TABLE
  4292				IS USED FOR SWAP IN AND OUT AND OTHER THINGS. THE BYTES
  4293				ARE ARRANGED SO THAT THE MOST FREQUENTLY USED BYTES ARE
  4294				RIGHT JUSTIFIED IN THE WORD TO MINIMIZE SHIFTING TIME REQUIRED
  4295				DURING THE BYTE INSTRUCTIONS.
  4296
  4297				THIS TABLE IS ALLOCATED AT ONCE TIME AND ALL POINTER ADDRESSES ARE
  4298				ADJUSTED. THE POINTER WILL HAVE A LOWER ADDRESS THAN THE FIRST
  4299				ENTRY SO THAT ALL THE MONITOR PAGES ARE NOT POINTED TO
  4300				$
  4301
  4302				;FIRST WORD
  4303
  4304	023466	310603	000000	PGYUNU::POINT 6,.-.(PG),10	;UNUSED
  4305	023467	151403	000000	PGYPGO::POINT 12,.-.(PG),22	;OUTPUT WAIT FOR THIS PAGE LINK
  4306	023470	001503	000000	PGYFPL::POINT 13,.-.(PG),35	;FORWARD LINK (PAGE NUMBER)
  4307							;PGYFPL MUST BE IN THE FIRST WORD.
  4308
  4309				;SECOND WORD
  4310
  4311	023471	152603	000000	PGYLMA::POINT 22,.-.(PG),22	;LMA CHAIN START (LINKS
  4312			023471	SNDPGY==:PGYLMA	;DEFINED FOR ONCE TIME.  MUST BE A PNTR
  4313							;TO THE SECOND WORD, AND PGYFPL MUST BE
  4314							;IN THE FIRST WORD.
  4315								; ALL ACTIVE SLOTS FOR CORE PAGE
  4316	023472	311203	000000	PGYLMV::POINT 10,.-.(PG),10	;VP NUMBER OF NEXT SLOT
  4317	023473	151403	000000	PGYLMJ::POINT 12,.-.(PG),22	;JOB NUMBER OF NEXT SLOT, 0 IF END
  4318	023474	001503	000000	PGYBPL::POINT 13,.-.(PG),35	;BACKWARD LINK (PAGE NUMBER)
  4319
  4320				;THIRD WORD
  4321
  4322	023475	410303	000000	PGYLST::POINT 3,.-.(PG),2	;WHICH LIST PAGE IS ON (SEE CORE1
  4323								; FOR LIST NUMBER DEFINITIONS)
  4324			000077		XP DIOMAX,77		;MAXIMUM THAT DIO CAN BE.
  4325	023476	330603	000000	PGYDIO::POINT 6,.-.(PG),8	;DIRECT I/O COUNT (TAPE, NOT DISK)
  4326			001000	  XP PGPDIO,001000
  4327	023477	003303	000000	PGYADR::POINT 27,.-.(PG),35	;DISK ADDRESS. (RETRIEVAL POINTER FORMAT)
  4328	023500	231003	000000	PGYUNI::POINT 8,.-.(PG),16	;UNIT NUMBER PART
  4329	023501	002303	000000	PGYPNO::POINT 19,.-.(PG),35	;PAGE ADDRESS WITHIN UNIT
  4330
  4331				;FOURTH WORD
  4332
  4333	023502	152603	000000	PGYSPT::POINT 22,.-.(PG),22	;SPT BASE + OFFSET
  4334	023503	212203	000000	PGYSPB::POINT 18,.-.(PG),18	;SPT BASE
  4335	023504	150403	000000	PGYSPO::POINT 4,.-.(PG),22	;OFFSET
  4336	023505	001503	000000	PGYCHT::POINT 13,.-.(PG),35	;LINK TO NEXT CORE PAGE ON CHT
  4337
  4338				;FIFTH WORD
  4339
  4340	023506	430103	000000	PGYNXM::POINT 1,.-.(PG),0	;NXM
  4341	023507	410203	000000	PGYERR::POINT 2,.-.(PG),2	;IODERR,IODTER
  4342	023510	400103	000000	PGYSIP::POINT 1,.-.(PG),3	;SWAP IN IN PROGRESS
COMMON - MONITOR COMMON DATA AREA AND CONFIGURATION DEFINITION - V534	MACRO 12.5-46.0 14:23 13-JAN-88 PAGE 58-2
COMMON.MAC	 7-DEC-87 14:36		SYSTEM BYTE POINTERS

  4343	023511	370103	000000	PGYSOP::POINT 1,.-.(PG),4	;SWAP OUT IN PROGRESS
  4344	023512	360103	000000	PGYDRT::POINT 1,.-.(PG),5	;DIRTY
  4345
  4346	023513	360603	000000	PGYSTS::POINT 6,.-.(PG),5	;CORE PAGE STATUS WORD
  4347			000040		XP PGPNXM,40		;BIT IN STATUS WORD FOR NXM
  4348			000020		XP PGPDER,20		;DEVICE ERROR
  4349			000010		XP PGPDTE,10		;DATA ERROR
  4350			000030		 XP PGMERR,PGPDER!PGPDTE ;MASK FOR ERRORS
  4351			000004		XP PGPSIP,4		;SWAP IN IN PROGRESS
  4352			000002		XP PGPSOP,2		;SWAP OUT IN PROGRESS
  4353								; MUST BE 1B34!! (SEE DECUSE)
  4354			000001		XP PGPDRT,1		;DIRTY
  4355								;MUST BE 1B35!! (SEE DECUSE)
  4356
  4357	023514	370203	000000	PGYSIO::POINT 2,.-.(PG),4	;COVERS SIP AND SOP.
  4358
  4359	023515	211503	000000	PGYATB::POINT 13,.-.(PG),18	;PLACE TO REMEMBER ATB ADDRESS WHILE
  4360								; PAGE IS ON LMA CHAIN (SO DON'T HAVE
  4361								; FIND LAST SLOT ON CHAIN TO FIND ATB)
  4362			377777		XP USEMAX,377777	;MAXIMUM THAT USE COUNT CAN BE.
  4363	023516	002103	000000	PGYUSE::POINT 17,.-.(PG),35	;NUMBER OF REASONS WHY PAGE IS IN CORE
  4364								;MUST BE RIGHT JUSTIFIED FOR AOS @PGYUSE.
  4365
  4366				;SIXTH WORD
  4367
  4368	023517	004403	000000	PGYCSH::POINT 36,.-.(PG),35	;WHOLE WORD (TO MAKE CODE FASTER)
  4369								; SAVED CACHE SWEEP SERIAL NUMBER.
  4370			000006	CNTPGY==:6		;NUMBER OF PGY WORDS (FOR ONCE).
  4371
  4372	023520	000777	777777	ADRNCT::EXP	1B<35-27>-1	;IF PGYADR IS EQUAL TO THIS, CORE PAGE
  4373							; IS NOT IN CHT AND HAS NO DP ASSOCIATED WITH IT.
  4374	023521	000777	777776	ADRDUM::EXP	1B<35-27>-2	;IF PGYADR IS EQUAL TO THIS, CORE PAGE
  4375							; HAS NO DISK PAGE ASSOCIATED WITH IT, BUT
  4376							; CAN BE USED AS A PRIVATE PAGE AS LONG AS ITS NOT
  4377							; DEACTIVATED. USED BEFORE DSKCLN FINISHED FIXING DISK.
  4378				;(WAS A PROBLEM WITH DSKCLN DOING SUPER I/O AND WRITING IN ITSELF,
  4379				; AND DSKCLN OVERWRITING RIBS AFTER IT HAD CHECKED THEM BY
  4380				; WRITING IN ITS OWN CORE IMAGE)
  4381
  4382				IFCPU (KL),<
  4383				;HERE ARE FOUR LOCATIONS WHICH HAVE THE ADDRESSES OF FOUR CACHED
  4384				; PAGES. BY LOADING THE RELATIVE ADDRESS IN THE PAGE
  4385				; INTO T1 AND THEN REFERENCING @CSRTAB+0,1,2,3, ONE CAN ENSURE
  4386				; THAT A CERTAIN FOUR WORD CHUNK HAS BEEN UNLOADED FROM THE CACHE
  4387				; WITHOUT HAVING TO DO A CACHE SWEEP.
  4388				;
  4389				;USE THE MACRO "CSHREF" TO DO THIS.
  4390
  4391	023522	000006	000000	CSRTAB::.-.(T1)
  4392	023523	000006	000000		.-.(T1)
  4393	023524	000006	000000		.-.(T1)
  4394	023525	000006	000000		.-.(T1)
  4395				>;END IFCPU KL
COMMON - MONITOR COMMON DATA AREA AND CONFIGURATION DEFINITION - V534	MACRO 12.5-46.0 14:23 13-JAN-88 PAGE 58-3
COMMON.MAC	 7-DEC-87 14:36		SYSTEM BYTE POINTERS

  4396				;TABLES FOR MWS ADJUST AND PAGE AGEING CODE
  4397
  4398	023526			AGEHST::BLOCK AGEMAX+1	;HISTOGRAM FOR OBSERVING AGE DISTRIBUTION
  4399
  4400	023536			AGEPTR::		;TABLE OF BYTE POINTERS FOR ACCESSING
  4401							;AGE CELLS
  4402			000002	ZZBIT=2
  4403				REPEAT <AGECPW>,<
  4404					POINT AGESIZ,%UPT+UPTAGE(T1),ZZBIT
  4405					ZZBIT=ZZBIT+AGESIZ
  4406				>
  4407	023536	410306	374576
  4408	023537	360306	374576
  4409	023540	330306	374576
  4410	023541	300306	374576
  4411	023542	250306	374576
  4412	023543	220306	374576
  4413	023544	170306	374576
  4414	023545	140306	374576
  4415	023546	110306	374576
  4416	023547	060306	374576
  4417	023550	030306	374576
  4418	023551	000306	374576
  4419
  4420
COMMON - MONITOR COMMON DATA AREA AND CONFIGURATION DEFINITION - V534	MACRO 12.5-46.0 14:23 13-JAN-88 PAGE 59
COMMON.MAC	 7-DEC-87 14:36		SYSTEM BYTE POINTERS

  4421				;DEFINE PI CHANNEL SAVE AND RESTORE ROUTINES IF A DEVICE IS ON THE CHANNEL
  4422
  4423			000042		PDL==42		;LENGTH OF INTERRUPT PI PUSH DOWN LIST
  4424
  4425				DEFINE CHAN (PI)<
  4426					XLIST
  4427				   IFNDEF ACBPI'PI,<;IF NO AC BLOCK ALLOCATED TO THIS CHANNEL,
  4428					IFNDEF HIGAC'PI,<XP HIGHAC,17>
  4429				  >;END IFNDEF ACBPI'PI
  4430					IFDEF HIGAC'PI,<
  4431					IFGE HIGAC'PI-10,<XP HIGHAC,<HIGAC'PI>>
  4432					IFL HIGAC'PI-11,<XP HIGHAC,11>
  4433				>
  4434				  IFNDEF ACBPI'PI,<;IF NO AC BLOCK ALLOCATED TO THIS CHANNEL,
  4435					HIACBL==HIGHAC
  4436				  >;END IFNDEF ACBPI'PI
  4437					INTERNAL SAV'PI,RET'PI,CH'PI,CH'PI'JEN,CH'PI'P,CH'PI'PD1
  4438				CH'PI:	0		;PC STORED HERE BY JSR ON INTERRUPT TO CHANNEL PI
  4439					JEN @CH'PI	;LAST INSTRUCTION ON CONSO DEV, CHAIN
  4440
  4441				IFNDEF ACBPI'PI,<;IF NO AC BLOCK ALLOCATED TO THIS CHANNEL, GENERATE NORMAL AC SAVE CODE.
  4442
  4443				;HERE FROM AN INTERRUPT ROUTINE WHICH HAS FOUND ITS DEVICE NEEDS SERVICE
  4444				;SAVE ACS 0 THRU HIGHAC, CALLED BY JSR, SETS UP P TO PUSH DOWN LIST FOR THIS PI
  4445
  4446				SAV'PI:	0		;CALLED BY JSR
  4447				IFCPU (KS),<TBSAVE TBVA'PI>	;SAVE CURRENT TIME BASE VALUE
  4448					EXCH	HIGHAC,CH'PI	;;GET PI, SAVE HIGHAC
  4449					TLNN	HIGHAC,PC.USR	;;IF FROM USER MODE,
  4450					JRST	SAV'PI'A		;;(NOT USER MODE)
  4451					EXCH	HIGHAC,CH'PI	;NO NEED TO SAVE ANYTHING
  4452					EXECAC
  4453					MOVE	P,CH'PI'P	;;GET PDL FOR THIS PI LEVEL
  4454					JRST	@SAV'PI		;;AND RETURN.
  4455
  4456				SAV'PI'A:
  4457				IFNCPU(KI),<RDUBR	SAVPG'PI>	;;NEED TO SAVE STATE ON KL
  4458					EXCH	HIGHAC,CH'PI	;GET PC AND AC HIGHAC BACK IN RIGHT PLACES
  4459					MOVEM HIGHAC,SAVAC'PI+HIGHAC	;SAVE AC HIGHAC
  4460					MOVEI HIGHAC,SAVAC'PI	;SETUP TO SAVE 0 THRU HIGHAC-1
  4461					BLT HIGHAC,SAVAC'PI+HIGHAC-1	;SAVE ACS
  4462					MOVE P,CH'PI'P	;SETUP PUSH DOWN POINTER
  4463					JRST @SAV'PI			;RETURN TO CALLER AND PROCESS INTERRUPT
  4464				>;END IF HIGAC'PI
  4465
  4466				IFDEF ACBPI'PI,<;IF CHAN HAS AC BLK,THEN WE ARE TO USE AN AC BLOCK FOR THIS CHANNEL.
  4467				SAV'PI:	0		;JSR TO HERE
  4468				IFCPU (KS),<TBSAVE TBVA'PI>		;SAVE THE CURRENT TIME BASE VALUE
  4469					RDUBR	SAVPG'PI	;REMEMBER AC BLOCK SETTING
  4470					WRUBR	[LG.LAB+<ACBPI'PI>B8+<ACBPI'PI>B11]
  4471					MOVE	P,CH'PI'P	;GET PDL POINTER FOR THIS CHANNEL
  4472					JRST	@SAV'PI		;AND RETURN.
  4473				>;END IFDEF ACBPI'PI
COMMON - MONITOR COMMON DATA AREA AND CONFIGURATION DEFINITION - V534	MACRO 12.5-46.0 14:23 13-JAN-88 PAGE 59-2
COMMON.MAC	 7-DEC-87 14:36		SYSTEM BYTE POINTERS

  4474
  4475				;HERE FROM INTERRUPT ROUTINE WHEN IT HAS FINISHED SERVICING INTERRUPT
  4476				;RESTORE ACS AND DISMISS INTERRUPT
  4477				;USUALLY TRANSFERRED TO BY POPJ P,
  4478
  4479				IFNDEF ACBPI'PI,<;IF CHANNEL DOESN'T HAVE AN AC BLOCK,
  4480
  4481				RET'PI:	MOVE	HIGHAC,CH'PI	;;GET RETURN PC
  4482					TLNN	HIGHAC,PC.USR	;IF FROM USER MODE
  4483					JRST	RET'PI'A
  4484					USERAC			;;DON'T HAVE TO RESTORE
  4485					JRST	CH'PI'JEN
  4486
  4487				RET'PI'A:MOVSI HIGHAC,SAVAC'PI	;RESTORE ACS 0 THRU HIGHAC
  4488					BLT HIGHAC,HIGHAC
  4489				IFNCPU(KI),<WRUBR	SAVPG'PI>	;IF KL, NEED TO SWITCH BACK BY HAND.
  4490				>;END IFNDEF ACBPI'PI
  4491
  4492				IFDEF ACBPI'PI,<;IF AC BLOCK ASSIGNED TO THIS CHANNEL,
  4493
  4494				RET'PI:	MOVE	17,SAVPG'PI	;GET DATAI PAG WORD
  4495					TLZ	17,(LG.LUB+LG.LPC+LG.LAB-LG.LAB) ;JUST LG.LAB SET
  4496					WRUBR	17		;BACK TO ORIGINAL AC BLOCKS
  4497				>;END IFDEF ACBPI'PI
  4498				CH'PI'JEN:
  4499				IFCPU (KS),<	TBSET  TBVA'PI>		;RESET THE TIME BASE FOR KS
  4500						JEN @CH'PI		;DISMISS INTERRUPT ON THIS PI CHANNEL
  4501
  4502
  4503				SAVAC'PI:: BLOCK HIACBL+1
  4504				IFNCPU(KI),<
  4505				SAVPG'PI::BLOCK	1		;PLACE TO DO DATAI PAG TO IN KL VERSION
  4506				>;END IFNCPU (KI)
  4507				IFCPU (KS),<
  4508				TBVA'PI: 0			;2 WORDS FOR SAVING THE TIME BASE
  4509					 0>
  4510				CH'PI'P:	XWD -PDL+1,.+1		;INITIAL PUSH DOWN POINTER
  4511				CH'PI'PD1:	EXP RET'PI	;FIRST WORD ON LIST,
  4512								; POPJ WILL RETURN TO DISMISS INTERRUPT
  4513					BLOCK PDL-1		;PUSHDOWN LIST SPACE
  4514					LIST
  4515				>
  4516
  4517
COMMON - MONITOR COMMON DATA AREA AND CONFIGURATION DEFINITION - V534	MACRO 12.5-46.0 14:23 13-JAN-88 PAGE 60
COMMON.MAC	 7-DEC-87 14:36		SYSTEM BYTE POINTERS

  4518
  4519				;GENERATE THE CHANNEL SAVE ROUTINE ONLY FOR PI WHICH NEED THEM (ASGSAV MACRO USED)
  4520
  4521					IFN USED1, <CHAN 1>
  4522					IFN USED4, <CHAN 4>
  4523					IFN USED5, <CHAN 5>
  4524					IFN USED6, <CHAN 6>
  4525					IFN USED7, <CHAN 7>
  4526
  4527				;GENERATE NULL CHANNEL SAVE ROUTINES FOR THOSE CHANNELS NOT USED
  4528
  4529				DEFINE NULL (PI)<
  4530					XLIST
  4531				CH'PI::	0
  4532					JEN	@CH'PI
  4533					LIST
  4534				>
  4535
  4536				;GENERATE UNASSIGNED CHAN ROUTINES FOR THOSE CHANNELS NOT ASSIGNED
  4537
  4538				DEFINE UNASS (PI)<
  4539					XLIST
  4540				CH'PI::	0
  4541					MOVEM	T1,SAVAC'PI
  4542					MOVEI	T1,1_<7-PI>	;LOAD CHANNEL FLAG
  4543					ORM	T1,BADINT	;INDICATE ILL INT OCCURED ON THIS CHAN
  4544					WRPI	LI.COF!1_<7-PI>	;TURN CHANNEL OFF
  4545					MOVE	T1,SAVAC'PI
  4546					JEN	@CH'PI
  4547				SAVAC'PI: 0			;SAVE WORD
  4548					LIST
  4549				>
  4550
  4551					IFE USED2+UNASS2, <NULL 2>
  4552					IFE USED3+UNASS3, <NULL 3>
  4553					IFE USED4+UNASS4, <NULL 4>
  4554					IFE USED5+UNASS5, <NULL 5>
  4555					IFE USED6+UNASS6, <NULL 6>
  4556
  4557					IFN UNASS1, <UNASS 1>
  4558					IFN UNASS2, <UNASS 2>
  4559					IFN UNASS3, <UNASS 3>
  4560					IFN UNASS7, <UNASS 7>
COMMON - MONITOR COMMON DATA AREA AND CONFIGURATION DEFINITION - V534	MACRO 12.5-46.0 14:23 13-JAN-88 PAGE 61
COMMON.MAC	 7-DEC-87 14:36		SYSTEM BYTE POINTERS

  4561					IFE COREN, <COREN==^D256		;NO RESTRICTION IF 0 TYPED>
  4562			000010		XP USRLIM,COREN			;DEFINE GLOBAL RESTRICTING MAXIMUM SIZE OF
  4563									; CORE FOR ANY SINGLE USER
  4564									; ONCE ONLY CODE CAN ALTER THIS VALUE
  4565									; (PATCH RH CORLIM IN SYSINI)
  4566
  4567				;APR AND PI BITS
  4568					INTERN	REQCLK,PICLK
  4569					INTERNAL APRNOT
  4570
  4571			000001		CLKBIT==1
  4572					REPEAT 7-CLKCHN, <CLKBIT==CLKBIT*2>
  4573					INTERNAL CLKBIT
  4574			004001		REQCLK==1B24+CLKBIT	;REQUEST INTERRUPT ON LOW PRIORITY CLK CHANNEL
  4575			004201		PICLK==LI.PIN+REQCLK	;TURN ON PI,REQUEST INTERRUPT ON CLK CHANNEL
  4576				IFCPU (KI),<;ONLY NEEDED FOR KI10, WHICH HAS 2 PI ASSIGNMENTS INSTEAD OF 1.
  4577					XP APRCH2,<APRCHN_3+APRCHN>		;BOTH CLOCK AND ERROR
  4578				>;END IFCPU (KI)
  4579			077400	XP PIPROG,77400		;PI STATUS REGISTER
  4580							;ONES IF ANY PI'S IN PROGRESS
  4581							;DO NOT DEFINE IF P-6 SO UNDEFINED
  4582							;GLOBAL WILL BE CLUE TO P-6 USER
  4583							;TO CHANGE CODE
  4584			037400		APRNOT==PIPROG-<400_<7-APRCHN>>	;DEFINE ALL PI IN PROGRESS FLAGS EXCEPT
  4585									; APR FOR HALT TEST IN APRINT.
COMMON - MONITOR COMMON DATA AREA AND CONFIGURATION DEFINITION - V534	MACRO 12.5-46.0 14:23 13-JAN-88 PAGE 62
COMMON.MAC	 7-DEC-87 14:36		SYSTEM BYTE POINTERS

  4586				;SCANNER ENTRY POINTS AND BIT DEFINITIONS
  4587
  4588	024023			LINFLG::BLOCK NFLG		;FOR LINE OUTPUT BITS
  4589
  4590				;XP LINTBE,LINTAB+PORTN
  4591
  4592				;TELETYPE LINE CHARACTERISTICS (LH OF LINTAB)
  4593				;USED BY SCNSER
  4594
  4595			000200	XP TTVINI,200			;RUN INITIAL CUSP
  4596			000400	XP TTVIN2,400			;RUN INITIAL CUSP FROM SETUUO
  4597
  4598				;LINES TO RUN INITIA
  4599
  4600			000001	INI0==1	;LINE 0 INITIA AT START TIME
  4601			000001	IN21==1	;LINE 1 INITIA FROM SETUUP
  4602			000001	IN22==1	;ALSO LINE 2
  4603			000001	IN23==1	;AND LINE 3
  4604			000001	IN24==1	;AND LINE 4
  4605			000001	IN25==1	;AND LINE 5 (see INITIA.MAC for what these are used for)
  4606
COMMON - MONITOR COMMON DATA AREA AND CONFIGURATION DEFINITION - V534	MACRO 12.5-46.0 14:23 13-JAN-88 PAGE 63
COMMON.MAC	 7-DEC-87 14:36		SYSTEM BYTE POINTERS

  4607				;NOW DEFINE THE LINE TABLE FOR EACH TTY'S CHARACTERISTICS
  4608				;USING THE INFO FROM CONFIG, AND DATA FROM TTYTAB AREA.
  4609
  4610				DEFINE GENLIN(LIN)<ZZ==0
  4611				.GNLN(LIN,INI)
  4612				.GNLN(LIN,IN2)
  4613					XWD ZZ,0		;LINE LIN >
  4614
  4615				DEFINE .GNLN (N,BIT) <
  4616				IFDEF BIT'N,<ZZ==ZZ+BIT'N*TTV'BIT>
  4617				>
  4618
  4619	024030			LINTAB::	;LINE CHARACTERISTICS BITS (NOT CLEARED ON SYSTEM STARTUP)
  4620			000000			LIN==0
  4621				REPEAT PORTN+1,<GENLIN(\LIN)
  4622				                LIN==LIN+1>
  4623	024030	000200	000000
  4624	024031	000400	000000
  4625	024032	000400	000000
  4626	024033	000400	000000
  4627	024034	000400	000000
  4628	024035	000400	000000
  4629	024036	000000	000000
  4630	024037	000000	000000
  4631	024040	000000	000000
  4632	024041	000000	000000
  4633	024042	000000	000000
  4634	024043	000000	000000
  4635	024044	000000	000000
  4636	024045	000000	000000
  4637	024046	000000	000000
  4638	024047	000000	000000
  4639	024050	000000	000000
  4640	024051	000000	000000
  4641	024052	000000	000000
  4642	024053	000000	000000
  4643	024054	000000	000000
  4644	024055	000000	000000
  4645	024056	000000	000000
  4646	024057	000000	000000
  4647	024060	000000	000000
  4648	024061	000000	000000
  4649	024062	000000	000000
  4650	024063	000000	000000
  4651	024064	000000	000000
  4652	024065	000000	000000
  4653	024066	000000	000000
  4654	024067	000000	000000
  4655	024070	000000	000000
  4656	024071	000000	000000
  4657	024072	000000	000000
  4658	024073	000000	000000
  4659	024074	000000	000000
COMMON - MONITOR COMMON DATA AREA AND CONFIGURATION DEFINITION - V534	MACRO 12.5-46.0 14:23 13-JAN-88 PAGE 63-2
COMMON.MAC	 7-DEC-87 14:36		SYSTEM BYTE POINTERS

  4660	024075	000000	000000
  4661	024076	000000	000000
  4662	024077	000000	000000
  4663	024100	000000	000000
  4664	024101	000000	000000
  4665	024102	000000	000000
  4666	024103	000000	000000
  4667	024104	000000	000000
  4668	024105	000000	000000
  4669	024106	000000	000000
  4670	024107	000000	000000
  4671	024110	000000	000000
  4672	024111	000000	000000
  4673	024112	000000	000000
  4674	024113	000000	000000
  4675	024114	000000	000000
  4676	024115	000000	000000
  4677	024116	000000	000000
  4678	024117	000000	000000
  4679	024120	000000	000000
  4680	024121	000000	000000
  4681	024122	000000	000000
  4682	024123	000000	000000
  4683	024124	000000	000000
  4684	024125	000000	000000
  4685	024126	000000	000000
  4686	024127	000000	000000
  4687	024130	000000	000000
  4688	024131	000000	000000
  4689	024132	000000	000000
  4690	024133	000000	000000
  4691	024134	000000	000000
  4692	024135	000000	000000
  4693	024136	000000	000000
  4694	024137	000000	000000
  4695	024140	000000	000000
  4696	024141	000000	000000
  4697	024142	000000	000000
  4698	024143	000000	000000
  4699	024144	000000	000000
  4700	024145	000000	000000
  4701	024146	000000	000000
  4702	024147	000000	000000
  4703	024150	000000	000000
  4704	024151	000000	000000
  4705	024152	000000	000000
  4706	024153	000000	000000
  4707	024154	000000	000000
  4708	024155	000000	000000
  4709	024156	000000	000000
  4710	024157	000000	000000
  4711	024160	000000	000000
  4712	024161	000000	000000
COMMON - MONITOR COMMON DATA AREA AND CONFIGURATION DEFINITION - V534	MACRO 12.5-46.0 14:23 13-JAN-88 PAGE 63-3
COMMON.MAC	 7-DEC-87 14:36		SYSTEM BYTE POINTERS

  4713	024162	000000	000000
  4714	024163	000000	000000
  4715	024164	000000	000000
  4716	024165	000000	000000
  4717	024166	000000	000000
  4718	024167	000000	000000
  4719	024170	000000	000000
  4720	024171	000000	000000
  4721	024172	000000	000000
  4722	024173	000000	000000
  4723	024174	000000	000000
  4724	024175	000000	000000
  4725	024176	000000	000000
  4726	024177	000000	000000
  4727	024200	000000	000000
  4728	024201	000000	000000
  4729	024202	000000	000000
  4730	024203	000000	000000
  4731	024204	000000	000000
  4732	024205	000000	000000
  4733	024206	000000	000000
  4734	024207	000000	000000
  4735	024210	000000	000000
  4736	024211	000000	000000
  4737	024212	000000	000000
  4738	024213	000000	000000
  4739	024214	000000	000000
  4740	024215	000000	000000
  4741	024216	000000	000000
  4742	024217	000000	000000
  4743	024220	000000	000000
  4744	024221	000000	000000
  4745	024222	000000	000000
  4746	024223	000000	000000
  4747	024224	000000	000000
  4748	024225	000000	000000
  4749	024226	000000	000000
  4750	024227	000000	000000
  4751	024230	000000	000000
  4752	024231	000000	000000
  4753	024232	000000	000000
  4754	024233	000000	000000
  4755	024234	000000	000000
  4756	024235	000000	000000
  4757	024236	000000	000000
  4758	024237	000000	000000
  4759	024240	000000	000000
  4760	024241	000000	000000
  4761	024242	000000	000000
  4762	024243	000000	000000
  4763	024244	000000	000000
  4764	024245	000000	000000
  4765	024246	000000	000000
COMMON - MONITOR COMMON DATA AREA AND CONFIGURATION DEFINITION - V534	MACRO 12.5-46.0 14:23 13-JAN-88 PAGE 63-4
COMMON.MAC	 7-DEC-87 14:36		SYSTEM BYTE POINTERS

  4766	024247	000000	000000
  4767	024250	000000	000000
  4768	024251	000000	000000
  4769	024252	000000	000000
  4770	024253	000000	000000
  4771	024254	000000	000000
  4772	024255	000000	000000
  4773	024256	000000	000000
  4774	024257	000000	000000
  4775	024260	000000	000000
  4776	024261	000000	000000
  4777	024262	000000	000000
  4778	024263	000000	000000
  4779	024264	000000	000000
  4780	024265	000000	000000
  4781	024266	000000	000000
  4782	024267	000000	000000
  4783	024270	000000	000000
  4784	024271	000000	000000
  4785	024272	000000	000000
  4786	024273	000000	000000
  4787	024274	000000	000000
  4788	024275	000000	000000
  4789	024276	000000	000000
  4790	024277	000000	000000
  4791	024300	000000	000000
  4792	024301	000000	000000
  4793	024302	000000	000000
  4794	024303	000000	000000
  4795	024304	000000	000000
  4796	024305	000000	000000
  4797	024306	000000	000000
  4798
  4799			000056	PTYN==PPORTN		;Number of PTY lines
  4800			024230	PTYTAB=:LINTAB+RPORTN	;Address in LINTAB where PTYs start
  4801
  4802				;THE FOLLOWING SLIDING SCALE DEFINES THE LENGTH OF THE TTY FREE LIST
  4803
  4804				IFNDEF TTCHKN,<IFL PORTN-10,<XP TTCHKN,7*PORTN>>
  4805				IFNDEF TTCHKN,<IFL PORTN-20,<XP TTCHKN,6*PORTN>>
  4806				IFNDEF TTCHKN,<XP TTCHKN,^D10*PORTN>
  4807
  4808	024307	000000	000000	TTFREE::EXP .-.			;FILLED IN AT ONCE TIME BY FREE LIST ADR
  4809	024310	003314	000000	TTCLST::XWD TTCHKN,.-.		;# OF TTY CHUNKS,,ADDRESS OF FIRST ONE
  4810			000004	XP TTCHKS,4				;CHUNK SIZE
  4811
  4812	024311			CSUPTN:: BLOCK 1	;PHYS PG NO UPT SAVED IN ON CRASH
  4813	024312			CRSBLK:: BLOCK ^D10	;HARDWARE MAP DATA OVERWRITTEN IS SAVED HERE AFTER PAGCNI
  4814			634166		SAVDMP==:<SIXBIT /   SAV/>	;EXTENSION FOR SAVED FILES == "SAV"
COMMON - MONITOR COMMON DATA AREA AND CONFIGURATION DEFINITION - V534	MACRO 12.5-46.0 14:23 13-JAN-88 PAGE 64
COMMON.MAC	 7-DEC-87 14:36		SYSTEM BYTE POINTERS

  4815				;CARD READER ENTRY POINT AND BITS
  4816
  4817					IFG CDRN, <
  4818						CDRBTS==:1670+CDRCHN
  4819				>
  4820
  4821				;CARD PUNCH ENTRY POINT
  4822
  4823				;	IFG CDPN, <
  4824				;	EXTERNAL CDPSER		;ENTRY POINT
  4825				;>
  4826
  4827
  4828					IFG LPTN, <
  4829
  4830				;PROTOTYPE DEFINITION FOR U PRINTER DEVICE DATA BLOCKS
  4831
  4832			000100	LPTDON==100
  4833
  4834				DEFINE	LPTDDB (N) <
  4835				IFCPU (<KI,KL>),<	;KI/KL DDB GENERATION.
  4836
  4837					XLIST				;TURN OFF LISTING DURING EXPANSION
  4838
  4839				LP'N'SV1==LP'N'SAC+F		;DEFINE F SAVE LOCATION
  4840
  4841				LPTCON==.-LP'N'DDB
  4842				LP'N'INT: CONSO LP'N,0			;(-4) SKIP IF INTERRUPT FOR THIS LPT
  4843					  JRST .-1			;(-3)  GO TO NEXT SKIP CHAIN ELEMENT
  4844					  MOVEM F,LP'N'SV1		;(-2) SAVE F IN CHANNEL SAVE AREA
  4845					  JSP F,LPTINT		;(-1) SET UP DDB ADDRESS AND BRANCH
  4846				LP'N'DDB::
  4847				LP'N'NAM:
  4848					LPNAM==SIXBIT /LPT/
  4849					IFE LPTN-1, <LPNAM>		;( 0) PHYSICAL DEVICE NAME
  4850					IFN LPTN-1, <LPNAM+<20+$LPNUM>B23> ;( 0) PHYSICAL DEVICE NAME
  4851					  XWD 6*HUNGST,<N>B23+LPTSIZ    ;( 1) DEVICE CHARACTERISTICS
  4852									; HUNG TIME IS 63 SECS (CODE 6)
  4853					  0				;( 2) DEVICE I/O STATUS
  4854					  XWD 0,LPTDSP##		;( 3) LH=DDB LINK, RH=DSP TABLE ADDR.
  4855				LPTMOD==1_A+1_AL+1_I			;LPT LEGAL MODES
  4856					  XWD DVOUT+DVLPT,LPTMOD	;( 4) DEVICE CHARACTERISTICS
  4857					  0 				;( 5) LOGICAL DEVICE NAME
  4858					  0				;( 6) BUFFER HEADER ADDRESSES
  4859				LPTPTR==.-LP'N'DDB
  4860				LP'N'PTR: 0				;( 7) BLOCK OUTPUT POINTER
  4861					  0			;(10) CURRENT OUTPUT BUFFER ADDRESS
  4862				LP'N'CLS:	XWD  0,LP'N'BUF	;(11) CLASS AND MON. BUFF. POINTER
  4863				LP'N'STS:	0			;(12) DEVICE STATUS WORD
  4864				LP'N'PWC:	XWD LP'N'BL/2,0	;(13) WAKEUP COUNT LIMIT
  4865				LP'N'WUC:	0		;(14) ACTIVE WAKEUP COUNT
  4866				LP'N'CTR:	0
  4867				LP'N'INW:	0		;(16) INTERRUPT WORD
COMMON - MONITOR COMMON DATA AREA AND CONFIGURATION DEFINITION - V534	MACRO 12.5-46.0 14:23 13-JAN-88 PAGE 64-2
COMMON.MAC	 7-DEC-87 14:36		SYSTEM BYTE POINTERS

  4868				LPTCH==.-LP'N'DDB
  4869					  EXP 11*LP'N'CHN!LPTDON	;(15) INTERRUPT CHANNEL ASSIGNMENTS
  4870				LPTSVE==.-LP'N'DDB
  4871					  MOVE F,LP'N'SV1		;(16) RESTORE F, SAVE AC'S
  4872					  JSR LP'N'SAV			;(17)  AND ESTABLISH P
  4873					  MOVEI F,LP'N'NAM		;(20) SET UP DDB ADDRESS AND RETURN
  4874					  JRST LPTNXT			;(21)  TO COMMON INTERRUPT HANDLER
  4875				LPTEX1==.-LP'N'DDB
  4876					  MOVE F,LP'N'SV1		;(22) RESTORE F AND
  4877					  JEN @LP'N'CHL			;(23)  DISMISS INTERRUPT
  4878				LPTSV2==.-LP'N'DDB
  4879					  0				;(24) SAVE LOCATION FOR U
  4880				LPTECH==.-LP'N'DDB
  4881					  CONSZ LP'N,LPTECM		;(25) THE REST OF THE DDB CONTAINS
  4882				LPTDNE==.-LP'N'DDB
  4883					  CONSO LP'N,LPTDON		;(26)  THE ACTUAL I/O INSTRUCTIONS
  4884				LPTCSO==.-LP'N'DDB
  4885					  CONSO LP'N,(U)		;(27)  USED BY THE COMMON SERVICE
  4886				LPTCSZ==.-LP'N'DDB
  4887					  CONSZ LP'N,(U)		;(30)  ROUTINE TO CONTROL A U
  4888				LPTCNI==.-LP'N'DDB
  4889					  CONI  LP'N,U		;(31)  PRINTER. THEY ARE EXECUTED
  4890				LPTCNO==.-LP'N'DDB
  4891					  CONO  LP'N,(U)		;(32)  BY MEANS OF AN XCT INSTRUCTION
  4892				LPTDTO==.-LP'N'DDB
  4893					  DATAO LP'N,(U)		;(33)  INDEXED TO THE PROPER DDB
  4894				LPTBKO==.-LP'N'DDB
  4895					  BLKO  LP'N,LP'N'PTR		;(34)
  4896				LPXSTS==.-LP'N'DDB
  4897					CONI LP'N,LP'N'STS		;(35) DEVICE STATUS WORD CONI
  4898
  4899				SIZLPT==.-LP'N'DDB
  4900				;
  4901				;  MONITOR BUFFER DEFINITON
  4902				;
  4903				  LP'N'BL=400
  4904					XWD LP'N'BUF,LP'N'BUF	;IN AND OUT
  4905					EXP LP'N'BUF+LP'N'BL	;LAST
  4906				LP'N'BUF:	BLOCK	LP'N'BL	;BUFFER SPACE
  4907				;
  4908					INTERN LPTCON,LPTPTR,LPTCH,LPTSVE,LPTEX1,LPTSV2,LPTECH
  4909					INTERN LPTDNE,LPTCSO,LPTCSZ,LPTCNI,LPTCNO,LPTDTO,LPTBKO
  4910					INTERN LPXSTS,SIZLPT
  4911					LIST				;TURN LISTING BACK ON AFTER EXPANSION
  4912				>;END IFCPU KI,KL
  4913				IFCPU (KS),<	;KS10 LPT DDB GENERATION
  4914				LPTBAS==0	;the first of 4000 bytes of -11 virtual adr space
  4915						; reserved for use by the LPT.  this space
  4916						; will be mapped to -10 page containing LPTBUF
  4917				LP'N'DDB::
  4918				LP'N'NAM:
  4919					PHASE 0
  4920					LPNAM==SIXBIT /LPT/
COMMON - MONITOR COMMON DATA AREA AND CONFIGURATION DEFINITION - V534	MACRO 12.5-46.0 14:23 13-JAN-88 PAGE 64-3
COMMON.MAC	 7-DEC-87 14:36		SYSTEM BYTE POINTERS

  4921					IFE LPTN-1, <LPNAM>		;( 0) PHYSICAL DEVICE NAME
  4922					IFN LPTN-1, <LPNAM+<20+$LPNUM>B23> ;( 0) PHYSICAL DEVICE NAME
  4923					  XWD 6*HUNGST,<N>B23+LPTSIZ    ;( 1) DEVICE CHARACTERISTICS
  4924									; HUNG TIME IS 63 SECS (CODE 6)
  4925					  0				;( 2) DEVICE I/O STATUS
  4926					  XWD 0,LPTDSP##		;( 3) LH=DDB LINK, RH=DSP TABLE ADDR.
  4927				LPTMOD==1_A+1_AL+1_I			;LPT LEGAL MODES
  4928					  XWD DVOUT+DVLPT,LPTMOD	;( 4) DEVICE CHARACTERISTICS
  4929					  0 				;( 5) LOGICAL DEVICE NAME
  4930					  0				;( 6) BUFFER HEADER ADDRESSES
  4931					EXP 0,0				;7,10 UNUSED
  4932					XWD  0,LP'N'BUF		;(11) CLASS AND MON. BUFF. POINTER
  4933				LPTSTS::!0			;(12) DEVICE STATUS WORD
  4934					XWD 200,0		;(13) WAKEUP COUNT LIMIT
  4935					0			;(14) ACTIVE WAKEUP COUNT
  4936				LPTBA::!3,,775400		;(16) BASE ADR OF LP20 REGISTERS
  4937				LPT11A::!<LPTBUF&777>_2+LPTBAS	;(17) -11 ADR OF START OF MONITOR BFR
  4938				LPTWC::!0		;(20) WORD COUNT OF MOST RECENT XFR
  4939				LPTFUN::!0		;(21) MOST RECENT FUNCTION TYPE.
  4940				LPTEC::!0		;(22) NUMBER OF LPT ERRORS
  4941				LPTLBA::!LPTBUF,,<<LPTBUF&777>*4+LPTBAS>;(23) -10,,-11 ADR OF LPT BUFFER
  4942				LPTSB::!BLOCK 4			;(24-27) DEVICE REGS ON ERROR
  4943					DEPHASE
  4944				SIZLPT==:.-LP'N'DDB
  4945					LP'N'BUF,,LP'N'BUF
  4946					LP'N'BUF+LPBSIZ
  4947				LP'N'BUF:BLOCK LPBSIZ
  4948				LP'N'DDS==.-LP'N'DDB
  4949				>;IFCPU KS
  4950
  4951				>;LPTDDB MACRO DEFINITION
COMMON - MONITOR COMMON DATA AREA AND CONFIGURATION DEFINITION - V534	MACRO 12.5-46.0 14:23 13-JAN-88 PAGE 65
COMMON.MAC	 7-DEC-87 14:36		SYSTEM BYTE POINTERS

  4952				IFCPU (<KI,KL>),<EXTERN LPTNXT,LPTECM,LPTINT>
  4953
  4954			000000			$LPNUM==0		;TEMPORARY SYMBOL USED TO FACILITATE
  4955									; MACRO GENERATION
  4956
  4957						REPEAT LPTN, <
  4958
  4959			000001				$LPNUM==$LPNUM+1
  4960						>
  4961					>;IFG LPTN
  4962				;PLOTTER ENTRY POINT
  4963
  4964						;Nothing special
  4965
  4966				;PAPER TAPE READER ENTRY POINT AND MASK
  4967
  4968			000000			PTRMSK==:0		;MASK==0 IF PDP-10 READER
  4969
  4970				;PAPER TAPE PUNCH ENTRY POINT
  4971
  4972						;Nothing special
  4973
  4974
  4975				;END OF COMMON
  4976
  4977				;Can't use $END here
  4978	024772			CMNLIT:: LIT
  4979	024772	331014	007370
  4980	024773	220604	000000
  4981	024774	000000	007325*
  4982	024775	527474	520142
  4983	024776	572044	064714
  4984	024777	203635	772500
  4985	025000	737035	672100
  4986	025001	723364	071712
  4987	025002	721010	442250
  4988	025003	203056	262702
  4989	025004	655016	067722
  4990	025005	673501	505000
  4991	025006	401000	000000
  4992	025007	402000	000000
  4993	025010	403000	000000
  4994	025011	404000	000000
  4995	025012	405000	000000
  4996	025013	400000	000000
  4997	025014	330300	022303
  4998	025015	000150	000170
  4999	025016	002200	006031
  5000	025017	002400	006231
  5001	025020	372424	022331
  5002	025021	372500	022452
  5003	025022	406000	000000
  5004	025023	407000	000000
COMMON - MONITOR COMMON DATA AREA AND CONFIGURATION DEFINITION - V534	MACRO 12.5-46.0 14:23 13-JAN-88 PAGE 65-2
COMMON.MAC	 7-DEC-87 14:36		SYSTEM BYTE POINTERS

  5005	025024	370500	000015
  5006	025025	370500	000016
  5007	025026	260040	006000*
  5008	025027	534146	000000
  5009	025030	400004	000000
  5010	025031	000000	022700
  5011	025032	000000	000000
  5012	025033	064240	000000
  5013	025034	064250	371302
  5014	025035	717214	562100
  5015	025036	613624	062312
  5016	025037	703376	364750
  5017	025040	201424	064734
  5018	025041	201466	020000
  5019	025042	064250	371302
  5020	025043	717214	562100
  5021	025044	613624	062312
  5022	025045	703376	364750
  5023	025046	203355	767364
  5024	025047	627455	720322
  5025	025050	671015	467706
  5026	025051	607515	167734
  5027	025052	201466	020000
  5028	025053	242000	022665
  5029	025054	042000	022665
  5030	025055	064250	260746
  5031	025056	625015	167322
  5032	025057	723234	172312
  5033	025060	621014	371302
  5034	025061	717204	000000
  5035	025062	242000	000150
  5036	025063	064250	260746
  5037	025064	625015	060730
  5038	025065	723134	420322
  5039	025066	723474	566314
  5040	025067	200000	000000
  5041	025070	064252	440626
  5042	025071	426232	420344
  5043	025072	727344	000000
  5044	025073	064251	560734
  5045	025074	727035	420344
  5046	025075	627476	460744
  5047	025076	721005	063344
  5048	025077	677324	066336
  5049	025100	617036	464736
  5050	025101	671006	132156
  5051	025102	245000	000000
  5052	025103	064250	672730
  5053	025104	661010	451626
  5054	025105	416311	620344
  5055	025106	627436	562746
  5056	025107	723134	420000
  5057	025110	000300	000340
COMMON - MONITOR COMMON DATA AREA AND CONFIGURATION DEFINITION - V534	MACRO 12.5-46.0 14:23 13-JAN-88 PAGE 65-3
COMMON.MAC	 7-DEC-87 14:36		SYSTEM BYTE POINTERS

  5058	025111	372000	003000
  5059	025112	221510	003000
  5060	025113	001510	003000
  5061	025114	004000	023120
  5062	025115	064252	362754
  5063	025116	627454	520212
  5064	025117	512451	751100
  5065	025120	627354	367752
  5066	025121	673514	571312
  5067	025122	621644	044202
  5068	025123	512112	740644
  5069	025124	425012	352646
  5070	025125	502130	352100
  5071	025126	000000	000000
  5072	025127	064252	362744
  5073	025130	647376	571500
  5074	025131	713136	372302
  5075	025132	713504	062744
  5076	025133	713376	220356
  5077	025134	643235	462500
  5078	025135	737455	172322
  5079	025136	673164	072336
  5080	025137	202211	746500
  5081	025140	703034	762746
  5082	025141	064240	000000
  5083	025142	242400	777775
  5084	025143	670340	000010
  5085	025144	263040	000000
  5086	025145	403300	000000
  5087			025145	CMNEND=: .-1
  5088				;*;	BLOCK	<1000-<.&777>>&777	;End on a page boundry
  5089	025006'				RELOC	.-COMORG		;So that relocatable stuff follows
  5090
  5091					END			;Can't use $END (CMN) because of abs loc
  5092
NO ERRORS DETECTED
PROGRAM BREAK IS 025012
ABSLUTE BREAK IS 025146
13K CORE USED
COMMON - MONITOR COMMON DATA AREA AND CONFIGURATION DEFINITION - V534	MACRO 12.5-46.0 14:23 13-JAN-88 PAGE 66
COMMON.MAC	 7-DEC-87 14:36		SYMBOL TABLE

A		000000	SIN	BGBENF		021251	INT	CNFCHN		021157	INT	CRASH2		022724	INT
A00CLH	060035	000000	SIN	BIOCOR		000033	SIN	CNFCPU		021126	INT	CRASHX		022731	INT
A00CVN		000000	EXT	BIONUM		000012	SIN	CNFCVN		021155	INT	CRASHZ		023005
A00DEC		250200	SPD	BIOSIZ		000152	SIN	CNFDCH		021241		CRLF		023261	EXT
A00DLN		000000	SIN	BITNTB		021412	INT	CNFDJB		021222		CRS147		022716	INT
A00EDT		021156	EXT	BITTBL		021346	INT	CNFDVN		021156	INT	CRSBLK		024312	INT
A00MVN		000502	SIN	BLKMXC		000001	SPD	CNFET1		021166		CRSCNT		021122	INT
A00SVN		000000	SIN	BLKQNT		000062	SIN	CNFEXM		021172		CRSDB		022650	INT
A00VER		050200	SIN	BLTPRV		022760		CNFHPQ		021161	INT	CRSDEV		023061
A00WHO		000002	SIN	BOOTCP		021224	INT	CNFLDB		021162	INT	CRSHAC		021503	INT
ACBPI3		000003	SPD	BOOTCT		021225	INT	CNFLDD		021171		CRSHOM		023116
ACTDDB		007373	EXT	BOOTS		000000	EXT	CNFLLD		021170		CRSHWD		000030	INT
ACTN		000001	SPD	BOOTWD		000022	INT	CNFLSD		021167		CRSLEN		000020	SPD
ADRDUM		023521	INT	BOOTXT		023247		CNFMIP		021164	INT	CRSMAP		023070
ADRNCT		023520	INT	BOTLOD		023024	EXT	CNFMTA		021165	INT	CRSMXL		017000	SIN
AGECPW		000014	SIN	BTSTLN		000030	SIN	CNFMVO		021163	INT	CRSWH1		023044
AGEHST		023526	INT	BTSTR		023247	INT	CNFMXL		163000	SIN	CRSWH2		023047
AGEMAX		000007	SIN	CCPNAM	436263	436071	SIN	CNFPIA		021176	INT	CRSWH3		023053
AGEPTR		023536	INT	CDRN		000000	SIN	CNFRTD		021160	INT	CRSWHY		023025
AGESIZ		000003	SIN	CFLG		000002	SPD	CNFSID		021130	INT	CSDMP		021454	INT
AIDSTS		022654	INT	CH1		023767	INT	CNFST2		021173	INT	CSRTAB		023522	INT
AL		000001	SIN	CH2		023552	INT	CNFTBL		021065	INT	CSUNL		021454	EXT
ALLKON		000000	SPD	CH2JEN		023603	INT	CNFTKB		021213		CSUPTN		024311	INT
ALR620		007200	INT	CH2P		023625	INT	CNTPGY		000006	SIN	CTNBPE		000001	SPD
ANYCPU		023331	INT	CH2PD1		023626	INT	CNVVPN		000440	SIN	CTNBPW		000044	SIN
APR		000000	SPD	CH3		023670	INT	CODHOM		023207	EXT	CTNBSA		000000	SIN
APRCHL		023767	SIN	CH3JEN		023702	INT	COMCNT		006723	INT	CTNMCI		000001	SIN
APRCHN		000001	SIN	CH3P		023724	INT	COMFLG		021061	INT	CTXTAB		023412	INT
APRDTI		022655	INT	CH3PD1		023725	INT	COMMON		006000	ENT	CTYBUF		021214	EXT
APRID	700000	000000		CH4		023773	INT	COMORG		000140	SPD	CTYIWD		000032	INT
APRINT		007374	EXT	CH5		024003	INT	COMTOA		023262	EXT	CTYLDB		024774	EXT
APRIOB		200000	SIN	CH6		024013	INT	COMTOT		021464	INT	CTYOWD		000033	INT
APRN		000001	SPD	CH7		023771	INT	CONFIG		021065	INT	CTYPTR		000000	EXT
APRNAM	125412	007777	SIN	CHGSIZ		000026	SIN	CONMES		007365	EXT	CTYTIM		023254	INT
APRNOT		037400	SIN	CHN0CB		000000	EXT	CONTIG		021446	INT	CTYTYO		023256	EXT
APRPC		006732	INT	CHNN		021157	EXT	CORBAS		007346	EXT	CTYTYP		023231	EXT
APRSN	005354	000000	SIN	CIPWT		006736	INT	COREN		000010	SIN	CURUPT		021064	INT
APRSTS		022651	INT	CIPWTM		006735	SIN	CORMAX		007152	INT	CWZ		000022	SPD
APXN		000000	SIN	CLKBIT		000001	SIN	CORMXK		007210	INT	D620FN		000163	SPD
AXXVER		050200	SPD	CLKCHL		023771	SIN	CORNUM		007350	EXT	DABSIZ		000002	SIN
AXXWHO		000002	SPD	CLKCHN		000007	SIN	CORSIZ		000004	SIN	DAEEST		021771	INT
BADINT		022670	INT	CLKFLG		006726	INT	CPOPJ		023270	INT	DATE		021140	INT
BADQTM		022672	INT	CLKINT		007406	EXT	CPOPJ1		023266	INT	DC.SIZ		000003	SIN
BADQUE		022671	INT	CLKN		000001	SPD	CPOPJ2		023265	INT	DCFAST		000001	SIN
BASAVE		000170	INT	CLRSB1		022064		CPRRDW		000003	SIN	DCFULL		000007	SIN
BASDWN		000210	INT	CLRSBD		022061	INT	CPUF3		000004	SPD	DCN		021315	INT
BASEDB		000150	SIN	CLRWRD		007163	INT	CPUKI		000001	SPD	DCNDFT		000000	EXT
BASEDL		000020	SIN	CMBLNK		000000	EXT	CPUKL		000002	SPD	DCNONE		000000	SIN
BASVER		007141	INT	CMBSIZ		007351	EXT	CPUKS		000003	SPD	DCSIZ		000003	SIN
BATMAX		021136	INT	CMNEND		025145	INT	CPUSTS		021772	INT	DDBCOR		000000	EXT
BATMIN		021137	INT	CMNLIT		024772	INT	CPUTYP		000002	SPD	DDBLDB		021162	EXT
BATNUM		021142	INT	CMNOTF		021457	INT	CPZZ		000000	SPD	DDBLEN		021171	EXT
BFLG		000006	SPD	CNFCHN		021157	INT	CR10N		000000	SIN	DDSTAR		007367	INT
COMMON - MONITOR COMMON DATA AREA AND CONFIGURATION DEFINITION - V534	MACRO 12.5-46.0 14:23 13-JAN-88 PAGE 66-2
COMMON.MAC	 7-DEC-87 14:36		SYMBOL TABLE

DDTMAP		023115	INT	DVTTY		000010	SIN	FRUSED		021153	INT	IOWZ		000020	SPD
DDTSA		000114	INT	EPLLEN		000176	SIN	FT0		000000	SPD	IPOPJ		023276	INT
DDTSYM		000036	INT	EPOCNT		007174	INT	FT1	777777	777777	SPD	IPOPJ1		023275	INT
DDTX		022626	EXT	EPOREC		007175	INT	FTADDB		007405	EXT	IRING		002200	INT
DEBUGF		021152	INT	EPT		001000	INT	FTADDS		000000	EXT	IRINGA		000153	INT
DEFBPT		000000	SIN	EPT.PN		000001	SIN	FTAN		000004	SPD	IRINGS		000154	INT
DEFDEB	300000	000000	SIN	EPTEBR		000760	SIN	FTAUN		000004	SIN	IRINGX		006031	INT
DEVCHR		000001	SIN	EPTFSL		000760	SIN	FTDAEM		000000	SPD	IRP620		000156	INT
DEVCLS		000011	SIN	EPTPG0		000200	SIN	FULCNT		007223	INT	IRPPDP		000155	INT
DEVIAD		000007	SIN	EPTSTS		021451	INT	FUPOJ1		023316	INT	IRPTIM		006632	INT
DEVINT		000016	SIN	EPYPSM		006665	INT	FUPOPJ		023320	INT	ITMCHN		000001	SIN
DEVIOS		000002	SIN	EPYPSN		006664	INT	GIVLOK		023336	INT	ITMDEV		077000	SIN
DEVJOB		000001	SIN	ERASTS		022647	INT	GMTDIF		021151	INT	J		000002	INT
DEVLLD		000020	SPD	EVMALC		007345	EXT	GMTUDT		021445	INT	JBLMSK		377777	SIN
DEVLSD		000017	SPD	EVPMAX		000775	SIN	HFDBUF		021117	INT	JBLMSZ		000021	SIN
DEVLST		021101	INT	EX0ACB		000001	SIN	HGHBLK		021116	INT	JBMQNT		007777	SIN
DEVMOD		000004	SIN	EXTMON		021231	INT	HIACBL		000017	SPD	JBNIRD		000013	SPD
DEVNAM		000000	SIN	F		000004	INT	HIGHAC		000017	SIN	JBNIWT		000013	SPD
DEVOPR		021100	INT	FCWDS		000000	SIN	HIGHJB		007162	INT	JBNQNT		000043	SIN
DEVPPN		000017	SIN	FETACC		021424		HLTBRK		007212	INT	JBNRCT		000043	SPD
DEVSER		000003	SIN	FETCON		021423		HNGLST		021215	INT	JBQMN		017632	SIN
DEYCLS		023406	INT	FETDEB		021426		HNGMIN		006725	INT	JBRIRD		007777	SIN
DEYMCT		023407	INT	FETDS2		021434		HNGTIM		006724	INT	JBRIWT		007777	SIN
DEYTCT		023410	INT	FETDSK		021430		HOMCOD		023211	EXT	JBSIRD		000014	SPD
DF.RDC	200000	000000	SPD	FETERR		021425		HOMDCT		023215	EXT	JBSIWT		000014	SPD
DF.RJE	100000	000000	SPD	FETLEN		000016	SPD	HOMDCV		023174	EXT	JBSQNT		000014	SIN
DIE		025026	EXT	FETMXL		015000	SIN	HOMHID		023223	EXT	JBSRCT		000030	SIN
DIECDB		021450	INT	FETPE2		021433		HOMNAM		023210	EXT	JBTABT		016024	INT
DINITF		021447	INT	FETPER		021432		HOMP2		023203		JBTAJF		016324	INT
DIOMAX		000077	SIN	FETRTS		021422		HOMPRV		023213	EXT	JBTAUN		013424	INT
DISKS		000060	SIN	FETSCN		021431		HUNGST		000400	SIN	JBTAWQ		016724	INT
DPC1		000250	SPD	FETST2		021435		HWDPNT		022267	EXT	JBTBCS		015324	INT
DPC2		000254	SPD	FETSTR		021427		I		000010	SIN	JBTBET		016124	INT
DPCN		000000	SPD	FETTBL		021421	INT	IADPTR		023405	INT	JBTBIO		016224	INT
DPOPJ		023267	INT	FETTYM		021420		ICPFAC		000001	SIN	JBTCIN		014724	INT
DSKBAD		021502	INT	FETUU2		021436		ILWZ		000026	SPD	JBTCLB		017324	INT
DSKDDB		007403	EXT	FETUUO		021421		IN21		000001	SPD	JBTCMP		015524	INT
DSKN		000001	SIN	FFCBLK		002600	SIN	IN22		000001	SPD	JBTCNK		015224	INT
DSKPAT		021124	INT	FHD1		000170	SPD	IN23		000001	SPD	JBTCOT		015024	INT
DSKPIF		001020	SIN	FHD2		000174	SPD	IN24		000001	SPD	JBTCP2		015624	INT
DSKPIN		002020	SIN	FHDN		000000	SPD	IN25		000001	SPD	JBTCPU		015724	INT
DSKTYP	002326	252242	SIN	FHIMAX		000025	SIN	INADEF		007151	INT	JBTCTX		007524	INT
DTBIT		000000	SPD	FHIN		000026	SIN	INADFL		000017	SIN	JBTDAB		020563	INT
DTE0		000200	SPD	FHSMXC		000007	SIN	INAHIT		400000	SIN	JBTDLK		014124	INT
DTE1		000204	SPD	FILALC		007341		INDPPN		777777	SIN	JBTELP		015124	INT
DTE2		000210	SPD	FILMON		021230	INT	INI0		000001	SPD	JBTENB		016524	INT
DTE3		000214	SPD	FLWZ		000027	SPD	INLMES		022700	EXT	JBTERN		014224	INT
DTMADJ		006731	INT	FOPHXC		021236	INT	INTBYP		023437	INT	JBTFIT		010324	INT
DTTRY		000004	SIN	FORTY		000040	INT	INTNUM	777777	777760	SIN	JBTFNT		012624	INT
DVCSTS		022127	INT	FPOPJ		023324	INT	INTRNM		000017	SIN	JBTFPN		013324	INT
DVLPT		040000	SIN	FPOPJ1		023323	INT	INTTAB		007370	INT	JBTFTR		010624	INT
DVOUT		000001	SIN	FRECOR		021121	INT	INTTB1		007371	SIN	JBTICT		010524	INT
DVTTY		000010	SIN	FREPTR		021107	INT	IOWZ		000020	SPD	JBTINA		017424	INT
COMMON - MONITOR COMMON DATA AREA AND CONFIGURATION DEFINITION - V534	MACRO 12.5-46.0 14:23 13-JAN-88 PAGE 66-3
COMMON.MAC	 7-DEC-87 14:36		SYMBOL TABLE

JBTINT		012524	INT	JBYIN2		023430	INT	JPOPJ		023276	INT	LM3ATB		006675	INT
JBTIOA		010024	INT	JBYINA		023427	INT	JPOPJ1		023275	INT	LM3CUR		006667	INT
JBTKCT		012324	INT	JBYIRD		023462	INT	JWPOS		000016	SIN	LM3ERR		006671	INT
JBTLIC		013124	INT	JBYIWT		023464	INT	JWSIZ		000005	SIN	LM3HDA		006677	INT
JBTLIM		014024	INT	JBYLIM		023455	INT	K4SWAP		021311		LM3LMJ		006675	INT
JBTMFR		011424	INT	JBYMCY		023454	INT	KAF		022677	INT	LM3LMV		006677	INT
JBTMPC		020163	INT	JBYMWL		023422	INT	KAFCRS		022675	INT	LM3OV1		006675
JBTMWS		010424	INT	JBYMWS		023421	INT	KAFLOC		000071	INT	LM3OV2		006677
JBTNAM		012224	INT	JBYNTQ		023452	INT	KAFPDL		022706		LM3OVR		006673
JBTNM1		011624	INT	JBYPER		023451	INT	KAFPRT		022700		LM3SPB		006701	INT
JBTNM2		011724	INT	JBYPGT		023441	INT	KEY620		000150	INT	LM3SPO		006703	INT
JBTP2S		011224	INT	JBYPPP		023420	INT	KEYTIM		006631	INT	LM3SPT		006673	INT
JBTPC		017524	INT	JBYQNT		023411	INT	KLIIWD		000034	INT	LMASRP		000021	SIN
JBTPCB		017224	INT	JBYRCT		023463	INT	KLIOWD		000035	INT	LMMCUR		300000	SIN
JBTPGO		010224	INT	JBYREF		023450	INT	KSSS4		000024	INT	LMMERR		003000	SIN
JBTPIP		016624	INT	JBYRPT		023425	INT	KSYS		007150	INT	LMMEXS		700000	SIN
JBTPNO		011024	INT	JBYSAL		023446	INT	KXFTIM		000001	SPD	LMMMXW		320000	SIN
JBTPNT		012724	INT	JBYSC1		023456	INT	LASCOR		007205	INT	LMMRDW		320000	SIN
JBTPPN		011524	INT	JBYSC2		023457	INT	LASIN		007221	INT	LMMRED		320000	SIN
JBTPRG		012224	SIN	JBYSC3		023460	INT	LASOUT		007222	INT	LMMSUP		320400	SIN
JBTPRV		017024	INT	JBYSC4		023461	INT	LDBALC		007316		LMNCUR		000002	SIN
JBTPWH		020363	INT	JBYSLL		023447	INT	LDBDCH		021241	EXT	LMPACT		040000	SIN
JBTPWL		020463	INT	JBYSWS		023415	INT	LDBLEN		007317	EXT	LMPCUR		100000	SIN
JBTPWS		020263	INT	JBYTIM		023443	INT	LDBSTR		000000	EXT	LMPDER		002000	SIN
JBTQ		017663	INT	JBYUUO		023437	INT	LDBVRG		021235	INT	LMPDTE		001000	SIN
JBTRCT		017763	INT	JBYUWS		023423	INT	LDPLNO		007332	EXT	LMPLOK		000100	SIN
JBTS2P		011324	INT	JBYWAK		023445	INT	LG.LAB	400000	000000	SPD	LMPMXW		020000	SIN
JBTSCA		016424	INT	JBYWCH		023424	INT	LG.LPC	200000	000000	SPD	LMPNER		000200	SIN
JBTSER		014424	INT	JBYWCT		023465	INT	LG.LUB	100000	000000	SPD	LMPREF		010000	SIN
JBTSIN		014524	INT	JBYWPT		023426	INT	LGONAM		021112	INT	LMPSHR		400000	SIN
JBTSLC		013224	INT	JFY2SC		021336	INT	LI.ACO		000177	SPD	LMPSUP		000400	SIN
JBTSLK		014324	INT	JFYHR		021115	INT	LI.COF		001000	SPD	LMPVIR		004000	SIN
JBTSLM		013724	INT	JFYMIN		021114	INT	LI.CON		002000	SPD	LMSCUR		000002	SIN
JBTSOK		015424	INT	JFYS12		021337	INT	LI.CPS		010000	SPD	LMYATB		006674	INT
JBTSOT		014624	INT	JFYSC2		021335	INT	LI.PIF		000400	SPD	LMYCUR		006666	INT
JBTSPN		011124	INT	JFYSEC		021113	INT	LI.PIN		000200	SPD	LMYERR		006670	INT
JBTST2		007324	INT	JOB		022542	INT	LICMAX		000024	INT	LMYHDA		006676	INT
JBTSTA		013024	INT	JOB41		000041	INT	LICMXL		023000	INT	LMYLMA		006672	INT
JBTSTS		007224	INT	JOBCOR		000133	INT	LICRPS		000017	SIN	LMYLMJ		006674	INT
JBTTMP		012124	INT	JOBCST		000136	INT	LICTBL		021264	INT	LMYLMV		006676	INT
JBTUID		010724	INT	JOBDDT		000074	INT	LICWPS		000021	SIN	LMYOV1		006674
JBTUN1		013624	INT	JOBEXM		021172	EXT	LIM1HS		000010	SIN	LMYOV2		006676
JBTUNM		013524	INT	JOBFF		000121	INT	LIM1MS		000002	SIN	LMYOVR		006672
JBTUPM		010124	INT	JOBHRL		000115	INT	LIM8MS		000004	SIN	LMYSPB		006700	INT
JBTWCH		012424	INT	JOBMAX		000077	SIN	LIN		000257	SPD	LMYSPO		006702	INT
JBTWCT		020063	INT	JOBMXL		077000	SIN	LINALC		007307		LMYSPT		006672	INT
JBTWRS		007424	INT	JOBN		000100	SIN	LINFLG		024023	INT	LNKTTL		007321
JBYACT		023416	INT	JOBREL		000044	INT	LINKDB		007205	INT	LOCDAY		021145	INT
JBYCLK		023440	INT	JOBS		000100	SIN	LINMXL		255000	SIN	LOCHOR		021146	INT
JBYCTR		023417	INT	JOBS41		000122	INT	LINTAB		024030	INT	LOCMIN		021147	INT
JBYERR		023444	INT	JOBSA		000120	INT	LISTSN		000001	SPD	LOCMON		021144	INT
JBYEXC		023453	INT	JOBSYM		000116	INT	LIVWRD		000164	SPD	LOCORE		021110	INT
JBYHNG		023442	INT	JOBVER		000137	INT	LM3ATB		006675	INT	LOCSEC		021150	INT
COMMON - MONITOR COMMON DATA AREA AND CONFIGURATION DEFINITION - V534	MACRO 12.5-46.0 14:23 13-JAN-88 PAGE 66-4
COMMON.MAC	 7-DEC-87 14:36		SYMBOL TABLE

LOCTIM		023260	EXT	LPTDTO		000035	SIN	MXQUE		000037	SIN	P3		000016	INT
LOCWEK		021252	INT	LPTECH		000027	SIN	MXTIM		007204	INT	P3POPJ		023314	INT
LOCYER		021143	INT	LPTECM		024357	EXT	NCMFLG	777777	777776	SIN	P4		000017	INT
LOGMAX		021135	INT	LPTEX1		000024	SIN	NCPRUN		021226	INT	PAG		000010	SPD
LOGNUM		021141	INT	LPTINT		024327	EXT	NCTXPG		000003	SIN	PAGCNI		022653	INT
LOOP		007212		LPTMOD		000403	SPD	NEWMON		023023	EXT	PAGDTI		022652	INT
LP.CSB		200000	SPD	LPTN		000001	SIN	NEXT		007271		PAGSIZ		001000	SIN
LP.CSD		000020	SPD	LPTNXT		024353	EXT	NFLG		000005	SPD	PARADR		007171	INT
LP.CSF		020000	SPD	LPTPTR		000007	SIN	NMXFLG	777777	777773	SIN	PARCON		007170	INT
LP.IOR		200000	SPD	LPTSIZ		000032	SIN	NMXLIN	777777	777522	SIN	PARFLG		007206	INT
LP.PWF		000040	SPD	LPTSV2		000026	SIN	NOBOOT		023024		PARPC		007173	INT
LP0		000124	SPD	LPTSVE		000020	SIN	NOCPUS		021221	INT	PARSPR		007167	INT
LP0BL		000400		LPXSTS		000037	SIN	NOCRS		022674	INT	PARTOT		007166	INT
LP0BUF		024372		LSAREC		000040	SIN	NODIE		000000	EXT	PARWRD		007172	INT
LP0CHL		023552	SIN	LSTWRD		007164	INT	NOSAV		000000	SPD	PATCH		021124	EXT
LP0CHN		000002	SIN	M		000013	INT	NOSNBF		007341		PATEND		000000	EXT
LP0CLS		024341		M.IQTA		000000	SIN	NOTFT		007235		PATMAP		021127	INT
LP0CTR		024345		M.SBSZ		000000	SIN	NRSVDP		007356	INT	PATSYM		000141	EXT
LP0DDB		024330	INT	M.SQTA		000010	SIN	NSPMEM		001750	SIN	PBMMSK		006651	INT
LP0INT		024324		M1POPJ		023327	INT	NSWMXL		042000	SIN	PC.UIO		004000	SIN
LP0INW		024346		MAGN		000000	SIN	NSWTBL		007142	INT	PC.USR		010000	SIN
LP0JEN		023603	SIN	MAXCHN		000057	SIN	NTYLNK		007224		PCP		022705	EXT
LP0N		000001	SPD	MAXCPR		000003	SIN	NULERR		006734	INT	PDBPTR		021132
LP0NAM		024330		MAXNBP		000000	SIN	NULMNT		007177	INT	PDL		000042	SIN
LP0P		023625	SIN	MAXPCB		021344	INT	NULPDL		006650	INT	PDVCNT		023404	INT
LP0PTR		024337		MBWZ		000021	SPD	NULTIM		007176	INT	PDVTIM		023403	INT
LP0PWC		024343		MDFN		000000	SPD	NULUPL		000102	SPD	PFW.A		100000	SIN
LP0RET		023573	SIN	MEMNSP		021106	INT	NULZ		000031	SPD	PFW.H		200000	SIN
LP0SAC		023604	SIN	MEMSIZ		007165	INT	NUMACB		000006	SIN	PFW.R		001000	SIN
LP0SAV		023554	SIN	MEMSZP		021343	INT	NUMCHN		000060	SIN	PG		000003	INT
LP0STS		024342		MIDNIT		021334	INT	NUMLIN		021111	INT	PGMERR		000030	SIN
LP0SV1		023610	SPD	MINPCB		021345	INT	NUMREV		000003	SPD	PGPDER		000020	SIN
LP0WUC		024344		MJOBN	777777	777700	SIN	NUMTAB		021123	EXT	PGPDIO		001000	SIN
LP1		000234	SPD	MLOWZ		000025	SPD	NWCORE		021210	INT	PGPDRT		000001	SIN
LP2HOM		023221	EXT	MONCR1		023133		NXMPTR		021211	INT	PGPDTE		000010	SIN
LPNAM	546064	000000	SPD	MONCR2		023145		NXTUNT		023201		PGPNXM		000040	SIN
LPNHOM		023201	EXT	MONCRS		023126		OCTPNT		022263	EXT	PGPSIP		000004	SIN
LPOPJ		023321	INT	MONHSO		021237		ODEBUG		007360	INT	PGPSOP		000002	SIN
LPOPJ1		023317	INT	MONORG		000000	SPD	ODPMXL		005000	SIN	PGYADR		023477	INT
LPT0ST		025006'		MONTAB		021320	INT	ODPTBL		021310	INT	PGYATB		023515	INT
LPT1		000124	SPD	MONVFF		021234	INT	ONCGO		000140	EXT	PGYBPL		023474	INT
LPT2		000234	SPD	MPOPJ		023304	INT	ONPOPJ		023334	INT	PGYCHT		023505	INT
LPT3		000230	SPD	MSKIRG		000177	SIN	OPNFPF		000012	SIN	PGYCSH		023517	INT
LPTBKO		000036	SIN	MSKORG		000377	SIN	ORING		002400	INT	PGYDIO		023476	INT
LPTCH		000017	SIN	MT0DDB		021165	EXT	ORINGA		000157	INT	PGYDRT		023512	INT
LPTCNI		000033	SIN	MT0KDB		021220	EXT	ORINGS		000160	INT	PGYERR		023507	INT
LPTCNO		000034	SIN	MTR		000024	SPD	ORINGX		006231	INT	PGYFPL		023470	INT
LPTCON	777777	777774	SIN	MTRSTS		025007'		ORP620		000162	INT	PGYLMA		023471	INT
LPTCSO		000031	SIN	MTSIZ		000200	SIN	ORPPDP		000161	INT	PGYLMJ		023473	INT
LPTCSZ		000032	SIN	MULDDB		007241		ORPTIM		006633	INT	PGYLMV		023472	INT
LPTDNE		000030	SIN	MWSLIM		007211	INT	P		000001	INT	PGYLST		023475	INT
LPTDON		000100	SPD	MXLIN		000255	SIN	P1		000014	INT	PGYNXM		023506	INT
LPTDSP		024333	EXT	MXPROT		021314	INT	P2		000015	INT	PGYPGO		023467	INT
COMMON - MONITOR COMMON DATA AREA AND CONFIGURATION DEFINITION - V534	MACRO 12.5-46.0 14:23 13-JAN-88 PAGE 66-5
COMMON.MAC	 7-DEC-87 14:36		SYMBOL TABLE

PGYPNO		023501	INT	PVNTIM		000007	SIN	REYDCA		023245	INT	SAVAC2		023604	INT
PGYSIO		023514	INT	PVSCOR		000007	SIN	REYDCM		023246	INT	SAVAC3		023703	INT
PGYSIP		023510	INT	PVSCRM		000007	SIN	REYMON		023244		SAVAC4		024002
PGYSOP		023511	INT	PVSHNG		000002	SIN	RH20		000540	SPD	SAVAC5		024012
PGYSPB		023503	INT	PVSMOD		000002	SIN	RH21		000544	SPD	SAVAC6		024022
PGYSPO		023504	INT	PVSTIM		000006	SIN	RH22		000550	SPD	SAVAPR		022635	INT
PGYSPT		023502	INT	PVYCOR		023433	INT	RH23		000554	SPD	SAVCHG		000010	SIN
PGYSTS		023513	INT	PVYCRM		023435	INT	RH24		000560	SPD	SAVDMP		634166	SIN
PGYUNI		023500	INT	PVYHNG		023436	INT	RH25		000564	SPD	SAVE1		023337	INT
PGYUNU		023466	INT	PVYMOD		023431	INT	RH26		000570	SPD	SAVE2		023344	INT
PGYUSE		023516	INT	PVYTIM		023434	INT	RH27		000574	SPD	SAVE3		023352	INT
PI		000004	SPD	PVZMOD		023432	INT	RLWORD		000031	INT	SAVE4		023361	INT
PI.OFF		000400	SPD	PXCT	256000	000000		RMXLIN		000177	SIN	SAVERA		022636	INT
PI.ON		000200	SPD	QQYSD		021341	INT	RP10N		000000	SIN	SAVPG2		023624	INT
PICLK		004201	SIN	QQYTTY		021340	INT	RPORTN		000200	SIN	SAVPG3		023723	INT
PIOMOD		023376	INT	QUEPCB		017124	INT	RSKP		023266	SIN	SAVSB0		022637	INT
PIPROG		077400	SIN	QUESTR		007207	EXT	RSVDPG		007357	INT	SAVSB1		022641	INT
PISTS		022650	INT	RA10N		000000	SIN	RTCUPS		021133	INT	SAVT.		006705	INT
PISYMN		021174		RCCMAX		021154	INT	RTIME		012024	INT	SAX0		000274	SPD
PITLEN		021175		RCDSTB		021767	INT	RTN		023270	SIN	SAX1		000400	SPD
PJBNLH		350700	SIN	RCMAX		007207		RUNPAT		021125	INT	SAXBAS		000300	SIN
PJBST2		023402	INT	RD10N		000000	SIN	S		000000	INT	SAXCHN		000003	SIN
PJBSTS		023401	INT	RDERA	700400	000000		S$CPU		000004	SIN	SAXLEN		000040	SIN
PJOBN		023377	INT	RDUBR	701040	000000		S$ENTR	777777	777775	SIN	SAXN		000001	SIN
PJRST	324740	000000		RE.BTA		000020	SPD	S$EVEN		000006	SIN	SAXSAV		023672	SIN
PLTN		000000	SIN	RE.BTD		000200	SPD	S$HALT	777777	777777	SIN	SB.CLR		010000	SPD
PMDRD		023204	EXT	RE.BTM		010000	SPD	S$INFO		000005	SIN	SBDIAG	700500	000000
PMDWT		023216	EXT	RE.DCD		000040	SIN	S$NAME		006000	SPD	SBDST1		022643	INT
PMEMSZ		001000	SIN	RE.DCW		200000	SPD	S$NONA		000000	SIN	SBDST2		022645	INT
PMONTB		021317	INT	RE.ONA		000010	SIN	S$PATC		000007	SIN	SCCTAB		021437	INT
PORTN		000256	SIN	RE.OND		000100	SIN	S$TEMP	400004	000000	SPD	SCCTBL		000003	SIN
PORTS		000200	SIN	RE.ONM		004000	SPD	S$XCT	777777	777776	SIN	SCHEDF		006733	INT
POTLST		006735	INT	REBOOT		022761	INT	S..147		000147	INT	SCLTAB		021442	INT
PPNMON		021232	INT	REC.WR		000020	SIN	S..KAF		022677	INT	SCNDDB		007371	EXT
PPORTN		000056	SIN	RECOMP		023233	INT	SA0ACB		000003	SIN	SCNDDS		000000	EXT
PREVAC		021523	INT	REDSB1		022077		SA0BAS		000300	INT	SCNN		000277	SIN
PRINTS		000001	SIN	REDSB2		022106		SA0BIT		000020	SPD	SEEKTM		000001	SPD
PROT		021312	INT	REDSB3		022121		SA0CHL		023670	SIN	SERIAL		021105	INT
PROT0		021313	INT	REDSBC		022071	INT	SA0CHN		000003	SIN	SFDMON		021242	INT
PRSPC		022265	EXT	REDSBD		022070	INT	SA0INT		007400	EXT	SG.SWR		000100	SIN
PTPN		000000	SIN	REFLAG		021316	INT	SA0JEN		023702	SIN	SHRFPG		000000	SIN
PTRMSK		000000	SIN	RENUM		000010	SPD	SA0N		000000		SIZCTX		000003	SIN
PTRN		000000	SPD	REPSID		000026	INT	SA0P		023724	SIN	SIZIRG		000007	SIN
PTYN		000056	SPD	REQCLK		004001	SIN	SA0RET		023677	SIN	SIZLPT		000040	SIN
PTYPTR		021250		RES1		023373		SA0SAC		023703	SIN	SIZORG		000010	SIN
PTYTAB		024230	INT	RES2		023372		SA0SAV		023672	SIN	SKPMRN		021453	INT
PUNIT		023400	INT	RES3		023371		SA0STS		025010'		SLJOBN		000200	SPD
PUUOAC		023375	INT	RESCOD		624563	SIN	SA1BAS		000320	INT	SLOCRS		022673	INT
PVNCOR		000021	SIN	RESTRT		000027	INT	SASAVE		000340	INT	SLPZ		000030	SPD
PVNCRM		000043	SIN	RET2		023573	INT	SAV2		023554	INT	SMALL		007262
PVNHNG		000024	SIN	RET2A		023600		SAV2A		023564		SNBALC		007334
PVNMOD		000034	SIN	RET3		023677	INT	SAV3		023672	INT	SNDPGY		023471	SIN
PVNTIM		000007	SIN	REUSER		023243	INT	SAV30		022665	INT	SPCGSW		023236	EXT
COMMON - MONITOR COMMON DATA AREA AND CONFIGURATION DEFINITION - V534	MACRO 12.5-46.0 14:23 13-JAN-88 PAGE 66-6
COMMON.MAC	 7-DEC-87 14:36		SYMBOL TABLE

SPTNME		000000	EXT	SYSORG		021206	INT	TMPSZT		002400	SPD	UPSABK		004000	SIN
SPTSIZ		000000	EXT	SYSPDL		022547	INT	TMPTAB		007303	EXT	UPSCLK		000004	SIN
SR.CSB		000001	SIN	SYSSIZ		021077	INT	TPOPJ		023273	INT	UPSPSR		000003	SIN
SRPNDS		023134	EXT	SYSSZP		021342	INT	TPOPJ1		023271	INT	UPSSWE		002000	SIN
SS4		000004	SIN	SYSTAP		021074	INT	TTCHKN		003314	SIN	UPT		003000	INT
STATES		021104	INT	SYSTBL		021456	SIN	TTCHKS		000004	SIN	UPT.PN		000003	SIN
STAUTO	000001	000000	SIN	SYSUDT		007147	INT	TTCLST		024310	INT	UPTABK		000706	SIN
STDENS		000003	SIN	SYSUID		007202	INT	TTFREE		024307	INT	UPTABL		001423	SIN
STOPCN		022666	INT	SYSUPT		021223	INT	TTIEND		000000	EXT	UPTAC0		000600	SIN
STOPPC		022667	INT	SYSX0L		000000	EXT	TTPOPJ		023272	INT	UPTACP		000704	SIN
STOPZ		000032	SPD	SYSX0R		021065	EXT	TTVIN2		000400	SIN	UPTAGE		002576	SIN
STPFLG		006727	INT	SYSX1L		000000	EXT	TTVINI		000200	SIN	UPTALD		001440	SIN
STRBTS		000000	EXT	SYSX1R		021066	EXT	TTY0		007320		UPTALN		001442	SIN
STRDDB		023176	EXT	SYSX2L		000000	EXT	TTYFLK		007273	EXT	UPTALP		001441	SIN
STRMON		021227	INT	SYSX2R		021067	EXT	TTYINI		021125	EXT	UPTCHG		001370	SIN
STRNAM		000000	EXT	SYSX3L		000000	EXT	TTYLNK		007225		UPTECN		001461	SIN
STRPID		000000	EXT	SYSX3R		021070	EXT	TTYTAB		020761	INT	UPTEDV		001464	SIN
STRTAD		000002	SIN	SYSX4L		000000	EXT	TUBDDB		021217	EXT	UPTEL1		001466	SIN
STRTCL		010000	SIN	SYSX4R		021071	EXT	TUBRID		000000	EXT	UPTELC		001465	SIN
STRUNI		023177	EXT	SYSX5L		000000	EXT	TYPCSB		022130	INT	UPTELD		002673	SIN
STSHUT		400000	SIN	SYSX5R		021072	EXT	TYPSB1		022261		UPTENB		001417	SIN
STSMXL		010000	SIN	SYSX6L		000000	EXT	TYPSB2		022265		UPTEND		002675	SIN
STSTBL		021253	INT	SYSX6R		021073	EXT	TYPSBD		022255	INT	UPTEP0		000400	SIN
STSUPR		200000	SIN	SYSX7L		000000	EXT	U		000005	INT	UPTEPC		001462	SIN
SUPT0		023101		SYSX7R		021155	EXT	UNASS1		000000	SPD	UPTETP		001460	SIN
SUPT1		023104		SYSZRO		000142	EXT	UNASS2		000000	SPD	UPTEUP		001463	SIN
SUPTIM		021240	INT	T1		000006	INT	UNASS3		000000	SPD	UPTFHT		001467	SIN
SVSET1		021745		T2		000007	INT	UNASS4		000001	SPD	UPTFSL		000600	SIN
SVSET2		021747		T2POJ1		023301	INT	UNASS5		000001	SPD	UPTHCU		001416	SIN
SVSETS		021703		T2POPJ		023302	INT	UNASS6		000001	SPD	UPTHRL		001435	SIN
SWPERC		007220	INT	T3		000010	INT	UNASS7		000000	SPD	UPTHST		001460	SIN
SWPHGH		021310	INT	T3POPJ		023312	INT	UNISTR		023224	EXT	UPTIME		007157	INT
SWPMXL		007000	SIN	T4		000011	INT	UP%000		372000	INT	UPTIOC		001327	SIN
SWPTBL		007213	INT	TAKDWN		022710	INT	UP%200		372200	INT	UPTJDA		001106	SIN
SWPUA	701540	000000		TAPES		000004	SIN	UP%400		372400	INT	UPTJOB		000702	SIN
SWZ		000024	SPD	TDERR		023227	INT	UP%500		372500	INT	UPTKNT		000430	SIN
SYSBEG		006723	INT	THSDAT		021076	INT	UP%600		372600	INT	UPTLDC		000705	SIN
SYSBG2		007205		THSTIM		007203	INT	UP%AC0		372600	INT	UPTLKC		001457	SIN
SYSBTS		000146	INT	TICSEC		021131	INT	UP%JDA		373106	INT	UPTLKJ		001454	SIN
SYSCHN		021134	INT	TIM		000020	SPD	UP%KNT		372430	INT	UPTLKW		001455	SIN
SYSCOR		007347	EXT	TIME		021075	INT	UP%LOG		373453	INT	UPTLMA		001521	SIN
SYSDAT		021072	INT	TIMEF		006730	INT	UP%MUP		372425	INT	UPTLOG		001453	SIN
SYSDDT		000141	INT	TIMSTS		025011'		UP%MUU		372424	INT	UPTMAT		002672	SIN
SYSDEV		000100	SIN	TIMZON	777777	777770	SIN	UP%PC		372703	INT	UPTMFR		001517	SIN
SYSDSP		000140	INT	TIOWZ		000023	SPD	UP%PDL		372710	INT	UPTMTM		001422	SIN
SYSEND		021062	INT	TKBCDB		021213	EXT	UP%PGT		372420	INT	UPTMUP		000425	SIN
SYSIDL		000000	EXT	TMPALC		007300		UP%UAC		373350	INT	UPTMUU		000424	SIN
SYSIDR		021130	EXT	TMPBKJ		000014	SPD	UP%UUO		372707	INT	UPTMWB		002556	SIN
SYSLEN		021207	INT	TMPBKS		000400	SPD	UP4LDA		006704	INT	UPTNTV		002671	SIN
SYSMXL		023000	SIN	TMPBL		000004	SIN	UPDEND		005777	SPD	UPTOFD		001456	SIN
SYSNBP		021233	INT	TMPNX		002400	SPD	UPNPSR		000012	SIN	UPTP2S		001516	SIN
SYSNO	535423	262522	SIN	TMPSZ		002000	SPD	UPOPJ		023321	INT	UPTPBM		001326	SIN
SYSNUM		021120	INT	TMPSZJ		000060	SPD	UPOPJ1		023317	INT	UPTPC		000703	SIN
COMMON - MONITOR COMMON DATA AREA AND CONFIGURATION DEFINITION - V534	MACRO 12.5-46.0 14:23 13-JAN-88 PAGE 66-7
COMMON.MAC	 7-DEC-87 14:36		SYMBOL TABLE

UPTPDL		000710	SIN	USRACB		000000	SIN	%CNMNT		021177		.CPCTN		022544	INT
UPTPGT		000420	SIN	USRLIM		000010	SIN	%COW		371000	SIN	.CPDDT		022626	INT
UPTPID		001451	SIN	USRMAX		007201	INT	%COW.N		000371	SIN	.CPDTC		022346	INT
UPTPJ1		001444	SIN	USYLSP		006647	INT	%LEP.N		000365	SIN	.CPDWD		022277	INT
UPTPJ2		001445	SIN	USYPSR		006635	INT	%LPTNN		000001	SPD	.CPEP0		022352	INT
UPTPJC		001443	SIN	USYPTM		006660	INT	%SAXN		000001	SPD	.CPEP1		022412	INT
UPTPOS		001246	SIN	USYPTN		006656	INT	%SYCCO		021457	INT	.CPEPD		022545	INT
UPTRB2		001450	SIN	USYPXM		006661	INT	%SYDEL		021460	INT	.CPEPT		022540	INT
UPTREL		001434	SIN	USYPXN		006657	INT	%SYERR		021456	INT	.CPERA		022335	INT
UPTRES		002675	SIN	USYRES		006646	INT	%SYNCP		021464	INT	.CPEVN		022300	INT
UPTRIB		001447	SIN	USYSIN		006645	INT	%SYNCS		021500	INT	.CPISF		022543	INT
UPTRNM		001436	SIN	USYUWL		006640	INT	%SYNDS		021462	INT	.CPJOB		022542	INT
UPTRPN		001437	SIN	USYUWM		006643	INT	%SYNIS		021501	INT	.CPLOG		022627	INT
UPTRPT		002674	SIN	UXYPSR		006636	INT	%SYNJS		021463	INT	.CPPDL		022546	INT
UPTS2P		001515	SIN	UXYPTM		006663	INT	%SYSCP		021474	INT	.CPPER		022635
UPTSAT		001446	SIN	UXYPTN		006662	INT	%SYSDT		021477	INT	.CPPGC		022330	INT
UPTSIM		001166	SIN	UXYUWL		006641	INT	%SYSJN		021465	INT	.CPPGD		022327	INT
UPTSPD		001452	SIN	UXYUWM		006644	INT	%SYSNM		021475	INT	.CPPIC		022326	INT
UPTSTS		000701	SIN	VCOMMN		000534	SIN	%SYSPC		021461	INT	.CPRHC		022336	INT
UPTSTV		001520	SIN	VPMAX		001034	SIN	%SYSPD		021473	INT	.CPS0A		022640
UPTSTX		021452	INT	VPUMAX		001031	SIN	%SYSPN		021467	INT	.CPS1A		022642
UPTTCB		001420	SIN	W		000012	INT	%SYSPP		021472	INT	.CPSB0		022637
UPTTCE		001433	SIN	WHYMXL		037000	SIN	%SYSTN		021466	INT	.CPSB1		022641
UPTTP1		001421	SIN	WPOPJ		023310	INT	%SYSTY		021476	INT	.CPSBD		022466	INT
UPTTPN		001420	SIN	WPOPJ1		023307	INT	%SYSUP		021471	INT	.CPSBR		022536	INT
UPTUAC		001350	SIN	WPOPJX		023306	INT	%SYSUU		021470	INT	.CPSCB		022304	INT
UPTUEI		001426	SIN	WRADB	700140	000000		%UPLMA		373521	SIN	.CPSDT		022310	INT
UPTUFI		001424	SIN	WRAPR	700200	000000		%UPLMS		774521	SIN	.CPSJN		022311	INT
UPTUII		001432	SIN	WREBR	701200	000000		%UPLMX		367521	SIN	.CPSLF		022276	INT
UPTURI		001430	SIN	WRPI	700600	000000		%UPS		773000	SIN	.CPSNC		022322	INT
UPTUUO		000707	SIN	WRUBR	701140	000000		%UPS.N		000773	SIN	.CPSND		022320	INT
UPTUWB		002651	SIN	XACSTL		000004	SIN	%UPT		372000	SIN	.CPSNI		022323	INT
UPTUWS		002670	SIN	XPNCOR		000001	SIN	%UPT.N		000372	SIN	.CPSNJ		022321	INT
UPTXAC		001330	SIN	XX	635456	656364	SPD	%UPT.V		002676	SPD	.CPSNM		022305	INT
UPTXEI		001427	SIN	XYZZY		000330	SPD	%UPX		366000	SIN	.CPSNO		022631	INT
UPTXFI		001425	SIN	Z1		000000	SPD	%UPX.N		000366	SIN	.CPSPC		022306	INT
UPTXII		001433	SIN	Z2		000001	SPD	.ARSIZ		000001	SIN	.CPSPD		022313	INT
UPTXRI		001431	SIN	ZPOPJ		023326	INT	.CH		000007	SPD	.CPSPN		022312	INT
UPYPSR		006634	INT	ZZ		000000	SPD	.CHAS		000001	SPD	.CPSPP		022314	INT
UPYPTM		006653	INT	ZZBIT		000046		.CP6		022456	INT	.CPSTN		022315	INT
UPYPTN		006652	INT	$LPNUM		000001	SPD	.CP7		022463	INT	.CPSTY		022307	INT
UPYPXM		006655	INT	$UU		000000	SPD	.CPACA		022634	INT	.CPSUP		022317	INT
UPYPXN		006654	INT	%100		000100	INT	.CPACN		022325	INT	.CPSUU		022316	INT
UPYUWL		006637	INT	%1000		001000	INT	.CPAER		022636		.CPSVA		022632	INT
UPYUWM		006642	INT	%200		000200	INT	.CPAPD		022324	INT	.CPTOA		000000	SIN
USED1		000000	SPD	%2000		002000	INT	.CPCA0		021543		.CPUP0		022331	INT
USED2		000001	SPD	%300		000300	INT	.CPCA1		021563	INT	.CPUP1		022452	INT
USED3		000001	SPD	%3000		003000	INT	.CPCAC		021543	INT	.CPUPT		022537	INT
USED4		000000	SPD	%400		000400	INT	.CPCPC		022301	INT

COMMON - MONITOR COMMON DATA AREA AND CONFIGURATION DEFINITION - V534	MACRO 12.5-46.0 14:23 13-JAN-88
COMMON.MAC	 7-DEC-87 14:36		Symbol cross reference

A	  4959
A00CLH	    91#	    95	    96	    96#	   111
A00CVN	    92%
A00DEC	   115#	  2258
A00DLN	   106	   106#	   111
A00EDT	    93%	  2258
A00MVN	    99	    99#	   111	   115
A00SVN	   101	   101#	   111	   115
A00VER	   113	   113#
A00WHO	   109	   109#	   115
ACBPI2	  4522
ACBPI3	  1973	  1973#	  4522
ACTDDB	  1928	  1928%	  1929
ACTN	  1517#	  1928	  1929	  1930
ADRDUM	  4374#
ADRNCT	  4372#
AGECPW	   854#	   856	  4403
AGEHST	  4398#
AGEMAX	   855#	  4398
AGEPTR	  4400#
AGESIZ	   157	   854	   855	  4407	  4408	  4409	  4410	  4411	  4412	  4413	  4414	  4415	  4416	  4417
	  4418	  4419
AIDSTS	  3606#	  3673	  3704
AL	  4959
ALLKON	   313#
ALR620	  1198#
ANYCPU	  4139#
APR	  3081	  3670	  3674	  3677	  3705	  3710	  3877
APRCHL	  1949#
APRCHN	  1947#	  2067	  4584
APRDTI	  3607#	  3674	  3705
APRINT	  1947%	  1947
APRIOB	  3867
APRN	  1910#	  1947
APRNAM	  3537
APRNOT	  4569	  4584#
APRPC	  1102#
APRSN	  2176	  3538
APRSTS	  3603#	  3670	  3698
APXN	   216	   216#	  1975	  1978
AXXVER	   111#
AXXWHO	    95#
BADINT	  3622#	  4560
BADQTM	  3624#
BADQUE	  3623#
BASAVE	   437#	   664	  3041	  3042	  3048	  3050
BASDWN	   438#
BASEDB	   413#	   432	   633	  3041	  3048	  3050
BASEDL	   432#	   434	   434#	   437	   633	   664	  3042
BASVER	  1126#
BATMAX	  2232#
BATMIN	  2233#
BATNUM	  2237#
COMMON - MONITOR COMMON DATA AREA AND CONFIGURATION DEFINITION - V534	MACRO 12.5-46.0 14:23 13-JAN-88
COMMON.MAC	 7-DEC-87 14:36		Symbol cross reference

BFLG	  2583#	  2587
BGBENF	  2398#
BIOCOR	   246	   253#
BIONUM	   252#
BIOSIZ	   250#	   253
BITNTB	  2586#
BITTBL	  2534#
BLKMXC	  1940	  1941
BLKQNT	   146
BLTPRV	  3687	  3691#
BOOTCP	  2339#
BOOTCT	  2340#
BOOTS	  3948%	  3948
BOOTWD	   349#
BOOTXT	  2332	  4071#
BOTLOD	   404	  3734	  3739%	  3739
BTSTLN	  4070#	  4074
BTSTR	  3932	  4072#
CCPNAM	  2908#
CDRN	   237	  1945	  3812	  4817
CFLG	  1529#	  1530	  1531	  2584
CH1	  1949	  3637	  4551#	  4551
CH2	  1959	  4522	  4522#
CH2JEN	  1959	  4522	  4522#
CH2P	  1959	  4522	  4522#
CH2PD1	  4522	  4522#
CH3	  1973	  4522	  4522#
CH3JEN	  1973	  4522	  4522#
CH3P	  1973	  4522	  4522#
CH3PD1	  4522	  4522#
CH4	  4560#	  4560
CH5	  4560#	  4560
CH6	  4560#	  4560
CH7	  2051	  4556#	  4556
CHGSIZ	   785#	   786
CHN0CB	  2230%	  2230
CHNN	  2259%	  2259
CIPWT	  1115#	  1120
CIPWTM	  1120#
CLKBIT	  4571#	  4573	  4574
CLKCHL	  2051#
CLKCHN	  2049#	  4572
CLKFLG	  1095#
CLKINT	  2049%	  2049
CLKN	  1911#	  2049
CLRSB1	  3165#	  3167
CLRSBD	  3162#
CLRWRD	  1161#
CMBLNK	  1685%	  1685	  1687%	  1687
CMBSIZ	  1678%	  1678	  1684%	  1684	  1685%	  1685	  1687%	  1687
CMNEND	  5087#
CMNLIT	  4978#
CMNOTF	  2921#
COMMON - MONITOR COMMON DATA AREA AND CONFIGURATION DEFINITION - V534	MACRO 12.5-46.0 14:23 13-JAN-88
COMMON.MAC	 7-DEC-87 14:36		Symbol cross reference

CNFCHN	  2259#
CNFCPU	  2216#
CNFCVN	  2257#
CNFDCH	  2352#
CNFDJB	  2336#
CNFDVN	  2258#
CNFET1	  2267#
CNFEXM	  2271#
CNFHPQ	  2261#
CNFLDB	  2262#
CNFLDD	  2270#
CNFLLD	  2269#
CNFLSD	  2268#
CNFMIP	  2264#
CNFMTA	  2265#
CNFMVO	  2263#
CNFMXL	  2364#
CNFPIA	  2302#
CNFRTD	  2260#
CNFSID	  2220#
CNFST2	  2299#
CNFTBL	  2101#	  2364
CNFTKB	  2328#
CNTPGY	  4370#
CNVVPN	   891	  3855
CODHOM	  3955%	  3955
COMCNT	  1090#
COMFLG	  1531#
COMMON	   578	   579#	   582
COMORG	   393#	   394	  5089
COMTOA	  3532%	  3532	  4081	  4083	  4086
COMTOT	  2927#
CONFIG	   389	  2105#	  2110
CONMES	  1707%	  1707
CONTIG	  2900#
CORBAS	  1680%	  1680
COREN	   240	  4561	  4562
CORMAX	  1146#
CORMXK	  1214#
CORNUM	  1675%	  1675	  1677%	  1677	  1683%	  1683
CORSIZ	   249#	   253
CPOPJ	  3207	  4097#
CPOPJ1	  2912	  4094#
CPOPJ2	  4092#
CPRRDW	   941	   952	   953
CPUF3	    16	   117	   211	   216	   217	   219	   255	   412	   463	   495	   705	  1917	  1935	  1956
	  2727	  2957	  3594	  3724	  3725	  3781	  3985
CPUKI	    10	   207	   218	   230	   233	   254	   704	  1912	  1917	  1935	  1949	  1956	  2476	  2477
	  2724	  2958	  2974	  3017	  3077	  3078	  3085	  3087	  3136	  3593	  3723	  3724	  3784	  3811
	  3840	  3844	  3880	  3883	  3921	  3925	  3984	  3988	  3989	  4522	  4576	  4952	  4959
CPUKL	    10	   207	   218	  1917	  1935	  1956	  2476	  2477	  2725	  2910	  2959	  3099	  3141	  3154
	  3159	  3397	  3426	  3427	  3458	  3561	  3673	  3675	  3708	  3790	  3811	  3874	  3986	  4382
	  4952	  4959
COMMON - MONITOR COMMON DATA AREA AND CONFIGURATION DEFINITION - V534	MACRO 12.5-46.0 14:23 13-JAN-88
COMMON.MAC	 7-DEC-87 14:36		Symbol cross reference

CPUKS	    22	   211	   219	   224	   256	   505	  1017	  2010	  2069	  2726	  2960	  3141	  3569	  3636
	  3673	  3674	  3705	  3726	  3794	  3869	  3987	  4522	  4959
CPUSTS	  3060	  3076#
CPUTYP	    10	    16	    22	   117	   207	   211	   216	   217	   218	   219	   224	   230	   233	   254
	   255	   256	   412	   463	   495	   505	   704	   705	  1017	  1912	  1917	  1935	  1949	  1956
	  2010	  2069	  2216	  2476	  2477	  2724	  2725	  2726	  2727	  2910	  2957	  2958	  2959	  2960
	  2974	  3017	  3077	  3078	  3085	  3087	  3099	  3136	  3141	  3154	  3159	  3397	  3426	  3427
	  3458	  3561	  3569	  3593	  3594	  3636	  3673	  3674	  3675	  3705	  3708	  3723	  3724	  3725
	  3726	  3781	  3784	  3790	  3794	  3811	  3840	  3844	  3869	  3874	  3880	  3883	  3921	  3925
	  3984	  3985	  3986	  3987	  3988	  3989	  4382	  4522	  4576	  4952	  4959
CPZZ	    10#	    10	    16#	    16	    22#	    22	   117#	   117	   207#	   207	   211#	   211	   216#	   216
	   217#	   217	   218#	   218	   219#	   219	   224#	   224	   230#	   230	   233#	   233	   254#	   254
	   255#	   255	   256#	   256	   412#	   412	   463#	   463	   495#	   495	   505#	   505	   704#	   704
	   705#	   705	  1017#	  1017	  1912#	  1912	  1917#	  1917	  1935#	  1935	  1949#	  1949	  1956#	  1956
	  2010#	  2010	  2069#	  2069	  2476#	  2476	  2477#	  2477	  2724#	  2724	  2725#	  2725	  2726#	  2726
	  2727#	  2727	  2910#	  2910	  2957#	  2957	  2958#	  2958	  2959#	  2959	  2960#	  2960	  2974#	  2974
	  3017#	  3017	  3077#	  3077	  3078#	  3078	  3085#	  3085	  3087#	  3087	  3099#	  3099	  3136#	  3136
	  3141#	  3141	  3154#	  3154	  3159#	  3159	  3397#	  3397	  3426#	  3426	  3427#	  3427	  3458#	  3458
	  3561#	  3561	  3569#	  3569	  3593#	  3593	  3594#	  3594	  3636#	  3636	  3673#	  3673	  3674#	  3674
	  3675#	  3675	  3705#	  3705	  3708#	  3708	  3723#	  3723	  3724#	  3724	  3725#	  3725	  3726#	  3726
	  3781#	  3781	  3784#	  3784	  3790#	  3790	  3794#	  3794	  3811#	  3811	  3840#	  3840	  3844#	  3844
	  3869#	  3869	  3874#	  3874	  3880#	  3880	  3883#	  3883	  3921#	  3921	  3925#	  3925	  3984#	  3984
	  3985#	  3985	  3986#	  3986	  3987#	  3987	  3988#	  3988	  3989#	  3989	  4382#	  4382	  4522#	  4522
	  4576#	  4576	  4952#	  4952	  4959#	  4959
CR10N	   238
CRASH2	  3656#	  3657	  3660
CRASHX	  3647	  3654	  3661	  3666#
CRASHZ	  3667	  3690	  3717	  3722#
CRLF	  3455%	  3455	  3471%	  3471	  4085%	  4085
CRS147	   405	  3649#	  3650	  3653	  3768
CRSBLK	  3839	  4813#
CRSCNT	  2207#
CRSDB	  2098	  3596#	  3618
CRSDEV	  3735	  3780#
CRSHAC	  2950#	  2952	  3614	  3683	  3684	  3685
CRSHOM	  3737	  3867#
CRSHWD	   357#	  3039	  3688	  3758
CRSLEN	  3618#	  3619
CRSMAP	  3736	  3836#
CRSMXL	  3619#
CRSWH1	  3745	  3761#
CRSWH2	  3753	  3756	  3765#
CRSWH3	  3748	  3771#
CRSWHY	  3731	  3742#
CSDMP	  2913#
CSRTAB	  4391#
CSUNL	  2913%	  2913
CSUPTN	  4812#
CTNBPE	   286#	   290	   294
CTNBPW	   284	   290#
CTNBSA	   284	   299#
CTNMCI	   284	   288#
CTXTAB	  4214#
COMMON - MONITOR COMMON DATA AREA AND CONFIGURATION DEFINITION - V534	MACRO 12.5-46.0 14:23 13-JAN-88
COMMON.MAC	 7-DEC-87 14:36		Symbol cross reference

CTYBUF	  2329%	  2329
CTYIWD	   359#
CTYLDB	  1645%	  1645	  1651%	  1651
CTYOWD	   360#
CTYPTR	  2329%	  2329
CTYTIM	  3777	  4080#
CTYTYO	  4082%	  4082
CTYTYP	  3771%	  3771	  3776%	  3776	  3893%	  3893	  3976%	  3976
CURUPT	  2099#
CWZ	  1441#
D620FN	   425#
DABSIZ	  1484#	  1485
DAEEST	  3071#
DATE	  2234#
DC.SIZ	  4030
DCFAST	  3904	  4045	  4047#
DCFULL	  2490	  3894	  3900	  3939	  4045	  4046#
DCN	  2490#
DCNDFT	  2490	  2491%
DCNONE	  4045	  4048#
DCSIZ	  4029	  4030#	  4040	  4041	  4042	  4043	  4044	  4049
DDBCOR	   247%
DDBLDB	  2262%	  2262
DDBLEN	  2270%	  2270
DDSTAR	  1725#
DDTMAP	  3864#
DDTSA	   378#
DDTSYM	   363#
DDTX	  3536%	  3536
DEBUGF	  1702	  2248#
DEFBPT	   119	   119#	  2248
DEFDEB	   117	   117#	   118	   118#	   120	  2248
DEVCHR	  4195	  4197	  4201	  4204
DEVCLS	  4208	  4209	  4210
DEVIAD	  4206
DEVINT	   166
DEVIOS	  4095
DEVJOB	  2336	  4195#	  4196
DEVLLD	   167#	  2269
DEVLSD	   166#	  2268
DEVLST	  1558	  2126#
DEVMOD	  1563	  1615
DEVNAM	  1597
DEVOPR	  2120#
DEVPPN	   167
DEVSER	  1558	  1570	  1573	  1576	  1591	  1613	  1624
DEYCLS	  4208#
DEYMCT	  4209#
DEYTCT	  4210#
DF.RDC	   120
DF.RJE	   120
DIE	   577	   577%	   579	  3632
DIECDB	  2904#
COMMON - MONITOR COMMON DATA AREA AND CONFIGURATION DEFINITION - V534	MACRO 12.5-46.0 14:23 13-JAN-88
COMMON.MAC	 7-DEC-87 14:36		Symbol cross reference

DINITF	  2901#
DIOMAX	  4324#
DISKS	    11	    11#
DPC1	   177#
DPC2	   178#
DPCN	   323#	  1972
DPOPJ	  4095#
DSKBAD	  2943#
DSKDDB	  1980	  1980%	  1981
DSKN	   205#	  1980	  1981	  1982
DSKPAT	  2212#
DSKPIF	  1907	  1919#	  1975	  1975#
DSKPIN	  1907	  1918#	  1975	  1975#
DTBIT	  1926#	  1928#	  1959#	  1959	  1973#	  1973	  1980#	  1993#
DTE0	  3100#	  3124
DTE1	  3101#	  3125
DTE2	  3102#	  3126
DTE3	  3103#	  3127
DTMADJ	  1101#
DTTRY	   135
DVCSTS	  3061	  3214#
DVLPT	  4959
DVOUT	  4959
DVTTY	  1564	  1616
EPLLEN	   765#	   768
EPOCNT	  1192#
EPOREC	  1193#
EPT	   462#	   702	   930	   932	  3527	  3614
EPT.PN	   702#	  3864	  3884
EPTEBR	   704#
EPTFSL	   704
EPTPG0	   930	   932
EPTSTS	  2905#	  3090
EPYPSM	   932#
EPYPSN	   930#
ERASTS	  3566#	  3679	  3712
EVMALC	  1590%	  1590	  1626%	  1626	  1638%	  1638	  1647%	  1647	  1664%	  1664	  1679%	  1679
EVPMAX	   913
EX0ACB	  4522
EXTMON	  2344#
F	  1558	  1561	  1567	  1570	  1571	  1573	  1575	  1576	  1581	  1591	  1592	  1593	  1595	  1597
	  1613	  1615	  1617	  1624	  3948	  3956	  3957	  3959	  3961	  3967	  4095	  4124	  4127	  4132
	  4196	  4197	  4201	  4204	  4206	  4208	  4209	  4210	  4959
FCWDS	   258	   268	   268#	  2205
FETACC	  2701#
FETCON	  2686#
FETDEB	  2742#
FETDS2	  2844#
FETDSK	  2786#
FETERR	  2723#
FETLEN	  2861#	  2862
FETMXL	  2862#
FETPE2	  2837#
COMMON - MONITOR COMMON DATA AREA AND CONFIGURATION DEFINITION - V534	MACRO 12.5-46.0 14:23 13-JAN-88
COMMON.MAC	 7-DEC-87 14:36		Symbol cross reference

FETPER	  2830#
FETRTS	  2664#
FETSCN	  2808#
FETST2	  2852#
FETSTR	  2764#
FETTBL	  2623#	  2861
FETTYM	  2621#
FETUU2	  2859#
FETUUO	  2645#
FFCBLK	  1668	  1668#	  1672	  1676
FHD1	   175#
FHD2	   176#
FHDN	   322#	  1971
FHIMAX	   841#
FHIN	   163	   841	   843
FHSMXC	   839#
FILALC	  1675#
FILMON	  2343#
FLWZ	  1441#
FOPHXC	  2349#
FORTY	   365#
FPOPJ	  4132#
FPOPJ1	  4131#
FRECOR	  2205#
FREPTR	  2179#
FRETTY	  1566%	  1566
FRUSED	  2255#
FT0	  2612#
FT1	  2611#
FTADDB	  1993	  1993%	  1994
FTADDS	  1994%	  1994
FTAN	  1993#	  1993	  1994	  1995
FTAUN	    14	    14#	  1993
FTBUN	  1995
FTDAEM	  3062#	  3063	  3071
FULCNT	  1247#
FUPOJ1	  4124#
FUPOPJ	  4127#
GIVLOK	  4150#
GMTDIF	  2244#
GMTUDT	  2896#
HFDBUF	  1661	  1665	  2199#
HGHBLK	  2197#
HIACBL	  4522#	  4522
HIGAC2	  4522
HIGAC3	  4522
HIGHAC	  4522#	  4522
HIGHJB	  1160#
HLTBRK	  1216#
HNGLST	  2330#
HNGMIN	  1094#
HNGTIM	  1092#
HOMCOD	  3957%	  3957
COMMON - MONITOR COMMON DATA AREA AND CONFIGURATION DEFINITION - V534	MACRO 12.5-46.0 14:23 13-JAN-88
COMMON.MAC	 7-DEC-87 14:36		Symbol cross reference

HOMDCT	  3961%	  3961
HOMDCV	  3944%	  3944
HOMHID	  3967%	  3967
HOMNAM	  3956%	  3956
HOMP2	  3951#	  3966
HOMPRV	  3959%	  3959
HUNGST	  4959
HWDPNT	  3396%	  3396	  3403%	  3403	  3409%	  3409	  3415%	  3415	  3420%	  3420	  3425%	  3425	  3432%	  3432
	  3436%	  3436	  3441%	  3441	  3445%	  3445	  3469%	  3469
I	  4959
IADPTR	  4206#
ICPFAC	  2473#	  2479	  2482
ILWZ	  1441#
IN20	  4623
IN21	  4601#	  4624
IN210	  4631
IN2100	  4687
IN2101	  4688
IN2102	  4689
IN2103	  4690
IN2104	  4691
IN2105	  4692
IN2106	  4693
IN2107	  4694
IN211	  4632
IN2110	  4695
IN2111	  4696
IN2112	  4697
IN2113	  4698
IN2114	  4699
IN2115	  4700
IN2116	  4701
IN2117	  4702
IN212	  4633
IN2120	  4703
IN2121	  4704
IN2122	  4705
IN2123	  4706
IN2124	  4707
IN2125	  4708
IN2126	  4709
IN2127	  4710
IN213	  4634
IN2130	  4711
IN2131	  4712
IN2132	  4713
IN2133	  4714
IN2134	  4715
IN2135	  4716
IN2136	  4717
IN2137	  4718
IN214	  4635
IN2140	  4719
COMMON - MONITOR COMMON DATA AREA AND CONFIGURATION DEFINITION - V534	MACRO 12.5-46.0 14:23 13-JAN-88
COMMON.MAC	 7-DEC-87 14:36		Symbol cross reference

IN2141	  4720
IN2142	  4721
IN2143	  4722
IN2144	  4723
IN2145	  4724
IN2146	  4725
IN2147	  4726
IN215	  4636
IN2150	  4727
IN2151	  4728
IN2152	  4729
IN2153	  4730
IN2154	  4731
IN2155	  4732
IN2156	  4733
IN2157	  4734
IN216	  4637
IN2160	  4735
IN2161	  4736
IN2162	  4737
IN2163	  4738
IN2164	  4739
IN2165	  4740
IN2166	  4741
IN2167	  4742
IN217	  4638
IN2170	  4743
IN2171	  4744
IN2172	  4745
IN2173	  4746
IN2174	  4747
IN2175	  4748
IN2176	  4749
IN2177	  4750
IN22	  4602#	  4625
IN220	  4639
IN2200	  4751
IN2201	  4752
IN2202	  4753
IN2203	  4754
IN2204	  4755
IN2205	  4756
IN2206	  4757
IN2207	  4758
IN221	  4640
IN2210	  4759
IN2211	  4760
IN2212	  4761
IN2213	  4762
IN2214	  4763
IN2215	  4764
IN2216	  4765
IN2217	  4766
COMMON - MONITOR COMMON DATA AREA AND CONFIGURATION DEFINITION - V534	MACRO 12.5-46.0 14:23 13-JAN-88
COMMON.MAC	 7-DEC-87 14:36		Symbol cross reference

IN222	  4641
IN2220	  4767
IN2221	  4768
IN2222	  4769
IN2223	  4770
IN2224	  4771
IN2225	  4772
IN2226	  4773
IN2227	  4774
IN223	  4642
IN2230	  4775
IN2231	  4776
IN2232	  4777
IN2233	  4778
IN2234	  4779
IN2235	  4780
IN2236	  4781
IN2237	  4782
IN224	  4643
IN2240	  4783
IN2241	  4784
IN2242	  4785
IN2243	  4786
IN2244	  4787
IN2245	  4788
IN2246	  4789
IN2247	  4790
IN225	  4644
IN2250	  4791
IN2251	  4792
IN2252	  4793
IN2253	  4794
IN2254	  4795
IN2255	  4796
IN2256	  4797
IN226	  4645
IN227	  4646
IN23	  4603#	  4626
IN230	  4647
IN231	  4648
IN232	  4649
IN233	  4650
IN234	  4651
IN235	  4652
IN236	  4653
IN237	  4654
IN24	  4604#	  4627
IN240	  4655
IN241	  4656
IN242	  4657
IN243	  4658
IN244	  4659
IN245	  4660
COMMON - MONITOR COMMON DATA AREA AND CONFIGURATION DEFINITION - V534	MACRO 12.5-46.0 14:23 13-JAN-88
COMMON.MAC	 7-DEC-87 14:36		Symbol cross reference

IN246	  4661
IN247	  4662
IN25	  4605#	  4628
IN250	  4663
IN251	  4664
IN252	  4665
IN253	  4666
IN254	  4667
IN255	  4668
IN256	  4669
IN257	  4670
IN26	  4629
IN260	  4671
IN261	  4672
IN262	  4673
IN263	  4674
IN264	  4675
IN265	  4676
IN266	  4677
IN267	  4678
IN27	  4630
IN270	  4679
IN271	  4680
IN272	  4681
IN273	  4682
IN274	  4683
IN275	  4684
IN276	  4685
IN277	  4686
INADEF	  1145#
INADFL	  1145	  4242#
INAHIT	  4243#
INDPPN	   271	  2145
INI0	  4600#	  4623
INI1	  4624
INI10	  4631
INI100	  4687
INI101	  4688
INI102	  4689
INI103	  4690
INI104	  4691
INI105	  4692
INI106	  4693
INI107	  4694
INI11	  4632
INI110	  4695
INI111	  4696
INI112	  4697
INI113	  4698
INI114	  4699
INI115	  4700
INI116	  4701
INI117	  4702
COMMON - MONITOR COMMON DATA AREA AND CONFIGURATION DEFINITION - V534	MACRO 12.5-46.0 14:23 13-JAN-88
COMMON.MAC	 7-DEC-87 14:36		Symbol cross reference

INI12	  4633
INI120	  4703
INI121	  4704
INI122	  4705
INI123	  4706
INI124	  4707
INI125	  4708
INI126	  4709
INI127	  4710
INI13	  4634
INI130	  4711
INI131	  4712
INI132	  4713
INI133	  4714
INI134	  4715
INI135	  4716
INI136	  4717
INI137	  4718
INI14	  4635
INI140	  4719
INI141	  4720
INI142	  4721
INI143	  4722
INI144	  4723
INI145	  4724
INI146	  4725
INI147	  4726
INI15	  4636
INI150	  4727
INI151	  4728
INI152	  4729
INI153	  4730
INI154	  4731
INI155	  4732
INI156	  4733
INI157	  4734
INI16	  4637
INI160	  4735
INI161	  4736
INI162	  4737
INI163	  4738
INI164	  4739
INI165	  4740
INI166	  4741
INI167	  4742
INI17	  4638
INI170	  4743
INI171	  4744
INI172	  4745
INI173	  4746
INI174	  4747
INI175	  4748
INI176	  4749
COMMON - MONITOR COMMON DATA AREA AND CONFIGURATION DEFINITION - V534	MACRO 12.5-46.0 14:23 13-JAN-88
COMMON.MAC	 7-DEC-87 14:36		Symbol cross reference

INI177	  4750
INI2	  4625
INI20	  4639
INI200	  4751
INI201	  4752
INI202	  4753
INI203	  4754
INI204	  4755
INI205	  4756
INI206	  4757
INI207	  4758
INI21	  4640
INI210	  4759
INI211	  4760
INI212	  4761
INI213	  4762
INI214	  4763
INI215	  4764
INI216	  4765
INI217	  4766
INI22	  4641
INI220	  4767
INI221	  4768
INI222	  4769
INI223	  4770
INI224	  4771
INI225	  4772
INI226	  4773
INI227	  4774
INI23	  4642
INI230	  4775
INI231	  4776
INI232	  4777
INI233	  4778
INI234	  4779
INI235	  4780
INI236	  4781
INI237	  4782
INI24	  4643
INI240	  4783
INI241	  4784
INI242	  4785
INI243	  4786
INI244	  4787
INI245	  4788
INI246	  4789
INI247	  4790
INI25	  4644
INI250	  4791
INI251	  4792
INI252	  4793
INI253	  4794
INI254	  4795
COMMON - MONITOR COMMON DATA AREA AND CONFIGURATION DEFINITION - V534	MACRO 12.5-46.0 14:23 13-JAN-88
COMMON.MAC	 7-DEC-87 14:36		Symbol cross reference

INI255	  4796
INI256	  4797
INI26	  4645
INI27	  4646
INI3	  4626
INI30	  4647
INI31	  4648
INI32	  4649
INI33	  4650
INI34	  4651
INI35	  4652
INI36	  4653
INI37	  4654
INI4	  4627
INI40	  4655
INI41	  4656
INI42	  4657
INI43	  4658
INI44	  4659
INI45	  4660
INI46	  4661
INI47	  4662
INI5	  4628
INI50	  4663
INI51	  4664
INI52	  4665
INI53	  4666
INI54	  4667
INI55	  4668
INI56	  4669
INI57	  4670
INI6	  4629
INI60	  4671
INI61	  4672
INI62	  4673
INI63	  4674
INI64	  4675
INI65	  4676
INI66	  4677
INI67	  4678
INI7	  4630
INI70	  4679
INI71	  4680
INI72	  4681
INI73	  4682
INI74	  4683
INI75	  4684
INI76	  4685
INI77	  4686
INLMES	  3388%	  3388	  3392%	  3392	  3398%	  3398	  3405%	  3405	  3410%	  3410	  3416%	  3416	  3421%	  3421
	  3428%	  3428	  3433%	  3433	  3437%	  3437	  3442%	  3442	  3446%	  3446	  3634%	  3634
INTBYP	  4262#	  4278
INTNUM	  1557	  1907	  2065#
COMMON - MONITOR COMMON DATA AREA AND CONFIGURATION DEFINITION - V534	MACRO 12.5-46.0 14:23 13-JAN-88
COMMON.MAC	 7-DEC-87 14:36		Symbol cross reference

INTRNM	  4278#
INTTAB	  1572	  1907	  1922#	  1924	  2065
INTTB1	  1559	  1589	  1907	  1924#
IOWZ	  1441#
IPOPJ	  4106#
IPOPJ1	  4104#
IRING	   417	   497#	   625	  3043
IRINGA	   417#	  3048
IRINGS	   418#
IRINGX	   656	   695#	  3043	  3044	  3047
IRP620	   420#	  3755
IRPPDP	   419#
IRPTIM	   699#
ITMCHN	  2067#
ITMDEV	  1313#
J	  1599	  1600	  1602	  1603	  1604	  1605	  1606	  1607	  1608	  1643	  1648	  1656	  1657	  4106
	  4139	  4198	  4211	  4222	  4223	  4224	  4226	  4227	  4228	  4231	  4232	  4233	  4234	  4236
	  4238	  4239	  4244	  4246	  4248	  4249	  4250	  4251	  4267	  4269	  4274	  4275	  4277	  4280
	  4281	  4282	  4283	  4286	  4287	  4288	  4289
JBLMSK	  4241#
JBLMSZ	  4240#	  4241	  4244	  4245
JBMQNT	  1295#	  1296
JBNIRD	  1463#	  4286
JBNIWT	  1470#	  4288
JBNQNT	  1294#	  4211
JBNRCT	  1466#	  1473#	  4287	  4289
JBQMN	  1449#
JBRIRD	  1464#
JBRIWT	  1471#
JBSIRD	  1462#	  1464	  4286
JBSIWT	  1469#	  1471	  4288
JBSQNT	  1293#	  4211
JBSRCT	  1465#	  1472#	  4287	  4289
JBTABT	  1382#
JBTAJF	  1388#
JBTAUN	  1360#
JBTAWQ	  1402#
JBTBCS	  1376#
JBTBET	  1385#
JBTBIO	  1386#
JBTCIN	  1372#
JBTCLB	  1421#
JBTCMP	  1378#
JBTCNK	  1375#
JBTCOT	  1373#
JBTCP2	  1379#
JBTCPU	  1380#
JBTCTX	  1263#	  4222	  4223	  4224
JBTDAB	  1485#
JBTDLK	  1366#
JBTELP	  1374#
JBTENB	  1394#
JBTERN	  1367#
COMMON - MONITOR COMMON DATA AREA AND CONFIGURATION DEFINITION - V534	MACRO 12.5-46.0 14:23 13-JAN-88
COMMON.MAC	 7-DEC-87 14:36		Symbol cross reference

JBTFIT	  1280#
JBTFNT	  1340#
JBTFPN	  1356#
JBTFTR	  1298#
JBTICT	  1290#	  4211
JBTINA	  1423#	  4244	  4245
JBTINT	  1333#	  4267	  4269	  4274	  4275	  4277
JBTIOA	  1266#
JBTKCT	  1325#
JBTLIC	  1352#	  4238	  4239
JBTLIM	  1364#
JBTMFR	  1306#
JBTMPC	  1476#
JBTMWS	  1283#	  4231	  4232	  4233	  4234
JBTNAM	  1321#	  1323
JBTNM1	  1310#
JBTNM2	  1311#
JBTP2S	  1304#
JBTPC	  1429#
JBTPCB	  1419#
JBTPGO	  1276#	  4226	  4227	  4228
JBTPIP	  1397#
JBTPNO	  1302#
JBTPNT	  1346#
JBTPPN	  1309#
JBTPRG	  1323#
JBTPRV	  1416#	  4246	  4247	  4248	  4249	  4250	  4251
JBTPWH	  1480#
JBTPWL	  1482#
JBTPWS	  1478#
JBTQ	  1445#	  1449
JBTRCT	  1452#	  4286	  4287	  4289
JBTS2P	  1305#
JBTSCA	  1392#	  4280	  4281	  4282	  4283
JBTSER	  1369#
JBTSIN	  1370#
JBTSLC	  1353#
JBTSLK	  1368#
JBTSLM	  1363#
JBTSOK	  1377#
JBTSOT	  1371#
JBTSPN	  1303#
JBTST2	  1261#
JBTSTA	  1350#
JBTSTS	  1258#	  4198
JBTTMP	  1318#
JBTUID	  1301#
JBTUN1	  1362#
JBTUNM	  1361#
JBTUPM	  1271#
JBTWCH	  1328#	  4236
JBTWCT	  1467#	  4288
JBTWRS	  1262#
COMMON - MONITOR COMMON DATA AREA AND CONFIGURATION DEFINITION - V534	MACRO 12.5-46.0 14:23 13-JAN-88
COMMON.MAC	 7-DEC-87 14:36		Symbol cross reference

JBYACT	  4227#
JBYCLK	  4264#
JBYCTR	  4228#
JBYERR	  4268#
JBYEXC	  4275#
JBYHNG	  4266#
JBYIN2	  4245#
JBYINA	  4244#
JBYIRD	  4286#
JBYIWT	  4288#
JBYLIM	  4277#
JBYMCY	  4276#
JBYMWL	  4233#
JBYMWS	  4232#
JBYNTQ	  4274#
JBYPER	  4273#
JBYPGT	  4265#
JBYPPP	  4231#
JBYQNT	  4211#
JBYRCT	  4287#
JBYREF	  4272#
JBYRPT	  4238#
JBYSAL	  4270#
JBYSC1	  4280#
JBYSC2	  4281#
JBYSC3	  4282#
JBYSC4	  4283#
JBYSLL	  4271#
JBYSWS	  4226#
JBYTIM	  4267#
JBYUUO	  4263#
JBYUWS	  4234#
JBYWAK	  4269#
JBYWCH	  4236#
JBYWCT	  4289#
JBYWPT	  4239#
JFY2SC	  2523#
JFYHR	  2195#
JFYMIN	  2193#
JFYS12	  2524#
JFYSC2	  2522#
JFYSEC	  2191#
JOB	  1088#	  3836
JOB41	   366#
JOBCOR	   384#
JOBCST	   385#
JOBDDT	   373#
JOBEXM	  2271%	  2271
JOBFF	   382#
JOBHRL	   379#
JOBMAX	  1254#	  1255	  2231
JOBMXL	  1255#	  1313
JOBN	    31	    31#	   602	  1114	  1254	  1256	  1258	  1261	  1262	  1263	  1266	  1271	  1276	  1280
COMMON - MONITOR COMMON DATA AREA AND CONFIGURATION DEFINITION - V534	MACRO 12.5-46.0 14:23 13-JAN-88
COMMON.MAC	 7-DEC-87 14:36		Symbol cross reference

	  1283	  1290	  1298	  1301	  1302	  1303	  1304	  1305	  1306	  1309	  1310	  1311	  1316	  1318	  1321
	  1325	  1328	  1333	  1340	  1346	  1350	  1352	  1353	  1356	  1360	  1361	  1362	  1363	  1364
	  1366	  1367	  1368	  1369	  1370	  1371	  1372	  1373	  1374	  1375	  1376	  1377	  1378	  1379
	  1380	  1382	  1385	  1386	  1388	  1392	  1394	  1397	  1402	  1416	  1418	  1419	  1421	  1423
	  1429	  1445	  1452	  1467	  1476	  1478	  1480	  1482	  1485	  1506	  1522	  1529	  1713	  2128
	  4223	  4224	  4225
JOBREL	   368#
JOBS	    31	  4192
JOBS41	   383#
JOBSA	   381#
JOBSYM	   380#
JOBVER	   386#
JPOPJ	  4105#
JPOPJ1	  4103#
JWPOS	  4198	  4199
JWSIZ	  4198	  4199
K4SWAP	  2469#
KAF	  1704	  3632#
KAFCRS	  3630#
KAFLOC	   370#
KAFPDL	  3630	  3631	  3640#
KAFPRT	  3632	  3634#
KEY620	   414#	  3761
KEYTIM	   698#
KLIIWD	   361#
KLIOWD	   362#
KSSS4	   351#
KSYS	  1144#
KXFTIM	  2475#	  2479	  2482
LASCOR	  1209#
LASIN	  1242#
LASOUT	  1243#
LDBALC	  1643#
LDBDCH	  2352%	  2352
LDBLEN	  1644%	  1644
LDBSTR	  2352%	  2352
LDBVRG	  1649	  1650	  2348#
LDPLNO	  1656%	  1656
LG.LAB	  2975	  2980	  2985	  2991	  2998	  3004	  3142	  3148	  3723	  4522
LG.LPC	  4522
LG.LUB	  4522
LGONAM	  2189#
LI.ACO	  3926
LI.COF	  1919	  3926	  4560
LI.CON	  1918
LI.CPS	  3926
LI.PIF	  3926
LI.PIN	  4575
LICMAX	  2457#
LICMXL	  2458#
LICRPS	  4238
LICTBL	  2437#	  2457	  2458
LICWPS	  4239
COMMON - MONITOR COMMON DATA AREA AND CONFIGURATION DEFINITION - V534	MACRO 12.5-46.0 14:23 13-JAN-88
COMMON.MAC	 7-DEC-87 14:36		Symbol cross reference

LIM1HS	  2890	  2890#	  2894
LIM1MS	  2888	  2888#	  2892
LIM8MS	  2889	  2889#	  2893
LIN	  4620#	  4623	  4624	  4624#	  4625	  4625#	  4626	  4626#	  4627	  4627#	  4628	  4628#	  4629	  4629#
	  4630	  4630#	  4631	  4631#	  4632	  4632#	  4633	  4633#	  4634	  4634#	  4635	  4635#	  4636	  4636#
	  4637	  4637#	  4638	  4638#	  4639	  4639#	  4640	  4640#	  4641	  4641#	  4642	  4642#	  4643	  4643#
	  4644	  4644#	  4645	  4645#	  4646	  4646#	  4647	  4647#	  4648	  4648#	  4649	  4649#	  4650	  4650#
	  4651	  4651#	  4652	  4652#	  4653	  4653#	  4654	  4654#	  4655	  4655#	  4656	  4656#	  4657	  4657#
	  4658	  4658#	  4659	  4659#	  4660	  4660#	  4661	  4661#	  4662	  4662#	  4663	  4663#	  4664	  4664#
	  4665	  4665#	  4666	  4666#	  4667	  4667#	  4668	  4668#	  4669	  4669#	  4670	  4670#	  4671	  4671#
	  4672	  4672#	  4673	  4673#	  4674	  4674#	  4675	  4675#	  4676	  4676#	  4677	  4677#	  4678	  4678#
	  4679	  4679#	  4680	  4680#	  4681	  4681#	  4682	  4682#	  4683	  4683#	  4684	  4684#	  4685	  4685#
	  4686	  4686#	  4687	  4687#	  4688	  4688#	  4689	  4689#	  4690	  4690#	  4691	  4691#	  4692	  4692#
	  4693	  4693#	  4694	  4694#	  4695	  4695#	  4696	  4696#	  4697	  4697#	  4698	  4698#	  4699	  4699#
	  4700	  4700#	  4701	  4701#	  4702	  4702#	  4703	  4703#	  4704	  4704#	  4705	  4705#	  4706	  4706#
	  4707	  4707#	  4708	  4708#	  4709	  4709#	  4710	  4710#	  4711	  4711#	  4712	  4712#	  4713	  4713#
	  4714	  4714#	  4715	  4715#	  4716	  4716#	  4717	  4717#	  4718	  4718#	  4719	  4719#	  4720	  4720#
	  4721	  4721#	  4722	  4722#	  4723	  4723#	  4724	  4724#	  4725	  4725#	  4726	  4726#	  4727	  4727#
	  4728	  4728#	  4729	  4729#	  4730	  4730#	  4731	  4731#	  4732	  4732#	  4733	  4733#	  4734	  4734#
	  4735	  4735#	  4736	  4736#	  4737	  4737#	  4738	  4738#	  4739	  4739#	  4740	  4740#	  4741	  4741#
	  4742	  4742#	  4743	  4743#	  4744	  4744#	  4745	  4745#	  4746	  4746#	  4747	  4747#	  4748	  4748#
	  4749	  4749#	  4750	  4750#	  4751	  4751#	  4752	  4752#	  4753	  4753#	  4754	  4754#	  4755	  4755#
	  4756	  4756#	  4757	  4757#	  4758	  4758#	  4759	  4759#	  4760	  4760#	  4761	  4761#	  4762	  4762#
	  4763	  4763#	  4764	  4764#	  4765	  4765#	  4766	  4766#	  4767	  4767#	  4768	  4768#	  4769	  4769#
	  4770	  4770#	  4771	  4771#	  4772	  4772#	  4773	  4773#	  4774	  4774#	  4775	  4775#	  4776	  4776#
	  4777	  4777#	  4778	  4778#	  4779	  4779#	  4780	  4780#	  4781	  4781#	  4782	  4782#	  4783	  4783#
	  4784	  4784#	  4785	  4785#	  4786	  4786#	  4787	  4787#	  4788	  4788#	  4789	  4789#	  4790	  4790#
	  4791	  4791#	  4792	  4792#	  4793	  4793#	  4794	  4794#	  4795	  4795#	  4796	  4796#	  4797	  4797#
	  4798	  4798#
LINALC	  1635#
LINFLG	  4588#
LINKDB	  1548#	  1688
LINMXL	  1515#
LINTAB	  1648	  4619#	  4800
LISTSN	    86	    86#
LIVWRD	   427#
LM3ATB	  1000#
LM3CUR	   945#
LM3ERR	   960#
LM3HDA	  1006#
LM3LMJ	   984#
LM3LMV	   985#
LM3OV1	   972#	   984	  1000
LM3OV2	   974#	   985	  1006
LM3OVR	   970#	   990
LM3SPB	   992#
LM3SPO	   994#
LM3SPT	   990#
LMASRP	  1008#
LMMCUR	   946#	   947	   951
LMMERR	   958#
LMMEXS	   947#
LMMMXW	   951#	   962
COMMON - MONITOR COMMON DATA AREA AND CONFIGURATION DEFINITION - V534	MACRO 12.5-46.0 14:23 13-JAN-88
COMMON.MAC	 7-DEC-87 14:36		Symbol cross reference

LMMRDW	   953#
LMMRED	   952#
LMMSUP	   962#
LMNCUR	   939#	   940	   943	   945	   952	   953
LMPACT	   949#
LMPCUR	   940#
LMPDER	   956#	   958
LMPDTE	   957#	   958	   959	   960
LMPLOK	   964#
LMPMXW	   950#	   951	   952	   953
LMPNER	   963#
LMPREF	   954#
LMPSHR	   936#	   947
LMPSUP	   961#	   962
LMPVIR	   955#
LMSCUR	   938#	   943	   945
LMYATB	   998#
LMYCUR	   943#
LMYERR	   959#
LMYHDA	  1001#
LMYLMA	   978#
LMYLMJ	   982#
LMYLMV	   983#
LMYOV1	   971#	   982	   998
LMYOV2	   973#	   983	  1001
LMYOVR	   967#	   978	   989
LMYSPB	   991#
LMYSPO	   993#
LMYSPT	   989#
LNKTTL	  1647#	  1657
LOCDAY	  2240#
LOCHOR	  2241#
LOCMIN	  2242#
LOCMON	  2239#
LOCORE	  2183#
LOCSEC	  2243#
LOCTIM	  4084%	  4084
LOCWEK	  2399#
LOCYER	  2238#
LOGMAX	  2231#
LOGNUM	  2236#
LOOP	  1559#	  1619
LP.CSB	  3877
LP.CSD	  3677	  3710
LP.CSF	  3927
LP.IOR	  3927
LP.PWF	  3927
LP0	   182#	  3818	  4959
LP0ACB	  1959
LP0BL	  4959	  4959#
LP0BUF	  4959	  4959#
LP0CHL	  1959#	  1959	  4959
LP0CHN	  1959#	  4959
COMMON - MONITOR COMMON DATA AREA AND CONFIGURATION DEFINITION - V534	MACRO 12.5-46.0 14:23 13-JAN-88
COMMON.MAC	 7-DEC-87 14:36		Symbol cross reference

LP0CLS	  4959#
LP0CTR	  4959#
LP0DDB	  1960	  4959	  4959#
LP0INT	  1959	  4959#
LP0INW	  4959#
LP0JEN	  1959#	  1959
LP0N	  1959#	  1959	  1960	  1961
LP0NAM	  4959#	  4959
LP0P	  1959#	  1959
LP0PTR	  4959#	  4959
LP0PWC	  4959#
LP0RET	  1959#	  1959
LP0SAC	  1959#	  1959	  4959
LP0SAV	  1959#	  1959	  4959
LP0STS	  4959#	  4959
LP0SV1	  4959#	  4959
LP0WUC	  4959#
LP1	   183#
LP2HOM	  3951%	  3951	  3965%	  3965
LPNAM	  4959#	  4959
LPNHOM	  3949%	  3949
LPOPJ	  4129#
LPOPJ1	  4126#
LPT0ST	  3818#	  3818
LPT1	   179#	   182
LPT2	   180#	   183
LPT3	   181#
LPTBKO	  4959#	  4959
LPTCH	  4959#	  4959
LPTCNI	  4959#	  4959
LPTCNO	  4959#	  4959
LPTCON	  4959#	  4959
LPTCSO	  4959#	  4959
LPTCSZ	  4959#	  4959
LPTDNE	  4959#	  4959
LPTDON	  4832#	  4959
LPTDSP	  4959%	  4959
LPTDTO	  4959#	  4959
LPTECH	  4959#	  4959
LPTECM	  4952%	  4959
LPTEX1	  4959#	  4959
LPTINT	  4952%	  4959
LPTMOD	  4959#	  4959
LPTN	    32	    32#	  1959	  3817	  4828	  4957	  4959
LPTNXT	  4952%	  4959
LPTPTR	  4959#	  4959
LPTSIZ	   141	  4959
LPTSV2	  4959#	  4959
LPTSVE	  4959#	  4959
LPXSTS	  4959#	  4959
LSAREC	   743#
LSTWRD	  1162#
M	  1563	  1564	  1572	  1580	  1611	  4112	  4189
COMMON - MONITOR COMMON DATA AREA AND CONFIGURATION DEFINITION - V534	MACRO 12.5-46.0 14:23 13-JAN-88
COMMON.MAC	 7-DEC-87 14:36		Symbol cross reference

M.IQTA	   151
M.SBSZ	   154	  2199
M.SQTA	   148
M1POPJ	  4135#
MAGN	   218	   218#	  1982
MAXCHN	   771#
MAXCPR	   941#
MAXNBP	   155	  2346
MAXPCB	  2530#
MBWZ	  1441#
MDFN	   324#
MEMNSP	  2178#
MEMSIZ	  1170#	  3093
MEMSZP	  2529#
MIDNIT	  2521#
MINPCB	  2531#
MJOBN	  1256#
MLOWZ	  1441#
MONCR1	  3890	  3897#
MONCR2	  3903	  3907#
MONCRS	  3889#
MONHSO	  2350#
MONORG	   168#	  2347	  2350
MONTAB	  2507	  2508#
MONVFF	  2347#
MPOPJ	  4112#
MSKIRG	   409#
MSKORG	   410#
MT0DDB	  2265%	  2265
MT0KDB	  2334%	  2334
MTR	  3112#	  3792	  3875
MTRSTS	  3792#	  3792
MTSIZ	   138
MULDDB	  1589#	  1612
MWSLIM	  1215#
MXLIN	  1511#	  1515
MXPROT	  2485#
MXQUE	  1433#	  1436	  1436#	  1441	  1441#	  1442	  1442#	  1444
MXTIM	  1203#
NCMFLG	  1530#	  1532
NCPRUN	  2341#
NCTXPG	   882#	   883	   885	   889	   903	   913	  1263	  3853	  4218	  4230
NEWMON	  3738%	  3738
NEXT	  1560	  1562	  1578	  1580	  1614	  1615#
NFLG	  1512#	  1513	  2583	  2584	  4588
NMXFLG	  1513#
NMXLIN	  1514#
NOBOOT	  3730	  3739#
NOCPUS	  2335#
NOCRS	  3628#	  3775	  3889
NODIE	   577%
NOSAV	  1923#	  1959	  1973
NOSNBF	  1662	  1666#
COMMON - MONITOR COMMON DATA AREA AND CONFIGURATION DEFINITION - V534	MACRO 12.5-46.0 14:23 13-JAN-88
COMMON.MAC	 7-DEC-87 14:36		Symbol cross reference

NOTFT	  1574	  1580#
NRSVDP	  1690#
NSPMEM	   130	  2178
NSWMXL	  1205#
NSWTBL	  1131#	  1205
NTYLNK	  1565	  1570#
NULERR	  1106#
NULMNT	  1196#
NULPDL	   887#
NULTIM	  1194#
NULUPL	   885#	   886	   887
NULZ	  1441#	  1449
NUMACB	  2990	  2997
NUMCHN	   770#	   771	   772	   775	   778
NUMLIN	  2187#
NUMREV	  3990	  4033#	  4035	  4035#	  4037	  4037#	  4040	  4041	  4043	  4052	  4057
NUMTAB	  2098%	  2098	  2209%	  2209
NWCORE	  2325#
NXMPTR	  2326#
NXTUNT	  3949#	  3969
OCTPNT	  3465%	  3465
ODEBUG	  1701#
ODPMXL	  2495#
ODPTBL	  2460#	  2495
ONCGO	   398%	   398
ONPOPJ	  4143#
OPNFPF	   164
ORING	   421	   498#	   629	  3045
ORINGA	   421#	  3050
ORINGS	   422#
ORINGX	   660	   696#	  3045	  3046	  3049
ORP620	   424#	  3752
ORPPDP	   423#
ORPTIM	   700#
P	   579	  1070	  1071	  1072	  1073	  1074	  1075	  1076	  1078	  1079	  1080	  1081	  1082	  1083
	  1590	  1626	  1638	  1647	  1664	  1679	  1707	  1710	  2913	  2914	  3060	  3061	  3072	  3154
	  3157	  3168	  3190	  3196	  3210	  3214	  3388	  3392	  3396	  3398	  3403	  3405	  3409	  3410
	  3415	  3416	  3420	  3421	  3425	  3428	  3432	  3433	  3436	  3437	  3441	  3442	  3445	  3446
	  3453	  3459	  3460	  3465	  3467	  3469	  3471	  3473	  3474	  3475	  3630	  3631	  3632	  3634
	  3643	  3644	  3645	  3646	  3650	  3651	  3652	  3653	  3657	  3658	  3659	  3660	  3695	  3696
	  3697	  3698	  3699	  3700	  3701	  3702	  3703	  3704	  3706	  3707	  3727	  3731	  3735	  3736
	  3737	  3738	  3833	  3837	  3846	  3849	  3862	  3930	  3940	  3943	  3952	  3962	  3970	  3977
	  3983	  3986	  3992	  3994	  4080	  4081	  4084	  4085	  4086	  4087	  4088	  4092	  4094	  4097
	  4099	  4100	  4101	  4102	  4104	  4106	  4107	  4108	  4109	  4110	  4111	  4112	  4113	  4115
	  4116	  4117	  4118	  4119	  4120	  4121	  4124	  4126	  4127	  4129	  4130	  4131	  4132	  4133
	  4136	  4140	  4141	  4144	  4151	  4154	  4155	  4157	  4160	  4161	  4162	  4164	  4167	  4168
	  4169	  4170	  4172	  4175	  4176	  4177	  4178	  4179	  4181	  4182	  4183	  4184	  4185	  4186
	  4522
P1	  1557	  1559	  1572	  1589	  1618	  1619	  1623	  1624	  3163	  3165	  3167	  3184	  3188	  3201
	  3205	  3206	  3207	  3208	  3209	  3459	  3461	  3462	  3472	  3474	  3742	  3746	  3749	  3759
	  3763	  3766	  3769	  3772	  3891	  3973	  4154	  4160	  4167	  4175	  4185
P2	  1559	  1560	  1561	  1563	  1566	  1570	  1571	  3164	  3165	  3166	  3185	  3186	  3199	  3200
	  3201	  3202	  3204	  3460	  3462	  3463	  3464	  3466	  3468	  3470	  3473	  4161	  4168	  4176
COMMON - MONITOR COMMON DATA AREA AND CONFIGURATION DEFINITION - V534	MACRO 12.5-46.0 14:23 13-JAN-88
COMMON.MAC	 7-DEC-87 14:36		Symbol cross reference

	  4184
P3	   945	   960	   970	   972	   974	   992	   994	  1583	  1599	  1611	  1612	  1615	  1616	  3187
	  3188	  3189	  3192	  3193	  3194	  3195	  3196	  3197	  3199	  4120	  4169	  4177	  4183
P3POPJ	  4120#
P4	  1013	  1584	  1609	  1610	  3190	  3198	  3200	  3945	  3959	  3967	  4178	  4182
PAG	  2973	  3052	  3083	  3084	  3152	  3671	  3672	  4522
PAGCNI	  3605#	  3672	  3702
PAGDTI	  3604#	  3671	  3700
PAGSIZ	  1124#	  2319
PARADR	  1184#
PARCON	  1181#
PARFLG	  1210#
PARPC	  1189#
PARSPR	  1177#
PARTOT	  1173#
PARWRD	  1187#
PATCH	  2119%	  2119	  2211%	  2212
PATEND	  2211%	  2212
PATMAP	  2218#
PATSYM	   399%	   399
PBMMSK	   910#
PC.UIO	  3868
PC.USR	  4522
PCP	  3638%	  3638
PDBPTR	  2227#
PDL	   884#	   887	  4423#	  4522
PDVCNT	  4204#
PDVTIM	  4201#
PFW.A	  3848
PFW.H	  3845
PFW.R	  3847
PG	  1597	  1604	  1608	  3949	  3951	  3964	  3965	  4304	  4305	  4306	  4311	  4316	  4317	  4318
	  4322	  4325	  4327	  4328	  4329	  4333	  4334	  4335	  4336	  4340	  4341	  4342	  4343	  4344
	  4346	  4357	  4359	  4363	  4368
PGMERR	  4350#
PGPDER	  4348#	  4350
PGPDIO	  4326#
PGPDRT	  4354#
PGPDTE	  4349#	  4350
PGPNXM	  4347#
PGPSIP	  4351#
PGPSOP	  4352#
PGYADR	  4327#
PGYATB	  4359#
PGYBPL	  4318#
PGYCHT	  4336#
PGYCSH	  4368#
PGYDIO	  4325#
PGYDRT	  4344#
PGYERR	  4341#
PGYFPL	  4306#
PGYLMA	  4311#	  4312
PGYLMJ	  4317#
COMMON - MONITOR COMMON DATA AREA AND CONFIGURATION DEFINITION - V534	MACRO 12.5-46.0 14:23 13-JAN-88
COMMON.MAC	 7-DEC-87 14:36		Symbol cross reference

PGYLMV	  4316#
PGYLST	  4322#
PGYNXM	  4340#
PGYPGO	  4305#
PGYPNO	  4329#
PGYSIO	  4357#
PGYSIP	  4342#
PGYSOP	  4343#
PGYSPB	  4334#
PGYSPO	  4335#
PGYSPT	  4333#
PGYSTS	  4346#
PGYUNI	  4328#
PGYUNU	  4304#
PGYUSE	  4363#
PI	  3082	  3669	  3722	  4143
PI.OFF	  3722
PI.ON	  4143
PICLK	  4568	  4575#
PIOMOD	  4190#
PIPROG	  4579#	  4584
PISTS	  3602#	  3669	  3696
PISYMN	  2300#
PITLEN	  2301#
PJBNLH	  2336	  4191#	  4192	  4196
PJBST2	  4199#
PJBSTS	  4198#
PJOBN	  4196#
PLTN	   236	  2000	  3813
PMDRD	  3952	  4076%
PMDWT	  3962	  4076%
PMEMSZ	   206#
PMONTB	  2507#
PORTN	  1492	  1493	  1501	  1501#	  1506	  1511	  1512	  1514	  1643	  2187	  4621
PORTS	    29
POTLST	  1108#
PPNMON	  2345#
PPORTN	  1490	  1500	  1500#	  4799
PREVAC	  2951#	  3686	  3691
PRINTS	    12	    12#
PROT	  2479#
PROT0	  2482#
PRSPC	  3467%	  3467
PTPN	   235	  1998
PTRMSK	  4968#
PTRN	   234	  1958
PTYN	  2359	  4799#
PTYPTR	  2359#
PTYS	    30
PTYTAB	  2359	  4800#
PUNIT	  1584	  1610	  4197#
PUUOAC	  4189#
PVNCOR	  4248
COMMON - MONITOR COMMON DATA AREA AND CONFIGURATION DEFINITION - V534	MACRO 12.5-46.0 14:23 13-JAN-88
COMMON.MAC	 7-DEC-87 14:36		Symbol cross reference

PVNCRM	  4250
PVNHNG	  4251
PVNMOD	  4246	  4247
PVNTIM	  4249
PVSCOR	  4248
PVSCRM	  4250
PVSHNG	  4251
PVSMOD	  4246	  4247
PVSTIM	  4249
PVYCOR	  4248#
PVYCRM	  4250#
PVYHNG	  4251#
PVYMOD	  4246#
PVYTIM	  4249#
PVZMOD	  4247#
QQYSD	  2526#
QQYTTY	  2525#
QUEPCB	  1418#
QUESTR	  1555%	  1555
RA10N	   220	   316	   324	   451
RCCMAX	  2256#
RCDSTB	  3060#
RCMAX	  1213#
RD10N	   222	   314	   322	   451
RE.BTA	  3894	  3907	  3931	  4056#
RE.BTD	  3929	  4057#
RE.BTM	  4058#
RE.DCD	  3935	  4029	  4043#
RE.DCW	  3938	  4062#
RE.ONA	  3894	  4051#	  4068
RE.OND	  4052#	  4068
RE.ONM	  4053#
REBOOT	  3693#
REC.WR	   742#
RECOMP	  3930	  3980#
REDSB1	  3187#	  3205
REDSB2	  3191	  3194#
REDSB3	  3198	  3205#
REDSBC	  3154	  3181#
REDSBD	  3180#
REFLAG	  2499#
RENUM	  3905	  3908	  3993	  4040#	  4041	  4044	  4053	  4058
REPSID	   354#	  3920
REQCLK	  4568	  4574#	  4575
RES1	  4158	  4185#
RES2	  4165	  4184#
RES3	  4173	  4183#
RESCOD	  3909	  4029	  4031#
RESTRT	   355#	  3910	  3934	  3980	  4041	  4042	  4044
RET2	  1959	  4522	  4522#
RET2A	  4522	  4522#
RET3	  1973	  4522	  4522#
REUSER	  3901	  3937	  4029	  4032#
COMMON - MONITOR COMMON DATA AREA AND CONFIGURATION DEFINITION - V534	MACRO 12.5-46.0 14:23 13-JAN-88
COMMON.MAC	 7-DEC-87 14:36		Symbol cross reference

REXX	  4049#	  4051	  4052	  4053	  4054	  4054#	  4056	  4057	  4058	  4059	  4059#
REYDCA	  3933	  4029	  4042#
REYDCM	  3936	  4029	  4044#
REYMON	  3911	  4041#
RH20	  3104#	  3116
RH21	  3105#	  3117
RH22	  3106#	  3118
RH23	  3107#	  3119
RH24	  3108#	  3120
RH25	  3109#	  3121
RH26	  3110#	  3122
RH27	  3111#	  3123
RLWORD	   358#
RMXLIN	  1503#
RP10N	   221	   315	   323	   451
RPORTN	    29	    29#	  1491	  1496	  1499	  1499#	  1503	  4800
RSKP	  4093#
RSVDPG	  1691#
RTCUPS	  2229#
RTIME	   602	  1316#
RTN	  4096#
RUNPAT	  2214#
S	  3933	  3936	  3939	  3944	  3961	  4095	  4190
S$CPU	  3632	  3633
S$ENTR	   577	   584	  3633
S$EVEN	  3632
S$HALT	   577	  3632
S$INFO	  3632
S$NAME	   582#
S$NONA	   581	   584	  3633
S$PATC	  3632
S$TEMP	   577#	   577	  3632#	  3632
S$XCT	   584	  3633
S..147	   405#
S..KAF	  3632#
SA0ACB	  1973
SA0BAS	   443#
SA0BIT	  1975#	  1975
SA0CHL	  1973#	  1973
SA0CHN	  1973#	  1975	  1976
SA0INT	  1973	  1974%
SA0JEN	  1973#	  1973
SA0N	  1973#	  1973	  1974
SA0P	  1973#	  1973
SA0RET	  1973#	  1973
SA0SAC	  1973#	  1973
SA0SAV	  1973#	  1973	  1977
SA0STS	  3825#	  3825
SA1BAS	   444#
SASAVE	   447#	   689	  3829	  3830
SAV2	  1959	  4522	  4522#
SAV2A	  4522	  4522#
SAV3	  1973	  4522	  4522#
COMMON - MONITOR COMMON DATA AREA AND CONFIGURATION DEFINITION - V534	MACRO 12.5-46.0 14:23 13-JAN-88
COMMON.MAC	 7-DEC-87 14:36		Symbol cross reference

SAV30	  2209	  3040	  3615#	  3689	  3744	  3751	  3754	  3757
SAVAC2	  1959	  4522	  4522#
SAVAC3	  1973	  4522#
SAVAC4	  4560	  4560#
SAVAC5	  4560	  4560#
SAVAC6	  4560	  4560#
SAVAPR	  3552#
SAVCHG	   741#
SAVDMP	  4814#
SAVE1	  4154#
SAVE2	  4160#
SAVE3	  4167#
SAVE4	  3162	  3182	  4175#
SAVERA	  3553#
SAVPG2	  4522	  4522#
SAVPG3	  4522	  4522#
SAVSB0	  3554#
SAVSB1	  3555#
SAVT.	  1070#
SAX0	   173#	  3825
SAX1	   174#
SAXBAS	   441	   441#	   442	   445	   446	   685	  3829
SAXCHN	  1976#
SAXLEN	   445#	   685	   689	  3830
SAXN	   209	   442	   668	  1973	  1976	  3824
SAXSAV	  1977#
SB.CLR	  3164	  3181
SBDST1	  3562#	  3680	  3713
SBDST2	  3564#	  3681	  3714
SCCTAB	  2883#	  2886
SCCTBL	  2886#
SCHEDF	  1104#
SCLTAB	  2892#
SCNDDB	  1926	  1926%	  1927
SCNDDS	  1927%	  1927
SCNN	  1506#	  1508	  1907	  1926	  1927	  1928
SEEKTM	  2476#	  2482
SERIAL	  2176#
SFDMON	  2353#
SG.SWR	   744#
SHRFPG	   159
SIZCTX	   502	   883
SIZIRG	   407	   409	   418	   497	   625	   656	   695	  3044
SIZLPT	  4959#	  4959
SIZORG	   408	   410	   422	   498	   629	   660	   696	  3046
SKPMRN	  2911#
SLJOBN	  1114#	  1115
SLOCRS	  3627#	  3774	  3899
SLPZ	  1441#
SMALL	  1601	  1607#
SNBALC	  1661#
SNDPGY	  4312#
SPCGSW	  3986%	  3986
COMMON - MONITOR COMMON DATA AREA AND CONFIGURATION DEFINITION - V534	MACRO 12.5-46.0 14:23 13-JAN-88
COMMON.MAC	 7-DEC-87 14:36		Symbol cross reference

SPTNME	   248%
SPTSIZ	   248%
SR.CSB	  3155
SRPNDS	  3898%	  3898
SS4	  3989
STATES	  2173#
STAUTO	  2173
STDENS	   123
STOPCN	  3616#	  3666	  3668	  3716	  3728	  3732
STOPPC	  3617#	  3645	  3652	  3659	  3707
STOPZ	  1441#
STPFLG	  1096#
STRBTS	  3897%	  3897
STRDDB	  1554%	  1554	  3897%	  3897	  3919%	  3919	  3942%	  3942	  3946%	  3946
STRMON	  2342#
STRNAM	  1554%	  1554
STRPID	  3919%	  3919
STRTAD	   739#
STRTCL	   752#
STRUNI	  3947%	  3947
STSHUT	  2173
STSMXL	  2434#
STSTBL	  2408#	  2434
STSUPR	  2173
SUPT0	  3851#
SUPT1	  3854#	  3861
SUPTIM	  2351#
SVSET1	  3009	  3012#
SVSET2	  3011	  3014#
SVSETS	  2973#	  3542
SWPERC	  1236#
SWPHGH	  2465#
SWPMXL	  1244#
SWPTBL	  1219#	  1244
SWZ	  1441#
SYSBEG	  1086#
SYSBG2	  1207#	  1537
SYSBTS	   404#
SYSCHN	  2230#
SYSCOR	  1682%	  1682
SYSDAT	  2111#	  2113
SYSDDT	   399#
SYSDSP	   398#
SYSEND	  1534#	  2090
SYSIDL	  2221%	  2221
SYSIDR	  2221%	  2221
SYSLEN	  2324#
SYSMXL	  2941#
SYSNBP	  2346#
SYSNO	  3540
SYSNUM	  2203#
SYSORG	  2323#
SYSPDL	  3535#
COMMON - MONITOR COMMON DATA AREA AND CONFIGURATION DEFINITION - V534	MACRO 12.5-46.0 14:23 13-JAN-88
COMMON.MAC	 7-DEC-87 14:36		Symbol cross reference

SYSSIZ	  2119#
SYSSZP	  2528#
SYSTAP	  2114#
SYSTBL	  2918#	  2941
SYSUDT	  1143#
SYSUID	  1201#
SYSUPT	  2338#
SYSX0L	  2105
SYSX0R	  2105
SYSX1L	  2106
SYSX1R	  2106
SYSX2L	  2107
SYSX2R	  2107
SYSX3L	  2108
SYSX3R	  2108
SYSX4L	  2109
SYSX4R	  2109
SYSX5L	  2111
SYSX5R	  2111
SYSX6L	  2112
SYSX6R	  2112
SYSX7L	  2257
SYSX7R	  2257
SYSZRO	   400%	   400
T1	  1073	  1079	  1554	  1555	  1591	  1593	  1594	  1596	  1627	  1628	  1629	  1630	  1631	  1639
	  1640	  1641	  1645	  1648	  1650	  1652	  1653	  1655	  1665	  1680	  1682	  1684	  1685	  1687
	  1701	  1702	  1703	  1704	  1705	  2507	  3087	  3089	  3091	  3092	  3093	  3094	  3095	  3096
	  3098	  3128	  3129	  3130	  3131	  3132	  3133	  3134	  3137	  3139	  3155	  3156	  3180	  3181
	  3191	  3192	  3395	  3401	  3402	  3408	  3413	  3414	  3419	  3424	  3431	  3435	  3440	  3444
	  3464	  3468	  3728	  3729	  3732	  3733	  3744	  3748	  3751	  3752	  3754	  3755	  3757	  3758
	  3761	  3762	  3771	  3776	  3829	  3830	  3838	  3839	  3845	  3847	  3848	  3851	  3852	  3853
	  3854	  3855	  3861	  3893	  3897	  3898	  3919	  3920	  3937	  3938	  3954	  3956	  3976	  3989
	  4082	  4083	  4101	  4134	  4135	  4247	  4391	  4392	  4393	  4394	  4407	  4408	  4409	  4410
	  4411	  4412	  4413	  4414	  4415	  4416	  4417	  4418	  4560
T2	  1072	  1080	  1589	  1594	  1625	  1635	  1636	  1637	  1644	  1653	  1661	  1663	  1675	  1676
	  1677	  1678	  1683	  1686	  3088	  3090	  3637	  3854	  3858	  3860	  3887	  3894	  3900	  3904
	  3907	  3911	  3931	  3955	  3957	  3980	  3982	  3991	  3993	  4080	  4087	  4100	  4110	  4199
	  4245
T2POJ1	  4109#
T2POPJ	  4110#
T3	  1071	  1081	  1595	  1596	  1654	  1655	  3855	  3856	  3857	  3858	  3859	  3860	  3929	  3982
	  3990	  3991	  4118
T3POPJ	  4118#
T4	  1070	  1074	  1075	  1082	  3162	  3182	  3901	  3905	  3908	  3909	  3910	  3934	  3935	  4155
	  4162	  4170	  4179
TAKDWN	  3642#	  3643	  3646	  3765	  3902
TAPES	    13	    13#
TDERR	  3953	  3958	  3960	  3963	  3972#
THSDAT	  2117#
THSTIM	  1202#
TICSEC	  2226#
TIM	  3113#	  3791
TIME	  2116#
COMMON - MONITOR COMMON DATA AREA AND CONFIGURATION DEFINITION - V534	MACRO 12.5-46.0 14:23 13-JAN-88
COMMON.MAC	 7-DEC-87 14:36		Symbol cross reference

TIMEF	  1098#
TIMSTS	  3791#	  3791
TIMZON	     9	     9#	  2244
TIOWZ	  1441#
TKBCDB	  2328%	  2328
TMPALC	  1625#
TMPBKJ	  1717#	  1718
TMPBKS	  1630	  1714#	  1715	  1716
TMPBL	  1714	  1715	  1716	  1717	  1718
TMPNX	  1713#	  1714
TMPSZ	  1627	  1715#
TMPSZJ	  1629	  1718#
TMPSZT	  1625	  1716#
TMPTAB	  1628%	  1628	  1631%	  1631
TPOPJ	  4101#
TPOPJ1	  4099#
TTCHKN	  4804	  4805	  4806	  4809
TTCHKS	  1636	  4810#
TTCLST	  1635	  1641	  4809#
TTFREE	  4808#
TTIEND	  2211%	  2214
TTPOPJ	  4100#
TTVIN2	  4596#	  4624	  4625	  4626	  4627	  4628
TTVINI	  4595#	  4623
TTY0	  1645#
TTYFLK	  1567%	  1567	  1617%	  1617
TTYINI	  2211%	  2214
TTYLNK	  1568	  1571#
TTYTAB	  1522#
TUBDDB	  2333%	  2333
TUBRID	  2265%	  2265
TYPCSB	  3388#
TYPSB1	  3463#	  3472
TYPSB2	  3467#	  3470
TYPSBD	  3453	  3459#
U	  1573	  1574	  1575	  1576	  1577	  1581	  1592	  1651	  1652	  1654	  3946	  3947	  3968	  3969
	  4129	  4959
UNASS1	  1863#	  1947#	  4551	  4557
UNASS2	  1864#	  1959#	  4551	  4558
UNASS3	  1865#	  1973#	  4552	  4559
UNASS4	  1866#	  4553	  4560
UNASS5	  1867#	  4554	  4560
UNASS6	  1868#	  4555	  4560
UNASS7	  1869#	  2049#	  4556	  4560
UNIQ1	  1933
UNIQ2	  1954
UNIQ3	  1967
UNIQ4	  2002
UNISTR	  3968%	  3968
UP%000	   709#
UP%200	   710#
UP%400	   711#
UP%500	   712#
COMMON - MONITOR COMMON DATA AREA AND CONFIGURATION DEFINITION - V534	MACRO 12.5-46.0 14:23 13-JAN-88
COMMON.MAC	 7-DEC-87 14:36		Symbol cross reference

UP%600	   713#
UP%AC0	   735#
UP%JDA	   773#
UP%KNT	   718#
UP%LOG	   824#
UP%MUP	   717#
UP%MUU	   716#
UP%PC	   761#
UP%PDL	   769#
UP%PGT	   715#
UP%UAC	   784#
UP%UUO	   767#
UP4LDA	  1013#
UPDEND	   503#
UPNPSR	   745#	   755	   756	   757
UPOPJ	  4128#
UPOPJ1	  4125#
UPSABK	   751#
UPSCLK	   740#
UPSPSR	   746#	   755	   756	   757
UPSSWE	   747#
UPT	   502#	   703	   884	  3526	  3851	  3852	  3858	  3860
UPT.PN	   703#	  3854	  3864
UPTABK	   764#
UPTABL	   794#
UPTAC0	   733#	   734	   735
UPTACP	   762#
UPTAGE	   856#	  4407	  4408	  4409	  4410	  4411	  4412	  4413	  4414	  4415	  4416	  4417	  4418
UPTALD	   811#
UPTALN	   813#
UPTALP	   812#
UPTCHG	   786#
UPTECN	   833#
UPTEDV	   836#
UPTEL1	   838#	   839
UPTELC	   837#
UPTELD	   871#
UPTENB	   789#
UPTEND	   881#	  3852
UPTEP0	   922	   923	   924	   925	   927	   928
UPTEPC	   834#
UPTETP	   831#	   832
UPTEUP	   835#
UPTFHT	   843#
UPTFSL	   728
UPTHCU	   788#
UPTHRL	   808#
UPTHST	   832#	   839
UPTIME	  1155#
UPTIOC	   781#
UPTJDA	   772#	   773
UPTJOB	   759#
UPTKNT	   718
COMMON - MONITOR COMMON DATA AREA AND CONFIGURATION DEFINITION - V534	MACRO 12.5-46.0 14:23 13-JAN-88
COMMON.MAC	 7-DEC-87 14:36		Symbol cross reference

UPTLDC	   763#
UPTLKC	   829#
UPTLKJ	   825#
UPTLKW	   827#
UPTLMA	   851#	   893	   894	   915
UPTLOG	   823#	   824
UPTMAT	   870#
UPTMFR	   847#
UPTMTM	   793#
UPTMUP	   717
UPTMUU	   716
UPTMWB	   852#
UPTNTV	   869#
UPTOFD	   828#
UPTP2S	   846#
UPTPBM	   779#
UPTPC	   760#	   761
UPTPDL	   768#	   769
UPTPGT	   715
UPTPID	   820#
UPTPJ1	   815#
UPTPJ2	   816#
UPTPJC	   814#
UPTPOS	   778#
UPTRB2	   819#
UPTREL	   807#
UPTRES	   874#	   875	   877	   878
UPTRIB	   818#
UPTRNM	   809#
UPTRPN	   810#
UPTRPT	   872#
UPTS2P	   845#
UPTSAT	   817#
UPTSIM	   775#
UPTSPD	   821#
UPTSTS	   736#	   755	   756	   757
UPTSTV	   849#
UPTSTX	  2906#	  3089
UPTTCB	   805#
UPTTCE	   806#
UPTTP1	   792#	  4270	  4271	  4272	  4273	  4276
UPTTPN	   791#	   805	  4263	  4264	  4265	  4266	  4268
UPTUAC	   783#	   784
UPTUEI	   798#
UPTUFI	   796#
UPTUII	   802#
UPTURI	   800#
UPTUUO	   766#	   767
UPTUWB	   858#
UPTUWS	   860#	   862	   863	   864	   865	   866	   867
UPTXAC	   782#
UPTXEI	   799#
UPTXFI	   797#
COMMON - MONITOR COMMON DATA AREA AND CONFIGURATION DEFINITION - V534	MACRO 12.5-46.0 14:23 13-JAN-88
COMMON.MAC	 7-DEC-87 14:36		Symbol cross reference

UPTXII	   803#	   806
UPTXRI	   801#
UPYPSR	   755#
UPYPTM	   918#
UPYPTN	   917#
UPYPXM	   920#
UPYPXN	   919#
UPYUWL	   862#
UPYUWM	   865#
USED1	  1853#	  4521	  4551
USED2	  1854#	  1959#	  4522	  4551
USED3	  1855#	  1973#	  4522	  4552
USED4	  1856#	  4522	  4553
USED5	  1857#	  4523	  4554
USED6	  1858#	  4524	  4555
USED7	  1859#	  4525	  4556
USEMAX	  4362#
USRACB	  4522
USRLIM	  4562#
USRMAX	  1199#
USYLSP	   878#
USYPSR	   756#
USYPTM	   924#
USYPTN	   922#
USYPXM	   925#
USYPXN	   923#
USYRES	   877#
USYSIN	   875#
USYUWL	   863#
USYUWM	   866#
UXYPSR	   757#
UXYPTM	   928#
UXYPTN	   927#
UXYUWL	   864#
UXYUWM	   867#
VCOMMN	     3#
VPMAX	   851	   852	   889
VPUMAX	   889#	   891
W	   943	   959	   967	   971	   973	   991	   993	  4116
WHYMXL	  2952#
WPOPJ	  4116#
WPOPJ1	  4115#
WPOPJX	  4114#
XACSTL	   732#	   733
XPNCOR	   738#
XX	  2422#	  2422	  2423#	  2423	  2424#	  2424	  2425#	  2425	  2426#	  2426	  2427#	  2427	  2428#	  2428
	  2429#	  2429	  2430#	  2430
XYZZY	  2586#	  2591	  2592	  2592#	  2593	  2593#	  2594	  2594#	  2595	  2595#	  2596	  2596#	  2597	  2597#
Z1	   293#	   299
Z2	   294#	   297
ZPOPJ	  4134#
ZZ	  1959#	  1959	  1961	  1961#	  1973#	  1973	  1975	  1975#	  2136#	  2137	  2137#	  2138	  2138#	  2139
	  2139#	  2140	  2140#	  2141	  2141#	  2142	  2142#	  2143	  2143#	  2145	  2145#	  2146	  2146#	  2148
COMMON - MONITOR COMMON DATA AREA AND CONFIGURATION DEFINITION - V534	MACRO 12.5-46.0 14:23 13-JAN-88
COMMON.MAC	 7-DEC-87 14:36		Symbol cross reference

	  2148#	  2149	  2149#	  2150	  2150#	  2152	  2152#	  2173	  2272#	  2273	  2273#	  2275	  2275#	  2279	  2279#
	  2299	  2421#	  2422	  2422#	  2423	  2423#	  2424	  2424#	  2425	  2425#	  2426	  2426#	  2427	  2427#
	  2428	  2428#	  2429	  2429#	  2430	  2430#	  2431	  2431#	  2534#	  2539	  2540	  2540#	  2541	  2541#
	  2542	  2542#	  2543	  2543#	  2544	  2544#	  2545	  2545#	  2546	  2546#	  2547	  2547#	  2548	  2548#
	  2549	  2549#	  2550	  2550#	  2551	  2551#	  2552	  2552#	  2553	  2553#	  2554	  2554#	  2555	  2555#
	  2556	  2556#	  2557	  2557#	  2558	  2558#	  2559	  2559#	  2560	  2560#	  2561	  2561#	  2562	  2562#
	  2563	  2563#	  2564	  2564#	  2565	  2565#	  2566	  2566#	  2567	  2567#	  2568	  2568#	  2569	  2569#
	  2570	  2570#	  2571	  2571#	  2572	  2572#	  2573	  2573#	  2574	  2574#	  2575	  2575#	  4217#	  4222
	  4223	  4223#	  4224	  4224#	  4225	  4225#	  4623#	  4623	  4624#	  4624	  4625#	  4625	  4626#	  4626
	  4627#	  4627	  4628#	  4628	  4629#	  4629	  4630#	  4630	  4631#	  4631	  4632#	  4632	  4633#	  4633
	  4634#	  4634	  4635#	  4635	  4636#	  4636	  4637#	  4637	  4638#	  4638	  4639#	  4639	  4640#	  4640
	  4641#	  4641	  4642#	  4642	  4643#	  4643	  4644#	  4644	  4645#	  4645	  4646#	  4646	  4647#	  4647
	  4648#	  4648	  4649#	  4649	  4650#	  4650	  4651#	  4651	  4652#	  4652	  4653#	  4653	  4654#	  4654
	  4655#	  4655	  4656#	  4656	  4657#	  4657	  4658#	  4658	  4659#	  4659	  4660#	  4660	  4661#	  4661
	  4662#	  4662	  4663#	  4663	  4664#	  4664	  4665#	  4665	  4666#	  4666	  4667#	  4667	  4668#	  4668
	  4669#	  4669	  4670#	  4670	  4671#	  4671	  4672#	  4672	  4673#	  4673	  4674#	  4674	  4675#	  4675
	  4676#	  4676	  4677#	  4677	  4678#	  4678	  4679#	  4679	  4680#	  4680	  4681#	  4681	  4682#	  4682
	  4683#	  4683	  4684#	  4684	  4685#	  4685	  4686#	  4686	  4687#	  4687	  4688#	  4688	  4689#	  4689
	  4690#	  4690	  4691#	  4691	  4692#	  4692	  4693#	  4693	  4694#	  4694	  4695#	  4695	  4696#	  4696
	  4697#	  4697	  4698#	  4698	  4699#	  4699	  4700#	  4700	  4701#	  4701	  4702#	  4702	  4703#	  4703
	  4704#	  4704	  4705#	  4705	  4706#	  4706	  4707#	  4707	  4708#	  4708	  4709#	  4709	  4710#	  4710
	  4711#	  4711	  4712#	  4712	  4713#	  4713	  4714#	  4714	  4715#	  4715	  4716#	  4716	  4717#	  4717
	  4718#	  4718	  4719#	  4719	  4720#	  4720	  4721#	  4721	  4722#	  4722	  4723#	  4723	  4724#	  4724
	  4725#	  4725	  4726#	  4726	  4727#	  4727	  4728#	  4728	  4729#	  4729	  4730#	  4730	  4731#	  4731
	  4732#	  4732	  4733#	  4733	  4734#	  4734	  4735#	  4735	  4736#	  4736	  4737#	  4737	  4738#	  4738
	  4739#	  4739	  4740#	  4740	  4741#	  4741	  4742#	  4742	  4743#	  4743	  4744#	  4744	  4745#	  4745
	  4746#	  4746	  4747#	  4747	  4748#	  4748	  4749#	  4749	  4750#	  4750	  4751#	  4751	  4752#	  4752
	  4753#	  4753	  4754#	  4754	  4755#	  4755	  4756#	  4756	  4757#	  4757	  4758#	  4758	  4759#	  4759
	  4760#	  4760	  4761#	  4761	  4762#	  4762	  4763#	  4763	  4764#	  4764	  4765#	  4765	  4766#	  4766
	  4767#	  4767	  4768#	  4768	  4769#	  4769	  4770#	  4770	  4771#	  4771	  4772#	  4772	  4773#	  4773
	  4774#	  4774	  4775#	  4775	  4776#	  4776	  4777#	  4777	  4778#	  4778	  4779#	  4779	  4780#	  4780
	  4781#	  4781	  4782#	  4782	  4783#	  4783	  4784#	  4784	  4785#	  4785	  4786#	  4786	  4787#	  4787
	  4788#	  4788	  4789#	  4789	  4790#	  4790	  4791#	  4791	  4792#	  4792	  4793#	  4793	  4794#	  4794
	  4795#	  4795	  4796#	  4796	  4797#	  4797
ZZBIT	  4402#	  4407	  4408	  4408#	  4409	  4409#	  4410	  4410#	  4411	  4411#	  4412	  4412#	  4413	  4413#
	  4414	  4414#	  4415	  4415#	  4416	  4416#	  4417	  4417#	  4418	  4418#	  4419	  4419#
$LPNUM	  4954#	  4959	  4959#
$UU	   314#	   315#	   316#
%100	   335#
%1000	   342#
%200	   336#
%2000	   343#
%300	   337#
%3000	   344#
%400	   338#
%4000	   345#
%500	   339#
%600	   340#
%700	   341#
%CNMNT	  2303#
%COW	   897#
%COW.N	   896#	   897	   903
%LEP.N	   908#	   910
COMMON - MONITOR COMMON DATA AREA AND CONFIGURATION DEFINITION - V534	MACRO 12.5-46.0 14:23 13-JAN-88
COMMON.MAC	 7-DEC-87 14:36		Symbol cross reference

%LPTNN	  3816#	  3818	  3819	  3819#
%SAXN	  3823#	  3825	  3826	  3826#
%SYCCO	  2920#
%SYDEL	  2922#
%SYERR	  2919#
%SYNCP	  2926#
%SYNCS	  2939#
%SYNDS	  2924#
%SYNIS	  2940#
%SYNJS	  2925#
%SYSCP	  2935#
%SYSDT	  2938#
%SYSJN	  2928#
%SYSNM	  2936#
%SYSPC	  2923#
%SYSPD	  2934#
%SYSPN	  2930#
%SYSPP	  2933#
%SYSTN	  2929#
%SYSTY	  2937#
%SYSUP	  2932#
%SYSUU	  2931#
%UPLMA	   893#	   943	   959	   967	   971	   973	   991	   993
%UPLMS	   915#
%UPLMX	   894#
%UPS	   756	   863	   866	   875	   877	   878	   914#	   915	   922	   923	   924	   925
%UPS.N	   913#	   914	   930	   932
%UPT	   709	   710	   711	   712	   713	   715	   716	   717	   718	   735	   755	   761	   767	   769
	   773	   784	   824	   862	   865	   892#	   893	   917	   918	   919	   920	   927	   928	  3096
	  3137	  3838	  3851	  4263	  4264	  4265	  4266	  4268	  4270	  4271	  4272	  4273	  4276	  4407
	  4408	  4409	  4410	  4411	  4412	  4413	  4414	  4415	  4416	  4417	  4418
%UPT.N	   891#	   892	   896	   917	   918	   922	   924	   927	   928	  3855
%UPT.V	   728#	   733	   733#	   736	   736#	   759	   759#	   760	   760#	   762	   762#	   763	   763#	   764
	   764#	   766	   766#	   768	   768#	   772	   772#	   775	   775#	   778	   778#	   779	   779#	   781
	   781#	   782	   782#	   783	   783#	   786	   786#	   788	   788#	   789	   789#	   791	   791#	   792
	   792#	   793	   793#	   794	   794#	   796	   796#	   797	   797#	   798	   798#	   799	   799#	   800
	   800#	   801	   801#	   802	   802#	   803	   803#	   807	   807#	   808	   808#	   809	   809#	   810
	   810#	   811	   811#	   812	   812#	   813	   813#	   814	   814#	   815	   815#	   816	   816#	   817
	   817#	   818	   818#	   819	   819#	   820	   820#	   821	   821#	   823	   823#	   825	   825#	   827
	   827#	   828	   828#	   829	   829#	   831	   831#	   833	   833#	   834	   834#	   835	   835#	   836
	   836#	   837	   837#	   838	   838#	   843	   843#	   845	   845#	   846	   846#	   847	   847#	   849
	   849#	   851	   851#	   852	   852#	   856	   856#	   858	   858#	   860	   860#	   869	   869#	   870
	   870#	   871	   871#	   872	   872#	   874	   874#	   881	   882	   884	   885
%UPX	   757	   864	   867	   894	   905#
%UPX.N	   903#	   905	   908	   919	   920	   923	   925
..	   588#	   590	   590#	   593	   605	   607#	   609	   609#	   611	   611#	   613	   613#	   616	   636
	   638#	   640	   640#	   642	   642#	   644	   644#	   647	   667	   669#	   671	   671#	   673	   673#
	   676	   692
.ARSIZ	   845	   846	   847
.CH	  1932#	  1933	  1933#	  1941#	  1945	  1947	  1954	  1954#	  1958	  1959	  1967	  1967#	  1971	  1972
	  1973	  1975	  1982	  1998	  2000	  2002	  2002#	  2043	  2048#	  2049
.CHAS	  1931#	  1933#	  1947#	  1954	  1954#	  1959#	  1967	  1967#	  1973#	  2002	  2002#	  2007	  2049#
.CP6	  3143	  3144	  3145	  3146	  3147	  3519#
COMMON - MONITOR COMMON DATA AREA AND CONFIGURATION DEFINITION - V534	MACRO 12.5-46.0 14:23 13-JAN-88
COMMON.MAC	 7-DEC-87 14:36		Symbol cross reference

.CP7	  3149	  3150	  3151	  3431	  3435	  3440	  3520#
.CPACA	  3014	  3543#
.CPACN	  3081	  3408	  3506#	  3697
.CPAER	  3401	  3547#	  3553
.CPAPD	  3077	  3395	  3505#	  3703
.CPCA0	  2955#	  3005	  3006	  3007	  3010	  3051
.CPCA1	  2956#	  2976	  2977	  2978	  2979	  2981	  2982	  2983	  2984	  2986	  2987	  2988	  2989	  2992
	  2993	  2994	  2995	  2999	  3000	  3001	  3002	  3013
.CPCAC	  2954#	  2955
.CPCPC	  3484#
.CPCPG	  2973	  3008	  3052	  3486#
.CPCPI	  3413	  3485#	  3695
.CPCPN	  3528#
.CPCPU	  3538#
.CPCTN	  3531#
.CPDDT	  3536#
.CPDTC	  3124	  3125	  3126	  3127	  3514#
.CPDWD	  3482#
.CPEP0	  3129	  3130	  3515#
.CPEP1	  3133	  3134	  3516#
.CPEPD	  3533#	  3727
.CPEPT	  3128	  3131	  3527#
.CPERA	  3115	  3402	  3512#
.CPEVN	  3483#
.CPISF	  3530#
.CPJOB	  1088	  3529#	  4139
.CPLOG	  3537#
.CPPDL	  3533	  3534#	  3535
.CPPER	  3546#	  3552
.CPPGC	  3084	  3088	  3419	  3509#	  3701
.CPPGD	  3083	  3087	  3152	  3424	  3508#	  3699
.CPPIC	  3082	  3414	  3507#
.CPRHC	  3116	  3117	  3118	  3119	  3120	  3121	  3122	  3123	  3513#
.CPS0A	  3549#
.CPS1A	  3551#
.CPSB0	  3548#	  3554
.CPSB1	  3550#	  3555
.CPSBD	  3183	  3185	  3203	  3206	  3209	  3461	  3462	  3522#
.CPSBR	  3156	  3523#
.CPSCB	  3487#
.CPSDT	  3491#
.CPSJN	  3492#
.CPSLF	  3481#
.CPSNC	  3501#
.CPSND	  3499#
.CPSNI	  3502#
.CPSNJ	  3500#
.CPSNM	  3488#
.CPSNO	  3540#
.CPSPC	  3489#	  3706
.CPSPD	  3494#
.CPSPN	  3493#
.CPSPP	  3495#
COMMON - MONITOR COMMON DATA AREA AND CONFIGURATION DEFINITION - V534	MACRO 12.5-46.0 14:23 13-JAN-88
COMMON.MAC	 7-DEC-87 14:36		Symbol cross reference

.CPSTN	  3496#
.CPSTY	  3490#
.CPSUP	  3498#
.CPSUU	  3497#
.CPSVA	  3053	  3541#
.CPTOA	  3532#
.CPUP0	  3096	  3098	  3510#
.CPUP1	  3137	  3139	  3444	  3518#
.CPUPT	  3095	  3097	  3138	  3526#
.GTCRS	  3504#
.SBFNC	  3186	  3204
.SBNMC	  3163	  3184
COMMON - MONITOR COMMON DATA AREA AND CONFIGURATION DEFINITION - V534	MACRO 12.5-46.0 14:23 13-JAN-88
COMMON.MAC	 7-DEC-87 14:36		Macro/Opdef cross reference

APRID	  3077	  3673
ASGIN1	  1757#	  1949	  2051
ASGINT	  1745#	  1947	  2049
ASGSAV	  1770#	  1926	  1928	  1945	  1958	  1980	  1982	  1993	  1998	  2000
ASGSV1	  1784#	  1926	  1928	  1959	  1973	  1980	  1993
ASGSV2	  1880#	  1959	  1973
CHAN	  4425#	  4522
CHNCLC	   307#	   314	   315	   316
CODES	  1441	  2427
CSHUNL	  2913
DEFBIT	  1846#	  1975
DEVASG	  1825#	  1959	  1973
EPTPTR	   930	   932
EXECAC	  4522
FTBITS	  2600#
GENLIN	  4610#	  4623	  4624	  4625	  4626	  4627	  4628	  4629	  4630	  4631	  4632	  4633	  4634	  4635
	  4636	  4637	  4638	  4639	  4640	  4641	  4642	  4643	  4644	  4645	  4646	  4647	  4648	  4649
	  4650	  4651	  4652	  4653	  4654	  4655	  4656	  4657	  4658	  4659	  4660	  4661	  4662	  4663
	  4664	  4665	  4666	  4667	  4668	  4669	  4670	  4671	  4672	  4673	  4674	  4675	  4676	  4677
	  4678	  4679	  4680	  4681	  4682	  4683	  4684	  4685	  4686	  4687	  4688	  4689	  4690	  4691
	  4692	  4693	  4694	  4695	  4696	  4697	  4698	  4699	  4700	  4701	  4702	  4703	  4704	  4705
	  4706	  4707	  4708	  4709	  4710	  4711	  4712	  4713	  4714	  4715	  4716	  4717	  4718	  4719
	  4720	  4721	  4722	  4723	  4724	  4725	  4726	  4727	  4728	  4729	  4730	  4731	  4732	  4733
	  4734	  4735	  4736	  4737	  4738	  4739	  4740	  4741	  4742	  4743	  4744	  4745	  4746	  4747
	  4748	  4749	  4750	  4751	  4752	  4753	  4754	  4755	  4756	  4757	  4758	  4759	  4760	  4761
	  4762	  4763	  4764	  4765	  4766	  4767	  4768	  4769	  4770	  4771	  4772	  4773	  4774	  4775
	  4776	  4777	  4778	  4779	  4780	  4781	  4782	  4783	  4784	  4785	  4786	  4787	  4788	  4789
	  4790	  4791	  4792	  4793	  4794	  4795	  4796	  4797
IFCPU	    10	    16	    22	   207	   211	   217	   218	   219	   224	   230	   254	   255	   256	   463
	   505	   705	  1017	  1912	  1917	  1935	  1949	  1956	  2010	  2069	  2476	  2724	  2725	  2726
	  2727	  2910	  2957	  2958	  2959	  2960	  3017	  3078	  3085	  3099	  3141	  3154	  3159	  3397
	  3427	  3458	  3561	  3569	  3593	  3594	  3636	  3673	  3675	  3708	  3724	  3725	  3781	  3784
	  3790	  3794	  3811	  3840	  3869	  3874	  3880	  3921	  3984	  3985	  3986	  3987	  3988	  4382
	  4522	  4576	  4952	  4959
IFNCPU	   117	   216	   233	   412	   495	   704	  2477	  2974	  3077	  3087	  3136	  3426	  3674	  3705
	  3723	  3726	  3844	  3883	  3925	  3989	  4522
LPTDDB	  4834#	  4959
LPTMC	  3815#	  3818
MNYASG	  1986#	  1993
MULASG	  1814#	  1959	  1971	  1972	  1973	  1975
ND	     9	    11	    12	    13	    14	    29	    31	    32	    96	    99	   101	   106	   109	   113
	   117	   118	   119	   216	   218	   268	   434	   441	  1668	  2888	  2889	  2890
NDL	    86
NEXTCH	  1837#	  1933	  1954	  1967	  2002
NEXTCQ	  1841#	  1954	  1967	  2002	  2007
NEXTCU	  1843#	  1933	  1954	  1967	  2002
NMCLC	   302#
NTGIVE	  4146#	  4150
NULL	  4529#	  4551	  4556
ONSZCK	   883
PFALL	  1614	  3661	  3717
PJRST	  3455	  3638	  3777
PRINTF	     6	  1553	  1646	  1708	  3780	  3896	  3918	  3941
COMMON - MONITOR COMMON DATA AREA AND CONFIGURATION DEFINITION - V534	MACRO 12.5-46.0 14:23 13-JAN-88
COMMON.MAC	 7-DEC-87 14:36		Macro/Opdef cross reference

PXCT	  3687
QUEUES	  1436	  2422
RDERA	  3115	  3679	  3712
RDUBR	  4522
RESYM	  4002#	  4027
SAXMC	  3822#	  3825
SBDIAG	  3166	  3189	  3193	  3195	  3680	  3681	  3713	  3714
STOPCD	   577	  3632
SWPUA	  3676	  3709	  3876
SY$DV0	   595#	   600	   605	   618#	   623	   627	   631	   636	   649#	   654	   658	   662	   667	   678#
	   683	   687	   692
SY$DV1	   596#	   600	   605	   619#	   623	   627	   631	   636	   650#	   654	   658	   662	   667	   679#
	   683	   687	   692
SYDVF	   587	   606	   637	   668
SYSDAT	   198#	  2111
SYSDEV	   187#	  2114
SYSNAM	   189#	  2105
SYSPIF	  3722
SYSPIN	  4143
SYSVER	   203#	  2257
UARRAY	   724#	   725#	   733	   736	   759	   760	   762	   763	   764	   766	   768	   772	   775	   778
	   779	   781	   782	   783	   786	   788	   789	   791	   792	   793	   794	   796	   797	   798
	   799	   800	   801	   802	   803	   807	   808	   809	   810	   811	   812	   813	   814	   815
	   816	   817	   818	   819	   820	   821	   823	   825	   827	   828	   829	   831	   833	   834
	   835	   836	   837	   838	   843	   845	   846	   847	   849	   851	   852	   856	   858	   860
	   869	   870	   871	   872	   874
UNASS	  4538#	  4560
UPMPTR	   917	   918	   919	   920
UPSPTR	   922	   923	   924	   925
UPXPTR	   922	   923	   924	   925	   927	   928
USERAC	  4522
UVAR	   722#	   736	   759	   760	   762	   763	   764	   766	   779	   781	   788	   789	   791	   792
	   793	   794	   796	   797	   798	   799	   800	   801	   802	   803	   807	   808	   809	   810
	   811	   812	   813	   814	   815	   816	   817	   818	   819	   820	   821	   823	   825	   827
	   828	   829	   831	   833	   834	   835	   836	   837	   838	   849	   860	   869	   870	   871
	   872	   874
WRADB	  3726
WRAPR	  3867	  3927
WREBR	  3884
WRPI	  3926	  4560
WRUBR	  2975	  2980	  2985	  2991	  2998	  3004	  3142	  3148	  3723	  4522
X	   883#	  1435#	  1436	  1439#	  1441	  2411#	  2422	  2423	  2424	  2425	  2426	  2427	  2428	  2429
	  2430
XP	     3	   205	   206	   249	   250	   252	   409	   410	   702	   703	   704	   732	   733	   736
	   738	   739	   740	   741	   742	   743	   744	   745	   746	   747	   751	   752	   759	   760
	   762	   763	   764	   765	   766	   768	   770	   771	   772	   775	   778	   779	   781	   782
	   783	   785	   786	   788	   789	   791	   792	   793	   794	   796	   797	   798	   799	   800
	   801	   802	   803	   805	   806	   807	   808	   809	   810	   811	   812	   813	   814	   815
	   816	   817	   818	   819	   820	   821	   823	   825	   827	   828	   829	   831	   832	   833
	   834	   835	   836	   837	   838	   839	   841	   843	   845	   846	   847	   849	   851	   852
	   856	   858	   860	   869	   870	   871	   872	   874	   881	   891	   892	   893	   894	   896
	   897	   903	   905	   908	   913	   914	   915	   936	   938	   939	   940	   941	   946	   947
	   949	   950	   951	   952	   953	   954	   955	   956	   957	   958	   961	   962	   963	   964
COMMON - MONITOR COMMON DATA AREA AND CONFIGURATION DEFINITION - V534	MACRO 12.5-46.0 14:23 13-JAN-88
COMMON.MAC	 7-DEC-87 14:36		Macro/Opdef cross reference

	  1008	  1124	  1293	  1294	  1295	  1313	  1433	  1484	  1503	  1511	  1513	  1514	  1515	  1530	  2067
	  4191	  4324	  4326	  4347	  4348	  4349	  4350	  4351	  4352	  4354	  4362	  4522	  4562	  4579
	  4595	  4596	  4810
XPP	   978	   982	   983	   984	   985	   989	   990	   998	  1000	  1001	  1006
.GNLN	  4615#	  4623	  4624	  4625	  4626	  4627	  4628	  4629	  4630	  4631	  4632	  4633	  4634	  4635
	  4636	  4637	  4638	  4639	  4640	  4641	  4642	  4643	  4644	  4645	  4646	  4647	  4648	  4649
	  4650	  4651	  4652	  4653	  4654	  4655	  4656	  4657	  4658	  4659	  4660	  4661	  4662	  4663
	  4664	  4665	  4666	  4667	  4668	  4669	  4670	  4671	  4672	  4673	  4674	  4675	  4676	  4677
	  4678	  4679	  4680	  4681	  4682	  4683	  4684	  4685	  4686	  4687	  4688	  4689	  4690	  4691
	  4692	  4693	  4694	  4695	  4696	  4697	  4698	  4699	  4700	  4701	  4702	  4703	  4704	  4705
	  4706	  4707	  4708	  4709	  4710	  4711	  4712	  4713	  4714	  4715	  4716	  4717	  4718	  4719
	  4720	  4721	  4722	  4723	  4724	  4725	  4726	  4727	  4728	  4729	  4730	  4731	  4732	  4733
	  4734	  4735	  4736	  4737	  4738	  4739	  4740	  4741	  4742	  4743	  4744	  4745	  4746	  4747
	  4748	  4749	  4750	  4751	  4752	  4753	  4754	  4755	  4756	  4757	  4758	  4759	  4760	  4761
	  4762	  4763	  4764	  4765	  4766	  4767	  4768	  4769	  4770	  4771	  4772	  4773	  4774	  4775
	  4776	  4777	  4778	  4779	  4780	  4781	  4782	  4783	  4784	  4785	  4786	  4787	  4788	  4789
	  4790	  4791	  4792	  4793	  4794	  4795	  4796	  4797B,4'