COMTXT - Generates PRINTX statements and global symbols for COMMON	MACRO 12.5-46.0 14:23 13-JAN-88 PAGE 1
XP.MAC	 2-JAN-86 17:46		CONFIG - CONFIGURATION DEFINITION - KL

     1				DEFINE ND(SYM,VAL),< IF2,<IFDEF SYM,<SYM==SYM>> IFNDEF SYM,<SYM==<VAL>> >
     2				DEFINE XP(A,B),<A==:B>
     3				SUBTTL	CONFIG - CONFIGURATION DEFINITION - KL
     4				XP SYSNO,'KL3652'	;CONFKL.MAC
     5				XP APRSN,<'KL',,0>	;CPU type and serial number
     6				XP APRNAM,<'*L*',,7777>	;Hardware and base number
     7				XP TIMZON,^D<-8>	;Pacific Standard Time
     8
     9				XP JOBS, ^D64		;Can't have 128 jobs with 48 disks!
    10				XP PORTS,^D128		;TYMNET ports 0-199     (RPORTN was 128)
    11				XP TAPES,^D4		;Number of tape drives
    12				XP DISKS,^D<6*8>	;Number of disks (BPA0-17,BPB0-7,BPC0-17,BPD0-7)
    13				XP DSKTYP,'3652B'	;Memorex 3652 disks formatted in blocks
    14
    15				define SYSNA1 (XLX,XRX) <XLX'KL00-P035/D'XRX>
    16				define SYSDT1 (XLX,XRX) <XLX'1-12-88'XRX>
    17				define SYSID1 (XLX,XRX) <XLX'M02493'XRX>
    18
    19				; P035/D	1-12-88   M02493   JMS
    20				; P035/C01	9-25-87   M02322   JMS
    21				; P035/B03	4-23-87   M02110   JMS
    22				; P035/B03	4-11-87   M02091   JMS
    23				;Changed to have ^D200 network ports
    24				; P035/B02	4-7-87    M02088   JMS
    25				; P035/B02	4-6-87    M02084   JMS
    26				; P035/B01	2-9-87    M02045   JMS
    27				; P035/A04	11-30-86  M01900   JMS
    28				; P035/A03	11-19-86  M01892   JMS
    29				; P035/A02	11-8-86   M01881   JMS
    30				; P035/A01	11-7-86   M01871   JMS
    31				; P035		11-5-86   M01823   JMS
    32				; P034/P37	10-23-86  M01811   JMS
    33				; P034/P37	10-15-86  M01808   JMS
    34				; P034/P33	7-17-86   M01715   JMS
    35				; P034/P32	7-15-86   M01713   JMS
    36				; P034/P31	7-2-86    M01705   JMS
    37				; P034/P30	6-28-86   M01696   JMS
    38				; P034/P	9-9-85    M01553   OSU
    39				; P034/P	8-27-85   M01444   OSU
    40
    41			002322	A00EDT=:^D001234	;Edit number, incremented each time MONDOC is run
    42
    43				TITLE COMTXT - Generates PRINTX statements and global symbols for COMMON
    44
    45				DEFINE PRINT (A,B,C,D,E,F,G,H,I,J,K,L,M,N,O,P,Q,R,S,T,U,V,W,X,Y,Z),<
    46				PRINTX A B C D E F G H I J K L M N O P Q R S T U V W X Y Z
    47				>
    48
    49				DEFINE FOO  (A,B),< IFDEF A,< PRINT (\A,B) > >
    50
    51				DEFINE FOO1 (A,B),< IFDEF A,<	IFN <A-1>,<PRINT (\A,B's)>
    52								IFE <A-1>,<PRINT (\A,B)> > >
    53
COMTXT - Generates PRINTX statements and global symbols for COMMON	MACRO 12.5-46.0 14:23 13-JAN-88 PAGE 1
COMTXT.MAC	 4-DEC-87 16:40		CONFIG - CONFIGURATION DEFINITION - KL

    54				DEFINE FOO2 (A,B,C),< IFDEF A,<
    55				IFE <<A>-<B>>,< PRINTX C > > >
    56
    57				IF2,<	LALL	;Output to listing file and TTY on pass 2
    58				SYSNA1(<PRINTX >)^PRINTX KL00-P035/D^
    59				SYSDT1(<PRINTX >)^PRINTX 1-12-88^
    60				SYSID1(<PRINTX >,< (id)>)^PRINTX M02493 (id)^
    61					RADIX 5+5		;Decimal numbers
    62				FOO  (A00EDT,= Monitor edit number)^ IFDEF A00EDT,< PRINT (\A00EDT,= Monitor edit number)^
    63				PRINTX 1234 = Monitor edit number
    64				^ > ^
    65					RADIX 8			;Octal numbers
    66			007777	IFDEF APRNAM,<TEMP==APRNAM&^O777777>
    67				FOO  (TEMP,= base node number)^ IFDEF TEMP,< PRINT (\TEMP,= base node number)^
    68				PRINTX 7777 = base node number
    69				^ > ^
    70					RADIX 5+5		;Decimal numbers
    71			000000	IFDEF APRSN,<TEMP==APRSN&^O777777>
    72				FOO  (TEMP,= CPU serial number)^ IFDEF TEMP,< PRINT (\TEMP,= CPU serial number)^
    73				PRINTX 0 = CPU serial number
    74				^ > ^
    75				FOO2 (TIMZON,-11,Bering Standard Time)^ IFDEF TIMZON,<
    76				IFE <<TIMZON>-<-11>>,< PRINTX Bering Standard Time > > ^
    77				FOO2 (TIMZON,-10,Hawaii/Alaska Standard Time)^ IFDEF TIMZON,<
    78				IFE <<TIMZON>-<-10>>,< PRINTX Hawaii/Alaska Standard Time > > ^
    79				FOO2 (TIMZON, -9,Yukon Standard Time)^ IFDEF TIMZON,<
    80				IFE <<TIMZON>-< -9>>,< PRINTX Yukon Standard Time > > ^
    81				FOO2 (TIMZON, -8,Pacific Standard Time)^ IFDEF TIMZON,<
    82				IFE <<TIMZON>-< -8>>,< PRINTX Pacific Standard Time > > ^
    83				FOO2 (TIMZON, -7,Mountain Standard Time)^ IFDEF TIMZON,<
    84				IFE <<TIMZON>-< -7>>,< PRINTX Mountain Standard Time > > ^
    85				FOO2 (TIMZON, -6,Central Standard Time)^ IFDEF TIMZON,<
    86				IFE <<TIMZON>-< -6>>,< PRINTX Central Standard Time > > ^
    87				FOO2 (TIMZON, -5,Eastern Standard Time)^ IFDEF TIMZON,<
    88				IFE <<TIMZON>-< -5>>,< PRINTX Eastern Standard Time > > ^
    89				FOO2 (TIMZON, -4,Atlantic Standard Time)^ IFDEF TIMZON,<
    90				IFE <<TIMZON>-< -4>>,< PRINTX Atlantic Standard Time > > ^
    91				FOO2 (TIMZON,  0,Greenwich Mean Time / Western European)^ IFDEF TIMZON,<
    92				IFE <<TIMZON>-<  0>>,< PRINTX Greenwich Mean Time / Western European > > ^
    93				FOO2 (TIMZON, +1,Central European Time)^ IFDEF TIMZON,<
    94				IFE <<TIMZON>-< +1>>,< PRINTX Central European Time > > ^
    95				FOO2 (TIMZON, +2,Eastern European Time)^ IFDEF TIMZON,<
    96				IFE <<TIMZON>-< +2>>,< PRINTX Eastern European Time > > ^
    97				FOO2 (TIMZON, +9,Tokyo)^ IFDEF TIMZON,<
    98				IFE <<TIMZON>-< +9>>,< PRINTX Tokyo > > ^
    99				FOO2 (TIMZON,+10,Brisbane)^ IFDEF TIMZON,<
COMTXT - Generates PRINTX statements and global symbols for COMMON	MACRO 12.5-46.0 14:23 13-JAN-88 PAGE 1-2
COMTXT.MAC	 4-DEC-87 16:40		CONFIG - CONFIGURATION DEFINITION - KL

   100				IFE <<TIMZON>-<+10>>,< PRINTX Brisbane > > ^
   101
   102				FOO1 (JOBS,frame)^ IFDEF JOBS,<	IFN <JOBS-1>,<PRINT (\JOBS,frames)>^
   103				PRINTX 64 frames
   104				^
   105								IFE <JOBS-1>,<PRINT (\JOBS,frame)> > ^
   106				FOO1 (PORTS,network port)^ IFDEF PORTS,<	IFN <PORTS-1>,<PRINT (\PORTS,network ports)>^
   107				PRINTX 128 network ports
   108				^
   109								IFE <PORTS-1>,<PRINT (\PORTS,network port)> > ^
   110				FOO1 (PTYS,pairs of PTY)^ IFDEF PTYS,<	IFN <PTYS-1>,<PRINT (\PTYS,pairs of PTYs)>
   111								IFE <PTYS-1>,<PRINT (\PTYS,pairs of PTY)> > ^
   112				FOO1 (DISKS,disk drive)^ IFDEF DISKS,<	IFN <DISKS-1>,<PRINT (\DISKS,disk drives)>^
   113				PRINTX 48 disk drives
   114				^
   115								IFE <DISKS-1>,<PRINT (\DISKS,disk drive)> > ^
   116				FOO1 (TAPES,tape drive)^ IFDEF TAPES,<	IFN <TAPES-1>,<PRINT (\TAPES,tape drives)>^
   117				PRINTX 4 tape drives
   118				^
   119								IFE <TAPES-1>,<PRINT (\TAPES,tape drive)> > ^
   120				FOO1 (PRINTS,printer)^ IFDEF PRINTS,<	IFN <PRINTS-1>,<PRINT (\PRINTS,printers)>
   121								IFE <PRINTS-1>,<PRINT (\PRINTS,printer)> > ^
   122
   123				FOO2 (DSKTYP,'3675B',3675 disks in blocks)^ IFDEF DSKTYP,<
   124				IFE <<DSKTYP>-<'3675B'>>,< PRINTX 3675 disks in blocks > > ^
   125				FOO2 (DSKTYP,'3675P',3675 disks in pages)^ IFDEF DSKTYP,<
   126				IFE <<DSKTYP>-<'3675P'>>,< PRINTX 3675 disks in pages > > ^
   127				FOO2 (DSKTYP,'3650B',3650 disks in blocks)^ IFDEF DSKTYP,<
   128				IFE <<DSKTYP>-<'3650B'>>,< PRINTX 3650 disks in blocks > > ^
   129				FOO2 (DSKTYP,'3650P',3650 disks in pages)^ IFDEF DSKTYP,<
   130				IFE <<DSKTYP>-<'3650P'>>,< PRINTX 3650 disks in pages > > ^
   131				FOO2 (DSKTYP,'3652B',3652 disks in blocks)^ IFDEF DSKTYP,<
   132				IFE <<DSKTYP>-<'3652B'>>,< PRINTX 3652 disks in blocks > > ^
   133				FOO2 (DSKTYP,'3652P',3652 disks in pages)^ IFDEF DSKTYP,<
   134				IFE <<DSKTYP>-<'3652P'>>,< PRINTX 3652 disks in pages > > ^
   135
   136				IFG <JOBS*81>+<DISKS*260>-18607,<;Numbers valid for P035/C05
   137					;4 strings & 127 jobs, 6 strings & 75 jobs, 8 strings & 24 jobs
   138				IF2,<	PRINTX ? Exceeding the 224 pages of core limitation.
   139					PRINTX ? Can't have that many jobs and disks together. >
   140					TOOBIG##;Make a reference to an undefined global symbol so LOADER fails.
   141				>  ;End IFG
   142
   143					RADIX	8
   144				>	;End of COMFAK section
COMTXT - Generates PRINTX statements and global symbols for COMMON	MACRO 12.5-46.0 14:23 13-JAN-88 PAGE 2
COMTXT.MAC	 4-DEC-87 16:40		COMTXT - generate global symbols for CONFIG name and date

   145				SUBTTL	COMTXT - generate global symbols for CONFIG name and date
   146				XALL	;Start of COMTXT section
   147
   148					DEFINE MAKEM (STRT,STOP,MACRO,TAG)
   149				<ZZK3==STRT
   150				ZZK4==0
   151				REPEAT STOP-STRT+1,<MAKEM2 (\ZZK3,\ZZK4,MACRO,TAG)
   152					ZZK3==ZZK3+1
   153					ZZK4==ZZK4+5>>
   154
   155					DEFINE MAKEM2 (VNM,POS,MACRO,TAG)
   156				<MACRO (<MKTXT SYSX'VNM,POS,>,TAG)>
   157
   158					DEFINE MKTXT (VAR,CNT,STR)
   159				<ZZK1==0
   160				ZZK2==0
   161				IRPC STR,<
   162					IFGE ZZK2-CNT,<ZZK1==ZZK1_7+"STR">
   163					ZZK2==ZZK2+1
   164					IFGE ZZK2-CNT-5,<STOPI>>
   165				ZZK1==ZZK1_<<CNT+5-ZZK2>*7+1>
   166				VAR'R== ZZK1&000000777777
   167				VAR'L==(ZZK1&777777000000)
   168				INTERNAL VAR'R,VAR'L>
   169
   170				;The file CNFN##.MAC defines the following:
   171				; define SYSNA1 (XLX,XRX) <XLX'X32-P035/B06'XRX>
   172				; define SYSDT1 (XLX,XRX) <XLX'6-3-87'XRX>
   173				; define SYSID1 (XLX,XRX) <XLX'M02146'XRX>
   174
   175			000000		MAKEM 0,4,SYSNA1,,^ZZK3==0
   176				REPEAT 0,<;Added in P035/C, removed for P035/D
   177				IFDEF DSKTYP,<IFE DSKTYP-'3675B',<MAKEM 0,4,SYSNA1,. 3675B>>
   178				IFDEF DSKTYP,<IFE DSKTYP-'3675P',<MAKEM 0,4,SYSNA1,. 3675P>>
   179				IFDEF DSKTYP,<IFE DSKTYP-'3650B',<MAKEM 0,4,SYSNA1,. 3650B>>
   180				IFDEF DSKTYP,<IFE DSKTYP-'3650P',<MAKEM 0,4,SYSNA1,. 3650P>>
   181				IFDEF DSKTYP,<IFE DSKTYP-'3652B',<MAKEM 0,4,SYSNA1,. 3652B>>
   182				IFDEF DSKTYP,<IFE DSKTYP-'3652P',<MAKEM 0,4,SYSNA1,. 3652P>>
   183				>  ;End REPEAT 0
   184			000000		SYSX4R==SYSX4R&777400		;Last byte of name must be null (ASCIZ)
   185			000005		MAKEM 5,6,SYSDT1,,^ZZK3==5
   186			000000		SYSX6R==SYSX6R&777400		;Last byte of date must be null (ASCIZ)
   187
   188		552022	243123		SYSID1(<SYSID=:'>,<'>)^SYSID=:'M02493'^		;Full word symbol just for DDT/

   189				CRSHID
   190			552022		SYSID1(<SYSIDL=:'>,<'_<-^D18>>)^SYSIDL=:'M02493'_<-^D18>^	;Half word symbols for

   191				CNFTBL
   192			243123		SYSID1(<SYSIDR=:'>,<'&777777>)^SYSIDR=:'M02493'&777777^	; to get around MACRO/L

   193				OADER bug
COMTXT - Generates PRINTX statements and global symbols for COMMON	MACRO 12.5-46.0 14:23 13-JAN-88 PAGE 3
COMTXT.MAC	 4-DEC-87 16:40		Format of monitor version number

   194				SUBTTL	Format of monitor version number
   195				;VERMAJ is a single letter.       Currently "P"=^O20
   196				;VERMIN is 3 decimal digits.      Currently "035"=^O43
   197				;VERSUB (if present) is a slash followed by 1 or 2 letters /A-/Z, /AA-/AZ, etc.
   198				;VERDEV is not present in released monitor, "01"-"99" for development.
   199				;VERPAT (if present) is a hyphen followed by digits or letters.
   200				;       Digits indicate DDT patch to SYSTEM.SAV, letters indicate source patch.
   201
   202				DEFINE	MAKVER(STR),<MODE=<VERMAJ=<VERMIN=<VERSUB=<VERDEV=<VERPAT=0>>>>>
   203				  IRPC STR,<
   204				IFGE MODE-5,<	IFL "STR"-"0",<MODE=6>;;Switch at non digit
   205						IFG "STR"-"9",<MODE=6>
   206						IFE MODE-5,<VERPAT=VERPAT*^D10+STR>
   207						IFE MODE-6,<VERPAT=VERPAT*^D27+"STR"-"@">
   208							IFG VERPAT-32,<VERPAT=VERPAT-1>>
   209				IFE MODE-4,<	IFL "STR"-"0",<MODE=5>;;Stop at non digit
   210						IFG "STR"-"9",<MODE=5>;;(development # is 00 to 99)
   211						IFE MODE-4,<VERDEV=VERDEV*^D10+STR>>
   212				IFE MODE-3,<	IFL "STR"-"A",<MODE=4>;;Stop at non-alpha
   213						IFG "STR"-"Z",<MODE=4>;;A=1, Z=32, AA=33, BK=77
   214						IFE MODE-3,<VERSUB=VERSUB*^D27+"STR"-"@">
   215						IFG VERSUB-32,<VERSUB=VERSUB-1>>;Because it's "AA", not "A@"
   216				IFE MODE-2,<	IFL "STR"-"0",<MODE=3>;;Stop at slash
   217						IFG "STR"-"9",<MODE=3>;; or any other nondigit
   218						IFE "STR"-"-",<MODE=5>;;Watch for "P036-1"
   219						IFE MODE-2,<VERMIN=VERMIN*^D10+STR>>
   220				IFE MODE-1,<	VERMAJ="STR"-"@";;Pick up single letter
   221						MODE=2>
   222				IFE MODE-0,<	IFE "STR"-"-",<MODE=1>>;;Skip up to hyphen
   223				>  ;End of IRPC
   224					IFE MODE-6,<VERPAT=VERPAT!400>;;Flag source-level patch
   225					A00CVN=:BYTE(6)VERMAJ(9)VERMIN(6)VERSUB(6)VERDEV(9)VERPAT
   226				IF2,<PRINT(A00CVN=,\A00CVN,MAJ=,\VERMAJ,MIN=,\VERMIN,SUB=,\VERSUB,DEV=,\VERDEV,PAT=,\VERPAT)>
   227					PURGE VERMAJ,VERMIN,VERSUB,VERDEV,VERPAT,MODE
   228				>  ;End of DEFINE MAKVER
   229
   230
   231					SYSNA1(<MAKVER(>,<)>)^MAKVER(KL00-P035/D)^MODE=<VERMAJ=<VERMIN=<VERSUB=<VERDEV=<VERPA
   232			000000	T=0>>>>>
   233			200430		SYSX7L==:A00CVN_-^D18		;LH of customer version number
   234			400000		SYSX7R==:A00CVN&777777		;RH of customer version number
   235
   236					END			;$END is not applicable for 0-length modules
   237
NO ERRORS DETECTED
PROGRAM BREAK IS 000000
3K CORE USED
COMTXT - Generates PRINTX statements and global symbols for COMMON	MACRO 12.5-46.0 14:23 13-JAN-88 PAGE 4
COMTXT.MAC	 4-DEC-87 16:40		SYMBOL TABLE

A00CVN	200430	400000	INT
A00EDT		002322	INT
APRNAM	125412	007777	SIN
APRSN	005354	000000	SIN
DISKS		000060	SIN
DSKTYP	002326	252242	SIN
JOBS		000100	SIN
PORTS		000200	SIN
SYSID	552022	243123	INT
SYSIDL		552022	INT
SYSIDR		243123	INT
SYSNO	535423	262522	SIN
SYSX0L		456306	SIN
SYSX0R		030132	SIN
SYSX1L		501406	SIN
SYSX1R		332536	SIN
SYSX2L		420000	SIN
SYSX2R		000000	SIN
SYSX3L		000000	SIN
SYSX3R		000000	SIN
SYSX4L		000000	SIN
SYSX4R		000000	SIN
SYSX5L		305326	SIN
SYSX5R		131132	SIN
SYSX6L		341600	SIN
SYSX6R		000000	SIN
SYSX7L		200430	SIN
SYSX7R		400000	SIN
TAPES		000004	SIN
TEMP		000000	SPD
TIMZON	777777	777770	SIN
ZZK1	341600	000000	SPD
ZZK2		000007	SPD
ZZK3		000007	SPD
ZZK4		000012	SPD

COMTXT - Generates PRINTX statements and global symbols for COMMON	MACRO 12.5-46.0 14:23 13-JAN-88
COMTXT.MAC	 4-DEC-87 16:40		Symbol cross reference

A00CVN	   233#	   233	   234
A00EDT	    41#	    62
APRNAM	     7#	    66
APRSN	     6#	    71
DISKS	    13#	   112	   115	   136
DSKTYP	    14#	   123	   124	   125	   126	   127	   128	   129	   130	   131	   132	   133	   134
JOBS	    10#	   102	   105	   136
MODE	   232#	   233	   233#
PORTS	    11#	   106	   109
PRINTS	   120
PTYS	   110
SYSID	   188#
SYSIDL	   190#
SYSIDR	   192#
SYSNO	     5#
SYSX0L	   176#	   176
SYSX0R	   176#	   176
SYSX1L	   176#	   176
SYSX1R	   176#	   176
SYSX2L	   176#	   176
SYSX2R	   176#	   176
SYSX3L	   176#	   176
SYSX3R	   176#	   176
SYSX4L	   176#	   176
SYSX4R	   176#	   176	   184	   184#
SYSX5L	   186#	   186
SYSX5R	   186#	   186
SYSX6L	   186#	   186
SYSX6R	   186#	   186
SYSX7L	   233#
SYSX7R	   234#
TAPES	    12#	   116	   119
TEMP	    66#	    67	    71#	    72
TIMZON	     8#	    75	    76	    77	    78	    79	    80	    81	    82	    83	    84	    85	    86	    87
	    88	    89	    90	    91	    92	    93	    94	    95	    96	    97	    98	    99	   100
VERDEV	   232#	   233
VERMAJ	   232#	   233#	   233
VERMIN	   232#	   233	   233#
VERPAT	   232#	   233
VERSUB	   232#	   233	   233#
ZZK1	   176#	   176	   186#	   186
ZZK2	   176#	   176	   186#	   186
ZZK3	   175#	   176	   176#	   185#	   186	   186#
ZZK4	   176#	   176	   186#	   186
COMTXT - Generates PRINTX statements and global symbols for COMMON	MACRO 12.5-46.0 14:23 13-JAN-88
COMTXT.MAC	 4-DEC-87 16:40		Macro/Opdef cross reference

FOO	    49#	    62	    67	    72
FOO1	    51#	   102	   106	   110	   112	   116	   120
FOO2	    54#	    75	    77	    79	    81	    83	    85	    87	    89	    91	    93	    95	    97	    99
	   123	   125	   127	   129	   131	   133
MAKEM	   149#	   175	   185
MAKEM2	   156#	   176	   186
MAKVER	   202#	   231
MKTXT	   159#	   176	   186
ND	     1#
PRINT	    45#	    62	    67	    72	   102	   106	   112	   116	   233
SYSDT1	    16#	    59	   186
SYSID1	    17#	    60	   188	   190	   192
SYSNA1	    15#	    58	   176	   231
XP	     2#	     4	     5	     6	     7	     9	    10	    11	    12	    13