DEBUG TEMP MODULE TO HOLD DEBUGGING ROUTINES	MACRO 12.5-46.0 14:40 13-JAN-88 PAGE 1
S.MAC	13-JAN-88 11:55		S.MAC - with system parameter file for P035/D, January 1988

     1				SUBTTL	S.MAC - with system parameter file for P035/D, January 1988
     2
     3				IF2,<IFNDEF LISTSN,<TAPE>>	;Skip to PASS2 in all but COMMON.LST
     4				;THIS MODULE ASSEMBLED WITH KL-10 PARAMETER FILE - KLSYM.MAC
     5
     6					IF2,<IFNDEF LISTSN,<		;LIST KLSYM.MAC IN COMMON ONLY
     7								TAPE>>
     8				TITLE DEBUG TEMP MODULE TO HOLD DEBUGGING ROUTINES
     9				SUBTTL 12-JUL-1977
    10
    11					STOPCD(,ENTRY,DEBUG)^
    12					ENTRY	DEBUG		;For library searches
    13	000000'	260040	000000*	DEBUG::PUSHJ	P,DIE		;**** Default stopcode for "DEBUG" ****
    14	000001'	444542	654700		SIXBIT	/DEBUG/  	;Title of module
    15	000002'	000000	000000		S$NONAME,,0		;?NONAME stopcode "DEBUG+nnn(nnnnnn)"
    16			000000'	S$NAME==DEBUG			;For STOPCDs with no arguments
    17					SALL>
    18				^
    19
    20				EXTERNAL ATBDUM,ATBFNB,ATBMWC,ATBSPT,ATBUMC,CPOPJ,FNBNAM
    21				EXTERNAL GETATB,GETLMA,SPTUSC,SPTEN1,SPTLNK,SPTNME,UPTLDC,%UPT
    22				EXTERNAL CMBSIZ,INCUMC,DECUMC,ATBSTS,ATPUMC,LMPSUP,FNBUPD
    23
    24	000003'	202320	000012'	PUTIN::	MOVEM	T1,@BUFPTR
    25	000004'	350300	000012'		AOS	T1,BUFPTR
    26	000005'	307300	004012'		CAIG	T1,BUFEND
    27	000006'	263040	000000		POPJ	P,
    28	000007'	201300	000013'		MOVEI	T1,BUF
    29	000010'	202300	000012'		MOVEM	T1,BUFPTR
    30	000011'	263040	000000		POPJ	P,
    31
    32	000012'	000000	000013'	BUFPTR:	BUF
    33	000013'			BUF:	BLOCK 	4000
    34			004012'	BUFEND==:.-1
DEBUG TEMP MODULE TO HOLD DEBUGGING ROUTINES	MACRO 12.5-46.0 14:40 13-JAN-88 PAGE 2
DEBUG.MAC	20-SEP-87 13:01		12-JUL-1977

    35				;ROUTINE TO CHECK CONSISTENCY OF SPT, ATB COUNTS.
    36				; ASSUMES ALL PAGES ARE MAPPED MAX WRITE.
    37
    38	004013'	260040	004131'	ATBCHK::PUSHJ	P,SAVAC
    39	004014'	260040	000000*		PUSHJ	P,GETLMA
    40	004015'	375000	000000*		SOSGE	%UPT+UPTLDC
    41	004016'	256000	000000'		STOPCD
    42	004017'	334000	000000		SKIPA
    43	004020'	603700	000000*	ATBCH0::TLNE	P3,LMPSUP	;DON'T CHECK SUPER SLOTS
    44	004021'	263040	000000		POPJ	P,
    45	004022'	260040	004131'		PUSHJ	P,SAVAC
    46	004023'	260040	000000*		PUSHJ	P,GETATB
    47	004024'	335006	000000*		SKIPGE	ATBDUM(T1)
    48	004025'	263040	000000		POPJ	P,		;ONLY LOOK AT FILE ATBS
    49	004026'	550346	000000*		HRRZ	T2,ATBFNB(T1)	;GET FNB ADDRESS
    50	004027'	554347	000000*		HLRZ	T2,FNBNAM(T2)	;GET LH OF NAME
    51	004030'	302340	465757		CAIE	T2,'FOO'	; A FOO FILE?
    52	004031'	263040	000000		POPJ	P,		;NO, DON'T CHECK IT.
    53	004032'	200640	000006		MOVE	P2,T1		;GET ATB IN P2
    54	004033'	550615	000000*		HRRZ	P1,ATBMWC(P2)	;GET MWC COUNT
    55	004034'	550315	004026*		HRRZ	T1,ATBFNB(P2)	;GET FNB ADDRESS
    56	004035'	274606	000000*		SUB	P1,FNBUPD(T1)	;TAKE AWAY COUNT OF KNOWN UPDATERS
    57	004036'	554315	000000*		HLRZ	T1,ATBUMC(P2)	;TAKE AWAY UNSHARED MAPPERS
    58	004037'	274600	000006		SUB	P1,T1
    59	004040'	554315	000000*		HLRZ	T1,ATBSPT(P2)	;IF THERE IS AN SPT
    60	004041'	332000	000006		SKIPE	T1		;THEN
    61	004042'	350000	000014		AOS	P1		;TOOK ONE TOO MUCH AWAY FROM P1
    62	004043'	260040	004050'		PUSHJ	P,CNTSPT	;SEE HOW MANY COUNTS ARE IN SPT
    63	004044'	274600	000006		SUB	P1,T1		;TAKE THAT AWAY FROM MWC
    64	004045'	332000	000014		SKIPE	P1		;HAD BETTER MATCH
    65	004046'	256000	000000'		STOPCD			;NO
    66	004047'	263040	000000		POPJ	P,		;RETURN
    67
    68				;ROUTINE TO ADD UP ALL USE COUNTS IN SPT. CALL WITH ATB IN
    69				; P2. RETURNS SUM IN T1
    70
    71	004050'	400300	000000	CNTSPT::SETZ	T1,		;START OUT WITH 0
    72	004051'	201455	000000*		MOVEI	T4,ATBSPT-SPTLNK(P2) ;START OUT WITH THIS
    73	004052'	554451	000000*	CNTSP1:	HLRZ	T4,SPTLNK(T4)	;GET NEXT SPT SECTION
    74	004053'	322440	000000*		JUMPE	T4,CPOPJ	;DONE
    75	004054'	201351	000000*		MOVEI	T2,SPTEN1(T4)	;GET ADDRESS OF FIRST ENTRY
    76	004055'	201400	000000*		MOVEI	T3,SPTNME	;NUMBER OF ENTRIES TO ADD
    77	004056'	270307	000000*	CNTSP2:	ADD	T1,SPTUSC(T2)	;ADD MORE
    78	004057'	350000	000007		AOS	T2		;NEXT ENTRY ADDRESS
    79	004060'	367400	004056'		SOJG	T3,CNTSP2	;GO IF MORE ENTRIES
    80	004061'	254000	004052'		JRST	CNTSP1		;GO GET NEXT SECTION
DEBUG TEMP MODULE TO HOLD DEBUGGING ROUTINES	MACRO 12.5-46.0 14:40 13-JAN-88 PAGE 3
DEBUG.MAC	20-SEP-87 13:01		12-JUL-1977

    81				;ROUTINE TO JRST TO FROM INCUMC TO RECORD
    82				; ATB IN T1
    83
    84	004062'	261040	000006	INCCHK::PUSH	P,T1
    85	004063'	201300	000000*		MOVEI	T1,INCUMC
    86	004064'	260040	000003'		PUSHJ	P,PUTIN
    87	004065'	200301	777777		MOVE	T1,-1(P)
    88	004066'	260040	000003'		PUSHJ	P,PUTIN
    89	004067'	200300	000002		MOVE	T1,J
    90	004070'	260040	000003'		PUSHJ	P,PUTIN
    91	004071'	200301	000000		MOVE	T1,(P)
    92	004072'	260040	000003'		PUSHJ	P,PUTIN
    93	004073'	200301	000000		MOVE	T1,(P)
    94	004074'	200306	000000*		MOVE	T1,ATBSTS(T1)
    95	004075'	260040	000003'		PUSHJ	P,PUTIN
    96	004076'	200301	000000		MOVE	T1,(P)
    97	004077'	200306	004040*		MOVE	T1,ATBSPT(T1)
    98	004100'	260040	000003'		PUSHJ	P,PUTIN
    99	004101'	200301	000000		MOVE	T1,(P)
   100	004102'	550306	004034*		HRRZ	T1,ATBFNB(T1)
   101	004103'	200306	004035*		MOVE	T1,FNBUPD(T1)
   102	004104'	260040	000003'		PUSHJ	P,PUTIN
   103	004105'	262040	000006		POP	P,T1
   104	004106'	205400	000000*		MOVSI	T3,ATPUMC
   105	004107'	254000	000001*		JRST	INCUMC+1
   106
   107	004110'	201300	000000*	DECCHK::MOVEI	T1,DECUMC
   108	004111'	260040	000003'		PUSHJ	P,PUTIN
   109	004112'	200301	000000		MOVE	T1,(P)
   110	004113'	260040	000003'		PUSHJ	P,PUTIN
   111	004114'	200300	000002		MOVE	T1,J
   112	004115'	260040	000003'		PUSHJ	P,PUTIN
   113	004116'	200300	000015		MOVE	T1,P2
   114	004117'	260040	000003'		PUSHJ	P,PUTIN
   115	004120'	200315	004074*		MOVE	T1,ATBSTS(P2)
   116	004121'	260040	000003'		PUSHJ	P,PUTIN
   117	004122'	200315	004077*		MOVE	T1,ATBSPT(P2)
   118	004123'	260040	000003'		PUSHJ	P,PUTIN
   119	004124'	550315	004102*		HRRZ	T1,ATBFNB(P2)
   120	004125'	200306	004103*		MOVE	T1,FNBUPD(T1)
   121	004126'	260040	000003'		PUSHJ	P,PUTIN
   122	004127'	205300	000000*		MOVSI	T1,-ATPUMC
   123	004130'	254000	000001*		JRST	DECUMC+1
   124
   125
   126	004131'	250301	000000	SAVAC:	EXCH	T1,(P)		;SAVE T1, GET CALLING PC
   127	004132'	261040	000007		PUSH	P,T2
   128	004133'	261040	000010		PUSH	P,T3
   129	004134'	261040	000011		PUSH	P,T4
   130	004135'	261040	000014		PUSH	P,P1
   131	004136'	261040	000015		PUSH	P,P2
   132	004137'	261040	000016		PUSH	P,P3
   133	004140'	261040	000017		PUSH	P,P4
DEBUG TEMP MODULE TO HOLD DEBUGGING ROUTINES	MACRO 12.5-46.0 14:40 13-JAN-88 PAGE 3-2
DEBUG.MAC	20-SEP-87 13:01		12-JUL-1977

   134	004141'	261040	000006		PUSH	P,T1		;SAVE CALLING PC
   135	004142'	200301	777770		MOVE	T1,-10(P)	;RESTORE ORIGINAL T1
   136	004143'	260061	000000		PUSHJ	P,@(P)		;CALL THE CALLER
   137	004144'	254000	004146'		  JRST	.+2
   138	004145'	350001	777767		AOS	-11(P)		;SKIP RETURN
   139	004146'	262040	000006		POP	P,T1		;GET RID OF OLD PC
   140	004147'	262040	000017		POP	P,P4
   141	004150'	262040	000016		POP	P,P3
   142	004151'	262040	000015		POP	P,P2
   143	004152'	262040	000014		POP	P,P1
   144	004153'	262040	000011		POP	P,T4
   145	004154'	262040	000010		POP	P,T3
   146	004155'	262040	000007		POP	P,T2
   147	004156'	262040	000006		POP	P,T1
   148	004157'	263040	000000		POPJ	P,
DEBUG TEMP MODULE TO HOLD DEBUGGING ROUTINES	MACRO 12.5-46.0 14:40 13-JAN-88 PAGE 4
DEBUG.MAC	20-SEP-87 13:01		12-JUL-1977

   149				;ROUTINES THAT USE THE CLOCK
   150
   151				EXTERNAL UPTIME
   152				IFCPU (KI),<EXTERNAL STSTIM>
   153
   154				;ROUTINE TO PUSHJ TO INSIDE A ROUTINE THAT IS CALLED WITH A
   155				; PUSHJ. WHEN THE CALLING ROUTINE POPJS, TIMING
   156				; ENDS
   157
   158	004160'	260040	004166'	CLKTIM::PUSHJ	P,CLKSTR	;START TIMING
   159	004161'	262041	000000		POP	P,(P)		;GET CALER'S ADDRESS OFF STACK
   160	004162'	260061	000001		PUSHJ	P,@1(P)		;AND CALL HIM BACK
   161	004163'	254000	004165'		  JRST	.+2		;NON-SKIP
   162	004164'	350001	000000		AOS	(P)		;GIVE CALER'S CALLER SKIP RETURN
   163	004165'	324740	004173'		PJRST	CLKOFF		;AND STOP THE TIMING
   164
   165
   166				;ROUTINE TO START TIMING SOMETHING. PRESERVES ALL ACS.
   167
   168	004166'	261040	000006	CLKSTR::PUSH	P,T1
   169				   IFCPU (KI),<PUSHJ P,STSTIM>
   170	004167'	256000	000000'	   IFCPU (<KL,KS,F3>),<STOPCD>
   171	004170'	202300	004226'		MOVEM	T1,TIMSAV	;REMEMBER WHEN WE STARTED
   172	004171'	262040	000006		POP	P,T1		;RESTORE AND
   173	004172'	263040	000000		POPJ	P,		;RETURN.
   174
   175				;ROUTINE TO END TIMING. COMPUTES EXPONENTIAL
   176				; AVERAGE OF TIME SPENT IN ROUTINE, TOTAL TIME SPENT IN ROUTINE,
   177				; AND PERCENTAGE OF TOTAL ELAPSED SYSTEM TIME SPENT IN TIMED
   178				; SECTION.
   179
   180	004173'	261040	000006	CLKOFF::PUSH	P,T1		;SAVE THIS
   181				   IFCPU (KI),<PUSHJ P,STSTIM> ;GET ENDING TIME
   182	004174'	274300	004226'		SUB	T1,TIMSAV	;GET TOTAL 10US UNITS SPENT
   183	004175'	272300	004223'		ADDM	T1,CLKTOT	;ADD TO TOTAL
   184	004176'	270300	004230'		ADD	T1,CLKAVG	;ADD LAST AVERAGE
   185	004177'	242300	777777		LSH	T1,-1		;DO EXPONENTIAL AVERAGE
   186	004200'	202300	004230'		MOVEM	T1,CLKAVG	;NEW EXP AVG.
   187	004201'	350000	004227'		AOS	CLKAVC		;HOW MANY TIMES WE DID THIS
   188	004202'	261040	000007		PUSH	P,T2		;SAVE ANOTHER
   189	004203'	200340	000000*		MOVE	T2,UPTIME	;GET UPTIME NOW
   190	004204'	274340	004225'		SUB	T2,TIMUPT	;GET TOTAL JIFFIES THIS TIME AROUND
   191	004205'	202340	004224'		MOVEM	T2,TIMTOT	;THIS IS TOTAL TIME
   192	004206'	221340	000020		IMULI	T2,^D16		;CONVERT TO MS.
   193	004207'	200300	004223'		MOVE	T1,CLKTOT	;GET TOTAL TIME
   194	004210'	230300	000007		IDIV	T1,T2		;MS*100 / MS = %
   195	004211'	202300	004231'		MOVEM	T1,CLKPRC	;SAVE PERCENT TOTAL TIME
   196	004212'	262040	000007		POP	P,T2
   197	004213'	262040	000006		POP	P,T1
   198	004214'	263040	000000		POPJ	P,
   199
   200	004215'	200300	004346'	INICLK::MOVE	T1,[CLKCLS,,CLKCLS+1]
   201	004216'	402000	004223'		SETZM	CLKCLS
DEBUG TEMP MODULE TO HOLD DEBUGGING ROUTINES	MACRO 12.5-46.0 14:40 13-JAN-88 PAGE 4-2
DEBUG.MAC	20-SEP-87 13:01		12-JUL-1977

   202	004217'	251300	004231'		BLT	T1,CLKCLE
   203	004220'	200300	004203*		MOVE	T1,UPTIME	;GET UPTIME WE STARTED TIMING
   204	004221'	202300	004225'		MOVEM	T1,TIMUPT	;AND SAVE IT FOR % CALCULATION
   205	004222'	263040	000000		POPJ	P,
   206
   207	004223'			CLKCLS:			;START CLEARING HERE
   208
   209	004223'			CLKTOT::BLOCK	1	;TOTAL TIME SPENT IN ROUTINE IN 10 US UNITS
   210	004224'			TIMTOT::BLOCK	1		;TOTAL JIFFY ELAPSED TIME
   211	004225'			TIMUPT::BLOCK	1		;UPTIME IN JIFFIES WHEN WE STARTED TIMING
   212	004226'			TIMSAV::BLOCK	1		;PLACE TO SAVE ORIGINAL STSTTIM VALUE
   213	004227'			CLKAVC::BLOCK	1		;NUMBER OF TIMES WE COMPUTED AVERAGE
   214	004230'			CLKAVG::BLOCK	1		;EXPONENTIAL AVERAGE OF TIME SPENT IN ROUTINE
   215	004231'			CLKPRC::BLOCK	1		;RUNNING %AGE OF TOTAL ELAPSED TIME SPENT IN ROUTINE
   216
   217			004231'	CLKCLE==.-1
   218
   219				DEFINE ERROR(MSG)<JRST [OUTSTR [ASCIZ/'MSG
   220				/]
   221						EXIT]>
   222			000003	NCTX==3
   223
   224			000014		PAGE==P1
   225
   226	004232'	047000	000000	MAPUPT:	RESET
   227	004233'	200040	004347'		MOVE	P,[-20,,PDL-1]
   228	004234'	205300	000000*		MOVSI	T1,-NCTXPG##	;GET AOBJN POINTER FOR NUMBER OF CONTEXT PAGES
   229	004235'	202300	004345'		MOVEM	T1,NCTXAO
   230	004236'	336000	000002		SKIPN	J
   231	004237'	254000	004354'		ERROR	(SETUP JOB IN J)
   232	004240'	550300	000000*		HRRZ	T1,.JBREL##
   233	004241'	435300	000777		IORI	T1,777
   234	004242'	271300	000001		ADDI	T1,1
   235	004243'	303300	000000*		CAILE	T1,%UPT##	;MONITOR SMALL ENOUGH TO USE %UPT?
   236	004244'	254000	004364'		ERROR	(MONITOR TOO BIG TO USE %UPT)
   237	004245'	201300	000000*		MOVEI	T1,%UPT/1000	;MAP THEM HERE.
   238	004246'	505300	002001		HRLI	T1,2001		;READ ONLY, ONE PAGE.
   239	004247'	202300	004313'		MOVEM	T1,MAPBLK
   240	004250'	200440	004345'		MOVE	T4,NCTXAO	;MAKE SURE PAGES ARE GONE.
   241	004251'	200340	000006	REMLUP:	MOVE	T2,T1
   242	004252'	047340	777713		VREMOV	T2,
   243	004253'	255000	000000		  JFCL
   244	004254'	350000	000006		AOS	T1
   245	004255'	253440	004251'		AOBJN	T4,REMLUP
   246	004256'	041000	000017		INIT	17
   247	004257'	446353	000000		  SIXBIT /DSK/
   248	004260'	000000	000000		  XWD 0,0
   249	004261'	254200	000000		  HALT
   250	004262'	205300	446353		MOVSI	T1,'DSK'
   251	004263'	202300	004315'		MOVEM	T1,DSKCBL
   252	004264'	200300	004366'		MOVE	T1,[7,,DSKCBL]
   253	004265'	047300	000045		DSKCHR	T1,
   254	004266'	254200	000000		  HALT
DEBUG TEMP MODULE TO HOLD DEBUGGING ROUTINES	MACRO 12.5-46.0 14:40 13-JAN-88 PAGE 4-3
DEBUG.MAC	20-SEP-87 13:01		12-JUL-1977

   255	004267'	200300	004323'		MOVE	T1,DSKCBL+6
   256	004270'	202300	004376'		MOVEM	T1,STRBPU#
   257	004271'	200300	004345'		MOVE	T1,NCTXAO
   258	004272'	201502	000000*		MOVEI	W,JBTCTX##(J)	;GET FIRST ADDRESS
   259	004273'	200600	000012	MAPLUP:	MOVE	PAGE,W
   260	004274'	047600	000033		PEEK	PAGE,		;GET NEXT CONTEXT PAGE ADDRESS
   261	004275'	260040	004306'		PUSHJ	P,CNVPAG	;CONVERT TO PAGE NUMBER
   262	004276'	202600	004314'		MOVEM	PAGE,MAPBLK+1
   263	004277'	205340	000043		MOVSI	T2,43		;SUPER MAP
   264	004300'	043340	004313'		CHANIO	T2,MAPBLK
   265	004301'	254000	004373'		  ERROR	(CAN'T SUPER MAP)
   266	004302'	350000	004313'		AOS	MAPBLK
   267	004303'	271500	000000*		ADDI	W,JOBN##	;NEXT CTX ADDRESS.
   268	004304'	253300	004273'		AOBJN	T1,MAPLUP
   269	004305'	254000	000000*		JRST	DDT##
   270
   271	004306'	135400	004375'	CNVPAG:	LDB	T3,[POINT 8,PAGE,16]
   272	004307'	220400	004376'		IMUL	T3,STRBPU
   273	004310'	621600	777776		TLZ	PAGE,777776
   274	004311'	270600	000010		ADD	PAGE,T3
   275	004312'	263040	000000		POPJ	P,
   276
   277	004313'			MAPBLK:	BLOCK	2		;POINTER, ADDRESS
   278	004315'			DSKCBL:	BLOCK	10
   279	004325'			PDL:	BLOCK	20
   280	004345'			NCTXAO:	BLOCK	1		;UNTIL GETTAB ARRIVES OR SOMETHING
   281
   282	004346'	004223'	004224'		$END	(DBG)

   283	004347'	777760	004324'

   284	004350'	516132	452640

   285	004351'	202251	741100

   286	004352'	446344	045032

   287	004353'	050000	000000

   288	004354'	051140	004350'

   289	004355'	047000	000012

   290	004356'	466371	644650

   291	004357'	476444	052236

   292	004360'	475010	244616

   293	004361'	202511	720252

   294	004362'	516124	022652

DEBUG TEMP MODULE TO HOLD DEBUGGING ROUTINES	MACRO 12.5-46.0 14:40 13-JAN-88 PAGE 4-4
DEBUG.MAC	20-SEP-87 13:01		12-JUL-1977

   295	004363'	502501	505000

   296	004364'	051140	004356'

   297	004365'	047000	000012

   298	004366'	000007	004315'

   299	004367'	416031	623650

   300	004370'	202472	550212

   301	004371'	511011	540640

   302	004372'	064240	000000

   303	004373'	051140	004367'

   304	004374'	047000	000012

   305	004375'	231000	000014

   306						;End of DEBUG  (DBGLIT: DBGEND:)
   307
NO ERRORS DETECTED
PROGRAM BREAK IS 004377
7K CORE USED
DEBUG TEMP MODULE TO HOLD DEBUGGING ROUTINES	MACRO 12.5-46.0 14:40 13-JAN-88 PAGE 5
DEBUG.MAC	20-SEP-87 13:01		SYMBOL TABLE

ATBCH0		004020'	INT	JBTCTX		004272'	EXT
ATBCHK		004013'	INT	JOBN		004303'	EXT
ATBDUM		004024'	EXT	LMPSUP		004020'	EXT
ATBFNB		004124'	EXT	MAPBLK		004313'
ATBMWC		004033'	EXT	MAPLUP		004273'
ATBSPT		004122'	EXT	MAPUPT		004232'
ATBSTS		004120'	EXT	NCTX		000003	SPD
ATBUMC		004036'	EXT	NCTXAO		004345'
ATPUMC		004106'	EXT	NCTXPG		000000	EXT
BUF		000013'		NODIE		000000	EXT
BUFEND		004012'	SIN	OUTSTR	051140	000000
BUFPTR		000012'		P		000001	INT
CHANIO	043000	000000		P1		000014	INT
CLKAVC		004227'	INT	P2		000015	INT
CLKAVG		004230'	INT	P3		000016	INT
CLKCLE		004231'	SPD	P4		000017	INT
CLKCLS		004223'		PAGE		000014	SPD
CLKOFF		004173'	INT	PDL		004325'
CLKPRC		004231'	INT	PEEK	047000	000033
CLKSTR		004166'	INT	PJRST	324740	000000
CLKTIM		004160'	INT	PUTIN		000003'	INT
CLKTOT		004223'	INT	REMLUP		004251'
CMBSIZ		000000	EXT	RESET	047000	000000
CNTSP1		004052'		S$ENTR	777777	777775	SIN
CNTSP2		004056'		S$HALT	777777	777777	SIN
CNTSPT		004050'	INT	S$NAME		000000'	SPD
CNVPAG		004306'		S$NONA		000000	SIN
CPOPJ		004053'	EXT	S$TEMP		000000	SPD
CPUF3		000004	SPD	S$XCT	777777	777776	SIN
CPUKI		000001	SPD	SAVAC		004131'
CPUKL		000002	SPD	SPTEN1		004054'	EXT
CPUKS		000003	SPD	SPTLNK		004052'	EXT
CPUTYP		000002	SPD	SPTNME		004055'	EXT
CPZZ		000000	SPD	SPTUSC		004056'	EXT
DBGEND		004375'	INT	STRBPU		004376'
DBGLIT		004346'	INT	T1		000006	INT
DDT		004305'	EXT	T2		000007	INT
DEBUG		000000'	ENT	T3		000010	INT
DECCHK		004110'	INT	T4		000011	INT
DECUMC		004110'	EXT	TIMSAV		004226'	INT
DIE		000000'	EXT	TIMTOT		004224'	INT
DSKCBL		004315'		TIMUPT		004225'	INT
DSKCHR	047000	000045		UPTIME		004220'	EXT
EXIT	047000	000012		UPTLDC		000000	EXT
FNBNAM		004027'	EXT	VREMOV	047000	777713
FNBUPD		004125'	EXT	W		000012	INT
GETATB		004023'	EXT	%UPT		004243'	EXT
GETLMA		004014'	EXT	.JBREL		004240'	EXT
INCCHK		004062'	INT
INCUMC		004063'	EXT
INICLK		004215'	INT
J		000002	INT

DEBUG TEMP MODULE TO HOLD DEBUGGING ROUTINES	MACRO 12.5-46.0 14:40 13-JAN-88
DEBUG.MAC	20-SEP-87 13:01		Symbol cross reference

ATBCH0	    43#
ATBCHK	    38#
ATBDUM	    20%	    47
ATBFNB	    20%	    49	    55	   100	   119
ATBMWC	    20%	    54
ATBSPT	    20%	    59	    72	    97	   117
ATBSTS	    22%	    94	   115
ATBUMC	    20%	    57
ATPUMC	    22%	   104	   122
BUF	    28	    32	    33#
BUFEND	    26	    34#
BUFPTR	    24	    25	    29	    32#
CLKAVC	   187	   213#
CLKAVG	   184	   186	   214#
CLKCLE	   202	   217#
CLKCLS	   200	   201	   207#
CLKOFF	   163	   180#
CLKPRC	   195	   215#
CLKSTR	   158	   168#
CLKTIM	   158#
CLKTOT	   183	   193	   209#
CMBSIZ	    22%
CNTSP1	    73#	    80
CN    77#	    79
CNTSPT	    62	    71#
CNVPAG	   261	   271#
CPOPJ	    20%	    74
CPUF3	   170
CPUKI	   152	   169	   181
CPUKL	   170
CPUKS	   170
CPUTYP	   152	   169	   170	   181
CPZZ	   152#	   152	   169#	   169	   170#	   170	   181#	   181
DBGEND	   306#
DBGLIT	   282#
DDT	   269%	   269
DEBUG	    12	    13#	    16
DECCHK	   107#
DECUMC	    22%	   107	   123
DIE	    12	    12%	    13
DSKCBL	   251	   252	   255	   278#
FNBNAM	    20%	    50
FNBUPD	    22%	    56	   101	   120
GETATB	    21%	    46
GETLMA	    21%	    39
INCCHK	    84#
INCUMC	    22%	    85	   105
INICLK	   200#
J	    89	   111	   230	   258
JBTCTX	   258%	   258
JOBN	   267%	   267
LISTSN	     3	     6
LMPSUP	    22%	    43
DEBUG TEMP MODULE TO HOLD DEBUGGING ROUTINES	MACRO 12.5-46.0 14:40 13-JAN-88
DEBUG.MAC	20-SEP-87 13:01		Symbol cross reference

MAPBLK	   239	   262	   264	   266	   277#
MAPLUP	   259#	   268
MAPUPT	   226#
NCTX	   222#
NCTXAO	   229	   240	   257	   280#
NCTXPG	   228%	   228
NODIE	    12%
P	    13	    27	    30	    38	    39	    44	    45	    46	    48	    52	    62	    66	    84	    86
	    87	    88	    90	    91	    92	    93	    95	    96	    98	    99	   102	   103	   108	   109
	   110	   112	   114	   116	   118	   121	   126	   127	   128	   129	   130	   131	   132	   133
	   134	   135	   136	   138	   139	   140	   141	   142	   143	   144	   145	   146	   147	   148
	   158	   159	   160	   162	   168	   172	   173	   180	   188	   196	   197	   198	   205	   227
	   261	   275
P1	    54	    56	    58	    61	    63	    64	   130	   143	   224
P2	    53	    54	    55	    57	    59	    72	   113	   115	   117	   119	   131	   142
P3	    43	   132	   141
P4	   133	   140
PAGE	   224#	   259	   260	   262	   271	   273	   274
PDL	   227	   279#
PUTIN	    24#	    86	    88	    90	    92	    95	    98	   102	   108	   110	   112	   114	   116	   118
	   121
REMLUP	   241#	   245
S$ENTR	    12	    18	    41	    65	   170
S$HALT	    12	    41	    65	   170
S$NAME	    16#	    41	    65	   170
S$NONA	    15	    18	    41	    65	   170
S$TEMP	    12#	    12	    41#	    41	    65#	    65	   170#	   170
S$XCT	    18	    41	    65	   170
SAVAC	    38	    45	   126#
SPTEN1	    21%	    75
SPTLNK	    21%	    72	    73
SPTNME	    21%	    76
SPTUSC	    21%	    77
STRBPU	   256#	   256	   272
T1	    24	    25	    26	    28	    29	    47	    49	    53	    55	    56	    57	    58	    59	    60
	    63	    71	    77	    84	    85	    87	    89	    91	    93	    94	    96	    97	    99	   100
	   101	   103	   107	   109	   111	   113	   115	   117	   119	   120	   122	   126	   134	   135
	   139	   147	   168	   171	   172	   180	   182	   183	   184	   185	   186	   193	   194	   195
	   197	   200	   202	   203	   204	   228	   229	   232	   233	   234	   235	   237	   238	   239
	   241	   244	   250	   251	   252	   253	   255	   256	   257	   268
T2	    49	    50	    51	    75	    77	    78	   127	   146	   188	   189	   190	   191	   192	   194
	   196	   241	   242	   263	   264
T3	    76	    79	   104	   128	   145	   271	   272	   274
T4	    72	    73	    74	    75	   129	   144	   240	   245
TIMSAV	   171	   182	   212#
TIMTOT	   191	   210#
TIMUPT	   190	   204	   211#
UPTIME	   151%	   189	   203
UPTLDC	    21%	    40
W	   258	   259	   267
%UPT	    21%	    40	   235%	   235	   237
.JBREL	   232%	   232
DEBUG TEMP MODULE TO HOLD DEBUGGING ROUTINES	MACRO 12.5-46.0 14:40 13-JAN-88
DEBUG.MAC	20-SEP-87 13:01		Macro/Opdef cross reference

CHANIO	   264
DSKCHR	   253
ERROR	   219#	   231	   236	   265
EXIT	   231	   236	   265
IFCPU	   152	   169	   170	   181
OUTSTR	   231	   236	   265
PEEK	   260
PJRST	   163
RESET	   226
STOPCD	    11	    41	    65	   170
VREMOV	   242
$END	   282<@
=%