KL-10 PARAMTER DEFINTIONS FOR PDP-10 MONITOR	MACRO %53B(1156)-1 15:35 15-Jan-88 Page 1
S	MAC	 4-Aug-76 23:31		S.MAC - with system parameter file for P035/D, January 1988

     1					Subttl	S.MAC - with system parameter file for P035/D, January 1988
     2
     3					IF2,<IFNDEF LISTSN,<TAPE>>	;Skip to PASS2 in all but COMMON.LST
     4		777777	777777			ifndef listsn,<listsn==-1>
     5					Title KL-10 PARAMTER DEFINTIONS FOR PDP-10 MONITOR
     6					;	/EVS 3 MAR 78
     7					;THIS MODULE ASSEMBLED WITH KL-10 PARAMETER FILE - KLSYM.MAC
     8
     9						IF2,<IFNDEF LISTSN,<		;LIST KLSYM.MAC IN COMMON ONLY
    10									TAPE>>
    11
    12										;SKIP PASS2 IN ALL OTHER CASES
    13
    14					;CPU TYPE SYMBOL DEFINITION
    15
    16			000002		CPUTYP==CPUKL
    17					DEFINE IFKMC<REPEAT 0,>
    18					DEFINE IFNKMC<REPEAT 1,>
    19
    20					DEFINE PRINTF(A,B,C,D),<;;;PRINTX A B C D>	;;Output on F3 builds only
KL-10 PARAMTER DEFINTIONS FOR PDP-10 MONITOR	MACRO %53B(1156)-1 15:35 15-Jan-88 Page 2
KLSYM	MAC	 4-Aug-76 23:33		KL-10 INSTRUCTION AND OPCODE DEFINITIONS

    21					SUBTTL KL-10 INSTRUCTION AND OPCODE DEFINITIONS
    22
    23		105000	000000		OPDEF	ADJSP	[105000000000]	;Adjust stack pointer
    24		114000	000000		OPDEF	DADD	[114000000000]	;Double integer ADD
    25		115000	000000		OPDEF	DSUB	[115000000000]	;Double integer SUB
    26		116000	000000		OPDEF	DMUL	[116000000000]	;Double integer MUL (quad-word result)
    27		117000	000000		OPDEF	DDIV	[117000000000]	;Double integer DIV (quad-word dividend)
    28		133000	000000		OPDEF	ADJBP	[IBP]		;Adjust byte pointer if AC field nonzero
    29		256000	000000		OPDEF	PXCT	[XCT]		;Previous context XCT
    30
    31			000000		  APR==0
    32		700000	000000		OPDEF	APRID	[700000000000]	;BLKI  APR, Read APR ID (CPU serial number)
    33		700100	000000		OPDEF	WRFIL	[700100000000]	;BLKO  APR, Write cache refill algorithm
    34		700140	000000		OPDEF	WRADB	[700140000000]	;DATAO APR, Write Address Break register
    35		700040	000000		OPDEF	RDADB	[700040000000]	;DATAI APR, Read Address Break register
    36		700200	000000		OPDEF	WRAPR	[700200000000]	;CONO  APR, Write APR priority assignment
    37		700240	000000		OPDEF	RDAPR	[700240000000]	;CONI  APR, Read APR status bits
    38			000004		  PI==4
    39		700400	000000		OPDEF	RDERA	[700400000000]	;BLKI  PI,  Read Error Address Register
    40		700500	000000		OPDEF	SBDIAG	[700500000000]	;BLKO  PI,  SBUS diagnostic
    41		700600	000000		OPDEF	WRPI	[700600000000]	;CONO  PI,  Write PI status
    42		700640	000000		OPDEF	RDPI	[700640000000]	;CONI  PI,  Read PI status
    43			000010		  PAG==10
    44		701100	000000		OPDEF	CLRPT	[701100000000]	;BLKO  PAG, clear pager tables
    45		701200	000000		OPDEF	WREBR	[701200000000]	;CONO  PAG, write Exec Base Register
    46		701240	000000		OPDEF	RDEBR	[701240000000]	;CONI  PAG, read Exec Base Register
    47		701140	000000		OPDEF	WRUBR	[701140000000]	;DATAO PAG, write User Base Register
    48		701040	000000		OPDEF	RDUBR	[701040000000]	;DATAI PAG, read User Base Register
    49			000014		  CCA==14
    50		701440	000000		OPDEF	SWPIA	[DATAI CCA,]	;INVALIDATE ALL CACHE DATA, DONT WRITE TO CORE
    51		701500	000000		OPDEF	SWPVA	[BLKO  CCA,]	;SWEEP CACHE, VALIDATING CORE, CACHE VALID
    52		701540	000000		OPDEF	SWPUA	[DATAO CCA,]	;UNLOAD ALL PAGES, UPDATING CORE, CACHE INVALID
    53		701640	000000		OPDEF	SWPIO	[CONI  CCA,]	;INVALIDATE ONE PAGE
    54		701700	000000		OPDEF	SWPVO	[CONSZ CCA,]	;VALIDATE ONE PAGE
    55		701740	000000		OPDEF	SWPUO	[CONSO CCA,]	;UNLOAD ONE PAGE
    56			000020		  TIM==20
    57		702000	000000		OPDEF	RDPERF	[BLKI  TIM,]	;READ DOUBLE-WORD PERFORMANCE METER
    58		702040	000000		OPDEF	RDTIME	[DATAI TIM,]	;READ DOUBLE-WORD TIME BASE
    59		702100	000000		OPDEF	WRPAE	[BLKO  TIM,]	;WRITE PERFORMANCE ANALYSIS ENABLES
    60			000024		  MTR==24
    61		702400	000000		OPDEF	RDMACT	[BLKI  MTR,]	;READ DOUBLE-WORD MBOX ACCOUNTING
    62		702440	000000		OPDEF	RDEACT	[DATAI MTR,]	;READ DOUBLE-WORD EBOX ACCOUNTING
KL-10 PARAMTER DEFINTIONS FOR PDP-10 MONITOR	MACRO %53B(1156)-1 15:35 15-Jan-88 Page 3
KLSYM	MAC	 4-Aug-76 23:33		HARDWARE BITS -- FOR KL10 PROCESSOR

    63						SUBTTL	HARDWARE BITS -- FOR KL10 PROCESSOR
    64
    65					;APRID BITS.
    66
    67			007777		APRSER==7777		;PROCESSOR SERIAL NUMBER.
    68
    69
    70					;LEFT HALF RDAPR (APR CONI) BITS.
    71
    72		004000	000000		LP.SEE==1B6		;SBUS ERROR ENABLED
    73		002000	000000		LP.NEE==1B7		;NXM ERROR ENABLED
    74		001000	000000		LP.IFE==1B8		;I/O PAGE FAIL ERROR ENABLED
    75		000400	000000		LP.PEE==1B9		;PARITY ERROR ENABLED
    76		000200	000000		LP.CDE==1B10		;CACHE DIRECTORY PARITY ERROR ENABLED
    77		000100	000000		LP.PDE==1B11		;PAGE TABLE DIRECTORY PARITY ERROR ENABLED
    78		000040	000000		LP.PFE==1B12		;POWER FAIL ENABLED
    79		000020	000000		LP.SDE==1B13		;SWEEP DONE ENABLED
    80
    81					;RIGHT HALF CONI (APR CONI) BITS
    82
    83			200000		LP.CSB==1B19		;CACHE SWEEP BUSY
    84			004000		LP.SBE==1B24		;S-BUSS ERROR
    85			002000		LP.NXM==1B25		;NXM
    86			001000		LP.IOF==1B26		;I/O PAGE FAIL
    87			000400		LP.PAR==1B27		;PARITY ERROR
    88			000200		LP.CDP==1B28		;CACHE DIRECTORY PARITY ERROR
    89			000100		LP.ADP==1B29		;ADDRESS PARITY ERROR
    90			000040		LP.PWF==1B30		;POWER FAIL
    91			000020		LP.CSD==1B31		;CACHE SWEEP DONE
    92			000010		LP.INT==1B32		;INTERRUPT REQUEST
    93			000007		LP.PIA==7B35		;PIA
    94
    95					;WRAPR (CONO APR BITS)
    96			200000		LP.IOR==1B19		;IO RESET
    97			100000		LP.ESF==1B20		;ENABLE SELECTED FLAGS (BITS 24-31)
    98			040000		LP.DSF==1B21		;DISABLE SELECTED FLAGS (BITS 24-31)
    99			020000		LP.CSF==1B22		;CLEAR SELECTED FLAGS (BITS 24-31)
   100			010000		LP.SSF==1B23		;SET SELECTED FLAGS (BITS 24-31)
   101			004000		LP.SBE==1B24		;S-BUSS ERROR
   102			002000		LP.NXM==1B25		;NXM
   103			001000		LP.IOF==1B26		;I/O PAGE FAIL
   104			000400		LP.PAR==1B27		;PARITY ERROR
   105			000200		LP.CDP==1B28		;CACHE DIRECTORY PARITY
   106			000100		LP.ADP==1B29		;ADDRESS PARITY
   107			000040		LP.PWF==1B30		;POWER FAIL
   108			000020		LP.CSD==1B31		;CACHE SWEEP DONE
   109			000007		LP.PIA==7B35		;PIA
   110
   111
KL-10 PARAMTER DEFINTIONS FOR PDP-10 MONITOR	MACRO %53B(1156)-1 15:35 15-Jan-88 Page 4
KLSYM	MAC	 4-Aug-76 23:33		HARDWARE BITS -- FOR KL10 PROCESSOR

   112					;HERE ARE APR BITS THAT ARE COMPATIBLE BETWEEN KL10 AND KI10.
   113					; USE NAMES FORMERLY USED FOR KI10 APR BITS TO MAKE
   114					; THINGS EASIER.
   115
   116					XP APRIOB,LP.IOR	^;IOB RESET
   117					XP APRIOP,LP.IOF	^;IO PAGE FAIL
   118					XP APRNXM,LP.NXM+LP.IOF+LP.SBE	^;NXM causes IOF if AR/ARX parity enabled
   119					XP APRPAR,LP.PAR	^;(MB) PARITY ERROR
   120					XP APRPOW,LP.PWF	^;POWER FAILURE
   121
   122					;MASKS FOR INTERRUPTS
   123
   124					XP APFMSK,LP.ADP+LP.IOF+LP.CDP+LP.PWF+LP.NXM ^;FATAL ERROR INTERRUPTS
   125					XP APRMSK,APFMSK+LP.PAR+LP.CSD+LP.SBE		^;MASK FOR ALL INTERRUPT CONDITIONS
   126
   127					DEFINE CLPARF<CONO APR,LP.CSF+LP.PAR+LP.SBE> ;CLEAR PARITY ERROR MACRO
   128					XP CLRNXM,<LP.CSF+APRNXM+LP.PAR>	^;CONO APR,CLRNXM clears NXM
   129									;(NXM also causes MB parity error to come up)
   130
   131					;LEFT HALF CONI PI BITS
   132		000100	000000		LI.PR1==1B11		;PROGRAM P1 REQUEST FOR CHANNEL 1
   133		000040	000000		LI.PR2==1B12		;PROGRAM PI REQUEST FOR CHANNEL 2
   134		000020	000000		LI.PR3==1B13		;PROGRAM PI REQUEST FOR CHANNEL 3
   135		000010	000000		LI.PR4==1B14		;PROGRAM PI REQUEST FOR CHANNEL 4
   136		000004	000000		LI.PR5==1B15		;PROGRAM PI REQUEST FOR CHANNEL 5
   137		000002	000000		LI.PR6==1B16		;PROGRAM PI REQUEST FOR CHANNEL 6
   138		000001	000000		LI.PR7==1B17		;PROGRAM PI REQUEST FOR CHANNEL 7
   139
   140					;RIGHT HALF PI CONI BITS.
   141
   142			400000		LI.EPA==1B18			;EVEN PARITY ADDRESSES
   143			200000		LI.EPD==1B19			;EVEN PARITY DATA
   144			100000		LI.EPC==1B20		;EVEN PARITY IN CACHE DIRECTORY
   145			040000		LI.IP1==1B21			;INTERRUPT IN PROGRESS ON PI CHANNEL 1
   146			020000		LI.IP2==1B22			;INTERRUPT IN PROGRESS ON PI CHANNEL 2
   147			010000		LI.IP3==1B23			;INTERRUPT IN PROGRESS ON PI CHANNEL 3
   148			004000		LI.IP4==1B24			;INTERRUPT IN PROGRESS ON PI CHANNEL 4
   149			002000		LI.IP5==1B25			;INTERRUPT IN PROGRESS ON PI CHANNEL 5
   150			001000		LI.IP6==1B26			;INTERRUPT IN PROGRESS ON PI CHANNEL 6
   151			000400		LI.IP7==1B27			;INTERRUPT IN PROGRESS ON PI CHANNEL 7
   152			077400		LI.IPA==LI.IP1+LI.IP2+LI.IP3+LI.IP4+LI.IP5+LI.IP6+LI.IP7
   153									;INTERRUPT IN PROGRESS ON ANY OR ALL PI CHANNELS
   154			000200		LI.PIA==1B28			;PI ACTIVE
   155			000100		LI.CO1==1B29			;PI CHANNEL 1 ON
   156			000040		LI.CO2==1B30			;PI CHANNEL 2 ON
   157			000020		LI.CO3==1B31			;PI CHANNEL 3 ON
   158			000010		LI.CO4==1B32			;PI CHANNEL 4 ON
   159			000004		LI.CO5==1B33			;PI CHANNEL 5 ON
   160			000002		LI.CO6==1B34			;PI CHANNEL 6 ON
   161			000001		LI.CO7==1B35			;PI CH7NNEL 7 ON
   162			000177		LI.ACO==LI.CO1+LI.CO2+LI.CO3+LI.CO4+LI.CO5+LI.CO6+LI.CO7
   163
   164					;BITS IN CONO PI (WRPI)
   165
   166			020000		LI.CPP==1B22		;CLEAR PROGRAM REQUEST
KL-10 PARAMTER DEFINTIONS FOR PDP-10 MONITOR	MACRO %53B(1156)-1 15:35 15-Jan-88 Page 4-1
KLSYM	MAC	 4-Aug-76 23:33		HARDWARE BITS -- FOR KL10 PROCESSOR

   167			010000		LI.CPS==1B23		;CLEAR PI SYSTEM
   168			004000		LI.REQ==1B24		;REQUEST INTERRUPT ON CHANNEL (EVEN IF CHAN IS OFF)
   169			002000		LI.CON==1B25		;TURN SELECTED CHANNEL ON
   170			001000		LI.COF==1B26		;TURN SELECTED CHANNEL OFF
   171			000400		LI.PIF==1B27		;TURN SYSTEM OFF
   172			000200		LI.PIN==1B28		;TURN SYSTEM ON
   173			000177		LI.ACO==LI.ACO		;MASK FOR SELECTING CHANNELS.
   174
KL-10 PARAMTER DEFINTIONS FOR PDP-10 MONITOR	MACRO %53B(1156)-1 15:35 15-Jan-88 Page 5
KLSYM	MAC	 4-Aug-76 23:33		HARDWARE BITS -- FOR KL10 PROCESSOR

   175					;BITS FOR KL10 PROGRAM CLOCKS
   176
   177
   178					;BITS IN CONO TIM,
   179
   180			400000		TO.CIT==1B18		;CLEAR INTERVAL TIMER
   181			040000		TO.SIT==1B21		;START INTERVAL TIMER
   182			020000		TO.CTD==1B22		;CLEAR TIMER DONE
   183			000001		TO.PRP==1B35		;POSITION OF PERIOD FIELD
   184			000014		TO.PRS==^D12		;SIZE OF PERIOD FIELD
   185			007777		TO.PRF==7777B35		;THE FIELD ITSELF
   186
   187
   188					;BITS IN CONI TIM,
   189
   190		000001	000000		TI.INP==1B17		;POSITION OF INTERVAL TIMER FIELD
   191			000014		TI.INS==^D12		;SIZE OF IT
   192		007777	000000		TI.INF==7777B17		;THE FIELD ITSELF
   193			040000		TI.TIO==1B21		;INTERVAL TIMER ON
   194			020000		TI.ITD==1B22		;INTERVAL TIMER DONE
   195			010000		TI.TOV==1B23		;TIMER OVERFLOW
   196			000001		TI.PRP==1B35		;PERIOD REGISTER POSITION
   197			000014		TI.PRS==^D12		;SIZE
   198			007777		TI.PRF==7777B35		;FIELD
   199
   200
   201					;BITS IN CONO MTR,
   202
   203			400000		MO.LAC==1B18		;LOAD ACCOUNTING CONTROL
   204			040000		MO.AIP==1B21		;ACCT INCLUDE PI
   205			020000		MO.AEN==1B22		;ACCT INCLUDE EXEC NO PI
   206			010000		MO.AO==1B23		;ACCT ON
   207			004000		MO.TOF==1B24		;TIME BASE OFF
   208			002000		MO.TON==1B25		;TIME BASE ON
   209			001000		MO.CTB==1B26		;CLEAR TIME BASE
   210			000007		MO.IPI==7B35		;INTERVAL TIMER PI
   211
   212					;BITS IN CONI MTR,
   213
   214			040000		MI.AIP==1B21		;ACCT INCLUDE PI
   215			020000		MI.AEN=1B22		;ACCT INCLUDE EXEC NO PI
   216			010000		MI.AO==1B23		;ACCT ON
   217			002000		MI.TON==1B25		;TIME BASE ON
   218			000007		MI.IPI==7B35		;INTERVAL TIMER PI
   219
KL-10 PARAMTER DEFINTIONS FOR PDP-10 MONITOR	MACRO %53B(1156)-1 15:35 15-Jan-88 Page 6
KLSYM	MAC	 4-Aug-76 23:33		HARDWARE BITS -- FOR KL10 PROCESSOR

   220					;LEFT HALF WRPAE BITS
   221
   222		400000	000000		PE.CP0==1B0		;CHANNEL 0 PERFORMANCE ENABLE
   223		200000	000000		PE.CP1==1B1		; CHANNEL 1
   224		100000	000000		PE.CP2==1B2
   225		040000	000000		PE.CP3==1B3
   226		020000	000000		PE.CP4==1B4
   227		010000	000000		PE.CP5==1B5
   228		004000	000000		PE.CP6==1B6
   229		002000	000000		PE.CP7==1B7
   230		001000	000000		PE.CPI==1B8		;CHANNEL PERFORMANCE IGNORE
   231
   232		000400	000000		PE.UCI==1B9		;MICROCODE STATE IGNORE
   233		000200	000000		PE.PRL==1B10		;PROBE LOW ENABLE
   234		000100	000000		PE.PRI==1B11		;PROBE STATE IGNORE
   235
   236		000040	000000		PE.CCR==1B12		;CACHE REFILL ENABLE
   237		000020	000000		PE.CCF==1B13		;CACHE FILL ENABLE
   238		000010	000000		PE.EWB==1B14		;EBOX WRITE BACK
   239		000004	000000		PE.SWB==1B15		;SWEEP WRITE BACK ENABLE
   240		000002	000000		PE.CCI==1B16		;CACHE CONDITION IGNORE
   241
   242					;RIGHT HALF WRPAE BITS
   243
   244			400000		PE.PP0==1B18		;PI 0 PERFORMANCE ENABLE
   245			200000		PE.PP1==1B19
   246			100000		PE.PP2==1B20
   247			040000		PE.PP3==1B21
   248			020000		PE.PP4==1B22
   249			010000		PE.PP5==1B23
   250			004000		PE.PP6==1B24
   251			002000		PE.PP7==1B25
   252			001000		PE.NPI==1B26		;NO PI
   253
   254			000400		PE.PCU==1B27		;PC USER ENABLE
   255			000200		PE.PCI==1B28		;PC IGNORE
   256			000100		PE.EVM==1B29		;EVENT MODE (RATHER THAN DURATION MODE)
   257			000040		PE.CLR==1B30		;CLEAR PERFORMANCE METER
   258
   259					;COMBINATIONS
   260
   261			777000		PE.PIN==PE.NPI!<377*<PE.PP7>>	;PI CONDI9ION IGNORE
   262
   263
   264					;VALUES FOR THE CLOCKS
   265
   266			010000		.EBCPT==10000		;EBOX COUNTS/EBOX TICK
   267			010000		.MBCPT==10000		;MBOX COUNTS/MBOX TICK
   268			010000		.TBCPT==10000		;TIME BASE COUNTS/TIME BASE TICK
   269
   270			000027		TB.LTP==^L<.TBCPT>	;POSITION THAT TIME BASE STARTS COUNTING IN
   271
KL-10 PARAMTER DEFINTIONS FOR PDP-10 MONITOR	MACRO %53B(1156)-1 15:35 15-Jan-88 Page 7
KLSYM	MAC	 4-Aug-76 23:33		HARDWARE BITS -- FOR KL10 PROCESSOR

   272					;BITS IN CONO PAG
   273			400000		LG.CSL==1B18		;CACHE STRATEGY LOOK
   274			200000		LG.CSW==1B19		;CACHE STRATEGY WRITE
   275			040000		LG.KLP==1B21		;KL PAGING IN EFFECT.
   276			020000		LG.TEN==1B22		;TRAP ENABLE
   277			007777		LG.EPT==7777		;ADDRESS OF EPT
   278
   279					;BITS IN WRUBR (DATAO PAG).
   280		400000	000000		LG.LAB==1B0		;LOAD AC BLOCKS
   281		200000	000000		LG.LPC==1B1		;LOAD PREV CONTEXT
   282		100000	000000		LG.LUB==1B2		;LOAD USER BASE REGISTER
   283		007000	000000		LG.CAC==7B8		;CURRENT AC BLOCK #
   284		000700	000000		LG.PAC==7B11		;PREV. AC BLOCK #
   285		000040	000000		LG.CSX==1B12		;CSWX
   286		000037	000000		LG.PCS==37B17		;PREVIOUS CONTEXT SECTION
   287			400000		LG.IAM==1B18		;INHIBIT STORING ACCOUNTING METER
   288			017777		LG.UPT==17777		;ADDRESS OF UBR
   289
   290					;S-BUS DIAGNOSTIC DEFINITIONS
   291
   292			000021		.SBNMC==21	;NUMBER OF MEMORY CONTROLLERS FOR SBDIAG
   293							; (0-3 ARE MA20 OR MB20, 4 IS DMA20, 5-7 UNUSED, 10-20 ARE MF20)
   294			000002		.SBFNC==2	;NUMBER OF SBDIAG FUNCTIONS (0 AND 1)
   295			010000		SB.CLR==(1B5)	;LEFT-HALF BIT TO CLEAR ERROR FLAGS IN SBDIAG FUNCTION 0
   296
KL-10 PARAMTER DEFINTIONS FOR PDP-10 MONITOR	MACRO %53B(1156)-1 15:35 15-Jan-88 Page 8
KLSYM	MAC	 4-Aug-76 23:33		HARDWARE BITS -- FOR KL10 PROCESSOR

   297					;DTE20 CONO BITS (NAMES FROM KL10 EFS CHAP 4.3)
   298
   299
   300			020000		TO11DB==1B22	;TO -11 DOOR BELL
   301			010000		CR11B==1B23	;CLEAR RELOAD -11 BUTTO0
   302			004000		SR11B==1B24	;SET RELOAD -11 BUTTON
   303			001000		CL11PT==1B26	;CLEAR -11 REQUESTING A 10 INTERRUPT BIT
   304			000400		TO11ER==1B27	;TO -11 ERROR
   305			000100		CLTO11==1B29	;CLEAR TO -11 NORMAL TERMINATION FLAG (TO11DN)
   306			000040		CLTO10==1B30	;CLEAR TO -10 NORMAL TERMINATION FLAG (TO10DN)
   307			000020		PILDEN==1B31	;ENABLE LOADING PIA
   308			000010		PI0ENB==1B32	;PI0 ENABLE
   309			000007		PIA==7B35	;PIA
   310
   311					;DTE20 CONI BITS
   312			100000		RM==1B20	;RESTRICTED MODE 11
   313			040000		DEAD11==1B21	;11 POWER FAILURE
   314			020000		TO11DB==1B22	;TO -11 DOORBELL PRESSED
   315			001000		TO10DB==1B26	;TO -10 DOORBELL
   316			000400		TO11ER==1B27	;ERROR OCCURRED DURING TO-11 XFER (CLEARED BY CLTO11)
   317			000100		TO11DN==1B29	;TO -11 NORMAL TERMINATION
   318			000040		TO10DN==1B30	;TO -10 NORMAL TERMINATION
   319			000020		TO10ER==1B31	;TO -10 ERROR
   320			000010		PI0ENB==1B32	;PI0 ENABLE
   321			000007		PIA==7B35	;PIA
   322
   323			000200		DTE==200	;DEVICE CODE FOR DTE20
   324
KL-10 PARAMTER DEFINTIONS FOR PDP-10 MONITOR	MACRO %53B(1156)-1 15:35 15-Jan-88 Page 9
KLSYM	MAC	 4-Aug-76 23:33		HARDWARE PAGING PARAMETERS

   325					SUBTTL HARDWARE PAGING PARAMETERS
   326
   327					;PAGE FAIL (AND MAP INSTRUCTION) WORD DEFINITIONS
   328
   329					XP PFW.U,(1B0)		^;USER/EXEC ADDRESS SPACE BIT
   330					XP PFW.H,(1B1)		^;"HARDWARE" REASON FOR PAGE FAIL.
   331
   332					;THE FOLLOWING DEFINITIONS APPLY IF PFW.H IS ZERO:
   333
   334					XP PFW.A,(1B2)		^;COPY OF A BIT FROM MAP SLOT
   335					XP PFW.W,(1B3)		^;W BIT FROM MAP SLOT
   336					XP PFW.S,(1B4)		^;S BIT
   337					XP PFW.T,(1B5)		^;ON IF WRITE WAS ATTEMPTED.
   338								; (DOESN'T SAY THATS WHY IT FAILED, THOUGH.)
   339					XP PFW.P,(1B6)		^;PUBLIC BIT FROM MAP SLOT
   340					XP PFW.C,(1B7)		^;CACHE BIT
   341					XP PFW.R,(1B8)		^;PAGED REFERENCE (MAP INSTRUCTION)
   342
   343					;IF PFW.H IS 1, FOLLOWING CODES APPLY:
   344
   345					XP PF.PRV,21		^;PROPRIETARY VIOLATION
   346					XP PF.RFE,22		^;PAGE REFILL ERROR
   347					XP PF.ABK,23		^;ADDRESS BREAK
   348					XP PF.ILI,24		^;ILLEGAL INDIRECT (KL PAGING ONLY)
   349					XP PF.PTP,25		^;PAGE TABLE PARITY ERROR
   350					XP PF.ILS,27		^;ILLEGAL SECTION (EXTENDED ADDRESSING)
   351					XP PF.ARP,36		^;AR DATA PARITY ERROR
   352					XP PF.AXP,37		^;ARX DATA PARITY ERROR
   353
   354					;PAGE MAP POINTER BITS (KI PAGING)
   355
   356			400000		XP PGE.A,400000^PGE.A==:400000^
   357			200000		XP PGE.P,200000^PGE.P==:200000^
   358			100000		XP PGE.W,100000^PGE.W==:100000^
   359			040000		XP PGE.S,40000^PGE.S==:40000^
   360					XP PGE.C0		^;CACHE BIT
   361
KL-10 PARAMTER DEFINTIONS FOR PDP-10 MONITOR	MACRO %53B(1156)-1 15:35 15-Jan-88 Page 10
KLSYM	MAC	 4-Aug-76 23:33		HARDWARE PAGING PARAMETERS

   362					;PC BITS.
   363
   364					XP PC.FPD,1B22	^;FIRST PART DONE
   365			010000		XP PC.USR,1B23^PC.USR==:1B23^
   366					XP PC.UIO,1B24	^;USER IO
   367					XP PC.PUB,1B25	^;PUBLIC
   368					XP PC.ADR,1B26	^;ADDRESS FAILURE INHIBIT
   369					XP PC.TRP,3B28	^;TRAP FLAGS
   370					XP PC.OV,1B18	^;OVERFLOW
   371					XP PC.FOV,1B21	^;FLOATING OVERFLOW
   372					XP PC.FXU,1B29	^;FLOATING EXPONENT UNDERFLOW
   373					XP PC.DCK,1B30	^;DIVIDE CHECK
   374
KL-10 PARAMTER DEFINTIONS FOR PDP-10 MONITOR	MACRO %53B(1156)-1 15:35 15-Jan-88 Page 11
KLSYM	MAC	 4-Aug-76 23:33		HARDWARE PAGING PARAMETERS

   375					;LOCATIONS IN UPT FIXED BY KL-10 HARDWARE
   376
   377					XP UPTGP0,0		^;PAGE 0 OF USER
   378					XP UPTEP0,400		^;FIRST PAGE OF EXEC (340) IN UPT
   379
   380					XP UPTPGT,420		^;(REALLY SOFTWARE LOCATION).
   381					XP UPTOVT,421		^;OVERFLOW TRAP INSTRUCTION
   382					XP UPTPOV,422		^;PDL OVERFLOW
   383					XP UPTTR3,423		^;TRAP 3
   384					XP UPTMUU,424		^;MUUO STORED HERE
   385					XP UPTMUP,425		^;MUUO PC STORED HERE
   386					XP UPTPCW,426		^;PROCESS CONTEXT WORD (SECTION, ETC)
   387								; (427 UNUSED)
   388					XP UPTKNT,430		^;KERNAL NO TRAP WORD
   389					XP UPTKTR,431		^;KERNEL TRAP
   390					XP UPTSNT,432		^;SUPERVISOR NO TRAP
   391					XP UPTSTR,433		^;SUPERVISOR TRAP
   392					XP UPTCNT,434		^;CONCEALED NO TRAP
   393					XP UPTCTR,435		^;CONCEALED TRAP
   394					XP UPTPNT,436		^;PUBLIC NO TRAP
   395					XP UPTPTR,437		^;PUBLIC TRAP
   396								; (440 TO 477 AVAILABLE TO SOFTWARE.)
   397					XP UPTPFW,500		^;PAGE FAIL WORD, USER OR EXEC, STORED HERE.
   398					XP UPTOPP,501		^;OLD PAGE FAIL PC
   399					XP UPTNPP,502		^;NEW PAGE FAIL PC
   400								; (503 AVAILBLE TO SOFTWARE)
   401					XP UPTHEC,504		^;HI ORDER EBOX CLOCK WORD
   402					XP UPTLEC,505		^;LO ORDER EBOX CLOCK WORD
   403					XP UPTHMC,506		^;HI ORDER MBOX CLOCK WORD
   404					XP UPTLMC,507		^;LO ORDER MBOX CLOCK WORD
   405								;(510-577 RESERVED FOR USE BY HARDWARE)
   406
   407					XP UPTFSL,600		^;BEGINNING OF CONTIGUOUS AREA AVAILABLE TO
   408								; SOFTWARE.
   409
   410
KL-10 PARAMTER DEFINTIONS FOR PDP-10 MONITOR	MACRO %53B(1156)-1 15:35 15-Jan-88 Page 12
KLSYM	MAC	 4-Aug-76 23:33		HARDWARE PAGING PARAMETERS

   411					;AC BLOCK DEFINITIONS
   412
   413					XP USRACB,0		^;USER AC BLOCK (MUST BE DEFINED AS ZERO)
   414					XP EX0ACB,1		^;FOR EXEC MODE.
   415					XP EX1ACB,2		^; ALTERNATE BETWEEN THESE TWO AS UUOS AND PAGE FAULTS ARE DONE.
   416					XP NULACB,2		^;CONTAINS NULL JOB
   417					XP SA0ACB,3		^;AC BLOCK FOR SA 10 CHANNEL'S PI LEVEL.
   418					XP SA1ACB,3		^;FOR BOTH CHANNELS.
   419					XP RS1ACB,6		^;RESERVED (KL PAGING)
   420					XP RS2ACB,7		^;RESERVED TO UCODE (EXT. INST, PARITY ERROR DATA)
   421					XP NUMACB,6		^;NUMBER OF AC BLOCKS AVAILABLE ON THIS MACHINE
   422
   423					;MACRO TO USE WHEN JUST ENTERING EXEC MODE TO SWITCH TO
   424					; THE EXEC AC BLOCK
   425
   426					DEFINE EXECAC,<SALL
   427						DATAO PAG,[LG.LAB+<EX0ACB>B8+<USRACB>B11]>
   428
   429					DEFINE USERAC,<SALL
   430						DATAO	PAG,[LG.LAB+<USRACB>B8+<USRACB>B11]
   431					>
   432
KL-10 PARAMTER DEFINTIONS FOR PDP-10 MONITOR	MACRO %53B(1156)-1 15:35 15-Jan-88 Page 13
KLSYM	MAC	 4-Aug-76 23:33		HARDWARE PAGING PARAMETERS

   433					;LOCATIONS IN EPT FIXED BY KL-10 HARDWARE
   434
   435								; (0-37 RESERVED FOR CHANNEL LOGOUT)
   436					XP EPTLUU,40		^;LOCAL UUO STORED HERE
   437					XP EPTLUI,41		^;INSTRUCTION EXECUTED FOR LOCAL UUOS
   438
   439								; (42-57) STANDARD PI INTERRUPT INSTRUCTIONS
   440								; (40+2*N)
   441								; (60-63) RESERVED FOR CHANNELS
   442								; (64-137) RESERVED FOR HARDWARE
   443
   444					;DTE HARDWARE LOCATIONS. 8 WORDS FOR EACH LOCATION,
   445					; MAXIMUM OF 4 DTES.
   446
   447					XP EPTDT0,140		^;DTE20 0
   448					XP EPTDT1,150		^;DTE20 1
   449					XP EPTDT2,160		^;DTE20 2
   450					XP EPTDT3,170		^;DTE20 3
   451						XP DTEEBP,0	^;TO ELEVEN BYTE POINTER
   452						XP DTETBP,1	^;TO 10 BYTE POINTER
   453						XP DTEDII,2	^;INTERRUPT INSTRUCTION LOCATION
   454						XP DTEUNU,3	^;UNUSED
   455						XP DTEEPW,4	^;EXAMINE PROTECT WORD (NON-PRIV DTES)
   456						XP DTEERW,5	^;EXAMINE RELOCATION WORD
   457						XP DTEDPW,6	^;DEPOSIT PROTECTION WORD
   458						XP DTEDRW,7	^;DEPOSIT RELOCATION WORD
   459
   460					;PAGE MAP POINTERS
   461
   462					XP EPTPG0,200		^;FIRST WORD OF PAGE MAP SLOTS (PG 400) IN EPT
   463
   464					XP EPTPGT,420		^;(SOFTWARE LOCATION IN KL)
   465					XP EPTOVT,421		^;OVERFLOW
   466					XP EPTPOV,422		^;PDL OVERFLOW
   467					XP EPTTR3,423		^;TRAP 3
   468								; (424-443 RESERVED FOR USE BY HARDWARE)
   469					;THE FOLLOWING LOCATIONS ARE ESTABLISHED BY SOFWARE CONVENTION
   470					; BETWEEN THE KL-10 AND ITS CONSOLE FRONT END.
   471					; THEY ARE USED FOR THE "SECONDARY PROTOCOL".
   472
   473					XP SPCDBG,444		^;BEGINNING OF SPC DATA AREA
   474					XP SPCFLG,444		^;SET NON-ZERO WHEN SECONDARY PROTOCOL COMMAND
   475								; IS COMPLETE. MUST
   476								; BE CLEARED BEFORE SECONDARY PROTOCOL COMAND IS ISSUED.
   477
   478					XP SPCF11,450		^;FROM-11 DATA.
   479					XP SPCCMW,451		^;SPC COMMAND WORD
   480						XP .DTESP,11B27		^;ENTER SECONDARY PROTOCOL
   481						XP .DTCTO,10B27		^;OUTPUT CHARACTER ON CTY
   482						XP .DTRSW,3B27		^;READ SWITCHES INTO SPCSWR AND SPCF11.
   483					XP SPCMTD,455		^;CTY OUTPUT DONE FLAG. (SPCFLG SET IMMEDIATELY,
   484								; THIS ONE SETS WHEN CHAR IS ACTUALLY OUT.)
   485					XP SPCMTI,456		^;CTY INPUT PRESENT. IF NON-ZERO, CTY
   486								; CHAR IS PRESENT IN SPCF11.
   487						XP SPCSWR,457	^;SWITCHES APPEAR HERE.
KL-10 PARAMTER DEFINTIONS FOR PDP-10 MONITOR	MACRO %53B(1156)-1 15:35 15-Jan-88 Page 13-1
KLSYM	MAC	 4-Aug-76 23:33		HARDWARE PAGING PARAMETERS

   488					XP SPCDND,457		^;END OF SPC DATA AREA
   489						  XP SS4,4	^;"SENSE SWITCH 4" (USED FOR AUTO RELOAD SELECTION.)
   490
   491								; (460-507 RESERVED FOR USE BY HARDWARE)
   492
   493					;METER LOCATIONS
   494
   495					XP EPTHTB,510		^;HI ORDER TIME BASE WORD
   496					XP EPTLTB,511		^;LO ORDER TIME BASE WORD (THESE FOR UCODE USE ONLY.)
   497
   498					XP EPTHPA,512		^;HI ORDER PERFORMANCE ANALYSIS COUNT
   499					XP EPTLPA,513		^;LO ORDER
   500					XP EPTITI,514		^;INTERVAL TIMER INTERRUPT INSTRUCTION
   501
   502								; (515-577 RESERVED FOR USE BY HARDWARE)
   503
   504					XP EPTMP0,600		^;FIRST LOCATION OF MAP SLOTS FOR EXEC
   505								; PAGES 0-337. (USED TO BE UNMAPPED,
   506								; BUT NEED SLOTS TO CONTROL CACHE.)
   507					XP EPTFSL,760		^;START OF CONTIGUOUS BLOCK AVAILABLE TO SOFTWARE.
   508
KL-10 PARAMTER DEFINTIONS FOR PDP-10 MONITOR	MACRO %53B(1156)-1 15:35 15-Jan-88 Page 14
KLSYM	MAC	 4-Aug-76 23:33		SYSTEM MACROS - CLEAR PAGE TABLE

   509					SUBTTL SYSTEM MACROS - CLEAR PAGE TABLE
   510
   511					;MACROS TO CLEAR EITHER ALL OF PAGE TABLE, OR ONE ENTRY.
   512
   513					DEFINE CLRPTA,<SALL
   514						IF2,<IFNDEF EPT,<EXTERN EPT>
   515						     IFNDEF EPTEBR,<EXTERN EPTEBR>>
   516						CONO	PAG,@EPT+EPTEBR>
   517
   518
   519					;CLEAR ONE ENTRY IN PAGE TABLE. ARG IS ADDRESS OF
   520					; LOCATION TO CLEAR (CAN BE INDEXED, INDIRECT).
   521
   522					DEFINE CLRPTO(ARG)<SALL
   523						IFB <ARG>,<PRINTX MISSING ARGUMENT TO CLRPTO
   524								QQQQQQ>
   525						CLRPT	ARG>
   526
   527					;MACRO TO CLEAR PAGE TABLE FOR PAGE WHOSE NUMBER IS IN RH(W).
   528					; PAGE NUMBER IS IN CORE1 STYLE FORMAT (1000 IS EXEC
   529					; 340)
   530
   531					DEFINE CLRPTW<SALL
   532						IF2,<IFNDEF CLPTW,<EXTERN CLPTW>>
   533						PUSHJ	P,CLPTW>
   534
KL-10 PARAMTER DEFINTIONS FOR PDP-10 MONITOR	MACRO %53B(1156)-1 15:35 15-Jan-88 Page 15
KLSYM	MAC	 4-Aug-76 23:33		SYSTEM MACROS - CHARGING

   535					SUBTTL SYSTEM MACROS - CHARGING
   536
   537					;MACROS TO MANIPULATE CHARGING CLOCK.
   538
   539					DEFINE CHARGE<SALL
   540						IF2,<IFNDEF ITMCHN,<EXTERNAL ITMCHN>>
   541						CONO	MTR,MO.LAC+MO.AEN+MO.AO+MO.TON+ITMCHN>
   542
   543					DEFINE NOCHARGE<SALL
   544						IF2,<IFNDEF ITMCHN,<EXTERNAL ITMCHN>>
   545						CONO	MTR,MO.LAC+ITMCHN>
   546
   547					DEFINE CHGSTS(LOC)<SALL
   548						CONI	MTR,LOC>
   549
   550						XP	CHGON,MO.AO		^;BIT TO LOOK AT AFTER CHGSTS.
   551
KL-10 PARAMTER DEFINTIONS FOR PDP-10 MONITOR	MACRO %53B(1156)-1 15:35 15-Jan-88 Page 16
KLSYM	MAC	 4-Aug-76 23:33		SYSTEM MACROS - CHARGING

   552					;MACROS TO MOVE DATA BETWEEN THE USER AND THE OPERATING SYSTEM.
   553
   554					DEFINE UMOVE(A,B)
   555						<XCTFU	<MOVE A,B>>
   556
   557					DEFINE UMOVEM (A,B)
   558						<XCTTU	<MOVEM A,B>>
   559
KL-10 PARAMTER DEFINTIONS FOR PDP-10 MONITOR	MACRO %53B(1156)-1 15:35 15-Jan-88 Page 17
KLSYM	MAC	 4-Aug-76 23:33		SYSTEM MACROS - EXECUTIVE EXECUTE.

   560					SUBTTL SYSTEM MACROS - EXECUTIVE EXECUTE.
   561					;SAME IN KS AND KL.
   562
   563					;BITS IN PXCT AC FIELD
   564			000010			PX.EAC==10		;EFFECTIVE ADDRESS OF OBJECT INSTRUCTION
   565			000004			PX.MEM==4		;MEMORY OPERAND (BOTH FETCH AND STORE)
   566			000002			PX.BYT==2		;EFFECTIVE ADDRESS OF BYTE POINTER
   567			000001			PX.SRC==1		;STACK WORD IN PUSH/POP; SOURCE IN BLT
   568
   569						DEFINE	XCTBU(INST)<SALL
   570						GINST==<PXCT PX.MEM,[INST]>
   571
   572
   573						PXGEN(<INST>,<DPB,IDPB,LDB,ILDB>,<PX.SRC>)
   574								;;INCLUDE BYTE INSTRUCTIONS BECAUSE XCTBU IS USED ON KI10 FOR READ-M
   575					ODIFY-WRITE.
   576						PXGEN(<INST>,<BLT,PUSH,POP>,<PX.SRC!PX.MEM>)
   577						GINST
   578						PURGE GINST
   579					>;END XCTBU MACRO DEFINITION
   580
   581						DEFINE XCTFU(INST)<SALL
   582						GINST==<PXCT PX.MEM,[INST]>
   583							;;INCLUDE DPB AND IDPB BECAUSE XCTFU USED FOR RMW ON KI
   584						PXGEN(<INST>,<LDB,ILDB,DPB,IDPB,POP,BLT>,<PX.SRC>)
   585						GINST
   586						PURGE GINST
   587					>;END XCTFU MACRO DEFINITION
   588
   589						DEFINE XCTTU(INST)<SALL
   590						GINST==<PXCT PX.MEM,[INST]>
   591						PXGEN(<INST>,<LDB,ILDB,IDPB,DPB>,<QQQQQQ>)	;;CAN'T LOAD USERS AC THIS WAY.
   592									;;MAKE IDPB AND DPB ILLEGAL BECAUSE CAN'T DO IT ON KI, MUST
   593					USE FU OR BU INSTEAD.
   594						PXGEN(<INST>,<PUSH>,<PX.SRC>)
   595						PXGEN(<INST>,<POP,BLT>,<PX.MEM>)
   596						GINST
   597						PURGE GINST
   598					>;END XCTTU MACRO DEFINITION
   599
   600
   601						DEFINE PXGEN(INST,CODES,BITS)<
   602						ZZ==0
   603						IRPC INST,<
   604						ZZ1==0
   605						IFIDN < > <INST>,<ZZ1==1>
   606						IFIDN <	> <INST>,<ZZ1==1>
   607						IFN ZZ1,<STOPI>
   608						IFE ZZ1,<
   609						ZZ==ZZ_6
   610						ZZ==ZZ+''INST''
   611					>;END IFE ZZ1
   612					>;END IRPC INST
   613						IRP CODES,<
   614						IFE <ZZ-''CODES''>,<GINST==<PXCT BITS,[INST]>>
KL-10 PARAMTER DEFINTIONS FOR PDP-10 MONITOR	MACRO %53B(1156)-1 15:35 15-Jan-88 Page 17-1
KLSYM	MAC	 4-Aug-76 23:33		SYSTEM MACROS - EXECUTIVE EXECUTE.

   615					>;END IRP CODES
   616
   617						PURGE ZZ1
   618					>;END PXGEN MACRO DEFINITION
   619
KL-10 PARAMTER DEFINTIONS FOR PDP-10 MONITOR	MACRO %53B(1156)-1 15:35 15-Jan-88 Page 18
KLSYM	MAC	 4-Aug-76 23:33		CACHE SWEEP CONTROL MACROS

   620					SUBTTL CACHE SWEEP CONTROL MACROS
   621
   622					;MACRO TO START CACHE UNLOAD
   623
   624					DEFINE CSHUNL<
   625						PUSHJ	P,CSUNL##>
   626
   627					;MACRO TO START CACHE VALIDATE
   628
   629					DEFINE CSHVAL <PUSHJ P,CSVAL##>
   630
   631					;MACRO TO MAKE SURE EDGES OF USER'S BUFFER DID NOT GET INTO
   632					; CACHE DURING INPUT TRANSFER BY USER OR OTHER ENTITY
   633					; REFERENCING ADJACENT WORD TO BUFFER. RESTRICTION - BUFFER
   634					; CANNOT BE IN MONITOR PAGES 0-337, OR ELSE ONE OF THE
   635					; FOUR REFERENCES MAY BE TO THE BUFFER ITSELF.
   636					; T1 HAS ADDRESS OF WORD TO THROW OUT OF CACHE.
   637
   638					DEFINE CSHREF<SALL
   639					IF2,<IFNDEF CSRTAB,<EXTERNAL CSRTAB>>
   640						ANDI	T1,777		;;GET REL LOCATION IN PAGE
   641						SKIP	@CSRTAB+0
   642						SKIP	@CSRTAB+1
   643						SKIP	@CSRTAB+2
   644						SKIP	@CSRTAB+3
   645					>;END CSHREF MACRO DEFINITION.
   646
KL-10 PARAMTER DEFINTIONS FOR PDP-10 MONITOR	MACRO %53B(1156)-1 15:35 15-Jan-88 Page 19
KLSYM	MAC	 4-Aug-76 23:33		CACHE SWEEP CONTROL MACROS

   647						ASUPPRESS		;ONLY LIST REFERENCED SYMBOLS
   648
   649					IFDEF LISTSN,<IFN LISTSN,<PAGE>>	;No $END for KISYM,KLSYM,KSSYM,F3SYM
KL-10 PARAMTER DEFINTIONS FOR PDP-10 MONITOR	MACRO %53B(1156)-1 15:35 15-Jan-88 Page 19-1
KLSYM	MAC	 4-Aug-76 23:33		CACHE SWEEP CONTROL MACROS

   650
   651						purge listsn
   652						end

NO ERRORS DETECTED

PROGRAM BREAK IS 000000
CPU TIME USED 06:15.499

18P CORE USED

KL-10 PARAMTER DEFINTIONS FOR PDP-10 MONITOR	MACRO %53B(1156)-1 15:35 15-Jan-88 Page 1
S	MAC	 4-Aug-76 23:31		S.MAC - with system parameter file for P035/D, January 1988


Symbol cross reference

APFMSK	   125#	   126
APR	    31#
APRIOB	   117#
APRIOP	   118#
APRMSK	   126#
APRNXM	   119#	   129
APRPAR	   120#
APRPOW	   121#
APRSER	    67#
CCA	    49#	    50	    51	    52	    53	    54	    55
CHGON	   551#
CL11PT	   303#
CLRNXM	   129#
CLTO10	   306#
CLTO11	   305#
CPUKL	    16
CPUTYP	    16#
CR11B	   301#
DEAD11	   313#
DTE	   323#
DTEDII	   454#
DTEDPW	   458#
DTEDRW	   459#
DTEEBP	   452#
DTEEPW	   456#
DTEERW	   457#
DTETBP	   453#
DTEUNU	   455#
EPTDT0	   448#
EPTDT1	   449#
EPTDT2	   450#
EPTDT3	   451#
EPTFSL	   508#
EPTHPA	   499#
EPTHTB	   496#
EPTITI	   501#
EPTLPA	   500#
EPTLTB	   497#
EPTLUI	   438#
EPTLUU	   437#
EPTMP0	   505#
EPTOVT	   466#
EPTPG0	   463#
EPTPGT	   465#
EPTPOV	   467#
EPTTR3	   468#
EX0ACB	   415#
EX1ACB	   416#
LG.CAC	   283#
LG.CSL	   273#
KL-10 PARAMTER DEFINTIONS FOR PDP-10 MONITOR	MACRO %53B(1156)-1 15:35 15-Jan-88 Page 1
S	MAC	 4-Aug-76 23:31		S.MAC - with system parameter file for P035/D, January 1988


Symbol cross reference

LG.CSW	   274#
LG.CSX	   285#
LG.EPT	   277#
LG.IAM	   287#
LG.KLP	   275#
LG.LAB	   280#
LG.LPC	   281#
LG.LUB	   282#
LG.PAC	   284#
LG.PCS	   286#
LG.TEN	   276#
LG.UPT	   288#
LI.ACO	   162#	   173	   173#
LI.CO1	   155#	   162
LI.CO2	   156#	   162
LI.CO3	   157#	   162
LI.CO4	   158#	   162
LI.CO5	   159#	   162
LI.CO6	   160#	   162
LI.CO7	   161#	   162
LI.COF	   170#
LI.CON	   169#
LI.CPP	   166#
LI.CPS	   167#
LI.EPA	   142#
LI.EPC	   144#
LI.EPD	   143#
LI.IP1	   145#	   152
LI.IP2	   146#	   152
LI.IP3	   147#	   152
LI.IP4	   148#	   152
LI.IP5	   149#	   152
LI.IP6	   150#	   152
LI.IP7	   151#	   152
LI.IPA	   152#
LI.PIA	   154#
LI.PIF	   171#
LI.PIN	   172#
LI.PR1	   132#
LI.PR2	   133#
LI.PR3	   134#
LI.PR4	   135#
LI.PR5	   136#
LI.PR6	   137#
LI.PR7	   138#
LI.REQ	   168#
LISTSN	     3	     4	     4#	     9	   649	   651
LP.ADP	    89#	   106#	   125
LP.CDE	    76#
LP.CDP	    88#	   105#	   125
KL-10 PARAMTER DEFINTIONS FOR PDP-10 MONITOR	MACRO %53B(1156)-1 15:35 15-Jan-88 Page 1
S	MAC	 4-Aug-76 23:31		S.MAC - with system parameter file for P035/D, January 1988


Symbol cross reference

LP.CSB	    83#
LP.CSD	    91#	   108#	   126
LP.CSF	    99#	   129
LP.DSF	    98#
LP.ESF	    97#
LP.IFE	    74#
LP.INT	    92#
LP.IOF	    86#	   103#	   118	   119	   125
LP.IOR	    96#	   117
LP.NEE	    73#
LP.NXM	    85#	   102#	   119	   125
LP.PAR	    87#	   104#	   120	   126	   129
LP.PDE	    77#
LP.PEE	    75#
LP.PFE	    78#
LP.PIA	    93#	   109#
LP.PWF	    90#	   107#	   121	   125
LP.SBE	    84#	   101#	   119	   126
LP.SDE	    79#
LP.SEE	    72#
LP.SSF	   100#
MI.AEN	   215#
MI.AIP	   214#
MI.AO	   216#
MI.IPI	   218#
MI.TON	   217#
MO.AEN	   205#
MO.AIP	   204#
MO.AO	   206#	   551
MO.CTB	   209#
MO.IPI	   210#
MO.LAC	   203#
MO.TOF	   207#
MO.TON	   208#
MTR	    60#	    61	    62
NULACB	   417#
NUMACB	   422#
PAG	    43#
PC.ADR	   369#
PC.DCK	   374#
PC.FOV	   372#
PC.FPD	   365#
PC.FXU	   373#
PC.OV	   371#
PC.PUB	   368#
PC.TRP	   370#
PC.UIO	   367#
PC.USR	   365#
PE.CCF	   237#
PE.CCI	   240#
KL-10 PARAMTER DEFINTIONS FOR PDP-10 MONITOR	MACRO %53B(1156)-1 15:35 15-Jan-88 Page 1
S	MAC	 4-Aug-76 23:31		S.MAC - with system parameter file for P035/D, January 1988


Symbol cross reference

PE.CCR	   236#
PE.CLR	   257#
PE.CP0	   222#
PE.CP1	   223#
PE.CP2	   224#
PE.CP3	   225#
PE.CP4	   226#
PE.CP5	   227#
PE.CP6	   228#
PE.CP7	   229#
PE.CPI	   230#
PE.EVM	   256#
PE.EWB	   238#
PE.NPI	   252#	   261
PE.PCI	   255#
PE.PCU	   254#
PE.PIN	   261#
PE.PP0	   244#
PE.PP1	   245#
PE.PP2	   246#
PE.PP3	   247#
PE.PP4	   248#
PE.PP5	   249#
PE.PP6	   250#
PE.PP7	   251#	   261
PE.PRI	   234#
PE.PRL	   233#
PE.SWB	   239#
PE.UCI	   232#
PF.ABK	   348#
PF.ARP	   352#
PF.AXP	   353#
PF.ILI	   349#
PF.ILS	   351#
PF.PRV	   346#
PF.PTP	   350#
PF.RFE	   347#
PFW.A	   335#
PFW.C	   341#
PFW.H	   331#
PFW.P	   340#
PFW.R	   342#
PFW.S	   337#
PFW.T	   338#
PFW.U	   330#
PFW.W	   336#
PGE.A	   356#
PGE.C	   361#
PGE.P	   357#
PGE.S	   359#
KL-10 PARAMTER DEFINTIONS FOR PDP-10 MONITOR	MACRO %53B(1156)-1 15:35 15-Jan-88 Page 1
S	MAC	 4-Aug-76 23:31		S.MAC - with system parameter file for P035/D, January 1988


Symbol cross reference

PGE.W	   358#
PI	    38#
PI0ENB	   308#	   320#
PIA	   309#	   321#
PILDEN	   307#
PX.BYT	   566#
PX.EAC	   564#
PX.MEM	   565#
PX.SRC	   567#
RM	   312#
RS1ACB	   420#
RS2ACB	   421#
SA0ACB	   418#
SA1ACB	   419#
SB.CLR	   295#
SPCCMW	   480#
SPCDBG	   474#
SPCDND	   489#
SPCF11	   479#
SPCFLG	   475#
SPCMTD	   484#
SPCMTI	   486#
SPCSWR	   488#
SR11B	   302#
SS4	   490#
TB.LTP	   270#
TI.INF	   192#
TI.INP	   190#
TI.INS	   191#
TI.ITD	   194#
TI.PRF	   198#
TI.PRP	   196#
TI.PRS	   197#
TI.TIO	   193#
TI.TOV	   195#
TIM	    56#	    57	    58	    59
TO.CIT	   180#
TO.CTD	   182#
TO.PRF	   185#
TO.PRP	   183#
TO.PRS	   184#
TO.SIT	   181#
TO10DB	   315#
TO10DN	   318#
TO10ER	   319#
TO11DB	   300#	   314#
TO11DN	   317#
TO11ER	   304#	   316#
UPTCNT	   393#
UPTCTR	   394#
KL-10 PARAMTER DEFINTIONS FOR PDP-10 MONITOR	MACRO %53B(1156)-1 15:35 15-Jan-88 Page 1
S	MAC	 4-Aug-76 23:31		S.MAC - with system parameter file for P035/D, January 1988


Symbol cross reference

UPTEP0	   379#
UPTFSL	   408#
UPTGP0	   378#
UPTHEC	   402#
UPTHMC	   404#
UPTKNT	   389#
UPTKTR	   390#
UPTLEC	   403#
UPTLMC	   405#
UPTMUP	   386#
UPTMUU	   385#
UPTNPP	   400#
UPTOPP	   399#
UPTOVT	   382#
UPTPCW	   387#
UPTPFW	   398#
UPTPGT	   381#
UPTPNT	   395#
UPTPOV	   383#
UPTPTR	   396#
UPTSNT	   391#
UPTSTR	   392#
UPTTR3	   384#
USRACB	   414#
.DTCTO	   482#
.DTESP	   481#
.DTRSW	   483#
.EBCPT	   266#
.MBCPT	   267#
.SBFNC	   294#
.SBNMC	   292#
.TBCPT	   268#	   270
KL-10 PARAMTER DEFINTIONS FOR PDP-10 MONITOR	MACRO %53B(1156)-1 15:35 15-Jan-88 Page 1
S	MAC	 4-Aug-76 23:31		S.MAC - with system parameter file for P035/D, January 1988


Macro/Opdef cross reference

ADJBP	    28#
ADJSP	    23#
APRID	    32#
CHARGE	   539#
CHGSTS	   547#
CLPARF	   127#
CLRPT	    44#
CLRPTA	   513#
CLRPTO	   522#
CLRPTW	   531#
CSHREF	   638#
CSHUNL	   624#
CSHVAL	   629#
DADD	    24#
DDIV	    27#
DMUL	    26#
DSUB	    25#
EXECAC	   426#
IFKMC	    17#
IFNKMC	    18#
NOCHAR	   543#
PRINTF	    20#
PXCT	    29#
PXGEN	   601#
RDADB	    35#
RDAPR	    37#
RDEACT	    62#
RDEBR	    46#
RDERA	    39#
RDMACT	    61#
RDPERF	    57#
RDPI	    42#
RDTIME	    58#
RDUBR	    48#
SBDIAG	    40#
SWPIA	    50#
SWPIO	    53#
SWPUA	    52#
SWPUO	    55#
SWPVA	    51#
SWPVO	    54#
UMOVE	   555#
UMOVEM	   558#
USERAC	   429#
WRADB	    34#
WRAPR	    36#
WREBR	    45#
WRFIL	    33#
WRPAE	    59#
WRPI	    41#
KL-10 PARAMTER DEFINTIONS FOR PDP-10 MONITOR	MACRO %53B(1156)-1 15:35 15-Jan-88 Page 1
S	MAC	 4-Aug-76 23:31		S.MAC - with system parameter file for P035/D, January 1988


Macro/Opdef cross reference

WRUBR	    47#
XCTBU	   569#
XCTFU	   581#
XCTTU	   589#
XP	   116	   117	   118	   119	   120	   124	   125	   128	   329	   330	   334	   335	   336	   337
	   339	   340	   341	   345	   346	   347	   348	   349	   350	   351	   352	   356	   357	   358
	   359	   360	   364	   365	   366	   367	   368	   369	   370	   371	   372	   373	   377	   378
	   380	   381	   382	   383	   384	   385	   386	   388	   389	   390	   391	   392	   393	   394
	   395	   397	   398	   399	   401	   402	   403	   404	   407	   413	   414	   415	   416	   417
	   418	   419	   420	   421	   436	   437	   447	   448	   449	   450	   451	   452	   453	   454
	   455	   456	   457	   458	   462	   464	   465	   466	   467	   473	   474	   478	   479	   480
	   481	   482	   483	   485	   487	   488	   489	   495	   496	   498	   499	   500	   504	   507
	   550q@j“