PTRSER - PAPER TAPE READER SERVICE ROUTINE FOR PDP-10(KI) - V011	MACRO 12.5-46.0 14:49 13-JAN-88 PAGE 1
S.MAC	13-JAN-88 11:55		S.MAC - with system parameter file for P035/D, January 1988

     1				SUBTTL	S.MAC - with system parameter file for P035/D, January 1988
     2
     3				IF2,<IFNDEF LISTSN,<TAPE>>	;Skip to PASS2 in all but COMMON.LST
     4				;THIS MODULE ASSEMBLED WITH KI-10 PARAMETER FILE - KISYM.MAC
     5
     6					IF2,<IFNDEF LISTSN,<		;LIST KISYM.MAC IN COMMON ONLY
     7								TAPE>>
     8				TITLE PTRSER - PAPER TAPE READER SERVICE ROUTINE FOR PDP-10(KI) - V011
     9				SUBTTL	/GBH/TNM/RCC  TS  19 AUG 70
    10
    11					STOPCD(,ENTRY,PTRSER)^
    12					ENTRY	PTRSER		;For library searches
    13	000000'	260040	000000*	PTRSER::PUSHJ	P,DIE		;**** Default stopcode for "PTRSER" ****
    14	000001'	606462	634562		SIXBIT	/PTRSER/  	;Title of module
    15	000002'	000000	000000		S$NONAME,,0		;?NONAME stopcode "PTRSER+nnn(nnnnnn)"
    16			000000'	S$NAME==PTRSER			;For STOPCDs with no arguments
    17					SALL>
    18				^
    19
    20				IFNCPU(<KI,KL>),<PRINTX PTRSER works on the KI and KL only>
    21
    22				EXTERNAL  ERRICO,CPOPJ,MBBXFR
    23				EXTERNAL IOSET, SETBYT, ADVBFF
    24				EXTERNAL SETIOD, PTRSAV, PTRCHN,PIOMOD
    25				EXTERNAL SETACT,STOIOS,PTRMSK,HNGSTP
    26				EXTERNAL CTMBS,CKS12,WSYNC
    27				INTERNAL PTRINT
    28
    29				;PTR DEVICE DATA BLOCK LINKAGE
    30
    31				;PARAMETER ASSIGNMENTS
    32				;   PTR CONTROL REGISTER
    33			000010		PTRDON==10		;DONE FLAG
    34			000020		PTRBSY==20		;BUSY FLAG
    35			000040		PTRBIN==40		;BINARY READ MODE
    36			000400		POW==400			;POWER.  ON=1
    37
    38				;   SPECIAL IO STATUS WORD ASSIGNMENTS
    39			400000		IODISC==400000
    40			100000		PTRPOW==100000
    41				;   SPECIAL ASCII CHARACTERS
    42			000177		RUBOUT==177
    43
    44				;PTR DEVICE DATA BLOCK
    45					INTERN	PTRDDB
    46
    47	000000			PTRDDB:	PHASE	0		;TO DEFINE DDB
    48	000003'	606462	000000	DEVNAM:	SIXBIT	/PTR/		;NAME
    49	000004'	002400	000041	DEVCHR:	XWD	5*HUNGST,41	;CHARACERISTICS
    50	000005'	000000	000000	DEVIOS:	0			;I/O STATUS
    51	000006'	000000	000173'	DEVSER:	EXP	PTRDSP		;SERVICE ROUTINE DISPATCH TABLE
    52	000007'	000202	014403	DEVMOD:	XWD	DVPTR+DVIN,14403;
    53	000010'	000000	000000	DEVLOG:	0
PTRSER - PAPER TAPE READER SERVICE ROUTINE FOR PDP-10(KI) - V011	MACRO 12.5-46.0 14:49 13-JAN-88 PAGE 1
PTRSER.MAC	 2-JAN-86 16:52		/GBH/TNM/RCC  TS  19 AUG 70

    54	000011'	000000	000000	DEVBUF:	0
    55	000012'	000000	000000	DEVIAD:	0
    56	000013'	000000	000000	DEVPTR:	0
    57	000014'	000000	000027'	DEVCLS:	XWD	00000,PTRBUF	;CLASS AND MONITOR BUFFER LOCATION
    58	000015'	000000	000000	DEVSTS:	0
    59	000016'	000062	000000	DEVPWC:	XWD	PTRBL/2,0	;WAKE UP BUFFER COUNT AND PARTIAL WORD COUNT
    60	000017'	000000	000000	DEVWUC:	0			;ACTIVE WAKE UP COUNT
    61	000020'	000000	000000	DEVCTR:	0
    62	000021'	000000	000000	DEVINT:	0
    63	000022'				DEPHASE
    64			000005'	  PTRIOS=PTRDDB+DEVIOS
    65			000012'	  PTRADR=PTRDDB+DEVIAD
    66			000013'	  PTRPTR=PTRDDB+DEVPTR
    67			000015'	  PTRSTS=PTRDDB+DEVSTS
    68			000020'	  PTRCTR=PTRDDB+DEVCTR
    69	000022'	000000	000000	PTRSV1:	0
    70	000023'	000000	000000	PTRCON:	0
    71	000024'	000000	000000	PTRTMB:	0			;BYTE POINTER TO MONITOR BUFFER
    72			000022	SIZPTR==.-PTRDDB
    73				;
    74				;  MONITOR BUFFER DEFINITON
    75				;
    76			000144	  PTRBL=144			;LENGTH
    77	000025'	000027'	000027'		XWD	PTRBUF,PTRBUF	;IN AND OUT
    78	000026'	000000	000173'		EXP	PTRBUF+PTRBL	;LAST
    79	000027'			PTRBUF:	BLOCK	PTRBL
    80				;
PTRSER - PAPER TAPE READER SERVICE ROUTINE FOR PDP-10(KI) - V011	MACRO 12.5-46.0 14:49 13-JAN-88 PAGE 2
PTRSER.MAC	 2-JAN-86 16:52		/GBH/TNM/RCC  TS  19 AUG 70

    81				;PTR SERVICE DISPATCH TABLE
    82
    83
    84	000000			PTRDSP:	PHASE 0
    85	000173'	000000	000012	DDXZ:	DSPSIZ
    86	000174'	263040	000000	DDINT:	POPJ P,
    87	000175'	004400	004400	DBYT:	4400,,4400
    88	000176'	201300	000022	DVSIZ:	MOVEI T1,SIZPTR
    89	000177'	254000	000271'	DINI:	JRST PTRINI
    90	000200'	254000	000271'	DHNG:	JRST PTRREL
    91	000201'	254000	000271'	DRL:	JRST PTRREL
    92	000202'	254000	000000*	DCL:	JRST ERRICO
    93	000203'	254000	000202*	DOU:	JRST ERRICO
    94	000204'	254000	000206'	DIN:	JRST PTRIN
    95	000205'	254000	000000*	DXFR:	JRST MBBXFR
    96			000012		DSPSIZ==.-1
    97	000206'				DEPHASE
    98
    99				;	PAPER TAPE DEVICE DEPENDENT INPUT
   100				;
   101	000206'	627000	000002	PTRIN:	TLZN	S,IOBEG		;VIRGIN DEVICE?
   102	000207'	254000	000223'		JRST	PTRIN1		;NO
   103	000210'	710700	000400	PTRIN3:	CONSZ	PTR,POW		;READER LOADED?
   104	000211'	254000	000214'		JRST	PTRIN2		;YES, GO START IT
   105	000212'	260040	000000*		PUSHJ	P,HNGSTP	;NO. TELL OPERATOR
   106	000213'	254000	000210'		JRST	PTRIN3		;LOOP UNTIL FIXED
   107	000214'	621000	000042	PTRIN2:	TLZ	S,IOEND+IOBEG	;CLEAR IOEND AND IOBEG BITS
   108	000215'	260040	000000*		PUSHJ	P,SETBYT		;SET UP DEV. TO MB. POINTER
   109	000216'	540304	000011		HRR	T1,DEVCLS(F)	;ADDRESS OF START OF BUFFER
   110	000217'	275300	000001		SUBI	T1,1		; MINUS 1
   111	000220'	202300	000024'		MOVEM	T1,PTRTMB	;STORE POINTER IN DDB
   112	000221'	133000	000024'		IBP	PTRTMB		;SET TO FIRST ACTUAL BYTE
   113	000222'	661000	000004		TLO	S,IOFST		;SET IOFIRST
   114	000223'	260040	000000*	PTRIN1:	PUSHJ	P,SETACT	;SET IOACT,HUNG COUNT, AND CLEAR IOWAIT
   115	000224'	201340	000020		MOVEI	T2,PTRBSY	;SET BUSY
   116	000225'	201307	000000*		MOVEI	T1,PTRCHN(T2)	; AND CHANNEL NUMBER
   117	000226'	135340	000000*		LDB	T2,PIOMOD	;GET MODE
   118	000227'	302340	000013		CAIE	T2,IB		;IMAGE BINARY?
   119	000230'	306340	000014		CAIN	T2,B		;NO.  BINARY?
   120	000231'	435300	000040		IORI	T1,PTRBIN	;YES. SET BINARY BIT FOR READER
   121	000232'	505300	000010		HRLI	T1,PTRDON	;SET FLAG FOR PI CHECK
   122	000233'	700600	000400		WRPI	LI.PIF	;TURN OF PI SYSTEM
   123	000234'	202004	000002		MOVEM	S,DEVIOS(F)	;STORE CURRENT STATUS
   124	000235'	710606	000000		CONO	PTR,(T1)	;START READER
   125	000236'	546300	000023'		HLRM	T1,PTRCON	;STORE STATUS
   126	000237'	700600	000200		WRPI	LI.PIN	;TURN PI SYSTEM ON AGAIN
   127
   128	000240'	263040	000000		POPJ	P,		;RETURN
   129
PTRSER - PAPER TAPE READER SERVICE ROUTINE FOR PDP-10(KI) - V011	MACRO 12.5-46.0 14:49 13-JAN-88 PAGE 3
PTRSER.MAC	 2-JAN-86 16:52		/GBH/TNM/RCC  TS  19 AUG 70

   130				;
   131				;	PAPERTAPE INTERRUPT HANDLER
   132				;
   133	000241'	710760	000023'	PTRINT:	CONSO	PTR,@PTRCON	;THIS DEVICE?
   134	000242'	254000	000241'		JRST	PTRINT		;NO. TRY NEXT ONE
   135	000243'	710640	000015'		CONI	PTR,PTRSTS	;STORE STATUS
   136	000244'	264000	000000*		JSR	PTRSAV		;SAVE REGISTERS
   137	000245'	201200	000003'		MOVEI	F,PTRDDB	;SET UP F
   138	000246'	260040	000000*		PUSHJ	P,IOSET		;SET UP OTHER REGISTERS
   139	000247'	710740	000400		CONSO	PTR,POW		;TAPE IN READER?
   140	000250'	254000	000263'		JRST	PTRIT1		;NO
   141	000251'	710440	000005		DATAI	PTR,U		;YES. GET DATA
   142	000252'	260040	000274'		PUSHJ	P,PTRSTM	;STORE IT IN MONITOR BUFFER
   143	000253'	260040	000000*		PUSHJ	P,CTMBS		;CONPUTE SPACE IN MOITOR BUFFER
   144	000254'	322300	000265'		JUMPE	T1,PTRIT2	;IF BIFFER FULL
   145	000255'	554344	000013		HLRZ	T2,DEVPWC(F)	;NOT FULL. GET EARLY WAKEUP COUNT
   146	000256'	313300	000007		CAMLE	T1,T2		;SKIP IF FULL ENOUGH FOR WAKE UP
   147	000257'	254000	000000*		JRST	STOIOS		;NOT ENOUGH, SO EXIT
   148	000260'	623000	000001	PTRIT5:	TLZE	S,IOW		;JOB IN IOWAIT?
   149	000261'	260040	000000*		PUSHJ	P,SETIOD	;YES. WAKE HIM UP
   150	000262'	254000	000257*		JRST	STOIOS		;AND RETURN
   151				;
   152				;  	END OF TAPE
   153				;
   154	000263'	260040	000321'	PTRIT1:	PUSHJ	P,PTRSTE	;FINISH LAST WORD IF ANY
   155	000264'	661000	000040		TLO	S,IOEND		;SET IOEND
   156	000265'	630000	000333'	PTRIT2:	TDZ	S,[XWD PTRPOW,IOACT]	;CLEAR PTRPOW AND IOACT
   157	000266'	710600	000000		CONO	PTR,0		;STOP READER
   158	000267'	513000	000023'		HLLZS	PTRCON		;STOP INTERRUPT CHAIN
   159	000270'	254000	000260'		JRST	PTRIT5		;WAKE UP AND RETURN
   160
   161	000271'			PTRINI:
   162	000271'	710600	000000	PTRREL:	CONO	PTR,0		;CLEAR DEVICE
   163	000272'	513000	000023'		HLLZS	PTRCON		;STOP INTERRUPT CHAIN
   164	000273'	263040	000000		POPJ	P,		;AND RETURN
   165
PTRSER - PAPER TAPE READER SERVICE ROUTINE FOR PDP-10(KI) - V011	MACRO 12.5-46.0 14:49 13-JAN-88 PAGE 4
PTRSER.MAC	 2-JAN-86 16:52		/GBH/TNM/RCC  TS  19 AUG 70

   166				;
   167				;	ROUTINE TO STORE DATA IN MONITOR BUFFER
   168				;	ON ENTRY (U)=DATA AS RECEIVED FROM DEVICE
   169				;
   170	000274'	135340	000226*	PTRSTM:	LDB	T2,PIOMOD	;CHECK MODE
   171	000275'	302340	000000		CAIE	T2,A		;ASCII?
   172	000276'	254000	000305'		JRST	STOM1		;NO.
   173	000277'	322240	000320'		JUMPE	U,STOM2		;IGNORE BLANK TAPE
   174	000300'	306240	000377		CAIN	U,377		;RUBOUT?
   175	000301'	263040	000000		POPJ	P,		;YES. JUST RETURN
   176	000302'	306240	000200		CAIN	U,200		;NULL?
   177	000303'	263040	000000		POPJ	P,		;YES.
   178	000304'	405240	000177		ANDI	U,177		;MASK OFF CHARACTER
   179	000305'	137240	000024'	STOM1:	DPB	U,PTRTMB		;STORE IN BUFFER
   180	000306'	133000	000024'		IBP	PTRTMB		;ADVANCE POINTER MANUALLY
   181	000307'	550300	000024'	STOM3:	HRRZ	T1,PTRTMB	;CHECK POINTER
   182	000310'	550344	000011		HRRZ	T2,DEVCLS(F)
   183	000311'	554407	777776		HLRZ	T3,-2(T2)	; AGAINST IN
   184	000312'	316300	000010		CAMN	T1,T3		;STILL SAME WORD?
   185	000313'	263040	000000		POPJ	P,		;YES DONE
   186	000314'	316307	777777		CAMN	T1,-1(T2)	;NO. IN = LAST?
   187	000315'	200300	000007		MOVE	T1,T2	;YES. IN:=FIRST
   188	000316'	506307	777776		HRLM	T1,-2(T2)	;STORE NEW IN
   189	000317'	542300	000024'		HRRM	T1,PTRTMB	;ALSO IN BYTE POINTER
   190	000320'	263040	000000	STOM2:	POPJ	P,
   191				;
   192				;	FORCE LAST WORD INTO MONITOR BUFFER
   193				;
   194	000321'	135600	000334'	PTRSTE:	LDB	P1,[POINT 6,PTRTMB,5]; GET POSITION
   195	000322'	135640	000335'		LDB	P2,[POINT 6,PTRTMB,11]; AND BYTE SIZE
   196	000323'	275600	000044		SUBI	P1,^D36		;COMPUTE CURRENT BIT POSITION
   197	000324'	213000	000014		MOVNS	P1		; IN WORD
   198	000325'	316600	000015		CAMN	P1,P2		;START OF WORD?
   199	000326'	254000	000307'		JRST	STOM3		;YES. DONE
   200	000327'	201240	000000		MOVEI	U,0		;NO. ZERO FILL
   201	000330'	137240	000024'		DPB	U,PTRTMB	;  REST OF WORD
   202	000331'	133000	000024'		IBP	PTRTMB		;ADVANCE POINTER
   203	000332'	254000	000321'		JRST	PTRSTE		;CONTINUE UNTIL WORD IS FULL
   204
   205	000333'			PTRLIT:	LIT
   206	000333'	100000	010000
   207	000334'	360600	000024'
   208	000335'	300600	000024'
   209	000336'			PTREND:	END
   210
NO ERRORS DETECTED
PROGRAM BREAK IS 000336
6K CORE USED
PTRSER - PAPER TAPE READER SERVICE ROUTINE FOR PDP-10(KI) - V011	MACRO 12.5-46.0 14:49 13-JAN-88 PAGE 5
PTRSER.MAC	 2-JAN-86 16:52		SYMBOL TABLE

A		000000	SIN	LI.PIF		000400	SPD	SETIOD		000261'	EXT
ADVBFF		000000	EXT	LI.PIN		000200	SPD	SIZPTR		000022	SPD
B		000014	SIN	MBBXFR		000205'	EXT	STOIOS		000262'	EXT
CKS12		000000	EXT	NODIE		000000	EXT	STOM1		000305'
CPOPJ		000000	EXT	P		000001	INT	STOM2		000320'
CPUKI		000001	SPD	P1		000014	INT	STOM3		000307'
CPUKL		000002	SPD	P2		000015	INT	T1		000006	INT
CPUTYP		000001	SPD	PIOMOD		000274'	EXT	T2		000007	INT
CPZZ		000000	SPD	POW		000400	SPD	T3		000010	INT
CTMBS		000253'	EXT	PTR		000104	SPD	U		000005	INT
DBYT		000002	SIN	PTRADR		000012'		WRPI	700600	000000
DCL		000007	SIN	PTRBIN		000040	SPD	WSYNC		000000	EXT
DDINT		000001	SIN	PTRBL		000144
DDXZ		000000	SIN	PTRBSY		000020	SPD
DEVBUF		000006	SIN	PTRBUF		000027'
DEVCHR		000001	SIN	PTRCHN		000225'	EXT
DEVCLS		000011	SIN	PTRCON		000023'
DEVCTR		000015	SIN	PTRCTR		000020'
DEVIAD		000007	SIN	PTRDDB		000003'	INT
DEVINT		000016	SIN	PTRDON		000010	SPD
DEVIOS		000002	SIN	PTRDSP		000173'
DEVLOG		000005	SIN	PTREND		000336'
DEVMOD		000004	SIN	PTRIN		000206'
DEVNAM		000000	SIN	PTRIN1		000223'
DEVPTR		000010	SIN	PTRIN2		000214'
DEVPWC		000013	SIN	PTRIN3		000210'
DEVSER		000003	SIN	PTRINI		000271'
DEVSTS		000012	SIN	PTRINT		000241'	INT
DEVWUC		000014	SIN	PTRIOS		000005'
DHNG		000005	SIN	PTRIT1		000263'
DIE		000000'	EXT	PTRIT2		000265'
DIN		000011	SIN	PTRIT5		000260'
DINI		000004	SIN	PTRLIT		000333'
DOU		000010	SIN	PTRMSK		000000	EXT
DRL		000006	SIN	PTRPOW		100000	SPD
DSPSIZ		000012	SPD	PTRPTR		000013'
DVIN		000002	SIN	PTRREL		000271'
DVPTR		000200	SIN	PTRSAV		000244'	EXT
DVSIZ		000003	SIN	PTRSER		000000'	ENT
DXFR		000012	SIN	PTRSTE		000321'
ERRICO		000203'	EXT	PTRSTM		000274'
F		000004	INT	PTRSTS		000015'
HNGSTP		000212'	EXT	PTRSV1		000022'
HUNGST		000400	SIN	PTRTMB		000024'
IB		000013	SIN	RUBOUT		000177	SPD
IOACT		010000	SIN	S		000000	INT
IOBEG		000002	SIN	S$ENTR	777777	777775	SIN
IODISC		400000	SPD	S$HALT	777777	777777	SIN
IOEND		000040	SIN	S$NAME		000000'	SPD
IOFST		000004	SIN	S$NONA		000000	SIN
IOSET		000246'	EXT	S$TEMP	777775	000000	SPD
IOW		000001	SIN	S$XCT	777777	777776	SIN

PTRSER - PAPER TAPE READER SERVICE ROUTINE FOR PDP-10(KI) - V011	MACRO 12.5-46.0 14:49 13-JAN-88
PTRSER.MAC	 2-JAN-86 16:52		Symbol cross reference

A	   171
ADVBFF	    23%
B	   119
CKS12	    26%
CPOPJ	    22%
CPUKI	    20
CPUKL	    20
CPUTYP	    20
CPZZ	    20#	    20
CTMBS	    26%	   143
DBYT	    87#
DCL	    92#
DDINT	    86#
DDXZ	    85#
DEVBUF	    54#
DEVCHR	    49#
DEVCLS	    57#	   109	   182
DEVCTR	    61#	    68
DEVIAD	    55#	    65
DEVINT	    62#
DEVIOS	    50#	    64	   123
DEVLOG	    53#
DEVMOD	    52#
DEVNAM	    48#
DEVPTR	    56#	    66
DEVPWC	    59#	   145
DEVSER	    51#
DEVSTS	    58#	    67
DEVWUC	    60#
DHNG	    90#
DIE	    12	    12%	    13
DIN	    94#
DINI	    89#
DOU	    93#
DRL	    91#
DSPSIZ	    85	    96#
DVIN	    52
DVPTR	    52
DVSIZ	    88#
DXFR	    95#
ERRICO	    22%	    92	    93
F	   109	   123	   137	   145	   182
HNGSTP	    25%	   105
HUNGST	    49
IB	   118
IOACT	   156
IOBEG	   101	   107
IODISC	    39#
IOEND	   107	   155
IOFST	   113
IOSET	    23%	   138
IOW	   148
LI.PIF	   122
PTRSER - PAPER TAPE READER SERVICE ROUTINE FOR PDP-10(KI) - V011	MACRO 12.5-46.0 14:49 13-JAN-88
PTRSER.MAC	 2-JAN-86 16:52		Symbol cross reference

LI.PIN	   126
LISTSN	     3	     6
MBBXFR	    22%	    95
NODIE	    12%
P	    13	    86	   105	   108	   114	   128	   138	   142	   143	   149	   154	   164	   175	   177
	   185	   190
P1	   194	   196	   197	   198
P2	   195	   198
PIOMOD	    24%	   117	   170
POW	    36#	   103	   139
PTR	   103	   124	   133	   135	   139	   141	   157	   162
PTRADR	    65#
PTRBIN	    35#	   120
PTRBL	    59	    76#	    78	    79
PTRBSY	    34#	   115
PTRBUF	    57	    77	    78	    79#
PTRCHN	    24%	   116
PTRCON	    70#	   125	   133	   158	   163
PTRCTR	    68#
PTRDDB	    45	    47#	    64	    65	    66	    67	    68	    72	   137
PTRDON	    33#	   121
PTRDSP	    51	    84#
PTREND	   209#
PTRIN	    94	   101#
PTRIN1	   102	   114#
PTRIN2	   104	   107#
PTRIN3	   103#	   106
PTRINI	    89	   161#
PTRINT	    27	   133#	   134
PTRIOS	    64#
PTRIT1	   140	   154#
PTRIT2	   144	   156#
PTRIT5	   148#	   159
PTRLIT	   205#
PTRMSK	    25%
PTRPOW	    40#	   156
PTRPTR	    66#
PTRREL	    90	    91	   162#
PTRSAV	    24%	   136
PTRSER	    12	    13#	    16
PTRSTE	   154	   194#	   203
PTRSTM	   142	   170#
PTRSTS	    67#	   135
PTRSV1	    69#
PTRTMB	    71#	   111	   112	   179	   180	   181	   189	   194	   195	   201	   202
RUBOUT	    42#
S	   101	   107	   113	   123	   148	   155	   156
S$ENTR	    12	    18
S$HALT	    12
S$NAME	    16#
S$NONA	    15	    18
S$TEMP	    12#	    12
S$XCT	    18
PTRSER - PAPER TAPE READER SERVICE ROUTINE FOR PDP-10(KI) - V011	MACRO 12.5-46.0 14:49 13-JAN-88
PTRSER.MAC	 2-JAN-86 16:52		Symbol cross reference

SETACT	    25%	   114
SETBYT	    23%	   108
SETIOD	    24%	   149
SIZPTR	    72#	    88
STOIOS	    25%	   147	   150
STOM1	   172	   179#
STOM2	   173	   190#
STOM3	   181#	   199
T1	    88	   109	   110	   111	   116	   120	   121	   124	   125	   144	   146	   181	   184	   186
	   187	   188	   189
T2	   115	   116	   117	   118	   119	   145	   146	   170	   171	   182	   183	   186	   187	   188
T3	   183	   184
U	   141	   173	   174	   176	   178	   179	   200	   201
WSYNC	    26%
PTRSER - PAPER TAPE READER SERVICE ROUTINE FOR PDP-10(KI) - V011	MACRO 12.5-46.0 14:49 13-JAN-88
PTRSER.MAC	 2-JAN-86 16:52		Macro/Opdef cross reference

IFNCPU	    20
STOPCD	    11
WRPI	   122	   126