SETETY - Generate SETE table for TYMSHARE hosts	MACRO 12.5-46.0 14:25 13-JAN-88 PAGE 1
S.MAC	13-JAN-88 11:55		S.MAC - with system parameter file for P035/D, January 1988

     1				SUBTTL	S.MAC - with system parameter file for P035/D, January 1988
     2
     3				IF2,<IFNDEF LISTSN,<TAPE>>	;Skip to PASS2 in all but COMMON.LST
     4				;THIS MODULE ASSEMBLED WITH KL-10 PARAMETER FILE - KLSYM.MAC
     5
     6					IF2,<IFNDEF LISTSN,<		;LIST KLSYM.MAC IN COMMON ONLY
     7								TAPE>>
     8				SUBTTL	CONFIG - CONFIGURATION DEFINITION - KL
     9				XP SYSNO,'KL3652'	;CONFKL.MAC
    10				XP APRSN,<'KL',,0>	;CPU type and serial number
    11				XP APRNAM,<'*L*',,7777>	;Hardware and base number
    12				XP TIMZON,^D<-8>	;Pacific Standard Time
    13
    14				XP JOBS, ^D64		;Can't have 128 jobs with 48 disks!
    15				XP PORTS,^D128		;TYMNET ports 0-199     (RPORTN was 128)
    16				XP TAPES,^D4		;Number of tape drives
    17				XP DISKS,^D<6*8>	;Number of disks (BPA0-17,BPB0-7,BPC0-17,BPD0-7)
    18				XP DSKTYP,'3652B'	;Memorex 3652 disks formatted in blocks
    19
    20				TITLE	SETETY - Generate SETE table for TYMSHARE hosts
    21
    22	000000'			SETETY:	ENTRY	SETETY		;There are no STOPCDs in this module
    23
    24				;The symbols SEPW00 thru SEPW17 are the password hashes.
    25				;The symbols SETE00 thru SETE17 are the licenses.
    26				;They may be defined in the CONF##.MAC configuration files or in SETEKS.MAC
    27
    28				;*;	M1,000000000000,777777,18-Nov-87,Minus-one	;; SEPWM1 = value
    29				IFNDEF SEPWM1,<SEPWM1==000000000000>	; Refresh-restore Hash
    30				IFNDEF SETEM1,<SETEM1==777777>		; Refresh-restore License
    31
    32				DEFINE	SETE,<;;Be sure to change the date field when you change your password
    33				XX	00,000000000000,000000,15-Aug-86,this machine
    34				XX	01,407510275503,777777,21-May-85,Bill Soley
    35				XX	02,000000000000,000000,xx-xxx-xx,
    36				XX	03,000000000000,000000,xx-xxx-xx,
    37				XX	04,035066162631,777777,18-Aug-86,Dennis Coffey
    38				XX	05,203630404205,777777, 8-May-85,Osman Guven
    39				XX	06,345551426122,777777, 7-May-86,Joe Smith
    40				XX	07,377322321217,777777,23-Jan-81,Carl Baltrunas
    41				XX	10,000000000000,000000,xx-xxx-xx,
    42				XX	11,364017033164,000000,24-Oct-80,installation
    43				XX	12,722046700536,000000,24-Oct-80,INSD
    44				XX	13,624313670262,000000,24-Oct-80,TMS
    45				XX	14,000000000000,000000,24-Oct-80,INTERNATIONAL
    46				XX	15,000000000000,000000,xx-xxx-xx,
    47				XX	16,000000000000,000000,xx-xxx-xx,
    48				XX	17,000000000000,000000,xx-xxx-xx,
    49				>
    50					SALL
    51				DEFINE	XX(NUM,HASH,LIC,DATE,NAME),<
    52					ND SEPW'NUM,HASH	;Password hash
    53					ND SETE'NUM,LIC		;License
SETETY - Generate SETE table for TYMSHARE hosts	MACRO 12.5-46.0 14:25 13-JAN-88 PAGE 1
SETETY.MAC	18-NOV-87 23:34		CONFIG - CONFIGURATION DEFINITION - KL

    54					IFN NUM-ZZ,<PRINTX ?SETE entry NUM out of order for NAME>
    55					IFE SEPW'NUM,<SETE'NUM==0>;;No license if no password
    56					IFN SETE'NUM,<IF2,<PRINTX Defining SETE'NUM for NAME>>
    57				ZZ==ZZ+1>
    58			000000		ZZ==0
    59					SETE		;Verify the definitions
    60
    61				DEFINE	XX(NUM,HASH,LIC,DATE,NAME),<
    62					EXP SEPW'NUM	;DATE NAME >
    63					XALL
    64	000000'	000000	000000		EXP	SEPWM1		;SETE -1 hash
    65	000001'			SETECD:: SETE	^
    66	000001'	000000	000000		EXP SEPW00	;15-Aug-86 this machine ^
    67	000002'	407510	275503		EXP SEPW01	;21-May-85 Bill Soley ^
    68	000003'	000000	000000		EXP SEPW02	;xx-xxx-xx  ^
    69	000004'	000000	000000		EXP SEPW03	;xx-xxx-xx  ^
    70	000005'	035066	162631		EXP SEPW04	;18-Aug-86 Dennis Coffey ^
    71	000006'	203630	404205		EXP SEPW05	; 8-May-85 Osman Guven ^
    72	000007'	345551	426122		EXP SEPW06	; 7-May-86 Joe Smith ^
    73	000010'	377322	321217		EXP SEPW07	;23-Jan-81 Carl Baltrunas ^
    74	000011'	000000	000000		EXP SEPW10	;xx-xxx-xx  ^
    75	000012'	364017	033164		EXP SEPW11	;24-Oct-80 installation ^
    76	000013'	722046	700536		EXP SEPW12	;24-Oct-80 INSD ^
    77	000014'	624313	670262		EXP SEPW13	;24-Oct-80 TMS ^
    78	000015'	000000	000000		EXP SEPW14	;24-Oct-80 INTERNATIONAL ^
    79	000016'	000000	000000		EXP SEPW15	;xx-xxx-xx  ^
    80	000017'	000000	000000		EXP SEPW16	;xx-xxx-xx  ^
    81	000020'	000000	000000		EXP SEPW17	;xx-xxx-xx  ^
    82				XP SETENM,.-SETECD		;Length of table
    83
    84				DEFINE	XX(NUM,HASH,LIC,DATE,NAME),<
    85					EXP SETE'NUM	;DATE NAME>
    86
    87	000021'	000000	777777		EXP	SETEM1		;SETE -1 license
    88	000022'			SETELV:: SETE	^
    89	000022'	000000	000000		EXP SETE00	;15-Aug-86 this machine^
    90	000023'	000000	777777		EXP SETE01	;21-May-85 Bill Soley^
    91	000024'	000000	000000		EXP SETE02	;xx-xxx-xx ^
    92	000025'	000000	000000		EXP SETE03	;xx-xxx-xx ^
    93	000026'	000000	777777		EXP SETE04	;18-Aug-86 Dennis Coffey^
    94	000027'	000000	777777		EXP SETE05	; 8-May-85 Osman Guven^
    95	000030'	000000	777777		EXP SETE06	; 7-May-86 Joe Smith^
    96	000031'	000000	777777		EXP SETE07	;23-Jan-81 Carl Baltrunas^
    97	000032'	000000	000000		EXP SETE10	;xx-xxx-xx ^
    98	000033'	000000	000000		EXP SETE11	;24-Oct-80 installation^
    99	000034'	000000	000000		EXP SETE12	;24-Oct-80 INSD^
   100	000035'	000000	000000		EXP SETE13	;24-Oct-80 TMS^
   101	000036'	000000	000000		EXP SETE14	;24-Oct-80 INTERNATIONAL^
SETETY - Generate SETE table for TYMSHARE hosts	MACRO 12.5-46.0 14:25 13-JAN-88 PAGE 1-2
SETETY.MAC	18-NOV-87 23:34		CONFIG - CONFIGURATION DEFINITION - KL

   102	000037'	000000	000000		EXP SETE15	;xx-xxx-xx ^
   103	000040'	000000	000000		EXP SETE16	;xx-xxx-xx ^
   104	000041'	000000	000000		EXP SETE17	;xx-xxx-xx ^
   105
   106	000042'			SETEND:	END		;The rest of this file is not assembled.  It is history.
   107
NO ERRORS DETECTED
PROGRAM BREAK IS 000042
7K CORE USED
SETETY - Generate SETE table for TYMSHARE hosts	MACRO 12.5-46.0 14:25 13-JAN-88 PAGE 2
SETETY.MAC	18-NOV-87 23:34		SYMBOL TABLE

APRNAM	125412	007777	SIN
APRSN	005354	000000	SIN
DISKS		000060	SIN
DSKTYP	002326	252242	SIN
JOBS		000100	SIN
PORTS		000200	SIN
SEPW00		000000	SIN
SEPW01	407510	275503	SIN
SEPW02		000000	SIN
SEPW03		000000	SIN
SEPW04	035066	162631	SIN
SEPW05	203630	404205	SIN
SEPW06	345551	426122	SIN
SEPW07	377322	321217	SIN
SEPW10		000000	SIN
SEPW11	364017	033164	SIN
SEPW12	722046	700536	SIN
SEPW13	624313	670262	SIN
SEPW14		000000	SIN
SEPW15		000000	SIN
SEPW16		000000	SIN
SEPW17		000000	SIN
SEPWM1		000000	SPD
SETE00		000000	SIN
SETE01		777777	SIN
SETE02		000000	SIN
SETE03		000000	SIN
SETE04		777777	SIN
SETE05		777777	SIN
SETE06		777777	SIN
SETE07		777777	SIN
SETE10		000000	SIN
SETE11		000000	SIN
SETE12		000000	SIN
SETE13		000000	SIN
SETE14		000000	SIN
SETE15		000000	SIN
SETE16		000000	SIN
SETE17		000000	SIN
SETECD		000001'	INT
SETELV		000022'	INT
SETEM1		777777	SPD
SETEND		000042'
SETENM		000020	SIN
SETETY		000000'	ENT
SYSNO	535423	262522	SIN
TAPES		000004	SIN
TIMZON	777777	777770	SIN
ZZ		000020	SPD

SETETY - Generate SETE table for TYMSHARE hosts	MACRO 12.5-46.0 14:25 13-JAN-88
SETETY.MAC	18-NOV-87 23:34		Symbol cross reference

APRNAM	    12#
APRSN	    11#
DISKS	    18#
DSKTYP	    19#
JOBS	    15#
LISTSN	     3	     6
PORTS	    16#
SEPW00	    59	    59#	    66
SEPW01	    59	    59#	    67
SEPW02	    59	    59#	    68
SEPW03	    59	    59#	    69
SEPW04	    59	    59#	    70
SEPW05	    59	    59#	    71
SEPW06	    59	    59#	    72
SEPW07	    59	    59#	    73
SEPW10	    59	    59#	    74
SEPW11	    59	    59#	    75
SEPW12	    59	    59#	    76
SEPW13	    59	    59#	    77
SEPW14	    59	    59#	    78
SEPW15	    59	    59#	    79
SEPW16	    59	    59#	    80
SEPW17	    59	    59#	    81
SEPWM1	    29	    64
SETE00	    59	    59#	    89
SETE01	    59	    59#	    90
SETE02	    59	    59#	    91
SETE03	    59	    59#	    92
SETE04	    59	    59#	    93
SETE05	    59	    59#	    94
SETE06	    59	    59#	    95
SETE07	    59	    59#	    96
SETE10	    59	    59#	    97
SETE11	    59	    59#	    98
SETE12	    59	    59#	    99
SETE13	    59	    59#	   100
SETE14	    59	    59#	   101
SETE15	    59	    59#	   102
SETE16	    59	    59#	   103
SETE17	    59	    59#	   104
SETECD	    65#	    83
SETELV	    88#
SETEM1	    30	    87
SETEND	   106#
SETENM	    83#
SETETY	    22#	    22
SYSNO	    10#
TAPES	    17#
TIMZON	    13#
ZZ	    58#	    59	    59#
SETETY - Generate SETE table for TYMSHARE hosts	MACRO 12.5-46.0 14:25 13-JAN-88
SETETY.MAC	18-NOV-87 23:34		Macro/Opdef cross reference

ND	    59
SETE	    32#	    59	    65	    88
XP	     9	    10	    11	    12	    14	    15	    16	    17	    18	    82
XX	    51#	    59	    61#	    66	    67	    68	    69	    70	    71	    72	    73	    74	    75	    76
	    77	    78	    79	    80	    81	    84#	    89	    90	    91	    92	    93	    94	    95	    96
	    97	    98	    99	   100	   101	   102	   103	   104