SNOCVT - Datatype Conversion Routines  %5(247)	MACRO %53B(1156)-1 21:51 14-Mar-88 Page 1
SNOCVT	MAC	13-Oct-66 22:18		L. SAMBERG/LSS/DRH/MP/RCM/VB		15-JUN-76

     1						SUBTTL	L. SAMBERG/LSS/DRH/MP/RCM/VB		15-JUN-76
     2
     3					; COPYRIGHTS 1972,1973,1976,1977  STEVENS INSTITUTE OF TECHNOLOGY
     4					; HOBOKEN, NEW JERSEY, 07030
     5					; ALL RIGHTS RESERVED.
     6
     7					  ;UNIVERSALS
     8
     9						SEARCH	MACTEN		;DEC-10 COMMON MACROS
    10						SEARCH	SNOPRM		;SITBOL PARAMETER FILE
    11
    12					  ;DIRECTIVES
    13
    14						.DIRECT	.XTABM		;EXCLUDE TABS FROM MACRO CALLS
    15						SALL			;SUPPRESS MACRO EXPANSIONS
    16	400000'					TWOSEG	400K		;TWOSEGMENT CODE
    17
    18					  ;VERSION NUMBER
    19
    20			000005			CVTVER==5		;MAJOR VERSION NUMBER
    21			000000			CVTMIN==0		;MINOR VERSION NUMBER
    22			000247			CVTEDT==247		;EDIT LEVEL
    23			000000			CVTWHO==0		;CUSTOMER ARGUMENT
    24
    25					  ;TITLE
    26
    27						TITLE.	CVT,SNOCVT,<Datatype Conversion Routines>
    28		436664	000000			CVTSIX==SIXBIT /CVT/	; SNOCVT ABBREVIATION IN SIXBIT
    29		416552	400000			CVTASC==ASCIZ /CVT/	; SNOCVT ABBREVIATION IN ASCII
    30						SALL
    31
    32
    33					  ;SHOW UNIVERSAL VERSION NUMBERS
    34
    35	400000'	000200	000025			SHOW.	%%MACT		;VERSION NUMBER OF MACTEN
    36	400000'	000500	000305			SHOW.	%%SNOP		;VERSION NUMBER OF SNOPRM
    37
    38						CVTTTL			; Title
    39						CVTPTX			; PASS2 message
SNOCVT - Datatype Conversion Routines  %5(247)	MACRO %53B(1156)-1 21:51 14-Mar-88 Page 2
SNOCVT	MAC	13-Oct-66 22:18		Table of Contents

    40						SUBTTL	Table of Contents
    41
    42					;		Table of Contents for Datatype Conversion Routines
    43					;
    44					;
    45					;			   Section			      Page
    46					;   1. Table of Contents. . . . . . . . . . . . . . . . . . .    2
    47					;   2. REVISION HISTORY . . . . . . . . . . . . . . . . . . .    3
    48					;   3. INTRODUCTION . . . . . . . . . . . . . . . . . . . . .    4
    49					;   4. DATATYPE CONVERSIONS . . . . . . . . . . . . . . . . .    5
    50					;   5. BUILT-INS AND UNARY OPERATORS. . . . . . . . . . . . .   17
SNOCVT - Datatype Conversion Routines  %5(247)	MACRO %53B(1156)-1 21:51 14-Mar-88 Page 3
SNOCVT	MAC	13-Oct-66 22:18		REVISION HISTORY

    51						SUBTTL	REVISION HISTORY
    52
    53					COMMENT	\
    54
    55					START OF VERSION 5.
    56					122	RENAME MODULES & CLEAN UP.
    57					133	FIX BUG IN STRING TO NUMERIC CONVERSION.
    58					174	Fix problem in real to string conversion of zero.
    59					247	Allow D to signify an exponent.
    60					\
SNOCVT - Datatype Conversion Routines  %5(247)	MACRO %53B(1156)-1 21:51 14-Mar-88 Page 4
SNOCVT	MAC	13-Oct-66 22:18		INTRODUCTION

    61						SUBTTL	INTRODUCTION
    62
    63					;THIS MODULE CONTAINS FIVE DTATTYPE CONVERSION ROUTINES:
    64
    65					;	1)CVTINT -- CONVERT TO INTEGER
    66					;	2)CVTRL  -- CONVERT TO REAL
    67					;	3)CVTNUM -- CONVERT TO NUMERIC
    68					;	4)CVTSTR -- CONVERT TO STRING
    69					;	5)CVTNAM -- CONVERT TO NAME
    70
    71					;ALL ROUTINES ARE 'T' LEVEL.
    72					;CVTSTR AND CVTNAM ARE UNSTABLE.
    73
    74					;ALSO CONTAINS 3 BUILT-IN FUNCTIONS:
    75					;	1)CONVERT
    76					;	2)IND -- UNARY '$'
    77					;	3)NAME-- UNARY "."
    78
    79					;SOME FLAGS
    80			400000			F..NEG==1B18		;RESULT IS NEGATIVE
    81			200000			F..DEC==1B19		;DECIMAL POINT SEEN
    82			100000			F..ING==1B20		;CONVERT TO STRICTLY INTEGER
    83			040000			F..NEX==1B21		;NEGATIVE EXPONENT
    84
    85
    86					;USABLE AC'S ARE:
    87					;	T1,T2,T3,T4
    88					;	Q1,Q2,Q3
    89					;	Z
    90
    91					IFNDEF	MAXDIG <MAXDIG==^D8>	;MAXIMUM # OF DIGITS
    92					IFNDEF	MAXDEC <MAXDEC==^D8>	;MAX NUMBER OF DECIMAL PLACES
    93					IFNDEF	MINDEC <MINDEC==2>	;MIN NUMBER OF DEC PLACES
    94
SNOCVT - Datatype Conversion Routines  %5(247)	MACRO %53B(1156)-1 21:51 14-Mar-88 Page 5
SNOCVT	MAC	13-Oct-66 22:18		INTRODUCTION

    95
    96					SUBTTL	DATATYPE CONVERSIONS
    97
    98					;CONVERT TO INTEGER ROUTINES
    99
   100	400000'	205 12 0 00 002001 	CVTING::MOVSI	T2,IDT		;RESULT IS INTEGER DATATYPE
   101	400001'	664 12 0 00 100000 		TROA	T2,F..ING	;ACCEPT NOTHING BUT INTEGER
   102
   103					;HERE IS REAL CONVERT TO INTEGER
   104
   105	400002'	205 12 0 00 002001 	CVTINT::MOVSI	T2,IDT		;RESULT IS INTEGER
   106	400003'	265 15 0 00 400413'		JSP	QLINK,CVCHTP	;GET TYPE OF ARGUMENT
   107	400004'	254 00 0 00 400214'		  JRST	CVS.M		;STRING --> INTEGER(NUMERIC)
   108	400005'	254 00 0 11 000001 		  JRST	1(TLINK)	;INTEGER --> INTEGER (NO-OP)
   109
   110					;HERE FALL THRU TO CONVERT REAL TO INTEGER
   111
   112	400006'	265 15 0 00 400442'	CVR.I:	JSP	QLINK,CVCHMG	;GET THE MAGNITUDE
   113	400007'	254 00 0 00 400451'		  JRST	PUTZR		;ITS A ZERO
   114
   115	400010'	311 14 0 00 400653'	CVR.I1:	CAML	T4,[244400,,0]	;GT 2^35?
   116	400011'	254 00 0 11 000000 		JRST	0(TLINK)	;YES LOSE
   117	400012'	311 14 0 00 400654'		CAML	T4,[201400,,0]	;LT 1?
   118	400013'	254 00 0 00 400015'		JRST	CVR.I2		;NO ITS IN RANGE
   119	400014'	254 00 0 00 400451'		JRST	PUTZR		;LT 1 = 0
   120
   121	400015'	135 15 0 00 400655'	CVR.I2:	LDB	Q1,[POINT 8,T4,8]
   122	400016'	240 14 0 00 000010 		ASH	T4,10		;NORMALIZE FRACTION TO BIT 1
   123	400017'	400 13 0 00 000000 		CLEAR	T3,		;SHIFT REGISTER
   124	400020'	244 13 0 15 777600 		ASHC	T3,-200(Q1)	;SHIFT OVER ACCORDING TO EXPONENT
   125	400021'	200 14 0 00 000013 		MOVE	T4,T3		;PUT IT IN THE RIGHT REGISTER
   126	400022'	254 00 0 00 400452'		JRST	PUTON		;AND RETURN
   127
SNOCVT - Datatype Conversion Routines  %5(247)	MACRO %53B(1156)-1 21:51 14-Mar-88 Page 6
SNOCVT	MAC	13-Oct-66 22:18		DATATYPE CONVERSIONS

   128
   129					;CONVERT TO REAL ROUTINES
   130
   131	400023'	205 12 0 00 002002 	CVTRL::	MOVSI	T2,RDT		;RESULT WILL BE REAL
   132	400024'	265 15 0 00 400413'		JSP	QLINK,CVCHTP	;GET TYPE OR ARGUMENT
   133	400025'	254 00 0 00 400214'		  JRST	CVS.M		;CONVER STRING --> REAL(NUMERIC)
   134	400026'	254 00 0 00 400030'		  JRST	CVI.R		;CONVERT INTEGER --> REAL
   135	400027'	254 00 0 11 000001 		  JRST	1(TLINK)	;REAL --> REAL IS A NO-OP
   136
   137					;HERE CONVERT INTEGER TO REAL
   138
   139	400030'	265 15 0 00 400442'	CVI.R:	JSP	QLINK,CVCHMG	;GET MAGNITUDE
   140	400031'	254 00 0 00 400451'		  JRST	PUTZR		;ITS O
   141
   142	400032'	200 15 0 00 000014 	CVI.R1:	MOVE	Q1,T4		;GET NUMBER IN Q1
   143	400033'	265 00 0 00 400434'		JSP	Z,FLOAT		;FLOAT IT
   144	400034'	254 00 0 00 400450'		JRST	PUTONQ		;AND RETURN
   145
SNOCVT - Datatype Conversion Routines  %5(247)	MACRO %53B(1156)-1 21:51 14-Mar-88 Page 7
SNOCVT	MAC	13-Oct-66 22:18		DATATYPE CONVERSIONS

   146
   147					;HERE CONVERT TO STRING
   148
   149	400035'	205 12 0 00 004003 	CVTSTR::MOVSI	T2,SDT		;RESULT IS SDT
   150	400036'	265 15 0 00 400413'		JSP	QLINK,CVCHTP	;GET TYPE OF ARG
   151	400037'	254 00 0 11 000001 		  JRST	1(TLINK)	;STRING TO STRING IS EASY.
   152	400040'	254 00 0 00 400154'		  JRST	CVI.S		;CONVERT INTEGER --> STRING
   153
   154					;FALL THRU TO CONVERT REAL TO STRING
   155
   156	400041'	265 15 0 00 400457'	CVR.S:	JSP	QLINK,CVGTBK	;GET AN SBLOK AND SETUP NUMBER
   157
   158	400042'	135 13 0 00 400655'	CVR.S1:	LDB	T3,[POINT 8,T4,8]
   159	400043'	402 00 0 00 000000*		CLEARM	CVSTO1##		;PLACE TO COUNT E SCALE
   160	400044'	200 15 0 00 000014 		MOVE	Q1,T4		;TRANSFER THE NUMBER
   161	400045'	305 13 0 00 000167 		CAIGE	T3,167		;IF GE -9
   162	400046'	254 00 0 00 400051'		JRST	CVR.S2		;THEN DONT USE "E"
   163	400047'	307 13 0 00 000233 		CAIG	T3,233		;AND LT 27,
   164	400050'	254 00 0 00 400077'		JRST	CVR.S6		;THEN DON'T USE 'E' CONSTRUCT
   165
   166	400051'	202 16 0 00 400043*	CVR.S2:	MOVEM	Q2,CVSTO1	;SAVE COUNT
   167	400052'	571 16 0 13 777600 		HRREI	Q2,-200(T3)	;PUT EXPONENT IN Q2
   168	400053'	240 16 0 00 777776 		ASH	Q2,-2		;DIVIDE BY FOUR
   169	400054'	202 16 0 00 000000*		MOVEM	Q2,CVSTO2##	;SAVE SCALE FACTOR
   170	400055'	213 00 0 00 000016 		MOVNS	Q2		;NEGATE SO WE DO THE RIGHT MULT
   171	400056'	202 11 0 00 000000*		MOVEM	TLINK,IGNOT##	;SAVE THE LINK
   172	400057'	265 11 0 00 400353'		JSP	TLINK,CVS.NH	;AND SCALE THE NUMBER
   173	400060'	001 17 0 00 000000 		  ERROR	15		;IMPOSSIBLE??
   174
   175	400061'	200 16 0 00 400054*		MOVE	Q2,CVSTO2	;GET SCALE BACK WITH PROPER SIGN
   176	400062'	311 15 0 00 400654'	CVR.S3:	CAML	Q1,[201400,,0]	;MAKE SURE POINT IS IN RIGHT PLACE
   177	400063'	254 00 0 00 400067'		JRST	CVR.S4		;KEEP CHECKING
   178	400064'	165 15 0 00 204500 		FMPRI	Q1,204500	;MULTIPLY BY 10
   179	400065'	370 00 0 00 000016 		SOS	Q2		;AND DECR. EXPONENT
   180	400066'	254 00 0 00 400062'		JRST	CVR.S3		;LOOP AROUND TO CHECK
   181
   182	400067'	315 15 0 00 400656'	CVR.S4:	CAMGE	Q1,[204500,,0]	;GT 10
   183	400070'	254 00 0 00 400074'		JRST	CVR.S5		;NO CONTINUE
   184	400071'	175 15 0 00 204500 		FDVRI	Q1,204500	;DIVIDE BY 10
   185	400072'	350 00 0 00 000016 		AOS	Q2		;AND INCREMENT
   186	400073'	254 00 0 00 400067'		JRST	CVR.S4		;LOOP AROUND AND CHECK AGAIN
   187
   188	400074'	250 16 0 00 400051*	CVR.S5:	EXCH	Q2,CVSTO1	;SAVE SCALE AND GET COUNT
   189	400075'	135 13 0 00 400657'		LDB	T3,[POINT 8,Q1,8]
   190	400076'	200 11 0 00 400056*		MOVE	TLINK,IGNOT##	;RETRIEVE THE LINK
   191
SNOCVT - Datatype Conversion Routines  %5(247)	MACRO %53B(1156)-1 21:51 14-Mar-88 Page 8
SNOCVT	MAC	13-Oct-66 22:18		DATATYPE CONVERSIONS

   192
   193	400077'	240 15 0 00 000010 	CVR.S6:	ASH	Q1,10		;NORMALIZE FRACTION TO BIT 1
   194	400100'	400 14 0 00 000000 		CLEAR	T4,		;CLEAR THIS FOR SHIFT
   195	400101'	244 14 0 13 777600 		ASHC	T4,-200(T3)	;SHIFT ACCORDINGLY
   196	400102'	202 15 0 00 000000#		MOVEM	Q1,IGNOT##+2	;SAVE THIS FOR LATER
   197	400103'	260 01 0 00 400162'		PUSHJ	STACK,CVI.SL	;INSERT INTEGER PART
   198
   199
   200	400104'	211 15 0 00 000010 	CVR.S7:	MOVNI	Q1,MAXDIG	;GET MAX DIGITS
   201	400105'	271 15 0 16 000000 		ADDI	Q1,(Q2)		;SUBTRACT WHAT WE'VE ALREADY GOT
   202	400106'	602 12 0 00 400000 		TRNE	T2,F..NEG	;IF NUMBER IS NEGATIVE
   203	400107'	360 15 0 00 000000 		SOJ	Q1,		;ADD ONE FOR THE MINUS SIGN
   204	400110'	315 15 0 00 400660'		CAMGE	Q1,[-MAXDEC]	;OK IF LE MAXDEC
   205	400111'	211 15 0 00 000010 		MOVNI	Q1,MAXDEC	;OTHERWISE USE MAXDEC
   206	400112'	313 15 0 00 400661'		CAMLE	Q1,[-MINDEC]	;HOWEVER, WE WANT AT LEAST 2
   207	400113'	211 15 0 00 000002 		MOVNI	Q1,MINDEC	;DECIMAL PLACES
   208	400114'	505 16 0 15 000000 		HRLI	Q2,(Q1)		;MAKE AOBJN POINTER
   209	400115'	217 00 0 00 000015 		MOVMS	Q1
   210	400116'	201 12 0 15 000012 		MOVEI	T2,12(Q1)	;SETUP TO COUNT ZERO BITS
   211	400117'	200 15 0 15 400642'		MOVE	Q1,RNDTBL(Q1)	;GET ROUNDING FACTOR
   212	400120'	255 17 0 00 400121'		JFCL	17,.+1		; CLEAR FLAGS
   213	400121'	270 15 0 00 000000#		ADD	Q1,IGNOT##+2	;AND ADD FRACTIONAL PART
   214					CVR.SX:	JFCL	2,[ HRLOI Q1,377777	; IF OVERFLOW USE ...
   215	400122'	255 02 0 00 400662'			    JRST  CVR.SX+1 ]	; MAXIMUM POSITIVE NO.
   216	400123'	201 14 0 00 000056 		MOVEI	T4,"."		;PUT A DECIMAL POINT IN
   217	400124'	340 16 0 00 000000 		AOJ	Q2,		;INCREMENT COUNT
   218	400125'	136 14 0 00 000000*		IDPB	T4,IGNOQ##	;HERE
   219
   220	400126'	200 14 0 00 000015 	CVR.S8:	MOVE	T4,Q1		;PUT NUMBER IN T4
   221	400127'	243 14 0 00 400131'		JFFO	T4,.+2		;IT MIGHT BE WISE TO DO SOME
   222	400130'	254 00 0 00 400140'		JRST	CVR.S9		; TRUNCATION.
   223	400131'	301 15 0 12 000000 		CAIL	Q1,(T2)		;IF I'VE GOT MORE THAN (T2) 0'S
   224	400132'	254 00 0 00 400140'		JRST	CVR.S9		;IN FRONT OF ME.
   225	400133'	275 12 0 00 000002 		SUBI	T2,2		;DECREMENT COUNT OF ALLOWABLE 0'S
   226	400134'	225 14 0 00 000012 	CVR.SL:	MULI	T4,12		;MULTIPLY BY 10
   227	400135'	271 14 0 00 000060 		ADDI	T4,60		;MAKE IT ASCII
   228	400136'	136 14 0 00 400125*		IDPB	T4,IGNOQ##	;DEPOSIT IT
   229	400137'	253 16 0 00 400126'		AOBJN	Q2,CVR.S8	;IF NOT DONE, THEN LOOP AROUND
   230
   231	400140'	200 15 0 00 400074*	CVR.S9:	MOVE	Q1,CVSTO1	;GET SCALE FACTOR
   232	400141'	322 15 0 00 400156'		JUMPE	Q1,CVI.S3	;DONT SCALE
   233	400142'	201 14 0 00 000105 		MOVEI	T4,"E"		;PUT IN "E"
   234	400143'	136 14 0 00 400136*		IDPB	T4,IGNOQ##	;DEPOSIT IT
   235	400144'	201 14 0 00 000053 		MOVEI	T4,"+"		;PLUS?
   236	400145'	335 00 0 00 000015 		SKIPGE	Q1
   237	400146'	201 14 0 00 000055 		MOVEI	T4,"-"		;NO MINUS
   238	400147'	136 14 0 00 400143*		IDPB	T4,IGNOQ##	;DEPOSIT IT
   239	400150'	271 16 0 00 000002 		ADDI	Q2,2		;INCREMENT CHAR COUNT
   240	400151'	214 14 0 00 000015 		MOVM	T4,Q1		;GET MAGNITUDE OF SCALE
   241	400152'	260 01 0 00 400162'		PUSHJ	STACK,CVI.SL	;CONVERT TO ASCII
   242	400153'	254 00 0 00 400156'		JRST	CVI.S3		;DONE -- RETURN
   243
SNOCVT - Datatype Conversion Routines  %5(247)	MACRO %53B(1156)-1 21:51 14-Mar-88 Page 9
SNOCVT	MAC	13-Oct-66 22:18		DATATYPE CONVERSIONS

   244
   245					;CONVERT INTEGER TO STRING
   246
   247	400154'	265 15 0 00 400457'	CVI.S:	JSP	QLINK,CVGTBK	;GET AN SBLOK AND SETUP POINTERS
   248
   249	400155'	260 01 0 00 400162'	CVI.S2:	PUSHJ	STACK,CVI.SL	;RECURSIVE CALL TO THE PROCESSING
   250									; LOOP
   251	400156'	552 16 0 01 000000 	CVI.S3:	HRRZM	Q2,(STACK)	;OFFSET,,LENGTH
   252	400157'	200 16 0 00 000000#		MOVE	Q2,IGNOT##+1	;GET THE DESCRIPTOR
   253	400160'	202 16 0 01 777777 		MOVEM	Q2,-1(STACK)	;SDT,,ADDRESS
   254	400161'	254 00 0 11 000001 		JRST	1(TLINK)	;AND RETURN NORMALLY
   255
   256					;HERE IS LOOP TO CONVERT CHARACTER BY CHARACTER.
   257					;IT IS CALLED WITH A PUSHJ AND RETURNS WITH POPJ, LEAVING THE
   258					;STACK IN ITS ORIGINAL CONDITION.
   259
   260	400162'	231 14 0 00 000012 	CVI.SL:	IDIVI	T4,12		;GET A DIGIT
   261	400163'	506 15 0 01 000000 		HRLM	T4+1,(STACK)	;STACK IT
   262	400164'	271 16 0 00 000001 		ADDI	Q2,1		;COUNT THE DIGIT
   263	400165'	332 00 0 00 000014 		SKIPE	T4		;ALL DONE?
   264	400166'	260 01 0 00 400162'		PUSHJ	STACK,CVI.SL	;NO -- RECURSE
   265	400167'	554 14 0 01 000000 		HLRZ	T4,(STACK)	;YES GET BACK IN REVERSE ORDER
   266	400170'	271 14 0 00 000060 		ADDI	T4,"0"		;MAKE IT ASCII
   267	400171'	136 14 0 00 400147*		IDPB	T4,IGNOQ##	;DEPOSIT IT
   268	400172'	263 01 0 00 000000 		POPJ	STACK,		;AND UNWIND
   269
   270					;HERE ON ZERO STRING
   271
   272	400173'	201 14 0 00 000060 	CVI.SZ:	MOVEI	T4,"0"		;LOAD A '0'
   273	400174'	136 14 0 00 400171*		IDPB	T4,IGNOQ##	;DEPOSIT IT
   274	400175'	201 16 0 00 000001 		MOVEI	Q2,1		;ONE CHARACTER
   275	400176'	554 13 0 01 777777 		HLRZ	T3,-1(STACK)	; Get datatype
   276	400177'	302 13 0 00 002002 		CAIE	T3,RDT		; REAL?
   277	400200'	254 00 0 00 400156'		 JRST	CVI.S3		; No, return
   278	400201'	201 14 0 00 000056 		MOVEI	T4,"."		; Yes, make string "0.0"
   279	400202'	136 14 0 00 400174*		IDPB	T4,IGNOQ
   280	400203'	201 14 0 00 000060 		MOVEI	T4,"0"
   281	400204'	136 14 0 00 400202*		IDPB	T4,IGNOQ
   282	400205'	201 16 0 00 000003 		MOVEI	Q2,3		; String is now 3 characs long.
   283	400206'	254 00 0 00 400156'		JRST	CVI.S3		; Return
SNOCVT - Datatype Conversion Routines  %5(247)	MACRO %53B(1156)-1 21:51 14-Mar-88 Page 10
SNOCVT	MAC	13-Oct-66 22:18		DATATYPE CONVERSIONS

   284
   285					;CONVERT TO NUMERIC
   286
   287	400207'	400 12 0 00 000000 	CVTNUM::CLEAR	T2,		;DATATYPE OF RESULT IS NOT YET KNOWN
   288	400210'	265 15 0 00 400413'		JSP	QLINK,CVCHTP	;CHECK THE TYPE OF ARG
   289	400211'	254 00 0 00 400214'		  JRST	CVS.M		;CONVERT STRING --> NUMERIC
   290	400212'	254 00 0 11 000001 		  JRST	1(TLINK)	;INTEGERS ARE NUMERIC
   291	400213'	254 00 0 11 000001 		  JRST	1(TLINK)	;SO ARE REALS
   292
   293	400214'	202 11 0 00 400076*	CVS.M:	MOVEM	TLINK,IGNOT##	;SAVE THE LINK
   294	400215'	265 11 0 00 400235'		JSP	TLINK,CVS.N	;CONVERT STRING TO NUMBER
   295	400216'	254 00 1 00 400214*		  JRST	@IGNOT##		;ERROR!!
   296	400217'	200 11 0 00 400216*		MOVE	TLINK,IGNOT##	;GET THE LINK BACK
   297	400220'	200 14 0 00 000015 		MOVE	T4,Q1		;PUT THE RESULT IN THE RIGHT AC
   298
   299	400221'	603 12 0 00 000001 	CVS.M1:	TLNE	T2,IDT-NUMDC	;SEE IF WE 'WANT' AN INTEGER
   300	400222'	254 00 0 00 400010'		JRST	CVR.I1		;YES FIX IT AND RETURN
   301
   302	400223'	603 12 0 00 000002 		TLNE	T2,RDT-NUMDC	;SEE IF WE 'WANT' A REAL
   303	400224'	254 00 0 00 400452'		JRST	PUTON		;YES!! JUST RETURN
   304
   305	400225'	505 12 0 00 002002 		HRLI	T2,RDT		;SETUP RDT
   306	400226'	606 12 0 00 200000 	CVS.M2:	TRNN	T2,F..DEC	;DID WE GET A DECIMAL POINT?
   307	400227'	254 00 0 00 400231'		JRST	CVS.M3		;NO, TRY FOR AN INTEGER.
   308	400230'	254 00 0 00 400452'		JRST	PUTON		;A POINT AND REAL WINS.
   309
   310	400231'	311 14 0 00 400653'	CVS.M3:	CAML	T4,[244400,,0]	;TOO LARGE FOR AN INTEGER?
   311	400232'	254 00 0 00 400452'		JRST	PUTON		;YES -- ITS REAL
   312	400233'	505 12 0 00 002001 		HRLI	T2,IDT		;NO, GO FIX IT
   313	400234'	254 00 0 00 400010'		JRST	CVR.I1		;AND RETURN
   314
SNOCVT - Datatype Conversion Routines  %5(247)	MACRO %53B(1156)-1 21:51 14-Mar-88 Page 11
SNOCVT	MAC	13-Oct-66 22:18		DATATYPE CONVERSIONS

   315
   316					;HERE TO CONVERT STRINGS TO NUMERIC
   317					;CONVERTS STRINGS TO INTEGER,REAL (WITH 'E')
   318
   319
   320	400235'	200 13 0 01 777777 	CVS.N:	MOVE	T3,-1(STACK)	;GET ADDRESS OF STRING
   321	400236'	602 13 0 00 777777 		TRNE	T3,-1		;NULL STRING?
   322	400237'	254 00 0 00 400242'		JRST	CVS.N1		;NO -- CONTINUE
   323	400240'	403 15 0 00 000014 		CLEARB	Q1,T4		;YES -- RETURN ZERO
   324	400241'	254 00 0 11 000001 		JRST	1(TLINK)	;AND RETURN
   325
   326	400242'	261 01 0 01 777777 	CVS.N1:	PUSH	STACK,-1(STACK)	;SAVE THESE FOR LATER
   327	400243'	261 01 0 01 777777 		PUSH	STACK,-1(STACK)
   328	400244'	265 15 0 00 000000*		JSP	QLINK,CVTPTR##	;CONVERT TO POINTER
   329	400245'	000000	000000			  0			;NO BASE
   330	400246'	001 17 0 00 000000 		ERROR	15		;ERROR?
   331
   332	400247'	202 00 0 00 400204*		MOVEM	Z,IGNOQ		;SAVE THIS
   333	400250'	550 13 0 01 000000 		HRRZ	T3,(STACK)	;GET LENGTH OF STRING
   334	400251'	400 15 0 00 000	CLEAR	Q1,		;ACCUMULATE NUMBER IN Q1
   335	400252'	361 13 0 11 000001 	CVSN99: SOJL	T3,1(TLINK)	; DECREMENT COUNT
   336	400253'	134 14 0 00 400247*		ILDB	T4,IGNOQ	;GET A CHARACTER
   337	400254'	306 14 0 00 000040 		CAIN	T4," "		; IGNORE ...
   338	400255'	254 00 0 00 400252'		JRST	CVSN99		; BLANKS
   339	400256'	306 14 0 00 000053 		CAIN	T4,"+"		;PLUS SIGN?
   340	400257'	254 00 0 00 400263'		JRST	CVS.N0		;YES -- IGNORE IT
   341	400260'	302 14 0 00 000055 		CAIE	T4,"-"		;MINUS?
   342	400261'	254 00 0 00 400266'		JRST	CVS.N3		;NO -- SEE IF REAL LIVE NUMBER
   343	400262'	660 12 0 00 400000 		TRO	T2,F..NEG	;SET NEGATIVE FLAG
   344
   345					;MAIN LOOP
   346					;T3 CONTAINS NUMBER OF CHARS LEFT IN STRING
   347					;T4 CONTAINS CURRENT CHARACTER
   348					;Q1 CONTAINS ACCUMULATED NUMBER
   349
   350	400263'	323 13 0 11 000000 	CVS.N0:	JUMPLE	T3,(TLINK)	;[133] Check if only '+' or '-'
   351	400264'	361 13 0 11 000001 	CVS.N2:	SOJL	T3,1(TLINK)	;SOS COUNT AND RETURN IF DONE
   352	400265'	134 14 0 00 400253*		ILDB	T4,IGNOQ	;GET THE NEXT CHARACTER
   353	400266'	301 14 0 00 000060 	CVS.N3:	CAIL	T4,"0"		;CHECK FOR VALIDITY
   354	400267'	303 14 0 00 000071 		CAILE	T4,"9"		;UPPER AND LOWER BOUND
   355	400270'	254 00 0 00 400275'		JRST	NOTNUM		;NOT A NUMBER
   356
SNOCVT - Datatype Conversion Routines  %5(247)	MACRO %53B(1156)-1 21:51 14-Mar-88 Page 12
SNOCVT	MAC	13-Oct-66 22:18		DATATYPE CONVERSIONS

   357
   358	400271'	650 14 0 00 400664'	CVS.N5:	TDC	T4,[233000,,60]	;DIDDLE SOME BITS AND SCALE
   359	400272'	165 15 0 00 204500 		FMPRI	Q1,204500	;MULTIPLY BY 10.0
   360	400273'	144 15 0 00 000014 		FADR	Q1,T4		;ADD IN
   361	400274'	254 00 0 00 400264'		JRST	CVS.N2		;AND GO BACK FOR MORE
   362
   363	400275'	602 12 0 00 100000 	NOTNUM:	TRNE	T2,F..ING	;STRICTLY INTEGER?
   364	400276'	254 00 0 11 000000 		JRST	0(TLINK)	;YES LOSE
   365	400277'	400 16 0 00 000000 		CLEAR	Q2,		;COUNTER FOR EXPONENT
   366	400300'	302 14 0 00 000104 		CAIE	T4,"D"		;[274] ALLOW A D FOR EXPONENT
   367	400301'	306 14 0 00 000105 		CAIN	T4,"E"		;EXPONENT?
   368	400302'	254 00 0 00 400320'		JRST	CVS.N8		;YES GO HANDLE IT
   369	400303'	302 14 0 00 000056 		CAIE	T4,"."		;POINT?
   370	400304'	254 00 0 11 000000 		JRST	0(TLINK)	;NO, MUST BE ILLEGAL
   371
   372					;NOW PICK UP FRACTIONAL PART
   373					;Q2 COUNTS POWERS OF TEN
   374
   375	400305'	660 12 0 00 200000 	CVS.N6:	TRO	T2,F..DEC	;FLAG DECIMAL POINT
   376	400306'	361 13 0 00 400353'	CVS.N7:	SOJL	T3,CVS.NH	;ANY MORE CHARACTERS?
   377	400307'	134 14 0 00 400265*		ILDB	T4,IGNOQ	;YUP -- GET ONE
   378	400310'	301 14 0 00 000060 		CAIL	T4,"0"		;MAKE SURE ITS IN RANGE
   379	400311'	303 14 0 00 000071 		CAILE	T4,"9"
   380	400312'	254 00 0 00 400320'		JRST	CVS.N8		;ITS NOT -- ONLY THING LEFT IS 'E'
   381	400313'	650 14 0 00 400664'		TDC	T4,[233000,,60]	;DO SOME DIDDLING
   382	400314'	165 15 0 00 204500 		FMPRI	Q1,204500	;SHIFT CORRECTLY
   383	400315'	144 15 0 00 000014 		FADR	Q1,T4		;ADD IN
   384	400316'	360 16 0 00 000000 		SOJ	Q2,		;ONE LESS POWER OF TEN
   385	400317'	254 00 0 00 400306'		JRST	CVS.N7		;GO BACK FOR ANOTHER
   386
SNOCVT - Datatype Conversion Routines  %5(247)	MACRO %53B(1156)-1 21:51 14-Mar-88 Page 13
SNOCVT	MAC	13-Oct-66 22:18		DATATYPE CONVERSIONS

   387
   388					;HERE WE HANDLE "E"
   389
   390	400320'	302 14 0 00 000105 	CVS.N8:	CAIE	T4,"E"		;IS IT E?
   391	400321'	306 14 0 00 000104 		 CAIN	T4,"D"		;[247] D exponent ?
   392	400322'	334 00 0 00 000000 		  SKIPA			;[247] We have an exponent
   393	400323'	254 00 0 11 000000 		JRST	0(TLINK)	;NO -- ERROR
   394	400324'	202 16 0 00 400140*		MOVEM	Q2,CVSTO1	;SAVE PREVIOUS SCALE FACTOR
   395	400325'	400 16 0 00 000000 		CLEAR	Q2,		;AND CLEAR FOR NEW ONE
   396	400326'	361 13 0 11 000000 		SOJL	T3,0(TLINK)	;DECR COUNT
   397	400327'	134 14 0 00 400307*		ILDB	T4,IGNOQ	;AND GET ANOTHER CHAR.
   398	400330'	302 14 0 00 000055 		CAIE	T4,"-"		;MINUS SIGN?
   399	400331'	254 00 0 00 400334'		JRST	CVS.ND		;NO, TRY PLUS
   400	400332'	660 12 0 00 040000 		TRO	T2,F..NEX	;YES
   401	400333'	254 00 0 00 400336'		JRST	CVS.NE		;AND GO PROCESS NUMBER
   402	400334'	302 14 0 00 000053 	CVS.ND:	CAIE	T4,"+"		;NO, PLUS SIGN?
   403	400335'	254 00 0 00 400342'		JRST	CVS.N9		;NO -- HOPE ITS A NUMBER
   404	400336'	361 13 0 11 000000 	CVS.NE:	SOJL	T3,0(TLINK)	;DECR. COUNT
   405	400337'	334 00 0 00 000000 		SKIPA
   406
   407	400340'	361 13 0 00 400350'	CVS.NF:	SOJL	T3,CVS.NG	;IF WE'RE DONE, GO SCALE
   408	400341'	134 14 0 00 400327*		ILDB	T4,IGNOQ	;GET ANOTHER CHAR
   409	400342'	301 14 0 00 000060 	CVS.N9:	CAIL	T4,"0"		;MAKE SURE ITS A NUMBER
   410	400343'	303 14 0 00 000071 		CAILE	T4,"9"
   411	400344'	254 00 0 11 000000 		JRST	0(TLINK)	;ITS NOT!!
   412	400345'	221 16 0 00 000012 		IMULI	Q2,12		;SHIFT TOTAL
   413	400346'	271 16 0 14 777720 		ADDI	Q2,-"0"(T4)	;ADD IN NEW NUMBER
   414	400347'	254 00 0 00 400340'		JRST	CVS.NF		;AND LOOP FOR ANOTHER
   415
   416	400350'	602 12 0 00 040000 	CVS.NG:	TRNE	T2,F..NEX	;NEGATIVE EXPONENT?
   417	400351'	213 00 0 00 000016 		MOVNS	Q2		;YES NEGATE IT
   418	400352'	270 16 0 00 400324*		ADD	Q2,CVSTO1	;ADD PREVIOUS SCALE FACTOR
   419
   420	400353'	255 17 0 00 400354'	CVS.NH:	JFCL	17,.+1		;CLEAR ALL FLAGS
   421	400354'	201 17 0 00 000001 		MOVEI	Q3,1		;SETUP INDEX TO PWRTBL
   422	400355'	325 16 0 00 400365'		JUMPGE	Q2,CVS.NP	;GO HANDLE POSITIVE SCALE
   423	400356'	217 00 0 00 000016 		MOVMS	Q2		;GET MAGNITUDE OF EXP
   424
   425					;HERE HANDLE NEGATIVE SCALE FACTORS
   426
   427	400357'	322 16 0 11 000001 	CVS.NN:	JUMPE	Q2,1(TLINK)	;EXP = 0 MEANS DONE
   428	400360'	602 16 0 00 000001 		TRNE	Q2,1		;IS LOW-ORDER BIT 1?
   429	400361'	174 15 0 17 400634'		FDVR	Q1,PWRTBL(Q3)	;YES DO DIVIDE
   430	400362'	255 10 0 11 000000 		JOV	0(TLINK)	;OVERFLOW MEANS ERROR
   431	400363'	242 16 0 00 777777 		LSH	Q2,-1		;SHIFT EXPONENT
   432	400364'	344 17 0 00 400357'		AOJA	Q3,CVS.NN	;ADD TO INDEX AND LOOP
   433
   434					;HERE HANDLE POSITIVE SCALE FACTORS
   435	400365'	322 16 0 11 000001 	CVS.NP:	JUMPE	Q2,1(TLINK)	;0 MEANS DONE
   436	400366'	602 16 0 00 000001 		TRNE	Q2,1		;IF LOW-ORDER BIT IS 1
   437	400367'	164 15 0 17 400634'		FMPR	Q1,PWRTBL(Q3)	;THEN MULT.
   438	400370'	255 10 0 11 000000 		JOV	0(TLINK)	;FAIL ON OVERFLOW
   439	400371'	242 16 0 00 777777 		LSH	Q2,-1		;SHIFT EXPONENT
   440	400372'	344 17 0 00 400365'		AOJA	Q3,CVS.NP	;AND CONTINUE LOOPING
   441
SNOCVT - Datatype Conversion Routines  %5(247)	MACRO %53B(1156)-1 21:51 14-Mar-88 Page 14
SNOCVT	MAC	13-Oct-66 22:18		DATATYPE CONVERSIONS

   442
   443					;CONVERT TO NAME
   444
   445	400373'	554 12 0 01 777777 	CVTNAM::HLRZ	T2,-1(STACK)	;GET DATATYPE OF ARG
   446	400374'	306 12 0 00 004011 		CAIN	T2,NDT		;ALREADY NAME?
   447	400375'	254 00 0 11 000001 		JRST	1(TLINK)	;YES JUST RETURN
   448	400376'	202 11 0 00 000000*		MOVEM	TLINK,CVSTOR##	;SAVE THE LINK
   449
   450	400377'	265 11 0 00 400035'	CVTNM1:	JSP	TLINK,CVTSTR	;CONVERT IT TO STRING
   451	400400'	254 00 1 00 400376*		JRST	@CVSTOR		;CAN'T BE DONE
   452
   453	400401'	200 00 0 01 777777 	CVTNM2:	MOVE	Z,-1(STACK)	;GET STRING DESCRIPTOR
   454	400402'	316 00 0 00 000000*		CAMN	Z,NULLST##	;NULL STRING?
   455	400403'	254 00 1 00 400400*		JRST	@CVSTOR		;NULL NAME LOSES!
   456
   457	400404'	265 11 0 00 000000*	CVTNM3:	JSP	TLINK,INSTAL##	;INSTALL IN SYM
   458	400405'	001 17 0 00 000000 		  ERROR	15		;SYSTEM ERROR
   459	400406'	505 00 0 00 004011 		HRLI	Z,NDT		;SET-UP NAME DESCRIPTOR
   460	400407'	261 01 0 00 000000 		PUSH	STACK,Z		;FIRST WORD ON STACK
   461	400410'	261 01 0 00 400665'		PUSH	STACK,[0]	;SECOND WORD ON STACK
   462	400411'	200 11 0 00 400403*		MOVE	TLINK,CVSTOR	;GET THE LINK BACK
   463	400412'	254 00 0 11 000001 		JRST	1(TLINK)	;AND RETURN
   464
SNOCVT - Datatype Conversion Routines  %5(247)	MACRO %53B(1156)-1 21:51 14-Mar-88 Page 15
SNOCVT	MAC	13-Oct-66 22:18		DATATYPE CONVERSIONS

   465
   466					;COMMON SUBROUTINES
   467
   468					;CVCHTP -- CHECKS DTATYPE OF ARGUMENT ON STACK
   469					;RETURN:	NO SKIP -- STRING
   470					;		1 SKIP  -- INTEGER
   471					;		2 SKIP  -- REAL
   472
   473					;IF ARGUMENT IS NDT, CONVERTS TO STRING AND TAKES STRING RETURN.
   474					;CALLED WITH QLINK,  IF DATATYPE IS ILLEGAL, TAKE FAIL RETURN
   475					;TO TOP LEVEL  'TLINK'
   476
   477	400413'	554 13 0 01 777777 	CVCHTP:	HLRZ	T3,-1(STACK)	;GET DATATYPE OF ARG
   478	400414'	306 13 0 00 004003 		CAIN	T3,SDT		;STRING?
   479	400415'	254 00 0 15 000000 		JRST	0(QLINK)	;YES NO SKIP
   480	400416'	306 13 0 00 002001 		CAIN	T3,IDT		;INTEGER?
   481	400417'	254 00 0 15 000001 		JRST	1(QLINK)	;SINGLE SKIP
   482	400420'	306 13 0 00 002002 		CAIN	T3,RDT		;REAL?
   483	400421'	254 00 0 15 000002 		JRST	2(QLINK)	;DOUBLE SKIP
   484	400422'	302 13 0 00 004011 		CAIE	T3,NDT		;NAME?
   485	400423'	254 00 0 11 000000 		JRST	0(TLINK)	;NO --FAIL BACK TO THE TOP
   486
   487					;HERE FALL THRU TO CONVERT NAME TO STRING
   488
   489	400424'	332 00 0 01 000000 	CVN.S:	SKIPE	0(STACK)	;NATURAL VARIABLE?
   490	400425'	254 00 0 11 000000 		JRST	0(TLINK)	;NO -- CANT CONVERT
   491	400426'	550 13 0 01 777777 		HRRZ	T3,-1(STACK)	;GET ADDRESS OF VBLOK
   492	400427'	200 14 0 13 000004 		MOVE	T4,VNAME(T3)	;GET NAME FIELD
   493	400430'	202 14 0 01 777777 		MOVEM	T4,-1(STACK)	;SAVE IT
   494	400431'	200 14 0 13 000005 		MOVE	T4,VNAME+1(T3)	;AND THE REST
   495	400432'	202 14 0 01 000000 		MOVEM	T4,0(STACK)	;AND SAVE THAT
   496	400433'	254 00 0 15 000000 		JRST	0(QLINK)	;AND RETURN
   497
   498
   499					;ROUTINE TO FLOAT THE INTEGER IN Q1
   500
   501	400434'	231 15 0 00 001000 	FLOAT:	IDIVI	Q1,1000		;DIVIDE BY 1000
   502	400435'	332 00 0 00 000015 		SKIPE	Q1		;DON'T SCALE A ZERO
   503	400436'	661 15 0 00 244000 		TLO	Q1,244000	;MULT BY 1000 AND AND SCALE FACTOR
   504	400437'	661 16 0 00 233000 		TLO	Q2,233000	;SCALE REMAINDER
   505	400440'	144 15 0 00 000016 		FADR	Q1,Q2		;RECOMBINE
   506	400441'	254 00 1 00 000000 		JRST	@Z		;AND RETURN
   507
SNOCVT - Datatype Conversion Routines  %5(247)	MACRO %53B(1156)-1 21:51 14-Mar-88 Page 16
SNOCVT	MAC	13-Oct-66 22:18		DATATYPE CONVERSIONS

   508
   509					;CVCHMG -- CHECKS MAGNITUDE OF ARGUMENT ON STACK.
   510					;RETURNS VALUE IN T4 (ABS VAL) AND SETS NEGATIVE FLAG IF
   511					;APPROPRITE.  SKIP RETURNS UNLESS VALUE IS ZERO.
   512
   513	400442'	336 14 0 01 000000 	CVCHMG:	SKIPN	T4,0(STACK)	;LOAD VALUE AND SKIP IF NON-ZERO
   514	400443'	254 00 0 15 000000 		  JRST	0(QLINK)	;ITS ZERO
   515	400444'	337 00 0 00 000014 		SKIPG	T4		;GT 0?
   516	400445'	660 12 0 00 400000 		TRO	T2,F..NEG	;NO -- SET NEGATIVE FLAG
   517	400446'	217 00 0 00 000014 		MOVMS	T4		;GET MAGNITUDE
   518	400447'	254 00 0 15 000001 		JRST	1(QLINK)	;AND RETURN
   519
   520					;PUTON AND PUTZR PUT THE RESULT ON THE STACK OVER THE
   521					;ARGUMENT, AND RETURN FROM WHENCE WE CAME.
   522
   523	400450'	334 14 0 00 000015 	PUTONQ:	SKIPA	T4,Q1		;FOR A NUMBER IN Q1
   524	400451'	400 14 0 00 000000 	PUTZR:	CLEAR	T4,		;ZERO VALUE
   525	400452'	602 12 0 00 400000 	PUTON:	TRNE	T2,F..NEG	;IS RESULT NEGATIVE?
   526	400453'	213 00 0 00 000014 		MOVNS	T4		;YES NEGATE IT
   527	400454'	512 12 0 01 777777 		HLLZM	T2,-1(STACK)	;FIRST WORD OF DECRIPTOR
   528	400455'	202 14 0 01 000000 		MOVEM	T4,0(STACK)	;SECOND WORD OF DESCRIPTOR
   529	400456'	254 00 0 11 000001 		JRST	1(TLINK)
   530
   531
   532					;CVGTBK -- ROUTINE TO SET-UP FOR CONVERT TO STRING ROUTINES.
   533					;ALLOCATES AN SBLOK SETS UP BYTE POINTER AND CHECKS MAGNITUDE.
   534
   535	400457'	202 15 0 00 000000#	CVGTBK:	MOVEM	QLINK,IGNOT+2	;SAVE THE LINK
   536	400460'	201 00 0 00 000005 		MOVEI	Z,5		;SEE IF WE NEED GARBAGE COLLECT
   537	400461'	265 15 0 00 000000*		JSP	QLINK,GCOLF##
   538	400462'	200 00 0 00 400666'		MOVE	Z,[SBLOK,,5]	;WE WANT A 5 WORD SBLOK
   539	400463'	202 00 0 02 000000 		MOVEM	Z,BTCODE&BLENG(SURF) ;SETUP HEADER
   540	400464'	402 00 0 02 000001 		CLEARM	GCFLD(SURF)	; MAKE GC HAPPY
   541	400465'	201 13 0 02 000000 		MOVEI	T3,(SURF)
   542	400466'	505 13 0 00 004003 		HRLI	T3,SDT		;SETUP DESCRIPTOR
   543	400467'	202 13 0 00 000000#		MOVEM	T3,IGNOT+1	;SAVE IT FOR LATER
   544	400470'	271 02 0 00 000005 		ADDI	SURF,5		;MOVE DOWN SURF
   545	400471'	271 13 0 00 000002 		ADDI	T3,LHDR		;GET RID OF LHDR OFFSET
   546	400472'	505 13 0 00 440700 		HRLI	T3,440700	;SETUP A BYTE POINTER
   547	400473'	202 13 0 00 400341*		MOVEM	T3,IGNOQ	;AND STORE IT
   548
   549	400474'	265 15 0 00 400442'	CVGTB1:	JSP	QLINK,CVCHMG	;CHECK MAGNITUDE
   550	400475'	254 00 0 00 400173'		  JRST	CVI.SZ		;PUT A ZERO ON THE STACK
   551	400476'	400 16 0 00 000000 		CLEAR	Q2,		;TO COUNT CHARACTERS
   552	400477'	201 17 0 00 000055 		MOVEI	Q3,"-"		;SET UP A NEGATIVE SIGN
   553	400500'	606 12 0 00 400000 		TRNN	T2,F..NEG	;IS IT NEGATIVE?
   554	400501'	254 00 1 00 000000#		JRST	@IGNOT+2	;NO -- JUST RETURN
   555	400502'	136 17 0 00 400473*		IDPB	Q3,IGNOQ	;DEPOSIT THE SIGN
   556	400503'	201 16 0 00 000001 		MOVEI	Q2,1		;ADD ONE TO COUNT
   557	400504'	254 00 1 00 000000#		JRST	@IGNOT+2	;AND RETURN
   558
SNOCVT - Datatype Conversion Routines  %5(247)	MACRO %53B(1156)-1 21:51 14-Mar-88 Page 17
SNOCVT	MAC	13-Oct-66 22:18		DATATYPE CONVERSIONS

   559
   560					SUBTTL	BUILT-INS AND UNARY OPERATORS
   561
   562	400505'	265 11 0 00 400373'	IND::	JSP	TLINK,CVTNAM	;CONVERT ARG TO NAME
   563	400506'	003 01 0 00 000021 		ERROR.	1,17		;NOT CONVERTIBLE
   564	400507'	201 05 0 00 064000 		MOVEI	P2,VAR		;VARIABLE DESCRIPTOR
   565	400510'	506 05 0 01 777777 		HRLM	P2,-1(STACK)	;PUT IT ON STACK
   566	400511'	254 00 0 04 000001 		JRST	1(PLINK)
   567
   568
   569	400512'	554 05 0 01 777777 	NAME::	HLRZ	P2,-1(STACK)	;GET TYPE
   570	400513'	302 05 0 00 064000 		CAIE	P2,VAR		;VAR?
   571	400514'	254 00 0 00 400520'		JRST	NAME1		; TRY SOMETHING ELS
   572	400515'	201 05 0 00 004011 		MOVEI	P2,NDT
   573	400516'	506 05 0 01 777777 		HRLM	P2,-1(STACK)	;ITS NOW A VARIABLE
   574	400517'	254 00 0 04 000001 		JRST	1(PLINK)
   575
   576						 ; DO THE TRAPPED VARIABLE THING
   577
   578	400520'	302 05 0 00 034000 	NAME1:	CAIE	P2,TVAR		; TRAPPED VAR?
   579	400521'	001 16 0 00 000010 		ERROR	14,8		; BAD VALUE
   580
   581	400522'	200 05 0 01 000000 		MOVE	P2,0(STACK)	; LOAD ADDRESS
   582	400523'	265 06 0 05 000001 		JSP	SLINK,1(P2)	; CALL 1+
   583	400524'	254 00 0 00 000000*		JRST	FRET1##		; PASS FAIL BACK
   584	400525'	254 00 0 00 400512'		JRST	NAME		; TRY AGAIN
   585
   586
   587
   588	400526'	302 00 0 00 000003 	CNVRT::	CAIE	Z,3		; 3 ARGUMENTS ?
   589	400527'	254 00 0 00 400535'		JRST	CNVRT1		; NOPE, BETTER BE TWO
   590
   591	400530'	200 06 0 01 777777 		MOVE	S1,-1(STACK)	; BETTER CHECK FOR THE...
   592	400531'	312 06 0 00 400402*		CAME	S1,NULLST	; NULL STRING JUST IN CASE
   593	400532'	254 00 0 00 400565'		JRST	CVT3		; NON-NULL 3RD ARGUMENT, GO HANDLE IT
   594	400533'	274 01 0 00 000000*		SUB	STACK,XWD22##	; PRUNE NULL STRING OFF THE STACK
   595	400534'	275 00 0 00 000001 		SUBI	Z,1		; DECREMENT NUMBER OF ARGUMENTS
   596
   597	400535'	306 00 0 00 000002 	CNVRT1:	CAIN	Z,2		; BETTER HAVE 2 ARGUMENTS NOW
   598
   599	400536'	265 11 0 00 400373'		JSP	TLINK,CVTNAM	;CONVERT IT TO NAME
   600	400537'	003 01 0 00 000072 		ERROR.	1,58		;GUESS ITS AN ERROR
   601	400540'	550 06 0 01 777777 		HRRZ	S1,-1(STACK)	;GET ADDRESS OF VBLOK
   602	400541'	554 06 0 06 000003 		HLRZ	S1,VBDT(S1)	;GET ASSOCIATED DATATYPE
   603	400542'	322 06 0 00 400610'		JUMPE	S1,E13.68	;0 IS NOT LEGAL
   604	400543'	274 01 0 00 400533*		SUB	STACK,XWD22##	;GET RID OF SEC ARG
   605	400544'	622 06 0 00 002000 		TRZE	S1,NUMDC	;NUMERIC?
   606	400545'	254 00 0 00 400553'		JRST	CNVNUM		;YES GOTO ROUTINE
   607	400546'	405 06 0 00 000077 		ANDI	S1,DTNUM	;AND DOWN TO DATATYPE
   608	400547'	305 06 0 00 000012 		CAIGE	S1,MAXDTN	;IS IT LEGAL?
   609	400550'	336 00 0 00 000006 		SKIPN	S1		;0 ISN'T
   610	400551'	254 00 0 00 400610'		JRST	E13.68		;NO ITS NOT
   611	400552'	254 00 0 00 400556'		JRST	CNVNM1		;GO DISPATCH
   612
   613	400553'	405 06 0 00 000077 	CNVNUM:	ANDI	S1,DTNUM	;AND DOWN TO DATATYPE
SNOCVT - Datatype Conversion Routines  %5(247)	MACRO %53B(1156)-1 21:51 14-Mar-88 Page 17-1
SNOCVT	MAC	13-Oct-66 22:18		BUILT-INS AND UNARY OPERATORS

   614	400554'	303 06 0 00 000002 		CAILE	S1,2		;LEGAL TYPE?
   615	400555'	254 00 0 00 400524*		JRST	FRET1##		;NO!!
   616	400556'	202 04 0 00 000000*	CNVNM1:	MOVEM	PLINK,CVSTO3##	;SAVE THIS
   617	400557'	256 00 0 06 400622'		XCT	NUMCVT(S1)	;DISPATCH TO ROUTINE
   618	400560'	254 00 0 00 400563'		JRST	CNVNM2		;ERROR
   619	400561'	200 04 0 00 400556*		MOVE	PLINK,CVSTO3	;GET THE LINK BACK
   620	400562'	254 00 0 04 000001 		JRST	1(PLINK)	;AND RETURN
   621
   622	400563'	200 04 0 00 400561*	CNVNM2:	MOVE	PLINK,CVSTO3	;GET THE LINK BACK
   623	400564'	254 00 0 00 400555*		JRST	FRET1##		;AND TAKE FAIL RETURN
   624
   625						 ; EXTENDED CONVERT (3 ARGUMENT VARIETY)
   626
   627	400565'	265 06 0 00 000000*	CVT3:	JSP	SLINK,CVTFMT##	; GET THE FORMAT
   628	400566'	202 00 0 00 000000*		MOVEM	Z,IGNOP##		; AND SAVE IT
   629
   630	400567'	265 11 0 00 400373'		JSP	TLINK,CVTNAM	; GET VB
   631	400570'	003 01 0 00 000072 		ERROR.	1,58		;
   632	400571'	274 01 0 00 400543*		SUB	STACK,XWD22##	; POP STACK
   633	400572'	550 06 0 01 000001 		HRRZ	S1,1(STACK)	; ADDRESS OF VB
   634
   635	400573'	554 07 0 06 000003 		HLRZ	S2,VBDT(S1)	; LOAD TYPE
   636	400574'	302 07 0 00 004003 		CAIE	S2,SDT		; STRING?
   637	400575'	254 00 0 00 400606'		JRST	CVT3.1		; NO - BRANCH
   638
   639	400576'	265 11 0 00 400207'		JSP	TLINK,CVTNUM	; MAKE FIRST ARG NUMERIC
   640	400577'	003 01 0 00 000120 		ERROR.	1,80		; NO? GIVE ERROR
   641	400600'	262 01 0 00 000012 		POP	STACK,T2	; RETAIN NUMBER
   642	400601'	262 01 0 00 000000 		POP	STACK,Z		; GET RID OF DT
   643
   644	400602'	200 00 0 00 400566*		MOVE	Z,IGNOP##		; RELOAD FORMAT
   645	400603'	265 11 0 00 000000*		JSP	TLINK,CVTWD##	; GET THE STRING
   646	400604'	254 00 0 04 000000 		JRST	0(PLINK)	; FAIL IF CAN'T
   647	400605'	254 00 0 04 000001 		JRST	1(PLINK)	; SUCCEED IF CAN
   648
   649						 ; HERE TO CONVERT TO WORD
   650
   651	400606'	602 07 0 00 002000 	CVT3.1:	TRNE	S2,NUMDC	; IF NON NUMERIC
   652	400607'	306 07 0 00 002000 		CAIN	S2,NUMDC	; OR IF 'NUMERIC'
   653	400610'	001 15 0 00 000104 	E13.68:	ERROR	13,68		; INDICATE ERROR
   654
   655	400611'	265 11 0 00 400035'		JSP	TLINK,CVTSTR	; INSIST ON A STRING
   656	400612'	003 01 0 00 000121 		ERROR.	1,81		; OR FAIL
   657
   658	400613'	200 00 0 00 400602*		MOVE	Z,IGNOP##		; RELOAD FORMAT
   659	400614'	265 11 0 00 000000*		JSP	TLINK,CVTDW##	; GET THE WORD
   660	400615'	254 00 0 04 000000 		JRST	0(PLINK)	; OR FAIL
   661
   662	400616'	204 07 0 00 000007 		MOVS	S2,S2		; GET TYPE OF RESULT
   663	400617'	261 01 0 00 000007 		PUSH	STACK,S2	; PUSH ONTO STACK
   664	400620'	261 01 0 00 000000 		PUSH	STACK,Z		; PUSH RETURNED VALUE
   665	400621'	254 00 0 04 000001 		JRST	1(PLINK)	; AND RETURN
   666
SNOCVT - Datatype Conversion Routines  %5(247)	MACRO %53B(1156)-1 21:51 14-Mar-88 Page 18
SNOCVT	MAC	13-Oct-66 22:18		BUILT-INS AND UNARY OPERATORS

   667
   668					;DISPATCH TABLE FOR CONVERT BUILT IN
   669
   670	400622'	265 11 0 00 400207'	NUMCVT:	JSP	TLINK,CVTNUM
   671	400623'	265 11 0 00 400002'		JSP	TLINK,CVTINT
   672	400624'	265 11 0 00 400023'		JSP	TLINK,CVTRL
   673	400625'	265 11 0 00 400035'	STRCVT:	JSP	TLINK,CVTSTR
   674	400626'	265 11 0 00 000000*		JSP	TLINK,CVTPAT##
   675	400627'	265 06 0 00 000000*		JSP	SLINK,CVTARY##
   676	400630'	265 04 0 00 000000*		JSP	PLINK,CVTEXP##
   677	400631'	265 04 0 00 000000*		JSP	PLINK,CODE##
   678	400632'	265 06 0 00 000000*		JSP	SLINK,CVTTBL##
   679	400633'	265 11 0 00 400373'		JSP	TLINK,CVTNAM
   680
   681
   682					;POWERS OF TEN
   683
   684	400634'	201400	000000		PWRTBL:	OCT	201400000000	;1.E0
   685	400635'	204500	000000			OCT	204500000000	;1.E1
   686	400636'	207620	000000			OCT	207620000000	;1.E2
   687	400637'	216470	400000			OCT	216470400000	;1.E4
   688	400640'	233575	360400			OCT	233575360400	;1.E8
   689	400641'	266434	157116			OCT	266434157116	;1.E16
   690	400642'	353473	426555			OCT	353473426555	;1.E32
   691
   692
   693					;ROUNDING TABLE
   694
   695			400642'		RNDTBL==.-1
   696	400643'	014631	463140			OCT	14631463140	;1 DECIMAL PLACE
   697	400644'	001217	270240			OCT	1217270240	;2
   698	400645'	000101	422340			OCT	101422340	;3
   699	400646'	000006	433340			OCT	6433340		;4
   700	400647'	000000	517420			OCT	517420		;5
   701	400650'	000000	041440			OCT	41440		;6
   702	400651'	000000	003260			OCT	3260		;7
   703	400652'	000000	000260			OCT	260		;8
   704
   705
   706						END

NO ERRORS DETECTED

HI-SEG. BREAK IS 400667
PROGRAM BREAK IS 000000
CPU TIME USED 04:34.906

42P CORE USED
SNOCVT - Datatype Conversion Routines  %5(247)	MACRO %53B(1156)-1 21:51 14-Mar-88 Page S-1
SNOCVT	MAC	13-Oct-66 22:18		SYMBOL TABLE

BLENG		000000	sin	CVS.NP		400365'		INSTAL		400404'	ext
BTCODE		000000	sin	CVSN99		400252'		LHDR		000002	sin
CNVNM1		400556'		CVSTO1		400352'	ext	MAXDEC		000010	spd
CNVNM2		400563'		CVSTO2		400061'	ext	MAXDIG		000010	spd
CNVNUM		400553'		CVSTO3		400563'	ext	MAXDTN		000012	sin
CNVRT		400526'	int	CVSTOR		400411'	ext	MINDEC		000002	spd
CNVRT1		400535'		CVT3		400565'		NAME		400512'	int
CODE		400631'	ext	CVT3.1		400606'		NAME1		400520'
CVCHMG		400442'		CVTARY		400627'	ext	NDT		004011	sin
CVCHTP		400413'		CVTASC	416552	400000	spd	NOTNUM		400275'
CVGTB1		400474'		CVTDW		400614'	ext	NULLST		400531'	ext
CVGTBK		400457'		CVTEDT		000247	spd	NUMCVT		400622'
CVI.R		400030'		CVTEXP		400630'	ext	NUMDC		002000	sin
CVI.R1		400032'		CVTFMT		400565'	ext	P2		000005
CVI.S		400154'		CVTING		400000'	int	PLINK		000004
CVI.S2		400155'		CVTINT		400002'	int	PUTON		400452'
CVI.S3		400156'		CVTMIN		000000	spd	PUTONQ		400450'
CVI.SL		400162'		CVTNAM		400373'	int	PUTZR		400451'
CVI.SZ		400173'		CVTNM1		400377'		PWRTBL		400634'
CVN.S		400424'		CVTNM2		400401'		Q1		000015
CVR.I		400006'		CVTNM3		400404'		Q2		000016
CVR.I1		400010'		CVTNUM		400207'	int	Q3		000017
CVR.I2		400015'		CVTPAT		400626'	ext	QLINK		000015
CVR.S		400041'		CVTPTR		400244'	ext	RDT		002002	sin
CVR.S1		400042'		CVTRL		400023'	int	RNDTBL		400642'	spd
CVR.S2		400051'		CVTSIX	436664	000000	spd	S1		000006
CVR.S3		400062'		CVTSTR		400035'	int	S2		000007
CVR.S4		400067'		CVTTBL		400632'	ext	SBLOK		000403	sin
CVR.S5		400074'		CVTVER		000005	spd	SDT		004003	sin
CVR.S6		400077'		CVTWD		400603'	ext	SLINK		000006
CVR.S7		400104'		CVTWHO		000000	spd	STACK		000001
CVR.S8		400126'		DTNUM		000077	sin	STRCVT		400625'
CVR.S9		400140'		E1$17		000000	sin	SURF		000002
CVR.SL		400134'		E1$58		000000	sin	T2		000012
CVR.SX		400122'		E1$80		000000	sin	T3		000013
CVS.M		400214'		E1$81		000000	sin	T4		000014
CVS.M1		400221'		E13$68		000000	sin	TLINK		000011
CVS.M2		400226'		E13.68		400610'		TVAR		034000	sin
CVS.M3		400231'		E14$8		000000	sin	VAR		064000	sin
CVS.N		400235'		E15$		000000	sin	VBDT		000003	sin
CVS.N0		400263'		ERR	001000	000000		VNAME		000004	sin
CVS.N1		400242'		ERR.	003000	000000		XWD22		400571'	ext
CVS.N2		400264'		F..DEC		200000	spd	Z		000000
CVS.N3		400266'		F..ING		100000	spd	%%MACT	000200	000025	spd
CVS.N5		400271'		F..NEG		400000	spd	%%SNOP	000500	000305	spd
CVS.N6		400305'		F..NEX		040000	spd
CVS.N7		400306'		FLOAT		400434'
CVS.N8		400320'		FRET1		400564'	ext
CVS.N9		400342'		GCFLD		000001	sin
CVS.ND		400334'		GCOLF		400461'	ext
CVS.NE		400336'		IDT		002001	sin
CVS.NF		400340'		IGNOP		400613'	ext
CVS.NG		400350'		IGNOQ		400502'	ext
CVS.NH		400353'		IGNOT		400217'	ext
CVS.NN		400357'		IND		400505'	int

SNOCVT - Datatype Conversion Routines  %5(247)	MACRO %53B(1156)-1 21:51 14-Mar-88 Page 1
SNOCVT	MAC	13-Oct-66 22:18		L. SAMBERG/LSS/DRH/MP/RCM/VB		15-JUN-76


Symbol cross reference

BLENG	   539
BTCODE	   539
CNVNM1	   611	   616#
CNVNM2	   618	   622#
CNVNUM	   606	   613#
CNVRT	   588#
CNVRT1	   589	   597#
CODE	   677
CVCHMG	   112	   139	   513#	   549
CVCHTP	   106	   132	   150	   288	   477#
CVGTB1	   549#
CVGTBK	   156	   247	   535#
CVI.R	   134	   139#
CVI.R1	   142#
CVI.S	   152	   247#
CVI.S2	   249#
CVI.S3	   232	   242	   251#	   277	   283
CVI.SL	   197	   241	   249	   260#	   264
CVI.SZ	   272#	   550
CVN.S	   489#
CVR.I	   112#
CVR.I1	   115#	   300	   313
CVR.I2	   118	   121#
CVR.S	   156#
CVR.S1	   158#
CVR.S2	   162	   166#
CVR.S3	   176#	   180
CVR.S4	   177	   182#	   186
CVR.S5	   183	   188#
CVR.S6	   164	   193#
CVR.S7	   200#
CVR.S8	   220#	   229
CVR.S9	   222	   224	   231#
CVR.SL	   226#
CVR.SX	   214#	   215
CVS.M	   107	   133	   289	   293#
CVS.M1	   299#
CVS.M2	   306#
CVS.M3	   307	   310#
CVS.N	   294	   320#
CVS.N0	   340	   350#
CVS.N1	   322	   326#
CVS.N2	   351#	   361
CVS.N3	   342	   353#
CVS.N5	   358#
CVS.N6	   375#
CVS.N7	   376#	   385
CVS.N8	   368	   380	   390#
CVS.N9	   403	   409#
CVS.ND	   399	   402#
SNOCVT - Datatype Conversion Routines  %5(247)	MACRO %53B(1156)-1 21:51 14-Mar-88 Page 1
SNOCVT	MAC	13-Oct-66 22:18		L. SAMBERG/LSS/DRH/MP/RCM/VB		15-JUN-76


Symbol cross reference

CVS.NE	   401	   404#
CVS.NF	   407#	   414
CVS.NG	   407	   416#
CVS.NH	   172	   376	   420#
CVS.NN	   427#	   432
CVS.NP	   422	   435#	   440
CVSN99	   335#	   338
CVSTO1	   159	   166	   188	   231	   394	   418
CVSTO2	   169	   175
CVSTO3	   616	   619	   622
CVSTOR	   448	   451	   455	   462
CVT3	   593	   627#
CVT3.1	   637	   651#
CVTARY	   675
CVTASC	    29#
CVTDW	   659
CVTEDT	    22#
CVTEXP	   676
CVTFMT	   627
CVTING	   100#
CVTINT	   105#	   671
CVTMIN	    21#
CVTNAM	   445#	   562	   599	   630	   679
CVTNM1	   450#
CVTNM2	   453#
CVTNM3	   457#
CVTNUM	   287#	   639	   670
CVTPAT	   674
CVTPTR	   328
CVTRL	   131#	   672
CVTSIX	    28#
CVTSTR	   149#	   450	   655	   673
CVTTBL	   678
CVTVER	    20#
CVTWD	   645
CVTWHO	    23#
DTNUM	   607	   613
E1$17	   563#
E1$58	   600#	   631#
E1$80	   640#
E1$81	   656#
E13$68	   653#
E13.68	   603	   610	   653#
E14$8	   579#
E15$	   173#	   330#	   458#
F..DEC	    81#	   306	   375
F..ING	    82#	   101	   363
F..NEG	    80#	   202	   343	   516	   525	   553
F..NEX	    83#	   400	   416
FLOAT	   143	   501#
SNOCVT - Datatype Conversion Routines  %5(247)	MACRO %53B(1156)-1 21:51 14-Mar-88 Page 1
SNOCVT	MAC	13-Oct-66 22:18		L. SAMBERG/LSS/DRH/MP/RCM/VB		15-JUN-76


Symbol cross reference

FRET1	   583	   615	   623
GCFLD	   540
GCOLF	   537
IDT	   100	   105	   299	   312	   480
IGNOP	   628	   644	   658
IGNOQ	   218	   228	   234	   238	   267	   273	   279	   281	   332	   336	   352	   377	   397	   408
	   547	   555
IGNOT	   171	   190	   196	   213	   252	   293	   295	   296	   535	   543	   554	   557
IND	   562#
INSTAL	   457
LHDR	   545
MAXDEC	    92	   204	   205
MAXDIG	    91	   200
MAXDTN	   608
MINDEC	    93	   206	   207
NAME	   569#	   584
NAME1	   571	   578#
NDT	   446	   459	   484	   572
NOTNUM	   355	   363#
NULLST	   454	   592
NUMCVT	   617	   670#
NUMDC	   299	   302	   605	   651	   652
P2	   564	   565	   569	   570	   572	   573	   578	   581	   582
PLINK	   566	   574	   616	   619	   620	   622	   646	   647	   660	   665	   676	   677
PUTON	   126	   303	   308	   311	   525#
PUTONQ	   144	   523#
PUTZR	   113	   119	   140	   524#
PWRTBL	   429	   437	   684#
Q1	   121	   124	   142	   160	   176	   178	   182	   184	   189	   193	   196	   200	   201	   203
	   204	   205	   206	   207	   208	   209	   210	   211	   213	   214	   220	   223	   231	   232
	   236	   240	   297	   323	   334	   359	   360	   382	   383	   429	   437	   501	   502	   503
	   505	   523
Q2	   166	   167	   168	   169	   170	   175	   179	   185	   188	   201	   208	   217	   229	   239
	   251	   252	   253	   262	   274	   282	   365	   384	   394	   395	   412	   413	   417	   418
	   422	   423	   427	   428	   431	   435	   436	   439	   504	   505	   551	   556
Q3	   421	   429	   432	   437	   440	   552	   555
QLINK	   106	   112	   132	   139	   150	   156	   247	   288	   328	   479	   481	   483	   496	   514
	   518	   535	   537	   549
RDT	   131	   276	   302	   305	   482
RNDTBL	   211	   695#
S1	   591	   592	   601	   602	   603	   605	   607	   608	   609	   613	   614	   617	   633	   635
S2	   635	   636	   651	   652	   662	   663
SBLOK	   538
SDT	   149	   478	   542	   636
SLINK	   582	   627	   675	   678
STACK	   197	   241	   249	   251	   253	   261	   264	   265	   268	   275	   320	   326	   327	   333
	   445	   453	   460	   461	   477	   489	   491	   493	   495	   513	   527	   528	   565	   569
	   573	   581	   591	   594	   601	   604	   632	   633	   641	   642	   663	   664
STRCVT	   673#
SURF	   539	   540	   541	   544
SNOCVT - Datatype Conversion Routines  %5(247)	MACRO %53B(1156)-1 21:51 14-Mar-88 Page 1
SNOCVT	MAC	13-Oct-66 22:18		L. SAMBERG/LSS/DRH/MP/RCM/VB		15-JUN-76


Symbol cross reference

T2	   100	   101	   105	   131	   149	   202	   210	   223	   225	   287	   299	   302	   305	   306
	   312	   343	   363	   375	   400	   416	   445	   446	   516	   525	   527	   553	   641
T3	   123	   124	   125	   158	   161	   163	   167	   189	   195	   275	   276	   320	   321	   333
	   335	   350	   351	   376	   396	   404	   407	   477	   478	   480	   482	   484	   491	   492
	   494	   541	   542	   543	   545	   546	   547
T4	   115	   117	   121	   122	   125	   142	   158	   160	   194	   195	   216	   218	   220	   221
	   226	   227	   228	   233	   234	   235	   237	   238	   240	   260	   261	   263	   265	   266
	   267	   272	   273	   278	   279	   280	   281	   297	   310	   323	   336	   337	   339	   341
	   352	   353	   354	   358	   360	   366	   367	   369	   377	   378	   379	   381	   383	   390
	   391	   397	   398	   402	   408	   409	   410	   413	   492	   493	   494	   495	   513	   515
	   517	   523	   524	   526	   528
TLINK	   108	   116	   135	   151	   171	   172	   190	   254	   290	   291	   293	   294	   296	   324
	   335	   350	   351	   364	   370	   393	   396	   404	   411	   427	   430	   435	   438	   447
	   448	   450	   457	   462	   463	   485	   490	   529	   562	   599	   630	   639	   645	   655
	   659	   670	   671	   672	   673	   674	   679
TVAR	   578
VAR	   564	   570
VBDT	   602	   635
VNAME	   492	   494
XWD22	   594	   604	   632
Z	   143	   332	   453	   454	   459	   460	   506	   536	   538	   539	   588	   595	   597	   628
	   642	   644	   658	   664
SNOCVT - Datatype Conversion Routines  %5(247)	MACRO %53B(1156)-1 21:51 14-Mar-88 Page 1
SNOCVT	MAC	13-Oct-66 22:18		L. SAMBERG/LSS/DRH/MP/RCM/VB		15-JUN-76


Macro/Opdef cross reference

CVTPTX	    39
CVTTTL	    38
ERR	   173	   330	   458	   579	   653
ERR.	   563	   600	   631	   640	   656
ERROR	   173	   330	   458	   579	   653
ERROR.	   563	   600	   631	   640	   656
SHOW.	    35	    36
TITLE.	    27o1~á