SNODAT - Pure and Impure Data  %5(266)	MACRO %53B(1156)-1 21:52 14-Mar-88 Page 1
SNODAT	MAC	11-Jul-69 17:06		GIMPEL--MA355/JDS/DRH/MP/RCM/VB		16-JULY-76

     1						SUBTTL	GIMPEL--MA355/JDS/DRH/MP/RCM/VB		16-JULY-76
     2
     3					;COPYRIGHT (c) 1972,1973,1976,1977 STEVENS INSTITUTE OF TECHNOLOGY
     4					;HOBOKEN, NEW JERSEY, 07030.
     5					;ALL RIGHTS RESERVED.
     6
     7					  ;UNIVERSALS
     8
     9						SEARCH	JOBDAT		;JOB DATA AREA DEFINITIONS
    10						SEARCH	MACTEN		;DEC-10 MACROS
    11						SEARCH	UUOSYM		;TOPS-10 UUO SYMBOL DEFINITIONS
    12						SEARCH	SNOPRM		;SITBOL PARAMETER FILE
    13
    14					  ;DIRECTIVES
    15
    16						.DIREC	.OKOVL		;Don't care about overflows
    17						.DIREC	FLBLST		;LOSE SOME UNNEEDED LISTING
    18						.DIREC	.XTABM		;EXCLUDE TABS FROM MACRO CALLS
    19						SALL			;SUPPRESS MACRO EXPANSIONS
    20	400000'					TWOSEG	400K		;TWO SEGMENT CODE
    21
    22					 ;VERSION NUMBER
    23
    24			000005			DATVER==5		;MAJOR VERSION
    25			000000			DATMIN==0		;MINOR VERSION
    26			000266			DATEDT==266		;EDIT LEVEL
    27			000000			DATWHO==0		;CUSTOMER ARG
    28
    29					  ;TITLE
    30
    31						TITLE.	DAT,SNODAT,<Pure and Impure Data>
    32		444164	000000			DATSIX==SIXBIT /DAT/	; SNODAT ABBREVIATION IN SIXBIT
    33		422032	400000			DATASC==ASCIZ /DAT/	; SNODAT ABBREVIATION IN ASCII
    34						SALL
    35
    36
    37						DATTTL				; Title
    38						DATPTX				; PASS2 message
SNODAT - Pure and Impure Data  %5(266)	MACRO %53B(1156)-1 21:52 14-Mar-88 Page 2
SNODAT	MAC	11-Jul-69 17:06		Table of Contents

    39						SUBTTL	Table of Contents
    40
    41					;		Table of Contents for Pure and Impure Data
    42					;
    43					;
    44					;			   Section			      Page
    45					;   1. Table of Contents. . . . . . . . . . . . . . . . . . .    2
    46					;   2. REVISION HISTORY . . . . . . . . . . . . . . . . . . .    3
    47					;   3. PURE DATA
    48					;        3.1.   COMMON CODE . . . . . . . . . . . . . . . . .    4
    49					;        3.2.   &ALPHABET AND 1 CHAR. STRINGS . . . . . . . .    5
    50					;        3.3.   COMMON STRINGS. . . . . . . . . . . . . . . .    6
    51					;        3.4.   SYSTEM CHARACTER TABLE. . . . . . . . . . . .    7
    52					;        3.5.   MISC. PURE DATA . . . . . . . . . . . . . . .    8
    53					;   4. IMPURE DATA
    54					;        4.1.   MACROS. . . . . . . . . . . . . . . . . . . .    9
    55					;        4.2.   misc. from all modules. . . . . . . . . . . .   10
    56					;        4.3.   IMPURE KEYWORDS . . . . . . . . . . . . . . .   13
    57					;        4.4.   NONFLOATING NONRECURSIVE IMPURE DATA. . . . .   14
    58					;        4.5.   SAVE AREAS. . . . . . . . . . . . . . . . . .   16
    59					;        4.6.   DESCRIPTOR STORAGE. . . . . . . . . . . . . .   18
SNODAT - Pure and Impure Data  %5(266)	MACRO %53B(1156)-1 21:52 14-Mar-88 Page 3
SNODAT	MAC	11-Jul-69 17:06		REVISION HISTORY

    60						SUBTTL	REVISION HISTORY
    61
    62					COMMENT	\
    63					START OF VERSION 5.
    64					122	CLEAN-UP THE LISTINGS AND REARRANGE A LITTLE.
    65					124	ADD HOOKS FOR EXTERNAL FUNCTIONS
    66					131	ADD SUPPORT FOR SNODDT & PAV.
    67					145	Change the version number.
    68					156	Fix a problem with edit 124.
    69					167	Finish new error processing.
    70					170	Add new keywords (&ERRLEVEL, &ERRMSG, &ERRNAME)
    71					173	Change strings in SNODAT to upper & lower case
    72					204	Add &VERSION keyword.
    73					215	Add FTSINGLE, for one segment SITBOL
    74					236	Revise the format of the output listing.
    75					243	Add location to save the cpu type for EL file loading.
    76					253	ERROR SNOSSO SHOULD BE ABLE TO WORK (I.E. DON'T USE STACK WHEN YOU
    77						DON'T HAVE ANY.)
    78					255	Add a Low Segment version number.
    79					266	Add a lowseg loc and a error text for the error 15.
    80					\
SNODAT - Pure and Impure Data  %5(266)	MACRO %53B(1156)-1 21:52 14-Mar-88 Page 4
SNODAT	MAC	11-Jul-69 17:06		PURE DATA --  COMMON CODE

    81						SUBTTL	PURE DATA --  COMMON CODE
    82
    83					; The following are used almost every where in SITBOL, so why duplicate
    84					; the constants everywhere.
    85
    86	400000'	000002	000002		XWD22::	2,,2		;USED TO REMOVE STUFF FROM STACK
    87	400001'	000004	000004		XWD44::	4,,4		;USED TO REMOVE TWO ARGS FROM STACK
    88
    89					;	NORMAL RETURNING FROM A PRIMARY ROUTINE
    90
    91					IFN FTDDT,<
    92	400002'	274 01 0 00 400000'	RETNL3::SUB	STACK,XWD22	;BUMP STACK 1 DESCRIPTOR
    93					>
    94	400003'	274 01 0 00 400000'	RETNL2::SUB	STACK,XWD22		; BUMP STACK 1 DESCRIPTOR
    95	400004'	274 01 0 00 400000'	RETNL1::SUB	STACK,XWD22		; BUMP STACK 1 DESCRIPTOR
    96	400005'	261 01 0 00 401132'	RETNUL::PUSH	STACK,NULLST		; RETURN NULL STRING ...
    97	400006'	261 01 0 00 401133'		PUSH	STACK,NULLST+1		; FROM ...
    98	400007'	254 00 0 04 000001 		JRST	1(PLINK)		; PRIMARY ROUTINE
    99
   100					;	FAIL RETURNING FROM A PRIMARY ROUTINE
   101
   102	400010'	274 01 0 00 400000'	FRET3::	SUB	STACK,XWD22		; BUMP STACK 3 DESCRIPTORS
   103	400011'	274 01 0 00 400000'	FRET2:: SUB	STACK,XWD22		; BUMP STACK 2 DESCRIPTORS
   104	400012'	274 01 0 00 400000'	FRET1:: SUB	STACK,XWD22		; BUMP STACK 1 DESCRIPTOR AND
   105	400013'	254 00 0 04 000000 		JRST	0(PLINK)		; AND FAIL.
   106
   107
   108						 ; PSHSA - ROUTINE TO PUSH SAVE AREAS
   109						 ; CALLING SEQUENCE:
   110						 ;	JSP	Z,PSHSA
   111						 ;	XWD	N,LOC
   112
   113	400014'	202 15 0 00 000270'	PSHSA::	MOVEM	Q1,PPRET	; SAVE Q1
   114	400015'	350 15 0 00 000000 		AOS	Q1,Z		; RETURN ADDR TO Q1
   115
   116	400016'	544 00 0 15 777777 		HLR	Z,-1(Q1)	; LOAD WORD COUNT
   117	400017'	254 00 0 00 400026'		JRST	PSHR1		; JOIN PUSHR PROCESSING
   118
   119						 ; PSHR - ROUTINE TO PUSH REGISTERS
   120						 ; CALLING SEQUENCE:
   121						 ;	JSP	Z,PSHR
   122						 ;	XWD	N+1,LOC
   123
   124	400020'	202 15 0 00 000270'	PSHR::	MOVEM	Q1,PPRET	; SAVE Q1
   125	400021'	350 15 0 00 000000 		AOS	Q1,Z		; RETURN POINT TO Q1
   126
   127	400022'	544 00 0 15 777777 		HLR	Z,-1(Q1)	; LOAD COUNT TO Z-RIGHT
   128	400023'	505 00 0 00 021000 		HRLI	Z,JUNK		; TYPE TO Z-LEFT
   129	400024'	261 01 0 00 000000 		PUSH	STACK,Z		; PUSH WARNING WORD
   130
   131	400025'	370 00 0 00 000000 		SOS	Z		; # OF REGS TO Z-RIGHT
   132
   133	400026'				PSHR1:	 ; HERE FROM PSHSA
   134
   135	400026'	504 00 0 00 000000 		HRL	Z,Z		; # OF WORDS TO BE MOVED
SNODAT - Pure and Impure Data  %5(266)	MACRO %53B(1156)-1 21:52 14-Mar-88 Page 4-1
SNODAT	MAC	11-Jul-69 17:06		PURE DATA --  COMMON CODE

   136	400027'	270 00 0 00 000001 		ADD	Z,STACK		; NEW STACK WORD TO ...
   137	400030'	250 00 0 00 000001 		EXCH	Z,STACK		; STACK, OLD STACK TO Z
   138
   139	400031'	271 00 0 00 000001 		ADDI	Z,1		; 'TO' ADDRESS
   140	400032'	504 00 0 15 777777 		HRL	Z,-1(Q1)	; 'FROM' ADDRESS
   141
   142	400033'	331 00 0 00 000001 		SKIPL	STACK		; TEST STACK ...
   143	400034'	001 06 0 00 000002 		ERROR	6,2		; FOR OVERFLOW
   144
   145	400035'	250 15 0 00 000270'		EXCH	Q1,PPRET	; RESTORE Q1
   146	400036'	251 00 0 01 000000 		BLT	Z,0(STACK)	; DO THE DATA TRANSFER
   147
   148	400037'	254 00 1 00 000270'		JRST	@PPRET		; AND RETURN
   149
   150						 ; PPSA & PPR - ROUTINES TO POP SAVE AREAS &
   151						 ; REGISTERS RESPECTIVELY
   152						 ; CALLING SEQUENCE:
   153						 ;	JSP	Z,PPSA (OR JSP Z,PPR)
   154						 ;	XWD	N,LOC
   155
   156	400040'	665 00 0 00 400000 	PPSA::	TLOA	Z,400000	; FLAG ENTRY
   157	400041'	621 00 0 00 400000 	PPR::	TLZ	Z,400000	; FLAG ENTRY
   158
   159	400042'	202 15 0 00 000270'		MOVEM	Q1,PPRET	; SAVE Q1
   160	400043'	350 15 0 00 000000 		AOS	Q1,Z		; RETURN ADDRESS TO Q1
   161
   162	400044'	500 00 0 15 777777 		HLL	Z,-1(Q1)	; COUNT TO Z-LEFT
   163	400045'	544 00 0 00 000000 		HLR	Z,Z		; AND RIGHT
   164	400046'	274 01 0 00 000000 		SUB	STACK,Z		; NEW STACK ...
   165	400047'	202 01 0 00 000267'		MOVEM	STACK,IGNOZ	; SAVE HERE
   166
   167	400050'	505 00 0 01 000001 		HRLI	Z,1(STACK)	; 'FROM' ADDRESS TO Z-LEFT
   168	400051'	550 01 0 00 000000 		HRRZ	STACK,Z		; COUNT TO STACK-RIGHT
   169	400052'	270 01 0 15 777777 		ADD	STACK,-1(Q1)	; LAST 'TO' ADDRESS TO STACK
   170	400053'	540 00 0 15 777777 		HRR	Z,-1(Q1)	; 'TO' ADDRESS TO Z-RIGHT
   171	400054'	250 15 0 00 000270'		EXCH	Q1,PPRET	; RESTORE Q1 IN CASE
   172	400055'	251 00 0 01 777777 		BLT	Z,-1(STACK)	; BLT IT UP
   173
   174	400056'	200 01 0 00 000267'		MOVE	STACK,IGNOZ	; LOAD NEW STACK
   175	400057'	331 00 0 00 000270'		SKIPL	PPRET		; POPR ENTRY?
   176	400060'	262 01 0 00 000000 		POP	STACK,Z		; YES - REMOVE EXTRA WORD
   177
   178	400061'	254 00 1 00 000270'		JRST	@PPRET		; AND RETURN
   179
SNODAT - Pure and Impure Data  %5(266)	MACRO %53B(1156)-1 21:52 14-Mar-88 Page 5
SNODAT	MAC	11-Jul-69 17:06		PURE DATA --  &ALPHABET AND 1 CHAR. STRINGS

   180						SUBTTL	PURE DATA --  &ALPHABET AND 1 CHAR. STRINGS
   181					;
   182	400062'	004003	400064'		$ALPHA::	XWD	SDT,ALPHAC	; DESCRIPTOR TOP AND ...
   183	400063'	000000	000200				XWD	0,^D128		; BOTTOM FOR &ALPHABET
   184	400064'	000403	000034		ALPHAC::	XWD	SBLOK,<^D128/5>+3	; DUMMY BLOK ...
   185	400065'	000000	000000				0			; HEADER
   186					;
   187					;	THE FOLLOWING MACRO WILL GENERATE THE TABLE OF 128 BYTES
   188					;
   189						DEFINE  ALPHAM(N)< BYTE(7)N+0,N+1,N+2,N+3,N+4>
   190			000000			ALPHAN=0
   191						REPEAT	<^D128/5+1>,<ALPHAM(\ALPHAN)
   192								ALPHAN=ALPHAN+5>
   193	400066'	000 001 002 003 004 0
   194	400067'	005 006 007 010 011 0
   195	400070'	012 013 014 015 016 0
   196	400071'	017 020 021 022 023 0
   197	400072'	024 025 026 027 030 0
   198	400073'	031 032 033 034 035 0
   199	400074'	036 037 040 041 042 0
   200	400075'	043 044 045 046 047 0
   201	400076'	050 051 052 053 054 0
   202	400077'	055 056 057 060 061 0
   203	400100'	062 063 064 065 066 0
   204	400101'	067 070 071 072 073 0
   205	400102'	074 075 076 077 100 0
   206	400103'	101 102 103 104 105 0
   207	400104'	106 107 110 111 112 0
   208	400105'	113 114 115 116 117 0
   209	400106'	120 121 122 123 124 0
   210	400107'	125 126 127 130 131 0
   211	400110'	132 133 134 135 136 0
   212	400111'	137 140 141 142 143 0
   213	400112'	144 145 146 147 150 0
   214	400113'	151 152 153 154 155 0
   215	400114'	156 157 160 161 162 0
   216	400115'	163 164 165 166 167 0
   217	400116'	170 171 172 173 174 0
   218	400117'	175 176 177 000 001 0
   219			000202
   220					;
   221					; SINGLE CHARACTER DESCRIPTOR BOTTOMS FOLLOW:
   222					;
   223	400120'	000040	000001		S.BL::	XWD	" ",1		; BLANK
   224	400121'	000054	000001		S.CM::	XWD	",",1		; COMMA
   225	400122'	000050	000001		S.LP::	XWD	"(",1		; LEFT PAREN
   226	400123'	000051	000001		S.RP::	XWD	")",1		; RIGHT PAREN
   227	400124'	000011	000001		S.TAB::	XWD	.CHTAB,1	; TAB
   228
SNODAT - Pure and Impure Data  %5(266)	MACRO %53B(1156)-1 21:52 14-Mar-88 Page 6
SNODAT	MAC	11-Jul-69 17:06		PURE DATA --  COMMON STRINGS

   229						SUBTTL	PURE DATA --  COMMON STRINGS
   230
   231
   232					;	THE MACRO STRING WILL NOT ONLY ASSEMBLE A STRING (CALLING
   233					; 	THE PSUEDO-OP ASCII) BUT WILL ALSO ASSEMBLE A WORD
   234					;	OF THE FORM
   235					;		XWD	OFFSET,LENGTH
   236					;	TO BE USED AS THE SECOND WORD OF A 2-WORD DESCRIPTOR FOR
   237					;	THE STRING.
   238					;	THE VARIABLE OFF KEEPS TRACK OF THE OFFSET WHICH
   239					;	IS RELATIVE TO SYSBL+2.
   240					;	THE FIRST WORD OF THE DESCRIPTOR IS LOCATED AT SYSTR.
   241					;	NUMBER IS A UTILITY MACRO USED TO CONVERT A SYMBOL TO
   242					;	NUMERIC FORM
   243
   244
   245						DEFINE	NUMBER(N) <N>
   246						DEFINE STRING(S) <
   247						LSTR==0
   248						IRPC S,<
   249						LSTR==LSTR+1>
   250						XWD NUMBER(\OFF),NUMBER(\LSTR)
   251						ASCII	|S|
   252						OFF==<<<LSTR-1>/5>+2>*5+OFF   >
   253					;
   254					;	INITIALIZE OFF
   255					;
   256			000005			OFF==5		; THE FIRST STRING IS OFFSET BY 5
   257					;
   258	400125'	004003	400126'		SYSTR:: XWD	SDT,.+1		; FIRST WORD OF DESCRIPTOR
   259									; (COMMON FOR ALL)
   260	400126'	000403	000572		SYSBL:: XWD	SBLOK,SYSBLE-SYSBL	; PHONEY ...
   261	400127'	000000	000000			0				; HEADER
   262					;
   263					;	NOTE: DUE TO A BUG IN THE ASSEMBLER, COMMENTS MAY
   264					;	NOT APPEAR ON THE SAME LINE AS A REFERENCE TO THE
   265					;	STRING MACRO.
   266					;
   267	400130'	000005	000003		S.EQL:: STRING	< = >
   268	400131'	040 075 040 000 000
   269	400132'	000017	000003		S.TEQ:: STRING	<	= >
   270	400133'	011 075 040 000 000
   271	400134'	000031	000003		S.BLLB::STRING	 ([<])
   272	400135'	133 074 135 000 000
   273								; USED IN PREPARING DUMPS
   274
   275					;	COMPILER ERROR MESSAGES FOLLOW
   276
   277	400136'	000043	000005		CE.PRE::STRING	(*****)	; PREFIX FOR COMP. ERRORS
   278	400137'	052 052 052 052 052
   279					;CE.GT::	STRING	(ERROR IN GOTO FIELD)
   280					; SEE EERR8
   281	400140'	000055	000025		CE.NI::	STRING	(Error in numeric item)
   282	400141'	105 162 162 157 162
   283	400146'	000113	000021		CE.IC:: STRING	(Illegal character)
SNODAT - Pure and Impure Data  %5(266)	MACRO %53B(1156)-1 21:52 14-Mar-88 Page 6-1
SNODAT	MAC	11-Jul-69 17:06		PURE DATA --  COMMON STRINGS

   284	400147'	111 154 154 145 147
   285	400153'	000144	000015		CE.MB:: STRING	<Missing blank>
   286	400154'	115 151 163 163 151
   287
   288					;
   289					;CE.CP:: STRING	(Invalid - copy card)
   290	400157'	000170	000026		CE.PL:: STRING	(Multiply defined label)
   291	400160'	115 165 154 164 151
   292	400165'	000226	000024		CE.ME:: STRING	<Missing end supplied>
   293	400166'	115 151 163 163 151
   294	400172'	000257	000040		CE.BL::	STRING	(Too many left parens or brackets)
   295	400173'	124 157 157 040 155
   296	400202'	000327	000037		CE.BR:: STRING (Too few left parens or brackets)
   297	400203'	124 157 157 040 146
   298	400212'	000377	000015		CE.LS:: STRING (Stmt too long)
   299	400213'	123 164 155 164 040
   300	400216'	000423	000017		CE.UT:: STRING	(Undefined label)
   301	400217'	125 156 144 145 146
   302	400222'	000447	000017		CE.QT:: STRING	(Unmatched quote)
   303	400223'	125 156 155 141 164
   304	400226'	000473	000014		CE.SYS::STRING	(System error)
   305	400227'	123 171 163 164 145
   306					;CE.CE::	STRING 	(COMPILER ERROR)
   307					; SEE EERR15
   308					;
   309					; MAJOR ERROR MESSAGES FOR EXECUTION ERRORS
   310					;
   311					;EERR01::STRING	< IN STATEMENT >
   312	400232'	000517	000012		EERR02::STRING	< at level >
   313	400233'	040 141 164 040 154
   314					;EERR2::	STRING	<UNEXPECTED FAILURE>
   315	400235'				CE.GT::
   316	400235'	000536	000015		CE.GT::	STRING	<Error in goto>
   317	400236'	105 162 162 157 162
   318	400241'	000562	000021		EEUSER::	STRING	<User issued error>
   319	400242'	125 163 145 162 040
   320					EESYSE::	STRING	<?STBDIE	SITBOL has detected an internal error.
   321					Please contact your Systems Programmer.  This error should not
   322	400246'	000613	000243		normally be encountered, however it has at user PC >
   323	400247'	077 123 124 102 104
   324
   325
   326
   327					;
   328					;  THE FOLLOWING ARE STRINGS WHICH WILL BE PUT INTO $RTNTP
   329					;
   330	400310'	001065	000006		S.RET::	STRING	<RETURN>
   331	400311'	122 105 124 125 122
   332	400313'	001104	000007		S.FRET::STRING	<FRETURN>
   333	400314'	106 122 105 124 125
   334	400316'	001123	000007		S.NRET::STRING	<NRETURN>
   335	400317'	116 122 105 124 125
   336					;
   337					; THESE STRING ARE USED BY DFF TO CREATE TRACING FOR USER DEFINED
   338					; FUNCTIONS.
SNODAT - Pure and Impure Data  %5(266)	MACRO %53B(1156)-1 21:52 14-Mar-88 Page 6-2
SNODAT	MAC	11-Jul-69 17:06		PURE DATA --  COMMON STRINGS

   339					;
   340	400321'	001142	000010		FTRC.E::STRING	< entered>
   341	400322'	040 145 156 164 145
   342	400324'	001161	000006		FTRC.R::STRING	< from >
   343	400325'	040 146 162 157 155
   344					;
   345					;	THE FOLLOWING STRINGS ARE USED BY THE INTERPRETER
   346					;
   347	400327'	001200	000010		S.BLNK::   STRING	<        >
   348	400330'	040 040 040 040 040
   349					S.EOC::	STRING	<
   350					[SNOEOC	End of compilation]
   351
   352	400332'	001217	000041		>
   353	400333'	015 012 133 123 116
   354
   355	400342'	001267	000044		S.NORM::   STRING	<[SNONRM	Normal termination at level >
   356	400343'	133 123 116 117 116
   357	400353'	001344	000044		S.LAST::	STRING	<[SNOLSE	Last stmt executed was stmt >
   358	400354'	133 123 116 117 114
   359	400364'	001421	000031		S.DMP::	STRING		<[SNODMP	Dump will follow]>
   360	400365'	133 123 116 117 104
   361					S.STAT::   STRING	<[SNOSTS	SITBOL statistics summary]
   362
   363	400372'	001457	000046		>
   364	400373'	133 123 116 117 123
   365
   366	400403'	001534	000025		S.CMTM::   STRING	< ms. compilation time>
   367	400404'	040 155 163 056 040
   368	400411'	001572	000023		S.EXTM::   STRING	< ms. execution time>
   369	400412'	040 155 163 056 040
   370	400416'	001623	000020		S.STEX:: STRING	< stmts executed,>
   371	400417'	040 163 164 155 164
   372	400423'	001654	000007		S.FLD::	   STRING	< failed>
   373	400424'	040 146 141 151 154
   374	400426'	001673	000024		S.GC::	   STRING	< garbage collections>
   375	400427'	040 147 141 162 142
   376	400433'	001724	000006		S.NINS::   STRING	< reads>
   377	400434'	040 162 145 141 144
   378	400436'	001743	000007		S.NOUT::   STRING	< writes>
   379	400437'	040 167 162 151 164
   380	400441'	001762	000043		S.AVE::	STRING	< microsecond ave. per stmt executed>
   381	400442'	040 155 151 143 162
   382	400451'	002032	000024		S.USED:: STRING	< stack, maximum was >
   383	400452'	040 163 164 141 143
   384	400456'	002063	000007		S.SST::  STRING	< system>
   385	400457'	040 163 171 163 164
   386	400461'	002102	000021		S.HST::  STRING	< pattern matching>
   00462'	040 160 141 164 164
   388	400466'	002133	000012		S.NST::  STRING < name-list>
   389	400467'	040 156 141 155 145
   390	400471'	002152	000015		S.MLOW:: STRING <K max low-seg>
   391	400472'	113 040 155 141 170
   392	400475'	002176	000041		S.LOW::  STRING <K current low segment comprising:>
   393	400476'	113 040 143 165 162
SNODAT - Pure and Impure Data  %5(266)	MACRO %53B(1156)-1 21:52 14-Mar-88 Page 6-3
SNODAT	MAC	11-Jul-69 17:06		PURE DATA --  COMMON STRINGS

   394	400505'	002246	000016		S.HGH::  STRING <K high segment>
   395	400506'	113 040 150 151 147
   396	400511'	002272	000017		S.FLID:: STRING < words floating>
   397	400512'	040 167 157 162 144
   398	400515'	002316	000016		S.GRID:: STRING < words growing>
   399	400516'	040 167 157 162 144
   400	400521'	002342	000022		S.STKS:: STRING < words for stacks:>
   401	400522'	040 167 157 162 144
   402	400526'	002373	000007		S.ID::	STRING	<SITBOL >
   403	400527'	123 111 124 102 117
   404	400531'	002412	000007		S.VER::	SNONME (STRING)
   405	400532'	045 065 050 063 060
   406	400534'	002431	000024		S.VTBL:: STRING < word variable table>
   407	400535'	040 167 157 162 144
   408	400541'				EERR01::
   409	400541'	002462	000011		S.SMNT::   STRING< in stmt >
   410	400542'	040 151 156 040 163
   411					S.HIST::STRING	< INPUT('H.IN',&ARB,'T')
   412						N. = CONVERT(&NAME,.STRING,'S') '.HST'
   413						OUTPUT('H.OUT',N.,'T')
   414						A = &HISTOGRAM
   415						&HISTOGRAM =
   416						H.P = TAB(1) SPAN('0123456789') . P.
   417						S. = '	' H.IN	:F(END)
   418						S. = ?(S. ? H.P) '(' A[P.] ')' S.
   419	400544'	002501	000360			H.OUT = S.	:[-2]>
   420	400545'	040 111 116 120 125
   421
   422
   423
   424
   425
   426
   427
   428
   429					;
   430					;	THE FOLLOWING STRINGS ARE REEQUIRED BY TRC
   431	400625'	003066	000002		S.NO::	STRING	< #>
   432	400626'	040 043 000 000 000
   433	400627'	003100	000002		S.BAR::STRING	<! >
   434	400630'	041 040 000 000 000
   435	400631'	003112	000003		S.LPRP::STRING	<() >
   436	400632'	050 051 040 000 000
   437	400633'	003124	000003		S.ED::	STRING	<ED >
   438	400634'	105 104 040 000 000
   439	400635'	003136	000020		S.CLST::STRING	< called in stmt >
   440	400636'	040 143 141 154 154
   441	400642'	003167	000011		S.TIME::STRING	<, time = >
   442	400643'	054 040 164 151 155
   443	400645'	003206	000006		S.STMT::STRING	< stmt >
   444	400646'	040 163 164 155 164
   445	400650'	003225	000003		S.KEQ::	STRING	<:	&>
   446	400651'	072 011 046 000 000
   447	400652'	003237	000003		S.CLT::	STRING	<:  >
   448	400653'	072 040 040 000 000
SNODAT - Pure and Impure Data  %5(266)	MACRO %53B(1156)-1 21:52 14-Mar-88 Page 6-4
SNODAT	MAC	11-Jul-69 17:06		PURE DATA --  COMMON STRINGS

   449	400654'	003251	000014		S.TRAN::STRING	<transfer to >
   450	400655'	164 162 141 156 163
   451	400660'	003275	000011		S.CAL::	STRING	< call of >
   452	400661'	040 143 141 154 154
   453	400663'	003314	000013		S.LEV::  STRING	<:  level = >
   454	400664'	072 040 040 154 145
   455	400667'	003340	000013		S.TRET::STRING	< return of >
   456	400670'	040 162 145 164 165
   457	400673'	003364	000023		S.REE::	STRING	<reenter at &STCOUNT>
   458	400674'	162 145 145 156 164
   459					;
   460					;  THE FOLLOWING STRINGS ARE NEEDED BY THE COMPLIER ERROR WRITER TO
   461					;  CREATE THE ERROR MESSAGES
   462					;
   463					;CE.BK::	STRING	<     >
   464					;CE.PT::	STRING	< .$. >
   465
   466	400700'	003415	000005		S.INP:: STRING <INPUT>
   467	400701'	111 116 120 125 124
   468	400702'	003427	000003		S.TTY:: STRING <TTY>
   469	400703'	124 124 131 000 000
   470	400704'	003441	000006		S.OUT:: STRING <OUTPUT>
   471	400705'	117 125 124 120 125
   472
   473					;
   474					;	THE FOLLWOING STRING DEFINES THE DEFAULT EXTERNAL FUNCTION
   475					;	FILE NAME.
   476					;
   477	400707'				S.XLIB::
   478	400707'	003460	000016		IFN FTOPS10,	STRING	<DSK:SNOLIB.REL>
   479	400710'	104 123 113 072 123
   480					IFN FTOPS20,	STRING	<PS:SITBOL-LIBRARY.REL>
   481
   482						; THESE STRINGS ARE USED ON THE HEADER ON EACH PAGE OF
   483						; THE LISTING FILE
   484
   485	400713'	003504	000006		S.FIL::	STRING	<File: >
   486	400714'	106 151 154 145 072
   487	400716'	003523	000005		S.PAG::	STRING	<Page >
   488	400717'	120 141 147 145 040
   489	400720'				SYSBLE:			; SYSTEM SBLOK END
   490
SNODAT - Pure and Impure Data  %5(266)	MACRO %53B(1156)-1 21:52 14-Mar-88 Page 7
SNODAT	MAC	11-Jul-69 17:06		PURE DATA --  SYSTEM CHARACTER TABLE

   491						SUBTTL	PURE DATA --  SYSTEM CHARACTER TABLE
   492					;
   493					;	SYSTEM WIDE CHARACTER SETS ARE DEFINED HERE
   494					;
   495	400720'	004013	400721'		SYSCT::	XWD	CSDT,.+1	; FIRST WORD OF CHAR. SET DESCRIPTOR
   496	400721'	000413	000202			XWD	CTBLOK,LHDR+^D128	; PREPARE PHONEY HEADER
   497	400722'	000000	000000			0				; GC FIELD
   498					;	'X.' LABEL PROVIDES A CONVENIENT HANDLE ON THE RELATED
   499					; MASK BUT IT CAN ONLY BE USED IF ONE BIT APPEARS IN THE WORD.
   500	400723'				SYSCTB:: REPEAT	11,<0>		; SKIP FIRST OCTAL 11 LOCATIONS
   501	400723'	000000	000000
   502	400724'	000000	000000
   503	400725'	000000	000000
   504	400726'	000000	000000
   505	400727'	000000	000000
   506	400730'	000000	000000
   507	400731'	000000	000000
   508	400732'	000000	000000
   509	400733'	000000	000000
   510	400734'	400000	000000		X.TAB::	Y.TAB			; TAB CHARACTER
   511	400735'	000000	020000			Y.VM			; LINE FEED
   512	400736'	000000	020000			Y.VM			; VERTICAL TAB
   513	400737'	000000	020000			Y.VM			; FORM FEED
   514	400740'	000000	010000			Y.CR			; CARRIAGE RETURN
   515						REPEAT	32-16,<0>	; SKIP TO OCTAL 32
   516	400741'	000000	000000
   517	400742'	000000	000000
   518	400743'	000000	000000
   519	400744'	000000	000000
   520	400745'	000000	000000
   521	400746'	000000	000000
   522	400747'	000000	000000
   523	400750'	000000	000000
   524	400751'	000000	000000
   525	400752'	000000	000000
   526	400753'	000000	000000
   527	400754'	000000	000000
   528	400755'	000000	000400			Y.CZ			; ^Z
   529	400756'	000000	004000			Y.ALT			; ALT-MODE
   530						REPEAT	40-34,<0>	; SKIP TO OCTAL 40
   531	400757'	000000	000000
   532	400760'	000000	000000
   533	400761'	000000	000000
   534	400762'	000000	000000
   535	400763'	200000	000000		X.BL::	Y.BL			; BLANK
   536	400764'	100000	001000			Y.OP!Y.VB		; !
   537	400765'	040000	000000		X.QQ::	Y.QQ			; "
   538	400766'	100000	000000		X.OP::	Y.OP			; #
   539	400767'	100000	000200			Y.OP!Y.DOLR		; $
   540	400770'	100000	000100			Y.OP!Y.PCNT		; %
   541	400771'	100000	000000			Y.OP			; '
   542
   543	400772'	020000	000000		X.Q::	Y.Q			; '
   544	400773'	010000	000000		X.LP::	Y.LP			; (
   545	400774'	004000	000000		X.RP::	Y.RP			; )
SNODAT - Pure and Impure Data  %5(266)	MACRO %53B(1156)-1 21:52 14-Mar-88 Page 7-1
SNODAT	MAC	11-Jul-69 17:06		PURE DATA --  SYSTEM CHARACTER TABLE

   546	400775'	100200	000000			Y.OP!Y.STAR		; *
   547	400776'	102000	000000			Y.OP!Y.PLUS		; +
   548	400777'	001000	000000		X.CM::	Y.CM			; ,
   549	401000'	100400	000000			Y.OP!Y.MNS		; -
   550	401001'	100100	000000			Y.OP!Y.PER		; .
   551	401002'	100000	002000			Y.OP!Y.SLSH		; /
   552	401003'				X.NUM::	REPEAT ^D10,<Y.NUM>	; 0-9
   553	401003'	000040	000000
   554	401004'	000040	000000
   555	401005'	000040	000000
   556	401006'	000040	000000
   557	401007'	000040	000000
   558	401010'	000040	000000
   559	401011'	000040	000000
   560	401012'	000040	000000
   561	401013'	000040	000000
   562	401014'	000040	000000
   563	401015'	000020	000000		X.COL::	Y.COL			; :
   564	401016'	000010	000000		X.SEMI::Y.SEMI			; ;
   565	401017'	000004	000000		X.LB::	Y.LB			; <
   566	401020'	100000	040000			Y.OP!Y.EQ		; =
   567	401021'	000002	000000		X.RB::	Y.RB			; >
   568	401022'	100000	000000			Y.OP			; ?
   569	401023'	100000	000000			Y.OP			; @
   570	401024'				X.UPS::	REPEAT	3,<Y.UPS>	; LETTERS A-C (UPPER CASE)
   571	401024'	000000	400000
   572	401025'	000000	400000
   573	401026'	000000	400000
   574	401027'	000000	500000			Y.E!Y.UPS		;[247] Allow D exponent
   575	401030'	000000	500000			Y.E!Y.UPS		; THE LETTER E
   576						REPEAT  ^D21,<Y.UPS>	; THE REST OF THE UPPER CASE ALPHABET
   577	401031'	000000	400000
   578	401032'	000000	400000
   579	401033'	000000	400000
   580	401034'	000000	400000
   581	401035'	000000	400000
   582	401036'	000000	400000
   583	401037'	000000	400000
   584	401040'	000000	400000
   585	401041'	000000	400000
   586	401042'	000000	400000
   587	401043'	000000	400000
   588	401044'	000000	400000
   589	401045'	000000	400000
   590	401046'	000000	400000
   591	401047'	000000	400000
   592	401050'	000000	400000
   593	401051'	000000	400000
   594	401052'	000000	400000
   595	401053'	000000	400000
   596	401054'	000000	400000
   597	401055'	000000	400000
   598	401056'	000004	000000			Y.LB			; [
   599	401057'	100000	000000			Y.OP			; \
   600	401060'	000002	000000			Y.RB			; ]
SNODAT - Pure and Impure Data  %5(266)	MACRO %53B(1156)-1 21:52 14-Mar-88 Page 7-2
SNODAT	MAC	11-Jul-69 17:06		PURE DATA --  SYSTEM CHARACTER TABLE

   601	401061'	100000	001000			Y.OP!Y.VB		; ^
   602	401062'	100001	000000			Y.OP!Y.UN		; _
   603	401063'	000000	000000			0			; `
   604	401064'				X.LOWS::REPEAT	^D26,<Y.LOWS>	; LOWER CASE
   605	401064'	000000	200000
   606	401065'	000000	200000
   607	401066'	000000	200000
   608	401067'	000000	200000
   609	401070'	000000	200000
   610	401071'	000000	200000
   611	401072'	000000	200000
   612	401073'	000000	200000
   613	401074'	000000	200000
   614	401075'	000000	200000
   615	401076'	000000	200000
   616	401077'	000000	200000
   617	401100'	000000	200000
   618	401101'	000000	200000
   619	401102'	000000	200000
   620	401103'	000000	200000
   621	401104'	000000	200000
   622	401105'	000000	200000
   623	401106'	000000	200000
   624	401107'	000000	200000
   625	401110'	000000	200000
   626	401111'	000000	200000
   627	401112'	000000	200000
   628	401113'	000000	200000
   629	401114'	000000	200000
   630	401115'	000000	200000
   631	401116'	000004	000000			Y.LB			; lt. curly bracket
   632	401117'	100000	001000			Y.OP!Y.VB		; VERTICAL BAR
   633	401120'	000002	000000			Y.RB			; RT. CURLY BRACKET
   634	401121'	100000	000000			Y.OP			; TILDE
   635	401122'	000000	000000			0			; DELETE
   636					;
   637					;	MISC. MASKS FOR SYSTEM CHARACTER SETS
   638					;	(A WORD OF THE FORM X.--- FORMS THE 2ND WORD
   639					; 	OF A TWO WORD DESCRIPTOR THE FIRST WORD OF WHICH
   640					;	IS FOUND AT SYSCT)
   641					;
   642	401123'	000000	600000		X.ALPH::	Y.UPS!Y.LOWS		; ALPHABETICS
   643	401124'	000040	600000		X.ALNU::	Y.UPS!Y.LOWS!Y.NUM	; ALPHANUMERICS
   644	401125'	000141	600000		X.ID::	Y.UN!Y.UPS!Y.LOWS!Y.NUM!Y.PER	; IDENTIFIER CHARACTERS
   645	401126'	000140	000000		X.NUM.::	Y.NUM!Y.PER		; NUMBERS AND PERIOD
   646	401127'	005000	000000		X.CMRP::	Y.CM!Y.RP		; COMMA OR RIGHT PAREN
   647	401130'	002540	100000		X.NSC::		Y.NUM!Y.MNS!Y.PLUS!Y.PER!Y.E
   648										; NUMERICAL STRING CONSTANT
   649
   650	401131'	000100	600300		X.R50::	Y.UPS!Y.LOWS!Y.PER!Y.DOLR!Y.PCNT ;RADIX-50 SYMBOLS
   651
SNODAT - Pure and Impure Data  %5(266)	MACRO %53B(1156)-1 21:52 14-Mar-88 Page 8
SNODAT	MAC	11-Jul-69 17:06		PURE DATA --  MISC. PURE DATA

   652						SUBTTL	PURE DATA --  MISC. PURE DATA
   653					;
   654	401132'	004003	000000		NULLST::	XWD	SDT,0	; DESCRIPTOR FOR NULL STRING
   655	401133'	000000	000000				0
   656					;
   657					;
   658					;
   659
SNODAT - Pure and Impure Data  %5(266)	MACRO %53B(1156)-1 21:52 14-Mar-88 Page 9
SNODAT	MAC	11-Jul-69 17:06		IMPURE DATA -- MACROS

   660						SUBTTL	IMPURE DATA -- MACROS
   661
   662
   663
   664					;	THE FOLLOWING MACROS ARE NEEDED TO ENCODE THE
   665					;	IMPURE DATA AREA. THEY ALL ASSEMBLE INTO ZERO'S
   666					;	SO AS TO MAKE THE IMPURE SEGMENT RESTARTABLE.
   667					;	BUT THEY ALSO PROVIDE CODE (BEGINNING AT INIMP) WHICH
   668					;	INITIALIZES THESE LOCATIONS.
   669					;	CONTROL RETURNS VIA QLINK.
   670	401134'				INIMP::
   671					;
   672						DEFINE	XWD.(X,Y,%LOC)<
   673					%LOC:	BLOCK 1
   674						RELOC
   675						MOVE	Z,[XWD X,Y]
   676						MOVEM	Z,%LOC
   677						RELOC	>
   678					;	EXP.	MACRO TO STORE SOMETHING INTO THE LOW SEG.
   679					;
   680
   681						DEFINE	EXP.(X,%LOC)<
   682					%LOC:	BLOCK 1		;; ASSEMBLE THE WORD
   683						RELOC		;; GET BACK TO PURE CODE
   684						STORE	Z,%LOC,,X	;;STORE IT INTO THE LOW SEG
   685						RELOC>		;; LEAVE IT IN IMPURE.
   686
   687
   688					;	WORD. macro to store one full word into the low segment.
   689					;	EXP. can not be used since it uses the STORE macro from UUOSYM
   690					;	and can not handle external symbols
   691
   692						DEFINE	WORD.(VAL,%LOC),<
   693					%LOC:	BLOCK	1		;;Generate the storage
   694						RELOC			;;INTO THE HIGH SEGMENT FOR CODE
   695						MOVE	Z,[VAL]		;;Get the value
   696						MOVEM	Z,%LOC		;;STORE IT
   697						RELOC			;;Back tothe low segment
   698					>
   699
   700					;
   701	000000'					RELOC	0
   702
   703	000000'				HGHVER::	BLOCK	1	; high segment version no.
   704	000001'	000000	000006		LWVRSN::	LOWVER		;[255] Low segment Version number
   705									; Starts at one with edit [255]
   706	000002'				SEGDEV::	BLOCK	1	; for storage of original seg spec's
   707	000003'				SEGNAM::	BLOCK	1
   708	000004'						BLOCK	2
   709	000006'				SEGPPN::	BLOCK	1
   710	000007'						BLOCK	1
   711	000010'				STFLAG::	BLOCK	1	; so that seg spec's remain untouched.
   712	000011'				HSTLOC::BLOCK	1		;
   713	000012'				HSTSAV::BLOCK	3		; PRIVATE SAVE AREA
   714	000015'				CPUTYP::BLOCK	1		;[243] CPU type; ka = 1, ki = 2, kl = 3
SNODAT - Pure and Impure Data  %5(266)	MACRO %53B(1156)-1 21:52 14-Mar-88 Page 9-1
SNODAT	MAC	11-Jul-69 17:06		IMPURE DATA -- MACROS

   715
   716	000016'				FID::
   717
SNODAT - Pure and Impure Data  %5(266)	MACRO %53B(1156)-1 21:52 14-Mar-88 Page 10
SNODAT	MAC	11-Jul-69 17:06		IMPURE DATA -- misc. from all modules

   718						SUBTTL 	IMPURE DATA -- misc. from all modules
   719
   720
   721					;	--	SNOFIO		--
   722
   723	000016'				JOBNO6::	BLOCK	1
   724	000017'				TMPOPN::	BLOCK	1
   725	000020'				TRFLGS::	BLOCK	1	; location to save current traps.
   726	000021'				RSFLAG::	BLOCK	1	; restart flag.
   727	000022'				S.PAR::		BLOCK	1	; stacks
   728	000023'				V.PAR::		BLOCK	1	; variable table
   729	000024'				C.PAR::		BLOCK	1	; core
   730	000025'				TTYBLK::	BLOCK	1
   731	000026'				GETOSV::	BLOCK	1	; saves linking register.
   732	000027'				STBLKS::	BLOCK	1
   733	000030'				CDWSV::		BLOCK	1
   734	000031'				RDLINK::	BLOCK	1	; link save for read
   735	000032'				RDSTBL::	BLOCK	1	; read stream block
   736	000033'				RDFLGS::	BLOCK	1	; holds flags.
   737	000034'				DEPTR::		BLOCK	1
   738	000035'				RDQLNK::	BLOCK	1
   739	000036'				DEVICE::	BLOCK	1	; .. for strio ..
   740	000037'				FILNAM::	BLOCK	1
   741	000040'				EXT::		BLOCK	1
   742	000041'				PRIV::		BLOCK	1
   743	000042'				PPN::		BLOCK	1
   744	000043'				PTH::		BLOCK	12
   745			000054'				PTHEND==:.-1
   746	000055'				TERMCH::	BLOCK	1	; terminal (or break) char.
   747	000056'				IOBLKS::	BLOCK	1
   748	000057'				PTHPTR::	BLOCK	1
   749	000060'				FRSTNM::	BLOCK	1
   750	000061'				DFTEXT::	BLOCK	1	; current default ext.
   751	000062'				EXPTR::		BLOCK	1	; define extraction ptr
   752	000063'				ALBFSV::	BLOCK	1
   753	000064'				BTSIZE::	BLOCK	1	; size of byte
   754	000065'				BTLENG::	BLOCK	1
   755	000066'				BTPTR::		BLOCK 	1
   756	000067'				BTBASE::	BLOCK	1
   757	000070'				BTMAX::		BLOCK	1
   758	000071'				BTLJFL::	BLOCK	1	; left-justify flag
   759
   760					;	--	SNOSYN		--
   761
   762	000072'				VB.S::	BLOCK	1
   763	000073'				VB.F::		BLOCK	1
   764	000074'				VB.ST::		BLOCK	1
   765	000075'				VB.BL::		BLOCK	1
   766	000076'				VB.EQ::		BLOCK	1
   767	000077'				LEVEL::		BLOCK	1
   768	000100'				PMFLAG::	BLOCK	1
   769	000101'				FGT::		BLOCK	1	; holds offset to fail goto
SNODAT - Pure and Impure Data  %5(266)	MACRO %53B(1156)-1 21:52 14-Mar-88 Page 11
SNODAT	MAC	11-Jul-69 17:06		IMPURE DATA -- misc. from all modules

   770	000102'				SGT::		BLOCK	1	; holds offset to success goto
   771	000103'				RGT::		BLOCK	1	; holds offset to recovery goto
   772	000104'				GTZONE::	BLOCK	1
   773	000105'				CURSOE::	BLOCK	1
   774	000106'				ENDLBL::	BLOCK	1
   775	000107'				EXFLAG::	BLOCK	1	; flag to indicate expression comp
   776	000110'				LAST::		BLOCK	1	; offset to last statement in CBLOK
   777	000111'				ENDFLG::	BLOCK	1
   778
   779					;	--	SNOERR 		--
   780
   781	000112'				ERRLOC::	BLOCK	1	;[266] WHERE ERROR OCCURED
   782	000113'				IN.ERR::	BLOCK	1
   783	000114'				PREFIX::	BLOCK	1
   784	000115'				CERARG::	BLOCK	1
   785	000116'				CERLNK::	BLOCK	1
   786	000117'				SET.LB::	BLOCK	1
   787
   788					;	--	SNODEB		--
   789
   790	000120'				T1SAV::		BLOCK	1
   791
   792					;	--	SNOPAV		--
   793
   794	000121'				TLNKSV::	BLOCK	1
   795	000122'				SVTLNK::	BLOCK	1
   796	000123'				T2SAV::		BLOCK	1
   797	000124'				T3SAV::		BLOCK	1
   798
   799					;	--	SNOSTR		--
   800
   801	000125'				STCHD::		BLOCK	1
   802	000126'				STCPTR::	BLOCK	1
   803	000127'				STCTOT::	BLOCK	1
   804	000130'				STCREM::	BLOCK	1
   805
   806					;	--	SNOSMR		--
   807
   808	000131'				CCSCSV::	BLOCK	1
   809	000132'				CVTSAV::	BLOCK	1
   810
   811					;	--	SNOEXT		--
   812
   813	000133'				ECBPTR::	BLOCK	1	; pointer to junk block (has code for ext fun)
   814	000134'				LOCNTR::	BLOCK	1	; location counter for loading code
   815	000135'				TSAVE::		BLOCK	2	; save area for T routines
   816	000137'				LCOUNT::	BLOCK 2	; SAVE ARE FOR GETDAT
   817
SNODAT - Pure and Impure Data  %5(266)	MACRO %53B(1156)-1 21:52 14-Mar-88 Page 12
SNODAT	MAC	11-Jul-69 17:06		IMPURE DATA -- misc. from all modules

   818					;	--	SNOLEX		--
   819
   820	000141'				LASLOT::	BLOCK	1
   821	000142'				NXTUBE::	BLOCK	1
   822	000143'				STATE::		BLOCK	1
   823	000144'				LINES::		BLOCK	1
   824	000145'				GTFLAG::	BLOCK	1
   825	000146'				STKSAV::	BLOCK	2		; Some save areas
   826
   827					;	--	SNOTBL		--
   828
   829	000150'				FTESV::		BLOCK	2
   830	000152'				TBLSV::	BLOCK	2
   831
   832					;	--	SNOSYM		--
   833
   834	000154'				TLSAV::		BLOCK	1
   835
   836					;	--	SNOGC		--
   837
   838	000155'				BLOKSV::	BLOCK	2
   839	000157'				SEDIM::		BLOCK	1
   840
   841					;	--	SNOTRC		--
   842
   843	000160'				BARINC::	BLOCK	1
   844	000161'				LNCLSV::	BLOCK	1	; save word for calling line used elsewhere
   845	000162'				TR.TIM::	BLOCK	1
   846	000163'				SLKSAV::	BLOCK	1
   847
   848					;	--	SNOCVT		--
   849
   850	000164'				CVSTOR::	BLOCK	1
   851	000165'				CVSTO1::	BLOCK	1
   852	000166'				CVSTO2::	BLOCK	1
   853	000167'				CVSTO3::	BLOCK	1
   854
   855					;	--	SNOPL		--
   856
   857	000170'				CVPTSV::	BLOCK	1
   858
   859					;	--	SNONUM		--
   860
   861	000171'				NUMSTR::	BLOCK	1
SNODAT - Pure and Impure Data  %5(266)	MACRO %53B(1156)-1 21:52 14-Mar-88 Page 13
SNODAT	MAC	11-Jul-69 17:06		IMPURE DATA -- IMPURE KEYWORDS

   862						SUBTTL	IMPURE DATA -- IMPURE KEYWORDS
   863
   864					; PROTECTED
   865
   866	000172'				$FNCLV:: BLOCK  1	; &FNCLEVEL
   867	000173'					 BLOCK  1	; TRACE FLAG
   868	000174'				$LASTN:: BLOCK  1	; &LASTNO
   869	000175'				$RTNTP:: BLOCK  1	; &RTNTYPE
   870	000176'				$STCNT:: BLOCK  1	; &STCOUNT
   871	000177'					 BLOCK  1	; TRACE FLAG
   872	000200'				$STFCT:: BLOCK  1	; &STFCOUNT
   873	000201'					 BLOCK  1	; TRACE FLAG
   874	000202'				$STNO::  BLOCK  1	; &STNO
   875	000203'				$JOBNO:: BLOCK  1	; &JOBNO
   876
   877					; UNPROTECTED
   878
   879	000204'				$ABEND:: BLOCK  1    	; &ABEND
   880	000205'				$ANCH::  BLOCK  1	; &ANCHOR
   881	000206'				$CODE::  BLOCK  1	; &CODE
   882	000207'				$DUMP::  BLOCK  1	; &DUMP
   883	000210'				$ERRTP:: BLOCK  1	; &ERRTYPE
   884	000211'					 BLOCK	1	; TRACE FLAG FOR &ERRTYPE
   885	000212'				$ERRLM:: BLOCK  1	; &ERRLIMIT
   886	000213'				$ERRLV:: BLOCK	1	; &ERRLEVEL
   887	000214'				$VERSN:: BLOCK	1	; &VERSION
   888	000215'				$FTRC::  BLOCK  1	; &FTRACE
   889	000216'				$FULL::  BLOCK  1	; &FULLSCAN
   890	401134'	201 00 0 00 000001 	$INPUT:: EXP. 1  	; &INPUT
   891	401135'	202 00 0 00 000217'
   892	401136'	201 00 0 00 011610 	$MAXL::  EXP.  ^D5000	; &MAXLNGTH
   893	401137'	202 00 0 00 000220'
   894	401140'	201 00 0 00 000001 	$OUTPT:: EXP. 1  	; &OUTPUT
   895	401141'	202 00 0 00 000221'
   896	401142'	200 00 0 00 401256'	$STLIM::	XWD.	377777,777777	; &STLIMIT
   897	401143'	202 00 0 00 000222'
   898	000223'				$TRACE:: BLOCK  1	; &TRACE
   899	000224'				$TRIM::  BLOCK  1	; &TRIM
   900	000225'				$RAND::	BLOCK	1	; &RANDOM
   901
   902
   903					IFN FTPAV,<
   904	401144'	201 00 0 00 000001 	$ASSOC::EXP.	1		; &ASSOCIATE
   905	401145'	202 00 0 00 000226'
   906					>;END OF IFN FTPAV
SNODAT - Pure and Impure Data  %5(266)	MACRO %53B(1156)-1 21:52 14-Mar-88 Page 14
SNODAT	MAC	11-Jul-69 17:06		IMPURE DATA -- NONFLOATING NONRECURSIVE IMPURE DATA

   907						SUBTTL	IMPURE DATA -- NONFLOATING NONRECURSIVE IMPURE DATA
   908	401146'	201 00 0 00 000001 	PREX::	  EXP. 1	;  PRE-EXECUTION STAGE.  WHEN EXECUTION BEGINS
   909	401147'	202 00 0 00 000227'
   910								; THIS IS SET TO 0.
   911	000230'				CEIL::	  BLOCK 1	; UPPER LIMIT ON FLOATING STORAGE
   912	000231'				HIWATR::  BLOCK 1       ; HIGH WATER MARK FOR CORE REQUESTS
   913	000232'				FLOOR::	  BLOCK 1	; BOTTOM OF FLOATING STORAGE
   914	000233'				STBASE::  BLOCK 1	; SYSTEM STACK BASE
   915	000234'				HSBASE::  BLOCK 1	; HISTORY STACK BASE
   916	000235'				NSBASE::  BLOCK 1	; NAME-LIST STACK BASE
   917	401150'	201 00 0 00 001750 	BROOM::   EXP. ^D1000	; BREATHING ROOM
   918	401151'	202 00 0 00 000236'
   919	401152'	201 00 0 00 005670 	TOOMCH::  EXP. ^D3000	; MAXIMUM SLACK
   920	401153'	202 00 0 00 000237'
   921	000240'				VTABLE::  BLOCK	1	; ADDRESS OF HASH TABLE FOR VARIABLE BLOCKS
   922	000241'				LVTBL::	  BLOCK 1	; LENGTH OF VTABLE
   923	000242'				TIME.S::  BLOCK 1	; STARTING TIME
   924	000243'				TIME.C::  BLOCK 1	; TIME AT FINISH OF COMPILATION
   925	000244'				TIME.E::  BLOCK 1       ; ENDING TIME
   926	000245'				GRID::	  BLOCK 1	; BASE OF GROWING REGION
   927	000246'				GSURF::	  BLOCK 1	; SURFACE OF GRID REGION
   928	401154'	201 00 0 00 000067 	NLINES:: EXP.	<^D55>		; Lines per page on the output listing
   929	401155'	202 00 0 00 000247'
   930	000250'				DIM4::	  BLOCK 1	; 4TH DIMENSION
   931	401156'	201 00 0 00 000001 	CMPNO::	  EXP. 1	; COMPILER STATEMENT NO.
   932	401157'	202 00 0 00 000251'
   933	401160'	201 00 0 00 000001 	PAGENO::  EXP. 1	; COMPILER PAGE NO.
   934	401161'	202 00 0 00 000252'
   935	401162'	201 00 0 00 000001 	NLPGNO::	EXP.	1	;[254] NEXT LINE PAGE NUMBER
   936	401163'	202 00 0 00 000253'
   937	000254'				NLMPGN::	BLOCK	1	;[254] Next line minor page number.
   938	000255'				ARYID::   BLOCK 1	; ID # FOR ARRAYS
   939	000256'				TBLID::   BLOCK 1	; ID # FOR TABLES
   940	000257'				DFDID::	  BLOCK 1	; IDENTIFICATION # FOR DEFINED DATATYPES
   941	000260'				NINS::	  BLOCK 1	; NUMBER OF READS
   942	000261'				NOUTS::	  BLOCK 1	; NUMBER 0F WRITES
   943	000262'				NGCS::    BLOCK 1	; NUMBER OF GARBAGE COLLECTS
   944	401164'	201 00 0 00 000620 	CBLENG::  EXP. ^D400	; LENGTH OF CBLOK
   945	401165'	202 00 0 00 000263'
   946	000264'				AUTOHS::  BLOCK 1	; AUTO HISTOGRAM
   947	000265'				GRFLAG::  BLOCK 1	; ALL. IN GR. REG. FLAG
   948	000266'				LINENO::	BLOCK	1	; FAKED LINE NUMBER
   949	000267'				IGNOZ:	BLOCK	1	; TEMPS USED BY ...
   950	000270'				PPRET:	BLOCK	1	; PUSH-POP MACROS
   951
   952					IFN FTDDT,<
   953	401166'	200 00 0 00 401257'	I.JRST::WORD.	<JRST	I.BUMP##>	;EVENT TRAP FOR INTERPRETER LOOP
   954	401167'	202 00 0 00 000271'
   955										; XCT'ED INSTRUCT. BY INTERPRETER
   956
   957					>	;END OF IFN FTDDT
   958
   959	401170'	402 00 0 00 000272'	EF.FLG::EXP.	0		;[156] Flag turned on when executing an
   960									;[156]  external function
SNODAT - Pure and Impure Data  %5(266)	MACRO %53B(1156)-1 21:52 14-Mar-88 Page 15
SNODAT	MAC	11-Jul-69 17:06		IMPURE DATA -- NONFLOATING NONRECURSIVE IMPURE DATA

   961
   962						; GETSG -- ROUTINE  USED BY STBERR AND SNOERR
   963						;		TO CALL A HIGH SEGMENT
   964						;		IS CALLED WITH P1 CONTAINING THE RETURN ADDR
   965						;		AND WITH Z CONTAINING THE NAME OF THE HIGH SEG.
   966
   967					IFE FTSINGLE,<			;[215] Single segment SITBOL
   968	401171'					RELOC
   969
   970	401171'	505 00 0 00 401175'		HRLI	Z,GETSGS
   971	401172'	541 00 0 00 000273'		HRRI	Z,GETSG
   972	401173'	251 00 0 00 000330'		BLT	Z,GETSG+GSGLEN-1
   973	401174'	254 00 0 00 401233'		JRST	.+GSGLEN+1
   974
   975	000000				GETSGS:	PHASE	0
   976	000000	201 06 0 00 000273'		MOVEI	S1,GETSG		; TO MAKE IT EASY
   977	000001	201 16 0 06 000027 		MOVEI	Q2,GSGBLK(S1)		; GIVE GSGBLK SPECS TO
   978	000002	505 16 0 00 000002'		HRLI	Q2,SEGDEV		; GSGBLK.  FOUND IN
   979	000003	251 16 0 06 000033 		BLT	Q2,GSGBLK+4(S1)		; SEGDEV.
   980	000004	202 00 0 06 000030 		MOVEM	Z,GSGBLK+1(S1)		; ALSO PLACE SEGNAME.
   981
   982	000005	505 00 0 00 000001 		HRLI	Z,1		; SAVE SOME ...
   983	000006	541 00 0 00 000356'		HRRI	Z,IGNOP		; IMPORTANT ...
   984	000007	251 00 0 00 000361'		BLT	Z,IGNOP+3	; REGISTERS
   985
   986	000010	200 00 0 00 000120 		MOVE	Z,.JBSA		; SAVE THE STARTING ADDR
   987	000011	202 00 0 06 000035 		MOVEM	Z,ADDRSA(S1)	; ..
   988
   989	000012	205 00 0 00 000001 		MOVSI	Z,1		; DELETE THE ...
   990	000013	047 00 0 00 000011 		CORE	Z,		; HIGH SEG
   991	000014	001 17 0 00 000000 		 ERROR	15		; HOPEFULLY NEVER.
   992
   993	000015	201 00 0 06 000027 		MOVEI	Z,GSGBLK(S1)	; USE GSGBLK FOR SPECS
   994	000016	047 00 0 00 000040 		GETSEG	Z,		; EXE THE UUO
   995	000017	001 17 0 00 000000 		 ERROR	15		; COULDN'T DO IT?
   996
   997	000020	201 06 0 00 000273'		MOVEI	S1,GETSG	; ** [GC] ** GETSEG DESTROYED ADDRESS !!! FIX!
   998
   999	000021	200 00 0 06 000035 		MOVE	Z,ADDRSA(S1)	; GET BACK .JBSA
  1000	000022	202 00 0 00 000120 		MOVEM	Z,.JBSA		; ..
  1001
  1002	000023	505 00 0 00 000356'		HRLI	Z,IGNOP		; GET BACK THOSE ..
  1003	000024	541 00 0 00 000001 		HRRI	Z,1		; IMPORTANT ...
  1004	000025	251 00 0 00 000004 		BLT	Z,4		; REGISTERS.
  1005
  1006	000026	254 00 0 04 000000 		JRST	0(PLINK)	; RETURN TO WHOEVER.
  1007
  1008	000027				GSGBLK:	BLOCK	6
  1009	000035				ADDRSA:	BLOCK	1
  1010
  1011	401233'					DEPHASE
  1012			000036			GSGLEN==.-GETSGS
  1013	000273'					RELOC
  1014
  1015	000273'				GETSG::	BLOCK	GSGLEN
SNODAT - Pure and Impure Data  %5(266)	MACRO %53B(1156)-1 21:52 14-Mar-88 Page 15-1
SNODAT	MAC	11-Jul-69 17:06		IMPURE DATA -- NONFLOATING NONRECURSIVE IMPURE DATA

  1016
  1017
  1018
  1019					>;[215] End of IFE FTSINGLE
SNODAT - Pure and Impure Data  %5(266)	MACRO %53B(1156)-1 21:52 14-Mar-88 Page 16
SNODAT	MAC	11-Jul-69 17:06		IMPURE DATA --  SAVE AREAS

  1020						SUBTTL	IMPURE DATA --  SAVE AREAS
  1021					;
  1022					;	THIS IS THE START OF THE REGION TENDED BY THE GARBAGE
  1023					;	COLLECTOR.
  1024	000331'				TENDED::
  1025					;
  1026					;	2.3.1  PATTERN MATCHING SAVE AREA
  1027					;
  1028	401233'	200 00 0 00 401260'	SAVEM::		XWD.  JUNK,LIGNOM+1
  1029	401234'	202 00 0 00 000331'
  1030								; INDICATOR FOR GARBAGE COLLECTOR
  1031	000332'				IGNOM::			; START OF IGNORED AREA
  1032	000332'				CURSOR::	BLOCK 1		; CURSOR
  1033	000333'				STPTR::		BLOCK 1		; STREAM POINTER
  1034	000334'				MAXLEN::	BLOCK 1		; MAXIMUM LENGTH PREFIX OF ...
  1035									; SUBJECT STRING WHICH CAN BE MATCHED
  1036	000335'				HSTACK::	BLOCK 1		; HISTORY STACK
  1037	000336'				NSTACK::	BLOCK 1		; NAME STACK
  1038	000337'				FUTILE::	BLOCK 1		; FUTILITY FLAG
  1039	000340'				SCRAD::		BLOCK 1		; SCAN RETURN ADDRESS
  1040					;
  1041					;FLAM::			; FLOATING ADDRESSES FOR PATTERN MATCHING
  1042	000341'				SUBJ::	BLOCK	2	; SUBJECT STRING OF THE MATCH
  1043	000343'				PATT::	BLOCK 	2	; PATTERN FOR THE MATCH
  1044						IFN LSAVEM-<.-SAVEM>,< PRINTX LSAVEM IS IN ERROR>
  1045					;
  1046					;	2.3.2  INTERPRETER SAVE AREA
  1047					;
  1048	401235'	200 00 0 00 401261'	SAVEI::		XWD.	JUNK,LIGNOI+1
  1049	401236'	202 00 0 00 000345'
  1050	000346'				IGNOI::				; IGNORED AREA
  1051	000346'				GROUND::	BLOCK 1		; BASIC STACK POSITION.
  1052								; SERVES AS FRAME OF REFERENCE ON A PER
  1053								; STATEMENT BASIS
  1054	000347'				STSAVE::	BLOCK 1		; STACK SAVE, REQUIRED ON A PER FUNCTION
  1055									; BASIS
  1056	000350'				PUSHTP::        BLOCK 1         ; DENOTES TYPE OF PUSH
  1057					                      ; 0=BOTTOM, 1=FUNCTION, -1=ERROR RECOVERY
  1058					;FLAI::			; FLOATING ADDRESS SAVE REGION OF INTERPRETER
  1059	000351'				ILABEL::	BLOCK 2		; STATEMENT LABEL POINTER
  1060	000353'				ILOC::		BLOCK 2		; LOCATION COUNTER
  1061						IFN LSAVEI-<.-SAVEI>,<PRINTX LSAVEI IS IN ERROR>
SNODAT - Pure and Impure Data  %5(266)	MACRO %53B(1156)-1 21:52 14-Mar-88 Page 17
SNODAT	MAC	11-Jul-69 17:06		IMPURE DATA --  SAVE AREAS

  1062					;	SAVE AREA FOR PRIMARY ROUTINES
  1063	401237'	200 00 0 00 401262'	SAVEP::	XWD.	JUNK,LIGNO+1
  1064	401240'	202 00 0 00 000355'
  1065	000356'				IGNOP::	BLOCK	LIGNO	; IGNORED REGION
  1066	000362'				FLAP::	BLOCK	LFLA	; FLOATING REGION
  1067					;
  1068					;	SAVE AREA FOR SECONDARY ROUTINES
  1069	401241'	200 00 0 00 401262'	SAVES::	XWD.	JUNK,LIGNO+1
  1070	401242'	202 00 0 00 000366'
  1071	000367'				IGNOS::	BLOCK	LIGNO	; IGNORED REGION
  1072	000373'				FLAS::	BLOCK	LFLA	; FLOATING REGION
  1073					;
  1074					;	TERTIARY SAVE AREA
  1075	401243'	200 00 0 00 401262'	SAVET::	XWD.	JUNK,LIGNO+1
  1076	401244'	202 00 0 00 000377'
  1077	000400'				IGNOT::	BLOCK	LIGNO	; IGNORED REGION
  1078	000404'				FLAT::	BLOCK	LFLA	; FLOATING REGION
  1079					;
  1080					;	QUATERNARY SAVE AREA
  1081	401245'	200 00 0 00 401262'	SAVEQ::	XWD.	JUNK,LIGNO+1
  1082	401246'	202 00 0 00 000410'
  1083	000411'				IGNOQ::	BLOCK	LIGNO
  1084	000415'				FLAQ::	BLOCK	LFLA
  1085
SNODAT - Pure and Impure Data  %5(266)	MACRO %53B(1156)-1 21:52 14-Mar-88 Page 18
SNODAT	MAC	11-Jul-69 17:06		IMPURE DATA -- DESCRIPTOR STORAGE

  1086						SUBTTL	IMPURE DATA -- DESCRIPTOR STORAGE
  1087					;
  1088					;	INFORMATION IN THIS SECTION APPEARS IN WORD PAIRS
  1089					;	AND ARE ASSUMED BY THE GARBAGE COLLECTOR TO BE VALID
  1090					;	DESCRIPTORS.
  1091					;
  1092					;	I/O DESCRIPTORS
  1093					;
  1094	000421'				OUTF::   	BLOCK  2	; OUTPUT FILE
  1095	000423'				LISTF::		BLOCK  2	; LISTING FILE
  1096	000425'				CERRF:: 	        	; COMPILER ERROR FILE
  1097	000425'				XERRF::  	BLOCK  2	; EXECUTION ERROR FILE
  1098	000427'				COMPIN::	BLOCK 2       	; COMPILER INPUT FILE
  1099	000431'				INFILE::	BLOCK  2	; DATA INPUT FILE
  1100					;
  1101					;	OTHER MISC. DESCRIPTORS
  1102	000433'				LASTCI::	BLOCK  2  	; LAST COMPIN DESCRIPTOR
  1103	000435'				CCTBL:: 	BLOCK  2	; CURRENT CHARACTER TABLE
  1104	000437'				$HIST::		BLOCK  2	; HISTOGRAM TABLE
  1105	000441'				LSUBJ::		BLOCK  2	; LISTING SUBJECT
  1106	000443'				RP.A2::		BLOCK 4		; 2ND AND 3RD ARGS TO REPLACE
  1107	000447'				RP.TBL::	BLOCK 2		; TABLE USED BY REPLACE
  1108	000451'				TB.FNC::	BLOCK 2		; &FNCLEVEL TRBLOK
  1109	000453'				TB.STC::	BLOCK 2		; &STCOUNT TRBLOK
  1110	000455'				TB.STF::	BLOCK 2		; &STFCOUNT TRBLOK
  1111	000457'				TB.ERR::	BLOCK 2		; &ERRTYPE TRBLOK
  1112	401247'	200 00 0 00 401263'	ERRPRM::	XWD.	SDT,0	; &ERRPARM
  1113	401250'	202 00 0 00 000461'
  1114	000462'						BLOCK 1
  1115	401251'	200 00 0 00 401263'	ERRNAM::	XWD.	SDT,0	; &ERRNAME
  1116	401252'	202 00 0 00 000463'
  1117	000464'						BLOCK	1
  1118	401253'	200 00 0 00 401263'	ERRMSG::	XWD.	SDT,0	; &ERRMSG
  1119	401254'	202 00 0 00 000465'
  1120	000466'						BLOCK	1
  1121					IFN FTDDT,<
  1122	000467'				BPTBL::	BLOCK	2	;Break point table
  1123	000471'				DDTVAB::BLOCK	2	;VABLOK for DDT event association
  1124
  1125					>;END OF IFN FTDDT
  1126
  1127
  1128					;	END OF FIXED IMPURE DATA SECTION (FID)
  1129					;	ALSO BEGINNING OF ADJUSTABLE IMPURE DATA SECTION (AID)
  1130	000473'				AID::
  1131
  1132	401255'					RELOC
  1133	401255'	254 00 0 15 000000 		JRST	0(QLINK)		; END INIT AND RETURN
  1134						END

NO ERRORS DETECTED

HI-SEG. BREAK IS 401264
PROGRAM BREAK IS 000473
CPU TIME USED 13:53.362
SNODAT - Pure and Impure Data  %5(266)	MACRO %53B(1156)-1 21:52 14-Mar-88 Page 18-1
SNODAT	MAC	11-Jul-69 17:06		IMPURE DATA -- DESCRIPTOR STORAGE


44P CORE USED
SNODAT - Pure and Impure Data  %5(266)	MACRO %53B(1156)-1 21:52 14-Mar-88 Page S-1
SNODAT	MAC	11-Jul-69 17:06		SYMBOL TABLE

ADDRSA		000035		DATMIN		000000	spd	GROUND		000346'	int	NLMPGN		000254'	int
AID		000473'	int	DATSIX	444164	000000	spd	GSGBLK		000027		NLPGNO		000253'	int
ALBFSV		000063'	int	DATVER		000005	spd	GSGLEN		000036	spd	NOUTS		000261'	int
ALPHAC		400064'	int	DATWHO		000000	spd	GSURF		000246'	int	NSBASE		000235'	int
ALPHAN		000202		DDTVAB		000471'	int	GTFLAG		000145'	int	NSTACK		000336'	int
ARYID		000255'	int	DEPTR		000034'	int	GTZONE		000104'	int	NULLST		401132'	int
AUTOHS		000264'	int	DEVICE		000036'	int	HGHVER		000000'	int	NUMSTR		000171'	int
BARINC		000160'	int	DFDID		000257'	int	HIWATR		000231'	int	NXTUBE		000142'	int
BLOKSV		000155'	int	DFTEXT		000061'	int	HSBASE		000234'	int	OFF		003535	spd
BPTBL		000467'	int	DIM4		000250'	int	HSTACK		000335'	int	OUTF		000421'	int
BROOM		000236'	int	E15$		000000	sin	HSTLOC		000011'	int	PAGENO		000252'	int
BTBASE		000067'	int	E6$2		000000	sin	HSTSAV		000012'	int	PATT		000343'	int
BTLENG		000065'	int	ECBPTR		000133'	int	I.BUMP		401257'	ext	PLINK		000004
BTLJFL		000071'	int	EERR01		400541'	int	I.JRST		000271'	int	PMFLAG		000100'	int
BTMAX		000070'	int	EERR02		400232'	int	IGNOI		000346'	int	PPN		000042'	int
BTPTR		000066'	int	EESYSE		400246'	int	IGNOM		000332'	int	PPR		400041'	int
BTSIZE		000064'	int	EEUSER		400241'	int	IGNOP		000356'	int	PPRET		000270'
C.PAR		000024'	int	EF.FLG		000272'	int	IGNOQ		000411'	int	PPSA		400040'	int
CBLENG		000263'	int	ENDFLG		000111'	int	IGNOS		000367'	int	PREFIX		000114'	int
CCSCSV		000131'	int	ENDLBL		000106'	int	IGNOT		000400'	int	PREX		000227'	int
CCTBL		000435'	int	ERR	001000	000000		IGNOZ		000267'		PRIV		000041'	int
CDWSV		000030'	int	ERRLOC		000112'	int	ILABEL		000351'	int	PSHR		400020'	int
CE.BL		400172'	int	ERRMSG		000465'	int	ILOC		000353'	int	PSHR1		400026'
CE.BR		400202'	int	ERRNAM		000463'	int	IN.ERR		000113'	int	PSHSA		400014'	int
CE.GT		400235'	int	ERRPRM		000461'	int	INFILE		000431'	int	PTH		000043'	int
CE.IC		400146'	int	EXFLAG		000107'	int	INIMP		401134'	int	PTHEND		000054'	sin
CE.LS		400212'	int	EXPTR		000062'	int	IOBLKS		000056'	int	PTHPTR		000057'	int
CE.MB		400153'	int	EXT		000040'	int	JOBNO6		000016'	int	PUSHTP		000350'	int
CE.ME		400165'	int	FGT		000101'	int	JUNK		021000	sin	Q1		000015
CE.NI		400140'	int	FID		000016'	int	LASLOT		000141'	int	Q2		000016
CE.PL		400157'	int	FILNAM		000037'	int	LAST		000110'	int	QLINK		000015
CE.PRE		400136'	int	FLAP		000362'	int	LASTCI		000433'	int	RDFLGS		000033'	int
CE.QT		400222'	int	FLAQ		000415'	int	LCOUNT		000137'	int	RDLINK		000031'	int
CE.SYS		400226'	int	FLAS		000373'	int	LEVEL		000077'	int	RDQLNK		000035'	int
CE.UT		400216'	int	FLAT		000404'	int	LFLA		000004	spd	RDSTBL		000032'	int
CEIL		000230'	int	FLOOR		000232'	int	LHDR		000002	sin	RETNL1		400004'	int
CERARG		000115'	int	FRET1		400012'	int	LIGNO		000004	spd	RETNL2		400003'	int
CERLNK		000116'	int	FRET2		400011'	int	LIGNOI		000003	spd	RETNL3		400002'	int
CERRF		000425'	int	FRET3		400010'	int	LIGNOM		000007	spd	RETNUL		400005'	int
CMPNO		000251'	int	FRSTNM		000060'	int	LINENO		000266'	int	RGT		000103'	int
COMPIN		000427'	int	FTDDT	777777	777777	spd	LINES		000144'	int	RP.A2		000443'	int
CORE	047000	000011		FTESV		000150'	int	LISTF		000423'	int	RP.TBL		000447'	int
CPUTYP		000015'	int	FTOPS1	777777	777777	spd	LNCLSV		000161'	int	RSFLAG		000021'	int
CSDT		004013	sin	FTOPS2		000000	spd	LOCNTR		000134'	int	S.AVE		400441'	int
CTBLOK		000413	sin	FTPAV	777777	777777	spd	LOWVER		000006	spd	S.BAR		400627'	int
CURSOE		000105'	int	FTRC.E		400321'	int	LSAVEI		000010	spd	S.BL		400120'	int
CURSOR		000332'	int	FTRC.R		400324'	int	LSAVEM		000014	spd	S.BLLB		400134'	int
CVPTSV		000170'	int	FTSING		000000	spd	LSTR		000005	spd	S.BLNK		400327'	int
CVSTO1		000165'	int	FUTILE		000337'	int	LSUBJ		000441'	int	S.CAL		400660'	int
CVSTO2		000166'	int	GETOSV		000026'	int	LVTBL		000241'	int	S.CLST		400635'	int
CVSTO3		000167'	int	GETSEG	047000	000040		LWVRSN		000001'	int	S.CLT		400652'	int
CVSTOR		000164'	int	GETSG		000273'	int	MAXLEN		000334'	int	S.CM		400121'	int
CVTSAV		000132'	int	GETSGS		401175'		NGCS		000262'	int	S.CMTM		400403'	int
DATASC	422032	400000	spd	GRFLAG		000265'	int	NINS		000260'	int	S.DMP		400364'	int
DATEDT		000266	spd	GRID		000245'	int	NLINES		000247'	int	S.ED		400633'	int
SNODAT - Pure and Impure Data  %5(266)	MACRO %53B(1156)-1 21:52 14-Mar-88 Page S-2
SNODAT	MAC	11-Jul-69 17:06		SYMBOL TABLE

S.EOC		400332'	int	SAVET		000377'	int	VB.F		000073'	int	Y.UN	000001	000000	spd
S.EQL		400130'	int	SBLOK		000403	sin	VB.S		000072'	int	Y.UPS		400000	spd
S.EXTM		400411'	int	SCRAD		000340'	int	VB.ST		000074'	int	Y.VB		001000	spd
S.FIL		400713'	int	SDT		004003	sin	VTABLE		000240'	int	Y.VM		020000	spd
S.FLD		400423'	int	SEDIM		000157'	int	X.ALNU		401124'	int	Z		000000
S.FLID		400511'	int	SEGDEV		000002'	int	X.ALPH		401123'	int	$ABEND		000204'	int
S.FRET		400313'	int	SEGNAM		000003'	int	X.BL		400763'	int	$ALPHA		400062'	int
S.GC		400426'	int	SEGPPN		000006'	int	X.CM		400777'	int	$ANCH		000205'	int
S.GRID		400515'	int	SET.LB		000117'	int	X.CMRP		401127'	int	$ASSOC		000226'	int
S.HGH		400505'	int	SGT		000102'	int	X.COL		401015'	int	$CODE		000206'	int
S.HIST		400544'	int	SLKSAV		000163'	int	X.ID		401125'	int	$DUMP		000207'	int
S.HST		400461'	int	STACK		000001		X.LB		401017'	int	$ERRLM		000212'	int
S.ID		400526'	int	STATE		000143'	int	X.LOWS		401064'	int	$ERRLV		000213'	int
S.INP		400700'	int	STBASE		000233'	int	X.LP		400773'	int	$ERRTP		000210'	int
S.KEQ		400650'	int	STBLKS		000027'	int	X.NSC		401130'	int	$FNCLV		000172'	int
S.LAST		400353'	int	STCHD		000125'	int	X.NUM		401003'	int	$FTRC		000215'	int
S.LEV		400663'	int	STCPTR		000126'	int	X.NUM.		401126'	int	$FULL		000216'	int
S.LOW		400475'	int	STCREM		000130'	int	X.OP		400766'	int	$HIST		000437'	int
S.LP		400122'	int	STCTOT		000127'	int	X.Q		400772'	int	$INPUT		000217'	int
S.LPRP		400631'	int	STFLAG		000010'	int	X.QQ		400765'	int	$JOBNO		000203'	int
S.MLOW		400471'	int	STKSAV		000146'	int	X.R50		401131'	int	$LASTN		000174'	int
S.NINS		400433'	int	STPTR		000333'	int	X.RB		401021'	int	$MAXL		000220'	int
S.NO		400625'	int	STSAVE		000347'	int	X.RP		400774'	int	$OUTPT		000221'	int
S.NORM		400342'	int	SUBJ		000341'	int	X.SEMI		401016'	int	$RAND		000225'	int
S.NOUT		400436'	int	SVTLNK		000122'	int	X.TAB		400734'	int	$RTNTP		000175'	int
S.NRET		400316'	int	SYSBL		400126'	int	X.UPS		401024'	int	$STCNT		000176'	int
S.NST		400466'	int	SYSBLE		400720'		XERRF		000425'	int	$STFCT		000200'	int
S.OUT		400704'	int	SYSCT		400720'	int	XWD22		400000'	int	$STLIM		000222'	int
S.PAG		400716'	int	SYSCTB		400723'	int	XWD44		400001'	int	$STNO		000202'	int
S.PAR		000022'	int	SYSTR		400125'	int	Y.ALT		004000	spd	$TRACE		000223'	int
S.REE		400673'	int	T1SAV		000120'	int	Y.BL	200000	000000	spd	$TRIM		000224'	int
S.RET		400310'	int	T2SAV		000123'	int	Y.CM	001000	000000	spd	$VERSN		000214'	int
S.RP		400123'	int	T3SAV		000124'	int	Y.COL	000020	000000	spd	..0004		000217'
S.SMNT		400541'	int	TB.ERR		000457'	int	Y.CR		010000	spd	..0005		000220'
S.SST		400456'	int	TB.FNC		000451'	int	Y.CZ		000400	spd	..0006		000221'
S.STAT		400372'	int	TB.STC		000453'	int	Y.DOLR		000200	spd	..0007		000222'
S.STEX		400416'	int	TB.STF		000455'	int	Y.E		100000	spd	..0010		000226'
S.STKS		400521'	int	TBLID		000256'	int	Y.EQ		040000	spd	..0011		000227'
S.STMT		400645'	int	TBLSV		000152'	int	Y.LB	000004	000000	spd	..0012		000236'
S.TAB		400124'	int	TENDED		000331'	int	Y.LOWS		200000	spd	..0013		000237'
S.TEQ		400132'	int	TERMCH		000055'	int	Y.LP	010000	000000	spd	..0014		000247'
S.TIME		400642'	int	TIME.C		000243'	int	Y.MNS	000400	000000	spd	..0015		000251'
S.TRAN		400654'	int	TIME.E		000244'	int	Y.NUM	000040	000000	spd	..0016		000252'
S.TRET		400667'	int	TIME.S		000242'	int	Y.OP	100000	000000	spd	..0017		000253'
S.TTY		400702'	int	TLNKSV		000121'	int	Y.PCNT		000100	spd	..0020		000263'
S.USED		400451'	int	TLSAV		000154'	int	Y.PER	000100	000000	spd	..0021		000271'
S.VER		400531'	int	TMPOPN		000017'	int	Y.PLUS	002000	000000	spd	..0022		000272'
S.VTBL		400534'	int	TOOMCH		000237'	int	Y.Q	020000	000000	spd	..0023		000331'
S.XLIB		400707'	int	TR.TIM		000162'	int	Y.QQ	040000	000000	spd	..0024		000345'
S1		000006		TRFLGS		000020'	int	Y.RB	000002	000000	spd	..0025		000355'
SAVEI		000345'	int	TSAVE		000135'	int	Y.RP	004000	000000	spd	..0026		000366'
SAVEM		000331'	int	TTYBLK		000025'	int	Y.SEMI	000010	000000	spd	..0027		000377'
SAVEP		000355'	int	V.PAR		000023'	int	Y.SLSH		002000	spd	..0030		000410'
SAVEQ		000410'	int	VB.BL		000075'	int	Y.STAR	000200	000000	spd	..0031		000461'
SAVES		000366'	int	VB.EQ		000076'	int	Y.TAB	400000	000000	spd	..0032		000463'
SNODAT - Pure and Impure Data  %5(266)	MACRO %53B(1156)-1 21:52 14-Mar-88 Page S-3
SNODAT	MAC	11-Jul-69 17:06		SYMBOL TABLE

..0033		000465'
.CHTAB		000011	spd
.JBSA		000120


SNODAT - Pure and Impure Data  %5(266)	MACRO %53B(1156)-1 21:52 14-Mar-88 Page 1
SNODAT	MAC	11-Jul-69 17:06		GIMPEL--MA355/JDS/DRH/MP/RCM/VB		16-JULY-76


Symbol cross reference

ADDRSA	   987	   999	  1009#
AID	  1130#
ALBFSV	   752#
ALPHAC	   182	   184#
ALPHAN	   190#	   193	   194	   194#	   195	   195#	   196	   196#	   197	   197#	   198	   198#	   199	   199#
	   200	   200#	   201	   201#	   202	   202#	   203	   203#	   204	   204#	   205	   205#	   206	   206#
	   207	   207#	   208	   208#	   209	   209#	   210	   210#	   211	   211#	   212	   212#	   213	   213#
	   214	   214#	   215	   215#	   216	   216#	   217	   217#	   218	   218#	   219	   219#
ARYID	   938#
AUTOHS	   946#
BARINC	   843#
BLOKSV	   838#
BPTBL	  1122#
BROOM	   917#
BTBASE	   756#
BTLENG	   754#
BTLJFL	   758#
BTMAX	   757#
BTPTR	   755#
BTSIZE	   753#
C.PAR	   729#
CBLENG	   944#
CCSCSV	   808#
CCTBL	  1103#
CDWSV	   733#
CE.BL	   294#
CE.BR	   296#
CE.GT	   315#	   316#
CE.IC	   283#
CE.LS	   298#
CE.MB	   285#
CE.ME	   292#
CE.NI	   281#
CE.PL	   290#
CE.PRE	   277#
CE.QT	   302#
CE.SYS	   304#
CE.UT	   300#
CEIL	   911#
CERARG	   784#
CERLNK	   785#
CERRF	  1096#
CMPNO	   931#
COMPIN	  1098#
CPUTYP	   714#
CSDT	   495
CTBLOK	   496
CURSOE	   773#
CURSOR	  1032#
CVPTSV	   857#
SNODAT - Pure and Impure Data  %5(266)	MACRO %53B(1156)-1 21:52 14-Mar-88 Page 1
SNODAT	MAC	11-Jul-69 17:06		GIMPEL--MA355/JDS/DRH/MP/RCM/VB		16-JULY-76


Symbol cross reference

CVSTO1	   851#
CVSTO2	   852#
CVSTO3	   853#
CVSTOR	   850#
CVTSAV	   809#
DATASC	    33#
DATEDT	    26#
DATMIN	    25#
DATSIX	    32#
DATVER	    24#
DATWHO	    27#
DDTVAB	  1123#
DEPTR	   737#
DEVICE	   739#
DFDID	   940#
DFTEXT	   750#
DIM4	   930#
E15$	   991#	   995#
E6$2	   143#
ECBPTR	   813#
EERR01	   408#
EERR02	   312#
EESYSE	   320#
EEUSER	   318#
EF.FLG	   959#
ENDFLG	   777#
ENDLBL	   774#
ERRLOC	   781#
ERRMSG	  1118#
ERRNAM	  1115#
ERRPRM	  1112#
EXFLAG	   775#
EXPTR	   751#
EXT	   741#
FGT	   769#
FID	   716#
FILNAM	   740#
FLAP	  1066#
FLAQ	  1084#
FLAS	  1072#
FLAT	  1078#
FLOOR	   913#
FRET1	   104#
FRET2	   103#
FRET3	   102#
FRSTNM	   749#
FTDDT	    91	   952	  1121
FTESV	   829#
FTOPS1	   478
FTOPS2	   480
SNODAT - Pure and Impure Data  %5(266)	MACRO %53B(1156)-1 21:52 14-Mar-88 Page 1
SNODAT	MAC	11-Jul-69 17:06		GIMPEL--MA355/JDS/DRH/MP/RCM/VB		16-JULY-76


Symbol cross reference

FTPAV	   903
FTRC.E	   340#
FTRC.R	   342#
FTSING	   967
FUTILE	  1038#
GETOSV	   731#
GETSG	   971	   972	   976	   997	  1015#
GETSGS	   970	   975#	  1012
GRFLAG	   947#
GRID	   926#
GROUND	  1051#
GSGBLK	   977	   979	   980	   993	  1008#
GSGLEN	   972	   973	  1012#	  1015
GSURF	   927#
GTFLAG	   824#
GTZONE	   772#
HGHVER	   703#
HIWATR	   912#
HSBASE	   915#
HSTACK	  1036#
HSTLOC	   712#
HSTSAV	   713#
I.BUMP	   953
I.JRST	   953#
IGNOI	  1050#
IGNOM	  1031#
IGNOP	   983	   984	  1002	  1065#
IGNOQ	  1083#
IGNOS	  1071#
IGNOT	  1077#
IGNOZ	   165	   174	   949#
ILABEL	  1059#
ILOC	  1060#
IN.ERR	   782#
INFILE	  1099#
INIMP	   670#
IOBLKS	   747#
JOBNO6	   723#
JUNK	   128	  1028	  1048	  1063	  1069	  1075	  1081
LASLOT	   820#
LAST	   776#
LASTCI	  1102#
LCOUNT	   816#
LEVEL	   767#
LFLA	  1066	  1072	  1078	  1084
LHDR	   496
LIGNO	  1063	  1065	  1069	  1071	  1075	  1077	  1081	  1083
LIGNOI	  1048
LIGNOM	  1028
LINENO	   948#
SNODAT - Pure and Impure Data  %5(266)	MACRO %53B(1156)-1 21:52 14-Mar-88 Page 1
SNODAT	MAC	11-Jul-69 17:06		GIMPEL--MA355/JDS/DRH/MP/RCM/VB		16-JULY-76


Symbol cross reference

LINES	   823#
LISTF	  1095#
LNCLSV	   844#
LOCNTR	   814#
LOWVER	   704
LSAVEI	  1061
LSAVEM	  1044
LSTR	   267#	   267	   269	   269#	   271	   271#	   273	   277#	   277	   279	   281#	   281	   283	   283#
	   285	   285#	   287	   290#	   290	   292	   292#	   294	   294#	   296	   296#	   298	   298#	   300
	   300#	   302	   302#	   304	   304#	   306	   312#	   312	   314	   316#	   316	   318	   318#	   320
	   322#	   322	   326	   330#	   330	   332	   332#	   334	   334#	   336	   340#	   340	   342	   342#
	   344	   347#	   347	   349	   352#	   352	   355	   355#	   357	   357#	   359	   359#	   361	   363#
	   363	   366	   366#	   368	   368#	   370	   370#	   372	   372#	   374	   374#	   376	   376#	   378
	   378#	   380	   380#	   382	   382#	   384	   384#	   386	   386#	   388	   388#	   390	   390#	   392
	   392#	   394	   394#	   396	   396#	   398	   398#	   400	   400#	   402	   402#	   404	   404#	   406
	   406#	   408	   409#	   409	   411	   419#	   419	   429	   431#	   431	   433	   433#	   435	   435#
	   437	   437#	   439	   439#	   441	   441#	   443	   443#	   445	   445#	   447	   447#	   449	   449#
	   451	   451#	   453	   453#	   455	   455#	   457	   457#	   459	   466#	   466	   468	   468#	   470
	   470#	   472	   478#	   478	   480	   485#	   485	   487	   487#	   489
LSUBJ	  1105#
LVTBL	   922#
LWVRSN	   704#
MAXLEN	  1034#
NGCS	   943#
NINS	   941#
NLINES	   928#
NLMPGN	   937#
NLPGNO	   935#
NOUTS	   942#
NSBASE	   916#
NSTACK	  1037#
NULLST	    96	    97	   654#
NUMSTR	   861#
NXTUBE	   821#
OFF	   256#	   267	   269	   269#	   271	   271#	   273	   273#	   277	   279	   279#	   281	   283	   283#
	   285	   285#	   287	   287#	   290	   292	   292#	   294	   294#	   296	   296#	   298	   298#	   300
	   300#	   302	   302#	   304	   304#	   306	   306#	   312	   314	   314#	   316	   318	   318#	   320
	   320#	   322	   326	   326#	   330	   332	   332#	   334	   334#	   336	   336#	   340	   342	   342#
	   344	   344#	   347	   349	   349#	   352	   355	   355#	   357	   357#	   359	   359#	   361	   361#
	   363	   366	   366#	   368	   368#	   370	   370#	   372	   372#	   374	   374#	   376	   376#	   378
	   378#	   380	   380#	   382	   382#	   384	   384#	   386	   386#	   388	   388#	   390	   390#	   392
	   392#	   394	   394#	   396	   396#	   398	   398#	   400	   400#	   402	   402#	   404	   404#	   406
	   406#	   408	   408#	   409	   411	   411#	   419	   429	   429#	   431	   433	   433#	   435	   435#
	   437	   437#	   439	   439#	   441	   441#	   443	   443#	   445	   445#	   447	   447#	   449	   449#
	   451	   451#	   453	   453#	   455	   455#	   457	   457#	   459	   459#	   466	   468	   468#	   470
	   470#	   472	   472#	   478	   480	   480#	   485	   487	   487#	   489	   489#
OUTF	  1094#
PAGENO	   933#
PATT	  1043#
PLINK	    98	   105	  1006
SNODAT - Pure and Impure Data  %5(266)	MACRO %53B(1156)-1 21:52 14-Mar-88 Page 1
SNODAT	MAC	11-Jul-69 17:06		GIMPEL--MA355/JDS/DRH/MP/RCM/VB		16-JULY-76


Symbol cross reference

PMFLAG	   768#
PPN	   743#
PPR	   157#
PPRET	   113	   124	   145	   148	   159	   171	   175	   178	   950#
PPSA	   156#
PREFIX	   783#
PREX	   908#
PRIV	   742#
PSHR	   124#
PSHR1	   117	   133#
PSHSA	   113#
PTH	   744#
PTHEND	   745#
PTHPTR	   748#
PUSHTP	  1056#
Q1	   113	   114	   116	   124	   125	   127	   140	   145	   159	   160	   162	   169	   170	   171
Q2	   977	   978	   979
QLINK	  1133
RDFLGS	   736#
RDLINK	   734#
RDQLNK	   738#
RDSTBL	   735#
RETNL1	    95#
RETNL2	    94#
RETNL3	    92#
RETNUL	    96#
RGT	   771#
RP.A2	  1106#
RP.TBL	  1107#
RSFLAG	   726#
S.AVE	   380#
S.BAR	   433#
S.BL	   223#
S.BLLB	   271#
S.BLNK	   347#
S.CAL	   451#
S.CLST	   439#
S.CLT	   447#
S.CM	   224#
S.CMTM	   366#
S.DMP	   359#
S.ED	   437#
S.EOC	   349#
S.EQL	   267#
S.EXTM	   368#
S.FIL	   485#
S.FLD	   372#
S.FLID	   396#
S.FRET	   332#
S.GC	   374#
SNODAT - Pure and Impure Data  %5(266)	MACRO %53B(1156)-1 21:52 14-Mar-88 Page 1
SNODAT	MAC	11-Jul-69 17:06		GIMPEL--MA355/JDS/DRH/MP/RCM/VB		16-JULY-76


Symbol cross reference

S.GRID	   398#
S.HGH	   394#
S.HIST	   411#
S.HST	   386#
S.ID	   402#
S.INP	   466#
S.KEQ	   445#
S.LAST	   357#
S.LEV	   453#
S.LOW	   392#
S.LP	   225#
S.LPRP	   435#
S.MLOW	   390#
S.NINS	   376#
S.NO	   431#
S.NORM	   355#
S.NOUT	   378#
S.NRET	   334#
S.NST	   388#
S.OUT	   470#
S.PAG	   487#
S.PAR	   727#
S.REE	   457#
S.RET	   330#
S.RP	   226#
S.SMNT	   409#
S.SST	   384#
S.STAT	   361#
S.STEX	   370#
S.STKS	   400#
S.STMT	   443#
S.TAB	   227#
S.TEQ	   269#
S.TIME	   441#
S.TRAN	   449#
S.TRET	   455#
S.TTY	   468#
S.USED	   382#
S.VER	   404#
S.VTBL	   406#
S.XLIB	   477#
S1	   976	   977	   979	   980	   987	   993	   997	   999
SAVEI	  1048#	  1061
SAVEM	  1028#	  1044
SAVEP	  1063#
SAVEQ	  1081#
SAVES	  1069#
SAVET	  1075#
SBLOK	   184	   260
SCRAD	  1039#
SNODAT - Pure and Impure Data  %5(266)	MACRO %53B(1156)-1 21:52 14-Mar-88 Page 1
SNODAT	MAC	11-Jul-69 17:06		GIMPEL--MA355/JDS/DRH/MP/RCM/VB		16-JULY-76


Symbol cross reference

SDT	   182	   258	   654	  1112	  1115	  1118
SEDIM	   839#
SEGDEV	   706#	   978
SEGNAM	   707#
SEGPPN	   709#
SET.LB	   786#
SGT	   770#
SLKSAV	   846#
STACK	    92	    94	    95	    96	    97	   102	   103	   104	   129	   136	   137	   142	   146	   164
	   165	   167	   168	   169	   172	   174	   176
STATE	   822#
STBASE	   914#
STBLKS	   732#
STCHD	   801#
STCPTR	   802#
STCREM	   804#
STCTOT	   803#
STFLAG	   711#
STKSAV	   825#
STPTR	  1033#
STSAVE	  1054#
SUBJ	  1042#
SVTLNK	   795#
SYSBL	   260#	   260
SYSBLE	   260	   489#
SYSCT	   495#
SYSCTB	   500#
SYSTR	   258#
T1SAV	   790#
T2SAV	   796#
T3SAV	   797#
TB.ERR	  1111#
TB.FNC	  1108#
TB.STC	  1109#
TB.STF	  1110#
TBLID	   939#
TBLSV	   830#
TENDED	  1024#
TERMCH	   746#
TIME.C	   924#
TIME.E	   925#
TIME.S	   923#
TLNKSV	   794#
TLSAV	   834#
TMPOPN	   724#
TOOMCH	   919#
TR.TIM	   845#
TRFLGS	   725#
TSAVE	   815#
TTYBLK	   730#
SNODAT - Pure and Impure Data  %5(266)	MACRO %53B(1156)-1 21:52 14-Mar-88 Page 1
SNODAT	MAC	11-Jul-69 17:06		GIMPEL--MA355/JDS/DRH/MP/RCM/VB		16-JULY-76


Symbol cross reference

V.PAR	   728#
VB.BL	   765#
VB.EQ	   766#
VB.F	   763#
VB.S	   762#
VB.ST	   764#
VTABLE	   921#
X.ALNU	   643#
X.ALPH	   642#
X.BL	   535#
X.CM	   548#
X.CMRP	   646#
X.COL	   563#
X.ID	   644#
X.LB	   565#
X.LOWS	   604#
X.LP	   544#
X.NSC	   647#
X.NUM	   552#
X.NUM.	   645#
X.OP	   538#
X.Q	   543#
X.QQ	   537#
X.R50	   650#
X.RB	   567#
X.RP	   545#
X.SEMI	   564#
X.TAB	   510#
X.UPS	   570#
XERRF	  1097#
XWD22	    86#	    92	    94	    95	   102	   103	   104
XWD44	    87#
Y.ALT	   529
Y.BL	   535
Y.CM	   548	   646
Y.COL	   563
Y.CR	   514
Y.CZ	   528
Y.DOLR	   539	   650
Y.E	   574	   575	   647
Y.EQ	   566
Y.LB	   565	   598	   631
Y.LOWS	   605	   606	   607	   608	   609	   610	   611	   612	   613	   614	   615	   616	   617	   618
	   619	   620	   621	   622	   623	   624	   625	   626	   627	   628	   629	   630	   642	   643
	   644	   650
Y.LP	   544
Y.MNS	   549	   647
Y.NUM	   553	   554	   555	   556	   557	   558	   559	   560	   561	   562	   643	   644	   645	   647
Y.OP	   536	   538	   539	   540	   541	   546	   547	   549	   550	   551	   566	   568	   569	   599
	   601	   602	   632	   634
SNODAT - Pure and Impure Data  %5(266)	MACRO %53B(1156)-1 21:52 14-Mar-88 Page 1
SNODAT	MAC	11-Jul-69 17:06		GIMPEL--MA355/JDS/DRH/MP/RCM/VB		16-JULY-76


Symbol cross reference

Y.PCNT	   540	   650
Y.PER	   550	   644	   645	   647	   650
Y.PLUS	   547	   647
Y.Q	   543
Y.QQ	   537
Y.RB	   567	   600	   633
Y.RP	   545	   646
Y.SEMI	   564
Y.SLSH	   551
Y.STAR	   546
Y.TAB	   510
Y.UN	   602	   644
Y.UPS	   571	   572	   573	   574	   575	   577	   578	   579	   580	   581	   582	   583	   584	   585
	   586	   587	   588	   589	   590	   591	   592	   593	   594	   595	   596	   597	   642	   643
	   644	   650
Y.VB	   536	   601	   632
Y.VM	   511	   512	   513
Z	   114	   116	   125	   127	   128	   129	   131	   135	   136	   137	   139	   140	   146	   156
	   157	   160	   162	   163	   164	   167	   168	   170	   172	   176	   890	   891	   892	   893
	   894	   895	   896	   897	   904	   905	   908	   909	   917	   918	   919	   920	   928	   929
	   931	   932	   933	   934	   935	   936	   944	   945	   953	   954	   970	   971	   972	   980
	   982	   983	   984	   986	   987	   989	   990	   993	   994	   999	  1000	  1002	  1003	  1004
	  1028	  1029	  1048	  1049	  1063	  1064	  1069	  1070	  1075	  1076	  1081	  1082	  1112	  1113
	  1115	  1116	  1118	  1119
$ABEND	   879#
$ALPHA	   182#
$ANCH	   880#
$ASSOC	   904#
$CODE	   881#
$DUMP	   882#
$ERRLM	   885#
$ERRLV	   886#
$ERRTP	   883#
$FNCLV	   866#
$FTRC	   888#
$FULL	   889#
$HIST	  1104#
$INPUT	   890#
$JOBNO	   875#
$LASTN	   868#
$MAXL	   892#
$OUTPT	   894#
$RAND	   900#
$RTNTP	   869#
$STCNT	   870#
$STFCT	   872#
$STLIM	   896#
$STNO	   874#
$TRACE	   898#
$TRIM	   899#
SNODAT - Pure and Impure Data  %5(266)	MACRO %53B(1156)-1 21:52 14-Mar-88 Page 1
SNODAT	MAC	11-Jul-69 17:06		GIMPEL--MA355/JDS/DRH/MP/RCM/VB		16-JULY-76


Symbol cross reference

$VERSN	   887#
..0004	   890#	   891
..0005	   892#	   893
..0006	   894#	   895
..0007	   896#	   897
..0010	   904#	   905
..0011	   908#	   909
..0012	   917#	   918
..0013	   919#	   920
..0014	   928#	   929
..0015	   931#	   932
..0016	   933#	   934
..0017	   935#	   936
..0020	   944#	   945
..0021	   953#	   954
..0022	   959#	   959
..0023	  1028#	  1029
..0024	  1048#	  1049
..0025	  1063#	  1064
..0026	  1069#	  1070
..0027	  1075#	  1076
..0030	  1081#	  1082
..0031	  1112#	  1113
..0032	  1115#	  1116
..0033	  1118#	  1119
.CHTAB	   227
.JBSA	   986	  1000
SNODAT - Pure and Impure Data  %5(266)	MACRO %53B(1156)-1 21:52 14-Mar-88 Page 1
SNODAT	MAC	11-Jul-69 17:06		GIMPEL--MA355/JDS/DRH/MP/RCM/VB		16-JULY-76


Macro/Opdef cross reference

ALPHAM	   189#	   193	   194	   195	   196	   197	   198	   199	   200	   201	   202	   203	   204	   205
	   206	   207	   208	   209	   210	   211	   212	   213	   214	   215	   216	   217	   218
CORE	   990
DATPTX	    38
DATTTL	    37
ERR	   143	   991	   995
ERROR	   143	   991	   995
EXP.	   681#	   890	   892	   894	   904	   908	   917	   919	   928	   931	   933	   935	   944	   959
GETSEG	   994
MOVX	   890	   892	   894	   904	   908	   917	   919	   928	   931	   933	   935	   944
NUMBER	   245#	   267	   269	   271	   277	   281	   283	   285	   290	   292	   294	   296	   298	   300
	   302	   304	   312	   316	   318	   322	   330	   332	   334	   340	   342	   347	   352	   355
	   357	   359	   363	   366	   368	   370	   372	   374	   376	   378	   380	   382	   384	   386
	   388	   390	   392	   394	   396	   398	   400	   402	   404	   406	   409	   419	   431	   433
	   435	   437	   439	   441	   443	   445	   447	   449	   451	   453	   455	   457	   466	   468
	   470	   478	   485	   487
SNONME	   404
STORE	   890	   892	   894	   904	   908	   917	   919	   928	   931	   933	   935	   944	   959
STRING	   246#	   267	   269	   271	   277	   281	   283	   285	   290	   292	   294	   296	   298	   300
	   302	   304	   312	   316	   318	   320	   330	   332	   334	   340	   342	   347	   349	   355
	   357	   359	   361	   366	   368	   370	   372	   374	   376	   378	   380	   382	   384	   386
	   388	   390	   392	   394	   396	   398	   400	   402	   404	   406	   409	   411	   431	   433
	   435	   437	   439	   441	   443	   445	   447	   449	   451	   453	   455	   457	   466	   468
	   470	   478	   485	   487
TITLE.	    31
WORD.	   692#	   953
XWD.	   672#	   896	  1028	  1048	  1063	  1069	  1075	  1081	  1112	  1115	  1118p4c