SNODEB - Debugging Additions to SITBOL  %5(134)	MACRO %53B(1156)-1 21:48 14-Mar-88 Page 1
SNODEB	MAC	13-Oct-66 22:24		D. R. Hanson/RCM/VB		15-July-76

     1						SUBTTL	D. R. Hanson/RCM/VB		15-July-76
     2
     3					; Support for the additional debugging features.
     4					; COPYRIGHT (C) 1976,1977  STEVENS INSTITUTE OF TECHNOLOGY,
     5					; HOBOKEN, NEW JERSEY, 07030
     6					; ALL RIGHTS RESERVED.
     7
     8
     9					  ;UNIVERSALS
    10
    11						SEARCH	JOBDAT	;JOB DATA AREA DEFINITIONS
    12						SEARCH	MACTEN		;DEC-10 MACRO DEFINITIONS
    13						SEARCH	UUOSYM		;TOPS10 UUO SYMBOLS
    14						SEARCH	SNOPRM		;SITBOL PARAMETERS
    15
    16					  ;DIRECTIVES
    17
    18						.DIRECT	.XTABM		;EXCLUDE TABS FROM MACRO CALLS
    19						SALL			;SUPPRESS MACRO EXPANSIONS
    20	400000'					TWOSEG	400K		;TWO SEGMENTS
    21
    22					  ;VERSION NUMBER
    23
    24			000005			DEBVER==5		;MAJOR VERSION
    25			000000			DEBMIN==0		;MINOR VERSION
    26			000134			DEBEDT==134		;EDIT LEVEL
    27			000000			DEBWHO==0		;CUSTOMER VERSION
    28
    29					  ;TITLE
    30
    31						TITLE.	DEB,SNODEB,<Debugging Additions to SITBOL>
    32		444542	000000			DEBSIX==SIXBIT /DEB/	; SNODEB ABBREVIATION IN SIXBIT
    33		422130	200000			DEBASC==ASCIZ /DEB/	; SNODEB ABBREVIATION IN ASCII
    34						SALL
    35
    36
    37					  ;SHOW UNIVERSALS'S VERSION NUMBERS
    38
    39	400000'	000500	000305			SHOW.	%%SNOP		;VERSION NUMBER OF SNOPRM
    40	400000'	000200	000025			SHOW.	%%MACT		;VERSION NUMBER OF MACTEN
    41	400000'	001400	000457			SHOW.	%%UUOS		;VERSION NUMBER OF UUOSYM
    42	400000'	043100	000450			SHOW.	%%JOBD		;VERSION NUMBER OF JOBDAT
    43					IFE FTDDT,<END>			; stop now if we don't want this feature
    44
    45						DEBTTL			; Title
    46						DEBPTX			; PASS2 assembly message
SNODEB - Debugging Additions to SITBOL  %5(134)	MACRO %53B(1156)-1 21:48 14-Mar-88 Page 2
SNODEB	MAC	13-Oct-66 22:24		Table of Contents

    47						SUBTTL	Table of Contents
    48
    49					;		Table of Contents for Debugging Additions to SITBOL
    50					;
    51					;
    52					;			   Section			      Page
    53					;   1. Table of Contents. . . . . . . . . . . . . . . . . . .    2
    54					;   2. Revision History . . . . . . . . . . . . . . . . . . .    3
    55					;   3. Primary Function
    56					;        3.1.   INSERTBP(label,offset,process). . . . . . . .    4
    57					;        3.2.   REMOVEBP(label,offset,process). . . . . . . .    5
    58					;        3.3.   WHERE(label,offset) . . . . . . . . . . . . .    6
    59					;        3.4.   CONNECT(event,process). . . . . . . . . . . .    7
    60					;        3.5.   DISCONNECT(event,proess). . . . . . . . . . .    8
    61					;   4. Breakpoint Handling. . . . . . . . . . . . . . . . . .    9
    62					;   5. Program Interruption Handling. . . . . . . . . . . . .   10
    63					;   6. Utilities
    64					;        6.1.   CVTLAB. . . . . . . . . . . . . . . . . . . .   11
    65					;        6.2.   EVTIDX. . . . . . . . . . . . . . . . . . . .   12
SNODEB - Debugging Additions to SITBOL  %5(134)	MACRO %53B(1156)-1 21:48 14-Mar-88 Page 3
SNODEB	MAC	13-Oct-66 22:24		Revision History

    66						SUBTTL	Revision History
    67
    68					COMMENT	\
    69					131	Add this module to SITBOL.  From University of Arizona
    70						David R. Hanson.
    71					134	Add PORTALS for execute only.
    72					\
SNODEB - Debugging Additions to SITBOL  %5(134)	MACRO %53B(1156)-1 21:48 14-Mar-88 Page 4
SNODEB	MAC	13-Oct-66 22:24		Primary Function -- INSERTBP(label,offset,process)

    73						SUBTTL	Primary Function -- INSERTBP(label,offset,process)
    74
    75
    76	400000'	332 00 0 00 000000*	IBP::	SKIPE	BPTBL##		; is there a breakpoint table?
    77	400001'	254 00 0 00 400006'		 JRST	IBP1		; yep--flow around initialization
    78
    79						 ; Initialize the breakpoint table
    80
    81	400002'	201 00 0 00 000007 		MOVEI	Z,^D7		; only 7 buckets
    82	400003'	265 11 0 00 000000*		JSP	TLINK,TBL##	; allocate the table
    83	400004'	262 01 0 00 000000#		POP	STACK,BPTBL+1	; establish as the breakpoint table
    84	400005'	262 01 0 00 400000*		POP	STACK,BPTBL
    85
    86						 ; Verify arguments and allocate a table element
    87
    88	400006'	554 11 0 01 777777 	IBP1:	HLRZ	T1,-1(STACK)	; get datatype of 3rd argument
    89	400007'	302 11 0 00 004012 		CAIE	T1,DDT		; better be defined
    90	400010'	003 01 0 00 000462 		 ERROR.	1,306		; you lose
    91	400011'	550 11 0 01 777777 		HRRZ	T1,-1(STACK)	; it is--now get DBLOK address
    92	400012'	550 11 0 11 000000 		HRRZ	T1,BLENG(T1)	; get block length
    93	400013'	305 11 0 00 000011 		CAIGE	T1,PRLEN	; long enough?
    94	400014'	003 15 0 00 000455 		 ERROR.	13,301		; nope
    95
    96	400015'	265 11 0 00 000000*		JSP	TLINK,GPRLVL##	; get process level
    97	400016'	003 01 0 00 000463 		 ERROR.	1,307		; oops??
    98	400017'	202 12 0 00 000000*		MOVEM	T2,IGNOP##	; save for later
    99	400020'	262 01 0 00 000000#		POP	STACK,FLAP##+1	; save defined data object...
   100	400021'	262 01 0 00 000000*		POP	STACK,FLAP##	; for later
   101
   102	400022'	265 06 0 00 400377'		JSP	SLINK,CVTLAB	; convert 1st and 2nd args to CODE dt
   103	400023'	001 01 0 00 000464 		 ERROR	1,308		; you blew it
   104
   105	400024'	261 01 0 00 400005*		PUSH	STACK,BPTBL	; push breakpoint table
   106	400025'	261 01 0 00 000000#		PUSH	STACK,BPTBL+1
   107	400026'	261 01 0 01 777775 		PUSH	STACK,-3(STACK)	; replicate code descriptor
   108	400027'	261 01 0 01 777775 		PUSH	STACK,-3(STACK)
   109	400030'	265 11 0 00 000000*		JSP	TLINK,ALTE##	; allocate a table element
   110	400031'	265 07 0 00 000000*		JSP	S2,ITE##	; and insert it into the table
   111	400032'	254 00 0 00 400036'		 JRST	IBP1A		; element was already there
   112	400033'	550 11 0 01 777777 		HRRZ	T1,-1(STACK)	; virgin TEBLOk--get its address
   113	400034'	402 00 0 11 000004 		CLEARM	TEVAL(T1)	; zap the value field
   114	400035'	402 00 0 11 000005 		CLEARM	TEVAL+1(T1)	;  to indicate end of list
   115
   116						 ; Allocate a VABLOK and fill in the fields
   117
   118	400036'	200 00 0 00 400475'	IBP1A:	MOVE	Z,[VABLOK,,VALEN]	; we need a VABLOK
   119	400037'	265 15 0 00 000000*		JSP	QLINK,BLOK##	; get storage
   120	400040'	001 06 0 00 000001 		 ERROR	6,1		; you lose big
   121	400041'	262 01 0 00 000000 		POP	STACK,Z		; toss junk
   122	400042'	262 01 0 00 000005 		POP	STACK,P2	; get address of VABLOK
   123
   124	400043'	515 15 0 00 002001 		HRLZI	Q1,IDT		; get integer 0 and fill in...
   125	400044'	202 15 0 05 000010 		MOVEM	Q1,VAFLG(P2)	;  flag field
   126
   127	400045'	200 16 0 00 000000#		DMOVE	Q1,FLAP		; load process description
SNODEB - Debugging Additions to SITBOL  %5(134)	MACRO %53B(1156)-1 21:48 14-Mar-88 Page 4-1
SNODEB	MAC	13-Oct-66 22:24		Primary Function -- INSERTBP(label,offset,process)

   128	400046'	200 15 0 00 400021*
   129	400047'	202 15 0 05 000006 		DMOVEM	Q1,VAPROC(P2)	; and fill proper field
   130	400050'	202 16 0 05 000007
   131
   132	400051'	200 16 0 01 777776 		DMOVE	Q1,-3(STACK)	; get code descriptor
   133	400052'	200 15 0 01 777775
   134	400053'	202 15 0 05 000004 		DMOVEM	Q1,VANAME(P2)	; and use as name of trap
   135	400054'	202 16 0 05 000005
   136
   137	400055'	262 01 0 00 000000 		POP	STACK,Z		; toss second descriptor word of TVAR
   138	400056'	262 01 0 00 000012 		POP	STACK,T2	; get address of TEBLOK
   139	400057'	271 12 0 00 000004 		ADDI	T2,TEVAL	; point directly to value field
   140	400060'	200 13 0 00 400017*		MOVE	T3,IGNOP	; load new level
   141	400061'	265 11 0 00 000000*		JSP	TLINK,FNDPOS##	; seek proper position in trap chain
   142	400062'	200 16 0 12 000001 		DMOVE	Q1,0(T2)	; get value to displace
   143	400063'	200 15 0 12 000000
   144	400064'	202 15 0 05 000002 		DMOVEM	Q1,VAVAL(P2)	; store in VABLOK
   145	400065'	202 16 0 05 000003
   146	400066'	505 05 0 00 034000 		HRLI	P2,TVAR		; replace value by a trapped
   147	400067'	202 05 0 12 000000 		MOVEM	P2,0(T2)	;  variable pointing to
   148	400070'	201 15 0 00 400077'		MOVEI	Q1,BPERR	;  old blok and an error
   149	400071'	202 15 0 12 000001 		MOVEM	Q1,1(T2)	;  point if we ever try to use TVAR
   150
   151						 ; Place a hook in the compiled code
   152
   153	400072'	550 07 0 01 777777 		HRRZ	S2,-1(STACK)	; get CBLOK address
   154	400073'	270 07 0 01 000000 		ADD	S2,0(STACK)	; point to statement
   155	400074'	201 15 0 00 400266'		MOVEI	Q1,BRKPNT	; get new interpreter function
   156	400075'	542 15 0 07 000000 		HRRM	Q1,CHEAD(S2)	; stash in code
   157	400076'	254 00 0 00 000000*		JRST	RETNL1##	; return
   158
   159						 ; Here if we ever try to use TVAR in VABLOKs
   160
   161	400077'				BPERR:
   162					REPEAT 3,<ERROR	15>
   163	400077'	001 17 0 00 000000
   164	400100'	001 17 0 00 000000
   165	400101'	001 17 0 00 000000

   166
SNODEB - Debugging Additions to SITBOL  %5(134)	MACRO %53B(1156)-1 21:48 14-Mar-88 Page 5
SNODEB	MAC	13-Oct-66 22:24		Primary Function -- REMOVEBP(label,offset,process)

   167						SUBTTL	Primary Function -- REMOVEBP(label,offset,process)
   168
   169	400102'	336 00 0 00 400024*	RBP::	SKIPN	BPTBL##		; is breakpoint table here?
   170	400103'	254 00 0 00 000000*		 JRST	RETNL3##	; no--return null
   171
   172	400104'	262 01 0 00 000000#		POP	STACK,FLAP+1	; yes--save process description
   173	400105'	262 01 0 00 400046*		POP	STACK,FLAP
   174
   175	400106'	265 06 0 00 400377'		JSP	SLINK,CVTLAB	; convert first 2 args to CODE dt
   176	400107'	001 01 0 00 000464 		 ERROR	1,308		; too bad
   177
   178						 ; Check to see if statement has any breakpoints
   179
   180	400110'	200 11 0 01 777777 		MOVE	T1,-1(STACK)	; get CBLOK address
   181	400111'	270 11 0 01 000000 		ADD	T1,0(STACK)	; point to statement
   182	400112'	550 11 0 11 000000 		HRRZ	T1,CHEAD(T1)	; get first interpreter fcn. address
   183	400113'	302 11 0 00 400266'		CAIE	T1,BRKPNT	; breakpoint?
   184	400114'	254 00 0 00 400076*		 JRST	RETNL1##	; nope--we are done
   185
   186	400115'	201 11 0 01 777775 		MOVEI	T1,-TEREF-1(STACK)	; yes--get address of code
   187									; offset as if in TEBLOK
   188	400116'	200 12 0 00 400102*		MOVE	T2,BPTBL	; get breakpoint table address
   189	400117'	265 10 0 00 000000*		JSP	S3,FTE##	; find the table element
   190	400120'	001 17 0 00 000000 		 ERROR	15		; this can't happen
   191	400121'	201 05 0 11 000004 		MOVEI	P2,TEVAL(T1)	; point to head of chain
   192	400122'	200 10 0 00 000005 		MOVE	S3,P2		; save this for later
   193	400123'	200 07 0 00 400105*		MOVE	S2,FLAP		; get process descriptor
   194
   195						 ; Loop removing desired associations
   196
   197	400124'	336 06 0 05 000000 	RBP1:	SKIPN	S1,0(P2)	; end of list? Load VABLOK addr. if not
   198	400125'	254 00 0 00 400143'		 JRST	RBP3		; yes--go finish up
   199	400126'	554 15 0 06 000000 		HLRZ	Q1,BTCODE(S1)	; get block code
   200	400127'	302 15 0 00 000414 		CAIE	Q1,VABLOK	; a little check to make sure this works
   201	400130'	001 17 0 00 000000 		 ERROR	15		; I found a bug!
   202	400131'	312 07 0 06 000006 		CAME	S2,VAPROC(S1)	; is this one of the ones we must remove?
   203	400132'	254 00 0 00 400141'		 JRST	RBP2		; no--go travel down list
   204
   205						 ; Remove a breakpoint association
   206
   207	400133'	370 00 0 06 000011 		SOS	VAFLG+1(S1)	; deactivate the association
   208	400134'	200 16 0 06 000003 		DMOVE	Q1,VAVAL(S1)	; get old value
   209	400135'	200 15 0 06 000002
   210	400136'	202 15 0 05 000000 		DMOVEM	Q1,0(P2)	; overwrite pointer
   211	400137'	202 16 0 05 000001
   212	400140'	254 00 0 00 400124'		JRST	RBP1		; loop for more
   213
   214						 ; Here if VABLOK is not the one we want
   215
   216	400141'	201 05 0 06 000002 	RBP2:	MOVEI	P2,LHDR(S1)	; point to next value
   217	400142'	254 00 0 00 400124'		JRST	RBP1		; go on
   218
   219						 ; Here when we have possibly removed some associations
   220
   221	400143'	332 00 0 10 000000 	RBP3:	SKIPE	0(S3)		; is the chain now empty?
SNODEB - Debugging Additions to SITBOL  %5(134)	MACRO %53B(1156)-1 21:48 14-Mar-88 Page 5-1
SNODEB	MAC	13-Oct-66 22:24		Primary Function -- REMOVEBP(label,offset,process)

   222	400144'	254 00 0 00 400114*		 JRST	RETNL1		; no--just return
   223
   224	400145'	200 11 0 01 777777 		MOVE	T1,-1(STACK)	; yes--get CBLOK address
   225	400146'	270 11 0 01 000000 		ADD	T1,0(STACK)	; point to statement
   226	400147'	201 15 0 00 000000*		MOVEI	Q1,BGST##	; get the real interpreter fcn addr.
   227	400150'	542 15 0 11 000000 		HRRM	Q1,CHEAD(T1)	; zap out breakpoint
   228	400151'	254 00 0 00 400144*		JRST	RETNL1		; return
SNODEB - Debugging Additions to SITBOL  %5(134)	MACRO %53B(1156)-1 21:48 14-Mar-88 Page 6
SNODEB	MAC	13-Oct-66 22:24		Primary Function -- WHERE(label,offset)

   229						SUBTTL	Primary Function -- WHERE(label,offset)
   230
   231	400152'	265 11 0 00 000000*	WHERE0::JSP	TLINK,CVTINT##	; convert second argument to integer
   232	400153'	003 01 0 00 000467 		 ERROR.	1,311		; bad argument
   233	400154'	262 01 0 00 000000#		POP	STACK,IGNOP##+1	; save offset
   234	400155'	262 01 0 00 400060*		POP	STACK,IGNOP
   235
   236	400156'	265 11 0 00 000000*		JSP	TLINK,CVTNAM##	; try to convert to name
   237	400157'	003 01 0 00 000470 		 ERROR.	1,312		; bad argument
   238
   239	400160'	261 01 0 00 400155*		PUSH	STACK,IGNOP	; put integer back on stack
   240	400161'	261 01 0 00 000000#		PUSH	STACK,IGNOP+1
   241	400162'	265 06 0 00 400377'		JSP	SLINK,CVTLAB	; find where label is
   242	400163'	254 00 0 00 000000*		 JRST	FRET2##		; you lose
   243	400164'	254 00 0 04 000001 		JRST	1(PLINK)	; return code datatype
SNODEB - Debugging Additions to SITBOL  %5(134)	MACRO %53B(1156)-1 21:48 14-Mar-88 Page 7
SNODEB	MAC	13-Oct-66 22:24		Primary Function -- CONNECT(event,process)

   244						SUBTTL	Primary Function -- CONNECT(event,process)
   245
   246	400165'	554 11 0 01 777777 	CNCT::	HLRZ	T1,-1(STACK)	; get datatype of process
   247	400166'	302 11 0 00 004012 		CAIE	T1,DDT		; must be defined
   248	400167'	003 01 0 00 000472 		 ERROR.	1,314		; bad arg
   249	400170'	550 11 0 01 777777 		HRRZ	T1,-1(STACK)	; get DBLOK address
   250	400171'	550 11 0 11 000000 		HRRZ	T1,BLENG(T1)	; get length of DBLOK
   251	400172'	305 11 0 00 000011 		CAIGE	T1,PRLEN	; long enough?
   252	400173'	003 15 0 00 000456 		 ERROR.	13,302		; no
   253
   254	400174'	265 11 0 00 400015*		JSP	TLINK,GPRLVL##	; get LEVEL number
   255	400175'	003 01 0 00 000473 		 ERROR.	1,315		; bad arg
   256	400176'	202 12 0 00 400160*		MOVEM	T2,IGNOP	; save for later
   257	400177'	262 01 0 00 000000#		POP	STACK,FLAP+1	; save defined data
   258	400200'	262 01 0 00 400123*		POP	STACK,FLAP	;  for later
   259
   260	400201'	265 06 0 00 400456'		JSP	SLINK,EVTIDX	; get universal event index
   261	400202'	003 01 0 00 000474 		 ERROR.	1,316		; not a known event
   262									; leave index in T2
   263	400203'	200 00 0 00 400475'		MOVE	Z,[VABLOK,,VALEN]	; set to get a VABLOK
   264	400204'	265 15 0 00 400037*		JSP	QLINK,BLOK##	; get it
   265	400205'	001 06 0 00 000001 		 ERROR	6,1		; you lose big
   266	400206'	262 01 0 00 000000 		POP	STACK,Z		; toss junk
   267	400207'	262 01 0 00 000005 		POP	STACK,P2	; get address of VABLOK
   268
   269						 ; Fill in fields of VABLOK
   270
   271	400210'	205 15 0 00 002001 		MOVSI	Q1,IDT		; set flag field...
   272	400211'	202 15 0 05 000010 		MOVEM	Q1,VAFLG(P2)	;  to be an integer 0
   273
   274	400212'	200 16 0 00 000000#		DMOVE	Q1,FLAP		; get process description
   275	400213'	200 15 0 00 400200*
   276	400214'	202 15 0 05 000006 		DMOVEM	Q1,VAPROC(P2)	; store in proc field
   277	400215'	202 16 0 05 000007
   278
   279	400216'	262 01 0 05 000005 		POP	STACK,VANAME+1(P2)
   280	400217'	262 01 0 05 000004 		POP	STACK,VANAME(P2); use event description as the name
   281
   282	400220'	254 00 1 12 400476'		JRST	@[E.DDT](T2)	; dispatch for specific event
   283
   284						 ; Here for event DDT.  P2 = VABLOK address.
   285
   286	400221'	201 11 0 00 400325'	E.DDT:	MOVEI	T1,DDTTRP	; get address of system trap
   287	400222'	047 11 0 00 000002 		SETDDT	T1,		; tell monitor to plug .JBDDT
   288	400223'	201 12 0 00 000000*		MOVEI	T2,DDTVAB##	; get address of trap chain
   289					;	JRST	CNCT1		; go add new trap to chain
   290
   291						 ; Merge here to insert VABLOK into the current trapping
   292						 ; chain.  T2 = address of chain head, P2 = address of VABLOK.
   293
   294	400224'	200 13 0 00 400176*	CNCT1:	MOVE	T3,IGNOP	; get back level field
   295	400225'	265 11 0 00 400061*		JSP	TLINK,FNDPOS##	; adjust T2 to point to displacee
   296	400226'	200 16 0 12 000001 		DMOVE	Q1,0(T2)	; load value to displace
   297	400227'	200 15 0 12 000000
   298	400230'	202 15 0 05 000002 		DMOVEM	Q1,VAVAL(P2)	; stuff in value field of VABLOK
SNODEB - Debugging Additions to SITBOL  %5(134)	MACRO %53B(1156)-1 21:48 14-Mar-88 Page 7-1
SNODEB	MAC	13-Oct-66 22:24		Primary Function -- CONNECT(event,process)

   299	400231'	202 16 0 05 000003
   300	400232'	505 05 0 00 034000 		HRLI	P2,TVAR		; make a trapped variable
   301	400233'	202 05 0 12 000000 		MOVEM	P2,0(T2)	; link in new trapping block
   302	400234'	201 15 0 00 400077'		MOVEI	Q1,BPERR	; in case of errors
   303	400235'	202 15 0 12 000001 		MOVEM	Q1,1(T2)	; trap to an ERROR 15
   304	400236'	254 00 0 00 000000*		JRST	RETNUL##	; return a winner
SNODEB - Debugging Additions to SITBOL  %5(134)	MACRO %53B(1156)-1 21:48 14-Mar-88 Page 8
SNODEB	MAC	13-Oct-66 22:24		Primary Function -- DISCONNECT(event,proess)

   305						SUBTTL	Primary Function -- DISCONNECT(event,proess)
   306
   307	400237'	336 00 0 00 400223*	DCNCT::	SKIPN	DDTVAB##	; are there any associations?
   308	400240'	254 00 0 00 000000*		 JRST	RETNL2##	; no--we're done
   309
   310	400241'	262 01 0 00 000000#		POP	STACK,FLAP+1	; yes--save process description
   311	400242'	262 01 0 00 400213*		POP	STACK,FLAP
   312
   313	400243'	265 06 0 00 400456'		JSP	SLINK,EVTIDX	; get unil event index
   314	400244'	003 01 0 00 000475 		 ERROR.	1,317		; bad event type
   315	400245'	200 05 0 12 400477'		MOVE	P2,[DDTVAB##](T2); get address of head of trap chain
   316	400246'	200 07 0 00 400242*		MOVE	S2,FLAP		; get process descriptor
   317
   318						 ; Loop removing desired associations
   319
   320	400247'	336 06 0 05 000000 	DCNCT1:	SKIPN	S1,0(P2)	; end of list?
   321	400250'	254 00 0 00 400151*		 JRST	RETNL1##	; yes--return
   322	400251'	554 15 0 06 000000 		HLRZ	Q1,BTCODE(S1)	; no--get block type code
   323	400252'	302 15 0 00 000414 		CAIE	Q1,VABLOK	; it must be a VABLOK
   324	400253'	001 17 0 00 000000 		 ERROR	15		; I found a bug
   325	400254'	312 07 0 06 000006 		CAME	S2,VAPROC(S1)	; is this an instance of the one?
   326	400255'	254 00 0 00 400264'		 JRST	DCNCT2		; no
   327
   328						 ; Remove the association.
   329
   330	400256'	370 00 0 06 000011 		SOS	VAFLG+1(S1)	; deactivate the VABLOK
   331	400257'	200 16 0 06 000003 		DMOVE	Q1,VAVAL(S1)	; load old value
   332	400260'	200 15 0 06 000002
   333	400261'	202 15 0 05 000000 		DMOVEM	Q1,0(P2)	; overwrite TVAR pointer
   334	400262'	202 16 0 05 000001
   335	400263'	254 00 0 00 400247'		JRST	DCNCT1		; loop for more
   336
   337						 ; Here if VABLOK is not the one we want.
   338
   339	400264'	201 05 0 06 000002 	DCNCT2:	MOVEI	P2,LHDR(S1)	; point to next value
   340	400265'	254 00 0 00 400247'		JRST	DCNCT1		; try again
SNODEB - Debugging Additions to SITBOL  %5(134)	MACRO %53B(1156)-1 21:48 14-Mar-88 Page 9
SNODEB	MAC	13-Oct-66 22:24		Breakpoint Handling

   341						SUBTTL	Breakpoint Handling
   342
   343					; Additional interpreter function to handle breakpoints.  Control
   344					; arrives here whenever the execution of a statement containing
   345					; breakpoint associations is attempted.
   346					;
   347					; Control arrives with P1 containing address of statement.
   348					;
   349	400266'	554 12 0 04 000001 	BRKPNT::HLRZ	T2,CSTNO(P1)	; load statement number
   350	400267'	205 11 0 00 002001 		MOVSI	T1,IDT		; make integer descriptor in T1 and T2
   351	400270'	202 11 0 00 400246*		DMOVEM	T1,FLAP		; store for later
   352	400271'	202 12 0 00 000000#
   353
   354	400272'	201 11 0 00 000000#		MOVEI	T1,ILOC##-TEREF	; fake pointer to TEVAL field of TEBLOK
   355	400273'	332 12 0 00 400116*		SKIPE	T2,BPTBL##	; load breakpoint table address
   356	400274'	265 10 0 00 400117*		JSP	S3,FTE##	; find the table element
   357	400275'	001 17 0 00 000000 		 ERROR	15		; this shouldn't happen
   358	400276'	261 01 0 11 000004 		PUSH	STACK,TEVAL(T1)	; push head of list
   359	400277'	261 01 0 11 000005 		PUSH	STACK,TEVAL+1(T1)
   360
   361						 ; Loop calling all association functions for active breakpoint
   362						 ; associations.
   363
   364	400300'	265 11 0 00 000000*	BRKP1:	JSP	TLINK,CHKACT##	; is the association active?
   365	400301'	254 00 0 00 400316'		 JRST	BRKP2		; no
   366	400302'	254 00 0 00 400316'		 JRST	BRKP2		; no
   367
   368
   369	400303'	265 11 0 00 000000*		JSP	TLINK,GPRFCT##	; yes--load function variable block addr in T2
   370	400304'	003 01 0 00 000466 		 ERROR.	1,310		; bad contents of FUNCT field
   371	400305'	274 01 0 00 000000*		SUB	STACK,XWD22##	; get rid of process description
   372	400306'	550 13 0 01 777777 		HRRZ	T3,-1(STACK)	; get VABLOK address
   373	400307'	201 14 0 00 400270*		MOVEI	T4,FLAP		; second argument is statement number
   374	400310'	476 00 0 13 000011 		SETOM	VAFLG+1(T3)	; set interlock
   375	400311'	265 11 0 00 000000*		JSP	TLINK,VACALL##	; call function
   376	400312'	334 00 0 00 000000 		 SKIPA			; failed--ignore it
   377	400313'	274 01 0 00 400305*		SUB	STACK,XWD22##	; success--toss returned value
   378	400314'	550 11 0 01 777777 		HRRZ	T1,-1(STACK)	; get VABLOK address
   379	400315'	402 00 0 11 000011 		CLEARM	VAFLG+1(T1)	; clear interlock
   380
   381						 ; Merge here and try for another VABLOK
   382
   383	400316'	262 01 0 00 000000 	BRKP2:	POP	STACK,Z		; discard junk
   384	400317'	262 01 0 00 000011 		POP	STACK,T1	; get VABLOK address
   385	400320'	336 00 0 11 000002 		SKIPN	VAVAL(T1)	; another one?
   386	400321'	254 00 0 00 400147*		 JRST	BGST##		; no--go to real begin stmt routine
   387	400322'	261 01 0 11 000002 		PUSH	STACK,VAVAL(T1)	; yes--push VABLOK onto stack
   388	400323'	261 01 0 11 000003 		PUSH	STACK,VAVAL+1(T1)
   389	400324'	254 00 0 00 400300'		JRST	BRKP1		; try this one
SNODEB - Debugging Additions to SITBOL  %5(134)	MACRO %53B(1156)-1 21:48 14-Mar-88 Page 10
SNODEB	MAC	13-Oct-66 22:24		Program Interruption Handling

   390						SUBTTL	Program Interruption Handling
   391
   392					; Here whenever the user has interrupted the program by typing
   393					; two control-C's and then reentered via the DDT command.
   394
   395	400325'	254 01 0 00 400326'	DDTTRP::	PORTAL	.+1	; Exo entry point
   396	400326'	202 11 0 00 000000*		MOVEM	T1,T1SAV##	; save a register
   397	400327'	200 11 0 00 400500'		MOVE	T1,[JRST $DDCMD##]; get the trap instruction
   398	400330'	202 11 0 00 000000*		MOVEM	T1,I.JRST##	; enable the trap
   399	400331'	200 11 0 00 400326*		MOVE	T1,T1SAV	; restore the register
   400	400332'	254 00 1 00 000130 		JRST	@.JBOPC		; continue until we hit the trap
   401
   402					; Here when the central interpreter loop XCT's the JRST DDTCMD planted
   403					; by the above trap sequence.  This code can be considered type P
   404					; but must save the state of the pattern matcher and interpreter.
   405					;
   406	400333'	254 01 0 00 400334'	DDTCMD::	PORTAL	.+1		; Exo entry point
   407	400334'	200 15 0 00 400501'		MOVE	Q1,[JRST I.BUMP##]	; get loop instruction
   408	400335'	202 15 0 00 400330*		MOVEM	Q1,I.JRST##	; disable the trap
   409	400336'	336 00 0 00 400237*		SKIPN	DDTVAB##	; are there any associations?
   410	400337'	254 00 0 00 000000*		 JRST	I.BUMP		; no--continue interpreter loop
   411
   412	400340'	205 15 0 00 002001 		MOVSI	Q1,IDT		; make an integer
   413	400341'	200 16 0 00 000000*		MOVE	Q2,$STNO##	; of &STNO for use as second arg
   414	400342'	202 15 0 00 400307*		DMOVEM	Q1,FLAP		; save for later
   415	400343'	202 16 0 00 000000#
   416
   417	400344'	261 01 0 00 400336*		PUSH	STACK,DDTVAB##	; push the first VABLOK of...
   418	400345'	261 01 0 00 000000#		PUSH	STACK,DDTVAB+1	;  the trapping chain
   419
   420						 ; Loop calling all association functions for active DDT
   421						 ; associations.
   422
   423	400346'	265 11 0 00 400300*	DDTCM1:	JSP	TLINK,CHKACT##	; is this one active?
   424	400347'	254 00 0 00 400364'		 JRST	DDTCM3		; no
   425	400350'	254 00 0 00 400364'		 JRST	DDTCM3		; ditto
   426
   427	400351'	265 11 0 00 400303*		JSP	TLINK,GPRFCT##	; yes--get function variable blok addr.
   428	400352'	003 01 0 00 000471 		 ERROR.	1,313		; you blew it
   429	400353'	274 01 0 00 400313*		SUB	STACK,XWD22##	; toss process description
   430	400354'	550 13 0 01 777777 		HRRZ	T3,-1(STACK)	; get VABLOK address
   431	400355'	201 14 0 00 400342*		MOVEI	T4,FLAP		; get address of second argument
   432	400356'	476 00 0 13 000011 		SETOM	VAFLG+1(T3)	; set the interlock
   433	400357'	265 11 0 00 400311*		JSP	TLINK,VACALL##	; call the association function
   434	400360'	254 00 0 00 400373'		 JRST	DDTCM4		; failed--stop processing and fail
   435
   436	400361'	274 01 0 00 400353*		SUB	STACK,XWD22##	; toss returned value
   437	400362'	550 11 0 01 777777 		HRRZ	T1,-1(STACK)	; get VABLOK address
   438	400363'	402 00 0 11 000011 		CLEARM	VAFLG+1(T1)	; clear interlock
   439
   440						 ; Merge here to try next VABLOK
   441
   442	400364'	262 01 0 00 000000 	DDTCM3:	POP	STACK,Z		; toss extra word
   443	400365'	262 01 0 00 000011 		POP	STACK,T1	; get address of current VABLOK
   444	400366'	336 00 0 11 000002 		SKIPN	VAVAL(T1)	; is there another one?
SNODEB - Debugging Additions to SITBOL  %5(134)	MACRO %53B(1156)-1 21:48 14-Mar-88 Page 10-1
SNODEB	MAC	13-Oct-66 22:24		Program Interruption Handling

   445	400367'	254 00 0 00 400337*		 JRST	I.BUMP		; no--resume interpreter loop
   446	400370'	261 01 0 11 000002 		PUSH	STACK,VAVAL(T1)	; yes--push it
   447	400371'	261 01 0 11 000003 		PUSH	STACK,VAVAL+1(T1)
   448	400372'	254 00 0 00 400346'		JRST	DDTCM1		; and loop
   449
   450						 ; Here if an association function failed.  Stop looping
   451						 ; and cause the statement to fail.
   452
   453	400373'	262 01 0 00 000000 	DDTCM4:	POP	STACK,Z		; get rid of junk
   454	400374'	262 01 0 00 000011 		POP	STACK,T1	; get VABLOK address
   455	400375'	402 00 0 11 000011 		CLEARM	VAFLG+1(T1)	; clear interlock
   456	400376'	254 00 0 00 000000*		JRST	I.FAIL##		; make statement fail
SNODEB - Debugging Additions to SITBOL  %5(134)	MACRO %53B(1156)-1 21:48 14-Mar-88 Page 11
SNODEB	MAC	13-Oct-66 22:24		Utilities -- CVTLAB

   457						SUBTTL	Utilities -- CVTLAB
   458					;		---------
   459
   460					; CVTLAB -- convert label, offset pair to code pointer.  Call is
   461					;
   462					;	push label descriptor
   463					;	push offset descriptor
   464					;	JSP	SLINK,CVTLAB
   465					;	  error return--label not found or bad datatype; stack unchanged
   466					;	normal return--two descriptors replaced by CDT descriptor
   467					;
   468					; Type S, unstable.
   469					;
   470	400377'	265 11 0 00 400152*	CVTLAB::JSP	TLINK,CVTINT##	; convert offset to integer
   471	400400'	254 00 0 06 000000 		 JRST	0(SLINK)	; not an integer--fail
   472
   473	400401'	261 01 0 01 777775 		PUSH	STACK,-3(STACK)	; replicate label descriptor...
   474	400402'	261 01 0 01 777775 		PUSH	STACK,-3(STACK)	;  for conversion
   475	400403'	554 11 0 01 777777 		HLRZ	T1,-1(STACK)	; get label datatype
   476	400404'	306 11 0 00 004007 		CAIN	T1,CDT		; is it already CODE ?
   477	400405'	254 00 0 00 400423'		 JRST	CVLAB1		; yes--no need to convert
   478	400406'	265 11 0 00 400156*		JSP	TLINK,CVTNAM##	; convert to name
   479	400407'	254 00 0 00 400454'		 JRST	BADLAB		; can't convert--give error return
   480	400410'	332 00 0 01 000000 		SKIPE	0(STACK)	; must be natural variable
   481	400411'	254 00 0 00 400454'		 JRST	BADLAB		; its not--die
   482
   483	400412'	200 11 0 01 777777 		MOVE	T1,-1(STACK)	; it is--get variable block address
   484	400413'	335 00 0 11 000006 		SKIPGE	VFLAGS(T1)	; operators...
   485	400414'	254 00 0 00 400454'		 JRST	BADLAB		;  always lose
   486	400415'	332 11 0 11 000002 		SKIPE	T1,VLABEL(T1)	; is there a label?
   487	400416'	606 11 0 00 777777 		TRNN	T1,-1		; yes--but is it user-defined?
   488	400417'	254 00 0 00 400454'		 JRST	BADLAB		; not a label or system label--lose
   489	400420'	556 11 0 01 000000 		HLRZM	T1,0(STACK)	; store offset in second word
   490	400421'	505 11 0 00 004007 		HRLI	T1,CDT		; we want datatype CODE
   491	400422'	202 11 0 01 777777 		MOVEM	T1,-1(STACK)	; we now have CODE
   492
   493						 ; Merge here to search through code for the right spot
   494
   495	400423'	200 14 0 01 777776 	CVLAB1:	MOVE	T4,-2(STACK)	; get desired offset
   496	400424'	550 07 0 01 777777 		HRRZ	S2,-1(STACK)	; get current CBLOK address
   497	400425'	334 10 0 01 000000 		SKIPA	S3,0(STACK)	; get current offset and skip into loop
   498
   499	400426'	200 10 0 00 000015 	CVLABL:	MOVE	S3,Q1		; establish new offset
   500	400427'	322 14 0 00 400447'		JUMPE	T4,CVLAB2	; quit if we are there
   501	400430'	200 15 0 00 000007 		MOVE	Q1,S2		; get current CBLOK address
   502	400431'	270 15 0 00 000010 		ADD	Q1,S3		; point to current statement
   503	400432'	321 14 0 00 400441'		JUMPL	T4,CVLABN	; go process negative offset
   504
   505						 ; Positive offset
   506
   507	400433'	550 15 0 15 000002 	CVLABP:	HRRZ	Q1,CNEXT(Q1)	; get offset of next statement
   508	400434'	313 15 0 00 000010 		CAMLE	Q1,S3		; did we overflow into next CBLOK?
   509	400435'	364 14 0 00 400426'		 SOJA	T4,CVLABL	; no--decrement count and go test
   510	400436'	550 07 0 07 000003 		HRRZ	S2,NCLINK(S2)	; yes--get next CBLOK address
   511	400437'	326 07 0 00 400426'		JUMPN	S2,CVLABL	; continue unless the end
SNODEB - Debugging Additions to SITBOL  %5(134)	MACRO %53B(1156)-1 21:48 14-Mar-88 Page 11-1
SNODEB	MAC	13-Oct-66 22:24		Utilities -- CVTLAB

   512	400440'	254 00 0 00 400454'		JRST	BADLAB		; yipes--ran into end of program!
   513
   514						 ; Negative offset
   515
   516	400441'	554 15 0 15 000002 	CVLABN:	HLRZ	Q1,CLAST(Q1)	; get offset of previous statement
   517	400442'	315 15 0 00 000010 		CAMGE	Q1,S3		; did we back up into previous CBLOK?
   518	400443'	344 14 0 00 400426'		 AOJA	T4,CVLABL	; no--increment count and go test
   519	400444'	554 07 0 07 000002 		HLRZ	S2,LCLINK(S2)	; yes--get previous CBLOK address
   520	400445'	326 07 0 00 400426'		JUMPN	S2,CVLABL	; continue unless the beginning
   521	400446'	254 00 0 00 400454'		JRST	BADLAB		; yipes--ran into beginning of program!
   522
   523						 ; Here when we reach the desired label and offset
   524
   525	400447'	274 01 0 00 400502'	CVLAB2:	SUB	STACK,[4,,4]	; prune stack a bit exposing label arg
   526	400450'	505 07 0 00 004007 		HRLI	S2,CDT		; make a CODE datatype descriptor
   527	400451'	202 07 0 01 777777 		MOVEM	S2,-1(STACK)	; establish CBLOK address
   528	400452'	202 10 0 01 000000 		MOVEM	S3,0(STACK)	; establish offset
   529	400453'	254 00 0 06 000001 		JRST	1(SLINK)	; return a winner
   530
   531						 ; Here if we found an error of some kind.  Stack has extra
   532						 ; descriptor on it.
   533
   534	400454'	274 01 0 00 400361*	BADLAB:	SUB	STACK,XWD22##	; git rid of extra descriptor
   535	400455'	254 00 0 06 000000 		JRST	0(SLINK)	; fail
   536
SNODEB - Debugging Additions to SITBOL  %5(134)	MACRO %53B(1156)-1 21:48 14-Mar-88 Page 12
SNODEB	MAC	13-Oct-66 22:24		Utilities -- EVTIDX

   537						SUBTTL	Utilities -- EVTIDX
   538
   539					; EVTIDX -- determine universal event index given an event description.
   540					; Call is
   541					;
   542					;	push event descriptor
   543					;	JSP	SLINK,EVTIDX
   544					;	 error return--not a known event
   545					;	normal return--T2 contains XWD n,index
   546					;
   547					; In both cases, the stack is unchanged.
   548					;
   549					; Possible results for T2 are:
   550					;
   551					; 0,,0	- Event is ^C^C interruption and reentry via DDT command.
   552					;
   553					; Type S, unstable.
   554					;
   555	400456'	265 11 0 00 000000*	EVTIDX::JSP	TLINK,CVTSTR##	; attempt to convert argument to string
   556	400457'	254 00 0 06 000000 		 JRST	0(SLINK)	; no--you lose
   557
   558	400460'	261 01 0 01 777777 		PUSH	STACK,-1(STACK)	; replicate the string
   559	400461'	261 01 0 01 777777 		PUSH	STACK,-1(STACK)
   560	400462'	265 15 0 00 000000*		JSP	QLINK,CVTPTR##	; point to string
   561	400463'	000000	000000			0			; no basing
   562	400464'	254 00 0 00 400473'		JRST	BADEVT		; null string loses
   563
   564	400465'	134 11 0 00 000000 		ILDB	T1,Z		; get first character
   565	400466'	302 11 0 00 000144 		CAIE	T1,"d"		; a "d" or a
   566	400467'	306 11 0 00 000104 		CAIN	T1,"D"		;  "D" indicate...
   567	400470'	634 12 0 00 000012 		TDZA	T2,T2		;  DDT event
   568	400471'	254 00 0 06 000000 		JRST	0(SLINK)	; loser
   569	400472'	254 00 0 06 000001 		JRST	1(SLINK)	; winnah!
   570
   571						 ; Here if we have bad argument
   572
   573	400473'	274 01 0 00 400454*	BADEVT:	SUB	STACK,XWD22##	; prune the stack
   574	400474'	254 00 0 06 000000 		JRST	0(SLINK)	; fail
   575
   576						END

NO ERRORS DETECTED

HI-SEG. BREAK IS 400503
PROGRAM BREAK IS 000000
CPU TIME USED 04:32.887

42P CORE USED
SNODEB - Debugging Additions to SITBOL  %5(134)	MACRO %53B(1156)-1 21:48 14-Mar-88 Page S-1
SNODEB	MAC	13-Oct-66 22:24		SYMBOL TABLE

ALTE		400030'	ext	E1$315		000000	sin	T4		000014
BADEVT		400473'		E1$316		000000	sin	TBL		400003'	ext
BADLAB		400454'		E1$317		000000	sin	TEREF		000002	sin
BGST		400321'	ext	E13$30		000000	sin	TEVAL		000004	sin
BLENG		000000	sin	E15$		000000	sin	TLINK		000011
BLOK		400204'	ext	E6$1		000000	sin	TVAR		034000	sin
BPERR		400077'		ERR	001000	000000		VABLOK		000414	sin
BPTBL		400273'	ext	ERR.	003000	000000		VACALL		400357'	ext
BRKP1		400300'		EVTIDX		400456'	int	VAFLG		000010	sin
BRKP2		400316'		FLAP		400355'	ext	VALEN		000012	sin
BRKPNT		400266'	int	FNDPOS		400225'	ext	VANAME		000004	sin
BTCODE		000000	sin	FRET2		400163'	ext	VAPROC		000006	sin
CDT		004007	sin	FTDDT	777777	777777	spd	VAVAL		000002	sin
CHEAD		000000	sin	FTE		400274'	ext	VFLAGS		000006	sin
CHKACT		400346'	ext	GPRFCT		400351'	ext	VLABEL		000002	sin
CLAST		000002	sin	GPRLVL		400174'	ext	WHERE0		400152'	int
CNCT		400165'	int	I.BUMP		400501'	ext	XWD22		400473'	ext
CNCT1		400224'		I.FAIL		400376'	ext	Z		000000
CNEXT		000002	sin	I.JRST		400335'	ext	$DDCMD		400500'	ext
CSTNO		000001	sin	IBP		400000'	int	$STNO		400341'	ext
CVLAB1		400423'		IBP1		400006'		%%JOBD	043100	000450	spd
CVLAB2		400447'		IBP1A		400036'		%%MACT	000200	000025	spd
CVLABL		400426'		IDT		002001	sin	%%SNOP	000500	000305	spd
CVLABN		400441'		IGNOP		400224'	ext	%%UUOS	001400	000457	spd
CVLABP		400433'		ILOC		000000	ext	.JBOPC		000130
CVTINT		400377'	ext	ITE		400031'	ext
CVTLAB		400377'	int	LCLINK		000002	sin
CVTNAM		400406'	ext	LHDR		000002	sin
CVTPTR		400462'	ext	NCLINK		000003	sin
CVTSTR		400456'	ext	P1		000004
DCNCT		400237'	int	P2		000005
DCNCT1		400247'		PLINK		000004
DCNCT2		400264'		PORTAL	254040	000000
DDT		004012	spd	PRLEN		000011	sin
DDTCM1		400346'		Q1		000015
DDTCM3		400364'		Q2		000016
DDTCM4		400373'		QLINK		000015
DDTCMD		400333'	int	RBP		400102'	int
DDTTRP		400325'	int	RBP1		400124'
DDTVAB		400344'	ext	RBP2		400141'
DEBASC	422130	200000	spd	RBP3		400143'
DEBEDT		000134	spd	RETNL1		400250'	ext
DEBMIN		000000	spd	RETNL2		400240'	ext
DEBSIX	444542	000000	spd	RETNL3		400103'	ext
DEBVER		000005	spd	RETNUL		400236'	ext
DEBWHO		000000	spd	S1		000006
E.DDT		400221'		S2		000007
E1$306		000000	sin	S3		000010
E1$307		000000	sin	SETDDT	047000	000002
E1$308		000000	sin	SLINK		000006
E1$310		000000	sin	STACK		000001
E1$311		000000	sin	T1		000011
E1$312		000000	sin	T1SAV		400331'	ext
E1$313		000000	sin	T2		000012
E1$314		000000	sin	T3		000013

SNODEB - Debugging Additions to SITBOL  %5(134)	MACRO %53B(1156)-1 21:48 14-Mar-88 Page 1
SNODEB	MAC	13-Oct-66 22:24		D. R. Hanson/RCM/VB		15-July-76


Symbol cross reference

ALTE	   109
BADEVT	   562	   573#
BADLAB	   479	   481	   485	   488	   512	   521	   534#
BGST	   226	   386
BLENG	    92	   250
BLOK	   119	   264
BPERR	   148	   161#	   302
BPTBL	    76	    83	    84	   105	   106	   169	   188	   355
BRKP1	   364#	   389
BRKP2	   365	   366	   383#
BRKPNT	   155	   183	   349#
BTCODE	   199	   322
CDT	   476	   490	   526
CHEAD	   156	   182	   227
CHKACT	   364	   423
CLAST	   516
CNCT	   246#
CNCT1	   294#
CNEXT	   507
CSTNO	   349
CVLAB1	   477	   495#
CVLAB2	   500	   525#
CVLABL	   499#	   509	   511	   518	   520
CVLABN	   503	   516#
CVLABP	   507#
CVTINT	   231	   470
CVTLAB	   102	   175	   241	   470#
CVTNAM	   236	   478
CVTPTR	   560
CVTSTR	   555
DCNCT	   307#
DCNCT1	   320#	   335	   340
DCNCT2	   326	   339#
DDT	    89	   247
DDTCM1	   423#	   448
DDTCM3	   424	   425	   442#
DDTCM4	   434	   453#
DDTCMD	   406#
DDTTRP	   286	   395#
DDTVAB	   288	   307	   315	   409	   417	   418
DEBASC	    33#
DEBEDT	    26#
DEBMIN	    25#
DEBSIX	    32#
DEBVER	    24#
DEBWHO	    27#
E.DDT	   282	   286#
E1$306	    90#
E1$307	    97#
E1$308	   103#	   176#
SNODEB - Debugging Additions to SITBOL  %5(134)	MACRO %53B(1156)-1 21:48 14-Mar-88 Page 1
SNODEB	MAC	13-Oct-66 22:24		D. R. Hanson/RCM/VB		15-July-76


Symbol cross reference

E1$310	   370#
E1$311	   232#
E1$312	   237#
E1$313	   428#
E1$314	   248#
E1$315	   255#
E1$316	   261#
E1$317	   314#
E13$30	    94#	   252#
E15$	   163#	   164#	   165#	   190#	   201#	   324#	   357#
E6$1	   120#	   265#
EVTIDX	   260	   313	   555#
FLAP	    99	   100	   127	   128	   172	   173	   193	   257	   258	   274	   275	   310	   311	   316
	   351	   352	   373	   414	   415	   431
FNDPOS	   141	   295
FRET2	   242
FTDDT	    43
FTE	   189	   356
GPRFCT	   369	   427
GPRLVL	    96	   254
I.BUMP	   407	   410	   445
I.FAIL	   456
I.JRST	   398	   408
IBP	    76#
IBP1	    77	    88#
IBP1A	   111	   118#
IDT	   124	   271	   350	   412
IGNOP	    98	   140	   233	   234	   239	   240	   256	   294
ILOC	   354
ITE	   110
LCLINK	   519
LHDR	   216	   339
NCLINK	   510
P1	   349
P2	   122	   125	   129	   130	   134	   135	   144	   145	   146	   147	   191	   192	   197	   210
	   211	   216	   267	   272	   276	   277	   279	   280	   298	   299	   300	   301	   315	   320
	   333	   334	   339
PLINK	   243
PRLEN	    93	   251
Q1	   124	   125	   127	   128	   129	   130	   132	   133	   134	   135	   142	   143	   144	   145
	   148	   149	   155	   156	   199	   200	   208	   209	   210	   211	   226	   227	   271	   272
	   274	   275	   276	   277	   296	   297	   298	   299	   302	   303	   322	   323	   331	   332
	   333	   334	   407	   408	   412	   414	   415	   499	   501	   502	   507	   508	   516	   517
Q2	   413
QLINK	   119	   264	   560
RBP	   169#
RBP1	   197#	   212	   217
RBP2	   203	   216#
RBP3	   198	   221#
RETNL1	   157	   184	   222	   228	   321
SNODEB - Debugging Additions to SITBOL  %5(134)	MACRO %53B(1156)-1 21:48 14-Mar-88 Page 1
SNODEB	MAC	13-Oct-66 22:24		D. R. Hanson/RCM/VB		15-July-76


Symbol cross reference

RETNL2	   308
RETNL3	   170
RETNUL	   304
S1	   197	   199	   202	   207	   208	   209	   216	   320	   322	   325	   330	   331	   332	   339
S2	   110	   153	   154	   156	   193	   202	   316	   325	   496	   501	   510	   511	   519	   520
	   526	   527
S3	   189	   192	   221	   356	   497	   499	   502	   508	   517	   528
SLINK	   102	   175	   241	   260	   313	   471	   529	   535	   556	   568	   569	   574
STACK	    83	    84	    88	    91	    99	   100	   105	   106	   107	   108	   112	   121	   122	   132
	   133	   137	   138	   153	   154	   172	   173	   180	   181	   186	   224	   225	   233	   234
	   239	   240	   246	   249	   257	   258	   266	   267	   279	   280	   310	   311	   358	   359
	   371	   372	   377	   378	   383	   384	   387	   388	   417	   418	   429	   430	   436	   437
	   442	   443	   446	   447	   453	   454	   473	   474	   475	   480	   483	   489	   491	   495
	   496	   497	   525	   527	   528	   534	   558	   559	   573
T1	    88	    89	    91	    92	    93	   112	   113	   114	   180	   181	   182	   183	   186	   191
	   224	   225	   227	   246	   247	   249	   250	   251	   286	   287	   350	   351	   352	   354
	   358	   359	   378	   379	   384	   385	   387	   388	   396	   397	   398	   399	   437	   438
	   443	   444	   446	   447	   454	   455	   475	   476	   483	   484	   486	   487	   489	   490
	   491	   564	   565	   566
T1SAV	   396	   399
T2	    98	   138	   139	   142	   143	   147	   149	   188	   256	   282	   288	   296	   297	   301
	   303	   315	   349	   355	   567
T3	   140	   294	   372	   374	   430	   432
T4	   373	   431	   495	   500	   503	   509	   518
TBL	    82
TEREF	   186	   354
TEVAL	   113	   114	   139	   191	   358	   359
TLINK	    82	    96	   109	   141	   231	   236	   254	   295	   364	   369	   375	   423	   427	   433
	   470	   478	   555
TVAR	   146	   300
VABLOK	   118	   200	   263	   323
VACALL	   375	   433
VAFLG	   125	   207	   272	   330	   374	   379	   432	   438	   455
VALEN	   118	   263
VANAME	   134	   135	   279	   280
VAPROC	   129	   130	   202	   276	   277	   325
VAVAL	   144	   145	   208	   209	   298	   299	   331	   332	   385	   387	   388	   444	   446	   447
VFLAGS	   484
VLABEL	   486
WHERE0	   231#
XWD22	   371	   377	   429	   436	   534	   573
Z	    81	   118	   121	   137	   263	   266	   383	   442	   453	   564
$DDCMD	   397
$STNO	   413
.JBOPC	   400
SNODEB - Debugging Additions to SITBOL  %5(134)	MACRO %53B(1156)-1 21:48 14-Mar-88 Page 1
SNODEB	MAC	13-Oct-66 22:24		D. R. Hanson/RCM/VB		15-July-76


Macro/Opdef cross reference

DEBPTX	    46
DEBTTL	    45
DMOVE	   127	   132	   142	   208	   274	   296	   331
DMOVEM	   129	   134	   144	   210	   276	   298	   333	   351	   414
ERR	   103	   120	   163	   164	   165	   176	   190	   201	   265	   324	   357
ERR.	    90	    94	    97	   232	   237	   248	   252	   255	   261	   314	   370	   428
ERROR	   103	   120	   163	   164	   165	   176	   190	   201	   265	   324	   357
ERROR.	    90	    94	    97	   232	   237	   248	   252	   255	   261	   314	   370	   428
PORTAL	   395	   406
SETDDT	   287
SHOW.	    39	    40	    41	    42
TITLE.	    31TDTù