SNOERR - Error Handler  %5(304)	MACRO %53B(1156)-1 21:48 14-Mar-88 Page 1
SNOERR	MAC	16-Feb-67 14:25		Gimpel--Ma355/JDS/DRH/MP/RCM/VB		15-Jun-76

     1						SUBTTL	Gimpel--Ma355/JDS/DRH/MP/RCM/VB		15-Jun-76
     2
     3					; COPYRIGHTS 1972,1973,1976,1977 STEVENS INSTITUTE OF TECHNOLOGY
     4					; HOBOKEN, NEW JERSEY, 07030
     5					; ALL RIGHTS RESERVED.
     6
     7					  ;UNIVERSALS
     8
     9						SEARCH	JOBDAT		;JOB DATA AREA DEFINITIONS
    10						SEARCH	MACTEN		;DEC-10 COMMON MACROS
    11						SEARCH	UUOSYM		;TOPS10 UUO SYMBOL DEFINITIONS
    12						SEARCH	SNOPRM		;SITBOL PARAMETER FILE
    13
    14					  ;DIRECTIVES
    15
    16						.DIRECT	.XTABM		;EXCLUDE TABS FROM MACRO CALLS
    17						SALL			;SUPPRESS MACRO EXPANSIONS
    18	400000'					TWOSEG	400K		;TWOSEGMENT CODE
    19
    20					  ;VERSION NUMBER
    21
    22			000005			ERRVER==5		;MAJOR VERSION NUMBER
    23			000000			ERRMIN==0		;MINOR VERSION NUMBER
    24			000304			ERREDT==304		;EDIT LEVEL
    25			000000			ERRWHO==0		;CUSTOMER ARGUMENT
    26
    27					  ;TITLE
    28
    29						TITLE.	ERR,SNOERR,<Error Handler>
    30		456262	000000			ERRSIX==SIXBIT /ERR/	; SNOERR ABBREVIATION IN SIXBIT
    31		426452	200000			ERRASC==ASCIZ /ERR/	; SNOERR ABBREVIATION IN ASCII
    32						SALL
    33
    34
    35					  ;SHOW UNIVERSAL VERSION NUMBERS
    36
    37	400000'	043100	000450			SHOW.	%%JOBD		;VERSION NUMBER OF JOBDAT
    38	400000'	000200	000025			SHOW.	%%MACT		;VERSION NUMBER OF MACTEN
    39	400000'	001400	000457			SHOW.	%%UUOS		;VERSION NUMBER OF UUOSYM
    40	400000'	000500	000305			SHOW.	%%SNOP		;VERSION NUMBER OF SNOPRM
    41
    42						ERRTTL			; Title
    43						ERRPTX			; PASS2 assembly message
SNOERR - Error Handler  %5(304)	MACRO %53B(1156)-1 21:48 14-Mar-88 Page 2
SNOERR	MAC	16-Feb-67 14:25		Table of Contents

    44						SUBTTL	Table of Contents
    45
    46					;		Table of Contents for Error Handler
    47					;
    48					;
    49					;			   Section			      Page
    50					;   1. Table of Contents. . . . . . . . . . . . . . . . . . .    2
    51					;   2. REVISION HISTORY . . . . . . . . . . . . . . . . . . .    3
    52					;   3. EXECUTION-TIME ERROR PROCESSING - PROLOGUE . . . . . .    4
    53					;   4. SETEXIT AND RECOVERY LABELS. . . . . . . . . . . . . .    6
    54					;   5. EXECUTION-TIME ERRORS - EPILOUGE . . . . . . . . . . .    7
    55					;   6. COMPILER ERRORS. . . . . . . . . . . . . . . . . . . .    8
SNOERR - Error Handler  %5(304)	MACRO %53B(1156)-1 21:48 14-Mar-88 Page 3
SNOERR	MAC	16-Feb-67 14:25		REVISION HISTORY

    56						SUBTTL	REVISION HISTORY
    57
    58					COMMENT	\
    59
    60					START OF VERSION 5.
    61					122	RENAME MODULES & CLEAN UP.
    62					167	Finish new error processing.
    63					170	Add new keywords (&ERRLEVEL, &ERRNAME, &ERRMSG)
    64					215	Implement FTSINGLE, single segment SITBOL
    65					246	Change defintions of FMT.xx
    66					253	ERROR SNOSSO SHOULD BE ABLE TO WORK (I.E. DON'T USE STACK WHEN YOU
    67						DON'T HAVE ANY.)
    68					261	Make an error (compilation) pointer point to the error
    69						correctly on a listing file.
    70					265	Change error 15's to something other that halts.
    71					266	Put a JSP Z,ERRA in .JB41 so that we can see
    72						where the error ocuurs.
    73					272	Fix a bad return after printing an error message with
    74						an argument (&ERRPARM).
    75					304	Output the message for incompatible high-seg on EXITed program
    76						right away with an OUTSTR.
    77					\
SNOERR - Error Handler  %5(304)	MACRO %53B(1156)-1 21:48 14-Mar-88 Page 4
SNOERR	MAC	16-Feb-67 14:25		EXECUTION-TIME ERROR PROCESSING - PROLOGUE

    78						 SUBTTL	EXECUTION-TIME ERROR PROCESSING - PROLOGUE
    79
    80
    81						; Get Major and Minor error numbers and parameter
    82
    83	400000'	275 00 0 00 000001 	ERRA::	SUBI	Z,1		;[266] Correct addr is addr - 1.
    84	400001'	516 00 0 00 000000*		HRLZM	Z,ERRLOC##	;[266] STORE LOCATION WHERE ERROR WAS
    85	400002'	135 04 0 00 400437'		LDB	P1,[POINT 4,.JBUUO,12]
    86									; MAJOR ERROR TO P1
    87	400003'	550 05 0 00 000040 		HRRZ	P2,.JBUUO	; MINOR ERROR TO P2
    88
    89	400004'	200 06 0 00 000040 		MOVE	S1,.JBUUO	; LOAD FLAGS
    90	400005'	607 06 0 00 006000 		TLNN	S1,ERRSFL!ERRPFL ; PARAMETERIZED ERROR?
    91	400006'	254 00 0 00 400015'		JRST	ERRB1		; NO
    92
    93	400007'	603 06 0 00 002000 		TLNE	S1,ERRSFL	; PARAM ON STACK?
    94	400010'	254 00 0 00 400013'		JRST	ERRB		; YES - BRANCH AROUND
    95	400011'	261 01 0 17 000000 		PUSH	STACK,0(Q3)	; NO - PUSH DESCR
    96	400012'	261 01 0 17 000001 		PUSH	STACK,1(Q3)	; POINTED TO BY Q3
    97
    98	400013'	262 01 0 00 000000#	ERRB:	POP	STACK,ERRPRM+1	; POP STACK INTO
    99	400014'	262 01 0 00 000000*		POP	STACK,ERRPRM##	; &ERRPARM
   100
   101	400015'				ERRB1::	 ; PRODUCE COMPOUND ERROR NUMBER
   102
   103	400015'	221 04 0 00 001750 		IMULI	P1,^D1000	; COMPOUND ERROR NUMBER = ...
   104	400016'	270 04 0 00 000005 		ADD	P1,P2		; MAJOR * 1000 + MINOR
   105	400017'	202 04 0 00 000000*	ERRABS::	MOVEM	P1,$ERRTP##	; Store into &ERRTYPE
   106	400020'	302 04 0 00 013562 		CAIE	P1,^D6002		; ?SNOSSO?
   107	400021'	254 00 0 00 400026'		 JRST	ERRK		;  NO - SKIP THIS STUFF
   108
   109						OUTSTR	[ASCIZ |
   110					?STBSSO	System stack overflow.  This is normally caused by deeply
   111					recursive function calls (high values of &FUNCLEVEL).  The /Sn switch
   112					can provide more system stack.
   113	400022'	051 03 0 00 400440'	|]
   114
   115	400023'	402 00 0 00 000000*	ERRBAD:	SETZM	$DUMP##		;[304] Can't dump,
   116	400024'	402 00 0 00 000000*		SETZM	LISTF##		; Can't even finish listing file.
   117
   118	400025'	254 00 0 00 000000*		JRST	ETERM##		; LEAVE FOREVER.
   119
   120	400026'	302 04 0 00 035230 	ERRK:	CAIE	P1,^D15000	;[265] WAS THIS A BAD ERROR?
   121	400027'	254 00 0 00 400045'		 JRST	ERRJ			;[265] NOT EXTREMELY BAD.
   122
   123	400030'	205 00 0 00 001002 		MOVX	Z,FMT.O!FMT.WM	;[265] CONVERT TO OCTAL
   124	400031'	200 12 0 00 400001*		MOVE	T2,ERRLOC	;[265] ..
   125	400032'	265 11 0 00 000000*		JSP	TLINK,CVTWD##	;[265] MAKE IT DATA
   126	400033'	254 04 0 00 400032'		HALT	.-1		;[265] MUST USE HALT IF BAD
   127
   128	400034'	200 00 0 01 000000 		MOVE	Z,0(STACK)	;[265] JUST HALF A WORD
   129	400035'	275 00 0 00 000006 		SUBI	Z,6		;[265] ..
   130	400036'	202 00 0 01 000000 		MOVEM	Z,0(STACK)	;[265] ..
   131
   132	400037'	265 06 0 00 000000*		JSP	SLINK,LINE	;[265] PRINT THE ERROR IMMEDIATLY
SNOERR - Error Handler  %5(304)	MACRO %53B(1156)-1 21:48 14-Mar-88 Page 4-1
SNOERR	MAC	16-Feb-67 14:25		EXECUTION-TIME ERROR PROCESSING - PROLOGUE

   133	400040'	000000*	000003			XWD	XERRF##,3	;[265]
   134	400041'	004003	400503'			XWD	SDT,[.CHLFD,,1]	;[265] LF
   135	400042'	004003	000000*			XWD	SDT,EESYSE##	;[265] TEXT OF MESSAGE
   136	400043'	000001	000001			XWD	STACK,1		;[265] IT HAPPENED HERE
   137
   138					IFN FTDEBUG,<
   139						SKIPE	.JBDDT		;[265] IS DDT THERE?
   140						 JRST	@.JBDDT		;[265] YES - GO TO IT.
   141						>
   142
   143	400044'	047 00 0 00 000012 		EXIT			;[265] LEAVE QUICKLY!
   144
   145	400045'	302 04 0 00 027347 	ERRJ:	CAIE	P1,^D12007	;[304] Is it an incompatible high seg?
   146	400046'	254 00 0 00 400051'		 JRST	ERRM		;[304] Go do rest
   147						OUTSTR	[ASCIZ |
   148					?STBICS	Attempt was made to run a SAVEd low segment with an incompatible
   149					high segment.  Recompilation of the source is required.
   150	400047'	051 03 0 00 400504'	|]
   151	400050'	254 00 0 00 400023'		JRST	ERRBAD		;[304] End it all gracefully
   152
   153	400051'	202 04 0 00 000042 	ERRM:	MOVEM	P1,.JBERR	; Store for later use for STBERR
   154
   155	400052'	261 01 0 00 400537'	IFE FTSINGLE,	PUSH	STACK,[GETSG##]	;[215] FOR STBERR
   156	400053'	261 01 0 00 400540'		PUSH	STACK,[ERRRTN]		; WILL KNOW WHERE TO GO
   157					IFE FTSINGLE,<		;[215]
   158
   159	400054'	201 04 0 00 400010 		MOVEI	P1,400K+10	; THE DIRTY WAY
   160
   161	400055'	200 00 0 00 400541'		MOVE	Z,[SIXBIT/STBERR/]	; SEGMENT SPEC
   162	400056'	254 00 0 00 000000*		JRST	GETSG			; DO THE GETSEG
   163					>;[215] End of IFE FTSINGLE
   164					IFN FTSINGLE,	JRST	STBERR##	;[215] Process the error
   165
   166
   167						; This is the return from the STBERR module.  The error name
   168						; and error message are on the stack.
   169
   170	400057'	254 01 0 00 400060'	ERRRTN:	PORTAL	.+1		; Entry point
   171
   172	400060'	262 01 0 00 000012 		POP	STACK,T2	; Get &ERRNAME word
   173	400061'	205 00 0 00 003003 		MOVX	Z,FMT.S!FMT.WM	;[246] Load format
   174	400062'	265 11 0 00 400032*		JSP	TLINK,CVTWD##	; Convert to ASCII
   175	400063'	001 17 0 00 000000 		 ERROR	15		;  ???
   176
   177	400064'	262 01 0 00 000000#		POP	STACK,ERRNAM+1	; Put descriptor in &ERRNAME
   178	400065'	262 01 0 00 000000*		POP	STACK,ERRNAM##	; . . .
   179
   180	400066'	200 00 0 01 000000 		MOVE	Z,0(STACK)	; Get length of string
   181	400067'	265 15 0 00 000000*		JSP	QLINK,ASBLOK##	; Allocate the string
   182	400070'	001 17 0 00 000000 		 ERROR	15		; Too long -- so error?
   183
   184	400071'	262 01 0 00 000000#		POP	STACK,ERRMSG+1	; Pop descriptor into &ERRMSG
   185	400072'	262 01 0 00 000000*		POP	STACK,ERRMSG##	; . . .
   186
   187	400073'	262 01 0 00 000016 		POP	STACK,Q2	; Get length of error message
SNOERR - Error Handler  %5(304)	MACRO %53B(1156)-1 21:48 14-Mar-88 Page 4-2
SNOERR	MAC	16-Feb-67 14:25		EXECUTION-TIME ERROR PROCESSING - PROLOGUE

   188	400074'	202 16 0 00 000000#		MOVEM	Q2,ERRMSG+1	; PUT LENGTH IN (BYTES)
   189	400075'	231 16 0 00 000005 		IDIVI	Q2,NBYTES	; Find no. of words
   190	400076'	332 00 0 00 000017 		SKIPE	Q3		; Extra?
   191	400077'	340 16 0 00 000000 		AOJ	Q2,		; YES, Increase the word count
   192
   193	400100'	550 04 0 00 400072*		HRRZ	P1,ERRMSG	; PLACE IT CORRECTLY
   194	400101'	271 04 0 00 000002 		ADDI	P1,2
   195
   196	400102'	200 00 0 00 000001 		MOVE	Z,STACK		; SET UP TO ..
   197	400103'	274 00 0 00 000016 		SUB	Z,Q2		; PLACE &ERRMSG IN ..
   198	400104'	340 00 0 00 000000 		AOJ	Z,		; PROPER PLACE
   199	400105'	504 00 0 00 000004 		HRL	Z,P1		; ..
   200	400106'	204 00 0 00 000000 		MOVS	Z,Z		; ..
   201
   202	400107'	540 17 0 00 000004 		HRR	Q3,P1		; HOW FAR
   203	400110'	270 17 0 00 000016 		ADD	Q3,Q2		; TO GO
   204	400111'	360 17 0 00 000000 		SOJ	Q3,		; ...
   205	400112'	251 00 0 17 000000 		BLT	Z,(Q3)		; BLT IT UP.
   206
   207	400113'	200 00 0 00 000016 		MOVE	Z,Q2		; GET RID
   208	400114'	504 00 0 00 000000 		HRL	Z,Z		; OF WHATS
   209	400115'	274 01 0 00 000000 		SUB	STACK,Z		; ON THE STACK
   210
   211	400116'	200 04 0 00 400017*		MOVE	P1,$ERRTP##	; Get back the compsite error no.
   212	400117'	231 04 0 00 001750 		IDIVI	P1,^D1000	;GET MAJOR BACK TO P1
   213	400120'	306 04 0 00 000006 		CAIN	P1,6		;MEMORY TYPE ERROR?
   214	400121'	254 00 0 00 400212'		JRST	ERRC		; YES, TOO BAD
SNOERR - Error Handler  %5(304)	MACRO %53B(1156)-1 21:48 14-Mar-88 Page 5
SNOERR	MAC	16-Feb-67 14:25		EXECUTION-TIME ERROR PROCESSING - PROLOGUE

   215
   216						 ; ENTRY POINT FROM &ERRTYPE ASSIGNMENT
   217
   218	400122'	332 00 0 00 000000#	ERRTPA::SKIPE	$ERRTP##+1	; CHECK FOR &ERRTYPE BEING TRACED
   219	400123'	265 06 0 00 000000*		JSP	SLINK,ETPTRC##	; YES - GO TRACE IT
   220
   221	400124'	375 00 0 00 000000*		SOSGE	$ERRLM##		; DECREMENT AND TEST &ERRLIMIT
   222	400125'	254 00 0 00 400212'		JRST	ERRC		; JUMP IF IT WAS 0
   223
   224	400126'	336 06 0 00 000000*		SKIPN	S1,SET.LB##	; LOAD AND TEST SETEXIT LABEL
   225	400127'	254 00 0 00 000000*		JRST	IFAIL##		; NOT GIVEN - JUST FAIL
   226
   227						 ; TOSS OUT PREVIOUS ERROR INFO (AT THIS LEVEL)
   228
   229	400130'	331 00 0 00 000000*		SKIPL	PUSHTP##	; ERROR UNIVERSE?
   230	400131'	254 00 0 00 400135'		JRST	ERRSAV		; NO
   231						 ;
   232	400132'	200 01 0 00 000000*		MOVE	STACK,GROUND##	; CROUCH LOW TO GROUND
   233	400133'	265 00 0 00 000000*		POPSA	I		; ZAP OUT OLD ERROR UNIVERSE
   234	400134'	000010	000000*
   235
   236	400135'				ERRSAV:	 ;
   237	400135'	402 00 0 00 400126*		CLEARM	SET.LB		; RESET THE LABEL
   238	400136'	265 00 0 00 000000*		PUSHSA	I		; SAVE THE INTERPRETER STATE
   239	400137'	000010	400134*
   240	400140'	202 01 0 00 400132*		MOVEM	STACK,GROUND##	; ESTABLISH NEW GROUND LEVEL
   241	400141'	476 00 0 00 400130*		SETOM	PUSHTP##	; SET TYPE OF PUSH
   242
   243	400142'	505 06 0 00 064000 		HRLI	S1,VAR		; MAKE A VARIABLE ...
   244	400143'	261 01 0 00 000006 		PUSH	STACK,S1	; OUT OF THE VARIABLE BLOCK ...
   245	400144'	261 01 0 00 400542'		PUSH	STACK,[0]	; ADDRESS
   246
   247	400145'	254 00 0 00 000000*		JRST	GOTO##		; GO TO GOTO HANDLER IN INTERPRETER
   248

SNOERR - Error Handler  %5(304)	MACRO %53B(1156)-1 21:48 14-Mar-88 Page 6
SNOERR	MAC	16-Feb-67 14:25		SETEXIT AND RECOVERY LABELS

   249						SUBTTL	SETEXIT AND RECOVERY LABELS
   250
   251						 ; SETEXIT(NAME) SETS THE LOCATION SET.LB WITH THE
   252						 ; ADDRESS OF THE VARIABLE BLOCK INDICATED BY NAME
   253						 ; (OR 0 IF ARG IS NULL STRING). THE RETURNED VALUE
   254						 ; IS RECONSTRUCTED FROM SET.LB
   255
   256						 ; IF ARG IS NULL, JUMP DIRECTLY TO STXT1
   257
   258	400146'	200 07 0 00 000000*	STXT::	MOVE	S2,NULLST##	; LOAD NULL STRING TOP
   259	400147'	400 06 0 00 000000 		CLEAR	S1,		; S1 WILL HOLD RESULT
   260	400150'	316 07 0 01 777777 		CAMN	S2,-1(STACK)	; GO ON IF ARG NOT NULL
   261	400151'	254 00 0 00 400157'		JRST	STXT1		; JUMP IF NULL
   262
   263						 ; COMPUTE VB ADDRESS
   264
   265	400152'	265 11 0 00 000000*		JSP	TLINK,CVTNAM##	; EASIEST WAY IS TO ...
   266	400153'	003 01 0 00 000136 		ERROR.	1,94		; CONVERT TO NAME
   267	400154'	332 00 0 01 000000 		SKIPE	0(STACK)	; IS THE VARIABLE NATURAL?
   268	400155'	003 01 0 00 000136 		ERROR.	1,94		; NO - BAD ARG
   269
   270	400156'	550 06 0 01 777777 		HRRZ	S1,-1(STACK)	; LOAD VB ADDRESS
   271
   272						 ; MERGE HERE FROM NULL STRING CASE
   273
   274	400157'	250 06 0 00 400135*	STXT1:	EXCH	S1,SET.LB	; EXCHANGE OLD AND NEW
   275
   276	400160'	202 07 0 01 777777 		MOVEM	S2,-1(STACK)	; TENTATIVELY RETURN NULL STRING
   277	400161'	322 06 0 04 000001 		JUMPE	S1,1(PLINK)	; OK IF S1 IS 0
   278
   279	400162'	505 06 0 00 004011 		HRLI	S1,NDT		; OTHERWISE ...
   280	400163'	202 06 0 01 777777 		MOVEM	S1,-1(STACK)	; RETURN A ...
   281	400164'	254 00 0 04 000001 		JRST	1(PLINK)	; NAME
   282
   283
   284						 ; RECOVERY LABELS
   285
   286	400165'	265 06 0 00 400201'	ABORT::	JSP	SLINK,UNROLL	; RECOVER PROPER LEVEL
   287	400166'	200 05 0 00 000000*		MOVE	P2,ILABEL##	; GET OLD
   288	400167'	270 05 0 00 000000#		ADD	P2,ILABEL##+1	; STATEMENT
   289	400170'	554 06 0 05 000001 		HLRZ	S1,CSTNO(P2)	; NUMBER
   290	400171'	202 06 0 00 000000*		MOVEM	S1,$STNO##	; AND STORE INTO &STNO
   291	400172'	254 00 0 00 400212'		JRST	ERRC		; AND GO PRINT MESSAGE
   292
   293
   294	400173'	265 06 0 00 400201'	CONTIN::JSP	SLINK,UNROLL	; RECOVER PROPER LEVEL
   295	400174'	254 00 0 00 400127*		JRST	IFAIL		; AND FAIL
   296
   297	400175'	265 06 0 00 400201'	REPEAT::JSP	SLINK,UNROLL	; SEEK PROPER LEVEL
   298
   299	400176'	200 00 0 00 400543'		MOVE	Z,[ILABEL##,,ILOC##]; TRANSFER OLD
   300	400177'	251 00 0 00 000000#		BLT	Z,ILOC##+1	; LABEL
   301
   302	400200'	254 00 0 00 000000*		JRST	IBEGIN##	; AND LEAP TO IT
SNOERR - Error Handler  %5(304)	MACRO %53B(1156)-1 21:48 14-Mar-88 Page 6-1
SNOERR	MAC	16-Feb-67 14:25		SETEXIT AND RECOVERY LABELS

   303
   304
   305						 ; COMMON ROUTINE
   306
   307	400201'	336 07 0 00 400141*	UNROLL:	SKIPN	S2,PUSHTP##	; LOAD PUSH TYPE AND TEST FOR 0
   308	400202'	001 10 0 00 000003 		ERROR	8,3		;	0 - COULDN'T FIND A PREVIOUS ERROR
   309
   310	400203'	200 01 0 00 400140*		MOVE	STACK,GROUND##	; CROUCH LOW TO GROUND
   311	400204'	265 00 0 00 400133*		POPSA	I		; ZAP - RETURN TO PREVIOUS UNIVERSE
   312	400205'	000010	400137*
   313	400206'	370 00 0 00 000000*		SOS	$FNCLV##		; DROP LEVEL 1
   314	400207'	327 07 0 00 400201'		JUMPG	S2,UNROLL	; IF POSITIVE - WRONG UNIVERSE
   315
   316	400210'	350 00 0 00 400206*		AOS	$FNCLV##	; NEG. UNIVERSES DON'T COUNT
   317	400211'	254 00 0 06 000000 		JRST	0(SLINK)	; RESTORATION COMPLETE, RETURN
   318

SNOERR - Error Handler  %5(304)	MACRO %53B(1156)-1 21:48 14-Mar-88 Page 7
SNOERR	MAC	16-Feb-67 14:25		EXECUTION-TIME ERRORS - EPILOUGE

   319						SUBTTL	EXECUTION-TIME ERRORS - EPILOUGE
   320
   321						 ; HERE TO PRINT THE ERROR MESSAGE
   322
   323	400212'	210 04 0 00 400116*	ERRC::	MOVN	P1,$ERRTP##	; SET P1 FOR ABSERR EXIT
   324	400213'	332 00 0 00 000000*		SKIPE	IN.ERR##		; HAVE WE BEEN HERE BEFORE?
   325	400214'	254 00 0 00 000000*		JRST	ABSERR##	; YES, BYPASS TERM ROUTINE
   326	400215'	476 00 0 00 400213*		SETOM	IN.ERR		; NO - PREVENT RE-ENTRY
   327
   328	400216'	265 15 0 00 000000*		JSP	QLINK,MSTIME##	; RECORD ...
   329	400217'	202 00 0 00 000000*		MOVEM	Z,TIME.E##	; ENDING TIME
   330
   331	400220'	336 00 0 00 000000*		SKIPN	TIME.C##	; DID WE FINSH COMPILE?
   332	400221'	202 00 0 00 400220*		MOVEM	Z,TIME.C##	; USE THIS
   333
   334	400222'	200 04 0 00 400212*		MOVE	P1,$ERRTP	; Get the &ERRTYPE back.
   335	400223'	231 04 0 00 001750 		IDIVI	P1,^D1000	; Minor in P2, Major in P1
   336	400224'	336 00 0 00 000004 		SKIPN	P1		; If P1 is 0 then ...
   337	400225'	250 04 0 00 000005 		EXCH	P1,P2		; We really didn't want to divide
   338
   339	400226'	051 13 0 00 000000 		SKPINC	0		; Free up
   340	400227'	255 00 0 00 000000 		JFCL			; ^O Shut off
   341
   342	400230'	200 00 0 00 000000*		MOVE	Z,$ERRLV##	; Get the error level
   343	400231'	326 00 0 00 400244'		JUMPN	Z,ERROUT	; If already set go print as it is set.
   344
   345
   346	400232'	201 00 0 00 000001 		MOVEI	Z,1	; Has to have at least the PREFIX
   347	400233'	561 15 0 00 000035 		GTMSG.	Q1	; The rest?
   348	400234'	047 15 0 00 000041
   349	400235'	201 15 0 00 000000
   350	400236'	607 15 0 00 000700
   351	400661 15 0 00 000300
   352	400240'	603 15 0 00 000400
   353	400241'	661 15 0 00 000200
   354	400242'	603 15 0 00 000200 		TXNE	Q1,JW.WFL	; ..
   355	400243'	340 00 0 00 000000 		AOJ	Z,	; Yes, add one to make it 2.
   356
   357
   358	400244'	200 01 0 00 000000*	ERROUT:	MOVE	STACK,STBASE##	; Ensure enough stack
   359
   360	400245'	261 01 0 00 400065*		PUSH	STACK,ERRNAM##	; Get the &ERRNAME
   361	400246'	261 01 0 00 000000#		PUSH	STACK,ERRNAM+1	;  for use in the line subroutine.
   362
   363	400247'	202 00 0 00 000000*		MOVEM	Z,IGNOP##		; Save Z
   364	400250'	265 06 0 00 400037*		JSP	SLINK,LINE##	; Use LINE to print out this line:
   365	400251'	000000*	000007			XWD	XERRF##,^D7	; ...
   366	400252'	004003	400503'			XWD	SDT,[.CHLFD,,1]	; (New line)
   367	400253'	004003	400544'			XWD	SDT,["?",,1]	; '?'
   368	400254'	000001	000001			XWD	STACK,1		; &ERRNAME
   369	400255'	004003	000000*			XWD	SDT,EERR01##	; 'IN STATEMENT'
   370	400256'	002001	400171*			XWD	IDT,$STNO##	; Statement no.
   371	400257'	004003	000000*			XWD	SDT,EERR02##	; 'AT LEVEL'
   372	400260'	002001	400210*			XWD	IDT,$FNCLV	; Function level
SNOERR - Error Handler  %5(304)	MACRO %53B(1156)-1 21:48 14-Mar-88 Page 7-1
SNOERR	MAC	16-Feb-67 14:25		EXECUTION-TIME ERRORS - EPILOUGE

   373	400261'	200 00 0 00 400247*		MOVE	Z,IGNOP		; Get Z back.
   374
   375	400262'	302 00 0 00 000002 		CAIE	Z,2		; Do we want the rest of it?
   376	400263'	254 00 0 00 400025*		JRST	ETERM##		; Don't do it.
   377
   378	400264'	200 01 0 00 400244*		MOVE	STACK,STBASE##	; ENSURE ENOUGH STACK
   379	400265'	261 01 0 00 400100*		PUSH	STACK,ERRMSG	; Get the &ERRMSG
   380	400266'	261 01 0 00 000000#		PUSH	STACK,ERRMSG+1	;  for use in the line subroutine.
   381
   382	400267'	265 06 0 00 400250*		JSP	SLINK,LINE##	; Print out the error message text
   383	400270'	000000*	000001			XWD	XERRF##,1	; . . .
   384	400271'	000001	000001			XWD	STACK,1		; . . .
   385
   386			000016			MXSYSE==^D14		; Maximum system error
   387
   388	400272'	307 04 0 00 000016 	ERRZ:	CAIG	P1,MXSYSE	; If P1 is greater than any system error
   389	400273'	307 04 0 00 000000 		CAIG	P1,0		; or non positive
   390	400274'	201 04 0 00 000017 		MOVEI	P1,MXSYSE+1	; Then it must be a user error
   391
   392	400275'	302 04 0 00 000001 	ERRD1:	CAIE	P1,1		; Is it a number one error?
   393	400276'	254 00 0 00 400312'		JRST	ERRD8		; Nope, see if it could be another.
   394
   395	400277'	201 16 0 00 400014*		MOVEI	Q2,ERRPRM	; Form ..
   396	400300'	265 06 0 00 000000*		JSP	SLINK,IMAGE##	; an image of the evil part.
   397
   398	400301'	265 06 0 00 400267*	ERRD1A:	JSP	SLINK,LINE	; Print out the line:
   399	400302'	000000*	000006			XWD	XERRF##,^D6	; onto the error file.
   400	400303'	004003	000000*			XWD	SDT,S.BL##	; BLANK
   401	400304'	004003	400303*			XWD	SDT,S.BL	; BLANK
   402	400305'	004003	400545'			XWD	SDT,["(",,1]
   403	400306'	000001	000001			XWD	STACK,1
   404	400307'	004003	400546'			XWD	SDT,[")",,1]
   405	400310'	004003	400503'			XWD	SDT,[.CHLFD,,1]
   406
   407	400311'	254 00 0 00 400263*		JRST	ETERM		; Terminate.
   408
   409	400312'	302 04 0 00 000010 	ERRD8:	CAIE	P1,^D8		; Is it an 8?
   410	400313'	254 00 0 00 400321'		JRST	ERRD9		; Nope, see about others
   411
   412	400314'	302 05 0 00 000002 		CAIE	P2,2		; All we want is 8.002.
   413	400315'	254 00 0 00 400321'		JRST	ERRD9		; Go away.
   414
   415	400316'	261 01 0 00 400277*	ERRD8A:	PUSH	STACK,ERRPRM	; Give the &ERRPRM
   416	400317'	261 01 0 00 000000#		PUSH	STACK,ERRPRM+1	; ..
   417
   418	400320'	254 00 0 00 400301'		JRST	ERRD1A		; Join the others.
   419
   420	400321'	306 04 0 00 000011 	ERRD9:	CAIN	P1,^D9		; Are we interested?
   421	400322'	302 05 0 00 000003 		CAIE	P2,3		;  in these types of errors?
   422						 JRST	[	JSP	SLINK,LINE##
   423								XWD	XERRF##,1
   424								XWD	SDT,[.CHLFD,,1]
   425	400323'	254 00 0 00 400547'				JRST	ETERM]
   426	400324'	254 00 0 00 400316'		  JRST	ERRD8A		; Do it the way the others do.
SNOERR - Error Handler  %5(304)	MACRO %53B(1156)-1 21:48 14-Mar-88 Page 8
SNOERR	MAC	16-Feb-67 14:25		COMPILER ERRORS

   427						SUBTTL	COMPILER ERRORS
   428
   429						 ; CERROR -
   430						 ; CALLING SEQUENCE:
   431						 ;	LOAD Z WITH ERROR CODE
   432						 ;	JSP	SLINK,CERROR
   433
   434	400325'	202 00 0 00 000000*	CERROR::MOVEM	Z,CERARG##	; SAVE ARGUMENT
   435	400326'	202 06 0 00 000000*		MOVEM	SLINK,CERLNK##	; SAVE RETURN
   436	400327'	200 00 0 00 400553'		MOVE	Z,[11,,1]	; LOAD DEFAULT PREFIX
   437	400330'	202 00 0 00 000000*		MOVEM	Z,PREFIX##	; STORE AS PREFIX
   438
   439	400331'	200 07 0 00 000000*		MOVE	S2,CERRF##	; IF COMPILER ERRORS GO ON A ...
   440	400332'	316 07 0 00 400024*		CAMN	S2,LISTF##	; DIFFERENT FILE AS THE LISTING ...
   441	400333'	335 00 0 00 000000#		SKIPGE	LISTF##+1		; OR IF LISTING IS OFF THEN ...
   442	400334'	334 00 0 00 000000 		SKIPA			; SKIP TO PRINT THE SUBJECT
   443	400335'	254 00 0 00 400344'		JRST	CERR.1		; ELSE JUMP AROUND
   444
   445	400336'	261 01 0 00 000000*		PUSH	STACK,LSUBJ##	; PUSH THE ...
   446	400337'	261 01 0 00 000000#		PUSH	STACK,LSUBJ+1	; OFFENDING STRING
   447	400340'	265 06 0 00 400301*		JSP	SLINK,LINE	; AND PRINT IT
   448	400341'	000000*	000002			XWD	CERRF##,2		; ON THE ERROR FILE
   449	400342'	004003	400330*			XWD	SDT,PREFIX	; PRECEDED BY A TAB (OR WHATEVER)
   450	400343'	000001	000001			XWD	STACK,1		; (OFFENDING STRING)
   451
   452						 ; PREPARE THE POINTER TO THE ERROR
   453
   454	400344'	550 10 0 00 000000#	CERR.1:	HRRZ	S3,LSUBJ+1	; GET LENGTH OF LSUBJECT
   455	400345'	274 10 0 00 000000*		SUB	S3,CURSOR##	; SUBTRACT CURSOR
   456	400346'	322 10 0 00 400365'		JUMPE	S3,CERR2	; JUMP IN NULL STRING
   457	400347'	275 10 0 00 000001 		SUBI	S3,1		; DEDUCT ONE TO POINT AT END OF ELEMENT
   458
   459	400350'	261 01 0 00 400336*		PUSH	STACK,LSUBJ	; GET
   460	400351'	261 01 0 00 000000#		PUSH	STACK,LSUBJ+1	; POINTER
   461	400352'	265 15 0 00 000000*		JSP	QLINK,CVTPTR##	; TO THE LISTING
   462	400353'	000000	000000			0			; SUBJECT
   463	400354'	001 17 0 00 000000 		ERROR	15		; (NULL STRING?)
   464
   465	400355'	400 07 0 00 000000 		CLEAR	S2,		; RESULTANT POINTER POS.
   466
   467	400356'	134 17 0 00 000000 	CERR4:	ILDB	Q3,Z		; GET NEXT CHAR.
   468	400357'	302 17 0 00 000011 		CAIE	Q3,11		; TAB?
   469	400360'	344 07 0 00 400363'		AOJA	S2,CERR3	; NO, JUST ADD ONE
   470
   471	400361'	271 07 0 00 000010 		ADDI	S2,10		; YES, NEXT HIGHER
   472	400362'	405 07 0 00 777770 		ANDI	S2,777770	; OCTAL POSITION
   473
   474	400363'	367 10 0 00 400356'	CERR3:	SOJG	S3,CERR4	; LOOP ON PREFIX COUNT
   475	400364'	200 10 0 00 000007 		MOVE	S3,S2		; S3 HOLDS CURSOR POSITION
   476
   477	400365'	200 00 0 00 000010 	CERR2:	MOVE	Z,S3		; LOAD ARG. FOR DUPL
   478	400366'	261 01 0 00 000000*		PUSH	STACK,$ALPHA##	; PUSH ON DESCRIPTOR ...
   479	400367'	261 01 0 00 400554'		PUSH	STACK,[" ",,1]	; FOR BLANK
   480	400370'	265 11 0 00 000000*		JSP	TLINK,DUPLI##	; PREPARE POINTER PREFIX
   481	400371'	001 13 0 00 000015 		ERROR	11,13		; EXCEEDED &MAXLNGTH
SNOERR - Error Handler  %5(304)	MACRO %53B(1156)-1 21:48 14-Mar-88 Page 8-1
SNOERR	MAC	16-Feb-67 14:25		COMPILER ERRORS

   482
   483	400372'	265 06 0 00 000000*		JSP	SLINK,LINE.##	; PREPARE A LINE WITHOUT PRINTING
   484	400373'	000000	000003			XWD	0,3		; 3 ARGUMENTS
   485	400374'	004003	400342*			XWD	SDT,PREFIX	; THE PREFIX
   486	400375'	000001	000001			XWD	STACK,1		; THE BLANKS
   487	400376'	004003	400555'			XWD	SDT,["^",,1]	; A MARK
   488
   489	400377'	474 11 0 00 000000 		SETO	T1,		;[261] TELL CERR.W SOMETHING
   490	400400'	265 06 0 00 400414'		JSP	SLINK,CERR.W	; AND WRITE IT OUT
   491
   492						 ; PREPARE THE MESSAGE
   493
   494	400401'	261 01 0 00 000000*		PUSH	STACK,SYSTR##	; ARG IS AN ADDRESS INTO ...
   495	400402'	200 07 0 00 400325*		MOVE	S2,CERARG	; THE SYSTEM ...
   496	400403'	261 01 0 07 000000 		PUSH	STACK,0(S2)	; STRING BLOK
   497
   498	400404'	265 06 0 00 400372*		JSP	SLINK,LINE.	; PREPARE THE STRING
   499	400405'	000000	000003			XWD	0,3		; ENCLOSED
   500	400406'	004003	000000*			XWD	SDT,CE.PRE##	; IN STARS
   501	400407'	000001	000001			XWD	STACK,1		;
   502	400410'	004003	400406*			XWD	SDT,CE.PRE##
   503
   504	400411'	400 11 0 00 000000 		SETZ	T1,		;[261] FLAG PRINTOUT
   505	400412'	265 06 0 00 400414'		JSP	SLINK,CERR.W	; WRITE IT OUT
   506
   507	400413'	254 00 1 00 400326*		JRST	@CERLNK		; AND RETURN
   508

SNOERR - Error Handler  %5(304)	MACRO %53B(1156)-1 21:48 14-Mar-88 Page 9
SNOERR	MAC	16-Feb-67 14:25		COMPILER ERRORS

   509						 ; A LITTLE SUBROUTINE TO WRITE THE STRING AT THE TOP OF THE
   510						 ; STACK ONTO CERRF AND POSSIBLY LISTF##
   511
   512	400414'	200 00 0 00 400332*	CERR.W:	MOVE	Z,LISTF		; IF THE LISTING FILE ...
   513	400415'	316 00 0 00 400331*		CAMN	Z,CERRF##		; DIFFERS FROM THE ERROR FILE
   514	400416'	254 00 0 00 400432'		JRST	CERRW1		; AVOID THIS BRANCH
   515
   516						 ; WRITE STRING ON LISTF
   517
   518	400417'	261 01 0 01 777777 		PUSH	STACK,-1(STACK)	; DUPLICATE THE
   519	400420'	261 01 0 01 777777 		PUSH	STACK,-1(STACK)	; VALUE ON THE STACK
   520
   521	400421'	322 11 0 00 400426'		JUMPE	T1,CERRW0	;[261] AVOID THIS IF NECESSARY.
   522	400422'	550 11 0 01 000000 		 HRRZ	T1,0(STACK)	;[261] CHANGE THE
   523	400423'	275 11 0 00 000001 		SUBI	T1,1		;[261] LENGTH OF THIS
   524	400424'	505 11 0 00 000001 		HRLI	T1,1		;[261] STRING
   525	400425'	202 11 0 01 000000 		MOVEM	T1,0(STACK)	;[261] THIS IS THE NEW STRING.
   526
   527	400426'	200 12 0 00 400414*	CERRW0:	MOVE	T2,LISTF	; LOAD THE ...
   528	400427'	200 13 0 00 000000#		MOVE	T3,LISTF+1	; FILE DESCRIPTOR
   529	400430'	265 11 0 00 000000*		JSP	TLINK,WRITE##	; WRITE OUT THE MESSAGE
   530	400431'	001 14 0 00 000005 		ERROR	12,5		; INCORRECTABLE OUTPUT ERROR
   531
   532						 ; WRITE STRING ON CERRF
   533
   534	400432'	200 12 0 00 400415*	CERRW1:	MOVE	T2,CERRF	; LOAD THE ...
   535	400433'	200 13 0 00 000000#		MOVE	T3,CERRF+1	; FILE DESCRIPTOR
   536	400434'	265 11 0 00 400430*		JSP	TLINK,WRITE##	; WRITE IT OUT
   537	400435'	001 14 0 00 000005 		ERROR	12,5		; INCORRECTABLE OUTPUT ERROR
   538
   539	400436'	254 00 0 06 000000 		JRST	0(SLINK)	; AND RETURN
   540
   541						END

NO ERRORS DETECTED

HI-SEG. BREAK IS 400556
PROGRAM BREAK IS 000000
CPU TIME USED 04:50.924

44P CORE USED
SNOERR - Error Handler  %5(304)	MACRO %53B(1156)-1 21:48 14-Mar-88 Page S-1
SNOERR	MAC	16-Feb-67 14:25		SYMBOL TABLE

ABORT		400165'	int	ERRRTN		400057'		QLINK		000015
ABSERR		400214'	ext	ERRSAV		400135'		REPEAT		400175'	int
ASBLOK		400067'	ext	ERRSFL		002000	spd	S.BL		400304'	ext
CE.PRE		400410'	ext	ERRSIX	456262	000000	spd	S1		000006
CERARG		400402'	ext	ERRTPA		400122'	int	S2		000007
CERLNK		400413'	ext	ERRVER		000005	spd	S3		000010
CERR.1		400344'		ERRWHO		000000	spd	SAVEI		400205'	ext
CERR.W		400414'		ERRZ		400272'		SDT		004003	sin
CERR2		400365'		ETERM		400552'	ext	SET.LB		400157'	ext
CERR3		400363'		ETPTRC		400123'	ext	SKPINC	051540	000000
CERR4		400356'		EXIT	047000	000012		SLINK		000006
CERRF		400432'	ext	FMT.O	000002	000000	spd	STACK		000001
CERROR		400325'	int	FMT.S	002003	000000	spd	STBASE		400264'	ext
CERRW0		400426'		FMT.WM	001000	000000	spd	STXT		400146'	int
CERRW1		400432'		FTDEBU		000000	spd	STXT1		400157'
CONTIN		400173'	int	FTSING		000000	spd	SYSTR		400401'	ext
CSTNO		000001	sin	GETSG		400056'	ext	T1		000011
CURSOR		400345'	ext	GETTAB	047000	000041		T2		000012
CVTNAM		400152'	ext	GOTO		400145'	ext	T3		000013
CVTPTR		400352'	ext	GROUND		400203'	ext	TIME.C		400221'	ext
CVTWD		400062'	ext	HALT	254200	000000		TIME.E		400217'	ext
DUPLI		400370'	ext	IBEGIN		400200'	ext	TLINK		000011
E1$94		000000	sin	IDT		002001	sin	UNROLL		400201'
E11$13		000000	sin	IFAIL		400174'	ext	VAR		064000	sin
E12$5		000000	sin	IGNOP		400261'	ext	WRITE		400434'	ext
E15$		000000	sin	ILABEL		400166'	ext	XERRF		000000	ext
E8$3		000000	sin	ILOC		400543'	ext	Z		000000
EERR01		400255'	ext	IMAGE		400300'	ext	$ALPHA		400366'	ext
EERR02		400257'	ext	IN.ERR		400215'	ext	$DUMP		400023'	ext
EESYSE		400042'	ext	JW.WCN	000400	000000	spd	$ERRLM		400124'	ext
ERR	001000	000000		JW.WFL	000200	000000	spd	$ERRLV		400230'	ext
ERR.	003000	000000		JW.WMS	000700	000000	spd	$ERRTP		400222'	ext
ERRA		400000'	int	LINE		400547'	ext	$FNCLV		400260'	ext
ERRABS		400017'	int	LINE.		400404'	ext	$STNO		400256'	ext
ERRASC	426452	200000	spd	LISTF		400426'	ext	%%JOBD	043100	000450	spd
ERRB		400013'		LSAVEI		000010	spd	%%MACT	000200	000025	spd
ERRB1		400015'	int	LSUBJ		400350'	ext	%%SNOP	000500	000305	spd
ERRBAD		400023'		MSTIME		400216'	ext	%%UUOS	001400	000457	spd
ERRC		400212'	int	MXSYSE		000016	spd	.CHLFD		000012	spd
ERRD1		400275'		NBYTES		000005	spd	.GTWCH		000035	spd
ERRD1A		400301'		NDT		004011	sin	.JBERR		000042
ERRD8		400312'		NULLST		400146'	ext	.JBUUO		000040
ERRD8A		400316'		OUTSTR	051140	000000		.JWWPO		000003	spd
ERRD9		400321'		P1		000004
ERREDT		000304	spd	P2		000005
ERRJ		400045'		PLINK		000004
ERRK		400026'		PORTAL	254040	000000
ERRLOC		400031'	ext	PPL		000010	spd
ERRM		400051'		PPSA		400204'	ext
ERRMIN		000000	spd	PREFIX		400374'	ext
ERRMSG		400265'	ext	PSHSA		400136'	ext
ERRNAM		400245'	ext	PUSHTP		400201'	ext
ERROUT		400244'		Q1		000015
ERRPFL		004000	spd	Q2		000016
ERRPRM		400316'	ext	Q3		000017

SNOERR - Error Handler  %5(304)	MACRO %53B(1156)-1 21:48 14-Mar-88 Page 1
SNOERR	MAC	16-Feb-67 14:25		Gimpel--Ma355/JDS/DRH/MP/RCM/VB		15-Jun-76


Symbol cross reference

ABORT	   286#
ABSERR	   325
ASBLOK	   181
CE.PRE	   500	   502
CERARG	   434	   495
CERLNK	   435	   507
CERR.1	   443	   454#
CERR.W	   490	   505	   512#
CERR2	   456	   477#
CERR3	   469	   474#
CERR4	   467#	   474
CERRF	   439	   448	   513	   534	   535
CERROR	   434#
CERRW0	   521	   527#
CERRW1	   514	   534#
CONTIN	   294#
CSTNO	   289
CURSOR	   455
CVTNAM	   265
CVTPTR	   461
CVTWD	   125	   174
DUPLI	   480
E1$94	   266#	   268#
E11$13	   481#
E12$5	   530#	   537#
E15$	   175#	   182#	   463#
E8$3	   308#
EERR01	   369
EERR02	   371
EESYSE	   135
ERRA	    83#
ERRABS	   105#
ERRASC	    31#
ERRB	    94	    98#
ERRB1	    91	   101#
ERRBAD	   115#	   151
ERRC	   214	   222	   291	   323#
ERRD1	   392#
ERRD1A	   398#	   418
ERRD8	   393	   409#
ERRD8A	   415#	   426
ERRD9	   410	   413	   420#
ERREDT	    24#
ERRJ	   121	   145#
ERRK	   107	   120#
ERRLOC	    84	   124
ERRM	   146	   153#
ERRMIN	    23#
ERRMSG	   184	   185	   188	   193	   379	   380
ERRNAM	   177	   178	   360	   361
SNOERR - Error Handler  %5(304)	MACRO %53B(1156)-1 21:48 14-Mar-88 Page 1
SNOERR	MAC	16-Feb-67 14:25		Gimpel--Ma355/JDS/DRH/MP/RCM/VB		15-Jun-76


Symbol cross reference

ERROUT	   343	   358#
ERRPFL	    90
ERRPRM	    98	    99	   395	   415	   416
ERRRTN	   156	   170#
ERRSAV	   230	   236#
ERRSFL	    90	    93
ERRSIX	    30#
ERRTPA	   218#
ERRVER	    22#
ERRWHO	    25#
ERRZ	   388#
ETERM	   118	   376	   407	   425
ETPTRC	   219
FMT.O	   123
FMT.S	   173
FMT.WM	   123	   173
FTDEBU	   138	   233	   238	   311
FTSING	   155	   157	   164
GETSG	   155	   162
GOTO	   247
GROUND	   232	   240	   310
IBEGIN	   302
IDT	   370	   372
IFAIL	   225	   295
IGNOP	   363	   373
ILABEL	   287	   288	   299
ILOC	   299	   300
IMAGE	   396
IN.ERR	   324	   326
JW.WCN	   352
JW.WFL	   353	   354
JW.WMS	   350	   351
LINE	   132	   364	   382	   398	   422	   447
LINE.	   483	   498
LISTF	   116	   440	   441	   512	   527	   528
LSAVEI	   233	   238	   311
LSUBJ	   445	   446	   454	   459	   460
MSTIME	   328
MXSYSE	   386#	   388	   390
NBYTES	   189
NDT	   279
NULLST	   258
P1	    85	   103	   104	   105	   106	   120	   145	   153	   159	   193	   194	   199	   202	   211
	   212	   213	   323	   334	   335	   336	   337	   388	   389	   390	   392	   409	   420
P2	    87	   104	   287	   288	   289	   337	   412	   421
PLINK	   277	   281
PPL	   233#	   233	   234	   238#	   238	   239	   311#	   311	   312
PPSA	   233	   311
PREFIX	   437	   449	   485
PSHSA	   238
SNOERR - Error Handler  %5(304)	MACRO %53B(1156)-1 21:48 14-Mar-88 Page 1
SNOERR	MAC	16-Feb-67 14:25		Gimpel--Ma355/JDS/DRH/MP/RCM/VB		15-Jun-76


Symbol cross reference

PUSHTP	   229	   241	   307
Q1	   348	   350	   351	   352	   353	   354
Q2	   187	   188	   189	   191	   197	   203	   207	   395
Q3	    95	    96	   190	   202	   203	   204	   205	   467	   468
QLINK	   181	   328	   461
REPEAT	   297#
S.BL	   400	   401
S1	    89	    90	    93	   224	   243	   244	   259	   270	   274	   277	   279	   280	   289	   290
S2	   258	   260	   276	   307	   314	   439	   440	   465	   469	   471	   472	   475	   495	   496
S3	   454	   455	   456	   457	   474	   475	   477
SAVEI	   233	   233#	   234	   238	   239	   311	   312
SDT	   134	   135	   366	   367	   369	   371	   400	   401	   402	   404	   405	   424	   449	   485
	   487	   500	   502
SET.LB	   224	   237	   274
SLINK	   132	   219	   286	   294	   297	   317	   364	   382	   396	   398	   422	   435	   447	   483
	   490	   498	   505	   539
STACK	    95	    96	    98	    99	   128	   130	   136	   155	   156	   172	   177	   178	   180	   184
	   185	   187	   196	   209	   232	   240	   244	   245	   260	   267	   270	   276	   280	   310
	   358	   360	   361	   368	   378	   379	   380	   384	   403	   415	   416	   445	   446	   450
	   459	   460	   478	   479	   486	   494	   496	   501	   518	   519	   522	   525
STBASE	   358	   378
STXT	   258#
STXT1	   261	   274#
SYSTR	   494
T1	   489	   504	   521	   522	   523	   524	   525
T2	   124	   172	   527	   534
T3	   528	   535
TIME.C	   331	   332
TIME.E	   329
TLINK	   125	   174	   265	   480	   529	   536
UNROLL	   286	   294	   297	   307#	   314
VAR	   243
WRITE	   529	   536
XERRF	   133	   365	   383	   399	   423
Z	    83	    84	   123	   128	   129	   130	   161	   173	   180	   196	   197	   198	   199	   200
	   205	   207	   208	   209	   233	   238	   299	   300	   311	   329	   332	   342	   343	   346
	   355	   363	   373	   375	   434	   436	   437	   467	   477	   512	   513
$ALPHA	   478
$DUMP	   115
$ERRLM	   221
$ERRLV	   342
$ERRTP	   105	   211	   218	   323	   334
$FNCLV	   313	   316	   372
$STNO	   290	   370
.CHLFD	   134	   366	   405	   424
.JBERR	   153
.JBUUO	    85	    87	    89
.JWWPO	   351
SNOERR - Error Handler  %5(304)	MACRO %53B(1156)-1 21:48 14-Mar-88 Page 1
SNOERR	MAC	16-Feb-67 14:25		Gimpel--Ma355/JDS/DRH/MP/RCM/VB		15-Jun-76


Macro/Opdef cross reference

ALIGN.	   351
ERR	   175	   182	   308	   463	   481	   530	   537
ERR.	   266	   268
ERROR	   175	   182	   308	   463	   481	   530	   537
ERROR.	   266	   268
ERRPTX	    43
ERRTTL	    42
EXIT	   143
GETTAB	   348
GTMSG.	   347
HALT	   126
MIDENT	   234	   239	   312
MOVX	   123	   173
OUTSTR	   109	   147
POPSA	   233	   311
PORTAL	   170
PPADDR	   233#	   234	   238#	   239	   311#	   312
PPINIT	   233	   238	   311
PPLENG	   233#	   234	   238#	   239	   311#	   312
PUSHSA	   238
RGHBT.	   351
SHOW.	    37	    38	    39	    40
SKPINC	   339
TITLE.	    29
TXNE	   352	   354
TXO	   351	   353`@YÇ