SNOPRM - SITBOL Parameter File  %5(305)	MACRO %53B(1156)-1 21:45 14-Mar-88 Page 1
SNOPRM	MAC	15-Mar-69 11:30		Gimpel--Ma355/JDS/DRH/MP/RCM/VB		5-Aug-77

     1						SUBTTL	Gimpel--Ma355/JDS/DRH/MP/RCM/VB		5-Aug-77
     2
     3					;COPYRIGHT (C) 1972,1973,1977 STEVENS INSTITUTE OF TECHNOLOGY,
     4					; HOBOKEN, NEW JERSEY, 07030
     5					; ALL RIGHTS RESERVED.
     6
     7						; Directives
     8
     9						SALL			;SUPPRESS MACRO EXPANSIONS
    10						.DIRECT	.XTABM		;EXCLUDE TABS FROM MACRO ARGUMENTS
    11						.DIRECT	.NOBINARY	;DIRECT NO BINARY OUTPUT
    12
    13						; Universals
    14
    15						SEARCH	MACTEN		;SEARCH STANDARD MACROS
    16						SEARCH	UUOSYM		;STANDARD TOPS-10 SYMBOL DEFS
    17
    18						; Version Number
    19
    20			000005			SNOVER==5		;MAJOR VERSION NUMBER
    21			000000			SNOMIN==0		;MINOR VERSION NUMBER
    22			000305			SNOEDT==305		;EDIT LEVEL
    23			000000			SNOWHO==0		;WHO LAST EDITED THIS FILE
    24
    25						; Title
    26
    27						TITLE.	SNO,SNOPRM,<SITBOL Parameter File>
    28		635657	000000			SNOSIX==SIXBIT /SNO/	; SNOPRM ABBREVIATION IN SIXBIT
    29		516351	700000			SNOASC==ASCIZ /SNO/	; SNOPRM ABBREVIATION IN ASCII
    30						SALL
    31
    32
    33		000500	000305			%%SNOPRM==<VRSN. (SNO)>	;PARAMETER FILE VERSION NUMBER
    34
    35		000500	000305			VERSION==<VRSN. (SNO)>	;THE SYMBOL WITH THE VERSION NUMBER
    36
    37						SNOUNV			; Title
    38						UNIVERSAL SNOPRM - SITBOL Parameter File  %5(305)
    39						SALL
    40
    41						SNOPTX			; PASS2 assembly message
    42
    43						; Low Segment Version Number
    44
    45			000006			LOWVER==6
SNOPRM - SITBOL Parameter File  %5(305)	MACRO %53B(1156)-1 21:45 14-Mar-88 Page 2
SNOPRM	MAC	15-Mar-69 11:30		Table of Contents

    46						SUBTTL	Table of Contents
    47
    48
    49					;		Table of Contents for SNOPRM - SITBOL Parameter File
    50					;
    51					;
    52					;			   Section			      Page
    53					;   1. Table of Contents. . . . . . . . . . . . . . . . . . .    2
    54					;   2. Revision History . . . . . . . . . . . . . . . . . . .    3
    55					;   3. Feature tests. . . . . . . . . . . . . . . . . . . . .    4
    56					;   4. Macro Definitions
    57					;        4.1.   XPS.. . . . . . . . . . . . . . . . . . . . .    5
    58					;   5. DEFAULT DEFINITIONS. . . . . . . . . . . . . . . . . .    6
    59					;   6. Registers. . . . . . . . . . . . . . . . . . . . . . .    7
    60					;   7. DESCRIPTOR SYMBOLS . . . . . . . . . . . . . . . . . .    8
    61					;   8. DATA STRUCTURE SYMBOLS . . . . . . . . . . . . . . . .    9
    62					;   9. BLOK Definitions
    63					;        9.1.   TYPES . . . . . . . . . . . . . . . . . . . .   10
    64					;        9.2.   String Block (SBLOK). . . . . . . . . . . . .   11
    65					;        9.3.   Pattern Block (PBLOK) . . . . . . . . . . . .   12
    66					;        9.4.   Pattern Node Fields . . . . . . . . . . . . .   13
    67					;        9.5.   Array Block (ABLOK) . . . . . . . . . . . . .   14
    68					;        9.6.   Code Block (CBLOK). . . . . . . . . . . . . .   15
    69					;        9.7.   Table Block (TBLOK) . . . . . . . . . . . . .   16
    70					;        9.8.   Data Objects (DBLOK). . . . . . . . . . . . .   17
    71					;        9.9.   Table Block (TBLOK) . . . . . . . . . . . . .   18
    72					;        9.10.  Association Variable (VABLOK) . . . . . . . .   19
    73					;        9.11.  Table Element Block (TEBLOK). . . . . . . . .   20
    74					;        9.12.  Function Block (FBLOK). . . . . . . . . . . .   21
    75					;        9.13.  Defined Datatype FBLOK (DFBLOK) . . . . . . .   22
    76					;        9.14.  Field of a FBLOK (FFBLOK) . . . . . . . . . .   23
    77					;        9.15.  External Function Block (EFBLOK). . . . . . .   24
    78					;        9.16.  Traced Function Block (TFBLOK). . . . . . . .   25
    79					;        9.17.  Trace Block (TRBLOK). . . . . . . . . . . . .   26
    80					;        9.18.  I/O Block (IOBLOK). . . . . . . . . . . . . .   27
    81					;        9.19.  Association Blocks (IABLOK & OABLOK). . . . .   28
    82					;        9.20.  Buffer Block (BUBLOK) . . . . . . . . . . . .   29
    83					;        9.21.  Stream Block (STBLOK) . . . . . . . . . . . .   30
    84					;  10. CHARACTER TABLE POSITIONS. . . . . . . . . . . . . . .   31
    85					;  11. SAVE AREA LENGTHS. . . . . . . . . . . . . . . . . . .   32
    86					;  12. Definitions
    87					;       12.1.   miscellany. . . . . . . . . . . . . . . . . .   33
    88					;       12.2.   CVTFMT bit definitions. . . . . . . . . . . .   34
    89					;  13. Macro Definitions
    90					;       13.1.   MIDENT & FUNC . . . . . . . . . . . . . . . .   35
    91					;       13.2.   ERROR, ERROR. & ERROR%. . . . . . . . . . . .   36
    92					;       13.3.   PPINIT - PUSH/POP MACRO INITIALIZATION. . . .   37
    93					;       13.4.   PUSHSA, POPSA - PUSH/POP MACROS . . . . . . .   38
    94					;       13.5.   PUSHR, POPR - PUSHJ/POP MACROS. . . . . . . .   39
    95					;       13.6.   $PUSH & $POP. . . . . . . . . . . . . . . . .   39
SNOPRM - SITBOL Parameter File  %5(305)	MACRO %53B(1156)-1 21:45 14-Mar-88 Page 3
SNOPRM	MAC	15-Mar-69 11:30		Revision History

    96						SUBTTL	Revision History
    97
    98					COMMENT	\
    99					Edits before this time were lost in the dark ages.
   100
   101					Start of version 5.
   102					122	Clearup the files. (The way they look) and add revision history
   103						and tables of contents that are useful.
   104					123	Define a symbol for each error so they can be found in a CREF
   105						listing.
   106					124	ADD DEFINITIONS FOR EXTERNAL FUNCTIONS AS WELL AS THE CODE.
   107					125	Remove patching space from SNOLEX.  LINK-10 will add its own
   108						for debugging.
   109					126	Remove EXDATA macro.
   110					127	(A) ADD PROCESSOR FEATURE TESTS.
   111						(B) MOVE DMOVE AND DMOVEM MACROS TO SNOPRM.
   112						(C) FIX DMOVE AND DMOVEM MACROS.
   113					130	(a) Add another argument to the FUNC macro
   114						    to allow the creation of the dispatch table.
   115						(b) Remove unnessecary code from SNOEXT.
   116						(c) Delete the TMP file from disk when done with it.
   117						(d) Make the PPINIT macro external any symbols it
   118						    needs.
   119					131	Start addition of process associated variables and the
   120						additional facilities for debugging.
   121					132	(Removed)
   122					133	Fix conversion of numbers with just '-' or '+'.
   123					134	Add the entries in the dispatch table for the SNOEXT, SNOPAV
   124						and SNODEB modules.
   125					135	Move definitions from SNOPAV to SNOPRM.
   126					136	Add the reset of the dispatch table.
   127					137	Fix problem with external functions, Y.PER should have
   128						been Y.PCNT.
   129					140	FIX PROBLEMS WITH FILE SPECIFICATION SCANNER.
   130					141	REMEMBER WERE WE CAME FROM (SAVE .SGNAM, .SGPPN, .SGDEV)
   131						ALSO FIXES PROBLEM OF ATTEMPTING TO RUN PROGRAM AFTER
   132						IT HAD EXITED.
   133					142	Add a third argument to the EXIT function.
   134						It is the name to change to before EXITing.
   135							EXIT(-1,,'CONTEN')
   136						This will have SITBOL change to CONTEN and then exit, so
   137						that if you SAVE the program will it be called CONTEN not
   138						SITBOL.
   139					143	Fix the deletation of nnnSNO.TMP correctly.
   140					144	Start work on SFDs.
   141					145	FIX THE GENERATATION OF THE VERSION NUMBER FOR
   142						THE TITLE.
   143					146	Removed by edit 162.
   144					147	Dont't do so many memory references.  Many of the TDN?
   145						reference X.????, but there is only one bit in the
   146						location.  Use TX?? macros and the Y.????
   147					150	Prevent labels from becoming undefined.  The wrong Ac
   148						was used.
   149					151	The expression INTEGER(3.0) should fail, fix it.
   150					152	Save more information during a trace.  Some strange person
SNOPRM - SITBOL Parameter File  %5(305)	MACRO %53B(1156)-1 21:45 14-Mar-88 Page 3-1
SNOPRM	MAC	15-Mar-69 11:30		Revision History

   151						may do pattern matching during a trace (use defined).
   152					153	Tracing of &STFCOUNT doesn't work, fix it.
   153					154	Give the correct error number in SNOTBL (6.1 not 6.0)
   154					155	Major work on SNOPRM, add diagrams, XPS. symbols, and
   155						other minor work.
   156					156	Fix a bug in edit 124.
   157					157	Fix a mistake in the dispatch table.
   158					160	Fix a mistake in edit 143.
   159					161	Removed by edit 162.
   160					162	Remove edit 146.
   161					163	The correct fix to edit 161 was in the pattern matching, fix
   162						it correctly.
   163					164	Do not compile unevaluated expressions inline.
   164					165	Start work on new error processing.
   165					166	Finish work on SFDs.
   166					167	Finish new error processing.
   167					170	Add new keywords.  (&ERRNAME, &ERRMSG, &ERRLEVEL)
   168					171	Fix problem with &ASSOCIATE.
   169					172	Fix slight bug in command scanner.
   170					173	Change strings in SNODAT to upper and lower case.
   171					174	Fix problem in real to string conversion of zero.
   172					175	Remove SETDDT UUO for EXIT2 in SNOFIO.   So that it is not a
   173						problem for VMDDT users.
   174					176	Fix problem with SEGDEV & SEGNAM in SNOFIO.
   175					177	Fix SNOFIO so ^Z's work correctly.
   176					200	Touch up slight bug with SFD's.
   177					201	Change CVTPTR so that it doesn't do unnessecary divides.
   178					202	Add Append mode I/O to SNOFIO.  (i.e. INPUT(.fil,'fil.ext','A') )
   179					203	Place all of the lowseg in SNODAT, in addition to some other
   180						further cleaning up.
   181					204	Add &VERSION keyword to set version number of lowseg for EXIT,
   182						and to return the version of SITBOL's highseg.
   183					205	Add a title to each page of the output listing.
   184					206	Number every line of the output listing for easier editing and
   185						better looking outputs.
   186					207	Clean up some of the code in SNOPL, SNOPG and SNOSMR, both
   187						for effeciency and readability.
   188					210	Fix a fix to the file spec. scanner
   189					211	GET RID OF EXTRA PAGE ON LISTING FILE.
   190					212	CLEAN SOME OF THE CODE IN SNOLEX.
   191					213	FIX A PROBLEM WITH OUTPUT ASSOCIATION'S FILE.
   192					214	Removed by edit 220.
   193					215	Add FTSINGLE feature test.
   194					216	STBERR assembles in too much core, redo macro expansions.
   195					217	Make Enn$mm symbols be global.
   196					220	Remove edit 214
   197					221	Make opsyn check for natural variables in the first two arguments.
   198					222	LABEL("") and FUNCTION("") should fail, make them do that.
   199					223	Don't REWIND a magtape at CLS.
   200					224	Third argument to TRACE should not be converted to
   201						a string until later.
   202					225	'JRST (STACK)' should be 'JRST (SLINK)'.
   203					226	REPLACE with unequal second and third arguments should
   204						fail, not give an error.
   205					227	TSEQ missuses floating addresses in registers, fix that.
SNOPRM - SITBOL Parameter File  %5(305)	MACRO %53B(1156)-1 21:45 14-Mar-88 Page 3-2
SNOPRM	MAC	15-Mar-69 11:30		Revision History

   206					230	Don't bomb if the TMP: file doesn't contain a line feed.
   207						RELEASE channel 17 all the time.
   208					231	Table referencing is too slow, speed it up.
   209					232	Make absolute errors work (not give ILL MEM REF).
   210					233	Fix edit 226, so that REPLACE will work always.
   211					234	Fix a problem with EVAL when it fails with &ERRTYPE set to > 1.
   212					235	Use correct defaults for proj. and prog. no. if not specified in
   213						the angle brackets.
   214					236	Revise the format of the listing's output. (again).
   215					237	Add FTDEBUG to add some debugging features.
   216					240	Redefine FMT.A so that it does not conflict with others.
   217					241	GETSEG the correct segment back from STBERR.
   218					242	Don't use PUSHR and POPR for just the P or the Q registers.
   219					243	Give more errors for loading external functions.
   220					244	Add FTOPS20 and FTOPS10 feature tests.
   221					245	Add missing PORTAL in SNODFD
   222					246	Move some definitions from different modules to SNOPRM.
   223						Definitions include FMT.xx and CSTACK.
   224					247	Allow D to signify an exponent.
   225					250	Fix mistakes in edit 243 dealing with external functions.
   226					251	add another missing portal
   227					252	FIX EVAL (AGAIN) SO THAT IT WORKS CORRECTLY WITH A FAILING STATEMENT.
   228					253	ERROR SNOSSO SHOULD BE ABLE TO WORK (I.E. DON'T USE STACK WHEN YOU
   229						DON'T HAVE ANY.)
   230					254	CHANGE OUTPUT LISTING PAGE NUMBERS (ALLOW A MINOR PAGE NO.)
   231					255	Add a low segment version number, so that only low seg changes will
   232						create a conflict with EXITed files.
   233					256	Fix some fixes to SNOEXT and start work on LNKENT & LNKHSG.
   234					257	Allow a comment to follow after a semi-colon. (SNOLEX)
   235					260	Fix a problem which occured where ENDFILE wouldn't close files.
   236					261	Fix the position of the pointer for the compilation error
   237						message so that it points to the correct item on the listing.
   238					262	Fix a HALT when sorting an ARRAY which contained defined data types
   239						and the array was not full.  Clear the offset into the items
   240						sooner, so not to confuse it with that of a key into the defined
   241						data type.
   242					263	In SNOARY use XWD22 instead of [2,,2].
   243					264	Add defaults for SITBOL's name, prefix and extension to SNOPRM.
   244					265	Change error 15's to something other that just a HALT,
   245						so that it seems that a SITBOL system error occured.
   246					266	Put a JSP in .JB41 instead of a JRST, so that
   247						we can see where the error occured.
   248					267	Change the text of the errors in STBERR to ASCII from ASCIZ.
   249						(SITBOL stirngs are ASCII)
   250					270	Do some misc. cleaning to SNOGC.
   251					271	Fix a typo in STBERR's error test (?SNOPNP).
   252					272	Fix a bad return after printing an error message with
   253						a &ERRPARM argument (SNOERR).
   254					273	Don't do HALT  if a error occurs on DEVNAM, it is detected later
   255						(and should be).
   256					274	In STRIO (SNOFIO) a reference to IOPPN should be to IOSFD (this PPN
   257						is kept in IOSFD).
   258					275	Append to the listing file after requesting a listing of a file
   259						containing an EXIT().
   260					276	Don't die if the nnnSNO.TMP file is protected when deleting it.
SNOPRM - SITBOL Parameter File  %5(305)	MACRO %53B(1156)-1 21:45 14-Mar-88 Page 3-3
SNOPRM	MAC	15-Mar-69 11:30		Revision History

   261					277	Fix a ridiculous problem where TIME(1) would return
   262						1 instead a the mstime.  A silly typo.
   263					300	Allow EXIT(-1) to work on a KI-KL with EXO SITBOL.
   264					301	In STRIO also check for identical PATH against other files.  This
   265						lack of a check caused two files with different PATH's but the same
   266						name to be treated as one.
   267					302	Add a missing PORTAL where we return from an external function
   268						in SNOEXT.
   269					303	Fix another bug in STRIO (SNOFIO), which causes the FILE primitive not
   270						to check file duplication correctly.
   271					304	The error message for incompatible high segements should not rely
   272						upon using the low segment.  Have it simply do a OUTSTR.  Also
   273						delete the error messages which are no longer used in STBERR.
   274					305	CORE UUO in SNOGC should use ADDI, not an IORI to calculate how much
   275						core is needed.
   276					\
SNOPRM - SITBOL Parameter File  %5(305)	MACRO %53B(1156)-1 21:45 14-Mar-88 Page 4
SNOPRM	MAC	15-Mar-69 11:30		Feature tests

   277						SUBTTL	Feature tests
   278
   279						;	The following are the feature tests for
   280						;	SNODDT, and to Process Associated Variables
   281
   282	000000'	777777	777777			NDS.	FTDDT,	-1		;DEFAULT IS SNODDT
   283	000000'	777777	777777			NDS.	FTPAV,	-1		;DEFAULT IS PROCESS ASSICATED VARIABLES
   284	000000'	000000	000000			NDS.	FTSINGL, 0		;[215] Single segment SNOBOL
   285	000000'	000000	000000			NDS.	FTDEBUG, 0		;[237] Debugging features
   286	000000'	777777	777777			NDS.	FTOPS10, -1		;[244] TOPS-10 version
   287	000000'	000000	000000			NDS.	FTOPS20, 0		;[244] TOPS-20 version
   288
   289					IFN FTOPS20,<				;[244]
   290						FTSINGL==-1			;[244] Force single segment
   291						FTKL10==-1			;[244] Only runs on a KL-20
   292
   293					;** TEMP **
   294
   295						PRINTX	? TOPS-20 version not supported
   296						PASS2
   297						END
   298					>;[244] End of IFN FTOPS20
   299
   300						;	THE FOLLOWING ARE THE PROCESSOR FEATURE TESTS.
   301						;	TO SPECIFY THE PROCESSOR JUST DEFINE EITHER FTKA, FTKI,
   302						;	OR FTKL TO BE MINUS ONE.
   303						;	IF NO FEATURE TEST IS SPECIFIED IT WILL ASSUME
   304						;	KA-10 AS THE PROCESSOR.
   305
   306					IFNDEF FTKA,<IFNDEF FTKI,<IFNDEF FTKL,<FTKA==-1>>>
   307
   308						; NOW DEFINE THE UNDEFINED FEATURE TESTS TO BE ZERO.
   309
   310	000000'	777777	777777			NDS.	FTKA,	0		;KA-10
   311	000000'	000000	000000			NDS.	FTKI,	0		;KI-10
   312	000000'	000000	000000			NDS.	FTKL,	0		;KL-10
   313
   314
   315						;CHECK THAT AT LEAST ONE FEATURE TEST IS ON
   316
   317					IFN FTKA+FTKI+FTKL+1,<
   318						PRINTX	?FEATURE TESTS MESSED UP (FTKA,FTKI,FTKL)
   319						PASS2
   320						END
   321					>
SNOPRM - SITBOL Parameter File  %5(305)	MACRO %53B(1156)-1 21:45 14-Mar-88 Page 5
SNOPRM	MAC	15-Mar-69 11:30		Macro Definitions -- XPS.

   322						SUBTTL	Macro Definitions -- XPS.
   323
   324					; This macro will do the same thing that XP does, except it will
   325					; show the value of the assignment by a SHOW 326
   327						DEFINE	XPS.(A,B,C),<
   328						XP	(A,B,C)
   329						SHOW.	(A)
   330					>
SNOPRM - SITBOL Parameter File  %5(305)	MACRO %53B(1156)-1 21:45 14-Mar-88 Page 6
SNOPRM	MAC	15-Mar-69 11:30		DEFAULT DEFINITIONS

   331						SUBTTL	DEFAULT DEFINITIONS
   332
   333					;  THE FOLLWOING ARE DEFAULT DEFINITIONS FOR SITBOL
   334
   335	000000'	000000	000764			NDS.	XGRID,	^D500	;[264] EXTRA GRID
   336					IFN FTOPS10,<
   337	000000'	000000	635657			NDS.	D$EXT,	'SNO'	;[264] DEFAULT EXTENSION
   338	000000'	635657	425754			NDS.	D$NAME,	'SNOBOL'	;[264] DEFAULT NAME
   339						>
   340	000000'	000000	635657			NDS.	D$PRE,	'SNO'	;[264] DEFAULT PREFIX
SNOPRM - SITBOL Parameter File  %5(305)	MACRO %53B(1156)-1 21:45 14-Mar-88 Page 7
SNOPRM	MAC	15-Mar-69 11:30		Registers

   341						SUBTTL	Registers
   342
   343			000001			STACK=1			; SYSTEM STACK
   344			000002			SURF=2			; SEPARATES SEA AND AIR
   345			000003			HSR=3			; HISTORY STACK REG FOR PATT MATCH
   346
   347			000004			P1=4			; 1ST PRIMARY REG.
   348			000005			P2=P1+1			; 2ND PRIMARY REG.
   349			000004			PLINK=P1		; PRIMARY LINKING REGISTER
   350			000004			CSTACK=P1		;[246] CODE STACK REGISTER
   351
   352			000006			S1=P2+1			; 1ST SECONDARY REGISTER
   353			000007			S2=S1+1			; 2ND SECONDARY
   354			000010			S3=S2+1			; 3RD SECONDARY
   355			000006			SLINK=S1		; SECONDARY LINKING REGISTER
   356
   357			000011			T1=S3+1			; 1ST TERTIARY REGISTER
   358			000012			T2=T1+1			; 2ND TERTIARY
   359			000013			T3=T2+1			; 3RD TERTIARY
   360			000014			T4=T3+1			; 4TH TERTIARY
   361			000011			TLINK=T1		; TERTIARY LINKING REG.
   362
   363			000015			Q1=T4+1			; 1ST QUATERNARY REG.
   364			000016			Q2=Q1+1			; 2ND QUATERNARY
   365			000017			Q3=Q2+1			; 3RD QUATERNARY
   366			000015			QLINK=Q1		; QUATERNARY LINKING REG.
   367
   368			000000			Z=0			; GENERAL USAGE REGISTER
SNOPRM - SITBOL Parameter File  %5(305)	MACRO %53B(1156)-1 21:45 14-Mar-88 Page 8
SNOPRM	MAC	15-Mar-69 11:30		DESCRIPTOR SYMBOLS

   369						SUBTTL	DESCRIPTOR SYMBOLS
   370
   371
   372					; 	1.2.1 FLAGS
   373
   374	000000'	000000	400000		XPS.	CDIFF,	400000	; CODE INTERPRETER FUNCTION
   375	000000'	000000	200000		XPS.	CDFF,	200000	; CODE FUNCTION
   376	000000'	000000	100000		XPS.	PDC,	100000	; PROTECTED DATA CLASS
   377	000000'	000000	040000		XPS.	INDC,	040000	; INDIRECT DATA CLASS
   378	000000'	000000	020000		XPS.	NONDC,	020000	; NON-DATA CLASS
   379	000000'	000000	010000		XPS.	TVDC,	010000	; TRAPPED VARIABLE DATA CLASS
   380	000000'	000000	004000		XPS.	FLDC,	004000	; FLOATING DATA CLASS
   381	000000'	000000	002000		XPS.	NUMDC,	002000	; NUMERIC DATA CLASS
   382	000000'	000000	001000		XPS.	SJUNKF,	001000	; STACK JUNK FLAG
   383	000000'	000000	000400		XPS.	BLOKF,	000400	; BLOK FLAG
   384	000000'	000000	020000		XPS.	CDAF,	NONDC	; CODE ARGUMENT FLAG
   385
   386					; 	1.2.2 DATATYPES
   387
   388	000000'	000000	002001		XPS.	IDT,	1+NUMDC	; INTEGER
   389	000000'	000000	002002		XPS.	RDT,	2+NUMDC	; REAL
   390	000000'	000000	004003		XPS.	SDT,	3+FLDC	; STRING
   391	000000'	000000	004004		XPS.	PDT,	4+FLDC	; PATTERN
   392	000000'	000000	004005		XPS.	ADT,	5+FLDC	; ARRAY
   393	000000'	000000	004006		XPS.	EDT,	6+FLDC	; EXPRESSION
   394	000000'	000000	004007		XPS.	CDT,	7+FLDC	; CODE
   395	000000'	000000	004010		XPS.	TDT,	10+FLDC	; TABLE
   396	000000'	000000	004011		XPS.	NDT,	11+FLDC	; NAME
   397			004012			DDT==	12+FLDC		; Defined datatype
   398	000000'	000000	004013		XPS.	CSDT,	13+FLDC	; CHARACTER SET
   399	000000'	000000	004014		XPS.	UTDT,	14+FLDC	; UTILITY
   400	000000'	000000	004015		XPS.	IODT,	15+FLDC	; I/O
   401
   402					; 	1.2.3 OTHER VALUES FOR THE DT FIELD
   403
   404	000000'	000000	064000		XPS.	VAR,	NONDC+INDC+FLDC	; VARIABLE
   405	000000'	000000	034000		XPS.	TVAR,	NONDC+TVDC+FLDC	; TRAPPED VARIABLE
   406	000000'	000000	160000		XPS.	CONST,	NONDC+INDC+PDC	; CONSTANT
   407	000000'	000000	021000		XPS.	JUNK,	NONDC+SJUNKF	; DENOTES JUNK ON STACK
   408	000000'	000000	200000		XPS.	CDF,	CDFF		; CODE FUNCTION - # OF ARGS
   409	000000'	000000	600000		XPS.	CDIF,	CDFF+CDIFF	; CODE INTERPRETER FUNCTION
   410
   411					; 	1.2.4 FIELDS
   412
   413	000000'	000000	777700		XPS.	DTFLGS,	777700	; MASK FOR DT FLAGS
   414	000000'	000000	000077		XPS.	DTNUM,	000077	; MASK FOR DT NUMBER
   415	000000'	000000	000012		XPS.	MAXDTN,	12	; MAXIMUM USER DATATYPE NUMBER
   416	000000'	000000	007777		XPS.	CDARGS,	007777	; MASK FOR ARG COUNT OF CDF
   417	000000'	000000	770000		XPS.	CDFLGS,	770000	; MASK FOR CODE FLAGS
   418
SNOPRM - SITBOL Parameter File  %5(305)	MACRO %53B(1156)-1 21:45 14-Mar-88 Page 9
SNOPRM	MAC	15-Mar-69 11:30		DATA STRUCTURE SYMBOLS

   419						SUBTTL	DATA STRUCTURE SYMBOLS
   420					;
   421					;                                 Variable Block
   422					;
   423					;
   424					;    =========================================================================
   425					;    !                                 Value                                 !
   426					;    -------------------------------------------------------------------------
   427					;    !                        Garbage collector word                         !
   428					;    -------------------------------------------------------------------------
   429					;    !         Offset into CBLOK         !   Address of CBLOK (for label)    !
   430					;    -------------------------------------------------------------------------
   431					;    !         Datatype (if any)         !         Address of FBLOK          !
   432					;    -------------------------------------------------------------------------
   433					;    !                        Name of variable block                         !
   434					;    -------------------------------------------------------------------------
   435					;    !                            Name continued                             !
   436					;    -------------------------------------------------------------------------
   437					;    !               Flags               !       Address of next VBLOK       !
   438					;    =========================================================================
   439					;
   440					;
   441
   442
   443	000000'	000000	000000		XPS.	VALUE,	0	; VALUE OF VARIABLE
   444	000000'	000000	000002		XPS.	VLABEL,	2	; RIGHT SIDE POINTS TO SOME CBLOK
   445								; LEFT SIDE IS OFFSET
   446	000000'	000000	000003		XPS.	VFUNC,	3	; (RIGHT) ADDRESS OF FUNCTION BLOK
   447	000000'	000000	000003		XPS.	VBDT,	3	; (LEFT) DATATYPE IF ANY
   448	000000'	000000	000004		XPS.	VNAME,	4	; NAME OF VARIABLE BLOCK
   449	000000'	000000	000006		XPS.	VFLAGS,	6	; FLAGS FOR VARIABLE BLOCK
   450	000000'	000000	000006		XPS.	VKEY,	6	; NUMBER OF KEYWORD OR 0 IF NOT
   451	000000'	000000	000006		XPS.	VLINK,	6	; (RIGHT) ADDRESS OF NEXT VARIABLE BLOCK
   452	000000'	000000	000007		XPS.	VARSIZ,	7	; VARIABLE BLOCK SIZE
   453
   454	000000'	000000	400000		XPS.	OPFLAG,	400000	; VARIABLE IS AN OPERATOR
   455	000000'	000000	200000		XPS.	LTFLAG,	200000	; LABEL IS BEING TRACED
   456	000000'	000000	100000		XPS.	VCTFL,	100000	; CALL TRACE FLAG
   457	000000'	000000	040000		XPS.	VRTFL,	040000	; RETURN TRACE FLAG
   458	000000'	000000	000077		XPS.	KYMASK,	000077	; MASK FOR KEYWORD
   459
   460					;  IN ADDITION TO THESE FIELDS, FOR OPERATORS THE FOLLOWING FIELDS
   461					;  HAVE SIGNIFICANCE.
   462
   463	000000'	000000	000002		XPS.	LPREC,	2	; (LEFT) LEFT PRECEDENCE
   464	000000'	000000	000003		XPS.	RPREC,	3	; (LEFT) RIGHT PRECEDENCE
   465	000000'	000000	000002		XPS.	VUNARY,	2	; UNARY OPERATOR FBLOC ADDRESS
   466	000000'	000000	000003		XPS.	VBINRY,	3	; BINARY OPERATOR FBLOK ADDRESS
   467
   468
SNOPRM - SITBOL Parameter File  %5(305)	MACRO %53B(1156)-1 21:45 14-Mar-88 Page 10
SNOPRM	MAC	15-Mar-69 11:30		BLOK Definitions -- TYPES

   469						SUBTTL	BLOK Definitions -- TYPES
   470					;
   471					;                                  BLOCK HEADER
   472					;
   473					;    =========================================================================
   474					;    !            BLOCK TYPE             !           BLOCK LENGTH            !
   475					;    -------------------------------------------------------------------------
   476					;    !                       GARBAGE COLLECTION FIELD                        !
   477					;    =========================================================================
   478					;
   479
   480	000000'	000000	000000		XPS.	BTCODE,	0	; (LEFT) CODE FOR BLOK TYPE
   481	000000'	000000	000000		XPS.	BLENG,	0	; (RIGHT) BLOK LENGTH
   482	000000'	000000	000001		XPS.	GCFLD,	1	; GARBAGE COLLECTION FIELD
   483	000000'	000000	000002		XPS.	LHDR,	2	; LENGTH OF BLOK HEADER
   484
   485					;    BLOK TYPE CODES
   486
   487	000000'	000000	000403		XPS.	SBLOK,	3+BLOKF		; STRING BLOK
   488	000000'	000000	000404		XPS.	PBLOK,	SBLOK+1		; PATTERN BLOK
   489	000000'	000000	000405		XPS.	ABLOK,	PBLOK+1		; ARRAY BLOK
   490	000000'	000000	000406		XPS.	EBLOK,	ABLOK+1		; EXPRESSION BLOK
   491	000000'	000000	000407		XPS.	CBLOK,	EBLOK+1		; CODE BLOK
   492	000000'	000000	000410		XPS.	TBLOK,	CBLOK+1		; TABLE BLOK
   493	000000'	000000	000412		XPS.	DBLOK,	TBLOK+2		; DEFINED DATA BLOK
   494
   495					;   INTERNAL BLOK'S
   496
   497	000000'	000000	000413		XPS.	CTBLOK,	DBLOK+1		; CHARACTER TABLE
   498	000000'	000000	000414		XPS.	UTBLOK,	CTBLOK+1	; UTILITY BLOK
   499	000000'	000000	000415		XPS.	IOBLOK,	UTBLOK+1	; I/O BLOK
   500	000000'	000000	000416		XPS.	TEBLOK,	IOBLOK+1	; TABLE ELEMENT BLOK
   501	000000'	000000	000417		XPS.	JKBLOK,	TEBLOK+1	; JUNK BLOK
   502
   503					;   FUNCTON BLOK'S
   504
   505	000000'	000000	000420		XPS.	FBLOK,	JKBLOK+1	; DEFINED FUNCTION
   506	000000'	000000	000421		XPS.	DFBLOK,	FBLOK+1		; DEFINED DATATYPE FBLOK
   507	000000'	000000	000422		XPS.	FFBLOK,	DFBLOK+1	; FIELD OF DEF. DATA FBLOK
   508	000000'	000000	000423		XPS.	EFBLOK,	FFBLOK+1	; EXTERNAL FUNCTION FBLOK
   509	000000'	000000	000424		XPS.	TFBLOK,	EFBLOK+1	; TRACED FBLOK
   510
   511					;   TRAPPING BLOK'S
   512
   513	000000'	000000	000425		XPS.	TRBLOK,	TFBLOK+1	; TRACE BLOK
   514	000000'	000000	000426		XPS.	IABLOK,	TRBLOK+1	; INPUT-ASSOCIATED VARIBLE
   515	000000'	000000	000427		XPS.	OABLOK,	IABLOK+1	; OUTPUT-ASSOCIATED VARIBLE
   516
   517					;    OTHER MISC. BLOKS
   518
   519	000000'	000000	000430		XPS.	BUBLOK,	OABLOK+1	; BUFFER BLOK
   520	000000'	000000	000431		XPS.	OBBLOK,	BUBLOK+1	; OLD BUFFER BLOK
   521	000000'	000000	000432		XPS.	STBLOK,	OBBLOK+1	; Stream Block
SNOPRM - SITBOL Parameter File  %5(305)	MACRO %53B(1156)-1 21:45 14-Mar-88 Page 11
SNOPRM	MAC	15-Mar-69 11:30		BLOK Definitions -- String Block (SBLOK)

   522						SUBTTL	BLOK Definitions -- String Block (SBLOK)
   523					;
   524					;                              STRING BLOCK (SBLOK)
   525					;
   526					;
   527					;    =========================================================================
   528					;    /                                                                       /
   529					;    /                             BLOCK HEADER                              /
   530					;    /                                                                       /
   531					;    =========================================================================
   532					;    /                                                                       /
   533					;    /                         CHARACTER INFORMATION                         /
   534					;    /                                                                       /
   535					;    =========================================================================
   536					;
   537					;
   538
   539	000000'	000000	000002		XPS.	SCHARS,	LHDR	; START OF CHARACTER INFORMATION
SNOPRM - SITBOL Parameter File  %5(305)	MACRO %53B(1156)-1 21:45 14-Mar-88 Page 12
SNOPRM	MAC	15-Mar-69 11:30		BLOK Definitions -- Pattern Block (PBLOK)

   540						SUBTTL	BLOK Definitions -- Pattern Block (PBLOK)
   541					;
   542					;                              PATTERN HEADER BLOCK
   543					;
   544					;
   545					;    =========================================================================
   546					;    /                                                                       /
   547					;    /                             HEADER BLOCK                              /
   548					;    /                                                                       /
   549					;    =========================================================================
   550					;    !                        RAPID SCAN INFORMATION                         !
   551					;    -------------------------------------------------------------------------
   552					;    !                        RAPID SCAN INFORMATION                         !
   553					;    -------------------------------------------------------------------------
   554					;    !                    NUMBER OF CHARS FOR ENTIRE PAT                     !
   555					;    =========================================================================
   556					;    /                                                                       /
   557					;    /                           PATTERN NODE BLOK                           /
   558					;    /                                                                       /
   559					;    =========================================================================
   560					;
   561					;
   562
   563	000000'	000000	000002		XPS.	PSTART,	LHDR	; USED FOR RAPID SCAN AT MATCH START
   564	000000'	000000	000004		XPS.	PMIN,	LHDR+2	; MINIMUM NUMBER OF CHARACTERS FOR ENTIRE PATT.
   565	000000'	000000	000005		XPS.	LPHDR,	LHDR+3	; LENGTH OF PATTERN HEADER
SNOPRM - SITBOL Parameter File  %5(305)	MACRO %53B(1156)-1 21:45 14-Mar-88 Page 13
SNOPRM	MAC	15-Mar-69 11:30		BLOK Definitions -- Pattern Node Fields

   566						SUBTTL	BLOK Definitions -- Pattern Node Fields
   567					;
   568					;                              PATTERN NODE FIELDS
   569					;
   570					;
   571					;    =========================================================================
   572					;    !          RESIDUAL FIELD           !     PRIMITIVE ROUTINE ADDRESS     !
   573					;    -------------------------------------------------------------------------
   574					;    !    ALTERNATE (REL. TO PBLOK)      !     SUBSEQUENT (REL TO PBLOK)     !
   575					;    -------------------------------------------------------------------------
   576					;    !                              ARGUMENT #1                              !
   577					;    -------------------------------------------------------------------------
   578					;    !                              ARGUEMENT #2                              !
   579					;    =========================================================================
   580					;
   581					;
   582
   583	000000'	000000	000000		XPS.	PPROG,	0	; (RIGHT) ADDRESS OF PROGRAM TO HANDLE PRIMITIVE
   584	000000'	000000	000000		XPS.	PRESID,	0	; (LEFT) RESIDUAL FIELD
   585	000000'	000000	000001		XPS.	PALT,	1	; (LEFT) ALTERNATE (REL. TO PBLOK HEAD)
   586	000000'	000000	000001		XPS.	PSUBS,	1	; (RIGHT) SUBSEQUENT (REL. TO PBLOK HEAD)
   587	000000'	000000	000002		XPS.	PARG,	2	; ARGUMENT (TWO WORD DESCRIPTOR)
   588	000000'	000000	000004		XPS.	PNDSZ,	4	; PATTERN NODE SIZE
SNOPRM - SITBOL Parameter File  %5(305)	MACRO %53B(1156)-1 21:45 14-Mar-88 Page 14
SNOPRM	MAC	15-Mar-69 11:30		BLOK Definitions -- Array Block (ABLOK)

   589						SUBTTL	BLOK Definitions -- Array Block (ABLOK)
   590					;
   591					;                               ARRAY BLOK (ABLOK)
   592					;
   593					;
   594					;    =========================================================================
   595					;    /                                                                       /
   596					;    /                              BLOK HEADER                              /
   597					;    /                                                                       /
   598					;    =========================================================================
   599					;    !                            ARRAY PROTOTYPE                            !
   600					;    -------------------------------------------------------------------------
   601					;    !                            ARRAY PROTOTYPE                            !
   602					;    -------------------------------------------------------------------------
   603					;    !       NUMBER OF SUBSCRIPTS        !            HASH NUMBER            !
   604					;    -------------------------------------------------------------------------
   605					;    !                         MULTIPLICATION FACTOR                         !
   606					;    -------------------------------------------------------------------------
   607					;    !       SUBSCRIPT LOWER BOUND       !        SUBSCRIPT DIMENSION        !
   608					;    =========================================================================
   609					;
   610					;
   611
   612	000000'	000000	000002		XPS.	APROTO,	LHDR		; ARRAY PROTOTYPE
   613	000000'	000000	000004		XPS.	NSUBS,	APROTO+2	; NUMBER OF SUBSCRIPTS
   614	000000'	000000	000004		XPS.	AHASH,	NSUBS		; HASH NUMBER
   615	000000'	000000	000005		XPS.	SUBFAC,	NSUBS+1		; MULTIPLICATION FACTOR
   616	000000'	000000	000006		XPS.	SUBLBD,	SUBFAC+1	; SUBSCRIPT LOWER BOUND
   617	000000'	000000	000006		XPS.	SUBDIM,	SUBLBD		; SUBSCRIPT DIMENSION
   618
SNOPRM - SITBOL Parameter File  %5(305)	MACRO %53B(1156)-1 21:45 14-Mar-88 Page 15
SNOPRM	MAC	15-Mar-69 11:30		BLOK Definitions -- Code Block (CBLOK)

   619						SUBTTL	BLOK Definitions -- Code Block (CBLOK)
   620					;
   621					;                               CODE BLOK (CBLOK)
   622					;
   623					;
   624					;    =========================================================================
   625					;    /                                                                       /
   626					;    /                             BLOCK HEADER                              /
   627					;    /                                                                       /
   628					;    =========================================================================
   629					;    !                            LAST CODE BLOK                             !
   630					;    -------------------------------------------------------------------------
   631					;    !                            NEXT CODE BLOCK                            !
   632					;    =========================================================================
   633					;    /                                                                       /
   634					;    /                            GENERATED CODE                             /
   635					;    /                                                                       /
   636					;    =========================================================================
   637					;
   638					;
   639
   640	000000'	000000	000002		XPS.	LCLINK,	LHDR		; LAST CODE BLOK
   641	000000'	000000	000003		XPS.	NCLINK,	LHDR+1		; NEXT CODE BLOK
   642	000000'	000000	000004		XPS.	CCODE,	NCLINK+1	; BEGINNING OF COMPILED CODE
   643
   644
   645					;
   646					;                             GENERATED CODE OFFSETS
   647					;
   648					;
   649					;    =========================================================================
   650					;    !      INTERPRETER FUNC (CDIF)      !  ADDR IN THE INTERPRETER (BGST)   !
   651					;    -------------------------------------------------------------------------
   652					;    !         STATEMENT NUMBER          !      OFFSET TO FAILURE GOTO       !
   653					;    -------------------------------------------------------------------------
   654					;    !          LAST STATEMENT           !          NEXT STATEMENT           !
   655					;    -------------------------------------------------------------------------
   656					;    !                            OFFSET OF RULE                             !
   657					;    =========================================================================
   658					;
   659					;
   660
   661	000000'	000000	000000		XPS.	CHEAD,	0		; LEFT HALF DENOTES INTERPRETER
   662								; FUNCTION (CDIF) AND THE RIGHT HALF
   663								; DENOTES AN ADDRESS IN THE INT. (BGST)
   664	000000'	000000	000001		XPS.	CSTNO,	1	; (LEFT) STATEMENT NUMBER FOR STATEMENT
   665	000000'	000000	000001		XPS.	CFGOTO,	1	; (RIGHT) OFFSET (FROM CBLOK HEAD) TO
   666								; LOCATION WE CAN GO TO UPON FAILURE.
   667	000000'	000000	000002		XPS.	CLAST,	2		; OFFSET OF LAST PREVIOUS STATEMENT
   668	000000'	000000	000002		XPS.	CNEXT,	2		; OFFSET OF NEXT STATEMENT
   669	000000'	000000	000003		XPS.	CRULE,	3		; OFFSET OF RULE FROM ST HEAD
SNOPRM - SITBOL Parameter File  %5(305)	MACRO %53B(1156)-1 21:45 14-Mar-88 Page 16
SNOPRM	MAC	15-Mar-69 11:30		BLOK Definitions -- Table Block (TBLOK)

   670						SUBTTL	BLOK Definitions -- Table Block (TBLOK)
   671					;
   672					;                              TABLE BLOCK (TBLOK)
   673					;
   674					;
   675					;    =========================================================================
   676					;    /                                                                       /
   677					;    /                             BLOCK HEADER                              /
   678					;    /                                                                       /
   679					;    =========================================================================
   680					;    !            HASH NUMBER            !           # OF BUCKETS            !
   681					;    =========================================================================
   682					;    /                                                                       /
   683					;    /                         BUCKETS (HASH TABLE)                          /
   684					;    /                                                                       /
   685					;    =========================================================================
   686					;
   687					;
   688
   689	000000'	000000	000002		XPS.	THASH,	LHDR		; HASHNO FOR TABLES
   690	000000'	000000	000002		XPS.	TNBUCK,	LHDR		; # OF BUCKETS
   691	000000'	000000	000003		XPS.	TBUCK,	LHDR+1		; START OF BUCKETS
SNOPRM - SITBOL Parameter File  %5(305)	MACRO %53B(1156)-1 21:45 14-Mar-88 Page 17
SNOPRM	MAC	15-Mar-69 11:30		BLOK Definitions -- Data Objects (DBLOK)

   692						SUBTTL	BLOK Definitions -- Data Objects (DBLOK)
   693					;
   694					;                          DEFINED DATA OBJECTS (DBLOK)
   695					;
   696					;
   697					;    =========================================================================
   698					;    /                                                                       /
   699					;    /                             BLOCK HEADER                              /
   700					;    /                                                                       /
   701					;    =========================================================================
   702					;    !            HASH NUMBER            !         ADDRESS OF DFBLOK         !
   703					;    =========================================================================
   704					;    /                                                                       /
   705					;    /                                FIELDS                                 /
   706					;    /                                                                       /
   707					;    =========================================================================
   708					;
   709					;
   710
   711	000000'	000000	000002		XPS.	ADFBLK,	LHDR	; (RIGHT) ADDRESS OF DFBLOK (INDICATES THE
   712								; DATATYPE)
   713	000000'	000000	000002		XPS.	DHASH,	LHDR	; (LEFT) A UNIQUE NUMBER ASSIGNED FOR HASHING
   714								; PURPOSES
   715	000000'	000000	000003		XPS.	DFLDS,	LHDR+1	; START OF FIELDS. ONE DESRIPTOR PER FIELD.
SNOPRM - SITBOL Parameter File  %5(305)	MACRO %53B(1156)-1 21:45 14-Mar-88 Page 18
SNOPRM	MAC	15-Mar-69 11:30		BLOK Definitions -- Table Block (TBLOK)

   716						SUBTTL	BLOK Definitions -- Table Block (TBLOK)
   717					;
   718					;                         CHARACTER TABLE BLOCK (CTBLOK)
   719					;
   720					;
   721					;    =========================================================================
   722					;    /                                                                       /
   723					;    /                             BLOCK HEADER                              /
   724					;    /                                                                       /
   725					;    =========================================================================
   726					;    /                                                                       /
   727					;    /                            128 WORD TABLE                             /
   728					;    /                                                                       /
   729					;    =========================================================================
   730					;
   731					;
   732
   733	000000'	000000	000002		XPS.	CTBITS,	LHDR	; OFFSET FOR 128-WORD TABLE
SNOPRM - SITBOL Parameter File  %5(305)	MACRO %53B(1156)-1 21:45 14-Mar-88 Page 19
SNOPRM	MAC	15-Mar-69 11:30		BLOK Definitions -- Association Variable (VABLOK)

   734						SUBTTL	BLOK Definitions -- Association Variable (VABLOK)
   735
   736					;
   737					;                       Associated Variable block (VABLOK)
   738					;
   739					;
   740					;    =========================================================================
   741					;    /                                                                       /
   742					;    /                             Header block                              /
   743					;    /                                                                       /
   744					;    =========================================================================
   745					;    !                               Old Value                               !
   746					;    -------------------------------------------------------------------------
   747					;    !                         Old Value (Continued)                         !
   748					;    -------------------------------------------------------------------------
   749					;    !                             Variable Name                             !
   750					;    -------------------------------------------------------------------------
   751					;    !                           Name (Continued)                            !
   752					;    -------------------------------------------------------------------------
   753					;    !                Defined Datatype describing the process                !
   754					;    -------------------------------------------------------------------------
   755					;    !                     Defined Datatype (continued)                      !
   756					;    -------------------------------------------------------------------------
   757					;    !                  Flag (to prevent infinite trapping)                  !
   758					;    -------------------------------------------------------------------------
   759					;    !                           (Flag (Continued)                           !
   760					;    =========================================================================
   761					;
   762					;
   763
   764	000000'	000000	000414		XPS.	VABLOK,	UTBLOK		; same format as a utility block
   765	000000'	000000	000002		XPS.	VAVAL,	LHDR		; the old value
   766	000000'	000000	000004		XPS.	VANAME,	VAVAL+2	; the name of the associated variable
   767	000000'	000000	000006		XPS.	VAPROC,	VANAME+2	; the defined datatype describing the process
   768	000000'	000000	000010		XPS.	VAFLG,	VAPROC+2	; flag to prevent infinite trapping
   769	000000'	000000	000012		XPS.	VALEN,	VAFLG+2	; length of the VABLOK
   770
   771					; The fields of the programmer-defined process datatype
   772					; defined by DATA('PROCESS(TYPE,FUNCTION,LEVEL,ACTIVE)')
   773
   774	000000'	000000	000003		XPS.	PRTYP,	DFLDS		; type of process (FETCH or STORE)
   775	000000'	000000	000005		XPS.	PRFCT,	PRTYP+2		; name of associated function
   776	000000'	000000	000007		XPS.	PRACT,	PRFCT+2		; active flag
   777	000000'	000000	000011		XPS.	PRLVL,	PRACT+2		; association level
   778	000000'	000000	000011		XPS.	PRLEN,	PRACT+2		; minimum length of datatype
   779
   780					; Default levels for currently existing trapping blocks.
   781
   782	000000'	000000	000144		XPS.	TRLVL,	^D100		; value tracing
   783	000000'	000000	000310		XPS.	IALVL,	^D200		; input association
   784	000000'	000000	000454		XPS.	OALVL,	^D300		; output association
SNOPRM - SITBOL Parameter File  %5(305)	MACRO %53B(1156)-1 21:45 14-Mar-88 Page 20
SNOPRM	MAC	15-Mar-69 11:30		BLOK Definitions -- Table Element Block (TEBLOK)

   785						SUBTTL	BLOK Definitions -- Table Element Block (TEBLOK)
   786
   787					;
   788					;                          Table Element Block (TEBLOK)
   789					;
   790					;
   791					;    =========================================================================
   792					;    /                                                                       /
   793					;    /                             Header Block                              /
   794					;    /                                                                       /
   795					;    =========================================================================
   796					;    !                  Descriptor of the reference element                  !
   797					;    -------------------------------------------------------------------------
   798					;    !                        Descriptor (Continued)                         !
   799					;    -------------------------------------------------------------------------
   800					;    !                      Value of the Table Element                       !
   801					;    -------------------------------------------------------------------------
   802					;    !                      Value of the Table Element                       !
   803					;    -------------------------------------------------------------------------
   804					;    !             0 (Zero)              !    Address of the next TEBLOK     !
   805					;    =========================================================================
   806					;
   807					;
   808
   809	000000'	000000	000002		XPS.	TEREF,	LHDR	; FIELD TO PUT DESCRIPTOR OF THE REFERENCE
   810								; ELEMENT (I.E. THE 'ABC' OF T<'ABC'>)
   811	000000'	000000	000004		XPS.	TEVAL,	TEREF+2		; VALUE OF THE TABLE ELEMENT
   812	000000'	000000	000006		XPS.	TELINK,	TEVAL+2		; NEXT TEBLOK ON CHAIN
   813	000000'	000000	000007		XPS.	LTEBLK,	TELINK+1	; LENGTH OF TEBLOK
   814
   815
SNOPRM - SITBOL Parameter File  %5(305)	MACRO %53B(1156)-1 21:45 14-Mar-88 Page 21
SNOPRM	MAC	15-Mar-69 11:30		BLOK Definitions -- Function Block (FBLOK)

   816						SUBTTL	BLOK Definitions -- Function Block (FBLOK)
   817
   818					;
   819					;                             Function Block (FBLOK)
   820					;
   821					;
   822					;    =========================================================================
   823					;    /                                                                       /
   824					;    /                             Header Block                              /
   825					;    /                                                                       /
   826					;    =========================================================================
   827					;    !               Flags               !        Number of Arguments        !
   828					;    -------------------------------------------------------------------------
   829					;    !                        Instruction to execute                         !
   830					;    -------------------------------------------------------------------------
   831					;    !          Number of Temps          !    Natural Variable (Function)    !
   832					;    -------------------------------------------------------------------------
   833					;    !             0 (Zero)              !     Natural Variable (Label)      !
   834					;    =========================================================================
   835					;    /                                                                       /
   836					;    /                   Formal Paramenter and Temp names                    /
   837					;    /                                                                       /
   838					;    =========================================================================
   839					;
   840					;
   841
   842	000000'	000000	000002		XPS.	FFLAGS,	LHDR		; (LEFT) FUNCTION FLAGS (SEE BELOW)
   843	000000'	000000	000002		XPS.	FNARGS,	LHDR		; (RIGHT) NUMBER OF ARGUMENTS
   844	000000'	000000	000003		XPS.	FCODE,	LHDR+1		; INSTRUCTION TO BE EXECUTED
   845
   846	000000'	000000	000004		XPS.	FNTMPS,	FCODE+1		; (LEFT) NUMBER OF TEMPORARIES
   847	000000'	000000	000004		XPS.	FNAME,	FCODE+1		; (RIGHT) ADDRESS OF NATURAL VARIABLE
   848									; INDICATING NAME OF FUNCTION
   849	000000'	000000	000005		XPS.	FLABEL,	FNAME+1		; (RIGHT) ADDRESS OF NATURAL VARIABLE
   850									; INDICATING NAME OF LABEL.
   851	000000'	000000	000006		XPS.	FARGS,	FLABEL+1		; BEGINNING OF LIST OF FORMAL
   852									; PARAMETER AND TEMPORARY NAMES
   853					;   (FLAGS)
   854
   855	000000'	000000	000001		XPS.	FEAFL,	1		; EVALUATE ARGUMENTS FLAG
   856	000000'	000000	000002		XPS.	FSAFL,	2	; SUPPLEMENT (OR SUPPLY) ARGUMENTS FLAG
   857	000000'	000000	000004		XPS.	FAAFL,	4	; ANY (NUMBER OF) ARGUMENTS FLAG.
   858	000000'	000000	000010		XPS.	FCTFL,	10	; FUNCTION IS CALL TRACED
   859	000000'	000000	000020		XPS.	FRTFL,	20	; FUNCTION IS RETURN TRACED
   860
SNOPRM - SITBOL Parameter File  %5(305)	MACRO %53B(1156)-1 21:45 14-Mar-88 Page 22
SNOPRM	MAC	15-Mar-69 11:30		BLOK Definitions -- Defined Datatype FBLOK (DFBLOK)

   861						SUBTTL	BLOK Definitions -- Defined Datatype FBLOK (DFBLOK)
   862					;
   863					;                        DFBLOK - Defined Datatype FBLOK
   864					;
   865					;
   866					;    =========================================================================
   867					;    /                                                                       /
   868					;    /                             Header Block                              /
   869					;    /                                                                       /
   870					;    =========================================================================
   871					;    !              FFLAGS               !              FNARGS               !
   872					;    -------------------------------------------------------------------------
   873					;    !                                 FCODE                                 !
   874					;    -------------------------------------------------------------------------
   875					;    !             0 (zero)              !              DFNAME               !
   876					;    -------------------------------------------------------------------------
   877					;    !                     DFFLDS (Address of 1st field)                     !
   878					;    =========================================================================
   879					;    /                                                                       /
   880					;    /                        (Address of last field)                        /
   881					;    /                                                                       /
   882					;    =========================================================================
   883					;
   884					;
   885
   886	000000'	000000	000004		XPS.	DFNAME,	4	; NAME OF DATATYPE (ADDRESS OF VAR. BLOCK)
   887	000000'	000000	000005		XPS.	DFFLDS,	5	; START OF FIELD NAMES
   888								; THESE ARE VARIABLE BLOCK ADDRESSES
   889
SNOPRM - SITBOL Parameter File  %5(305)	MACRO %53B(1156)-1 21:45 14-Mar-88 Page 23
SNOPRM	MAC	15-Mar-69 11:30		BLOK Definitions -- Field of a FBLOK (FFBLOK)

   890						SUBTTL	BLOK Definitions -- Field of a FBLOK (FFBLOK)
   891					;
   892					;                     FFBLOK - An FBLOK for a Field Function
   893					;
   894					;
   895					;    =========================================================================
   896					;    !              FFBLOK               !                 6                 !
   897					;    -------------------------------------------------------------------------
   898					;    !                               0 (zero)                                !
   899					;    -------------------------------------------------------------------------
   900					;    !              FFLAGS               !              FNARGS               !
   901					;    -------------------------------------------------------------------------
   902					;    !                                 FCODE                                 !
   903					;    -------------------------------------------------------------------------
   904					;    !              FFOFFS               !              FFDFBL               !
   905					;    -------------------------------------------------------------------------
   906					;    !             0 (zero)              !              FFLINK               !
   907					;    =========================================================================
   908					;
   909					;
   910
   911	000000'	000000	000004		XPS.	FFOFFS,	FCODE+1		; (LEFT) OFFSET WITHIN DATA OBJECT ASSOC
   912									; IATED WITH THIS FIELD
   913	000000'	000000	000004		XPS.	FFDFBL,	FCODE+1		; (RIGHT) ASSOCIATED DFBLOK
   914	000000'	000000	000005		XPS.	FFLINK,	FCODE+2		; (RIGHT) ADDRESS OF NEXT FFBLOK
   915									; OR 0 IF NONE.
   916
   917
SNOPRM - SITBOL Parameter File  %5(305)	MACRO %53B(1156)-1 21:45 14-Mar-88 Page 24
SNOPRM	MAC	15-Mar-69 11:30		BLOK Definitions -- External Function Block (EFBLOK)

   918						SUBTTL	BLOK Definitions -- External Function Block (EFBLOK)
   919
   920					;	THE EFBLOK
   921					;
   922					;                 EFBLOK - Layout of the External Function Block
   923					;
   924					;
   925					;    =========================================================================
   926					;    /                                                                       /
   927					;    /                             Header Block                              /
   928					;    /                                                                       /
   929					;    =========================================================================
   930					;    !              FFLAGS               !              FNARGS               !
   931					;    -------------------------------------------------------------------------
   932					;    !                         FCODE (JSP P2,EFCALL)                         !
   933					;    -------------------------------------------------------------------------
   934					;    !                 0                 !               x.RET               !
   935					;    -------------------------------------------------------------------------
   936					;    !                 0                 !              EFFUNC               !
   937					;    -------------------------------------------------------------------------
   938					;    !                -n                 !                 0                 !
   939					;    -------------------------------------------------------------------------
   940					;    !              arg1 DT              !           arg1 ADDRESS            !
   941					;    -------------------------------------------------------------------------
   942					;    !              arg2 DT              !           arg2 ADDRESS            !
   943					;    -------------------------------------------------------------------------
   944					;    !                                (cont)                                 !
   945					;    -------------------------------------------------------------------------
   946					;    !                       Descriptor pair for arg1                        !
   947					;    =========================================================================
   948					;    /                                                                       /
   949					;    /                   Descriptor pair for arg1 ... argn                   /
   950					;    /                                                                       /
   951					;    =========================================================================
   952					;
   953					;
   954
   955	000000'	000000	000004		XPS.	EFRET,	FCODE+1		;POINTS TO CODE FOR RETURNING FROM
   956									; EXTERNAL FUNCTIONS
   957	000000'	000000	000005		XPS.	EFFUNC,	EFRET+1		;POINTS TO ENTRY POINT OF EXTERNAL FUNCTION
   958	000000'	000000	000007		XPS.	EFARGS,	EFFUNC+2	;START OF ARGUMENT LIST
   959	000000'	000000	000006		XPS.	LFFBL,	FFLINK+1		; LENGTH OF FFBLOK
   960
SNOPRM - SITBOL Parameter File  %5(305)	MACRO %53B(1156)-1 21:45 14-Mar-88 Page 25
SNOPRM	MAC	15-Mar-69 11:30		BLOK Definitions -- Traced Function Block (TFBLOK)

   961						SUBTTL	BLOK Definitions -- Traced Function Block (TFBLOK)
   962
   963					;   THE TFBLOK
   964					;
   965					;                             TFBLOK - Traced FBLOK
   966					;
   967					;
   968					;    =========================================================================
   969					;    /                                                                       /
   970					;    /                             Header Block                              /
   971					;    /                                                                       /
   972					;    =========================================================================
   973					;    !              FFLAGS               !              FNARGS               !
   974					;    -------------------------------------------------------------------------
   975					;    !                                 FCODE                                 !
   976					;    -------------------------------------------------------------------------
   977					;    !                 0                 !               TFOLD               !
   978					;    -------------------------------------------------------------------------
   979					;    !                 0                 !               TFCT                !
   980					;    -------------------------------------------------------------------------
   981					;    !                 0                 !               TFRT                !
   982					;    -------------------------------------------------------------------------
   983					;    !                 0                 !               TFVB                !
   984					;    =========================================================================
   985					;
   986					;
   987
   988	000000'	000000	000004		XPS. 	TFOLD,	4
   989	000000'	000000	000005		XPS.	TFRT,	5		; RETURN TRACE FBLOK
   990	000000'	000000	000006		XPS.	TFCT,	6		; CALL TRACE FBLOK
   991	000000'	000000	000007		XPS.	TFVB,	7		; ADDR OF VB.
SNOPRM - SITBOL Parameter File  %5(305)	MACRO %53B(1156)-1 21:45 14-Mar-88 Page 26
SNOPRM	MAC	15-Mar-69 11:30		BLOK Definitions -- Trace Block (TRBLOK)

   992						SUBTTL	BLOK Definitions -- Trace Block (TRBLOK)
   993
   994					;
   995					;                    TRBLOCK - Trace Block for Value Tracing
   996					;
   997					;
   998					;    =========================================================================
   999					;    /                                                                       /
  1000					;    /                             Header Block                              /
  1001					;    /                                                                       /
  1002					;    =========================================================================
  1003					;    /                                                                       /
  1004					;    /                                 TRVAL                                 /
  1005					;    /                                                                       /
  1006					;    =========================================================================
  1007					;    /                                                                       /
  1008					;    /                                TRNAME                                 /
  1009					;    /                                                                       /
  1010					;    =========================================================================
  1011					;    /                                                                       /
  1012					;    /                                 TRTAG                                 /
  1013					;    /                                                                       /
  1014					;    =========================================================================
  1015					;    /                                                                       /
  1016					;    /                                TRFUNC                                 /
  1017					;    /                                                                       /
  1018					;    =========================================================================
  1019					;
  1020					;
  1021
  1022	000000'	000000	000002		XPS.	TRVAL,	LHDR		; VALUE OF VARIABLE BEING TRACED
  1023	000000'	000000	000004		XPS.	TRNAME,	LHDR+2		; NAME OF VARIABLE BEING TRACED
  1024	000000'	000000	000006		XPS.	TRTAG,	LHDR+4		; TAG (3RD ARG. TO TRACE)
  1025	000000'	000000	000010		XPS.	TRFUNC,	LHDR+6		; FUNCTION (POINTER TO VAR. BLOCK)
SNOPRM - SITBOL Parameter File  %5(305)	MACRO %53B(1156)-1 21:45 14-Mar-88 Page 27
SNOPRM	MAC	15-Mar-69 11:30		BLOK Definitions -- I/O Block (IOBLOK)

  1026						SUBTTL	BLOK Definitions -- I/O Block (IOBLOK)
  1027
  1028					IFN FTOPS10,<		;[244]
  1029
  1030	000000'	000000	000002		XPS.	IOMODE,	LHDR	; MODE UNDER WHICH FILE WAS OPENED
  1031	000000'	000000	000003		XPS.	IODEV,	3	; DEVICE NAME IS SIXBIT
  1032	000000'	000000	000004		XPS.	IOBUFS,	4	; 3RD WORD OF OPEN BLOCK
  1033	000000'	000000	000005		XPS.	IONAME,	5	; NAME IN SIXBIT
  1034	000000'	000000	000006		XPS.	IOEXT,	6	; EXTENSION IN SIXBIT
  1035	000000'	000000	000007		XPS.	IOPRIV,	7	; PRIVILEGE IF SPECIFIED
  1036	000000'	000000	000010		XPS.	IOPPN,	10	; PROJECT-PROGRAMMER IF SPECIFIED
  1037	000000'	000000	000011		XPS.	IOSFD,	11	; SFD PATH
  1038	000000'	000000	000021		XPS.	IOCHAN,	21	; CHANNEL # IN BITS (9-12)
  1039	000000'	000000	000022		XPS.	IOIBHD,	22	; INPUT BUFFER HEADER (3 WORDS)
  1040	000000'	000000	000025		XPS.	IOOBHD,	25	; OUTPUT BUFFER HEADER (3 WORDS)
  1041	000000'	000000	000030		XPS.	IOLAST,	30	; LAST CHARACTER READ ON INPUT (OR 0)
  1042	000000'	000000	000030		XPS.	IOTTY,	IOLAST	; FLAG (VIA BIT 0) TO IND. TTY
  1043	000000'	000000	000031		XPS.	IOFLGS,	31	; FLAGS AS FOLLOWS
  1044	000000'	000000	400000		XPS.	 IOINFL,	400000	; BUFFERED FOR INPUT
  1045	000000'	000000	200000		XPS.	 IOOUFL,	200000	; BUFFERED FOR OUTPUT
  1046	000000'	000000	000031		XPS.	IOBUBL,	31	; ADDRESS OF BUBLOK
  1047	000000'	000000	000032		XPS.	IONEXT,	32	; NEXT IOBLOK
  1048	000000'	000000	000033		XPS.	IOLENG,	33	; JUST THE LENGTH OF THE IOBLOK
  1049
  1050					>;[244] End of IFN FTOPS10
  1051
  1052					IFN FTOPS20,<
  1053
  1054					XPS.	$IOJFN,	LHDR		;[244] JOB FILE NUMBER
  1055					XPS.	$IOFIL,	$IOJFN+1	;[244] ASCII FILE SPECIFICATION
  1056					XPS.	IONEXT,	$IOFIL+^D8	;[244] Pointer to the next
  1057					XPS.	IOLENG,	IONEXT+1	;[244] Length of the block
  1058
  1059					>;[244] End of IFN FTOPS20
SNOPRM - SITBOL Parameter File  %5(305)	MACRO %53B(1156)-1 21:45 14-Mar-88 Page 28
SNOPRM	MAC	15-Mar-69 11:30		BLOK Definitions -- Association Blocks (IABLOK & OABLOK)

  1060						SUBTTL	BLOK Definitions -- Association Blocks (IABLOK & OABLOK)
  1061
  1062					;
  1063					;                      Association Blocks (IABLOK & OABLOK)
  1064					;
  1065					;
  1066					;    =========================================================================
  1067					;    /                                                                       /
  1068					;    /                             Header Block                              /
  1069					;    /                                                                       /
  1070					;    =========================================================================
  1071					;    !                                 Value                                 !
  1072					;    -------------------------------------------------------------------------
  1073					;    !                           Value (continued)                           !
  1074					;    -------------------------------------------------------------------------
  1075					;    !                            File Descriptor                            !
  1076					;    -------------------------------------------------------------------------
  1077					;    !                      File Descriptor (Contined)                       !
  1078					;    =========================================================================
  1079					;
  1080					;
  1081
  1082	000000'	000000	000002		XPS.	AVAL,	2		; VALUE (LIFTED FROM ASSOC. VARIABLE)
  1083	000000'	000000	000004		XPS.	AFILE,	4	; FILE DESCRIPTOR
  1084	000000'	000000	000006		XPS.	ALENG,	6	; THE LENGTH OF AN ABLOK
SNOPRM - SITBOL Parameter File  %5(305)	MACRO %53B(1156)-1 21:45 14-Mar-88 Page 29
SNOPRM	MAC	15-Mar-69 11:30		BLOK Definitions -- Buffer Block (BUBLOK)

  1085						SUBTTL BLOK Definitions -- Buffer Block (BUBLOK)
  1086
  1087					;
  1088					;                                  Buffer Block
  1089					;
  1090					;
  1091					;    =========================================================================
  1092					;    /                                                                       /
  1093					;    /                          This is the Buffer                           /
  1094					;    /                                                                       /
  1095					;    =========================================================================
  1096					;    /                                                                       /
  1097					;    /                                  ...                                  /
  1098					;    /                                                                       /
  1099					;    =========================================================================
  1100					;    /                                                                       /
  1101					;    /                                  ...                                  /
  1102					;    /                                                                       /
  1103					;    =========================================================================
  1104					;
  1105					;
  1106					;
  1107
  1108	000000'	000000	000002		XPS.	BUBITS,	2	; The meat of the BUBLOK
SNOPRM - SITBOL Parameter File  %5(305)	MACRO %53B(1156)-1 21:45 14-Mar-88 Page 30
SNOPRM	MAC	15-Mar-69 11:30		BLOK Definitions -- Stream Block (STBLOK)

  1109						SUBTTL	BLOK Definitions -- Stream Block (STBLOK)
  1110
  1111					;
  1112					;                             Stream Block (STBLOK)
  1113					;
  1114					;
  1115					;    =========================================================================
  1116					;    /                                                                       /
  1117					;    /                             Header Block                              /
  1118					;    /                                                                       /
  1119					;    =========================================================================
  1120					;    !                              Next Stream                              !
  1121					;    -------------------------------------------------------------------------
  1122					;    !                             Current File                              !
  1123					;    =========================================================================
  1124					;    /                                                                       /
  1125					;    /                                IOBLOKs                                /
  1126					;    /                                                                       /
  1127					;    =========================================================================
  1128					;
  1129					;
  1130
  1131	000000'	000000	000002		XPS.	STNXT,	2	; NEXT STREAM
  1132	000000'	000000	000003		XPS.	STCF,	3		; CURRENT FILE
  1133	000000'	000000	000004		XPS.	STIOBL,	4	; IOBLOKS
  1134
SNOPRM - SITBOL Parameter File  %5(305)	MACRO %53B(1156)-1 21:45 14-Mar-88 Page 31
SNOPRM	MAC	15-Mar-69 11:30		CHARACTER TABLE POSITIONS

  1135						SUBTTL	CHARACTER TABLE POSITIONS
  1136
  1137
  1138					;	THE FOLLOWING SYMBOLS DEFINE COLUMNS IN THE SYSTEM
  1139					;	CHARACTER TABLE DEDICATED TO THE INDICATED CATEGORY.
  1140					;	SEE DATA SECTION (PURE DATA).
  1141
  1142		400000	000000			Y.TAB==1B0	; POSITION FOR TAB
  1143		200000	000000			Y.BL==1B1	; POSITION FOR BLANK
  1144		100000	000000			Y.OP==1B2	; OPERATOR
  1145		040000	000000			Y.QQ==1B3	; DOUBLE QUOTE
  1146		020000	000000			Y.Q==1B4	; SINGLE QUOTE
  1147		010000	000000			Y.LP==1B5	; LEFT PAREN
  1148		004000	000000			Y.RP==1B6	; RIGHT PAREN
  1149		002000	000000			Y.PLUS==1B7	; PLUS
  1150		001000	000000			Y.CM==1B8	; COMMA
  1151		000400	000000			Y.MNS==1B9	; MINUS
  1152		000200	000000			Y.STAR==1B10	; ASTERISK
  1153		000100	000000			Y.PER==1B11	; PERIOD
  1154		000040	000000			Y.NUM==1B12	; NUMERICS
  1155		000020	000000			Y.COL==1B13	; COLON
  1156		000010	000000			Y.SEMI==1B14	; SEMICOLON
  1157		000004	000000			Y.LB==1B15	; LEFT BRACKET
  1158		000002	000000			Y.RB==1B16	; RIGHT BRACKET
  1159		000001	000000			Y.UN==1B17	; UNDERSCORE
  1160			400000			Y.UPS==1B18	; UPPER CASE
  1161			200000			Y.LOWS==1B19	; LOWER CASE
  1162			100000			Y.E==1B20	; EXPONENTIAL
  1163			040000			Y.EQ==1B21	; EQUAL SIGN
  1164		000001	000000			Y.LA==Y.UN	; LEFT ARROW
  1165			020000			Y.VM==1B22	; VERTICAL MOTION
  1166			010000			Y.CR==1B23	; CARRIAGE RETURN
  1167			004000			Y.ALT==1B24	; ALT-MODE
  1168			002000			Y.SLSH==1B25	; SLASH
  1169			001000			Y.VB==1B26	; VERTICAL BAR
  1170			000400			Y.CZ==1B27	; ^Z
  1171			000200			Y.DOLR==1B28	;DOLLAR SYMBOL
  1172			000100			Y.PCNT==1B29	;PERCENT SYMBOL
  1173
SNOPRM - SITBOL Parameter File  %5(305)	MACRO %53B(1156)-1 21:45 14-Mar-88 Page 32
SNOPRM	MAC	15-Mar-69 11:30		SAVE AREA LENGTHS

  1174						SUBTTL	SAVE AREA LENGTHS
  1175
  1176
  1177					;	THESE LENGTHS MUST AGREE WITH THE VALUES COMPUTED
  1178					;	IN THE DATA REGON.  IF LSAVEI OR LSAVEM IS INCORRECT
  1179					;	AN ERROR MESSAGE WILL BE PRODUCED.  HOWEVER IF THE
  1180					;	LENGTH OF THE AUXILIARY SAVE AREAS ARE CHANGED NO
  1181					;	SUCH WARNING MESSAGE IS GIVEN.
  1182
  1183					;	PATTERN MATCHING SAVE AREA
  1184
  1185			000007			LIGNOM==7	; LENGTH OF IGNORED REGION
  1186			000004			LFLAM==4	; LENGTH OF FLOATING ADDR REG
  1187			000014			LSAVEM==LIGNOM+LFLAM+1	; LENGTH OF SAVE AREA
  1188
  1189					;	INTERPRETER SAVE AREA
  1190
  1191			000003			LIGNOI==3	; LENGTH OF IGNORED REGION
  1192
  1193			000004			LFLAI==4	; LENGTH OF FLOATING ADDRESS REGION
  1194			000010			LSAVEI==LIGNOI+LFLAI+1	; LENGTH OF INTERPRETER SAVE AREA
  1195
  1196					;	UTILITY SAVE AREAS
  1197
  1198			000004			LFLA==4		; LENGTH OF FLOATING ADDR REGION
  1199								; (COMMON FOR EACH UTILITY SAVE AREA)
  1200			000004			LIGNO==4	; LENGTH OF IGNORED REGION (ALSO COMMON)
  1201			000011			LSAVE==LIGNO+LFLA+1	; LENGTH OF SAVE AREA FOR UTILITIES
  1202			000011			LSAVEP==LSAVE	; LENGTH OF SAVE REGION FOR PRIMARY ROUTINES
  1203			000011			LSAVES==LSAVE	;		"	    SECONDARY   "
  1204			000011			LSAVET==LSAVE	;  		"	    TERTIARY    "
  1205			000011			LSAVEQ==LSAVE	;		"	    QUATERNARY  "
SNOPRM - SITBOL Parameter File  %5(305)	MACRO %53B(1156)-1 21:45 14-Mar-88 Page 33
SNOPRM	MAC	15-Mar-69 11:30		Definitions -- miscellany

  1206						SUBTTL	Definitions -- miscellany
  1207
  1208
  1209			000100			MARGIN==100	; DISTANCE BETWEEN AIR AND SKY
  1210			000020			LDPREC==20	; LEFT DEFAULT PRECEDENCE
  1211			000021			RDPREC==21	; RIGHT DEFAULT PRECEDENCE
  1212			000007			BYTESZ==7	; BYTE SIZE
  1213			000005			NBYTES==^D36/BYTESZ	; NUMBER OF BYTES PER WORD
  1214
SNOPRM - SITBOL Parameter File  %5(305)	MACRO %53B(1156)-1 21:45 14-Mar-88 Page 34
SNOPRM	MAC	15-Mar-69 11:30		Definitions -- CVTFMT bit definitions

  1215						SUBTTL	Definitions -- CVTFMT bit definitions
  1216
  1217
  1218					;[246] The following are the bits for CVTFMT calls
  1219					;[246] see CVTFMT in SNOFIO for how to call it.
  1220
  1221		000001	000000			FMT.B==	1,,0		;[246] binary format
  1222		000002	000000			FMT.O==	2,,0		;[246] OCTAL FORMAT
  1223		002003	000000			FMT.S==	<3,,0>!FMT.LJ	;[246] SIXBIT FORMAT
  1224		002004	000000			FMT.U==	<4,,0>!FMT.LJ	;[246] UNSPECIFIED FORMAT
  1225
  1226
  1227		000010	000000			FMT.D==	10,,0		;[246] DIRECT FORMATS (WORD FORMAT)
  1228		000100	000000			FMT.T==	100,,0		;[246] TERMINAL CHARACTER FORMAT
  1229		000200	000000			FMT.C==	200,,0		;[246] SINGLE CHARACTER FORMAT
  1230		000400	000000			FMT.N==	400,,0		;[246] SEQUENCE NUMBERED FILE
  1231		001000	000000			FMT.WM==1000,,0		;[246] WORD MODE
  1232		000700	000000			FMT.AM==FMT.T!FMT.C!FMT.N	;[246] ASCII MODE
  1233		002000	000000			FMT.LJ==2000,,0		;[246] LEFT JUSTIFIED ON OUTPUT
  1234		004000	000000			FMT.CP==4000,,0		;[246] CHARACTER PREFIX
  1235		010000	000000			FMT.AP==10000,,0	;[246] APPEND MODE
SNOPRM - SITBOL Parameter File  %5(305)	MACRO %53B(1156)-1 21:45 14-Mar-88 Page 35
SNOPRM	MAC	15-Mar-69 11:30		Macro Definitions -- MIDENT & FUNC

  1236						SUBTTL	Macro Definitions -- MIDENT & FUNC
  1237
  1238
  1239					;	 MIDENT - USED FOR CONVERTING
  1240
  1241						DEFINE	MIDENT(X)<X>
  1242
  1243					;	 FUNC - USED AS PREFIX FOR PRIMARY ROUTINES
  1244
  1245						DEFINE	FUNC($$NAM,NARGS,FLAGS,ROUT)<
  1246						INTERN	$$NAM
  1247						$$NAM=.-2	;; NO NEED FOR A PHONEY HEADER
  1248						FUNCF==0	;; WILL CONTAIN COMPUTED FLAGS
  1249						IRPC	FLAGS<IFIDN<FLAGS><E><FUNCF==FUNCF!FEAFL> >
  1250								;;IF E INSERT FEAFL
  1251						IRPC	FLAGS<IFIDN<FLAGS><S><FUNCF==FUNCF!FSAFL> >
  1252								;; IF S INSERT FSAFL
  1253						IFN	NARGS,<NARGSA==NARGS>
  1254								;;USE GIVEN VALUE FOR NARGS IF NONZERO
  1255						IFE	NARGS,<NARGSA==377777>
  1256								;; OTHERWISE USE INFINITY
  1257						XWD	MIDENT(\FUNCF),MIDENT(\NARGSA)
  1258								;; ASSEMBLE FFLAGS,FNARGS WORD
  1259						IFB <ROUT>,<PORTAL   .+1>
  1260						IFNB <ROUT>,<PORTAL	ROUT>>
  1261								;; FOR EXECUTE ONLY ON A KI-10
SNOPRM - SITBOL Parameter File  %5(305)	MACRO %53B(1156)-1 21:45 14-Mar-88 Page 36
SNOPRM	MAC	15-Mar-69 11:30		Macro Definitions -- ERROR, ERROR. & ERROR%

  1262						SUBTTL	Macro Definitions -- ERROR, ERROR. & ERROR%
  1263
  1264						 ; ERROR SIGNALLING
  1265
  1266			002000			ERRSFL==2000		; ERROR STACK FLAG
  1267			004000			ERRPFL==4000		; ERROR POINT FLAG
  1268		001000	000000			OPDEF	ERR [1000,,0]	; USER UUO FOR ERRORS
  1269		003000	000000			OPDEF	ERR. [<1000+ERRSFL>,,0]
  1270		005000	000000			OPDEF	ERR% [<1000+ERRPFL>,,0]
  1271								; USER UUO FOR PARAMETERIZED ERRORS
  1272
  1273					;	 ERROR - ASSEMBLES A WORD TO HANDLE AN EXECUTION
  1274					; 	TIME ERROR.
  1275
  1276						DEFINE	ERROR(N,M)
  1277					<	RADIX	10
  1278					E'N'$'M==:
  1279						ERR	N,M	;[265] Don't just HALT anymore.
  1280						RADIX	8>
  1281
  1282						 ; ERROR. IS A PARAMETERIZED ERROR
  1283						 ; PARAMETER IS ON THE STACK
  1284
  1285						DEFINE	ERROR.(N,M)
  1286					<	RADIX	10
  1287						E'N'$'M==:
  1288						ERR.	N,M
  1289						RADIX	8>
  1290
  1291						 ; ERROR% IS A PARAMETERIZED ERROR
  1292						 ; PARAMETER IS POINTED TO BY Q3
  1293
  1294						DEFINE	ERROR%(N,M)
  1295					<	RADIX	10
  1296						E'N'$'M==:
  1297						ERR%	N,M
  1298						RADIX	8>
  1299
SNOPRM - SITBOL Parameter File  %5(305)	MACRO %53B(1156)-1 21:45 14-Mar-88 Page 37
SNOPRM	MAC	15-Mar-69 11:30		Macro Definitions -- PPINIT - PUSH/POP MACRO INITIALIZATION

  1300						SUBTTL	Macro Definitions -- PPINIT - PUSH/POP MACRO INITIALIZATION
  1301
  1302
  1303					;   PPINIT IS CALLED BY EACH OF PUSHSA, PUSHR, POPSA & POPR
  1304					;	IT ESTABLISHES 2 MACROS.  PPADDR RETURNS THE ADDRESS
  1305					;	OF THE AREA THAT IS TO BE PUSHED OR POPPED.
  1306					;	PPLENG RETURNS THE LENGTH OF THIS AREA.
  1307					;	TO MAKE THIS EASY THE FOLLOWING EQUATED SYMBOLS ARE DEFINED.
  1308
  1309					;	REGI==IREG
  1310					;	LREGI==1
  1311			000004			REGP==P1
  1312			000002			LREGP==2
  1313			000006			REGS==S1
  1314			000003			LREGS==3
  1315			000011			REGT==T1
  1316			000004			LREGT==4
  1317			000015			REGQ==Q1
  1318			000003			LREGQ==3
  1319
  1320						DEFINE	PPINIT(TYPE,CODE)<
  1321								;; TYPE MUST BE EITHER REG OR SAVE
  1322								;; CODE IS ARG PASSED FROM ORIGINAL CALL
  1323								;; MAY CONTAIN LEADING BLANKS
  1324						IRPC	CODE<
  1325							IF2,<
  1326							   IFNDEF TYPE'CODE,<EXTERNAL TYPE'CODE>>
  1327							IFNB <CODE><DEFINE PPADDR<TYPE'CODE>
  1328								STOPI>>
  1329								;; SO MUCH FOR THE DEF. OF PPADDR
  1330						PPL==0		;; WE WILL COMPUTE HERE THE LENGTH OF THE AREA
  1331						IRPC	CODE<
  1332							IFNB	<CODE><PPL==PPL+L'TYPE'CODE>>
  1333						DEFINE	PPLENG<MIDENT(\PPL)>	>
  1334
SNOPRM - SITBOL Parameter File  %5(305)	MACRO %53B(1156)-1 21:45 14-Mar-88 Page 38
SNOPRM	MAC	15-Mar-69 11:30		Macro Definitions -- PUSHSA, POPSA - PUSH/POP MACROS

  1335						SUBTTL	Macro Definitions -- PUSHSA, POPSA - PUSH/POP MACROS
  1336
  1337					;   PUSHSA - PUSH ONE OR MORE CONTIGUOUS SAVE AREAS
  1338
  1339					  	DEFINE	PUSHSA(CODE)
  1340					<	IF2,<IFN FTDEBUG,<PRINTX PUSHSA CALL -- CODE >>
  1341						PPINIT(SAVE,CODE)	;; INITIALIZE THINGS
  1342					  JSP  Z,PSHSA##  ;; CALL SUBROUTINE
  1343					  XWD  PPLENG,PPADDR >
  1344
  1345					;   POPSA - POP ONE OR MORE CONTIGUOUS SAVE AREAS
  1346
  1347						DEFINE	POPSA(CODE)
  1348					<	IF2,<IFN FTDEBUG,<PRINTX POPSA CALL -- CODE>>
  1349						PPINIT(SAVE,CODE)	;; INITIALIZE THINGS
  1350					  JSP  Z,PPSA##
  1351					  XWD  PPLENG,PPADDR >
  1352
  1353
SNOPRM - SITBOL Parameter File  %5(305)	MACRO %53B(1156)-1 21:45 14-Mar-88 Page 39
SNOPRM	MAC	15-Mar-69 11:30		Macro Definitions -- PUSHR, POPR - PUSHJ/POP MACROS

  1354						SUBTTL	Macro Definitions -- PUSHR, POPR - PUSHJ/POP MACROS
  1355
  1356
  1357					;   PUSHR - PUSH A COLLECTION OF REGISTERS
  1358
  1359						DEFINE	PUSHR(CODE)
  1360					<	IF2,< IFN FTDEBUG,<PRINTX PUSHR CALL -- CODE>>
  1361						PPINIT(REG,CODE)	;; INITIALIZE THINGS
  1362					  JSP  Z,PSHR##
  1363					  XWD  PPLENG+1,PPADDR >
  1364
  1365					;   POPR - POP A COLLECTION OF REGISTERS
  1366
  1367						DEFINE	POPR(CODE)
  1368					<	IF2,< IFN FTDEBUG,<PRINTX POPR CALL -- CODE>>
  1369						PPINIT(REG,CODE)
  1370					  JSP  Z,PPR##
  1371					  XWD  PPLENG,PPADDR >
  1372
  1373
  1374
  1375
  1376						SUBTTL	Macro Definitions -- $PUSH & $POP
  1377
  1378					; The following macros will PUSH and POP a list of
  1379					; items to and from the STACK.
  1380
  1381					DEFINE	$PUSH(ITEMS),<
  1382						IRP	<ITEMS>,<PUSH	STACK,ITEMS>
  1383						>
  1384
  1385					DEFINE	$POP(ITEMS),<
  1386						IRP	<ITEMS>,<POP	STACK,ITEMS>
  1387						>
  1388
SNOPRM - SITBOL Parameter File  %5(305)	MACRO %53B(1156)-1 21:45 14-Mar-88 Page 40
SNOPRM	MAC	15-Mar-69 11:30		Macro Definitions -- $PUSH & $POP

  1389
  1390						SUBTTL	Macro Definitions -- DMOVE & DMOVEM
  1391
  1392					;THESE MACROS ARE IN THE KA-10 VERSION ONLY, SINCE THE INSTRUCTIONS
  1393					;ARE IN THE KI-10 AND KL-10 PROCESSORS.
  1394
  1395						IFN FTKA,<		;KA-10 VERSION
  1396
  1397					DEFINE	DMOVE(AC,M),<
  1398						MOVE	AC+1,1+M
  1399						MOVE	AC,M
  1400					>
  1401
  1402
  1403					DEFINE	DMOVEM(AC,M),<
  1404						MOVEM	AC,M
  1405						MOVEM	AC+1,1+M
  1406					>
  1407					>;END OF IFN FTKA
  1408
  1409						END

NO ERRORS DETECTED

PROGRAM BREAK IS 000001
CPU TIME USED 13:56.525

38P CORE USED
SNOPRM - SITBOL Parameter File  %5(305)	MACRO %53B(1156)-1 21:45 14-Mar-88 Page S-1
SNOPRM	MAC	15-Mar-69 11:30		SYMBOL TABLE

ABLOK		000405	sin	ERR.	003000	000000		IOEXT		000006	sin	OPFLAG		400000	sin
ADFBLK		000002	sin	ERRPFL		004000	spd	IOFLGS		000031	sin	P1		000004
ADT		004005	sin	ERRSFL		002000	spd	IOIBHD		000022	sin	P2		000005
AFILE		000004	sin	FAAFL		000004	sin	IOINFL		400000	sin	PALT		000001	sin
AHASH		000004	sin	FARGS		000006	sin	IOLAST		000030	sin	PARG		000002	sin
ALENG		000006	sin	FBLOK		000420	sin	IOLENG		000033	sin	PBLOK		000404	sin
APROTO		000002	sin	FCODE		000003	sin	IOMODE		000002	sin	PDC		100000	sin
AVAL		000002	sin	FCTFL		000010	sin	IONAME		000005	sin	PDT		004004	sin
BLENG		000000	sin	FEAFL		000001	sin	IONEXT		000032	sin	PLINK		000004
BLOKF		000400	sin	FFBLOK		000422	sin	IOOBHD		000025	sin	PMIN		000004	sin
BTCODE		000000	sin	FFDFBL		000004	sin	IOOUFL		200000	sin	PNDSZ		000004	sin
BUBITS		000002	sin	FFLAGS		000002	sin	IOPPN		000010	sin	PPROG		000000	sin
BUBLOK		000430	sin	FFLINK		000005	sin	IOPRIV		000007	sin	PRACT		000007	sin
BYTESZ		000007	spd	FFOFFS		000004	sin	IOSFD		000011	sin	PRESID		000000	sin
CBLOK		000407	sin	FLABEL		000005	sin	IOTTY		000030	sin	PRFCT		000005	sin
CCODE		000004	sin	FLDC		004000	sin	JKBLOK		000417	sin	PRLEN		000011	sin
CDAF		020000	sin	FMT.AM	000700	000000	spd	JUNK		021000	sin	PRLVL		000011	sin
CDARGS		007777	sin	FMT.AP	010000	000000	spd	KYMASK		000077	sin	PRTYP		000003	sin
CDF		200000	sin	FMT.B	000001	000000	spd	LCLINK		000002	sin	PSTART		000002	sin
CDFF		200000	sin	FMT.C	000200	000000	spd	LDPREC		000020	spd	PSUBS		000001	sin
CDFLGS		770000	sin	FMT.CP	004000	000000	spd	LFFBL		000006	sin	Q1		000015
CDIF		600000	sin	FMT.D	000010	000000	spd	LFLA		000004	spd	Q2		000016
CDIFF		400000	sin	FMT.LJ	002000	000000	spd	LFLAI		000004	spd	Q3		000017
CDT		004007	sin	FMT.N	000400	000000	spd	LFLAM		000004	spd	QLINK		000015
CFGOTO		000001	sin	FMT.O	000002	000000	spd	LHDR		000002	sin	RDPREC		000021	spd
CHEAD		000000	sin	FMT.S	002003	000000	spd	LIGNO		000004	spd	RDT		002002	sin
CLAST		000002	sin	FMT.T	000100	000000	spd	LIGNOI		000003	spd	REGP		000004	spd
CNEXT		000002	sin	FMT.U	002004	000000	spd	LIGNOM		000007	spd	REGQ		000015	spd
CONST		160000	sin	FMT.WM	001000	000000	spd	LOWVER		000006	spd	REGS		000006	spd
CRULE		000003	sin	FNAME		000004	sin	LPHDR		000005	sin	REGT		000011	spd
CSDT		004013	sin	FNARGS		000002	sin	LPREC		000002	sin	RPREC		000003	sin
CSTACK		000004		FNTMPS		000004	sin	LREGP		000002	spd	S1		000006
CSTNO		000001	sin	FRTFL		000020	sin	LREGQ		000003	spd	S2		000007
CTBITS		000002	sin	FSAFL		000002	sin	LREGS		000003	spd	S3		000010
CTBLOK		000413	sin	FTDDT	777777	777777	spd	LREGT		000004	spd	SBLOK		000403	sin
D$EXT		635657	spd	FTDEBU		000000	spd	LSAVE		000011	spd	SCHARS		000002	sin
D$NAME	635657	425754	spd	FTKA	777777	777777	spd	LSAVEI		000010	spd	SDT		004003	sin
D$PRE		635657	spd	FTKI		000000	spd	LSAVEM		000014	spd	SJUNKF		001000	sin
DBLOK		000412	sin	FTKL		000000	spd	LSAVEP		000011	spd	SLINK		000006
DDT		004012	spd	FTOPS1	777777	777777	spd	LSAVEQ		000011	spd	SNOASC	516351	700000	spd
DFBLOK		000421	sin	FTOPS2		000000	spd	LSAVES		000011	spd	SNOEDT		000305	spd
DFFLDS		000005	sin	FTPAV	777777	777777	spd	LSAVET		000011	spd	SNOMIN		000000	spd
DFLDS		000003	sin	FTSING		000000	spd	LTEBLK		000007	sin	SNOSIX	635657	000000	spd
DFNAME		000004	sin	GCFLD		000001	sin	LTFLAG		200000	sin	SNOVER		000005	spd
DHASH		000002	sin	HSR		000003		MARGIN		000100	spd	SNOWHO		000000	spd
DTFLGS		777700	sin	IABLOK		000426	sin	MAXDTN		000012	sin	STACK		000001
DTNUM		000077	sin	IALVL		000310	sin	NBYTES		000005	spd	STBLOK		000432	sin
EBLOK		000406	sin	IDT		002001	sin	NCLINK		000003	sin	STCF		000003	sin
EDT		004006	sin	INDC		040000	sin	NDT		004011	sin	STIOBL		000004	sin
EFARGS		000007	sin	IOBLOK		000415	sin	NONDC		020000	sin	STNXT		000002	sin
EFBLOK		000423	sin	IOBUBL		000031	sin	NSUBS		000004	sin	SUBDIM		000006	sin
EFFUNC		000005	sin	IOBUFS		000004	sin	NUMDC		002000	sin	SUBFAC		000005	sin
EFRET		000004	sin	IOCHAN		000021	sin	OABLOK		000427	sin	SUBLBD		000006	sin
ERR	001000	000000		IODEV		000003	sin	OALVL		000454	sin	SURF		000002
ERR%	005000	000000		IODT		004015	sin	OBBLOK		000431	sin	T1		000011
SNOPRM - SITBOL Parameter File  %5(305)	MACRO %53B(1156)-1 21:45 14-Mar-88 Page S-2
SNOPRM	MAC	15-Mar-69 11:30		SYMBOL TABLE

T2		000012		Y.CZ		000400	spd
T3		000013		Y.DOLR		000200	spd
T4		000014		Y.E		100000	spd
TBLOK		000410	sin	Y.EQ		040000	spd
TBUCK		000003	sin	Y.LA	000001	000000	spd
TDT		004010	sin	Y.LB	000004	000000	spd
TEBLOK		000416	sin	Y.LOWS		200000	spd
TELINK		000006	sin	Y.LP	010000	000000	spd
TEREF		000002	sin	Y.MNS	000400	000000	spd
TEVAL		000004	sin	Y.NUM	000040	000000	spd
TFBLOK		000424	sin	Y.OP	100000	000000	spd
TFCT		000006	sin	Y.PCNT		000100	spd
TFOLD		000004	sin	Y.PER	000100	000000	spd
TFRT		000005	sin	Y.PLUS	002000	000000	spd
TFVB		000007	sin	Y.Q	020000	000000	spd
THASH		000002	sin	Y.QQ	040000	000000	spd
TLINK		000011		Y.RB	000002	000000	spd
TNBUCK		000002	sin	Y.RP	004000	000000	spd
TRBLOK		000425	sin	Y.SEMI	000010	000000	spd
TRFUNC		000010	sin	Y.SLSH		002000	spd
TRLVL		000144	sin	Y.STAR	000200	000000	spd
TRNAME		000004	sin	Y.TAB	400000	000000	spd
TRTAG		000006	sin	Y.UN	000001	000000	spd
TRVAL		000002	sin	Y.UPS		400000	spd
TVAR		034000	sin	Y.VB		001000	spd
TVDC		010000	sin	Y.VM		020000	spd
UTBLOK		000414	sin	Z		000000
UTDT		004014	sin	%%SNOP	000500	000305	spd
VABLOK		000414	sin
VAFLG		000010	sin
VALEN		000012	sin
VALUE		000000	sin
VANAME		000004	sin
VAPROC		000006	sin
VAR		064000	sin
VARSIZ		000007	sin
VAVAL		000002	sin
VBDT		000003	sin
VBINRY		000003	sin
VCTFL		100000	sin
VERSIO	000500	000305	spd
VFLAGS		000006	sin
VFUNC		000003	sin
VKEY		000006	sin
VLABEL		000002	sin
VLINK		000006	sin
VNAME		000004	sin
VRTFL		040000	sin
VUNARY		000002	sin
XGRID		000764	spd
Y.ALT		004000	spd
Y.BL	200000	000000	spd
Y.CM	001000	000000	spd
Y.COL	000020	000000	spd
Y.CR		010000	spd

SNOPRM - SITBOL Parameter File  %5(305)	MACRO %53B(1156)-1 21:45 14-Mar-88 Page 1
SNOPRM	MAC	15-Mar-69 11:30		Gimpel--Ma355/JDS/DRH/MP/RCM/VB		5-Aug-77


Symbol cross reference

ABLOK	   489	   489#	   490
ADFBLK	   711	   711#
ADT	   392	   392#
AFILE	  1083	  1083#
AHASH	   614	   614#
ALENG	  1084	  1084#
APROTO	   612	   612#	   613
AVAL	  1082	  1082#
BLENG	   481	   481#
BLOKF	   383	   383#	   487
BTCODE	   480	   480#
BUBITS	  1108	  1108#
BUBLOK	   519	   519#	   520
BYTESZ	  1212#	  1213
CBLOK	   491	   491#	   492
CCODE	   642	   642#
CDAF	   384	   384#
CDARGS	   416	   416#
CDF	   408	   408#
CDFF	   375	   375#	   408	   409
CDFLGS	   417	   417#
CDIF	   409	   409#
CDIFF	   374	   374#	   409
CDT	   394	   394#
CFGOTO	   665	   665#
CHEAD	   661	   661#
CLAST	   667	   667#
CNEXT	   668	   668#
CONST	   406	   406#
CRULE	   669	   669#
CSDT	   398	   398#
CSTACK	   350#
CSTNO	   664	   664#
CTBITS	   733	   733#
CTBLOK	   497	   497#	   498
D$EXT	   337
D$NAME	   338
D$PRE	   340
DBLOK	   493	   493#	   497
DDT	   397#
DFBLOK	   506	   506#	   507
DFFLDS	   887	   887#
DFLDS	   715	   715#	   774
DFNAME	   886	   886#
DHASH	   713	   713#
DTFLGS	   413	   413#
DTNUM	   414	   414#
EBLOK	   490	   490#	   491
EDT	   393	   393#
EFARGS	   958	   958#
SNOPRM - SITBOL Parameter File  %5(305)	MACRO %53B(1156)-1 21:45 14-Mar-88 Page 1
SNOPRM	MAC	15-Mar-69 11:30		Gimpel--Ma355/JDS/DRH/MP/RCM/VB		5-Aug-77


Symbol cross reference

EFBLOK	   508	   508#	   509
EFFUNC	   957	   957#	   958
EFRET	   955	   955#	   957
ERRPFL	  1267#	  1270
ERRSFL	  1266#	  1269
FAAFL	   857	   857#
FARGS	   851	   851#
FBLOK	   505	   505#	   506
FCODE	   844	   844#	   846	   847	   911	   913	   914	   955
FCTFL	   858	   858#
FEAFL	   855	   855#
FFBLOK	   507	   507#	   508
FFDFBL	   913	   913#
FFLAGS	   842	   842#
FFLINK	   914	   914#	   959
FFOFFS	   911	   911#
FLABEL	   849	   849#	   851
FLDC	   380	   380#	   390	   391	   392	   393	   394	   395	   396	   397	   398	   399	   400	   404
	   405
FMT.AM	  1232#
FMT.AP	  1235#
FMT.B	  1221#
FMT.C	  1229#	  1232
FMT.CP	  1234#
FMT.D	  1227#
FMT.LJ	  1223	  1224	  1233#
FMT.N	  1230#	  1232
FMT.O	  1222#
FMT.S	  1223#
FMT.T	  1228#	  1232
FMT.U	  1224#
FMT.WM	  1231#
FNAME	   847	   847#	   849
FNARGS	   843	   843#
FNTMPS	   846	   846#
FRTFL	   859	   859#
FSAFL	   856	   856#
FTDDT	   282
FTDEBU	   285
FTKA	   306	   310	   317	  1395
FTKI	   311	   317
FTKL	   312	   317
FTOPS1	   286	   336	  1028
FTOPS2	   287	   289	  1052
FTPAV	   283
FTSING	   284
GCFLD	   482	   482#
HSR	   345#
IABLOK	   514	   514#	   515
IALVL	   783	   783#
SNOPRM - SITBOL Parameter File  %5(305)	MACRO %53B(1156)-1 21:45 14-Mar-88 Page 1
SNOPRM	MAC	15-Mar-69 11:30		Gimpel--Ma355/JDS/DRH/MP/RCM/VB		5-Aug-77


Symbol cross reference

IDT	   388	   388#
INDC	   377	   377#	   404	   406
IOBLOK	   499	   499#	   500
IOBUBL	  1046	  1046#
IOBUFS	  1032	  1032#
IOCHAN	  1038	  1038#
IODEV	  1031	  1031#
IODT	   400	   400#
IOEXT	  1034	  1034#
IOFLGS	  1043	  1043#
IOIBHD	  1039	  1039#
IOINFL	  1044	  1044#
IOLAST	  1041	  1041#	  1042
IOLENG	  1048	  1048#
IOMODE	  1030	  1030#
IONAME	  1033	  1033#
IONEXT	  1047	  1047#
IOOBHD	  1040	  1040#
IOOUFL	  1045	  1045#
IOPPN	  1036	  1036#
IOPRIV	  1035	  1035#
IOSFD	  1037	  1037#
IOTTY	  1042	  1042#
JKBLOK	   501	   501#	   505
JUNK	   407	   407#
KYMASK	   458	   458#
LCLINK	   640	   640#
LDPREC	  1210#
LFFBL	   959	   959#
LFLA	  1198#	  1201
LFLAI	  1193#	  1194
LFLAM	  1186#	  1187
LHDR	   483	   483#	   539	   563	   564	   565	   612	   640	   641	   689	   690	   691	   711	   713
	   715	   733	   765	   809	   842	   843	   844	  1022	  1023	  1024	  1025	  1030
LIGNO	  1200#	  1201
LIGNOI	  1191#	  1194
LIGNOM	  1185#	  1187
LOWVER	    45#
LPHDR	   565	   565#
LPREC	   463	   463#
LREGP	  1312#
LREGQ	  1318#
LREGS	  1314#
LREGT	  1316#
LSAVE	  1201#	  1202	  1203	  1204	  1205
LSAVEI	  1194#
LSAVEM	  1187#
LSAVEP	  1202#
LSAVEQ	  1205#
LSAVES	  1203#
SNOPRM - SITBOL Parameter File  %5(305)	MACRO %53B(1156)-1 21:45 14-Mar-88 Page 1
SNOPRM	MAC	15-Mar-69 11:30		Gimpel--Ma355/JDS/DRH/MP/RCM/VB		5-Aug-77


Symbol cross reference

LSAVET	  1204#
LTEBLK	   813	   813#
LTFLAG	   455	   455#
MARGIN	  1209#
MAXDTN	   415	   415#
NBYTES	  1213#
NCLINK	   641	   641#	   642
NDT	   396	   396#
NONDC	   378	   378#	   384	   404	   405	   406	   407
NSUBS	   613	   613#	   614	   615
NUMDC	   381	   381#	   388	   389
OABLOK	   515	   515#	   519
OALVL	   784	   784#
OBBLOK	   520	   520#	   521
OPFLAG	   454	   454#
P1	   347#	   348	   349	   350	  1311
P2	   348#	   352
PALT	   585	   585#
PARG	   587	   587#
PBLOK	   488	   488#	   489
PDC	   376	   376#	   406
PDT	   391	   391#
PLINK	   349#
PMIN	   564	   564#
PNDSZ	   588	   588#
PPROG	   583	   583#
PRACT	   776	   776#	   777	   778
PRESID	   584	   584#
PRFCT	   775	   775#	   776
PRLEN	   778	   778#
PRLVL	   777	   777#
PRTYP	   774	   774#	   775
PSTART	   563	   563#
PSUBS	   586	   586#
Q1	   363#	   364	   366	  1317
Q2	   364#	   365
Q3	   365#
QLINK	   366#
RDPREC	  1211#
RDT	   389	   389#
REGP	  1311#
REGQ	  1317#
REGS	  1313#
REGT	  1315#
RPREC	   464	   464#
S1	   352#	   353	   355	  1313
S2	   353#	   354
S3	   354#	   357
SBLOK	   487	   487#	   488
SCHARS	   539	   539#
SNOPRM - SITBOL Parameter File  %5(305)	MACRO %53B(1156)-1 21:45 14-Mar-88 Page 1
SNOPRM	MAC	15-Mar-69 11:30		Gimpel--Ma355/JDS/DRH/MP/RCM/VB		5-Aug-77


Symbol cross reference

SDT	   390	   390#
SJUNKF	   382	   382#	   407
SLINK	   355#
SNOASC	    29#
SNOEDT	    22#	    33	    35
SNOMIN	    21#	    33	    35
SNOSIX	    28#
SNOVER	    20#	    33	    35
SNOWHO	    23#	    33	    35
STACK	   343#
STBLOK	   521	   521#
STCF	  1132	  1132#
STIOBL	  1133	  1133#
STNXT	  1131	  1131#
SUBDIM	   617	   617#
SUBFAC	   615	   615#	   616
SUBLBD	   616	   616#	   617
SURF	   344#
T1	   357#	   358	   361	  1315
T2	   358#	   359
T3	   359#	   360
T4	   360#	   363
TBLOK	   492	   492#	   493
TBUCK	   691	   691#
TDT	   395	   395#
TEBLOK	   500	   500#	   501
TELINK	   812	   812#	   813
TEREF	   809	   809#	   811
TEVAL	   811	   811#	   812
TFBLOK	   509	   509#	   513
TFCT	   990	   990#
TFOLD	   988	   988#
TFRT	   989	   989#
TFVB	   991	   991#
THASH	   689	   689#
TLINK	   361#
TNBUCK	   690	   690#
TRBLOK	   513	   513#	   514
TRFUNC	  1025	  1025#
TRLVL	   782	   782#
TRNAME	  1023	  1023#
TRTAG	  1024	  1024#
TRVAL	  1022	  1022#
TVAR	   405	   405#
TVDC	   379	   379#	   405
UTBLOK	   498	   498#	   499	   764
UTDT	   399	   399#
VABLOK	   764	   764#
VAFLG	   768	   768#	   769
VALEN	   769	   769#
SNOPRM - SITBOL Parameter File  %5(305)	MACRO %53B(1156)-1 21:45 14-Mar-88 Page 1
SNOPRM	MAC	15-Mar-69 11:30		Gimpel--Ma355/JDS/DRH/MP/RCM/VB		5-Aug-77


Symbol cross reference

VALUE	   443	   443#
VANAME	   766	   766#	   767
VAPROC	   767	   767#	   768
VAR	   404	   404#
VARSIZ	   452	   452#
VAVAL	   765	   765#	   766
VBDT	   447	   447#
VBINRY	   466	   466#
VCTFL	   456	   456#
VERSIO	    35#
VFLAGS	   449	   449#
VFUNC	   446	   446#
VKEY	   450	   450#
VLABEL	   444	   444#
VLINK	   451	   451#
VNAME	   448	   448#
VRTFL	   457	   457#
VUNARY	   465	   465#
XGRID	   335
Y.ALT	  1167#
Y.BL	  1143#
Y.CM	  1150#
Y.COL	  1155#
Y.CR	  1166#
Y.CZ	  1170#
Y.DOLR	  1171#
Y.E	  1162#
Y.EQ	  1163#
Y.LA	  1164#
Y.LB	  1157#
Y.LOWS	  1161#
Y.LP	  1147#
Y.MNS	  1151#
Y.NUM	  1154#
Y.OP	  1144#
Y.PCNT	  1172#
Y.PER	  1153#
Y.PLUS	  1149#
Y.Q	  1146#
Y.QQ	  1145#
Y.RB	  1158#
Y.RP	  1148#
Y.SEMI	  1156#
Y.SLSH	  1168#
Y.STAR	  1152#
Y.TAB	  1142#
Y.UN	  1159#	  1164
Y.UPS	  1160#
Y.VB	  1169#
Y.VM	  1165#
SNOPRM - SITBOL Parameter File  %5(305)	MACRO %53B(1156)-1 21:45 14-Mar-88 Page 1
SNOPRM	MAC	15-Mar-69 11:30		Gimpel--Ma355/JDS/DRH/MP/RCM/VB		5-Aug-77


Symbol cross reference

Z	   368#
%%SNOP	    33#
SNOPRM - SITBOL Parameter File  %5(305)	MACRO %53B(1156)-1 21:45 14-Mar-88 Page 1
SNOPRM	MAC	15-Mar-69 11:30		Gimpel--Ma355/JDS/DRH/MP/RCM/VB		5-Aug-77


Macro/Opdef cross reference

DMOVE	  1397#
DMOVEM	  1403#
ERR	  1268#
ERR%	  1270#
ERR.	  1269#
ERROR	  1277#
ERROR%	  1295#
ERROR.	  1286#
FUNC	  1245#
MIDENT	  1241#
NDS.	   282	   283	   284	   285	   286	   287	   310	   311	   312	   335	   337	   338	   340
POPR	  1368#
POPSA	  1348#
PPINIT	  1320#
PUSHR	  1360#
PUSHSA	  1340#
SHOW.	   282	   283	   284	   285	   286	   287	   310	   311	   312	   335	   337	   338	   340	   374
	   375	   376	   377	   378	   379	   380	   381	   382	   383	   384	   388	   389	   390	   391
	   392	   393	   394	   395	   396	   398	   399	   400	   404	   405	   406	   407	   408	   409
	   413	   414	   415	   416	   417	   443	   444	   446	   447	   448	   449	   450	   451	   452
	   454	   455	   456	   457	   458	   463	   464	   465	   466	   480	   481	   482	   483	   487
	   488	   489	   490	   491	   492	   493	   497	   498	   499	   500	   501	   505	   506	   507
	   508	   509	   513	   514	   515	   519	   520	   521	   539	   563	   564	   565	   583	   584
	   585	   586	   587	   588	   612	   613	   614	   615	   616	   617	   640	   641	   642	   661
	   664	   665	   667	   668	   669	   689	   690	   691	   711	   713	   715	   733	   764	   765
	   766	   767	   768	   769	   774	   775	   776	   777	   778	   782	   783	   784	   809	   811
	   812	   813	   842	   843	   844	   846	   847	   849	   851	   855	   856	   857	   858	   859
	   886	   887	   911	   913	   914	   955	   957	   958	   959	   988	   989	   990	   991	  1022
	  1023	  1024	  1025	  1030	  1031	  1032	  1033	  1034	  1035	  1036	  1037	  1038	  1039	  1040
	  1041	  1042	  1043	  1044	  1045	  1046	  1047	  1048	  1082	  1083	  1084	  1108	  1131	  1132
	  1133
SNOPTX	    41
SNOUNV	    37
TITLE.	    27
VRSN.	    33	    35
XP	   374	   375	   376	   377	   378	   379	   380	   381	   382	   383	   384	   388	   389	   390
	   391	   392	   393	   394	   395	   396	   398	   399	   400	   404	   405	   406	   407	   408
	   409	   413	   414	   415	   416	   417	   443	   444	   446	   447	   448	   449	   450	   451
	   452	   454	   455	   456	   457	   458	   463	   464	   465	   466	   480	   481	   482	   483
	   487	   488	   489	   490	   491	   492	   493	   497	   498	   499	   500	   501	   505	   506
	   507	   508	   509	   513	   514	   515	   519	   520	   521	   539	   563	   564	   565	   583
	   584	   585	   586	   587	   588	   612	   613	   614	   615	   616	   617	   640	   641	   642
	   661	   664	   665	   667	   668	   669	   689	   690	   691	   711	   713	   715	   733	   764
	   765	   766	   767	   768	   769	   774	   775	   776	   777	   778	   782	   783	   784	   809
	   811	   812	   813	   842	   843	   844	   846	   847	   849	   851	   855	   856	   857	   858
	   859	   886	   887	   911	   913	   914	   955	   957	   958	   959	   988	   989	   990	   991
	  1022	  1023	  1024	  1025	  1030	  1031	  1032	  1033	  1034	  1035	  1036	  1037	  1038	  1039
	  1040	  1041	  1042	  1043	  1044	  1045	  1046	  1047	  1048	  1082	  1083	  1084	  1108	  1131
	  1132	  1133
XPS.	   327#	   374	   375	   376	   377	   378	   379	   380	   381	   382	   383	   384	   388	   389
SNOPRM - SITBOL Parameter File  %5(305)	MACRO %53B(1156)-1 21:45 14-Mar-88 Page 1
SNOPRM	MAC	15-Mar-69 11:30		Gimpel--Ma355/JDS/DRH/MP/RCM/VB		5-Aug-77


Macro/Opdef cross reference

	   390	   391	   392	   393	   394	   395	   396	   398	   399	   400	   404	   405	   406	   407	   408
	   409	   413	   414	   415	   416	   417	   443	   444	   446	   447	   448	   449	   450	   451
	   452	   454	   455	   456	   457	   458	   463	   464	   465	   466	   480	   481	   482	   483
	   487	   488	   489	   490	   491	   492	   493	   497	   498	   499	   500	   501	   505	   506
	   507	   508	   509	   513	   514	   515	   519	   520	   521	   539	   563	   564	   565	   583
	   584	   585	   586	   587	   588	   612	   613	   614	   615	   616	   617	   640	   641	   642
	   661	   664	   665	   667	   668	   669	   689	   690	   691	   711	   713	   715	   733	   764
	   765	   766	   767	   768	   769	   774	   775	   776	   777	   778	   782	   783	   784	   809
	   811	   812	   813	   842	   843	   844	   846	   847	   849	   851	   855	   856	   857	   858
	   859	   886	   887	   911	   913	   914	   955	   957	   958	   959	   988	   989	   990	   991
	  1022	  1023	  1024	  1025	  1030	  1031	  1032	  1033	  1034	  1035	  1036	  1037	  1038	  1039
	  1040	  1041	  1042	  1043	  1044	  1045	  1046	  1047	  1048	  1082	  1083	  1084	  1108	  1131
	  1132	  1133
$POP	  1385#
$PUSH	  1381#p=2k