SNOSYM - Symbol Table Management  %5(222)	MACRO %53B(1156)-1 21:50 14-Mar-88 Page 1
SNOSYM	MAC	20-Nov-66 01:30		MA355/JDS/DRH/MP/RCM/VB		10-JUN-76

     1						SUBTTL	MA355/JDS/DRH/MP/RCM/VB		10-JUN-76
     2
     3					; COPYRIGHT 1972,1973,1976,1977 STEVENS INSTITUTE OF TECHNOLOGY,
     4					; HOBOKEN, NEW JERSEY, 07030
     5					; ALL RIGHTS RESERVED.
     6
     7						SEARCH	SNOPRM		;SITBOL PARAMETER FILE
     8						SEARCH	MACTEN		;STANDARD MACROS
     9
    10					  ;DIRECTIVES
    11						SALL			;SUPPRESS MACRO EXPANSIONS
    12						.DIREC	.XTABM		;EXCLUDE TABS FROM MACRO CALLS
    13	400000'					TWOSEG	400K		;TWO SEGMENT CODE
    14
    15					  ;VERSION NUMBER
    16
    17			000005			SYMVER==5		;MAJOR VERSION NUMBER
    18			000000			SYMMIN==0		;MINOR VERSION NUMBER
    19			000222			SYMEDT==222		;EDIT LEVEL
    20			000000			SYMWHO==0		;CUSTOMER ARG
    21
    22					  ;TITLE
    23
    24						TITLE.	SYM,SNOSYM,<Symbol Table Management>
    25		637155	000000			SYMSIX==SIXBIT /SYM/	; SNOSYM ABBREVIATION IN SIXBIT
    26		516631	500000			SYMASC==ASCIZ /SYM/	; SNOSYM ABBREVIATION IN ASCII
    27						SALL
    28
    29
    30					  ;SHOW UNIVERSAL VERSION NUMBERS
    31
    32	400000'	000500	000305			SHOW.	%%SNOPRM	;SNOPRM'S VERSION NUMBER
    33	400000'	000200	000025			SHOW.	%%MACT		;MACTEN'S VERSION NUMBER
    34
    35
    36					  ;SOME EXTERNAL SYMBOLS
    37
    38
    39						SYMTTL			; Title
    40						SYMPTX			; PASS2 message
SNOSYM - Symbol Table Management  %5(222)	MACRO %53B(1156)-1 21:50 14-Mar-88 Page 2
SNOSYM	MAC	20-Nov-66 01:30		Table of Contents

    41						SUBTTL	Table of Contents
    42
    43					;		Table of Contents for Symbol Table Management
    44					;
    45					;
    46					;			   Section			      Page
    47					;   1. Table of Contents. . . . . . . . . . . . . . . . . . .    2
    48					;   2. Revision History . . . . . . . . . . . . . . . . . . .    3
    49					;   3. INTERNAL(STATIC) SYMBOL TABLE. . . . . . . . . . . . .    4
    50					;   4. PRIMARY ROUTINES
    51					;        4.1.   CLEAR . . . . . . . . . . . . . . . . . . . .    9
    52					;        4.2.   DATATYPE. . . . . . . . . . . . . . . . . . .   11
    53					;        4.3.   FUNCTION(NAME). . . . . . . . . . . . . . . .   12
    54					;   5. Primary Routines
    55					;        5.1.   LABEL(NAME) . . . . . . . . . . . . . . . . .   13
    56					;   6. PRIMARY ROUTINES
    57					;        6.1.   OPSYN . . . . . . . . . . . . . . . . . . . .   14
    58					;   7. DTNAME - TO DEFINE DATATYPE OF DESCRIPTOR. . . . . . .   15
    59					;   8. INSTAL - LOCATE OR INSTAL A SYMBOL . . . . . . . . . .   16
    60					;   9. LOCATE - TO LOCATE A STRING IN THE SYMBOL TABLE. . . .   17
SNOSYM - Symbol Table Management  %5(222)	MACRO %53B(1156)-1 21:50 14-Mar-88 Page 3
SNOSYM	MAC	20-Nov-66 01:30		Revision History

    61						SUBTTL	Revision History
    62
    63
    64
    65					Comment	{
    66					122	Clean up the listings.
    67					124	Add the LOAD function to load an external function.
    68						Add the UNLOAD function to unload an external function.
    69					131	ADD SNODDT FUNCTIONS AND PAV FUNCTIONS
    70					147	Use the TX?? macros instead of the TD?? instruction when you
    71						use Y.???? instead of the X.????
    72					170	Add new keywords for error processing.
    73					171	Fix problem with &ASSOCIATE
    74					204	Add &VERSION keyword.
    75					221	Make OPSYN check for natural variables in the first two arguments.
    76					222	LABEL("") and FUNCTION("") SHOULD FAIL, MAKE THEM DO THAT.
    77					{
SNOSYM - Symbol Table Management  %5(222)	MACRO %53B(1156)-1 21:50 14-Mar-88 Page 4
SNOSYM	MAC	20-Nov-66 01:30		INTERNAL(STATIC) SYMBOL TABLE

    78					        SUBTTL INTERNAL(STATIC) SYMBOL TABLE
    79			200000		        FNFLAG== 200000
    80			100000		        KWFLAG== 100000
    81			040000		        LBFLAG== 40000
    82			020000		        PKFLAG== 20000
    83			010000		        DTFLAG== 10000
    84			007777		        ISDAT== 7777
    85			007700		        ISKEY== 7700
    86			000077		        DTPINX== 77
    87			000077		        OPNO== 77
    88			010000		        EXT== 10000
    89					 DEFINE DATWD(I)<D'I>
    90					 DEFINE IST(I)<ISTC'I>
    91					 DEFINE ISD(I)<ISTD'I>
    92					 DEFINE BIS(A)< DEFINE CA(ARG)<C(,<ARG>)>
    93					                 DEFINE C(X,Y)< DEFINE CA(ARG)<C <X'Y>,<ARG>>>
    94					               N= 0
    95					               OFSET= 0
    96					               LEN= A
    97					               ISTD'A::
    98					               ADDR= ISTD'A      >
    99					 DEFINE EIS(A)< DEFINE C(X,Y)< ASCII "X">
   100					                MXISC= A
   101					                ISTC'A:: XWD SBLOK,N
   102					                         XWD 0,0
   103					                CA()                >
   104					 DEFINE ISOP(NM,ISUN,ISBIN,OPN)< XWD ISUN,ISBIN
   105					             BYTE (1)1(29)0(6)OPN
   106					             N= N+1
   107					             CA <NM>
   108					             IRPC NM,<OFSET= OFSET+1>    >
   109					 DEFINE IS(NM,ISFUN,ISK,PKEY,LABL,ISDT)< F=0
   110					           K= 0
   111					           L= 0
   112					           PK= 0
   113					           D= 0
   114					           IFDIF <ISFUN><><                F= 1 >
   115						XWD  ISFUN,LABL
   116					           IFDIF <LABL><><       L= 1 >
   117					           IFDIF <ISK><>< K= 1
   118					                          IFN PKEY,<PK=1>  >
   119					           IFDIF <ISDT><>< D= 1
   120					                           INX= ISDT&DTNUM
   121					                           DATWD(\INX)= <OFSET>B17!LEN >
   122					           IFIDN <ISDT><EXT>< ISDT=0 >
   123					           N= N+1
   124					           CA <NM>
   125					           IRPC NM,< OFSET= OFSET+1 >
   126					           BYTE (1),F,K,L,PK,D(12)ISDT(6),ISK      >
   127

SNOSYM - Symbol Table Management  %5(222)	MACRO %53B(1156)-1 21:50 14-Mar-88 Page 5
SNOSYM	MAC	20-Nov-66 01:30		INTERNAL(STATIC) SYMBOL TABLE

   128			400000'			BIS(1)
   129	400000'	000000	000000*			ISOP	< >,,CAT$##,5
   130	400001'	1 0000000000 05
   131	400002'	000000	000000*			ISOP	<!>,,ALT$##,2
   132	400003'	1 0000000000 02
   133	400004'	000000	000000			ISOP	<#>,,,3
   134	400005'	1 0000000000 03
   135	400006'	000000*	000000*			ISOP	<$>,IND$##,IMVA$##,12
   136	400007'	1 0000000000 12
   137	400010'	000000	000000			ISOP	<%>,,,4
   138	400011'	1 0000000000 04
   139	400012'	000000*	000000			ISOP	<&>,KEYW$##,,3
   140	400013'	1 0000000000 03
   141	400014'	000000	000000*			ISOP	<*>,,MUL$##,10
   142	400015'	1 0000000000 10
   143	400016'	000000*	000000*			ISOP	<+>,PLUS$##,SUM$##,6
   144	400017'	1 0000000000 06
   145	400020'	000000*	000000*			ISOP	<->,MINUS$##,DIFF$##,6
   146	400021'	1 0000000000 06
   147	400022'	000000*	000000*			ISOP	<.>,NAME$##,CNVA$##,12
   148	400023'	1 0000000000 12
   149	400024'	000000	000000*			ISOP	</>,,DIV$##,7
   150	400025'	1 0000000000 07
   151	400026'	000000	000000*			ISOP	<=>,,ASGN$##,0
   152	400027'	1 0000000000 00
   153	400030'	000000*	000000*			ISOP	<?>,QUEST$##,MTCH$##,1
   154	400031'	1 0000000000 01
   155	400032'	000000*	000000			ISOP	<@>,CURS$##,,3
   156	400033'	1 0000000000 03
   157	400034'	000000*	000000			ISOP	<\>,NEG$##,,3
   158	400035'	1 0000000000 03
   159	400036'	000000	400002*			ISOP	<^>,,ALT$,2
   160	400037'	1 0000000000 02
   161	400040'	000000	400026*			ISOP	<_>,,ASGN$,0
   162	400041'	1 0000000000 00
   163	400042'	000000	400036*			ISOP	<|>,,ALT$,2
   164	400043'	1 0000000000 02
   165	400044'	000000*	000000			ISOP	<~>,NEG$,,3
   166	400045'	1 0000000000 03
   167	400046'	000403	000023			EIS(1)
   168	400047'	000000	000000
   169	400050'	040 041 043 044 045
   170	400051'	046 052 053 055 056
   171	400052'	057 075 077 100 134
   172	400053'	136 137 174 176 000
   173
   174			400054'			BIS(2)
   175	400054'	000000	000000*			ISOP	**,,EXP$##,11
   176	400055'	1 0000000000 11
   177	400056'	000000*	000000			IS	EQ,EQ$##
   178	400057'	200000	000000
   179	400060'	000000*	000000			IS	GE,GE$##
   180	400061'	200000	000000
   181	400062'	000000*	000000			IS	GT,GT$##
SNOSYM - Symbol Table Management  %5(222)	MACRO %53B(1156)-1 21:50 14-Mar-88 Page 5-1
SNOSYM	MAC	20-Nov-66 01:30		INTERNAL(STATIC) SYMBOL TABLE

   182	400063'	200000	000000
   183	400064'	000000*	000000			IS	LE,LE$##
   184	400065'	200000	000000
   185	400066'	000000*	000000			IS	LT,LT$##
   186	400067'	200000	000000
   187	400070'	000000*	000000			IS	NE,NE$##
   188	400071'	200000	000000
   189	400072'	000403	000007			EIS(2)
   190	400073'	000000	000000
   191	400074'	052 052 105 121 107
   192	400075'	105 107 124 114 105
   193	400076'	114 124 116 105 000
   194
   195			400077'			BIS(3)
   196	400077'	000000*	000000			IS	ANY,ANY$##
   197	400100'	200000	000000
   198	400101'	000000	000000			IS	ARB,,3,1
   199	400102'	120000	000300
   200	400103'	000000*	000000			IS	ARG,ARG$##
   201	400104'	200000	000000
   202	400105'	000000	000000			IS	BAL,,4,1
   203	400106'	120000	000400
   204	400107'	000000	000000*			IS	END,,,,END##
   205	400110'	040000	000000
   206	400111'	000000*	000000			IS	LEN,LEN$##
   207	400112'	200000	000000
   208	400113'	000000*	000000			IS	LEQ,LEQ$##
   209	400114'	200000	000000
   210	400115'	000000*	000000			IS	LGE,LGE$##
   211	400116'	200000	000000
   212	400117'	000000*	000000			IS	LGT,LGT$##
   213	400120'	200000	000000
   214	400121'	000000*	000000			IS	LLE,LLE$##
   215	400122'	200000	000000
   216	400123'	000000*	000000			IS	LLT,LLT$##
   217	400124'	200000	000000
   218	400125'	000000*	000000			IS	LNE,LNE$##
   219	400126'	200000	000000
   220	400127'	000000*	000000			IS	POS,POS$##
   221	400130'	200000	000000
   222	400131'	000000	000000			IS	PPN,,22
   223	400132'	100000	002200
   224	400133'	000000	000000			IS	REM,,11,1
   225	400134'	120000	001100
   226	400135'	000000*	000000			IS	RUN,RUN$##
   227	400136'	200000	000000
   228	400137'	000000*	000000			IS	TAB,TAB$##
   229	400140'	200000	000000
   230	400141'	000000*	000000			IS	TTY,TTY$##
   231	400142'	200000	000000
   232	400143'	000403	000022			EIS(3)
   233	400144'	000000	000000
   234	400145'	101 116 131 101 122
   235	400146'	102 101 122 107 102
   236	400147'	101 114 105 116 104
SNOSYM - Symbol Table Management  %5(222)	MACRO %53B(1156)-1 21:50 14-Mar-88 Page 5-2
SNOSYM	MAC	20-Nov-66 01:30		INTERNAL(STATIC) SYMBOL TABLE

   237	400150'	114 105 116 114 105
   238	400151'	121 114 107 105 114
   239	400152'	107 124 114 114 105
   240	400153'	114 114 124 114 116
   241	400154'	105 120 117 123 120
   242	400155'	120 116 122 105 115
   243	400156'	122 125 116 124 101
   244	400157'	102 124 124 131 000
   245

SNOSYM - Symbol Table Management  %5(222)	MACRO %53B(1156)-1 21:50 14-Mar-88 Page 6
SNOSYM	MAC	20-Nov-66 01:30		INTERNAL(STATIC) SYMBOL TABLE

   246			400160'			BIS(4)
   247	400160'	000000*	000000			IS	CODE,CODE$##,42,,,CDT
   248	400161'	314007	004200
   249	400162'	000000*	000000			IS	COPY,COPY$##
   250	400163'	200000	000000
   251	400164'	000000*	000000			IS	DATA,DATA$##
   252	400165'	200000	000000
   253	400166'	000000*	000000			IS	DATE,DATE$##
   254	400167'	200000	000000
   255	400170'	000000*	000000			IS	DUMP,DUMP$##,43
   256	400171'	300000	004300
   257	400172'	000000*	000000			IS	DUPL,DUPL$##
   258	400173'	200000	000000
   259	400174'	000000*	000000			IS	EVAL,EVAL$##
   260	400175'	200000	000000
   261	400176'	000000*	000000			IS	EXIT,EXIT$##
   262	400177'	200000	000000
   263	400200'	000000	000000			IS	FAIL,,5,1
   264	400201'	120000	000500
   265	400202'	000000*	000000			IS	FILE,FILE$##
   266	400203'	200000	000000
   267	400204'	000000*	000000			IS	ITEM,ITEM$##
   268	400205'	200000	000000
   269	400206'	000000*	000000			IS	LOAD,LOAD$##
   270	400207'	200000	000000
   271	400210'	000000*	000000			IS	LPAD,LPAD$##
   272	400211'	200000	000000
   273	400212'	000000	000000			IS	NAME,,21,,,NDT
   274	400213'	114011	002100
   275	400214'	000000	000000			IS	REAL,,,,,RDT
   276	400215'	012002	000000
   277	400216'	000000*	000000			IS	RPAD,RPAD$##
   278	400217'	200000	000000
   279	400220'	000000*	000000			IS	RPOS,RPOS$##
   280	400221'	200000	000000
   281	400222'	000000*	000000			IS	RTAB,RTAB$##
   282	400223'	200000	000000
   283	400224'	000000*	000000			IS	SIZE,SIZE$##,23
   284	400225'	300000	002300
   285	400226'	000000*	000000			IS	SORT,SORT$##
   286	400227'	200000	000000
   287	400230'	000000*	000000			IS	SPAN,SPAN$##
   288	400231'	200000	000000
   289	400232'	000000	000000			IS	STNO,,15
   290	400233'	100000	001500
   291	400234'	000000*	000000			IS	TIME,TIME$##
   292	400235'	200000	000000
   293	400236'	000000*	000000			IS	TRIM,TRIM$##,55
   294	400237'	300000	005500
   295	400240'	000403	000030			EIS(4)
   296	400241'	000000	000000
   297	400242'	103 117 104 105 103
   298	400243'	117 120 131 104 101
   299	400244'	124 101 104 101 124
SNOSYM - Symbol Table Management  %5(222)	MACRO %53B(1156)-1 21:50 14-Mar-88 Page 6-1
SNOSYM	MAC	20-Nov-66 01:30		INTERNAL(STATIC) SYMBOL TABLE

   300	400245'	105 104 125 115 120
   301	400246'	104 125 120 114 105
   302	400247'	126 101 114 105 130
   303	400250'	111 124 106 101 111
   304	400251'	114 106 111 114 105
   305	400252'	111 124 105 115 114
   306	400253'	117 101 104 114 120
   307	400254'	101 104 116 101 115
   308	400255'	105 122 105 101 114
   309	400256'	122 120 101 104 122
   310	400257'	120 117 123 122 124
   311	400260'	101 102 123 111 132
   312	400261'	105 123 117 122 124
   313	400262'	123 120 101 116 123
   314	400263'	124 116 117 124 111
   315	400264'	115 105 124 122 111
   316	400265'	115 000 000 000 000
   317
   318			400266'			BIS(5)
   319	400266'	000000	000000			IS	ABEND,,40
   320	400267'	100000	004000
   321	400270'	000000	000000*			IS	ABORT,,1,1,ABORT##
   322	400271'	160000	000100
   323	400272'	000000*	000000			IS	APPLY,APPLY$##
   324	400273'	200000	000000
   325	400274'	000000*	000000			IS	ARBNO,ARBNO$##
   326	400275'	200000	000000
   327	400276'	000000*	000000			IS	ARRAY,ARRAY$##,,,,ADT
   328	400277'	214005	000000
   329	400300'	000000*	000000			IS	ASCII,ASCII$##
   330	400301'	200000	000000
   331	400302'	000000*	000000			IS	BREAK,BREAK$##
   332	400303'	200000	000000
   333	400304'	000000*	000000			IS	CLEAR,CLEAR$##
   334	400305'	200000	000000
   335	400306'	000000	000000			IS	FENCE,,6,1
   336	400307'	120000	000600
   337	400310'	000000*	000000			IS	FIELD,FIELD$##
   338	400311'	200000	000000
   339	400312'	000000*	000000			IS	IDENT,IDENT$##
   340	400313'	200000	000000
   341	400314'	000000*	000000			IS	INPUT,INPUT$##,50
   342	400315'	300000	005000
   343	400316'	000000	000000			IS	JOBNO,,17
   344	400317'	100000	001700
   345	400320'	000000*	000000			IS	LABEL,LABEL$##
   346	400321'	200000	000000
   347	400322'	000000*	000000			IS	LOCAL,LOCAL$##
   348	400323'	200000	000000
   349	400324'	000000*	000000			IS	MTAPE,MTAPE$##
   350	400325'	200000	000000
   351	400326'	000000*	000000			IS	OPSYN,OPSYN$##
   352	400327'	200000	000000
   353	400330'	000000*	000000			IS	REMDR,REMDR$##
   354	400331'	200000	000000
SNOSYM - Symbol Table Management  %5(222)	MACRO %53B(1156)-1 21:50 14-Mar-88 Page 6-2
SNOSYM	MAC	20-Nov-66 01:30		INTERNAL(STATIC) SYMBOL TABLE

   355	400332'	000000*	000000			IS	RSORT,RSORT$##
   356	400333'	200000	000000
   357	400334'	000000*	000000			IS	TABLE,TABLE$##,,,,TDT
   358	400335'	214010	000000
   359	400336'	000000*	000000			IS	TRACE,TRACE$##,54
   360	400337'	300000	005400
   361					IFN FTDDT,<
   362	400340'	000000*	000000			IS	WHERE,WHERE$##
   363	400341'	200000	000000
   364					>
   365	400342'	000403	000026			EIS(5)
   366	400343'	000000	000000
   367	400344'	101 102 105 116 104
   368	400345'	101 102 117 122 124
   369	400346'	101 120 120 114 131
   370	400347'	101 122 102 116 117
   371	400350'	101 122 122 101 131
   372	400351'	101 123 103 111 111
   373	400352'	102 122 105 101 113
   374	400353'	103 114 105 101 122
   375	400354'	106 105 116 103 105
   376	400355'	106 111 105 114 104
   377	400356'	111 104 105 116 124
   378	400357'	111 116 120 125 124
   379	400360'	112 117 102 116 117
   380	400361'	114 101 102 105 114
   381	400362'	114 117 103 101 114
   382	400363'	115 124 101 120 105
   383	400364'	117 120 123 131 116
   384	400365'	122 105 115 104 122
   385	400366'	122 123 117 122 124
   386	400367'	124 101 102 114 105
   387	400370'	124 122 101 103 105
   388	400371'	127 110 105 122 105
   389

SNOSYM - Symbol Table Management  %5(222)	MACRO %53B(1156)-1 21:50 14-Mar-88 Page 7
SNOSYM	MAC	20-Nov-66 01:30		INTERNAL(STATIC) SYMBOL TABLE

   390			400372'			BIS(6)
   391	400372'	000000	000000			IS	ANCHOR,,41
   392	400373'	100000	004100
   393	400374'	000000*	000000			IS	BREAKX,BRKX$##
   394	400375'	200000	000000
   395	400376'	000000	000000			IS	COMPNO,,60
   396	400377'	100000	006000
   397	400400'	000000*	000000			IS	DEFINE,DFN$##
   398	400401'	200000	000000
   399	400402'	000000*	000000			IS	DELETE,DELET$##
   400	400403'	200000	000000
   401	400404'	000000*	000000			IS	DETACH,DTCH$##
   402	400405'	200000	000000
   403	400406'	000000*	000000			IS	DIFFER,DFFR$##
   404	400407'	200000	000000
   405	400410'	000000	000000			IS	ERRMSG,,26
   406	400411'	100000	002600
   407	400412'	000000	000000			IS	FTRACE,,46
   408	400413'	100000	004600
   409	400414'	000000	000000			IS	LASTNO,,10
   410	400415'	100000	001000
   411	400416'	000000*	000000			IS	NOTANY,NTNY$##
   412	400417'	200000	000000
   413	400420'	000000*	000000			IS	OUTPUT,OUTPT$##,52
   414	400421'	300000	005200
   415	400422'	000000*	000000			IS	RANDOM,RAND$##,57
   416	400423'	300000	005700
   417	400424'	000000*	000000			IS	RENAME,RENAM$##
   418	400425'	200000	000000
   419	400426'	000000	000000*			IS	REPEAT,,,,REPEAT##
   420	400427'	040000	000000
   421	400430'	000000*	000000			IS	RESCAN,RSCN$##
   422	400431'	200000	000000
   423	40	000000	000000*			IS	RETURN,,,,RET##
   424	400433'	040000	000000
   425	400434'	000000*	000000			IS	REWIND,RWND$##
   426	400435'	200000	000000
   427	400436'	000000*	000000			IS	STOPTR,STPTR$##
   428	400437'	200000	000000
   429	400440'	000000	000000			IS	STRING,,,,,SDT
   430	400441'	014003	000000
   431	400442'	000000*	000000			IS	SUBSTR,SBSTR$##
   432	400443'	200000	000000
   433	400444'	000000*	000000			IS	UNLOAD,UNLD$##
   434	400445'	200000	000000
   435	400446'	000403	000026			EIS(6)
   436	400447'	000000	000000
   437	400450'	101 116 103 110 117
   438	400451'	122 102 122 105 101
   439	400452'	113 130 103 117 115
   440	400453'	120 116 117 104 105
   441	400454'	106 111 116 105 104
   442	400455'	105 114 105 124 105
   443	400456'	104 105 124 101 103
SNOSYM - Symbol Table Management  %5(222)	MACRO %53B(1156)-1 21:50 14-Mar-88 Page 7-1
SNOSYM	MAC	20-Nov-66 01:30		INTERNAL(STATIC) SYMBOL TABLE

   444	400457'	110 104 111 106 106
   445	400460'	105 122 105 122 122
   446	400461'	115 123 107 106 124
   447	400462'	122 101 103 105 114
   448	400463'	101 123 124 116 117
   449	400464'	116 117 124 101 116
   450	400465'	131 117 125 124 120
   451	400466'	125 124 122 101 116
   452	400467'	104 117 115 122 105
   453	400470'	116 101 115 105 122
   454	400471'	105 120 105 101 124
   455	400472'	122 105 123 103 101
   456	400473'	116 122 105 124 125
   457	400474'	122 116 122 105 127
   458	400475'	111 116 104 123 124
   459	400476'	117 120 124 122 123
   460	400477'	124 122 111 116 107
   461	400500'	123 125 102 123 124
   462	400501'	122 125 116 114 117
   463	400502'	101 104 000 000 000
   464
   465			400503'			BIS(7)
   466	400503'	000000*	000000			IS	COLLECT,CLLCT$##
   467	400504'	200000	000000
   468	400505'	000000	000000			IS	COMMAND,,20
   469	400506'	100000	002000
   470					IFN FTDDT,<
   471	400507'	000000*	000000			IS	CONNECT,CNCT$##		;CONNECT TO AN EVENT
   472	400510'	200000	000000
   473					>
   474	400511'	000000*	000000			IS	CONVERT,CNVRT$##
   475	400512'	200000	000000
   476	400513'	000000*	000000			IS	ENDFILE,ENDFL$##
   477	400514'	200000	000000
   478	400515'	000000	000000			IS	ERRNAME,,25
   479	400516'	100000	002500
   480	400517'	000000	000000			IS	ERRPARM,,24
   481	400520'	100000	002400
   482	400521'	000000	000000			IS	ERRTYPE,,44
   483	400522'	100000	004400
   484	400523'	000000	000000*			IS	FRETURN,,,,FRET##
   485	400524'	040000	000000
   486	400525'	000000*	000000			IS	INTEGER,INTGR$##,,,,IDT
   487	400526'	212001	000000
   488	400527'	000000	000000*			IS	NRETURN,,,,NRET##
   489	400530'	040000	000000
   490	400531'	000000	000000			IS	NUMERIC,,,,,NUMDC
   491	400532'	012000	000000
   492	400533'	000000	000000			IS	PATTERN,,,,,PDT
   493	400534'	014004	000000
   494	400535'	000000*	000000			IS	REPLACE,RPLC$##
   495	400536'	200000	000000
   496	400537'	000000*	000000			IS	REVERSE,RVRS$##
   497	400540'	200000	000000
   498	400541'	000000	000000			IS	RTNTYPE,,12
SNOSYM - Symbol Table Management  %5(222)	MACRO %53B(1156)-1 21:50 14-Mar-88 Page 7-2
SNOSYM	MAC	20-Nov-66 01:30		INTERNAL(STATIC) SYMBOL TABLE

   499	400542'	100000	001200
   500	400543'	000000*	000000			IS	SETEXIT,STXT$##
   501	400544'	200000	000000
   502	400545'	000000	000000			IS	STCOUNT,,13
   503	400546'	100000	001300
   504	400547'	000000	000000			IS	STLIMIT,,53
   505	400550'	100000	005300
   506	400551'	000000	000000			IS	SUCCEED,,16,1
   507	400552'	120000	001600
   508	400553'	000000	000000			IS	VERSION,,63
   509	400554'	100000	006300
   510	400555'	000403	000025			EIS(7)
   511	400556'	000000	000000
   512	400557'	103 117 114 114 105
   513	400560'	103 124 103 117 115
   514	400561'	115 101 116 104 103
   515	400562'	117 116 116 105 103
   516	400563'	124 103 117 116 126
   517	400564'	105 122 124 105 116
   518	400565'	104 106 111 114 105
   519	400566'	105 122 122 116 101
   520	400567'	115 105 105 122 122
   521	400570'	120 101 122 115 105
   522	400571'	122 122 124 131 120
   523	400572'	105 106 122 105 124
   524	400573'	125 122 116 111 116
   525	400574'	124 105 107 105 122
   526	400575'	116 122 105 124 125
   527	400576'	122 116 116 125 115
   528	400577'	105 122 111 103 120
   529	400600'	101 124 124 105 122
   530	400601'	116 122 105 120 114
   531	400602'	101 103 105 122 105
   532	400603'	126 105 122 123 105
   533	400604'	122 124 116 124 131
   534	400605'	120 105 123 105 124
   535	400606'	105 130 111 124 123
   536	400607'	124 103 117 125 116
   537	400610'	124 123 124 114 111
   538	400611'	115 111 124 123 125
   539	400612'	103 103 105 105 104
   540	400613'	126 105 122 123 111
   541	400614'	117 116 000 000 000
   542
   543			400615'			BIS(10)
   544	400615'	000000	000000			IS	ALPHABET,,2
   545	400616'	100000	000200
   546	400617'	000000	000000*			IS	CONTINUE,,,,CONTIN##
   547	400620'	040000	000000
   548	400621'	000000*	000000			IS	DATATYPE,DTTP$##
   549	400622'	200000	000000
   550	400623'	000000	000000			IS	ERRLEVEL,,62
   551	400624'	100000	006200
   552	400625'	000000	000000			IS	ERRLIMIT,,45
   553	400626'	100000	004500
SNOSYM - Symbol Table Management  %5(222)	MACRO %53B(1156)-1 21:50 14-Mar-88 Page 7-3
SNOSYM	MAC	20-Nov-66 01:30		INTERNAL(STATIC) SYMBOL TABLE

   554	400627'	000000	000000			IS	EXTERNAL,,,,,EXT
   555	400630'	010000	000000
   556	400631'	000000	000000			IS	FNCLEVEL,,7
   557	400632'	100000	000700
   558	400633'	000000	000000			IS	FULLSCAN,,47
   559	400634'	100000	004700
   560	400635'	000000*	000000			IS	FUNCTION,FUNCT$##
   561	400636'	200000	000000
   562					IFN FTDDT,<
   563	400637'	000000*	000000			IS	INSERTBP,IBP$##		;INSERT A BREAK POINT
   564	400640'	200000	000000
   565					>
   566	400641'	000000	000000			IS	MAXLNGTH,,51
   567	400642'	100000	005100
   568					IFN FTDDT,<
   569	400643'	000000*	000000			IS	REMOVEBP,RBP$##		;REMOVE A BREAK POINT
   570	400644'	200000	000000
   571					>
   572	400645'	000000	000000			IS	STFCOUNT,,14
   573	400646'	100000	001400
   574	400647'	000403	000015			EIS(10)
   575	400650'	000000	000000
   576	400651'	101 114 120 110 101
   577	400652'	102 105 124 103 117
   578	400653'	116 124 111 116 125
   579	400654'	105 104 101 124 101
   580	400655'	124 131 120 105 105
   581	400656'	122 122 114 105 126
   582	400657'	105 114 105 122 122
   583	400660'	114 111 115 111 124
   584	400661'	105 130 124 105 122
   585	400662'	116 101 114 106 116
   586	400663'	103 114 105 126 105
   587	400664'	114 106 125 114 114
   588	400665'	123 103 101 116 106
   589	400666'	125 116 103 124 111
   590	400667'	117 116 111 116 123
   591	400670'	105 122 124 102 120
   592	400671'	115 101 130 114 116
   593	400672'	107 124 110 122 105
   594	400673'	115 117 126 105 102
   595	400674'	120 123 124 106 103
   596	400675'	117 125 116 124 000
   597
   598			400676'			BIS(11)
   599					IFN FTPAV,<
   600	400676'	000000*	000000			IS	ASSOCIATE,ASSC$##,61	;FOR PROGRAMMER-DEFINED ASSOCIATIONS
   601	400677'	300000	006100
   602					>
   603	400700'	000000	000000			IS	HISTOGRAM,,56
   604	400701'	100000	005600
   605	400702'	000000*	000000			IS	PROTOTYPE,PROTO$##
   606	400703'	200000	000000
   607	400704'	000403	000003			EIS(11)
   608	400705'	000000	000000
SNOSYM - Symbol Table Management  %5(222)	MACRO %53B(1156)-1 21:50 14-Mar-88 Page 7-4
SNOSYM	MAC	20-Nov-66 01:30		INTERNAL(STATIC) SYMBOL TABLE

   609	400706'	101 123 123 117 103
   610	400707'	111 101 124 105 110
   611	400710'	111 123 124 117 107
   612	400711'	122 101 115 120 122
   613	400712'	117 124 117 124 131
   614	400713'	120 105 000 000 000
   615
   616			400714'			BIS(12)
   617					IFN FTDDT,<
   618	400714'	000000*	000000			IS	DISCONNECT,DCNCT$##	;DISCONNECT AN EVENT
   619	400715'	200000	000000
   620					>
   621	400716'	000000	000000			IS	EXPRESSION,,,,,EDT
   622	400717'	014006	000000
   623	400720'	000403	000002			EIS(12)
   624	400721'	000000	000000
   625	400722'	104 111 123 103 117
   626	400723'	116 116 105 103 124
   627	400724'	105 130 120 122 105
   628	400725'	123 123 111 117 116
   629					IFN FTPAV,<
   630			400726'			BIS	(13)
   631	400726'	000403	000000			EIS	(13)
   632	400727'	000000	000000
   633	400730'	000 000 000 000 000
   634			400731'			BIS	(14)
   635	400731'	000000*	000000			IS	DISASSOCIATE,DASSC$##	;UNDO ASSOCIATIONS
   636	400732'	200000	000000
   637	400733'	000403	000001			EIS	(14)
   638	400734'	000000	000000
   639	400735'	104 111 123 101 123
   640	400736'	123 117 103 111 101
   641	400737'	124 105 000 000 000
   642					>;END OF IFN FTPAV
SNOSYM - Symbol Table Management  %5(222)	MACRO %53B(1156)-1 21:50 14-Mar-88 Page 8
SNOSYM	MAC	20-Nov-66 01:30		INTERNAL(STATIC) SYMBOL TABLE

   643			000000			I= 0
   644	400740'				ISTDTP::
   645						REPEAT	MAXDTN,< OFFLEN==DATWD(\I)
   646							XWD SDT,IST(\<OFFLEN&77>)
   647							EXP OFFLEN
   648								I= I+1       >
   649	400740'	004003	400647'
   650	400741'	000050	000010
   651	400742'	004003	400555'
   652	400743'	000077	000007
   653	400744'	004003	400240'
   654	400745'	000070	000004
   655	400746'	004003	400446'
   656	400747'	000162	000006
   657	400750'	004003	400555'
   658	400751'	000124	000007
   659	400752'	004003	400342'
   660	400753'	000024	000005
   661	400754'	004003	400720'
   662	400755'	000012	000012
   663	400756'	004003	400240'
   664	400757'	000000	000004
   665	400760'	004003	400342'
   666	400761'	000137	000005
   667	400762'	004003	400240'
   668	400763'	000064	000004
   669			000012
   670			000001			I= 1
   671	400764'	000000	000000		STABLE:: 0
   672						REPEAT	MXISC,< IST(\I)
   673								I= I+1    >
   674	400765'	000000	400046'
   675	400766'	000000	400072'
   676	400767'	000000	400143'
   677	400770'	000000	400240'
   678	400771'	000000	400342'
   679	400772'	000000	400446'
   680	400773'	000000	400555'
   681	400774'	000000	400647'
   682	400775'	000000	400704'
   683	400776'	000000	400720'
   684	400777'	000000	400726'
   685	401000'	000000	400733'
   686			000015
   687			000001			I= 1
   688	401001'	000000	000000		DTABLE:: 0
   689						REPEAT	MXISC,< ISD(\I)
   690								I= I+1   >
   691	401002'	000000	400000'
   692	401003'	000000	400054'
   693	401004'	000000	400077'
   694	401005'	000000	400160'
   695	401006'	000000	400266'
   696	401007'	000000	400372'
   697	401010'	000000	400503'
SNOSYM - Symbol Table Management  %5(222)	MACRO %53B(1156)-1 21:50 14-Mar-88 Page 8-1
SNOSYM	MAC	20-Nov-66 01:30		INTERNAL(STATIC) SYMBOL TABLE

   698	401011'	000000	400615'
   699	401012'	000000	400676'
   700	401013'	000000	400714'
   701	401014'	000000	400726'
   702	401015'	000000	400731'
   703			000015
   704
   705	401016'				ISPREC::
   706	401016'	000005	000004			XWD	5,4
   707	401017'	000007	000006			XWD	7,6
   708	401020'	000012	000013			XWD	12,13
   709	401021'	000020	000021			XWD	20,21
   710	401022'	000024	000025			XWD	24,25
   711	401023'	000030	000031			XWD	30,31
   712	401024'	000040	000041			XWD	40,41
   713	401025'	000050	000051			XWD	50,51
   714	401026'	000054	000055			XWD	54,55
   715	401027'	000065	000064			XWD	65,64
   716	401030'	000070	000071			XWD	70,71
   717
   718	401031'				VARPRO::
   719	401031'	004003	000000			XWD	SDT,0
   720	401032'	000000	000000			OCT	0,0
   721	401033'	000000	000000
   722	401034'	000000	000000*			XWD	0,UNDEF$
   723	401035'	000000	000000			OCT	0,0,0
   724	401036'	000000	000000
   725	401037'	000000	000000
   726

SNOSYM - Symbol Table Management  %5(222)	MACRO %53B(1156)-1 21:50 14-Mar-88 Page 9
SNOSYM	MAC	20-Nov-66 01:30		PRIMARY ROUTINES -- CLEAR

   727						SUBTTL	PRIMARY ROUTINES -- CLEAR
   728					;   CLEAR(STRING,ARG) WILL CAUSE THE VALUES OF VARIABLES IN THE
   729					;   SYMBOL TABLE TO BE SET TO NULL.  THE FIRST ARGUMENT IS A
   730					;   STRING WHICH LISTS THE VARIABLE NAMES, SEPERATED BY
   731					;   COMMAS, OF THOSE VARIABLES WHOSE VALUE IS TO BE LEFT
   732					;   UNCHANGED.  IF A SECOND NON-NULL ARGUMENT IS SUPPLIED, THEN
   733					;   ALL VARIABLES CONTAINING PATTERN VALUES ARE LEFT UNCHANGED.
   734					;
   735	401040'				CLEAR::
   736	401040'	400 05 0 00 000000 	        SETZ    P2,             ;PATTERN VAL. VARIABLE INDICATOR
   737	401041'	262 01 0 00 000000 	        POP     STACK,Z         ;2ND WD OF DESCR. - 2ND ARG
   738	401042'	262 01 0 00 000007 	        POP     STACK,S2        ;1ST  " "    "         "
   739	401043'	312 07 0 00 000000*	        CAME    S2,NULLST##       ;SKIP IF 2ND ARG IS NULL
   740	401044'	541 05 0 00 000001 	        HRRI    P2,1            ;DON'T CLEAR PATTERN VAL. VAR.
   741	401045'	200 00 0 00 401043*	        MOVE    Z,NULLST        ;NULL DESCR.
   742	401046'	400 06 0 00 000000 	        SETZ    S1,             ;COUNT OF SPECIAL VARIABLES
   743	401047'	312 00 0 01 777777 	        CAME    Z,-1(STACK)     ;SKIP IF 1ST ARG IS NULL
   744	401050'	254 00 0 00 401053'	        JRST    BRKST           ;JUMP TO BREAK UP STR OF PROT. VAR.
   745	401051'	274 01 0 00 401520'		SUB	STACK,[2,,2]	; POP DESCR
   746	401052'	254 00 0 00 401076'		JRST	VARCL		; JOIN OTHER PROCESSING
   747
   748	401053'	265 11 0 00 000000*	BRKST:  JSP     TLINK,STINIT##  ;INITIALIZE STRM
   749	401054'	003 01 0 00 000067 		ERROR.	1,55		;BAD 1ST ARG - NOT STRING
   750	401055'	200 07 0 00 000000*	        MOVE    S2,SYSCT##        ;SYSTEM CHAR. TBL ADDR
   751	401056'	205 10 0 00 001000 	       MOVX    S3,Y.CM		;COMMA MASK
   752
   753	401057'	340 06 0 00 000000 	CLOOP:  AOJ     S1,             ;INCREMENT VAR. COUNT
   754	401060'	265 11 0 00 000000*	        JSP     TLINK,STRM##    ;STREAM FOR COMMA
   755	401061'	201 10 0 00 000000 	        MOVEI   S3,0            ;ZERO MASK - LAST VARIABLE
   756	401062'	265 11 0 00 401445'	        JSP     TLINK,LOCATE  ;GET ADDR OF VAR BLK
   757	401063'	364 06 0 00 401072'	        SOJA    S1,CLOOP1       ;STRING NOT LOCATED
   758	401064'	200 16 0 00 000000 	        MOVE    Q2,Z            ;ADDR OF VAR BLK
   759	401065'	265 15 0 00 000000*	        JSP     QLINK,LOCVAL##  ;LOCATE VALUE OF DESCR.
   760	401066'	261 01 0 16 000000 	        PUSH    STACK,VALUE(Q2) ;STORE VALUE DESCR.
   761	401067'	261 01 0 16 000001 	        PUSH    STACK,VALUE+1(Q2)
   762	401070'	261 01 0 00 000000#	        PUSH    STACK,NULLST+1  ;STORE DUMMY VALUE - PAIR
   763	401071'	261 01 0 00 000016 	        PUSH    STACK,Q2        ;STORE ADDR OF VALUE DESCR.
   764	401072'	322 10 0 00 401076'	CLOOP1: JUMPE   S3,VARCL        ;JUMP IF LAST VAR.
   765	401073'	370 00 0 00 000000*	        SOS     CURSOR##          ;DECREMENT CURSOR POSITION
   766	401074'	133 00 0 00 000000*	        IBP     STPTR##           ;SKIP OVER COMMA
   767	401075'	254 00 0 00 401057'	        JRST    CLOOP           ;CONTINUE LOADING VALUES
   768

SNOSYM - Symbol Table Management  %5(222)	MACRO %53B(1156)-1 21:50 14-Mar-88 Page 10
SNOSYM	MAC	20-Nov-66 01:30		PRIMARY ROUTINES -- CLEAR

   769	401076'	202 06 0 00 000000*	VARCL:  MOVEM   S1,IGNOS        ;SAVE VARIABLE COUNT
   770	401077'	200 11 0 00 401045*	        MOVE    T1,NULLST       ;NULL DESCR.
   771	401100'	200 12 0 00 000000*	        MOVE    T2,VTABLE##       ;ADDR OF 1ST WD IN HASH TBL
   772	401101'	200 13 0 00 000012 	        MOVE    T3,T2
   773	401102'	270 13 0 00 000000*		ADD	T3,LVTBL##	;addr of last word +1 in table
   774	401103'	275 12 0 00 000001 	        SUBI    T2,1            ;SET UP HASH TBL ADDR WD
   775	401104'	340 12 0 00 000000 	NXHSH:  AOJ     T2,             ;INCREMENT HASH TBL ADDR
   776	401105'	311 12 0 00 000013 	        CAML    T2,T3           ;SKIP IF NOT AT END OF TBL
   777	401106'	254 00 0 00 401125'	        JRST    CLSTK           ;JUMP IF FINISHED CLEARING
   778	401107'	200 06 0 12 000000 	        MOVE    S1,0(T2)        ;NXT HASH TBL ENTRY
   779	401110'	322 06 0 00 401104'	        JUMPE   S1,NXHSH        ;JMP IF HASH ENTRY IS 0 - NO CHAIN
   780	401111'	606 05 0 00 000001 	NXVBL:  TRNN    P2,1            ;SKIP IF MUST CHK FOR PDT
   781	401112'	254 00 0 00 401116'	        JRST    CLVAR           ;JUMP TO CLEAR VAR.
   782	401113'	554 10 0 06 000000 	        HLRZ    S3,VALUE(S1)    ;GET DATATYPE
   783	401114'	306 10 0 00 004004 	        CAIN    S3,PDT          ;SKIP IF NOT PDT - CLEAR
   784	401115'	254 00 0 00 401122'	        JRST    NXLNK           ;DON'T CLEAR - GET NXT VAR.
   785	401116'	200 16 0 00 000006 	CLVAR:  MOVE    Q2,S1           ;ADDR OF DESCR.
   786	401117'	265 15 0 00 401065*	        JSP     QLINK,LOCVAL##  ;LOCATE VALUE DESCR.
   787	401120'	202 11 0 16 000000 	        MOVEM   T1,VALUE(Q2)    ;CLEAR VAR. - SET NULL
   788	401121'	402 00 0 16 000001 	        SETZM   VALUE+1(Q2)
   789	401122'	550 06 0 06 000006 	NXLNK:  HRRZ    S1,VLINK(S1)    ;NXT VAR. ON CHAIN
   790	401123'	322 06 0 00 401104'	        JUMPE   S1,NXHSH        ;JUMP IF LAST LINK ON CHAIN
   791	401124'	254 00 0 00 401111'	        JRST    NXVBL           ;PROCESS NXT VAR. ON CHAIN
   792
   793	401125'	200 12 0 00 401076*	CLSTK:  MOVE    T2,IGNOS##        ;COUNT OF VAR. ON STACK
   794	401126'	361 12 0 00 000000*	RSTVL:  SOJL    T2,RETNUL##       ;JUMP IF DONE - RET NULL STR
   795	401127'	262 01 0 00 000006 	        POP     STACK,S1        ;ADDR OF VAR. DESCR.
   796	401130'	262 01 0 00 000000 	        POP     STACK,Z         ;DUMMY PAIRED VALUE
   797	401131'	262 01 0 06 000001 	        POP     STACK,VALUE+1(S1) ;RESTORE VALUE OF VARIABLE
   798	401132'	262 01 0 06 000000 	        POP     STACK,VALUE(S1)
   799	401133'	254 00 0 00 401126'	        JRST    RSTVL           ;CONTINUE
   800

SNOSYM - Symbol Table Management  %5(222)	MACRO %53B(1156)-1 21:50 14-Mar-88 Page 11
SNOSYM	MAC	20-Nov-66 01:30		PRIMARY ROUTINES -- DATATYPE

   801						SUBTTL	PRIMARY ROUTINES -- DATATYPE
   802					;   DATATYPE(ARG) RETURNS A STRING DESCRIPTOR OF THE FORMAL
   803					;   IDENTIFICATION OF THE DATATYPE OF ITS ARGUMENT.  IF THE
   804					;   DATATYPE CANNOT BE IDENTIFIED, A FORMAL IDENTIFICATION
   805					;   OF 'EXTERNAL' IS RETURNED
   806					;
   807	401134'				DTTP::
   808	401134'	265 15 0 00 401251'	        JSP     QLINK,DTNAME    ;GET STR DESCR. OF DATATYPE
   809	401135'	265 00 0 04 000001 	        JSP     1(PLINK)        ;NORMAL RETURN
   810
   811

SNOSYM - Symbol Table Management  %5(222)	MACRO %53B(1156)-1 21:50 14-Mar-88 Page 12
SNOSYM	MAC	20-Nov-66 01:30		PRIMARY ROUTINES -- FUNCTION(NAME)

   812						SUBTTL	PRIMARY ROUTINES -- FUNCTION(NAME)
   813
   814					; PREDICATE TO DETERMINE WHETHER THE GIVEN
   815					; NAME IS THE NAME OF A FUNCTION
   816
   817
   818	401136'	265 11 0 00 000000*	FUNCT::	JSP	TLINK,CVTNAM##	; ENSURE A NAME
   819	401137'	254 00 0 00 401153'		 JRST	FUNCT2		;[222] Failed - Check for null string
   820
   821	401140'	332 00 0 01 000000 		SKIPE	0(STACK)	; NATURAL?
   822	401141'	254 00 0 00 000000*		JRST	FRET1##		; FAIL IF NOT
   823
   824	401142'	550 11 0 01 777777 		HRRZ	T1,-1(STACK)	; ADDRESS OF VBLOCK
   825	401143'	550 12 0 11 000003 		HRRZ	T2,VFUNC(T1)	; ADDRESS OF FBLOK
   826
   827	401144'	306 12 0 00 401034*	FUNCT1:	CAIN	T2,UNDEF$##	; UNDEFINED?
   828	401145'	254 00 0 00 401141*		JRST	FRET1##		; YES, FAIL
   829
   830	401146'	554 13 0 12 000000 		HLRZ	T3,BTCODE(T2)	; GET CODE
   831	401147'	302 13 0 00 000424 		CAIE	T3,TFBLOK	; IS IT BEING TRACED?
   832	401150'	254 00 0 00 000000*		JRST	RETNL1##	; NO - SUCCEED
   833
   834	401151'	550 12 0 12 000004 		HRRZ	T2,TFOLD(T2)	; PICK UP OLD FUNCTION
   835	401152'	254 00 0 00 401144'		JRST	FUNCT1		; AND LOOP BACK
   836
   837
   838					;[222] Here to check for a null string in the call to FUNCTION.
   839					;[222] FAIL IF THE STRING IS NULL, ELSE GIVE THE 1.73 ERROR.
   840
   841	401153'	200 00 0 01 777777 	FUNCT2:	MOVE	Z,-1(STACK)	;[222] Get the first word of the arg
   842	401154'	312 00 0 00 401077*		CAME	Z,NULLST	;[222] Is this the null string ?
   843	401155'	003 01 0 00 000111 		 ERROR.	1,73		;[222] No - Bad data type
   844	401156'	254 00 0 00 401145*		JRST	FRET1		;[222] Yes - Give a fail return
SNOSYM - Symbol Table Management  %5(222)	MACRO %53B(1156)-1 21:50 14-Mar-88 Page 13
SNOSYM	MAC	20-Nov-66 01:30		Primary Routines -- LABEL(NAME)

   845						SUBTTL	Primary Routines -- LABEL(NAME)
   846
   847					; LABEL(NAME) IS A PREDICATE TO TEST
   848					; WHETER NAME IS THE NAME OF A LABEL.
   849
   850	401157'				LABEL::
   851					IFN FTDDT,<
   852	401157'	265 11 0 00 000000*		JSP	TLINK,CVTINT##	;CONVERT SECOND ARGUMENT TO INTEGER
   853	401160'	003 01 0 00 000466 		 ERROR.	1,310		;FAILED -- BAD ARGUMENT
   854	401161'	336 00 0 01 000000 		SKIPN	(STACK)		;IS OFFSET ?
   855	401162'	254 00 0 00 401166'		 JRST	LABL1		;NO -- TRY FOR LABEL OR SYSTEM LABEL
   856
   857						; SEARCH FOR DESIRED STATEMENT
   858
   859	401163'	265 06 0 00 000000*		JSP	SLINK,CVTLAB##	;CONVERT TO CODE
   860	401164'	254 00 0 00 000000*		 JRST	FRET2##		;YES LOSE
   861	401165'	254 00 0 00 401150*		JRST	RETNL1		;WINNER !
   862
   863						;HERE IF WE JUST WANT LABEL WITH NO OFFSET
   864
   865	401166'	274 01 0 00 401520'	LABL1:	SUB	STACK,[2,,2]	;TOSS OFF OFFSET
   866					>;END OF IFN FTDDT
   867
   868	401167'	265 11 0 00 401136*		JSP	TLINK,CVTNAM	; ENSURE A NAME
   869	401170'	254 00 0 00 401201'		 JRST	LABL2		;[222] Check for null string
   870	401171'	332 00 0 01 000000 		SKIPE	0(STACK)	; NATURAL?
   871	401172'	254 00 0 00 401156*		JRST	FRET1		; NO, FAIL
   872
   873	401173'	550 11 0 01 777777 		HRRZ	T1,-1(STACK)	; ADDR OF NAT. VAR.
   874	401174'	200 12 0 11 000002 		MOVE	T2,VLABEL(T1)	; GET LABEL
   875	401175'	335 00 0 11 000006 		SKIPGE	VFLAGS(T1)	; OPERATORS ALWAYS
   876	401176'	254 00 0 00 401172*		JRST	FRET1		; LOSE
   877
   878	401177'	322 12 0 00 401176*		JUMPE	T2,FRET1	; NO LABEL? FAIL
   879	401200'	254 00 0 00 401165*		JRST	RETNL1		; OTHERWISE ASSUME A LABEL
   880
   881
   882
   883					;[222] Here to check for the null string.  If it is null then
   884					;[222] give a fail return, else give a 1.74 error (bad datatype)
   885
   886	401201'	200 00 0 01 777777 	LABL2:	MOVE	Z,-1(STACK)	;[222] Get the first word of the arg
   887	401202'	312 00 0 00 401154*		CAME	Z,NULLST	;[222] Is this the null string ?
   888	401203'	003 01 0 00 000112 		 ERROR.	1,74		;[222] No - Bad argument
   889	401204'	254 00 0 00 401177*		JRST	FRET1		;[222] Yes - Give the fail return
SNOSYM - Symbol Table Management  %5(222)	MACRO %53B(1156)-1 21:50 14-Mar-88 Page 14
SNOSYM	MAC	20-Nov-66 01:30		PRIMARY ROUTINES -- OPSYN

   890						SUBTTL	PRIMARY ROUTINES -- OPSYN
   891
   892
   893					;   OPSYN(NAME1,NAME2,ARG) CAUSES THE FUNCTION NAME IN THE FIRST
   894					;   ARGUMENT TO BE DEFINED TO HAVE THE SAME DEFINITION AS THE
   895					;   FUNCTION NAMED IN THE SECOND ARGUMENT.  IF EITHER OR BOTH OF
   896					;   THE FIRST TWO ARGUMENTS ARE OPERATORS THEN THE THIRD ARGUMENT
   897					;   WILL DETERMINE IF THE UNARY(ARG=1) OR BINARY(ARG=2) OPERATION
   898					;   IS BEING REFERENCED.  DEFAULT IS THE BINARY OPERATION.
   899					;
   900	401205'				OPSYN::
   901	401205'	265 11 0 00 401157*	        JSP     TLINK,CVTINT##    ;CONVERT 3RD ARG TO INTEGER
   902	401206'	003 01 0 00 000110 		ERROR.	1,72		;BAD 3RD ARGUMENT
   903	401207'	262 01 0 00 000005 	        POP     STACK,P2        ;VALUE OF INTEGER
   904	401210'	262 01 0 00 000000 	        POP     STACK,Z         ;DON'T CARE
   905	401211'	305 05 0 00 000000 	        CAIGE   P2,0            ;SKIP IF 3RD ARG GE 0
   906	401212'	001 15 0 00 000056 		ERROR	13,46		;BAD 3RD ARG - NEGATIVE
   907	401213'	303 05 0 00 000002 	        CAILE   P2,2            ;SKIP IF 3RD ARG LE 2
   908	401214'	001 15 0 00 000056 		ERROR	13,46		;BAD 3RD ARG - TOO LARGE
   909	401215'	265 11 0 00 401167*	        JSP     TLINK,CVTNAM##  ;CONV. 2ND ARG TO NAME
   910	401216'	003 01 0 00 000117 		 ERROR.	1,79		;BAD 2ND ARG
   911	401217'	332 00 0 01 000000 		SKIPE	(STACK)		;[221] Natural variable ?
   912	401220'	003 01 0 00 000117 		 ERROR.	1,79		;[221] No - BAD ARGUMENT
   913	401221'	262 01 0 00 000000 	        POP     STACK,Z         ;2ND WD OF DESCR.
   914	401222'	262 01 0 00 000007 	        POP     STACK,S2        ;1ST WD OF DESCR.
   915	401223'	501 07 0 00 000000 	        HLLI    S2,0            ;ADDR OF VAR BLK - 2ND ARG
   916	401224'	265 11 0 00 401215*	        JSP     TLINK,CVTNAM##  ;CONV. 1ST ARG TO NAME
   917	401225'	003 01 0 00 000116 		 ERROR.	1,78		;BAD 1ST ARG
   918	401226'	332 00 0 01 000000 		SKIPE	(STACK)		;[221] Natural variable ?
   919	401227'	003 01 0 00 000116 		 ERROR.	1,78		;[221] No - Bad argument
   920	401230'	262 01 0 00 000000 	        POP     STACK,Z         ;2ND WD OF DESCR.
   921	401231'	262 01 0 00 000006 	        POP     STACK,S1        ;1ST WD OF DESCR.
   922	401232'	501 06 0 00 000000 	        HLLI    S1,0            ;ADDR OF VAR BLK - 1ST ARG
   923	401233'	306 05 0 00 000001 	        CAIN    P2,1            ;SKIP IF NOT UNARY
   924	401234'	254 00 0 00 401241'	        JRST    OPUN            ;JUMP FOR UNARY OPERATOR
   925	401235'	200 17 0 07 000003 	        MOVE    Q3,VFUNC(S2)    ;FBLOK OR VBINRY FOR 2ND ARG
   926	401236'	201 16 0 06 000003 	        MOVEI   Q2,VFUNC(S1)    ;ADDR OF FBLOK OR VBINRY FLD IN 1ST ARG
   927	401237'	265 15 0 00 000000*	        JSP     QLINK,IFBLOK##  ;SET FIELD FOR 1ST VARIABLE
   928	401240'	254 00 0 00 401126*	        JRST    RETNUL##        ;RETURN NULL STR ON STACK
   929	401241'	200 17 0 07 000002 	OPUN:   MOVE    Q3,VUNARY(S2)   ;GET UNARY FLD FOR OPERATOR
   930	401242'	331 00 0 07 000006 	        SKIPL   VFLAGS(S2)      ;SKIP IF 2ND ARG IS OPER.
   931	401243'	200 17 0 07 000003 	        MOVE    Q3,VFUNC(S2)    ;GET FUNC FLD FOR FUNCTION
   932	401244'	201 16 0 06 000002 	        MOVEI   Q2,VUNARY(S1)   ;ADDR OF UNARY FLD FOR ARG 1
   933	401245'	331 00 0 06 000006 	        SKIPL   VFLAGS(S1)      ;SKIP IF 1ST ARG IS OPER.
   934	401246'	201 16 0 06 000003 	        MOVEI   Q2,VFUNC(S1)    ;ADDR OF FUNC FLD FOR ARG 1
   935	401247'	265 15 0 00 401237*	        JSP     QLINK,IFBLOK##  ;SET FIELD FOR 1ST ARG
   936	401250'	254 00 0 00 401240*	        JRST    RETNUL          ;RETURN NULL STR ON STACK
   937

SNOSYM - Symbol Table Management  %5(222)	MACRO %53B(1156)-1 21:50 14-Mar-88 Page 15
SNOSYM	MAC	20-Nov-66 01:30		DTNAME - TO DEFINE DATATYPE OF DESCRIPTOR

   938					        SUBTTL  DTNAME - TO DEFINE DATATYPE OF DESCRIPTOR
   939					;
   940					;   CALLING SEQUENCE:
   941					;                  PUSH DESCRIPTOR(ANY TYPE) ONTO STACK
   942					;                  JSP  QLINK,DTNAME
   943					;                  RETURN - STRING DESCRIPTOR OF DATATYPE ON STACK.
   944					;                           IF DATATYPE UNKNOWN, STRING DESCRIPTOR
   945					;                           FOR 'EXTERNAL' ON STACK.
   946					;
   947	401251'				DTNAME::
   948	401251'	262 01 0 00 000000 	        POP     STACK,Z         ;2ND WD OF DESCR.
   949	401252'	262 01 0 00 000017 	        POP     STACK,Q3        ;1ST WD OF DESCR.
   950	401253'	554 16 0 00 000017 	        HLRZ    Q2,Q3           ;ISOLATE DATATYPE
   951	401254'	306 16 0 00 004012 	        CAIN    Q2,DDT          ;SKIP IF NOT DEFINED DATATYPE
   952	401255'	254 00 0 00 401265'	        JRST    DEFDAT          ;JUMP FOR DEFINED DATATYPE
   953	401256'	405 16 0 00 000077 	        ANDI    Q2,DTNUM        ;ISOLATE RIGHT 6 BITS
   954	401257'	301 16 0 00 000012 	        CAIL    Q2,MAXDTN       ;SKIP IF KNOWN DATATYPE
   955	401260'	400 16 0 00 000000 	        SETZ    Q2,             ;UNKNOWN DTP - EXTERNAL INDEX
   956	401261'	240 16 0 00 000001 	        ASH     Q2,1            ;GET INDEX TO DATATYPE TBL
   957	401262'	261 01 0 16 400740'	        PUSH    STACK,ISTDTP(Q2) ;1ST WD OF STR DESCR.
   958	401263'	261 01 0 16 400741'	        PUSH    STACK,ISTDTP+1(Q2) ;2ND WD OF STR DESCR.
   959	401264'	265 00 0 15 000000 	        JSP     0(QLINK)        ;NORMAL RETURN
   960	401265'	550 16 0 17 000002 	DEFDAT: HRRZ    Q2,ADFBLK(Q3)   ;ADDR OF DFBLOK
   961	401266'	550 16 0 16 000004 	        HRRZ    Q2,DFNAME(Q2)   ;ADDR OF VAR BLK
   962	401267'	261 01 0 16 000004 	        PUSH    STACK,VNAME(Q2) ;1ST WD OF STR DESCR.
   963	401270'	261 01 0 16 000005 	        PUSH    STACK,VNAME+1(Q2) ;2ND WD OF STR DESCR.
   964	401271'	265 00 0 15 000000 	        JSP     0(QLINK)        ;NORMAL RETURN
   965

SNOSYM - Symbol Table Management  %5(222)	MACRO %53B(1156)-1 21:50 14-Mar-88 Page 16
SNOSYM	MAC	20-Nov-66 01:30		INSTAL - LOCATE OR INSTAL A SYMBOL

   966					        SUBTTL  INSTAL - LOCATE OR INSTAL A SYMBOL
   967					;
   968					;   CALLING SEQUENCE:
   969					;                  PUSH STRING DESCRIPTOR ONTO STACK(MUST BE STRING)
   970					;                  JSP  TLINK,INSTAL
   971					;                  FAIL RETURN - STACK POPPED
   972					;                  SUCCESS RETURN - STACK POPPED, ADDRESS OF
   973					;                                   VARIABLE BLOCK IN REG 0.
   974					;
   975
   976	401272'				INSTAL::
   977	401272'	202 11 0 00 000000*	        MOVEM   TLINK,TLNKSV##    ;SAVE TLINK
   978	401273'	265 11 0 00 401445'	        JSP     TLINK,LOCATE    ;LOCATE BLOCK
   979	401274'	254 00 0 00 401277'	        JRST    INST1           ;CONTINUE IF NOT LOCATED
   980	401275'	200 11 0 00 401272*	        MOVE    TLINK,TLNKSV    ;RESTORE TLINK
   981	401276'	254 00 0 11 000001 	        JRST    1(TLINK)        ;SUCCESS RETURN
   982	401277'	326 00 0 00 401301'	INST1:  JUMPN   Z,INST2         ;JUMP IF STRING GOOD
   983	401300'	254 00 1 00 401275*	        JRST    @TLNKSV         ;FAIL RETURN - BAD STR DESCR.
   984	401301'	200 12 0 00 000000 	INST2:  MOVE    T2,Z            ;ADDR OF VLINK FIELD
   985	401302'	200 13 0 00 000000*	        MOVE    T3,GSURF##        ;ADDR OF NXT VAR BLK
   986	401303'	542 13 0 12 000000 	        HRRM    T3,0(T2)        ;LINK VAR BLK ON CHAIN
   987	401304'	201 00 0 00 000007 	        MOVEI   Z,VARSIZ        ;LENGTH OF VAR BLK
   988	401305'	265 15 0 00 000000*	        JSP     QLINK,GCOLG##   ;GARBAGE COLLECT - GET SPACE
   989	401306'	265 00 0 00 000000*		PUSHR	PS		;Increase privelege
   990	401307'	000006	000004
   991	401310'	200 00 0 00 401302*	        MOVE    Z,GSURF         ;GSURF POINTER - NEW DATA ADDR
   992	401311'	505 00 0 00 401031'	        HRLI    Z,VARPRO        ;ADDR OF VAR BLK PROTOTYPE
   993	401312'	200 04 0 00 401310*	        MOVE    P1,GSURF        ;ADDR OF VAR BLK
   994	401313'	251 00 0 04 000006 	        BLT     Z,VARSIZ-1(P1)  ;MOVE PROTOTYPE INTO VAR BLK
   995	401314'	200 16 0 00 000000#	        MOVE    Q2,IGNOT##+1      ;LENGTH OF STRING
   996	401315'	303 16 0 00 000014 	        CAILE   Q2,MXISC        ;JUMP IF STR LGTH IN BOUNDS
   997	401316'	254 00 0 00 401336'	        JRST    INST10          ;JUMP IF NOT INTERNAL VARIABLE
   998	401317'	200 16 0 16 400764'	        MOVE    Q2,STABLE(Q2)   ;ADDR OF INT STRING HEADCELLS
   999	401320'	550 06 0 16 000000 	        HRRZ    S1,0(Q2)        ;NUMBER OF STRINGS IN TBL
  1000	401321'	322 06 0 00 401336'	        JUMPE   S1,INST10       ;JUMP IF TBL EMPTY
  1001	401322'	205 05 0 00 004003 	        MOVSI   P2,SDT          ;STR DESCR. DATATYPE
  1002	401323'	540 05 0 00 000016 	        HRR     P2,Q2           ;1ST WD OF DESCR. FOR INTERN. TBL
  1003	401324'	550 07 0 00 000000#	        HRRZ    S2,IGNOT+1      ;2ND WD OF DESCR.
  1004	401325'	514 10 0 00 000000#	        HRLZ    S3,IGNOT+1      ;LENGTH,0
  1005
  1006	401326'	261 01 0 00 000005 	INST3:  PUSH    STACK,P2        ;1WD OF DESCR. FOR INT. SYM. TBL
  1007	401327'	261 01 0 00 000007 	        PUSH    STACK,S2        ;2ND WD OF DESCR.
  1008	401330'	265 11 0 00 000000*	        JSP     TLINK,LEQUAL##  ;COMPARE STRINGS LEXICALLY
  1009	401331'	254 00 0 00 401334'	        JRST    INST4           ;LT - KEEP LOOKING
  1010	401332'	254 00 0 00 401353'	        JRST    INST5           ;EQ - FOUND IN INT SYM TBL
  1011	401333'	254 00 0 00 401336'	        JRST    INST10          ;GT - NOT IN INT SYM TBL
  1012	401334'	270 07 0 00 000010 	INST4:  ADD     S2,S3           ;INCREMENT OFFSET
  1013	401335'	367 06 0 00 401326'	        SOJG    S1,INST3        ;DECREMENT COUNT OF STRINGS
  1014
  1015	401336'				INST10:
  1016	401336'	201 11 0 04 000007 	INSTOK:	MOVEI	T1,VARSIZ(P1)	; UPDATE ...
  1017	401337'	202 11 0 00 401312*		MOVEM	T1,GSURF	; GSURF
  1018
  1019	401340'	261 01 0 00 000000*		PUSH	STACK,FLAT##	; RETRIEVE ORIGINAL ...
SNOSYM - Symbol Table Management  %5(222)	MACRO %53B(1156)-1 21:50 14-Mar-88 Page 16-1
SNOSYM	MAC	20-Nov-66 01:30		INSTAL - LOCATE OR INSTAL A SYMBOL

  1020	401341'	261 01 0 00 000000#		PUSH	STACK,FLAT+1	; STRING
  1021	401342'	265 11 0 00 000000*		JSP	TLINK,STCON##	; PUT IT WITH THE CONSTANTS
  1022	401343'	262 01 0 04 000005 		POP	STACK,VNAME+1(P1) ; AND PLACE ...
  1023	401344'	262 01 0 04 000004 		POP	STACK,VNAME(P1) ; IT IN THE VAR BL.
  1024
  1025	401345'	202 04 0 00 000012 		MOVEM	P1,T2		; SAVE THE VAR. BLCK ADDR
  1026	401346'	265 00 0 00 000000*		POPR	PS		;Restore registers
  1027	401347'	000005	000004
  1028	401350'	200 00 0 00 000012 	        MOVE    Z,T2         ;ADDR OF VAR BLK
  1029	401351'	200 11 0 00 401300*	        MOVE    TLINK,TLNKSV    ;RESTORE TLINK
  1030	401352'	254 00 0 11 000001 	        JRST    1(TLINK)        ;SUCCESS RETURN
  1031	401353'	202 05 0 00 401340*	INST5:  MOVEM   P2,FLAT         ;NEW STR DESCR. - IN SYM TBL
  1032	401354'	202 07 0 00 000000#	        MOVEM   S2,FLAT+1       ;
  1033	401355'	550 05 0 00 000005 	        HRRZ    P2,P2           ;ADDR OF SBLOK
  1034	401356'	550 05 0 05 000000 	        HRRZ    P2,0(P2)        ;NUMBER OF STRINGS IN BLOK
  1035	401357'	274 05 0 00 000006 	        SUB     P2,S1           ;POSITION OF LOCATED STRING
  1036	401360'	240 05 0 00 000001 	        ASH     P2,1            ;INDEX INTO DOPE VECTOR TABLE
  1037	401361'	550 07 0 00 000007 	        HRRZ    S2,S2           ;LENGTH OF STRING
  1038	401362'	200 16 0 07 401001'	        MOVE    Q2,DTABLE(S2)   ;ADDR OF PARTICULAR DOPE VEC TBL
  1039	401363'	270 16 0 00 000005 	        ADD     Q2,P2           ;ADDR OF DOPE VECTOR
  1040	401364'	200 15 0 16 000000 	        MOVE    Q1,0(Q2)        ;1ST WD OF DOPE VECTOR
  1041	401365'	200 16 0 16 000001 	        MOVE    Q2,1(Q2)        ;2ND WD OF DOPE VECTOR
  1042	401366'	607 16 0 00 020000 	        TLNN    Q2,PKFLAG       ;SKIP IF PATTERN VAL. KEYWD
  1043	401367'	254 00 0 00 401400'	        JRST    INST6           ;JUMP TO CHECK IF OPERATOR
  1044	401370'	200 17 0 00 000016 	        MOVE    Q3,Q2           ;2ND DOPE VECTOR WD
  1045	401371'	405 17 0 00 007700 	        ANDI     Q3,ISKEY        ;KEYWD NUMBER
  1046	401372'	242 17 0 00 777772 	        LSH     Q3,-6            ;INDEX FOR PROTECTED KYWD TBL
  1047	401373'	201 00 0 00 000000*	        MOVEI   Z,PROTKW##      ;ADDR OF PROT. KYWD
  1048	401374'	270 17 0 00 000000 	        ADD     Q3,Z            ;ADDR OF DATA
  1049	401375'	205 00 0 00 004004 	        MOVSI   Z,PDT
  1050	401376'	544 00 0 17 000000 	        HLR     Z,0(Q3)         ;PATT. VAL. KYWD ADDR
  1051	401377'	202 00 0 04 000000 	        MOVEM   Z,VALUE(P1)     ;SET VALUE
  1052	401400'	603 16 0 00 400000 	INST6:  TLNE    Q2,OPFLAG       ;SKIP IF NOT OPERATOR
  1053	401401'	254 00 0 00 401425'	        JRST    INSTOP          ;JUMP TO SET OPER VAR BLK
  1054	401402'	607 16 0 00 040000 	        TLNN    Q2,LBFLAG       ;SKIP IF IT IS A LABEL
  1055	401403'	254 00 0 00 401406'	        JRST    INST7           ;JUMP - NOT LABEL
  1056	401404'	514 00 0 00 000015 	        HRLZ    Z,Q1            ;LABEL VAL FROM DOPE VECTOR
  1057	401405'	202 00 0 04 000002 	        MOVEM   Z,VLABEL(P1)    ;SET LABEL IN VAR BLK
  1058
  1059	401406'	201 00 0 00 401144*	INST7:  MOVEI   Z,UNDEF$
  1060	401407'	603 16 0 00 200000 	        TLNE    Q2,FNFLAG       ;JUMP IF NOT FUNCTION
  1061	401410'	554 00 0 00 000015 	        HLRZ    Z,Q1            ;FUNC DATA FROM DOPE VECTOR
  1062	401411'	607 16 0 00 010000 	        TLNN    Q2,DTFLAG       ;JUMP IF DATATYPE SET
  1063	401412'	254 00 0 00 401416'	        JRST    INST8           ;JUMP TO INSTAL VBDT,VFUNC
  1064	401413'	554 17 0 00 000016 	        HLRZ    Q3,Q2           ;2ND WD OF DOPE VECTOR
  1065	401414'	405 17 0 00 007777 	        ANDI     Q3,ISDAT        ;DATATYPE
  1066	401415'	504 00 0 00 000017 	        HRL     Z,Q3            ;INSERT VBDT
  1067
  1068	401416'	202 00 0 04 000003 	INST8:  MOVEM   Z,VFUNC(P1)     ;LOAD VBDT AND VFUNC
  1069	401417'	607 16 0 00 100000 	        TLNN    Q2,KWFLAG       ;SKIP IF KYWD SET
  1070	401420'	254 00 0 00 401336'	        JRST    INST10          ;JUMP TO CHECK STR SIZE
  1071	401421'	405 16 0 00 007700 	        ANDI     Q2,ISKEY        ;GET KYWD FROM TBL
  1072	401422'	242 16 0 00 777772 	        LSH     Q2,-6            ;KEYWORD
  1073	401423'	506 16 0 04 000006 	        HRLM    Q2,VKEY(P1)     ;SET KEYWORD
  1074	401424'	254 00 0 00 401336'	        JRST    INST10          ;JUMP TO CHECK SIZE
SNOSYM - Symbol Table Management  %5(222)	MACRO %53B(1156)-1 21:50 14-Mar-88 Page 16-2
SNOSYM	MAC	20-Nov-66 01:30		INSTAL - LOCATE OR INSTAL A SYMBOL

  1075					;   THE FOLLOWING CODE IS ENTERED IF THE VARIABLE BEING
  1076					;   INSTALLED IS AN OPERATOT.
  1077					;
  1078	401425'	515 00 0 00 400000 	INSTOP: HRLZI   Z,OPFLAG        ;OPERATOT FLAG
  1079	401426'	202 00 0 04 000006 	        MOVEM   Z,VFLAGS(P1)    ;SET VFLAGS IN VAR BLK
  1080	401427'	405 16 0 00 000077 	        ANDI     Q2,OPNO         ;OPERATOR NUMBER
  1081	401430'	201 17 0 00 401016'	        MOVEI   Q3,ISPREC       ;ADDR OF OPER. PREC. TBL
  1082	401431'	270 17 0 00 000016 	        ADD     Q3,Q2           ;ADDR OF OPER. PRECEDENCES
  1083	401432'	200 17 0 17 000000 	        MOVE    Q3,0(Q3)        ;OPERATOR PRECEDENCES
  1084	401433'	502 17 0 04 000002 	        HLLM    Q3,LPREC(P1)    ;SET LEFT PRECEDENCE IN VAR BLK
  1085	401434'	506 17 0 04 000003 	        HRLM    Q3,RPREC(P1)    ;SET RIGHT   "         "
  1086	401435'	554 00 0 00 000015 	        HLRZ    Z,Q1            ;VUNARY FROM DOPE VECTOR
  1087	401436'	306 00 0 00 000000 	        CAIN    Z,0             ;SKIP IF NOT 0
  1088	401437'	201 00 0 00 401406*	        MOVEI   Z,UNDEF$        ;UNDEFINED VUNARY
  1089	401440'	542 00 0 04 000002 	        HRRM    Z,VUNARY(P1)    ;LOAD VUNARY IN VAR BLK
  1090	401441'	550 00 0 00 000015 	        HRRZ    Z,Q1            ;VBINRY FROM DOPE VECTOR
  1091	401442'	302 00 0 00 000000 	        CAIE    Z,0             ;SKIP IF UNDEF VBINRY
  1092	401443'	542 00 0 04 000003 	        HRRM    Z,VBINRY(P1)    ;LOAD VBINRY IN VAR BLK
  1093
  1094	401444'	254 00 0 00 401336'		JRST	INSTOK		; GO RETURN
  1095

SNOSYM - Symbol Table Management  %5(222)	MACRO %53B(1156)-1 21:50 14-Mar-88 Page 17
SNOSYM	MAC	20-Nov-66 01:30		LOCATE - TO LOCATE A STRING IN THE SYMBOL TABLE

  1096					        SUBTTL  LOCATE - TO LOCATE A STRING IN THE SYMBOL TABLE
  1097					; CALLING SEQUENCE :
  1098					;
  1099					;		 PUSH STRING DESCRIPTOR ONTO STACK(MUST BE STRING)
  1100					;		 JSP	 TLINK,LOCATE
  1101					;                FAIL RETURN    - STACK POPPED
  1102					;                SUCCESS RETURN - STACK POPPED,ADDRESS OF VARIABLE
  1103					;                                 IN REGISTER 0.
  1104					;
  1105	401445'				LOCATE::
  1106	401445'	202 11 0 00 000000*	        MOVEM   TLINK,TLSAV##     ;SAVE TLINK
  1107	401446'	265 11 0 00 000000*	        JSP     TLINK,EQINIT##  ;INITIALIZE FOR EQUAL
  1108	401447'	254 00 0 00 401506'	        JRST    FAILOC          ;ERROR - BAD STRING DESCR.
  1109	401450'	261 01 0 00 401353*	        PUSH    STACK,FLAT      ;1ST WD OF STR DESCR.
  1110	401451'	261 01 0 00 000000#	        PUSH    STACK,FLAT+1    ;2ND WD OF STR DESCR.
  1111	401452'	265 15 0 00 000000*	        JSP     QLINK,HASHNO##  ;GET HASH NUMBER
  1112	401453'	200 12 0 00 000000 		MOVE	T2,Z            ;HASH NO. FOR DIVIDE
  1113	401454'	230 12 0 00 401102*		IDIV	T2,LVTBL	;GET HASH ENTRY
  1114	401455'	200 12 0 00 401100*		MOVE	T2,VTABLE 	;ADDR OF FIRST WD IN HASH TBL
  1115	401456'	270 12 0 00 000013 		ADD	T2,T3		;ADDR OF HASH TBL ENTRY
  1116	401457'	200 13 0 12 000000 		MOVE	T3,0(T2)	;ADDR OF 1ST VAR BLK IN CHAIN
  1117	401460'	322 13 0 00 401510'		JUMPE	T3,NOHASH	;JUMP IF CHAIN EMPTY
  1118	401461'	261 01 0 00 000004 		$PUSH	<P1,P2>		;SAVE PREGS
  1119	401462'	261 01 0 00 000005
  1120	401463'	200 05 0 00 000013 		MOVE	P2,T3		;SAVE ADDR OF VAR BLK
  1121	401464'	261 01 0 05 000004 	LOCLUP:	PUSH	STACK,VNAME(P2)	;1ST WORD OF VAR BLK DESCR.
  1122	401465'	261 01 0 05 000005 		PUSH	STACK,VNAME+1(P2)	;2ND WORD OF VAR BLK DESCR.
  1123	401466'	265 11 0 00 000000*		JSP	TLINK,EQUAL##	;ARE NAMES EQUAL
  1124	401467'	334 00 0 00 000000 		SKIPA	0		;SKIP IF NOT EQUAL
  1125	401470'	254 00 0 00 401500'		JRST	YESLOC		;JUMP IF STRING LOCATED
  1126	401471'	201 13 0 05 000006 		MOVEI	T3,VLINK(P2)	;ADDR OF VLINK TO NXT VAR BLK
  1127	401472'	550 05 0 05 000006 		HRRZ	P2,VLINK(P2)	;ADDR OF NXT VAR BLK
  1128	401473'	326 05 0 00 401464'		JUMPN	P2,LOCLUP	;JUMP IF ANOTHER VAR ON CHAIN
  1129	401474'	262 01 0 00 000005 		$POP	<P2,P1>		; RESTORE P REGS
  1130	401475'	262 01 0 00 000004
  1131	401476'	200 00 0 00 000013 		MOVE	Z,T3		;ADDR OF VLINK
  1132	401477'	254 00 1 00 401445*		JRST	@TLSAV		;FAIL RETURN - NOT LOCATE
  1133

SNOSYM - Symbol Table Management  %5(222)	MACRO %53B(1156)-1 21:50 14-Mar-88 Page 18
SNOSYM	MAC	20-Nov-66 01:30		LOCATE - TO LOCATE A STRING IN THE SYMBOL TABLE

  1134	401500'	200 11 0 00 401477*	YESLOC: MOVE    TLINK,TLSAV     ;RESTORE TLINK
  1135	401501'	200 12 0 00 000005 		MOVE	T2,P2		 ;ADDR OF VAR BLK
  1136	401502'	262 01 0 00 000005 		$POP	<P2,P1>		;RESTORE P REGS
  1137	401503'	262 01 0 00 000004
  1138	401504'	200 00 0 00 000012 		MOVE	Z,T2		 ;Z=ADDR OF VAR BLK
  1139	401505'	254 00 0 11 000001 		JRST	1(TLINK)	;SUCCESS RETURN
  1140	401506'	400 12 0 00 000000 	FAILOC: SETZ    T2,             ;INDICATOR FOR INSTAL
  1141	401507'	274 01 0 00 401520'		SUB	STACK,[XWD 2,2]	;POP TOP TWO VALUES
  1142	401510'	200 00 0 00 000012 	NOHASH:	MOVE	Z,T2		 ;ADDR TO LINK NEW VAR BLK
  1143	401511'	254 00 1 00 401500*	        JRST    @TLSAV          ;FAIL RETURN - NOT LOCATED
  1144
  1145
  1146	401512'	550 15 0 00 000000#	UNDEF::	HRRZ	Q1,IGNOP##+2	; GET ADDRESS OF VFUNC FIELD
  1147
  1148	401513'	201 17 0 15 000001 		MOVEI	Q3,VNAME-VFUNC(Q1) ; POINT TO VNAME FIELD
  1149	401514'	554 16 0 17 000000 		HLRZ	Q2,0(Q3)	; CHECK DT
  1150	401515'	302 16 0 00 004003 		CAIE	Q2,SDT		; AT VNAME - IS STRING?
  1151	401516'	201 17 0 15 000002 		MOVEI	Q3,VNAME-VUNARY(Q1) ; NO, MUST HAVE BEEN UNY OP
  1152
  1153	401517'	005 11 0 00 000001 		ERROR%	9,1
  1154						END

NO ERRORS DETECTED

HI-SEG. BREAK IS 401521
PROGRAM BREAK IS 000000
CPU TIME USED 20:22.258

44P CORE USED
SNOSYM - Symbol Table Management  %5(222)	MACRO %53B(1156)-1 21:50 14-Mar-88 Page S-1
SNOSYM	MAC	20-Nov-66 01:30		SYMBOL TABLE

ABORT		400270'	ext	DFFR$		000000	ext	GSURF		401337'	ext	ISTDTP		400740'	int
ADDR		400731'		DFN$		000000	ext	GT$		000000	ext	ITEM$		000000	ext
ADFBLK		000002	sin	DFNAME		000004	sin	HASHNO		401452'	ext	K		000000
ADT		004005	sin	DIFF$		400020'	ext	I		000015		KEYW$		000000	ext
ALT$		400042'	ext	DIV$		400024'	ext	IBP$		000000	ext	KWFLAG		100000	spd
ANY$		000000	ext	DTABLE		401001'	int	IDENT$		000000	ext	L		000000
APPLY$		000000	ext	DTCH$		000000	ext	IDT		002001	sin	LABEL		401157'	int
ARBNO$		000000	ext	DTFLAG		010000	spd	IFBLOK		401247'	ext	LABEL$		000000	ext
ARG$		000000	ext	DTNAME		401251'	int	IGNOP		000000	ext	LABL1		401166'
ARRAY$		000000	ext	DTNUM		000077	sin	IGNOS		401125'	ext	LABL2		401201'
ASCII$		000000	ext	DTPINX		000077	spd	IGNOT		000000	ext	LBFLAG		040000	spd
ASGN$		400040'	ext	DTTP		401134'	int	IMVA$		400006'	ext	LE$		000000	ext
ASSC$		000000	ext	DTTP$		000000	ext	IND$		000000	ext	LEN		000014
BREAK$		000000	ext	DUMP$		000000	ext	INPUT$		000000	ext	LEN$		000000	ext
BRKST		401053'		DUPL$		000000	ext	INST1		401277'		LEQ$		000000	ext
BRKX$		000000	ext	E1$310		000000	sin	INST10		401336'		LEQUAL		401330'	ext
BTCODE		000000	sin	E1$55		000000	sin	INST2		401301'		LGE$		000000	ext
CAT$		400000'	ext	E1$72		000000	sin	INST3		401326'		LGT$		000000	ext
CDT		004007	sin	E1$73		000000	sin	INST4		401334'		LLE$		000000	ext
CLEAR		401040'	int	E1$74		000000	sin	INST5		401353'		LLT$		000000	ext
CLEAR$		000000	ext	E1$78		000000	sin	INST6		401400'		LNE$		000000	ext
CLLCT$		000000	ext	E1$79		000000	sin	INST7		401406'		LOAD$		000000	ext
CLOOP		401057'		E13$46		000000	sin	INST8		401416'		LOCAL$		000000	ext
CLOOP1		401072'		E9$1		000000	sin	INSTAL		401272'	int	LOCATE		401445'	int
CLSTK		401125'		EDT		004006	sin	INSTOK		401336'		LOCLUP		401464'
CLVAR		401116'		END		400107'	ext	INSTOP		401425'		LOCVAL		401117'	ext
CNCT$		000000	ext	ENDFL$		000000	ext	INTGR$		000000	ext	LPAD$		000000	ext
CNVA$		400022'	ext	EQ$		000000	ext	INX		000006		LPREC		000002	sin
CNVRT$		000000	ext	EQINIT		401446'	ext	ISDAT		007777	spd	LREGP		000002	spd
CODE$		000000	ext	EQUAL		401466'	ext	ISKEY		007700	spd	LREGS		000003	spd
CONTIN		400617'	ext	ERR	001000	000000		ISPREC		401016'	int	LT$		000000	ext
COPY$		000000	ext	ERR%	005000	000000		ISTC1		400046'	int	LVTBL		401454'	ext
CURS$		000000	ext	ERR.	003000	000000		ISTC10		400647'	int	MAXDTN		000012	sin
CURSOR		401073'	ext	EVAL$		000000	ext	ISTC11		400704'	int	MINUS$		000000	ext
CVTINT		401205'	ext	EXIT$		000000	ext	ISTC12		400720'	int	MTAPE$		000000	ext
CVTLAB		401163'	ext	EXP$		400054'	ext	ISTC13		400726'	int	MTCH$		400030'	ext
CVTNAM		401224'	ext	EXT		000000	spd	ISTC14		400733'	int	MUL$		400014'	ext
D		000000		F		000001		ISTC2		400072'	int	MXISC		000014
D0	000050	000010		FAILOC		401506'		ISTC3		400143'	int	N		000001
D1	000077	000007		FIELD$		000000	ext	ISTC4		400240'	int	NAME$		000000	ext
D10	000137	000005		FILE$		000000	ext	ISTC5		400342'	int	NDT		004011	sin
D11	000064	000004		FLAT		401450'	ext	ISTC6		400446'	int	NE$		000000	ext
D2	000070	000004		FNFLAG		200000	spd	ISTC7		400555'	int	NEG$		000000	ext
D3	000162	000006		FRET		400523'	ext	ISTD1		400000'	int	NOHASH		401510'
D4	000124	000007		FRET1		401204'	ext	ISTD10		400615'	int	NRET		400527'	ext
D5	000024	000005		FRET2		401164'	ext	ISTD11		400676'	int	NTNY$		000000	ext
D6	000012	000012		FTDDT	777777	777777	spd	ISTD12		400714'	int	NULLST		401202'	ext
D7		000004		FTDEBU		000000	spd	ISTD13		400726'	int	NUMDC		002000	sin
DASSC$		000000	ext	FTPAV	777777	777777	spd	ISTD14		400731'	int	NXHSH		401104'
DATA$		000000	ext	FUNCT		401136'	int	ISTD2		400054'	int	NXLNK		401122'
DATE$		000000	ext	FUNCT$		000000	ext	ISTD3		400077'	int	NXVBL		401111'
DCNCT$		000000	ext	FUNCT1		401144'		ISTD4		400160'	int	OFFLEN	000064	000004	spd
DDT		004012	spd	FUNCT2		401153'		ISTD5		400266'	int	OFSET		000014
DEFDAT		401265'		GCOLG		401305'	ext	ISTD6		400372'	int	OPFLAG		400000	sin
DELET$		000000	ext	GE$		000000	ext	ISTD7		400503'	int	OPNO		000077	spd
SNOSYM - Symbol Table Management  %5(222)	MACRO %53B(1156)-1 21:50 14-Mar-88 Page S-2
SNOSYM	MAC	20-Nov-66 01:30		SYMBOL TABLE

OPSYN		401205'	int	STCON		401342'	ext
OPSYN$		000000	ext	STINIT		401053'	ext
OPUN		401241'		STPTR		401074'	ext
OUTPT$		000000	ext	STPTR$		000000	ext
P1		000004		STRM		401060'	ext
P2		000005		STXT$		000000	ext
PDT		004004	sin	SUM$		400016'	ext
PK		000000		SYMASC	516631	500000	spd
PKFLAG		020000	spd	SYMEDT		000222	spd
PLINK		000004		SYMMIN		000000	spd
PLUS$		000000	ext	SYMSIX	637155	000000	spd
POS$		000000	ext	SYMVER		000005	spd
PPL		000005	spd	SYMWHO		000000	spd
PPR		401346'	ext	SYSCT		401055'	ext
PROTKW		401373'	ext	T1		000011
PROTO$		000000	ext	T2		000012
PSHR		401306'	ext	T3		000013
Q1		000015		TAB$		000000	ext
Q2		000016		TABLE$		000000	ext
Q3		000017		TDT		004010	sin
QLINK		000015		TFBLOK		000424	sin
QUEST$		000000	ext	TFOLD		000004	sin
RAND$		000000	ext	TIME$		000000	ext
RBP$		000000	ext	TLINK		000011
RDT		002002	sin	TLNKSV		401351'	ext
REGP		000004	spd	TLSAV		401511'	ext
REMDR$		000000	ext	TRACE$		000000	ext
RENAM$		000000	ext	TRIM$		000000	ext
REPEAT		400426'	ext	TTY$		000000	ext
RET		400432'	ext	UNDEF		401512'	int
RETNL1		401200'	ext	UNDEF$		401437'	ext
RETNUL		401250'	ext	UNLD$		000000	ext
RPAD$		000000	ext	VALUE		000000	sin
RPLC$		000000	ext	VARCL		401076'
RPOS$		000000	ext	VARPRO		401031'	int
RPREC		000003	sin	VARSIZ		000007	sin
RSCN$		000000	ext	VBINRY		000003	sin
RSORT$		000000	ext	VFLAGS		000006	sin
RSTVL		401126'		VFUNC		000003	sin
RTAB$		000000	ext	VKEY		000006	sin
RUN$		000000	ext	VLABEL		000002	sin
RVRS$		000000	ext	VLINK		000006	sin
RWND$		000000	ext	VNAME		000004	sin
S1		000006		VTABLE		401455'	ext
S2		000007		VUNARY		000002	sin
S3		000010		WHERE$		000000	ext
SBLOK		000403	sin	Y.CM	001000	000000	spd
SBSTR$		000000	ext	YESLOC		401500'
SDT		004003	sin	Z		000000
SIZE$		000000	ext	%%MACT	000200	000025	spd
SLINK		000006		%%SNOP	000500	000305	spd
SORT$		000000	ext
SPAN$		000000	ext
STABLE		400764'	int
STACK		000001

SNOSYM - Symbol Table Management  %5(222)	MACRO %53B(1156)-1 21:50 14-Mar-88 Page 1
SNOSYM	MAC	20-Nov-66 01:30		MA355/JDS/DRH/MP/RCM/VB		10-JUN-76


Symbol cross reference

ABORT	   321
ADDR	   128#	   174#	   195#	   246#	   318#	   390#	   465#	   543#	   598#	   616#	   630#	   634#
ADFBLK	   960
ADT	   328
ALT$	   131	   159	   163
ANY$	   196
APPLY$	   323
ARBNO$	   325
ARG$	   200
ARRAY$	   327
ASCII$	   329
ASGN$	   151	   161
ASSC$	   600
BREAK$	   331
BRKST	   744	   748#
BRKX$	   393
BTCODE	   830
CAT$	   129
CDT	   248
CLEAR	   735#
CLEAR$	   333
CLLCT$	   466
CLOOP	   753#	   767
CLOOP1	   757	   764#
CLSTK	   777	   793#
CLVAR	   781	   785#
CNCT$	   471
CNVA$	   147
CNVRT$	   474
CODE$	   247
CONTIN	   546
COPY$	   249
CURS$	   155
CURSOR	   765
CVTINT	   852	   901
CVTLAB	   859
CVTNAM	   818	   868	   909	   916
D	   177#	   178	   179#	   180	   181#	   182	   183#	   184	   185#	   186	   187#	   188	   196#	   197
	   198#	   199	   200#	   201	   202#	   203	   204#	   205	   206#	   207	   208#	   209	   210#	   211
	   212#	   213	   214#	   215	   216#	   217	   218#	   219	   220#	   221	   222#	   223	   224#	   225
	   226#	   227	   228#	   229	   230#	   231	   247#	   248#	   248	   249#	   250	   251#	   252	   253#
	   254	   255#	   256	   257#	   258	   259#	   260	   261#	   262	   263#	   264	   265#	   266	   267#
	   268	   269#	   270	   271#	   272	   273#	   274#	   274	   275#	   276#	   276	   277#	   278	   279#
	   280	   281#	   282	   283#	   284	   285#	   286	   287#	   288	   289#	   290	   291#	   292	   293#
	   294	   319#	   320	   321#	   322	   323#	   324	   325#	   326	   327#	   328#	   328	   329#	   330
	   331#	   332	   333#	   334	   335#	   336	   337#	   338	   339#	   340	   341#	   342	   343#	   344
	   345#	   346	   347#	   348	   349#	   350	   351#	   352	   353#	   354	   355#	   356	   357#	   358#
	   358	   359#	   360	   362#	   363	   391#	   392	   393#	   394	   395#	   396	   397#	   398	   399#
	   400	   401#	   402	   403#	   404	   405#	   406	   407#	   408	   409#	   410	   411#	   412	   413#
	   414	   415#	   416	   417#	   418	   419#	   420	   421#	   422	   423#	   424	   425#	   426	   427#
SNOSYM - Symbol Table Management  %5(222)	MACRO %53B(1156)-1 21:50 14-Mar-88 Page 1
SNOSYM	MAC	20-Nov-66 01:30		MA355/JDS/DRH/MP/RCM/VB		10-JUN-76


Symbol cross reference

	   428	   429#	   430#	   430	   431#	   432	   433#	   434	   466#	   467	   468#	   469	   471#	   472	   474#
	   475	   476#	   477	   478#	   479	   480#	   481	   482#	   483	   484#	   485	   486#	   487#	   487
	   488#	   489	   490#	   491#	   491	   492#	   493#	   493	   494#	   495	   496#	   497	   498#	   499
	   500#	   501	   502#	   503	   504#	   505	   506#	   507	   508#	   509	   544#	   545	   546#	   547
	   548#	   549	   550#	   551	   552#	   553	   554#	   555#	   555	   556#	   557	   558#	   559	   560#
	   561	   563#	   564	   566#	   567	   569#	   570	   572#	   573	   600#	   601	   603#	   604	   605#
	   606	   618#	   619	   621#	   622#	   622	   635#	   636
D0	   491#	   555#	   649
D1	   487#	   651
D10	   358#	   665
D11	   274#	   667
D2	   276#	   653
D3	   430#	   655
D4	   493#	   657
D5	   328#	   659
D6	   622#	   661
D7	   248#	   663
DASSC$	   635
DATA$	   251
DATE$	   253
DCNCT$	   618
DDT	   951
DEFDAT	   952	   960#
DELET$	   399
DFFR$	   403
DFN$	   397
DFNAME	   961
DIFF$	   145
DIV$	   149
DTABLE	   688#	  1038
DTCH$	   401
DTFLAG	    83#	  1062
DTNAME	   808	   947#
DTNUM	   248	   274	   276	   328	   358	   430	   487	   491	   493	   555	   622	   953
DTPINX	    86#
DTTP	   807#
DTTP$	   548
DUMP$	   255
DUPL$	   257
E1$310	   853#
E1$55	   749#
E1$72	   902#
E1$73	   843#
E1$74	   888#
E1$78	   917#	   919#
E1$79	   910#	   912#
E13$46	   906#	   908#
E9$1	  1153#
EDT	   622
END	   204
SNOSYM - Symbol Table Management  %5(222)	MACRO %53B(1156)-1 21:50 14-Mar-88 Page 1
SNOSYM	MAC	20-Nov-66 01:30		MA355/JDS/DRH/MP/RCM/VB		10-JUN-76


Symbol cross reference

ENDFL$	   476
EQ$	   177
EQINIT	  1107
EQUAL	  1123
EVAL$	   259
EXIT$	   261
EXP$	   175
EXT	    88#	   555	   555#
F	   177#	   178	   179#	   180	   181#	   182	   183#	   184	   185#	   186	   187#	   188	   196#	   197
	   198#	   199	   200#	   201	   202#	   203	   204#	   205	   206#	   207	   208#	   209	   210#	   211
	   212#	   213	   214#	   215	   216#	   217	   218#	   219	   220#	   221	   222#	   223	   224#	   225
	   226#	   227	   228#	   229	   230#	   231	   247#	   248	   249#	   250	   251#	   252	   253#	   254
	   255#	   256	   257#	   258	   259#	   260	   261#	   262	   263#	   264	   265#	   266	   267#	   268
	   269#	   270	   271#	   272	   273#	   274	   275#	   276	   277#	   278	   279#	   280	   281#	   282
	   283#	   284	   285#	   286	   287#	   288	   289#	   290	   291#	   292	   293#	   294	   319#	   320
	   321#	   322	   323#	   324	   325#	   326	   327#	   328	   329#	   330	   331#	   332	   333#	   334
	   335#	   336	   337#	   338	   339#	   340	   341#	   342	   343#	   344	   345#	   346	   347#	   348
	   349#	   350	   351#	   352	   353#	   354	   355#	   356	   357#	   358	   359#	   360	   362#	   363
	   391#	   392	   393#	   394	   395#	   396	   397#	   398	   399#	   400	   401#	   402	   403#	   404
	   405#	   406	   407#	   408	   409#	   410	   411#	   412	   413#	   414	   415#	   416	   417#	   418
	   419#	   420	   421#	   422	   423#	   424	   425#	   426	   427#	   428	   429#	   430	   431#	   432
	   433#	   434	   466#	   467	   468#	   469	   471#	   472	   474#	   475	   476#	   477	   478#	   479
	   480#	   481	   482#	   483	   484#	   485	   486#	   487	   488#	   489	   490#	   491	   492#	   493
	   494#	   495	   496#	   497	   498#	   499	   500#	   501	   502#	   503	   504#	   505	   506#	   507
	   508#	   509	   544#	   545	   546#	   547	   548#	   549	   550#	   551	   552#	   553	   554#	   555
	   556#	   557	   558#	   559	   560#	   561	   563#	   564	   566#	   567	   569#	   570	   572#	   573
	   600#	   601	   603#	   604	   605#	   606	   618#	   619	   621#	   622	   635#	   636
FAILOC	  1108	  1140#
FIELD$	   337
FILE$	   265
FLAT	  1019	  1020	  1031	  1032	  1109	  1110
FNFLAG	    79#	  1060
FRET	   484
FRET1	   822	   828	   844	   871	   876	   878	   889
FRET2	   860
FTDDT	   361	   470	   562	   568	   617	   851
FTDEBU	   989	  1026
FTPAV	   599	   629
FUNCT	   818#
FUNCT$	   560
FUNCT1	   827#	   835
FUNCT2	   819	   841#
GCOLG	   988
GE$	   179
GSURF	   985	   991	   993	  1017
GT$	   181
HASHNO	  1111
I	   643#	   649	   651	   651#	   653	   653#	   655	   655#	   657	   657#	   659	   659#	   661	   661#
	   663	   663#	   665	   665#	   667	   667#	   669	   669#	   670#	   674	   675	   675#	   676	   676#
	   677	   677#	   678	   678#	   679	   679#	   680	   680#	   681	   681#	   682	   682#	   683	   683#
SNOSYM - Symbol Table Management  %5(222)	MACRO %53B(1156)-1 21:50 14-Mar-88 Page 1
SNOSYM	MAC	20-Nov-66 01:30		MA355/JDS/DRH/MP/RCM/VB		10-JUN-76


Symbol cross reference

	   684	   684#	   685	   685#	   686	   686#	   687#	   691	   692	   692#	   693	   693#	   694	   694#	   695
	   695#	   696	   696#	   697	   697#	   698	   698#	   699	   699#	   700	   700#	   701	   701#	   702
	   702#	   703	   703#
IBP$	   563
IDENT$	   339
IDT	   487
IFBLOK	   927	   935
IGNOP	  1146
IGNOS	   769	   793
IGNOT	   995	  1003	  1004
IMVA$	   135
IND$	   135
INPUT$	   341
INST1	   979	   982#
INST10	   997	  1000	  1011	  1015#	  1070	  1074
INST2	   982	   984#
INST3	  1006#	  1013
INST4	  1009	  1012#
INST5	  1010	  1031#
INST6	  1043	  1052#
INST7	  1055	  1059#
INST8	  1063	  1068#
INSTAL	   976#
INSTOK	  1016#	  1094
INSTOP	  1053	  1078#
INTGR$	   486
INX	   248#	   248	   274#	   274	   276#	   276	   328#	   328	   358#	   358	   430#	   430	   487#	   487
	   491#	   491	   493#	   493	   555#	   555	   622#	   622
ISDAT	    84#	  1065
ISKEY	    85#	  1045	  1071
ISPREC	   705#	  1081
ISTC1	   167#	   674
ISTC10	   574#	   649	   681
ISTC11	   607#	   682
ISTC12	   623#	   661	   683
ISTC13	   631#	   684
ISTC14	   637#	   685
ISTC2	   189#	   675
ISTC3	   232#	   676
ISTC4	   295#	   653	   663	   667	   677
ISTC5	   365#	   659	   665	   678
ISTC6	   435#	   655	   679
ISTC7	   510#	   651	   657	   680
ISTD1	   128#	   128	   691
ISTD10	   543#	   543	   698
ISTD11	   598#	   598	   699
ISTD12	   616#	   616	   700
ISTD13	   630#	   630	   701
ISTD14	   634#	   634	   702
ISTD2	   174#	   174	   692
SNOSYM - Symbol Table Management  %5(222)	MACRO %53B(1156)-1 21:50 14-Mar-88 Page 1
SNOSYM	MAC	20-Nov-66 01:30		MA355/JDS/DRH/MP/RCM/VB		10-JUN-76


Symbol cross reference

ISTD3	   195#	   195	   693
ISTD4	   246#	   246	   694
ISTD5	   318#	   318	   695
ISTD6	   390#	   390	   696
ISTD7	   465#	   465	   697
ISTDTP	   644#	   957	   958
ITEM$	   267
K	   177#	   178	   179#	   180	   181#	   182	   183#	   184	   185#	   186	   187#	   188	   196#	   197
	   198#	   199#	   199	   200#	   201	   202#	   203#	   203	   204#	   205	   206#	   207	   208#	   209
	   210#	   211	   212#	   213	   214#	   215	   216#	   217	   218#	   219	   220#	   221	   222#	   223#
	   223	   224#	   225#	   225	   226#	   227	   228#	   229	   230#	   231	   247#	   248#	   248	   249#
	   250	   251#	   252	   253#	   254	   255#	   256#	   256	   257#	   258	   259#	   260	   261#	   262
	   263#	   264#	   264	   265#	   266	   267#	   268	   269#	   270	   271#	   272	   273#	   274#	   274
	   275#	   276	   277#	   278	   279#	   280	   281#	   282	   283#	   284#	   284	   285#	   286	   287#
	   288	   289#	   290#	   290	   291#	   292	   293#	   294#	   294	   319#	   320#	   320	   321#	   322#
	   322	   323#	   324	   325#	   326	   327#	   328	   329#	   330	   331#	   332	   333#	   334	   335#
	   336#	   336	   337#	   338	   339#	   340	   341#	   342#	   342	   343#	   344#	   344	   345#	   346
	   347#	   348	   349#	   350	   351#	   352	   353#	   354	   355#	   356	   357#	   358	   359#	   360#
	   360	   362#	   363	   391#	   392#	   392	   393#	   394	   395#	   396#	   396	   397#	   398	   399#
	   400	   401#	   402	   403#	   404	   405#	   406#	   406	   407#	   408#	   408	   409#	   410#	   410
	   411#	   412	   413#	   414#	   414	   415#	   416#	   416	   417#	   418	   419#	   420	   421#	   422
	   423#	   424	   425#	   426	   427#	   428	   429#	   430	   431#	   432	   433#	   434	   466#	   467
	   468#	   469#	   469	   471#	   472	   474#	   475	   476#	   477	   478#	   479#	   479	   480#	   481#
	   481	   482#	   483#	   483	   484#	   485	   486#	   487	   488#	   489	   490#	   491	   492#	   493
	   494#	   495	   496#	   497	   498#	   499#	   499	   500#	   501	   502#	   503#	   503	   504#	   505#
	   505	   506#	   507#	   507	   508#	   509#	   509	   544#	   545#	   545	   546#	   547	   548#	   549
	   550#	   551#	   551	   552#	   553#	   553	   554#	   555	   556#	   557#	   557	   558#	   559#	   559
	   560#	   561	   563#	   564	   566#	   567#	   567	   569#	   570	   572#	   573#	   573	   600#	   601#
	   601	   603#	   604#	   604	   605#	   606	   618#	   619	   621#	   622	   635#	   636
KEYW$	   139
KWFLAG	    80#	  1069
L	   177#	   178	   179#	   180	   181#	   182	   183#	   184	   185#	   186	   187#	   188	   196#	   197
	   198#	   199	   200#	   201	   202#	   203	   204#	   205#	   205	   206#	   207	   208#	   209	   210#
	   211	   212#	   213	   214#	   215	   216#	   217	   218#	   219	   220#	   221	   222#	   223	   224#
	   225	   226#	   227	   228#	   229	   230#	   231	   247#	   248	   249#	   250	   251#	   252	   253#
	   254	   255#	   256	   257#	   258	   259#	   260	   261#	   262	   263#	   264	   265#	   266	   267#
	   268	   269#	   270	   271#	   272	   273#	   274	   275#	   276	   277#	   278	   279#	   280	   281#
	   282	   283#	   284	   285#	   286	   287#	   288	   289#	   290	   291#	   292	   293#	   294	   319#
	   320	   321#	   322#	   322	   323#	   324	   325#	   326	   327#	   328	   329#	   330	   331#	   332
	   333#	   334	   335#	   336	   337#	   338	   339#	   340	   341#	   342	   343#	   344	   345#	   346
	   347#	   348	   349#	   350	   351#	   352	   353#	   354	   355#	   356	   357#	   358	   359#	   360
	   362#	   363	   391#	   392	   393#	   394	   395#	   396	   397#	   398	   399#	   400	   401#	   402
	   403#	   404	   405#	   406	   407#	   408	   409#	   410	   411#	   412	   413#	   414	   415#	   416
	   417#	   418	   419#	   420#	   420	   421#	   422	   423#	   424#	   424	   425#	   426	   427#	   428
	   429#	   430	   431#	   432	   433#	   434	   466#	   467	   468#	   469	   471#	   472	   474#	   475
	   476#	   477	   478#	   479	   480#	   481	   482#	   483	   484#	   485#	   485	   486#	   487	   488#
	   489#	   489	   490#	   491	   492#	   493	   494#	   495	   496#	   497	   498#	   499	   500#	   501
	   502#	   503	   504#	   505	   506#	   507	   508#	   509	   544#	   545	   546#	   547#	   547	   548#
	   549	   550#	   551	   552#	   553	   554#	   555	   556#	   557	   558#	   559	   560#	   561	   563#
	   564	   566#	   567	   569#	   570	   572#	   573	   600#	   601	   603#	   604	   605#	   606	   618#
SNOSYM - Symbol Table Management  %5(222)	MACRO %53B(1156)-1 21:50 14-Mar-88 Page 1
SNOSYM	MAC	20-Nov-66 01:30		MA355/JDS/DRH/MP/RCM/VB		10-JUN-76


Symbol cross reference

	   619	   621#	   622	   635#	   636
LABEL	   850#
LABEL$	   345
LABL1	   855	   865#
LABL2	   869	   886#
LBFLAG	    81#	  1054
LE$	   183
LEN	   128#	   174#	   195#	   246#	   248	   274	   276	   318#	   328	   358	   390#	   430	   465#	   487
	   491	   493	   543#	   555	   598#	   616#	   622	   630#	   634#
LEN$	   206
LEQ$	   208
LEQUAL	  1008
LGE$	   210
LGT$	   212
LLE$	   214
LLT$	   216
LNE$	   218
LOAD$	   269
LOCAL$	   347
LOCATE	   756	   978	  1105#
LOCLUP	  1121#	  1128
LOCVAL	   759	   786
LPAD$	   271
LPREC	  1084
LREGP	   989	  1026
LREGS	   989	  1026
LT$	   185
LVTBL	   773	  1113
MAXDTN	   645	   954
MINUS$	   145
MTAPE$	   349
MTCH$	   153
MUL$	   141
MXISC	   167#	   189#	   232#	   295#	   365#	   435#	   510#	   574#	   607#	   623#	   631#	   637#	   672	   689
	   996
N	   128#	   131	   131#	   133	   133#	   135	   135#	   137	   137#	   139	   139#	   141	   141#	   143
	   143#	   145	   145#	   147	   147#	   149	   149#	   151	   151#	   153	   153#	   155	   155#	   157
	   157#	   159	   159#	   161	   161#	   163	   163#	   165	   165#	   167	   167#	   174#	   177	   177#
	   178	   178#	   180	   180#	   182	   182#	   184	   184#	   186	   186#	   188	   188#	   189	   195#
	   197	   197#	   199	   199#	   201	   201#	   203	   203#	   205	   205#	   207	   207#	   209	   209#
	   211	   211#	   213	   213#	   215	   215#	   217	   217#	   219	   219#	   221	   221#	   223	   223#
	   225	   225#	   227	   227#	   229	   229#	   231	   231#	   232	   246#	   248	   248#	   250	   250#
	   252	   252#	   254	   254#	   256	   256#	   258	   258#	   260	   260#	   262	   262#	   264	   264#
	   266	   266#	   268	   268#	   270	   270#	   272	   272#	   274	   274#	   276	   276#	   278	   278#
	   280	   280#	   282	   282#	   284	   284#	   286	   286#	   288	   288#	   290	   290#	   292	   292#
	   294	   294#	   295	   318#	   320	   320#	   322	   322#	   324	   324#	   326	   326#	   328	   328#
	   330	   330#	   332	   332#	   334	   334#	   336	   336#	   338	   338#	   340	   340#	   342	   342#
	   344	   344#	   346	   346#	   348	   348#	   350	   350#	   352	   352#	   354	   354#	   356	   356#
	   358	   358#	   360	   360#	   363	   363#	   365	   390#	   392	   392#	   394	   394#	   396	   396#
	   398	   398#	   400	   400#	   402	   402#	   404	   404#	   406	   406#	   408	   408#	   410	   410#
SNOSYM - Symbol Table Management  %5(222)	MACRO %53B(1156)-1 21:50 14-Mar-88 Page 1
SNOSYM	MAC	20-Nov-66 01:30		MA355/JDS/DRH/MP/RCM/VB		10-JUN-76


Symbol cross reference

	   412	   412#	   414	   414#	   416	   416#	   418	   418#	   420	   420#	   422	   422#	   424	   424#	   426
	   426#	   428	   428#	   430	   430#	   432	   432#	   434	   434#	   435	   465#	   467	   467#	   469
	   469#	   472	   472#	   475	   475#	   477	   477#	   479	   479#	   481	   481#	   483	   483#	   485
	   485#	   487	   487#	   489	   489#	   491	   491#	   493	   493#	   495	   495#	   497	   497#	   499
	   499#	   501	   501#	   503	   503#	   505	   505#	   507	   507#	   509	   509#	   510	   543#	   545
	   545#	   547	   547#	   549	   549#	   551	   551#	   553	   553#	   555	   555#	   557	   557#	   559
	   559#	   561	   561#	   564	   564#	   567	   567#	   570	   570#	   573	   573#	   574	   598#	   601
	   601#	   604	   604#	   606	   606#	   607	   616#	   619	   619#	   622	   622#	   623	   630#	   631
	   634#	   636	   636#	   637
NAME$	   147
NDT	   274
NE$	   187
NEG$	   157	   165
NOHASH	  1117	  1142#
NRET	   488
NTNY$	   411
NULLST	   739	   741	   762	   770	   842	   887
NUMDC	   491
NXHSH	   775#	   779	   790
NXLNK	   784	   789#
NXVBL	   780#	   791
OFFLEN	   649#	   649	   650	   651#	   651	   652	   653#	   653	   654	   655#	   655	   656	   657#	   657
	   658	   659#	   659	   660	   661#	   661	   662	   663#	   663	   664	   665#	   665	   666	   667#
	   667	   668
OFSET	   128#	   131	   131#	   133	   133#	   135	   135#	   137	   137#	   139	   139#	   141	   141#	   143
	   143#	   145	   145#	   147	   147#	   149	   149#	   151	   151#	   153	   153#	   155	   155#	   157
	   157#	   159	   159#	   161	   161#	   163	   163#	   165	   165#	   167	   167#	   174#	   177	   177#
	   178	   178#	   180	   180#	   182	   182#	   184	   184#	   186	   186#	   188	   188#	   195#	   197
	   197#	   199	   199#	   201	   201#	   203	   203#	   205	   205#	   207	   207#	   209	   209#	   211
	   211#	   213	   213#	   215	   215#	   217	   217#	   219	   219#	   221	   221#	   223	   223#	   225
	   225#	   227	   227#	   229	   229#	   231	   231#	   246#	   248	   248#	   250	   250#	   252	   252#
	   254	   254#	   256	   256#	   258	   258#	   260	   260#	   262	   262#	   264	   264#	   266	   266#
	   268	   268#	   270	   270#	   272	   272#	   274	   274#	   276	   276#	   278	   278#	   280	   280#
	   282	   282#	   284	   284#	   286	   286#	   288	   288#	   290	   290#	   292	   292#	   294	   294#
	   318#	   320	   320#	   322	   322#	   324	   324#	   326	   326#	   328	   328#	   330	   330#	   332
	   332#	   334	   334#	   336	   336#	   338	   338#	   340	   340#	   342	   342#	   344	   344#	   346
	   346#	   348	   348#	   350	   350#	   352	   352#	   354	   354#	   356	   356#	   358	   358#	   360
	   360#	   363	   363#	   390#	   392	   392#	   394	   394#	   396	   396#	   398	   398#	   400	   400#
	   402	   402#	   404	   404#	   406	   406#	   408	   408#	   410	   410#	   412	   412#	   414	   414#
	   416	   416#	   418	   418#	   420	   420#	   422	   422#	   424	   424#	   426	   426#	   428	   428#
	   430	   430#	   432	   432#	   434	   434#	   465#	   467	   467#	   469	   469#	   472	   472#	   475
	   475#	   477	   477#	   479	   479#	   481	   481#	   483	   483#	   485	   485#	   487	   487#	   489
	   489#	   491	   491#	   493	   493#	   495	   495#	   497	   497#	   499	   499#	   501	   501#	   503
	   503#	   505	   505#	   507	   507#	   509	   509#	   543#	   545	   545#	   547	   547#	   549	   549#
	   551	   551#	   553	   553#	   555	   555#	   557	   557#	   559	   559#	   561	   561#	   564	   564#
	   567	   567#	   570	   570#	   573	   573#	   598#	   601	   601#	   604	   604#	   606	   606#	   616#
	   619	   619#	   622	   622#	   630#	   634#	   636	   636#
OPFLAG	  1052	  1078
OPNO	    87#	  1080
OPSYN	   900#
SNOSYM - Symbol Table Management  %5(222)	MACRO %53B(1156)-1 21:50 14-Mar-88 Page 1
SNOSYM	MAC	20-Nov-66 01:30		MA355/JDS/DRH/MP/RCM/VB		10-JUN-76


Symbol cross reference

OPSYN$	   351
OPUN	   924	   929#
OUTPT$	   413
P1	   993	   994	  1016	  1022	  1023	  1025	  1051	  1057	  1068	  1073	  1079	  1084	  1085	  1089
	  1092	  1118	  1130	  1137
P2	   736	   740	   780	   903	   905	   907	   923	  1001	  1002	  1006	  1031	  1033	  1034	  1035
	  1036	  1039	  1119	  1120	  1121	  1122	  1126	  1127	  1128	  1129	  1135	  1136
PDT	   493	   783	  1049
PK	   177#	   178	   179#	   180	   181#	   182	   183#	   184	   185#	   186	   187#	   188	   196#	   197
	   198#	   199#	   199	   200#	   201	   202#	   203#	   203	   204#	   205	   206#	   207	   208#	   209
	   210#	   211	   212#	   213	   214#	   215	   216#	   217	   218#	   219	   220#	   221	   222#	   223
	   224#	   225#	   225	   226#	   227	   228#	   229	   230#	   231	   247#	   248	   249#	   250	   251#
	   252	   253#	   254	   255#	   256	   257#	   258	   259#	   260	   261#	   262	   263#	   264#	   264
	   265#	   266	   267#	   268	   269#	   270	   271#	   272	   273#	   274	   275#	   276	   277#	   278
	   279#	   280	   281#	   282	   283#	   284	   285#	   286	   287#	   288	   289#	   290	   291#	   292
	   293#	   294	   319#	   320	   321#	   322#	   322	   323#	   324	   325#	   326	   327#	   328	   329#
	   330	   331#	   332	   333#	   334	   335#	   336#	   336	   337#	   338	   339#	   340	   341#	   342
	   343#	   344	   345#	   346	   347#	   348	   349#	   350	   351#	   352	   353#	   354	   355#	   356
	   357#	   358	   359#	   360	   362#	   363	   391#	   392	   393#	   394	   395#	   396	   397#	   398
	   399#	   400	   401#	   402	   403#	   404	   405#	   406	   407#	   408	   409#	   410	   411#	   412
	   413#	   414	   415#	   416	   417#	   418	   419#	   420	   421#	   422	   423#	   424	   425#	   426
	   427#	   428	   429#	   430	   431#	   432	   433#	   434	   466#	   467	   468#	   469	   471#	   472
	   474#	   475	   476#	   477	   478#	   479	   480#	   481	   482#	   483	   484#	   485	   486#	   487
	   488#	   489	   490#	   491	   492#	   493	   494#	   495	   496#	   497	   498#	   499	   500#	   501
	   502#	   503	   504#	   505	   506#	   507#	   507	   508#	   509	   544#	   545	   546#	   547	   548#
	   549	   550#	   551	   552#	   553	   554#	   555	   556#	   557	   558#	   559	   560#	   561	   563#
	   564	   566#	   567	   569#	   570	   572#	   573	   600#	   601	   603#	   604	   605#	   606	   618#
	   619	   621#	   622	   635#	   636
PKFLAG	    82#	  1042
PLINK	   809
PLUS$	   143
POS$	   220
PPL	   989#	   989	   990	  1026#	  1026	  1027
PPR	  1026
PROTKW	  1047
PROTO$	   605
PSHR	   989
Q1	  1040	  1056	  1061	  1086	  1090	  1146	  1148	  1151
Q2	   758	   760	   761	   763	   785	   787	   788	   926	   932	   934	   950	   951	   953	   954
	   955	   956	   957	   958	   960	   961	   962	   963	   995	   996	   998	   999	  1002	  1038
	  1039	  1040	  1041	  1042	  1044	  1052	  1054	  1060	  1062	  1064	  1069	  1071	  1072	  1073
	  1080	  1082	  1149	  1150
Q3	   925	   929	   931	   949	   950	   960	  1044	  1045	  1046	  1048	  1050	  1064	  1065	  1066
	  1081	  1082	  1083	  1084	  1085	  1148	  1149	  1151
QLINK	   759	   786	   808	   927	   935	   959	   964	   988	  1111
QUEST$	   153
RAND$	   415
RBP$	   569
RDT	   276
REGP	   989	   990	  1026	  1027
SNOSYM - Symbol Table Management  %5(222)	MACRO %53B(1156)-1 21:50 14-Mar-88 Page 1
SNOSYM	MAC	20-Nov-66 01:30		MA355/JDS/DRH/MP/RCM/VB		10-JUN-76


Symbol cross reference

REMDR$	   353
RENAM$	   417
REPEAT	   419
RET	   423
RETNL1	   832	   861	   879
RETNUL	   794	   928	   936
RPAD$	   277
RPLC$	   494
RPOS$	   279
RPREC	  1085
RSCN$	   421
RSORT$	   355
RSTVL	   794#	   799
RTAB$	   281
RUN$	   226
RVRS$	   496
RWND$	   425
S1	   742	   753	   757	   769	   778	   779	   782	   785	   789	   790	   795	   797	   798	   921
	   922	   926	   932	   933	   934	   999	  1000	  1013	  1035
S2	   738	   739	   750	   914	   915	   925	   929	   930	   931	  1003	  1007	  1012	  1032	  1037
	  1038
S3	   751	   755	   764	   782	   783	  1004	  1012
SBLOK	   167	   189	   232	   295	   365	   435	   510	   574	   607	   623	   631	   637
SBSTR$	   431
SDT	   430	   649	   651	   653	   655	   657	   659	   661	   663	   665	   667	   719	  1001	  1150
SIZE$	   283
SLINK	   859
SORT$	   285
SPAN$	   287
STABLE	   671#	   998
STACK	   737	   738	   743	   745	   760	   761	   762	   763	   795	   796	   797	   798	   821	   824
	   841	   854	   865	   870	   873	   886	   903	   904	   911	   913	   914	   918	   920	   921
	   948	   949	   957	   958	   962	   963	  1006	  1007	  1019	  1020	  1022	  1023	  1109	  1110
	  1118	  1119	  1121	  1122	  1129	  1130	  1136	  1137	  1141
STCON	  1021
STINIT	   748
STPTR	   766
STPTR$	   427
STRM	   754
STXT$	   500
SUM$	   143
SYMASC	    26#
SYMEDT	    19#
SYMMIN	    18#
SYMSIX	    25#
SYMVER	    17#
SYMWHO	    20#
SYSCT	   750
T1	   770	   787	   824	   825	   873	   874	   875	  1016	  1017
T2	   771	   772	   774	   775	   776	   778	   793	   794	   825	   827	   830	   834	   874	   878
SNOSYM - Symbol Table Management  %5(222)	MACRO %53B(1156)-1 21:50 14-Mar-88 Page 1
SNOSYM	MAC	20-Nov-66 01:30		MA355/JDS/DRH/MP/RCM/VB		10-JUN-76


Symbol cross reference

	   984	   986	  1025	  1028	  1112	  1113	  1114	  1115	  1116	  1135	  1138	  1140	  1142
T3	   772	   773	   776	   830	   831	   985	   986	  1115	  1116	  1117	  1120	  1126	  1131
TAB$	   228
TABLE$	   357
TDT	   358
TFBLOK	   831
TFOLD	   834
TIME$	   291
TLINK	   748	   754	   756	   818	   852	   868	   901	   909	   916	   977	   978	   980	   981	  1008
	  1021	  1029	  1030	  1106	  1107	  1123	  1134	  1139
TLNKSV	   977	   980	   983	  1029
TLSAV	  1106	  1132	  1134	  1143
TRACE$	   359
TRIM$	   293
TTY$	   230
UNDEF	  1146#
UNDEF$	   722	   827	  1059	  1088
UNLD$	   433
VALUE	   760	   761	   782	   787	   788	   797	   798	  1051
VARCL	   746	   764	   769#
VARPRO	   718#	   992
VARSIZ	   987	   994	  1016
VBINRY	  1092
VFLAGS	   875	   930	   933	  1079
VFUNC	   825	   925	   926	   931	   934	  1068	  1148
VKEY	  1073
VLABEL	   874	  1057
VLINK	   789	  1126	  1127
VNAME	   962	   963	  1022	  1023	  1121	  1122	  1148	  1151
VTABLE	   771	  1114
VUNARY	   929	   932	  1089	  1151
WHERE$	   362
Y.CM	   751
YESLOC	  1125	  1134#
Z	   737	   741	   743	   758	   796	   841	   842	   886	   887	   904	   913	   920	   948	   982
	   984	   987	   989	   991	   992	   994	  1026	  1028	  1047	  1048	  1049	  1050	  1051	  1056
	  1057	  1059	  1061	  1066	  1068	  1078	  1079	  1086	  1087	  1088	  1089	  1090	  1091	  1092
	  1112	  1131	  1138	  1142
SNOSYM - Symbol Table Management  %5(222)	MACRO %53B(1156)-1 21:50 14-Mar-88 Page 1
SNOSYM	MAC	20-Nov-66 01:30		MA355/JDS/DRH/MP/RCM/VB		10-JUN-76


Macro/Opdef cross reference

BIS	    92#	   128	   174	   195	   246	   318	   390	   465	   543	   598	   616	   630	   634
C	   128#	   131	   133	   135	   137	   139	   141	   143	   145	   147	   149	   151	   153	   155
	   157	   159	   161	   163	   165	   167	   167#	   169	   174#	   177	   178	   180	   182	   184
	   186	   188	   189#	   191	   195#	   197	   199	   201	   203	   205	   207	   209	   211	   213
	   215	   217	   219	   221	   223	   225	   227	   229	   231	   232#	   234	   246#	   248	   250
	   252	   254	   256	   258	   260	   262	   264	   266	   268	   270	   272	   274	   276	   278
	   280	   282	   284	   286	   288	   290	   292	   294	   295#	   297	   318#	   320	   322	   324
	   326	   328	   330	   332	   334	   336	   338	   340	   342	   344	   346	   348	   350	   352
	   354	   356	   358	   360	   363	   365#	   367	   390#	   392	   394	   396	   398	   400	   402
	   404	   406	   408	   410	   412	   414	   416	   418	   420	   422	   424	   426	   428	   430
	   432	   434	   435#	   437	   465#	   467	   469	   472	   475	   477	   479	   481	   483	   485
	   487	   489	   491	   493	   495	   497	   499	   501	   503	   505	   507	   509	   510#	   512
	   543#	   545	   547	   549	   551	   553	   555	   557	   559	   561	   564	   567	   570	   573
	   574#	   576	   598#	   601	   604	   606	   607#	   609	   616#	   619	   622	   623#	   625	   630#
	   631#	   633	   634#	   636	   637#	   639
CA	   128#	   131	   131#	   133	   133#	   135	   135#	   137	   137#	   139	   139#	   141	   141#	   143
	   143#	   145	   145#	   147	   147#	   149	   149#	   151	   151#	   153	   153#	   155	   155#	   157
	   157#	   159	   159#	   161	   161#	   163	   163#	   165	   165#	   167	   167#	   169	   174#	   177
	   177#	   178	   178#	   180	   180#	   182	   182#	   184	   184#	   186	   186#	   188	   188#	   191
	   195#	   197	   197#	   199	   199#	   201	   201#	   203	   203#	   205	   205#	   207	   207#	   209
	   209#	   211	   211#	   213	   213#	   215	   215#	   217	   217#	   219	   219#	   221	   221#	   223
	   223#	   225	   225#	   227	   227#	   229	   229#	   231	   231#	   234	   246#	   248	   248#	   250
	   250#	   252	   252#	   254	   254#	   256	   256#	   258	   258#	   260	   260#	   262	   262#	   264
	   264#	   266	   266#	   268	   268#	   270	   270#	   272	   272#	   274	   274#	   276	   276#	   278
	   278#	   280	   280#	   282	   282#	   284	   284#	   286	   286#	   288	   288#	   290	   290#	   292
	   292#	   294	   294#	   297	   318#	   320	   320#	   322	   322#	   324	   324#	   326	   326#	   328
	   328#	   330	   330#	   332	   332#	   334	   334#	   336	   336#	   338	   338#	   340	   340#	   342
	   342#	   344	   344#	   346	   346#	   348	   348#	   350	   350#	   352	   352#	   354	   354#	   356
	   356#	   358	   358#	   360	   360#	   363	   363#	   367	   390#	   392	   392#	   394	   394#	   396
	   396#	   398	   398#	   400	   400#	   402	   402#	   404	   404#	   406	   406#	   408	   408#	   410
	   410#	   412	   412#	   414	   414#	   416	   416#	   418	   418#	   420	   420#	   422	   422#	   424
	   424#	   426	   426#	   428	   428#	   430	   430#	   432	   432#	   434	   434#	   437	   465#	   467
	   467#	   469	   469#	   472	   472#	   475	   475#	   477	   477#	   479	   479#	   481	   481#	   483
	   483#	   485	   485#	   487	   487#	   489	   489#	   491	   491#	   493	   493#	   495	   495#	   497
	   497#	   499	   499#	   501	   501#	   503	   503#	   505	   505#	   507	   507#	   509	   509#	   512
	   543#	   545	   545#	   547	   547#	   549	   549#	   551	   551#	   553	   553#	   555	   555#	   557
	   557#	   559	   559#	   561	   561#	   564	   564#	   567	   567#	   570	   570#	   573	   573#	   576
	   598#	   601	   601#	   604	   604#	   606	   606#	   609	   616#	   619	   619#	   622	   622#	   625
	   630#	   633	   634#	   636	   636#	   639
DATWD	    89#	   248	   274	   276	   328	   358	   430	   487	   491	   493	   555	   622	   649	   651
	   653	   655	   657	   659	   661	   663	   665	   667
EIS	    99#	   167	   189	   232	   295	   365	   435	   510	   574	   607	   623	   631	   637
ERR	   906	   908
ERR%	  1153
ERR.	   749	   843	   853	   888	   902	   910	   912	   917	   919
ERROR	   906	   908
ERROR%	  1153
ERROR.	   749	   843	   853	   888	   902	   910	   912	   917	   919
IS	   109#	   177	   179	   181	   183	   185	   187	   196	   198	   200	   202	   204	   206	   208
	   210	   212	   214	   216	   218	   220	   222	   224	   226	   228	   230	   247	   249	   251
SNOSYM - Symbol Table Management  %5(222)	MACRO %53B(1156)-1 21:50 14-Mar-88 Page 1
SNOSYM	MAC	20-Nov-66 01:30		MA355/JDS/DRH/MP/RCM/VB		10-JUN-76


Macro/Opdef cross reference

	   253	   255	   257	   259	   261	   263	   265	   267	   269	   271	   273	   275	   277	   279	   281
	   283	   285	   287	   289	   291	   293	   319	   321	   323	   325	   327	   329	   331	   333
	   335	   337	   339	   341	   343	   345	   347	   349	   351	   353	   355	   357	   359	   362
	   391	   393	   395	   397	   399	   401	   403	   405	   407	   409	   411	   413	   415	   417
	   419	   421	   423	   425	   427	   429	   431	   433	   466	   468	   471	   474	   476	   478
	   480	   482	   484	   486	   488	   490	   492	   494	   496	   498	   500	   502	   504	   506
	   508	   544	   546	   548	   550	   552	   554	   556	   558	   560	   563	   566	   569	   572
	   600	   603	   605	   618	   621	   635
ISD	    91#	   691	   692	   693	   694	   695	   696	   697	   698	   699	   700	   701	   702
ISOP	   104#	   129	   131	   133	   135	   137	   139	   141	   143	   145	   147	   149	   151	   153
	   155	   157	   159	   161	   163	   165	   175
IST	    90#	   649	   651	   653	   655	   657	   659	   661	   663	   665	   667	   674	   675	   676
	   677	   678	   679	   680	   681	   682	   683	   684	   685
MIDENT	   990	  1027
MOVX	   751
POPR	  1026
PPADDR	   989#	   990	  1026#	  1027
PPINIT	   989	  1026
PPLENG	   989#	   990	  1026#	  1027
PUSHR	   989
SHOW.	    32	    33
SYMPTX	    40
SYMTTL	    39
TITLE.	    24
$POP	  1129	  1136
$PUSH	  1118cIh