SNOTBL - Tables  %5(231)	MACRO %53B(1156)-1 21:50 14-Mar-88 Page 1
SNOTBL	MAC	13-Oct-66 22:12		Gimpel--Ma355/JDS/DRH/MP/RCM/VB		15-Jun-76

     1						SUBTTL	Gimpel--Ma355/JDS/DRH/MP/RCM/VB		15-Jun-76
     2
     3					; COPYRIGHTS 1972,1973,1976,1977  STEVENS INSTITUTE OF TECHNOLOGY
     4					; HOBOKEN, NEW JERSEY, 07030
     5					; ALL RIGHTS RESERVED.
     6
     7					  ;UNIVERSALS
     8
     9						SEARCH	JOBDAT		;JOB DATA AREA DEFINITIONS
    10						SEARCH	MACTEN		;DEC-10 COMMON MACROS
    11						SEARCH	UUOSYM		;TOPS10 UUO SYMBOL DEFINITIONS
    12						SEARCH	SNOPRM		;SITBOL PARAMETER FILE
    13
    14					  ;DIRECTIVES
    15
    16						.DIRECT	.XTABM		;EXCLUDE TABS FROM MACRO CALLS
    17						SALL			;SUPPRESS MACRO EXPANSIONS
    18	400000'					TWOSEG	400K		;TWOSEGMENT CODE
    19
    20					  ;VERSION NUMBER
    21
    22			000005			TBLVER==5		;MAJOR VERSION NUMBER
    23			000000			TBLMIN==0		;MINOR VERSION NUMBER
    24			000231			TBLEDT==231		;EDIT LEVEL
    25			000000			TBLWHO==0		;CUSTOMER ARGUMENT
    26
    27					  ;TITLE
    28
    29						TITLE.	TBL,SNOTBL,<Tables>
    30		644254	000000			TBLSIX==SIXBIT /TBL/	; SNOTBL ABBREVIATION IN SIXBIT
    31		522051	400000			TBLASC==ASCIZ /TBL/	; SNOTBL ABBREVIATION IN ASCII
    32						SALL
    33
    34
    35					  ;SHOW UNIVERSAL VERSION NUMBERS
    36
    37	400000'	043100	000450			SHOW.	%%JOBD		;VERSION NUMBER OF JOBDAT
    38	400000'	000200	000025			SHOW.	%%MACT		;VERSION NUMBER OF MACTEN
    39	400000'	001400	000457			SHOW.	%%UUOS		;VERSION NUMBER OF UUOSYM
    40	400000'	000500	000305			SHOW.	%%SNOP		;VERSION NUMBER OF SNOPRM
    41
    42						TBLTTL			; Title
    43						TBLPTX			; PASS2 assembly message
SNOTBL - Tables  %5(231)	MACRO %53B(1156)-1 21:50 14-Mar-88 Page 2
SNOTBL	MAC	13-Oct-66 22:12		Table of Contents

    44						SUBTTL	Table of Contents
    45
    46					;		Table of Contents for Tables
    47					;
    48					;
    49					;			   Section			      Page
    50					;   1. Table of Contents. . . . . . . . . . . . . . . . . . .    2
    51					;   2. REVISION HISTORY . . . . . . . . . . . . . . . . . . .    3
    52					;   3. HASHNO . . . . . . . . . . . . . . . . . . . . . . . .    4
    53					;   4. TABLE & TBL. . . . . . . . . . . . . . . . . . . . . .    6
    54					;   5. TITEM. . . . . . . . . . . . . . . . . . . . . . . . .    7
    55					;   6. ALTE - Allocate a table element. . . . . . . . . . . .    8
    56					;   7. TVTBL - TRAPPED VARIABLE FOR TABLES. . . . . . . . . .    9
    57					;   8. ITE, FTE, TSEQ . . . . . . . . . . . . . . . . . . . .   10
    58					;   9. CVTARY
    59					;        9.1.   Convert from a table to an array. . . . . . .   13
    60					;  10. CVTTBL . . . . . . . . . . . . . . . . . . . . . . . .   14
SNOTBL - Tables  %5(231)	MACRO %53B(1156)-1 21:50 14-Mar-88 Page 3
SNOTBL	MAC	13-Oct-66 22:12		REVISION HISTORY

    61						SUBTTL	REVISION HISTORY
    62
    63					COMMENT	\
    64
    65					START OF VERSION 5.
    66					122	RENAME MODULES & CLEAN UP.
    67					154	Give the correct error number in TBL (6.1 not 6.0)
    68					227	Don't abuse floating addresses in TSEQ.
    69					231	Table referencing is too slow, speed it up.
    70					\
SNOTBL - Tables  %5(231)	MACRO %53B(1156)-1 21:50 14-Mar-88 Page 4
SNOTBL	MAC	13-Oct-66 22:12		HASHNO

    71						SUBTTL	HASHNO
    72
    73					;	HASHNO WILL RETURN A POSITIVE INTEGER IN Z
    74					;	FOR ANY GIVEN DESCRIPTOR
    75					;	CALLING SEQUENCE:
    76					;		PUSH DESCRIPTOR ONTO STACK
    77					;		JSP QLINK,HASHNO
    78					;		RETURN (DESCRIPTOR POPPED)
    79
    80	400000'	554 16 0 01 777777 	HASHNO::HLRZ	Q2,-1(STACK)	; GET DATATYPE
    81	400001'	405 16 0 00 000077 		ANDI	Q2,DTNUM	; CLEAR OUT FLAGS
    82	400002'	307 16 0 00 000012 		CAIG	Q2,MAXDTN	; STANDARD TYPE?
    83	400003'	254 00 1 16 400004'		JRST	@JMPTBL(Q2)	;YES - LEAP INTO TABLE
    84
    85	400004'	000000	400017'		JMPTBL:	H.TWO		; EXTERNAL
    86	400005'	000000	400021'			H.NUM		; INTEGER
    87	400006'	000000	400021'			H.NUM		; REAL
    88	400007'	000000	400042'			H.STR		; STRING
    89	400010'	000000	400024'			H.PATT		; PATTERN
    90	400011'	000000	400027'			H.ARY		; ARRAY
    91	400012'	000000	400017'			H.TWO		; EXPRESSION
    92	400013'	000000	400017'			H.TWO		; CODE
    93	400014'	000000	400037'			H.DFD		; TABLE
    94	400015'	000000	400032'			H.NAME		; NAME
    95	400016'	000000	400037'			H.DFD		; DEFINED DATATYPE
    96
    97						IFN <<.-JMPTBL>-MAXDTN-1>,< PRINTX JMPTBL IN ERROR>
    98						IFN <DHASH-THASH>,< PRINTX NEED FIX FOR HASHNO OF TBL'S>
    99
   100
   101						 ; OR TWO DESCRIPTOR WORDS
   102
   103	400017'	554 00 0 01 777777 	H.TWO:	HLRZ	Z,-1(STACK)	; USE DATATYPE
   104	400020'	254 00 0 00 400065'		JRST	H.FIN		; GO FINISH UP
   105
   106						 ; NUMBERS
   107
   108	400021'	554 00 0 01 777777 	H.NUM:	HLRZ	Z,-1(STACK)	; ADD DATATYPE ...
   109	400022'	270 00 0 01 000000 		ADD	Z,0(STACK)	; TO NUMBER
   110	400023'	254 00 0 00 400065'		JRST	H.FIN		; AND FINSIH UP
   111
   112						 ; PATTERNS
   113
   114	400024'	200 16 0 01 777777 	H.PATT:	MOVE	Q2,-1(STACK)	; LOAD ADDRESS OF PBLOK
   115	400025'	550 00 0 16 000005 		HRRZ	Z,LPHDR+PPROG(Q2)	; FIRST PRIMITIVE
   116	400026'	254 00 0 00 400065'		JRST	H.FIN		; FINISH UP
   117
   118						 ; ARRAYS
   119
   120	400027'	200 16 0 01 777777 	H.ARY:	MOVE	Q2,-1(STACK)	; PICK UP ADDRESS OF ABLOK
   121	400030'	554 00 0 16 000004 		HLRZ	Z,AHASH(Q2)	; GET HASH FIELD
   122	400031'	254 00 0 00 400065'		JRST	H.FIN		; FINSIH UP
   123
   124						 ; NAMES
   125
SNOTBL - Tables  %5(231)	MACRO %53B(1156)-1 21:50 14-Mar-88 Page 4-1
SNOTBL	MAC	13-Oct-66 22:12		HASHNO

   126	400032'	200 00 0 01 000000 	H.NAME: MOVE	Z,0(STACK)	; PICK UP OFFSET
   127	400033'	332 00 0 00 000000 		SKIPE	Z		; SKIP IF A VARIABLE
   128	400034'	254 00 0 00 400065'		JRST	H.FIN		; OTHERWISE RETURN OFFSET
   129
   130	400035'	550 00 0 01 777777 		HRRZ	Z,-1(STACK)	; USE VARIABLE'S ADDRESS
   131	400036'	254 00 0 00 400065'		JRST	H.FIN		; AND RETURN
   132
   133						 ; DEFINED DATATYPES
   134						 ;
   135	400037'	200 16 0 01 777777 	H.DFD:	MOVE	Q2,-1(STACK)	; PICK UP ADDRESS OF DBLOK
   136	400040'	554 00 0 16 000002 		HLRZ	Z,DHASH(Q2)	; USE HASH FIELD
   137	400041'	254 00 0 00 400065'		JRST	H.FIN		; FINISH
   138
   139
   140

SNOTBL - Tables  %5(231)	MACRO %53B(1156)-1 21:50 14-Mar-88 Page 5
SNOTBL	MAC	13-Oct-66 22:12		HASHNO

   141						 ; STRINGS
   142
   143	400042'	550 17 0 01 000000 	H.STR:	HRRZ	Q3,0(STACK)	; LENGTH OF STRING TO Q3
   144	400043'	322 17 0 00 400017'		JUMPE	Q3,H.TWO	; JUMP IF NULL
   145	400044'	202 17 0 00 000000*		MOVEM	Q3,IGNOQ##	; SAVE LENGTH
   146	400045'	554 16 0 01 000000 		HLRZ	Q2,0(STACK)	; OFFSET TO Q2
   147	400046'	275 17 0 00 000005 		SUBI	Q3,5		; LENGTH-5 TO Q3
   148	400047'	323 17 0 00 400054'		JUMPLE	Q3,H.STR1	; JUMP IF STRING 5 CHARS. OR LESS
   149
   150	400050'	201 00 0 00 000005 		MOVEI	Z,5		; THE EFFECTIVE LENGTH ...
   151	400051'	202 00 0 00 400044*		MOVEM	Z,IGNOQ##	; BECOMES 5
   152	400052'	242 17 0 00 777777 		LSH	Q3,-1		; DIVIDE LEN-5 BY 2
   153	400053'	270 16 0 00 000017 		ADD	Q2,Q3		; INCREASE TOTAL OFFSET
   154
   155						 ; HERE WITH Q2 HOLDING TOTAL BYTE OFFSET
   156
   157	400054'	231 16 0 00 000005 	H.STR1:	IDIVI	Q2,5		; DIVIDE AND EXCHANGE TO OBTAIN ...
   158	400055'	250 16 0 00 000017 		EXCH	Q2,Q3		; WORD OFFSET - Q3, BYTE OFFSET - Q2
   159	400056'	270 17 0 01 777777 		ADD	Q3,-1(STACK)	; ADD IN ADDRESS OF SBLOK
   160	400057'	200 00 0 17 000003 		MOVE	Z,SCHARS+1(Q3)	; 2ND CHAR-WORD TO Z
   161	400060'	200 17 0 17 000002 		MOVE	Q3,SCHARS(Q3)	; 1ST CHAR-WORD TO Q3
   162
   163						 ; SHIFT THE CHARACTERS AROUND SO THAT THEY
   164						 ; WIND UP RIGHT-JUSTIFIED IN Z
   165
   166	400061'	242 17 0 00 777777 		LSH	Q3,-1		; CLOSE GAP
   167	400062'	246 17 1 16 400070'		LSHC	Q3,@SH.TB1(Q2)	; SHIFT RIGHT TO ALLIGN LEFT CHAR
   168	400063'	200 16 0 00 400051*		MOVE	Q2,IGNOQ##	; RELOAD LENGTH
   169	400064'	242 00 1 16 400076'		LSH	Z,@SH.TB2(Q2)	; SHIFT RIGHT TO ALLIGN RIGHT CHAR
   170
   171
   172						 ; FINISH UP BY FALLING THROUGH TO COMMON CODE
   173
   174	400065'	621 00 0 00 400000 	H.FIN:	TLZ	Z,400000	; ZERO OUT HIGH ORDER BIT
   175	400066'	274 01 0 00 000000*		SUB	STACK,XWD22##	; POP STACK
   176	400067'	254 00 0 15 000000 		JRST	0(QLINK)	; AND RETURN
   177
   178
   179
   180						 ; FIRST SHIFTING TABLE
   181
   182	400070'	000000	777735		SH.TB1:	XWD	0,-5*7
   183	400071'	000000	777744			XWD	0,-4*7
   184	400072'	000000	777753			XWD	0,-3*7
   185	400073'	000000	777762			XWD	0,-2*7
   186	400074'	000000	777771			XWD	0,-1*7
   187	400075'	000000	000000			XWD	0,-0
   188
   189
   190						 ; SECOND SHIFTING TABLE
   191
   192	400076'	000000	777734		SH.TB2:	XWD	0,0*7-^D36
   193	400077'	000000	777743			XWD	0,1*7-^D36
   194	400100'	000000	777752			XWD	0,2*7-^D36
SNOTBL - Tables  %5(231)	MACRO %53B(1156)-1 21:50 14-Mar-88 Page 5-1
SNOTBL	MAC	13-Oct-66 22:12		HASHNO

   195	400101'	000000	777761			XWD	0,3*7-^D36
   196	400102'	000000	777770			XWD	0,4*7-^D36
   197	400103'	000000	777777			XWD	0,5*7-^D36
   198

SNOTBL - Tables  %5(231)	MACRO %53B(1156)-1 21:50 14-Mar-88 Page 6
SNOTBL	MAC	13-Oct-66 22:12		TABLE & TBL

   199						SUBTTL	TABLE & TBL
   200
   201	400104'	274 01 0 00 400066*	TABLE::	SUB	STACK,XWD22##	; REMOVE 2ND ARG
   202	400105'	265 11 0 00 000000*		JSP	TLINK,CVTINT##	; MAKE AN INTEGER
   203	400106'	003 01 0 00 000142 		ERROR.	1,98		; BAD ARG
   204	400107'	274 01 0 00 400104*		SUB	STACK,XWD22##	; REMOVE ARG
   205	400110'	335 00 0 01 000002 		SKIPGE	2(STACK)	; WE DON'T LIKE NEGATIVES
   206	400111'	001 15 0 00 000061 		ERROR	13,49
   207
   208	400112'	336 05 0 01 000002 		SKIPN	P2,2(STACK)	; LOAD RETURNED VALUE IF NOT 0
   209	400113'	201 05 0 00 000045 		MOVEI	P2,^D37		; DEFAULT TABLE SIZE IF 0
   210
   211	400114'	200 00 0 00 000005 		MOVE	Z,P2		; LOAD VALUE
   212	400115'	265 11 0 00 400117'		JSP	TLINK,TBL	; ALLOCATE THE TABLE
   213	400116'	254 00 0 04 000001 		JRST	1(PLINK)	; AND RETURN
   214
   215						 ; TBL - THE TERTIARY EQUIVALENT OF TABLE
   216
   217	400117'	202 00 0 00 000012 	TBL::	MOVEM	Z,T2		; SAVE NUMBER OF BUCKEWTS
   218	400120'	270 00 0 00 400455'		ADD	Z,[TBLOK,,TBUCK] ; CREATE DESCRIPTOR
   219	400121'	265 15 0 00 000000*		JSP	QLINK,BLOK##	; ALLOCATE THE TABLE
   220	400122'	001 06 0 00 000001 		ERROR	6,1		;[154] Can't allocate
   221
   222	400123'	200 13 0 01 777777 		MOVE	T3,-1(STACK)	; LOAD POINTET TO TBLOK
   223	400124'	350 14 0 00 000000*		AOS	T4,TBLID##	; GET NEXT ID
   224	400125'	504 12 0 00 000014 		HRL	T2,T4		; INSERT INTO LEFT HALF
   225	400126'	202 12 0 13 000002 		MOVEM	T2,THASH&TNBUCK(T3) ; INSERT THE FIELDS
   226	400127'	254 00 0 11 000000 		JRST	0(TLINK)	; AND RETURN
   227

SNOTBL - Tables  %5(231)	MACRO %53B(1156)-1 21:50 14-Mar-88 Page 7
SNOTBL	MAC	13-Oct-66 22:12		TITEM

   228						SUBTTL	TITEM
   229
   230						 ; HERE WHEN HE REFERENCES A TABLE
   231
   232	400130'	302 00 0 00 000002 	TITEM::	CAIE	Z,2		; 2 DESCRIPTORS?
   233	400131'	001 03 0 00 000002 		 ERROR	3,2		; TOO MANY
   234
   235	400132'	554 12 0 01 777775 		HLRZ	T2,-3(STACK)	; GET TYPE OF FIRSTR ARF
   236	400133'	302 12 0 00 004010 		CAIE	T2,TDT		; TABLE?
   237	400134'	001 03 0 00 000001 		 ERROR	3,1		; NO
   238
   239
   240	400135'	201 11 0 01 777775 		MOVEI	T1,-TEREF-1(STACK)	;[231] Fake out FTE
   241	400136'	550 12 0 01 777775 		HRRZ	T2,-3(STACK)	;[231] Get address of the table
   242	400137'	265 10 0 00 400256'		JSP	S3,FTE		;[231] Is the element already there ?
   243	400140'	254 00 0 00 400146'		 JRST	TITEM1		;[231] No - GO DO TRAPPED VARIABLE THING
   244	400141'	274 01 0 00 000000*		SUB	STACK,XWD44##	;[231] Remove argument from the stack
   245	400142'	505 11 0 00 064000 		HRLI	T1,VAR		;[231] Make a variable
   246	400143'	261 01 0 00 000011 		PUSH	STACK,T1	;[231] and store it
   247	400144'	261 01 0 00 400456'		PUSH	STACK,[TEVAL]	;[231]  on the stack
   248	400145'	254 00 0 04 000001 		JRST	1(PLINK)	;[231] Return a winner
   249
   250
   251	400146'	265 11 0 00 400150'	TITEM1:	JSP	TLINK,ALTE	;[231] JUST ALLOCATE A TEBLOK
   252	400147'	254 00 0 04 000001 		JRST	1(PLINK)	; AND RETURN
SNOTBL - Tables  %5(231)	MACRO %53B(1156)-1 21:50 14-Mar-88 Page 8
SNOTBL	MAC	13-Oct-66 22:12		ALTE - Allocate a table element

   253						SUBTTL	ALTE - Allocate a table element
   254
   255						 ; HERE TO ALLOCATE A TABLE ELEMENT
   256						 ; CALLING SEQUENCE
   257						 ; 	PUSH TABLE ONTO STACK
   258						 ;	PUSH REFERENCE ELEMENT ONTO STACK
   259						 ;	JSP	TLINK,ALTE
   260						 ;	RETURN
   261
   262						 ; ALTE WILL REPLACE THE 2 DESCRIPTORS BY A
   263						 ; TRAPPED VARIABLE WHICH POINTS TO A TEBLOK
   264						 ; WHICH CONTAINS THE REFERENCE ELEMENT IN
   265						 ; THE TEREF FIELD AND THE TABLE IN THE TEVAL FIELD
   266
   267	400150'	200 00 0 00 400457'	ALTE::	MOVE	Z,[TEBLOK,,LTEBLK] ; SET ...
   268	400151'	202 00 0 02 000000 		MOVEM	Z,BTCODE&BLENG(SURF) ; UP ...
   269	400152'	402 00 0 02 000001 		CLEARM	GCFLD(SURF)	; INITIAL ...
   270	400153'	402 00 0 02 000006 		CLEARM	TELINK(SURF)	; VALUES
   271
   272	400154'	262 01 0 02 000003 		POP	STACK,TEREF+1(SURF) 	; INSERT
   273	400155'	262 01 0 02 000002 		POP	STACK,TEREF(SURF) 	; REFERENCE ELEMENT
   274	400156'	262 01 0 02 000005 		POP	STACK,TEVAL+1(SURF) 	; TEMPORARILY ...
   275	400157'	262 01 0 02 000004 		POP	STACK,TEVAL(SURF)		; SAVE TABLE
   276
   277	400160'	200 12 0 00 000002 		MOVE	T2,SURF		; PREPARE ...
   278	400161'	505 12 0 00 034000 		HRLI	T2,TVAR		; RETURN ...
   279	400162'	261 01 0 00 000012 		PUSH	STACK,T2	; DESCRIP-
   280	400163'	261 01 0 00 400460'		PUSH	STACK,[TVTBL]	; TOR
   281
   282	400164'	271 02 0 00 000007 		ADDI	SURF,LTEBLK	; BUMP SURF
   283	400165'	313 02 0 00 000000*		CAMLE	SURF,CEIL##	; NEED A GC?
   284	400166'	265 15 0 00 000000*		JSP	QLINK,GCOL##	; YES
   285
   286	400167'	254 00 0 11 000000 		JRST	0(TLINK)	; RETURN
   287

SNOTBL - Tables  %5(231)	MACRO %53B(1156)-1 21:50 14-Mar-88 Page 9
SNOTBL	MAC	13-Oct-66 22:12		TVTBL - TRAPPED VARIABLE FOR TABLES

   288						SUBTTL	TVTBL - TRAPPED VARIABLE FOR TABLES
   289
   290	400170'	254 00 0 00 400173'	TVTBL:	JRST	TBVAL
   291	400171'	254 00 0 00 400203'		JRST	TBNAM
   292	400172'	254 00 0 00 400212'		JRST	TBASGN
   293
   294						 ; TRAPPED VARIABLE VALUE
   295
   296	400173'	274 01 0 00 400107*	TBVAL:	SUB	STACK,XWD22##	; POP TRAPPED VARIABLE
   297
   298	400174'	550 11 0 01 000001 		HRRZ	T1,1(STACK)	; POINT TO TEBLOK
   299	400175'	550 12 0 11 000004 		HRRZ	T2,TEVAL(T1)	; POINT TO TABLE
   300	400176'	265 10 0 00 400256'		JSP	S3,FTE		; FIND ELEMENT
   301	400177'	200 11 0 00 400461'		MOVE	T1,[NULLST##-TEVAL] ; NO FIND - POINT TO NULL
   302
   303	400200'	261 01 0 11 000004 		PUSH	STACK,TEVAL(T1)	; PUSH VALUE
   304	400201'	261 01 0 11 000005 		PUSH	STACK,TEVAL+1(T1) ; ONTO STACK
   305	400202'	254 00 0 06 000001 		JRST	1(SLINK)	; AND RETURN
   306
   307						 ; HERE WHEN JUST THE NAME IS WANTED
   308						 ; LIKE IN  .T<'ABC'>
   309
   310	400203'	265 07 0 00 400234'	TBNAM:	JSP	S2,ITE		; INSERT ELEMENT IN TABLE
   311	400204'	254 00 0 06 000001 		JRST	1(SLINK)	; ALREADY THERE
   312
   313						 ; WAS NOT THERE BEFORE, INSERT VALUE
   314
   315	400205'	205 07 0 00 004003 		MOVSI	S2,SDT		; FIRST WORD OF NULL
   316	400206'	200 10 0 01 777777 		MOVE	S3,-1(STACK)	; LOAD ADDR OF TVAR
   317	400207'	202 07 0 10 000004 		MOVEM	S2,TEVAL(S3)	; INSERT FIRST WORD
   318	400210'	402 00 0 10 000005 		CLEARM	TEVAL+1(S3)	; INSERT 2ND WORD
   319
   320	400211'	254 00 0 06 000001 		JRST	1(SLINK)	; AND RETURN
   321
   322						 ; HERE TO ASSIGN INTO A TABLE
   323
   324	400212'	262 01 0 00 000000#	TBASGN:	POP	STACK,FLAS##+1	; SAVE VALUE
   325	400213'	262 01 0 00 000000*		POP	STACK,FLAS##	; OF ARGUMENT
   326
   327	400214'	265 07 0 00 400234'		JSP	S2,ITE		; INSERT TABLE ELEMENT
   328	400215'	254 00 0 00 400224'		JRST	TBASG1		; WAS THERE BEFORE
   329
   330	400216'	550 11 0 01 777777 		HRRZ	T1,-1(STACK)	; TRANSFER
   331	400217'	200 12 0 00 400213*		MOVE	T2,FLAS##	; SAVED ...
   332	400220'	200 13 0 00 000000#		MOVE	T3,FLAS##+1	; VALUE ...
   333	400221'	202 12 0 11 000004 		MOVEM	T2,TEVAL(T1)	; INTO ...
   334	400222'	202 13 0 11 000005 		MOVEM	T3,TEVAL+1(T1)	; TEBLOK
   335
   336	400223'	254 00 0 06 000001 		JRST	1(SLINK)	; AND RETURN
   337
   338						 ; HERE IF TEVAL COULD CONTAIN TVAR
   339
   340					IFE FTPAV,<	;OLD WAY
   341					TBASG1:	PUSH	STACK,FLAS##	; PUSH VALUE
SNOTBL - Tables  %5(231)	MACRO %53B(1156)-1 21:50 14-Mar-88 Page 9-1
SNOTBL	MAC	13-Oct-66 22:12		TVTBL - TRAPPED VARIABLE FOR TABLES

   342						PUSH	STACK,FLAS+1	; BACK ON STACK
   343						JSP	TLINK,ASGNVL##	; ASSIGN TO TABLE ELEMENT
   344						ERROR	15		; CAN'T FAIL
   345
   346						JRST	1(SLINK)	; RETURN
   347					>
   348					IFN FTPAV,<
   349	400224'	261 01 0 01 777777 	TBASG1:	PUSH	STACK,-1(STACK)	;REPLICATE VARIABLE ...
   350	400225'	261 01 0 01 777777 		PUSH	STACK,-1(STACK)	; ON STACK
   351	400226'	261 01 0 00 400217*		PUSH	STACK,FLAS	;PUSH VALUE
   352	400227'	261 01 0 00 000000#		PUSH	STACK,FLAS+1	; BACK ON THE STACK
   353	400230'	265 11 0 00 000000*		JSP	TLINK,ASGNVL##	;ASSIGN TO TABLE VARIABLE
   354	400231'	254 00 0 06 000000 		  JRST	(SLINK)		;FAILED -- LEAVE ONLY THE VARIABLE
   355	400232'	274 01 0 00 400173*		SUB	STACK,XWD22##	;SUCCESS -- REMOVE EXTRA VARIABLE
   356	400233'	254 00 0 06 000001 		JRST	1(SLINK)	;RETURN
   357					>;END OF IFN PAV
   358

SNOTBL - Tables  %5(231)	MACRO %53B(1156)-1 21:50 14-Mar-88 Page 10
SNOTBL	MAC	13-Oct-66 22:12		ITE, FTE, TSEQ

   359						SUBTTL	ITE, FTE, TSEQ
   360
   361						 ; ITE - INSERT TABLE ELEMENT
   362						 ; CALLING SEQUENCE:
   363						 ; 	PUSH TABLE TVAR DESCRIPTOR ONTO STACK
   364						 ; 	JSP	S2,ITE
   365						 ; 	RETURN 1  ; HERE IF ELEMEENT WAS FOUND IN TABLE
   366						 ; 	RETU ; HERE IF ELEMENT HAD TO BE INSERTED
   367						 ;
   368						 ; FOR BOTH RETURNS, A VAR DESCRIPTOR REPLACES THE
   369						 ; TVAR DESCRIPTOR. THE VAR DESCRIPTOR
   370						 ; IDENTIFIES THE TEVAL FIELD.
   371
   372	400234'	550 11 0 01 777777 	ITE::	HRRZ	T1,-1(STACK)	; POINT TO TEBLOK
   373	400235'	550 12 0 11 000004 		HRRZ	T2,TEVAL(T1)	; POINT TO TBLOK
   374	400236'	265 10 0 00 400256'		JSP	S3,FTE		; FIND ENTRY
   375	400237'	254 00 0 00 400245'		JRST	ITE1		; NOT THERE
   376
   377	400240'	274 01 0 00 400232*	ITE2:	SUB	STACK,XWD22##	; POP TVAR
   378	400241'	505 11 0 00 064000 		HRLI	T1,VAR		; INSERT TYPE
   379	400242'	261 01 0 00 000011 		PUSH	STACK,T1	; PUSH
   380	400243'	261 01 0 00 400456'		PUSH	STACK,[TEVAL]	; DESCRIPTOR
   381	400244'	254 00 0 07 000000 		JRST	0(S2)		; AND RETURN
   382
   383						 ; INSERT TEBLOK IN CHAIN
   384
   385	400245'	550 12 0 01 777777 	ITE1:	HRRZ	T2,-1(STACK)	; POINT TO TEBLOK
   386	400246'	550 13 0 11 000000 		HRRZ	T3,0(T1)	; LOAD CURRENT BUCKET
   387	400247'	542 13 0 12 000006 		HRRM	T3,TELINK(T2)	; LINK TO NEXT TEBLOK
   388	400250'	542 12 0 11 000000 		HRRM	T2,0(T1)	; LINK TO TEBLOK
   389
   390	400251'	201 13 0 00 064000 		MOVEI	T3,VAR		; INSERT
   391	400252'	506 13 0 01 777777 		HRLM	T3,-1(STACK)	; VAR AS TYPE
   392
   393	400253'	201 13 0 00 000004 		MOVEI	T3,TEVAL	; INSERT OFFSET TO
   394	400254'	202 13 0 01 000000 		MOVEM	T3,0(STACK)	; TEVAL FIELD
   395
   396	400255'	254 00 0 07 000001 		JRST	1(S2)		; AND RETURN
   397
   398
   399
   400
   401

SNOTBL - Tables  %5(231)	MACRO %53B(1156)-1 21:50 14-Mar-88 Page 11
SNOTBL	MAC	13-Oct-66 22:12		ITE, FTE, TSEQ

   402						 ; FTE - FIND A TABLE ELEMENT (STABLE ROUTINE)
   403						 ;	CALLING SEQUENCE:
   404						 ;	LOAD T1 WITH ADDRESS OF AN UNLINKED TEBLOK
   405						 ;	LOAD T2 WITH ADDRESS OF A TABLE
   406						 ;	JSP  S3,FTE
   407						 ;	NOT FOUND - T1 CONTAINS ADDRESS OF BUCKET
   408						 ;	FOUND - T1 CONTAINS ADDRESS OF TEBLOK
   409
   410	400256'	261 01 0 11 000002 	FTE::	PUSH	STACK,TEREF(T1)	; FIND ...
   411	400257'	261 01 0 11 000003 		PUSH	STACK,TEREF+1(T1) ; HASH NUMBER
   412	400260'	265 15 0 00 400000'		JSP	QLINK,HASHNO	; OF REF ELEMENT
   413
   414	400261'	202 00 0 00 000016 		MOVEM	Z,Q2		; FIND BUCKET ...
   415	400262'	550 15 0 12 000002 		HRRZ	Q1,TNBUCK(T2)	; NUMBER ...
   416	400263'	230 16 0 00 000015 		IDIV	Q2,Q1		; (INTO Q3)
   417
   418	400264'	271 12 0 17 000003 		ADDI	T2,TBUCK(Q3)	; ADDRESS OF BUCKET
   419	400265'	202 10 0 00 000000*		MOVEM	S3,FTESV##	; SAVE LINK
   420	400266'	550 10 0 12 000000 		HRRZ	S3,0(T2)	; PASS ADDRESS OF BUCKET
   421	400267'	552 12 0 00 000000#		HRRZM	T2,FTESV+1	; SAVE BUCKET ADDRESS
   422	400270'	322 10 0 00 400303'		JUMPE	S3,FTE.NO	; NOT THERE
   423
   424	400271'	261 01 0 11 000002 		PUSH	STACK,TEREF(T1)	; INITIALZIZE ...
   425	400272'	261 01 0 11 000003 		PUSH	STACK,TEREF+1(T1); IDENT WITH...
   426	400273'	265 11 0 00 000000*		JSP	TLINK,IDINIT##	; THE REFERENCE ELEMENT
   427
   428	400274'	261 01 0 10 000002 	FTE.LP:	PUSH	STACK,TEREF(S3)	; COMPARE ...
   429	400275'	261 01 0 10 000003 		PUSH	STACK,TEREF+1(S3) ; REFERENCE ...
   430	400276'	265 11 0 00 000000*		JSP	TLINK,IDENT##	; ELEMENT
   431	400277'	334 00 0 00 000000 		SKIPA			; NOT EQUAL
   432	400300'	254 00 0 00 400305'		JRST	FTE.YS		; EQUAL
   433
   434	400301'	550 10 0 10 000006 		HRRZ	S3,TELINK(S3)	; GET NEXT TEBLOK
   435	400302'	326 10 0 00 400274'		JUMPN	S3,FTE.LP	; AND LOOP WHILE NONZERO
   436
   437						 ; COULDN'T FIND
   438
   439	400303'	200 11 0 00 000000#	FTE.NO:	MOVE	T1,FTESV+1	; LOAD BUCKET ADDRESS
   440	400304'	254 00 1 00 400265*		JRST	@FTESV		; AND RETURN
   441
   442						 ; COULD FIND
   443
   444	400305'	200 11 0 00 000010 	FTE.YS:	MOVE	T1,S3		; RETURN ...
   445	400306'	200 10 0 00 400304*		MOVE	S3,FTESV	; TEBLOK ...
   446	400307'	254 00 0 10 000001 		JRST	1(S3)		; ADDRESS
   447

SNOTBL - Tables  %5(231)	MACRO %53B(1156)-1 21:50 14-Mar-88 Page 12
SNOTBL	MAC	13-Oct-66 22:12		ITE, FTE, TSEQ

   448						 ; TSEQ - A ROUTINE TO SEQUENCE THROUGH THE
   449						 ; NON-NULL ELEMENTS OF A TABLE
   450
   451						 ; CALLING SEQUENCE:
   452						 ;	PUSH	TDT DESCRIPTOR
   453						 ;	JSP	TLINK,TSEQ
   454						 ; 	INSTRUCTION (XCT'ED)
   455						 ; 	RETURN
   456
   457						 ; IF INSTRUCTION IS JSP THE CALLED ROUTINE MAY BE
   458						 ; TYPE Q
   459
   460	400310'	515 13 0 00 004010 	TSEQ::	HRLZI	T3,TDT		;[227] Note the entry point
   461	400311'	201 14 0 00 000004 		MOVEI	T4,TEVAL	;[227] Load the offset to value
   462	400312'	254 00 0 00 400315'		JRST	TSEQ0		;[227] Join the common code
   463
   464						 ; VTSEQ - A ROUTINE TO SEQUENCE THRU THE
   465						 ; VARIABLE TABLE.
   466
   467	400313'	400 13 0 00 000000 	VTSEQ::	SETZ	T3,		;[227] Clear to note the entry point
   468	400314'	201 14 0 00 000000 		MOVEI	T4,VALUE	; OFFSET TO VALUE OF ITEM
   469
   470
   471	400315'	202 13 0 00 000000*	TSEQ0:	MOVEM	T3,FLAT##	;[227] Save datatype code indicating entry
   472	400316'	402 00 0 00 000000#		SETZM	FLAT##+1	;[227] Make it a descriptor
   473	400317'	202 14 0 00 000000*		MOVEM	T4,IGNOT##	; SAVE IT HERE
   474
   475	400320'	550 12 0 01 777777 		HRRZ	T2,-1(STACK)	; POINT TO TABLE
   476	400321'	550 13 0 12 000002 		HRRZ	T3,TNBUCK(T2)	; NEGATIVE OF ...
   477	400322'	210 13 0 00 000013 		MOVN	T3,T3		; NUMBER OF ...
   478	400323'	514 12 0 00 000013 		HRLZ	T2,T3		;[227] Buckest to LH to make AOBJN pointer
   479
   480						 ; MAIN LOOP THRU TABLE
   481
   482	400324'	200 13 0 00 000000*		MOVE	T3,NULLST	; LOAD FOR COMPARISON
   483	400325'	550 14 0 01 777777 	TSEQ1:	HRRZ	T4,-1(STACK)	;[227] Get the addres of the table
   484	400326'	271 14 0 12 000003 		ADDI	T4,TBUCK(T2)	;[227] Point to the appropriate bucket
   485	400327'	550 14 0 14 000000 		HRRZ	T4,(T4)		;[227] LOAD NEXT LIST
   486	400330'	322 14 0 00 400342'		JUMPE	T4,TSEQ3	; 0? CONTINUE TO NEXT ITEM
   487
   488	400331'	542 14 0 00 400315*	TSEQ2:	HRRM	T4,FLAT##	;[227] Save pointer to blok in tended area
   489	400332'	201 16 0 14 000000 		MOVEI	Q2,0(T4)	; POINT TO BLOCK
   490	400333'	270 16 0 00 400317*		ADD	Q2,IGNOT##	; POINT TO VALUE
   491	400334'	265 15 0 00 000000*		JSP	QLINK,LOCVAL##	; NOW POINT TO THE REAL VALUE
   492	400335'	312 13 0 16 000000 		CAME	T3,0(Q2)	; SKIP IF ITS NULL
   493	400336'	256 00 0 11 000000 		XCT	0(TLINK)	; PROCESS THE ITEM IF NOT NULL
   494	400337'	550 14 0 00 400331*		HRRZ	T4,FLAT##	;[227] Reload the pointer to the blok
   495	400340'	550 14 0 14 000006 		HRRZ	T4,TELINK(T4)	; GET NEXT TEBLOK
   496	400341'	326 14 0 00 400331'		JUMPN	T4,TSEQ2	; CONTINUE IF NON-ZERO
   497
   498	400342'	253 12 0 00 400325'	TSEQ3:	AOBJN	T2,TSEQ1	; KEEP LOOPING
   499
   500	400343'	254 00 0 11 000001 		JRST	1(TLINK)	; DONE, RETURN
   501

SNOTBL - Tables  %5(231)	MACRO %53B(1156)-1 21:50 14-Mar-88 Page 13
SNOTBL	MAC	13-Oct-66 22:12		CVTARY -- Convert from a table to an array

   502						SUBTTL	CVTARY -- Convert from a table to an array
   503
   504
   505						 ; TYPE S UTILITY TO CONVERT FROM TABLES
   506						 ; TO ARRAYS
   507
   508	400344'	554 07 0 01 777777 	CVTARY::HLRZ	S2,-1(STACK)	; LOAD DT
   509	400345'	306 07 0 00 004005 		CAIN	S2,ADT		; ALREADY ARRAY
   510	400346'	254 00 0 06 000001 		JRST	1(SLINK)	; YES, QUICK RETURN
   511
   512	400347'	302 07 0 00 004010 		CAIE	S2,TDT		; TABLE?
   513	400350'	001 15 0 00 000101 		ERROR	13,65		; STRANGE OBJECT
   514
   515						 ; HERE IF A TABLE WAS PASSED IN
   516
   517						 ; COUNT THE NUMBER OF ITEMS IN THE TABLE
   518
   519	400351'	400 10 0 00 000000 		CLEAR	S3,		; COUNTING REGISTER
   520	400352'	265 11 0 00 400310'		JSP	TLINK,TSEQ	; SEQUENCE THRU TABLE
   521
   522	400353'	340 10 0 00 000000 		AOJ	S3,		; XCT'ED INSTRUCTION
   523
   524	400354'	322 10 0 06 000000 		JUMPE	S3,0(SLINK)	; IF NO ELEMENTS, FAIL
   525
   526						 ; ALLOCATE STORAGE
   527
   528	400355'	202 06 0 00 000000*		MOVEM	SLINK,TBLSV##	; SAVE RETURN POINT
   529	400356'	202 10 0 00 000000#		MOVEM	S3,TBLSV+1	; AND NUMBER OF ITEMS
   530
   531	400357'	265 06 0 00 000000*		JSP	SLINK,LINE.##	; FORM PROTOTYPE
   532	400360'	000000	000003			XWD	0,3		; 3 ELEMENTS
   533	400361'	002001	000000#			XWD	IDT,TBLSV+1	; N
   534	400362'	004003	400462'			XWD	SDT,[",",,1]	; ,
   535	400363'	002001	400463'			XWD	IDT,[2]		; 2
   536
   537	400364'	265 06 0 00 000000*		JSP	SLINK,ARY##	; ALLOCATE THE ARRAY
   538
   539	400365'	200 10 0 01 777777 		MOVE	S3,-1(STACK)	; LOAD ARRAY POINTER
   540	400366'	262 01 0 00 000000#		POP	STACK,FLAS+1	; SAVE
   541	400367'	262 01 0 00 400226*		POP	STACK,FLAS	; ARRAY
   542
   543						 ; COPY THE TABLE ELEMENTS
   544
   545	400370'	265 11 0 00 400310'		JSP	TLINK,TSEQ	; FOR EACH TABLE ITEM
   546
   547						JSP	QLINK,[MOVE  Q3,TEREF(T4)  ; TRANSFER
   548							MOVEM	Q3,SUBFAC+4(S3)	; THE
   549							MOVE	Q3,TEREF+1(T4)	; REFERENCE
   550							MOVEM	Q3,SUBFAC+5(S3)	; ITEM
   551
   552							MOVE	Q3,0(Q2)	; TRANSFER
   553							MOVEM	Q3,SUBFAC+6(S3)	; THE
   554							MOVE	Q3,1(Q2)	; VALUE
   555							MOVEM	Q3,SUBFAC+7(S3)	; ITEM
SNOTBL - Tables  %5(231)	MACRO %53B(1156)-1 21:50 14-Mar-88 Page 13-1
SNOTBL	MAC	13-Oct-66 22:12		CVTARY -- Convert from a table to an array

   556
   557							ADDI	S3,4		; BUMP ARRAY ADDR
   558	400371'	265 15 0 00 400464'			JRST	0(QLINK) ]	; AND RETURN
   559
   560	400372'	274 01 0 00 400240*		SUB	STACK,XWD22##	; REMOVE TABLE
   561	400373'	261 01 0 00 400367*		PUSH	STACK,FLAS	; REPLACE BY ..
   562	400374'	261 01 0 00 000000#		PUSH	STACK,FLAS+1	; ARRAY
   563
   564	400375'	200 06 0 00 400355*		MOVE	SLINK,TBLSV	; RELOAD LINK
   565	400376'	254 00 0 06 000001 		JRST	1(SLINK)	; AND RETURN
   566

SNOTBL - Tables  %5(231)	MACRO %53B(1156)-1 21:50 14-Mar-88 Page 14
SNOTBL	MAC	13-Oct-66 22:12		CVTTBL

   567						SUBTTL	CVTTBL
   568
   569	400377'	554 07 0 01 777777 	CVTTBL::HLRZ	S2,-1(STACK)	; DATATYPE
   570	400400'	306 07 0 00 004010 		CAIN	S2,TDT		; ALREADY A TABLE
   571	400401'	254 00 0 06 000001 		JRST	1(SLINK)	; YES
   572
   573	400402'	302 07 0 00 004005 		CAIE	S2,ADT		; ARRAY ?
   574	400403'	001 15 0 00 000102 		ERROR	13,66		; NO - BAD ARG
   575
   576						 ; CHECK FOR PROPER PROTOTYPE
   577
   578	400404'	200 07 0 01 777777 		MOVE	S2,-1(STACK)	; ADDRESS OF ARRAY
   579	400405'	550 10 0 07 000004 		HRRZ	S3,NSUBS(S2)	; NUMBER OF SUBSCRIPTS
   580	400406'	302 10 0 00 000002 		CAIE	S3,2		; CHECK FOR 2
   581	400407'	001 15 0 00 000035 		ERROR	13,29		; BAD ARRAY
   582
   583	400410'	200 11 0 07 000010 		MOVE	T1,SUBLBD&SUBDIM+2(S2) ; 2ND DIMENSION
   584	400411'	554 12 0 07 000006 		HLRZ	T2,SUBLBD(S2)	; FIRST DIMENSION LOWER BND
   585	400412'	306 12 0 00 000001 		CAIN	T2,1		; = 1?
   586	400413'	312 11 0 00 400476'		CAME	T1,[1,,2]	; YES - IS 2ND DIMENSION GOOD?
   587	400414'	001 15 0 00 000035 		ERROR	13,29		; NO TO EITHER
   588
   589						 ; PREPARE TO CYCLE THRU THE ARRAY
   590
   591	400415'	262 01 0 00 000000#		POP	STACK,FLAS+1	; SAVE ARRAY IN ...
   592	400416'	262 01 0 00 400373*		POP	STACK,FLAS	; TENDED AREA
   593
   594	400417'	550 00 0 07 000006 		HRRZ	Z,SUBDIM(S2)	; GET NUMBER OF ITEMS
   595	400420'	202 00 0 00 000000*		MOVEM	Z,IGNOS##	; AND SAVE
   596
   597	400421'	265 11 0 00 400117'		JSP	TLINK,TBL	; ALLOCATE
   598
   599	400422'	262 01 0 00 000000#		POP	STACK,FLAS+3	; AND SAVE THE
   600	400423'	262 01 0 00 000000#		POP	STACK,FLAS+2	; TABLE IN TENDED STORAGE
   601
   602	400424'	271 06 0 00 000001 		ADDI	SLINK,1		; SAVE ...
   603	400425'	202 06 0 00 000000#		MOVEM	SLINK,IGNOS+1	; RETURN ADDRESS
   604
   605	400426'	201 06 0 00 000011 		MOVEI	S1,SUBLBD+3	; OFFSET TO FIRST ARRAY ELEMENT
   606
   607						 ; MAIN PROCESSING LOOP
   608
   609	400427'	200 11 0 00 400416*	CVTTB1:	MOVE	T1,FLAS		; LOAD ADDRESS OF ...
   610	400430'	270 11 0 00 000006 		ADD	T1,S1		; REFERENCE ELEMENT
   611
   612	400431'	261 01 0 11 000002 		PUSH	STACK,2(T1)	; PUSH VALUE
   613	400432'	261 01 0 11 000003 		PUSH	STACK,3(T1)	; ITEM (TO BE USED LATER)
   614
   615	400433'	261 01 0 00 000000#		PUSH	STACK,FLAS+2	; PUSH ...
   616	400434'	261 01 0 00 000000#		PUSH	STACK,FLAS+3	; TABLE (FIRST ARG TO ALTE)
   617
   618	400435'	261 01 0 11 000000 		PUSH	STACK,0(T1)	; PUSH REFERENCE
   619	400436'	261 01 0 11 000001 		PUSH	STACK,1(T1)	; ITEM (2ND ARG TO ALTE)
   620
SNOTBL - Tables  %5(231)	MACRO %53B(1156)-1 21:50 14-Mar-88 Page 14-1
SNOTBL	MAC	13-Oct-66 22:12		CVTTBL

   621	400437'	265 11 0 00 400150'		JSP	TLINK,ALTE	; ALLOCATE A TEBLOK
   622
   623	400440'	265 07 0 00 400234'		JSP	S2,ITE		; INSERT IT INTO THE TABLE
   624	400441'	255 00 0 00 000000 		JFCL			; NOOP
   625
   626	400442'	262 01 0 00 000014 		POP	STACK,T4	; REMOVE RETURN
   627	400443'	262 01 0 00 000013 		POP	STACK,T3	; VALUE (ITS A VARIABLE)
   628	400444'	270 13 0 00 000014 		ADD	T3,T4		; ADD OFFSET TO ADDR
   629	400445'	262 01 0 13 000001 		POP	STACK,1(T3)	; STORE VALUE
   630	400446'	262 01 0 13 000000 		POP	STACK,0(T3)	; INTO TEBLOK
   631
   632	400447'	271 06 0 00 000004 		ADDI	S1,4		; BUMP S1 BY 2 DESCRIPTORS
   633	400450'	373 00 0 00 400420*		SOSLE	IGNOS		; LOOP ON #
   634	400451'	254 00 0 00 400427'		JRST	CVTTB1		; OF ITEMS
   635
   636	400452'	261 01 0 00 000000#		PUSH	STACK,FLAS+2	; RELOAD
   637	400453'	261 01 0 00 000000#		PUSH	STACK,FLAS+3	; TABLE
   638	400454'	254 00 1 00 000000#		JRST	@IGNOS+1	; AND RETURN
   639

SNOTBL - Tables  %5(231)	MACRO %53B(1156)-1 21:50 14-Mar-88 Page 15
SNOTBL	MAC	13-Oct-66 22:12		CVTTBL

   640						END

NO ERRORS DETECTED

HI-SEG. BREAK IS 400477
PROGRAM BREAK IS 000000
CPU TIME USED 04:05.875

42P CORE USED
SNOTBL - Tables  %5(231)	MACRO %53B(1156)-1 21:50 14-Mar-88 Page S-1
SNOTBL	MAC	13-Oct-66 22:12		SYMBOL TABLE

ADT		004005	sin	LINE.		400357'	ext	TLINK		000011
AHASH		000004	sin	LOCVAL		400334'	ext	TNBUCK		000002	sin
ALTE		400150'	int	LPHDR		000005	sin	TSEQ		400310'	int
ARY		400364'	ext	LTEBLK		000007	sin	TSEQ0		400315'
ASGNVL		400230'	ext	MAXDTN		000012	sin	TSEQ1		400325'
BLENG		000000	sin	NSUBS		000004	sin	TSEQ2		400331'
BLOK		400121'	ext	NULLST		400324'	ext	TSEQ3		400342'
BTCODE		000000	sin	P2		000005		TVAR		034000	sin
CEIL		400165'	ext	PLINK		000004		TVTBL		400170'
CVTARY		400344'	int	PPROG		000000	sin	VALUE		000000	sin
CVTINT		400105'	ext	Q1		000015		VAR		064000	sin
CVTTB1		400427'		Q2		000016		VTSEQ		400313'	int
CVTTBL		400377'	int	Q3		000017		XWD22		400372'	ext
DHASH		000002	sin	QLINK		000015		XWD44		400141'	ext
DTNUM		000077	sin	S1		000006		Z		000000
E1$98		000000	sin	S2		000007		%%JOBD	043100	000450	spd
E13$29		000000	sin	S3		000010		%%MACT	000200	000025	spd
E13$49		000000	sin	SCHARS		000002	sin	%%SNOP	000500	000305	spd
E13$65		000000	sin	SDT		004003	sin	%%UUOS	001400	000457	spd
E13$66		000000	sin	SH.TB1		400070'
E3$1		000000	sin	SH.TB2		400076'
E3$2		000000	sin	SLINK		000006
E6$1		000000	sin	STACK		000001
ERR	001000	000000		SUBDIM		000006	sin
ERR.	003000	000000		SUBFAC		000005	sin
FLAS		400427'	ext	SUBLBD		000006	sin
FLAT		400337'	ext	SURF		000002
FTE		400256'	int	T1		000011
FTE.LP		400274'		T2		000012
FTE.NO		400303'		T3		000013
FTE.YS		400305'		T4		000014
FTESV		400306'	ext	TABLE		400104'	int
FTPAV	777777	777777	spd	TBASG1		400224'
GCFLD		000001	sin	TBASGN		400212'
GCOL		400166'	ext	TBL		400117'	int
H.ARY		400027'		TBLASC	522051	400000	spd
H.DFD		400037'		TBLEDT		000231	spd
H.FIN		400065'		TBLID		400124'	ext
H.NAME		400032'		TBLMIN		000000	spd
H.NUM		400021'		TBLOK		000410	sin
H.PATT		400024'		TBLSIX	644254	000000	spd
H.STR		400042'		TBLSV		400375'	ext
H.STR1		400054'		TBLVER		000005	spd
H.TWO		400017'		TBLWHO		000000	spd
HASHNO		400000'	int	TBNAM		400203'
IDENT		400276'	ext	TBUCK		000003	sin
IDINIT		400273'	ext	TBVAL		400173'
IDT		002001	sin	TDT		004010	sin
IGNOQ		400063'	ext	TEBLOK		000416	sin
IGNOS		400450'	ext	TELINK		000006	sin
IGNOT		400333'	ext	TEREF		000002	sin
ITE		400234'	int	TEVAL		000004	sin
ITE1		400245'		THASH		000002	sin
ITE2		400240'		TITEM		400130'	int
JMPTBL		400004'		TITEM1		400146'

SNOTBL - Tables  %5(231)	MACRO %53B(1156)-1 21:50 14-Mar-88 Page 1
SNOTBL	MAC	13-Oct-66 22:12		Gimpel--Ma355/JDS/DRH/MP/RCM/VB		15-Jun-76


Symbol cross reference

ADT	   509	   573
AHASH	   121
ALTE	   251	   267#	   621
ARY	   537
ASGNVL	   353
BLENG	   268
BLOK	   219
BTCODE	   268
CEIL	   283
CVTARY	   508#
CVTINT	   202
CVTTB1	   609#	   634
CVTTBL	   569#
DHASH	    98	   136
DTNUM	    81
E1$98	   203#
E13$29	   581#	   587#
E13$49	   206#
E13$65	   513#
E13$66	   574#
E3$1	   237#
E3$2	   233#
E6$1	   220#
FLAS	   324	   325	   331	   332	   351	   352	   540	   541	   561	   562	   591	   592	   599	   600
	   609	   615	   616	   636	   637
FLAT	   471	   472	   488	   494
FTE	   242	   300	   374	   410#
FTE.LP	   428#	   435
FTE.NO	   422	   439#
FTE.YS	   432	   444#
FTESV	   419	   421	   439	   440	   445
FTPAV	   340	   348
GCFLD	   269
GCOL	   284
H.ARY	    90	   120#
H.DFD	    93	    95	   135#
H.FIN	   104	   110	   116	   122	   128	   131	   137	   174#
H.NAME	    94	   126#
H.NUM	    86	    87	   108#
H.PATT	    89	   114#
H.STR	    88	   143#
H.STR1	   148	   157#
H.TWO	    85	    91	    92	   103#	   144
HASHNO	    80#	   412
IDENT	   430
IDINIT	   426
IDT	   533	   535
IGNOQ	   145	   151	   168
IGNOS	   595	   603	   633	   638
IGNOT	   473	   490
SNOTBL - Tables  %5(231)	MACRO %53B(1156)-1 21:50 14-Mar-88 Page 1
SNOTBL	MAC	13-Oct-66 22:12		Gimpel--Ma355/JDS/DRH/MP/RCM/VB		15-Jun-76


Symbol cross reference

ITE	   310	   327	   372#	   623
ITE1	   375	   385#
ITE2	   377#
JMPTBL	    83	    85#	    97
LINE.	   531
LOCVAL	   491
LPHDR	   115
LTEBLK	   267	   282
MAXDTN	    82	    97
NSUBS	   579
NULLST	   301	   482
P2	   208	   209	   211
PLINK	   213	   248	   252
PPROG	   115
Q1	   415	   416
Q2	    80	    81	    82	    83	   114	   115	   120	   121	   135	   136	   146	   153	   157	   158
	   167	   168	   169	   414	   416	   489	   490	   492	   552	   554
Q3	   143	   144	   145	   147	   148	   152	   153	   158	   159	   160	   161	   166	   167	   418
	   547	   548	   549	   550	   552	   553	   554	   555
QLINK	   176	   219	   284	   412	   491	   547	   558
S1	   605	   610	   632
S2	   310	   315	   317	   327	   381	   396	   508	   509	   512	   569	   570	   573	   578	   579
	   583	   584	   594	   623
S3	   242	   300	   316	   317	   318	   374	   419	   420	   422	   428	   429	   434	   435	   444
	   445	   446	   519	   522	   524	   529	   539	   548	   550	   553	   555	   557	   579	   580
SCHARS	   160	   161
SDT	   315	   534
SH.TB1	   167	   182#
SH.TB2	   169	   192#
SLINK	   305	   311	   320	   336	   354	   356	   510	   524	   528	   531	   537	   564	   565	   571
	   602	   603
STACK	    80	   103	   108	   109	   114	   120	   126	   130	   135	   143	   146	   159	   175	   201
	   204	   205	   208	   222	   235	   240	   241	   244	   246	   247	   272	   273	   274	   275
	   279	   280	   296	   298	   303	   304	   316	   324	   325	   330	   349	   350	   351	   352
	   355	   372	   377	   379	   380	   385	   391	   394	   410	   411	   424	   425	   428	   429
	   475	   483	   508	   539	   540	   541	   560	   561	   562	   569	   578	   591	   592	   599
	   600	   612	   613	   615	   616	   618	   619	   626	   627	   629	   630	   636	   637
SUBDIM	   583	   594
SUBFAC	   548	   550	   553	   555
SUBLBD	   583	   584	   605
SURF	   268	   269	   270	   272	   273	   274	   275	   277	   282	   283
T1	   240	   245	   246	   298	   299	   301	   303	   304	   330	   333	   334	   372	   373	   378
	   379	   386	   388	   410	   411	   424	   425	   439	   444	   583	   586	   609	   610	   612
	   613	   618	   619
T2	   217	   224	   225	   235	   236	   241	   277	   278	   279	   299	   331	   333	   373	   385
	   387	   388	   415	   418	   420	   421	   475	   476	   478	   484	   498	   584	   585
T3	   222	   225	   332	   334	   386	   387	   390	   391	   393	   394	   460	   467	   471	   476
	   477	   478	   482	   492	   627	   628	   629	   630
T4	   223	   224	   461	   468	   473	   483	   484	   485	   486	   488	   489	   494	   495	   496
	   547	   549	   626	   628
SNOTBL - Tables  %5(231)	MACRO %53B(1156)-1 21:50 14-Mar-88 Page 1
SNOTBL	MAC	13-Oct-66 22:12		Gimpel--Ma355/JDS/DRH/MP/RCM/VB		15-Jun-76


Symbol cross reference

TABLE	   201#
TBASG1	   328	   349#
TBASGN	   292	   324#
TBL	   212	   217#	   597
TBLASC	    31#
TBLEDT	    24#
TBLID	   223
TBLMIN	    23#
TBLOK	   218
TBLSIX	    30#
TBLSV	   528	   529	   533	   564
TBLVER	    22#
TBLWHO	    25#
TBNAM	   291	   310#
TBUCK	   218	   418	   484
TBVAL	   290	   296#
TDT	   236	   460	   512	   570
TEBLOK	   267
TELINK	   270	   387	   434	   495
TEREF	   240	   272	   273	   410	   411	   424	   425	   428	   429	   547	   549
TEVAL	   247	   274	   275	   299	   301	   303	   304	   317	   318	   333	   334	   373	   380	   393
	   461
THASH	    98	   225
TITEM	   232#
TITEM1	   243	   251#
TLINK	   202	   212	   226	   251	   286	   353	   426	   430	   493	   500	   520	   545	   597	   621
TNBUCK	   225	   415	   476
TSEQ	   460#	   520	   545
TSEQ0	   462	   471#
TSEQ1	   483#	   498
TSEQ2	   488#	   496
TSEQ3	   486	   498#
TVAR	   278
TVTBL	   280	   290#
VALUE	   468
VAR	   245	   378	   390
VTSEQ	   467#
XWD22	   175	   201	   204	   296	   355	   377	   560
XWD44	   244
Z	   103	   108	   109	   115	   121	   126	   127	   130	   136	   150	   151	   160	   169	   174
	   211	   217	   218	   232	   267	   268	   414	   594	   595
SNOTBL - Tables  %5(231)	MACRO %53B(1156)-1 21:50 14-Mar-88 Page 1
SNOTBL	MAC	13-Oct-66 22:12		Gimpel--Ma355/JDS/DRH/MP/RCM/VB		15-Jun-76


Macro/Opdef cross reference

ERR	   206	   220	   233	   237	   513	   574	   581	   587
ERR.	   203
ERROR	   206	   220	   233	   237	   513	   574	   581	   587
ERROR.	   203
SHOW.	    37	    38	    39	    40
TBLPTX	    43
TBLTTL	    42
TITLE.	    29Z›