STBERR - Error processing  %5(304)	MACRO %53B(1156)-1 21:52 14-Mar-88 Page 1
STBERR	MAC	16-Feb-67 12:04		V. Brownell/VB				15-JUN-77

     1						SUBTTL	V. Brownell/VB				15-JUN-77
     2
     3					; COPYRIGHTS 1972,1973,1977  STEVENS INSTITUTE OF TECHNOLOGY
     4					; HOBOKEN, NEW JERSEY, 07030
     5					; ALL RIGHTS RESERVED.
     6
     7					  ;UNIVERSALS
     8
     9						SEARCH	JOBDAT		;JOB DATA AREA DEFINITIONS
    10						SEARCH	MACTEN		;DEC-10 COMMON MACROS
    11						SEARCH	SNOPRM		;SITBOL PARAMETER FILE
    12
    13					  ;DIRECTIVES
    14
    15						.DIREC	FLBLST		; List first line binary only
    16						.DIRECT	.XTABM		;EXCLUDE TABS FROM MACRO CALLS
    17						SALL			;SUPPRESS MACRO EXPANSIONS
    18					IFE FTSINGLE,.TEXT	\/ONLY:LOW SNODAT\ ;  LOW SEGMENT
    19	400000'					TWOSEG	400K		;TWOSEGMENT CODE
    20
    21					  ;VERSION NUMBER
    22
    23			000005			ERRVER==5		;MAJOR VERSION NUMBER
    24			000000			ERRMIN==0		;MINOR VERSION NUMBER
    25			000304			ERREDT==304		;EDIT LEVEL
    26			000000			ERRWHO==0		;CUSTOMER ARGUMENT
    27
    28					  ;TITLE
    29
    30						TITLE.	ERR,STBERR,<Error processing>
    31		456262	000000			ERRSIX==SIXBIT /ERR/	; STBERR ABBREVIATION IN SIXBIT
    32		426452	200000			ERRASC==ASCIZ /ERR/	; STBERR ABBREVIATION IN ASCII
    33						SALL
    34
    35
    36					  ;SHOW UNIVERSAL VERSION NUMBERS
    37
    38	400000'	043100	000450			SHOW.	%%JOBD		;VERSION NUMBER OF JOBDAT
    39	400000'	000200	000025			SHOW.	%%MACT		;VERSION NUMBER OF MACTEN
    40
    41	000137					LOC	.JBVER		;VERSION NUMBER LOC
    42	000137	000500	000305			VERSION			; SITBOL VERSION NUMBER
    43	400000'					RELOC
    44
    45						ERRTTL			; Title
    46						ERRPTX			; PASS2 assembly message
STBERR - Error processing  %5(304)	MACRO %53B(1156)-1 21:52 14-Mar-88 Page 2
STBERR	MAC	16-Feb-67 12:04		Table of Contents

    47						SUBTTL	Table of Contents
    48
    49					;		Table of Contents for Error processing
    50					;
    51					;
    52					;			   Section			      Page
    53					;   1. Table of Contents. . . . . . . . . . . . . . . . . . .    2
    54					;   2. Revision History . . . . . . . . . . . . . . . . . . .    3
    55					;   3. ENTRY POINT TO STBERR. . . . . . . . . . . . . . . . .    4
    56					;   4. ERROR MESSAGES . . . . . . . . . . . . . . . . . . . .    5
    57					;   5. EXPANSION OF ERROR MESSAGES. . . . . . . . . . . . . .    6
STBERR - Error processing  %5(304)	MACRO %53B(1156)-1 21:52 14-Mar-88 Page 3
STBERR	MAC	16-Feb-67 12:04		Revision History

    58						SUBTTL	Revision History
    59
    60					COMMENT	\
    61
    62					START OF VERSION 5.
    63					165	Create this module
    64					167	Finish new error processing
    65					170	Add new keywords (&ERRLEVEL, &ERRMSG, &ERRNAME)
    66					215	Implement FTSINGLE
    67					216	Don't use literals in the error message expansions.
    68					241	GETSEG the correct segment back.
    69					243	Add new error messages for external functions
    70					267	Change the strings back to ASCII (not ASCIZ).
    71					271	Fix a silly typo in the error msg text (SNOPNP).
    72					304	Remove two error messages which will no longer be needed in STBERR.
    73						(They will be taken care of elsewere)
    74					\
STBERR - Error processing  %5(304)	MACRO %53B(1156)-1 21:52 14-Mar-88 Page 4
STBERR	MAC	16-Feb-67 12:04		ENTRY POINT TO STBERR

    75						SUBTTL	ENTRY POINT TO STBERR
    76
    77						; THIS PROGRAM IS GETSEG'ED BY SNOBOL IN ORDER TO LOOK UP
    78						; THE ERROR MESSAGES.  IT IS CALLED WITH .JBERR CONTAINING
    79						; THE COMPOSITE ERROR NUMBER.
    80
    81
    82
    83
    84	400000'	254 01 0 00 400001'	STBERR::	PORTAL	.+1		; EXO ENTRY POINT
    85	400001'	550 04 0 00 000042 		HRRZ	P1,.JBERR	; GET THE COMPOSITE ERROR NUMBER
    86	400002'	231 04 0 00 001750 		IDIVI	P1,^D1000	; MAKE P1 MAJOR AND P2 MINOR
    87
    88	400003'	200 06 0 04 400034'		MOVE	S1,ERRTAB-1(P1)	; GET ADDR OF MINOR TABLE
    89
    90	400004'	554 07 0 06 000000 	STBER1:	HLRZ	S2,0(S1)	; GET MINOR ERROR NUMBER
    91	400005'	312 05 0 00 000007 		CAME	P2,S2		; ARE THEY THE SAME?
    92	400006'	344 06 0 00 400004'		AOJA	S1,STBER1	; NO, GO PICK OUT ANOTHER
    93
    94	400007'	200 07 0 06 000000 		MOVE	S2,0(S1)	; GET MESSAGE ADDR
    95	400010'	205 06 0 00 635657 		MOVSI	S1,D$PRE	;[264] GET THE PREFIX
    96	400011'	200 10 0 07 000000 		MOVE	S3,0(S2)	; GET HEADER
    97	400012'	544 06 0 00 000010 		HLR	S1,S3		; FINISH MESSAGE NAME
    98	400013'	550 10 0 00 000010 		HRRZ	S3,S3		; GET RID OF PREFIX
    99
   100	400014'	200 11 0 00 000010 		MOVE	T1,S3		; KEEP LENGTH FOR LATER
   101	400015'	231 11 0 00 000005 		IDIVI	T1,NBYTES	; FIND NO. OF BLOCKS
   102	400016'	332 00 0 00 000012 		SKIPE	T2		; IS THERE A REMAINDER?
   103	400017'	340 11 0 00 000000 		 AOJ	T1,		; GIVE IT ANOTHER WORD
   104
   105	400020'	262 01 0 00 000004 	IFE FTSINGLE,	POP	STACK,P1	; GET GETSEG ADDR
   106	400021'	262 01 0 00 000005 		POP	STACK,P2	; GET RETURN ADDR
   107
   108	400022'	210 12 0 00 000011 		MOVN	T2,T1		; SET UP FOR COUNT
   109	400023'	340 07 0 00 000000 		AOJ	S2,		; ..
   110	400024'	504 12 0 00 000007 		HRL	T2,S2		; ..
   111	400025'	204 12 0 00 000012 		MOVS	T2,T2		; ..
   112
   113	400026'	550 07 0 00 000012 		HRRZ	S2,T2
   114	400027'	261 01 1 00 000007 		PUSH	STACK,@S2	; PLACE &ERRMSG ON STACK
   115	400030'	253 12 0 00 400026'		AOBJN	T2,.-2		; FINISH UP.
   116
   117	400031'	261 01 0 00 000010 		PUSH	STACK,S3	; PUT LENGTH OF &ERRMSG ON STACK
   118	400032'	261 01 0 00 000006 		PUSH	STACK,S1	; PUT &ERRNAME ON STACK
   119
   120	400033'	200 00 0 00 000000*	IFE FTSINGLE,	MOVE	Z,SEGNAM##	;[240] SEGMENT NAME
   121	400034'	254 00 0 05 000000 		JRST	0(P2)			; DO GETSEG
STBERR - Error processing  %5(304)	MACRO %53B(1156)-1 21:52 14-Mar-88 Page 5
STBERR	MAC	16-Feb-67 12:04		ERROR MESSAGES

   122						SUBTTL	ERROR MESSAGES
   123
   124					; THE FOLLOWING ARE THE ERROR MESSAGES FOR SITBOL.
   125
   126					DEFINE ERRORS,<
   127
   128					$BEGIN	(1)
   129
   130					$ERMSG(1,1,,<Reserved.>)
   131					$ERMSG(1,2,<ANI>,<Evaluated argument to POS, RPOS, TAB, RTAB, or LEN is not an INTEGER:>)
   132					$ERMSG(1,3,,<Reserved.>)
   133					$ERMSG(1,4,,<Reserved.>)
   134					$ERMSG(1,5,,<Reserved.>)
   135					$ERMSG(1,6,<ANS>,<Evaluated argument to ANY, BREAK, NOTANY, SPAN  or  BREAKX  is  not  a
   136					STRING:>)
   137					$ERMSG(1,7,,<Reserved.>)
   138					$ERMSG(1,8,,<Reserved.>)
   139					$ERMSG(1,9,,<Reserved.>)
   140					$ERMSG(1,10,,<Reserved.>)
   141					$ERMSG(1,11,<ENP>,<Evaluated result of deferred expression used in a  pattern  match  is
   142					not a PATTERN:>)
   143					$ERMSG(1,12,,<Reserved.>)
   144					$ERMSG(1,13,,<Reserved.>)
   145					$ERMSG(1,14,,<Reserved.>)
   146					$ERMSG(1,15,,<Reserved.>)
   147					$ERMSG(1,16,,<Reserved.>)
   148					$ERMSG(1,17,<OUN>,<Operand of unary $ is not a NAME:>)
   149					$ERMSG(1,18,<RPS>,<Replacing right hand side in a pattern replacement is not a STRING:>)
   150					$ERMSG(1,19,<PNS>,<Subject of a pattern match is not a STRING:>)
   151					$ERMSG(1,20,<PNP>,<The pattern in a pattern match is not a PATTERN:>)	;[271]
   152					$ERMSG(1,21,,<Reserved.>)
   153					$ERMSG(1,22,,<Reserved.>)
   154					$ERMSG(1,23,<ROP>,<The right operand for alternation or concatenation is not a PATTERN:>)
   155					$ERMSG(1,24,<LOP>,<The left operand for alternation or concatenation is not a PATTERN:>)
   156					$ERMSG(1,25,<FIP>,<A field function was applied to an inappropriate program-defined datatype
   157					:>)
   158					$ERMSG(1,26,<FFP>,<The argument to a field function is not a program-defined datatype:>)
   159					$ERMSG(1,27,<FOP>,<The first operand to a numeric binary operator (+ - * / **) or a numeric
   160					predicate (NE EQ LE GE LT GT) is non-numeric:>)
   161					$ERMSG(1,28,<SOP>,<The second operand to a numeric binary operator (+ - * / **) or a numeric
   162
   163					predicate (NE EQ LE GE LT GT) is non-numeric:>)
   164					$ERMSG(1,29,<EXN>,<The left argument for exponentiation was not NUMERIC:>)
   165					$ERMSG(1,30,<EXP>,<The right argument for exponentiation was not INTEGER:>)
   166					$ERMSG(1,31,<NPN>,<An argument to NE, EQ, LE, GE, LT, or GT is non-numeric:>)
   167					$ERMSG(1,32,,<Reserved.>)
   168					$ERMSG(1,33,<UPN>,<The operand of unary + is non-numeric:>)
   169					$ERMSG(1,34,<UMN>,<The opernad of unary - is non-numeric:>)
   170					$ERMSG(1,35,<LXF>,<First argument to LEQ, LNE, LGT, LLT, LGE or LLE is not a STRING:>)
   171					$ERMSG(1,36,<LXS>,<Second argument to LEQ, LNE, LGT, LLT, LGE or LLE is not a STRING:>)
   172					$ERMSG(1,37,<ASS>,<Argument to SIZE is not a string:>)
   173					$ERMSG(1,38,<OBP>,<Left operand of binary $ or : is not a PATTERN:>)
   174					$ERMSG(1,39,<LIE>,<Argument to LEN is not an INTEGER or EXPRESSION:>)
   175					$ERMSG(1,40,,<Reserved.>)
   176					$ERMSG(1,41,<ATP>,<Argument to TAB, RTAB, POS, RPOS is not an INTEGER or EXPRESSION:>)
STBERR - Error processing  %5(304)	MACRO %53B(1156)-1 21:52 14-Mar-88 Page 5-1
STBERR	MAC	16-Feb-67 12:04		ERROR MESSAGES

   177					$ERMSG(1,42,,<Reserved.>)
   178					$ERMSG(1,43,,<Reserved.>)
   179					$ERMSG(1,44,<SPN>,<Argument to SPAN is not a STRING or EXPRESSION:>)
   180					$ERMSG(1,45,<BRX>,<Argument to BREAKX is not a STRING or EXPRESSION:>)
   181					$ERMSG(1,46,<BRK>,<Argument to BREAK is not a STRING or EXPRESSION:>)
   182					$ERMSG(1,47,<NTY>,<Argument to NOTANY is not a STRING or EXPRESSION:  >)
   183					$ERMSG(1,48,<ANY>,<Argument to ANY is not a STRING or EXPRESSION:>)
   184					$ERMSG(1,49,,<Reserved.>)
   185					$ERMSG(1,50,<AAP>,<Argument to ARBNO is not a PATTERN:>)
   186					$ERMSG(1,51,<FAP>,<First argument to APPLY is not the name of a natural variable:>)
   187					$ERMSG(1,52,<FAL>,<First argument to ARG or LOC is not an NAME:>)
   188					$ERMSG(1,53,<FAI>,<Second argument to ARG or LOC is not an INTEGER:>)
   189					$ERMSG(1,54,<FAS>,<First argument to ARRAY is not a STRING:>)
   190					$ERMSG(1,55,<FCS>,<First argument to CLEAR is not a STRING:>)
   191					$ERMSG(1,56,<ACS>,<Argument to CODE is not a string:>)
   192					$ERMSG(1,57,<ACI>,<An argument to COLLECT is not an INTEGER:>)
   193					$ERMSG(1,58,<SCN>,<Second argument to CONVERT is not a string or NAME:>)
   194					$ERMSG(1,59,<AEI>,<Argument to EXIT is not an INTEGER:>)
   195					$ERMSG(1,60,<FDS>,<First argument to DEFINE is not a STRING:>)
   196					$ERMSG(1,61,<SDN>,<Second argument to DEFINE is non-null and is not the name of a label:>)
   197					$ERMSG(1,62,<ADV>,<Argument to DETACH is not the name of a variable>)
   198					$ERMSG(1,63,<SDI>,<Second argument to DUPL is not an integer:>)
   199					$ERMSG(1,64,<FDI>,<First argument to DUPL is not a STRING:>)
   200					$ERMSG(1,65,,<Reserved.>)
   201					$ERMSG(1,66,<AEE>,<Argument to EVAL is not an EXPRESSION (or a  STRING,  which  could  be
   202					converted into an EXPRESSSION:)>)
   203					$ERMSG(1,67,<FFV>,<First argument to FIELD is not the name of a natural variable:>)
   204					$ERMSG(1,68,<SFI>,<Second argument to FIELD is not an INTEGER:>)
   205					$ERMSG(1,69,<AIO>,<First argument to INPUT or  OUTPUT  is  not  the  name  of  a  natural
   206					variable:>)
   207					$ERMSG(1,70,<SIS>,<Second argument to INPUT is not a string:>)
   208					$ERMSG(1,71,<FSN>,<Format specification (third argument) to INPUT or OUTPUT is neither an
   209					INTEGER nor STRING:>)
   210					$ERMSG(1,72,<TON>,<Third argument to OPSYN is non-numeric:>)
   211					$ERMSG(1,73,<AFN>,<Argument to FUCTION is not a name:>)
   212					$ERMSG(1,74,<LNN>,<Argument to LABEL is not a NAME:>)
   213					$ERMSG(1,75,<LRI>,<Third argument to LPAD or RPAD is not an integer:>)
   214					$ERMSG(1,76,<LRS>,<Second argument to LPAD or RPAD is not a STRING:>)
   215					$ERMSG(1,77,<LRF>,<First argument to LPAD or RPAD is not a STRING:  >)
   216					$ERMSG(1,78,<NNV>,<First argument to OPSYN is not the name of a natural variable:>)
   217					$ERMSG(1,79,<SOI>,<Second argument to OPSYN is improper:>)
   218					$ERMSG(1,80,<CNN>,<Conversion via CONVERT under  format  control  to  STRING  requires  a
   219					numeric quantity as first argument:>)
   220					$ERMSG(1,81,<CNS>,<Conversion via CONVERT under format  control  to  INTEGER  requires  a
   221					string as first argument:>)
   222					$ERMSG(1,82,<RNI>,<Argument to RANDOM is not INTEGER:>)
   223					$ERMSG(1,83,<PAT>,<Argument to PROTOTYPE is not an ARRAY or TABLE:>)
   224					$ERMSG(1,84,<SRI>,<Second argument to REMDR is not an integer:>)
   225					$ERMSG(1,85,<FRI>,<First argument to REMDR is not an INTEGER:>)
   226					$ERMSG(1,86,<TRS>,<Third argument to REPLACE is not a string:>)
   227					$ERMSG(1,87,<SRS>,<Second argument to REPLACE is not a STRING:>)
   228					$ERMSG(1,88,<FRS>,<First argument to REPLACE is not a STRING:>)
   229					$ERMSG(1,89,<ARS>,<Argument to REVERSE is not a STRING:>)
   230					$ERMSG(1,90,<RUI>,<Second argument to RUN is not an INTEGER:>)
   231					$ERMSG(1,91,<ATN>,<Argument to TIME is not an INTEGER:>)
STBERR - Error processing  %5(304)	MACRO %53B(1156)-1 21:52 14-Mar-88 Page 5-2
STBERR	MAC	16-Feb-67 12:04		ERROR MESSAGES

   232					$ERMSG(1,92,<STA>,<First argument to SORT (or RSORT) is neither TABLE nor ARRAY:>)
   233					$ERMSG(1,93,<SIT>,<Second argument to SORT or  RSORT  is  not  INTEGER  while  the  first
   234					argument is TABLE:>)
   235					$ERMSG(1,94,<ASN>,<Argument to SETEXIT is not a NAME:>)
   236					$ERMSG(1,95,<FSS>,<First argument to SUBSTR is not a STRING:>)
   237					$ERMSG(1,96,<SSI>,<Second argument to SUBSTR is not an INTEGER:>)
   238					$ERMSG(1,97,<TSI>,<Third argument to SUBSTR is not an INTEGER:>)
   239					$ERMSG(1,98,<ATI>,<Argument to TABLE is not an INTEGER:>)
   240					$ERMSG(1,99,<SRM>,<Second argument to SORT or RSORT was not an INTEGER whereas the  first
   241					argument was a multi-dimensioned array:>)
   242					$ERMSG(1,100,<SSN>,<Second argument to SORT or RSORT was neither INTEGER nor NAME:>)
   243					$ERMSG(1,101,<FTN>,<First argument to TRACE or STOPTR is not a NAME:>)
   244					$ERMSG(1,102,<STN>,<Second argument to TRACE or STOPTR is not a STRING:>)
   245					$ERMSG(1,103,<TTS>,<Third argument to TRACE or STOPTR is not STRING:>)
   246					$ERMSG(1,104,<FTS>,<Fourth argument to TRACE or STOPTR is not a natural variable:>)
   247					$ERMSG(1,105,<CDF>,<Conversion under D format requires  a  numeric  quantity:   The  value
   248					given is non-numeric:>)
   249					$ERMSG(1,106,<CWS>,<Conversion to word under B, O, S, or U format requires a STRING:>)
   250					$ERMSG(1,107,<AAI>,<Argument to ASCII is not INTEGER:>)
   251					$ERMSG(1,108,<FNS>,<A file specification was not STRING nor  could  it  be  converted  to
   252					string:>)
   253					$ERMSG(1,109,<VWD>,<A value was written under D format is not numeric:>)
   254					$ERMSG(1,110,<ADI>,<Argument to DUMP was not INTEGER or a dumpable aggregate:>)
   255					$ERMSG(1,111,<FLL>,<First argument to LOAD was not a string:>)
   256					$ERMSG(1,112,<IDA>,<Illegal datatype of argument passed to an external function:>)
   257					$ERMSG(1,113,<IAU>,<Illegal argument to unload:>)
   258					$ERMSG(1,300,<TPF>,<Type field of process description is not 'FETCH' or 'STORE':>)
   259					$ERMSG(1,301,<TPD>,<Function field of process description is not the name of a function:>)
   260					$ERMSG(1,302,<SAP>,<Second argument to ASSOCIATE is not a programmer-defined dataobject:>)
   261					$ERMSG(1,303,<FAN>,<First argument to ASSOCIATE is not the name of a variable:>)
   262					$ERMSG(1,304,<CLF>,<The contents of the level field of a process description is not OF
   263					DATAtype integer:>)
   264					$ERMSG(1,305,<ADN>,<First argument to DISASSOCIATE is not the name of a variable:>)
   265					$ERMSG(1,306,<TIP>,<Third argument to INSERTBP is not a programmer-defined data object:>)
   266					$ERMSG(1,307,<CLP>,<The contents of the level field in the process description passed as
   267					the third argument to INSERTBP is not INTEGER:>)
   268					$ERMSG(1,308,<AIR>,<First and second arguments to INSERTBP or REMOVEBP does not describe a
   269					programmer-defined statement or statement does not exsist:>)
   270					$ERMSG(1,309,<FPN>,<Function field of a process description associated with statement
   271					execution is not a name:>)
   272					$ERMSG(1,310,<SLI>,<Second argument to LABEL is not an integer:>)
   273					$ERMSG(1,311,<WNI>,<Second argument to WHERE is not an integer:>)
   274					$ERMSG(1,312,<FWN>,<First argument to WHERE is not a name:>)
   275					$ERMSG(1,313,<PDD>,<Function field of the process description event associated with the DDT
   276					command is not a name:>)
   277					$ERMSG(1,314,<SCP>,<Second argument to CONNECT is not a programmer-defined data object:>)
   278					$ERMSG(1,315,<LPD>,<Level field in the programmer-defined data object passed as the second
   279					argument to CONNECT is not INTEGER:>)
   280					$ERMSG(1,316,<FCE>,<First argument to CONNECT is not a valid event description:>)
   281					$ERMSG(1,317,<FDE>,<First argument to DISCONNECT is not a valid event description:>)
   282
   283					$END	(1)
   284					$BEGIN	(2)
   285
   286					$ERMSG(2,1,,<Not a defined error message.>)
STBERR - Error processing  %5(304)	MACRO %53B(1156)-1 21:52 14-Mar-88 Page 5-3
STBERR	MAC	16-Feb-67 12:04		ERROR MESSAGES

   287
   288					$END	(2)
   289					$BEGIN	(3)
   290
   291					$ERMSG(3,1,<ARR>,<Array reference with one  subscript  refers  to  an  object  which  is
   292					neither a TABLE nor an ARRAY.>)
   293					$ERMSG(3,2,<MDM>,<Multi-dimensional array reference refers to an object which is not  an
   294					array.>)
   295					$ERMSG(3,3,<NSA>,<Wrong number of subscripts in an array reference.>)
   296					$ERMSG(3,4,<SBI>,<Subscript in an array reference was not an integ
   297
   298
   299					$END	(3)
   300					$BEGIN	(4)
   301
   302					$ERMSG(4,1,,<Reserved.>)
   303					$ERMSG(4,2,<EER>,<Attempted execution of a statement found erroneous by the compiler.>)
   304
   305					$END	(4)
   306					$BEGIN	(5)
   307
   308					$ERMSG(5,1,<KWD>,<An attempt was made to change the value of a keyword associated with a
   309					non-natural variable.>)
   310					$ERMSG(5,2,<UKW>,<Reference to an undefined keyword.>)
   311					$ERMSG(5,3,,<Reserved.>)
   312					$ERMSG(5,4,,<Reserved.>)
   313					$ERMSG(5,5,,<Reserved.>)
   314					$ERMSG(5,6,<AIK>,<Attempt to assign an improper data item to a keyword.>)
   315					$ERMSG(5,7,<NKW>,<Attempt to obtain the name of a keyword.>)
   316
   317					$END	(5)
   318					$BEGIN	(6)
   319
   320					$ERMSG(6,1,<STO>,<A request for addition storage could not be satisfied.>)
   321									;;[304] XXXSTO Removed
   322					$ERMSG(6,3,<HSO>,<Pattern history stack overflowed.>)
   323					$ERMSG(6,4,<NSO>,<Pattern name stack overflowed.  This is  a  relatively  rare  type  of
   324					overflow.   It  can  be  caused  by  excessive  use  of the binary '.'
   325					operator during a pattern match.   The  /Sn  switch  can  be  used  to
   326					provide more name stack.  >)
   327
   328					$END	(6)
   329					$BEGIN	(7)
   330
   331					$ERMSG(7,1,,<Not a defined error message.>)
   332
   333					$END	(7)
   334					$BEGIN	(8)
   335
   336					$ERMSG(8,1,<RFZ>,<RETURN from function level 0.>)
   337					$ERMSG(8,2,<TUL>,<Transfer to an undefined label:>)
   338					$ERMSG(8,3,<TIL>,<Transfer to the label CONTINUE, REPEAT or ABORT occurred,  by  either
   339					no previous error had been intercepted or a function return obliterated
   340					it.>)
   341					$ERMSG(8,4,,<Reserved.>)
STBERR - Error processing  %5(304)	MACRO %53B(1156)-1 21:52 14-Mar-88 Page 5-4
STBERR	MAC	16-Feb-67 12:04		ERROR MESSAGES

   342					$ERMSG(8,5,<NGN>,<Name used as a goto operand is not the name of a natural variable.>)
   343					$ERMSG(8,6,<DGE>,<Direct goto (bracket type) could not evaluate its argument.>)
   344					$ERMSG(8,7,<NGE>,<A numeric goto ran off the end of the program.>)
   345
   346					$END	(8)
   347					$BEGIN	(9)
   348
   349					$ERMSG(9,1,<UFO>,<Reference to an undefined function or operator.>)
   350					$ERMSG(9,2,,<Reserved.>)
   351					$ERMSG(9,3,<LFN>,<Label of defined-function is non-existent:>)
   352
   353					$END	(9)
   354					$BEGIN	(10)
   355
   356					$ERMSG(10,1,,<Reserved.>)
   357					$ERMSG(10,2,<OTR>,<Overflow in '+', '-', '/' or '*' of two REALs.  >)
   358					$ERMSG(10,3,<RDZ>,<REAL division by zero.>)
   359					$ERMSG(10,4,,<Reserved.>)
   360					$ERMSG(10,5,<ORL>,<Overflow in REAL ** INTEGER.>)
   361					$ERMSG(10,6,<IDZ>,<Integer division by zero.>)
   362					$ERMSG(10,7,<IAO>,<Integer addition overflow.>)
   363					$ERMSG(10,8,<ISO>,<Integer subtraction overflow.>)
   364					$ERMSG(10,9,<IMO>,<Integer multiplication overflow.>)
   365					$ERMSG(10,10,<NEI>,<Negative exponent for INTEGER ** INTEGER.>)
   366					$ERMSG(10,11,<OIE>,<Overflow in integer exponentiation.>)
   367					$ERMSG(10,12,,<Reserved.>)
   368					$ERMSG(10,13,<RRN>,<REAL ** REAL is not permitted.>)
   369					$ERMSG(10,14,<OUM>,<Integer overflow for  unary  minus  (happens  only  with  the  largest
   370					negative number.>)
   371					$ERMSG(10,15,<DZR>,<Attempted division by zero in REMDR function.>)
   372
   373					$END	(10)
   374					$BEGIN	(11)
   375
   376					$ERMSG(11,1,,<Reserved.>)
   377					$ERMSG(11,2,,<Reserved.>)
   378					$ERMSG(11,3,<IRL>,<Input record longer than &MAXLNGTH>)
   379					$ERMSG(11,4,,<Reserved.>)
   380					$ERMSG(11,5,,<Reserved.>)
   381					$ERMSG(11,6,<SLE>,<Statement limit (&STLIMIT) exceeded.>)
   382					$ERMSG(11,7,<SLC>,<Attempt to form a string longer that &MAXLNGTH by concatenation.>)
   383					$ERMSG(11,8,,<Reserved.>)
   384					$ERMSG(11,9,,<Reserved.>)
   385					$ERMSG(11,10,<SLD>,<Attempt to form a STRING longer that &MAXLNGTH in call to DUPL
   386					function.>)
   387					$ERMSG(11,11,<SLP>,<Attempt to form a STRING longer that &MAXLNGTH in call to LPAD or RPAD
   388					function.>)
   389					$ERMSG(11,12,,<Reserved.>)
   390					$ERMSG(11,13,<FSL>,<Attempt to form a STRING longer that &MAXLNGTH.>)
   391					$ERMSG(11,14,,<Reserved.>)
   392
   393					$END	(11)
   394					$BEGIN	(12)
   395
   396					$ERMSG(12,1,<DSK>,<Could not open DSK for user.>)
STBERR - Error processing  %5(304)	MACRO %53B(1156)-1 21:52 14-Mar-88 Page 5-5
STBERR	MAC	16-Feb-67 12:04		ERROR MESSAGES

   397					$ERMSG(12,2,<TMP>,<Could not find nnnSNO.TMP.>)
   398					$ERMSG(12,3,<REN>,<RENAME could not rename a file.>)
   399					$ERMSG(12,4,<IIE>,<Incorrectable input error.>)
   400					$ERMSG(12,5,<IOE>,<Incorrectable ouput error.>)
   401					$ERMSG(12,6,<EOF>,<Attempt to read past end of file.>)
   402									;;[304] XXXOPY Removed
   403					$ERMSG(12,8,<OPY>,<Expiration date has been passed.  Do not patch the system beyond this
   404					date as unpredicatable errors will occur.>)
   405					$ERMSG(12,9,<CLS>,<Error in closing a file.>)
   406					$ERMSG(12,10,<CRS>,<Unable to allocate core as required by switches.>)
   407					$ERMSG(12,11,<SWI>,<Unrecognizable switch in the command string.>)
   408					$ERMSG(12,12,<FSP>,<Missing file spec where one was expected.>)
   409					$ERMSG(12,13,<SPE>,<Erroneous file specification.>)
   410					$ERMSG(12,14,<MFO>,<Too many output file specifications in the command string.>)
   411					$ERMSG(12,15,<MCH>,<Number of I/O channels exceeds 15.>)
   412					$ERMSG(12,16,<DEL>,<DELETE could not delete the file.>)
   413					$ERMSG(12,17,<INI>,<An attempt was made to initiate I/O on a device other than an DSK that
   414					had already been initiated.>)
   415					$ERMSG(12,18,<GTS>,<The GETSTS UUO failed with some given device name.>)
   416					$ERMSG(12,19,<MIO>,<An attempt was made to do I/O on a file in both word mode and ascii
   417					mode.  An ENDFILE or a REWIND should be given before attempting to
   418					transmit in the new format.>)
   419					$ERMSG(12,20,<FIC>,<The mode implied by a format is incompatable with the device.>)
   420					$ERMSG(12,21,<TYB>,<The input record form the teletype exceeds the maximum permitted (300
   421					characters).>)
   422					$ERMSG(12,22,<EOO>,<Error in opening a file for output.>)
   423					$ERMSG(12,23,<EOI>,<Error in opening a file for input.>)
   424					$ERMSG(12,24,<SNS>,<A string written in N format has fewer than 6 characters.>)
   425					$ERMSG(12,25,<RUN>,<An error was reported by the RUN UUO.>)
   426					$ERMSG(12,26,<OEL>,<Incorrectable output error on the Listing File.>)
   427					$ERMSG(12,27,<OEO>,<Incorrectable output error on the Output File.>)
   428					$ERMSG(12,28,<OPN>,<Error in opening a file.>)
   429					$ERMSG(12,29,<ILF>,<Illegal format.  A format   longer than   1 character contained
   430					unrecognizable characters.>)
   431					$ERMSG(12,30,<IFF>,<An input file could not be found.>)
   432					$ERMSG(12,31,<FTY>,<Unable to flush tty buffer before reading.>)
   433					$ERMSG(12,32,<LRL>,<Attempt to LOAD a REL file containing an unsupported LINK itemtype.>)
   434					$ERMSG(12,33,<LRR>,<Attempt to LOAD a function with external reference.
   435					(LNKSYM)>)
   436					$ERMSG(12,34,<EFA>,<An external function contains an absolute address.
   437					(LNKEND)>)
   438					$ERMSG(12,35,<EEF>,<Could not find entry point for external function. (LNKEND)>)
   439					$ERMSG(12,36,<LES>,<Attempt to LOAD external function with symbolic starting address.
   440					(LNKCOD)>)
   441					$ERMSG(12,37,<LEA>,<Attempt to LOAD external function with absolute starting address.
   442					(LNKCOD)>)
   443					$ERMSG(12,38,<LEH>,<Attempt to LOAD external function with a high segment. (LNKCOD)>)
   444					$ERMSG(12,39,<EAP>,<Error in append mode I/O.>)
   445					$ERMSG(12,40,<COM>,<Attempt to load an external function with a COMMON area.>)
   446					$ERMSG(12,41,<CPU>,<Attempt to load an external function that will not run on this processor
   447					.>)
   448					$ERMSG(12,42,<ALT>,<Attempt to load an external function produced by an unknown translator.>
   449					)
   450					$ERMSG(12,43,<F40>,<Attempt to load F40 produced code.>)
   451					$ERMSG(12,44,<COB>,<Attempt to load a file produced by COBOL.>)
STBERR - Error processing  %5(304)	MACRO %53B(1156)-1 21:52 14-Mar-88 Page 5-6
STBERR	MAC	16-Feb-67 12:04		ERROR MESSAGES

   452					$ERMSG(12,45,<ALG>,<Attempt to load a file produced by ALGOL.>)
   453					$ERMSG(12,46,<NEL>,<Attempt to load a file produced by NELIAC.>)
   454					$ERMSG(12,47,<PL1>,<Attempt to load a file produced by PL/1.>)
   455					$ERMSG(12,48,<SAI>,<Attempt to load a file produced by SAIL.>)
   456					$ERMSG(12,49,<BPL>,<Attempt to load a file produced by BCPL.>)
   457					$ERMSG(12,50,<SIM>,<Attempt to load a file produced by SIMULA.>)
   458					$ERMSG(12,51,<C74>,<Attempt to load a file produced by COBOL74.>)
   459					$ERMSG(12,52,<C79>,<Attempt to load a file produced by COBOL79.>)
   460					$ERMSG(12,53,<BSC>,<Attempt to load a file produced by BASIC.>)
   461
   462					$END	(12)
   463					$BEGIN	(13)
   464
   465					$ERMSG(13,0,<ARG>,<Too many arguments for a built-in function.>)
   466					$ERMSG(13,1,<AGN>,<Evaluated argument TO POS, RPOS, TAB, RTAB or LEN is negative.>)
   467					$ERMSG(13,2,,<Reserved.>)
   468					$ERMSG(13,3,,<Reserved.>)
   469					$ERMSG(13,4,,<Reserved.>)
   470					$ERMSG(13,5,,<Reserved.>)
   471					$ERMSG(13,6,<EAN>,<Evaluated argument to ANY, NOTANY, SPAN, BREAK or BREAKX is null.>)
   472					$ERMSG(13,7,,<Reserved.>)
   473					$ERMSG(13,8,,<Reserved.>)
   474					$ERMSG(13,9,<MTA>,<First argument to MTAPE is not an integer 0 thru 6.>)
   475					$ERMSG(13,10,,<Reserved.>)
   476					$ERMSG(13,11,<UDN>,<Operand of unary $ is null.>)
   477					$ERMSG(13,12,<ALN>,<Argument for LEN is negative.>)
   478					$ERMSG(13,13,,<Reserved.>)
   479					$ERMSG(13,14,<IFN>,<Argument for TAB, POS, RPOS or RTAB is negative.>)
   480					$ERMSG(13,15,,<Reserved.>)
   481					$ERMSG(13,16,,<Reserved.>)
   482					$ERMSG(13,17,<SAN>,<SPAN argument is null.>)
   483					$ERMSG(13,18,<BXN>,<Argument for BREAKX is null.>)
   484					$ERMSG(13,19,<BKN>,<Argument for BREAK is null.>)
   485					$ERMSG(13,20,<NTN>,<NOTANY argument is null.>)
   486					$ERMSG(13,21,<ANN>,<ANY argument is null.>)
   487					$ERMSG(13,22,<NFA>,<Null first argument in call to the ARRAY function.>)
   488					$ERMSG(13,23,,<Reserved.>)
   489					$ERMSG(13,24,<ARN>,<An array bound in a call to the ARRAY function is non-numeric.>)
   490					$ERMSG(13,25,,<Reserved.>)
   491					$ERMSG(13,26,,<Reserved.>)
   492					$ERMSG(13,27,<ADB>,<An array dimension (HBD-LBD+1) in a call to the ARRAY function is not
   493					between 0 and 2 ** 18.>)
   494					$ERMSG(13,28,,<Reserved.>)
   495					$ERMSG(13,29,<CVT>,<Array argument for CONVERT to TABLE is not dimensioned in the form
   496					n,2.>)
   497					$ERMSG(13,30,<DTN>,<Argument to DATA is null or non-string.>)
   498					$ERMSG(13,31,<DDN>,<Datatype name in argument to DATA is null.>)
   499					$ERMSG(13,32,<DLP>,<Missing left paren in DATA argument.>)
   500					$ERMSG(13,33,<DNN>,<Field name is null in DATA argument.>)
   501					$ERMSG(13,34,<DRP>,<DATA argument does not end with ")".>)
   502					$ERMSG(13,35,,<Reserved.>)
   503					$ERMSG(13,36,,<Reserved.>)
   504					$ERMSG(13,37,<ADM>,<Function name in first argument to DEFINE is missing. (NULL)>)
   505					$ERMSG(13,38,<DPL>,<First argument to DEFINE is missing.>)
   506					$ERMSG(13,39,,<Reserved.>)
STBERR - Error processing  %5(304)	MACRO %53B(1156)-1 21:52 14-Mar-88 Page 5-7
STBERR	MAC	16-Feb-67 12:04		ERROR MESSAGES

   507					$ERMSG(13,40,<DPR>,<First argument to DEFINE is missing a ")".>)
   508					$ERMSG(13,41,,<Reserved.>)
   509					$ERMSG(13,42,<SRD>,<Array argument to SORT or RSORT has dimensionality of greater than 2.>)
   510					$ERMSG(13,43,<SNC>,<A request was made to SORT (or RSORT) a doubly dimensioned array on
   511					a non-existant column.>)
   512					$ERMSG(13,44,<SNF>,<The second argument to SORT (or RSORT) was a name, but it was not the
   513					name of a field function.>)
   514					$ERMSG(13,45,,<Reserved.>)
   515					$ERMSG(13,46,<OPD>,<Third argument to OPSYN is not 0, 1 or 2.>)
   516					$ERMSG(13,47,<RDM>,<The argument to RANDOM was either negative or was such as to cause some
   517					inexplicable conversion error when converted to REAL in preparation for
   518					a multiply.>)
   519					$ERMSG(13,48,,<Reserved.>)
   520					$ERMSG(13,49,<TBN>,<Argument to TABLE is negative.>)
   521					$ERMSG(13,50,<SST>,<Only one argument was given to SUBSTR.>)
   522					$ERMSG(13,52,<RUA>,<The first argument to RUN is not a valid spec.>)
   523					$ERMSG(13,53,<TAV>,<The first argument to TRACE was the name of a created variable and the
   524					trace request was not for VALUE.>)
   525					$ERMSG(13,54,,<Reserved.>)
   526					$ERMSG(13,55,<COD>,<The null string was given as argument to CODE.>)
   527					$ERMSG(13,56,<TAP>,<The third argument to LPAD or RPAD is not of length 1.>)
   528					$ERMSG(13,57,<NAP>,<Incorrect number of arguments to LPAD or RPAD.>)
   529					$ERMSG(13,58,<ASC>,<The argument to ASCII was not an integer in the range 0,177.>)
   530					$ERMSG(13,59,<FLD>,<The first argument to FIELD is not the name of a defined datatype.>)
   531					$ERMSG(13,60,<ATT>,<Second argument to TRACE was not one of the designated types.>)
   532					$ERMSG(13,61,<TTC>,<Argument to TTY was not 'C' or null.>)
   533					$ERMSG(13,62,<IUF>,<Inconsistent or unrecognizable format characters were detected.>)
   534					$ERMSG(13,63,<CCB>,<During a conversion under format control a character was out of bounds.>
   535					)
   536					$ERMSG(13,64,<WFL>,<In attempting to write under a word-mode format, the data item was to
   537					long to fit within a 36-bit word.>)
   538					$ERMSG(13,65,<CSA>,<A request was made to convert a strange object to ARRAY.>)
   539					$ERMSG(13,66,<CST>,<A request was made to convert a strange object to TABLE.>)
   540					$ERMSG(13,67,<ALP>,<The first argument to ARG   or   LOCAL did not identify a programmer
   541					defined function.>)
   542					$ERMSG(13,68,<SAC>,<The second argument to CONVERT is improper.>)
   543					$ERMSG(13,69,<FIF>,<Improper  file-specification to a file handling function (RENAME,
   544					DELETE, FILE, etc.).>)
   545					$ERMSG(13,70,<TRT>,<The second argument to TRACE indicated Keyword but the FIRST ARGUMENT
   546					was not the name of a   TRACEABLE keyword   (i.e., one of 'ERRTYPE',
   547					'FNCLEVEL', 'STCOUNT' or 'STFCOUNT').>)
   548					$ERMSG(13,71,<LDL>,<First argument to LOAD is missing a "(".>)
   549					$ERMSG(13,72,<LAN>,<Function name in first argument to LOAD is null.>)
   550					$ERMSG(13,73,<LMP>,<First argument to LOAD is missing a ")".>)
   551					$ERMSG(13,300,<APF>,<The second argument to ASSOCIATE is a programmer-defined data object
   552					but HAS LESS than four fields.>)
   553					$ERMSG(13,301,<IPF>,<Third argument to INSERTBP is a programmer-defined data object but has
   554					fewer than four fields.>)
   555					$ERMSG(13,302,<CPF>,<Second argument to CONNECT is a programmer-defined data object but has
   556					fewer than four fields.>)
   557
   558					$END	(13)
   559					$BEGIN	(14)
   560
   561					$ERMSG(14,1,,<Reserved.>)
STBERR - Error processing  %5(304)	MACRO %53B(1156)-1 21:52 14-Mar-88 Page 5-8
STBERR	MAC	16-Feb-67 12:04		ERROR MESSAGES

   562					$ERMSG(14,2,,<Reserved.>)
   563					$ERMSG(14,3,<NRN>,<A NRETURN was attempted without a NAME.>)
   564					$ERMSG(14,4,,<Reserved.>)
   565					$ERMSG(14,5,<NRP>,<An attempt was made to obtain the   name   of the result of pattern
   566					matching (eg., .(S ? P)  ).>)
   567					$ERMSG(14,6,<VVE>,<A value appeared where a variable was expected.>)
   568					$ERMSG(14,7,<VGA>,<A value was given to unary "@".>)
   569					$ERMSG(14,8,<VGP>,<A value was given to unary '.'.>)
   570					$ERMSG(14,9,<AAV>,<An attempt was made to assign to a value.>)
   571
   572					$END	(14)
   573
   574					>;END OF ERRORS DEFINITION
STBERR - Error processing  %5(304)	MACRO %53B(1156)-1 21:52 14-Mar-88 Page 6
STBERR	MAC	16-Feb-67 12:04		EXPANSION OF ERROR MESSAGES

   575						SUBTTL	EXPANSION OF ERROR MESSAGES
   576
   577					; DETERMINE THE LENGTH OF THE TABLE
   578
   579			000000		E.MAX==0			; MAX. NUMBER OF ERROS IS ZERO
   580
   581					DEFINE	$BEGIN(A),<E.MAX==^D<A>>	; THIS INCREMENTS THE MAX.
   582					DEFINE	$END(A),<>		; NULL MACRO
   583					DEFINE	$ERMSG(A,B,C,D)<>	; Null macro
   584
   585						ERRORS			; JUST DEFINE THE AREA
   586
   587
   588	400035'				ERRTAB:
   589					IF1,<
   590						BLOCK	E.MAX		; JUST DEFINE THE AREA
   591					>
   592
   593					IF2,<
   594					DEFINE	ENT(A),<
   595						EXP	E$'A
   596					>
   597			000001			%%0==1
   598						.XCREF	%%0
   599						RADIX	10
   600					REPEAT	E.MAX,<
   601						ENT	(\%%0)
   602						%%0==%%0+1
   603	400035'	000000	406432'		>
   604	400036'	000000	406635'
   605	400037'	000000	406636'
   606	400040'	000000	406642'
   607	400041'	000000	406644'
   608	400042'	000000	406653'
   609	400043'	000000	406656'
   610	400044'	000000	406657'
   611	400045'	000000	406666'
   612	400046'	000000	406671'
   613	400047'	000000	406710'
   614	400050'	000000	406726'
   615	400051'	000000	407012'
   616	400052'	000000	407126'
   617						RADIX	8
   618					>;END OF IF2
STBERR - Error processing  %5(304)	MACRO %53B(1156)-1 21:52 14-Mar-88 Page 7
STBERR	MAC	16-Feb-67 12:04		EXPANSION OF ERROR MESSAGES

   619					;
   620					;                       Format of error message expansions
   621					;
   622					;
   623					;    =========================================================================
   624					;    !    3 SIXBITchars. of &ERRNAME     !    Length of &ERRMSG in bytes     !
   625					;    =========================================================================
   626					;    /                                                                       /
   627					;    /                   Text of &ERRMSG (in ASCII format)                   /
   628					;    /                                                                       /
   629					;    =========================================================================
   630					;
   631					;
   632
   633					DEFINE	$BEGIN(A),<>
   634					DEFINE	$END(A)<>
   635					DEFINE	$ERMSG(A,B,C,D),<
   636						LSTR==0
   637						IFNB <C>,<C'TXT:
   638						IRPC <D>,<LSTR==LSTR+1>
   639						<SIXBIT /C/>+LSTR
   640						ASCII	%'D'%
   641					>>
   642
   643					; General error message for undefined items.
   644
   645	400053'	626366	000011		TXT:	XWD	'RSV',^D9
   646	400054'	122 145 163 145 162 		ASCII	|Reserved.|
   647
   648	400056'	415651	000105			ERRORS
   649	400057'	105 166 141 154 165
   650	400075'	415663	000117
   651	400076'	105 166 141 154 165
   652
   653	400116'	455660	000125
   654	400117'	105 166 141 154 165
   655
   656	400140'	576556	000041
   657	400141'	117 160 145 162 141
   658	400150'	626063	000103
   659	400151'	122 145 160 154 141
   660	400167'	605663	000053
   661	400170'	123 165 142 152 145
   662	400201'	605660	000060
   663	400202'	124 150 145 040 160
   664	400214'	625760	000104
   665	400215'	124 150 145 040 162
   666	400233'	545760	000103
   667	400234'	124 150 145 040 154
   668	400252'	465160	000112
   669	400253'	101 040 146 151 145
   670	400272'	464660	000103
   671	400273'	124 150 145 040 141
   672	400311'	465760	000167
   673	400312'	124 150 145 040 146
STBERR - Error processing  %5(304)	MACRO %53B(1156)-1 21:52 14-Mar-88 Page 7-1
STBERR	MAC	16-Feb-67 12:04		EXPANSION OF ERROR MESSAGES

   674
   675	400342'	635760	000170
   676	400343'	124 150 145 040 163
   677
   678	400373'	457056	000065
   679	400374'	124 150 145 040 154
   680	400407'	457060	000066
   681	400410'	124 150 145 040 162
   682	400423'	566056	000070
   683	400424'	101 156 040 141 162
   684	400440'	656056	000046
   685	400441'	124 150 145 040 157
   686	400451'	655556	000046
   687	400452'	124 150 145 040 157
   688	400462'	547046	000101
   689	400463'	106 151 162 163 164
   690	400500'	547063	000102
   691	400501'	123 145 143 157 156
   692	400517'	416363	000041
   693	400520'	101 162 147 165 155
   694	400527'	574260	000057
   695	400530'	114 145 146 164 040
   696	400542'	545145	000060
   697	400543'	101 162 147 165 155
   698	400555'	416460	000101
   699	400556'	101 162 147 165 155
   700	400573'	636056	000057
   701	400574'	101 162 147 165 155
   702	400606'	426270	000061
   703	400607'	101 162 147 165 155
   704	400621'	426253	000060
   705	400622'	101 162 147 165 155
   706	400634'	566471	000063
   707	400635'	101 162 147 165 155
   708	400650'	415671	000056
   709	400651'	101 162 147 165 155
   710	400663'	414160	000043
   711	400664'	101 162 147 165 155
   712	400673'	464160	000076
   713	400674'	106 151 162 163 164
   714	400711'	464154	000054
   715	400712'	106 151 162 163 164
   716	400723'	464151	000060
   717	400724'	123 145 143 157 156
   718	400736'	464163	000050
   719	400737'	106 151 162 163 164
   720	400747'	464363	000050
   721	400750'	106 151 162 163 164
   722	400760'	414363	000041
   723	400761'	101 162 147 165 155
   724	400770'	414351	000051
   725	400771'	101 156 040 141 162
   726	401002'	634356	000063
   727	401003'	123 145 143 157 156
   728	401016'	414551	000043
STBERR - Error processing  %5(304)	MACRO %53B(1156)-1 21:52 14-Mar-88 Page 7-2
STBERR	MAC	16-Feb-67 12:04		EXPANSION OF ERROR MESSAGES

   729	401017'	101 162 147 165 155
   730	401026'	464463	000051
   731	401027'	106 151 162 163 164
   732	401040'	634456	000105
   733	401041'	123 145 143 157 156
   734	401057'	414466	000060
   735	401060'	101 162 147 165 155
   736	401072'	634451	000052
   737	401073'	123 145 143 157 156
   738	401104'	464451	000047
   739	401105'	106 151 162 163 164
   740	401115'	414545	000147
   741	401116'	101 162 147 165 155
   742
   743	401143'	464666	000076
   744	401144'	106 151 162 163 164
   745	401161'	634651	000053
   746	401162'	123 145 143 157 156
   747	401173'	415157	000121
   748	401174'	106 151 162 163 164
   749
   750	401215'	635163	000051
   751	401216'	123 145 143 157 156
   752	401227'	466356	000133
   753	401230'	106 157 162 155 141
   754
   755	401253'	645756	000047
   756	401254'	124 150 151 162 144
   757	401264'	414656	000042
   758	401265'	101 162 147 165 155
   759	401274'	545656	000040
   760	401275'	101 162 147 165 155
   761	401304'	546251	000061
   762	401305'	124 150 151 162 144
   763	401317'	546263	000060
   764	401320'	123 145 143 157 156
   765	401332'	546246	000061
   766	401333'	106 151 162 163 164
   767	401345'	565666	000076
   768	401346'	106 151 162 163 164
   769	401363'	635751	000045
   770	401364'	123 145 143 157 156
   771	401374'	435656	000153
   772	401375'	103 157 156 166 145
   773
   774	401423'	435663	000141
   775	401424'	103 157 156 166 145
   776
   777	401450'	625651	000042
   778	401451'	101 162 147 165 155
   779	401460'	604164	000057
   780	401461'	101 162 147 165 155
   781	401473'	636251	000053
   782	401474'	123 145 143 157 156
   783	401505'	466251	000052
STBERR - Error processing  %5(304)	MACRO %53B(1156)-1 21:52 14-Mar-88 Page 7-3
STBERR	MAC	16-Feb-67 12:04		EXPANSION OF ERROR MESSAGES

   784	401506'	106 151 162 163 164
   785	401517'	646263	000052
   786	401520'	124 150 151 162 144
   787	401531'	636263	000053
   788	401532'	123 145 143 157 156
   789	401543'	466263	000052
   790	401544'	106 151 162 163 164
   791	401555'	416263	000044
   792	401556'	101 162 147 165 155
   793	401566'	626551	000051
   794	401567'	123 145 143 157 156
   795	401600'	416456	000043
   796	401601'	101 162 147 165 155
   797	401610'	636441	000075
   798	401611'	106 151 162 163 164
   799	401626'	635164	000132
   800	401627'	123 145 143 157 156
   801
   802	401651'	416356	000042
   803	401652'	101 162 147 165 155
   804	401661'	466363	000051
   805	401662'	106 151 162 163 164
   806	401673'	636351	000054
   807	401674'	123 145 143 157 156
   808	401705'	646351	000053
   809	401706'	124 150 151 162 144
   810	401717'	416451	000044
   811	401720'	101 162 147 165 155
   812	401730'	636255	000157
   813	401731'	123 145 143 157 156
   814
   815	401760'	636356	000076
   816	401761'	123 145 143 157 156
   817	401776'	466456	000060
   818	401777'	106 151 162 163 164
   819	402011'	636456	000063
   820	402012'	123 145 143 157 156
   821	402025'	646463	000060
   822	402026'	124 150 151 162 144
   823	402040'	466463	000075
   824	402041'	106 157 165 162 164
   825	402056'	434446	000135
   826	402057'	103 157 156 166 145
   827
   828	402102'	436763	000100
   829	402103'	103 157 156 166 145
   830	402120'	414151	000041
   831	402121'	101 162 147 165 155
   832	402130'	465663	000116
   833	402131'	101 040 146 151 154
   834
   835	402151'	666744	000062
   836	402152'	101 040 166 141 154
   837	402164'	414451	000071
   838	402165'	101 162 147 165 155
STBERR - Error processing  %5(304)	MACRO %53B(1156)-1 21:52 14-Mar-88 Page 7-4
STBERR	MAC	16-Feb-67 12:04		EXPANSION OF ERROR MESSAGES

   839	402201'	465454	000050
   840	402202'	106 151 162 163 164
   841	402212'	514441	000074
   842	402213'	111 154 154 145 147
   843	402227'	514165	000033
   844	402230'	111 154 154 145 147
   845	402236'	646046	000074
   846	402237'	124 171 160 145 040
   847	402253'	646044	000104
   848	402254'	106 165 156 143 164
   849	402272'	634160	000104
   850	402273'	123 145 143 157 156
   851	402311'	464156	000072
   852	402312'	106 151 162 163 164
   853	402326'	435446	000125
   854	402327'	124 150 145 040 143
   855
   856	402350'	414456	000075
   857	402351'	106 151 162 163 164
   858	402366'	645160	000103
   859	402367'	124 150 151 162 144
   860	402405'	435460	000164
   861	402406'	124 150 145 040 143
   862
   863	402436'	415162	000202
   864	402437'	106 151 162 163 164
   865
   866	402471'	466056	000133
   867	402472'	106 165 156 143 164
   868
   869	402515'	635451	000053
   870	402516'	123 145 143 157 156
   871	402527'	675651	000053
   872	402530'	123 145 143 157 156
   873	402541'	466756	000046
   874	402542'	106 151 162 163 164
   875	402552'	604444	000137
   876	402553'	106 165 156 143 164
   877
   878	402576'	634360	000103
   879	402577'	123 145 143 157 156
   880	402615'	546044	000153
   881	402616'	114 145 166 145 154
   882
   883	402644'	464345	000073
   884	402645'	106 151 162 163 164
   885	402661'	464445	000076
   886	402662'	106 151 162 163 164
   887	402677'	416262	000145
   888	402700'	101 162 162 141 171
   889
   890	402725'	554455	000116
   891	402726'	115 165 154 164 151
   892
   893	402746'	566341	000061
STBERR - Error processing  %5(304)	MACRO %53B(1156)-1 21:52 14-Mar-88 Page 7-5
STBERR	MAC	16-Feb-67 12:04		EXPANSION OF ERROR MESSAGES

   894	402747'	127 162 157 156 147
   895	402761'	634251	000063
   896	402762'	123 165 142 163 143
   897	402775'	454562	000103
   898	402776'	101 164 164 145 155
   899	403014'	536744	000135
   900	403015'	101 156 040 141 164
   901
   902	403040'	655367	000042
   903	403041'	122 145 146 145 162
   904	403050'	415153	000065
   905	403051'	101 164 164 145 155
   906	403064'	565367	000050
   907	403065'	101 164 164 145 155
   908	403075'	636457	000066
   909	403076'	101 040 162 145 161
   910	403111'	506357	000041
   911	403112'	120 141 164 164 145
   912	403121'	566357	000362
   913	403122'	120 141 164 164 145
   914
   915
   916
   917	403203'	624672	000035
   918	403204'	122 105 124 125 122
   919	403212'	646554	000037
   920	403213'	124 162 141 156 163
   921	403222'	645154	000223
   922	403223'	124 162 141 156 163
   923
   924
   925	403261'	564756	000102
   926	403262'	116 141 155 145 040
   927	403300'	444745	000073
   928	403301'	104 151 162 145 143
   929	403315'	564745	000056
   930	403316'	101 040 156 165 155
   931	403330'	654657	000057
   932	403331'	122 145 146 145 162
   933	403343'	544656	000052
   934	403344'	114 141 142 145 154
   935	403355'	576462	000060
   936	403356'	117 166 145 162 146
   937	403370'	624472	000026
   938	403371'	122 105 101 114 040
   939	403376'	576254	000034
   940	403377'	117 166 145 162 146
   941	403405'	514472	000031
   942	403406'	111 156 164 145 147
   943	403413'	514157	000032
   944	403414'	111 156 164 145 147
   945	403422'	516357	000035
   946	403423'	111 156 164 145 147
   947	403431'	515557	000040
   948	403432'	111 156 164 145 147
STBERR - Error processing  %5(304)	MACRO %53B(1156)-1 21:52 14-Mar-88 Page 7-6
STBERR	MAC	16-Feb-67 12:04		EXPANSION OF ERROR MESSAGES

   949	403441'	564551	000051
   950	403442'	116 145 147 141 164
   951	403453'	575145	000043
   952	403454'	117 166 145 162 146
   953	403463'	626256	000036
   954	403464'	122 105 101 114 040
   955	403472'	576555	000130
   956	403473'	111 156 164 145 147
   957
   958	403515'	447262	000055
   959	403516'	101 164 164 145 155
   960	403527'	516254	000042
   961	403530'	111 156 160 165 164
   962	403537'	635445	000044
   963	403540'	123 164 141 164 145
   964	403550'	635443	000100
   965	403551'	101 164 164 145 155
   966	403566'	635444	000111
   967	403567'	101 164 164 145 155
   968
   969	403606'	635460	000121
   970	403607'	101 164 164 145 155
   971
   972	403630'	466354	000057
   973	403631'	101 164 164 145 155
   974	403643'	446353	000034
   975	403644'	103 157 165 154 144
   976	403652'	645560	000032
   977	403653'	103 157 165 154 144
   978	403661'	624556	000037
   979	403662'	122 105 116 101 115
   980	403671'	515145	000032
   981	403672'	111 156 143 157 162
   982	403700'	515745	000032
   983	403701'	111 156 143 157 162
   984	403707'	455746	000041
   985	403710'	101 164 164 145 155
   986	403717'	576071	000160
   987	403720'	105 170 160 151 162
   988
   989	403747'	435463	000030
   990	403750'	105 162 162 157 162
   991	403755'	436263	000060
   992	403756'	125 156 141 142 154
   993	403770'	636751	000054
   994	403771'	125 156 162 145 143
   995	404002'	466360	000051
   996	404003'	115 151 163 163 151
   997	404014'	636045	000035
   998	404015'	105 162 162 157 156
   999	404023'	554657	000072
  1000	404024'	124 157 157 040 155
  1001	404040'	554350	000042
  1002	404041'	116 165 155 142 145
  1003	404050'	444554	000041
STBERR - Error processing  %5(304)	MACRO %53B(1156)-1 21:52 14-Mar-88 Page 7-7
STBERR	MAC	16-Feb-67 12:04		EXPANSION OF ERROR MESSAGES

  1004	404051'	104 105 114 105 124
  1005	404060'	515651	000143
  1006	404061'	101 156 040 141 164
  1007
  1008	404105'	476463	000062
  1009	404106'	124 150 145 040 107
  1010	404120'	555157	000244
  1011	404121'	101 156 040 141 164
  1012
  1013
  1014	404162'	465143	000075
  1015	404163'	124 150 145 040 155
  1016	404200'	647142	000123
  1017	404201'	124 150 145 040 151
  1018
  1019	404222'	455757	000043
  1020	404223'	105 162 162 157 162
  1021	404232'	455751	000042
  1022	404233'	105 162 162 157 162
  1023	404242'	635663	000071
  1024	404243'	101 040 163 164 162
  1025	404257'	626556	000045
  1026	404260'	101 156 040 145 162
  1027	404270'	574554	000057
  1028	404271'	111 156 143 157 162
  1029	404303'	574557	000056
  1030	404304'	111 156 143 157 162
  1031	404316'	576056	000030
  1032	404317'	105 162 162 157 162
  1033	404324'	515446	000133
  1034	404325'	111 154 154 145 147
  1035
  1036	404350'	514646	000041
  1037	404351'	101 156 040 151 156
  1038	404360'	466471	000052
  1039	404361'	125 156 141 142 154
  1040	404372'	546254	000103
  1041	404373'	101 164 164 145 155
  1042	404411'	546262	000075
  1043	404412'	101 164 164 145 155
  1044
  1045	404427'	454641	000074
  1046	404430'	101 156 040 145 170
  1047
  1048	404444'	454546	000072
  1049	404445'	103 157 165 154 144
  1050	404461'	544563	000113
  1051	404462'	101 164 164 145 155
  1052
  1053	404501'	544541	000113
  1054	404502'	101 164 164 145 155
  1055
  1056	404521'	544550	000077
  1057	404522'	101 164 164 145 155
  1058	404537'	454160	000031
STBERR - Error processing  %5(304)	MACRO %53B(1156)-1 21:52 14-Mar-88 Page 7-8
STBERR	MAC	16-Feb-67 12:04		EXPANSION OF ERROR MESSAGES

  1059	404540'	105 162 162 157 162
  1060	404545'	435755	000070
  1061	404546'	101 164 164 145 155
  1062	404562'	436065	000111
  1063	404563'	101 164 164 145 155
  1064	404602'	415464	000107
  1065	404603'	101 164 164 145 155
  1066	404622'	462420	000042
  1067	404623'	101 164 164 145 155
  1068	404632'	435742	000051
  1069	404633'	101 164 164 145 155
  1070	404644'	415447	000051
  1071	404645'	101 164 164 145 155
  1072	404656'	564554	000052
  1073	404657'	101 164 164 145 155
  1074	404670'	605421	000050
  1075	404671'	101 164 164 145 155
  1076	404701'	634151	000050
  1077	404702'	101 164 164 145 155
  1078	404712'	426054	000050
  1079	404713'	101 164 164 145 155
  1080	404723'	635155	000052
  1081	404724'	101 164 164 145 155
  1082	404735'	432724	000053
  1083	404736'	101 164 164 145 155
  1084	404747'	432731	000053
  1085	404750'	101 164 164 145 155
  1086	404761'	426343	000051
  1087	404762'	101 164 164 145 155
  1088	404773'	416247	000053
  1089	404774'	124 157 157 040 155
  1090	405005'	414756	000076
  1091	405006'	105 166 141 154 165
  1092	405023'	454156	000101
  1093	405024'	105 166 141 154 165
  1094	405041'	556441	000063
  1095	405042'	106 151 162 163 164
  1096	405055'	654456	000033
  1097	405056'	117 160 145 162 141
  1098	405064'	415456	000035
  1099	405065'	101 162 147 165 155
  1100	405073'	514656	000060
  1101	405074'	101 162 147 165 155
  1102	405106'	634156	000026
  1103	405107'	123 120 101 116 040
  1104	405114'	427056	000034
  1105	405115'	101 162 147 165 155
  1106	405123'	425356	000033
  1107	405124'	101 162 147 165 155
  1108	405132'	566456	000030
  1109	405133'	116 117 124 101 116
  1110	405140'	415656	000025
  1111	405141'	101 116 131 040 141
  1112	405146'	564641	000062
  1113	405147'	116 165 154 154 040
STBERR - Error processing  %5(304)	MACRO %53B(1156)-1 21:52 14-Mar-88 Page 7-9
STBERR	MAC	16-Feb-67 12:04		EXPANSION OF ERROR MESSAGES

  1114	405161'	416256	000076
  1115	405162'	101 156 040 141 162
  1116	405177'	414442	000135
  1117	405200'	101 156 040 141 162
  1118
  1119	405223'	436664	000110
  1120	405224'	101 162 162 141 171
  1121
  1122	405243'	446456	000047
  1123	405244'	101 162 147 165 155
  1124	405254'	444456	000052
  1125	405255'	104 141 164 141 164
  1126	405266'	445460	000044
  1127	405267'	115 151 163 163 151
  1128	405277'	445656	000044
  1129	405300'	106 151 145 154 144
  1130	405310'	446260	000044
  1131	405311'	104 101 124 101 040
  1132	405321'	414455	000074
  1133	405322'	106 165 156 143 164
  1134	405336'	446054	000044
  1135	405337'	106 151 162 163 164
  1136	405347'	446062	000052
  1137	405350'	106 151 162 163 164
  1138	405361'	636244	000105
  1139	405362'	101 162 162 141 171
  1140	405400'	635643	000133
  1141	405401'	101 040 162 145 161
  1142
  1143	405424'	635646	000140
  1144	405425'	124 150 145 040 163
  1145
  1146	405451'	576044	000051
  1147	405452'	124 150 151 162 144
  1148	405463'	624455	000235
  1149	405464'	124 150 145 040 141
  1150
  1151
  1152	405524'	644256	000036
  1153	405525'	101 162 147 165 155
  1154	405533'	636364	000046
  1155	405534'	117 156 154 171 040
  1156	405544'	626541	000056
  1157	405545'	124 150 145 040 146
  1158	405557'	644166	000150
  1159	405560'	124 150 145 040 146
  1160
  1161	405605'	435744	000056
  1162	405606'	124 150 145 040 156
  1163	405620'	644160	000066
  1164	405621'	124 150 145 040 164
  1165	405634'	564160	000056
  1166	405635'	111 156 143 157 162
  1167	405647'	416343	000074
  1168	405650'	124 150 145 040 141
STBERR - Error processing  %5(304)	MACRO %53B(1156)-1 21:52 14-Mar-88 Page 7-10
STBERR	MAC	16-Feb-67 12:04		EXPANSION OF ERROR MESSAGES

  1169	405664'	465444	000102
  1170	405665'	124 150 145 040 146
  1171	405703'	416464	000075
  1172	405704'	123 145 143 157 156
  1173	405721'	646443	000044
  1174	405722'	101 162 147 165 155
  1175	405732'	516546	000077
  1176	405733'	111 156 143 157 156
  1177	405750'	434342	000107
  1178	405751'	104 165 162 151 156
  1179	405770'	674654	000150
  1180	405771'	111 156 040 141 164
  1181
  1182	406016'	436341	000070
  1183	406017'	101 040 162 145 161
  1184	406033'	436364	000070
  1185	406034'	101 040 162 145 161
  1186	406050'	415460	000127
  1187	406051'	124 150 145 040 146
  1188
  1189	406073'	634143	000053
  1190	406074'	124 150 145 040 163
  1191	406105'	465146	000127
  1192	406106'	111 155 160 162 157
  1193
  1194	406130'	646264	000262
  1195	406131'	124 150 145 040 163
  1196
  1197
  1198	406175'	544454	000050
  1199	406176'	106 151 162 163 164
  1200	406206'	544156	000060
  1201	406207'	106 165 156 143 164
  1202	406221'	545560	000050
  1203	406222'	106 151 162 163 164
  1204	406232'	416046	000144
  1205	406233'	124 150 145 040 163
  1206
  1207	406257'	516046	000137
  1208	406260'	124 150 151 162 144
  1209
  1210	406303'	436046	000137
  1211	406304'	123 145 143 157 156
  1212
  1213	406327'	566256	000047
  1214	406330'	101 040 116 122 105
  1215	406340'	566260	000140
  1216	406341'	101 156 040 141 164
  1217
  1218	406365'	666645	000057
  1219	406366'	101 040 166 141 154
  1220	406400'	664741	000037
  1221	406401'	101 040 166 141 154
  1222	406410'	664760	000037
  1223	406411'	101 040 166 141 154
STBERR - Error processing  %5(304)	MACRO %53B(1156)-1 21:52 14-Mar-88 Page 7-11
STBERR	MAC	16-Feb-67 12:04		EXPANSION OF ERROR MESSAGES

  1224	406420'	414166	000051
  1225	406421'	101 156 040 141 164
  1226
  1227
  1228						DEFINE	$BEGIN(A),<
  1229						E$'A:
  1230						>
  1231
  1232
  1233						.XCREF LSTR
  1234						DEFINE $ERMSG(A,B,C,D),<
  1235						RADIX	10
  1236						XWD	B,C'TXT
  1237						RADIX	8
  1238						>
  1239
  1240	406432'	000001	400053'			ERRORS
  1241	406433'	000002	400056'
  1242	406434'	000003	400053'
  1243	406435'	000004	400053'
  1244	406436'	000005	400053'
  1245	406437'	000006	400075'
  1246	406440'	000007	400053'
  1247	406441'	000010	400053'
  1248	406442'	000011	400053'
  1249	406443'	000012	400053'
  1250	406444'	000013	400116'
  1251	406445'	000014	400053'
  1252	406446'	000015	400053'
  1253	406447'	000016	400053'
  1254	406450'	000017	400053'
  1255	406451'	000020	400053'
  1256	406452'	000021	400140'
  1257	406453'	000022	400150'
  1258	406454'	000023	400167'
  1259	406455'	000024	400201'
  1260	406456'	000025	400053'
  1261	406457'	000026	400053'
  1262	406460'	000027	400214'
  1263	406461'	000030	400233'
  1264	406462'	000031	400252'
  1265	406463'	000032	400272'
  1266	406464'	000033	400311'
  1267	406465'	000034	400342'
  1268	406466'	000035	400373'
  1269	406467'	000036	400407'
  1270	406470'	000037	400423'
  1271	406471'	000040	400053'
  1272	406472'	000041	400440'
  1273	406473'	000042	400451'
  1274	406474'	000043	400462'
  1275	406475'	000044	400500'
  1276	406476'	000045	400517'
  1277	406477'	000046	400527'
  1278	406500'	000047	400542'
STBERR - Error processing  %5(304)	MACRO %53B(1156)-1 21:52 14-Mar-88 Page 7-12
STBERR	MAC	16-Feb-67 12:04		EXPANSION OF ERROR MESSAGES

  1279	406501'	000050	400053'
  1280	406502'	000051	400555'
  1281	406503'	000052	400053'
  1282	406504'	000053	400053'
  1283	406505'	000054	400573'
  1284	406506'	000055	400606'
  1285	406507'	000056	400621'
  1286	406510'	000057	400634'
  1287	406511'	000060	400650'
  1288	406512'	000061	400053'
  1289	406513'	000062	400663'
  1290	406514'	000063	400673'
  1291	406515'	000064	400711'
  1292	406516'	000065	400723'
  1293	406517'	000066	400736'
  1294	406520'	000067	400747'
  1295	406521'	000070	400760'
  1296	406522'	000071	400770'
  1297	406523'	000072	401002'
  1298	406524'	000073	401016'
  1299	406525'	000074	401026'
  1300	406526'	000075	401040'
  1301	406527'	000076	401057'
  1302	406530'	000077	401072'
  1303	406531'	000100	401104'
  1304	406532'	000101	400053'
  1305	406533'	000102	401115'
  1306	406534'	000103	401143'
  1307	406535'	000104	401161'
  1308	406536'	000105	401173'
  1309	406537'	000106	401215'
  1310	406540'	000107	401227'
  1311	406541'	000110	401253'
  1312	406542'	000111	401264'
  1313	406543'	000112	401274'
  1314	406544'	000113	401304'
  1315	406545'	000114	401317'
  1316	406546'	000115	401332'
  1317	406547'	000116	401345'
  1318	406550'	000117	401363'
  1319	406551'	000120	401374'
  1320	406552'	000121	401423'
  1321	406553'	000122	401450'
  1322	406554'	000123	401460'
  1323	406555'	000124	401473'
  1324	406556'	000125	401505'
  1325	406557'	000126	401517'
  1326	406560'	000127	401531'
  1327	406561'	000130	401543'
  1328	406562'	000131	401555'
  1329	406563'	000132	401566'
  1330	406564'	000133	401600'
  1331	406565'	000134	401610'
  1332	406566'	000135	401626'
  1333	406567'	000136	401651'
STBERR - Error processing  %5(304)	MACRO %53B(1156)-1 21:52 14-Mar-88 Page 7-13
STBERR	MAC	16-Feb-67 12:04		EXPANSION OF ERROR MESSAGES

  1334	406570'	000137	401661'
  1335	406571'	000140	401673'
  1336	406572'	000141	401705'
  1337	406573'	000142	401717'
  1338	406574'	000143	401730'
  1339	406575'	000144	401760'
  1340	406576'	000145	401776'
  1341	406577'	000146	402011'
  1342	406600'	000147	402025'
  1343	406601'	000150	402040'
  1344	406602'	000151	402056'
  1345	406603'	000152	402102'
  1346	406604'	000153	402120'
  1347	406605'	000154	402130'
  1348	406606'	000155	402151'
  1349	406607'	000156	402164'
  1350	406610'	000157	402201'
  1351	406611'	000160	402212'
  1352	406612'	000161	402227'
  1353	406613'	000454	402236'
  1354	406614'	000455	402253'
  1355	406615'	000456	402272'
  1356	406616'	000457	402311'
  1357	406617'	000460	402326'
  1358	406620'	000461	402350'
  1359	406621'	000462	402366'
  1360	406622'	000463	402405'
  1361	406623'	000464	402436'
  1362	406624'	000465	402471'
  1363	406625'	000466	402515'
  1364	406626'	000467	402527'
  1365	406627'	000470	402541'
  1366	406630'	000471	402552'
  1367	406631'	000472	402576'
  1368	406632'	000473	402615'
  1369	406633'	000474	402644'
  1370	406634'	000475	402661'
  1371	406635'	000001	400053'
  1372	406636'	000001	402677'
  1373	406637'	000002	402725'
  1374	406640'	000003	402746'
  1375	406641'	000004	402761'
  1376	406642'	000001	400053'
  1377	406643'	000002	402775'
  1378	406644'	000001	403014'
  1379	406645'	000002	403040'
  1380	406646'	000003	400053'
  1381	406647'	000004	400053'
  1382	406650'	000005	400053'
  1383	406651'	000006	403050'
  1384	406652'	000007	403064'
  1385	406653'	000001	403075'
  1386	406654'	000003	403111'
  1387	406655'	000004	403121'
  1388	406656'	000001	400053'
STBERR - Error processing  %5(304)	MACRO %53B(1156)-1 21:52 14-Mar-88 Page 7-14
STBERR	MAC	16-Feb-67 12:04		EXPANSION OF ERROR MESSAGES

  1389	406657'	000001	403203'
  1390	406660'	000002	403212'
  1391	406661'	000003	403222'
  1392	406662'	000004	400053'
  1393	406663'	000005	403261'
  1394	406664'	000006	403300'
  1395	406665'	000007	403315'
  1396	406666'	000001	403330'
  1397	406667'	000002	400053'
  1398	406670'	000003	403343'
  1399	406671'	000001	400053'
  1400	406672'	000002	403355'
  1401	406673'	000003	403370'
  1402	406674'	000004	400053'
  1403	406675'	000005	403376'
  1404	406676'	000006	403405'
  1405	406677'	000007	403413'
  1406	406700'	000010	403422'
  1407	406701'	000011	403431'
  1408	406702'	000012	403441'
  1409	406703'	000013	403453'
  1410	406704'	000014	400053'
  1411	406705'	000015	403463'
  1412	406706'	000016	403472'
  1413	406707'	000017	403515'
  1414	406710'	000001	400053'
  1415	406711'	000002	400053'
  1416	406712'	000003	403527'
  1417	406713'	000004	400053'
  1418	406714'	000005	400053'
  1419	406715'	000006	403537'
  1420	406716'	000007	403550'
  1421	406717'	000010	400053'
  1422	406720'	000011	400053'
  1423	406721'	000012	403566'
  1424	406722'	000013	403606'
  1425	406723'	000014	400053'
  1426	406724'	000015	403630'
  1427	406725'	000016	400053'
  1428	406726'	000001	403643'
  1429	406727'	000002	403652'
  1430	406730'	000003	403661'
  1431	406731'	000004	403671'
  1432	406732'	000005	403700'
  1433	406733'	000006	403707'
  1434	406734'	000010	403717'
  1435	406735'	000011	403747'
  1436	406736'	000012	403755'
  1437	406737'	000013	403770'
  1438	406740'	000014	404002'
  1439	406741'	000015	404014'
  1440	406742'	000016	404023'
  1441	406743'	000017	404040'
  1442	406744'	000020	404050'
  1443	406745'	000021	404060'
STBERR - Error processing  %5(304)	MACRO %53B(1156)-1 21:52 14-Mar-88 Page 7-15
STBERR	MAC	16-Feb-67 12:04		EXPANSION OF ERROR MESSAGES

  1444	406746'	000022	404105'
  1445	406747'	000023	404120'
  1446	406750'	000024	404162'
  1447	406751'	000025	404200'
  1448	406752'	000026	404222'
  1449	406753'	000027	404232'
  1450	406754'	000030	404242'
  1451	406755'	000031	404257'
  1452	406756'	000032	404270'
  1453	406757'	000033	404303'
  1454	406760'	000034	404316'
  1455	406761'	000035	404324'
  1456	406762'	000036	404350'
  1457	406763'	000037	404360'
  1458	406764'	000040	404372'
  1459	406765'	000041	404411'
  1460	406766'	000042	404427'
  1461	406767'	000043	404444'
  1462	406770'	000044	404461'
  1463	406771'	000045	404501'
  1464	406772'	000046	404521'
  1465	406773'	000047	404537'
  1466	406774'	000050	404545'
  1467	406775'	000051	404562'
  1468	406776'	000052	404602'
  1469	406777'	000053	404622'
  1470	407000'	000054	404632'
  1471	407001'	000055	404644'
  1472	407002'	000056	404656'
  1473	407003'	000057	404670'
  1474	407004'	000060	404701'
  1475	407005'	000061	404712'
  1476	407006'	000062	404723'
  1477	407007'	000063	404735'
  1478	407010'	000064	404747'
  1479	407011'	000065	404761'
  1480	407012'	000000	404773'
  1481	407013'	000001	405005'
  1482	407014'	000002	400053'
  1483	407015'	000003	400053'
  1484	407016'	000004	400053'
  1485	407017'	000005	400053'
  1486	407020'	000006	405023'
  1487	407021'	000007	400053'
  1488	407022'	000010	400053'
  1489	407023'	000011	405041'
  1490	407024'	000012	400053'
  1491	407025'	000013	405055'
  1492	407026'	000014	405064'
  1493	407027'	000015	400053'
  1494	407030'	000016	405073'
  1495	407031'	000017	400053'
  1496	407032'	000020	400053'
  1497	407033'	000021	405106'
  1498	407034'	000022	405114'
STBERR - Error processing  %5(304)	MACRO %53B(1156)-1 21:52 14-Mar-88 Page 7-16
STBERR	MAC	16-Feb-67 12:04		EXPANSION OF ERROR MESSAGES

  1499	407035'	000023	405123'
  1500	407036'	000024	405132'
  1501	407037'	000025	405140'
  1502	407040'	000026	405146'
  1503	407041'	000027	400053'
  1504	407042'	000030	405161'
  1505	407043'	000031	400053'
  1506	407044'	000032	400053'
  1507	407045'	000033	405177'
  1508	407046'	000034	400053'
  1509	407047'	000035	405223'
  1510	407050'	000036	405243'
  1511	407051'	000037	405254'
  1512	407052'	000040	405266'
  1513	407053'	000041	405277'
  1514	407054'	000042	405310'
  1515	407055'	000043	400053'
  1516	407056'	000044	400053'
  1517	407057'	000045	405321'
  1518	407060'	000046	405336'
  1519	407061'	000047	400053'
  1520	407062'	000050	405347'
  1521	407063'	000051	400053'
  1522	407064'	000052	405361'
  1523	407065'	000053	405400'
  1524	407066'	000054	405424'
  1525	407067'	000055	400053'
  1526	407070'	000056	405451'
  1527	407071'	000057	405463'
  1528	407072'	000060	400053'
  1529	407073'	000061	405524'
  1530	407074'	000062	405533'
  1531	407075'	000064	405544'
  1532	407076'	000065	405557'
  1533	407077'	000066	400053'
  1534	407100'	000067	405605'
  1535	407101'	000070	405620'
  1536	407102'	000071	405634'
  1537	407103'	000072	405647'
  1538	407104'	000073	405664'
  1539	407105'	000074	405703'
  1540	407106'	000075	405721'
  1541	407107'	000076	405732'
  1542	407110'	000077	405750'
  1543	407111'	000100	405770'
  1544	407112'	000101	406016'
  1545	407113'	000102	406033'
  1546	407114'	000103	406050'
  1547	407115'	000104	406073'
  1548	407116'	000105	406105'
  1549	407117'	000106	406130'
  1550	407120'	000107	406175'
  1551	407121'	000110	406206'
  1552	407122'	000111	406221'
  1553	407123'	000454	406232'
STBERR - Error processing  %5(304)	MACRO %53B(1156)-1 21:52 14-Mar-88 Page 7-17
STBERR	MAC	16-Feb-67 12:04		EXPANSION OF ERROR MESSAGES

  1554	407124'	000455	406257'
  1555	407125'	000456	406303'
  1556	407126'	000001	400053'
  1557	407127'	000002	400053'
  1558	407130'	000003	406327'
  1559	407131'	000004	400053'
  1560	407132'	000005	406340'
  1561	407133'	000006	406365'
  1562	407134'	000007	406400'
  1563	407135'	000010	406410'
  1564	407136'	000011	406420'
  1565					IFN FTSINGLE,	END
  1566			400000'		IFE FTSINGLE,	END	STBERR

NO ERRORS DETECTED

HI-SEG. BREAK IS 407137
PROGRAM BREAK IS 000000
CPU TIME USED 1:04:47.724

54P CORE USED
STBERR - Error processing  %5(304)	MACRO %53B(1156)-1 21:52 14-Mar-88 Page S-1
STBERR	MAC	16-Feb-67 12:04		SYMBOL TABLE

AAITXT		402120'		CPFTXT		406303'		FANTXT		402311'		LNNTXT		401274'
AAPTXT		400663'		CPUTXT		404562'		FAPTXT		400673'		LOPTXT		400233'
AAVTXT		406420'		CRSTXT		403755'		FASTXT		400736'		LPDTXT		402615'
ACITXT		400770'		CSATXT		406016'		FCETXT		402644'		LRFTXT		401332'
ACSTXT		400760'		CSTTXT		406033'		FCSTXT		400747'		LRITXT		401304'
ADBTXT		405177'		CVTTXT		405223'		FDETXT		402661'		LRLTXT		404372'
ADITXT		402164'		CWSTXT		402102'		FDITXT		401104'		LRRTXT		404411'
ADMTXT		405321'		D$PRE		635657	spd	FDSTXT		401026'		LRSTXT		401317'
ADNTXT		402350'		DDNTXT		405254'		FFPTXT		400272'		LSTR		000051	spd
ADVTXT		401057'		DELTXT		404050'		FFVTXT		401143'		LXFTXT		400462'
AEETXT		401115'		DGETXT		403300'		FICTXT		404162'		LXSTXT		400500'
AEITXT		401016'		DLPTXT		405266'		FIFTXT		406105'		MCHTXT		404040'
AFNTXT		401264'		DNNTXT		405277'		FIPTXT		400252'		MDMTXT		402725'
AGNTXT		405005'		DPLTXT		405336'		FLDTXT		405664'		MFOTXT		404023'
AIKTXT		403050'		DPRTXT		405347'		FLLTXT		402201'		MIOTXT		404120'
AIOTXT		401173'		DRPTXT		405310'		FNSTXT		402130'		MTATXT		405041'
AIRTXT		402436'		DSKTXT		403643'		FOPTXT		400311'		NAPTXT		405634'
ALGTXT		404644'		DTNTXT		405243'		FPNTXT		402471'		NBYTES		000005	spd
ALNTXT		405064'		DZRTXT		403515'		FRITXT		401505'		NEITXT		403441'
ALPTXT		406050'		E$1		406432'		FRSTXT		401543'		NELTXT		404656'
ALTTXT		404602'		E$10		406671'		FSLTXT		403630'		NFATXT		405146'
ANITXT		400056'		E$11		406710'		FSNTXT		401227'		NGETXT		403315'
ANNTXT		405140'		E$12		406726'		FSPTXT		404002'		NGNTXT		403261'
ANSTXT		400075'		E$13		407012'		FSSTXT		401661'		NKWTXT		403064'
ANYTXT		400650'		E$14		407126'		FTNTXT		401776'		NNVTXT		401345'
APFTXT		406232'		E$2		406635'		FTSING		000000	spd	NPNTXT		400423'
ARGTXT		404773'		E$3		406636'		FTSTXT		402040'		NRNTXT		406327'
ARNTXT		405161'		E$4		406642'		FTYTXT		404360'		NRPTXT		406340'
ARRTXT		402677'		E$5		406644'		FWNTXT		402541'		NSATXT		402746'
ARSTXT		401555'		E$6		406653'		GTSTXT		404105'		NSOTXT		403121'
ASCTXT		405647'		E$7		406656'		HSOTXT		403111'		NTNTXT		405132'
ASNTXT		401651'		E$8		406657'		IAOTXT		403413'		NTYTXT		400634'
ASSTXT		400517'		E$9		406666'		IAUTXT		402227'		OBPTXT		400527'
ATITXT		401717'		E.MAX		000016	spd	IDATXT		402212'		OELTXT		404270'
ATNTXT		401600'		EANTXT		405023'		IDZTXT		403405'		OEOTXT		404303'
ATPTXT		400555'		EAPTXT		404537'		IFFTXT		404350'		OIETXT		403453'
ATTTXT		405703'		EEFTXT		404444'		IFNTXT		405073'		OPDTXT		405451'
BKNTXT		405123'		EERTXT		402775'		IIETXT		403671'		OPNTXT		404316'
BPLTXT		404712'		EFATXT		404427'		ILFTXT		404324'		OPYTXT		403717'
BRKTXT		400621'		ENPTXT		400116'		IMOTXT		403431'		ORLTXT		403376'
BRXTXT		400606'		EOFTXT		403707'		INITXT		404060'		OTRTXT		403355'
BSCTXT		404761'		EOITXT		404232'		IOETXT		403700'		OUMTXT		403472'
BXNTXT		405114'		EOOTXT		404222'		IPFTXT		406257'		OUNTXT		400140'
C74TXT		404735'		ERRASC	426452	200000	spd	IRLTXT		403527'		P1		000004
C79TXT		404747'		ERREDT		000304	spd	ISOTXT		403422'		P2		000005
CCBTXT		405750'		ERRMIN		000000	spd	IUFTXT		405732'		PATTXT		401460'
CDFTXT		402056'		ERRSIX	456262	000000	spd	KWDTXT		403014'		PDDTXT		402552'
CLFTXT		402326'		ERRTAB		400035'		LANTXT		406206'		PL1TXT		404670'
CLPTXT		402405'		ERRVER		000005	spd	LDLTXT		406175'		PNPTXT		400201'
CLSTXT		403747'		ERRWHO		000000	spd	LEATXT		404501'		PNSTXT		400167'
CNNTXT		401374'		EXNTXT		400373'		LEHTXT		404521'		PORTAL	254040	000000
CNSTXT		401423'		EXPTXT		400407'		LESTXT		404461'		RDMTXT		405463'
COBTXT		404632'		F40TXT		404622'		LFNTXT		403343'		RDZTXT		403370'
CODTXT		405605'		FAITXT		400723'		LIETXT		400542'		RENTXT		403661'
COMTXT		404545'		FALTXT		400711'		LMPTXT		406221'		RFZTXT		403203'
STBERR - Error processing  %5(304)	MACRO %53B(1156)-1 21:52 14-Mar-88 Page S-2
STBERR	MAC	16-Feb-67 12:04		SYMBOL TABLE

RNITXT		401450'		TILTXT		403222'
ROPTXT		400214'		TIPTXT		402366'
RPSTXT		400150'		TMPTXT		403652'
RRNTXT		403463'		TONTXT		401253'
RUATXT		405544'		TPDTXT		402253'
RUITXT		401566'		TPFTXT		402236'
RUNTXT		404257'		TRSTXT		401517'
S1		000006		TRTTXT		406130'
S2		000007		TSITXT		401705'
S3		000010		TTCTXT		405721'
SACTXT		406073'		TTSTXT		402025'
SAITXT		404701'		TULTXT		403212'
SANTXT		405106'		TXT		400053'
SAPTXT		402272'		TYBTXT		404200'
SBITXT		402761'		UDNTXT		405055'
SCNTXT		401002'		UFOTXT		403330'
SCPTXT		402576'		UKWTXT		403040'
SDITXT		401072'		UMNTXT		400451'
SDNTXT		401040'		UPNTXT		400440'
SEGNAM		400033'	ext	VERSIO	000500	000305	spd
SFITXT		401161'		VGATXT		406400'
SIMTXT		404723'		VGPTXT		406410'
SISTXT		401215'		VVETXT		406365'
SITTXT		401626'		VWDTXT		402151'
SLCTXT		403550'		WFLTXT		405770'
SLDTXT		403566'		WNITXT		402527'
SLETXT		403537'		Z		000000
SLITXT		402515'		%%0		000017	spd
SLPTXT		403606'		%%JOBD	043100	000450	spd
SNCTXT		405400'		%%MACT	000200	000025	spd
SNFTXT		405424'		.JBERR		000042
SNSTXT		404242'		.JBVER		000137
SOITXT		401363'
SOPTXT		400342'
SPETXT		404014'
SPNTXT		400573'
SRDTXT		405361'
SRITXT		401473'
SRMTXT		401730'
SRSTXT		401531'
SSITXT		401673'
SSNTXT		401760'
SSTTXT		405533'
STACK		000001
STATXT		401610'
STBER1		400004'
STBERR		400000'	int
STNTXT		402011'
STOTXT		403075'
SWITXT		403770'
T1		000011
T2		000012
TAPTXT		405620'
TAVTXT		405557'
TBNTXT		405524'

STBERR - Error processing  %5(304)	MACRO %53B(1156)-1 21:52 14-Mar-88 Page 1
STBERR	MAC	16-Feb-67 12:04		V. Brownell/VB				15-JUN-77


Symbol cross reference

AAITXT	   830#	  1346
AAPTXT	   710#	  1289
AAVTXT	  1224#	  1564
ACITXT	   724#	  1296
ACSTXT	   722#	  1295
ADBTXT	  1116#	  1507
ADITXT	   837#	  1349
ADMTXT	  1132#	  1517
ADNTXT	   856#	  1358
ADVTXT	   734#	  1301
AEETXT	   740#	  1305
AEITXT	   728#	  1298
AFNTXT	   757#	  1312
AGNTXT	  1090#	  1481
AIKTXT	   904#	  1383
AIOTXT	   747#	  1308
AIRTXT	   863#	  1361
ALGTXT	  1070#	  1471
ALNTXT	  1098#	  1492
ALPTXT	  1186#	  1546
ALTTXT	  1064#	  1468
ANITXT	   648#	  1241
ANNTXT	  1110#	  1501
ANSTXT	   650#	  1245
ANYTXT	   708#	  1287
APFTXT	  1204#	  1553
ARGTXT	  1088#	  1480
ARNTXT	  1114#	  1504
ARRTXT	   887#	  1372
ARSTXT	   791#	  1328
ASCTXT	  1167#	  1537
ASNTXT	   802#	  1333
ASSTXT	   692#	  1276
ATITXT	   810#	  1337
ATNTXT	   795#	  1330
ATPTXT	   698#	  1280
ATTTXT	  1171#	  1539
BKNTXT	  1106#	  1499
BPLTXT	  1078#	  1475
BRKTXT	   704#	  1285
BRXTXT	   702#	  1284
BSCTXT	  1086#	  1479
BXNTXT	  1104#	  1498
C74TXT	  1082#	  1477
C79TXT	  1084#	  1478
CCBTXT	  1177#	  1542
CDFTXT	   825#	  1344
CLFTXT	   853#	  1357
CLPTXT	   860#	  1360
CLSTXT	   989#	  1435
STBERR - Error processing  %5(304)	MACRO %53B(1156)-1 21:52 14-Mar-88 Page 1
STBERR	MAC	16-Feb-67 12:04		V. Brownell/VB				15-JUN-77


Symbol cross reference

CNNTXT	   771#	  1319
CNSTXT	   774#	  1320
COBTXT	  1068#	  1470
CODTXT	  1161#	  1534
COMTXT	  1060#	  1466
CPFTXT	  1210#	  1555
CPUTXT	  1062#	  1467
CRSTXT	   991#	  1436
CSATXT	  1182#	  1544
CSTTXT	  1184#	  1545
CVTTXT	  1119#	  1509
CWSTXT	   828#	  1345
D$PRE	    95
DDNTXT	  1124#	  1511
DELTXT	  1003#	  1442
DGETXT	   927#	  1394
DLPTXT	  1126#	  1512
DNNTXT	  1128#	  1513
DPLTXT	  1134#	  1518
DPRTXT	  1136#	  1520
DRPTXT	  1130#	  1514
DSKTXT	   974#	  1428
DTNTXT	  1122#	  1510
DZRTXT	   958#	  1413
E$1	   603	  1240#
E$10	   612	  1399#
E$11	   613	  1414#
E$12	   614	  1428#
E$13	   615	  1480#
E$14	   616	  1556#
E$2	   604	  1371#
E$3	   605	  1372#
E$4	   606	  1376#
E$5	   607	  1378#
E$6	   608	  1385#
E$7	   609	  1388#
E$8	   610	  1389#
E$9	   611	  1396#
E.MAX	   579#	   585#	   600
EANTXT	  1092#	  1486
EAPTXT	  1058#	  1465
EEFTXT	  1048#	  1461
EERTXT	   897#	  1377
EFATXT	  1045#	  1460
ENPTXT	   653#	  1250
EOFTXT	   984#	  1433
EOITXT	  1021#	  1449
EOOTXT	  1019#	  1448
ERRASC	    32#
ERREDT	    25#
STBERR - Error processing  %5(304)	MACRO %53B(1156)-1 21:52 14-Mar-88 Page 1
STBERR	MAC	16-Feb-67 12:04		V. Brownell/VB				15-JUN-77


Symbol cross reference

ERRMIN	    24#
ERRSIX	    31#
ERRTAB	    88	   588#
ERRVER	    23#
ERRWHO	    26#
EXNTXT	   678#	  1268
EXPTXT	   680#	  1269
F40TXT	  1066#	  1469
FAITXT	   716#	  1292
FALTXT	   714#	  1291
FANTXT	   851#	  1356
FAPTXT	   712#	  1290
FASTXT	   718#	  1293
FCETXT	   883#	  1369
FCSTXT	   720#	  1294
FDETXT	   885#	  1370
FDITXT	   738#	  1303
FDSTXT	   730#	  1299
FFPTXT	   670#	  1265
FFVTXT	   743#	  1306
FICTXT	  1014#	  1446
FIFTXT	  1191#	  1548
FIPTXT	   668#	  1264
FLDTXT	  1169#	  1538
FLLTXT	   839#	  1350
FNSTXT	   832#	  1347
FOPTXT	   672#	  1266
FPNTXT	   866#	  1362
FRITXT	   783#	  1324
FRSTXT	   789#	  1327
FSLTXT	   972#	  1426
FSNTXT	   752#	  1310
FSPTXT	   995#	  1438
FSSTXT	   804#	  1334
FTNTXT	   817#	  1340
FTSING	    18	   105	   120	  1565	  1566
FTSTXT	   823#	  1343
FTYTXT	  1038#	  1457
FWNTXT	   873#	  1365
GTSTXT	  1008#	  1444
HSOTXT	   910#	  1386
IAOTXT	   943#	  1405
IAUTXT	   843#	  1352
IDATXT	   841#	  1351
IDZTXT	   941#	  1404
IFFTXT	  1036#	  1456
IFNTXT	  1100#	  1494
IIETXT	   980#	  1431
ILFTXT	  1033#	  1455
IMOTXT	   947#	  1407
STBERR - Error processing  %5(304)	MACRO %53B(1156)-1 21:52 14-Mar-88 Page 1
STBERR	MAC	16-Feb-67 12:04		V. Brownell/VB				15-JUN-77


Symbol cross reference

INITXT	  1005#	  1443
IOETXT	   982#	  1432
IPFTXT	  1207#	  1554
IRLTXT	   960#	  1416
ISOTXT	   945#	  1406
IUFTXT	  1175#	  1541
KWDTXT	   899#	  1378
LANTXT	  1200#	  1551
LDLTXT	  1198#	  1550
LEATXT	  1053#	  1463
LEHTXT	  1056#	  1464
LESTXT	  1050#	  1462
LFNTXT	   933#	  1398
LIETXT	   696#	  1278
LMPTXT	  1202#	  1552
LNNTXT	   759#	  1313
LOPTXT	   666#	  1263
LPDTXT	   880#	  1368
LRFTXT	   765#	  1316
LRITXT	   761#	  1314
LRLTXT	  1040#	  1458
LRRTXT	  1042#	  1459
LRSTXT	   763#	  1315
LXFTXT	   688#	  1274
LXSTXT	   690#	  1275
MCHTXT	  1001#	  1441
MDMTXT	   890#	  1373
MFOTXT	   999#	  1440
MIOTXT	  1010#	  1445
MTATXT	  1094#	  1489
NAPTXT	  1165#	  1536
NBYTES	   101
NEITXT	   949#	  1408
NELTXT	  1072#	  1472
NFATXT	  1112#	  1502
NGETXT	   929#	  1395
NGNTXT	   925#	  1393
NKWTXT	   906#	  1384
NNVTXT	   767#	  1317
NPNTXT	   682#	  1270
NRNTXT	  1213#	  1558
NRPTXT	  1215#	  1560
NSATXT	   893#	  1374
NSOTXT	   912#	  1387
NTNTXT	  1108#	  1500
NTYTXT	   706#	  1286
OBPTXT	   694#	  1277
OELTXT	  1027#	  1452
OEOTXT	  1029#	  1453
OIETXT	   951#	  1409
STBERR - Error processing  %5(304)	MACRO %53B(1156)-1 21:52 14-Mar-88 Page 1
STBERR	MAC	16-Feb-67 12:04		V. Brownell/VB				15-JUN-77


Symbol cross reference

OPDTXT	  1146#	  1526
OPNTXT	  1031#	  1454
OPYTXT	   986#	  1434
ORLTXT	   939#	  1403
OTRTXT	   935#	  1400
OUMTXT	   955#	  1412
OUNTXT	   656#	  1256
P1	    85	    86	    88	   105
P2	    91	   106	   121
PATTXT	   779#	  1322
PDDTXT	   875#	  1366
PL1TXT	  1074#	  1473
PNPTXT	   662#	  1259
PNSTXT	   660#	  1258
RDMTXT	  1148#	  1527
RDZTXT	   937#	  1401
RENTXT	   978#	  1430
RFZTXT	   917#	  1389
RNITXT	   777#	  1321
ROPTXT	   664#	  1262
RPSTXT	   658#	  1257
RRNTXT	   953#	  1411
RUATXT	  1156#	  1531
RUITXT	   793#	  1329
RUNTXT	  1025#	  1451
S1	    88	    90	    92	    94	    95	    97	   118
S2	    90	    91	    94	    96	   109	   110	   113	   114
S3	    96	    97	    98	   100	   117
SACTXT	  1189#	  1547
SAITXT	  1076#	  1474
SANTXT	  1102#	  1497
SAPTXT	   849#	  1355
SBITXT	   895#	  1375
SCNTXT	   726#	  1297
SCPTXT	   878#	  1367
SDITXT	   736#	  1302
SDNTXT	   732#	  1300
SEGNAM	   120
SFITXT	   745#	  1307
SIMTXT	  1080#	  1476
SISTXT	   750#	  1309
SITTXT	   799#	  1332
SLCTXT	   964#	  1420
SLDTXT	   966#	  1423
SLETXT	   962#	  1419
SLITXT	   869#	  1363
SLPTXT	   969#	  1424
SNCTXT	  1140#	  1523
SNFTXT	  1143#	  1524
SNSTXT	  1023#	  1450
STBERR - Error processing  %5(304)	MACRO %53B(1156)-1 21:52 14-Mar-88 Page 1
STBERR	MAC	16-Feb-67 12:04		V. Brownell/VB				15-JUN-77


Symbol cross reference

SOITXT	   769#	  1318
SOPTXT	   675#	  1267
SPETXT	   997#	  1439
SPNTXT	   700#	  1283
SRDTXT	  1138#	  1522
SRITXT	   781#	  1323
SRMTXT	   812#	  1338
SRSTXT	   787#	  1326
SSITXT	   806#	  1335
SSNTXT	   815#	  1339
SSTTXT	  1154#	  1530
STACK	   105	   106	   114	   117	   118
STATXT	   797#	  1331
STBER1	    90#	    92
STBERR	    84#	  1566
STNTXT	   819#	  1341
STOTXT	   908#	  1385
SWITXT	   993#	  1437
T1	   100	   101	   103	   108
T2	   102	   108	   110	   111	   113	   115
TAPTXT	  1163#	  1535
TAVTXT	  1158#	  1532
TBNTXT	  1152#	  1529
TILTXT	   921#	  1391
TIPTXT	   858#	  1359
TMPTXT	   976#	  1429
TONTXT	   755#	  1311
TPDTXT	   847#	  1354
TPFTXT	   845#	  1353
TRSTXT	   785#	  1325
TRTTXT	  1194#	  1549
TSITXT	   808#	  1336
TTCTXT	  1173#	  1540
TTSTXT	   821#	  1342
TULTXT	   919#	  1390
TXT	   645#	  1240	  1242	  1243	  1244	  1246	  1247	  1248	  1249	  1251	  1252	  1253	  1254	  1255
	  1260	  1261	  1271	  1279	  1281	  1282	  1288	  1304	  1371	  1376	  1380	  1381	  1382	  1388
	  1392	  1397	  1399	  1402	  1410	  1414	  1415	  1417	  1418	  1421	  1422	  1425	  1427	  1482
	  1483	  1484	  1485	  1487	  1488	  1490	  1493	  1495	  1496	  1503	  1505	  1506	  1508	  1515
	  1516	  1519	  1521	  1525	  1528	  1533	  1556	  1557	  1559
TYBTXT	  1016#	  1447
UDNTXT	  1096#	  1491
UFOTXT	   931#	  1396
UKWTXT	   902#	  1379
UMNTXT	   686#	  1273
UPNTXT	   684#	  1272
VERSIO	    42
VGATXT	  1220#	  1562
VGPTXT	  1222#	  1563
VVETXT	  1218#	  1561
STBERR - Error processing  %5(304)	MACRO %53B(1156)-1 21:52 14-Mar-88 Page 1
STBERR	MAC	16-Feb-67 12:04		V. Brownell/VB				15-JUN-77


Symbol cross reference

VWDTXT	   835#	  1348
WFLTXT	  1179#	  1543
WNITXT	   871#	  1364
Z	   120
%%0	   597#
.JBERR	    85
.JBVER	    41
STBERR - Error processing  %5(304)	MACRO %53B(1156)-1 21:52 14-Mar-88 Page 1
STBERR	MAC	16-Feb-67 12:04		V. Brownell/VB				15-JUN-77


Macro/Opdef cross reference

ENT	   594#	   603	   604	   605	   606	   607	   608	   609	   610	   611	   612	   613	   614	   615
	   616
ERRORS	   126#	   585	   648	  1240
ERRPTX	    46
ERRTTL	    45
PORTAL	    84
SHOW.	    38	    39
TITLE.	    30
$BEGIN	   581#	   585	   633#	   648	   887	   897	   899	   908	   917	   931	   935	   960	   974	  1088
	  1213	  1228#	  1240	  1371	  1372	  1376	  1378	  1385	  1388	  1389	  1396	  1399	  1414	  1428
	  1480	  1556
$END	   582#	   585	   634#	   887	   897	   899	   908	   917	   931	   935	   960	   974	  1088	  1213
	  1226	  1371	  1372	  1376	  1378	  1385	  1388	  1389	  1396	  1399	  1414	  1428	  1480	  1556
	  1565
$ERMSG	   583#	   585	   635#	   648	   650	   653	   656	   658	   660	   662	   664	   666	   668	   670
	   672	   675	   678	   680	   682	   684	   686	   688	   690	   692	   694	   696	   698	   700
	   702	   704	   706	   708	   710	   712	   714	   716	   718	   720	   722	   724	   726	   728
	   730	   732	   734	   736	   738	   740	   743	   745	   747	   750	   752	   755	   757	   759
	   761	   763	   765	   767	   769	   771	   774	   777	   779	   781	   783	   785	   787	   789
	   791	   793	   795	   797	   799	   802	   804	   806	   808	   810	   812	   815	   817	   819
	   821	   823	   825	   828	   830	   832	   835	   837	   839	   841	   843	   845	   847	   849
	   851	   853	   856	   858	   860	   863	   866	   869	   871	   873	   875	   878	   880	   883
	   885	   887	   890	   893	   895	   897	   899	   902	   904	   906	   908	   910	   912	   917
	   919	   921	   925	   927	   929	   931	   933	   935	   937	   939	   941	   943	   945	   947
	   949	   951	   953	   955	   958	   960	   962	   964	   966	   969	   972	   974	   976	   978
	   980	   982	   984	   986	   989	   991	   993	   995	   997	   999	  1001	  1003	  1005	  1008
	  1010	  1014	  1016	  1019	  1021	  1023	  1025	  1027	  1029	  1031	  1033	  1036	  1038	  1040
	  1042	  1045	  1048	  1050	  1053	  1056	  1058	  1060	  1062	  1064	  1066	  1068	  1070	  1072
	  1074	  1076	  1078	  1080	  1082	  1084	  1086	  1088	  1090	  1092	  1094	  1096	  1098	  1100
	  1102	  1104	  1106	  1108	  1110	  1112	  1114	  1116	  1119	  1122	  1124	  1126	  1128	  1130
	  1132	  1134	  1136	  1138	  1140	  1143	  1146	  1148	  1152	  1154	  1156	  1158	  1161	  1163
	  1165	  1167	  1169	  1171	  1173	  1175	  1177	  1179	  1182	  1184	  1186	  1189	  1191	  1194
	  1198	  1200	  1202	  1204	  1207	  1210	  1213	  1215	  1218	  1220	  1222	  1224	  1234#	  1240
	  1241	  1242	  1243	  1244	  1245	  1246	  1247	  1248	  1249	  1250	  1251	  1252	  1253	  1254
	  1255	  1256	  1257	  1258	  1259	  1260	  1261	  1262	  1263	  1264	  1265	  1266	  1267	  1268
	  1269	  1270	  1271	  1272	  1273	  1274	  1275	  1276	  1277	  1278	  1279	  1280	  1281	  1282
	  1283	  1284	  1285	  1286	  1287	  1288	  1289	  1290	  1291	  1292	  1293	  1294	  1295	  1296
	  1297	  1298	  1299	  1300	  1301	  1302	  1303	  1304	  1305	  1306	  1307	  1308	  1309	  1310
	  1311	  1312	  1313	  1314	  1315	  1316	  1317	  1318	  1319	  1320	  1321	  1322	  1323	  1324
	  1325	  1326	  1327	  1328	  1329	  1330	  1331	  1332	  1333	  1334	  1335	  1336	  1337	  1338
	  1339	  1340	  1341	  1342	  1343	  1344	  1345	  1346	  1347	  1348	  1349	  1350	  1351	  1352
	  1353	  1354	  1355	  1356	  1357	  1358	  1359	  1360	  1361	  1362	  1363	  1364	  1365	  1366
	  1367	  1368	  1369	  1370	  1371	  1372	  1373	  1374	  1375	  1376	  1377	  1378	  1379	  1380
	  1381	  1382	  1383	  1384	  1385	  1386	  1387	  1388	  1389	  1390	  1391	  1392	  1393	  1394
	  1395	  1396	  1397	  1398	  1399	  1400	  1401	  1402	  1403	  1404	  1405	  1406	  1407	  1408
	  1409	  1410	  1411	  1412	  1413	  1414	  1415	  1416	  1417	  1418	  1419	  1420	  1421	  1422
	  1423	  1424	  1425	  1426	  1427	  1428	  1429	  1430	  1431	  1432	  1433	  1434	  1435	  1436
	  1437	  1438	  1439	  1440	  1441	  1442	  1443	  1444	  1445	  1446	  1447	  1448	  1449	  1450
	  1451	  1452	  1453	  1454	  1455	  1456	  1457	  1458	  1459	  1460	  1461	  1462	  1463	  1464
	  1465	  1466	  1467	  1468	  1469	  1470	  1471	  1472	  1473	  1474	  1475	  1476	  1477	  1478
STBERR - Error processing  %5(304)	MACRO %53B(1156)-1 21:52 14-Mar-88 Page 1
STBERR	MAC	16-Feb-67 12:04		V. Brownell/VB				15-JUN-77


Macro/Opdef cross reference

	  1479	  1480	  1481	  1482	  1483	  1484	  1485	  1486	  1487	  1488	  1489	  1490	  1491	  1492	  1493
	  1494	  1495	  1496	  1497	  1498	  1499	  1500	  1501	  1502	  1503	  1504	  1505	  1506	  1507
	  1508	  1509	  1510	  1511	  1512	  1513	  1514	  1515	  1516	  1517	  1518	  1519	  1520	  1521
	  1522	  1523	  1524	  1525	  1526	  1527	  1528	  1529	  1530	  1531	  1532	  1533	  1534	  1535
	  1536	  1537	  1538	  1539	  1540	  1541	  1542	  1543	  1544	  1545	  1546	  1547	  1548	  1549
	  1550	  1551	  1552	  1553	  1554	  1555	  1556	  1557	  1558	  1559	  1560	  1561	  1562	  1563
	  1564@d