UUOSYM	MACRO %53B(1156)-1 13:38  8-Nov-85 Page 1
UUOSYM	MAC	11-Feb-72 22:37		UUOSYM

     1					universal UUOSYM
     2					subttl	UUOSYM
     3
     4		041000	000000		OPDEF INIT [41B8]
     5		042000	000000		OPDEF AUXCAL [42B8]
     6			000000		.AXI8C== 0
     7			000001		.AXI8S== 1
     8			000002		.AXI8B== 2
     9			000003		.AXO8==  3
    10			000004		.AXO8I== 4
    11			000005		.AXPTR== 5
    12			000006		.AXCBI== 6
    13			000007		.AXCBO== 7
    14			000010		.AXSIC== 10
    15			000011		.AXLDE== 11
    16			000012		.AXSYB== 12
    17			000013		.AXS8B== 13
    18			000014		.AXCRD== 14
    19			000015		.AXIBR== 15
    20			000016		.AXOBR== 16
    21			000017		.AXEP==  17
    22			000020		.AXHD==  20
    23			000021		.AXPA==  21
    24			000022		.AXPB==  22
    25			000023		.AXPC==  23
    26			000024		.AXHNX== 24
    27			000025		.AXNTE== 25
    28			000026		.AXTBK== 26
    29			000027		.AXWID== 27
    30			000030		.AXFC1== 30
    31			000031		.AXFC2== 31
    32			000032		.AXSFS== 32
    33			000033		.AXSI==  33
    34			000034		.AXEBM== 34
    35			000035		.AXIBW== 35
    36			000036		.AXIBS== 36
    37			000037		.AXOB==  37
    38			000040		.AXTBI== 40
    39			000041		.AXTBO== 41
    40			000042		.AXLBM== 42
    41			000043		.AXSLV== 43
    42			000044		.AXICW== 44
    43			000045		.AXICS== 45
    44			000046		.AXIWL== 46
    45			000047		.AXISL== 47
    46			000050		.AXSIL== 50
    47			000051		.AXOCI== 51
    48			000052		.AXOST== 52
    49			000053		.AXRMX== 53
    50			000054		.AXRBS== 54
    51			000055		.AXRVX== 55
    52			000056		.AXTYP== 56
    53			000057		.AXBS==  57
    54			000060		.AXHNG== 60
    55			000061		.AXPSM== 61
UUOSYM	MACRO %53B(1156)-1 13:38  8-Nov-85 Page 1-1
UUOSYM	MAC	11-Feb-72 22:37		UUOSYM

    56			000062		.AXERA== 62
    57			000063		.AXEDE== 63
    58			000064		.AXCFS== 64
    59			000065		.AXLCO== 65
    60			000066		.AXBBP== 66
    61			000067		.AXOPC== 67
    62			000070		.AXSOB== 70
    63		043000	000000		OPDEF CHANIO [43B8]
    64			000000		.CHREL== 0
    65			000001		.CHCLS== 1
    66			000002		.CHOPT== 2
    67			000003		.CHIPT== 3
    68			000004		.CHLK==  4
    69			000005		.CHENT== 5
    70			000006		.CHUSI== 6
    71			000007		.CHUSO== 7
    72			000010		.CHUGF== 10
    73			000011		.CHREN== 11
    74			000012		.CHMTA== 12
    75			000013		.CHOPN== 13
    76			000014		.CHIN==  14
    77			000015		.CHOUT== 15
    78			000016		.CHSS==  16
    79			000017		.CHGS==  17
    80			000020		.CHSZ==  20
    81			000021		.CHSO==  21
    82			000022		.CHIBF== 22
    83			000023		.CHOBF== 23
    84			000024		.CHSK==  24
    85			000025		.CHWT==  25
    86			000026		.CHMBF== 26
    87			000027		.CHFSI== 27
    88			000030		.CHFSO== 30
    89			000031		.CHPSI== 31
    90			000032		.CHPSO== 32
    91			000033		.CHUFD== 33
    92			000034		.CHMGN== 34
    93			000035		.CHMFP== 35
    94			000036		.CHDFP== 36
    95			000037		.CHXFP== 37
    96			000040		.CHCFP== 40
    97			000041		.CHMEN== 41
    98			000042		.CHVRB== 42
    99			000043		.CHSMP== 43
   100			000044		.CHFFI== 44
   101			000045		.CHFTR== 45
   102		044000	000000		OPDEF FRMOP [44B8]
   103			000000		.FOJMP== 0
   104			000001		.FOCFM== 1
   105			000002		.FORVA== 2
   106			000003		.FOWVA== 3
   107			000004		.FOSAA== 4
   108			000005		.FOHLT== 5
   109			000006		.FORPC== 6
   110			000007		.FOREP== 7
UUOSYM	MACRO %53B(1156)-1 13:38  8-Nov-85 Page 1-2
UUOSYM	MAC	11-Feb-72 22:37		UUOSYM

   111			000010		.FOVRM== 10
   112			000011		.FOVCL== 11
   113			000012		.FOCFH== 12
   114			000013		.FODFH== 13
   115			000014		.FOCLR== 14
   116			000015		.FORSI== 15
   117			000016		.FORAR== 16
   118			000017		.FORER== 17
   119			000020		.FOSMF== 20
   120			000021		.FOCHR== 21
   121			000022		.FOSVA== 22
   122			000023		.FOHST== 23
   123			000024		.FOGFT== 24
   124			000025		.FOCON== 25
   125			000026		.FOGIN== 26
   126			000027		.FOVCH== 27
   127			000030		.FOCAR== 30
   128			000031		.FOCER== 31
   129			000032		.FOGET== 32
   130			000033		.FORUN== 33
   131			000034		.FOSAV== 34
   132			000035		.FOSSA== 35
   133		047000	777641		OPDEF SETSTV [47B8 0,-137]
   134		047000	777642		OPDEF VPEEK [47B8 0,-136]
   135		047000	777643		OPDEF RETACH [47B8 0,-135]
   136		047000	777644		OPDEF EVICT [47B8 0,-134]
   137		047000	777645		OPDEF PGRSTS [47B8 0,-133]
   138		047000	777646		OPDEF PGISTS [47B8 0,-132]
   139		047000	777647		OPDEF SETABK [47B8 0,-131]
   140		047000	777650		OPDEF LOGOFF [47B8 0,-130]
   141		047000	777651		OPDEF SETALP [47B8 0,-127]
   142		047000	777652		OPDEF SETOTF [47B8 0,-126]
   143		047000	777653		OPDEF CONT [47B8 0,-125]
   144		047000	777654		OPDEF PUTROY [47B8 0,-124]
   145		047000	777655		OPDEF BLTPAG [47B8 0,-123]
   146		047000	777656		OPDEF PIDSET [47B8 0,-122]
   147		047000	777660		OPDEF BITPOK [47B8 0,-120]
   148		047000	777661		OPDEF RDHIST [47B8 0,-117]
   149		047000	777662		OPDEF SNOOP [47B8 0,-116]
   150		047000	777663		OPDEF POLPRT [47B8 0,-115]
   151		047000	777664		OPDEF CLBADD [47B8 0,-114]
   152		047000	777665		OPDEF CLBLEV [47B8 0,-113]
   153		047000	777666		OPDEF CLBINW [47B8 0,-112]
   154		047000	777667		OPDEF CLBINI [47B8 0,-111]
   155		047000	777670		OPDEF CLBRLI [47B8 0,-110]
   156		047000	777671		OPDEF CLBMEM [47B8 0,-107]
   157		047000	777672		OPDEF CLBSTS [47B8 0,-106]
   158		047000	777673		OPDEF CLBWAK [47B8 0,-105]
   159		047000	777674		OPDEF CLBHNG [47B8 0,-104]
   160		047000	777675		OPDEF VPGFIL [47B8 0,-103]
   161		047000	777676		OPDEF VDSKPT [47B8 0,-102]
   162		047000	777677		OPDEF PGFSTS [47B8 0,-101]
   163		047000	777700		OPDEF PGESTS [47B8 0,-100]
   164		047000	777701		OPDEF VFSTAT [47B8 0,-77]
   165		047000	777702		OPDEF VALPAG [47B8 0,-76]
UUOSYM	MACRO %53B(1156)-1 13:38  8-Nov-85 Page 1-3
UUOSYM	MAC	11-Feb-72 22:37		UUOSYM

   166		047000	777703		OPDEF PREREF [47B8 0,-75]
   167		047000	777704		OPDEF WSCTL [47B8 0,-74]
   168			000000		.WSRBM== 0
   169			000001		.WSRNG== 1
   170			000002		.WSSTL== 2
   171			000003		.WSRSZ== 3
   172			000004		.WSRLM== 4
   173			000005		.WSRMX== 5
   174		047000	777705		OPDEF REFBIT [47B8 0,-73]
   175			000000		.RFRBM== 0
   176			000001		.RFSBM== 1
   177			000002		.RFRNG== 2
   178		047000	777706		OPDEF PERSET [47B8 0,-72]
   179		047000	777707		OPDEF PAGSTS [47B8 0,-71]
   180		047000	777710		OPDEF VPROT [47B8 0,-70]
   181		047000	777711		OPDEF VCREAT [47B8 0,-67]
   182		047000	777712		OPDEF VCLEAR [47B8 0,-66]
   183		047000	777713		OPDEF VREMOV [47B8 0,-65]
   184		047000	777714		OPDEF VREPLC [47B8 0,-64]
   185		047000	777715		OPDEF PUTLSA [47B8 0,-63]
   186		047000	777716		OPDEF PUTSAR [47B8 0,-62]
   187		047000	777717		OPDEF CHPRJ [47B8 0,-61]
   188		047000	777720		OPDEF XCHARG [47B8 0,-60]
   189			000000		.XCSAV== 0
   190			000001		.XCRSC== 1
   191			000002		.XCRCC== 2
   192			000004		.XCSET== 4
   193			000005		.XCTRN== 5
   194			000006		.XCTCC== 6
   195		047000	777721		OPDEF SETRCF [47B8 0,-57]
   196		047000	777722		OPDEF TYMCHG [47B8 0,-56]
   197		047000	777723		OPDEF DATUUO [47B8 0,-55]
   198		047000	777732		OPDEF AUXRED [47B8 0,-46]
   199		047000	777733		OPDEF ZAPCIR [47B8 0,-45]
   200		047000	777734		OPDEF CREAUX [47B8 0,-44]
   201		047000	777735		OPDEF REDPIP [47B8 0,-43]
   202		047000	777736		OPDEF TINASS [47B8 0,-42]
   203		047000	777737		OPDEF SETTR2 [47B8 0,-41]
   204		047000	777740		OPDEF SETTR1 [47B8 0,-40]
   205		047000	777741		OPDEF SETTIM [47B8 0,-37]
   206		047000	777742		OPDEF INTASS [47B8 0,-36]
   207		047000	777743		OPDEF INTACT [47B8 0,-35]
   208		047000	777744		OPDEF INTENB [47B8 0,-34]
   209		047000	777745		OPDEF INTADR [47B8 0,-33]
   210		047000	777746		OPDEF HANG [47B8 0,-32]
   211		047000	777747		OPDEF CHKLIC [47B8 0,-31]
   212		047000	777750		OPDEF LEVDEF [47B8 0,-30]
   213		047000	777751		OPDEF MOVBUF [47B8 0,-27]
   214		047000	777752		OPDEF SETMOD [47B8 0,-26]
   215		047000	777753		OPDEF RUNSEG [47B8 0,-25]
   216		047000	777754		OPDEF SYSDVF [47B8 0,-24]
   217		047000	777755		OPDEF DISMIS [47B8 0,-23]
   218		047000	777756		OPDEF DSKCLR [47B8 0,-22]
   219		047000	777757		OPDEF SETJAL [47B8 0,-21]
   220		047000	777760		OPDEF ONEJOB [47B8 0,-20]
UUOSYM	MACRO %53B(1156)-1 13:38  8-Nov-85 Page 1-4
UUOSYM	MAC	11-Feb-72 22:37		UUOSYM

   221		047000	777761		OPDEF SETMAL [47B8 0,-17]
   222		047000	777762		OPDEF GETTMC [47B8 0,-16]
   223		047000	777764		OPDEF REDNXT [47B8 0,-14]
   224		047000	777765		OPDEF WAITCH [47B8 0,-13]
   225		047000	777766		OPDEF POKE [47B8 0,-12]
   226		047000	777767		OPDEF SETPRV [47B8 0,-11]
   227		047000	777770		OPDEF SETLIC [47B8 0,-10]
   228		047000	777771		OPDEF SETE [47B8 0,-7]
   229		047000	777772		OPDEF ATTACH [47B8 0,-6]
   230		047000	777777		OPDEF LIGHTS [47B8 0,-1]
   231		047000	000000		OPDEF RESET [47B8 0,0]
   232		047000	000001		OPDEF DDTIN [47B8 0,1]
   233		047000	000002		OPDEF SETDDT [47B8 0,2]
   234		047000	000003		OPDEF DDTOUT [47B8 0,3]
   235		047000	000004		OPDEF DEVCHR [47B8 0,4]
   236		047000	000006		OPDEF GETCHR [47B8 0,6]
   237		047000	000010		OPDEF WAIT [47B8 0,10]
   238		047000	000011		OPDEF CORE [47B8 0,11]
   239		047000	000012		OPDEF EXIT [47B8 0,12]
   240		047000	000014		OPDEF DATE [47B8 0,14]
   241		047000	000015		OPDEF LOGIN [47B8 0,15]
   242		047000	000016		OPDEF APRENB [47B8 0,16]
   243		047000	000017		OPDEF LOGOUT [47B8 0,17]
   244		047000	000020		OPDEF SWITCH [47B8 0,20]
   245		047000	000021		OPDEF REASSI [47B8 0,21]
   246		047000	000022		OPDEF TIMER [47B8 0,22]
   247		047000	000023		OPDEF MSTIME [47B8 0,23]
   248		047000	000024		OPDEF GETPPN [47B8 0,24]
   249		047000	000025		OPDEF TRPSET [47B8 0,25]
   250		047000	000027		OPDEF RUNTIM [47B8 0,27]
   251		047000	000030		OPDEF PJOB [47B8 0,30]
   252		047000	000031		OPDEF SLEEP [47B8 0,31]
   253		047000	000034		OPDEF GETLIN [47B8 0,34]
   254		047000	000035		OPDEF RUN [47B8 0,35]
   255		047000	000036		OPDEF SETUWP [47B8 0,36]
   256		047000	000037		OPDEF REMAP [47B8 0,37]
   257		047000	000040		OPDEF GETSEG [47B8 0,40]
   258		047000	000041		OPDEF GETTAB [47B8 0,41]
   259		047000	000043		OPDEF SETNAM [47B8 0,43]
   260		047000	000044		OPDEF TMPCOR [47B8 0,44]
   261			000000		.TCRFS== 0
   262			000001		.TCRRF== 1
   263			000002		.TCRDF== 2
   264			000003		.TCRWF== 3
   265			000004		.TCRRD== 4
   266			000005		.TCRDD== 5
   267		047000	000045		OPDEF DSKCHR [47B8 0,45]
   268		047000	000046		OPDEF SYSSTR [47B8 0,46]
   269		047000	000047		OPDEF JOBSTR [47B8 0,47]
   270		047000	000050		OPDEF STRUUO [47B8 0,50]
   271		047000	000051		OPDEF SYSPHY [47B8 0,51]
   272		047000	000054		OPDEF DEVSTS [47B8 0,54]
   273		047000	000055		OPDEF DEVPPN [47B8 0,55]
   274		047000	000056		OPDEF SEEK [47B8 0,56]
   275		047000	000064		OPDEF DEVNAM [47B8 0,64]
UUOSYM	MACRO %53B(1156)-1 13:38  8-Nov-85 Page 1-5
UUOSYM	MAC	11-Feb-72 22:37		UUOSYM

   276		047000	000066		OPDEF GOBSTR [47B8 0,66]
   277		047000	000072		OPDEF HIBER [47B8 0,72]
   278		047000	000073		OPDEF WAKE [47B8 0,73]
   279		047000	000074		OPDEF CHGPPN [47B8 0,74]
   280		047000	000075		OPDEF SETUUO [47B8 0,75]
   281			000000		.STTYO== 0
   282			000001		.STSTA== 1
   283			000002		.STFAR== 2
   284			000003		.STTIM== 3
   285			000004		.STDAT== 4
   286			000006		.STWAT== 6
   287			000011		.STBST== 11
   288			000012		.STRES== 12
   289		047000	000101		OPDEF DEVSIZ [47B8 0,101]
   290		050000	000000		OPDEF OPEN [50B8]
   291		051000	000000		OPDEF TTCALL [51B8]
   292		051000	000000		OPDEF INCHRW [51B8 0,0]
   293		051040	000000		OPDEF OUTCHR [51B8 1,0]
   294		051100	000000		OPDEF INCHRS [51B8 2,0]
   295		051140	000000		OPDEF OUTSTR [51B8 3,0]
   296		051200	000000		OPDEF INCHWL [51B8 4,0]
   297		051240	000000		OPDEF INCHSL [51B8 5,0]
   298		051300	000000		OPDEF GETLCH [51B8 6,0]
   299		051340	000000		OPDEF SETLCH [51B8 7,0]
   300		051400	000000		OPDEF RESCAN [51B8 10,0]
   301		051440	000000		OPDEF CLRBFI [51B8 11,0]
   302		051500	000000		OPDEF CLRBFO [51B8 12,0]
   303		051540	000000		OPDEF SKPINC [51B8 13,0]
   304		051600	000000		OPDEF SKPINL [51B8 14,0]
   305		051640	000000		OPDEF IONEOU [51B8 15,0]
   306		051700	000000		OPDEF OUTCHI [51B8 16,0]
   307		051740	000000		OPDEF OUTPTR [51B8 17,0]
   308		055000	000000		OPDEF RENAME [55B8]
   309		056000	000000		OPDEF IN [56B8]
   310		057000	000000		OPDEF OUT [57B8]
   311		060000	000000		OPDEF SETSTS [60B8]
   312		061000	000000		OPDEF STATO [61B8]
   313		062000	000000		OPDEF GETSTS [62B8]
   314		063000	000000		OPDEF STATZ [63B8]
   315		064000	000000		OPDEF INBUF [64B8]
   316		065000	000000		OPDEF OUTBUF [65B8]
   317		066000	000000		OPDEF INPUT [66B8]
   318		067000	000000		OPDEF OUTPUT [67B8]
   319		070000	000000		OPDEF CLOSE [70B8]
   320		071000	000000		OPDEF RELEAS [71B8]
   321		072000	000000		OPDEF MTAPE [72B8]
   322		073000	000000		OPDEF UGETF [73B8]
   323		074000	000000		OPDEF USETI [74B8]
   324		075000	000000		OPDEF USETO [75B8]
   325		076000	000000		OPDEF LOOKUP [76B8]
   326		077000	000000		OPDEF ENTER [77B8]
   327		400000	000000		JP.1UU==1B0
   328		200000	000000		JP.NAT==1B1
   329		100000	000000		JP.DST==1B2
   330		076000	000000		JP.ZON==37B7
UUOSYM	MACRO %53B(1156)-1 13:38  8-Nov-85 Page 1-6
UUOSYM	MAC	11-Feb-72 22:37		UUOSYM

   331		017600	000000		JP.2UU==77B10
   332		000177	000000		JP.COR==177B17
   333			400000		JP.EXO==1B18
   334			300000		JP.DOP==3B20
   335			000000		.JPLOG==0
   336			000001		.JPDET==1
   337			000002		.JPCON==2
   338			000003		.JPDTO==3
   339			040000		JP.TYM==1B21
   340			020000		JP.ASV==1B22
   341			010000		JP.MAL==1B23
   342			004000		JP.XOG==1B24
   343			002000		JP.3UU==1B25
   344			001000		JP.RCM==1B26
   345			000600		JP.MOD==3B28
   346			000000		.JPMPD==0
   347			000001		.JPMXE==1
   348			000002		.JPMXJ==2
   349			000003		.JPMSU==3
   350			000177		JP.CRM==177B35
   351		400000	000000		LC.WC== 1B0
   352		200000	000000		LC.RC== 1B1
   353		100000	000000		LC.OP== 1B2
   354		040000	000000		LC.SY== 1B3
   355		020000	000000		LC.GD== 1B4
   356		010000	000000		LC.TD== 1B5
   357		004000	000000		LC.ST== 1B6
   358		002000	000000		LC.HF== 1B7
   359		001000	000000		LC.JL== 1B8
   360		000400	000000		LC.AC== 1B9
   361		000200	000000		LC.XC== 1B10
   362		000014	000000		LC.RPS==3B15
   363			000001		.LCRP== 1
   364			000002		.LCRF== 2
   365			000003		.LCRA== 3
   366		000003	000000		LC.WPS==3B17
   367			000001		.LCWP== 1
   368			000002		.LCWF== 2
   369			000003		.LCWA== 3
   370		400000	000000		JB.RUN==1B0
   371		200000	000000		JB.CMW==1B1
   372		100000	000000		JB.MRQ==1B2
   373		040000	000000		JB.JNA==1B3
   374		020000	000000		JB.JER==1B4
   375		000400	000000		JB.ESC==1B9
   376		000370	000000		JB.WSC==37B14
   377		000004	000000		JB.LOG==1B15
   378		000002	000000		JB.JRQ==1B16
   379		000001	000000		JB.JAC==1B17
   380			200000		JB.WAK==1B19
   381			100000		JB.JA2==1B20
   382			040000		JB.UTR==1B21
   383			020000		JB.DCN==1B22
   384			004000		JB.PRF==1B24
   385			002000		JB.SIP==1B25
UUOSYM	MACRO %53B(1156)-1 13:38  8-Nov-85 Page 1-7
UUOSYM	MAC	11-Feb-72 22:37		UUOSYM

   386			001000		JB.SCP==1B26
   387			200000		ST.WDY==1B19
   388			100000		ST.WRN==1B20
   389			040000		ST.WWT==1B21
   390			020000		ST.WDR==1B22
   391			010000		ST.WDW==1B23
   392			000000		FD.ABS==0B20
   393			100000		FD.FAM==1B20
   394			000000		FM.CHL==0B23
   395			010000		FM.PAR==1B23
   396			200000		FD.OTF==2B20
   397			300000		FD.CRH==3B20
   398			000000		CH.FRM==0B23
   399			010000		CH.PRO==1B23
   400			020000		CH.LIC==2B23
   401			700000		FD.SLF==7B20
   402			000000		.ARRDM==0
   403			000001		.ARCHM==1
   404			000002		.ARRAC==2
   405			000003		.ARWAC==3
   406			000004		.ARVAR==4
   407			000005		.ARVAW==5
   408			000006		.ARHLT==6
   409			000007		.ARSTP==7
   410			000010		.ARHNG==10
   411			000011		.ARCLR==11
   412			000012		.ARSVA==12
   413			000013		.ARSAA==13
   414			000014		.ARRVA==14
   415			000015		.ARRAA==15
   416			000016		.ARRUN==16
   417			000017		.ARRDS==17
   418			000020		.ARRAD==20
   419			000021		.ARRFI==21
   420			000022		.ARRPI==22
   421			000023		.ARSMF==23
   422			000024		.ARWAK==24
   423			000025		.ARATT==25
   424			000026		.ARDET==26
   425			000027		.ARTKP==27
   426			000030		.ARGVP==30
   427			000031		.ARGVC==31
   428			000001		FENOH%==1
   429			000002		FEBDI%==2
   430			000003		FENRT%==3
   431			000004		FEBDF%==4
   432			000005		FENLC%==5
   433			000006		FEUND%==6
   434			000007		FENCH%==7
   435			000010		FECLP%==10
   436			000011		FEBAR%==11
   437			000012		FENPR%==12
   438			000013		FEBFD%==13
   439			000014		FEBDH%==14
   440			000015		FEBFN%==15
UUOSYM	MACRO %53B(1156)-1 13:38  8-Nov-85 Page 1-8
UUOSYM	MAC	11-Feb-72 22:37		UUOSYM

   441			000016		FEADB%==16
   442			000017		FEIOE%==17
   443			000020		FEALR%==20
   444			000021		FEALH%==21
   445			000022		FECSJ%==22
   446			000023		FEFHE%==23
   447			000024		FEFHU%==24
   448			000025		FENFH%==25
   449			00002BCN%==26
   450			000027		FEBTN%==27
   451			000030		FEBHT%==30
   452			000031		FECCH%==31
   453			000032		FEBSV%==32
   454			000033		FECII%==33
   455			000034		FECCF%==34
   456			000035		FECFJ%==35
   457			000036		FEREM%==36
   458			000000		CF.NRD==0
   459			000001		CF.FCE==1
   460			000002		CF.BAL==2
   461			000003		CF.DDB==3
   462		777777	777777		SV.NSA==-1
   463		777777	777776		SV.CCL==-2
   464		777777	777775		SV.REN==-3
   465		777777	777774		SV.DDT==-4
   466		777777	777773		SV.CON==-5
   467			000000		HC.MEM==0
   468			000000		HT.PCO==0
   469			000001		HT.IMR==1
   470			000002		HT.WRV==2
   471			000003		HT.ADC==3
   472			000004		HT.IMU==4
   473			000005		HT.IIA==5
   474			000006		HT.ABK==6
   475			000007		HT.POV==7
   476			000001		HC.SYS==1
   477			000000		HT.PIO==0
   478			000001		HT.DFL==1
   479			000002		HT.PHE==2
   480			000003		HT.TPL==3
   481			000004		HT.CIO==4
   482			000005		HT.PAR==5
   483			000002		HC.DEV==2
   484			000000		HT.OCI==0
   485			000001		HT.ICO==1
   486			000002		HT.IDM==2
   487			000003		HT.IUC==3
   488			000004		HT.HDV==4
   489			000005		HT.DOP==5
   490			000003		HC.ILL==3
   491			000000		HT.ILU==0
   492			000001		HT.UUE==1
   493			000002		HT.ILI==2
   494			000003		HT.HLT==3
   495			000004		HC.EXI==4
UUOSYM	MACRO %53B(1156)-1 13:38  8-Nov-85 Page 1-9
UUOSYM	MAC	11-Feb-72 22:37		UUOSYM

   496			000000		HT.EXI==0
   497			000001		HT.EX1==1
   498			000002		HT.FEX==2
   499			000003		HT.TLE==3
   500			000004		HT.JSU==4
   501			000005		HT.JSV==5
   502			000006		HT.FCL==6
   503			000005		HC.RUN==5
   504			000000		HT.TRE==0
   505			000001		HT.PGN==1
   506			000002		HT.DNA==2
   507			000003		HT.FNF==3
   508			000004		HT.NSF==4
   509			000005		HT.EUF==5
   510			000006		HT.CAN==6
   511			000007		HT.MHB==7
   512			000010		HT.RMF==10
   513			000011		HT.MGF==11
   514			000012		HT.NSA==12
   515			000000		.SREXO==0
   516			000001		.SRLIC==1
   517			000002		.SRALL==2
   518			000003		.SRRCL==3
   519			000004		.SRSYL==4
   520			000005		.SRTYM==5
   521			000006		.SRAUN==6
   522			000007		.SRJLL==7
   523			000010		.SRWCL==10
   524			000040		.JBUUO==40
   525			000041		.JB41== 41
   526			000044		.JBREL==44
   527			000045		.JBBLT==45
   528			000066		.JBMUU==66
   529			000072		.JBHCU==72
   530			000074		.JBDDT==74
   531			000075		.JBJDA==75
   532			000102		.JBCNK==102
   533			000106		.JBCN6==106
   534			000114		.JBPFI==114
   535			000115		.JBHRL==115
   536			000116		.JBSYM==116
   537			000117		.JBUSY==117
   538			000120		.JBSA== 120
   539			000121		.JBFF== 121
   540			000124		.JBREN==124
   541			000125		.JBAPR==125
   542			000126		.JBCNI==126
   543			000127		.JBTPC==127
   544			000130		.JBOPC==130
   545			000131		.JBCHN==131
   546			000133		.JBCOR==133
   547			000136		.JBCST==136
   548			000137		.JBVER==137
   549			000140		.JBDA== 140
   550			000000		.JBHSA==0
UUOSYM	MACRO %53B(1156)-1 13:38  8-Nov-85 Page 1-10
UUOSYM	MAC	11-Feb-72 22:37		UUOSYM

   551			000001		.JBH41==1
   552			000002		.JBHCR==2
   553			000003		.JBHRN==3
   554			000005		.JBHNM==5
   555			000006		.JBHSM==6
   556			000007		.JBHGA==7
   557			000010		.JBHDA==10
   558		002000	000000		.PRRO== 1B7
   559		004000	000000		.PRCW== 2B7
   560		006000	000000		.PRRW== 3B7
   561			000000		CRBCN%==0
   562			000001		CRBVP%==1
   563			000002		CRBPR%==2
   564			000003		CREXV%==3
   565			000005		CRLIM%==5
   566			000006		CRDFL%==6
   567			000000		PTBCN%==0
   568			000001		PTBVP%==1
   569			000002		PTBPR%==2
   570			000004		PTNVP%==4
   571			000005		PTPRF%==5
   572			000000		WSBCN%==0
   573			000001		WSBVP%==1
   574			000004		WSNVP%==4
   575			000005		WSBFN%==5
   576			000006		WSCTL%==6
   577			000007		WSEWL%==7
   578			000010		WSLGM%==10
   579			000011		WSLL3%==11
   580			000001		PRBVP%==1
   581			000004		PRNVP%==4
   582			000005		PRNIW%==5
   583			000000		BUCBB%==0
   584			000001		BUNWP%==1
   585			000002		BUCLP%==2
   586			000000		PEBCN%==0
   587			000001		PEBVP%==1
   588			000004		PENVP%==4
   589		400000	000000		EI.VAL==1B0
   590		000010	000000		EI.PAR==1B14
   591		000004	000000		EI.OER==1B15
   592		000002	000000		EI.DER==1B16
   593		000001	000000		EI.DTE==1B17
   594			000000		VLBCN%==0
   595			000001		VLBVP%==1
   596			000004		VLNVP%==4
   597			000005		VLIOE%==5
   598		400000	000000		FI.VAL==1B0
   599		200000	000000		FI.SAL==1B1
   600			777000		FI.VPN==777B26
   601		777777	000000		II.ADR==777777B17
   602			777777		II.PFW==777777B35
   603		400000	000000		RI.VAL==1B0
   604			777777		RI.ADR==777777B35
   605			000000		RFBCN%==0
UUOSYM	MACRO %53B(1156)-1 13:38  8-Nov-85 Page 1-11
UUOSYM	MAC	11-Feb-72 22:37		UUOSYM

   606			000001		RFBVP%==1
   607			000005		RFBFN%==5
   608		400000	000000		PS.UWS==1B0
   609		200000	000000		PS.REF==1B1
   610		100000	000000		PS.MXW==1B2
   611		040000	000000		PS.SUP==1B3
   612		030000	000000		PS.DDE==3B5
   613			000010		PS.FIL==1B32
   614			000007		PS.CPR==7B35
   615			000001		PSBVP%==1
   616			000001		PFBVP%==1
   617			000004		PFNEX%==4
   618			000006		PFNFP%==6
   619			000000		FLCTG%==0
   620			000001		FLDVR%==1
   621			000002		FLCPU%==2
   622			000004		FLVEX%==4
   623			000004		FLNEX%==4
   624			000005		FLSVR%==5
   625			000006		FLPHP%==6
   626			000007		FLFPZ%==7
   627			000010		FLCOR%==10
   628			000011		FLRBE%==11
   629			000012		FLBDS%==12
   630			000013		FLCPL%==13
   631			000014		FLLKC%==14
   632			000016		FLHOL%==16
   633			000016		FLNHL%==16
   634			000017		FLSNM%==17
   635			000020		FLOPE%==20
   636			000021		FLSAM%==21
   637			000022		FLNML%==22
   638			000023		FLNOF%==23
   639			000024		FLNWT%==24
   640			000025		FLAQA%==25
   641			000026		FLCTL%==26
   642			000027		FLIPE%==27
   643			000030		FLNTF%==30
   644			000031		FLNIM%==31
   645			000032		FLLGE%==32
   646			000033		FLNSP%==33
   647			400000		IO.IMP==1B18
   648			200000		IO.DER==1B19
   649			100000		IO.DTE==1B20
   650			040000		IO.BKT==1B21
   651			740000		IO.ERR==17B21
   652			020000		IO.EOF==1B22
   653			010000		IO.ACT==1B23
   654			001000		IO.EVP==1B26
   655			001000		IO.BK2==1B26
   656			000400		IO.NEE==1B27
   657			000200		IO.NEC==1B28
   658			000600		IO.DEN==3B28
   659			000100		IO.FCS==1B29
   660			000040		IO.SYN==1B30
UUOSYM	MACRO %53B(1156)-1 13:38  8-Nov-85 Page 1-12
UUOSYM	MAC	11-Feb-72 22:37		UUOSYM

   661			000020		IO.UWC==1B31
   662			000077		IO.MOD==77B35
   663			000000		.IOASC==0
   664			000001		.IOASL==1
   665			000002		.IOKAT==2
   666			000010		.IOIMG==10
   667			000013		.IOIBN==13
   668			000014		.IOBIN==14
   669			000016		.IODPR==16
   670			000017		.IODMP==17
   671		200000	000000		DV.DSK==1B1
   672		100000	000000		DV.CDR==1B2
   673		040000	000000		DV.LPT==1B3
   674		020000	000000		DV.TTA==1B4
   675		010000	000000		DV.NZP==1B5
   676		004000	000000		DV.1UU==1B6
   677		002000	000000		DV.2UU==1B7
   678		001000	000000		DV.3UU==1B8
   679		000400	000000		DV.PTP==1B9
   680		000200	000000		DV.PTR==1B10
   681		000100	000000		DV.4UU==1B11
   682		000040	000000		DV.AVL==1B12
   683		000020	000000		DV.MTA==1B13
   684		000010	000000		DV.TTY==1B14
   685		000004	000000		DV.DIR==1B15
   686		000002	000000		DV.IN== 1B16
   687		000001	000000		DV.OUT==1B17
   688			400000		DV.ASG==1B18
   689			200000		DV.ASP==1B19
   690			100000		DV.DMP==1B20
   691			040000		DV.DPR==1B21
   692			010000		DV.BIN==1B23
   693			004000		DV.IBN==1B24
   694			000400		DV.IMG==1B27
   695			000004		DV.KAT==1B33
   696			000002		DV.ASL==1B34
   697			000001		DV.ASC==1B35
   698			000000		.SDDDN==0
   699			000001		.SDDDA==1
   700			000002		.SDUNI==2
   701			000003		.SDSTR==3
   702			000004		.SDFTA==4
   703			000007		FP.NO== 7
   704			000006		FP.LK== 6
   705			000005		FP.RUN==5
   706			000004		FP.RD== 4
   707			000003		FP.AP== 3
   708			000002		FP.UPD==2
   709			000001		FP.CP== 1
   710			000000		FP.ALL==0
   711			000004		DP.LK== 4
   712			000002		DP.CR== 2
   713			000001		DP.RD== 1
   714			000001		.RBPPN==1
   715			000002		.RBNAM==2
UUOSYM	MACRO %53B(1156)-1 13:38  8-Nov-85 Page 1-13
UUOSYM	MAC	11-Feb-72 22:37		UUOSYM

   716			000003		.RBEXT==3
   717			000004		.RBPRV==4
   718			000005		.RBSIZ==5
   719			000006		.RBVER==6
   720			000007		.RBFUT==7
   721			000010		.RBEST==10
   722			000011		.RBALC==11
   723			000012		.RBPOS==12
   724			000013		.RBFT1==13
   725			000014		.RBLIC==14
   726			000015		.RBMTA==15
   727			000016		.RBDEV==16
   728			000017		.RBSTS==17
   729			000020		.RBELB==20
   730			000021		.RBXT1==21
   731			000022		.RBQTF==22
   732			000023		.RBQTO==23
   733			000024		.RBMXA==24
   734			000025		.RBUSD==25
   735			000026		.RBAUT==26
   736			000027		.RBUNM==27
   737			000031		.RBTRU==31
   738			000032		.RBXT2==32
   739			000033		.RBALP==33
   740			000034		.RBSNM==34
   741			000035		.RBPJC==35
   742			000040		.RBPID==40
   743			000000		.ERFNF==0
   744			000001		.ERIPP==1
   745			000002		.ERPRT==2
   746			000003		.ERFBM==3
   747			000004		.ERAEF==4
   748			000005		.ERISU==5
   749			000006		.ERTRN==6
   750			000007		.ERNSF==7
   751			000010		.ERNEC==10
   752			000011		.ERDNA==11
   753			000012		.ERNSD==12
   754			000013		.ERILU==13
   755			000014		.ERNRM==14
   756			000015		.ERWLK==15
   757			000016		.ERNET==16
   758			000017		.ERPOA==17
   759			000020		.ERBNF==20
   760			000021		.ERNTR==21
   761			000022		.ERLKM==22
   762		200000	000000		DC.OFL==1B1
   763		100000	000000		DC.HWP==1B2
   764		004000	000000		DC.USF==1B6
   765		000400	000000		DC.MSB==1B9
   766		000007	000000		DC.TYP==7B17
   767			000000		.DCTDS==0
   768			000002		.DCTFS==2
   769			000003		.DCTUF==3
   770			000004		.DCTCN==4
UUOSYM	MACRO %53B(1156)-1 13:38  8-Nov-85 Page 1-14
UUOSYM	MAC	11-Feb-72 22:37		UUOSYM

   771			000005		.DCTCC==5
   772			000006		.DCTPU==6
   773			700000		DC.DCN==7B20
   774			077000		DC.CNT==77B26
   775			000000		.DCCDR==0
   776			000001		.DCCFH==1
   777			000002		.DCCDP==2
   778			000003		.DCCMD==3
   779			000004		.DCCBP==4
   780			000700		DC.CNN==7B29
   781			000060		DC.UNT==3B31
   782			000000		.DCUBU==0
   783			000001		.DCBBR==1
   784			000000		.DCUD1==0
   785			000001		.DCUD2==1
   786			000000		.DCUDP==0
   787			000001		.DCUSP==1
   788			000000		.DCUM1==0
   789			000001		.DCUM2==1
   790			000007		DC.UNN==7B35
   791			000003		DFGIF%==3
   792			000006		DFGPP%==6
   793			000010		DFGNP%==10
   794			000012		DFGLN%==12
   795			000000		.FSSRC==0
   796			000001		.FSDSL==1
   797			000002		.FSDEF==2
   798			000003		.FSRDF==3
   799			000004		.FSLOK==4
   800			000005		.FSREM==5
   801			000006		.FSULK==6
   802			000007		.FSUCL==7
   803			000010		.FSETS==10
   804			000011		.FSRRL==11
   805			000000		FSILF%==0
   806			000001		FSSNF%==1
   807			000002		FSSSA%==2
   808			000003		FSILE%==3
   809			000004		FSTME%==4
   810			000005		FSUNA%==5
   811			000006		FSPPN%==6
   812			000007		FSMCN%==7
   813			000010		FSNPV%==10
   814			000011		FSFSA%==11
   815			000012		FSILL%==12
   816			000013		FSUNC%==13
   817			000014		FSNFS%==14
   818			000015		FSNCS%==15
   819			000016		FSUNF%==16
   820			000017		FSRSL%==17
   821		000001	000000		CX.NZP==1B17
   822			000001		RTSAC%==1
   823			000002		RTSNX%==2
   824			000003		RTTAC%==3
   825			000004		RTTNX%==4
UUOSYM	MACRO %53B(1156)-1 13:38  8-Nov-85 Page 1-15
UUOSYM	MAC	11-Feb-72 22:37		UUOSYM

   826			000005		RTSNA%==5
   827			000006		RTTAT%==6
   828			000007		RTSCP%==7
   829			000010		RTAUX%==10
   830			000011		RTNRM%==11
   831			000000		CXSUP%==0
   832			000001		CX2AX%==1
   833			000002		CXLOG%==2
   834			000003		CXDCB%==3
   835			000004		CXNRR%==4
   836			000005		CXNRL%==5
   837			000006		CXNCH%==6
   838			000007		CXERR%==7
   839			000001		CXSFE%==1
   840			000002		CXSBU%==2
   841			000003		CXSBM%==3
   842			000004		CXSHU%==4
   843			000005		CXSDF%==5
   844			000006		CXSTO%==6
   845			000007		CXSAB%==7
   846			000010		CXSIS%==10
   847			000011		CXSLQ%==11
   848		400000	000000		LXRESC==1B0
   849		200000	000000		LXROBS==1B1
   850		100000	000000		LXRPSS==1B2
   851		040000	000000		LXRICL==1B3
   852		020000	000000		LXROCL==1B4
   853		010000	000000		LXRCHR==1B5
   854		004000	000000		LXRBRK==1B6
   855		002000	000000		LXRYBS==1B7
   856		000200	000000		LXRGOB==1B10
   857		100000	000000		LC.ECS==1B2
   858		040000	000000		LC.PSS==1B3
   859		020000	000000		LC.OBS==1B4
   860		010000	000000		LC.HDX==1B5
   861		004000	000000		LC.ESC==1B6
   862		002000	000000		LC.CRD==1B7
   863		001000	000000		LC.DFR==1B8
   864		000400	000000		LC.NOP==1B9
   865		000200	000000		LC.NFC==1B10
   866		000100	000000		LC.BRK==1B11
   867		000040	000000		LC.AXC==1B12
   868		000020	000000		LC.NCM==1B13
   869		000010	000000		LC.HHT==1B14
   870		000004	000000		LC.LCP==1B15
   871		000002	000000		LC.PTM==1B16
   872		000001	000000		LC.HFF==1B17
   873			777777		LC.PNO==777777B35
   874			000000		.MTWAT==0
   875			000001		.MTREW==1
   876			000003		.MTEOF==3
   877			000006		.MTSKR==6
   878			000007		.MTBSR==7
   879			000010		.MTEOT==10
   880			000011		.MTUNL==11
UUOSYM	MACRO %53B(1156)-1 13:38  8-Nov-85 Page 1-16
UUOSYM	MAC	11-Feb-72 22:37		UUOSYM

   881			000013		.MTBLK==13
   882			000016		.MTSKF==16
   883			000017		.MTBSF==17
   884			000100		.MTDEC==100
   885			000101		.MTIC0==101
   886			000102		.MTIC1==102
   887			000103		.MTIC2==103
   888			000104		.MTIC3==104
   889			000201		.MT7E0==201
   890			000202		.MT7E1==202
   891			000203		.MT7E2==203
   892			000204		.MT7E3==204
   893			000000		.UGCNT==0
   894			000001		.UGSEN==1
   895			000002		.UGSTS==2
   896		400000	000000		MT.PRO==1B0
   897		300000	000000		MT.TAB==3B2
   898		040000	000000		MT.LDP==1B3
   899		020000	000000		MT.EOT==1B4
   900		010000	000000		MT.IBM==1B5
   901		000040	000000		MT.7TR==1B12
   902		000020	000000		MT6250==1B13
   903		000010	000000		MT1600==1B14
   904		000004	000000		MT800== 1B15
   905		000002	000000		MT556== 1B16
   906		000001	000000		MT200== 1B17
   907			400000		AP.REN==1B18
   908			200000		CN.POV==1B19
   909			200000		AP.POV==1B19
   910			400000		CN.UUO==1B18
   911			100000		AP.UUO==1B20
   912			004000		CN.BRK==1B24
   913			040000		AP.BRK==1B21
   914			020000		CN.ILM==1B22
   915			020000		AP.ILM==1B22
   916			040000		CN.CHR==1B21
   917			004000		AP.CHR==1B24
   918		000001	000000		CN.ESC==1B17
   919			002000		AP.ESC==1B25
   920			001000		CN.CLK==1B26
   921			001000		AP.CLK==1B26
   922			000100		CN.FOV==1B29
   923			000100		AP.FOV==1B29
   924		000002	000000		CN.HNG==1B16
   925			000040		AP.HNG==1B30
   926			000010		CN.AOV==1B32
   927			000010		AP.AOV==1B32
   928			000000		.IAESC==0
   929			000001		.IACHR==1
   930			000002		.IABRK==2
   931			000003		.IAIOW==3
   932			000004		.IAROM==4
   933			000005		.IALOS==5
   934			000006		.IAORG==6
   935			000007		.IAZAP==7
UUOSYM	MACRO %53B(1156)-1 13:38  8-Nov-85 Page 1-17
UUOSYM	MAC	11-Feb-72 22:37		UUOSYM

   936			000010		.IAPSS==10
   937			000011		.IAYEL==11
   938			000012		.IAGOB==12
   939			000000		.IAUUO==0
   940			000001		.IACLK==1
   941			000002		.IAILM==2
   942			000003		.IAHNG==3
   943			000004		.IATIM==4
   944			000005		.IADEV==5
   945			000006		.IAWAK==6
   946			000007		.IAFEL==7
   947			000010		.IAFLL==10
   948			000011		.IAREF==11
   949			000012		.IAERR==12
   950			000013		.IANTQ==13
   951			000014		.IAFEX==14
   952			000001		IRBCH%==1
   953			000005		IRBDR%==5
   954			000006		IRBIC%==6
   955			000007		IRNIS%==7
   956			000001		CB.NML==1
   957			000002		CB.EVI==2
   958			000001		CBVPR%==1
   959			000002		CBNEX%==2
   960			000003		CBINC%==3
   961			000004		CBIDO%==4
   962			000005		CBNIC%==5
   963			000006		CBVPM%==6
   964			000007		CBHIL%==7
   965			000010		CBAIL%==10
   966			000011		CBNIL%==11
   967			000012		CBCNT%==12
   968			000013		CBNFC%==13
   969			000014		CBJNI%==14
   970		777777	777724		.GTFTR==-54
   971		777777	777725		.GTUID==-53
   972		777777	777726		.GTPNO==-52
   973		777777	777727		.GTSPW==-51
   974		777777	777730		.GTPWS==-50
   975		777777	777731		.GTMPC==-47
   976		777777	777732		.GTMCY==-46
   977		777777	777733		.GTKCM==-45
   978		777777	777734		.GTTRU==-44
   979		777777	777735		.GTTR2==-43
   980		777777	777736		.GTMC2==-42
   981		777777	777737		.GTBIO==-41
   982		777777	777740		.GTBET==-40
   983		777777	777741		.GTSOK==-37
   984		777777	777742		.GTLNK==-36
   985		777777	777745		.GTERN==-33
   986		777777	777746		.GTLPS==-32
   987		777777	777747		.GTMOD==-31
   988		777777	777750		.GTLIM==-30
   989		777777	777751		.GTLIN==-27
   990		777777	777752		.GTJOB==-26
UUOSYM	MACRO %53B(1156)-1 13:38  8-Nov-85 Page 1-18
UUOSYM	MAC	11-Feb-72 22:37		UUOSYM

   991		777777	777753		.GTFPN==-25
   992		777777	777754		.GTLOG==-24
   993		777777	777755		.GTAUN==-23
   994		777777	777756		.GTUNM==-22
   995		777777	777757		.GTUN1==-21
   996		777777	777760		.GTLIC==-20
   997		777777	777763		.GTMC1==-15
   998		777777	777764		.GTKM2==-14
   999		777777	777765		.GTBCS==-13
  1000		777777	777766		.GTCNK==-12
  1001		777777	777767		.GTELP==-11
  1002		777777	777770		.GTCOT==-10
  1003		777777	777771		.GTCIN==-7
  1004		777777	777772		.GTSOT==-6
  1005		777777	777773		.GTSIN==-5
  1006		777777	777774		.GTSRN==-4
  1007		777777	777775		.GTSLK==-3
  1008		777777	777776		.GTDLK==-2
  1009			000000		.GTSTS==0
  1010			000002		.GTPPN==2
  1011			000003		.GTNAM==3
  1012			000004		.GTTR1==4
  1013			000005		.GTKM1==5
  1014			000006		.GTPRV==6
  1015			000007		.GTSWP==7
  1016			000010		.GTTTY==10
  1017			000011		.GTCNF==11
  1018			000012		.GTNSW==12
  1019			000015		.GTODP==15
  1020			000016		.GTLVD==16
  1021			000017		.GTRCT==17
  1022			000020		.GTWCT==20
  1023			000023		.GTSLF==23
  1024			000025		.GTWSC==25
  1025			000000		.CNFG0==0
  1026			000005		.CNDT0==5
  1027			000007		.CNTAP==7
  1028			000010		.CNTIM==10
  1029			000011		.CNDAT==11
  1030			000012		.CNSIZ==12
  1031			000013		.CNOPR==13
  1032			000014		.CNDEV==14
  1033			000015		.CNNJB==15
  1034			000017		.CNSTS==17
  1035			000020		.CNSER==20
  1036			000021		.CNNSM==21
  1037			000022		.CNFRE==22
  1038			000023		.CNLOC==23
  1039			000024		.CNPTS==24
  1040			000025		.CNLGO==25
  1041			000026		.CNJPS==26
  1042			000027		.CNJPM==27
  1043			000030		.CNJPH==30
  1044			000031		.CNHGH==31
  1045			000032		.CNHFD==32
UUOSYM	MACRO %53B(1156)-1 13:38  8-Nov-85 Page 1-19
UUOSYM	MAC	11-Feb-72 22:37		UUOSYM

  1046			000033		.CNSYS==33
  1047			000034		.CNFCW==34
  1048			000035		.CNSCC==35
  1049			000036		.CNS30==36
  1050		200000	000000		LG.ZAP==1B1
  1051		100000	000000		LG.GON==1B2
  1052		004000	000000		LG.HDX==1B6
  1053		000002	000000		LG.NAX==1B16
  1054		002700	000000		LG.TID==27B11
  1055		000017	600000		LG.ND1==77B19
  1056			037400		LG.ND2==77B27
  1057			000000		LG.PORT==
  1058			000000		.LDMFD==0
  1059			000001		.LDSYS==1
  1060			000002		.LDFSF==2
  1061			000003		.LDHLP==3
  1062			000004		.LDSPL==4
  1063			000005		.LDDRB==5
  1064			000006		.LDSTR==6
  1065			000007		.LDUNI==7
  1066			000010		.LDSWP==10
  1067			000011		.LDCBN==11
  1068			000012		.LDSTP==12
  1069			000013		.LDUFP==13
  1070			000014		.LDRPC==14
  1071			000015		.LDSPC==15
  1072			000016		.LDQST==16
  1073			000017		.LDACT==17
  1074			000020		.LDCRS==20
  1075			000021		.LDLKB==21
  1076			000010		.NSCMX==10
  1077			000012		.NSCTL==12
  1078			000015		.NSUPT==15
  1079			000020		.NSHJB==20
  1080			000021		.NSCLW==21
  1081			000022		.NSLST==22
  1082			000023		.NSMMS==23
  1083			000024		.NSTPE==24
  1084			000025		.NSSPE==25
  1085			000026		.NSCPE==26
  1086			000027		.NSMPA==27
  1087			000030		.NSMPW==30
  1088			000031		.NSMPP==31
  1089			000034		.NSNUL==34
  1090			000035		.NSNMN==35
  1091			000036		.NSALR==36
  1092			000037		.NSMWM==37
  1093			000040		.NSUID==40
  1094			000041		.NSSTM==41
  1095			000042		.NSMXT==42
  1096			000000		.ODSWH==0
  1097			000001		.ODSWK==1
  1098			000002		.ODPRT==2
  1099			000003		.ODPRA==3
  1100			000004		.ODMXP==4
UUOSYM	MACRO %53B(1156)-1 13:38  8-Nov-85 Page 1-20
UUOSYM	MAC	11-Feb-72 22:37		UUOSYM

  1101			000005		.ODDCT==5
  1102		000400	000000		AB.FET==1B9
  1103		000200	000000		AB.RED==1B10
  1104		000100	000000		AB.WRT==1B11
  1105		000040	000000		AB.USR==1B12
  1106
  1107
  1108			000001		UUODEF==1
  1109					end

NO ERRORS DETECTED

PROGRAM BREAK IS 000000
CPU TIME USED 00:31.291

14P CORE USED
UUOSYM	MACRO %53B(1156)-1 13:38  8-Nov-85 Page S-1
UUOSYM	MAC	11-Feb-72 22:37		SYMBOL TABLE

AB.FET	000400	000000	spd	CLBRLI	047000	777670		DDTIN	047000	000001		FD.OTF		200000	spd
AB.RED	000200	000000	spd	CLBSTS	047000	777672		DDTOUT	047000	000003		FD.SLF		700000	spd
AB.USR	000040	000000	spd	CLBWAK	047000	777673		DEVCHR	047000	000004		FEADB%		000016	spd
AB.WRT	000100	000000	spd	CLOSE	070000	000000		DEVNAM	047000	000064		FEALH%		000021	spd
AP.AOV		000010	spd	CLRBFI	051440	000000		DEVPPN	047000	000055		FEALR%		000020	spd
AP.BRK		040000	spd	CLRBFO	051500	000000		DEVSIZ	047000	000101		FEBAR%		000011	spd
AP.CHR		004000	spd	CN.AOV		000010	spd	DEVSTS	047000	000054		FEBCN%		000026	spd
AP.CLK		001000	spd	CN.BRK		004000	spd	DFGIF%		000003	spd	FEBDF%		000004	spd
AP.ESC		002000	spd	CN.CHR		040000	spd	DFGLN%		000012	spd	FEBDH%		000014	spd
AP.FOV		000100	spd	CN.CLK		001000	spd	DFGNP%		000010	spd	FEBDI%		000002	spd
AP.HNG		000040	spd	CN.ESC	000001	000000	spd	DFGPP%		000006	spd	FEBFD%		000013	spd
AP.ILM		020000	spd	CN.FOV		000100	spd	DISMIS	047000	777755		FEBFN%		000015	spd
AP.POV		200000	spd	CN.HNG	000002	000000	spd	DP.CR		000002	spd	FEBHT%		000030	spd
AP.REN		400000	spd	CN.ILM		020000	spd	DP.LK		000004	spd	FEBSV%		000032	spd
AP.UUO		100000	spd	CN.POV		200000	spd	DP.RD		000001	spd	FEBTN%		000027	spd
APRENB	047000	000016		CN.UUO		400000	spd	DSKCHR	047000	000045		FECCF%		000034	spd
ATTACH	047000	777772		CONT	047000	777653		DSKCLR	047000	777756		FECCH%		000031	spd
AUXCAL	042000	000000		CORE	047000	000011		DV.1UU	004000	000000	spd	FECFJ%		000035	spd
AUXRED	047000	777732		CRBCN%		000000	spd	DV.2UU	002000	000000	spd	FECII%		000033	spd
BITPOK	047000	777660		CRBPR%		000002	spd	DV.3UU	001000	000000	spd	FECLP%		000010	spd
BLTPAG	047000	777655		CRBVP%		000001	spd	DV.4UU	000100	000000	spd	FECSJ%		000022	spd
BUCBB%		000000	spd	CRDFL%		000006	spd	DV.ASC		000001	spd	FEFHE%		000023	spd
BUCLP%		000002	spd	CREAUX	047000	777734		DV.ASG		400000	spd	FEFHU%		000024	spd
BUNWP%		000001	spd	CREXV%		000003	spd	DV.ASL		000002	spd	FEIOE%		000017	spd
CB.EVI		000002	spd	CRLIM%		000005	spd	DV.ASP		200000	spd	FENCH%		000007	spd
CB.NML		000001	spd	CX.NZP	000001	000000	spd	DV.AVL	000040	000000	spd	FENFH%		000025	spd
CBAIL%		000010	spd	CX2AX%		000001	spd	DV.BIN		010000	spd	FENLC%		000005	spd
CBCNT%		000012	spd	CXDCB%		000003	spd	DV.CDR	100000	000000	spd	FENOH%		000001	spd
CBHIL%		000007	spd	CXERR%		000007	spd	DV.DIR	000004	000000	spd	FENPR%		000012	spd
CBIDO%		000004	spd	CXLOG%		000002	spd	DV.DMP		100000	spd	FENRT%		000003	spd
CBINC%		000003	spd	CXNCH%		000006	spd	DV.DPR		040000	spd	FEREM%		000036	spd
CBJNI%		000014	spd	CXNRL%		000005	spd	DV.DSK	200000	000000	spd	FEUND%		000006	spd
CBNEX%		000002	spd	CXNRR%		000004	spd	DV.IBN		004000	spd	FI.SAL	200000	000000	spd
CBNFC%		000013	spd	CXSAB%		000007	spd	DV.IMG		000400	spd	FI.VAL	400000	000000	spd
CBNIC%		000005	spd	CXSBM%		000003	spd	DV.IN	000002	000000	spd	FI.VPN		777000	spd
CBNIL%		000011	spd	CXSBU%		000002	spd	DV.KAT		000004	spd	FLAQA%		000025	spd
CBVPM%		000006	spd	CXSDF%		000005	spd	DV.LPT	040000	000000	spd	FLBDS%		000012	spd
CBVPR%		000001	spd	CXSFE%		000001	spd	DV.MTA	000020	000000	spd	FLCOR%		000010	spd
CF.BAL		000002	spd	CXSHU%		000004	spd	DV.NZP	010000	000000	spd	FLCPL%		000013	spd
CF.DDB		000003	spd	CXSIS%		000010	spd	DV.OUT	000001	000000	spd	FLCPU%		000002	spd
CF.FCE		000001	spd	CXSLQ%		000011	spd	DV.PTP	000400	000000	spd	FLCTG%		000000	spd
CF.NRD		000000	spd	CXSTO%		000006	spd	DV.PTR	000200	000000	spd	FLCTL%		000026	spd
CH.FRM		000000	spd	CXSUP%		000000	spd	DV.TTA	020000	000000	spd	FLDVR%		000001	spd
CH.LIC		020000	spd	DATE	047000	000014		DV.TTY	000010	000000	spd	FLFPZ%		000007	spd
CH.PRO		010000	spd	DATUUO	047000	777723		EI.DER	000002	000000	spd	FLHOL%		000016	spd
CHANIO	043000	000000		DC.CNN		000700	spd	EI.DTE	000001	000000	spd	FLIPE%		000027	spd
CHGPPN	047000	000074		DC.CNT		077000	spd	EI.OER	000004	000000	spd	FLLGE%		000032	spd
CHKLIC	047000	777747		DC.DCN		700000	spd	EI.PAR	000010	000000	spd	FLLKC%		000014	spd
CHPRJ	047000	777717		DC.HWP	100000	000000	spd	EI.VAL	400000	000000	spd	FLNEX%		000004	spd
CLBADD	047000	777664		DC.MSB	000400	000000	spd	ENTER	077000	000000		FLNHL%		000016	spd
CLBHNG	047000	777674		DC.OFL	200000	000000	spd	EVICT	047000	777644		FLNIM%		000031	spd
CLBINI	047000	777667		DC.TYP	000007	000000	spd	EXIT	047000	000012		FLNML%		000022	spd
CLBINW	047000	777666		DC.UNN		000007	spd	FD.ABS		000000	spd	FLNOF%		000023	spd
CLBLEV	047000	777665		DC.UNT		000060	spd	FD.CRH		300000	spd	FLNSP%		000033	spd
CLBMEM	047000	777671		DC.USF	004000	000000	spd	FD.FAM		100000	spd	FLNTF%		000030	spd
UUOSYM	MACRO %53B(1156)-1 13:38  8-Nov-85 Page S-2
UUOSYM	MAC	11-Feb-72 22:37		SYMBOL TABLE

FLNWT%		000024	spd	HT.CIO		000004	spd	IO.BKT		040000	spd	LC.BRK	000100	000000	spd
FLOPE%		000020	spd	HT.DFL		000001	spd	IO.DEN		000600	spd	LC.CRD	002000	000000	spd
FLPHP%		000006	spd	HT.DNA		000002	spd	IO.DER		200000	spd	LC.DFR	001000	000000	spd
FLRBE%		000011	spd	HT.DOP		000005	spd	IO.DTE		100000	spd	LC.ECS	100000	000000	spd
FLSAM%		000021	spd	HT.EUF		000005	spd	IO.EOF		020000	spd	LC.ESC	004000	000000	spd
FLSNM%		000017	spd	HT.EX1		000001	spd	IO.ERR		740000	spd	LC.GD	020000	000000	spd
FLSVR%		000005	spd	HT.EXI		000000	spd	IO.EVP		001000	spd	LC.HDX	010000	000000	spd
FLVEX%		000004	spd	HT.FCL		000006	spd	IO.FCS		000100	spd	LC.HF	002000	000000	spd
FM.CHL		000000	spd	HT.FEX		000002	spd	IO.IMP		400000	spd	LC.HFF	000001	000000	spd
FM.PAR		010000	spd	HT.FNF		000003	spd	IO.MOD		000077	spd	LC.HHT	000010	000000	spd
FP.ALL		000000	spd	HT.HDV		000004	spd	IO.NEC		000200	spd	LC.JL	001000	000000	spd
FP.AP		000003	spd	HT.HLT		000003	spd	IO.NEE		000400	spd	LC.LCP	000004	000000	spd
FP.CP		000001	spd	HT.ICO		000001	spd	IO.SYN		000040	spd	LC.NCM	000020	000000	spd
FP.LK		000006	spd	HT.IDM		000002	spd	IO.UWC		000020	spd	LC.NFC	000200	000000	spd
FP.NO		000007	spd	HT.IIA		000005	spd	IONEOU	051640	000000		LC.NOP	000400	000000	spd
FP.RD		000004	spd	HT.ILI		000002	spd	IRBCH%		000001	spd	LC.OBS	020000	000000	spd
FP.RUN		000005	spd	HT.ILU		000000	spd	IRBDR%		000005	spd	LC.OP	100000	000000	spd
FP.UPD		000002	spd	HT.IMR		000001	spd	IRBIC%		000006	spd	LC.PNO		777777	spd
FRMOP	044000	000000		HT.IMU		000004	spd	IRNIS%		000007	spd	LC.PSS	040000	000000	spd
FSFSA%		000011	spd	HT.IUC		000003	spd	JB.CMW	200000	000000	spd	LC.PTM	000002	000000	spd
FSILE%		000003	spd	HT.JSU		000004	spd	JB.DCN		020000	spd	LC.RC	200000	000000	spd
FSILF%		000000	spd	HT.JSV		000005	spd	JB.ESC	000400	000000	spd	LC.RPS	000014	000000	spd
FSILL%		000012	spd	HT.MGF		000011	spd	JB.JA2		100000	spd	LC.ST	004000	000000	spd
FSMCN%		000007	spd	HT.MHB		000007	spd	JB.JAC	000001	000000	spd	LC.SY	040000	000000	spd
FSNCS%		000015	spd	HT.NSA		000012	spd	JB.JER	020000	000000	spd	LC.TD	010000	000000	spd
FSNFS%		000014	spd	HT.NSF		000004	spd	JB.JNA	040000	000000	spd	LC.WC	400000	000000	spd
FSNPV%		000010	spd	HT.OCI		000000	spd	JB.JRQ	000002	000000	spd	LC.WPS	000003	000000	spd
FSPPN%		000006	spd	HT.PAR		000005	spd	JB.LOG	000004	000000	spd	LC.XC	000200	000000	spd
FSRSL%		000017	spd	HT.PCO		000000	spd	JB.MRQ	100000	000000	spd	LEVDEF	047000	777750
FSSNF%		000001	spd	HT.PGN		000001	spd	JB.PRF		004000	spd	LG.GON	100000	000000	spd
FSSSA%		000002	spd	HT.PHE		000002	spd	JB.RUN	400000	000000	spd	LG.HDX	004000	000000	spd
FSTME%		000004	spd	HT.PIO		000000	spd	JB.SCP		001000	spd	LG.NAX	000002	000000	spd
FSUNA%		000005	spd	HT.POV		000007	spd	JB.SIP		002000	spd	LG.ND1	000017	600000	spd
FSUNC%		000013	spd	HT.RMF		000010	spd	JB.UTR		040000	spd	LG.ND2		037400	spd
FSUNF%		000016	spd	HT.TLE		000003	spd	JB.WAK		200000	spd	LG.POR		000000	spd
GETCHR	047000	000006		HT.TPL		000003	spd	JB.WSC	000370	000000	spd	LG.TID	002700	000000	spd
GETLCH	051300	000000		HT.TRE		000000	spd	JOBSTR	047000	000047		LG.ZAP	200000	000000	spd
GETLIN	047000	000034		HT.UUE		000001	spd	JP.1UU	400000	000000	spd	LIGHTS	047000	777777
GETPPN	047000	000024		HT.WRV		000002	spd	JP.2UU	017600	000000	spd	LOGIN	047000	000015
GETSEG	047000	000040		II.ADR	777777	000000	spd	JP.3UU		002000	spd	LOGOFF	047000	777650
GETSTS	062000	000000		II.PFW		777777	spd	JP.ASV		020000	spd	LOGOUT	047000	000017
GETTAB	047000	000041		IN	056000	000000		JP.COR	000177	000000	spd	LOOKUP	076000	000000
GETTMC	047000	777762		INBUF	064000	000000		JP.CRM		000177	spd	LXRBRK	004000	000000	spd
GOBSTR	047000	000066		INCHRS	051100	000000		JP.DOP		300000	spd	LXRCHR	010000	000000	spd
HANG	047000	777746		INCHRW	051000	000000		JP.DST	100000	000000	spd	LXRESC	400000	000000	spd
HC.DEV		000002	spd	INCHSL	051240	000000		JP.EXO		400000	spd	LXRGOB	000200	000000	spd
HC.EXI		000004	spd	INCHWL	051200	000000		JP.MAL		010000	spd	LXRICL	040000	000000	spd
HC.ILL		000003	spd	INIT	041000	000000		JP.MOD		000600	spd	LXROBS	200000	000000	spd
HC.MEM		000000	spd	INPUT	066000	000000		JP.NAT	200000	000000	spd	LXROCL	020000	000000	spd
HC.RUN		000005	spd	INTACT	047000	777743		JP.RCM		001000	spd	LXRPSS	100000	000000	spd
HC.SYS		000001	spd	INTADR	047000	777745		JP.TYM		040000	spd	LXRYBS	002000	000000	spd
HIBER	047000	000072		INTASS	047000	777742		JP.XOG		004000	spd	MOVBUF	047000	777751
HT.ABK		000006	spd	INTENB	047000	777744		JP.ZON	076000	000000	spd	MSTIME	047000	000023
HT.ADC		000003	spd	IO.ACT		010000	spd	LC.AC	000400	000000	spd	MT.7TR	000040	000000	spd
HT.CAN		000006	spd	IO.BK2		001000	spd	LC.AXC	000040	000000	spd	MT.EOT	020000	000000	spd
UUOSYM	MACRO %53B(1156)-1 13:38  8-Nov-85 Page S-3
UUOSYM	MAC	11-Feb-72 22:37		SYMBOL TABLE

MT.IBM	010000	000000	spd	RDHIST	047000	777661		ST.WDY		200000	spd	.ARCLR		000011	spd
MT.LDP	040000	000000	spd	REASSI	047000	000021		ST.WRN		100000	spd	.ARDET		000026	spd
MT.PRO	400000	000000	spd	REDNXT	047000	777764		ST.WWT		040000	spd	.ARGVC		000031	spd
MT.TAB	300000	000000	spd	REDPIP	047000	777735		STATO	061000	000000		.ARGVP		000030	spd
MT1600	000010	000000	spd	REFBIT	047000	777705		STATZ	063000	000000		.ARHLT		000006	spd
MT200	000001	000000	spd	RELEAS	071000	000000		STRUUO	047000	000050		.ARHNG		000010	spd
MT556	000002	000000	spd	REMAP	047000	000037		SV.CCL	777777	777776	spd	.ARRAA		000015	spd
MT6250	000020	000000	spd	RENAME	055000	000000		SV.CON	777777	777773	spd	.ARRAC		000002	spd
MT800	000004	000000	spd	RESCAN	051400	000000		SV.DDT	777777	777774	spd	.ARRAD		000020	spd
MTAPE	072000	000000		RESET	047000	000000		SV.NSA	777777	777777	spd	.ARRDM		000000	spd
ONEJOB	047000	777760		RETACH	047000	777643		SV.REN	777777	777775	spd	.ARRDS		000017	spd
OPEN	050000	000000		RFBCN%		000000	spd	SWITCH	047000	000020		.ARRFI		000021	spd
OUT	057000	000000		RFBFN%		000005	spd	SYSDVF	047000	777754		.ARRPI		000022	spd
OUTBUF	065000	000000		RFBVP%		000001	spd	SYSPHY	047000	000051		.ARRUN		000016	spd
OUTCHI	051700	000000		RI.ADR		777777	spd	SYSSTR	047000	000046		.ARRVA		000014	spd
OUTCHR	051040	000000		RI.VAL	400000	000000	spd	TIMER	047000	000022		.ARSAA		000013	spd
OUTPTR	051740	000000		RTAUX%		000010	spd	TINASS	047000	777736		.ARSMF		000023	spd
OUTPUT	067000	000000		RTNRM%		000011	spd	TMPCOR	047000	000044		.ARSTP		000007	spd
OUTSTR	051140	000000		RTSAC%		000001	spd	TRPSET	047000	000025		.ARSVA		000012	spd
PAGSTS	047000	777707		RTSCP%		000007	spd	TTCALL	051000	000000		.ARTKP		000027	spd
PEBCN%		000000	spd	RTSNA%		000005	spd	TYMCHG	047000	777722		.ARVAR		000004	spd
PEBVP%		000001	spd	RTSNX%		000002	spd	UGETF	073000	000000		.ARVAW		000005	spd
PENVP%		000004	spd	RTTAC%		000003	spd	USETI	074000	000000		.ARWAC		000003	spd
PERSET	047000	777706		RTTAT%		000006	spd	USETO	075000	000000		.ARWAK		000024	spd
PFBVP%		000001	spd	RTTNX%		000004	spd	UUODEF		000001	spd	.AXBBP		000066	spd
PFNEX%		000004	spd	RUN	047000	000035		VALPAG	047000	777702		.AXBS		000057	spd
PFNFP%		000006	spd	RUNSEG	047000	777753		VCLEAR	047000	777712		.AXCBI		000006	spd
PGESTS	047000	777700		RUNTIM	047000	000027		VCREAT	047000	777711		.AXCBO		000007	spd
PGFSTS	047000	777677		SEEK	047000	000056		VDSKPT	047000	777676		.AXCFS		000064	spd
PGISTS	047000	777646		SETABK	047000	777647		VFSTAT	047000	777701		.AXCRD		000014	spd
PGRSTS	047000	777645		SETALP	047000	777651		VLBCN%		000000	spd	.AXEBM		000034	spd
PIDSET	047000	777656		SETDDT	047000	000002		VLBVP%		000001	spd	.AXEDE		000063	spd
PJOB	047000	000030		SETE	047000	777771		VLIOE%		000005	spd	.AXEP		000017	spd
POKE	047000	777766		SETJAL	047000	777757		VLNVP%		000004	spd	.AXERA		000062	spd
POLPRT	047000	777663		SETLCH	051340	000000		VPEEK	047000	777642		.AXFC1		000030	spd
PRBVP%		000001	spd	SETLIC	047000	777770		VPGFIL	047000	777675		.AXFC2		000031	spd
PREREF	047000	777703		SETMAL	047000	777761		VPROT	047000	777710		.AXHD		000020	spd
PRNIW%		000005	spd	SETMOD	047000	777752		VREMOV	047000	777713		.AXHNG		000060	spd
PRNVP%		000004	spd	SETNAM	047000	000043		VREPLC	047000	777714		.AXHNX		000024	spd
PS.CPR		000007	spd	SETOTF	047000	777652		WAIT	047000	000010		.AXI8B		000002	spd
PS.DDE	030000	000000	spd	SETPRV	047000	777767		WAITCH	047000	777765		.AXI8C		000000	spd
PS.FIL		000010	spd	SETRCF	047000	777721		WAKE	047000	000073		.AXI8S		000001	spd
PS.MXW	100000	000000	spd	SETSTS	060000	000000		WSBCN%		000000	spd	.AXIBR		000015	spd
PS.REF	200000	000000	spd	SETSTV	047000	777641		WSBFN%		000005	spd	.AXIBS		000036	spd
PS.SUP	040000	000000	spd	SETTIM	047000	777741		WSBVP%		000001	spd	.AXIBW		000035	spd
PS.UWS	400000	000000	spd	SETTR1	047000	777740		WSCTL	047000	777704		.AXICS		000045	spd
PSBVP%		000001	spd	SETTR2	047000	777737		WSCTL%		000006	spd	.AXICW		000044	spd
PTBCN%		000000	spd	SETUUO	047000	000075		WSEWL%		000007	spd	.AXISL		000047	spd
PTBPR%		000002	spd	SETUWP	047000	000036		WSLGM%		000010	spd	.AXIWL		000046	spd
PTBVP%		000001	spd	SKPINC	051540	000000		WSLL3%		000011	spd	.AXLBM		000042	spd
PTNVP%		000004	spd	SKPINL	051600	000000		WSNVP%		000004	spd	.AXLCO		000065	spd
PTPRF%		000005	spd	SLEEP	047000	000031		XCHARG	047000	777720		.AXLDE		000011	spd
PUTLSA	047000	777715		SNOOP	047000	777662		ZAPCIR	047000	777733		.AXNTE		000025	spd
PUTROY	047000	777654		ST.WDR		020000	spd	.ARATT		000025	spd	.AXO8		000003	spd
PUTSAR	047000	777716		ST.WDW		010000	spd	.ARCHM		000001	spd	.AXO8I		000004	spd
UUOSYM	MACRO %53B(1156)-1 13:38  8-Nov-85 Page S-4
UUOSYM	MAC	11-Feb-72 22:37		SYMBOL TABLE

.AXOB		000037	spd	.CHSS		000016	spd	.ERDNA		000011	spd	.FSUCL		000007	spd
.AXOBR		000016	spd	.CHSZ		000020	spd	.ERFBM		000003	spd	.FSULK		000006	spd
.AXOCI		000051	spd	.CHUFD		000033	spd	.ERFNF		000000	spd	.GTAUN	777777	777755	spd
.AXOPC		000067	spd	.CHUGF		000010	spd	.ERILU		000013	spd	.GTBCS	777777	777765	spd
.AXOST		000052	spd	.CHUSI		000006	spd	.ERIPP		000001	spd	.GTBET	777777	777740	spd
.AXPA		000021	spd	.CHUSO		000007	spd	.ERISU		000005	spd	.GTBIO	777777	777737	spd
.AXPB		000022	spd	.CHVRB		000042	spd	.ERLKM		000022	spd	.GTCIN	777777	777771	spd
.AXPC		000023	spd	.CHWT		000025	spd	.ERNEC		000010	spd	.GTCNF		000011	spd
.AXPSM		000061	spd	.CHXFP		000037	spd	.ERNET		000016	spd	.GTCNK	777777	777766	spd
.AXPTR		000005	spd	.CNDAT		000011	spd	.ERNRM		000014	spd	.GTCOT	777777	777770	spd
.AXRBS		000054	spd	.CNDEV		000014	spd	.ERNSD		000012	spd	.GTDLK	777777	777776	spd
.AXRMX		000053	spd	.CNDT0		000005	spd	.ERNSF		000007	spd	.GTELP	777777	777767	spd
.AXRVX		000055	spd	.CNFCW		000034	spd	.ERNTR		000021	spd	.GTERN	777777	777745	spd
.AXS8B		000013	spd	.CNFG0		000000	spd	.ERPOA		000017	spd	.GTFPN	777777	777753	spd
.AXSFS		000032	spd	.CNFRE		000022	spd	.ERPRT		000002	spd	.GTFTR	777777	777724	spd
.AXSI		000033	spd	.CNHFD		000032	spd	.ERTRN		000006	spd	.GTJOB	777777	777752	spd
.AXSIC		000010	spd	.CNHGH		000031	spd	.ERWLK		000015	spd	.GTKCM	777777	777733	spd
.AXSIL		000050	spd	.CNJPH		000030	spd	.FOCAR		000030	spd	.GTKM1		000005	spd
.AXSLV		000043	spd	.CNJPM		000027	spd	.FOCER		000031	spd	.GTKM2	777777	777764	spd
.AXSOB		000070	spd	.CNJPS		000026	spd	.FOCFH		000012	spd	.GTLIC	777777	777760	spd
.AXSYB		000012	spd	.CNLGO		000025	spd	.FOCFM		000001	spd	.GTLIM	777777	777750	spd
.AXTBI		000040	spd	.CNLOC		000023	spd	.FOCHR		000021	spd	.GTLIN	777777	777751	spd
.AXTBK		000026	spd	.CNNJB		000015	spd	.FOCLR		000014	spd	.GTLNK	777777	777742	spd
.AXTBO		000041	spd	.CNNSM		000021	spd	.FOCON		000025	spd	.GTLOG	777777	777754	spd
.AXTYP		000056	spd	.CNOPR		000013	spd	.FODFH		000013	spd	.GTLPS	777777	777746	spd
.AXWID		000027	spd	.CNPTS		000024	spd	.FOGET		000032	spd	.GTLVD		000016	spd
.CHCFP		000040	spd	.CNS30		000036	spd	.FOGFT		000024	spd	.GTMC1	777777	777763	spd
.CHCLS		000001	spd	.CNSCC		000035	spd	.FOGIN		000026	spd	.GTMC2	777777	777736	spd
.CHDFP		000036	spd	.CNSER		000020	spd	.FOHLT		000005	spd	.GTMCY	777777	777732	spd
.CHENT		000005	spd	.CNSIZ		000012	spd	.FOHST		000023	spd	.GTMOD	777777	777747	spd
.CHFFI		000044	spd	.CNSTS		000017	spd	.FOJMP		000000	spd	.GTMPC	777777	777731	spd
.CHFSI		000027	spd	.CNSYS		000033	spd	.FORAR		000016	spd	.GTNAM		000003	spd
.CHFSO		000030	spd	.CNTAP		000007	spd	.FOREP		000007	spd	.GTNSW		000012	spd
.CHFTR		000045	spd	.CNTIM		000010	spd	.FORER		000017	spd	.GTODP		000015	spd
.CHGS		000017	spd	.DCBBR		000001	spd	.FORPC		000006	spd	.GTPNO	777777	777726	spd
.CHIBF		000022	spd	.DCCBP		000004	spd	.FORSI		000015	spd	.GTPPN		000002	spd
.CHIN		000014	spd	.DCCDP		000002	spd	.FORUN		000033	spd	.GTPRV		000006	spd
.CHIPT		000003	spd	.DCCDR		000000	spd	.FORVA		000002	spd	.GTPWS	777777	777730	spd
.CHLK		000004	spd	.DCCFH		000001	spd	.FOSAA		000004	spd	.GTRCT		000017	spd
.CHMBF		000026	spd	.DCCMD		000003	spd	.FOSAV		000034	spd	.GTSIN	777777	777773	spd
.CHMEN		000041	spd	.DCTCC		000005	spd	.FOSMF		000020	spd	.GTSLF		000023	spd
.CHMFP		000035	spd	.DCTCN		000004	spd	.FOSSA		000035	spd	.GTSLK	777777	777775	spd
.CHMGN		000034	spd	.DCTDS		000000	spd	.FOSVA		000022	spd	.GTSOK	777777	777741	spd
.CHMTA		000012	spd	.DCTFS		000002	spd	.FOVCH		000027	spd	.GTSOT	777777	777772	spd
.CHOBF		000023	spd	.DCTPU		000006	spd	.FOVCL		000011	spd	.GTSPW	777777	777727	spd
.CHOPN		000013	spd	.DCTUF		000003	spd	.FOVRM		000010	spd	.GTSRN	777777	777774	spd
.CHOPT		000002	spd	.DCUBU		000000	spd	.FOWVA		000003	spd	.GTSTS		000000	spd
.CHOUT		000015	spd	.DCUD1		000000	spd	.FSDEF		000002	spd	.GTSWP		000007	spd
.CHPSI		000031	spd	.DCUD2		000001	spd	.FSDSL		000001	spd	.GTTR1		000004	spd
.CHPSO		000032	spd	.DCUDP		000000	spd	.FSETS		000010	spd	.GTTR2	777777	777735	spd
.CHREL		000000	spd	.DCUM1		000000	spd	.FSLOK		000004	spd	.GTTRU	777777	777734	spd
.CHREN		000011	spd	.DCUM2		000001	spd	.FSRDF		000003	spd	.GTTTY		000010	spd
.CHSK		000024	spd	.DCUSP		000001	spd	.FSREM		000005	spd	.GTUID	777777	777725	spd
.CHSMP		000043	spd	.ERAEF		000004	spd	.FSRRL		000011	spd	.GTUN1	777777	777757	spd
.CHSO		000021	spd	.ERBNF		000020	spd	.FSSRC		000000	spd	.GTUNM	777777	777756	spd
UUOSYM	MACRO %53B(1156)-1 13:38  8-Nov-85 Page S-5
UUOSYM	MAC	11-Feb-72 22:37		SYMBOL TABLE

.GTWCT		000020	spd	.JBHSM		000006	spd	.MTIC0		000101	spd	.RBPRV		000004	spd
.GTWSC		000025	spd	.JBJDA		000075	spd	.MTIC1		000102	spd	.RBQTF		000022	spd
.IABRK		000002	spd	.JBMUU		000066	spd	.MTIC2		000103	spd	.RBQTO		000023	spd
.IACHR		000001	spd	.JBOPC		000130	spd	.MTIC3		000104	spd	.RBSIZ		000005	spd
.IACLK		000001	spd	.JBPFI		000114	spd	.MTREW		000001	spd	.RBSNM		000034	spd
.IADEV		000005	spd	.JBREL		000044	spd	.MTSKF		000016	spd	.RBSTS		000017	spd
.IAERR		000012	spd	.JBREN		000124	spd	.MTSKR		000006	spd	.RBTRU		000031	spd
.IAESC		000000	spd	.JBSA		000120	spd	.MTUNL		000011	spd	.RBUNM		000027	spd
.IAFEL		000007	spd	.JBSYM		000116	spd	.MTWAT		000000	spd	.RBUSD		000025	spd
.IAFEX		000014	spd	.JBTPC		000127	spd	.NSALR		000036	spd	.RBVER		000006	spd
.IAFLL		000010	spd	.JBUSY		000117	spd	.NSCLW		000021	spd	.RBXT1		000021	spd
.IAGOB		000012	spd	.JBUUO		000040	spd	.NSCMX		000010	spd	.RBXT2		000032	spd
.IAHNG		000003	spd	.JBVER		000137	spd	.NSCPE		000026	spd	.RFRBM		000000	spd
.IAILM		000002	spd	.JPCON		000002	spd	.NSCTL		000012	spd	.RFRNG		000002	spd
.IAIOW		000003	spd	.JPDET		000001	spd	.NSHJB		000020	spd	.RFSBM		000001	spd
.IALOS		000005	spd	.JPDTO		000003	spd	.NSLST		000022	spd	.SDDDA		000001	spd
.IANTQ		000013	spd	.JPLOG		000000	spd	.NSMMS		000023	spd	.SDDDN		000000	spd
.IAORG		000006	spd	.JPMPD		000000	spd	.NSMPA		000027	spd	.SDFTA		000004	spd
.IAPSS		000010	spd	.JPMSU		000003	spd	.NSMPP		000031	spd	.SDSTR		000003	spd
.IAREF		000011	spd	.JPMXE		000001	spd	.NSMPW		000030	spd	.SDUNI		000002	spd
.IAROM		000004	spd	.JPMXJ		000002	spd	.NSMWM		000037	spd	.SRALL		000002	spd
.IATIM		000004	spd	.LCRA		000003	spd	.NSMXT		000042	spd	.SRAUN		000006	spd
.IAUUO		000000	spd	.LCRF		000002	spd	.NSNMN		000035	spd	.SREXO		000000	spd
.IAWAK		000006	spd	.LCRP		000001	spd	.NSNUL		000034	spd	.SRJLL		000007	spd
.IAYEL		000011	spd	.LCWA		000003	spd	.NSSPE		000025	spd	.SRLIC		000001	spd
.IAZAP		000007	spd	.LCWF		000002	spd	.NSSTM		000041	spd	.SRRCL		000003	spd
.IOASC		000000	spd	.LCWP		000001	spd	.NSTPE		000024	spd	.SRSYL		000004	spd
.IOASL		000001	spd	.LDACT		000017	spd	.NSUID		000040	spd	.SRTYM		000005	spd
.IOBIN		000014	spd	.LDCBN		000011	spd	.NSUPT		000015	spd	.SRWCL		000010	spd
.IODMP		000017	spd	.LDCRS		000020	spd	.ODDCT		000005	spd	.STBST		000011	spd
.IODPR		000016	spd	.LDDRB		000005	spd	.ODMXP		000004	spd	.STDAT		000004	spd
.IOIBN		000013	spd	.LDFSF		000002	spd	.ODPRA		000003	spd	.STFAR		000002	spd
.IOIMG		000010	spd	.LDHLP		000003	spd	.ODPRT		000002	spd	.STRES		000012	spd
.IOKAT		000002	spd	.LDLKB		000021	spd	.ODSWH		000000	spd	.STSTA		000001	spd
.JB41		000041	spd	.LDMFD		000000	spd	.ODSWK		000001	spd	.STTIM		000003	spd
.JBAPR		000125	spd	.LDQST		000016	spd	.PRCW	004000	000000	spd	.STTYO		000000	spd
.JBBLT		000045	spd	.LDRPC		000014	spd	.PRRO	002000	000000	spd	.STWAT		000006	spd
.JBCHN		000131	spd	.LDSPC		000015	spd	.PRRW	006000	000000	spd	.TCRDD		000005	spd
.JBCN6		000106	spd	.LDSPL		000004	spd	.RBALC		000011	spd	.TCRDF		000002	spd
.JBCNI		000126	spd	.LDSTP		000012	spd	.RBALP		000033	spd	.TCRFS		000000	spd
.JBCNK		000102	spd	.LDSTR		000006	spd	.RBAUT		000026	spd	.TCRRD		000004	spd
.JBCOR		000133	spd	.LDSWP		000010	spd	.RBDEV		000016	spd	.TCRRF		000001	spd
.JBCST		000136	spd	.LDSYS		000001	spd	.RBELB		000020	spd	.TCRWF		000003	spd
.JBDA		000140	spd	.LDUFP		000013	spd	.RBEST		000010	spd	.UGCNT		000000	spd
.JBDDT		000074	spd	.LDUNI		000007	spd	.RBEXT		000003	spd	.UGSEN		000001	spd
.JBFF		000121	spd	.MT7E0		000201	spd	.RBFT1		000013	spd	.UGSTS		000002	spd
.JBH41		000001	spd	.MT7E1		000202	spd	.RBFUT		000007	spd	.WSRBM		000000	spd
.JBHCR		000002	spd	.MT7E2		000203	spd	.RBLIC		000014	spd	.WSRLM		000004	spd
.JBHCU		000072	spd	.MT7E3		000204	spd	.RBMTA		000015	spd	.WSRMX		000005	spd
.JBHDA		000010	spd	.MTBLK		000013	spd	.RBMXA		000024	spd	.WSRNG		000001	spd
.JBHGA		000007	spd	.MTBSF		000017	spd	.RBNAM		000002	spd	.WSRSZ		000003	spd
.JBHNM		000005	spd	.MTBSR		000007	spd	.RBPID		000040	spd	.WSSTL		000002	spd
.JBHRL		000115	spd	.MTDEC		000100	spd	.RBPJC		000035	spd	.XCRCC		000002	spd
.JBHRN		000003	spd	.MTEOF		000003	spd	.RBPOS		000012	spd	.XCRSC		000001	spd
.JBHSA		000000	spd	.MTEOT		000010	spd	.RBPPN		000001	spd	.XCSAV		000000	spd
UUOSYM	MACRO %53B(1156)-1 13:38  8-Nov-85 Page S-6
UUOSYM	MAC	11-Feb-72 22:37		SYMBOL TABLE

.XCSET		000004	spd
.XCTCC		000006	spd
.XCTRN		000005	spd


UUOSYM	MACRO %53B(1156)-1 13:38  8-Nov-85 Page 1
UUOSYM	MAC	11-Feb-72 22:37		UUOSYM


Symbol cross reference

AB.FET	  1102#
AB.RED	  1103#
AB.USR	  1105#
AB.WRT	  1104#
AP.AOV	   927#
AP.BRK	   913#
AP.CHR	   917#
AP.CLK	   921#
AP.ESC	   919#
AP.FOV	   923#
AP.HNG	   925#
AP.ILM	   915#
AP.POV	   909#
AP.REN	   907#
AP.UUO	   911#
BUCBB%	   583#
BUCLP%	   585#
BUNWP%	   584#
CB.EVI	   957#
CB.NML	   956#
CBAIL%	   965#
CBCNT%	   967#
CBHIL%	   964#
CBIDO%	   961#
CBINC%	   960#
CBJNI%	   969#
CBNEX%	   959#
CBNFC%	   968#
CBNIC%	   962#
CBNIL%	   966#
CBVPM%	   963#
CBVPR%	   958#
CF.BAL	   460#
CF.DDB	   461#
CF.FCE	   459#
CF.NRD	   458#
CH.FRM	   398#
CH.LIC	   400#
CH.PRO	   399#
CN.AOV	   926#
CN.BRK	   912#
CN.CHR	   916#
CN.CLK	   920#
CN.ESC	   918#
CN.FOV	   922#
CN.HNG	   924#
CN.ILM	   914#
CN.POV	   908#
CN.UUO	   910#
CRBCN%	   561#
UUOSYM	MACRO %53B(1156)-1 13:38  8-Nov-85 Page 1
UUOSYM	MAC	11-Feb-72 22:37		UUOSYM


Symbol cross reference

CRBPR%	   563#
CRBVP%	   562#
CRDFL%	   566#
CREXV%	   564#
CRLIM%	   565#
CX.NZP	   821#
CX2AX%	   832#
CXDCB%	   834#
CXERR%	   838#
CXLOG%	   833#
CXNCH%	   837#
CXNRL%	   836#
CXNRR%	   835#
CXSAB%	   845#
CXSBM%	   841#
CXSBU%	   840#
CXSDF%	   843#
CXSFE%	   839#
CXSHU%	   842#
CXSIS%	   846#
CXSLQ%	   847#
CXSTO%	   844#
CXSUP%	   831#
DC.CNN	   780#
DC.CNT	   774#
DC.DCN	   773#
DC.HWP	   763#
DC.MSB	   765#
DC.OFL	   762#
DC.TYP	   766#
DC.UNN	   790#
DC.UNT	   781#
DC.USF	   764#
DFGIF%	   791#
DFGLN%	   794#
DFGNP%	   793#
DFGPP%	   792#
DP.CR	   712#
DP.LK	   711#
DP.RD	   713#
DV.1UU	   676#
DV.2UU	   677#
DV.3UU	   678#
DV.4UU	   681#
DV.ASC	   697#
DV.ASG	   688#
DV.ASL	   696#
DV.ASP	   689#
DV.AVL	   682#
DV.BIN	   692#
UUOSYM	MACRO %53B(1156)-1 13:38  8-Nov-85 Page 1
UUOSYM	MAC	11-Feb-72 22:37		UUOSYM


Symbol cross reference

DV.CDR	   672#
DV.DIR	   685#
DV.DMP	   690#
DV.DPR	   691#
DV.DSK	   671#
DV.IBN	   693#
DV.IMG	   694#
DV.IN	   686#
DV.KAT	   695#
DV.LPT	   673#
DV.MTA	   683#
DV.NZP	   675#
DV.OUT	   687#
DV.PTP	   679#
DV.PTR	   680#
DV.TTA	   674#
DV.TTY	   684#
EI.DER	   592#
EI.DTE	   593#
EI.OER	   591#
EI.PAR	   590#
EI.VAL	   589#
FD.ABS	   392#
FD.CRH	   397#
FD.FAM	   393#
FD.OTF	   396#
FD.SLF	   401#
FEADB%	   441#
FEALH%	   444#
FEALR%	   443#
FEBAR%	   436#
FEBCN%	   449#
FEBDF%	   431#
FEBDH%	   439#
FEBDI%	   429#
FEBFD%	   438#
FEBFN%	   440#
FEBHT%	   451#
FEBSV%	   453#
FEBTN%	   450#
FECCF%	   455#
FECCH%	   452#
FECFJ%	   456#
FECII%	   454#
FECLP%	   435#
FECSJ%	   445#
FEFHE%	   446#
FEFHU%	   447#
FEIOE%	   442#
FENCH%	   434#
UUOSYM	MACRO %53B(1156)-1 13:38  8-Nov-85 Page 1
UUOSYM	MAC	11-Feb-72 22:37		UUOSYM


Symbol cross reference

FENFH%	   448#
FENLC%	   432#
FENOH%	   428#
FENPR%	   437#
FENRT%	   430#
FEREM%	   457#
FEUND%	   433#
FI.SAL	   599#
FI.VAL	   598#
FI.VPN	   600#
FLAQA%	   640#
FLBDS%	   629#
FLCOR%	   627#
FLCPL%	   630#
FLCPU%	   621#
FLCTG%	   619#
FLCTL%	   641#
FLDVR%	   620#
FLFPZ%	   626#
FLHOL%	   632#
FLIPE%	   642#
FLLGE%	   645#
FLLKC%	   631#
FLNEX%	   623#
FLNHL%	   633#
FLNIM%	   644#
FLNML%	   637#
FLNOF%	   638#
FLNSP%	   646#
FLNTF%	   643#
FLNWT%	   639#
FLOPE%	   635#
FLPHP%	   625#
FLRBE%	   628#
FLSAM%	   636#
FLSNM%	   634#
FLSVR%	   624#
FLVEX%	   622#
FM.CHL	   394#
FM.PAR	   395#
FP.ALL	   710#
FP.AP	   707#
FP.CP	   709#
FP.LK	   704#
FP.NO	   703#
FP.RD	   706#
FP.RUN	   705#
FP.UPD	   708#
FSFSA%	   814#
FSILE%	   808#
UUOSYM	MACRO %53B(1156)-1 13:38  8-Nov-85 Page 1
UUOSYM	MAC	11-Feb-72 22:37		UUOSYM


Symbol cross reference

FSILF%	   805#
FSILL%	   815#
FSMCN%	   812#
FSNCS%	   818#
FSNFS%	   817#
FSNPV%	   813#
FSPPN%	   811#
FSRSL%	   820#
FSSNF%	   806#
FSSSA%	   807#
FSTME%	   809#
FSUNA%	   810#
FSUNC%	   816#
FSUNF%	   819#
HC.DEV	   483#
HC.EXI	   495#
HC.ILL	   490#
HC.MEM	   467#
HC.RUN	   503#
HC.SYS	   476#
HT.ABK	   474#
HT.ADC	   471#
HT.CAN	   510#
HT.CIO	   481#
HT.DFL	   478#
HT.DNA	   506#
HT.DOP	   489#
HT.EUF	   509#
HT.EX1	   497#
HT.EXI	   496#
HT.FCL	   502#
HT.FEX	   498#
HT.FNF	   507#
HT.HDV	   488#
HT.HLT	   494#
HT.ICO	   485#
HT.IDM	   486#
HT.IIA	   473#
HT.ILI	   493#
HT.ILU	   491#
HT.IMR	   469#
HT.IMU	   472#
HT.IUC	   487#
HT.JSU	   500#
HT.JSV	   501#
HT.MGF	   513#
HT.MHB	   511#
HT.NSA	   514#
HT.NSF	   508#
HT.OCI	   484#
UUOSYM	MACRO %53B(1156)-1 13:38  8-Nov-85 Page 1
UUOSYM	MAC	11-Feb-72 22:37		UUOSYM


Symbol cross reference

HT.PAR	   482#
HT.PCO	   468#
HT.PGN	   505#
HT.PHE	   479#
HT.PIO	   477#
HT.POV	   475#
HT.RMF	   512#
HT.TLE	   499#
HT.TPL	   480#
HT.TRE	   504#
HT.UUE	   492#
HT.WRV	   470#
II.ADR	   601#
II.PFW	   602#
IO.ACT	   653#
IO.BK2	   655#
IO.BKT	   650#
IO.DEN	   658#
IO.DER	   648#
IO.DTE	   649#
IO.EOF	   652#
IO.ERR	   651#
IO.EVP	   654#
IO.FCS	   659#
IO.IMP	   647#
IO.MOD	   662#
IO.NEC	   657#
IO.NEE	   656#
IO.SYN	   660#
IO.UWC	   661#
IRBCH%	   952#
IRBDR%	   953#
IRBIC%	   954#
IRNIS%	   955#
JB.CMW	   371#
JB.DCN	   383#
JB.ESC	   375#
JB.JA2	   381#
JB.JAC	   379#
JB.JER	   374#
JB.JNA	   373#
JB.JRQ	   378#
JB.LOG	   377#
JB.MRQ	   372#
JB.PRF	   384#
JB.RUN	   370#
JB.SCP	   386#
JB.SIP	   385#
JB.UTR	   382#
JB.WAK	   380#
UUOSYM	MACRO %53B(1156)-1 13:38  8-Nov-85 Page 1
UUOSYM	MAC	11-Feb-72 22:37		UUOSYM


Symbol cross reference

JB.WSC	   376#
JP.1UU	   327#
JP.2UU	   331#
JP.3UU	   343#
JP.ASV	   340#
JP.COR	   332#
JP.CRM	   350#
JP.DOP	   334#
JP.DST	   329#
JP.EXO	   333#
JP.MAL	   341#
JP.MOD	   345#
JP.NAT	   328#
JP.RCM	   344#
JP.TYM	   339#
JP.XOG	   342#
JP.ZON	   330#
LC.AC	   360#
LC.AXC	   867#
LC.BRK	   866#
LC.CRD	   862#
LC.DFR	   863#
LC.ECS	   857#
LC.ESC	   861#
LC.GD	   355#
LC.HDX	   860#
LC.HF	   358#
LC.HFF	   872#
LC.HHT	   869#
LC.JL	   359#
LC.LCP	   870#
LC.NCM	   868#
LC.NFC	   865#
LC.NOP	   864#
LC.OBS	   859#
LC.OP	   353#
LC.PNO	   873#
LC.PSS	   858#
LC.PTM	   871#
LC.RC	   352#
LC.RPS	   362#
LC.ST	   357#
LC.SY	   354#
LC.TD	   356#
LC.WC	   351#
LC.WPS	   366#
LC.XC	   361#
LG.GON	  1051#
LG.HDX	  1052#
LG.NAX	  1053#
UUOSYM	MACRO %53B(1156)-1 13:38  8-Nov-85 Page 1
UUOSYM	MAC	11-Feb-72 22:37		UUOSYM


Symbol cross reference

LG.ND1	  1055#
LG.ND2	  1056#
LG.POR	  1057#
LG.TID	  1054#
LG.ZAP	  1050#
LXRBRK	   854#
LXRCHR	   853#
LXRESC	   848#
LXRGOB	   856#
LXRICL	   851#
LXROBS	   849#
LXROCL	   852#
LXRPSS	   850#
LXRYBS	   855#
MT.7TR	   901#
MT.EOT	   899#
MT.IBM	   900#
MT.LDP	   898#
MT.PRO	   896#
MT.TAB	   897#
MT1600	   903#
MT200	   906#
MT556	   905#
MT6250	   902#
MT800	   904#
PEBCN%	   586#
PEBVP%	   587#
PENVP%	   588#
PFBVP%	   616#
PFNEX%	   617#
PFNFP%	   618#
PRBVP%	   580#
PRNIW%	   582#
PRNVP%	   581#
PS.CPR	   614#
PS.DDE	   612#
PS.FIL	   613#
PS.MXW	   610#
PS.REF	   609#
PS.SUP	   611#
PS.UWS	   608#
PSBVP%	   615#
PTBCN%	   567#
PTBPR%	   569#
PTBVP%	   568#
PTNVP%	   570#
PTPRF%	   571#
RFBCN%	   605#
RFBFN%	   607#
RFBVP%	   606#
UUOSYM	MACRO %53B(1156)-1 13:38  8-Nov-85 Page 1
UUOSYM	MAC	11-Feb-72 22:37		UUOSYM


Symbol cross reference

RI.ADR	   604#
RI.VAL	   603#
RTAUX%	   829#
RTNRM%	   830#
RTSAC%	   822#
RTSCP%	   828#
RTSNA%	   826#
RTSNX%	   823#
RTTAC%	   824#
RTTAT%	   827#
RTTNX%	   825#
ST.WDR	   390#
ST.WDW	   391#
ST.WDY	   387#
ST.WRN	   388#
ST.WWT	   389#
SV.CCL	   463#
SV.CON	   466#
SV.DDT	   465#
SV.NSA	   462#
SV.REN	   464#
UUODEF	  1108#
VLBCN%	   594#
VLBVP%	   595#
VLIOE%	   597#
VLNVP%	   596#
WSBCN%	   572#
WSBFN%	   575#
WSBVP%	   573#
WSCTL%	   576#
WSEWL%	   577#
WSLGM%	   578#
WSLL3%	   579#
WSNVP%	   574#
.ARATT	   423#
.ARCHM	   403#
.ARCLR	   411#
.ARDET	   424#
.ARGVC	   427#
.ARGVP	   426#
.ARHLT	   408#
.ARHNG	   410#
.ARRAA	   415#
.ARRAC	   404#
.ARRAD	   418#
.ARRDM	   402#
.ARRDS	   417#
.ARRFI	   419#
.ARRPI	   420#
.ARRUN	   416#
UUOSYM	MACRO %53B(1156)-1 13:38  8-Nov-85 Page 1
UUOSYM	MAC	11-Feb-72 22:37		UUOSYM


Symbol cross reference

.ARRVA	   414#
.ARSAA	   413#
.ARSMF	   421#
.ARSTP	   409#
.ARSVA	   412#
.ARTKP	   425#
.ARVAR	   406#
.ARVAW	   407#
.ARWAC	   405#
.ARWAK	   422#
.AXBBP	    60#
.AXBS	    53#
.AXCBI	    12#
.AXCBO	    13#
.AXCFS	    58#
.AXCRD	    18#
.AXEBM	    34#
.AXEDE	    57#
.AXEP	    21#
.AXERA	    56#
.AXFC1	    30#
.AXFC2	    31#
.AXHD	    22#
.AXHNG	    54#
.AXHNX	    26#
.AXI8B	     8#
.AXI8C	     6#
.AXI8S	     7#
.AXIBR	    19#
.AXIBS	    36#
.AXIBW	    35#
.AXICS	    43#
.AXICW	    42#
.AXISL	    45#
.AXIWL	    44#
.AXLBM	    40#
.AXLCO	    59#
.AXLDE	    15#
.AXNTE	    27#
.AXO8	     9#
.AXO8I	    10#
.AXOB	    37#
.AXOBR	    20#
.AXOCI	    47#
.AXOPC	    61#
.AXOST	    48#
.AXPA	    23#
.AXPB	    24#
.AXPC	    25#
.AXPSM	    55#
UUOSYM	MACRO %53B(1156)-1 13:38  8-Nov-85 Page 1
UUOSYM	MAC	11-Feb-72 22:37		UUOSYM


Symbol cross reference

.AXPTR	    11#
.AXRBS	    50#
.AXRMX	    49#
.AXRVX	    51#
.AXS8B	    17#
.AXSFS	    32#
.AXSI	    33#
.AXSIC	    14#
.AXSIL	    46#
.AXSLV	    41#
.AXSOB	    62#
.AXSYB	    16#
.AXTBI	    38#
.AXTBK	    28#
.AXTBO	    39#
.AXTYP	    52#
.AXWID	    29#
.CHCFP	    96#
.CHCLS	    65#
.CHDFP	    94#
.CHENT	    69#
.CHFFI	   100#
.CHFSI	    87#
.CHFSO	    88#
.CHFTR	   101#
.CHGS	    79#
.CHIBF	    82#
.CHIN	    76#
.CHIPT	    67#
.CHLK	    68#
.CHMBF	    86#
.CHMEN	    97#
.CHMFP	    93#
.CHMGN	    92#
.CHMTA	    74#
.CHOBF	    83#
.CHOPN	    75#
.CHOPT	    66#
.CHOUT	    77#
.CHPSI	    89#
.CHPSO	    90#
.CHREL	    64#
.CHREN	    73#
.CHSK	    84#
.CHSMP	    99#
.CHSO	    81#
.CHSS	    78#
.CHSZ	    80#
.CHUFD	    91#
.CHUGF	    72#
UUOSYM	MACRO %53B(1156)-1 13:38  8-Nov-85 Page 1
UUOSYM	MAC	11-Feb-72 22:37		UUOSYM


Symbol cross reference

.CHUSI	    70#
.CHUSO	    71#
.CHVRB	    98#
.CHWT	    85#
.CHXFP	    95#
.CNDAT	  1029#
.CNDEV	  1032#
.CNDT0	  1026#
.CNFCW	  1047#
.CNFG0	  1025#
.CNFRE	  1037#
.CNHFD	  1045#
.CNHGH	  1044#
.CNJPH	  1043#
.CNJPM	  1042#
.CNJPS	  1041#
.CNLGO	  1040#
.CNLOC	  1038#
.CNNJB	  1033#
.CNNSM	  1036#
.CNOPR	  1031#
.CNPTS	  1039#
.CNS30	  1049#
.CNSCC	  1048#
.CNSER	  1035#
.CNSIZ	  1030#
.CNSTS	  1034#
.CNSYS	  1046#
.CNTAP	  1027#
.CNTIM	  1028#
.DCBBR	   783#
.DCCBP	   779#
.DCCDP	   777#
.DCCDR	   775#
.DCCFH	   776#
.DCCMD	   778#
.DCTCC	   771#
.DCTCN	   770#
.DCTDS	   767#
.DCTFS	   768#
.DCTPU	   772#
.DCTUF	   769#
.DCUBU	   782#
.DCUD1	   784#
.DCUD2	   785#
.DCUDP	   786#
.DCUM1	   788#
.DCUM2	   789#
.DCUSP	   787#
.ERAEF	   747#
UUOSYM	MACRO %53B(1156)-1 13:38  8-Nov-85 Page 1
UUOSYM	MAC	11-Feb-72 22:37		UUOSYM


Symbol cross reference

.ERBNF	   759#
.ERDNA	   752#
.ERFBM	   746#
.ERFNF	   743#
.ERILU	   754#
.ERIPP	   744#
.ERISU	   748#
.ERLKM	   761#
.ERNEC	   751#
.ERNET	   757#
.ERNRM	   755#
.ERNSD	   753#
.ERNSF	   750#
.ERNTR	   760#
.ERPOA	   758#
.ERPRT	   745#
.ERTRN	   749#
.ERWLK	   756#
.FOCAR	   127#
.FOCER	   128#
.FOCFH	   113#
.FOCFM	   104#
.FOCHR	   120#
.FOCLR	   115#
.FOCON	   124#
.FODFH	   114#
.FOGET	   129#
.FOGFT	   123#
.FOGIN	   125#
.FOHLT	   108#
.FOHST	   122#
.FOJMP	   103#
.FORAR	   117#
.FOREP	   110#
.FORER	   118#
.FORPC	   109#
.FORSI	   116#
.FORUN	   130#
.FORVA	   105#
.FOSAA	   107#
.FOSAV	   131#
.FOSMF	   119#
.FOSSA	   132#
.FOSVA	   121#
.FOVCH	   126#
.FOVCL	   112#
.FOVRM	   111#
.FOWVA	   106#
.FSDEF	   797#
.FSDSL	   796#
UUOSYM	MACRO %53B(1156)-1 13:38  8-Nov-85 Page 1
UUOSYM	MAC	11-Feb-72 22:37		UUOSYM


Symbol cross reference

.FSETS	   803#
.FSLOK	   799#
.FSRDF	   798#
.FSREM	   800#
.FSRRL	   804#
.FSSRC	   795#
.FSUCL	   802#
.FSULK	   801#
.GTAUN	   993#
.GTBCS	   999#
.GTBET	   982#
.GTBIO	   981#
.GTCIN	  1003#
.GTCNF	  1017#
.GTCNK	  1000#
.GTCOT	  1002#
.GTDLK	  1008#
.GTELP	  1001#
.GTERN	   985#
.GTFPN	   991#
.GTFTR	   970#
.GTJOB	   990#
.GTKCM	   977#
.GTKM1	  1013#
.GTKM2	   998#
.GTLIC	   996#
.GTLIM	   988#
.GTLIN	   989#
.GTLNK	   984#
.GTLOG	   992#
.GTLPS	   986#
.GTLVD	  1020#
.GTMC1	   997#
.GTMC2	   980#
.GTMCY	   976#
.GTMOD	   987#
.GTMPC	   975#
.GTNAM	  1011#
.GTNSW	  1018#
.GTODP	  1019#
.GTPNO	   972#
.GTPPN	  1010#
.GTPRV	  1014#
.GTPWS	   974#
.GTRCT	  1021#
.GTSIN	  1005#
.GTSLF	  1023#
.GTSLK	  1007#
.GTSOK	   983#
.GTSOT	  1004#
UUOSYM	MACRO %53B(1156)-1 13:38  8-Nov-85 Page 1
UUOSYM	MAC	11-Feb-72 22:37		UUOSYM


Symbol cross reference

.GTSPW	   973#
.GTSRN	  1006#
.GTSTS	  1009#
.GTSWP	  1015#
.GTTR1	  1012#
.GTTR2	   979#
.GTTRU	   978#
.GTTTY	  1016#
.GTUID	   971#
.GTUN1	   995#
.GTUNM	   994#
.GTWCT	  1022#
.GTWSC	  1024#
.IABRK	   930#
.IACHR	   929#
.IACLK	   940#
.IADEV	   944#
.IAERR	   949#
.IAESC	   928#
.IAFEL	   946#
.IAFEX	   951#
.IAFLL	   947#
.IAGOB	   938#
.IAHNG	   942#
.IAILM	   941#
.IAIOW	   931#
.IALOS	   933#
.IANTQ	   950#
.IAORG	   934#
.IAPSS	   936#
.IAREF	   948#
.IAROM	   932#
.IATIM	   943#
.IAUUO	   939#
.IAWAK	   945#
.IAYEL	   937#
.IAZAP	   935#
.IOASC	   663#
.IOASL	   664#
.IOBIN	   668#
.IODMP	   670#
.IODPR	   669#
.IOIBN	   667#
.IOIMG	   666#
.IOKAT	   665#
.JB41	   525#
.JBAPR	   541#
.JBBLT	   527#
.JBCHN	   545#
.JBCN6	   533#
UUOSYM	MACRO %53B(1156)-1 13:38  8-Nov-85 Page 1
UUOSYM	MAC	11-Feb-72 22:37		UUOSYM


Symbol cross reference

.JBCNI	   542#
.JBCNK	   532#
.JBCOR	   546#
.JBCST	   547#
.JBDA	   549#
.JBDDT	   530#
.JBFF	   539#
.JBH41	   551#
.JBHCR	   552#
.JBHCU	   529#
.JBHDA	   557#
.JBHGA	   556#
.JBHNM	   554#
.JBHRL	   535#
.JBHRN	   553#
.JBHSA	   550#
.JBHSM	   555#
.JBJDA	   531#
.JBMUU	   528#
.JBOPC	   544#
.JBPFI	   534#
.JBREL	   526#
.JBREN	   540#
.JBSA	   538#
.JBSYM	   536#
.JBTPC	   543#
.JBUSY	   537#
.JBUUO	   524#
.JBVER	   548#
.JPCON	   337#
.JPDET	   336#
.JPDTO	   338#
.JPLOG	   335#
.JPMPD	   346#
.JPMSU	   349#
.JPMXE	   347#
.JPMXJ	   348#
.LCRA	   365#
.LCRF	   364#
.LCRP	   363#
.LCWA	   369#
.LCWF	   368#
.LCWP	   367#
.LDACT	  1073#
.LDCBN	  1067#
.LDCRS	  1074#
.LDDRB	  1063#
.LDFSF	  1060#
.LDHLP	  1061#
.LDLKB	  1075#
UUOSYM	MACRO %53B(1156)-1 13:38  8-Nov-85 Page 1
UUOSYM	MAC	11-Feb-72 22:37		UUOSYM


Symbol cross reference

.LDMFD	  1058#
.LDQST	  1072#
.LDRPC	  1070#
.LDSPC	  1071#
.LDSPL	  1062#
.LDSTP	  1068#
.LDSTR	  1064#
.LDSWP	  1066#
.LDSYS	  1059#
.LDUFP	  1069#
.LDUNI	  1065#
.MT7E0	   889#
.MT7E1	   890#
.MT7E2	   891#
.MT7E3	   892#
.MTBLK	   881#
.MTBSF	   883#
.MTBSR	   878#
.MTDEC	   884#
.MTEOF	   876#
.MTEOT	   879#
.MTIC0	   885#
.MTIC1	   886#
.MTIC2	   887#
.MTIC3	   888#
.MTREW	   875#
.MTSKF	   882#
.MTSKR	   877#
.MTUNL	   880#
.MTWAT	   874#
.NSALR	  1091#
.NSCLW	  1080#
.NSCMX	  1076#
.NSCPE	  1085#
.NSCTL	  1077#
.NSHJB	  1079#
.NSLST	  1081#
.NSMMS	  1082#
.NSMPA	  1086#
.NSMPP	  1088#
.NSMPW	  1087#
.NSMWM	  1092#
.NSMXT	  1095#
.NSNMN	  1090#
.NSNUL	  1089#
.NSSPE	  1084#
.NSSTM	  1094#
.NSTPE	  1083#
.NSUID	  1093#
.NSUPT	  1078#
UUOSYM	MACRO %53B(1156)-1 13:38  8-Nov-85 Page 1
UUOSYM	MAC	11-Feb-72 22:37		UUOSYM


Symbol cross reference

.ODDCT	  1101#
.ODMXP	  1100#
.ODPRA	  1099#
.ODPRT	  1098#
.ODSWH	  1096#
.ODSWK	  1097#
.PRCW	   559#
.PRRO	   558#
.PRRW	   560#
.RBALC	   722#
.RBALP	   739#
.RBAUT	   735#
.RBDEV	   727#
.RBELB	   729#
.RBEST	   721#
.RBEXT	   716#
.RBFT1	   724#
.RBFUT	   720#
.RBLIC	   725#
.RBMTA	   726#
.RBMXA	   733#
.RBNAM	   715#
.RBPID	   742#
.RBPJC	   741#
.RBPOS	   723#
.RBPPN	   714#
.RBPRV	   717#
.RBQTF	   731#
.RBQTO	   732#
.RBSIZ	   718#
.RBSNM	   740#
.RBSTS	   728#
.RBTRU	   737#
.RBUNM	   736#
.RBUSD	   734#
.RBVER	   719#
.RBXT1	   730#
.RBXT2	   738#
.RFRBM	   175#
.RFRNG	   177#
.RFSBM	   176#
.SDDDA	   699#
.SDDDN	   698#
.SDFTA	   702#
.SDSTR	   701#
.SDUNI	   700#
.SRALL	   517#
.SRAUN	   521#
.SREXO	   515#
.SRJLL	   522#
UUOSYM	MACRO %53B(1156)-1 13:38  8-Nov-85 Page 1
UUOSYM	MAC	11-Feb-72 22:37		UUOSYM


Symbol cross reference

.SRLIC	   516#
.SRRCL	   518#
.SRSYL	   519#
.SRTYM	   520#
.SRWCL	   523#
.STBST	   287#
.STDAT	   285#
.STFAR	   283#
.STRES	   288#
.STSTA	   282#
.STTIM	   284#
.STTYO	   281#
.STWAT	   286#
.TCRDD	   266#
.TCRDF	   263#
.TCRFS	   261#
.TCRRD	   265#
.TCRRF	   262#
.TCRWF	   264#
.UGCNT	   893#
.UGSEN	   894#
.UGSTS	   895#
.WSRBM	   168#
.WSRLM	   172#
.WSRMX	   173#
.WSRNG	   169#
.WSRSZ	   171#
.WSSTL	   170#
.XCRCC	   191#
.XCRSC	   190#
.XCSAV	   189#
.XCSET	   192#
.XCTCC	   194#
.XCTRN	   193#
UUOSYM	MACRO %53B(1156)-1 13:38  8-Nov-85 Page 1
UUOSYM	MAC	11-Feb-72 22:37		UUOSYM


Macro/Opdef cross reference

APRENB	   242#
ATTACH	   229#
AUXCAL	     5#
AUXRED	   198#
BITPOK	   147#
BLTPAG	   145#
CHANIO	    63#
CHGPPN	   279#
CHKLIC	   211#
CHPRJ	   187#
CLBADD	   151#
CLBHNG	   159#
CLBINI	   154#
CLBINW	   153#
CLBLEV	   152#
CLBMEM	   156#
CLBRLI	   155#
CLBSTS	   157#
CLBWAK	   158#
CLOSE	   319#
CLRBFI	   301#
CLRBFO	   302#
CONT	   143#
CORE	   238#
CREAUX	   200#
DATE	   240#
DATUUO	   197#
DDTIN	   232#
DDTOUT	   234#
DEVCHR	   235#
DEVNAM	   275#
DEVPPN	   273#
DEVSIZ	   289#
DEVSTS	   272#
DISMIS	   217#
DSKCHR	   267#
DSKCLR	   218#
ENTER	   326#
EVICT	   136#
EXIT	   239#
FRMOP	   102#
GETCHR	   236#
GETLCH	   298#
GETLIN	   253#
GETPPN	   248#
GETSEG	   257#
GETSTS	   313#
GETTAB	   258#
GETTMC	   222#
GOBSTR	   276#
UUOSYM	MACRO %53B(1156)-1 13:38  8-Nov-85 Page 1
UUOSYM	MAC	11-Feb-72 22:37		UUOSYM


Macro/Opdef cross reference

HANG	   210#
HIBER	   277#
IN	   309#
INBUF	   315#
INCHRS	   294#
INCHRW	   292#
INCHSL	   297#
INCHWL	   296#
INIT	     4#
INPUT	   317#
INTACT	   207#
INTADR	   209#
INTASS	   206#
INTENB	   208#
IONEOU	   305#
JOBSTR	   269#
LEVDEF	   212#
LIGHTS	   230#
LOGIN	   241#
LOGOFF	   140#
LOGOUT	   243#
LOOKUP	   325#
MOVBUF	   213#
MSTIME	   247#
MTAPE	   321#
ONEJOB	   220#
OPEN	   290#
OUT	   310#
OUTBUF	   316#
OUTCHI	   306#
OUTCHR	   293#
OUTPTR	   307#
OUTPUT	   318#
OUTSTR	   295#
PAGSTS	   179#
PERSET	   178#
PGESTS	   163#
PGFSTS	   162#
PGISTS	   138#
PGRSTS	   137#
PIDSET	   146#
PJOB	   251#
POKE	   225#
POLPRT	   150#
PREREF	   166#
PUTLSA	   185#
PUTROY	   144#
PUTSAR	   186#
RDHIST	   148#
REASSI	   245#
UUOSYM	MACRO %53B(1156)-1 13:38  8-Nov-85 Page 1
UUOSYM	MAC	11-Feb-72 22:37		UUOSYM


Macro/Opdef cross reference

REDNXT	   223#
REDPIP	   201#
REFBIT	   174#
RELEAS	   320#
REMAP	   256#
RENAME	   308#
RESCAN	   300#
RESET	   231#
RETACH	   135#
RUN	   254#
RUNSEG	   215#
RUNTIM	   250#
SEEK	   274#
SETABK	   139#
SETALP	   141#
SETDDT	   233#
SETE	   228#
SETJAL	   219#
SETLCH	   299#
SETLIC	   227#
SETMAL	   221#
SETMOD	   214#
SETNAM	   259#
SETOTF	   142#
SETPRV	   226#
SETRCF	   195#
SETSTS	   311#
SETSTV	   133#
SETTIM	   205#
SETTR1	   204#
SETTR2	   203#
SETUUO	   280#
SETUWP	   255#
SKPINC	   303#
SKPINL	   304#
SLEEP	   252#
SNOOP	   149#
STATO	   312#
STATZ	   314#
STRUUO	   270#
SWITCH	   244#
SYSDVF	   216#
SYSPHY	   271#
SYSSTR	   268#
TIMER	   246#
TINASS	   202#
TMPCOR	   260#
TRPSET	   249#
TTCALL	   291#
TYMCHG	   196#
UUOSYM	MACRO %53B(1156)-1 13:38  8-Nov-85 Page 1
UUOSYM	MAC	11-Feb-72 22:37		UUOSYM


Macro/Opdef cross reference

UGETF	   322#
USETI	   323#
USETO	   324#
VALPAG	   165#
VCLEAR	   182#
VCREAT	   181#
VDSKPT	   161#
VFSTAT	   164#
VPEEK	   134#
VPGFIL	   160#
VPROT	   180#
VREMOV	   183#
VREPLC	   184#
WAIT	   237#
WAITCH	   224#
WAKE	   278#
WSCTL	   167#
XCHARG	   188#
ZAPCIR	   199#_
6y