UTLLIB -- UTILITY LIBRARY FOR NAME SCANNING FUNCTIONS.	MACRO %53B(1156)-1 10:57 24-Oct-83 Page 1
UTLLIB	MAC	10-Jun-72 17:54

     1					00020	TITLE UTLLIB -- UTILITY LIBRARY FOR NAME SCANNING FUNCTIONS.
     2					00040
     3			000001		00060	T1=1
     4			000002		00080	T2=2
     5			000003		00100	T3=3
     6			000004		00120	T4=4
     7			000006		00140	C=6
     8			000017		00160	P=17
     9					00180
    10					00200
    11					00220	INTERNAL RDNAM,RDEXT,RDUSN,RDSIX,RDNUM,USNSYS,OUTDEC
    12					00240	ENTRY RDNAM
    13					00260	EXTERNAL GETCHR
    14	000000'	402 00 0 04 000004 	00280	RDNAM:	SETZM 4(T4)	;ZERO SYSTEM NUMBER
    15	000001'	260 17 0 00 000052'	00300	RDNAM2:	PUSHJ P,SKPSP	;SKIP SPACES
    16	000002'	306 06 0 00 000100 	00320	RDNAM1:	CAIN C,"@"
    17					00340		 JRST [AOS (P)
    18	000003'	254 00 0 00 000141'	00360			JRST RDNAM2]	;GO GET NEXT CHARACTER.
    19	000004'	305 06 0 00 000040 	00380		CAIGE C,40
    20	000005'	254 00 0 00 000125'	00400		JRST WTLF	;PROBABLY A RETURN
    21	000006'	306 06 0 00 000050 	00420		CAIN C,"("
    22	000007'	254 00 0 00 000070'	00440		JRST RDUSN	;USER NAME
    23	000010'	306 06 0 00 000072 	00460		CAIN C,":"
    24	000011'	254 00 0 00 000046'	00480		JRST RDSYS	;SYSTEM NAME
    25	000012'	306 06 0 00 000056 	00500		CAIN C,"."
    26	000013'	254 00 0 00 000042'	00520		JRST RDEXT	;EXTENSION
    27	000014'	260 17 0 00 000021'	00540		PUSHJ P,RDSIX
    28	000015'	322 01 0 00 000125'	00560		JUMPE T1,WTLF	;NOTHING THERE
    29	000016'	202 01 0 04 000002 	00580		MOVEM T1,2(T4)
    30	000017'	402 00 0 04 000003 	00600		SETZM 3(T4)	;SAY NO EXTENSION
    31	000020'	254 00 0 00 000002'	00620		JRST RDNAM1
    32					00640
    33	000021'	201 01 0 00 000000 	00660	RDSIX:	MOVEI T1,0
    34	000022'	200 02 0 00 000143'	00680		MOVE T2,[POINT 6,T1]
    35	000023'	301 06 0 00 000140 	00700	RDSX1:	CAIL C,140
    36	000024'	275 06 0 00 000040 	00720		SUBI C,40
    37	000025'	307 06 0 00 000132 	00740		CAIG C,"Z"
    38	000026'	305 06 0 00 000060 	00760		CAIGE C,"0"
    39	000027'	263 17 0 00 000000 	00780		POPJ P,		;NOT LETTER OR DIGIT
    40	000030'	305 06 0 00 000101 	00800		CAIGE C,"A"
    41	000031'	307 06 0 00 000071 	00820		CAIG C,"9"
    42	000032'	334 00 0 00 000000 	00840		SKIPA
    43	000033'	263 17 0 00 000000 	00860		POPJ P,		;ALSO NOT LETTER OR DIGIT
    44	000034'	275 06 0 00 000040 	00880		SUBI C,40
    45	000035'	603 02 0 00 770000 	00900		TLNE T2,770000
    46	000036'	136 06 0 00 000002 	00920		IDPB C,T2	;DEPOSIT SIXBIT
    47	000037'	260 17 0 00 000000*	00940		PUSHJ P,GETCHR
    48	000040'	263 17 0 00 000000 	00960		 POPJ P,
    49	000041'	254 00 0 00 000023'	00980		JRST RDSX1
    50					01000
    51	000042'	260 17 0 00 000052'	01020	RDEXT:	PUSHJ P,SKPSP
    52	000043'	260 17 0 00 000021'	01040		PUSHJ P,RDSIX
    53	000044'	512 01 0 04 000003 	01060		HLLZM T1,3(T4)
    54	000045'	254 00 0 00 000002'	01080		JRST RDNAM1
    55					01100
UTLLIB -- UTILITY LIBRARY FOR NAME SCANNING FUNCTIONS.	MACRO %53B(1156)-1 10:57 24-Oct-83 Page 1-1
UTLLIB	MAC	10-Jun-72 17:54

    56	000046'	260 17 0 00 000052'	01120	RDSYS:	PUSHJ P,SKPSP
    57	000047'	260 17 0 00 000057'	01140		PUSHJ P,RDNUM
    58	000050'	202 01 0 04 000004 	01160		MOVEM T1,4(T4)
    59	000051'	254 00 0 00 000002'	01180		JRST RDNAM1
    60					01200
    61	000052'	260 17 0 00 000037*	01220	SKPSP:	PUSHJ P,GETCHR
    62	000053'	263 17 0 00 000000 	01240		 POPJ P,
    63	000054'	306 06 0 00 000040 	01260		CAIN C," "
    64	000055'	254 00 0 00 000052'	01280		JRST SKPSP
    65	000056'	263 17 0 00 000000 	01300		POPJ P,
    66					01320
    67	000057'	201 01 0 00 000000 	01340	RDNUM:	MOVEI T1,0
    68	000060'	307 06 0 00 000071 	01360	RDNUM1:	CAIG C,"9"
    69	000061'	305 06 0 00 000060 	01380		CAIGE C,"0"
    70	000062'	263 17 0 00 000000 	01400		POPJ P,
    71	000063'	221 01 0 00 000012 	01420		IMULI T1,^D10
    72	000064'	271 01 0 06 777720 	01440		ADDI T1,-"0"(C)
    73	000065'	260 17 0 00 000052*	01460		PUSHJ P,GETCHR
    74	000066'	263 17 0 00 000000 	01480		 POPJ P,
    75	000067'	254 00 0 00 000060'	01500		JRST RDNUM1
    76					01520
    77	000070'	200 01 0 00 000144'	01540	RDUSN:	MOVE T1,[POINT 6,(T4)]
    78	000071'	201 02 0 00 000014 	01560		MOVEI T2,^D12
    79	000072'	402 00 0 04 000000 	01580		SETZM (T4)
    80	000073'	402 00 0 04 000001 	01600		SETZM 1(T4)
    81	000074'	260 17 0 00 000052'	01620		PUSHJ P,SKPSP
    82	000075'	305 06 0 00 000040 	01640	RDUSN1:	CAIGE C,40
    83	000076'	254 00 0 00 000125'	01660		JRST WTLF
    84	000077'	306 06 0 00 000051 	01680		CAIN C,")"
    85	000100'	254 00 0 00 000001'	01700		JRST RDNAM2	;END OF USER NAME
    86	000101'	306 06 0 00 000072 	01720		CAIN C,":"
    87	000102'	254 00 0 00 000113'	01740		JRST USNSYS	;SYS NUMBER IN USER NAME
    88	000103'	301 06 0 00 000140 	01760		CAIL C,140
    89	000104'	275 06 0 00 000040 	01780		SUBI C,40
    90	000105'	275 06 0 00 000040 	01800		SUBI C,40
    91	000106'	333 00 0 00 000002 	01820		SKIPLE T2
    92	000107'	136 06 0 00 000001 	01840		IDPB C,T1
    93	000110'	260 17 0 00 000065*	01860		PUSHJ P,GETCHR
    94	000111'	263 17 0 00 000000 	01880		 POPJ P,
    95	000112'	364 02 0 00 000075'	01900		SOJA T2,RDUSN1
    96					01920
    97	000113'	260 17 0 00 000052'	01940	USNSYS:	PUSHJ P,SKPSP
    98	000114'	260 17 0 00 000057'	01960		PUSHJ P,RDNUM
    99	000115'	202 01 0 04 000004 	01980		MOVEM T1,4(T4)
   100	000116'	305 06 0 00 000040 	02000	USNSY1:	CAIGE C,40
   101	000117'	254 00 0 00 000125'	02020		JRST WTLF
   102	000120'	306 06 0 00 000051 	02040		CAIN C,")"
   103	000121'	254 00 0 00 000001'	02060		JRST RDNAM2
   104	000122'	260 17 0 00 000110*	02080		PUSHJ P,GETCHR
   105	000123'	263 17 0 00 000000 	02100		 POPJ P,
   106	000124'	254 00 0 00 000116'	02120		JRST USNSY1	;WAIT FOR END
   107					02140
   108	000125'	306 06 0 00 000012 	02160	WTLF:	CAIN C,12
   109	000126'	263 17 0 00 000000 	02180		POPJ P,
   110	000127'	260 17 0 00 000122*	02200		PUSHJ P,GETCHR
UTLLIB -- UTILITY LIBRARY FOR NAME SCANNING FUNCTIONS.	MACRO %53B(1156)-1 10:57 24-Oct-83 Page 1-2
UTLLIB	MAC	10-Jun-72 17:54

   111	000130'	263 17 0 00 000000 	02220		 POPJ P,
   112	000131'	254 00 0 00 000125'	02240		JRST WTLF
   113					02260
   114					02280
   115					02300
   116	000132'	231 01 0 00 000012 	02320	OUTDEC:	IDIVI T1,^D10
   117	000133'	506 02 0 17 000000 	02340		HRLM T2,(P)
   118	000134'	332 00 0 00 000001 	02360		SKIPE T1
   119	000135'	260 17 0 00 000132'	02380		PUSHJ P,OUTDEC
   120	000136'	554 01 0 17 000000 	02400		HLRZ T1,(P)
   121	000137'	051 16 0 01 000060 	02420		OUTCHI "0"(T1)
   122	000140'	263 17 0 00 000000 	02440		POPJ P,
   123					02460
   124					02480		END

NO ERRORS DETECTED

PROGRAM BREAK IS 000145
CPU TIME USED 00:05.146

10P CORE USED
UTLLIB -- UTILITY LIBRARY FOR NAME SCANNING FUNCTIONS.	MACRO %53B(1156)-1 10:57 24-Oct-83 Page S-1
UTLLIB	MAC	10-Jun-72 17:54		SYMBOL TABLE

C		000006
GETCHR		000127'	ext
OUTCHI	051700	000000
OUTDEC		000132'	int
P		000017
RDEXT		000042'	int
RDNAM		000000'	ent
RDNAM1		000002'
RDNAM2		000001'
RDNUM		000057'	int
RDNUM1		000060'
RDSIX		000021'	int
RDSX1		000023'
RDSYS		000046'
RDUSN		000070'	int
RDUSN1		000075'
SKPSP		000052'
T1		000001
T2		000002
T3		000003
T4		000004
USNSY1		000116'
USNSYS		000113'	int
WTLF		000125'


UTLLIB -- UTILITY LIBRARY FOR NAME SCANNING FUNCTIONS.	MACRO %53B(1156)-1 10:57 24-Oct-83 Page 1
UTLLIB	MAC	10-Jun-72 17:54


Symbol cross reference

C	     7#	    16	    19	    21	    23	    25	    35	    36	    37	    38	    40	    41	    44	    46
	    63	    68	    69	    72	    82	    84	    86	    88	    89	    90	    92	   100	   102	   108
GETCHR	    13#	    47	    61	    73	    93	   104	   110
OUTDEC	    11	   116#	   119
P	     8#	    15	    17	    27	    39	    43	    47	    48	    51	    52	    56	    57	    61	    62
	    65	    70	    73	    74	    81	    93	    94	    97	    98	   104	   105	   109	   110	   111
	   117	   119	   120	   122
RDEXT	    11	    26	    51#
RDNAM	    11	    12	    14#
RDNAM1	    16#	    31	    54	    59
RDNAM2	    15#	    18	    85	   103
RDNUM	    11	    57	    67#	    98
RDNUM1	    68#	    75
RDSIX	    11	    27	    33#	    52
RDSX1	    35#	    49
RDSYS	    24	    56#
RDUSN	    11	    22	    77#
RDUSN1	    82#	    95
SKPSP	    15	    51	    56	    61#	    64	    81	    97
T1	     3#	    28	    29	    33	    34	    53	    58	    67	    71	    72	    77	    92	    99	   116
	   118	   120	   121
T2	     4#	    34	    45	    46	    78	    91	    95	   117
T3	     5#
T4	     6#	    14	    29	    30	    53	    58	    77	    79	    80	    99
USNSY1	   100#	   106
USNSYS	    11	    87	    97#
WTLF	    20	    28	    83	   101	   108#	   112
UTLLIB -- UTILITY LIBRARY FOR NAME SCANNING FUNCTIONS.	MACRO %53B(1156)-1 10:57 24-Oct-83 Page 1
UTLLIB	MAC	10-Jun-72 17:54


Macro/Opdef cross reference

OUTCHI	   121