9310206011510CARL             3352477  0A           0 1    55 10000000      0830601
9310306221431CARL             3352477  0A           0 1    26 10000000      0830622
9313106291032KEN         000003035556  3            0 9     1     1180      0840629
9317406132108CARL        000003352477  0FOO         0 9    75   142956      0850613
