9303712081643LOIS             3367732  3            0 1     1 10000000      0830214
9307002141555LOIS             3367732  3            0 1     1 10000000      0830214
9307302150905LOIS             3367732  3            0 1     1 10000000      0830215
9307102150904LOIS             3367732  3            0 1     1 10000000      0830215
9307202150905LOIS             3367732  3            0 1     1 10000000      0830215
9307702160910LOIS             3367732  3            0 1     1 10000000      0830216
9307602160910LOIS             3367732  3            0 1     1 10000000      0830216
9307802181840LOIS             3367732  3            0 1     1 10000000      0830218
9307902181840LOIS             3367732  3            0 1     1 10000000      0830218
9308102231555SDUNHAM      11016107700  3.           01001   0     2365      1830223
9308102231555SDUNHAM      11016107700  3.           011     2 10     0      0830223
9308002231554SDUNHAM      11016107700  3.           01001   0    28260      1830223
9308002231554SDUNHAM      11016107700  3.           011    14 10     0      0830223
9308202241351BPUTNEY     021476213767201            0 9    10    15035      0830224
9308202241351BPUTNEY     021476213767201            0 9     5     7835      0830224
9308202241352BPUTNEY     021476213767201            0 9     6     5519      0830224
9308302241356BPUTNEY     021476213767201            0 9    10    15035      0830224
9308302241357BPUTNEY     021476213767201            0 9     5     7835      0830224
9308302241357BPUTNEY     021476213767201            0 9     6     5519      0830224
9311502090919MATOKA      000003160031  0            0 9    12    17755      0840209
9311602211223LOIS             3367732  3            0 1     2 10000000      0840221
9318402141525JMS         000003431116  34011        0 9   263   499979      0860214
9318502181840CARL        000003352477  0FOO         0 9    59   114458      0860218
9319802101131SCAPIK      000001022155  3            0 9     6     8393      0870210
9319802101131SCAPIK      000001022155  3            0 9     1      562      0870210
9319802101132SCAPIK      000001022155  3            0 9     1     1466      0870210
9319902101134SCAPIK      000001022155  3            0 9     6     8393      0870210
9319902101135SCAPIK      000001022155  3            0 9     1      562      0870210
9319902101135SCAPIK      000001022155  3            0 9     1     1466      0870210
9320002251324SCAPIK      000001022155  3            0 9     1      502      0870225
9320002251324SCAPIK      000001022155  3            0 9     1     1471      0870225
