9308603010901BPUTNEY     021476213767201            0 9     2     3600      0830301
9308703010902BPUTNEY     021476213767201            0 9     3     4800      0830301
9308803010913BPUTNEY     021476213767201            0 9     9    13200      0830301
9308903011415BPUTNEY     021476213767201            0 9    10    15035      0830301
9308903011415BPUTNEY     021476213767201            0 9     5     7835      0830301
9308903011416BPUTNEY     021476213767201            0 9     6     5519      0830301
9309003011423BPUTNEY     021476213767201            0 9    10    15035      0830301
9309003011423BPUTNEY     021476213767201            0 9     5     7835      0830301
9309003011424BPUTNEY     021476213767201            0 9     6     5519      0830301
9309103091407BPUTNEY     021476213767201            0 9     3     6400      0830309
9309203091408BPUTNEY     021476213767201            0 9     5    11484      0830309
9309203091410BPUTNEY     021476213767201            0 9    31    25972      0830309
9309303091427BPUTNEY     021476213767201            0 9     9    13791      0830309
9309403151011LOIS             3367732  3            0 1     1 10000000      0830315
9312403051745CARL        000003352477  0            0 9     1     1600      0840305
9312503051750CARL        000003352477  0            0 9     4    13221      0840305
9312603051752CARL        000003352477  0            0 9     4    13221      0840305
9312703051753CARL        000003352477  0            0 9     4    13221      0840305
9312803051755WILKES      014717300745  3            0 9    23    12044      0840305
9312803051756WILKES      014717300745  3            0 9    23    12044      0840305
9312803051757WILKES      014717300745  3            0 9    41    32985      0840305
9312803051758WILKES      014717300745  3            0 9    59    23362      0840305
9318603071126SCAPIK      000001022155  3            0 9     1     1105      0860307
9320103161640JMS         000003431116  390842       0 9     6     9200      0870316
9320203161645JMS         000003431116  390842       0 9    49   104076      0870316
9320303241710JMS         000003431116  390842       0 9     3     2400      0870324
9320403241713JMS         000003431116  390842       0 9    33    60983      0870324
9320403241715JMS         000003431116  390842       0 9    26    47662      0870324
