3200101181400SPPOPER     OSMAN         0            0000000000000000000000000000000
1190701181320SPPOPER     OSMAN         0            0000000000000000000000000000000
9316703291008OSMAN       OSMAN         0Y           0000000000000000000000000000000
