KSBLOD - LOAD BOOTS FROM RM03/RP06 for 2020	MACRO %53B(1155)-2 18:39 15-Dec-86 Page 1
KSBLOD	MAC	12-Jul-75 01:16		KS10 VERSION by Daniel S. Blom

     1					TITLE KSBLOD - LOAD BOOTS FROM RM03/RP06 for 2020
     2					SUBTTL KS10 VERSION by Daniel S. Blom
     3
     4					;This program reads in the bootstap program from any available unit,
     5					; trying them all by order of ascending unit number until no errors are
     6					; encountered.  KSBLOD itself is read in by the console processor and
     7					; must be one page long and start executing at location 1000.
     8					; This program is usually referred to as the, "Preboots," or, "Prebootstrap,"
     9					; program.  Since it ignores the communication words set up in core by
    10					; the 8080 before startup, the DS console command has no effect.
    11
    12					;The bootstrap program be located at the disk address FBOOTB, the symbol
    13					; defined below.  The value here and in KSFEFS must agree.
    14
    15			000011		OBOOTP==11		;Old BOOTS starting page number
    16			001600		OBOOTL==1600		;Old BOOTS length (in words)
    17			000003		NBOOTP==3		;New BOOTS starting page number
    18			003000		NBOOTL==3000		;New BOOTS length (in words)
    19			003000		IFG NBOOTL-OBOOTL,<BOOTL==NBOOTL;>BOOTL==OBOOTL	;Larger of the two
    20
    21		700600	000000			OPDEF	WRPI	[700600000000]	;CONO PI,
    22		700640	000000			OPDEF	RDPI	[700640000000]	;CONI PI,
    23		700200	000000			OPDEF	WRAPR	[700200000000]	;CONO APR,
    24		700240	000000			OPDEF	RDAPR	[700240000000]	;CONI APR,
    25		701100	000000			OPDEF	CLRPT	[701100000000]	;BLKO PAG,
    26		701200	000000			OPDEF	WREBR	[701200000000]	;CONO PAG,
    27		701240	000000			OPDEF	RDEBR	[701240000000]	;CONI PAG,
    28		701140	000000			OPDEF	WRUBR	[701140000000]	;DATAO PAG,
    29		701040	000000			OPDEF	RDUBR	[701040000000]	;DATAI PAG,
    30		710000	000000			OPDEF	TIOE	[710000000000]	;I/O REGISTER INSTRUCTIONS
    31		711000	000000			OPDEF	TION	[711000000000]
    32		712000	000000			OPDEF	RDIO	[712000000000]
    33		713000	000000			OPDEF	WRIO	[713000000000]
    34		714000	000000			OPDEF	BSIO	[714000000000]
    35		715000	000000			OPDEF	BCIO	[715000000000]
    36
    37					;WRPI definitions
    38			010000		LI.CPS==1B23		;Clear PI system
    39			000400		LI.PIF==1B27		;Turn PI system off
    40			001000		LI.COF==1B26		;Turn selected PI channels off
    41			000177		LI.ACO==177B35		;All channels
    42
    43					;WRAPR definitions
    44			020000		LP.CSF==1B22		;Clear select flags
    45			000400		LP.NXM==1B27		;Non-Existant Memory
    46
    47			303240		DELAY==^D100000		;Delay loop value
    48
    49						SALL		;Clean macro listings
    50
    51			000010		RH=1+<M=1+<T2=1+<T1=1+<D=1+<C=1+<B=1+<A=1>>>>>>>
KSBLOD - LOAD BOOTS FROM RM03/RP06 for 2020	MACRO %53B(1155)-2 18:39 15-Dec-86 Page 2
KSBLOD	MAC	12-Jul-75 01:16		KS10 VERSION by Daniel S. Blom

    52					;DEVICE REGISTER BIT ASSIGNMENTS.  SEE USER MANUAL FOR SEMANTICS.
    53
    54					DEFINE FOO(CSR,OFFSET,BITS,S),<IFNB <S>,<BIT==S;>BIT==100000
    55					CSR'OFS==OFFSET;;Address of Control/Status Register
    56					IRP BITS,<CSR'BITS==BIT;;Names of each bit
    57					BIT==BIT/2
    58					>>
    59
    60						SALL
    61					FOO (CS1,0,<SC,TRE,MCPE,,DVA,PSEL,A17,A16,RDY,IE,F4,F3,F2,F1,F0,GO>)
    62					    ;FUNCTION CODES + GO BIT.
    63			000021			F.RIP==21
    64			000011			F.DC==11
    65			000071			F.RD==71
    66			000007			F.RECA==7
    67					FOO (CS2,10,<DLT,WOE,UPE,NED,NEM,PGE,MXF,MDPE,OR,IR,CLR,PAT,BAI,U2,U1,U0>)
    68					FOO (DS,12,<ATA,ERR,PIP,MOL,WRL,LBT,PGM,DPR,DRY,VV,,,,,,OM>)
    69					FOO (WC,2)	;Word count
    70					FOO (BA,4)	;Base address
    71					FOO (DA,6)
    72					FOO (DT,26)
    73					FOO (DC,34)
    74					FOO (PGR,763000,<REV,DIS,FST,VAL>,400000)
    75					FOO (UA1,763100,<TO,BMD,PE,NED,HI,LI,PWR,DTR,INI>,400000)
    76						XALL
KSBLOD - LOAD BOOTS FROM RM03/RP06 for 2020	MACRO %53B(1155)-2 18:39 15-Dec-86 Page 3
KSBLOD	MAC	12-Jul-75 01:16		BOTLOD - Load BOOTS from the disk

    77					SUBTTL	BOTLOD - Load BOOTS from the disk
    78
    79	001000					LOC	1000		;8080 reads this in to location 1000
    80	001000				KSBLOD::
    81	001000	700 04 0 00 200000 	FIRST:	WRAPR	200000		;First instruction in BOTLOD and in BOOTS
    82	001001	700 04 0 00 020400 		WRAPR	LP.CSF+LP.NXM	;Clear NXM
    83	001002	700 14 0 00 011577 		WRPI	LI.CPS+LI.COF+LI.PIF+LI.ACO ;Turn off PI system
    84
    85			000000			ZZ==0			;Clear all AC blocks to avoid parity errors
    86					REPEAT 8,<	JSR	CLRACB
    87						 1B0+<ZZ>B9
    88						ZZ==ZZ+1> ; End REPEAT
    89	001003	264 00 0 00 001150 		JSR	CLRACB
    90	001004	400000	000000			 1B0+<ZZ>B9
    91			000001			ZZ==ZZ+1
    92	001005	264 00 0 00 001150 		JSR	CLRACB
    93	001006	400400	000000			 1B0+<ZZ>B9
    94			000002			ZZ==ZZ+1
    95	001007	264 00 0 00 001150 		JSR	CLRACB
    96	001010	401000	000000			 1B0+<ZZ>B9
    97			000003			ZZ==ZZ+1
    98	001011	264 00 0 00 001150 		JSR	CLRACB
    99	001012	401400	000000			 1B0+<ZZ>B9
   100			000004			ZZ==ZZ+1
   101	001013	264 00 0 00 001150 		JSR	CLRACB
   102	001014	402000	000000			 1B0+<ZZ>B9
   103			000005			ZZ==ZZ+1
   104	001015	264 00 0 00 001150 		JSR	CLRACB
   105	001016	402400	000000			 1B0+<ZZ>B9
   106			000006			ZZ==ZZ+1
   107	001017	264 00 0 00 001150 		JSR	CLRACB
   108	001020	403000	000000			 1B0+<ZZ>B9
   109			000007			ZZ==ZZ+1
   110	001021	264 00 0 00 001150 		JSR	CLRACB
   111	001022	403400	000000			 1B0+<ZZ>B9
   112			000010			ZZ==ZZ+1
   113
   114	001023	701 03 0 00 001165 		WRUBR	[1B0+0B9]	;Select AC block 0
   115
   116	001024	400 07 0 00 000000 		SETZ	M,		;Determine how much memory exists
   117	001025	271 07 0 00 002000 	TOPLP:	ADDI	M,2000
   118	001026	603 07 0 00 777777 		TLNE	M,-1		;Check first 256K
   119	001027	254 00 0 00 001034 		 JRST	TOPLP1
   120	001030	330 00 0 07 000000 		SKIP	(M)		;Touch it
   121	001031	700 05 0 00 000005 		RDAPR	T1
   122	001032	606 05 0 00 000400 		TRNN	T1,LP.NXM	;Stop at NXM
   123	001033	254 00 0 00 001025 		 JRST	TOPLP
   124	001034	275 07 0 00 004000 	TOPLP1:	SUBI	M,4000		;M points to 2K below top of core
   125	001035	200 05 0 00 001166 		MOVE	T1,[1,,UA1OFS]	;UBA ADDRESS
   126	001036	201 01 0 00 001000 		MOVEI	A,UA1INI	;SEND UNIBUS INIT.
   127	001037	713 01 0 05 000000 		WRIO	A,(T1)
KSBLOD - LOAD BOOTS FROM RM03/RP06 for 2020	MACRO %53B(1155)-2 18:39 15-Dec-86 Page 4
KSBLOD	MAC	12-Jul-75 01:16		BOTLOD - Load BOOTS from the disk

   128					;FIND UNIT AND TRY READING BOOTS FROM IT.
   129	001040	200 10 0 00 001167 		MOVE	RH,[1,,776700]	;RH11 BASE ADDRESS
   130	001041	205 05 0 00 777760 		MOVSI	T1,-8*2		;TRY ALL 8 UNITS twice
   131	001042	201 01 0 00 000040 	UNILP:	MOVEI	A,CS2CLR	;CLEAR RH11
   132	001043	713 01 0 10 000010 		WRIO	A,CS2OFS(RH)
   133	001044	200 01 0 00 000005 		MOVE	A,T1
   134	001045	405 01 0 00 000007 		ANDI	A,7
   135	001046	713 01 0 10 000010 		WRIO	A,CS2OFS(RH)	;SELECT UNIT
   136	001047	712 02 0 10 000012 		RDIO	B,DSOFS(RH)	;DRIVE EXISTS?
   137	001050	712 03 0 10 000010 		RDIO	C,CS2OFS(RH)
   138	001051	606 03 0 00 010000 		TRNN	C,CS2NED
   139	001052	606 02 0 00 010000 		TRNN	B,DSMOL
   140	001053	254 00 0 00 001146 		 JRST	UNINXT
   141	001054	201 02 0 00 000021 		MOVEI	B,F.RIP		;READ IN PRESET
   142	001055	713 02 0 10 000000 		WRIO	B,CS1OFS(RH)
   143	001056	201 04 0 00 303240 		MOVEI	D,DELAY
   144	001057	201 01 0 00 000200 		MOVEI	A,DSDRY		;WAIT UNTIL INITIALIZATION FINISHED
   145	001060	711 01 0 10 000012 		TION	A,DSOFS(RH)
   146	001061	367 04 0 00 001060 		 SOJG	D,.-1
   147	001062	323 04 0 00 001146 		JUMPLE	D,UNINXT
   148	001063	712 02 0 10 000012 		RDIO	B,DSOFS(RH)
   149	001064	602 02 0 00 040000 		TRNE	B,DSERR
   150	001065	254 00 0 00 001146 		 JRST	UNINXT
   151	001066	201 02 0 00 000007 		MOVEI	B,F.RECA
   152	001067	713 02 0 10 000000 		WRIO	B,CS1OFS(RH)	;ISSUE RECALIBRATE
   153	001070	201 04 0 00 303240 		MOVEI	D,DELAY
   154	001071	712 02 0 10 000012 		RDIO	B,DSOFS(RH)
   155	001072	606 02 0 00 000200 		TRNN	B,DSDRY
   156	001073	367 04 0 00 001071 		 SOJG	D,.-2
   157	001074	323 04 0 00 001146 		JUMPLE	D,UNINXT
   158	001075	602 02 0 00 040000 		TRNE	B,DSERR
   159	001076	254 00 0 00 001146 		 JRST	UNINXT
   160
   161					;FOUND A UNIT, TRY TO READ BOOTS FROM IT.
   162	001077	712 03 0 10 000026 		RDIO	C,DTOFS(RH)	;DRIVE TYPE
   163	001100	405 03 0 00 000002 		ANDI	C,2		;0, RM03; 2, RP06
   164	001101	602 05 0 00 000010 		TRNE	T1,10		;If second pass,
   165	001102	271 03 0 00 000001 		 ADDI	C,1		; try old location
   166	001103	550 01 0 03 001157 		HRRZ	A,BBAT(C)
   167	001104	713 01 0 10 000006 		WRIO	A,DAOFS(RH)	;Track and sector
   168	001105	554 01 0 03 001157 		HLRZ	A,BBAT(C)
   169	001106	713 01 0 10 000034 		WRIO	A,DCOFS(RH)	;Cylinder
   170	001107	405 03 0 00 000001 		ANDI	C,1		;0 = new, 1 = old
   171	001110	200 01 0 03 001163 		MOVE	A,WORDS(C)
   172	001111	713 01 0 10 000002 		WRIO	A,WCOFS(RH)	;Negative word count
   173	001112	201 02 0 07 001000 		MOVEI	B,1000(M)	;Leave 1 page for BOOTS to work with
   174	001113	400 01 0 00 000000 		SETZ	A,
   175	001114	245 01 0 00 777767 		ROTC	A,-9		;B has PDP-10 physical page number
   176	001115	241 01 0 00 000013 		ROT	A,9+2		;A has PDP-11 offset within page
   177	001116	713 01 0 10 000004 		WRIO	A,BAOFS(RH)
   178	001117	200 01 0 00 001170 		MOVE	A,[1,,PGROFS]	;Set UNIBUS to KS10 paging registers
   179	001120	660 02 0 00 140000 		TRO	B,PGRFST+PGRVAL
   180					REPEAT <BOOTL+777>/1000,
   181					<	WRIO	B,@A		;Set paging register
   182						ADDI	B,1
KSBLOD - LOAD BOOTS FROM RM03/RP06 for 2020	MACRO %53B(1155)-2 18:39 15-Dec-86 Page 4-1
KSBLOD	MAC	12-Jul-75 01:16		BOTLOD - Load BOOTS from the disk

   183						ADDI	A,1	>
   184	001121	713 02 1 00 000001 		WRIO	B,@A		;Set paging register
   185	001122	271 02 0 00 000001 		ADDI	B,1
   186	001123	271 01 0 00 000001 		ADDI	A,1
   187	001124	713 02 1 00 000001 		WRIO	B,@A		;Set paging register
   188	001125	271 02 0 00 000001 		ADDI	B,1
   189	001126	271 01 0 00 000001 		ADDI	A,1
   190	001127	713 02 1 00 000001 		WRIO	B,@A		;Set paging register
   191	001130	271 02 0 00 000001 		ADDI	B,1
   192	001131	271 01 0 00 000001 		ADDI	A,1
   193	001132	201 01 0 00 000071 		MOVEI	A,F.RD		;ISSUE READ DATA COMMAND
   194	001133	713 01 0 10 000000 		WRIO	A,CS1OFS(RH)
   195	001134	201 04 0 00 303240 		MOVEI	D,DELAY
   196	001135	712 02 0 10 000000 		RDIO	B,CS1OFS(RH)
   197	001136	606 02 0 00 000200 		TRNN	B,CS1RDY
   198	001137	367 04 0 00 001135 		 SOJG	D,.-2
   199	001140	323 04 0 00 001146 		JUMPLE	D,UNINXT
   200	001141	602 02 0 00 040000 		TRNE	B,CS1TRE
   201	001142	254 00 0 00 001146 		 JRST	UNINXT
   202	001143	200 01 0 07 001000 		MOVE	A,1000(M)	;Check first word read it
   203	001144	316 01 0 00 001000 		CAMN	A,FIRST
   204	001145	254 00 0 07 001000 		 JRST	1000(M)		;GO
   205	001146	253 05 0 00 001042 	UNINXT:	AOBJN	T1,UNILP
   206	001147	254 04 0 00 001001 		JRST	4,1001		;1001 is code for "CANNOT READ BOOTS"
   207
   208	001150	000000	000000		CLRACB:	0			;Routine to clear an AC block
   209	001151	701 03 1 00 001150 		WRUBR	@CLRACB		;Next word in line is argument
   210	001152	551 17 0 00 000001 		HRRZI	17,1
   211	001153	400 00 0 00 000000 		SETZ
   212	001154	251 17 0 00 000017 		BLT	17,17
   213	001155	350 00 0 00 001150 		AOS	CLRACB		;Skip over argument
   214	001156	254 00 1 00 001150 		JRST	@CLRACB
   215
   216					;The following specify the disk address of the bootstrap program.
   217
   218					DEFINE DSKADR(BB,HEADS,SECS) <RADIX 5+5
   219						CYL==<BB*4>/<HEADS*SECS>
   220						TRACK==<<BB*4>-<CYL*HEADS*SECS>>/SECS
   221						SECTOR==<BB*4>-<CYL*HEADS*SECS>-<TRACK*SECS>
   222						XWD	CYL,TRACK*256+SECTOR
   223					RADIX 8> ; End Define dskadr
   224
   225	001157				BBAT:	DSKADR(NBOOTP,5,30)^	; RM03 has 5 surfaces with 30 blocks per track
   226	001157	000000	000014			XWD	CYL,TRACK*256+SECTOR
   227						DSKADR(OBOOTP,5,30)^	; Check page 3 then page 9
   228	001160	000000	000406			XWD	CYL,TRACK*256+SECTOR
   229						DSKADR(NBOOTP,19,20)^	; RP06 has 19 surfaces with 20 blocks per track
   230	001161	000000	000014			XWD	CYL,TRACK*256+SECTOR
   231						DSKADR(OBOOTP,19,20)^	; Check page 3 then page 9
   232	001162	000000	000420			XWD	CYL,TRACK*256+SECTOR
   233	001163	777777	772000		WORDS:	EXP -NBOOTL*2,-OBOOTL*2	; Two 18-bit words per 36-bit word
   234	001164	777777	774400
   235	001165				LIT
   236	001165	400000	000000
   237	001166	000001	763100
KSBLOD - LOAD BOOTS FROM RM03/RP06 for 2020	MACRO %53B(1155)-2 18:39 15-Dec-86 Page 4-2
KSBLOD	MAC	12-Jul-75 01:16		BOTLOD - Load BOOTS from the disk

   238	001167	000001	776700
   239	001170	000001	763000
   240	001171				VAR
   241
   242					ifge .-2000,<
   243					Printx KSBLOD must fit on one page.
   244					>
   245	001640'					RELOC	2000-140	;Pad out page with zeros
   246	001640'				%2000::
   247	001640'	000000	000017		OPNBLK:	17
   248	001641'	44 63 53 00 00 00 		SIXBIT	/DSK/
   249	001642'	000000	000000			0
   250
   251	001643'	53 63 42 54 57 44 	ENTBLK:	SIXBIT	/KSBLOD/
   252	001644'	44 55 60 00 00 00 		SIXBIT	/DMP/
   253	001645'	000000	000000			EXP	0,0
   254	001646'	000000	000000
   255
   256	001647'	777000	000777		OUTBLK:	IOWD	1000,KSBLOD
   257	001650'	000000	000000			0
   258
   259	001651'	047 00 0 00 000000 	DUMP::	RESET			;Run this program in user mode
   260	001652'	050 00 0 00 001640'		OPEN	0,OPNBLK
   261	001653'	254 04 0 00 001653'		 JRST 4,.
   262	001654'	077 00 0 00 001643'		ENTER	0,ENTBLK	;Create DSK:KSBLOD.TMP
   263	001655'	254 04 0 00 001655'		 JRST 4,.
   264	001656'	067 00 0 00 001647'		OUTPUT	0,OUTBLK
   265	001657'	047 00 0 00 000012 		EXIT
   266	001660'				DDT::				;If EDDT is loaded, it must be here
   267			001651'			END	DUMP

NO ERRORS DETECTED

PROGRAM BREAK IS 001660
ABSOLUTE BREAK IS 001171
CPU TIME USED 00:11.771

10P CORE USED
KSBLOD - LOAD BOOTS FROM RM03/RP06 for 2020	MACRO %53B(1155)-2 18:39 15-Dec-86 Page S-1
KSBLOD	MAC	12-Jul-75 01:16		SYMBOL TABLE

A		000001		DSERR		040000	spd	UA1INI		001000	spd
B		000002		DSLBT		002000	spd	UA1LI		010000	spd
BAOFS		000004	spd	DSMOL		010000	spd	UA1NED		040000	spd
BBAT		001157		DSOFS		000012	spd	UA1OFS		763100	spd
BCIO	715000	000000		DSOM		000001	spd	UA1PE		100000	spd
BIT		000400	spd	DSPGM		001000	spd	UA1PWR		004000	spd
BOOTL		003000	spd	DSPIP		020000	spd	UA1TO		400000	spd
BSIO	714000	000000		DSVV		000100	spd	UNILP		001042
C		000003		DSWRL		004000	spd	UNINXT		001146
CLRACB		001150		DTOFS		000026	spd	WCOFS		000002	spd
CLRPT	701100	000000		DUMP		001651'	int	WORDS		001163
CS1		010000	spd	ENTBLK		001643'		WRAPR	700200	000000
CS1A16		000400	spd	EXIT	047000	000012		WREBR	701200	000000
CS1A17		001000	spd	F.DC		000011	spd	WRIO	713000	000000
CS1DVA		004000	spd	F.RD		000071	spd	WRPI	700600	000000
CS1F0		000002	spd	F.RECA		000007	spd	WRUBR	701140	000000
CS1F1		000004	spd	F.RIP		000021	spd	ZZ		000010	spd
CS1F2		000010	spd	FIRST		001000		%2000		001640'	int
CS1F3		000020	spd	KSBLOD		001000	int
CS1F4		000040	spd	LI.ACO		000177	spd
CS1GO		000001	spd	LI.COF		001000	spd
CS1IE		000100	spd	LI.CPS		010000	spd
CS1MCP		020000	spd	LI.PIF		000400	spd
CS1OFS		000000	spd	LP.CSF		020000	spd
CS1PSE		002000	spd	LP.NXM		000400	spd
CS1RDY		000200	spd	M		000007
CS1SC		100000	spd	NBOOTL		003000	spd
CS1TRE		040000	spd	NBOOTP		000003	spd
CS2BAI		000010	spd	OBOOTL		001600	spd
CS2CLR		000040	spd	OBOOTP		000011	spd
CS2DLT		100000	spd	OPNBLK		001640'
CS2IR		000100	spd	OUTBLK		001647'
CS2MDP		000400	spd	PGRDIS		200000	spd
CS2MXF		001000	spd	PGRFST		100000	spd
CS2NED		010000	spd	PGROFS		763000	spd
CS2NEM		004000	spd	PGRREV		400000	spd
CS2OFS		000010	spd	PGRVAL		040000	spd
CS2OR		000200	spd	RDAPR	700240	000000
CS2PAT		000020	spd	RDEBR	701240	000000
CS2PGE		002000	spd	RDIO	712000	000000
CS2U0		000001	spd	RDPI	700640	000000
CS2U1		000002	spd	RDUBR	701040	000000
CS2U2		000004	spd	RESET	047000	000000
CS2UPE		020000	spd	RH		000010
CS2WOE		040000	spd	SECTOR		000020	spd
CYL		000000	spd	T1		000005
D		000004		T2		000006
DAOFS		000006	spd	TIOE	710000	000000
DCOFS		000034	spd	TION	711000	000000
DDT		001660'	int	TOPLP		001025
DELAY		303240	spd	TOPLP1		001034
DS		000002	spd	TRACK		000001	spd
DSATA		100000	spd	UA1BMD		200000	spd
DSDPR		000400	spd	UA1DTR		002000	spd
DSDRY		000200	spd	UA1HI		020000	spd

KSBLOD - LOAD BOOTS FROM RM03/RP06 for 2020	MACRO %53B(1155)-2 18:39 15-Dec-86 Page 1
KSBLOD	MAC	12-Jul-75 01:16		KS10 VERSION by Daniel S. Blom


Symbol cross reference

A	    51#	   126	   127	   131	   132	   133	   134	   135	   144	   145	   166	   167	   168	   169
	   171	   172	   174	   175	   176	   177	   178	   184	   186	   187	   189	   190	   192	   193
	   194	   202	   203
B	    51#	   136	   139	   141	   142	   148	   149	   151	   152	   154	   155	   158	   173	   179
	   184	   185	   187	   188	   190	   191	   196	   197	   200
BAOFS	    70#	   177
BBAT	   166	   168	   225#
BIT	    61#	    61	    67#	    67	    68#	    68	    69#	    70#	    71#	    72#	    73#	    74#	    74	    75#
	    75
BOOTL	    19#	   180
C	    51#	   137	   138	   162	   163	   165	   166	   168	   170	   171
CLRACB	    89	    92	    95	    98	   101	   104	   107	   110	   208#	   209	   213	   214
CS1	    61#
CS1A16	    61#
CS1A17	    61#
CS1DVA	    61#
CS1F0	    61#
CS1F1	    61#
CS1F2	    61#
CS1F3	    61#
CS1F4	    61#
CS1GO	    61#
CS1IE	    61#
CS1MCP	    61#
CS1OFS	    61#	   142	   152	   194	   196
CS1PSE	    61#
CS1RDY	    61#	   197
CS1SC	    61#
CS1TRE	    61#	   200
CS2BAI	    67#
CS2CLR	    67#	   131
CS2DLT	    67#
CS2IR	    67#
CS2MDP	    67#
CS2MXF	    67#
CS2NED	    67#	   138
CS2NEM	    67#
CS2OFS	    67#	   132	   135	   137
CS2OR	    67#
CS2PAT	    67#
CS2PGE	    67#
CS2U0	    67#
CS2U1	    67#
CS2U2	    67#
CS2UPE	    67#
CS2WOE	    67#
CYL	   226#	   226	   228#	   228	   230#	   230	   232#	   232
D	  	   143	   146	   147	   153	   156	   157	   195	   198	   199
DAOFS	    71#	   167
DCOFS	    73#	   169
KSBLOD - LOAD BOOTS FROM RM03/RP06 for 2020	MACRO %53B(1155)-2 18:39 15-Dec-86 Page 1
KSBLOD	MAC	12-Jul-75 01:16		KS10 VERSION by Daniel S. Blom


Symbol cross reference

DDT	   266#
DELAY	    47#	   143	   153	   195
DS	    68#
DSATA	    68#
DSDPR	    68#
DSDRY	    68#	   144	   155
DSERR	    68#	   149	   158
DSLBT	    68#
DSMOL	    68#	   139
DSOFS	    68#	   136	   145	   148	   154
DSOM	    68#
DSPGM	    68#
DSPIP	    68#
DSVV	    68#
DSWRL	    68#
DTOFS	    72#	   162
DUMP	   259#	   267
ENTBLK	   251#	   262
F.DC	    64#
F.RD	    65#	   193
F.RECA	    66#	   151
F.RIP	    63#	   141
FIRST	    81#	   203
KSBLOD	    80#	   256
LI.ACO	    41#	    83
LI.COF	    40#	    83
LI.CPS	    38#	    83
LI.PIF	    39#	    83
LP.CSF	    44#	    82
LP.NXM	    45#	    82	   122
M	    51#	   116	   117	   118	   120	   124	   173	   202	   204
NBOOTL	    18#	    19	   233
NBOOTP	    17#	   226	   230
OBOOTL	    16#	    19	   233
OBOOTP	    15#	   228	   232
OPNBLK	   247#	   260
OUTBLK	   256#	   264
PGRDIS	    74#
PGRFST	    74#	   179
PGROFS	    74#	   178
PGRREV	    74#
PGRVAL	    74#	   179
RH	    51#	   129	   132	   135	   136	   137	   142	   145	   148	   152	   154	   162	   167	   169
	   172	   177	   194	   196
SECTOR	   226#	   226	   228#	   228	   230#	   230	   232#	   232
T1	    51#	   121	   122	   125	   127	   130	   133	   164	   205
T2	    51#
TOPLP	   117#	   123
TOPLP1	   119	   124#
TRACK	   226#	   226	   228#	   228	   230#	   230	   232#	   232
KSBLOD - LOAD BOOTS FROM RM03/RP06 for 2020	MACRO %53B(1155)-2 18:39 15-Dec-86 Page 1
KSBLOD	MAC	12-Jul-75 01:16		KS10 VERSION by Daniel S. Blom


Symbol cross reference

UA1BMD	    75#
UA1DTR	    75#
UA1HI	    75#
UA1INI	    75#	   126
UA1LI	    75#
UA1NED	    75#
UA1OFS	    75#	   125
UA1PE	    75#
UA1PWR	    75#
UA1TO	    75#
UNILP	   131#	   205
UNINXT	   140	   147	   150	   157	   159	   199	   201	   205#
WCOFS	    69#	   172
WORDS	   171	   233#
ZZ	    85#	    90	    91	    91#	    93	    94	    94#	    96	    97	    97#	    99	   100	   100#	   102
	   103	   103#	   105	   106	   106#	   108	   109	   109#	   111	   112	   112#
%2000	   246#
KSBLOD - LOAD BOOTS FROM RM03/RP06 for 2020	MACRO %53B(1155)-2 18:39 15-Dec-86 Page 1
KSBLOD	MAC	12-Jul-75 01:16		KS10 VERSION by Daniel S. Blom


Macro/Opdef cross reference

BCIO	    35#
BSIO	    34#
CLRPT	    25#
DSKADR	   218#	   225	   227	   229	   231
EXIT	   265
FOO	    54#	    61	    67	    68	    69	    70	    71	    72	    73	    74	    75
RDAPR	    24#	   121
RDEBR	    27#
RDIO	    32#	   136	   137	   148	   154	   162	   196
RDPI	    22#
RDUBR	    29#
RESET	   259
TIOE	    30#
TION	    31#	   145
WRAPR	    23#	    81	    82
WREBR	    26#
WRIO	    33#	   127	   132	   135	   142	   152	   167	   169	   172	   177	   184	   187	   190	   194
WRPI	    21#	    83
WRUBR	    28#	   114	   209y{Ugh