SEDTTY - CSM supported terminal definitions for the editor	MACRO %53B(1155)-2 17:05 16-Oct-85 Page 1
SEDTTY	MAC	18-Apr-74 21:56		Modified by Joe Smith, 1-May-82

     1					TITLE	SEDTTY - CSM supported terminal definitions for the editor
     2					SUBTTL	Modified by Joe Smith, 1-May-82
     3
     4					;Load the editor by: .COMPILE SEDSYM.MAC	;Create SEDSYM.UNV
     5					;		     .LOAD SEDTTY.MAC,SED.MAC	;SED.REL must come last
     6
     7
     8						SEARCH	SEDSYM
     9					TOPS10^IFE TOPS-10,^<	SEARCH	UUOSYM >
    10					TOPS20^IFE TOPS-20,^<	SEARCH	MONSYM >
    11					TOPS30^IFE TOPS-<10+20>,^<	SEARCH	UUOSYM,MONSYM>
    12					IFTYM^IFN FT$TYM,^<	SEARCH	UUOTYM >	;TYMSHARE's TYMCOM-X monitor
    13
    14						IFNDEF ITTYPE,< ITTYPE=0 >	;Do not call ".TTYPE", rely on TRMOP.
    15					IFN ITTYPE,< .REQUIRE REL:ITTYPE >	;Load routine .TTYPE
    16						IFNDEF BUG102,< BUG102==-1 >	;VT100 with printer port has a bug
    17
    18	400000'					TWOSEG				;Start off in the lowseg
    19	400000'					RELOC	400000			;To HISEG
    20
    21						EXTERN	PUTSQ1,PUTSTG,PUTTYP,PUTNUM ;Output routines
    22						EXTERN	TRMNAM			;SIXBIT terminal name specified by user
    23
    24						INTERN	TERMNL			;Default dispatch address
    25
    26
    27					;=============================================================================
    28
    29
    30						DEFINE TRMS,<
    31						X ADM3A, DADM3A		;Lear Seigler Dumb Terminal
    32						X ADM5,  DADM5		;Lear Seigler Dumb Terminal
    33						X APPLE8,DAPPLE		;APPLE //e with 80-column card
    34						X CONCEP,DCONCE		;concept 100 from hds
    35						X CON108,DCON08		;concept 108
    36						X GIGI,  DGIGI		;VK100
    37						X H19,   DH19		;Heathkit H19 in VT52 mode
    38						X H19A,  DH19A		;Heathkit H19 in ANSI mode
    39						X HP2621,DH2621		;Hewlett Packard 2621
    40						X TVI910,DTV910		;Televideo 910
    41						X TVI925,DTV925		;Televideo 925
    42						X TVI950,DTV950		;Televideo 950
    43						X VIS200,DVIS20		;VISUAL-200 in VT52+ mode
    44						X VK100, DVK100		;GIGI
    45						X VT52,  DVT52		;Any VT52 look-alike
    46						X VT100, DVT100		;VT100, VT101, VT125, etc
    47						X VT102, DVT102		;With insert char, delete char
    48						X VT220, DVT220		;Similar to VT102
    49					>  ;End of DEFINE TRMS
SEDTTY - CSM supported terminal definitions for the editor	MACRO %53B(1155)-2 17:05 16-Oct-85 Page 2
SEDTTY	MAC	18-Apr-74 21:56		List of supported terminal types

    50					SUBTTL	List of supported terminal types
    51
    52						DEFINE	X(NAM,DIS),<
    53						SIXBIT /NAM/	>
    54
    55						XALL
    56	400000'				TNAMES:	TRMS	^		;Expand table of SIXBIT names
    57	400000'	41 44 55 23 41 00 		SIXBIT /ADM3A/	^;Lear Seigler Dumb Terminal
    58	400001'	41 44 55 25 00 00 		SIXBIT /ADM5/	^;Lear Seigler Dumb Terminal
    59	400002'	41 60 60 54 45 30 		SIXBIT /APPLE8/	^;APPLE //e with 80-column card
    60	400003'	43 57 56 43 45 60 		SIXBIT /CONCEP/	^;concept 100 from hds
    61	400004'	43 57 56 21 20 30 		SIXBIT /CON108/	^;concept 108
    62	400005'	47 51 47 51 00 00 		SIXBIT /GIGI/	^;VK100
    63	400006'	50 21 31 00 00 00 		SIXBIT /H19/	^;Heathkit H19 in VT52 mode
    64	400007'	50 21 31 41 00 00 		SIXBIT /H19A/	^;Heathkit H19 in ANSI mode
    65	400010'	50 60 22 26 22 21 		SIXBIT /HP2621/	^;Hewlett Packard 2621
    66	400011'	64 66 51 31 21 20 		SIXBIT /TVI910/	^;Televideo 910
    67	400012'	64 66 51 31 22 25 		SIXBIT /TVI925/	^;Televideo 925
    68	400013'	64 66 51 31 25 20 		SIXBIT /TVI950/	^;Televideo 950
    69	400014'	66 51 63 22 20 20 		SIXBIT /VIS200/	^;VISUAL-200 in VT52+ mode
    70	400015'	66 53 21 20 20 00 		SIXBIT /VK100/	^;GIGI
    71	400016'	66 64 25 22 00 00 		SIXBIT /VT52/	^;Any VT52 look-alike
    72	400017'	66 64 21 20 20 00 		SIXBIT /VT100/	^;VT100, VT101, VT125, etc
    73	400020'	66 64 21 20 22 00 		SIXBIT /VT102/	^;With insert char, delete char
    74	400021'	66 64 22 22 20 00 		SIXBIT /VT220/	^;Similar to VT102
    75			000022		NUMTRM==.-TNAMES
    76
    77						DEFINE	X(NAM,DIS),<
    78						EXP	DIS	>
    79
    80	400022'				DSPTAB:	TRMS	^		;Table of dispatch table addresses
    81	400022'	000000	401042'			EXP	DADM3A	^;Lear Seigler Dumb Terminal
    82	400023'	000000	401042'			EXP	DADM5	^;Lear Seigler Dumb Terminal
    83	400024'	000000	401042'			EXP	DAPPLE	^;APPLE //e with 80-column card
    84	400025'	000000	000117'			EXP	DCONCE	^;concept 100 from hds
    85	400026'	000000	000117'			EXP	DCON08	^;concept 108
    86	400027'	000000	000151'			EXP	DGIGI	^;VK100
    87	400030'	000000	000000'			EXP	DH19	^;Heathkit H19 in VT52 mode
    88	400031'	000000	000151'			EXP	DH19A	^;Heathkit H19 in ANSI mode
    89	400032'	000000	000065'			EXP	DH2621	^;Hewlett Packard 2621
    90	400033'	000000	401042'			EXP	DTV910	^;Televideo 910
    91	400034'	000000	401042'			EXP	DTV925	^;Televideo 925
    92	400035'	000000	401042'			EXP	DTV950	^;Televideo 950
    93	400036'	000000	000033'			EXP	DVIS20	^;VISUAL-200 in VT52+ mode
    94	400037'	000000	000151'			EXP	DVK100	^;GIGI
    95	400040'	000000	000000'			EXP	DVT52	^;Any VT52 look-alike
    96	400041'	000000	000151'			EXP	DVT100	^;VT100, VT101, VT125, etc
    97	400042'	000000	000151'			EXP	DVT102	^;With insert char, delete char
    98	400043'	000000	000151'			EXP	DVT220	^;Similar to VT102
    99
   100						SALL
SEDTTY - CSM supported terminal definitions for the editor	MACRO %53B(1155)-2 17:05 16-Oct-85 Page 3
SEDTTY	MAC	18-Apr-74 21:56		Table of Contents

   101					SUBTTL	Table of Contents
   102
   103					;           Table of Contents for SED Terminal Handler
   104					;
   105					;
   106					;			   Section			      Page
   107					;
   108					;    1. List of supported terminal types . . . . . . . . . . .   2
   109					;    2. Table of Contents  . . . . . . . . . . . . . . . . . .   3
   110					;    3. Get terminal type
   111					;         3.1   Common . . . . . . . . . . . . . . . . . . . .   4
   112					;         3.2   TOPS20 . . . . . . . . . . . . . . . . . . . .   5
   113					;         3.3   TOPS10 . . . . . . . . . . . . . . . . . . . .   6
   114					;    4. Input table
   115					;         4.1   VT52, VT100, VIS200  . . . . . . . . . . . . .   7
   116					;         4.2   CONCEP, HP2621 . . . . . . . . . . . . . . . .   8
   117					;         4.3   ADM3A, TV910, TV950  . . . . . . . . . . . . .   9
   118					;    5. VT52
   119					;         5.1   Dispatch table . . . . . . . . . . . . . . . .  10
   120					;         5.2   Entry, Exit, and cursor positioning routines .  11
   121					;    6. VIS200
   122					;         6.1   Dispatch table (uses VT52 output routines) . .  12
   123					;    7. HP2621
   124					;         7.1   Dispatch table . . . . . . . . . . . . . . . .  13
   125					;         7.2   Entry, Exit, and cursor positioning routines .  14
   126					;    8. CONCEP
   127					;         8.1   Dispatch table . . . . . . . . . . . . . . . .  15
   128					;         8.2   Entry, Exit, and cursor positioning routines .  16
   129					;    9. VT100
   130					;         9.1   Dispatch table . . . . . . . . . . . . . . . .  17
   131					;         9.2   Entry, Exit, and cursor positioning routines .  18
SEDTTY - CSM supported terminal definitions for the editor	MACRO %53B(1155)-2 17:05 16-Oct-85 Page 4
SEDTTY	MAC	18-Apr-74 21:56		Get terminal type -- Common

   132					SUBTTL	Get terminal type -- Common
   133
   134					;Note:	The "HRR TM,TERMNL" in SED.MAC has been changed to "PUSHJ P,TERMNL".
   135					;	This routine will set up TM based on the terminal type in TRMNAM.
   136					;	If TRMNAM is blank, get the terminal type from the monitor.
   137
   138	400044'	336 03 0 00 000000*	TERMNL:	SKIPN	T3,TRMNAM		;If terminal type not specified,
   139	400045'	260 17 0 00 400117'		 PUSHJ	P,GETYPE		; get it from the monitor
   140	400046'	200 01 0 00 401077'		MOVE	T1,[-NUMTRM,,TNAMES]	;Point to table
   141	400047'	312 03 0 01 000000 		CAME	T3,(T1)			;Match?
   142	400050'	253 01 0 00 400047'		 AOBJN	T1,.-1			;No, try next
   143	400051'	325 01 0 00 400133'		JUMPGE	T1,BADTYP		;Complain if unknown
   144	400052'	275 01 0 00 400000'		SUBI	T1,TNAMES		;Offset into table
   145
   146					;Here with a known terminal type, T1 has offset into TNAMES table
   147
   148	400053'	540 07 0 01 400022'	OKTYPE:	HRR	TM,DSPTAB(T1)		;Set up dispatch table
   149	400054'	200 02 0 01 400000'		MOVE	T2,TNAMES(T1)		;Get actual name of terminal
   150	400055'	202 02 0 00 400044*		MOVEM	T2,TRMNAM		;Store for later
   151
   152					TOPS10<		;Check for slow terminal
   153			000013		ND .TO240,13
   154			000011		ND .TO120,11
   155			000010		ND .TO060,10
   156			000007		ND .TO030,07
   157	400056'	201 01 0 00 001031 		MOVEI	T1,.TOTSP		;Get the transmit speed
   158	400057'	474 02 0 00 000000 		SETO	T2,			;-1 for this terminal
   159	400060'	200 03 0 00 401100'		MOVE	T3,[2,,T1]		;Point to args
   160	400061'	047 03 0 00 000116 		TRMOP.	T3,			;Read the output baud rate
   161	400062'	201 03 0 00 000013 		  MOVEI T3,.TO240		;Assume 2400
   162	400063'	201 04 0 00 000000 		MOVEI	T4,0			;Assume hi-speed
   163	400064'	305 03 0 00 000013 		CAIGE	T3,.TO240		;Less than 2400 baud?
   164	400065'	201 04 0 00 001000 		 MOVEI	T4,SLW			;Yes, slow terminal
   165	400066'	305 03 0 00 000011 		CAIGE	T3,.TO120		;Less than 1200 baud?
   166	400067'	201 04 0 00 005000 		 MOVEI	T4,SLW!NEL		;Yes, don't update line 24
   167	400070'	436 04 0 07 000025 		IORM	T4,TCH(TM)		;Set slow flags as appropriate
   168
   169			001023		ND .TOLNB,<1023>	;Defined in 7.02
   170	400071'	201 01 0 00 001023 		MOVEI	T1,.TOLNB		;Get length base value
   171	400072'	474 02 0 00 000000 		SETO	T2,			;This terminal
   172	400073'	200 04 0 00 401100'		MOVE	T4,[2,,T1]
   173	400074'	047 04 0 00 000116 		TRMOP.	T4,
   174	400075'	200 04 0 07 000023 		  MOVE	T4,LPP(TM)		;Use hardcoded value for 7.01A
   175	400076'	554 01 0 00 400055*		HLRZ	T1,TRMNAM		;Get the terminal type
   176					;*HACK* - Need to change SED.MAC to make this work on VIS200 and VT52
   177	400077'	306 01 0 00 666421 		CAIN	T1,'VT1'		;Special case only VT100 terminals
   178	400100'	302 04 0 00 000030 		CAIE	T4,^D24			;Normal setting?
   179	400101'	254 00 0 00 400106'		 JRST	OKTYP1			;No, use it
   180					;End of *HACK*
   181	400102'	307 03 0 00 000010 		CAIG	T3,.TO060		;600 baud?
   182	400103'	201 04 0 00 000014 		 MOVEI	T4,^D12			;Yes, 12 lines
   183	400104'	307 03 0 00 000007 		CAIG	T3,.TO030		;300 or 110 baud?
   184	400105'	201 04 0 00 000006 		 MOVEI	T4,^D6			;Yes, 6 lines
   185	400106'	301 04 0 00 000006 	OKTYP1:	CAIL	T4,^D6			;Must have a minimum of 6
   186	400107'	202 04 0 07 000023 		 MOVEM	T4,LPP(TM)		;Set lines per page
SEDTTY - CSM supported terminal definitions for the editor	MACRO %53B(1155)-2 17:05 16-Oct-85 Page 4-1
SEDTTY	MAC	18-Apr-74 21:56		Get terminal type -- Common

   187
   188	400110'	201 01 0 00 001012 		MOVEI	T1,.TOWID		;Read terminal width
   189	400111'	474 02 0 00 000000 		SETO	T2,			;This terminal
   190	400112'	200 03 0 00 401100'		MOVE	T3,[2,,T1]		;Point to args
   191	400113'	047 03 0 00 000116 		TRMOP.	T3,			;Get terminal width
   192					IFDEC<	  MOVE	T3,CPL(TM) >		;Use hardcoded value (80 columns)
   193					IFTYM<	  JRST	[HRROI	T1,.AXWID	  ;Width for this port
   194							 SETO	T3,		  ;-1 to read current value
   195							 AUXCAL	T1,T3		  ;Get width into T3
   196	400114'	254 00 0 00 401101'			 JRST	.+1	] >
   197	400115'	202 03 0 07 000024 		MOVEM	T3,CPL(TM)		;Store characters per line
   198					>  ;End TOPS10
   199
   200	400116'	263 17 0 00 000000 	CPOPJ:	POPJ	P,			;TRMNAM and TM set up properly
   201
   202
   203					SUBTTL	Get terminal type -- TOPS10
   204
   205					TOPS10<		;Get terminal type from monitor via TRMOP.
   206
   207	400117'	201 01 0 00 001041 	GETYPE:	MOVEI	T1,.TOTRM		;Function to read terminal type
   208	400120'	474 02 0 00 000000 		SETO	T2,			;-1 for this terminal
   209	400121'	200 03 0 00 401100'		MOVE	T3,[2,,T1]		;Point to args
   210	400122'	047 03 0 00 000116 		TRMOP.	T3,			;Get terminal type
   211	400123'	334 00 0 00 000000 		  SKIPA				;Must be 603A
   212	400124'	263 17 0 00 000000 		POPJ	P,
   213					>  ;End of TOPS10
   214
   215					;Here when TRMOP. failed
   216
   217					IFE ITTYPE,<	;Use default if no .TTYPE routine
   218			000100		IFTYM<	ND .AXTTP,100	;If not in latest UUOTYM.UNV
   219	400125'	561 01 0 00 000100 		HRROI	T1,.AXTTP		;Get terminal type
   220	400126'	474 03 0 00 000000 		SETO	T3,			;-1 to read current value
   221	400127'	042 01 0 00 000003 		AUXCAL	T1,T3			;Get it
   222	400130'	316 03 0 00 401105'		CAMN	T3,[-1]			;Use it if not -1
   223					>  ;End of IFTYM
   224	400131'	200 03 0 00 401106'		MOVE	T3,['VT100 ']		;Set to default type
   225	400132'	263 17 0 00 000000 		POPJ	P,
   226					>		;Else ask .TTYPE to read DISPLA.INI
   227
   228					IFN ITTYPE,<	;Ask the ".TTYPE" routine in REL:ITTYPE.REL to find the
   229							;terminal type.  ITTYPE asks the monitor via TRMOP., if
   230							;no match found, ITTYPE then searches SYS:DISPLA.INI
   231
   232					BADTYP:	MOVE	T1,[-NUMTRM,,TNAMES]	;Point to table
   233						MOVE	T2,TRMNAM		;Zero means ask the monitor
   234						PUSHJ	P,.TTYPE##		;Get name of terminal
   235						JUMPGE	T1,OKTYPE		;T1 has an index from 0 to NUMTRM-1
   236						MOVE	T1,0			;Don't return aliases
   237						PUSHJ	P,.GTYPE##		;Get TRMOP. value in T2
   238					>  ;End of IFN ITTYPE
   239
   240					IFE ITTYPE,<
   241	400133'	200 02 0 00 000003 	BADTYP:	MOVE	T2,T3			;Put name in expected AC
SEDTTY - CSM supported terminal definitions for the editor	MACRO %53B(1155)-2 17:05 16-Oct-85 Page 4-2
SEDTTY	MAC	18-Apr-74 21:56		Get terminal type -- TOPS10

   242					>		;Here with unknown type
   243	400134'	554 01 0 00 000002 		HLRZ	T1,T2			;Get first 3 chars of name
   244	400135'	306 01 0 00 666421 		CAIN	T1,'VT1'		;VT101 or similar terminal?
   245						 JRST	[MOVE	T3,['VT100 ']	  ;Close enough
   246							 MOVEM	T3,TRMNAM
   247	400136'	254 00 0 00 401107'			 JRST	TERMNL	]	  ;Try again
   248	400137'	306 01 0 00 666422 		CAIN	T1,'VT2'		;VT241 or similar terminal?
   249						 JRST	[MOVE	T3,['VT220 ']	  ;Close enough
   250							 MOVEM	T3,TRMNAM
   251	400140'	254 00 0 00 401113'			 JRST	TERMNL	]	  ;Try again
   252	400141'	047 00 0 00 000000 		RESET				;Process tabs as normal
   253	400142'	201 01 0 00 401116'		MOVEI	T1,[ASCIZ /? Not a supported terminal type - "/]
   254	400143'	260 17 0 00 000000*		PUSHJ	P,PUTSTG		;Put in string
   255	400144'	260 17 0 00 400163'		PUSHJ	P,PUT6			;Put SIXBIT from T2 into string
   256						MOVEI	T1,[ASCIZ /"
   257	400145'	201 01 0 00 401126'	? This version of SED works with the following CRT terminals only:/]
   258	400146'	260 17 0 00 400143*		PUSHJ	P,PUTSTG		;Put in string
   259	400147'	201 03 0 00 000000 		MOVEI	T3,0			;Start at beginning
   260
   261	400150'	606 03 0 00 000007 	BADTY2:	TRNN	T3,7			;Multiple of 8?
   262						 JRST	[MOVEI	T1,CR		  ;Yes, put in CRLF
   263							 IDPB	T1,TY
   264							 MOVEI	T1,LF
   265							 IDPB	T1,TY
   266	400151'	254 00 0 00 401144'			 JRST	.+1	]
   267	400152'	201 01 0 00 000011 		MOVEI	T1,TAB			;Get a tab
   268	400153'	136 01 0 00 000010 		IDPB	T1,TY			;Put in string
   269	400154'	200 02 0 03 400000'		MOVE	T2,TNAMES(T3)		;Get name
   270	400155'	260 17 0 00 400163'		PUSHJ	P,PUT6			;Put in string
   271	400156'	302 03 0 00 000022 		CAIE	T3,NUMTRM		;Done all?
   272	400157'	344 03 0 00 400150'		 AOJA	T3,BADTY2		;No, loop
   273	400160'	260 17 0 00 000000*		PUSHJ	P,PUTTYP		;Force out buffer
   274	400161'	047 01 0 00 000012 	TOPS10<	EXIT	1, >			;Quiet exit
   275					TOPS20<	HALTF%	>			;Quiet exit
   276	400162'	254 00 0 00 400161'		JRST	.-1			;Implied RESET destroys PIM no-echo
   277
   278	400163'	400 01 0 00 000000 	PUT6:	SETZ	T1,			;Routine to put SIXBIT in TY string
   279	400164'	246 01 0 00 000006 		LSHC	T1,6			;Get a char from T2
   280	400165'	322 01 0 00 400116'		JUMPE	T1,CPOPJ		;Stop at end
   281	400166'	271 01 0 00 000040 		ADDI	T1,40			;Else convert to ASCII
   282	400167'	136 01 0 00 000010 		IDPB	T1,TY			;Store char
   283	400170'	254 00 0 00 400163'		JRST	PUT6			;And loop
SEDTTY - CSM supported terminal definitions for the editor	MACRO %53B(1155)-2 17:05 16-Oct-85 Page 5
SEDTTY	MAC	18-Apr-74 21:56		Get terminal type -- TOPS20

   284					SUBTTL	Get terminal type -- TOPS20
   285
   286					TOPS20<		;Get terminal type from monitor via GTTYP%
   287
   288					GETYPE:	MOVEI	1,.PRIOU		;File designator
   289						GTTYP%				;Do JSYS to get TTY type
   290						  ERJMP [HALT]			;Should never happen
   291						MOVSI	T3,'???'		;In case out of range
   292						CAIGE	2,LENT20		;One we know about?
   293						 MOVE	T3,T20NAM(2)		;Get SIXBIT name for TOPS-20 TTY number
   294						POPJ	P,
   295
   296					;Table of TOPS-20 terminal names
   297
   298					T20NAM:	SIXBIT	/TTY33/			; 0 - Model 33 TTY
   299						SIXBIT	/TTY35/			; 1 - Model 35 TTY
   300						SIXBIT	/TTY37/			; 2 - Model 37 TTY
   301						SIXBIT	/EXECUP/		; 3 - TI/EXECUPORT
   302						SIXBIT	/DM1521/		; 4 - Customer defined (Datamedia 1521)
   303						SIXBIT	/CUSTO2/		; 5 - Customer defined
   304						SIXBIT	/CUSTO3/		; 6 - Customer defined
   305						SIXBIT	/CUSTO4/		; 7 - Customer defined
   306						SIXBIT	/DEFAUL/		;10 - Default
   307						SIXBIT	/IDEAL/			;11 - Ideal
   308						SIXBIT	/VT05/			;12 - VT05
   309						SIXBIT	/VT50/			;13 - VT50
   310						SIXBIT	/LA30/			;14 - LA30
   311						SIXBIT	/GT40/			;15 - GT40
   312						SIXBIT	/LA36/			;16 - LA36
   313						SIXBIT	/VT52/			;17 - VT52
   314						SIXBIT	/VT100/			;20 - VT100
   315						SIXBIT	/LA38/			;21 - LA38
   316						SIXBIT	/LA120/			;22 - LA120
   317					LENT20==.-T20NAM
   318
   319					>  ;End of IFE TOPS10
SEDTTY - CSM supported terminal definitions for the editor	MACRO %53B(1155)-2 17:05 16-Oct-85 Page 6
SEDTTY	MAC	18-Apr-74 21:56		Input table -- VT52, VT100, VIS200

   320					SUBTTL	Input table -- VT52, VT100, V
   321
   322					;This input table sets up the keyboard arrangement for when you need to keep
   323					;TTY PAGE in effect because the terminal sends out its own control-S and Q's
   324					;Those two characters cannot be commands since SED does not know whether the
   325					;user has typed them or they were sent by an overworked terminal.
   326
   327					;So ROLL-BACK-PAGE is ^A instead of ^Q,
   328					;   DELETE-SPACE   is ^L instead of ^S,
   329					;   INSERT-SPACE   is ^K instead of ^A,
   330					;   SLIDE-LEFT     is "8" instead of ^K, and
   331					;   SLIDE-RIGHT    is "9" instead of ^L.
   332					;   RESET          is "." instead of DELETE
   333
   334						.DIRECTIVE FLBLST	;List one line per EXP statement
   335
   336	400171'	000000	000042			EXP	%DC				;Command for rubout (reset)
   337	400172'	000000	000000		IVT52:	EXP	  0,%RBP, %FL, %AB, %IL, %SB, %DL, %PT	;^@ thru ^G
   338	400202'	000000	000010			EXP	%CL, %TB, %LF, %IS, %DS, %RT, %SW, %EC	;^H thru ^O
   339	400212'	000000	000020			EXP	%GO,   0, %SF,   0,%RFL, %BT, %PK,%RBL	;^Q & ^S are nothing
   340	400222'	000000	000030			EXP	%EX,%RFP, %XT				;^X thru ^Z
   341	400225'	777763	400232'					  -L.VT52,,I.VT52		;ESCape needs a subtable
   342	400226'	000000	000000			EXP		              0,   0,   0,   0	;Cursor movement
   343
   344					;This table is ordered with the most used commands first
   345
   346	400232'	000035	000103		I.VT52:	%CR,,"C"	;ESCape C == RIGHT
   347	400233'	000010	000104			%CL,,"D"	;ESCape D == LEFT
   348	400234'	000036	000101			%CU,,"A"	;ESCape A == UP
   349	400235'	000034	000102			%CD,,"B"	;ESCape B == DOWN
   350	400236'	400232'	000133			MVT100,,"["	;ESCape [ == cursor movement on VT100
   351	400237'	400247'	000077			 KVT52,,"?"	;ESCape ? == numeric keypad, check next character
   352	400240'	400232'	000117			KVT100,,"O"	;ESCape O == numeric keypad on VT100
   353	400241'	000037	000110			%CH,,"H"	;ESCape H == HOME (on VIS200)
   354	400242'	000033	000120			 %$,,"P"	;ESCape P == ENTER  (BLUE-VT52, F0-VIS200, PF1-VT100)
   355	400243'	000040	000121			%RC,,"Q"	;ESCape Q == RECALL ( RED-VT52, F1-VIS200, PF2-VT100)
   356	400244'	000037	000122			%CH,,"R"	;ESCape R == HOME   (GRAY-VT52, F2-VIS200, PF3-VT100)
   357	400245'	000041	000033			%IN,,ESC	;ESCape ESCape == INSERT-MODE
   358	400246'	000033	000015			 %$,,CR		;ESCape RETURN == ENTER
   359			000015		L.VT52==.-I.VT52    ;Length of this subtable
   360
   361					;The following 2 definitions depend on KVT52 immediately following I.VT52
   362			400232'		MVT100==I.VT52		;VT100 cursor commands are $[A, $[B, $[C, $[D
   363			400232'		KVT100==I.VT52		;VT100 keypads are $OP, $OR, $OQ, $OM, $On, $Op, $Ow
   364
   365	400247'	000041	000155		KVT52:	%IN,,"m"	;ESCape ? m == INSERT-MODE	("-" on VIS200, VT100)
   366	400250'	000033	000115			 %$,,"M"	;ESCape ? M == ENTER		(ENTER on keypad)
   367	400251'	000000	000156			%RS,,"n"	;ESCape ? n == RESET		("." on keypad)
   368	400252'	000043	000160			%TA,,"p"	;ESCape ? p == REAL TAB		("0" on keypad)
   369	400253'	000044	000167			%MK,,"w"	;ESCape ? w == MARK		("7" on keypad)
   370	400254'	000040	000154			%RC,,"l"	;ESCape ? l == RECALL		("," on VIS200, VT100)
   371	400255'	000013	000170			%SL,,"x"	;ESCape ? x == SLIDE-LEFT	("8" on keypad)
   372	400256'	000014	000171			%SR,,"y"	;ESCape ? y == SLIDE-RIGHT	("9" on keypad)
   373	400257'	000000	000000			0	    ;End of sub-subtable  (1,2,3,4,5,6 on keypad not used)
SEDTTY - CSM supported terminal definitions for the editor	MACRO %53B(1155)-2 17:05 16-Oct-85 Page 7
SEDTTY	MAC	18-Apr-74 21:56		Input table -- CONCEP, HP2621

   374					SUBTTL	Input table -- CONCEP, HP2621
   375
   376	400260'	000000	000000			EXP	%RS				;Command for rubout (reset)
   377	400261'	000000	000000		ICONCE:	EXP	  0,%RBP, %FL, %AB, %IL, %SB, %DL, %PT
   378	400271'	000000	000042			EXP	%DC, %TB, %LF, %IS, %DS, %RT, %SW, %EC
   379	400301'	000000	000020			EXP	%GO,   0, %SF,   0,%RFL, %BT, %PK,%RBL	;^Q & ^S are nothing
   380	400311'	000000	000030			EXP	%EX,%RFP, %XT
   381	400314'	777760	400321'					  -L.CONC,,I.CONC		;ESCape needs a subtable
   382	400315'	000000	000000			EXP		              0,   0,   0,   0	;Cursor movement
   383
   384	400321'	000035	000075		I.CONC:	%CR,,"="	;ESCape =      == RIGHT
   385	400322'	000036	000073			%CU,,";"	;ESCape ;      == UP
   386	400323'	000034	000074			%CD,,"<"	;ESCape <      == DOWN
   387	400324'	000010	000076			%CL,,">"	;ESCape >      == LEFT
   388	400325'	000037	000077			%CH,,"?"	;ESCape ?      == HOME
   389	400326'	000033	000072			 %$,,":"	;MULTCODE      == ENTER
   390	400327'	000041	000033			%IN,,ESC	;ESCape ESCape == INSERT
   391								;INSRT         == <ESC><ESC> == INSERT MODE
   392	400330'	000043	000135			%TA,,"]"	;TAB SET       == REAL TAB
   393	400331'	000027	000134		       %RBL,,"\"	;SHIFT SCROLL  == ROLL BACK LINE
   394	400332'	000024	000133		       %RFL,,"["	;SCROLL        == FORWARD LINE
   395	400333'	000021	000056		       %RBP,,"."	;SHIFT PAGE    == ROLL BACK PAGE
   396	400334'	000031	000055		       %RFP,,"-"	;PAGE          == FORWARD PAGE
   397	400335'	000025	000047			%BT,,"'"	;B TAB         == BACK TAB
   398	400336'	000044	000140			%MK,,"`"	;TAPE/SHIFT TAPE= MARK
   399	400337'	000040	000100			%RC,,"@"	;CONTROL TAPE  == RECALL
   400	400340'	000040	000136			%RC,,"^"	;CONTROL SHIFT TAPE is unused
   401								;DEL LINE      == <^F> == DELETE LINE
   402								;INS LINE      == <^D> == INSERT LINE
   403								;DEL CHAR      == <^K> == DELETE CHARACTER
   404			000020		L.CONC==.-I.CONC    ;Length of this subtable
   405
   406					;===============================================================================
   407
   408	400341'	000000	000000			EXP	%RS				;Command for rubout (reset)
   409	400342'	000000	000000		IH2621:	EXP	  0,%RBP, %FL, %AB, %IL, %SB, %DL, %PT
   410	400352'	000000	000042			EXP	%DC, %TB, %LF, %IS, %DS, %RT, %SW, %EC
   411	400362'	000000	000020			EXP	%GO,   0, %SF,   0,%RFL, %BT, %PK,%RBL	;^Q & ^S are nothing
   412	400372'	000000	000030			EXP	%EX,%RFP, %XT
   413	400375'	777767	400402'					  -L.2621,,I.2621		;ESCape needs a subtable
   414	400376'	000000	000000			EXP		              0,   0,   0,   0	;Cursor movement
   415
   416	400402'	000035	000166		I.2621:	%CR,,"v"	;ESCape v == RIGHT
   417	400403'	000010	000165			%CL,,"u"	;ESCape u == LEFT
   418	400404'	000036	000164			%CU,,"t"	;ESCape t == UP
   419	400405'	000034	000167			%CD,,"w"	;ESCape w == DOWN
   420	400406'	000037	000160			%CH,,"p"	;ESCape p == HOME
   421	400407'	000033	000161			 %$,,"q"	;ESCape q == ENTER
   422	400410'	000041	000162			%IN,,"r"	;ESCape r == INSERT-MODE
   423	400411'	000044	000163			%MK,,"s"	;ESCape s == MARK
   424	400412'	000033	000015			 %$,,15		;ESCape RETURN == ENTER
   425			000011		L.2621==.-I.2621    ;Length of this subtable
SEDTTY - CSM supported terminal definitions for the editor	MACRO %53B(1155)-2 17:05 16-Oct-85 Page 8
SEDTTY	MAC	18-Apr-74 21:56		Input table -- ADM3A, TV910, TV950

   426					SUBTTL	Input table -- ADM3A, TV910, TV950
   427
   428	400413'	000000	000000			EXP	%RS				;Command for rubout (reset)
   429	400414'	000000	000000		IADM3A:	EXP	  0,%RBP, %FL, %AB, %IL, %SB, %DL, %PT
   430	400424'	000000	000042			EXP	%DC, %TB, %LF, %IS, %DS, %RT, %SW, %EC
   431	400434'	000000	000020			EXP	%GO,   0, %SF,   0,%RFL, %BT, %PK,%RBL	;^Q & ^S are nothing
   432	400444'	000000	000030			EXP	%EX,%RFP, %XT
   433	400447'	777771	400454'					  -L.ADM3,,I.ADM3		;ESCape needs a subtable
   434	400450'	000000	000037			EXP		            %CH,   0,   0,   0	;Cursor movement
   435
   436	400454'	000033	000015		I.ADM3:	 %$,,CR		;ESCape RETURN == ENTER
   437	400455'	000041	000033			%IN,,ESC	;ESCape ESCape == INSERT
   438	400456'	000001	000121			%IS,,"Q"	;ESCape Q      == Insert spaces
   439	400457'	000042	000127			%DC,,"W"	;ESCape W      == Delete Character
   440	400460'	000015	000111			%RT,,"I"	;ESCape I      == Real Tab
   441	400461'	000004	000105			%IL,,"E"	;ESCape E      == Insert Line
   442	400462'	000006	000122			%DL,,"R"	;ESCape R      == Delete Line
   443							;Recall
   444							;Mark
   445			000007		L.ADM3==.-I.ADM3    ;Length of this subtable
   446
   447					;===============================================================================
   448
   449	400463'	000000	000000			EXP	%RS				;Command for rubout (reset)
   450	400464'	000000	000000		ITV950:	EXP	  0,%RBP, %FL, %AB, %IL, %SB, %DL, %PT
   451	400474'	000000	000042			EXP	%DC, %TB, %LF, %IS, %DS, %RT, %SW, %EC
   452	400504'	000000	000020			EXP	%GO,   0, %SF,   0,%RFL, %BT, %PK,%RBL	;^Q & ^S are nothing
   453	400514'	000000	000030			EXP	%EX,%RFP, %XT
   454	400517'	777771	400524'					  -L.TV95,,I.TV95		;ESCape needs a subtable
   455	400520'	000000	000037			EXP		            %CH,   0,   0,   0	;Cursor movement
   456
   457	400524'	000033	000015		I.TV95:	 %$,,CR		;ESCape RETURN == ENTER
   458	400525'	000041	000033			%IN,,ESC	;ESCape ESCape == INSERT
   459	400526'	000001	000121			%IS,,"Q"	;ESCape Q      == Insert Spaces
   460	400527'	000042	000127			%DC,,"W"	;ESCape W      == Delete Character
   461	400530'	000015	000111			%RT,,"I"	;ESCape I      == Real Tab
   462	400531'	000004	000105			%IL,,"E"	;ESCape E      == Insert Line
   463	400532'	000006	000122			%DL,,"R"	;ESCape R      == Delete Line
   464							;Recall
   465							;Mark
   466			000007		L.TV95==.-I.TV95    ;Length of this subtable
SEDTTY - CSM supported terminal definitions for the editor	MACRO %53B(1155)-2 17:05 16-Oct-85 Page 9
SEDTTY	MAC	18-Apr-74 21:56		VT52 -- Dispatch table

   467					SUBTTL	VT52 -- Dispatch table
   468
   469	000000'					RELOC		;Put in LOWSEG
   470	000000'				DH19:
   471	000000'	033 101 00000000 	DVT52:	BYTE (7) ESC,"A"	;Cursor up
   472	000001'	033 102 00000000 		BYTE (7) ESC,"B"	; down
   473	000002'	033 103 00000000 		BYTE (7) ESC,"C"	; right
   474	000003'	010 0000000000 			BYTE (7) 10		; left
   475	000004'	033 110 015 00000 		BYTE (7) ESC,"H",CR	; home
   476	000005'	033 112 00000000 		BYTE (7) ESC,"J"	;Clear page
   477	000006'	033 113 00000000 		BYTE (7) ESC,"K"	;Clear line
   478	000007'	012 0000000000 			BYTE (7) 12		;Roll up and clear line
   479	000010'	033 111 00000000 		BYTE (7) ESC,"I"	;Roll down and clear line
   480	000011'	000000	400116'			CPOPJ			;Protect on
   481	000012'	000000	400116'			CPOPJ			;Protect off
   482	000013'	000000	000000			0			;Insert line
   483	000014'	000000	000000			0			;Insert space
   484	000015'	000000	000000			0			;Delete line
   485	000016'	000000	000000			0			;Delete space
   486	000017'	033 131 067 040 000 		BYTE (7) ESC,"Y","7",SP	;Move to bottom
   487	000020'	033 110 033 112 015 0 		BYTE (7) ESC,"H",ESC,"J",CR ;Home and clear page
   488	000021'	000000	400541'			CVT52			;Routine to position to character
   489	000022'	000000	400550'			LVT52			;Routine to position to start of line
   490	000023'	000000	000030			^D24			;Lines per page
   491	000024'	000000	000120			^D80			;Characters per line
   492	000025'	000000	640400			TBS!NPG!MRK!LSD		;+TCH Flags (hard tabs, keep tty page, no prot)
   493	000026'	000000	400533'			EVT52			;Routine to call on entry
   494	000027'	000000	400536'			XVT52			;Routine to call on exit
   495	000030'	000000	000000			0			;No nulls needed
   496	000031'	000000	400172'			IVT52			;Address of input character table
   497	000032'	000000	000176			"~"			;Character for MARK on VT52
   498	400533'					RELOC		;Back to HISEG
SEDTTY - CSM supported terminal definitions for the editor	MACRO %53B(1155)-2 17:05 16-Oct-85 Page 10
SEDTTY	MAC	18-Apr-74 21:56		VT52 -- Entry, Exit, and cursor positioning routines

   499					SUBTTL	VT52 -- Entry, Exit, and cursor positioning routines
   500
   501					;I - Input character table
   502						;IVT52 defined above
   503
   504					;E - Set up terminal on entry to SED
   505
   506	400533'	200 01 0 00 401151'	EVT52:	MOVE	T1,[BYTE (7) ESC,"="]	;Set numeric keypad in application mode
   507	400534'	260 17 0 00 000000*		PUSHJ	P,PUTSQ1		;Put single word string
   508	400535'	324 17 0 00 400160*		PJRST	PUTTYP			;Dump string to terminal now
   509
   510					;X - Exit from SED
   511									;<
   512	400536'	200 01 0 00 401152'	XVT52:	MOVE	T1,[BYTE (7) ESC,">"]	;Restore keypad to normal numbers
   513	400537'	260 17 0 00 400534*		PUSHJ	P,PUTSQ1
   514	400540'	324 17 0 00 400535*		PJRST	PUTTYP
   515
   516					;C - Position to column
   517
   518	400541'	200 01 0 00 401153'	CVT52:	MOVE	T1,[BYTE (7) ESC,"Y"]	;Position to row RW, column CM
   519	400542'	260 17 0 00 400537*		PUSHJ	P,PUTSQ1	;Start it off
   520	400543'	201 01 0 15 000040 		MOVEI	T1,40(RW)	;Get row position
   521	400544'	136 01 0 00 000010 		IDPB	T1,TY
   522	400545'	201 01 0 16 000040 		MOVEI	T1,40(CM)	;Get column position
   523	400546'	136 01 0 00 000010 		IDPB	T1,TY
   524	400547'	263 17 0 00 000000 		POPJ	P,		;Done
   525
   526					;L - Position to line
   527
   528	400550'	200 01 0 00 401153'	LVT52:	MOVE	T1,[BYTE (7) ESC,"Y"]	;Position to row T4, column 0
   529	400551'	260 17 0 00 400542*		PUSHJ	P,PUTSQ1	;Start it off
   530	400552'	201 01 0 04 000040 		MOVEI	T1,40(T4)	;Get row position from T4
   531	400553'	136 01 0 00 000010 		IDPB	T1,TY
   532	400554'	201 01 0 00 000040 		MOVEI	T1,40		;Move to column zero
   533	400555'	136 01 0 00 000010 		IDPB	T1,TY
   534	400556'	263 17 0 00 000000 		POPJ	P,
SEDTTY - CSM supported terminal definitions for the editor	MACRO %53B(1155)-2 17:05 16-Oct-85 Page 11
SEDTTY	MAC	18-Apr-74 21:56		VIS200 -- Dispatch table (uses VT52 output routines)

   535					SUBTTL	VIS200 -- Dispatch table (uses VT52 output routines)
   536
   537	000033'					RELOC		;Put these in LOWSEG, TCH may be modified
   538	000033'	033 101 00000000 	DVIS20:	BYTE (7) ESC,"A"	;Cursor up
   539	000034'	033 102 00000000 		BYTE (7) ESC,"B"	; down
   540	000035'	033 103 00000000 		BYTE (7) ESC,"C"	; right
   541	000036'	010 0000000000 			BYTE (7) 10		; left
   542	000037'	033 110 015 00000 		BYTE (7) ESC,"H",CR	; home
   543	000040'	033 171 00000000 		BYTE (7) ESC,"y"	;Clear page (foreground and background)
   544	000041'	033 170 00000000 		BYTE (7) ESC,"x"	;Clear line (foreground and background)
   545	000042'	012 0000000000 			BYTE (7) 12		;Roll up and clear line
   546	000043'	033 111 00000000 		BYTE (7) ESC,"I"	;Roll down and clear line
   547	000044'	033 064 00000000 		BYTE (7) ESC,"4"	;Protect on (background)
   548	000045'	033 063 00000000 		BYTE (7) ESC,"3"	;Protect off (foreground)
   549	000046'	033 114 00000000 		BYTE (7) ESC,"L"	;Insert line
   550	000047'	033 151 040 033 152 0 		BYTE (7) ESC,"i",SP,ESC,"j" ;Insert space
   551	000050'	033 115 00000000 		BYTE (7) ESC,"M"	;Delete line
   552	000051'	033 117 00000000 		BYTE (7) ESC,"O"	;Delete space
   553	000052'	033 131 067 040 000 		BYTE (7) ESC,"Y","7",SP	;Move to bottom
   554	000053'	033 110 033 171 015 0 		BYTE (7) ESC,"H",ESC,"y",CR ;Home and clear page
   555	000054'	000000	400541'			CVIS20			;Routine to position to character
   556	000055'	000000	400550'			LVIS20			;Routine to position to start of line
   557	000056'	000000	000030			^D24			;Lines per page
   558	000057'	000000	000120			^D80			;Characters per line
   559	000060'	000000	600400			TBS!NPG!LSD		;+TCH Flags (hard tabs, keep tty page, LF=down)
   560	000061'	000000	400533'			EVIS20			;Routine to call on entry
   561	000062'	000000	400536'			XVIS20			;Routine to call on exit
   562	000063'	000000	000000			0			;No nulls needed
   563	000064'	000000	400172'			IVIS20			;Address of input character table
   564	400557'					RELOC		;Back to HISEG
   565
   566					;I - Input character table
   567			400172'		IVIS20==IVT52		;Same as VT52
   568
   569					;E - Set up terminal on entry to SED
   570			400533'		EVIS20==EVT52		;Same as VT52
   571
   572					;X - Exit from SED
   573			400536'		XVIS20==XVT52		;Same as VT52
   574
   575					;C - Position to column
   576			400541'		CVIS20==CVT52		;Same as VT52
   577
   578					;L - Position to line
   579			400550'		LVIS20==LVT52		;Same as VT52
SEDTTY - CSM supported terminal definitions for the editor	MACRO %53B(1155)-2 17:05 16-Oct-85 Page 12
SEDTTY	MAC	18-Apr-74 21:56		HP2621 -- Dispatch table

   580					SUBTTL	HP2621 -- Dispatch table
   581
   582	000065'					RELOC		;Go to LOWSEG
   583	000065'	033 101 00000000 	DH2621:	BYTE (7) ESC,"A"	;Cursor up
   584	000066'	033 102 00000000 		BYTE (7) ESC,"B"	; down
   585	000067'	033 103 00000000 		BYTE (7) ESC,"C"	; right
   586	000070'	010 0000000000 			BYTE (7) 10		; left
   587	000071'	033 110 015 00000 		BYTE (7) ESC,"H",CR	; home
   588	000072'	033 112 00000000 		BYTE (7) ESC,"J"	;Clear page
   589	000073'	033 113 00000000 		BYTE (7) ESC,"K"	;Clear line
   590	000074'	012 0000000000 			BYTE (7) 12		;Roll up and clear line
   591	000075'	033 124 00000000 		BYTE (7) ESC,"T"	;Roll down and clear line
   592	000076'	033 046 144 101 000 		BYTE (7) ESC,"&","d","A";Protect on (underline)
   593	000077'	033 046 144 100 000 		BYTE (7) ESC,"&","d","@";Protect off (no underline)
   594	000100'	033 114 00000000 		BYTE (7) ESC,"L"	;Insert line
   595	000101'	033 121 040 033 122 0 		BYTE (7) ESC,"Q",SP,ESC,"R" ;Insert space
   596	000102'	033 115 00000000 		BYTE (7) ESC,"M"	;Delete line
   597	000103'	033 120 00000000 		BYTE (7) ESC,"P"	;Delete space
   598	000104'	000000	400606'			BH2621			;Move to bottom
   599	000105'	033 110 033 112 015 0 		BYTE (7) ESC,"H",ESC,"J",CR ;Home and clear page
   600	000106'	000000	400565'			CH2621			;Routine to position to character
   601	000107'	000000	400600'			LH2621			;Routine to position to start of line
   602	000110'	000000	000030			^D24			;Lines per page
   603	000111'	000000	000120			^D80			;Characters per line
   604	000112'	000000	400400			NPG!LSD			;+TCH Flags (keep tty page, LF=down)
   605	000113'	000000	400557'			EH2621			;Routine to call on entry
   606	000114'	000000	400562'			XH2621			;Routine to call on exit
   607	000115'	000000	000000			0			;No nulls needed
   608	000116'	000000	400342'			IH2621			;Address of input character table
   609	400557'					RELOC		;Back to HISEG
SEDTTY - CSM supported terminal definitions for the editor	MACRO %53B(1155)-2 17:05 16-Oct-85 Page 13
SEDTTY	MAC	18-Apr-74 21:56		HP2621 -- Entry, Exit, and cursor positioning routines

   610					SUBTTL	HP2621 -- Entry, Exit, and cursor positioning routines
   611
   612					;I - Input char table
   613						;IH2621 is defined above
   614
   615					;E - Set up terminal on entry to SED
   616
   617	400557'	200 01 0 00 401154'	EH2621:	MOVE	T1,[BYTE (7) ESC,"&","j","B"] ;Enable F1-F8 function keys
   618	400560'	260 17 0 00 400551*		PUSHJ	P,PUTSQ1		;Put single word string
   619	400561'	324 17 0 00 400540*		PJRST	PUTTYP			;Dump string to terminal now
   620
   621					;X - Exit from SED
   622
   623	400562'	200 01 0 00 401155'	XH2621:	MOVE	T1,[BYTE (7) ESC,"&","j","@"] ;Display primary screen labels
   624	400563'	260 17 0 00 400560*		PUSHJ	P,PUTSQ1
   625	400564'	324 17 0 00 400561*		PJRST	PUTTYP
   626
   627					;C - Position to column
   628
   629	400565'	200 01 0 00 401156'	CH2621:	MOVE	T1,[BYTE (7) ESC,"&","a"]	;Position to row RW, column CM
   630	400566'	260 17 0 00 400563*		PUSHJ	P,PUTSQ1	;Start it off
   631	400567'	201 01 0 15 000000 		MOVEI	T1,(RW)		;Get row position
   632	400570'	260 17 0 00 000000*		PUSHJ	P,PUTNUM	;Convert to ASCII
   633	400571'	201 01 0 00 000171 		MOVEI	T1,"y"		;Screen address
   634	400572'	136 01 0 00 000010 		IDPB	T1,TY		;To separate coords
   635	400573'	201 01 0 16 000000 		MOVEI	T1,(CM)		;Get column position
   636	400574'	260 17 0 00 400570*		PUSHJ	P,PUTNUM	;Put in string
   637	400575'	201 01 0 00 000103 		MOVEI	T1,"C"		;Code for positioning
   638	400576'	136 01 0 00 000010 		IDPB	T1,TY
   639	400577'	263 17 0 00 000000 		POPJ	P,		;Done
   640
   641					;L - Position to line
   642
   643	400600'	200 01 0 00 401156'	LH2621:	MOVE	T1,[BYTE (7) ESC,"&","a"]	;Position to row T4, column 0
   644	400601'	260 17 0 00 400566*		PUSHJ	P,PUTSQ1	;Start it off
   645	400602'	201 01 0 04 000000 		MOVEI	T1,(T4)		;Get row position from T4
   646	400603'	260 17 0 00 400574*		PUSHJ	P,PUTNUM	;Convert to ASCII
   647	400604'	200 01 0 00 401157'		MOVE	T1,[ASCII /y0C/];Move to column zero
   648	400605'	324 17 0 00 400601*		PJRST	PUTSQ1		;Store string and return
   649
   650					;B - Move to bottom (takes more than 5 chars)
   651
   652					BH2621:	MOVEI	T1,[BYTE (7) ESC,"&","2","3","y"	;Move to bottom
   653	400606'	201 01 0 00 401160'			    BYTE (7) "0","C"]
   654	400607'	324 17 0 00 400146*		PJRST	PUTSTG
SEDTTY - CSM supported terminal definitions for the editor	MACRO %53B(1155)-2 17:05 16-Oct-85 Page 14
SEDTTY	MAC	18-Apr-74 21:56		CONCEP -- Dispatch table

   655					SUBTTL	CONCEP -- Dispatch table
   656
   657					IFNDEF CON108,<CON108==1>	;Alternate escape sequences
   658			000042			DQ=""""			;Double quote
   659
   660	000117'					RELOC		;Put in LOWSEG
   661	000117'				DCON08:
   662	000117'	033 073 00000000 	DCONCE:	BYTE (7) ESC,";"	;Cursor up
   663	000120'	033 074 00000000 		BYTE (7) ESC,"<"	; down  >
   664	000121'	033 075 00000000 		BYTE (7) ESC,"="	; right
   665	000122'	010 0000000000 			BYTE (7) 10		; left
   666	000123'	033 077 015 00000 		BYTE (7) ESC,"?",CR	; home
   667					IFE CON108,<	;Use ESCape + Control-Char on older 100's
   668						BYTE (7) ESC,"C"-100	;Clear to end of page
   669						BYTE (7) ESC,"S"-100	;Clear to end of line
   670						BYTE (7) 12		;Roll up and clear line
   671						BYTE (7) ESC,"?",ESC,"R"-100;Roll down and clear line
   672						BYTE (7) ESC,"E"	;Protect on (background)
   673						BYTE (7) ESC,"e"	;Protect off (foreground)
   674						BYTE (7) ESC,"R"-100	;Insert line
   675						0	;BYTE (7) ESC,"P"-100,SP,ESC,"@"-100 ;Insert space
   676						BYTE (7) ESC,"B"-100	;Delete line
   677						BYTE (7) ESC,"Q"-100	;Delete space
   678						BYTE (7) ESC,"a","7",SP	;Move to bottom
   679						BYTE (7) ESC,"?",ESC,"C"-100,CR ;Home and clear page
   680						CCONCE			;Routine to position to character
   681						LCONCE			;Routine to position to start of line
   682						^D24			;Lines per page
   683						^D80			;Characters per line
   684					>  ;End of IFE CON108
   685					IFN CON108,<	;Use ESCape + Space + Normal-Char on new 108's
   686	000124'	033 040 043 00000 		BYTE (7) ESC,SP,"#"	;Clear to end of page
   687	000125'	033 040 063 00000 		BYTE (7) ESC,SP,"3"	;Clear to end of line
   688	000126'	012 0000000000 			BYTE (7) 12		;Roll up and clear line
   689	000127'	033 077 033 040 062 0 		BYTE (7) ESC,"?",ESC,SP,"2" ;Roll down and clear line
   690	000130'	033 105 00000000 		BYTE (7) ESC,"E"	;Protect on (background)
   691	000131'	033 145 00000000 		BYTE (7) ESC,"e"	;Protect off (foreground)
   692	000132'	033 040 062 00000 		BYTE (7) ESC,SP,"2"	;Insert line
   693	000133'	000000	400657'			SCONCE			;Insert space (requires more than 5 chars)
   694	000134'	033 040 042 00000 		BYTE (7) ESC,SP,DQ	;Delete line
   695	000135'	033 040 061 00000 		BYTE (7) ESC,SP,"1"	;Delete space
   696	000136'	033 141 067 040 000 		BYTE (7) ESC,"a","7",SP	;Move to bottom
   697	000137'	033 077 033 040 043 0 		BYTE (7) ESC,"?",ESC,SP,"#" ;Home and clear page
   698	000140'	000000	400641'			CCONCE			;Routine to position to character
   699	000141'	000000	400650'			LCONCE			;Routine to position to start of line
   700	000142'	000000	000030			^D24			;Lines per page
   701	000143'	000000	000204			^D132			;Characters per line
   702					>  ;End of IFN CON108
   703	000144'	000000	600400			TBS!NPG!LSD		;+TCH Flags (hard tabs, keep tty page, LF=down)
   704	000145'	000000	400610'			ECONCE			;Routine to call on entry
   705	000146'	000000	400632'			XCONCE			;Routine to call on exit
   706	000147'	000000	000000			0			;No nulls needed
   707	000150'	000000	400261'			ICONCE			;Address of input character table
   708	400610'					RELOC		;Back to HISEG
SEDTTY - CSM supported terminal definitions for the editor	MACRO %53B(1155)-2 17:05 16-Oct-85 Page 15
SEDTTY	MAC	18-Apr-74 21:56		CONCEP -- Entry, Exit, and cursor positioning routines

   709					SUBTTL	CONCEP -- Entry, Exit, and cursor positioning routines
   710
   711					;I - Input char table
   712						;ICONCE defined above
   713
   714					;E - Entry to SED
   715
   716					ECONCE:	MOVEI	T1,[BYTE (7) 14,ESC,"U",ESC,"X"	;Clear, programmer, xmit keypad
   717							BYTE (7) ESC,SP,"w",ESC,"4"	;Autowrap off
   718							BYTE (7) DQ,"0",DQ,ESC,ESC	;Program INSRT key
   719							BYTE (7) ESC,"4","!","1",DQ	;Program DEL CHAR
   720							BYTE (7) "L"-100,ESC,"4","!","2";Program INS LINE
   721							BYTE (7) DQ,"D"-100,ESC,"4","!"
   722							BYTE (7) DQ,DQ,"F"-100,ESC,SP	;Program DEL LINE
   723	400610'	201 01 0 00 401162'			BYTE (7) "x","!",SP,"!",0]	;RESET/STAT to execute
   724	400611'	260 17 0 00 400607*		PUSHJ	P,PUTSTG
   725	400612'	260 17 0 00 400564*		PUSHJ	P,PUTTYP			;Output the string so far
   726	400613'	051 03 0 00 401172'		OUTSTR	[BYTE (7) ESC,"o","*",0]	;Change the EOM character
   727	400614'	051 15 0 00 401125'		IONEOU	[0]				;To NUL
   728
   729					TOPS10<		;Check terminal width setting
   730	400615'	201 01 0 00 001012 		MOVEI	T1,.TOWID	;Read terminal width
   731	400616'	474 02 0 00 000000 		SETO	T2,		;This terminal
   732	400617'	200 03 0 00 401100'		MOVE	T3,[2,,T1]	;Point to args
   733	400620'	047 03 0 00 000116 		TRMOP.	T3,		;Get terminal width
   734					>  ;End of TOPS10
   735	400621'	201 03 0 00 000120 		  MOVEI	T3,^D80		;Assume 80 column mode
   736	400622'	302 03 0 00 000204 		CAIE	T3,^D132	;Set to 133 columns?
   737	400623'	201 03 0 00 000120 		 MOVEI	T3,^D80		;Yes, that is for attached printer
   738	400624'	202 03 0 07 000024 		MOVEM	T3,CPL(TM)	;Store characters per line
   739	400625'	201 01 0 00 401173'		MOVEI	T1,[BYTE (7) ESC,"v",40,40,40+^D24,40+^D80,0];Window 24 by 80
   740	400626'	302 03 0 00 000120 		CAIE	T3,^D80		;Width 132 (not 80 or 133) ?
   741						 MOVEI	T1,[BYTE (7) ESC,DQ,ESC,"v",40		;Set 132 column mode
   742	400627'	201 01 0 00 401175'			BYTE (7) 40,40+^D24,1,^D<132-64>,0]	;Window 24 by 132
   743	400630'	260 17 0 00 400611*		PUSHJ	P,PUTSTG
   744	400631'	324 17 0 00 400612*		PJRST	PUTTYP
   745
   746					;X - Exit from SED
   747
   748	400632'	200 03 0 07 000024 	XCONCE:	MOVE	T3,CPL(TM)		;Get Characters per Line
   749	400633'	200 01 0 00 401177'		MOVE	T1,[BYTE (7) ESC,"!",0]	;Code to reset to 80 column mode
   750	400634'	306 03 0 00 000204 		CAIN	T3,^D132		;Wide mode?
   751	400635'	260 17 0 00 400605*		 PUSHJ	P,PUTSQ1		;Yes, cancel it
   752						MOVEI	T1,[BYTE (7) ESC,"4",SP,"0","!"	;Reset INSRT
   753							BYTE (7) ESC,"4",SP,"1","!"	;Reset DEL CHAR
   754							BYTE (7) ESC,"4",SP,"2","!"	;Reset INS LINE
   755							BYTE (7) ESC,"4",SP,DQ,"!"	;Reset DEL LINE
   756							BYTE (7) ESC,"v",40,40,1	;Set window to 96 lines
   757							BYTE (7) ^D<96-64>,40+^D80,ESC,"x",ESC ;Keypad to execute
   758							BYTE (7) SP,"W",ESC,"o","*"	;Wraparound on, End-of-Message
   759	400636'	201 01 0 00 401200'			BYTE (7) CR,ESC,"u",0]		; to <RET>, user mode
   760	400637'	260 17 0 00 400630*		PUSHJ	P,PUTSTG
   761	400640'	324 17 0 00 400631*		PJRST	PUTTYP
   762
   763					;C - Position to column
SEDTTY - CSM supported terminal definitions for the editor	MACRO %53B(1155)-2 17:05 16-Oct-85 Page 15-1
SEDTTY	MAC	18-Apr-74 21:56		CONCEP -- Entry, Exit, and cursor positioning routines

   764
   765	400641'	200 01 0 00 401210'	CCONCE:	MOVE	T1,[BYTE (7) ESC,"a"]	;Position to row RW, column CM
   766	400642'	260 17 0 00 400635*		PUSHJ	P,PUTSQ1	;Start it off
   767	400643'	201 01 0 15 000040 		MOVEI	T1,40(RW)	;Get row position
   768	400644'	136 01 0 00 000010 		IDPB	T1,TY
   769	400645'	201 01 0 16 000040 		MOVEI	T1,40(CM)	;Get column position
   770	400646'	136 01 0 00 000010 		IDPB	T1,TY
   771	400647'	263 17 0 00 000000 		POPJ	P,		;Done
   772
   773					;L - Position to line
   774
   775	400650'	200 01 0 00 401210'	LCONCE:	MOVE	T1,[BYTE (7) ESC,"a"]	;Position to row T4, column 0
   776	400651'	260 17 0 00 400642*		PUSHJ	P,PUTSQ1	;Start it off
   777	400652'	201 01 0 04 000040 		MOVEI	T1,40(T4)	;Get row position from T4
   778	400653'	136 01 0 00 000010 		IDPB	T1,TY
   779	400654'	201 01 0 00 000040 		MOVEI	T1,40		;Move to column zero
   780	400655'	136 01 0 00 000010 		IDPB	T1,TY
   781	400656'	263 17 0 00 000000 		POPJ	P,
   782
   783					;S - Insert a space
   784
   785	400657'	201 01 0 00 401211'	SCONCE:	MOVEI	T1,[BYTE (7) ESC,SP,"0",SP,ESC,SP,SP,0]
   786	400660'	324 17 0 00 400637*		PJRST	PUTSTG		;Insert mode on, SP, insert mode off
SEDTTY - CSM supported terminal definitions for the editor	MACRO %53B(1155)-2 17:05 16-Oct-85 Page 16
SEDTTY	MAC	18-Apr-74 21:56		VT100 -- Dispatch table

   787					SUBTTL	VT100 -- Dispatch table
   788
   789	000151'					RELOC		;Put in LOWSEG
   790	000151'				DH19A:!				;Heathkit H19 in ANSI mode
   791	000151'				DVT102:!DVT220:!		;VT102 and VT200 series have insert/delete
   792	000151'				DVK100:!DGIGI:!			;GIGI terminal in ANSI mode
   793	000000				DVT100:	PHASE	0		;VT100,VT101,VT125,VT180
   794	000000	033 133 101 00000 	  CUP:	BYTE (7) ESC,"[","A"	;Cursor up
   795	000001	033 133 102 00000 	  CDN:	BYTE (7) ESC,"[","B"	; down
   796	000002	033 133 103 00000 	  CRG:	BYTE (7) ESC,"[","C"	; right
   797	000003	010 0000000000 		  CLF:	BYTE (7) 10		; left
   798	000004	033 133 110 015 000 	  CHM:	BYTE (7) ESC,"[","H",CR	; home
   799	000005	033 133 112 00000 	  CPG:	BYTE (7) ESC,"[","J"	;Clear page
   800	000006	033 133 113 00000 	  CLN:	BYTE (7) ESC,"[","K"	;Clear line
   801	000007	033 104 00000000 	  RUP:	BYTE (7) ESC,"D"	;Roll up and clear line
   802	000010	033 115 00000000 	  RDN:	BYTE (7) ESC,"M"	;Roll down and clear line
   803	000011	033 133 067 155 000 	  PON:	BYTE (7) ESC,"[","7","m"; Protect on
   804	000012	033 133 060 155 000 	  POF:	BYTE (7) ESC,"[","0","m";Protect off
   805	000013	002000	400752'		  ILN:	IDARGS,,ILVT10		;Insert line (args in T3 and T4)
   806	000014	000000	000000		  ISP:	0			;Insert space (VT102 only)
   807	000015	002000	400771'		  DLN:	IDARGS,,DLVT10		;Delete line (args in T3 and T4)
   808	000016	000000	000000		  DSP:	0			;Delete space (VT102 only)
   809	000017	000000	400744'		  MVB:	BVT100			;Move to bottom
   810	000020	000000	400735'		  HCP:	HVT100			;Home and clear page
   811	000021	000000	400711'		  PSC:	CVT100			;Routine to position to character
   812	000022	000000	400727'		  PSL:	LVT100			;Routine to position to start of line
   813	000023	000000	000030		  LPP:	^D24			;+LPP Lines per page
   814	000024	000000	000120		  CPL:	^D80			;+CPL Characters per line
   815	000025	000000	600400		  TCH:	TBS!NPG!LSD		;+TCH Flags (hard tabs, keep tty page, LF=down)
   816	000026	000000	400661'		  RTE:	EVT100			;Routine to call on entry
   817	000027	000000	400706'		  RTX:	XVT100			;Routine to call on exit
   818	000030	000000	000000		  NUL:	0			;No nulls needed
   819	000031	000000	400172'		  ITB:	IVT100			;Address of input character table
   820	000032	000000	000000		  MAR:	0			;Use PON to mark position
   821	000204'					DEPHASE
   822	400661'					RELOC		;Back to HISEG
SEDTTY - CSM supported terminal definitions for the editor	MACRO %53B(1155)-2 17:05 16-Oct-85 Page 17
SEDTTY	MAC	18-Apr-74 21:56		VT100 -- Entry, Exit, and cursor positioning routines

   823					SUBTTL	VT100 -- Entry, Exit, and cursor positioning routines
   824
   825					;I - Input character table
   826
   827			400172'		IVT100==IVT52			;Same as VT52
   828
   829					;E - Set up terminal on entry to SED
   830
   831					EVT100:	MOVEI	T1,[BYTE (7) ESC,"<",ESC,"[","H";> Force ANSI mode, HOME
   832							BYTE (7) ESC,"=",ESC,"[","?"	;Set keypad mode
   833	400661'	201 01 0 00 401213'			BYTE (7) "4","l",0 ]		;Disable smooth scrolling
   834	400662'	260 17 0 00 400660*		PUSHJ	P,PUTSTG	;Set up VT100
   835
   836	400663'	200 01 0 00 400076*		MOVE	T1,TRMNAM	;Get terminal type
   837	400664'	312 01 0 00 401216'		CAME	T1,['VK100 ']	;GIGI?
   838	400665'	316 01 0 00 401217'		CAMN	T1,['GIGI  ']	; ...
   839						 JRST	[SETZM	ILN(TM)	  ;Yes, cannot use limited scrolling region
   840							 SETZM	DLN(TM)	  ; to insert/delete lines
   841							 MOVEI	T1,PGIGI  ;Get addr of "protect on" routine
   842							 MOVEM	T1,PON(TM); since string is more than 5 characters
   843	400666'	254 00 0 00 401220'			 PJRST	PUTTYP]
   844	400667'	201 01 0 00 000001 		MOVEI	T1,1		;Set up full scrolling region
   845	400670'	260 17 0 00 401006'		PUSHJ	P,SVT100
   846	400671'	200 01 0 00 400663*		MOVE	T1,TRMNAM
   847	400672'	554 02 0 00 000001 		HLRZ	T2,T1		;Get 1st 3 letters
   848	400673'	302 02 0 00 666422 		CAIE	T2,'VT2'	;VT200 series?
   849	400674'	316 01 0 00 401225'		CAMN	T1,['VT131 ']
   850	400675'	254 00 0 00 400702'		 JRST	EVT102		;Can do insert/delete characters
   851	400676'	312 01 0 00 401226'		CAME	T1,['VT132 ']
   852	400677'	316 01 0 00 401227'		CAMN	T1,['VT102 ']	;VT102?  (assumed to have printer port)
   853	400700'	254 00 0 00 400702'		 JRST	EVT102
   854	400701'	324 17 0 00 400640*		PJRST	PUTTYP		;Just a simple VT100
   855
   856					EVT102:	MOVSI	T1,[IDARGS,,ILV102	;Insert line
   857							    IDARGS,,ICV102	;Insert character
   858							    IDARGS,,DLV102	;Delete line
   859	400702'	205 01 0 00 401230'			    IDARGS,,DCV102]	;Delete character
   860	400703'	541 01 0 07 000013 		HRRI	T1,ILN(TM)	;Destination
   861	400704'	251 01 0 07 000016 		BLT	T1,DSP(TM)	;Set up for VT102/VT132 insert/delete
   862	400705'	324 17 0 00 400701*		PJRST	PUTTYP
   863
   864					;X - Exit from SED
   865
   866									; <
   867					XVT100:	MOVEI	T1,[BYTE (7) ESC,">",ESC,"[","?","4","h",ESC,"[","1"
   868	400706'	201 01 0 00 401234'			BYTE (7) ";","2","4","r",ESC,"[","H",CR,LF,0]
   869	400707'	260 17 0 00 400662*		PUSHJ	P,PUTSTG	;Disable keypad, enable smooth scrolling
   870	400710'	324 17 0 00 400705*		PJRST	PUTTYP
SEDTTY - CSM supported terminal definitions for the editor	MACRO %53B(1155)-2 17:05 16-Oct-85 Page 18
SEDTTY	MAC	18-Apr-74 21:56		VT100 -- Entry, Exit, and cursor positioning routines

   871					;C - Position to column
   872
   873	400711'	200 01 0 00 401240'	CVT100:	MOVE	T1,[BYTE (7) ESC,"["]	;Position to row RW, column CM
   874	400712'	260 17 0 00 400651*		PUSHJ	P,PUTSQ1	;Start it off
   875	400713'	201 01 0 15 000001 		MOVEI	T1,1(RW)	;Get row position
   876	400714'	260 17 0 00 400603*		PUSHJ	P,PUTNUM	;Convert to ASCII
   877	400715'	201 01 0 00 000073 		MOVEI	T1,";"		;Semicolon
   878	400716'	136 01 0 00 000010 		IDPB	T1,TY		;To separate coords
   879	400717'	201 01 0 16 000001 		MOVEI	T1,1(CM)	;Get column position
   880	400720'	260 17 0 00 400714*		PUSHJ	P,PUTNUM	;Put in string
   881	400721'	201 01 0 00 000110 		MOVEI	T1,"H"		;Code for positioning
   882	400722'	136 01 0 00 000010 		IDPB	T1,TY
   883	400723'	326 16 0 00 400116'	IFTYM<	JUMPN	CM,CPOPJ
   884	400724'	201 01 0 00 000015 		MOVEI	T1,CR		;*HACK* for TYMCOM-X
   885	400725'	136 01 0 00 000010 		IDPB	T1,TY	>
   886	400726'	263 17 0 00 000000 		POPJ	P,		;Done
   887
   888					;L - Move to line
   889
   890	400727'	200 01 0 00 401240'	LVT100:	MOVE	T1,[BYTE (7) ESC,"["]	;Position to row T4, column 0
   891	400730'	260 17 0 00 400712*		PUSHJ	P,PUTSQ1	;Start it off
   892	400731'	201 01 0 04 000001 		MOVEI	T1,1(T4)	;Get row position
   893	400732'	260 17 0 00 400720*		PUSHJ	P,PUTNUM	;Convert to ASCII
   894	400733'	200 01 0 00 401241'		MOVE	T1,[BYTE (7)";","1","H",CR,0];Move to column zero
   895	400734'	324 17 0 00 400730*		PJRST	PUTSQ1		;Store string and return
   896
   897					;H - HOME and erase (takes more than 5 characters)
   898
   899					HVT100:	MOVEI	T1,[BYTE (7) ESC,"[","H",ESC,"["	;Home and clear page
   900	400735'	201 01 0 00 401242'			    BYTE (7) "J",CR,0]
   901	400736'	260 17 0 00 400707*		PUSHJ	P,PUTSTG
   902	400737'	260 17 0 00 400710*		PUSHJ	P,PUTTYP	;Output it now
   903	400740'	201 01 0 00 000144 		MOVEI	T1,^D0100	;Delay just a little
   904	400741'	047 01 0 00 000072 	TOPS10<	HIBER	T1,
   905	400742'	255 00 0 00 000000 		  JFCL	>
   906					TOPS20<	DISMS	>
   907	400743'	263 17 0 00 000000 		POPJ	P,
   908
   909					;B - Move to bottom
   910
   911	400744'	261 17 0 00 000004 	BVT100:	PUSH	P,T4
   912	400745'	200 04 0 07 000023 		MOVE	T4,LPP(TM)	;Lines per page
   913	400746'	275 04 0 00 000001 		SUBI	T4,1		;Set to what LVT100 expects
   914	400747'	260 17 0 00 400727'		PUSHJ	P,LVT100
   915	400750'	262 17 0 00 000004 		POP	P,T4
   916	400751'	263 17 0 00 000000 		POPJ	P,
SEDTTY - CSM supported terminal definitions for the editor	MACRO %53B(1155)-2 17:05 16-Oct-85 Page 19
SEDTTY	MAC	18-Apr-74 21:56		VT100 -- Entry, Exit, and cursor positioning routines

   917					;NOTE:	SED.MAC was modified to notice IDARGS bit set on dispatch
   918
   919					;IL - Insert line, T3 has the row, T4 has how many lines to insert
   920					;Cursor is already at the row specified by T3, set scrolling region to be
   921					;from there to bottom, roll the screen down using reverse index, reset.
   922
   923	400752'	322 03 0 00 400765'	ILVT10:	JUMPE	T3,ILVT00	;Optimize insert at top
   924	400753'	261 17 0 00 000004 		PUSH	P,T4
   925	400754'	201 01 0 03 000001 		MOVEI	T1,1(T3)	;First roll to scroll
   926	400755'	260 17 0 00 401006'		PUSHJ	P,SVT100	;Set scrolling region
   927	400756'	200 04 0 00 000003 		MOVE	T4,T3		;Bug in VT100 ROM demands that the cursor be
   928	400757'	260 17 0 00 400727'		PUSHJ	P,LVT100	; repositioned after setting scroll region
   929	400760'	262 17 0 00 000004 		POP	P,T4
   930
   931	400761'	200 01 0 00 401244'		MOVE	T1,[BYTE (7) ESC,"M"]
   932	400762'	260 17 0 00 400734*		PUSHJ	P,PUTSQ1	;Roll screen down 1 line
   933	400763'	367 04 0 00 400761'		SOJG	T4,.-2		;Repeat
   934	400764'	254 00 0 00 401002'		JRST	RVT100		;Restore the initial state
   935
   936	400765'	200 01 0 00 401244'	ILVT00:	MOVE	T1,[BYTE (7) ESC,"M"]
   937	400766'	260 17 0 00 400762*		PUSHJ	P,PUTSQ1	;Roll down from top of screen
   938	400767'	367 04 0 00 400765'		SOJG	T4,.-2
   939	400770'	263 17 0 00 000000 		POPJ	P,
   940
   941					;DL - Delete line, T3 has the row, T4 has number of lines to delete
   942					;Cursor is already at the row specified by T3, set scrolling region to be
   943					;from there to bottom, roll the screen up using index, reset.
   944
   945	400771'	200 01 0 07 000023 	DLVT10:	MOVE	T1,LPP(TM)	;Get lines per page
   946	400772'	301 03 0 01 777777 		CAIL	T3,-1(T1)	;Deleting the bottom line?
   947						 JRST	[MOVE	T1,CLN(TM)	;Yes, just erase it
   948	400773'	254 00 0 00 401245'			 PJRST	PUTSQ1	]	; and let SED write new bottom line
   949	400774'	201 01 0 03 000001 		MOVEI	T1,1(T3)	;Get the current row
   950	400775'	260 17 0 00 401006'		PUSHJ	P,SVT100	;Make it the top of the region
   951	400776'	260 17 0 00 400744'		PUSHJ	P,BVT100	;Go to bottom of screen
   952	400777'	200 01 0 00 401247'		MOVE	T1,[BYTE (7) ESC,"D"]
   953	401000'	260 17 0 00 400766*		PUSHJ	P,PUTSQ1	;Roll screen up 1 line
   954	401001'	367 04 0 00 400777'		SOJG	T4,.-2		;Repeat
   955									;Fall into RVT100
   956					;Reset scrolling region on VT100
   957
   958	401002'	201 01 0 00 000001 	RVT100:	MOVEI	T1,1		;Reset scrolling region
   959	401003'	260 17 0 00 401006'		PUSHJ	P,SVT100
   960	401004'	200 04 0 00 000003 		MOVE	T4,T3		;Reposition to proper row
   961	401005'	324 17 0 00 400727'		PJRST	LVT100
   962
   963					;Set scrolling region - call with top row in T1 (a number from 1 to 23)
   964
   965	401006'	261 17 0 00 000001 	SVT100:	PUSH	P,T1		;Save top row
   966	401007'	200 01 0 00 401240'		MOVE	T1,[BYTE (7) ESC,"[",0]
   967	401010'	260 17 0 00 401000*		PUSHJ	P,PUTSQ1
   968	401011'	262 17 0 00 000001 		POP	P,T1
   969	401012'	260 17 0 00 400732*		PUSHJ	P,PUTNUM	;Output digits
   970	401013'	205 01 0 00 354000 		MOVSI	T1,(ASCIZ /;/)
   971	401014'	260 17 0 00 401010*		PUSHJ	P,PUTSQ1
SEDTTY - CSM supported terminal definitions for the editor	MACRO %53B(1155)-2 17:05 16-Oct-85 Page 19-1
SEDTTY	MAC	18-Apr-74 21:56		VT100 -- Entry, Exit, and cursor positioning routines

   972	401015'	200 01 0 07 000023 		MOVE	T1,LPP(TM)	;Lines per page
   973	401016'	260 17 0 00 401012*		PUSHJ	P,PUTNUM
   974	401017'	205 01 0 00 710000 		MOVSI	T1,(ASCIZ /r/)
   975	401020'	324 17 0 00 401014*		PJRST	PUTSQ1		;Store and return
   976
   977					;"Protected" field for a GIGI
   978
   979	401021'	201 01 0 00 401250'	PGIGI:	MOVEI	T1,[BYTE (7) ESC,"[","2",";","7","m",0]
   980	401022'	324 17 0 00 400736*		PJRST	PUTSTG		;Dim inverse video on GIGI
   981
   982
   983					;Insert spaces for VT102, number in T4
   984
   985	401023'	200 01 0 00 401252'	ICV102:	MOVE	T1,[BYTE (7) ESC,"[","4","h"]
   986	401024'	260 17 0 00 401020*		PUSHJ	P,PUTSQ1	;Turn on INSERT mode
   987	401025'	201 00 0 00 000040 		MOVEI	T0,SP		;Get a space
   988	401026'	136 00 0 00 000010 		IDPB	T0,TY		;Store in string
   989	401027'	367 04 0 00 401026'		SOJG	T4,.-1		;T4 has number of spaces to insert
   990	401030'	200 01 0 00 401253'		MOVE	T1,[BYTE (7) ESC,"[","4","l"]
   991	401031'	324 17 0 00 401024*		PJRST	PUTSQ1		;Disable INSERT mode
   992
   993					;Delete spaces for VT102, number in T4
   994
   995	401032'	201 03 0 00 000120 	DCV102:	MOVEI	T3,"P"		;Last char of sequence
   996	401033'	324 17 0 00 401034'		PJRST	ESCNUM		;Output ESC, "[", number, and letter
   997
   998					IFN BUG102,<	;A VT100 with printer port has the following problems:
   999						;1) $[10L to insert 10 lines is much slower than split scroll
  1000						;2) $[10M to delete 10 lines is much slower than split scroll
  1001						;3) New lines added to the screen have the same character attributes
  1002					;as the preceeding line.  If you INSERT-LINE while positioned to a line with
  1003					;inverse video characters, the new "blank" line will have inverse video spaces.
  1004					;If you DELETE-LINE and line 24 has inverse video, the new "blank" line on
  1005					;line 24 will also have inverse video spaces.  (Common with /DTABS)
  1006			400752'		ILV102=ILVT10	;Use split scrolling region to insert line
  1007			400771'		DLV102=DLVT10	;Use split scrolling region to delete line
  1008					>  ;End of BUG102
  1009
  1010					IFE BUG102,<	;Use these at your own risk
  1011					;Insert lines for VT102, number in T4
  1012					ILV102:	MOVEI	T3,"L"		;Last char of sequence
  1013						PJRST	ESCNUM		;Output ESC, "[", number, and letter
  1014
  1015					;Delete lines for VT102, number in T4
  1016					DLV102:	MOVEI	T3,"M"		;Last char of sequence
  1017					;*;	PJRST	ESCNUM		;Output ESC, "[", number, and letter
  1018					>  ;End of BUG102
  1019
  1020	401034'	200 01 0 00 401240'	ESCNUM:	MOVE	T1,[BYTE (7) ESC,"["]
  1021	401035'	260 17 0 00 401031*		PUSHJ	P,PUTSQ1	;Start it off
  1022	401036'	200 01 0 00 000004 		MOVE	T1,T4		;Number of repetitions
  1023	401037'	260 17 0 00 401016*		PUSHJ	P,PUTNUM	;Output digits
  1024	401040'	136 03 0 00 000010 		IDPB	T3,TY		;Output final uppercase letter
  1025	401041'	263 17 0 00 000000 		POPJ	P,
SEDTTY - CSM supported terminal definitions for the editor	MACRO %53B(1155)-2 17:05 16-Oct-85 Page 20
SEDTTY	MAC	18-Apr-74 21:56		Unimplemented terminal types

  1026					SUBTTL	Unimplemented terminal types
  1027
  1028	401042'				DAPPLE:	DADM3A:	DADM5:	DTV910:	DTV925:	DTV950:
  1029	000000					PHASE	0
  1030	000000	000000	000000		CUP:	00		;Up
  1031	000001	000000	000001		CDN:	01		;Down
  1032	000002	000000	000002		CRG:	02		;Right
  1033	000003	000000	000003		CLF:	03		;Left
  1034	000004	000000	000004		CHM:	04		;Home
  1035	000005	000000	000005		CPG:	05		;Clear to end of page
  1036	000006	000000	000006		CLN:	06		;Clear to end of line
  1037	000007	000000	000007		RUP:	07		;Roll screen up and clear new line
  1038	000010	000000	000010		RLD:	10		;Roll screen down, ditto
  1039	000011	000000	000011		PON:	11		;Protect on
  1040	000012	000000	000012		POF:	12		;Protect off
  1041	000013	000000	000013		ILN:	13		;Insert a blank line
  1042	000014	000000	000014		ISP:	14		;Insert a space
  1043	000015	000000	000015		DLN:	15		;Delete a line
  1044	000016	000000	000016		DSP:	16		;Delete a space
  1045	000017	000000	000017		MVB:	17		;Move to bottom of page
  1046	000020	000000	000020		HCP:	20		;Home and clear page
  1047	000021	000000	000021		PSC:	21		;Position to a particular row, column
  1048	000022	000000	000022		PSL:	22		;Position to start of line
  1049	000023	000000	000023		LPP:	23		;Lines per page
  1050	000024	000000	000024		CPL:	24		;Characters per line
  1051	000025	000000	000025		TCH:	25		;Terminal characteristics flags
  1052	000026	000000	401075'		RTE:	EDUMMY		;Routine to call when editor is started
  1053	000027	000000	000027		RTX:	27		;Routine to call when editor is exited
  1054	000030	000000	000030		NUL:	30		;Number of nulls to output,,null character
  1055	000031	000000	000031		ITB:	31		;Address of input character table
  1056	000032	000000	000032		MAR:	32		;Mark to put up on enter (if no protected fields)
  1057	401075'					DEPHASE
  1058	401075'				EDUMMY:	OUTSTR	[ASCIZ	/
  1059	401075'	051 03 0 00 401254'	Sorry, but this type of terminal is not supported yet/]
  1060	401076'	047 00 0 00 000012 		EXIT
  1061
  1062					COMMENT ~
  1063
  1064					APPLE8
  1065					  ^K $F Clear to end of screen
  1066					  ^L $@ Home and erase
  1067					  ^N    Normal video
  1068					  ^O    Reverse video
  1069					  ^Y    Home
  1070					  ^Z    Clear all of current line
  1071					  ^\    Forward Space
  1072					  ^] $E Clear to end of line
  1073					  ^^    Goto column, row
  1074					  $A Up, $B Right, $C Left, $D Down
  1075
  1076					;End of COMMENT ~
SEDTTY - CSM supported terminal definitions for the editor	MACRO %53B(1155)-2 17:05 16-Oct-85 Page 21
SEDTTY	MAC	18-Apr-74 21:56		Unimplemented terminal types

  1077					COMMENT ~
  1078
  1079
  1080					Data General DASHER D200        NEWLINE sends LF, does CR and LF functions
  1081
  1082					ERASE PAGE      CMD PRINT       ERASE EOL
  1083					Ctrl-L          Ctrl-^ Ctrl-Q   Ctrl-K
  1084
  1085					  C1            UP ARROW          C2                Direct Cursor Addressing
  1086					Ctrl-^ \        Ctrl-W          Ctrl-^ ]            is not known.
  1087
  1088					LEFT ARROW        HOME          RIGHT ARROW
  1089					Ctrl-Y          Ctrl-H          Ctrl-X
  1090
  1091					  C3            DOWN ARROW        C4
  1092					Ctrl-^ ^        Ctrl-Z          Ctrl-^ _
  1093
  1094					Control-circumflex is followed by a single character.  (S1 = Shift-F1)
  1095
  1096					C1  C2  C3  C4  S15 S1  S2  S3  S4  S5  S6  S7  S8  S9  S10 S11 S12 S13 S14
  1097					 \   ]   ^   _   `   a   b   c   d   e   f   g   h   i   j   k   l   m   n
  1098
  1099					CMD+PRINT       F15 F1  F2  F3  F4  F5  F6  F7  F8  F9  F10 F11 F12 F13 F14
  1100					 Ctrl-Q          p   q   r   s   t   u   v   w   x   y   z   {   |   }   ~
  1101
  1102	401077'				LITS:	END

NO ERRORS DETECTED

HI-SEG. BREAK IS 401270
PROGRAM BREAK IS 000204
CPU TIME USED 01:42.423

34P CORE USED
SEDTTY - CSM supported terminal definitions for the editor	MACRO %53B(1155)-2 17:05 16-Oct-85 Page S-1
SEDTTY	MAC	18-Apr-74 21:56		SYMBOL TABLE

AUXCAL	042000	000000		EVT102		400702'		OKTYPE		400053'		%DL		000006	spd
BADTY2		400150'		EVT52		400533'		OUTSTR	051140	000000		%DS		000023	spd
BADTYP		400133'		EXIT	047000	000012		P		000017		%EC		000017	spd
BH2621		400606'		FT$TYM	777777	777777	spd	PGIGI		401021'		%EX		000030	spd
BUG102	777777	777777	spd	GETYPE		400117'		PJRST	324740	000000		%FL		000002	spd
BVT100		400744'		HCP		000020		POF		000012		%GO		000020	spd
CCONCE		400641'		HIBER	047000	000072		PON		000011		%IL		000004	spd
CDN		000001		HVT100		400735'		PSC		000021		%IN		000041	spd
CH2621		400565'		I.2621		400402'		PSL		000022		%IS		000001	spd
CHM		000004		I.ADM3		400454'		PUT6		400163'		%LF		000012	spd
CLF		000003		I.CONC		400321'		PUTNUM		401037'	ext	%MK		000044	spd
CLN		000006		I.TV95		400524'		PUTSQ1		401246'	ext	%PK		000026	spd
CM		000016		I.VT52		400232'		PUTSTG		401022'	ext	%PT		000007	spd
CON108		000001	spd	IADM3A		400414'		PUTTYP		401224'	ext	%RBL		000027	spd
CPG		000005		ICONCE		400261'		RDN		000010		%RBP		000021	spd
CPL		000024	spd	ICV102		401023'		RESET	047000	000000		%RC		000040	spd
CPOPJ		400116'		IDARGS		002000	spd	RLD		000010		%RFL		000024	spd
CR		000015	spd	IH2621		400342'		RTE		000026		%RFP		000031	spd
CRG		000002		ILN		000013		RTX		000027		%RS		000000	spd
CUP		000000		ILV102		400752'		RUP		000007		%RT		000015	spd
CVIS20		400541'	spd	ILVT00		400765'		RVT100		401002'		%SB		000005	spd
CVT100		400711'		ILVT10		400752'		RW		000015		%SF		000022	spd
CVT52		400541'		IONEOU	051640	000000		SCONCE		400657'		%SL		000013	spd
DADM3A		401042'		ISP		000014		SLW		001000	spd	%SR		000014	spd
DADM5		401042'		ITB		000031		SP		000040		%SW		000016	spd
DAPPLE		401042'		ITTYPE		000000		SVT100		401006'		%TA		000043	spd
DCON08		000117'		ITV950		400464'		T0		000000		%TB		000011	spd
DCONCE		000117'		IVIS20		400172'	spd	T1		000001		%XT		000032	spd
DCV102		401032'		IVT100		400172'	spd	T2		000002		.AXTTP		000100	spd
DGIGI		000151'	spd	IVT52		400172'		T3		000003		.AXWID		000027	spd
DH19		000000'		KVT100		400232'	spd	T4		000004		.TO030		000007	spd
DH19A		000151'	spd	KVT52		400247'		TAB		000011	spd	.TO060		000010	spd
DH2621		000065'		L.2621		000011	spd	TBS		200000	spd	.TO120		000011	spd
DLN		000015		L.ADM3		000007	spd	TCH		000025	spd	.TO240		000013	spd
DLV102		400771'		L.CONC		000020	spd	TERMNL		400044'	int	.TOLNB		001023	spd
DLVT10		400771'		L.TV95		000007	spd	TM		000007		.TOTRM		001041	spd
DQ		000042		L.VT52		000015	spd	TNAMES		400000'		.TOTSP		001031	spd
DSP		000016		LCONCE		400650'		TOPS		000010	spd	.TOWID		001012	spd
DSPTAB		400022'		LF		000012	spd	TRMNAM		401114'	ext
DTV910		401042'		LH2621		400600'		TRMOP.	047000	000116
DTV925		401042'		LITS		401077'		TY		000010
DTV950		401042'		LPP		000023	spd	XCONCE		400632'
DVIS20		000033'		LSD		400000	spd	XH2621		400562'
DVK100		000151'	spd	LVIS20		400550'	spd	XVIS20		400536'	spd
DVT100		000151'		LVT100		400727'		XVT100		400706'
DVT102		000151'	spd	LVT52		400550'		XVT52		400536'
DVT220		000151'	spd	MAR		000032		%$		000033	spd
DVT52		000000'		MRK		040000	spd	%AB		000003	spd
ECONCE		400610'		MVB		000017		%BT		000025	spd
EDUMMY		401075'		MVT100		400232'	spd	%CD		000034	spd
EH2621		400557'		NEL		004000	spd	%CH		000037	spd
ESC		000033		NPG		000400	spd	%CL		000010	spd
ESCNUM		401034'		NUL		000030		%CR		000035	spd
EVIS20		400533'	spd	NUMTRM		000022	spd	%CU		000036	spd
EVT100		400661'		OKTYP1		400106'		%DC		000042	spd

SEDTTY - CSM supported terminal definitions for the editor	MACRO %53B(1155)-2 17:05 16-Oct-85 Page 1
SEDTTY	MAC	18-Apr-74 21:56		Modified by Joe Smith, 1-May-82


Symbol cross reference

BADTY2	   261#	   272
BADTYP	   143	   241#
BH2621	   598	   652#
BUG102	    16	   998	  1010
BVT100	   809	   911#	   951
CCONCE	   698	   765#
CDN	   795#	  1031#
CH2621	   600	   629#
CHM	   798#	  1034#
CLF	   797#	  1033#
CLN	   800#	   947	  1036#
CM	   522	   635	   769	   879	   883
CON108	   657	   667	   685
CPG	   799#	  1035#
CPL	   197	   738	   748	   814#	  1050#
CPOPJ	   200#	   280	   480	   481	   883
CR	   262	   358	   436	   457	   475	   487	   542	   554	   587	   599	   666	   759	   798	   868
	   884	   894	   900
CRG	   796#	  1032#
CUP	   794#	  1030#
CVIS20	   555	   576#
CVT100	   811	   873#
CVT52	   488	   518#	   576
DADM3A	    81	  1028#
DADM5	    82	  1028#
DAPPLE	    83	  1028#
DCON08	    85	   661#
DCONCE	    84	   662#
DCV102	   859	   995#
DGIGI	    86	   792#
DH19	    87	   470#
DH19A	    88	   790#
DH2621	    89	   583#
DLN	   807#	   840	  1043#
DLV102	   858	  1007#
DLVT10	   807	   945#	  1007
DQ	   658#	   694	   718	   719	   721	   722	   741	   755
DSP	   808#	   861	  1044#
DSPTAB	    80#	   148
DTV910	    90	  1028#
DTV925	    91	  1028#
DTV950	    92	  1028#
DVIS20	    93	   538#
DVK100	    94	   792#
DVT100	    96	   793#
DVT102	    97	   791#
DVT220	    98	   791#
DVT52	    95	   471#
ECONCE	   704	   716#
EDUMMY	  1052	  1058#
SEDTTY - CSM supported terminal definitions for the editor	MACRO %53B(1155)-2 17:05 16-Oct-85 Page 1
SEDTTY	MAC	18-Apr-74 21:56		Modified by Joe Smith, 1-May-82


Symbol cross reference

EH2621	   605	   617#
ESC	   357	   390	   437	   458	   471	   472	   473	   475	   476	   477	   479	   486	   487	   506
	   512	   518	   528	   538	   539	   540	   542	   543	   544	   546	   547	   548	   549	   550
	   551	   552	   553	   554	   583	   584	   585	   587	   588	   589	   591	   592	   593	   594
	   595	   596	   597	   599	   617	   623	   629	   643	   652	   662	   663	   664	   666	   686
	   687	   689	   690	   691	   692	   694	   695	   696	   697	   716	   717	   718	   719	   720
	   721	   722	   726	   739	   741	   749	   752	   753	   754	   755	   756	   757	   758	   759
	   765	   775	   785	   794	   795	   796	   798	   799	   800	   801	   802	   803	   804	   831
	   832	   867	   868	   873	   890	   899	   931	   936	   952	   966	   979	   985	   990	  1020
ESCNUM	   996	  1020#
EVIS20	   560	   570#
EVT100	   816	   831#
EVT102	   850	   853	   856#
EVT52	   493	   506#	   570
FT$TYM	    12	   192	   193	   218	   883
GETYPE	   139	   207#
HCP	   810#	  1046#
HVT100	   810	   899#
I.2621	   413	   416#	   425
I.ADM3	   433	   436#	   445
I.CONC	   381	   384#	   404
I.TV95	   454	   457#	   466
I.VT52	   341	   346#	   359	   362	   363
IADM3A	   429#
ICONCE	   377#	   707
ICV102	   857	   985#
IDARGS	   805	   807	   856	   857	   858	   859
IH2621	   409#	   608
ILN	   805#	   839	   860	  1041#
ILV102	   856	  1006#
ILVT00	   923	   936#
ILVT10	   805	   923#	  1006
ISP	   806#	  1042#
ITB	   819#	  1055#
ITTYPE	    14	    15	   217	   228	   240
ITV950	   450#
IVIS20	   563	   567#
IVT100	   819	   827#
IVT52	   337#	   496	   567	   827
KVT100	   352	   363#
KVT52	   351	   365#
L.2621	   413	   425#
L.ADM3	   433	   445#
L.CONC	   381	   404#
L.TV95	   454	   466#
L.VT52	   341	   359#
LCONCE	   699	   775#
LF	   264	   868
LH2621	   601	   643#
LITS	  1102#
SEDTTY - CSM supported terminal definitions for the editor	MACRO %53B(1155)-2 17:05 16-Oct-85 Page 1
SEDTTY	MAC	18-Apr-74 21:56		Modified by Joe Smith, 1-May-82


Symbol cross reference

LPP	   174	   186	   813#	   912	   945	   972	  1049#
LSD	   492	   559	   604	   703	   815
LVIS20	   556	   579#
LVT100	   812	   890#	   914	   928	   961
LVT52	   489	   528#	   579
MAR	   820#	  1056#
MRK	   492
MVB	   809#	  1045#
MVT100	   350	   362#
NEL	   166
NPG	   492	   559	   604	   703	   815
NUL	   818#	  1054#
NUMTRM	    75#	   140	   271
OKTYP1	   179	   185#
OKTYPE	   148#
P	   139	   200	   212	   225	   254	   255	   258	   270	   273	   507	   513	   519	   524	   529
	   534	   618	   624	   630	   632	   636	   639	   644	   646	   724	   725	   743	   751	   760
	   766	   771	   776	   781	   834	   845	   869	   874	   876	   880	   886	   891	   893	   901
	   902	   907	   911	   914	   915	   916	   924	   926	   928	   929	   932	   937	   939	   950
	   951	   953	   959	   965	   967	   968	   969	   971	   973	   986	  1021	  1023	  1025
PGIGI	   841	   979#
POF	   804#	  1040#
PON	   803#	   842	  1039#
PSC	   811#	  1047#
PSL	   812#	  1048#
PUT6	   255	   270	   278#	   283
PUTNUM	    21#	   632	   636	   646	   876	   880	   893	   969	   973	  1023
PUTSQ1	    21#	   507	   513	   519	   529	   618	   624	   630	   644	   648	   751	   766	   776	   874
	   891	   895	   932	   937	   948	   953	   967	   971	   975	   986	   991	  1021
PUTSTG	    21#	   254	   258	   654	   724	   743	   760	   786	   834	   869	   901	   980
PUTTYP	    21#	   273	   508	   514	   619	   625	   725	   744	   761	   843	   854	   862	   870	   902
RDN	   802#
RLD	  1038#
RTE	   816#	  1052#
RTX	   817#	  1053#
RUP	   801#	  1037#
RVT100	   934	   958#
RW	   520	   631	   767	   875
SCONCE	   693	   785#
SLW	   164	   166
SP	   486	   550	   553	   595	   686	   687	   689	   692	   694	   695	   696	   697	   717	   722
	   723	   752	   753	   754	   755	   758	   785	   987
SVT100	   845	   926	   950	   959	   965#
T0	   987	   988
T1	   140	   141	   142	   143	   144	   148	   149	   157	   159	   170	   172	   175	   177	   188
	   190	   193	   195	   207	   209	   219	   221	   243	   244	   248	   253	   256	   262	   263
	   264	   265	   267	   268	   278	   279	   280	   281	   282	   506	   512	   518	   520	   521
	   522	   523	   528	   530	   531	   532	   533	   617	   623	   629	   631	   633	   634	   635
	   637	   638	   643	   645	   647	   652	   716	   730	   732	   739	   741	   749	   752	   765
	   767	   768	   769	   770	   775	   777	   778	   779	   780	   785	   831	   836	   837	   838
SEDTTY - CSM supported terminal definitions for the editor	MACRO %53B(1155)-2 17:05 16-Oct-85 Page 1
SEDTTY	MAC	18-Apr-74 21:56		Modified by Joe Smith, 1-May-82


Symbol cross reference

	   841	   842	   844	   846	   847	   849	   851	   852	   856	   860	   861	   867	   873	   875	   877
	   878	   879	   881	   882	   884	   885	   890	   892	   894	   899	   903	   904	   925	   931
	   936	   945	   946	   947	   949	   952	   958	   965	   966	   968	   970	   972	   974	   979
	   985	   990	  1020	  1022
T2	   149	   150	   158	   171	   189	   208	   241	   243	   269	   731	   847	   848
T3	   138	   141	   159	   160	   161	   163	   165	   181	   183	   190	   191	   194	   195	   197
	   209	   210	   220	   221	   222	   224	   241	   245	   246	   249	   250	   259	   261	   269
	   271	   272	   732	   733	   735	   736	   737	   738	   740	   748	   750	   923	   925	   927
	   946	   949	   960	   995	  1024
T4	   162	   164	   166	   167	   172	   173	   174	   178	   182	   184	   185	   186	   530	   645
	   777	   892	   911	   912	   913	   915	   924	   927	   929	   933	   938	   954	   960	   989
	  1022
TAB	   267
TBS	   492	   559	   703	   815
TCH	   167	   815#	  1051#
TERMNL	    24	   138#	   247	   251
TM	   148	   167	   174	   186	   197	   738	   748	   839	   840	   842	   860	   861	   912	   945
	   947	   972
TNAMES	    56#	    75	   140	   144	   149	   269
TOPS	     9	    10	    11	   152	   205	   274	   275	   286	   729	   904	   906
TRMNAM	    22#	   138	   150	   175	   246	   250	   836	   846
TY	   263	   265	   268	   282	   521	   523	   531	   533	   634	   638	   768	   770	   778	   780
	   878	   882	   885	   988	  1024
XCONCE	   705	   748#
XH2621	   606	   623#
XVIS20	   561	   573#
XVT100	   817	   867#
XVT52	   494	   512#	   573
%$	   354	   358	   366	   389	   421	   424	   436	   457
%AB	   337	   377	   409	   429	   450
%BT	   339	   379	   397	   411	   431	   452
%CD	   349	   386	   419
%CH	   353	   356	   388	   420	   434	   455
%CL	   338	   347	   387	   417
%CR	   346	   384	   416
%CU	   348	   385	   418
%DC	   336	   378	   410	   430	   439	   451	   460
%DL	   337	   377	   409	   429	   442	   450	   463
%DS	   338	   378	   410	   430	   451
%EC	   338	   378	   410	   430	   451
%EX	   340	   380	   412	   432	   453
%FL	   337	   377	   409	   429	   450
%GO	   339	   379	   411	   431	   452
%IL	   337	   377	   409	   429	   441	   450	   462
%IN	   357	   365	   390	   422	   437	   458
%IS	   338	   378	   410	   430	   438	   451	   459
%LF	   338	   378	   410	   430	   451
%MK	   369	   398	   423
%PK	   339	   379	   411	   431	   452
%PT	   337	   377	   409	   429	   450
SEDTTY - CSM supported terminal definitions for the editor	MACRO %53B(1155)-2 17:05 16-Oct-85 Page 1
SEDTTY	MAC	18-Apr-74 21:56		Modified by Joe Smith, 1-May-82


Symbol cross reference

%RBL	   339	   379	   393	   411	   431	   452
%RBP	   337	   377	   395	   409	   429	   450
%RC	   355	   370	   399	   400
%RFL	   339	   379	   394	   411	   431	   452
%RFP	   340	   380	   396	   412	   432	   453
%RS	   367	   376	   408	   428	   449
%RT	   338	   378	   410	   430	   440	   451	   461
%SB	   337	   377	   409	   429	   450
%SF	   339	   379	   411	   431	   452
%SL	   371
%SR	   372
%SW	   338	   378	   410	   430	   451
%TA	   368	   392
%TB	   338	   378	   410	   430	   451
%XT	   340	   380	   412	   432	   453
.AXTTP	   218	   218#	   219
.AXWID	   193
.TO030	   156	   156#	   183
.TO060	   155	   155#	   181
.TO120	   154	   154#	   165
.TO240	   153	   153#	   161	   163
.TOLNB	   169	   169#	   170
.TOTRM	   207
.TOTSP	   157
.TOWID	   188	   730
SEDTTY - CSM supported terminal definitions for the editor	MACRO %53B(1155)-2 17:05 16-Oct-85 Page 1
SEDTTY	MAC	18-Apr-74 21:56		Modified by Joe Smith, 1-May-82


Macro/Opdef cross reference

AUXCAL	   195	   221
EXIT	   274	  1060
HIBER	   904
IFDEC	   192
IFTYM	    12	   193	   218	   883
IONEOU	   727
ND	   153	   154	   155	   156	   169	   218
OUTSTR	   726	  1058
PJRST	   508	   514	   619	   625	   648	   654	   744	   761	   786	   843	   854	   862	   870	   895
	   948	   961	   975	   980	   991	   996
RESET	   252
TOPS10	     9	   152	   205	   274	   729	   904
TOPS20	    10	   275	   286	   906
TOPS30	    11
TRMOP.	   160	   173	   191	   210	   733
TRMS	    30#	    56	    80
X	    52#	    57	    58	    59	    60	    61	    62	    63	    64	    65	    66	    67	    68	    69
	    70	    71	    72	    73	    74	    77#	    81	    82	    83	    84	    85	    86	    87	    88
	    89	    90	    91	    92	    93	    94	    95	    96	    97	    98sS\=I