REM - Program for the GIGI %1(4)	MACRO %53B(1155)-2 22:56 23-Aug-86 Page 1
REM	MAC	 1-Aug-72 16:13		Initialization  Joe Smith @ CSM /JMS

     1					SUBTTL	Initialization  Joe Smith @ CSM /JMS
     2
     3						SEARCH	SYSUNV
     4						SALL
     5
     6	000137	0 001 00 000004 	$BEGIN	(<REM - Program for the GIGI>,REM,1(4),<TOPS10,SCAN,TYPER,VERSION>)
     7
     8					;Definitions
     9
    10			000000			%0==0		;I/O channel used by WILD
    11			000001			TTY==1		;I/O channel to terminal
    12			000002			DSKI==2		;Input channel to disk
    13			000003			DSKO==3		;Output channel to disk
    14
    15			000012			LF=.CHLFD	;Linefeed
    16			000015			CR=.CHCRT	;Carriage return
    17			000033			ESC=.CHESC	;ESCape character
    18
    19			025252			HOUR=1B17/^D24	;One hour in UDT format
    20			000266			MINUTE=HOUR/^D60
    21			000003			SECOND==MINUTE/^D60
    22
    23
    24					;Flag bits in F
    25
    26					      $FLAGS	F.
    27		400000	000000			$FLAG	2H2W	;Print double height double width (GIGI only)
    28		200000	000000			$FLAG	LF	;Previous character was a linefeed
    29		100000	000000			$FLAG	PLOT	;Output is going to the DMP4R plotter
    30		040000	000000			$FLAG	GO	;Print screen image when done or run program when done
    31		020000	000000			$FLAG	SEQ	;Add seqence number bits
    32		010000	000000			$FLAG	WAIT	;OK for DOPRMT to wait for GIGI to say "REM SAVE"
REM - Program for the GIGI %1(4)	MACRO %53B(1155)-2 22:56 23-Aug-86 Page 2
REM	MAC	 1-Aug-72 16:13		Revision history, contents

    33					SUBTTL	Revision history, contents
    34
    35					; 1	 8-Jun-83  JMS	Created
    36					; 2	10-Jul-83  JMS	Finished OLD and SAVE commands.
    37					; 3	26-Aug-83  JMS	Add TYPE command to activate VT102 printer port.
    38					; 4	16-Dec-83  JMS	Look in GGL: if file not found on DSK:.
    39					; 5	16-Dec-83  JMS	Add RUN command to run load and run GGB program.
    40					;
    41					;End of REVISION HISTORY
    42
    43
    44					;      Table of Contents for REM - REMote computer interface
    45					;
    46					;
    47					;			   Section			      Page
    48					;
    49					;    1. Revision history, contents . . . . . . . . . . . . . .   2
    50					;    2. SCAN blocks, list of commands  . . . . . . . . . . . .   3
    51					;    3. Main program . . . . . . . . . . . . . . . . . . . . .   4
    52					;    4. Main command subroutines . . . . . . . . . . . . . . .   6
    53					;    5. File name routines
    54					;         5.1   Do LOOKUP and/or ENTER . . . . . . . . . . . .   7
    55					;         5.2   Get name from SCAN . . . . . . . . . . . . . .   8
    56					;    6. Data area  . . . . . . . . . . . . . . . . . . . . . .   9
REM - Program for the GIGI %1(4)	MACRO %53B(1155)-2 22:56 23-Aug-86 Page 3
REM	MAC	 1-Aug-72 16:13		SCAN blocks, list of commands

    57					SUBTTL	SCAN blocks, list of commands
    58
    59	400000'					$HIGH
    60
    61	400000'	777774	400013'		ISCNBK:	IOWD	CMDLEN,CMDTAB		;Monitor level commands
    62	400001'	000000'	624555			XWD	OFFSET,TP.PFX		;Starting offset, CCL name
    63	400002'	000000	000000			XWD	0,0			;Output,,input routines
    64	400003'	000000	000000			XWD	0,0			;No indirect
    65	400004'	400215'	000000			XWD	DOPRMT,0		;Prompt routine, MONRT.
    66			000005		ISCSIZ==.-ISCNBK
    67
    68	400005'	777756	400017'		VSCNBK:	IOWD	VERBSL,VERBSN		;Length, addr of names of verbs
    69	400006'	400106'	400064'			XWD	VERBSD,VERBSM		;Defaults, routines
    70	400007'	400013'	400042'			XWD	HLPBLK,VERBSP		;Help text, pointers
    71	400010'	777777	777777			EXP	-1			;Standard HLP:REM.HLP
    72			000004		VSCSIZ==.-VSCNBK
    73
    74	400011'	000005	400000'		ISCNPT:	XWD	ISCSIZ,ISCNBK		;ISCAN pointer for monitor commands
    75	400012'	000004	400005'		VSCNPT:	XWD	VSCSIZ,VSCNBK		;VSCAN pointer for verbs
    76	400013'	777757	400130'		HLPBLK:	XWD	-HLPSIZ,HLPMSG		;Pointer to help texts
    77
    78	400014'				CMDTAB:					;Table of monitor level commands
    79	400014'	47 51 47 51 00 00 	GIGCMD:	SIXBIT	/GIGI/		;User commands, such as "GIGI SHOW FOOBAR.PIC"
    80	400015'	57 53 00 00 00 00 	OKCMD:	SIXBIT	/OK/		;When GIGI is in Remote-Basic mode
    81	400016'	62 45 55 00 00 00 	REMCMD:	SIXBIT	/REM/		;From GIGI, such as "REM HOST" or "REM OLD FOO"
    82	400017'	62 45 41 44 71 00 	RDYCMD:	SIXBIT	/READY/		;From other versions of BASIC
    83			000004		CMDLEN==.-CMDTAB
    84
    85		040000	000000			FILRQ==FS.VRQ		;File name is required
    86			000000			FILRQ==0	;*HACK*	;Until VSCAN/PSCAN is fixed
    87
    88					DEFINE	SWTCHS,<
    89					SP (BASIC ,,$BASIC,,     )	;Set terminal to BASIC mode
    90					SP (DOUBLE,,$DOUBL,,FILRQ)	;Print double size on LA34
    91					SP (GIGI  ,,$GIGI ,,FILRQ)	;Read next word for actual command
    92					SP (HOST  ,,$HOST ,,     )	;"Now connected to TOPS-10"
    93					SP (LOAD  ,,$LOAD ,,FILRQ)	;Loads BASIC program into the GIGI
    94					SP (OK    ,,$OK   ,,     )	;Response from GIGI, null command
    95					SP (OLD   ,,$OLD  ,,FILRQ)	;Request from GIGI to load BASIC program
    96					SP (PRINT ,,$PRIN ,,FILRQ)	;Display PIC file and send to Graphics Printer
    97					SP (PLOT  ,,$PLOT ,,FILRQ)	;Send PIC file to DMP4R plotter
    98					SP (READY ,,$OK   ,,     )	;Another null command from BASIC
    99					SP (REM   ,,$REM  ,,FILRQ)	;Read next word for actual command
   100					SP (RUN   ,,$RUNIT,,FILRQ)	;Loads BASIC program into the GIGI and run it
   101					SP (SAVE  ,,$SAVE ,,FILRQ)	;Save BASIC program on the DEC-10
   102					SP (SEQUEN,,$SEQ  ,,FILRQ)	;Set LSN bits so SOS can edit the BASIC program
   103					SP (SHOW  ,,$SHOWX,,FILRQ)	;Display PIC file on GIGI or VT125
   104					SP (STORE ,,$STORE,,FILRQ)	;Accept a data file from a Personal Computer
   105					SP (TYPE  ,,$TYPEX,,FILRQ)	;Send file to LA50 on PC350 or VT102
   106					SP (UNSEQU,,$UNSEQ,,FILRQ)	;Clear LSN bits so SED can edit BASIC programs
   107					>
   108					PAGE
REM - Program for the GIGI %1(4)	MACRO %53B(1155)-2 22:56 23-Aug-86 Page 3-1
REM	MAC	 1-Aug-72 16:13		SCAN blocks, list of commands

   109						DOSCAN	(VERBS)			;Create the SCAN tables
   110	400020'	424163	514300			EXP  SIXBIT  /BASIC/
   111	400021'	445765	425445			EXP  SIXBIT  /DOUBLE/
   112	400022'	475147	510000			EXP  SIXBIT  /GIGI/
   113	400023'	505763	640000			EXP  SIXBIT  /HOST/
   114	400024'	545741	440000			EXP  SIXBIT  /LOAD/
   115	400025'	575300	000000			EXP  SIXBIT  /OK/
   116	400026'	575444	000000			EXP  SIXBIT  /OLD/
   117	400027'	606251	566400			EXP  SIXBIT  /PRINT/
   118	400030'	605457	640000			EXP  SIXBIT  /PLOT/
   119	400031'	624541	447100			EXP  SIXBIT  /READY/
   120	400032'	624555	000000			EXP  SIXBIT  /REM/
   121	400033'	626556	000000			EXP  SIXBIT  /RUN/
   122	400034'	634166	450000			EXP  SIXBIT  /SAVE/
   123	400035'	634561	654556			EXP  SIXBIT  /SEQUEN/
   124	400036'	635057	670000			EXP  SIXBIT  /SHOW/
   125	400037'	636457	624500			EXP  SIXBIT  /STORE/
   126	400040'	647160	450000			EXP  SIXBIT  /TYPE/
   127	400041'	655663	456165			EXP  SIXBIT  /UNSEQU/
   128	400042'	000 00 0 00 000000 		Z			;BASIC
   129	400043'	000 00 0 00 000000 		Z			;DOUBLE
   130	400044'	000 00 0 00 000000 		Z			;GIGI
   131	400045'	000 00 0 00 000000 		Z			;HOST
   132	400046'	000 00 0 00 000000 		Z			;LOAD
   133	400047'	000 00 0 00 000000 		Z			;OK
   134	400050'	000 00 0 00 000000 		Z			;OLD
   135	400051'	000 00 0 00 000000 		Z			;PRINT
   136	400052'	000 00 0 00 000000 		Z			;PLOT
   137	400053'	000 00 0 00 000000 		Z			;READY
   138	400054'	000 00 0 00 000000 		Z			;REM
   139	400055'	000 00 0 00 000000 		Z			;RUN
   140	400056'	000 00 0 00 000000 		Z			;SAVE
   141	400057'	000 00 0 00 000000 		Z			;SEQUEN
   142	400060'	000 00 0 00 000000 		Z			;SHOW
   143	400061'	000 00 0 00 000000 		Z			;STORE
   144	400062'	000 00 0 00 000000 		Z			;TYPE
   145	400063'	000 00 0 00 000000 		Z			;UNSEQU
   146	400064'	000000	400427'			XWD	MX.,$BASIC	;BASIC
   147	400065'	000000	400264'			XWD	MX.,$DOUBL	;DOUBLE
   148	400066'	000000	400242'			XWD	MX.,$GIGI	;GIGI
   149	400067'	000000	400252'			XWD	MX.,$HOST	;HOST
   150	400070'	000000	400413'			XWD	MX.,$LOAD	;LOAD
   151	400071'	000000	400263'			XWD	MX.,$OK	;OK
   152	400072'	000000	400431'			XWD	MX.,$OLD	;OLD
   153	400073'	000000	400265'			XWD	MX.,$PRIN	;PRINT
   154	400074'	000000	400266'			XWD	MX.,$PLOT	;PLOT
   155	400075'	000000	400263'			XWD	MX.,$OK	;READY
   156	400076'	000000	400243'			XWD	MX.,$REM	;REM
   157	400077'	000000	400412'			XWD	MX.,$RUNIT	;RUN
   158	400100'	000000	400436'			XWD	MX.,$SAVE	;SAVE
   159	400101'	000000	400476'			XWD	MX.,$SEQ	;SEQUEN
   160	400102'	000000	400267'			XWD	MX.,$SHOWX	;SHOW
   161	400103'	000000	400504'			XWD	MX.,$STORE	;STORE
   162	400104'	000000	400350'			XWD	MX.,$TYPEX	;TYPE
   163	400105'	000000	400477'			XWD	MX.,$UNSEQ	;UNSEQU
REM - Program for the GIGI %1(4)	MACRO %53B(1155)-2 22:56 23-Aug-86 Page 3-2
REM	MAC	 1-Aug-72 16:13		SCAN blocks, list of commands

   164	400106'	000000	000000			XWD	..TEMR,PD.	;BASIC
   165	400107'	000000	000000			XWD	..TEMR,PD.	;DOUBLE
   166	400110'	000000	000000			XWD	..TEMR,PD.	;GIGI
   167	400111'	000000	000000			XWD	..TEMR,PD.	;HOST
   168	400112'	000000	000000			XWD	..TEMR,PD.	;LOAD
   169	400113'	000000	000000			XWD	..TEMR,PD.	;OK
   170	400114'	000000	000000			XWD	..TEMR,PD.	;OLD
   171	400115'	000000	000000			XWD	..TEMR,PD.	;PRINT
   172	400116'	000000	000000			XWD	..TEMR,PD.	;PLOT
   173	400117'	000000	000000			XWD	..TEMR,PD.	;READY
   174	400120'	000000	000000			XWD	..TEMR,PD.	;REM
   175	400121'	000000	000000			XWD	..TEMR,PD.	;RUN
   176	400122'	000000	000000			XWD	..TEMR,PD.	;SAVE
   177	400123'	000000	000000			XWD	..TEMR,PD.	;SEQUEN
   178	400124'	000000	000000			XWD	..TEMR,PD.	;SHOW
   179	400125'	000000	000000			XWD	..TEMR,PD.	;STORE
   180	400126'	000000	000000			XWD	..TEMR,PD.	;TYPE
   181	400127'	000000	000000			XWD	..TEMR,PD.	;UNSEQU
   182
   183
   184
   185	400130'	400427'	401347'		HLPMSG:	$BASIC,,[ASCIZ	~GIGI-BASIC commands~]
   186	400131'	400264'	401353'			$DOUBL,,[ASCIZ	~PIC file name~]
   187	400132'	400242'	401356'			 $GIGI,,[ASCIZ	~DOUBLE, PLOT, PRINT, SHOW~]
   188	400133'	400252'	401363'			 $HOST,,[ASCIZ	~~]
   189	400134'	400413'	401364'			 $LOAD,,[ASCIZ	~GIGI-BASIC file name~]
   190	400135'	400263'	401363'			   $OK,,[ASCIZ	~~]		;READY is same as OK
   191	400136'	400431'	401364'			  $OLD,,[ASCIZ	~GIGI-BASIC file name~]
   192	400137'	400266'	401353'			 $PLOT,,[ASCIZ	~PIC file name~]
   193	400140'	400265'	401353'			 $PRIN,,[ASCIZ	~PIC file name~]
   194	400141'	400243'	401371'			  $REM,,[ASCIZ	~HOST, LOAD, OLD, SAVE, SEQ, STORE, UNSEQ~]
   195	400142'	400412'	401364'			$RUNIT,,[ASCIZ	~GIGI-BASIC file name~]
   196	400143'	400436'	401364'			 $SAVE,,[ASCIZ	~GIGI-BASIC file name~]
   197	400144'	400476'	401402'			  $SEQ,,[ASCIZ	~File without LSN bits~]
   198	400145'	400267'	401353'			$SHOWX,,[ASCIZ	~PIC file name~]
   199	400146'	400350'	401407'			$TYPEX,,[ASCIZ	~Listing file name~]
   200	400147'	400504'	401413'			$STORE,,[ASCIZ	~Data file name~]
   201	400150'	400477'	401416'			$UNSEQ,,[ASCIZ	~File with LSN bits~]
   202			000021		HLPSIZ==.-HLPMSG
   203
REM - Program for the GIGI %1(4)	MACRO %53B(1155)-2 22:56 23-Aug-86 Page 4
REM	MAC	 1-Aug-72 16:13		Main program

   204					SUBTTL	Main program
   205
   206
   207	400151'	634 01 0 00 000001 	START:	TDZA	T1,T1			;Normal entry
   208	400152'	201 01 0 00 000001 		 MOVEI	T1,1			;CCL entry
   209	400153'	202 01 0 00 000000'		MOVEM	T1,OFFSET
   210	400154'	047 00 0 00 000000 		RESET
   211	400155'	200 17 0 00 401422'		MOVE	P,[IOWD PDLEN,PDL]
   212	400156'	332 01 0 00 000000#		SKIPE	T1,.JBHGH+.JBHNM	;Get HISEG name
   213	400157'	047 01 0 00 000043 		 SETNAM	T1,			;Clear JACCT for now
   214
   215	400160'	205 01 0 00 624555 		MOVSI	T1,TP.PFX		;Get the prefix
   216	400161'	260 17 1 00 401423'		$TYPES	(INI)			;Initialize TYPER
   217	400162'	260 17 0 00 400212'		PUSHJ	P,GETTTY		;INIT TTY with no echo
   218	400163'	400 00 0 00 000000 		SETZ	F,			;Clear all flag bits
   219
   220					;Check monitor command
   221
   222	400164'	200 01 0 00 400011'		MOVE	T1,ISCNPT		;Point to ISCAN's data
   223	400165'	260 17 0 00 000000*		PUSHJ	P,.ISCAN##		;Initialize SCANner
   224	400166'	202 01 0 00 000001'		MOVEM	T1,COMDSP		;-1 if RUN command
   225	400167'	335 00 0 00 000001 		SKIPGE	T1			;If it was a RUN command,
   226	400170'	661 00 0 00 010000 		 TXO	F,F.WAIT		; then it is OK to wait
   227
   228	400171'	302 01 0 00 000003 		CAIE	T1,RDYCMD-CMDTAB	;Did some other computer say "Ready"?
   229	400172'	306 01 0 00 000001 		CAIN	T1,OKCMD-CMDTAB		;Did GIGI-BASIC send us an "OK"?
   230	400173'	254 00 0 00 400712'		 JRST	EATCMD			;Yes, ignore it.
   231
   232	400174'	200 01 0 00 400012'	MAINLP:	MOVE	T1,VSCNPT		;Get VSCAN/PSCAN pointer
   233	400175'	260 17 0 00 000000*		PUSHJ	P,.PSCAN##		;Set up partial scanner
   234	400176'	260 17 0 00 400215'		  PUSHJ	P,DOPRMT		;Must have keyword
   235	400177'	254 00 0 00 400204'		JRST	MAIN00			;Skip call to QSCAN
   236
   237					;Here when expecting the GIGI to say "REM SAVE FOOBAR" after a REM LOAD
   238
   239	400200'	515 00 0 00 010000 	MAIN:	MOVX	F,F.WAIT		;Clear all flags but OK-to-wait
   240	400201'	400 01 0 00 000000 		SETZ	T1,			;Use the previous command table
   241	400202'	260 17 0 00 000000*		PUSHJ	P,.QSCAN##		;Get another partial command
   242	400203'	260 17 0 00 400215'		  PUSHJ	P,DOPRMT		;No input, call the prompt routine
   243
   244	400204'	260 17 0 00 000000*	MAIN00:	PUSHJ	P,.KEYWD##		;Process a command
   245	400205'	334 00 0 00 000000 		  SKIPA				;Non-alphameric, may be Control-Z
   246	400206'	254 00 0 00 400200'		JRST	MAIN			;Loop
   247	400207'	323 10 0 00 400200'		JUMPLE	C,MAIN			;Ignore blank lines
   248
   249	400210'	260 17 0 00 000000*	DOEXIT:	PUSHJ	P,.MONRT##		;End of command, exit to monitor
   250	400211'	254 00 0 00 400174'		JRST	MAINLP			;In case of .CONTINUE
REM - Program for the GIGI %1(4)	MACRO %53B(1155)-2 22:56 23-Aug-86 Page 5
REM	MAC	 1-Aug-72 16:13		Prompt routine

   251					SUBTTL	Prompt routine
   252
   253					GETTTY:	OPEN	TTY,[IO.SUP!.IOASC	;Suppress echo
   254							     SIXBIT /TTY/	; on terminal
   255	400212'	050 01 0 00 401424'			     TOBUF,,TIBUF]	;Buffer headers
   256	400213'	260 17 1 00 401427'		  $TYPE	(F,CIT,$NON,<Cannot init TTY>,,A)
   257	400214'	263 17 0 00 000000 		POPJ	P,
   258
   259
   260	400215'	607 00 0 00 010000 	DOPRMT:	TXNN	F,F.WAIT		;OK to wait for "REM SAVE"?
   261	400216'	260 17 1 00 401435'	NOCMD:	 $TYPE (F,M2H,$NON,<Missing 2nd half of command>,,DOEXIT)
   262	400217'	200 02 0 00 401446'		MOVE	T2,[%CNDTM]		;Get date/time
   263	400220'	047 02 0 00 000041 		GETTAB	T2,
   264	400221'	255 00 0 00 000000 		  JFCL
   265
   266					;Prevent CSMCPD(JOBMON) from killing this job while waiting for "REM SAVE"
   267
   268	400222'	051 14 0 00 000000 	DOPRM1:	SKPINL				;Has a command come in yet?
   269	400223'	334 00 0 00 000000 		  SKIPA				;No
   270	400224'	263 17 0 00 000000 		 POPJ	P,			;Yes
   271	400225'	200 01 0 00 401446'		MOVE	T1,[%CNDTM]		;Get date/time
   272	400226'	047 01 0 00 000041 		GETTAB	T1,
   273	400227'	255 00 0 00 000000 		  JFCL
   274	400230'	274 01 0 00 000002 		SUB	T1,T2			;Find elapsed time
   275	400231'	301 01 0 00 052524 		CAXL	T1,2*HOUR		;Been waiting 2 hours?
   276	400232'	254 00 0 00 400237'		 JRST	GOODBY			;Yes, KJOB
   277	400233'	200 01 0 00 401447'		MOVE	T1,[HB.RTL+^D10000]	;Wait for 10 secs
   278	400234'	047 01 0 00 000072 		HIBER	T1,
   279	400235'	255 00 0 00 000000 		  JFCL
   280	400236'	254 00 0 00 400222'		JRST	DOPRM1			;Wait for REM SAVE after REM LOAD
   281
   282					GOODBY:	MOVEI	T1,[SIXBIT /SYS/
   283							    SIXBIT /LOGOUT/
   284	400237'	201 01 0 00 401450'			    EXP 0,0,0,0]
   285	400240'	047 01 0 00 000035 		RUN	T1,
   286	400241'	254 04 0 00 400237'		  HALT	GOODBY
REM - Program for the GIGI %1(4)	MACRO %53B(1155)-2 22:56 23-Aug-86 Page 6
REM	MAC	 1-Aug-72 16:13		GIGI and REM commands

   287					SUBTTL	GIGI and REM commands
   288
   289
   290	400242'	334 01 0 00 401363'	$GIGI:	SKIPA	T1,[GIGCMD-CMDTAB]	;GIGI command
   291	400243'	201 01 0 00 000002 	$REM:	MOVEI	T1,REMCMD-CMDTAB	;REM command
   292	400244'	202 01 0 00 000001'		MOVEM	T1,COMDSP
   293	400245'	661 00 0 00 010000 		TXO	F,F.WAIT		;OK to wait for command
   294
   295					;There is a slight problem here, PSCAN versus top-level VSCAN
   296
   297	400246'	260 17 0 00 400204*	REM1:	PUSHJ	P,.KEYWD##		;Check next keyword
   298	400247'	260 17 1 00 401456'		 $TYPE	(F,ILC,$FUN,<Illegal character |>,,,,P4)
   299	400250'	323 10 0 00 400246'		JUMPLE	C,REM1			;Loop on blank lines
   300	400251'	254 00 0 00 000000*		JRST	.POPJ1##
   301
   302
   303					SUBTTL	HOST, OK, and READY commands
   304
   305
   306	400252'	201 01 0 00 000004 	$HOST:	MOVEI	T1,5-1			;Do all 5 words of the CONFIG name
   307	400253'	201 02 0 00 000011 	HOST1:	MOVEI	T2,.GTCNF		;Config table
   308	400254'	504 02 0 00 000001 		HRL	T2,T1			;Index
   309	400255'	047 02 0 00 000041 		GETTAB	T2,			;Get word
   310	400256'	515 02 0 00 375760 		  MOVX	T2,<ASCII/??/>
   311	400257'	202 02 0 01 000355'		MOVEM	T2,CONFIG(T1)		;Store
   312	400260'	365 01 0 00 400253'		SOJGE	T1,HOST1		;Get all 5
   313	400261'	201 01 0 00 000355'		MOVEI	T1,CONFIG		;Point to ASCIZ
   314	400262'	260 17 1 00 401465'		$TYPE	(N,,$ASC,<Now connected to |>)
   315	400263'	254 00 0 00 400712'	$OK:	JRST	EATCMD			;Ignore "READY" or "OK" messages
REM - Program for the GIGI %1(4)	MACRO %53B(1155)-2 22:56 23-Aug-86 Page 7
REM	MAC	 1-Aug-72 16:13		Commands -- Display PICture file

   316					SUBTTL	Commands -- Display PICture file
   317
   318	400264'	661 00 0 00 400000 	$DOUBL:	TXO	F,F.2H2W		;Print double size
   319	400265'	665 00 0 00 040000 	$PRIN:	TXOA	F,F.GO			;Print screen image afterwards
   320	400266'	661 00 0 00 100000 	$PLOT:	 TXO	F,F.PLOT		;Use DMP-4R commands
   321	400267'	350 00 0 17 000000 	$SHOWX:	AOS	(P)			;Make for skip return
   322	400270'	205 01 0 0043 		MOVSI	T1,'PIC'
   323	400271'	260 17 0 00 400557'		PUSHJ	P,GTIFIL		;Open PICture file for input
   324
   325	400272'	201 01 0 00 000362'		MOVEI	T1,INTBLK		;Set Control-C intercept
   326	400273'	202 01 0 00 000000*		MOVEM	T1,.JBINT
   327	400274'	201 01 0 00 400314'		MOVEI	T1,GRESET		;Routine to go to on Control-C
   328	400275'	202 01 0 00 000366'		MOVEM	T1,ABORTR
   329
   330	400276'	603 00 0 00 100000 		TXNE	F,F.PLOT		;Going to DMP4R plotter?
   331	400277'	051 03 0 00 401007'		 OUTSTR	DMPON			;Yes, turn it on
   332	400300'	607 00 0 00 100000 		TXNN	F,F.PLOT		;Going to GIGI or VT125?
   333	400301'	051 03 0 00 401003'		 OUTSTR	GON$			;Yes, turn it on
   334	400302'	051 03 0 00 401013'		OUTSTR	RGSINI			;Initialize ReGIS
   335
   336	400303'	260 17 0 00 400403'		PUSHJ	P,TYPFIL		;Send the file to the graphics terminal
   337
   338	400304'	623 00 0 00 400000 		TXZE	F,F.2H2W		;Double size copy?
   339	400305'	254 00 0 00 400321'		 JRST	DOUBL			;Yes, requires special handling
   340	400306'	623 00 0 00 040000 		TXZE	F,F.GO			;Print the screen image?
   341	400307'	051 03 0 00 401032'		 OUTSTR	PRISCN			;Yes, activate the Graphics Printer
   342	400310'	260 17 0 00 400314'		PUSHJ	P,GRESET		;Reset GIGI to ASCII mode
   343
   344	400311'	331 00 0 00 000001'	ENDCMD:	SKIPL	COMDSP		;*HACK*	;Started by monitor level command?
   345	400312'	254 00 0 00 400210'		 JRST	DOEXIT		;*HACK*	;Yes
   346	400313'	254 00 0 00 400251*		JRST	.POPJ1##
   347
   348
   349	400314'	051 03 0 00 401004'	GRESET:	OUTSTR	GOFF$			;Turn off ReGIS
   350	400315'	623 00 0 00 100000 		TXZE	F,F.PLOT		;Was the DMP4R turned on?
   351	400316'	051 03 0 00 401011'		 OUTSTR	DMPOFF			;Yes, turn if off
   352	400317'	051 03 0 00 401001'		OUTSTR	LINE23			;Position text cursor on line 23
   353	400320'	263 17 0 00 000000 		POPJ	P,			;Return to VSCAN
   354
   355	400321'	051 03 0 00 401066'	DOUBL:	OUTSTR	HC2X2			;Load 8085 program into font #2
   356	400322'	051 03 0 00 401000'		OUTSTR	HOME			;Make sure cursor is reasonable
   357	400323'	051 03 0 00 401043'		OUTSTR	BASIC2			;Turn on BASIC to host
   358	400324'	260 17 0 00 400333'		PUSHJ	P,CLRIB			;Clear out possible "OK"
   359	400325'	051 03 0 00 401051'		OUTSTR	USR1			;Start the program
   360	400326'	051 03 0 00 401063'		OUTSTR	BASIC0			;Turn off BASIC
   361	400327'	621 00 0 00 040000 		TXZ	F,F.GO			;Screen has been printed
   362
   363	400330'	051 04 0 00 000001 	DOUBL1:	INCHWL	T1			;Wait for response
   364	400331'	302 01 0 00 000061 		CAIE	T1,"1"			;Got the response to PRINT USR(1)?
   365	400332'	254 00 0 00 400330'		 JRST	DOUBL1			;No, get it
   366										;Fall into CLRIB
   367
   368	400333'	201 01 0 00 000001 	CLRIB:	MOVEI	T1,1			;Wait 1 second
   369	400334'	047 01 0 00 000031 		SLEEP	T1,
   370	400335'	051 11 0 00 000000 		CLRBFI				;Clear input buffer of "OK"
REM - Program for the GIGI %1(4)	MACRO %53B(1155)-2 22:56 23-Aug-86 Page 7-1
REM	MAC	 1-Aug-72 16:13		Commands -- Display PICture file

   371	400336'	263 17 0 00 000000 		POPJ	P,
REM - Program for the GIGI %1(4)	MACRO %53B(1155)-2 22:56 23-Aug-86 Page 8
REM	MAC	 1-Aug-72 16:13		Type a file on the printer port

   372					SUBTTL	Type a file on the printer port
   373
   374	400337'	033 133 077 065 151 0 	AUTOON:	BYTE (7) ESC,"[","?","5","i",0	;Auto print, a line at a time
   375	400341'	033 133 077 064 151 0 	AUTOOF:	BYTE (7) ESC,"[","?","4","i",0	;Auto print off
   376	400343'	033 133 077 061 151 0 	PRTCUR:	BYTE (7) ESC,"[","?","1","i",0	;Print line cursor is on
   377	400345'	033 133 151 000 000 	PRTSCN:	BYTE (7) ESC,"[","i",0		;Print screen image
   378	400346'	033 133 065 151 000 0 	PORTON:	BYTE (7) ESC,"[","5","i",0	;Send to printer port, not screen
   379	400347'	033 133 064 151 000 0 	PORTOF:	BYTE (7) ESC,"[","4","i",0	;Send to screen, not printer port
   380
   381	400350'	350 00 0 17 000000 	$TYPEX:	AOS	(P)			;Make for skip return
   382	400351'	205 01 0 00 546364 		MOVSI	T1,'LST'
   383	400352'	260 17 0 00 400557'		PUSHJ	P,GTIFIL		;Open listing file for input
   384
   385	400353'	201 01 0 00 000362'		MOVEI	T1,INTBLK		;Set Control-C intercept
   386	400354'	202 01 0 00 400273*		MOVEM	T1,.JBINT
   387	400355'	201 01 0 00 400364'		MOVEI	T1,PRESET		;Routine to go to on Control-c
   388	400356'	202 01 0 00 000366'		MOVEM	T1,ABORTR
   389
   390	400357'	260 17 0 00 400366'		PUSHJ	P,SETFRM		;SET TTY FORM NO CRLF
   391	400360'	051 03 0 00 400346'		OUTSTR	PORTON			;Enable printer port
   392
   393	400361'	260 17 0 00 400403'		PUSHJ	P,TYPFIL		;Send the file to the graphics terminal
   394
   395	400362'	260 17 0 00 400364'		PUSHJ	P,PRESET		;Reset printer port
   396	400363'	254 00 0 00 400311'		JRST	ENDCMD			;Finish up
   397
   398	400364'	051 03 0 00 400347'	PRESET:	OUTSTR	PORTOF			;Turn off printer port
   399					;*;	PUSHJ	P,RESFRM		;Reset TTY settings
   400	400365'	263 17 0 00 000000 		POPJ	P,
   401
   402	400366'	551 01 0 00 002006 	SETFRM:	MOVX	T1,.TOFRM+.TOSET	;Change formfeed setting
   403	400367'	474 02 0 00 000000 		SETO	T2,			;This TTY
   404	400370'	201 03 0 00 000001 		MOVEI	T3,1			;Enable output of formfeeds
   405	400371'	200 04 0 00 401473'		MOVE	T4,[3,,T1]
   406	400372'	047 04 0 00 000116 		TRMOP.	T4,			;.SET TTY FORMS
   407	400373'	255 00 0 00 000000 		  JFCL
   408	400374'	551 01 0 00 002010 		MOVX	T1,.TONFC+.TOSET	;Change free CRLF setting
   409	400375'	474 02 0 00 000000 		SETO	T2,			;This TTY
   410	400376'	201 03 0 00 000001 		MOVEI	T3,1			;No free ones
   411	400377'	200 04 0 00 401473'		MOVE	T4,[3,,T1]
   412	400400'	047 04 0 00 000116 		TRMOP.	T4,			;SET TTY NO CRLF
   413	400401'	255 00 0 00 000000 		  JFCL
   414	400402'	263 17 0 00 000000 		POPJ	P,
   415
   416					;TYPFIL - Copy DSK file to the TTY
   417
   418	400403'	260 17 0 00 400726'	TYPFIL:	PUSHJ	P,DSKIBT		;Get a byte
   419	400404'	324 17 0 00 400775'		  PJRST	TTYOBF			;EOF
   420	400405'	260 17 0 00 400771'		PUSHJ	P,TTYOBT		;Output it to the terminal
   421	400406'	254 00 0 00 400403'		JRST	TYPFIL
   422
   423	400407'	260 17 1 00 000366'	ABORT:	PUSHJ	P,@ABORTR		;Reset the terminal to normal mode
   424	400410'	047 01 0 00 000012 		MONRT.				;Abort on Control-C
   425	400411'	047 00 0 00 000012 		EXIT
REM - Program for the GIGI %1(4)	MACRO %53B(1155)-2 22:56 23-Aug-86 Page 9
REM	MAC	 1-Aug-72 16:13		Commands -- Get/put GIGI-BASIC files

   426					SUBTTL	Commands -- Get/put GIGI-BASIC files
   427
   428					;GIGI BASIC		!User command to set GIGI to BASIC mode
   429					;REM LOAD PROG.GGB	!User command to load a GIGI-BASIC program
   430					;REM RUN PROG.GGB	!User command to load and run a GIGI-BASIC program
   431					;REM OLD PROG.GGB	!Command from GIGI-BASIC to load program
   432					;REM SAVE PROG.GGB	!Command from GIGI-BASIC to store program
   433
   434
   435	400412'	665 00 0 00 040000 	$RUNIT:	TXOA	F,F.GO			;Run program when done
   436	400413'	621 00 0 00 040000 	$LOAD:	 TXZ	F,F.GO			;Load program but do not run it
   437	400414'	205 01 0 00 474742 		MOVSI	T1,'GGB'
   438	400415'	260 17 0 00 400557'		PUSHJ	P,GTIFIL		;Open BASIC file for input
   439
   440	400416'	051 03 0 00 401043'		OUTSTR	BASIC2			;Turn on BASIC to host
   441						OUTSTR	[ASCIZ /NEW
   442	400417'	051 03 0 00 401474'	/]					;Clear any existing program
   443
   444					;It would be nice to send something to the screen during the load process
   445	400420'	260 17 0 00 400403'		PUSHJ	P,TYPFIL		;Send it to the GIGI
   446
   447	400421'	201 01 0 00 000306'		MOVEI	T1,FLPBLK		;Point to FILOP block
   448	400422'	260 17 1 00 401476'		$TYPE	(N,,$LKP,<PRINT #1,"Loaded |">)
   449	400423'	627 00 0 00 040000 		TXZN	F,F.GO			;Run program?
   450	400424'	254 00 0 00 400427'		 JRST	$BASIC			;No, just start BASIC
   451	400425'	051 03 0 00 401033'		OUTSTR	BASICR			;Yes, activate local BASIC and RUN
   452	400426'	254 00 0 00 400313*		JRST	.POPJ1##
   453
   454	400427'	051 03 0 00 401046'	$BASIC:	OUTSTR	BASIC1			;Connect BASIC to the keyboard
   455	400430'	254 00 0 00 400426*		JRST	.POPJ1##
   456
   457
   458					;When the command 'OLD "NONAME"' is given to MICROSOFT BASIC, it does an implied
   459					;'NEW' to clear memory, sends 'REM OLD NONAME' to the host, and goes into
   460					;receive mode.  The first statement without a line number terminates receive
   461					;mode.  The line 'PRINT "Loaded file"' does this.
   462
   463	400431'	205 01 0 00 474742 	$OLD:	MOVSI	T1,'GGB'
   464	400432'	260 17 0 00 400557'		PUSHJ	P,GTIFIL		;Open BASIC file for input
   465
   466	400433'	260 17 0 00 400403'		PUSHJ	P,TYPFIL		;Send it to the GIGI
   467
   468	400434'	201 01 0 00 000306'		MOVEI	T1,FLPBLK		;Point to FILOP block
   469	400435'	260 17 1 00 401504'		$TYPE	(N,,$LKP,<PRINT "Loaded |">,,P1)
   470
   471
   472
   473	400436'	260 17 0 00 400707'	$SAVE:	PUSHJ	P,LOGINP		;Must be logged in to write files
   474	400437'	205 01 0 00 474742 		MOVSI	T1,'GGB'
   475	400440'	260 17 0 00 400616'		PUSHJ	P,GTOFIL		;Open BASIC file for output
   476	400441'	661 00 0 00 200000 		TXO	F,F.LF			;Start of new line
   477
   478						OPEN	TTY,[.IOPIM		;Packed Image Mode to input ^C
   479							SIXBIT /TTY/
   480	400442'	050 01 0 00 401512'			0,,TIBUF]		;Input only
REM - Program for the GIGI %1(4)	MACRO %53B(1155)-2 22:56 23-Aug-86 Page 9-1
REM	MAC	 1-Aug-72 16:13		Commands -- Get/put GIGI-BASIC files

   481	400443'	260 17 1 00 400213'		  $TYPE	(N,CIT)
   482
   483					;Tell Monitor to give full buffers, not just a single character
   484
   485	400444'	201 01 0 00 002037 		MOVEI	T1,.TOPBS+.TOSET	;Set the PIM break set
   486	400445'	474 02 0 00 000000 		SETO	T2,			;This terminal
   487	400446'	200 03 0 00 401515'		MOVE	T3,[BYTE(9)LF,.CHCNC,.CHCNZ,LF+200]
   488	400447'	200 04 0 00 401473'		MOVE	T4,[3,,T1]		;Point to args
   489					;*;	TRMOP.	T4,			;Break on LF, ^C, or ^Z
   490					;*;	  $TYPE	(N,CSB)
   491
   492	400450'	260 17 0 00 400764'	SAVE1:	PUSHJ	P,TTYIBT		;Get byte from terminal
   493	400451'	302 01 0 00 000003 		CAIE	T1,.CHCNC		;Control-C?
   494	400452'	306 01 0 00 000032 		CAIN	T1,.CHCNZ		; or Control-Z?
   495	400453'	254 00 0 00 400465'		 JRST	SAVE2			;Yes, premature end of file
   496	400454'	603 00 0 00 200000 		TXNE	F,F.LF			;At start of line?
   497	400455'	302 01 0 00 000122 		CAIE	T1,"R"			;And "R" from "REM"?
   498	400456'	334 00 0 00 000000 		 SKIPA				;No
   499	400457'	254 00 0 00 400465'		  JRST	SAVE2			;Yes, end of save
   500	400460'	306 01 0 00 000012 		CAIN	T1,LF			;Linefeed?
   501	400461'	665 00 0 00 200000 		 TXOA	F,F.LF			;Yes
   502	400462'	621 00 0 00 200000 		  TXZ	F,F.LF			;No
   503	400463'	260 17 0 00 400740'		PUSHJ	P,DSKOBT		;Send byte to the disk file
   504	400464'	254 00 0 00 400450'		JRST	SAVE1
   505
   506	400465'	051 11 0 00 000000 	SAVE2:	CLRBFI				;Clear rest of input buffer
   507	400466'	332 01 0 00 000353'		SKIPE	T1,FIVEWD		;If part of a word left over,
   508	400467'	260 17 0 00 400754'		 PUSHJ	P,DSKOWD		;Output it
   509
   510	400470'	260 17 0 00 400760'		PUSHJ	P,DSKOBF		;Output last buffer
   511	400471'	070 03 0 00 000000 		CLOSE	DSKO,			;Close the file
   512
   513					;Reset terminal and output message
   514
   515						OPEN	TTY,[IO.SUP!.IOASC	;Suppress echo
   516							     SIXBIT /TTY/	; on terminal
   517	400472'	050 01 0 00 401516'			     TOBUF,,0]		;Output buffer only
   518	400473'	260 17 1 00 400213'		  $TYPE	(N,CIT)
   519	400474'	201 01 0 00 000316'		MOVEI	T1,SUPBLK		;Point to FILOP block
   520	400475'	260 17 1 00 401521'		$TYPE	(N,,$ENT,<PRINT "Saved |">,,P1)
REM - Program for the GIGI %1(4)	MACRO %53B(1155)-2 22:56 23-Aug-86 Page 10
REM	MAC	 1-Aug-72 16:13		Commands -- Add/remove PDP-10 sequence bits

   521					SUBTTL	Commands -- Add/remove PDP-10 sequence bits
   522
   523	400476'	661 00 0 00 020000 	$SEQ:	TXO	F,F.SEQ			;Add bits
   524	400477'	260 17 0 00 400707'	$UNSEQ:	PUSHJ	P,LOGINP		;Must be logged in to write files
   525	400500'	205 01 0 00 474742 		MOVSI	T1,'GGB'
   526	400501'	260 17 0 00 400664'		PUSHJ	P,GTXFIL		;Open BASIC file for I/O
   527	400502'	051 03 0 00 401527'		OUTSTR	[ASCIZ	/?REM - SEQ and UNSEQ not implemented/]
   528	400503'	047 00 0 00 000012 		EXIT
REM - Program for the GIGI %1(4)	MACRO %53B(1155)-2 22:56 23-Aug-86 Page 11
REM	MAC	 1-Aug-72 16:13		Commands -- Store data file on the DECsystem-10

   529					SUBTTL	Commands -- Store data file on the DECsystem-10
   530
   531			000031			EOM=.CHCNY			;^Y = End of Message
   532			000032			EOF=.CHCNZ			;^Z = End of File
   533
   534	400504'	260 17 0 00 400707'	$STORE:	PUSHJ	P,LOGINP		;Must be logged in to write files
   535	400505'	260 17 0 00 000000*		PUSHJ	P,.SAVE1##		;Preserve P1
   536	400506'	205 01 0 00 444164 		MOVSI	T1,'DAT'
   537	400507'	260 17 0 00 400616'		PUSHJ	P,GTOFIL		;Open DATa file for output
   538
   539					;Use PIM to input Control-C and such
   540
   541						OPEN	TTY,[.IOPIM		;Packed Image Mode to input ^C
   542							SIXBIT /TTY/
   543	400510'	050 01 0 00 401512'			0,,TIBUF]		;Input only
   544	400511'	260 17 1 00 400213'		  $TYPE	(N,CIT)
   545
   546					;Tell Monitor to give full buffers, not just a single character
   547
   548	400512'	201 01 0 00 002037 		MOVEI	T1,.TOPBS+.TOSET	;Set the PIM break set
   549	400513'	474 02 0 00 000000 		SETO	T2,			;This terminal
   550	400514'	200 03 0 00 401537'		MOVE	T3,[BYTE(9)EOM,EOF,EOM+200,EOF+200]
   551	400515'	200 04 0 00 401473'		MOVE	T4,[3,,T1]		;Point to args
   552	400516'	047 04 0 00 000116 		TRMOP.	T4,			;Break on ^Y or ^Z
   553	400517'	260 17 1 00 401540'		  $TYPE	(W,CSB,$NON,<Cannot set PIM break-set on TTY>)
   554
   555					;Enable receipt of Control-S, Control-Q
   556
   557	400520'	201 01 0 00 001021 		MOVEI	T1,.TOPAG		;Read the PAGE bit
   558	400521'	474 02 0 00 000000 		SETO	T2,			;This terminal
   559	400522'	200 05 0 00 401551'		MOVE	P1,[2,,T1]		;Point to args
   560	400523'	047 05 0 00 000116 		TRMOP.	P1,
   561	400524'	201 05 0 00 000001 		  MOVEI	P1,1			;Assume it is on
   562	400525'	201 01 0 00 002021 		MOVEI	T1,.TOPAG+.TOSET	;Now change the bit
   563	400526'	201 03 0 00 000000 		MOVEI	T3,0			; to zero
   564	400527'	200 04 0 00 401473'		MOVE	T4,[3,,T1]
   565	400530'	047 04 0 00 000116 		TRMOP.	T4,
   566	400531'	255 00 0 00 000000 		  JFCL
   567
   568	400532'	260 17 0 00 400764'	STORE1:	PUSHJ	P,TTYIBT		;Get a byte from the terminal
   569	400533'	302 01 0 00 000032 		CAIE	T1,EOF			;End Of File?
   570	400534'	306 01 0 00 000031 		CAIN	T1,EOM			;End Of Message?
   571	400535'	254 00 0 00 400540'		 JRST	STORE2			;Yes, close file
   572	400536'	260 17 0 00 400740'		PUSHJ	P,DSKOBT		;Send byte to the disk file
   573	400537'	254 00 0 00 400532'		JRST	STORE1
   574
   575	400540'	332 01 0 00 000353'	STORE2:	SKIPE	T1,FIVEWD		;If part of a word left over,
   576	400541'	260 17 0 00 400754'		 PUSHJ	P,DSKOWD		;Output it
   577	400542'	260 17 0 00 400760'		PUSHJ	P,DSKOBF		;Output last buffer
   578	400543'	070 03 0 00 000000 		CLOSE	DSKO,			;Close the file
   579
   580					;Restore XON/XOFF
   581
   582	400544'	201 01 0 00 002021 		MOVEI	T1,.TOPAG+.TOSET	;Change the bit
   583	400545'	474 02 0 00 000000 		SETO	T2,			;This terminal
REM - Program for the GIGI %1(4)	MACRO %53B(1155)-2 22:56 23-Aug-86 Page 11-1
REM	MAC	 1-Aug-72 16:13		Commands -- Store data file on the DECsystem-10

   584	400546'	200 03 0 00 000005 		MOVE	T3,P1			;To its old value
   585	400547'	200 04 0 00 401473'		MOVE	T4,[3,,T1]
   586	400550'	047 04 0 00 000116 		TRMOP.	T4,
   587	400551'	255 00 0 00 000000 		  JFCL
   588
   589					;Reset terminal and output message
   590
   591						OPEN	TTY,[IO.SUP!.IOASC	;Suppress echo
   592							     SIXBIT /TTY/	; on terminal
   593	400552'	050 01 0 00 401516'			     TOBUF,,0]		;Output buffer only
   594	400553'	260 17 1 00 400213'		  $TYPE	(N,CIT)
   595	400554'	201 01 0 00 000316'		MOVEI	T1,SUPBLK		;Point to FILOP block
   596	400555'	260 17 1 00 401552'		$TYPE	(N,,$ENT,<Stored in file |>)
   597	400556'	324 17 0 00 400311'		PJRST	ENDCMD
REM - Program for the GIGI %1(4)	MACRO %53B(1155)-2 22:56 23-Aug-86 Page 12
REM	MAC	 1-Aug-72 16:13		File name routines -- Do LOOKUP and/or ENTER

   598					SUBTTL	File name routines -- Do LOOKUP and/or ENTER
   599
   600					;Routine to get an input file spec and LOOKUP file
   601
   602	400557'	200 02 0 00 401560'	GTIFIL:	MOVE	T2,[FLPINI,,FLPBLK]	;Init FILOP block
   603	400560'	251 02 0 00 000316'		BLT	T2,FLPBLK+FLPINL
   604
   605	400561'	541 01 0 00 000307'		HRRI	T1,OPENI		;Point to OPEN block
   606	400562'	260 17 0 00 400642'		PUSHJ	P,GETFIL		;Get file name
   607
   608	400563'	201 01 0 00 000306'		MOVEI	T1,FLPBLK		;For $TYPE
   609	400564'	200 02 0 00 401561'		MOVE	T2,[.FOLEN,,FLPBLK]	;Point to args
   610	400565'	047 02 0 00 000155 		FILOP.	T2,			;LOOKUP input file
   611	400566'	334 00 0 00 000000 		 SKIPA
   612	400567'	263 17 0 00 000000 		  POPJ	P,			;Found it
   613	400570'	326 02 0 00 400605'		JUMPN	T2,GTIERR		;Abort if anything but FILE NOT FOUND
   614	400571'	554 02 0 00 000310'		HLRZ	T2,FLPBLK+.FODEV	;Not found, get device name
   615	400572'	302 02 0 00 446353 		CAIE	T2,'DSK'		;Default?
   616	400573'	254 00 0 00 400605'		 JRST	GTIERR			;No, not found with explicit device
   617	400574'	205 02 0 00 474754 		MOVSI	T2,'GGL'		;Yes, try the GIGI Library device
   618	400575'	202 02 0 00 000310'		MOVEM	T2,FLPBLK+.FODEV
   619	400576'	201 01 0 00 000306'		MOVEI	T1,FLPBLK		;For $TYPE
   620	400577'	200 02 0 00 401561'		MOVE	T2,[.FOLEN,,FLPBLK]	;Point to args
   621	400600'	047 02 0 00 000155 		FILOP.	T2,			;LOOKUP input file
   622	400601'	334 00 0 00 000000 		 SKIPA				;Not there either
   623	400602'	263 17 0 00 000000 		  POPJ	P,
   624	400603'	205 02 0 00 446353 		MOVSI	T2,'DSK'		;Reset to original device name
   625	400604'	202 02 0 00 000310'		MOVEM	T2,FLPBLK+.FODEV
   626	400605'	260 17 1 00 401562'	GTIERR:	$TYPE	(F,LKP,$ERR,<LOOKUP error, |>,,DOEXIT)
   627
   628	400606'	000002	000001		FLPINI:	DSKI,,.FORED			;Read file on DSK channel
   629	400607'	000000	000000			.IOASC				;Normal ASCII mode
   630	400610'	44 63 53 00 00 00 		SIXBIT /DSK/			;This gets updated by .STOPB
   631	400611'	000000	000337'			0,,DIBUF			;Input buffer header
   632	400612'	000000	000002			0,,2				;2 input buffers
   633	400613'	000000	000246'			0,,LKPBLK			;Pointer to LOOKUP block
   634	400614'	000011	000326'			.PTMAX,,ACTPTH			;Actual PATH after LOOKUP succeeds
   635	400615'	000000	000000			0,,0				;No PPN
   636			000010		FLPINL==.-FLPINI
   637
   638
   639					;Routine to get an output file spec and ENTER file
   640
   641	400616'	200 02 0 00 401571'	GTOFIL:	MOVE	T2,[SUPINI,,SUPBLK]	;Init FILOP block
   642	400617'	251 02 0 00 000326'		BLT	T2,SUPBLK+SUPINL
   643
   644	400620'	541 01 0 00 000307'		HRRI	T1,OPENO		;Point to OPEN block
   645	400621'	260 17 0 00 400642'		PUSHJ	P,GETFIL		;Get file name
   646
   647	400622'	201 01 0 00 000316'		MOVEI	T1,SUPBLK		;For $TYPE
   648	400623'	200 02 0 00 401572'		MOVE	T2,[.FOLEN,,SUPBLK]	;Point to args
   649	400624'	047 02 0 00 000155 		FILOP.	T2,			;ENTER output file
   650	400625'	260 17 1 00 401573'		  $TYPE	(F,ENT,$ERR,<ENTER error, |>,,DOEXIT)
   651	400626'	200 01 0 00 401601'		MOVE	T1,[POINT 7,FIVEWD]	;Reset byte pointer
   652	400627'	202 01 0 00 000354'		MOVEM	T1,FIVEBP
REM - Program for the GIGI %1(4)	MACRO %53B(1155)-2 22:56 23-Aug-86 Page 12-1
REM	MAC	 1-Aug-72 16:13		File name routines -- Do LOOKUP and/or ENTER

   653	400630'	402 00 0 00 000353'		SETZM	FIVEWD
   654	400631'	263 17 0 00 000000 		POPJ	P,
   655
   656	400632'	000003	000003		SUPINI:	DSKO,,.FOWRT			;Supersede file on SUP channel
   657	400633'	000000	000013			.IOIBN				;Binary mode (LSN bits are set)
   658	400634'	44 63 53 00 00 00 		SIXBIT /DSK/			;This gets updated by .STOPB
   659	400635'	000342'	000000			DOBUF,,0			;Output buffer header
   660	400636'	000002	000000			2,,0				;2 output buffers
   661	400637'	000000	000246'			0,,LKPBLK			;Pointer to ENTER block
   662	400640'	000000	000000			0,,0				;Actual PATH to file
   663	400641'	000000	000000			0,,0				;No PPN
   664			000010		SUPINL==.-SUPINI
REM - Program for the GIGI %1(4)	MACRO %53B(1155)-2 22:56 23-Aug-86 Page 13
REM	MAC	 1-Aug-72 16:13		File name routines -- Get name from SCAN

   665					SUBTTL	File name routines -- Get name from SCAN
   666
   667	400642'	202 01 0 00 000202'	GETFIL:	MOVEM	T1,DEFEXT		;Set default extension and address
   668	400643'	323 10 0 00 401613'		JUMPLE	C,[$TYPE (F,FMS,$NON,<File name must be specified>,,EATCMD)]
   669	400644'	260 17 0 00 000000*		PUSHJ	P,.FILIN##		;Input a file name
   670	400645'	201 01 0 00 000040 		MOVEI	T1,LKPLEN		;Set extended LOOKUP block
   671	400646'	202 01 0 00 000246'		MOVEM	T1,LKPBLK
   672
   673	400647'	201 01 0 00 000203'		MOVEI	T1,FILBLK		;Addr of block
   674	400650'	201 02 0 00 000032 		MOVEI	T2,.FXLEN		;Length
   675	400651'	260 17 0 00 000000*		PUSHJ	P,.GTSPC##		;Get file spec
   676
   677	400652'	200 01 0 00 000202'		MOVE	T1,DEFEXT		;Get default extension
   678	400653'	336 00 0 00 000206'		SKIPN	FILBLK+.FXEXT		;If no extension supplied,
   679	400654'	522 01 0 00 000206'		 HLLOM	T1,FILBLK+.FXEXT	; use the default
   680
   681	400655'	200 01 0 00 401614'		MOVE	T1,[.FXLEN,,FILBLK]	;SCAN block
   682	400656'	550 02 0 00 000202'		HRRZ	T2,DEFEXT		;OPEN block (in FLPBLK or SUPBLK)
   683	400657'	200 03 0 00 401615'		MOVE	T3,[LKPLEN,,LKPBLK]	;LOOKUP/ENTER block
   684	400660'	201 04 0 00 000235'		MOVEI	T4,PTHBLK		;PATH block
   685	400661'	260 17 0 00 000000*		PUSHJ	P,.STOPB##		;Set up open block
   686	400662'	260 17 1 00 401617'		  $TYPE	(F,WCI,$SCN,<Wildcards illegal in |>,,P,,[FILBLK])
   687	400663'	263 17 0 00 000000 		POPJ	P,
   688
   689
   690					;Routine to open a file for input and output
   691
   692	400664'	200 02 0 00 401560'	GTXFIL:	MOVE	T2,[FLPINI,,FLPBLK]	;Init FILOP block
   693	400665'	251 02 0 00 000316'		BLT	T2,FLPBLK+FLPINL
   694	400666'	200 02 0 00 401571'		MOVE	T2,[SUPINI,,SUPBLK]	;Init FILOP block
   695	400667'	251 02 0 00 000326'		BLT	T2,SUPBLK+SUPINL
   696
   697	400670'	541 01 0 00 000307'		HRRI	T1,OPENI		;Point to LOOKUP block
   698	400671'	260 17 0 00 400642'		PUSHJ	P,GETFIL		;Get file name
   699
   700	400672'	201 01 0 00 000306'		MOVEI	T1,FLPBLK		;For $TYPE
   701	400673'	200 02 0 00 401561'		MOVE	T2,[.FOLEN,,FLPBLK]	;Point to args
   702	400674'	047 02 0 00 000155 		FILOP.	T2,			;LOOKUP input file
   703	400675'	260 17 1 00 400605'		  $TYPE	(N,LKP)
   704
   705	400676'	200 01 0 00 000326'		MOVE	T1,ACTPTH+.PTFCN	;Get actual device name
   706	400677'	202 01 0 00 000320'		MOVEM	T1,SUPBLK+.FODEV
   707	400700'	201 01 0 00 000326'		MOVEI	T1,ACTPTH		;Use actual directory
   708	400701'	202 01 0 00 000247'		MOVEM	T1,LKPBLK+.RBPPN	; in ENTER block
   709
   710	400702'	201 01 0 00 000316'		MOVEI	T1,SUPBLK		;For $TYPE
   711	400703'	200 02 0 00 401572'		MOVE	T2,[.FOLEN,,SUPBLK]	;Point to args
   712	400704'	047 02 0 00 000155 		FILOP.	T2,			;Supersede output file
   713	400705'	260 17 1 00 400625'		  $TYPE	(N,ENT)
   714	400706'	263 17 0 00 000000 		POPJ	P,
REM - Program for the GIGI %1(4)	MACRO %53B(1155)-2 22:56 23-Aug-86 Page 14
REM	MAC	 1-Aug-72 16:13		Misc - LOGINP and EATCMD

   715					SUBTTL	Misc - LOGINP and EATCMD
   716
   717					;Routine to check if job is logged in
   718
   719	400707'	260 17 0 00 000000*	LOGINP:	PUSHJ	P,.ISLGI##		;Check if logged in
   720	400710'	260 17 1 00 401627'		  $TYPE	(F,MLI,$NON,<Must be logged in to write on DSK:>,,DOEXIT)
   721	400711'	263 17 0 00 000000 		POPJ	P,			;OK
   722
   723
   724					;Eat the linefeed that comes after the CR, then exit to Monitor level
   725
   726	400712'	551 01 0 00 000372 	EATCMD:	MOVX	T1,^D250		;Wait 1/4 second
   727	400713'	047 01 0 00 000072 		HIBER	T1,
   728	400714'	255 00 0 00 000000 		  JFCL
   729
   730	400715'	051 14 0 00 000000 	EATCM1:	SKPINL				;Let monitor know we are expecting more
   731	400716'	255 00 0 00 000000 		  JFCL				; and allow deferred echo
   732	400717'	051 02 0 00 000001 		INCHRS	T1			;Get a char
   733	400720'	254 00 0 00 400722'		 JRST	EATCM2			;No more
   734	400721'	254 00 0 00 400715'		JRST	EATCM1			;Loop till end of command from GIGI
   735
   736	400722'	260 17 0 00 400707*	EATCM2:	PUSHJ	P,.ISLGI##		;Is job logged in?
   737	400723'	051 01 0 00 401641'		  OUTCHR ["."]			;No, type just a dot (not "KJOB")
   738	400724'	047 01 0 00 000012 		MONRT.				;Quiet exit
   739	400725'	254 00 0 00 400200'		JRST	MAIN
REM - Program for the GIGI %1(4)	MACRO %53B(1155)-2 22:56 23-Aug-86 Page 15
REM	MAC	 1-Aug-72 16:13		Byte I/O routines

   740					SUBTTL	Byte I/O routines
   741					;The byte is transferred to/from T1
   742
   743					;Disk input byte, error return on EOF
   744
   745	400726'	375 00 0 00 000341'	DSKIBT:	SOSGE	DIBUF+.BFCTR		;Any more bytes?
   746	400727'	254 00 0 00 400732'		 JRST	DSKIBF			;Get another disk input buffer
   747	400730'	134 01 0 00 000340'		ILDB	T1,DIBUF+.BFPTR		;Yes, get one
   748	400731'	254 00 0 00 400430*		JRST	.POPJ1##
   749
   750					;Disk input buffer
   751
   752	400732'	056 02 0 00 000000 	DSKIBF:	IN	DSKI,			;Get another buffer
   753	400733'	254 00 0 00 400726'		  JRST	DSKIBT			;OK
   754	400734'	062 02 0 00 000001 		GETSTS	DSKI,T1			;Get error status
   755	400735'	606 01 0 00 740000 		TXNN	T1,IO.ERR		;Any real errors?
   756	400736'	263 17 0 00 000000 		 POPJ	P,			;No, just EOF
   757	400737'	260 17 1 00 401642'		$TYPE	(F,DIE,$OCT,<Disk input error |>,,P)
   758
   759					;Disk output byte
   760
   761	400740'	261 17 0 00 000001 	DSKOBT:	PUSH	P,T1			;Save char
   762	400741'	136 01 0 00 000354'		IDPB	T1,FIVEBP		;Pack in word
   763	400742'	200 01 0 00 000354'		MOVE	T1,FIVEBP		;Get byte pointer
   764	400743'	603 01 0 00 760000 		TLNE	T1,760000		;Word full?
   765	400744'	254 00 0 00 400752'		 JRST	DSOBT1			;No
   766	400745'	200 01 0 00 000353'		MOVE	T1,FIVEWD		;Yes, get the packed word
   767	400746'	260 17 0 00 400754'		PUSHJ	P,DSKOWD		;Output it
   768	400747'	200 01 0 00 401601'		MOVE	T1,[POINT 7,FIVEWD]	;Reset byte pointer
   769	400750'	202 01 0 00 000354'		MOVEM	T1,FIVEBP
   770	400751'	402 00 0 00 000353'		SETZM	FIVEWD
   771
   772	400752'	262 17 0 00 000001 	DSOBT1:	POP	P,T1			;Restore char
   773	400753'	263 17 0 00 000000 		POPJ	P,
   774
   775					;Disk output word
   776
   777	400754'	377 00 0 00 000344'	DSKOWD:	SOSG	DOBUF+.BFCTR		;Any room?
   778	400755'	260 17 0 00 400760'		  PUSHJ	P,DSKOBF		;No, make some
   779	400756'	136 01 0 00 000343'		IDPB	T1,DOBUF+.BFPTR		;Store byte
   780	400757'	263 17 0 00 000000 		POPJ	P,
   781
   782					;Disk output buffer, aborts on error
   783
   784	400760'	057 03 0 00 000000 	DSKOBF:	OUT	DSKO,			;Output this buffer
   785	400761'	263 17 0 00 000000 		  POPJ	P,
   786	400762'	062 03 0 00 000001 		GETSTS	DSKO,T1
   787	400763'	260 17 1 00 401650'		$TYPE	(F,DOE,$OCT,<Disk output error |>,,A)
   788
   789					;TTY input byte
   790
   791	400764'	377 00 0 00 000347'	TTYIBT:	SOSG	TIBUF+.BFCTR		;Any more bytes?
   792	400765'	066 01 0 00 000000 		 INPUT	TTY,			;Get another line from the TTY
   793	400766'	134 01 0 00 000346'		ILDB	T1,TIBUF+.BFPTR		;Yes, get one
   794	400767'	405 01 0 00 000177 		ANDI	T1,177			;Ignore parity
REM - Program for the GIGI %1(4)	MACRO %53B(1155)-2 22:56 23-Aug-86 Page 15-1
REM	MAC	 1-Aug-72 16:13		Byte I/O routines

   795	400770'	263 17 0 00 000000 		POPJ	P,
   796
   797					;TTY output byte
   798
   799	400771'	377 00 0 00 000352'	TTYOBT:	SOSG	TOBUF+.BFCTR		;Any room?
   800	400772'	067 01 0 00 000000 		 OUTPUT	TTY,			;No, make some
   801	400773'	136 01 0 00 000351'		IDPB	T1,TOBUF+.BFPTR		;Store byte
   802	400774'	263 17 0 00 000000 		POPJ	P,
   803
   804					;TTY output buffer
   805
   806	400775'	067 01 0 00 000000 	TTYOBF:	OUTPUT	TTY,			;Dump last output buffer
   807	400776'	263 17 0 00 000000 		POPJ	P,
REM - Program for the GIGI %1(4)	MACRO %53B(1155)-2 22:56 23-Aug-86 Page 16
REM	MAC	 1-Aug-72 16:13		Data area -- Constants

   808					SUBTTL	Data area -- Constants
   809
   810						.DIRECTIVE	FLBLST
   811
   812					;ESCape sequences to position the text cursor
   813
   814	400777'	015 012 000 00000 	CRLF:	BYTE (7) CR,LF,0
   815	401000'	033 133 110 015 000 0 	HOME:	BYTE (7) ESC,"[","H",CR,0
   816	401001'	033 133 062 063 073 0 	LINE23:	BYTE (7) ESC,"[","2","3",";","1","H",CR,0
   817
   818					;ESCape sequences to enable/disable ReGIS and the DMP-4R plotter
   819
   820	401003'	033 120 160 000 000 	GON$:	BYTE (7) ESC,"P","p",0
   821	401004'	120 133 060 054 066 0 	GOFF$:	BYTE (7) "P","[","0",",","6","9","0","]",ESC,"\",0
   822	401007'	033 133 077 071 151 0 	DMPON:	BYTE (7) ESC,"[","?","9","i",ESC,"P","3","p",0
   823	401011'	033 133 077 070 151 0 	DMPOFF:	BYTE (7) ESC,"[","?","8","i",0
   824
   825					;ESCape sequences to initialize ReGIS and print the screen image
   826
   827	401013'	073 123 050 111 060 	RGSINI:	ASCIZ /;S(I0,N0,A[0,0][767,479],E) W(V,I7,A0,S0,M1,N0,P1(M2))
   828					T(I0,A0,D0,S1) /
   829	401032'	033 043 067 000 000 	PRISCN:	BYTE (7) ESC,"#","7",0
   830
   831					;Commands to activate the HC2X2 program via the USR function of BASIC
   832
   833	401033'	120 122 111 116 124 	BASICR:	ASCIZ /PRINT #1,ESC$+"PrBA1"+GOFF$ : RUN
   834					/
   835	401043'	033 120 162 102 101 0 	BASIC2:	BYTE (7) ESC,"P","r","B","A","2",ESC,"\",CR,LF,0       ;BASIC on (HOST)
   836	401046'	033 120 162 102 101 0 	BASIC1:	BYTE (7) ESC,"P","r","B","A","1",ESC,"\",CR,LF,0       ;BASIC on (LOCAL)
   837	401051'	120 117 113 105 040 	USR1:	ASCIZ /POKE -25196,33 : POKE -25195,134 : PRINT USR(1)
   838					/
   839	401063'	015 012 033 120 162 0 	BASIC0:	BYTE (7) CR,LF,ESC,"P","r","B","A","0",ESC,"\",0       ;BASIC off
   840
   841					;Program in 8085 machine language, loaded into character font #2 in hexadecimal.
   842					;This machine code is activated via the USR function after Microsoft BASIC
   843					;has been POKEd.  It outputs the screen image to the LA34, using pixel           width doubl
   844					e height
   845					;replication to make the image twice as wide and twice as tall.
   846
   847	401066'	114 050 101 062 047 	HC2X2:	ASCIZ	~L(A2'HC2X2.GGM')
   848					L" "CDE30B2A4F80228C803E; L"!"52C34186228C80EBD7CD; L'"'A00E110B00193E0CCD4E;
   849					L"#"047D3DF8328B80210000; L"$"39228680CD620E214B87; L"%"CD10873E02D3603E06D3;
   850					L"&"622A8C80221880215387; L"'"CD108721000022898022; L"("1680CD4A0E0E1F3A1680;
   851					L")"E603C6FB47DB400704C2; L"*"8286F579D3641F4FF179; L"+"1F4FDA78860F0FC63F21;
   852					L","8880BEC2AA862A898023; L"-"23228980C3D78656772A; L"."89807C0707B5FE03DAC5;
   853					L"/"86E53E21CD2A87E1CD1C; L"0"87C3CD863DFAD1867AC4; L"1"2A877ACD2A8721020022;
   854					L"2"89802A1680232216807C; L"3"FE03C273862DCAF1863A; L"4"888057FE3FC2AC862158;
   855					L"5"87CD1087110600CD9C0E; L"6"221880228C80218B8035; L"7"F26486CD3287C345877E;
   856					L"8"B7F8E5CD2A87E123C310; L"9"873E0ACD4E04F57DB4C4; L":"1C87F1C630F5CD3287F1;
   857					L";"C32305CD3C87CD0E05D2; L"<"3287C93A8B803CF02A86; L"="80F9CD1305C3220E1B5C;
   858					L">"0D20202020FF1B503171; L"?"FF1B5C1B4BFF218B807E; L"@"36003DF036FEC9;
   859					~	;End of HC2X2
   860
   861
   862	000000'					$LOW
REM - Program for the GIGI %1(4)	MACRO %53B(1155)-2 22:56 23-Aug-86 Page 16-1
REM	MAC	 1-Aug-72 16:13		Data area -- Constants

   863
   864	000000'				OFFSET:	BLOCK	1			;CCL entry flag
   865	000001'				COMDSP:	BLOCK	1			;Which Monitor-level command was used
   866
   867			000200			$ND PDLEN,200
   868	000002'				PDL:	BLOCK	PDLEN			;Stack
   869
   870	000202'				DEFEXT:	BLOCK	1			;Default extension
   871	000203'				FILBLK:	BLOCK	.FXLEN			;SCAN block for file
   872	000235'				PTHBLK:	BLOCK	.PTMAX			;PATH block set up by SCAN
   873
   874			000040			$ND LKPLEN,40
   875	000246'				LKPBLK:	BLOCK	LKPLEN			;LOOKUP/ENTER block
   876			000010			$ND .FOLEN,.FOPPN+1
   877	000306'				FLPBLK:	BLOCK	.FOLEN			;FILOP block for input file
   878			000307'			OPENI=FLPBLK+.FOIOS
   879	000316'				SUPBLK:	BLOCK	.FOLEN			;FILOP block for output file
   880			000307'			OPENO=FLPBLK+.FOIOS
   881	000326'				ACTPTH:	BLOCK	.PTMAX			;Actual path to file, set by FILOP
   882
   883	000337'				DIBUF:	BLOCK	3			;Disk input buffer header
   884	000342'				DOBUF:	BLOCK	3			;Disk output buffer header
   885	000345'				TIBUF:	BLOCK	3			;TTY input buffer header
   886	000350'				TOBUF:	BLOCK	3			;TTY output buffer header
   887
   888	000353'				FIVEWD:	BLOCK	1			;Word for packing 5 bytes per
   889	000354'				FIVEBP:	BLOCK	1			;Byte pointer into FIVEBP
   890
   891	000355'				CONFIG:	BLOCK	5			;"CSM DECsystem-1091" in ASCIZ
   892
   893					;Control-C intercept block
   894
   895	000362'	000004	400407'		INTBLK:	4,,ABORT			;New PC
   896	000363'	000000	000002			ER.ICC				;Intercept Control-C
   897	000364'					BLOCK	2			;Old PC and actual reason
   898	000366'	263 17 0 00 000000 	ABORTR:	POPJ	P,			;Routine to PUSHJ to on Control-C
   899
   900	401347'					$HIGH
   901	401347'				LITS:	$END	START
   902
NO ERRORS DETECTED

HI-SEG. BREAK IS 401724
PROGRAM BREAK IS 000367
CPU TIME USED 03:39.777

76P CORE USED
REM - Program for the GIGI %1(4)	MACRO %53B(1155)-2 22:56 23-Aug-86 Page S-1
REM	MAC	 1-Aug-72 16:13		SYMBOL TABLE

ABORT		400407'		DOPRM1		400222'		HIBER	047000	000072		PORTOF		400347'
ABORTR		000366'		DOPRMT		400215'		HLPBLK		400013'		PORTON		400346'
ACTPTH		000326'		DOUBL		400321'		HLPMSG		400130'		PRESET		400364'
AUTOOF		400341'		DOUBL1		400330'		HLPSIZ		000021	spd	PRISCN		401032'
AUTOON		400337'		DSKI		000002	spd	HOME		401000'		PRTCUR		400343'
BASIC0		401063'		DSKIBF		400732'		HOST1		400253'		PRTSCN		400345'
BASIC1		401046'		DSKIBT		400726'		HOUR		025252		PTHBLK		000235'
BASIC2		401043'		DSKO		000003	spd	IN	056000	000000		RDYCMD		400017'
BASICR		401033'		DSKOBF		400760'		INCHRS	051100	000000		REM.VN	000100	000004	spd
BE$ACS	400000	000000	spd	DSKOBT		400740'		INCHWL	051200	000000		REM1		400246'
BE$ADR		000001	spd	DSKOWD		400754'		INPUT	066000	000000		REMCMD		400016'
BE$AUX	000104	240000	spd	DSOBT1		400752'		INTBLK		000362'		REMEDT		000004	spd
BE$BIN	200000	000000	spd	EATCM1		400715'		IO.ERR		740000	spd	REMMIN		000000	spd
BE$BIT	100000	000000	spd	EATCM2		400722'		IO.SUP		000200	spd	REMVER		000001	spd
BE$FAL	020000	000000	spd	EATCMD		400712'		ISCNBK		400000'		REMWHO		000000	spd
BE$FLG	610505	640000	spd	ENDCMD		400311'		ISCNPT		400011'		RESET	047000	000000
BE$HLP	010000	000000	spd	EOF		000032		ISCSIZ		000005	spd	RGSINI		401013'
BE$IOS	004000	000000	spd	EOM		000031		LF		000012		RL%ABA		000140	spd
BE$LIT	005657	545164	spd	ER.ICC		000002	spd	LINE23		401001'		RL%ABL	777777	777777	spd
BE$MAC	002000	000000	spd	ESC		000033		LITS		401347'		RL%ABS		000000	spd
BE$MAN	001000	000000	spd	EXIT	047000	000012		LKPBLK		000246'		RL%ADR		000001	spd
BE$MUL	000400	000000	spd	F		000000		LKPLEN		000040	spd	RL%HGH		000002	spd
BE$NAM		624555	spd	F.2H2W	400000	000000	spd	LOGINP		400707'		RL%HIA		401724'	spd
BE$ONE	000200	000000	spd	F.GO	040000	000000	spd	LT%HGH		000002	spd	RL%HIL		400000	spd
BE$REG		000001	spd	F.LF	200000	000000	spd	LT%LOW		000001	spd	RL%HIR		400000'	spd
BE$SCN	000100	000000	spd	F.PLOT	100000	000000	spd	LT%LST	777777	777777	spd	RL%LIT		000000	spd
BE$SEG		400000	spd	F.SEQ	020000	000000	spd	LT%OFF		000000	spd	RL%LOA		000367'	spd
BE$SNR	000040	000000	spd	F.WAIT	010000	000000	spd	LT%ON	777777	777777	spd	RL%LOL		000000	spd
BE$STR	000020	000000	spd	FILBLK		000203'		LT%SEG		000002	spd	RL%LOR		000000'	spd
BE$SUP	000010	000000	spd	FILOP.	047000	000155		MAIN		400200'		RL%LOW		000001	spd
BE$T10	000004	000000	spd	FILRQ		000000	spd	MAIN00		400204'		RL%MAN		000003	spd
BE$T20	000002	000000	spd	FIVEBP		000354'		MAINLP		400174'		RL%OFF		000000	spd
BE$TTL	000001	000000	spd	FIVEWD		000353'		MINUTE		000266		RL%ON	777777	777777	spd
BE$TWO		400000	spd	FLPBLK		000306'		MONRT.	047040	000012		RL%ONE		000001	spd
BE$TYP		200000	spd	FLPINI		400606'		MX.		000000	spd	RL%SEG		000002	spd
BE$UNV		100000	spd	FLPINL		000010	spd	N		000007		RL%TWO		000002	spd
BE$VRN		040000	spd	FP		000016		NOCMD		400216'		RUN	047000	000035
BE$WLD		020000	spd	FS.LRG	200000	000000	spd	OFFSET		000000'		SAVE1		400450'
C		000010		FS.VRQ	040000	000000	spd	OKCMD		400015'		SAVE2		400465'
CLOSE	070000	000000		GETFIL		400642'		OPEN	050000	000000		SECOND		000003	spd
CLRBFI	051440	000000		GETSTS	062000	000000		OPENI		000307'		SETFRM		400366'
CLRIB		400333'		GETTAB	047000	000041		OPENO		000307'		SETNAM	047000	000043
CMDLEN		000004	spd	GETTTY		400212'		OUT	057000	000000		SKPINL	051600	000000
CMDTAB		400014'		GIGCMD		400014'		OUTCHR	051040	000000		SLEEP	047000	000031
COMDSP		000001'		GOFF$		401004'		OUTPUT	067000	000000		START		400151'
CONFIG		000355'		GON$		401003'		OUTSTR	051140	000000		STORE1		400532'
CR		000015		GOODBY		400237'		P		000017		STORE2		400540'
CRFIN.		000000	spd	GRESET		400314'		P1		000005		SUPBLK		000316'
CRLF		400777'		GTIERR		400605'		P2		000006		SUPINI		400632'
DEFEXT		000202'		GTIFIL		400557'		P3		000007		SUPINL		000010	spd
DIBUF		000337'		GTOFIL		400616'		P4		000010		T1		000001
DMPOFF		401011'		GTXFIL		400664'		PD.		000000	spd	T2		000002
DMPON		401007'		HALT	254200	000000		PDL		000002'		T3		000003
DOBUF		000342'		HB.RTL	000020	000000	spd	PDLEN		000200	spd	T4		000004
DOEXIT		400210'		HC2X2		401066'		PJRST	324740	000000		TIBUF		000345'
REM - Program for the GIGI %1(4)	MACRO %53B(1155)-2 22:56 23-Aug-86 Page S-2
REM	MAC	 1-Aug-72 16:13		SYMBOL TABLE

TOBUF		000350'		$BASIC		400427'		.JBOPC		000000	ext
TP.PFX		624555	spd	$DOUBL		400264'		.KEYWD		400246'	ext
TR$BAS		000031	spd	$ENT	016000	000000		.MONRT		400210'	ext
TR$HDR		000027	spd	$ERR	020000	000000		.POPJ1		400731'	ext
TR$LST		000030	spd	$FUN	023000	000000		.PSCAN		400175'	ext
TR$MSG		000032	spd	$GIGI		400242'		.PTFCN		000000	spd
TR$RET		000022	spd	$HOST		400252'		.PTMAX		000011	spd
TR$SFX		000000	spd	$LKP	016000	000000		.QSCAN		400202'	ext
TR$TRL		000027	spd	$LOAD		400413'		.RBPPN		000001	spd
TR$XTR		000032	spd	$NON		000000		.SAVE1		400505'	ext
TRMOP.	047000	000116		$OCT	032000	000000		.STOPB		400661'	ext
TS$ARG		000032	spd	$OK		400263'		.TOFRM		001006	spd
TS$BAS		000030	spd	$OLD		400431'		.TONFC		001010	spd
TS$FNC		000037	spd	$PLOT		400266'		.TOPAG		001021	spd
TS$RET		000033	spd	$PRIN		400265'		.TOPBS		001037	spd
TS$XTR		000031	spd	$REM		400243'		.TOSET		001000	spd
TTY		000001	spd	$RUNIT		400412'		.TRABT		000000	spd
TTYIBT		400764'		$SAVE		400436'		.TRBAS		000000	spd
TTYOBF		400775'		$SCN	042000	000000		.TRBNK		000001	spd
TTYOBT		400771'		$SEQ		400476'		.TRCHR		000000	spd
TYP.VN	000700	000263	sin	$SHOWX		400267'		.TRCNT		000001	spd
TYPFIL		400403'		$STORE		400504'		.TRDEF		001750	spd
USR1		401051'		$TYPER	254120	000000*		.TRFAT		000002	spd
VERBSD		400106'		$TYPEX		400350'		.TRHDR		000002	spd
VERBSL		000022	spd	$UNSEQ		400477'		.TRJMP		000005	spd
VERBSM		400064'		%0		000000	spd	.TRLST		000000	spd
VERBSN		400020'		%CNDTM	000053	000011	spd	.TRMSG		001750	spd
VERBSP		400042'		.BFCTR		000002	spd	.TRNON		000000	spd
VN$EDT		000000	spd	.BFPTR		000001	spd	.TRNRM		000007	spd
VN$MIN		000022	spd	.CHCNC		000003	spd	.TRPJ0		000012	spd
VN$VER		000030	spd	.CHCNY		000031	spd	.TRPJ1		000011	spd
VN$WHO		000041	spd	.CHCNZ		000032	spd	.TRRET		000000	spd
VR%HGH		000002	spd	.CHCRT		000015	spd	.TRSFX		445745	spd
VR%LOW		000001	spd	.CHESC		000033	spd	.TRSPC		000006	spd
VR%LST	777777	777777	spd	.CHLFD		000012	spd	.TRSUB	032000	000000	spd
VR%OFF		000000	spd	.CHTAB		000011	spd	.TRTAB		000002	spd
VR%ON	777777	777777	spd	.FILIN		400644'	ext	.TRTRL		000001	spd
VR%SEG		000001	spd	.FODEV		000002	spd	.TRWRN		000007	spd
VSCNBK		400005'		.FOIOS		000001	spd	.TRXCT		000001	spd
VSCNPT		400012'		.FOLEN		000010	spd	.TRXTR		000000	spd
VSCSIZ		000004	spd	.FOPPN		000007	spd	.TRYES		000001	spd
WD%LFT	777777	000000	spd	.FORED		000001	spd	.TSARG		000000	spd
WD%RIT		777777	spd	.FOWRT		000003	spd	.TSBAS		000000	spd
$$$CIT		400213'	spd	.FXEXT		000003	spd	.TSBUG		000001	spd
$$$CSB		400517'	spd	.FXLEN		000032	spd	.TSFNC		000011	spd
$$$DIE		400737'	spd	.GTCNF		000011	spd	.TSINI		000011	spd
$$$DOE		400763'	spd	.GTSPC		400651'	ext	.TSJMP		000005	spd
$$$ENT		400625'	spd	.IOASC		000000	spd	.TSNON		000000	spd
$$$FMS		401613'	spd	.IOIBN		000013	spd	.TSNRM		000007	spd
$$$ILC		400247'	spd	.IOPIM		000002	spd	.TSPIC		000016	spd
$$$LKP		400605'	spd	.ISCAN		400165'	ext	.TSRET		000007	spd
$$$M2H		400216'	spd	.ISLGI		400722'	ext	.TSXTR		000000	spd
$$$MLI		400710'	spd	.JBHGH		000000	ext	.TSYES		000001	spd
$$$WCI		400662'	spd	.JBHNM		000000	ext	.TYPER		000000	ext
$ASC	001000	000000		.JBINT		400354'	ext	.TYPES		000000	ext

REM - Program for the GIGI %1(4)	MACRO %53B(1155)-2 22:56 23-Aug-86 Page 1
REM	MAC	 1-Aug-72 16:13		Initialization  Joe Smith @ CSM /JMS


Symbol cross reference

ABORT	   423#	   895
ABORTR	   328	   388	   423	   898#
ACTPTH	   634	   705	   707	   881#
AUTOOF	   375#
AUTOON	   374#
BASIC0	   360	   839#
BASIC1	   454	   836#
BASIC2	   357	   440	   835#
BASICR	   451	   833#
BE$ACS	     6	     7
BE$ADR	     6	   902#
BE$AUX	     6#	     6
BE$BIN	     6	     7
BE$BIT	     7
BE$FAL	     7
BE$FLG	     6#	     6	     7	     7#
BE$HLP	     7
BE$IOS	     6	     7
BE$LIT	     6#	     6
BE$MAC	     7
BE$MAN	     6
BE$MUL	     6	     7
BE$NAM	     6#	     6
BE$ONE	     6
BE$REG	     6#	     7
BE$SCN	     6	     7
BE$SEG	     6#	     6
BE$SNR	     6	     7
BE$STR	     6
BE$SUP	     7
BE$T10	     6	     7
BE$T20	     6	     7
BE$TTL	     6
BE$TWO	     6
BE$TYP	     6	     7
BE$UNV	     7
BE$VRN	     6
BE$WLD	     7
C	     7#	   247	   299	   668
CLRIB	   358	   368#
CMDLEN	    61	    83#
CMDTAB	    61	    78#	    83	   228	   229	   290	   291
COMDSP	   224	   292	   344	   865#
CONFIG	   311	   313	   891#
CR	    16#	   814	   815	   816	   835	   836	   839
CRFIN.	    27	    28	    29	    30	    31	    32	   226	   227	   239	   240	   260	   261	   275	   276
	   293	   294	   310	   311	   318	   319	   320	   321	   330	   331	   332	   333	   338	   339
	   340	   341	   350	   351	   361	   362	   402	   403	   408	   409	   435	   436	   437	   449
	   450	   476	   477	   496	   497	   501	   502	   503	   523	   524	   726	   727	   755	   756
CRLF	   814#
REM - Program for the GIGI %1(4)	MACRO %53B(1155)-2 22:56 23-Aug-86 Page 1
REM	MAC	 1-Aug-72 16:13		Initialization  Joe Smith @ CSM /JMS


Symbol cross reference

DEFEXT	   667	   677	   682	   870#
DIBUF	   631	   745	   747	   883#
DMPOFF	   351	   823#
DMPON	   331	   822#
DOBUF	   659	   777	   779	   884#
DOEXIT	   249#	   261	   345	   626	   650	   720
DOPRM1	   268#	   280
DOPRMT	    65	   234	   242	   260#
DOUBL	   339	   355#
DOUBL1	   363#	   365
DSKI	    12#	   628	   752	   754
DSKIBF	   746	   752#
DSKIBT	   418	   745#	   753
DSKO	    13#	   511	   578	   656	   784	   786
DSKOBF	   510	   577	   778	   784#
DSKOBT	   503	   572	   761#
DSKOWD	   508	   576	   767	   777#
DSOBT1	   765	   772#
EATCM1	   730#	   734
EATCM2	   733	   736#
EATCMD	   230	   315	   668	   726#
ENDCMD	   344#	   396	   597
EOF	   532#	   550	   569
EOM	   531#	   550	   570
ER.ICC	   896
ESC	    17#	   374	   375	   376	   377	   378	   379	   815	   816	   820	   821	   822	   823	   829
	   835	   836	   839
F	     7#	   218	   226	   239	   260	   293	   318	   319	   320	   330	   332	   338	   340	   350
	   361	   435	   436	   449	   476	   496	   501	   502	   523
F.2H2W	    27#	    27	   318	   338
F.GO	    30#	    30	   319	   340	   361	   435	   436	   449
F.LF	    28#	    28	   476	   496	   501	   502
F.PLOT	    29#	    29	   320	   330	   332	   350
F.SEQ	    31#	    31	   523
F.WAIT	    32#	    32	   226	   239	   260	   293
FILBLK	   673	   678	   679	   681	   686	   871#
FILRQ	    85#	    86#	   147	   148	   150	   152	   153	   154	   156	   157	   158	   159	   160	   161
	   162	   163	   165	   166	   168	   170	   171	   172	   174	   175	   176	   177	   178	   179
	   180	   181
FIVEBP	   652	   762	   763	   769	   889#
FIVEWD	   507	   575	   651	   653	   766	   768	   770	   888#
FLPBLK	   447	   468	   602	   603	   608	   609	   614	   618	   619	   620	   625	   692	   693	   700
	   701	   877#	   878	   880
FLPINI	   602	   628#	   636	   692
FLPINL	   603	   636#	   693
FP	     7#
FS.LRG	   146	   147	   148	   149	   150	   151	   152	   153	   154	   155	   156	   157	   158	   159
	   160	   161	   162	   163	   164	   165	   166	   167	   168	   169	   170	   171	   172	   173
	   174	   175	   176	   177	   178	   179	   180	   181
FS.VRQ	    85
REM - Program for the GIGI %1(4)	MACRO %53B(1155)-2 22:56 23-Aug-86 Page 1
REM	MAC	 1-Aug-72 16:13		Initialization  Joe Smith @ CSM /JMS


Symbol cross reference

GETFIL	   606	   645	   667#	   698
GETTTY	   217	   253#
GIGCMD	    79#	   290
GOFF$	   349	   821#
GON$	   333	   820#
GOODBY	   276	   282#	   286
GRESET	   327	   342	   349#
GTIERR	   613	   616	   626#
GTIFIL	   323	   383	   438	   464	   602#
GTOFIL	   475	   537	   641#
GTXFIL	   526	   692#
HB.RTL	   277
HC2X2	   355	   847#
HLPBLK	    70	    76#
HLPMSG	    76	   185#	   202
HLPSIZ	    76	   202#
HOME	   356	   815#
HOST1	   307#	   312
HOUR	    19#	    20	   275
INTBLK	   325	   385	   895#
IO.ERR	   755
IO.SUP	   253	   515	   591
ISCNBK	    61#	    66	    74
ISCNPT	    74#	   222
ISCSIZ	    66#	    74
LF	    15#	   487	   500	   814	   835	   836	   839
LINE23	   352	   816#
LITS	   901#
LKPBLK	   633	   661	   671	   683	   708	   875#
LKPLEN	   670	   683	   874	   875
LOGINP	   473	   524	   534	   719#
LT%HGH	   902
LT%LOW	   902
LT%LST	   902	   902#
LT%OFF	   902
LT%ON	   902
LT%SEG	   902	   902#
MAIN	   239#	   246	   247	   739
MAIN00	   235	   244#
MAINLP	   232#	   250
MINUTE	    20#	    21
MX.	   146#	   146	   147	   148	   149	   150	   151	   152	   153	   154	   155	   156	   157	   158
	   159	   160	   161	   162	   163
N	     7#
NOCMD	   261#
OFFSET	    62	   209	   864#
OKCMD	    80#	   229
OPENI	   605	   697	   878#
OPENO	   644	   880#
P	     7#	   211	   216	   217	   223	   233	   234	   241	   242	   244	   249	   256	   257	   261
REM - Program for the GIGI %1(4)	MACRO %53B(1155)-2 22:56 23-Aug-86 Page 1
REM	MAC	 1-Aug-72 16:13		Initialization  Joe Smith @ CSM /JMS


Symbol cross reference

	   270	   297	   298	   314	   321	   323	   336	   342	   353	   358	   371	   381	   383	   390	   393
	   395	   400	   414	   418	   420	   423	   438	   445	   448	   464	   466	   469	   473	   475
	   481	   492	   503	   508	   510	   518	   520	   524	   526	   534	   535	   537	   544	   553
	   568	   572	   576	   577	   594	   596	   606	   612	   623	   626	   645	   650	   654	   668
	   669	   675	   685	   686	   687	   698	   703	   713	   714	   719	   720	   721	   736	   756
	   757	   761	   767	   772	   773	   778	   780	   785	   787	   795	   802	   807	   898
P1	     7#	     7	   559	   560	   561	   584
P2	     7#	     7
P3	     7#	     7
P4	     7#	     7	   298
PD.	   164#	   164	   165	   166	   167	   168	   169	   170	   171	   172	   173	   174	   175	   176
	   177	   178	   179	   180	   181
PDL	   211	   868#
PDLEN	   211	   867	   868
PORTOF	   379#	   398
PORTON	   378#	   391
PRESET	   387	   395	   398#
PRISCN	   341	   829#
PRTCUR	   376#
PRTSCN	   377#
PTHBLK	   684	   872#
RDYCMD	    82#	   228
REM.VN	     6#
REM1	   297#	   299
REMCMD	    81#	   291
REMEDT	     6#	     6
REMMIN	     6#	     6
REMVER	     6#	     6
REMWHO	     6#	     6
RGSINI	   334	   827#
RL%ABA	     6#	     6	     7#
RL%ABL	     6#
RL%ABS	     6	     7	    59	   862	   900	   902
RL%ADR	     6#	     6	     7	     7#	    59	    59#	   862	   862#	   900	   900#	   902	   902#
RL%HGH	     6	     7	    59	   862	   900	   902
RL%HIA	     6#	     6	    59	   862#	   900	   902#	   902
RL%HIL	     6#
RL%HIR	     6#
RL%LIT	     6	     6#	     7	    59	   862	   900	   902
RL%LOA	     6#	     6	     7	    59#	   862	   900#	   902
RL%LOL	     6#
RL%LOR	     6#
RL%LOW	     6	     7	    59	   862	   900	   902
RL%MAN	     6	     7	    59	   862	   900	   902
RL%OFF	     6
RL%ON	     6	     7	    59	   862	   900	   902
RL%ONE	     6
RL%SEG	     6	     6#	     7	    59	   862	   900	   902
RL%TWO	     6	   902
SAVE1	   492#	   504
REM - Program for the GIGI %1(4)	MACRO %53B(1155)-2 22:56 23-Aug-86 Page 1
REM	MAC	 1-Aug-72 16:13		Initialization  Joe Smith @ CSM /JMS


Symbol cross reference

SAVE2	   495	   499	   506#
SECOND	    21#
SETFRM	   390	   402#
START	   207#	   902
STORE1	   568#	   573
STORE2	   571	   575#
SUPBLK	   519	   595	   641	   642	   647	   648	   694	   695	   706	   710	   711	   879#
SUPINI	   641	   656#	   664	   694
SUPINL	   642	   664#	   695
T1	     7#	     7	   207	   208	   209	   212	   213	   215	   222	   224	   225	   228	   229	   232
	   240	   271	   272	   274	   275	   277	   278	   282	   285	   290	   291	   292	   306	   308
	   311	   312	   313	   322	   325	   326	   327	   328	   363	   364	   368	   369	   382	   385
	   386	   387	   388	   402	   405	   408	   411	   437	   447	   463	   468	   474	   485	   488
	   493	   494	   497	   500	   507	   519	   525	   536	   548	   551	   557	   559	   562	   564
	   569	   570	   575	   582	   585	   595	   605	   608	   619	   644	   647	   651	   652	   667
	   670	   671	   673	   677	   679	   681	   697	   700	   705	   706	   707	   708	   710	   726
	   727	   732	   747	   754	   755	   761	   762	   763	   764	   766	   768	   769	   772	   779
	   786	   793	   794	   801
T2	     7#	     7	   262	   263	   274	   307	   308	   309	   310	   311	   403	   409	   486	   549
	   558	   583	   602	   603	   609	   610	   613	   614	   615	   617	   618	   620	   621	   624
	   625	   641	   642	   648	   649	   674	   682	   692	   693	   694	   695	   701	   702	   711
	   712
T3	     7#	     7	   404	   410	   487	   550	   563	   584	   683
T4	     7#	     7	   405	   406	   411	   412	   488	   551	   552	   564	   565	   585	   586	   684
TIBUF	   255	   480	   543	   791	   793	   885#
TOBUF	   255	   517	   593	   799	   801	   886#
TP.PFX	     6#	    62	   215
TR$BAS	   256	   261	   298	   314	   448	   469	   520	   553	   596	   626	   650	   668	   686	   720
	   757	   787
TR$HDR	   256	   261	   298	   314	   448	   469	   520	   553	   596	   626	   650	   668	   686	   720
	   757	   787
TR$LST	   256	   261	   298	   314	   448	   469	   520	   553	   596	   626	   650	   668	   686	   720
	   757	   787
TR$MSG	   256	   261	   298	   314	   448	   469	   520	   553	   596	   626	   650	   668	   686	   720
	   757	   787
TR$RET	   256	   261	   298	   314	   448	   469	   520	   553	   596	   626	   650	   668	   686	   720
	   757	   787
TR$SFX	   256	   261	   298	   314	   448	   469	   520	   553	   596	   626	   650	   668	   686	   720
	   757	   787
TR$TRL	   256	   261	   298	   314	   448	   469	   520	   553	   596	   626	   650	   668	   686	   720
	   757	   787
TR$XTR	   256	   261	   298	   314	   448	   469	   520	   553	   596	   626	   650	   668	   686	   720
	   757	   787
TS$ARG	   216
TS$BAS	   216
TS$FNC	   216
TS$RET	   216
TS$XTR	   216
TTY	    11#	   253	   478	   515	   541	   591	   792	   800	   806
TTYIBT	   492	   568	   791#
REM - Program for the GIGI %1(4)	MACRO %53B(1155)-2 22:56 23-Aug-86 Page 1
REM	MAC	 1-Aug-72 16:13		Initialization  Joe Smith @ CSM /JMS


Symbol cross reference

TTYOBF	   419	   806#
TTYOBT	   420	   799#
TYP.VN	   216	   216#	   256	   256#	   261	   261#	   298	   298#	   314	   314#	   448	   448#	   469	   469#
	   481	   481#	   518	   518#	   520	   520#	   544	   544#	   553	   553#	   594	   594#	   596	   596#
	   626	   626#	   650	   650#	   668	   668#	   686	   686#	   703	   703#	   713	   713#	   720	   720#
	   757	   757#	   787	   787#
TYPFIL	   336	   393	   418#	   421	   445	   466
USR1	   359	   837#
VERBSD	    69	   164#
VERBSL	    68	   128#
VERBSM	    69	   146#
VERBSN	    68	   110#	   128
VERBSP	    70	   128#
VN$EDT	     6
VN$MIN	     6
VN$VER	     6
VN$WHO	     6
VR%HGH	   902
VR%LOW	   902
VR%LST	   902	   902#
VR%OFF	   902
VR%ON	   902
VR%SEG	   902	   902#
VSCNBK	    68#	    72	    75
VSCNPT	    75#	   232
VSCSIZ	    72#	    75
$$$CIT	   256#	   481	   518	   544	   594
$$$CSB	   553#
$$$DIE	   757#
$$$DOE	   787#
$$$ENT	   650#	   713
$$$FMS	   668#	   668
$$$ILC	   298#
$$$LKP	   626#	   703
$$$M2H	   261#
$$$MLI	   720#
$$$WCI	   686#
$BASIC	   146	   185	   450	   454#
$DOUBL	   147	   186	   318#
$GIGI	   148	   187	   290#
$HOST	   149	   188	   306#
$LOAD	   150	   189	   436#
$OK	   151	   155	   190	   315#
$OLD	   152	   191	   463#
$PLOT	   154	   192	   320#
$PRIN	   153	   193	   319#
$REM	   156	   194	   291#
$RUNIT	   157	   195	   435#
$SAVE	   158	   196	   473#
$SEQ	   159	   197	   523#
REM - Program for the GIGI %1(4)	MACRO %53B(1155)-2 22:56 23-Aug-86 Page 1
REM	MAC	 1-Aug-72 16:13		Initialization  Joe Smith @ CSM /JMS


Symbol cross reference

$SHOWX	   160	   198	   321#
$STORE	   161	   200	   534#
$TYPEX	   162	   199	   381#
$UNSEQ	   163	   201	   524#
%0	    10#
%CNDTM	   262	   271
..0001	     6#	     6
..0002	     6#	     6
..0003	     6#	     6
..0004	     6#	     6
..0005	     6#	     6
..0006	     6#	     6
..0007	     6#	     6
..0010	     6#	     6
..0011	    26#	    26	   902
..0012	    26#	    27	    28	    29	    30	    31	    32	   902
..0021	   867#	   902
..0022	   874#	   902
..0023	   876#	   902
..BAS	   902#	   902
..MAX	   902#	   902
..SYM	   902#	   902
..TEMP	   128#	   129#	   129	   130#	   130	   131#	   131	   132#	   132	   133#	   133	   134#	   134	   135#
	   135	   136#	   136	   137#	   137	   138#	   138	   139#	   139	   140#	   140	   141#	   141	   142#
	   142	   143#	   143	   144#	   144	   145#	   145	   146#	   146	   147	   147#	   148	   148#	   149
	   149#	   150	   150#	   151	   151#	   152	   152#	   153	   153#	   154	   154#	   155	   155#	   156
	   156#	   157	   157#	   158	   158#	   159	   159#	   160	   160#	   161	   161#	   162	   162#	   163
	   163#	   164	   164#	   165	   165#	   166	   166#	   167	   167#	   168	   168#	   169	   169#	   170
	   170#	   171	   171#	   172	   172#	   173	   173#	   174	   174#	   175	   175#	   176	   176#	   177
	   177#	   178	   178#	   179	   179#	   180	   180#	   181	   181#	   182
..TEMR	   164#	   164	   165#	   165	   166#	   166	   167#	   167	   168#	   168	   169#	   169	   170#	   170
	   171#	   171	   172#	   172	   173#	   173	   174#	   174	   175#	   175	   176#	   176	   177#	   177
	   178#	   178	   179#	   179	   180#	   180	   181#	   181	   182
.BFCTR	   745	   777	   791	   799
.BFPTR	   747	   779	   793	   801
.CHCNC	   487	   493
.CHCNY	   531
.CHCNZ	   487	   494	   532
.CHCRT	    16
.CHESC	    17
.CHLFD	    15
.CHTAB	     6
.FILIN	   669
.FODEV	   614	   618	   625	   706
.FOIOS	   878	   880
.FOLEN	   609	   620	   648	   701	   711	   876	   877	   879
.FORED	   628
.FOWRT	   656
.FXEXT	   678	   679
.FXLEN	   674	   681	   871
REM - Program for the GIGI %1(4)	MACRO %53B(1155)-2 22:56 23-Aug-86 Page 1
REM	MAC	 1-Aug-72 16:13		Initialization  Joe Smith @ CSM /JMS


Symbol cross reference

.GTCNF	   307
.GTSPC	   675
.IOASC	   253	   515	   591	   629
.IOIBN	   657
.IOPIM	   478	   541
.ISCAN	   223
.ISLGI	   719	   736
.JBHGH	   212
.JBHNM	   212
.JBINT	   326	   386
.JBOPC	     7
.KEYWD	   244	   297
.MONRT	   249
.POPJ1	   300	   346	   452	   455	   748
.PSCAN	   233
.PTFCN	   705
.PTMAX	   634	   872	   881
.QSCAN	   241
.RBPPN	   708
.SAVE1	   535
.STOPB	   685
.TOFRM	   402
.TONFC	   408
.TOPAG	   557	   562	   582
.TOPBS	   485	   548
.TOSET	   402	   408	   485	   548	   562	   582
.TRABT	   256	   787
.TRBAS	   256	   256#	   261	   261#	   298	   298#	   314	   314#	   448	   448#	   469	   469#	   481	   481#
	   518	   518#	   520	   520#	   544	   544#	   553	   553#	   594	   594#	   596	   596#	   626	   626#
	   650	   650#	   668	   668#	   686	   686#	   703	   703#	   713	   713#	   720	   720#	   757	   757#
	   787	   787#
.TRBLK	   298#	   298	   314	   686#	   686	   703
.TRBNK	   256	   261	   298	   314	   448	   469	   520	   553	   596	   626	   650	   668	   686	   720
	   757	   787
.TRBSA	   261	   261#	   298	   626	   626#	   650	   650#	   668	   668#	   686	   720	   720#	   757
.TRCHR	   256#	   256	   261#	   261	   298#	   298	   314#	   314	   448#	   448	   469#	   469	   481#	   518#
	   520#	   520	   544#	   553#	   553	   594#	   596#	   596	   626#	   626	   650#	   650	   668#	   668
	   686#	   686	   703#	   713#	   720#	   720	   757#	   757	   787#	   787
.TRCNT	   314	   448	   469	   520	   596
.TRDEF	   256	   261	   298	   314	   448	   469	   481	   518	   520	   544	   553	   594	   596	   626
	   650	   668	   686	   703	   713	   720	   757	   787
.TRFAT	   256	   261	   298	   626	   650	   668	   686	   720	   757	   787
.TRHDR	   256	   256#	   261	   261#	   298	   298#	   314	   314#	   448	   448#	   469	   469#	   481	   481#
	   518	   518#	   520	   520#	   544	   544#	   553	   553#	   594	   594#	   596	   596#	   626	   626#
	   650	   650#	   668	   668#	   686	   686#	   703	   703#	   713	   713#	   720	   720#	   757	   757#
	   787	   787#
.TRJMP	   256	   261	   298	   314	   448	   469	   481	   518	   520	   544	   553	   594	   596	   626
	   650	   668	   686	   703	   713	   720	   757	   787
.TRLOC	   261#	   261	   298	   626#	   626	   650	   650#	   668	   668#	   686	   720#	   720	   757
.TRLST	   256	   256#	   261	   261#	   298	   298#	   314	   314#	   448	   448#	   469	   469#	   481	   481#
REM - Program for the GIGI %1(4)	MACRO %53B(1155)-2 22:56 23-Aug-86 Page 1
REM	MAC	 1-Aug-72 16:13		Initialization  Joe Smith @ CSM /JMS


Symbol cross reference

	   518	   518#	   520	   520#	   544	   544#	   553	   553#	   594	   594#	   596	   596#	   626	   626#	   650
	   650#	   668	   668#	   686	   686#	   703	   703#	   713	   713#	   720	   720#	   757	   757#	   787
	   787#
.TRMSG	   256	   256#	   261	   261#	   298	   298#	   314	   314#	   448	   448#	   469	   469#	   481	   481#
	   518	   518#	   520	   520#	   544	   544#	   553	   553#	   594	   594#	   596	   596#	   626	   626#
	   650	   650#	   668	   668#	   686	   686#	   703	   703#	   713	   713#	   720	   720#	   757	   757#
	   787	   787#
.TRNON	   256	   261	   298	   314	   448	   469	   481	   518	   520	   544	   553	   594	   596	   626
	   650	   668	   686	   703	   713	   720	   757	   787
.TRNRM	   298	   314	   448	   481	   518	   544	   553	   594	   596	   703	   713
.TRPJ0	   686	   757
.TRPJ1	   469	   520
.TRRET	   256	   256#	   261	   261#	   298	   298#	   314	   314#	   448	   448#	   469	   469#	   481	   481#
	   518	   518#	   520	   520#	   544	   544#	   553	   553#	   594	   594#	   596	   596#	   626	   626#
	   650	   650#	   668	   668#	   686	   686#	   703	   703#	   713	   713#	   720	   720#	   757	   757#
	   787	   787#
.TRSFX	   256	   256#	   261	   261#	   298	   298#	   314	   314#	   448	   448#	   469	   469#	   481	   481#
	   482	   518	   518#	   519	   520	   520#	   544	   544#	   545	   553	   553#	   594	   594#	   595
	   596	   596#	   626	   626#	   650	   650#	   668	   668#	   686	   686#	   703	   703#	   704	   713
	   713#	   714	   720	   720#	   757	   757#	   787	   787#
.TRSPC	   314	   448	   469	   520	   596
.TRSUB	   256	   256#	   261	   261#	   298	   298#	   314	   314#	   448	   448#	   469	   469#	   481	   481#
	   518	   518#	   520	   520#	   544	   544#	   553	   553#	   594	   594#	   596	   596#	   626	   626#
	   650	   650#	   668	   668#	   686	   686#	   703	   703#	   713	   713#	   720	   720#	   757	   757#
	   787	   787#
.TRTAB	   256	   261	   298	   314	   448	   469	   520	   553	   596	   626	   650	   668	   686	   720
	   757	   787
.TRTRL	   256	   256#	   261	   261#	   298	   298#	   314	   314#	   448	   448#	   469	   469#	   481	   481#
	   518	   518#	   520	   520#	   544	   544#	   553	   553#	   594	   594#	   596	   596#	   626	   626#
	   650	   650#	   668	   668#	   686	   686#	   703	   703#	   713	   713#	   720	   720#	   757	   757#
	   787	   787#
.TRWRN	   553
.TRXCT	   256	   261	   298	   314	   448	   469	   481	   482	   518	   519	   520	   544	   545	   553
	   594	   595	   596	   626	   650	   668	   686	   703	   704	   713	   714	   720	   757	   787
.TRXTR	   256	   256#	   261	   261#	   298	   298#	   314	   314#	   448	   448#	   469	   469#	   481	   481#
	   518	   518#	   520	   520#	   544	   544#	   553	   553#	   594	   594#	   596	   596#	   626	   626#
	   650	   650#	   668	   668#	   686	   686#	   703	   703#	   713	   713#	   720	   720#	   757	   757#
	   787	   787#
.TRYES	   256	   261	   298	   314	   448	   469	   481	   518	   520	   544	   553	   594	   596	   626
	   650	   668	   686	   703	   713	   720	   757	   787
.TSARG	   216	   216#
.TSBAS	   216#	   216
.TSBUG	   216
.TSFNC	   216	   216#
.TSINI	   216
.TSJMP	   216
.TSLOC	   216
.TSNON	   216
.TSNRM	   216
.TSPIC	   216
REM - Program for the GIGI %1(4)	MACRO %53B(1155)-2 22:56 23-Aug-86 Page 1
REM	MAC	 1-Aug-72 16:13		Initialization  Joe Smith @ CSM /JMS


Symbol cross reference

.TSRET	   216	   216#
.TSXTR	   216#	   216
.TSYES	   216
.TYPER	   256	   261	   298	   314	   448	   469	   520	   553	   596	   626	   650	   668	   686	   720
	   757	   787
.TYPES	   216
REM - Program for the GIGI %1(4)	MACRO %53B(1155)-2 22:56 23-Aug-86 Page 1
REM	MAC	 1-Aug-72 16:13		Initialization  Joe Smith @ CSM /JMS


Macro/Opdef cross reference

CAXL	   275
CLOSE	   511	   578
CLRBFI	   370	   506
DOSCAN	   109
EXIT	   425	   528
FILOP.	   610	   621	   649	   702	   712
GETSTS	   754	   786
GETTAB	   263	   272	   309
HALT	   286
HIBER	   278	   727
IN	   752
INCHRS	   732
INCHWL	   363
INPUT	   792
MONRT.	   424	   738
MOVX	   239	   310	   402	   408	   726
OPEN	   253	   478	   515	   541	   591
OUT	   784
OUTCHR	   737
OUTPUT	   800	   806
OUTSTR	   331	   333	   334	   341	   349	   351	   352	   355	   356	   357	   359	   360	   391	   398
	   440	   441	   451	   454	   527
PJRST	   419	   597
RESET	   210
RUN	   285
SETNAM	   213
SKPINL	   268	   730
SLEEP	   369
SP	   110	   111	   112	   113	   114	   115	   116	   117	   118	   119	   120	   121	   122	   123
	   124	   125	   126	   127	   128	   129	   130	   131	   132	   133	   134	   135	   136	   137
	   138	   139	   140	   141	   142	   143	   144	   145	   146	   147	   148	   149	   150	   151
	   152	   153	   154	   155	   156	   157	   158	   159	   160	   161	   162	   163	   164	   165
	   166	   167	   168	   169	   170	   171	   172	   173	   174	   175	   176	   177	   178	   179
	   180	   181
SWTCHS	    88#	   110	   128	   146	   164
TRMOP.	   406	   412	   552	   560	   565	   586
TXNE	   330	   496
TXNN	   260	   332	   755
TXO	   226	   293	   318	   320	   476	   523
TXOA	   319	   435	   501
TXZ	   361	   436	   502
TXZE	   338	   340	   350
TXZN	   449
X	   110#	   110	   111	   112	   113	   114	   115	   116	   117	   118	   119	   120	   121	   122
	   123	   124	   125	   126	   127	   128#	   128	   129	   130	   131	   132	   133	   134	   135
	   136	   137	   138	   139	   140	   141	   142	   143	   144	   145	   146#	   146	   147	   148
	   149	   150	   151	   152	   153	   154	   155	   156	   157	   158	   159	   160	   161	   162
	   163	   164#	   164	   165	   166	   167	   168	   169	   170	   171	   172	   173	   174	   175
	   176	   177	   178	   179	   180	   181
$ABS	     6
REM - Program for the GIGI %1(4)	MACRO %53B(1155)-2 22:56 23-Aug-86 Page 1
REM	MAC	 1-Aug-72 16:13		Initialization  Joe Smith @ CSM /JMS


Macro/Opdef cross reference

$ALIGN	    26
$ASC	   314
$BEGI1	     6
$BEGI2	     6
$BEGI3	     6
$BEGI4	     6
$BEGI6	     6
$BEGIN	     6
$END	   901
$ENT	   520	   596
$ERR	   626	   650
$FLAG	    26#	    27	    28	    29	    30	    31	    32
$FLAG1	    27	    28	    29	    30	    31	    32
$FLAGS	    26
$FUN	   298
$HIGH	    59	   900	   902
$LIT	   902
$LKP	   448	   469
$LOW	     7	   862	   902
$ND	   867	   874	   876
$NON	   256	   261	   481	   518	   544	   553	   594	   668	   703	   713	   720
$OCT	   757	   787
$PURG1	   902
$PURG2	   902
$PURGE	   902
$RELOC	     6
$RITBT	    26
$SCN	   686
$TITL0	     6#	     6
$TITLE	     6
$TOPS	     7#
$TYPE	   256	   261	   298	   314	   448	   469	   481	   518	   520	   544	   553	   594	   596	   626
	   650	   668	   686	   703	   713	   720	   757	   787
$TYPE1	   256	   261	   298	   314	   448	   469	   481	   518	   520	   544	   553	   594	   596	   626
	   650	   668	   686	   703	   713	   720	   757	   787
$TYPE2	   256	   261	   298	   314	   448	   469	   520	   553	   596	   626	   650	   668	   686	   720
	   757	   787
$TYPER	     7#
$TYPES	   216
$VAR	   902
$VRSN	     6
$WID	    26p]