KERGLB	MACRO %53B(1155)-2 15:30  3-Oct-85 Page 1
KERGLB	MAC	18-Jan-73 17:20

     1					;[CSM] B361LB.REL is on SYS:, not DSKB:[1,5]
     2					;   0001  0	MODULE KERGLB (IDENT = '2.0.002'
     3					;   0002  0			) =
     4					;   0003  1	BEGIN
     5					;   0004  1
     6					;   0005  1	SWITCHES LANGUAGE (COMMON);
     7					;   0006  1
     8					;   0007  1	!<BLF/WIDTH:100>
     9					;   0008  1
    10					;   0009  1	!++
    11					;   0010  1	! FACILITY:
    12					;   0011  1	!
    13					;   0012  1	!	KERMIT common message processing global storage.
    14					;   0013  1	!
    15					;   0014  1	! ABSTRACT:
    16					;   0015  1	!
    17					;   0016  1	!	This module contains all of the global storage locations used
    18					;   0017  1	!	by KERMSG.  These are in a separate module to make it possible
    19					;   0018  1	!	to load the global storage into a common under P/OS.
    20					;   0019  1	!
    21					;   0020  1	! ENVIRONMENT:
    22					;   0021  1	!
    23					;   0022  1	!	TOPS-10, P/OS, VAX/VMS
    24					;   0023  1	!
    25					;   0024  1	! AUTHOR: Nick Bush, CREATION DATE: 21-December-1983
    26					;   0025  1	!--
    27					;   0026  1
    28					;   0027  1	%SBTTL 'Table of Contents'
    29					;   0028  1	!
    30					;   0029  1	! TABLE OF CONTENTS:
    31					;   0030  1	!
    32					;   0031  1	%SBTTL 'Revision History'
    33					;   0032  1
    34					;   0033  1	!++
    35					;   0034  1	!
    36					;   0035  1	! 2.0.000	Extract this module from KERMSG.BLI.
    37					;   0036  1	!
    38					;   0037  1	! 2.0.001	By: Robert C. McQueen			On: 16-Feb-1984
    39					;   0038  1	!		Move SEND%TIMEOUT from KERMSG to this module.
    40					;   0039  1	!
    41					;   0040  1	! 2.0.002	By: Nick Bush				On: 2-April-1984
    42					;   0041  1	!		Add SRV%TIMEOUT from time between NAK's.
    43					;   0042  1	!--
    44					;   0043  1
    45					;   0044  1	%SBTTL 'Library files'
    46					;   0045  1	!
    47					;   0046  1	! INCLUDE FILES:
    48					;   0047  1	!
    49					;   0048  1	!
    50					;   0049  1	! KERMIT common definitions
    51					;   0050  1	!
    52					;   0051  1
    53					;   0052  1	REQUIRE 'KERCOM';
    54					;   0253  1
    55					;   0254  1	%SBTTL 'Global storage for KERMSG'
KERGLB	MACRO %53B(1155)-2 15:30  3-Oct-85 Page 1-1
KERGLB	MAC	18-Jan-73 17:20

    56					;   0255  1
    57					;   0256  1	GLOBAL
    58					;   0257  1	!
    59					;   0258  1	! Receive parameters
    60					;   0259  1	!
    61					;   0260  1	    RCV%PKT%SIZE,				! Receive packet size
    62					;   0261  1	    RCV%NPAD,					! Padding length
    63					;   0262  1	    RCV%PADCHAR,				! Padding character
    64					;   0263  1	    RCV%TIMEOUT,				! Time out
    65					;   0264  1	    RCV%EOL,					! EOL character
    66					;   0265  1	    RCV%QUOTE%CHR,				! Quote character
    67					;   0266  1	    RCV%SOH,					! Start of header character
    68					;   0267  1	    RCV%8QUOTE%CHR,				! 8-bit quoting character
    69					;   0268  1	!
    70					;   0269  1	! Miscellaneous parameters
    71					;   0270  1	!
    72					;   0271  1	    SET%REPT%CHR,				! Repeat character
    73					;   0272  1	!
    74					;   0273  1	! Send parameters
    75					;   0274  1	!
    76					;   0275  1	    SND%PKT%SIZE,				! Send packet size
    77					;   0276  1	    SND%NPAD,					! Padding length
    78					;   0277  1	    SND%PADCHAR,				! Padding character
    79					;   0278  1	    SND%TIMEOUT,				! Time out
    80					;   0279  1	    SND%EOL,					! EOL character
    81					;   0280  1	    SND%QUOTE%CHR,				! Quote character
    82					;   0281  1	    SND%SOH,					! Start of header character
    83					;   0282  1	    SEND%TIMEOUT,				! Time out
    84					;   0283  1	!
    85					;   0284  1	! Server parameters
    86					;   0285  1	!
    87					;   0286  1	    SRV%TIMEOUT,				! Amount of time between NAK
    88					's in server
    89					;   0287  1	!
    90					;   0288  1	! Statistics
    91					;   0289  1	!
    92					;   0290  1	    SND%TOTAL%CHARS,				! Total characters sent
    93					;   0291  1	    RCV%TOTAL%CHARS,				! Total characters received
    94					;   0292  1	    SND%DATA%CHARS,				! Total number of data chara
    95					cters sent
    96					;   0293  1	    RCV%DATA%CHARS,				! Total number of data chara
    97					cters received
    98					;   0294  1	    SND%NAKS,					! Total NAKs sent
    99					;   0295  1	    RCV%NAKS,					! Total NAKs received
   100					;   0296  1	    SND%COUNT,					! Count of total number of p
   101					ackets
   102					;   0297  1	    RCV%COUNT,					! Count of total number pack
   103					ets received
   104					;   0298  1	    SMSG%COUNT,					! Total number of packets se
   105					nt
   106					;   0299  1	    RMSG%COUNT,					! Total number of packets re
   107					ceived
   108					;   0300  1	    SMSG%TOTAL%CHARS,				! Total chars sent this file
   109					 xfer
   110					;   0301  1	    RMSG%TOTAL%CHARS,				! Total chars rcvd this file
KERGLB	MACRO %53B(1155)-2 15:30  3-Oct-85 Page 1-2
KERGLB	MAC	18-Jan-73 17:20

   111					 xfer
   112					;   0302  1	    SMSG%DATA%CHARS,				! Total data chars this file
   113					 xfer
   114					;   0303  1	    RMSG%DATA%CHARS,				! Total data chars this file
   115					 xfer
   116					;   0304  1	    SMSG%NAKS,					! Total number of NAKs this
   117					file xfer
   118					;   0305  1	    RMSG%NAKS,					! Total number of NAKs recei
   119					ved
   120					;   0306  1	    XFR%TIME,					! Amount of time last xfr to
   121					ok
   122					;   0307  1	    TOTAL%TIME,					! Total time of all xfrs
   123					;   0308  1	    						!  this file xfer
   124					;   0309  1	    LAST%ERROR : VECTOR [CH$ALLOCATION (MAX%MSG + 1)],	! Last error message
   125
   126					;   0310  1	!
   127					;   0311  1	! Misc constants.
   128					;   0312  1	!
   129					;   0313  1	    FILE%NAME : VECTOR [CH$ALLOCATION (MAX%FILE%NAME)],
   130					;   0314  1	    FILE%SIZE,
   131					;   0315  1	    SI%RETRIES,					! Send init retries to attem
   132					pt
   133					;   0316  1	    PKT%RETRIES,				! Number of retries to try f
   134					or a message
   135					;   0317  1	    DELAY,					! Amount of time to delay
   136					;   0318  1	    DUPLEX,					! Type of connection (half o
   137					r full)
   138					;   0319  1	    PARITY%TYPE,				! Type of parity to use
   139					;   0320  1	    DEV%PARITY%FLAG,				! True if output device does
   140
   141					;   0321  1	    						!  parity, false if we do it
   142
   143					;   0322  1	    CHKTYPE,					! Type of block check desire
   144					d
   145					;   0323  1	    ABT%FLAG,					! True if aborted file shoul
   146					d be discarded
   147					;   0324  1	    DEBUG%FLAG,					! Debugging mode on/off
   148					;   0325  1	    WARN%FLAG,					! File warning flag
   149					;   0326  1	    IBM%FLAG,					! Talking to an IBM system
   150					;   0327  1	    IBM%CHAR,					! Turnaround character for I
   151					BM mode
   152					;   0328  1	    ECHO%FLAG,					! Local echo flag
   153					;   0329  1	    CONNECT%FLAG,				! Connected flag; True if
   154					;   0330  1	    						!  terminal and SET LINE are
   155
   156					;   0331  1	    						!  the same
   157					;   0332  1	    ABT%CUR%FILE,				! Abort current file
   158					;   0333  1	    ABT%ALL%FILE,				! Abort all files in stream
   159					;   0334  1	    TYP%STS%FLAG,				! Type status next message
   160					;   0335  1	    TY%FIL,					! Type file specs
   161					;   0336  1	    TY%PKT,					! Type packet info
   162					;   0337  1	    FIL%NORMAL%FORM,				! Use normal form file names
   163
   164					;   0338  1	    GEN%1DATA : VECTOR [CH$ALLOCATION (MAX%MSG)],! Data for generic command
   165					;   0339  1	    GEN%1SIZE,					! Size of data in GEN%1DATA
KERGLB	MACRO %53B(1155)-2 15:30  3-Oct-85 Page 1-3
KERGLB	MAC	18-Jan-73 17:20

   166					;   0340  1	    GEN%2DATA : VECTOR [CH$ALLOCATION (MAX%MSG)],! Second argument for gener
   167					ic command
   168					;   0341  1	    GEN%2SIZE,					! Size of data in GEN%2DATA
   169					;   0342  1	    GEN%3DATA : VECTOR [CH$ALLOCATION (MAX%MSG)],! Third arg for generic com
   170					mand
   171					;   0343  1	    GEN%3SIZE;					! Size of data in GEN%3DATA
   172					;   0344  1	%SBTTL 'End of KERGLB'
   173					;   0345  1	END						! End of module
   174					;   0346  1
   175					;   0347  0	ELUDOM
   176
   177
   178						TITLE	KERGLB
   179	400000'					TWOSEG
   180
   181
   182					;[CSM]	.REQUEST  DSKB:B361AB.REL[1,5]
   183						.REQUEST  SYS:B361LB.REL	;[CSM]
   184
   185
   186	000000'					RELOC	0
   187	000000'				RCV%PKT%SIZE::
   188	000000'					BLOCK	1
   189	000001'				RCV%NPAD::
   190	000001'					BLOCK	1
   191	000002'				RCV%PADCHAR::
   192	000002'					BLOCK	1
   193	000003'				RCV%TIMEOUT::
   194	000003'					BLOCK	1
   195	000004'				RCV%EOL::
   196	000004'					BLOCK	1
   197	000005'				RCV%QUOTE%CHR::
   198	000005'					BLOCK	1
   199	000006'				RCV%SOH::
   200	000006'					BLOCK	1
   201	000007'				RCV%8QUOTE%CHR::
   202	000007'					BLOCK	1
   203	000010'				SET%REPT%CHR::
   204	000010'					BLOCK	1
   205	000011'				SND%PKT%SIZE::
   206	000011'					BLOCK	1
   207	000012'				SND%NPAD::
   208	000012'					BLOCK	1
   209	000013'				SND%PADCHAR::
   210	000013'					BLOCK	1
   211	000014'				SND%TIMEOUT::
   212	000014'					BLOCK	1
   213	000015'				SND%EOL::
   214	000015'					BLOCK	1
   215	000016'				SND%QUOTE%CHR::
   216	000016'					BLOCK	1
   217	000017'				SND%SOH::
   218	000017'					BLOCK	1
   219	000020'				SEND%TIMEOUT::
   220	000020'					BLOCK	1
KERGLB	MACRO %53B(1155)-2 15:30  3-Oct-85 Page 1-4
KERGLB	MAC	18-Jan-73 17:20

   221	000021'				SRV%TIMEOUT::
   222	000021'					BLOCK	1
   223	000022'				SND%TOTAL%CHARS::
   224	000022'					BLOCK	1
   225	000023'				RCV%TOTAL%CHARS::
   226	000023'					BLOCK	1
   227	000024'				SND%DATA%CHARS::
   228	000024'					BLOCK	1
   229	000025'				RCV%DATA%CHARS::
   230	000025'					BLOCK	1
   231	000026'				SND%NAKS::
   232	000026'					BLOCK	1
   233	000027'				RCV%NAKS::
   234	000027'					BLOCK	1
   235	000030'				SND%COUNT::
   236	000030'					BLOCK	1
   237	000031'				RCV%COUNT::
   238	000031'					BLOCK	1
   239	000032'				SMSG%COUNT::
   240	000032'					BLOCK	1
   241	000033'				RMSG%COUNT::
   242	000033'					BLOCK	1
   243	000034'				SMSG%TOTAL%CHARS::
   244	000034'					BLOCK	1
   245	000035'				RMSG%TOTAL%CHARS::
   246	000035'					BLOCK	1
   247	000036'				SMSG%DATA%CHARS::
   248	000036'					BLOCK	1
   249	000037'				RMSG%DATA%CHARS::
   250	000037'					BLOCK	1
   251	000040'				SMSG%NAKS::
   252	000040'					BLOCK	1
   253	000041'				RMSG%NAKS::
   254	000041'					BLOCK	1
   255	000042'				XFR%TIME::
   256	000042'					BLOCK	1
   257	000043'				TOTAL%TIME::
   258	000043'					BLOCK	1
   259	000044'				LAST%ERROR::
   260	000044'					BLOCK	24
   261	000070'				FILE%NAME::
   262	000070'					BLOCK	33
   263	000123'				FILE%SIZE::
   264	000123'					BLOCK	1
   265	000124'				SI%RETRIES::
   266	000124'					BLOCK	1
   267	000125'				PKT%RETRIES::
   268	000125'					BLOCK	1
   269	000126'				DELAY:: BLOCK	1
   270	000127'				DUPLEX::BLOCK	1
   271	000130'				PARITY%TYPE::
   272	000130'					BLOCK	1
   273	000131'				DEV%PARITY%FLAG::
   274	000131'					BLOCK	1
   275	000132'				CHKTYPE::
KERGLB	MACRO %53B(1155)-2 15:30  3-Oct-85 Page 1-5
KERGLB	MAC	18-Jan-73 17:20

   276	000132'					BLOCK	1
   277	000133'				ABT%FLAG::
   278	000133'					BLOCK	1
   279	000134'				DEBUG%FLAG::
   280	000134'					BLOCK	1
   281	000135'				WARN%FLAG::
   282	000135'					BLOCK	1
   283	000136'				IBM%FLAG::
   284	000136'					BLOCK	1
   285	000137'				IBM%CHAR::
   286	000137'					BLOCK	1
   287	000140'				ECHO%FLAG::
   288	000140'					BLOCK	1
   289	000141'				CONNECT%FLAG::
   290	000141'					BLOCK	1
   291	000142'				ABT%CUR%FILE::
   292	000142'					BLOCK	1
   293	000143'				ABT%ALL%FILE::
   294	000143'					BLOCK	1
   295	000144'				TYP%STS%FLAG::
   296	000144'					BLOCK	1
   297	000145'				TY%FIL::BLOCK	1
   298	000146'				TY%PKT::BLOCK	1
   299	000147'				FIL%NORMAL%FORM::
   300	000147'					BLOCK	1
   301	000150'				GEN%1DATA::
   302	000150'					BLOCK	24
   303	000174'				GEN%1SIZE::
   304	000174'					BLOCK	1
   305	000175'				GEN%2DATA::
   306	000175'					BLOCK	24
   307	000221'				GEN%2SIZE::
   308	000221'					BLOCK	1
   309	000222'				GEN%3DATA::
   310	000222'					BLOCK	24
   311	000246'				GEN%3SIZE::
   312	000246'					BLOCK	1
   313
   314
   315			000001		FNM%NORMAL==:	    1
   316			000002		FNM%FULL==:	    2
   317			000004		FNM%UNTRAN==:	    4
   318			000000		PR%MIN==:	    0
   319			000000		PR%NONE==:	    0
   320			000001		PR%MARK==:	    1
   321			000002		PR%EVEN==:	    2
   322			000003		PR%ODD==:	    3
   323			000004		PR%SPACE==:	    4
   324			000004		PR%MAX==:	    4
   325			000001		GC%MIN==:	    1
   326			000001		GC%EXIT==:	    1
   327			000002		GC%DIRECTORY==:     2
   328			000003		GC%DISK%USAGE==:    3
   329			000004		GC%DELETE==:	    4
   330			000005		GC%TYPE==:	    5
KERGLB	MACRO %53B(1155)-2 15:30  3-Oct-85 Page 1-6
KERGLB	MAC	18-Jan-73 17:20

   331			000006		GC%HELP==:	    6
   332			000007		GC%LOGOUT==:	    7
   333			000010		GC%LGN==:	    10
   334			000011		GC%CONNECT==:	    11
   335			000012		GC%RENAME==:	    12
   336			000013		GC%COPY==:	    13
   337			000014		GC%WHO==:	    14
   338			000015		GC%SEND%MSG==:	    15
   339			000016		GC%STATUS==:	    16
   340			000017		GC%COMMAND==:	    17
   341			000020		GC%KERMIT==:	    20
   342			000021		GC%JOURNAL==:	    21
   343			000022		GC%VARIABLE==:	    22
   344			000023		GC%PROGRAM==:	    23
   345			000023		GC%MAX==:	    23
   346			000000		DP%FULL==:	    0
   347			000001		DP%HALF==:	    1
   348			000061		CHK%1CHAR==:	    61
   349			000062		CHK%2CHAR==:	    62
   350			000063		CHK%CRC==:	    63
   351			000140		MAX%MSG==:	    140
   352
   353
   354
   355						END

NO ERRORS DETECTED

HI-SEG. BREAK IS 400000
PROGRAM BREAK IS 000247
CPU TIME USED 00:12.208

10P CORE USED
KERGLB	MACRO %53B(1155)-2 15:30  3-Oct-85 Page S-1
KERGLB	MAC	18-Jan-73 17:20		SYMBOL TABLE

ABT%AL		000143'	int	PR%MAR		000001	sin
ABT%CU		000142'	int	PR%MAX		000004	sin
ABT%FL		000133'	int	PR%MIN		000000	sin
CHK%1C		000061	sin	PR%NON		000000	sin
CHK%2C		000062	sin	PR%ODD		000003	sin
CHK%CR		000063	sin	PR%SPA		000004	sin
CHKTYP		000132'	int	RCV%8Q		000007'	int
CONNEC		000141'	int	RCV%CO		000031'	int
DEBUG%		000134'	int	RCV%DA		000025'	int
DELAY		000126'	int	RCV%EO		000004'	int
DEV%PA		000131'	int	RCV%NA		000027'	int
DP%FUL		000000	sin	RCV%NP		000001'	int
DP%HAL		000001	sin	RCV%PA		000002'	int
DUPLEX		000127'	int	RCV%PK		000000'	int
ECHO%F		000140'	int	RCV%QU		000005'	int
FIL%NO		000147'	int	RCV%SO		000006'	int
FILE%N		000070'	int	RCV%TI		000003'	int
FILE%S		000123'	int	RCV%TO		000023'	int
FNM%FU		000002	sin	RMSG%C		000033'	int
FNM%NO		000001	sin	RMSG%D		000037'	int
FNM%UN		000004	sin	RMSG%N		000041'	int
GC%COM		000017	sin	RMSG%T		000035'	int
GC%CON		000011	sin	SEND%T		000020'	int
GC%COP		000013	sin	SET%RE		000010'	int
GC%DEL		000004	sin	SI%RET		000124'	int
GC%DIR		000002	sin	SMSG%C		000032'	int
GC%DIS		000003	sin	SMSG%D		000036'	int
GC%EXI		000001	sin	SMSG%N		000040'	int
GC%HEL		000006	sin	SMSG%T		000034'	int
GC%JOU		000021	sin	SND%CO		000030'	int
GC%KER		000020	sin	SND%DA		000024'	int
GC%LGN		000010	sin	SND%EO		000015'	int
GC%LOG		000007	sin	SND%NA		000026'	int
GC%MAX		000023	sin	SND%NP		000012'	int
GC%MIN		000001	sin	SND%PA		000013'	int
GC%PRO		000023	sin	SND%PK		000011'	int
GC%REN		000012	sin	SND%QU		000016'	int
GC%SEN		000015	sin	SND%SO		000017'	int
GC%STA		000016	sin	SND%TI		000014'	int
GC%TYP		000005	sin	SND%TO		000022'	int
GC%VAR		000022	sin	SRV%TI		000021'	int
GC%WHO		000014	sin	TOTAL%		000043'	int
GEN%1D		000150'	int	TY%FIL		000145'	int
GEN%1S		000174'	int	TY%PKT		000146'	int
GEN%2D		000175'	int	TYP%ST		000144'	int
GEN%2S		000221'	int	WARN%F		000135'	int
GEN%3D		000222'	int	XFR%TI		000042'	int
GEN%3S		000246'	int
IBM%CH		000137'	int
IBM%FL		000136'	int
LAST%E		000044'	int
MAX%MS		000140	sin
PARITY		000130'	int
PKT%RE		000125'	int
PR%EVE		000002	sin

KERGLB	MACRO %53B(1155)-2 15:30  3-Oct-85 Page 1
KERGLB	MAC	18-Jan-73 17:20


Symbol cross reference

ABT%AL	   293#
ABT%CU	   291#
ABT%FL	   277#
CHK%1C	   348#
CHK%2C	   349#
CHK%CR	   350#
CHKTYP	   275#
CONNEC	   289#
DEBUG%	   279#
DELAY	   269#
DEV%PA	   273#
DP%FUL	   346#
DP%HAL	   347#
DUPLEX	   270#
ECHO%F	   287#
FIL%NO	   299#
FILE%N	   261#
FILE%S	   263#
FNM%FU	   316#
FNM%NO	   315#
FNM%UN	   317#
GC%COM	   340#
GC%CON	   334#
GC%COP	   336#
GC%DEL	   329#
GC%DIR	   327#
GC%DIS	   328#
GC%EXI	   326#
GC%HEL	   331#
GC%JOU	   342#
GC%KER	   341#
GC%LGN	   333#
GC%LOG	   332#
GC%MAX	   345#
GC%MIN	   325#
GC%PRO	   344#
GC%REN	   335#
GC%SEN	   338#
GC%STA	   339#
GC%TYP	   330#
GC%VAR	   343#
GC%WHO	   337#
GEN%1D	   301#
GEN%1S	   303#
GEN%2D	   305#
GEN%2S	   307#
GEN%3D	   309#
GEN%3S	   311#
IBM%CH	   285#
IBM%FL	   283#
KERGLB	MACRO %53B(1155)-2 15:30  3-Oct-85 Page 1
KERGLB	MAC	18-Jan-73 17:20


Symbol cross reference

LAST%E	   259#
MAX%MS	   351#
PARITY	   271#
PKT%RE	   267#
PR%EVE	   321#
PR%MAR	   320#
PR%MAX	   324#
PR%MIN	   318#
PR%NON	   319#
PR%ODD	   322#
PR%SPA	   323#
RCV%8Q	   201#
RCV%CO	   237#
RCV%DA	   229#
RCV%EO	   195#
RCV%NA	   233#
RCV%NP	   189#
RCV%PA	   191#
RCV%PK	   187#
RCV%QU	   197#
RCV%SO	   199#
RCV%TI	   193#
RCV%TO	   225#
RMSG%C	   241#
RMSG%D	   249#
RMSG%N	   253#
RMSG%T	   245#
SEND%T	   219#
SET%RE	   203#
SI%RET	   265#
SMSG%C	   239#
SMSG%D	   247#
SMSG%N	   251#
SMSG%T	   243#
SND%CO	   235#
SND%DA	   227#
SND%EO	   213#
SND%NA	   231#
SND%NP	   207#
SND%PA	   209#
SND%P205#
SND%QU	   215#
SND%SO	   217#
SND%TI	   211#
SND%TO	   223#
SRV%TI	   221#
TOTAL%	   257#
TY%FIL	   297#
TY%PKT	   298#
TYP%ST	   295#
KERGLB	MACRO %53B(1155)-2 15:30  3-Oct-85 Page 1
KERGLB	MAC	18-Jan-73 17:20


Symbol cross reference

WARN%F	   281#
XFR%TI	   255#HgV}