KERTT	MACRO %53B(1155)-2 15:29  3-Oct-85 Page 1
KERTT	MAC	18-Jan-73 17:20

     1					;[CSM] B361LB.REL is on SYS:, not DSKB:[1,5]
     2					;   0001  0	MODULE KERTT (IDENT = '2.0.003'
     3					;   0002  0			) =
     4					;   0003  1	BEGIN
     5					;   0004  1
     6					;   0005  1	SWITCHES LANGUAGE (COMMON);
     7					;   0006  1
     8					;   0007  1	!<BLF/WIDTH:100>
     9					;   0008  1
    10					;   0009  1	!++
    11					;   0010  1	! FACILITY:
    12					;   0011  1	!
    13					;   0012  1	!	KERMIT text processing
    14					;   0013  1	!
    15					;   0014  1	! ABSTRACT:
    16					;   0015  1	!
    17					;   0016  1	!	This module contains all of the text processing required for
    18					;   0017  1	!	KERMSG.
    19					;   0018  1	!
    20					;   0019  1	! ENVIRONMENT:
    21					;   0020  1	!
    22					;   0021  1	!	TOPS-10, P/OS, VAX/VMS
    23					;   0022  1	!
    24					;   0023  1	! AUTHOR: Robert C. McQueen, CREATION DATE: 29-August-1983
    25					;   0024  1	!--
    26					;   0025  1
    27					;   0026  1	%SBTTL 'Table of Contents'
    28					;   0027  1	!
    29					;   0028  1	! TABLE OF CONTENTS:
    30					;   0029  1	!
    31					;   0030  1	%SBTTL 'Revision History'
    32					;   0031  1
    33					;   0032  1	!++
    34					;   0033  1	!
    35					;   0034  1	! Create this module for PRO/Kermit 1.0, Kermit-10 2(100) and Kermit-32 1.2
    36					;   0035  1	!
    37					;   0036  1	! 1.2.000	By: Robert C. McQueen			On: 29-August-1983
    38					;   0037  1	!		Create this module.
    39					;   0038  1	!
    40					;   0039  1	! 1.2.001	By: Robert C. McQueen		On: 9-Sept-1983
    41					;   0040  1	!		Make the string passed to TERM%DUMP a counted ASCIZ string,
    42					;   0041  1	!		not a counted ASCII string.
    43					;   0042  1	!
    44					;   0043  1	! 1.2.002	By: Robert C. McQueen		On: 16-September-1983
    45					;   0044  1	!		Make TT%OUTPUT a global routine, so we can force information
    46
    47					;   0045  1	!		output a various points in time.
    48					;   0046  1	!
    49					;   0047  1	! 2.0.003	Release for TOPS-10 KERMIT-10 version 2.
    50					;   0048  1	!		Release for VAX/VMS KERMIT-32 version 2.
    51					;   0049  1	!--
    52					;   0050  1
    53					;   0051  1	%SBTTL 'Library files'
    54					;   0052  1	!
    55					;   0053  1	! INCLUDE FILES:
KERTT	MACRO %53B(1155)-2 15:29  3-Oct-85 Page 1-1
KERTT	MAC	18-Jan-73 17:20

    56					;   0054  1	!
    57					;   0055  1	!
    58					;   0056  1	! KERMIT common definitions
    59					;   0057  1	!
    60					;   0058  1
    61					;   0059  1	REQUIRE 'KERCOM';
    62					;   0260  1
    63					;   0261  1	%SBTTL 'Symbol definitions'
    64					;   0262  1	!
    65					;   0263  1	! EQUATED SYMBOLS:
    66					;   0264  1	!
    67					;   0265  1
    68					;   0266  1	LITERAL
    69					;   0267  1	    TEXT%BFR%LENGTH = 256;			! Length of the text buffer
    70					;   0268  1
    71					;   0269  1	%SBTTL 'Storage'
    72					;   0270  1	!
    73					;   0271  1	! OWN STORAGE:
    74					;   0272  1	!
    75					;   0273  1	!
    76					;   0274  1	! TT%xxxxx routine storage
    77					;   0275  1	!
    78					;   0276  1
    79					;   0277  1	OWN
    80					;   0278  1	    DUMP%ROUTINE,				! Address of routine to dump
    81					 text
    82					;   0279  1	    TEXT%COUNT,					! Count of the characters
    83					;   0280  1	    TEXT%POINTER,				! Pointer to store character
    84					s
    85					;   0281  1	    TEXT%BUFFER : VECTOR [CH$ALLOCATION (TEXT%BFR%LENGTH)];	! Buffer of
    86					characters
    87					;   0282  1
    88					;   0283  1	%SBTTL 'External storage'
    89					;   0284  1
    90					;   0285  1	!++
    91					;   0286  1	! The following is the various external storage locations that are
    92					;   0287  1	! referenced from this module.
    93					;   0288  1	!--
    94					;   0289  1
    95					;   0290  1	!
    96					;   0291  1	! KERMSG storage
    97					;   0292  1	!
    98					;   0293  1
    99					;   0294  1	EXTERNAL
   100					;   0295  1	    CONNECT%FLAG;				! Flag if communications lin
   101					e is TT:
   102					;   0296  1
   103					;   0297  1	!++
   104					;   0298  1	! The following is the only external routine used by this module.  This
   105					;   0299  1	! routine will cause the terminal buffer that we have been building to be
   106					;   0300  1	! output on the terminal
   107					;   0301  1	!--
   108					;   0302  1
   109					;   0303  1	EXTERNAL ROUTINE
   110					;   0304  1	    TERM%DUMP : NOVALUE;			! Output the terminal buffer
KERTT	MACRO %53B(1155)-2 15:29  3-Oct-85 Page 1-2
KERTT	MAC	18-Jan-73 17:20

   111
   112					;   0305  1
   113					;   0306  1	%SBTTL 'Terminal routines -- TT%INIT - Initialize this module'
   114					;   0307  1
   115					;   0308  1	GLOBAL ROUTINE TT%INIT : NOVALUE =
   116					;   0309  1
   117					;   0310  1	!++
   118					;   0311  1	! FUNCTIONAL DESCRIPTION:
   119					;   0312  1	!
   120					;   0313  1	!	This routine will initialize the terminal processing module.  It wil
   121					l
   122					;   0314  1	!	initialize the various data locations in this module.
   123					;   0315  1	!
   124					;   0316  1	! CALLING SEQUENCE:
   125					;   0317  1	!
   126					;   0318  1	!	TT%INIT();
   127					;   0319  1	!
   128					;   0320  1	! INPUT PARAMETERS:
   129					;   0321  1	!
   130					;   0322  1	!	None.
   131					;   0323  1	!
   132					;   0324  1	! IMPLICIT INPUTS:
   133					;   0325  1	!
   134					;   0326  1	!	None.
   135					;   0327  1	!
   136					;   0328  1	! OUTPUT PARAMETERS:
   137					;   0329  1	!
   138					;   0330  1	!	None.
   139					;   0331  1	!
   140					;   0332  1	! IMPLICIT OUTPUTS:
   141					;   0333  1	!
   142					;   0334  1	!	None.
   143					;   0335  1	!
   144					;   0336  1	! COMPLETION CODES:
   145					;   0337  1	!
   146					;   0338  1	!	None.
   147					;   0339  1	!
   148					;   0340  1	! SIDE EFFECTS:
   149					;   0341  1	!
   150					;   0342  1	!	None.
   151					;   0343  1	!
   152					;   0344  1	!--
   153					;   0345  1
   154					;   0346  2	    BEGIN
   155					;   0347  2	!
   156					;   0348  2	! Now initialize the various pointers
   157					;   0349  2	!
   158					;   0350  2	    TEXT%COUNT = 0;
   159					;   0351  2	    TEXT%POINTER = CH$PTR (TEXT%BUFFER);
   160					;   0352  2	    DUMP%ROUTINE = TERM%DUMP;			! Initial output routine is
   161					to terminal
   162					;   0353  1	    END;					! End of TT%INIT
   163
   164
   165						TITLE	KERTT
KERTT	MACRO %53B(1155)-2 15:29  3-Oct-85 Page 1-3
KERTT	MAC	18-Jan-73 17:20

   166	400000'					TWOSEG
   167
   168
   169					;[CSM]	.REQUEST  DSKB:B361LB.REL[1,5]
   170						.REQUEST  SYS:B361LB.REL	;[CSM]
   171
   172
   173	000000'					RELOC	0
   174					; DUMP%ROUTINE
   175	000000'				U.1:	BLOCK	1
   176					; TEXT%COUNT
   177	000001'				U.2:	BLOCK	1
   178					; TEXT%POINTER
   179	000002'				U.3:	BLOCK	1
   180					; TEXT%BUFFER
   181	000003'				U.4:	BLOCK	64
   182
   183
   184						EXTERN	CONNECT%FLAG, TERM%DUMP
   185
   186
   187			000001		FNM%NORMAL==:	    1
   188			000002		FNM%FULL==:	    2
   189			000004		FNM%UNTRAN==:	    4
   190			000000		PR%MIN==:	    0
   191			000000		PR%NONE==:	    0
   192			000001		PR%MARK==:	    1
   193			000002		PR%EVEN==:	    2
   194			000003		PR%ODD==:	    3
   195			000004		PR%SPACE==:	    4
   196			000004		PR%MAX==:	    4
   197			000001		GC%MIN==:	    1
   198			000001		GC%EXIT==:	    1
   199			000002		GC%DIRECTORY==:     2
   200			000003		GC%DISK%USAGE==:    3
   201			000004		GC%DELETE==:	    4
   202			000005		GC%TYPE==:	    5
   203			000006		GC%HELP==:	    6
   204			000007		GC%LOGOUT==:	    7
   205			000010		GC%LGN==:	    10
   206			000011		GC%CONNECT==:	    11
   207			000012		GC%RENAME==:	    12
   208			000013		GC%COPY==:	    13
   209			000014		GC%WHO==:	    14
   210			000015		GC%SEND%MSG==:	    15
   211			000016		GC%STATUS==:	    16
   212			000017		GC%COMMAND==:	    17
   213			000020		GC%KERMIT==:	    20
   214			000021		GC%JOURNAL==:	    21
   215			000022		GC%VARIABLE==:	    22
   216			000023		GC%PROGRAM==:	    23
   217			000023		GC%MAX==:	    23
   218			000000		DP%FULL==:	    0
   219			000001		DP%HALF==:	    1
   220			000061		CHK%1CHAR==:	    61
KERTT	MACRO %53B(1155)-2 15:29  3-Oct-85 Page 1-4
KERTT	MAC	18-Jan-73 17:20

   221			000062		CHK%2CHAR==:	    62
   222			000063		CHK%CRC==:	    63
   223			000140		MAX%MSG==:	    140
   224
   225
   226			000000		AC0=	0
   227			000001		AC1=	1
   228			000002		AC2=	2
   229			000003		AC3=	3
   230			000004		AC4=	4
   231			000005		AC5=	5
   232			000006		AC6=	6
   233			000007		AC7=	7
   234			000010		AC10=	10
   235			000011		AC11=	11
   236			000012		AC12=	12
   237			000013		AC13=	13
   238			000014		AC14=	14
   239			000015		FP=	15
   240			000016		AC16=	16
   241			000017		SP=	17
   242
   243
   244	400000'					RELOC	400000
   245	400000'				TT%INIT::
   246						SETZM	U.2				; TEXT%COUNT
   247	400000'	402 00 0 00 000001'						0350
   248						MOVE	AC1,C.1				; AC1,[POINT 7,TEXT%BUFFER-1,34]  <1,7>
   249	400001'	200 01 0 00 400006'						0351
   250	400002'	202 01 0 00 000002'		MOVEM	AC1,U.3				; AC1,TEXT%POINTER
   251						MOVEI	AC1,TERM%DUMP			; AC1,TERM%DUMP
   252	400003'	201 01 0 00 000000*						0352
   253	400004'	202 01 0 00 000000'		MOVEM	AC1,U.1				; AC1,DUMP%ROUTINE
   254						POPJ	SP,				; SP,
   255	400005'	263 17 0 00 000000 						0308
   256	400006'	01 07 0 00 000002'	C.1:	POINT	7,U.4-1,34			; 7,TEXT%BUFFER-1,34
   257
   258					; Routine Size:  7 words
   259
   260
   261					;   0354  1
   262					;   0355  1		%SBTTL	'TT%SET%OUTPUT - Set output routine to use'
   263					;   0356  1	GLOBAL ROUTINE TT%SET%OUTPUT (OUT%RTN) =
   264					;   0357  1
   265					;   0358  1	!++
   266					;   0359  1	! FUNCTIONAL DESCRIPTION:
   267					;   0360  1	!
   268					;   0361  1	! This routine will set the output routine to use for the TT%xxx routines.
   269					;   0362  1	!The argument is a routine address which will output a counted ASCIZ string.
   270
   271					;   0363  1	!It will return the address of the previous output routine.
   272					;   0364  1	!
   273					;   0365  1	! CALLING SEQUENCE:
   274					;   0366  1	!
   275					;   0367  1	!	OLD%RTN = TT%SET%OUTPUT (OUT%RTN);
KERTT	MACRO %53B(1155)-2 15:29  3-Oct-85 Page 1-5
KERTT	MAC	18-Jan-73 17:20

   276					;   0368  1	!
   277					;   0369  1	! INPUT PARAMETERS:
   278					;   0370  1	!
   279					;   0371  1	!	OUT%RTN - Address of routine to output a counted ASCIZ string
   280					;   0372  1	!		called as OUT%RTN (Address of string, length of string)
   281					;   0373  1	!
   282					;   0374  1	! IMPLICIT INPUTS:
   283					;   0375  1	!
   284					;   0376  1	!	DUMP%ROUTINE - Previous output routine
   285					;   0377  1	!
   286					;   0378  1	! OUPTUT PARAMETERS:
   287					;   0379  1	!
   288					;   0380  1	!	The value of the routine is the previous output routine address.
   289					;   0381  1	!
   290					;   0382  1	! IMPLICIT OUTPUTS:
   291					;   0383  1	!
   292					;   0384  1	!	DUMP%ROUTINE - New output routine
   293					;   0385  1	!
   294					;   0386  1	! COMPLETION CODES:
   295					;   0387  1	!
   296					;   0388  1	!	None.
   297					;   0389  1	!
   298					;   0390  1	! SIDE EFFECTS:
   299					;   0391  1	!
   300					;   0392  1	!	None.
   301					;   0393  1	!
   302					;   0394  1	!--
   303					;   0395  1
   304					;   0396  2	BEGIN
   305					;   0397  2	LOCAL
   306					;   0398  2	    OLD%RTN;			! Old routine address
   307					;   0399  2
   308					;   0400  2	OLD%RTN = .DUMP%ROUTINE;	! Remember the old address
   309					;   0401  2	DUMP%ROUTINE = .OUT%RTN;	! Save the new
   310					;   0402  2	RETURN .OLD%RTN;		! And return the old value
   311					;   0403  1	END;				! End of TT%SET%OUTPUT
   312
   313
   314	400007'				TT%SET%OUTPUT::
   315						MOVE	AC1,U.1				; OLD%RTN,DUMP%ROUTINE
   316	400007'	200 01 0 00 000000'						0400
   317						MOVE	AC2,-1(SP)			; AC2,OUT%RTN
   318	400010'	200 02 0 17 777777 						0401
   319	400011'	202 02 0 00 000000'		MOVEM	AC2,U.1				; AC2,DUMP%ROUTINE
   320						POPJ	SP,				; SP,
   321	400012'	263 17 0 00 000000 						0356
   322
   323					; Routine Size:  4 words
   324
   325
   326					;   0404  1
   327					;   0405  1	%SBTTL 'Terminal routines -- TT%OUTPUT - Output the buffer'
   328					;   0406  1	GLOBAL ROUTINE TT%OUTPUT : NOVALUE =
   329					;   0407  1
   330					;   0408  1	!++
KERTT	MACRO %53B(1155)-2 15:29  3-Oct-85 Page 1-6
KERTT	MAC	18-Jan-73 17:20

   331					;   0409  1	! FUNCTIONAL DESCRIPTION:
   332					;   0410  1	!
   333					;   0411  1	!	This routine will dump the text buffer on the output device.
   334					;   0412  1	!
   335					;   0413  1	! CALLING SEQUENCE:
   336					;   0414  1	!
   337					;   0415  1	!	TT%OUTPUT();
   338					;   0416  1	!
   339					;   0417  1	! INPUT PARAMETERS:
   340					;   0418  1	!
   341					;   0419  1	!	None.
   342					;   0420  1	!
   343					;   0421  1	! IMPLICIT INPUTS:
   344					;   0422  1	!
   345					;   0423  1	!	None.
   346					;   0424  1	!
   347					;   0425  1	! OUTPUT PARAMETERS:
   348					;   0426  1	!
   349					;   0427  1	!	None.
   350					;   0428  1	!
   351					;   0429  1	! IMPLICIT OUTPUTS:
   352					;   0430  1	!
   353					;   0431  1	!	None.
   354					;   0432  1	!
   355					;   0433  1	! COMPLETION CODES:
   356					;   0434  1	!
   357					;   0435  1	!	None.
   358					;   0436  1	!
   359					;   0437  1	! SIDE EFFECTS:
   360					;   0438  1	!
   361					;   0439  1	!	None.
   362					;   0440  1	!
   363					;   0441  1	!--
   364					;   0442  1
   365					;   0443  2	    BEGIN
   366					;   0444  2
   367					;   0445  2	    LOCAL
   368					;   0446  2		STATUS;					! Status returned by the lib
   369					rary routine
   370					;   0447  2
   371					;   0448  2	!
   372					;   0449  2	! Output the text
   373					;   0450  2	!
   374					;   0451  2	    CH$WCHAR%A (CHR%NUL, TEXT%POINTER);
   375					;   0452  2	    (.DUMP%ROUTINE) (TEXT%BUFFER, .TEXT%COUNT); ! Output the buffer to the c
   376					orrect place
   377					;   0453  2	!
   378					;   0454  2	! Now reset the descriptor and the pointer to a virgin state
   379					;   0455  2	!
   380					;   0456  2	    TEXT%COUNT = 0;
   381					;   0457  2	    TEXT%POINTER = CH$PTR (TEXT%BUFFER);
   382					;   0458  2	!
   383					;   0459  1	    END;					! End of TT%OUTPUT
   384
   385
KERTT	MACRO %53B(1155)-2 15:29  3-Oct-85 Page 1-7
KERTT	MAC	18-Jan-73 17:20

   386	400013'				TT%OUTPUT::
   387						SETZ	AC1,				; AC1,
   388	400013'	400 01 0 00 000000 						0451
   389	400014'	136 01 0 00 000002'		IDPB	AC1,U.3				; AC1,TEXT%POINTER
   390						MOVE	AC1,U.1				; AC1,DUMP%ROUTINE
   391	400015'	200 01 0 00 000000'						0452
   392	400016'	261 17 0 00 400026'		PUSH	SP,C.2				; SP,[0,,TEXT%BUFFER]
   393	400017'	261 17 0 00 000001'		PUSH	SP,U.2				; SP,TEXT%COUNT
   394	400020'	260 17 0 01 000000 		PUSHJ	SP,0(AC1)			; SP,0(AC1)
   395						SETZM	U.2				; TEXT%COUNT
   396	400021'	402 00 0 00 000001'						0456
   397						MOVE	AC1,C.1				; AC1,[POINT 7,TEXT%BUFFER-1,34]  <1,7>
   398	400022'	200 01 0 00 400006'						0457
   399	400023'	202 01 0 00 000002'		MOVEM	AC1,U.3				; AC1,TEXT%POINTER
   400						ADJSP	SP,-2				; SP,-2
   401	400024'	105 17 0 00 777776 						0443
   402						POPJ	SP,				; SP,
   403	400025'	263 17 0 00 000000 						0406
   404	400026'	000000	000003'		C.2:	XWD	0,U.4				; 0,TEXT%BUFFER
   405
   406					; Routine Size:  12 words
   407
   408
   409					;   0460  1	%SBTTL 'Terminal routines -- TT%CHAR - Output a single character'
   410					;   0461  1
   411					;   0462  1	GLOBAL ROUTINE TT%CHAR (CHARACTER) : NOVALUE =
   412					;   0463  1
   413					;   0464  1	!++
   414					;   0465  1	! FUNCTIONAL DESCRIPTION:
   415					;   0466  1	!
   416					;   0467  1	!	This routine will store a character into the text buffer.  It will
   417					;   0468  1	!	cause the text to be output if the character is a line terminator.
   418					;   0469  1	!
   419					;   0470  1	! CALLING SEQUENCE:
   420					;   0471  1	!
   421					;   0472  1	!	TT%CHAR(Character);
   422					;   0473  1	!
   423					;   0474  1	! INPUT PARAMETERS:
   424					;   0475  1	!
   425					;   0476  1	!	Character - Character to store into the text buffer.
   426					;   0477  1	!
   427					;   0478  1	! IMPLICIT INPUTS:
   428					;   0479  1	!
   429					;   0480  1	!	None.
   430					;   0481  1	!
   431					;   0482  1	! OUTPUT PARAMETERS:
   432					;   0483  1	!
   433					;   0484  1	!	None.
   434					;   0485  1	!
   435					;   0486  1	! IMPLICIT OUTPUTS:
   436					;   0487  1	!
   437					;   0488  1	!	None.
   438					;   0489  1	!
   439					;   0490  1	! COMPLETION CODES:
   440					;   0491  1	!
KERTT	MACRO %53B(1155)-2 15:29  3-Oct-85 Page 1-8
KERTT	MAC	18-Jan-73 17:20

   441					;   0492  1	!	None.
   442					;   0493  1	!
   443					;   0494  1	! SIDE EFFECTS:
   444					;   0495  1	!
   445					;   0496  1	!	None.
   446					;   0497  1	!
   447					;   0498  1	!--
   448					;   0499  1
   449					;   0500  2	    BEGIN
   450					;   0501  2	!
   451					;   0502  2	! Increment the count of the characters
   452					;   0503  2	!
   453					;   0504  2		TEXT%COUNT = .TEXT%COUNT + 1;
   454					;   0505  2	!
   455					;   0506  2	! And store the character
   456					;   0507  2	!
   457					;   0508  2		CH$WCHAR%A (.CHARACTER, TEXT%POINTER);
   458					;   0509  2	!
   459					;   0510  2	! If this is a line feed then just output the text string
   460					;   0511  2	!
   461					;   0512  2
   4		;   0513  2	    IF .CHARACTER EQL CHR%LFD THEN TT%OUTPUT ();
   463					;   0514  2	!
   464					;   0515  2	! Check to make sure we are not exceeding the limit of the buffer
   465					;   0516  2	!
   466					;   0517  2		IF .TEXT%COUNT EQL TEXT%BFR%LENGTH-1 THEN TT%OUTPUT ();
   467					;   0518  2
   468					;   0519  2
   469					;   0520  2	!
   470					;   0521  1	    END;					! End of TT%CHAR
   471
   472
   473	400027'				TT%CHAR::
   474						AOS	U.2				; TEXT%COUNT
   475	400027'	350 00 0 00 000001'						0504
   476						MOVE	AC1,-1(SP)			; AC1,CHARACTER
   477	400030'	200 01 0 17 777777 						0508
   478	400031'	136 01 0 00 000002'		IDPB	AC1,U.3				; AC1,TEXT%POINTER
   479						MOVEI	AC1,12				; AC1,12
   480	400032'	201 01 0 00 000012 						0513
   481	400033'	316 01 0 17 777777 		CAMN	AC1,-1(SP)			; AC1,CHARACTER
   482	400034'	260 17 0 00 400013'		PUSHJ	SP,TT%OUTPUT			; SP,TT%OUTPUT
   483						MOVEI	AC1,377				; AC1,377
   484	400035'	201 01 0 00 000377 						0517
   485	400036'	316 01 0 00 000001'		CAMN	AC1,U.2				; AC1,TEXT%COUNT
   486	400037'	260 17 0 00 400013'		PUSHJ	SP,TT%OUTPUT			; SP,TT%OUTPUT
   487						POPJ	SP,				; SP,
   488	400040'	263 17 0 00 000000 						0462
   489
   490					; Routine Size:  10 words
   491
   492
   493					;   0522  1
   494					;   0523  1	%SBTTL 'Terminal routines -- TT%TEXT - Output a text string'
   495					;   0524  1
KERTT	MACRO %53B(1155)-2 15:29  3-Oct-85 Page 1-9
KERTT	MAC	18-Jan-73 17:20

   496					;   0525  1	GLOBAL ROUTINE TT%TEXT (ADDRESS) : NOVALUE =
   497					;   0526  1
   498					;   0527  1	!++
   499					;   0528  1	! FUNCTIONAL DESCRIPTION:
   500					;   0529  1	!
   501					;   0530  1	!	This routine will output text on the user's terminal.  It will
   502					;   0531  1	!	assume that it must check to determine if it can output the text
   503					;   0532  1	!	or not.
   504					;   0533  1	!
   505					;   0534  1	! CALLING SEQUENCE:
   506					;   0535  1	!
   507					;   0536  1	!	TT%TEXT(TEXT%ADDRESS);
   508					;   0537  1	!
   509					;   0538  1	! INPUT PARAMETERS:
   510					;   0539  1	!
   511					;   0540  1	!	None.
   512					;   0541  1	!
   513					;   0542  1	! IMPLICIT INPUTS:
   514					;   0543  1	!
   515					;   0544  1	!	None.
   516					;   0545  1	!
   517					;   0546  1	! OUTPUT PARAMETERS:
   518					;   0547  1	!
   519					;   0548  1	!	None.
   520					;   0549  1	!
   521					;   0550  1	! IMPLICIT OUTPUTS:
   522					;   0551  1	!
   523					;   0552  1	!	None.
   524					;   0553  1	!
   525					;   0554  1	! COMPLETION CODES:
   526					;   0555  1	!
   527					;   0556  1	!	None.
   528					;   0557  1	!
   529					;   0558  1	! SIDE EFFECTS:
   530					;   0559  1	!
   531					;   0560  1	!	None.
   532					;   0561  1	!
   533					;   0562  1	!--
   534					;   0563  1
   535					;   0564  2	    BEGIN
   536					;   0565  2
   537					;   0566  2	    LOCAL
   538					;   0567  2		CHARACTER,				! Character being processed
   539					;   0568  2		ARG%POINTER;				! Pointer to the argument's
   540					text
   541					;   0569  2
   542					;   0570  2	!
   543					;   0571  2	! Construct a pointer to the argument.
   544					;   0572  2	!
   545					;   0573  2	    ARG%POINTER = CH$PTR (.ADDRESS);
   546					;   0574  2	!
   547					;   0575  2	! Get the first character that was passed.
   548					;   0576  2	!
   549					;   0577  2	    CHARACTER = CH$RCHAR%A (ARG%POINTER);
   550					;   0578  2	!
KERTT	MACRO %53B(1155)-2 15:29  3-Oct-85 Page 1-10
KERTT	MAC	18-Jan-73 17:20

   551					;   0579  2	! Loop reading characters and calling the output routine to process
   552					;   0580  2	! them
   553					;   0581  2	!
   554					;   0582  2
   555					;   0583  2	    WHILE .CHARACTER NEQ CHR%NUL DO
   556					;   0584  3		BEGIN
   557					;   0585  3		TT%CHAR (.CHARACTER);
   558					;   0586  3		CHARACTER = CH$RCHAR%A (ARG%POINTER);
   559					;   0587  2		END;
   560					;   0588  2
   561					;   0589  1	    END;					! End of TT%TEXT
   562
   563
   564	400041'				TT%TEXT::
   565						PUSH	SP,AC14				; SP,AC14
   566	400041'	261 17 0 00 000014 						0525
   567	400042'	261 17 0 00 000016 		PUSH	SP,AC16				; SP,AC16
   568						MOVE	AC1,-3(SP)			; AC1,ADDRESS
   569	400043'	200 01 0 17 777775 						0573
   570	400044'	201 16 0 01 777777 		MOVEI	AC16,-1(AC1)			; AC16,-1(AC1)
   571	400045'	505 16 0 00 010700 		HRLI	AC16,10700			; AC16,10700
   572						ILDB	AC14,AC16			; CHARACTER,ARG%POINTER
   573	400046'	134 14 0 00 000016 						0577
   574					L.1:	JUMPE	AC14,L.2			; CHARACTER,L.2
   575	400047'	322 14 0 00 400055'						0583
   576						PUSH	SP,AC14				; SP,CHARACTER
   577	400050'	261 17 0 00 000014 						0585
   578	400051'	260 17 0 00 400027'		PUSHJ	SP,TT%CHAR			; SP,TT%CHAR
   579						ILDB	AC14,AC16			; CHARACTER,ARG%POINTER
   580	400052'	134 14 0 00 000016 						0586
   581						ADJSP	SP,-1				; SP,-1
   582	400053'	105 17 0 00 777777 						0584
   583						JRST	L.1				; L.1
   584	400054'	254 00 0 00 400047'						0583
   585					L.2:	POP	SP,AC16				; SP,AC16
   586	400055'	262 17 0 00 000016 						0525
   587	400056'	262 17 0 00 000014 		POP	SP,AC14				; SP,AC14
   588	400057'	263 17 0 00 000000 		POPJ	SP,				; SP,
   589
   590					; Routine Size:  15 words
   591
   592
   593					;   0590  1
   594					;   0591  1	%SBTTL 'Terminal routines -- TT%NUMBER - Output a three digit number'
   595					;   0592  1
   596					;   0593  1	GLOBAL ROUTINE TT%NUMBER (NUMBER) : NOVALUE =
   597					;   0594  1
   598					;   0595  1	!++
   599					;   0596  1	! FUNCTIONAL DESCRIPTION:
   600					;   0597  1	!
   601					;   0598  1	!	This routine will store a three digit number into the text buffer.
   602					;   0599  1	!	It will just return if the number is greater than 999.
   603					;   0600  1	!
   604					;   0601  1	! CALLING SEQUENCE:
   605					;   0602  1	!
KERTT	MACRO %53B(1155)-2 15:29  3-Oct-85 Page 1-11
KERTT	MAC	18-Jan-73 17:20

   606					;   0603  1	!	TT%NUMBER(Value);
   607					;   0604  1	!
   608					;   0605  1	! INPUT PARAMETERS:
   609					;   0606  1	!
   610					;   0607  1	!	Value - Value to output.
   611					;   0608  1	!
   612					;   0609  1	! IMPLICIT INPUTS:
   613					;   0610  1	!
   614					;   0611  1	!	None.
   615					;   0612  1	!
   616					;   0613  1	! OUTPUT PARAMETERS:
   617					;   0614  1	!
   618					;   0615  1	!	None.
   619					;   0616  1	!
   620					;   0617  1	! IMPLICIT OUTPUTS:
   621					;   0618  1	!
   622					;   0619  1	!	None.
   623					;   0620  1	!
   624					;   0621  1	! COMPLETION CODES:
   625					;   0622  1	!
   626					;   0623  1	!	None.
   627					;   0624  1	!
   628					;   0625  1	! SIDE EFFECTS:
   629					;   0626  1	!
   630					;   0627  1	!	None.
   631					;   0628  1	!
   632					;   0629  1	!--
   633					;   0630  1
   634					;   0631  2	    BEGIN
   635					;   0632  2	    ROUTINE TT%NUM%WORKER (VALUE) : NOVALUE =
   636					;   0633  3		BEGIN
   637					;   0634  3
   638					;   0635  3		IF .VALUE LEQ 9
   639					;   0636  3		THEN
   640					;   0637  3		    TT%CHAR (.VALUE + %C'0')
   641					;   0638  3		ELSE
   642					;   0639  4		    BEGIN
   643					;   0640  4		    TT%NUM%WORKER (.VALUE/10);
   644					;   0641  4		    TT%CHAR ((.VALUE MOD 10) + %C'0');
   645					;   0642  3		    END;
   646					;   0643  3
   647					;   0644  2		END;
   648
   649
   650					; TT%NUM%WORKER
   651					U.11:	PUSH	SP,AC16				; SP,AC16
   652	400060'	261 17 0 00 000016 						0632
   653						MOVE	AC16,-2(SP)			; AC16,VALUE
   654	400061'	200 16 0 17 777776 						0635
   655	400062'	303 16 0 00 000011 		CAILE	AC16,11				; AC16,11
   656	400063'	254 00 0 00 400071'		JRST	L.3				; L.3
   657						MOVE	AC1,AC16			; AC1,AC16
   658	400064'	200 01 0 00 000016 						0637
   659	400065'	271 01 0 00 000060 		ADDI	AC1,60				; AC1,60
   660	400066'	261 17 0 00 000001 		PUSH	SP,AC1				; SP,AC1
KERTT	MACRO %53B(1155)-2 15:29  3-Oct-85 Page 1-12
KERTT	MAC	18-Jan-73 17:20

   661	400067'	260 17 0 00 400027'		PUSHJ	SP,TT%CHAR			; SP,TT%CHAR
   662						JRST	L.4				; L.4
   663	400070'	254 00 0 00 400103'						0635
   664					L.3:	MOVE	AC1,AC16			; AC1,AC16
   665	400071'	200 01 0 00 000016 						0640
   666	400072'	231 01 0 00 000012 		IDIVI	AC1,12				; AC1,12
   667	400073'	261 17 0 00 000001 		PUSH	SP,AC1				; SP,AC1
   668	400074'	260 17 0 00 400060'		PUSHJ	SP,U.11				; SP,TT%NUM%WORKER
   669						MOVE	AC1,AC16			; AC1,AC16
   670	400075'	200 01 0 00 000016 						0641
   671	400076'	231 01 0 00 000012 		IDIVI	AC1,12				; AC1,12
   672	400077'	271 02 0 00 000060 		ADDI	AC2,60				; AC2,60
   673	400100'	261 17 0 00 000002 		PUSH	SP,AC2				; SP,AC2
   674	400101'	260 17 0 00 400027'		PUSHJ	SP,TT%CHAR			; SP,TT%CHAR
   675						ADJSP	SP,-1				; SP,-1
   676	400102'	105 17 0 00 777777 						0639
   677					L.4:	ADJSP	SP,-1				; SP,-1
   678	400103'	105 17 0 00 777777 						0633
   679						POP	SP,AC16				; SP,AC16
   680	400104'	262 17 0 00 000016 						0632
   681	400105'	263 17 0 00 000000 		POPJ	SP,				; SP,
   682
   683					; Routine Size:  22 words
   684
   685
   686					;   0645  2
   687					;   0646  2	    IF .NUMBER LSS 0
   688					;   0647  2	    THEN
   689					;   0648  3		BEGIN
   690					;   0649  3		TT%CHAR (%C'-');
   691					;   0650  3		NUMBER = -.NUMBER;
   692					;   0651  2		END;
   693					;   0652  2
   694					;   0653  2	    TT%NUM%WORKER (.NUMBER);
   695					;   0654  1	    END;					! End of TT%NUMBER
   696
   697
   698	400106'				TT%NUMBER::
   699						SKIPL	-1(SP)				; NUMBER
   700	400106'	331 00 0 17 777777 						0646
   701	400107'	254 00 0 00 400114'		JRST	L.5				; L.5
   702						PUSH	SP,C.3				; SP,[55]
   703	400110'	261 17 0 00 400120'						0649
   704	400111'	260 17 0 00 400027'		PUSHJ	SP,TT%CHAR			; SP,TT%CHAR
   705						MOVNS	-2(SP)				; NUMBER
   706	400112'	213 00 0 17 777776 						0650
   707						ADJSP	SP,-1				; SP,-1
   708	400113'	105 17 0 00 777777 						0648
   709					L.5:	PUSH	SP,-1(SP)			; SP,NUMBER
   710	400114'	261 17 0 17 777777 						0653
   711	400115'	260 17 0 00 400060'		PUSHJ	SP,U.11				; SP,TT%NUM%WORKER
   712						ADJSP	SP,-1				; SP,-1
   713	400116'	105 17 0 00 777777 						0631
   714						POPJ	SP,				; SP,
   715	400117'	263 17 0 00 000000 						0593
KERTT	MACRO %53B(1155)-2 15:29  3-Oct-85 Page 1-13
KERTT	MAC	18-Jan-73 17:20

   716	400120'	000000	000055		C.3:	EXP	55				; 55
   717
   718					; Routine Size:  11 words
   719
   720
   721					;   0655  1
   722					;   0656  1	%SBTTL 'Terminal routines -- TT%CRLF - Output a CRLF'
   723					;   0657  1
   724					;   0658  1	GLOBAL ROUTINE TT%CRLF : NOVALUE =
   725					;   0659  1
   726					;   0660  1	!++
   727					;   0661  1	! FUNCTIONAL DESCRIPTION:
   728					;   0662  1	!
   729					;   0663  1	!	This routine will cause the contents of the terminal buffer to be
   730					;   0664  1	!	output to SYS$OUTPUT:.
   731					;   0665  1	!
   732					;   0666  1	! CALLING SEQUENCE:
   733					;   0667  1	!
   734					;   0668  1	!	TT%CRLF();
   735					;   0669  1	!
   736					;   0670  1	! INPUT PARAMETERS:
   737					;   0671  1	!
   738					;   0672  1	!	None.
   739					;   0673  1	!
   740					;   0674  1	! IMPLICIT INPUTS:
   741					;   0675  1	!
   742					;   0676  1	!	None.
   743					;   0677  1	!
   744					;   0678  1	! OUTPUT PARAMETERS:
   745					;   0679  1	!
   746					;   0680  1	!	None.
   747					;   0681  1	!
   748					;   0682  1	! IMPLICIT OUTPUTS:
   749					;   0683  1	!
   750					;   0684  1	!	None.
   751					;   0685  1	!
   752					;   0686  1	! COMPLETION CODES:
   753					;   0687  1	!
   754					;   0688  1	!	None.
   755					;   0689  1	!
   756					;   0690  1	! SIDE EFFECTS:
   757					;   0691  1	!
   758					;   0692  1	!	None.
   759					;   0693  1	!
   760					;   0694  1	!--
   761					;   0695  1
   762					;   0696  2	    BEGIN
   763					;   0697  2	    TT%CHAR (CHR%CRT);
   764					;   0698  2	    TT%CHAR (CHR%LFD);
   765					;   0699  1	    END;					! End of TT%CRLF
   766
   767
   768	400121'				TT%CRLF::
   769						PUSH	SP,C.4				; SP,[15]
   770	400121'	261 17 0 00 400127'						0697
KERTT	MACRO %53B(1155)-2 15:29  3-Oct-85 Page 1-14
KERTT	MAC	18-Jan-73 17:20

   771	400122'	260 17 0 00 400027'		PUSHJ	SP,TT%CHAR			; SP,TT%CHAR
   772						PUSH	SP,C.5				; SP,[12]
   773	400123'	261 17 0 00 400130'						0698
   774	400124'	260 17 0 00 400027'		PUSHJ	SP,TT%CHAR			; SP,TT%CHAR
   775						ADJSP	SP,-2				; SP,-2
   776	400125'	105 17 0 00 777776 						0696
   777						POPJ	SP,				; SP,
   778	400126'	263 17 0 00 000000 						0658
   779	400127'	000000	000015		C.4:	EXP	15				; 15
   780	400130'	000000	000012		C.5:	EXP	12				; 12
   781
   782					; Routine Size:  8 words
   783
   784
   785					;   0700  1
   786					;   0701  1	%SBTTL 'End of KERTRM'
   787					;   0702  1	END						! End of module
   788					;   0703  1
   789					;   0704  0	ELUDOM
   790
   791
   792
   793						END

NO ERRORS DETECTED

HI-SEG. BREAK IS 400131
PROGRAM BREAK IS 000067
CPU TIME USED 00:25.357

10P CORE USED
KERTT	MACRO %53B(1155)-2 15:29  3-Oct-85 Page S-1
KERTT	MAC	18-Jan-73 17:20		SYMBOL TABLE

AC0		000000		MAX%MS		000140	sin
AC1		000001		PR%EVE		000002	sin
AC10		000010		PR%MAR		000001	sin
AC11		000011		PR%MAX		000004	sin
AC12		000012		PR%MIN		000000	sin
AC13		000013		PR%NON		000000	sin
AC14		000014		PR%ODD		000003	sin
AC16		000016		PR%SPA		000004	sin
AC2		000002		SP		000017
AC3		000003		TERM%D		400003'	ext
AC4		000004		TT%CHA		400027'	int
AC5		000005		TT%CRL		400121'	int
AC6		000006		TT%INI		400000'	int
AC7		000007		TT%NUM		400106'	int
C.1		400006'		TT%OUT		400013'	int
C.2		400026'		TT%SET		400007'	int
C.3		400120'		TT%TEX		400041'	int
C.4		400127'		U.1		000000'
C.5		400130'		U.11		400060'
CHK%1C		000061	sin	U.2		000001'
CHK%2C		000062	sin	U.3		000002'
CHK%CR		000063	sin	U.4		000003'
CONNEC		000000	ext
DP%FUL		000000	sin
DP%HAL		000001	sin
FNM%FU		000002	sin
FNM%NO		000001	sin
FNM%UN		000004	sin
FP		000015
GC%COM		000017	sin
GC%CON		000011	sin
GC%COP		000013	sin
GC%DEL		000004	sin
GC%DIR		000002	sin
GC%DIS		000003	sin
GC%EXI		000001	sin
GC%HEL		000006	sin
GC%JOU		000021	sin
GC%KER		000020	sin
GC%LGN		000010	sin
GC%LOG		000007	sin
GC%MAX		000023	sin
GC%MIN		000001	sin
GC%PRO		000023	sin
GC%REN		000012	sin
GC%SEN		000015	sin
GC%STA		000016	sin
GC%TYP		000005	sin
GC%VAR		000022	sin
GC%WHO		000014	sin
L.1		400047'
L.2		400055'
L.3		400071'
L.4		400103'
L.5		400114'

KERTT	MACRO %53B(1155)-2 15:29  3-Oct-85 Page 1
KERTT	MAC	18-Jan-73 17:20


Symbol cross reference

AC0	   226#
AC1	   227#	   248	   250	   251	   253	   315	   387	   389	   390	   394	   397	   399	   476	   478
	   479	   481	   483	   485	   568	   570	   657	   659	   660	   664	   666	   667	   669	   671
AC10	   234#
AC11	   235#
AC12	   236#
AC13	   237#
AC14	   238#	   565	   572	   574	   576	   579	   587
AC16	   240#	   567	   570	   571	   572	   579	   585	   651	   653	   655	   657	   664	   669	   679
AC2	   228#	   317	   319	   672	   673
AC3	   229#
AC4	   230#
AC5	   231#
AC6	   232#
AC7	   233#
C.1	   248	   256#	   397
C.2	   392	   404#
C.3	   702	   716#
C.4	   769	   779#
C.5	   772	   780#
CHK%1C	   220#
CHK%2C	   221#
CHK%CR	   222#
CONNEC	   184#
DP%FUL	   218#
DP%HAL	   219#
FNM%FU	   188#
FNM%NO	   187#
FNM%UN	   189#
FP	   239#
GC%COM	   212#
GC%CON	   206#
GC%COP	   208#
GC%DEL	   201#
GC%DIR	   199#
GC%DIS	   200#
GC%EXI	   198#
GC%HEL	   203#
GC%JOU	   214#
GC%KER	   213#
GC%LGN	   205#
GC%LOG	   204#
GC%MAX	   217#
GC%MIN	   197#
GC%PRO	   216#
GC%REN	   207#
GC%SEN	   210#
GC%STA	   211#
GC%TYP	   202#
GC%VAR	   215#
KERTT	MACRO %53B(1155)-2 15:29  3-Oct-85 Page 1
KERTT	MAC	18-Jan-73 17:20


Symbol cross reference

GC%WHO	   209#
L.1	   574#	   583
L.2	   574	   585#
L.3	   656	   664#
L.4	   662	   677#
L.5	   701	   709#
MAX%MS	   223#
PR%EVE	   193#
PR%MAR	   192#
PR%MAX	   196#
PR%MIN	   190#
PR%NON	   191#
PR%ODD	   194#
PR%SPA	   195#
SP	   241#	   254	   317	   320	   392	   393	   394	   400	   402	   476	   481	   482	   486	   487
	   565	   567	   568	   576	   578	   581	   585	   587	   588	   651	   653	   660	   661	   667
	   668	   673	   674	   675	   677	   679	   681	   699	   702	   704	   705	   707	   709	   711
	   712	   714	   769	   771	   772	   774	   775	   777
TERM%D	   184#	   251
TT%CHA	   473#	   578	   661	   674	   704	   771	   774
TT%CRL	   768#
TT%INI	   245#
TT%NUM	   698#
TT%OUT	   386#	   482	   486
TT%SET	   314#
TT%TEX	   564#
U.1	   175#	   253	   315	   319	   390
U.11	   651#	   668	   711
U.2	   177#	   246	   393	   395	   474	   485
U.3	   179#	   250	   389	   399	   478
U.4	   181#	   256	   404}Kž