BIO -- ROUTINE LIBRARY FOR STANDARD BLOCK I/O FUNCTIONS.	MACRO 12.5-46.0 08:12 25-OCT-87 PAGE 1
TPARAM	23-DEC-86 12:29

     1				;PROGRAM CAPABILITIES
     2			000100	ACRCAP==:100                 ;I MAY RECEIVE RANK COMPRESSED DATA RECORD
     3			000040	KATCAP==:40                  ;I MAY RECEIVE KATAKANA DATA
     4			000020	BINCAP==:20                  ;I MAY RECEIVE BINARY DATA
     5			000010	UPDCAP==:10                  ;I MAY RECEIVE BINARY UPDATE MODE DATA
     6				;ASSEMBLY AND TEST SWITCHES
     7			000001	TESTNG== 1                   ;PRINT LOGIN MESSAGES FROM SLAVE HOST
     8				;PROTOCOL VERSION
     9			000001	VERNUM==:1
    10				;MESSAGE TYPES
    11			000100	MBOT== 100      ;LOWER BOUND FOR MESSAGE TYPES
    12			000101	DNRCOD== 101 ;REQUEST SLAVE TO BE DONOR.  NO RESPONSE.
    13			000102	RCVCOD== 102 ;REQUEST SLAVE TO BE RECEIVER.  NO RESPONSE.
    14			000103	FLKCOD== 103 ;ASCII FILE NAME FOLLOWS AFTER 1 BYTE GIVING COUNT.
    15				;              (RETURNS FAILCD IF FILE NOT FOUND OR FLKSCD IF FILE FOUND.
    16				;              (IF THE SLAVE & CONTROLLER ARE BOTH 940 THEN THE USUAL
    17				;              (SECURITY RULES ARE RELAXEED AND THE LOOKUP SUCCEEDS
    18				;              (IF THE FILE IS PRESENT, RETURNING 9 BYTES CONTAINING
    19				;              (INFORMATION FROM THE FIRST 3 WORDS OF THE FD ENTRY.
    20			000104	SUCCOD== 104 ;OPTION ACCEPTED
    21			000105	ULKCOD== 105 ;ASCII USERNAME FOLLOWS AFTER 1 BYTE GIVING COUNT.
    22				;              (LOOKS UP THE USER NAME IN THE LUD AND RETURNS A ULKSCD IF
    23				;              (FOUND AND A ULKRCD IF NOT FOUND.  IF THE SLAVE & CONTROLLER
    24				;              (ARE BOTH 940 THEN A SUPER GFD IS PERFORMED TO REACH THE
    25				;              (FILE DIRECTORY OF THE SPECIFIED USER, AND GAN, FDPT, AND UUN
    26				;              (FROM THE LUD ENTRY ARE RETURNED AS 9 BYTES.
    27			000106	FLKFCD== 106 ;FILE NOT FOUND--NOT CONSIDERED AN ERROR
    28			000107	ABTCOD==: 107 ;STOP WHAT YOU ARE DOING, ABORT
    29			000110	BCMCOD== 110 ;START DATA RECORD, BINARY COMPRESSION METHOD
    30			000111	ACMCOD== 111 ;START DATA RECORD, ASCII COMPRESSION METHOD
    31			000112	ACKCOD== 112 ;ACKNOWLEDGEE RECORD CHECKSUM AND BYTECOUNT MATCH
    32			000113	NAKCOD== 113 ;CHECKSUM AND/OR BYTECOUNT DO NOT MATCH
    33			000114	FINCD1== 114 ;DONOR HAS SENT ALL RECORDS IN FILE AND IS HAPPY.  FOLLOWED
    34				;              (BY 1 BYTE COUNT OF BYTES FOLLOWING  TOTAL FILE BYTES SENT
    35				;              (BY DONOR.  USED BY UPDATE MODE CLOSE TO TRUNCATE FILE TO
    36				;              (THE CORRECT DATA LENGTH.  WHEN DONOR AND RECEIVER
    37				;              (ARE BOTH 940 THIS WILL BE 3 BYTES CONTAINING CPTOP.
    38			000115	FINCD2== 115 ;RECEIVER HAS WRITTEN AND CLOSED FILE SUCCESSFULLY
    39			000116	FPFCOD== 116 ;FILE PROTECTION FAILURE
    40			000117	OPFCOD== 117 ;OPEN FAILURE
    41			000120	BZCOD==  120 ;BUFFER ZAPPED
    42				; OPTION TYPES 121-130 RESPOND 104 OR 133 IF NOT IMPLEMENTED
    43			000121	CPACOD== 121 ;SPECIFY COMPRESSION.  FOLLOWED BY 1 BYTE
    44				;              (0= NONE
    45				;              (1= BINARY
    46				;              (2= ASCII
    47				;              (3= ASCII AUTO
    48			000122	ONLCOD== 122 ;ON LOWER CASE.  FOLLOWED BY A BYTE OF ALL 1'S TO PERMIT
    49				;              (LOWER CASE, ALL 0'S TO CONVERT LOWER TO UPPER CASE
    50				;              (DEFAULT IS TO PERMIT LOWER CASE
    51			000124	TRUCOD== 124 ;FOLLOWED BY 1 BYTE INDICATING COLUMN TO BEGIN
    52				;              (TRUNCATION.  IF 0 THEN TURN OFF TRUNCATION.
    53			000125	TRICOD== 125 ;REMOVE TRAILING BLANKS.  FOLLOWED BY A BYTE OF ALL 1'S
BIO -- ROUTINE LIBRARY FOR STANDARD BLOCK I/O FUNCTIONS.	MACRO 12.5-46.0 08:12 25-OCT-87 PAGE 1-2
TPARAM	23-DEC-86 12:29

    54				;              (TO SUPPRESS TRAILING BLANKS OR A BYTE OF ALL 0'S TO KEEP
    55				;              (TRAILING BLANKS  (DEFAULT)
    56			000127	VARCOD== 127 ;PRODUCE VARIABLE LENGTH RECORDS (DEFAULT)
    57				;              (FOLLOWED BY 4 BYTES GIVING MAXIMUM RECORD SIZE
    58			000130	FIXCOD== 130 ;PAD WITH BLANKS TO MAKE FIXED LENGTH RECORDS.
    59				;              (FOLLOWED BY 4 BYES OF RECORD LENGTH.
    60			000131	LOGCOD==:131 ;TELL SLAVE TO LOG OFF
    61			000132	CHKCOD== 132 ;START DATA CHECKSUM RECORD
    62			000133	NICOD==  133 ;REQUESTED OPERATION IS NOT IMPLEMENTED
    63			000134	EORCOD== 134 ;END OF TRANSMISSION RECORD
    64			000135	EOTCOD== 135 ;TRANSMISSION RECORD IS LAST IN FILE
    65			000136	QUICOD==:136 ;ABORT THE CURRENT OPERATION, QUIT SLAVE, AND RETURN
    66				;              (TO OPERATING SYSTEM COMMAND LEVEL.
    67			000137	OPNCOD== 137 ;REQUEST SLAVE OPEN FILE FOR DATA TRANSFER (DIRECTION
    68				;              (DETERMINED BY PREVIOUS 101 OR 102 CODE.  FOLLOWED BY 1 BYTE
    69				;              (TRANSMISSION TYPE, AND POSSIBLY, OTHER BYTES
    70				;              (TYPE = 1 ASCII MODE TRANSFER.  NO BYTES FOLLOW
    71				;              (TYPE = 2 EBCDIC MODE TRANSFER.  NO BYTES FOLLOW
    72				;              (TYPE = 3 BINARY MODE TRANSFER.  THE RECEIVE FILE, IF
    73				;              (PRESENT, IS TO BE ERASED.  FOLLOWED BY 1 BYTE OF BINARY
    74				;              (PARAMETERS.
    75				;              (TYPE = 4 BINARY UPDATE MODE TRANSFER.  DONOR AND RECEIVER
    76				;              (WILL EXCHANGE CHECK RECORDS.  FOLLOWED BY 1 BYTE OF BINARY
    77				;              (PARAMETERS AND 2 BYTES OF UPDATE MODE BLOCKSIZE.
    78				;              (TYPE = 5 KATAKANA MODE TRANSFER.  NO BYTES FOLLOW
    79				;              (TYPE = 6 IMAGE MODE TRANSFER.  NO BYTES FOLLOW
    80				;              (POSSIBLE RESPONSES ARE  133 (UPDATE MODE NOT IMPLEMENTED
    81				;              (OR PARAMETERS NOT ACCEPTABLE), 104 (FILE OPENED), 116
    82				;              (FILE PROTECTION FAILURE), OR 117 (FILE OPEN FAILURE).
    83			000140	FENQCD== 140 ;REQUEST SLAVE DONOR TO SEND FILE ATTRIBUTES.  RETURNS 104
    84				;              (PLUS 1 BYTE COUNT OF BYTES FOLLOWING.
    85			000141	FATTCD== 141 ;PREPARE SLAVE RECEIVER TO OPEN FILE.  FOLLOWED BY 1 BYTE
    86				;              (COUNT OF BYTES FOLLOWING.  WHEN DONOR AND RECEIVER ARE BOTH
    87				;              (940 SEND 9 BYTES  3 BYTES FFDPT, 3 BYTES FDWD0, AND
    88				;              (3 BYTES FDWD2.  NO RESPONSE IS GIVEN.
    89			000142	INSCOD== 142 ;SET INSTALLER LICENSE.  FOLLOWED BY 6 BYTE CIPHER.
    90			000143	WHYCOD==: 143 ;SOLICIT EXPLANATION OF LATEST ERROR
    91			000144	RSPCOD==: 144 ;CODE FOLLOWED BY ASCII STRING TO BE PRINTED AT TERMINAL
    92				;              (STRING TERMINATED BY A NUL BYTE OR ANY CONTROL CODE.
    93			000145	BADCOD== 145 ;UNEXPECTED CONTROL CODE RECEIVED
    94			000146	ERRCOD== 146 ;FILE SYSTEM ERROR WRITING OR READING FILE
    95			000147	PERCOD== 147 ;FILE SYSTEM ERROR POSITIONING FILE
    96			000150	ERASCD== 150 ;FILE SYSTEM ERROR ERASING RECEIVE FILE
    97			000152	TRPCOD== 152 ;PROGRAM TRAP
    98			000153	FLKRCD== 153 ;LOOKUP FAILURE--PROBABLY SYNTAX
    99			000154	ULKFCD== 154 ;GFD FAILURE
   100			000160	ULKSCD== 160 ;GFD SUCCESS
   101			000161	FLKSCD== 161 ;FILE LOOKUP SUCCESS
   102			000177	MTOP== 177      ;UPPER BOUND FOR MESSAGE TYPES
   103				;TRANSMISSION PARAMETERS
   104			050000	MAXRS== ^D512*^D40             ;MAXIMUM RECORD SIZE--40 PAGES
   105			010000	MINRS== ^D512*^D8            ;MININUM RECORD SIZE--8 PAGES
   106			014000	TSTRS== ^D6144                 ;SAMPLE SIZE FOR STATISTICS (CONSTANT)
BIO -- ROUTINE LIBRARY FOR STANDARD BLOCK I/O FUNCTIONS.	MACRO 12.5-46.0 08:12 25-OCT-87 PAGE 1-3
TPARAM	23-DEC-86 12:29

   107				;                               WILL BE 2 PAGES FOR BF=6
   108				;BINARY PARAMETERS FOR ASCII, KATAKANA, AND IMAGE MODE
   109			000407	KMODE==:  407                   ;1000+0011+1=BYTESIZE=9,BLOCKING=4,FILL=LEFT
   110			001000	SMODE==: 1000                   ;000+0000+0  INDICATES SERIAL MODE
   111			000345	IXMODE==: 345            ;111+0010+1==BYTESIZE=8,BLOCKING=3,FILL=LEFT
   112			000351	XMODE==: 351            ;111+0100+1==BYTESIZE=8,BLOCKING=5,FILL=LEFT
   113			000311	AMODE==: 311            ;110+0100+1==BYTESIZE=7,BLOCKING=5,FILL=LEFT
   114				;ASCII CHARACTER VALUES
   115			000010	TABSIZ== 10
   116			000003	ETX==: 3        ;CONTROL-C
   117			000011	HT== 11
   118			000012	LF== 12
   119			000015	CR== 15
   120			000030	CAN==: 30
   121			000031	EM==: 31
   122			000033	ESC==: 33
   123			000036	RS== 36
   124			000037	US==: 37
   125			000040	BL== 40
   126			000050	LPAREN== 50
   127			000051	RPAREN== 51
   128			000072	COLON== 72
   129				;COMPRESSION OPTIONS
   130			000001	AUTO==:1
   131			000002	ASCII==:2
   132			000400	NONE==: 400  ;NO OPTIONS, SET TO KEEP COPT NON-ZERO
   133				;REPEATED CHAR COMPRESSION PARAMETERS
   134			000200	BIASP== 200                ;BIAS FOR PREFERRED CHARACTER COMPRESSION CODE
   135			000202	MAXP== ^D130                 ;MAXIMUM COUNT FOR PREFERRED CHARACTER
   136			000003	MINP== 3                   ;MININUM COUNT FOR PREFERRED CHARACTER
   137			000010	BIASC== 10                 ;BIAS FOR REPEATED CHARACTER COMPRESSION CODE
   138			000073	MAXC== ^D59                  ;MAXIMUM COUNT FOR REPEATED CHARACTER
   139			000004	MINC== 4                   ;MININUM COUNT FOR REPEATED CHARACTER
   140				;RANK COMPRESSION PARAMETERS
   141			000010	BIASPA== 10                  ;BIAS FOR PREFERRED BYTE COMPRESSION CODE
   142			000021	MAXPA== ^D17                  ;MAXIMUM COUNT FOR PREFERRED BYTE
   143			000002	MINPA== 2                   ;MININUM COUNT FOR PREFERRED BYTE
   144			000032	BIASA== 32                 ;BIAS FOR ALL TRANSLATING CHARACTERS
   145			000010	NM== ^D8                   ;MASTER CHARACTERS-- 32 THRU 41
   146			000007	LM== NM-1
   147			000025	NC== ^D21                  ;COMBINING CHARACTERS-- 32 THRU 56
   148			000024	LC== NC-1
   149			000076	NT== ^D62                    ;TRANSLATING CHARACTERS-- 32 THRU 127
   150			000075	LT== NT-1
   151				; CHECK BLOCK LAYOUT
   152			000000	FCK1== 0
   153			000400	FCK2== ^D256
   154			001000	FCK3== ^D512
   155				; DONOR AND RECEIVER FILENAME INDEXES
   156		777777	777777	FSIZE== -1
   157			000003	FEXT== 3
   158			000015	UNAME== 15
   159			000017	SYS== 17
BIO -- ROUTINE LIBRARY FOR STANDARD BLOCK I/O FUNCTIONS.	MACRO 12.5-46.0 08:12 25-OCT-87 PAGE 1-4
TPARAM	23-DEC-86 12:29

   160			000020	FNAME== 20
   161				; AUXCAL DEFINITIONS
   162			000000	IICHW== 0       ;INPUT IMAGE CHAR, WAIT
   163			000001	IICHS== 1       ;INPUT IMAGE CHAR, SKIP
   164			000003	OICH== 3        ;OUTPUT IMAGE CHAR
   165			000004	OICHI== 4       ;OUTPUT IMAGE CHAR IMMEDIATE
   166			000007	CLRBO==:7       ;CLEAR OUTPUT BUFFER
   167			000012	YELLOW==: 12     ;SEND YELLOW BALL
   168			000032	SDVIOS== 32     ;SET DEVIOS
   169			000034	IBIO== 34       ;INITIATE BLOCK I/O MODE
   170			000035	INBW== 35       ;INPUT A BLOCK (WAIT)
   171			000036	INBS== 36       ;INPUT A BLOCK (SKIP)
   172			000037	OB== 37         ;OUTPUT A BLOCK
   173			000040	TBI== 40        ;TERMINATE BLOCK INPUT
   174			000041	TBO== 41        ;TERMINATE BLOCK OUTPUT
   175			000042	LBIO== 42       ;LEAVE BLOCK I/O MODE
   176			000043	SLVPRT== 43     ;SLAVE COMMAND PORT
   177			000052	ASCSTG== 52     ;OUTPUT ASCII STRING
   178				; DEVIOS BITS
   179			000014	IOMOD==14       ;BINARY MODE
   180			020000	IODEND==20000   ;MASK FOR IODEND BIT (BIT 22)
   181			000200	NOECHO==200     ;NO ECHO BIT (AFFECTS COMMAND PORT)
   182				; UUO DEFINITIONS
   183				IFDEF UUOFLG<UUOTAB: BLOCK 0>
   184				DEFINE  OPD     (A,B) <U==U+1
   185				OPDEF A [U*1000000000]
   186				IFDEF UUOFLG<JRST B>>
   187			000000	U==0
   188			000001	 OPD OUTSTR,OSTRUU^U==U+1
   189			000002	 OPD INCHWL,INCHUU^U==U+1
   190			000003	 OPD OUTCHR,OCHRUU^U==U+1
   191			000004	 OPD OUTCHI,OCHIUU^U==U+1
   192			000005	 OPD CLRBFO,CLROUU^U==U+1
   193			000006	 OPD CLRBFI,CLRIUU^U==U+1
   194				; GENERAL-PURPOSE REGISTERS  (TOUCHED BY EVERYONE)
   195			000000	R0=0
   196			000001	R1=1
   197			000002	R2=2
   198				;REGISTERS TOUCHED ONLY BY A,ACTRANS,BCTRANS
   199				;R3-R5 USED IN CHECKSUMMING FILE (BEFORE TRANSMISSION)
   200			000003	R3=3            ;HOLDING REGISTER FOR C.  PRESERVE IN CW AND W MACROS
   201			000004	R4=4
   202			000004	RC=4          ;HOLDING REGISTER.  PRESERVE IN CW AND W MACROS.
   203			000005	R5=5
   204			000005	PREFER=5        ;PREFERRED COMPRESSION CHAR.
   205			000006	RCC=6            ;REGISTER USED FOR REPEAT COUNT
   206				; SPECIAL PURPOSE REGISTERS
   207			000007	C=7             ;CHARACTER BEING READ(WRITTEN) FROM(TO) FILE OR BEING
   208				;               WRITTEN(READ) TO(FROM) OUTPUT(INPUT) BUFFER.
   209			000010	RANK=10         ;RANK OF FIRST(SECOND) CHAR OF A MASTER-COMBINING
   210				;               PAIR.  **MUST** FOLLOW C.
   211			000011	AS=11           ;STATE FOR ROUTINE A.
   212			000012	GS=12           ;STATE FOR ROUTINE GB.
BIO -- ROUTINE LIBRARY FOR STANDARD BLOCK I/O FUNCTIONS.	MACRO 12.5-46.0 08:12 25-OCT-87 PAGE 1
REGS	23-DEC-86 12:29

   213			000013	GX=13           ;INDEX FOR ROUTINE GB.
   214			000014	PS=14           ;STATE FOR ROUTINE PB.
   215			000015	PX=15           ;INDEX FOR ROUTINE PB.
   216			000016	F=16            ;FLAGS
   217			000017	P=17            ;PUSHDOWN LIST POINTER
   218				;***  WARNING *** FLAGS IN MASTER ARE NOT PRESERVED FROM ONE FILE TO NEXT
   219				;***    SEE "SAVREG" IN TELECO.MAC WHICH ZEROES ALL ACCUMULATORS
   220				;FLAGS IN LH OF ACCUMULATOR F
   221			000001	LUDFLG== 1      ;LUD HAS BEEN OPENED IF 1
   222				;FLAGS IN RH OF ACCUMULATOR F
   223			000001	SORTFG== 1     ;SORT HAS BEEN PERFORMED IF 1
   224			000002	HSW== 2        ;RECORD HEADER HAS BEEN CREATED IF 1
   225			000004	LCO== 4        ;PERMIT LOWER CASE OUTPUT IF 1
   226			000010	LEFTFG== 10    ;LEFT FILL IF 1
   227			000020	SERFLG== 20    ;SERIAL MODE IF 1
   228			000040	UPDMOD== 40    ;READ CONTENTS FROM FILE BEFORE WRITING IF 1
   229			000100	IGNEOF== 100   ;IGNORE END OF BLOCK IF 1
   230			000200	CHGFLG== 200   ;PAGE CHANGED BY MASKING OPERATION IF 1
   231			000400	MASKFG== 400   ;PAGE MUST BE MASKED PRIOR TO USE
   232			001000	DEFFLG== 1000   ;IINIT TO CALL ROUTINE "DEFER" WHEN BLOCK INPUT DONE
   233			002000	MSGSW==  2000   ;ONCE-ONLY FLAG FOR COPYST
   234			004000	BI==     4000   ;INDICATES BLOCK INPUT STARTED IF 1
   235			010000	TI==    10000   ;INDICATES BLOCK INPUT TERMINATED IF 1
   236			020000	SWB==   20000   ;ONCE-ONLY SWITCH FOR SWBAC
   237			040000	FILFND==  40000  ;FILE FOUND BY SLAVE IF 1.
   238			100000	EDIT10== 100000 ;EDIT-10 FILE BEING TRANSMITTED IN ASCII MODE IF 1
   239			200000	ILLCHR== 200000 ;DISALLOWED CHAR IN FILENAME (SEE GET10)
   240				TITLE BIO -- ROUTINE LIBRARY FOR STANDARD BLOCK I/O FUNCTIONS.
   241
   242				        ENTRY BIOMOD,BIOEND
   243				        ENTRY BGC,CW,FLUSH
   244				        ENTRY IINIT,OINIT
   245				        ENTRY LVBI,ABIOIP
   246				;EXTERNAL ROUTINES REFERENCED
   247				        EXTERN ZAPINT,TRAP
   248				;EXTERNAL CELLS REFERENCED
   249				        EXTERN ICHECK,ICOUNT,CHECK,TOTCCT,AUXPRT,BMOD
   250				        EXTERN TIMFLG
   251
   252				        INTEGER BIOPTR,BIPTR
   253	000000'			BIBUF:  BLOCK ^D101
   254	000145'			BIOBUF:	BLOCK ^D101
   255
   256
   257				COMMENT ;
   258
   259				WARNING.  FLUSH ASSUMES THAT ONE BYTE WILL BE DEPOSITED IN
   260				THE BUFFER FOLLOWING CALL.  IF THIS IS NOT THE CASE A CALL
   261				TO BIOINI IS NEEDED TO SET BIOBUF PROPERLY.  NOTE THAT
   262				BIOBUF ALWAYS CONTAINS THE COUNT OF BYTES REMAINING IN THE
   263				BUFFER.
   264
   265				;
BIO -- ROUTINE LIBRARY FOR STANDARD BLOCK I/O FUNCTIONS.	MACRO 12.5-46.0 08:12 25-OCT-87 PAGE 1
BIO.MAC	23-DEC-86 12:29

   266				; INITIALIZE OUTPUT
   267	000312'	260740	000416'	OINIT:  PUSHJ P,BIOMOD
   268	000313'	402000	000000*	        SETZM TOTCCT
   269	000314'	201040	000620	BIOINI:	MOVEI R1,^D400
   270	000315'	202040	000145'		MOVEM R1,BIOBUF
   271	000316'	200040	000525'		MOVE R1,[POINT 8,BIOBUF+1]
   272	000317'	202040	000522'		MOVEM R1,BIOPTR
   273	000320'	263740	000000	        POPJ P,
   274
   275				; ABANDON BLOCK I/O IN PROGRESS
   276	000321'	260740	000330'	ABIOIP: PUSHJ P,LVBI    ;TERMINATE BLOCK INPUT
   277	000322'	504040	000000*	 HRL R1, AUXPRT
   278	000323'	541040	000041	 HRRI R1,TBO
   279	000324'	042040	000000	 AUXCAL R1,     ;TERMINATE BLOCK OUTPUT
   280	000325'	541040	000007	 HRRI R1,CLRBO  ;CLEAR THE OUTPUT BUFFER
   281				;AUXCAL R1,     ;**** SEND GOBBLER WHEN BASE BUG FIXED  7/21/77
   282	000326'	260740	000330'	 PUSHJ P,LVBI   ;WAIT FOR IODEND
   283	000327'	263740	000000	 POPJ P,
   284
   285				; TERMINATE BLOCK INPUT.  MUST BE CALLED TWICE TO CLEAR IODEND.
   286	000330'	606700	014000	LVBI: TRNN F,BI+TI
   287	000331'	263740	000000	 POPJ P,
   288	000332'	662700	010000	 TROE F,TI      ;HAS BLOCK INPUT BEEN TERMINATED
   289	000333'	254000	000340'	 JRST LVBI1     ;YES
   290	000334'	504040	000322*	 HRL R1,AUXPRT
   291	000335'	541040	000040	 HRRI R1,TBI
   292	000336'	042040	000000	 AUXCAL R1,
   293	000337'	263740	000000	 POPJ P,
   294	000340'	260740	000515'	LVBI1: PUSHJ P,BIINI
   295	000341'	504040	000334*	 HRL R1,AUXPRT
   296	000342'	541040	000035	 HRRI R1,INBW
   297	000343'	042040	000000'	 AUXCAL R1,BIBUF
   298	000344'	255000	000000	 JFCL           ;INPUT ERROR, HOPEFULLY IODEND IS SET.
   299	000345'	350000	000000*	 AOS TIMFLG     ;ACTIVITY COUNTER
   300	000346'	260740	000504'	 PUSHJ P,GTDVS
   301	000347'	606040	020000	 TRNN R1,IODEND
   302	000350'	254000	000340'	 JRST LVBI1
   303	000351'	260740	000511'	 PUSHJ P,BICLR
   304	000352'	263740	000000	 POPJ P,
   305
   306				; LEAVE BLOCK I/O MODE
   307	000353'	261740	000001	BIOEND: PUSH P,R1
   308	000354'	504040	000341*	        HRL R1,AUXPRT
   309	000355'	541040	000042	        HRRI R1,LBIO
   310	000356'	042040	000000		AUXCAL R1,
   311	000357'	402000	000000*	        SETZM BMOD
   312	000360'	262740	000001	   POP P,R1
   313	000361'	263740	000000		POPJ P,
   314
   315				; WRITE CHAR TO OUTPUT BUFFER
   316	000362'	375000	000145'	CW:	SOSGE BIOBUF
   317	000363'	260740	000371'		PUSHJ P,BIODM
   318	000364'	405340	000377	        ANDI C,377
BIO -- ROUTINE LIBRARY FOR STANDARD BLOCK I/O FUNCTIONS.	MACRO 12.5-46.0 08:12 25-OCT-87 PAGE 1-2
BIO.MAC	23-DEC-86 12:29

   319	000365'	136340	000522'		IDPB C,BIOPTR
   320	000366'	272340	000000*	        ADDM C,CHECK
   321	000367'	350000	000313*	        AOS TOTCCT
   322	000370'	263740	000000		POPJ P,
   323
   324				; FLUSH OUTPUT BUFFER WHEN FULL
   325	000371'	350000	000145'	BIODM:  AOS BIOBUF      ;CORRECT FOR SOSGE AT CW
   326	000372'	261740	000001	FLUSH:	PUSH P,R1
   327	000373'	201040	000620		MOVEI R1,^D400
   328	000374'	277040	000145'		SUBB R1,BIOBUF
   329	000375'	322040	000410'		JUMPE R1,BIODM1
   330	000376'	504040	000354*	        HRL R1,AUXPRT
   331	000377'	541040	000037		HRRI R1,OB
   332	000400'	042040	000145'		AUXCAL R1,BIOBUF        ;OUTPUT BLOCK
   333	000401'	264000	000000*	        JSR ZAPINT      ;BLOCK OUTPUT ERROR.  PRETEND CIRCUIT ZAP.
   334	000402'	350000	000345*	        AOS TIMFLG      ;ACTIVITY COUNTER
   335	000403'	504040	000376*	        HRL R1,AUXPRT
   336	000404'	541040	000001	        HRRI R1,IICHS
   337	000405'	042040	000007	        AUXCAL R1,C             ;INPUT CHAR, SKIP
   338	000406'	254000	000410'	        JRST BIODM1             ;NOTHING THERE, GOOD
   339	000407'	254000	000000*	        JRST ALERT##            ;JUMP TO ERROR NOTIFICATION CODE
   340	000410'	201040	000617	BIODM1:	MOVEI R1,^D400-1        ;COMPENSATE FOR IDPB AT CW+3
   341	000411'	202040	000145'		MOVEM R1,BIOBUF
   342	000412'	200040	000525'		MOVE R1,[POINT 8,BIOBUF+1]
   343	000413'	202040	000522'		MOVEM R1,BIOPTR
   344	000414'	262740	000001		POP P,R1
   345	000415'	263740	000000		POPJ P,
   346
   347				; ENTER BLOCK I/O MODE
   348	000416'	332000	000357*	BIOMOD: SKIPE BMOD
   349	000417'	263740	000000	        POPJ P,
   350	000420'	261740	000001	        PUSH P,R1
   351	000421'	201040	000006	        MOVEI R1,6
   352	000422'	202000	000524'	        MOVEM TRY#
   353	000423'	504040	000403*	TRY1:   HRL R1,AUXPRT
   354	000424'	541040	000034	        HRRI R1,IBIO    ;SET BLOCK I/O MODE FOR THIS PORT.
   355	000425'	042040	000000	        AUXCAL R1,
   356	000426'	254000	000432'	        JRST TRY2
   357	000427'	476000	000416*	        SETOM BMOD
   358	000430'	262740	000001	        POP P,R1
   359	000431'	263740	000000	        POPJ P,
   360	000432'	201040	000012	TRY2:   MOVEI R1,12
   361	000433'	047040	000031	        SLEEP R1,       ;DISMISS FOR 10 SECONDS
   362	000434'	377000	000524'	        SOSG TRY
   363	000435'	254000	000423'	        JRST TRY1
   364	000436'	262740	000001	        POP P,R1
   365	000437'	264000	000401*	        JSR ZAPINT      ;PRETEND CIRCUIT ZAP AFTER 6 ATTEMPTS
   366
   367				; INITIALIZE INPUT
   368	000440'	260740	000416'	IINIT:  PUSHJ P,BIOMOD  ;ENTER BLOCK I/O MODE IF NOT ALREADY
   369	000441'	260740	000511'	        PUSHJ P,BICLR    ;CLEAR IODEND AND SET BINARY MODE
   370	000442'	626700	001000	        TRZN F,DEFFLG   ;IS DEFER FLAG SET
   371	000443'	254000	000457'	        JRST IINIT1     ;NO
BIO -- ROUTINE LIBRARY FOR STANDARD BLOCK I/O FUNCTIONS.	MACRO 12.5-46.0 08:12 25-OCT-87 PAGE 1-3
BIO.MAC	23-DEC-86 12:29

   372	000444'	504040	000423*	IINIT2: HRL R1,AUXPRT
   373	000445'	541040	000036	        HRRI R1,INBS    ;LOOK FOR DATA
   374	000446'	660700	004000	        TRO F,BI        ;INPUT REQUEST MADE
   375	000447'	042040	000000'	        AUXCAL R1,BIBUF
   376	000450'	254000	000456'	        JRST IINIT3     ;NOTHING THERE--GOOD
   377	000451'	260740	000504'	        PUSHJ P,GTDVS   ;READ DEVIOUS TO R1
   378	000452'	606040	020000	        TRNN R1,IODEND  ;POSSIBLE TIMEOUT
   379	000453'	264000	000000*	        JSR TRAP
   380	000454'	260740	000511'	        PUSHJ P,BICLR
   381	000455'	254000	000444'	        JRST IINIT2
   382	000456'	260740	000000*	IINIT3: PUSHJ P,DEFER## ;SEND YELLOW BALL
   383	000457'	402000	000000'	IINIT1: SETZM BIBUF     ;FORCE READ NEXT
   384	000460'	263740	000000	        POPJ P,
   385
   386				; READ CHAR FROM INPUT BUFFER
   387	000461'	375000	000000'	BGC:    SOSGE BIBUF
   388	000462'	254000	000467'	        JRST BGCND1
   389	000463'	134340	000523'	        ILDB C,BIPTR
   390	000464'	350000	000000*	        AOS ICOUNT
   391	000465'	272340	000000*	        ADDM C,ICHECK
   392				 IFG 0,<PUSH P,R0
   393				 MOVE R0,C
   394				 PUSHJ P,TRACE##
   395				 POP P,R0>
   396	000466'	263740	000000	        POPJ P,
   397	000467'	261740	000001	BGCND1: PUSH P,R1
   398	000470'	260740	000515'	        PUSHJ P,BIINI
   399	000471'	504040	000444*	BGCND2: HRL R1,AUXPRT
   400	000472'	541040	000035	        HRRI R1,INBW
   401	000473'	660700	004000	        TRO F,BI
   402	000474'	042040	000000'	 AUXCAL R1,BIBUF        ;READ BLOCK AND DISMISS.  READ EOT MAYBE.
   403	000475'	255000	000000	        JFCL            ;BLOCK INPUT ERROR.  HOPEFULLY IODEND IS SET.
   404	000476'	350000	000402*	        AOS TIMFLG      ;ACTIVITY COUNTER
   405	000477'	260740	000504'	        PUSHJ P,GTDVS   ;READ DEVIOUS TO R1
   406	000500'	602040	020000	        TRNE R1,IODEND
   407				        JRST [ PUSHJ P,BICLR
   408	000501'	254000	000526'	                JRST BGCND2]
   409	000502'	262740	000001	        POP P,R1
   410	000503'	254000	000461'	        JRST BGC
   411
   412				; READ DEVIOS
   413	000504'	504040	000471*	GTDVS: HRL R1,AUXPRT
   414	000505'	540040	000530'	 HRR R1,[-31]
   415	000506'	047040	000041	 GETTAB R1,
   416	000507'	551040	020214	 HRRZI R1,IOMOD+NOECHO+IODEND
   417	000510'	263740	000000	 POPJ P,
   418
   419				; CLEAR IODEND AND SET BINARY MODE
   420	000511'	504040	000504*	BICLR:  HRL R1,AUXPRT
   421	000512'	541040	000032	        HRRI R1,SDVIOS  ;PREPARE TO SET DEVIOS
   422	000513'	042040	000214	        AUXCAL R1,IOMOD+NOECHO
   423	000514'	620700	014000	        TRZ F,BI+TI
   424	000515'	201040	000620	BIINI:  MOVEI R1,^D400
BIO -- ROUTINE LIBRARY FOR STANDARD BLOCK I/O FUNCTIONS.	MACRO 12.5-46.0 08:12 25-OCT-87 PAGE 1-4
BIO.MAC	23-DEC-86 12:29

   425	000516'	202040	000000'	        MOVEM R1,BIBUF
   426	000517'	200040	000531'	        MOVE R1,[POINT 8,BIBUF+1]
   427	000520'	202040	000523'	        MOVEM R1,BIPTR
   428	000521'	263740	000000	        POPJ P,
   429				        END
   430
NO ERRORS DETECTED
PROGRAM BREAK IS 000532
3K CORE USED
BIO -- ROUTINE LIBRARY FOR STANDARD BLOCK I/O FUNCTIONS.	MACRO 12.5-46.0 08:12 25-OCT-87 PAGE 2
BIO.MAC	23-DEC-86 12:29		SYMBOL TABLE

ABIOIP		000321'	ENT	EM		000031	SIN	LC		000024	SPD	RC		000004
ABTCOD		000107	SIN	EORCOD		000134	SPD	LCO		000004	SPD	RCC		000006
ACKCOD		000112	SPD	EOTCOD		000135	SPD	LEFTFG		000010	SPD	RCVCOD		000102	SPD
ACMCOD		000111	SPD	ERASCD		000150	SPD	LF		000012	SPD	RPAREN		000051	SPD
ACRCAP		000100	SIN	ERRCOD		000146	SPD	LM		000007	SPD	RS		000036	SPD
ALERT		000407'	EXT	ESC		000033	SIN	LOGCOD		000131	SIN	RSPCOD		000144	SIN
AMODE		000311	SIN	ETX		000003	SIN	LPAREN		000050	SPD	SDVIOS		000032	SPD
AS		000011		F		000016		LT		000075	SPD	SERFLG		000020	SPD
ASCII		000002	SIN	FATTCD		000141	SPD	LUDFLG		000001	SPD	SLEEP	047000	000031
ASCSTG		000052	SPD	FCK1		000000	SPD	LVBI		000330'	ENT	SLVPRT		000043	SPD
AUTO		000001	SIN	FCK2		000400	SPD	LVBI1		000340'		SMODE		001000	SIN
AUXPRT		000511'	EXT	FCK3		001000	SPD	MASKFG		000400	SPD	SORTFG		000001	SPD
BADCOD		000145	SPD	FENQCD		000140	SPD	MAXC		000073	SPD	SUCCOD		000104	SPD
BCMCOD		000110	SPD	FEXT		000003	SPD	MAXP		000202	SPD	SWB		020000	SPD
BGC		000461'	ENT	FILFND		040000	SPD	MAXPA		000021	SPD	SYS		000017	SPD
BGCND1		000467'		FINCD1		000114	SPD	MAXRS		050000	SPD	TABSIZ		000010	SPD
BGCND2		000471'		FINCD2		000115	SPD	MBOT		000100	SPD	TBI		000040	SPD
BI		004000	SPD	FIXCOD		000130	SPD	MINC		000004	SPD	TBO		000041	SPD
BIASA		000032	SPD	FLKCOD		000103	SPD	MINP		000003	SPD	TESTNG		000001	SPD
BIASC		000010	SPD	FLKFCD		000106	SPD	MINPA		000002	SPD	TI		010000	SPD
BIASP		000200	SPD	FLKRCD		000153	SPD	MINRS		010000	SPD	TIMFLG		000476'	EXT
BIASPA		000010	SPD	FLKSCD		000161	SPD	MSGSW		002000	SPD	TOTCCT		000367'	EXT
BIBUF		000000'		FLUSH		000372'	ENT	MTOP		000177	SPD	TRAP		000453'	EXT
BICLR		000511'		FNAME		000020	SPD	NAKCOD		000113	SPD	TRICOD		000125	SPD
BIINI		000515'		FPFCOD		000116	SPD	NC		000025	SPD	TRPCOD		000152	SPD
BINCAP		000020	SIN	FSIZE	777777	777777	SPD	NICOD		000133	SPD	TRUCOD		000124	SPD
BIOBUF		000145'		GETTAB	047000	000041		NM		000010	SPD	TRY		000524'
BIODM		000371'		GS		000012		NOECHO		000200	SPD	TRY1		000423'
BIODM1		000410'		GTDVS		000504'		NONE		000400	SIN	TRY2		000432'
BIOEND		000353'	ENT	GX		000013		NT		000076	SPD	TSTRS		014000	SPD
BIOINI		000314'		HSW		000002	SPD	OB		000037	SPD	U		000006	SPD
BIOMOD		000416'	ENT	HT		000011	SPD	OICH		000003	SPD	ULKCOD		000105	SPD
BIOPTR		000522'		IBIO		000034	SPD	OICHI		000004	SPD	ULKFCD		000154	SPD
BIPTR		000523'		ICHECK		000465'	EXT	OINIT		000312'	ENT	ULKSCD		000160	SPD
BL		000040	SPD	ICOUNT		000464'	EXT	ONLCOD		000122	SPD	UNAME		000015	SPD
BMOD		000427'	EXT	IGNEOF		000100	SPD	OPFCOD		000117	SPD	UPDCAP		000010	SIN
BZCOD		000120	SPD	IICHS		000001	SPD	OPNCOD		000137	SPD	UPDMOD		000040	SPD
C		000007		IICHW		000000	SPD	OUTCHI	004000	000000		US		000037	SIN
CAN		000030	SIN	IINIT		000440'	ENT	OUTCHR	003000	000000		VARCOD		000127	SPD
CHECK		000366'	EXT	IINIT1		000457'		OUTSTR	001000	000000		VERNUM		000001	SIN
CHGFLG		000200	SPD	IINIT2		000444'		P		000017		WHYCOD		000143	SIN
CHKCOD		000132	SPD	IINIT3		000456'		PERCOD		000147	SPD	XMODE		000351	SIN
CLRBFI	006000	000000		ILLCHR		200000	SPD	PREFER		000005		YELLOW		000012	SIN
CLRBFO	005000	000000		INBS		000036	SPD	PS		000014		ZAPINT		000437'	EXT
CLRBO		000007	SIN	INBW		000035	SPD	PX		000015
COLON		000072	SPD	INCHWL	002000	000000		QUICOD		000136	SIN
CPACOD		000121	SPD	INSCOD		000142	SPD	R0		000000
CR		000015	SPD	IODEND		020000	SPD	R1		000001
CW		000362'	ENT	IOMOD		000014	SPD	R2		000002
DEFER		000456'	EXT	IXMODE		000345	SIN	R3		000003
DEFFLG		001000	SPD	KATCAP		000040	SIN	R4		000004
DNRCOD		000101	SPD	KMODE		000407	SIN	R5		000005
EDIT10		100000	SPD	LBIO		000042	SPD	RANK		000010

BIO -- ROUTINE LIBRARY FOR STANDARD BLOCK I/O FUNCTIONS.	MACRO 12.5-46.0 08:12 25-OCT-87
BIO.MAC	23-DEC-86 12:29		Symbol cross reference

ABIOIP	   245	   276#
ABTCOD	    28#
ACKCOD	    31#
ACMCOD	    30#
ACRCAP	     2#
ALERT	   339%	   339
AMODE	   113#
AS	   211#
ASCII	   131#
ASCSTG	   177#
AUTO	   130#
AUXPRT	   249%	   277	   290	   295	   308	   330	   335	   353	   372	   399	   413	   420
BADCOD	    93#
BCMCOD	    29#
BGC	   243	   387#	   410
BGCND1	   388	   397#
BGCND2	   399#	   408
BI	   234#	   286	   374	   401	   423
BIASA	   144#
BIASC	   137#
BIASP	   134#
BIASPA	   141#
BIBUF	   253#	   297	   375	   383	   387	   402	   425	   426
BICLR	   303	   369	   380	   407	   420#
BIINI	   294	   398	   424#
BINCAP	     4#
BIOBUF	   254#	   270	   271	   316	   325	   328	   332	   341	   342
BIODM	   317	   325#
BIODM1	   329	   338	   340#
BIOEND	   242	   307#
BIOINI	   269#
BIOMOD	   242	   267	   348#	   368
BIOPTR	   252#	   272	   319	   343
BIPTR	   252#	   389	   427
BL	   125#
BMOD	   249%	   311	   348	   357
BZCOD	    41#
C	   207#	   318	   319	   320	   337	   389	   391
CAN	   120#
CHECK	   249%	   320
CHGFLG	   230#
CHKCOD	    61#
CLRBO	   166#	   280
COLON	   128#
CPACOD	    43#
CR	   119#
CW	   243	   316#
DEFER	   382%	   382
DEFFLG	   232#	   370
DNRCOD	    12#
EDIT10	   238#
EM	   121#
EORCOD	    63#
BIO -- ROUTINE LIBRARY FOR STANDARD BLOCK I/O FUNCTIONS.	MACRO 12.5-46.0 08:12 25-OCT-87
BIO.MAC	23-DEC-86 12:29		Symbol cross reference

EOTCOD	    64#
ERASCD	    96#
ERRCOD	    94#
ESC	   122#
ETX	   116#
F	   216#	   286	   288	   370	   374	   401	   423
FATTCD	    85#
FCK1	   152#
FCK2	   153#
FCK3	   154#
FENQCD	    83#
FEXT	   157#
FILFND	   237#
FINCD1	    33#
FINCD2	    38#
FIXCOD	    58#
FLKCOD	    14#
FLKFCD	    27#
FLKRCD	    98#
FLKSCD	   101#
FLUSH	   243	   326#
FNAME	   160#
FPFCOD	    39#
FSIZE	   156#
GS	   212#
GTDVS	   300	   377	   405	   413#
GX	   213#
HSW	   224#
HT	   117#
IBIO	   169#	   354
ICHECK	   249%	   391
ICOUNT	   249%	   390
IGNEOF	   229#
IICHS	   163#	   336
IICHW	   162#
IINIT	   244	   368#
IINIT1	   371	   383#
IINIT2	   372#	   381
IINIT3	   376	   382#
ILLCHR	   239#
INBS	   171#	   373
INBW	   170#	   296	   400
INSCOD	    89#
IODEND	   180#	   301	   378	   406	   416
IOMOD	   179#	   416	   422
IXMODE	   111#
KATCAP	     3#
KMODE	   109#
LBIO	   175#	   309
LC	   148#
LCO	   225#
LEFTFG	   226#
LF	   118#
BIO -- ROUTINE LIBRARY FOR STANDARD BLOCK I/O FUNCTIONS.	MACRO 12.5-46.0 08:12 25-OCT-87
BIO.MAC	23-DEC-86 12:29		Symbol cross reference

LM	   146#
LOGCOD	    60#
LPAREN	   126#
LT	   150#
LUDFLG	   221#
LVBI	   245	   276	   282	   286#
LVBI1	   289	   294#	   302
MASKFG	   231#
MAXC	   138#
MAXP	   135#
MAXPA	   142#
MAXRS	   104#
MBOT	    11#
MINC	   139#
MINP	   136#
MINPA	   143#
MINRS	   105#
MSGSW	   233#
MTOP	   102#
NAKCOD	    32#
NC	   147#	   148
NICOD	    62#
NM	   145#	   146
NOECHO	   181#	   416	   422
NONE	   132#
NT	   149#	   150
OB	   172#	   331
OICH	   164#
OICHI	   165#
OINIT	   244	   267#
ONLCOD	    48#
OPFCOD	    40#
OPNCOD	    67#
P	   217#	   267	   273	   276	   282	   283	   287	   293	   294	   300	   303	   304	   307	   312
	   313	   317	   322	   326	   344	   345	   349	   350	   358	   359	   364	   368	   369	   377
	   380	   382	   384	   396	   397	   398	   405	   407	   409	   417	   428
PERCOD	    95#
PREFER	   204#
PS	   214#
PX	   215#
QUICOD	    65#
R0	   195#
R1	   196#	   269	   270	   271	   272	   277	   278	   279	   280	   290	   291	   292	   295	   296
	   297	   301	   307	   308	   309	   310	   312	   326	   327	   328	   329	   330	   331	   332
	   335	   336	   337	   340	   341	   342	   343	   344	   350	   351	   353	   354	   355	   358
	   360	   361	   364	   372	   373	   375	   378	   397	   399	   400	   402	   406	   409	   413
	   414	   415	   416	   420	   421	   422	   424	   425	   426	   427
R2	   197#
R3	   200#
R4	   201#
R5	   203#
RANK	   209#
RC	   202#
BIO -- ROUTINE LIBRARY FOR STANDARD BLOCK I/O FUNCTIONS.	MACRO 12.5-46.0 08:12 25-OCT-87
BIO.MAC	23-DEC-86 12:29		Symbol cross reference

RCC	   205#
RCVCOD	    13#
RPAREN	   127#
RS	   123#
RSPCOD	    91#
SDVIOS	   168#	   421
SERFLG	   227#
SLVPRT	   176#
SMODE	   110#
SORTFG	   223#
SUCCOD	    20#
SWB	   236#
SYS	   159#
TABSIZ	   115#
TBI	   173#	   291
TBO	   174#	   278
TESTNG	     7#
TI	   235#	   286	   288	   423
TIMFLG	   250%	   299	   334	   404
TOTCCT	   249%	   268	   321
TRAP	   247%	   379
TRICOD	    53#
TRPCOD	    97#
TRUCOD	    51#
TRY	   352#	   352	   362
TRY1	   353#	   363
TRY2	   356	   360#
TSTRS	   106#
U	   187#	   188	   188#	   189	   189#	   190	   190#	   191	   191#	   192	   192#	   193	   193#	   194
ULKCOD	    21#
ULKFCD	    99#
ULKSCD	   100#
UNAME	   158#
UPDCAP	     5#
UPDMOD	   228#
US	   124#
UUOFLG	   183	   189	   190	   191	   192	   193	   194
VARCOD	    56#
VERNUM	     9#
WHYCOD	    90#
XMODE	   112#
YELLOW	   167#
ZAPINT	   247%	   333	   365
BIO -- ROUTINE LIBRARY FOR STANDARD BLOCK I/O FUNCTIONS.	MACRO 12.5-46.0 08:12 25-OCT-87
BIO.MAC	23-DEC-86 12:29		Macro/Opdef cross reference

CLRBFI	   194#
CLRBFO	   193#
GETTAB	   415
INCHWL	   190#
OPD	   184#	   188	   189	   190	   191	   192	   193
OUTCHI	   192#
OUTCHR	   191#
OUTSTR	   189#
SLEEP	   361
BIO -- ROUTINE LIBRARY FOR STANDARD BLOCK I/O FUNCTIONS.	MACRO 12.5-46.0 08:12 25-OCT-87
BIO.MAC	23-DEC-86 12:29		Opcode cross reference

ADDM	   320	   391
ANDI	   318
AOS	   299	   321	   325	   334	   390	   404
AUXCAL	   279	   292	   297	   310	   332	   337	   355	   375	   402	   422
BLOCK	   253	   254
COMMEN	   257
DEFINE	   184
END	   429
ENTRY	   242	   243	   244	   245
EXTERN	   247	   249	   250
HRL	   277	   290	   295	   308	   330	   335	   353	   372	   399	   413	   420
HRR	   414
HRRI	   278	   280	   291	   296	   309	   331	   336	   354	   373	   400	   421
HRRZI	   416
IDPB	   319
IFDEF	   183	   189	   190	   191	   192	   193	   194
IFG	   392
ILDB	   389
INTEGE	   252
JFCL	   298	   403
JRST	   289	   302	   338	   339	   356	   363	   371	   376	   381	   388	   407	   408	   410
JSR	   333	   365	   379
JUMPE	   329
MOVE	   271	   342	   426
MOVEI	   269	   327	   340	   351	   360	   424
MOVEM	   270	   272	   341	   343	   352	   425	   427
OPDEF	   189	   190	   191	   192	   193	   194
POINT	   271	   342	   426
POP	   312	   344	   358	   364	   409
POPJ	   273	   283	   287	   293	   304	   313	   322	   345	   349	   359	   384	   396	   417	   428
PUSH	   307	   326	   350	   397
PUSHJ	   267	   276	   282	   294	   300	   303	   317	   368	   369	   377	   380	   382	   398	   405
	   407
SETOM	   357
SETZM	   268	   311	   383
SKIPE	   348
SOSG	   362
SOSGE	   316	   387
SUBB	   328
TITLE	   240
TRNE	   406
TRNN	   286	   301	   378
TRO	   374	   401
TROE	   288
TRZ	   423
TRZN	   370}+'}Å