TELECOPY - THE CONTROLLER FOR PDP-10 TELECOPY	MACRO 12.5-46.0 08:11 25-OCT-87 PAGE 1
TELECO.MAC	23-DEC-86 12:29		UUO DISPATCHER

     1				TITLE TELECOPY - THE CONTROLLER FOR PDP-10 TELECOPY
     2
     3				INTERN GD,RESET,ABORT,ESCRTN,PANIC,CH7RTN
     4				;STORAGE REFERENCED ELSEWHERE:
     5				INTERN RBLK,DBLK,LCOPT,SUP
     6				;ROUTINES REFERENCED ELSEWHERE:
     7				; USE WITH CAUTION.  ABT PRESERVES REGISTERS.  CLRCIR RESTORES REGISTERS
     8				;       TO THE SET DEFINED IN THIS PACKAGE
     9				ENTRY SAVREG,RESREG,ABT,CLRCIR,ZAPINT,YESN2
    10
    11				INTERN SYSLST, SYSBLK, SLVTYP
    12				INTERN SIZDON, RETZAP, CROUT
    13
    14
    15			000124	JOBREN==124
    16			000137	LOCVER==137
    17			000022	TYMSPC==22
    18			000003	TYMVER==3
    19	000137			LOC LOCVER
    20	000137	000022	000003	XWD TYMSPC,TYMVER
    21
    22				;22.3 - Update map to define 60 as a X (new Paris 2020).  /DJB
    23				;22.2 - Back out edit 22.1, update map to define 158 as a 370. /LFL
    24				; 22.0 2/82 - Back out edits 17, 20 and 21 (holey files and 4 digit hosts).
    25				;  Reimplement 4 digit hosts.  Fix many, many bugs. /DWS
    26				;
    27				; ** note ** edits 17 and 20 are not reflected in this source, but may
    28				; be recovered from archives.
    29
    30				;16.0 2/80 - Added COMMANDS,HOST,GATEWAY, and PASSWORD commands
    31				;Converted system # from two digits to three digits /J.R.
    32				;12.6 8/17/76 - INPUT CHAR AND WAIT INSTEAD OF LOOPING
    33				;3/1/76 - IGNORE LEADING SPACES IN FILE NAME, USER NAMES
    34				;   FIX ERRONEOUS SYNC ERROR MESSAGE
    35				;1/23/76 - ADD SYSTEM 42
    36				;3/19/75 - NEW COMMAND FORMAT & 370 COPIES
    37				;1/20/75 - MAKE ? = HELP
    38
    39	000000'			RELOC
    40
    41				;AC'S
    42			000000	R0=0
    43			000010	F=10	;FLAG WORD
    44			000001	A=1	;TEMPS ARE A-E
    45			000002	B=2
    46			000003	C=3
    47			000004	D=4
    48			000005	E=5
    49			000011	N=11
    50			000012	N1==12
    51			000012	SIDE=12	;INDEX INTO INFORMATION BLOCK
    52			000013	N2==13
    53			000013	AUX==13	;AUX. CHANNEL BEING USED NOW
TELECOPY - THE CONTROLLER FOR PDP-10 TELECOPY	MACRO 12.5-46.0 08:11 25-OCT-87 PAGE 1-2
TELECO.MAC	23-DEC-86 12:29		UUO DISPATCHER

    54			000014	N3==14
    55			000014	WD=14
    56			000013	OPTR=13	;POINTER TO WORD BEING INPUT
    57			000015	INDEX==15
    58			000015	BP==15
    59			000015	PTR=15
    60			000016	CH=16	;CHARACTER FOR TRANS. - DO NOT CHANGE
    61			000017	P=17	;DO NOT CHANGE
    62
    63				;I/O CHANNELS
    64			000001	DISK==1
    65			000003	COM==3 ;COMMANDS IN CHANNEL
    66			000004	OUT==4 ;COMMANDS OUT CHANNEL
    67				;ASSEMBLY SWITCHES
    68			000001	TESTNG==1       ;ASSEMBLE CRASH CODE
    69				;UUO SYMBOLS
    70			000040	FORTY==40
    71			000041	FORTY1==41
    72			000001	UUOFLG==1
TELECOPY - THE CONTROLLER FOR PDP-10 TELECOPY	MACRO 12.5-46.0 08:11 25-OCT-87 PAGE 2
TELECO.MAC	23-DEC-86 12:29		UUO DISPATCHER

    73				;FLAGS IN RIGHT HALF OF F
    74			000001	F370==1		;WE ARE GOING TO OR FROM A 370
    75			000002	NOSTRT==2	;HAVEN'T STARTED CONVERSATION WITH SLAVE YET
    76			000004	STAROK==4	;ALLOW STAR ON INPUT (FOR USER NAME)
    77			000010	DOTOK==10	;ALLOW DOT ON INPUT (FOR USER NAME)
    78			000020	SLAOK==20	;ALLOW SLASHES ON INPUT (FOR USER NAME)
    79			000040	SPOK==40	;ALLOW SPACES ON INPUT FOR USERNAME
    80			000074	NAMFLG==SPOK!STAROK!DOTOK!SLAOK
    81			000100	CANAGN==100	;ON IF SYSTEM ONLY IS ALLOWED TO BE INPUF
    82			000200	OLDFORM==200	;ON IF SO FAR COMMAND LOOKS LIKE THE OLD FORM
    83			000400	ALLNUM==400	;ON IF ALL CHARS INPUT SO FAR ARE DIGITS
    84			001000	MOREIN==1000	;ON IF WE HAVE NOT EXHAUSTED STRING
    85			002000	NOTOFIL==2000	;ON IF THERE ARE NO "TO" FILES
    86			004000	HAS2BOLD==4000	;ON IF INPUT MUST IN IN OLD FORMAT
    87			010000	SPCDEL==10000	;ALLOW COMMA, CARRET, LPAREN OR COLON ONLY TO BE DELIM.
    88			020000	SKPCOM==20000	;SKIP LEADING COMMA
    89			040000	NEWSYS==40000	;REPEAT PREVIOUS COMMAND FOR NEW SYSTEM
    90			100000	NEEDCT==100000	;LOOKING FOR CONTROL
    91			200000	NONSPC==200000	;ON IF FOUND A NON-SPACE CHARACTER
    92
    93				;FLAGS IN LEFT HALF OF F
    94			000001	NOSPACE==1	;NO SPACES FOUND YET
    95			000002	MORETR==2		;THERE ARE MORE FILES TO TRANSFER
    96
    97				;SOME MAX'S
    98			000110	SIZLIN==^D72
    99			000017	MAXFIL==SIZLIN/5+1	;NO. OF WORDS FOR A LOONG 940 FILE NAME
   100			000454	MAXCHR==^D300		;MAXIMUM NUMBER OF CHARS. TO BE INPUT IN A LINE
   101			000074	MAXWDS==MAXCHR/5	;MAXIMUM NUMBER OF WORDS NEEDED IN  BUFFER
   102
   103				;CHARACTER DEFINITIONS
   104			000007	BELL==7
   105			000011	HT==11
   106			000012	LNFEED==12
   107			000015	CARRET==15
   108			000040	SPACE==40
   109			000045	PCT==45
   110			000050	LPAREN==50
   111			000051	RPAREN==51
   112			000052	STAR==52
   113			000054	COMMA==54
   114			000056	DOT==56
   115			000055	dash==55
   116			000057	SLASH==57
   117			000060	ZEROCH==60
   118			000071	NINECH==71
   119			000072	COLON==72
   120			000073	SEMICOL==73
   121			000075	EQUALS==75
   122			000077	QMARK==77
   123			000100	ATSIGN==100
   124			000101	ALPHA==101
   125			000106	PHI==106
TELECOPY - THE CONTROLLER FOR PDP-10 TELECOPY	MACRO 12.5-46.0 08:11 25-OCT-87 PAGE 2-2
TELECO.MAC	23-DEC-86 12:29		UUO DISPATCHER

   126			000126	UPSILON==126
   127			000132	ZETA==132
   128			000252	CONTRL==252		;CONTROL CHARACTER
   129			000276	PROMPT==276		;PROMPT FROM 370
TELECOPY - THE CONTROLLER FOR PDP-10 TELECOPY	MACRO 12.5-46.0 08:11 25-OCT-87 PAGE 3
TELECO.MAC	23-DEC-86 12:29		UUO DISPATCHER

   130				;GETTAB DEF'S
   131			000020	LICENSE==20	;TO GET USER'S LICENSE
   132		777777	777756	JBTUNM==-22
   133		777777	777757	JBTUN1==-21
   134
   135				;INTERRUPT CHANNEL ASSIGNMENTS
   136			377777	DISABLE== 377777 ;DISABLE ALL CHANNELS
   137			400000	ENABLE== 400000 ;ENABLE INTERRUPTS
   138			200000	CH1== 200000    ;CHANNEL 1.  LOSS OF AUX CIRCUIT
   139			100000	CH2== 100000    ;CHANNEL 2.  TIMER.
   140			040000	CH3== 040000    ;CHANNEL 3.  BUFFER ZAP ON AUX CIRCUIT
   141			020000	CH4== 020000    ;CHANNEL 4.  ALTMODE TYPED ON COMMAND PORT
   142			010000	CH5== 010000    ;CHANNEL 5.  CHAR PRESENT ON AUXILLIARY CIRCUIT.
   143			004000	CH6== 004000    ;CHANNEL 6.  BREAK CHAR PRESENT ON COMMAND PORT.CUIT
   144				;VALUES FOR SLVTYP
   145			000001	IX==1		;940
   146			000002	SUMEX==2	;SUMEX SYSTEM
   147			000003	X==3		;PDP-10
   148			000004	X370==4		;370
   149
   150
   151				;CONTROL INFORMATION (PRECEEDED BY CONTRL)
   152			000107	STAGN==107		;START AGAIN
   153			000122	ONLC==122
   154			000123	OFFLC==123
   155			000125	ONSUP==125
   156			000126	OFFSUP==126
   157
   158				;AUXCAL OPERATIONS
   159			000000	AUXIN==0
   160			000001	AUXINS==1
   161			000004	AUXOUT==4
   162			000005	AUXPTR==5
   163			000011	LVDEF==11
   164			000013	AUXIMG==13
   165			000050	BRKLIN==50              ;BREAK CHAR PRESENT IN INPUT LINE
   166
   167				;INDEXES INTO DBLK, RBLK
   168		777777	777777	FSIZE==-1
   169			000001	PPN==1
   170			000002	FILE==2
   171			000003	EXT==3
   172			000003	ERR==3
   173			000005	SIZE==5
   174			000015	UNAME==15
   175			000017	SYS==17
   176			000020	FNAME==20
TELECOPY - THE CONTROLLER FOR PDP-10 TELECOPY	MACRO 12.5-46.0 08:11 25-OCT-87 PAGE 4
TELECO.MAC	23-DEC-86 12:29		UUO DISPATCHER

   177				;MISC
   178			000060	ASCNUM==60		;ASCIZ TO NUMERIC
   179			000040	ASCSIX==40		;ASCIZ TO SIXBIT
   180			000020	SIXNUM==20		;SIXBIT TO NUMERIC
   181			000014	SIZUSR==^D12		;12 CHARACTER USER NAME
   182			000006	SIZFIL==6
   183			000003	SIZEXT==3
TELECOPY - THE CONTROLLER FOR PDP-10 TELECOPY	MACRO 12.5-46.0 08:11 25-OCT-87 PAGE 5
TELECO.MAC	23-DEC-86 12:29		UUO DISPATCHER

   184	000000'	254000	000075'	START:	JRST STPT2       ;NORMAL PROGRAM ENTRY
   185
   186	000124				LOC	JOBREN
   187	000124	000000	000001'		REENTER
   188	000001'				RELOC
   189
   190	000001'			REENTER:
   191	000001'	047000	000000		RESET
   192	000002'	400600	000000	        SETZ	WD,
   193	000003'	200740	033247'	havnam: MOVE	P,PDLPTR
   194	000004'	402000	000000*	        SETZM	CIN##		;NO COMMANDS FILE
   195	000005'	402000	000000*	        SETZM	COUT##		;NO COMMANDS OUT FILE
   196	000006'	402000	000000*	        SETZM	DETACH##	;DO NOT DETACH
   197	000007'	041140	000000	        INIT    COM,0
   198	000010'	446353	000000	        SIXBIT  /DSK/
   199	000011'	000000	033265'	        0,,INBF
   200	000012'	047000	000012		 EXIT
   201	000013'	326600	000025'	        jumpn   wd,skpnam               ;Already have a name for commands file
   202	000014'	047000	000030	        PJOB	R0,
   203	000015'	200100	033246'	        MOVE	B,WDPTR
   204	000016'	201040	000020	        MOVEI	A,20
   205	000017'	307000	000143	        CAIG	R0,^D100-1
   206	000020'	136040	000002	         IDPB	A,B
   207	000021'	307000	000011	        CAIG	R0,^D10-1
   208	000022'	136040	000002	         IDPB	A,B
   209	000023'	260740	000040'	        PUSHJ	P,MAKJOB
   210	000024'	541600	644554	        HRRI	WD,(SIXBIT /TEL/)
   211	000025'	202600	033263'	skpnam: MOVEM	WD,INFNAM
   212	000026'	202600	033272'	        MOVEM	WD,OUTNAM
   213	000027'	515600	645560	        HRLZI	WD,(SIXBIT /TMP/)
   214	000030'	202600	033264'	        MOVEM	WD,INFEXT
   215	000031'	076140	033261'	        LOOKUP  COM,INFIL
   216	000032'	254000	000052'	         JRST	LKERR
   217	000033'	476000	000004*	STPT1:  SETOM	CIN
   218	000034'	064140	000001	        INBUF	COM,1
   219	000035'	336000	034155'	        skipn   noinit#
   220	000036'	254000	000077'	         JRST	STPT3
   221	000037'	254000	000101'	        jrst    getcmd
   222
   223	000040'	231000	000012	MAKJOB: IDIVI	R0,12
   224	000041'	506057	000000	        HRLM	A,(P)
   225	000042'	332000	000000	        SKIPE	R0
   226	000043'	260740	000040'	         PUSHJ	P,MAKJOB
   227	000044'	554017	000000	        HLRZ	R0,(P)
   228	000045'	271000	000020	        ADDI	R0,20
   229	000046'	136000	000002	        IDPB	R0,B
   230	000047'	263740	000000	        POPJ	P,
   231
   232				ENTERR: OUTSTR	[ASCIZ/
   233				UNABLE TO ENTER COMMANDS OUT FILE
   234	000050'	001000	034174'	/]
   235	000051'	047000	000012		EXIT
   236
TELECOPY - THE CONTROLLER FOR PDP-10 TELECOPY	MACRO 12.5-46.0 08:11 25-OCT-87 PAGE 5-2
TELECO.MAC	23-DEC-86 12:29		UUO DISPATCHER

   237	000052'	515600	435755	LKERR:	HRLZI	WD,(SIXBIT /COM/)
   238	000053'	202600	033264'		MOVEM	WD,INFEXT
   239	000054'	076140	033261'		LOOKUP	COM,INFIL
   240					 JRST	[SKIPN NOINIT	; program already initialized?
   241						  JRST STPT2	; treat like normal startup
   242						 OUTSTR [ASCIZ/
   243				NO COMMANDS FILE FOUND
   244				/]
   245	000055'	254000	034212'			 JRST GETCMD]	; get the next command
   246
   247	000056'	041200	000000	        INIT    OUT,0
   248	000057'	446353	000000	        SIXBIT  /DSK/
   249	000060'	033274'	000000	        OUTBF,,0
   250	000061'	254000	000050'	         JRST	ENTERR
   251	000062'	077200	033270'	        ENTER   OUT,OUTFIL
   252	000063'	254000	000050'	         JRST	ENTERR
   253	000064'	065200	000001	        OUTBUF  OUT,1
   254	000065'	476000	000005*	        SETOM	COUT
   255	000066'	561040	000052		HRROI	A,52
   256					AUXCAL	A,[ASCIZ/
   257	000067'	042040	034216'	DETACHING .../]
   258	000070'	474040	000000	        SETO	A,
   259	000071'	047040	777772	        ATTACH  A,
   260	000072'	255000	000000	         JFCL
   261	000073'	476000	000006*	        SETOM	DETACH##
   262	000074'	254000	000033'	        JRST	STPT1
   263
   264				; NORMAL PROGRAM ENTRY
   265
   266	000075'	047000	000000	STPT2:  RESET
   267	000076'	200740	033247'	        MOVE	P,PDLPTR
   268	000077'	400400	000000	STPT3:  SETZ	F,
   269	000100'	260740	001616'	        PUSHJ	P,INITEL
TELECOPY - THE CONTROLLER FOR PDP-10 TELECOPY	MACRO 12.5-46.0 08:11 25-OCT-87 PAGE 6
TELECO.MAC	23-DEC-86 12:29		UUO DISPATCHER

   270	000101'			RESET:
   271	000101'	260740	001123'	GETCMD:	PUSHJ	P,RESREG	;RESTORE ALL REGISTERS MODIFIED BY "NEW" CODE
   272	000102'	525040	377777	        HRLOI	A,DISABLE
   273	000103'	047040	777744	        INTENB	A,		;DISABLE ALL INTERRUPT CHANNELS
   274	000104'	255000	000000	         JFCL
   275	000105'	200740	033247'	        MOVE	P,PDLPTR
   276	000106'	476000	000000*	        SETOM	TALKSW		;NOT IN TALK COMMAND
   277	000107'	402000	034160'	        setzm   pwdcmd#		;Password command default
   278	000110'	476000	000000*		SETOM	TIMFLG##	;NO. OF CHARS. IN SINCE LAST TIME-OUT
   279								;-1 IF TIME-OUTS SHOULD BE IGNORED
   280	000111'	402000	034154'		SETZM	LSTIME#
   281	000112'	070040	000040	        CLOSE	DISK,40		;CLOSE WITHOUT WRITING IF OPEN
   282	000113'	201040	000462'	        MOVEI	A,ALTTYP
   283	000114'	202040	033143'	        MOVEM	A,ESCRTN
   284	000115'	205040	760000	        MOVSI	A,ENABLE+CH1+CH2+CH3+CH4
   285	000116'	047040	777744	        INTENB	A,		;ENABLE INTERRUPT CHANNELS
   286	000117'	255000	000000	         JFCL
   287	000120'	603400	000002		TLNE	F,MORETR	;MORE FILES TO COPY?
   288	000121'	254000	002640'		 JRST	GETNXT		;YES - GO PROCESS IT
   289	000122'	402000	033516'		SETZM	ZERO
   290	000123'	200040	034222'		MOVE	A,[XWD ZERO,ZERO+1]
   291	000124'	251040	034101'		BLT	A,ZEREND
   292	000125'	620400	006200		TRZ	F,HAS2BOLD+OLDFORM+NOTOFIL
   293	000126'	201500	033521'		MOVEI	SIDE,DBLK
   294					OUTSTR	[ASCIZ /
   295	000127'	001000	034223'	: /]
   296	000130'	254000	002546'		JRST GETC
TELECOPY - THE CONTROLLER FOR PDP-10 TELECOPY	MACRO 12.5-46.0 08:11 25-OCT-87 PAGE 7
TELECO.MAC	23-DEC-86 12:29		UUO DISPATCHER

   297				SUBTTL UUO DISPATCHER
   298
   299	000131'			IFDEF UUOFLG<UUOTAB: BLOCK 0>
   300				DEFINE  OPD     (A,B) <U==U+1
   301				OPDEF A [U*1000000000]
   302				IFDEF UUOFLG<JRST B>>
   303
   304			000000		U==0
   305
   306			000001		OPD OUTSTR,OSTRUU^U==U+1
   307	000131'	254000	000161'	IFDEF UUOFLG<JRST OSTRUU>^
   308			000002		OPD INCHWL,INCHUU^U==U+1
   309	000132'	254000	000217'	IFDEF UUOFLG<JRST INCHUU>^
   310			000003		OPD OUTCHR,OCHRUU^U==U+1
   311	000133'	254000	000207'	IFDEF UUOFLG<JRST OCHRUU>^
   312			000004		OPD OUTCHI,OCHIUU^U==U+1
   313	000134'	254000	000200'	IFDEF UUOFLG<JRST OCHIUU>^
   314			000005		OPD CLRBFO,CLROUU^U==U+1
   315	000135'	254000	000233'	IFDEF UUOFLG<JRST CLROUU>^
   316			000006		OPD CLRBFI,CLRIUU^U==U+1
   317	000136'	254000	000236'	IFDEF UUOFLG<JRST CLRIUU>^
   318
   319	000041				LOC	FORTY1
   320	000041	260740	000137'		PUSHJ	P,UUO
   321	000137'				RELOC
   322
   323	000137'	250000	034165'	UUO:    EXCH    R0,STKCNT#      ;EXCHANGE R0 AND STACK CONTENTS OF UUO
   324	000140'	553017	000000	        HRRZS   (P)             ;SET ALL FLAGS TO ZERO
   325	000141'	250740	034166'	        EXCH    P,STKPTR        ;EXCHANGE OLD AND NEW STACK POINTERS
   326	000142'	315740	034166'	        CAMGE   P,STKPTR#       ;SKIP IF LOWER OR SAME LEVEL UUO CALL
   327	000143'	312017	000000	        CAME    R0,(P)          ;SKIP IF NOT A NEW UUO CALL
   328	000144'	200740	034166'	        MOVE    P,STKPTR        ;SAVE NEW STACK POINTER
   329	000145'	316740	034166'	        CAMN    P,STKPTR        ;SKIP IF NOT A NEW UUO CALL
   330	000146'	200017	000000		 MOVE	R0,(P)          ;SAVE CURRENT CONTENTS OF RETURN CELL
   331	000147'	250740	034166'	        EXCH    P,STKPTR        ;RE-EXCHANGE P AND STACK POINTER
   332	000150'	250000	034165'	        EXCH    R0,STKCNT       ;RE-EXCHANGE R0 AND STACK CONTENTS
   333	000151'	261740	000000	        PUSH    P,R0
   334	000152'	135000	034224'	        LDB     R0,[POINT 9,FORTY,8]
   335	000153'	303000	000006	        CAILE   R0,U            ;SKIP IF UUO NOT TOO BIG
   336	000154'	254000	000157'		 JRST   UUOERR          ;GO TO ERROR ROUTINE
   337	000155'	271000	000130'	        ADDI    R0,UUOTAB-1
   338	000156'	254020	000000	        JRST    @R0
   339	000157'	402000	000157'	UUOERR: SETZM   .               ;EXECUTE THIS ROUTINE ONLY ONCE
   340	000160'	001000	034225'	        OUTSTR  [ASCIZ "ATTEMPT TO EXECUTE AN ILLEGAL UUO"]
   341
   342				; OUTPUT STRING
   343
   344	000161'	261740	000001	OSTRUU:	PUSH	P,A
   345	000162'	550040	000040		HRRZ	A,FORTY
   346	000163'	505040	010700		HRLI	A,10700
   347	000164'	275040	000001		SUBI	A,1
   348	000165'	134000	000001	TYP1:	ILDB	R0,A
   349	000166'	306000	000000		CAIN	R0,0
TELECOPY - THE CONTROLLER FOR PDP-10 TELECOPY	MACRO 12.5-46.0 08:11 25-OCT-87 PAGE 7-2
TELECO.MAC	23-DEC-86 12:29		UUO DISPATCHER

   350	000167'	254000	000175'		 JRST	UUORE1
   351	000170'	332000	000065*		SKIPE	COUT
   352	000171'	260740	000255'		 PUSHJ	P,PUT
   353	000172'	336000	000170*		SKIPN	COUT
   354	000173'	051040	000000		 TTCALL	1,R0    ;OUTCHR
   355	000174'	254000	000165'		JRST	TYP1
   356	000175'	262740	000001	UUORE1:	POP	P,A
   357	000176'	262740	000000	UUORET: POP	P,R0
   358	000177'	263740	000000		POPJ	P,
   359
   360	000200'	261740	000001	OCHIUU: PUSH	P,A
   361	000201'	550000	000040		HRRZ	R0,FORTY
   362	000202'	332000	000172*	OCHI1:	SKIPE	COUT
   363	000203'	260740	000255'		 PUSHJ	P,PUT
   364	000204'	336000	000202*		SKIPN	COUT
   365	000205'	051040	000000		 TTCALL	1,R0    ;OUTCHR
   366	000206'	254000	000175'		JRST	UUORE1
   367
   368	000207'	261740	000001	OCHRUU: PUSH	P,A
   369	000210'	550040	000040		HRRZ	A,FORTY
   370	000211'	550001	000000		HRRZ	R0,(A)
   371	000212'	606040	777776		TRNN	A,-2
   372	000213'	256001	000215'		 XCT	OCHI2(A)
   373	000214'	254000	000202'		JRST	OCHI1
   374	000215'	550017	777777	OCHI2:	HRRZ	R0,-1(P) ;REG 0
   375	000216'	550017	000000		HRRZ	R0,(P)     ;REG 1
   376
   377	000217'	261740	000001	INCHUU: PUSH	P,A
   378	000220'	332000	000033*		SKIPE	CIN
   379	000221'	260740	000241'		 PUSHJ	P,GET
   380	000222'	336000	000220*		SKIPN	CIN
   381	000223'	051200	000000		 TTCALL	4,R0    ;INCHWL
   382	000224'	550040	000040		HRRZ	A,FORTY ;CONTAINS EFFECTIVE ADDR
   383	000225'	602040	777776		TRNE	A,-2
   384					 JRST	[MOVEM R0,(A)
   385	000226'	254000	03423 JRST UUORE1]
   386	000227'	256001	000231'		XCT	INCHU1(A)
   387	000230'	254000	000175'		JRST	UUORE1
   388	000231'	202017	777777	INCHU1: MOVEM	R0,-1(P)	;REG 0
   389	000232'	202017	000000		MOVEM	R0,(P)		;REG 1
   390
   391	000233'	336000	000204*	CLROUU: SKIPN	COUT
   392	000234'	051500	000000		TTCALL	12,
   393	000235'	254000	000176'		JRST UUORET
   394
   395	000236'	336000	000222*	CLRIUU: SKIPN	CIN
   396	000237'	051440	000000		TTCALL	11,
   397	000240'	254000	000176'		JRST	UUORET
   398
   399	000241'	375000	033267'	GET:    SOSGE   INBF+2          ;IS BUFFER EMPTY?
   400	000242'	254000	000247'		 JRST	GETBUF          ;IF SO, GO TO GETBUF
   401	000243'	134000	033266'	        ILDB    R0,INBF+1        ;GET BYTE FROM BUFFER
   402	000244'	307000	000000	        CAIG	R0,0
TELECOPY - THE CONTROLLER FOR PDP-10 TELECOPY	MACRO 12.5-46.0 08:11 25-OCT-87 PAGE 7-3
TELECO.MAC	23-DEC-86 12:29		UUO DISPATCHER

   403	000245'	254000	000241'	         JRST	GET             ;SKIP NULS
   404	000246'	263740	000000	        POPJ    P,              ;RETURN TO CALLING POINT
   405	000247'	066140	000000	GETBUF: INPUT   COM,            ;GET BUFFER FROM MONITOR
   406	000250'	063140	740000	        STATZ   COM,740000      ;ERROR WHILE READING FILE?
   407	000251'	254000	000265'	         JRST   RDERR           ;IF SO, GO TO RDERR
   408	000252'	063140	020000	        STATZ   COM,20000       ;END OF FILE?
   409	000253'	254000	000507'	         JRST   ENDIT          ;IF SO, GO TO ENDIT
   410	000254'	254000	000241'	        JRST    GET             ;ELSE, GO TO GET
   411
   412	000255'	377000	033276'	PUT:    SOSG    OUTBF+2         ;IS BUFFER FULL?
   413	000256'	254000	000261'	         JRST   PUTBUF          ;IF SO, GO TO PUTBUF
   414	000257'	136000	033275'	PUTBYT: IDPB    R0,OUTBF+1      ;PUT BYTE IN BUFFER
   415	000260'	263740	000000	        POPJ    P,              ;RETURN TO CALLING POINT
   416	000261'	067200	000000	PUTBUF: OUTPUT  OUT,            ;GIVE BUFFER TO MONITOR
   417	000262'	063200	740000	        STATZ   OUT,740000      ;ERROR WHILE WRITING FILE?
   418	000263'	254000	000267'	         JRST   WTERR           ;IF SO, GO TO WTERR
   419	000264'	254000	000257'	        JRST    PUTBYT          ;ELSE, GO TO PUTBYT
   420
   421				RDERR:  OUTSTR	[ASCIZ/
   422				ERROR READING COMMANDS FILE
   423	000265'	001000	034236'	/]
   424	000266'	254000	000507'		JRST	ENDIT
   425
   426				WTERR:  OUTSTR	[ASCIZ/
   427				ERROR WRITING COMMANDS OUT FILE
   428	000267'	001000	034245'	/]
   429	000270'	254000	000507'		JRST ENDIT
TELECOPY - THE CONTROLLER FOR PDP-10 TELECOPY	MACRO 12.5-46.0 08:11 25-OCT-87 PAGE 8
TELECO.MAC	23-DEC-86 12:29		COMMAND DISPATCHER

   430				SUBTTL COMMAND DISPATCHER
   431
   432	000271'	200440	034255'	CHKCMD:	MOVE	N,[XWD -CMDSIZ,CMDTAB]
   433	000272'	201500	032650'		MOVEI	N1,CMDISP
   434	000273'	474100	000000	GOCMD:	SETO	B,		;MASKSWD
   435	000274'	200040	000014		MOVE	A,WD		;WORD WE JUST INPUT
   436	000275'	322040	000301'	GETMSK:	JUMPE	A,GOTMSK	;WE HAVE MASK ALL SET UP
   437	000276'	242040	000006		LSH	A,6
   438	000277'	242100	777772		LSH	B,-6
   439	000300'	254000	000275'		JRST	GETMSK
   440	000301'	200040	000011	GOTMSK:	MOVE	A,N
   441	000302'	321100	000307'	NXTENT:	JUMPL	B,TRYNXT
   442	000303'	200141	000000		MOVE	C,0(A)
   443	000304'	420140	000002		ANDCM	C,B
   444	000305'	316600	000003		CAMN	WD,C
   445	000306'	254000	000313'		 JRST	GOTMAT
   446	000307'	253040	000302'	TRYNXT:	AOBJN	A,NXTENT
   447				;[22]	OUTSTR	[ASCIZ/
   448				;[22]?
   449				;[22]/]
   450	000310'	256000	032743'		XCT	SYNERR		;[22] Try a better error message
   451	000311'	006000	000000		CLRBFI
   452	000312'	254000	000101'		JRST	GETCMD
   453
   454	000313'	553040	000001	GOTMAT:	HRRZS	A,A
   455	000314'	553440	000011		HRRZS	N,N
   456	000315'	274040	000011		SUB	A,N
   457	000316'	270500	000001		ADD	N1,A
   458	000317'	200460	000012		MOVE	N,@N1
   459	000320'	254020	000011		JRST	@N
TELECOPY - THE CONTROLLER FOR PDP-10 TELECOPY	MACRO 12.5-46.0 08:11 25-OCT-87 PAGE 9
TELECO.MAC	23-DEC-86 12:29		- COPY COMMAND

   460				SUBTTL - COPY COMMAND
   461
   462				RUNROU:	OUTSTR	[ASCIZ/
   463	000321'	001000	034256'	COPY FROM FILE: /]
   464	000322'	660400	004000		TRO	F,HAS2BOLD
   465	000323'	254000	002546'		JRST	GETC
   466
   467	000324'	620400	001000	GETOLD:	TRZ	F,MOREIN
   468	000325'	602400	004000		TRNE	F,HAS2BOLD
   469					 OUTSTR	[ASCIZ/
   470	000326'	001000	034262'	COPY TO FILE: /]
   471	000327'	201500	033560'		MOVEI	SIDE,RBLK
   472	000330'	201500	033560'		MOVEI	SIDE,RBLK
   473	000331'	201440	000006		MOVEI	N,SIZFIL
   474	000332'	200540	033246'		MOVE	OPTR,WDPTR
   475	000333'	260740	026461'		PUSHJ	P,GETCHS
   476	000334'	302700	000050		CAIE	CH,LPAREN
   477	000335'	254000	032743'		 JRST	SYNERR
   478	000336'	260740	026452'		PUSHJ	P,GTNSYS
   479	000337'	260740	002704'		PUSHJ	P,GTFNM
   480	000340'	302700	000015		CAIE	CH,CARRET
   481	000341'	254000	032743'		 JRST SYNERR
   482	000342'	254000	000343'		JRST RUNIT
   483
   484				;CHECK TO MAKE SURE WE HAVE ALL VALUES
   485
   486	000343'	200040	033277'	RUNIT:	MOVE	A,THISYS
   487	000344'	312040	033540'		CAME	A,DBLK+SYS
   488	000345'	316040	033577'		 CAMN	A,RBLK+SYS
   489	000346'	334000	000000		  SKIPA
   490	000347'	254000	032754'		JRST	CIR2		;NEITHER DONOR OR RECIP. IS THIS SYSTEM
   491	000350'	200040	033540'		MOVE	A,DBLK+SYS
   492	000351'	316040	033577'		CAMN	A,RBLK+SYS
   493	000352'	316040	034151'		 camn	a,hstsys        ;If 2 networks are involved, the system #'s can
   494	000353'	334000	000000		  skipa                 ;possibly be the same; otherwise,
   495	000354'	254000	032761'		JRST	CIR0		;THE DONOR AND RECIP CANNOT BE THE SAME
   496	000355'	200100	034156'		MOVE	B,NXTSYS#
   497	000356'	602400	040000		TRNE	F,NEWSYS
   498	000357'	202100	033577'		 MOVEM	B,RBLK+SYS	;UPDATE "TO" SYSTEM
   499	000360'	336000	034167'	        skipn   strsys
   500	000361'	312040	033277'		 CAME	A,THISYS
   501	000362'	254000	000400'		JRST RECIP
TELECOPY - THE CONTROLLER FOR PDP-10 TELECOPY	MACRO 12.5-46.0 08:11 25-OCT-87 PAGE 10
TELECO.MAC	23-DEC-86 12:29		DONOR ROUTINE

   502				SUBTTL DONOR ROUTINE
   503
   504	000363'	660400	000100	DONOR:	TRO	F,CANAGN	;ALLOW USER TO REPEAT COMMAND FOR A NEW SYS
   505	000364'	201500	033560'	        MOVEI	SIDE,RBLK	;TALK ABOUT RECEIVER
   506	000365'	260740	001755'	        PUSHJ	P,PREP		;BUILD CIRCUIT TO HIM
   507	000366'	201040	000014		MOVEI	A,14
   508	000367'	202040	033521'		MOVEM	A,DBLK
   509	000370'	201500	033521'		MOVEI	SIDE,DBLK       ;TALK ABOUT DONOR
   510	000371'	201040	033536'		MOVEI	A,DBLK+UNAME
   511	000372'	202040	033522'		MOVEM	A,DBLK+PPN
   512	000373'	076040	033521'		LOOKUP	DISK,DBLK
   513	000374'	254000	032775'		 JRST	CHKERR
   514	000375'	332000	000000*	        SKIPE	NEWSW		;ARE WE USING NEW TRANSMISSION LOGIC
   515	000376'	254000	000000*	         JRST	NEWSEN##	;YES
   516	000377'	254000	000417'	        JRST	RECIP2
TELECOPY - THE CONTROLLER FOR PDP-10 TELECOPY	MACRO 12.5-46.0 08:11 25-OCT-87 PAGE 11
TELECO.MAC	23-DEC-86 12:29		RECIPIENT ROUTINE

   517				SUBTTL RECIPIENT ROUTINE
   518
   519	000400'	620400	000100	RECIP:	TRZ	F,CANAGN	;DON'T ALLOW USER TO REPEAT COMMAND
   520	000401'	201500	033521'	        MOVEI	SIDE,DBLK	;TALK ABOUT DONOR
   521	000402'	260740	001755'	        PUSHJ	P,PREP		;BUILD CIRCUIT TO HIM
   522	000403'	201040	000014		MOVEI	A,14
   523	000404'	202040	033560'		MOVEM	A,RBLK
   524	000405'	201500	033560'		MOVEI	SIDE,RBLK	;TALK ABOUT RECEIVER
   525	000406'	201040	033575'		MOVEI	A,RBLK+UNAME
   526	000407'	202040	033561'		MOVEM	A,RBLK+PPN
   527	000410'	076040	033560'		LOOKUP	DISK,RBLK
   528					 JRST	[HRRZ A,RBLK+ERR
   529						 JUMPN A,NOOPN
   530				                 SETZM RBLK+SIZE
   531	000411'	254000	034266'			 JRST RECIP1]
   532	000412'	660400	000002		TRO	F,NOSTRT
   533	000413'	260740	002406'		PUSHJ	P,CHKOLD
   534	000414'	476000	000000*	        SETOM	UPDSW		;REPLACING OLD FILE
   535	000415'	332000	000375*	RECIP1: SKIPE	NEWSW		;ARE WE USING NEW TRANSMISSION LOGIC
   536	000416'	254000	000000*	         JRST	NEWREC##	;YES
   537	000417'	070040	000000	RECIP2: CLOSE	DISK,
   538				        OUTSTR	[ASCIZ"
   539				CANNOT SYNCHRONIZE WITH OLD-STYLE SLAVE--ABORT
   540	000420'	001000	034272'	"]
   541	000421'	254000	002351'	        JRST	ABORT
   542	000422'	260740	002353'	NOOPN:	PUSHJ	P,ABT ;TELL DONOR TO FORGET IT
   543	000423'	254000	032775'		JRST	CHKERR
TELECOPY - THE CONTROLLER FOR PDP-10 TELECOPY	MACRO 12.5-46.0 08:11 25-OCT-87 PAGE 13
TELECO.MAC	23-DEC-86 12:29		- OTHER COMMANDS

   544				SUBTTL - OTHER COMMANDS
   545
   546				VERSIO:	OUTSTR	[ASCIZ/
   547	000424'	001000	034305'	VERSION /]
   548	000425'	554040	000137		HLRZ	A,LOCVER
   549	000426'	260740	026607'		PUSHJ	P,OUTOCT
   550	000427'	004000	000056		OUTCHI	DOT
   551	000430'	550040	000137		HRRZ	A,LOCVER
   552	000431'	260740	026607'		PUSHJ	P,OUTOCT
   553					OUTSTR	[ASCIZ/
   554	000432'	001000	034203'	/]
   555	000433'	254000	000101'		JRST	GETCMD
   556
   557	000434'	001000	026663'	HELP:	OUTSTR	HELMSG
   558	000435'	332000	034173'		SKIPE	TYMBIT
   559	000436'	001000	030626'		 OUTSTR TYMHELP
   560	000437'	254000	032744'		JRST	RESETIT
   561
   562				;USER WANTS ALL INSTRUCTIONS
   563
   564	000440'	602400	001000	INSTRU:	TRNE	F,MOREIN
   565	000441'	254000	032743'		 JRST	SYNERR
   566	000442'	001000	030657'		OUTSTR 	INSMSG
   567	000443'	332000	034173'		SKIPE	TYMBIT#		;USER'S TYMSHARE BIT
   568	000444'	001000	031515'		 OUTSTR	TYMINS
   569	000445'	254000	000101'		JRST	GETCMD
   570
   571				;SPECIAL 370 INSTRUCTIONS
   572
   573	000446'	001000	031707'	SYS370:	OUTSTR	MSG370
   574	000447'	254000	000101'		JRST	GETCMD
   575
   576				;SPECIAL 940 INSTRUCTIONS
   577
   578	000450'	001000	032160'	SYS940:	OUTSTR	MSG940
   579	000451'	254000	000101'		JRST	GETCMD
   580
   581				;TYMSHARE USER WANTS TO TURN ON TIME FLAG
   582
   583	000452'	602400	001000	SETIME:	TRNE	F,MOREIN
   584	000453'	254000	032743'		 JRST	SYNERR
   585	000454'	336000	034173'		SKIPN	TYMBIT
   586	000455'	254000	000310'		 JRST	TRYNXT+1
   587	000456'	201040	000001		MOVEI	A,1
   588	000457'	202040	000000*		MOVEM	A,TYPTIM##
   589	000460'	254000	000101'		JRST	GETCMD
   590
   591				;AN ALT-MODE WAS TYPED - RETURN TO COMMAND LEVEL
   592
   593	000461'	260740	032512'	PANIC:	PUSHJ	P,ZAPIT		;LOSE CIRCUIT.  ZAPIT DOES RESREG
   594	000462'	260740	001123'	ALTTYP: PUSHJ	P,RESREG	;RESTORE REGISTERS
   595	000463'	476000	000110*	        SETOM	TIMFLG
   596	000464'	525040	177777	        HRLOI	A,177777	;DISABLE ALL CHANNELS EXCEPT CIRCUIT ZAP
TELECOPY - THE CONTROLLER FOR PDP-10 TELECOPY	MACRO 12.5-46.0 08:11 25-OCT-87 PAGE 13-2
TELECO.MAC	23-DEC-86 12:29		- OTHER COMMANDS

   597	000465'	047040	777744	        INTENB	A,
   598	000466'	255000	000000	         JFCL
   599	000467'	006000	000000		CLRBFI			;CLEAR INPUT BUFFER
   600	000470'	005000	000000	        CLRBFO			;CLEAR OUTPUT BUFFER
   601	000471'	336000	000000*		SKIPN	AUXPRT
   602	000472'	254000	000476'		 JRST	ALT1
   603	000473'	514040	000471*	        HRLZ	A,AUXPRT
   604	000474'	541040	000000*	        HRRI	A,CLRBO##
   605				;       AUXCAL	A,      	 ;** SEND GOBBLER WHEN BASE BUG FIXED  7/21/77
   606	000475'	260740	002353'		PUSHJ	P,CLRIT		;TELL SLAVE WE ARE THRU AND CLEAR ALL I/O
   607	000476'	201040	000101'	ALT1:	MOVEI	A,GETCMD
   608	000477'	202040	033142'		MOVEM	A,ESCRTN-1
   609	000500'	047000	777755		DISMIS
TELECOPY - THE CONTROLLER FOR PDP-10 TELECOPY	MACRO 12.5-46.0 08:11 25-OCT-87 PAGE 14
TELECO.MAC	23-DEC-86 12:29		- OTHER COMMANDS

   610				;SET AND RE-SET LC
   611	000501'	334040	034310'	RESTLC:	SKIPA	A,[OFFLC]
   612	000502'	201040	000122	SETLC:	 MOVEI	A,ONLC
   613	000503'	602400	001000		TRNE	F,MOREIN
   614	000504'	254000	032743'		 JRST	SYNERR
   615	000505'	202040	033242'		MOVEM	A,LC
   616	000506'	254000	000101'		JRST	GETCMD
   617
   618				;USER HAS HAD ENUF
   619	000507'	260740	032512'	ENDIT:	PUSHJ	P,ZAPIT		;TRY TO GET RID OF CIRCUIT
   620	000510'	332000	000473*	        SKIPE	AUXPRT		;DID WE LOSE IT
   621	000511'	260740	000541'	         PUSHJ	P,CONFIRM	;MAKE USER CONFIRM SENDING ZAPPER
   622	000512'	525040	377777	        HRLOI	A,DISABLE
   623	000513'	047040	777744	        INTENB	A,
   624	000514'	255000	000000	         JFCL
   625	000515'	474040	000000		SETO	A,
   626	000516'	047040	777733		ZAPCIR	A,
   627	000517'	071040	000000		RELEASE	DISK,
   628	000520'	332000	000233*	        SKIPE	COUT
   629	000521'	070200	000000		 CLOSE	OUT,
   630	000522'	332000	000236*		SKIPE	CIN
   631	000523'	070140	000000		 CLOSE	COM,
   632	000524'	047000	000000		RESET
   633	000525'	336000	000073*		SKIPN	DETACH
   634	000526'	047040	000012		 EXIT	1,
   635	000527'	200040	034311'	        MOVE    A,[1,,RUNBLK]
   636	000530'	047040	000035	        RUN     A,
   637	000531'	255000	000000		 JFCL
   638	000532'	047000	000012	        EXIT
   639
   640	000533'	637163	000000	RUNBLK: SIXBIT  /SYS/
   641	000534'	545747	576564	        SIXBIT  /LOGOUT/
   642	000535'			        BLOCK 4
   643
   644	000541'	332000	000522*	CONFIRM:SKIPE	CIN      ;ASSUME YES IF RUNNING FROM COMMANDS FILE
   645	000542'	254000	000546'		 JRST	CONF1
   646					OUTSTR	[ASCIZ"
   647	000543'	001000	034312'	EXIT, OK? "]
   648	000544'	260740	002432'		PUSHJ P,YESNO
   649	000545'	254000	033054'		 JRST DEADCR	;COMMAND DISPATCH WILL CLEAN UP STACK POINTER
   650				CONF1:	OUTSTR [ASCIZ"
   651	000546'	001000	034315'	BE SURE TO CHECK SYSTEM "]
   652	000547'	200040	034142'		MOVE	A,AUXCIR
   653	000550'	260740	026606'		PUSHJ	P,OUTDEC
   654					OUTSTR [ASCIZ" FOR DETACHED JOB
   655	000551'	001000	034323'	"]
   656	000552'	263740	000000		POPJ P,
TELECOPY - THE CONTROLLER FOR PDP-10 TELECOPY	MACRO 12.5-46.0 08:11 25-OCT-87 PAGE 15
TELECO.MAC	23-DEC-86 12:29		- OTHER COMMANDS

   657	000553'	201440	000006	NEGATE:	MOVEI N,6
   658	000554'	200540	033246'		MOVE OPTR,WDPTR
   659	000555'	260740	026461'		PUSHJ P,GETCHS
   660	000556'	200440	034327'		MOVE N,[XWD -NEGSIZ,NEGTAB]
   661	000557'	201500	032706'		MOVEI N1,NEGDIS
   662	000560'	254000	000273'		JRST GOCMD
   663
   664	000561'	334040	034330'	NOSUP:	SKIPA A,[OFFSUP]
   665	000562'	201040	000125	SUPRES:	MOVEI A,ONSUP
   666	000563'	602400	001000		TRNE F,MOREIN
   667	000564'	254000	032743'		JRST SYNERR
   668	000565'	202040	034170'		MOVEM A,SUP
   669	000566'	254000	000101'		JRST GETCMD
   670
   671	000567'	334040	034331'	NOUPDA: SKIPA A,[-1]
   672	000570'	400040	000000	UPDATE: SETZ A,
   673	000571'	202040	000000*	        MOVEM A,UPDNO##
   674	000572'	254000	000576'	        JRST NOVER1
   675
   676	000573'	334040	034331'	VERBO: SKIPA A,[-1]
   677	000574'	400040	000000	NOVER: SETZ A,
   678	000575'	202040	000000*	        MOVEM A,VERBOSE##
   679	000576'	602400	001000	NOVER1: TRNE F,MOREIN
   680	000577'	254000	032743'	        JRST SYNERR
   681	000600'	254000	000101'	        JRST GETCMD
   682	000601'	602400	001000	NOTRU:	TRNE F,MOREIN
   683	000602'	400440	000000		SETZ N,
   684	000603'	254000	000614'		JRST SETTRU
   685
   686			000377	MAXTRU==^D255
   687			000002	MINTRU==2
   688
   689	000604'	606400	001000	TRUNCA:	TRNN F,MOREIN
   690	000605'	254000	000616'		JRST ASKTRU
   691	000606'	260740	026617'	TRUNC1:	PUSHJ P,NUMIN
   692	000607'	302700	000015		CAIE CH,CARRET
   693	000610'	254000	032743'		JRST SYNERR
   694	000611'	307440	000377		CAIG N,MAXTRU
   695	000612'	305440	000002		CAIGE N,MINTRU
   696	000613'	254000	000616'		JRST ASKTRU
   697	000614'	202440	034172'	SETTRU:	MOVEM N,TRU
   698	000615'	254000	000101'		JRST GETCMD
   699
   700	000616'	620400	001000	ASKTRU:	TRZ F,MOREIN
   701					OUTSTR [ASCIZ /
   702	000617'	001000	034332'	TRUNCATE STARTING WITH COLUMN: /]
   703	000620'	254000	000606'		JRST TRUNC1
   704
   705
   706				; ASK,REPLACE,KEEP
   707	000621'	402000	000000*	ASKIT: SETZM ASK##
   708	000622'	254000	000101'	 JRST GETCMD
   709	000623'	334040	034341'	KEEP: SKIPA A,[1]
TELECOPY - THE CONTROLLER FOR PDP-10 TELECOPY	MACRO 12.5-46.0 08:11 25-OCT-87 PAGE 15-2
TELECO.MAC	23-DEC-86 12:29		- OTHER COMMANDS

   710	000624'	474040	000000	REPLACE: SETO A,
   711	000625'	202040	000621*	 MOVEM A,ASK
   712	000626'	254000	000101'	 JRST GETCMD
   713
   714				; MODE COMMAND.
   715	000627'	402000	000000*	SCRAT: SETZM UCOPT
   716	000630'	200040	034342'	 MOVE A,[UCOPT,,UTPARAM]
   717	000631'	251040	000000*	 BLT A,URBLOCK##
   718				        OUTSTR [ASCIZ"
   719				COMPRESSION AND MODE SETTING CLEARED--RESUMING NORMAL DEFAULTS
   720	000632'	001000	034343'	"]
   721	000633'	254000	000101'	        JRST GETCMD
   722	000634'	201040	000000*	MODE: MOVEI A,UTPARAM##
   723	000635'	202040	000000*	 MOVEM A,T1##
   724	000636'	201040	000000*	 MOVEI A,URPARAM##
   725	000637'	202040	000000*	 MOVEM A,T2##
   726	000640'	606400	001000	 TRNN F,MOREIN
   727	000641'	254000	032743'	 JRST SYNERR
   728	000642'	200540	033246'	 MOVE OPTR,WDPTR
   729	000643'	201440	000006	 MOVEI N,6
   730	000644'	260740	026461'	 PUSHJ P,GETCHS         ;READ MODE TYPE
   731	000645'	200440	034361'	 MOVE N,[-MODSZ,,MODT]
   732	000646'	201500	000661'	 MOVEI N1,MODTB1
   733	000647'	254000	000273'	 JRST GOCMD
   734
   735	000650'	646241	566355	MODT: SIXBIT /TRANSM/
   736	000651'	624543	455166	 SIXBIT /RECEIV/
   737	000652'	416343	515100	MODT1: SIXBIT /ASCII/
   738	000653'	425156	416271	 SIXBIT /BINARY/
   739	000654'	634562	514154	 SIXBIT /SERIAL/
   740	000655'	454243	445143	 SIXBIT /EBCDIC/
   741	000656'	534164	415341	 SIXBIT /KATAKA/
   742	000657'	515541	474500	 SIXBIT /IMAGE/
   743	000660'	564164	516645	 SIXBIT /NATIVE/
   744			000011	MODSZ==.-MODT
   745			000007	MODSZ1==.-MODT1
   746
   747	000661'	000000	000700'	MODTB1: EXP TRMOD,REMOD
	000662'	000000	000703'
   748	000663'	000000	000774'	MODTB2: EXP ASCMOD,BIMOD,SEMOD,EBCMOD,KATAKANA,IMAGE,NAMOD
	000664'	000000	000715'
	000665'	000000	001012'
	000666'	000000	000773'
	000667'	000000	001007'
	000670'	000000	001013'
	000671'	000000	001016'
   749
   750	000672'	425457	435351	BIOT: SIXBIT /BLOCKI/
   751	000673'	427164	456351	 SIXBIT /BYTESI/
   752	000674'	465154	540000	 SIXBIT /FILL/
   753			000003	BIOSIZ==.-BIOT
   754
   755	000675'	000000	000737'	BIOT1: EXP BIM3,BIM4,BIM5
TELECOPY - THE CONTROLLER FOR PDP-10 TELECOPY	MACRO 12.5-46.0 08:11 25-OCT-87 PAGE 15-3
TELECO.MAC	23-DEC-86 12:29		- OTHER COMMANDS

	000676'	000000	000746'
	000677'	000000	000755'
   756
   757				;TRANS.  TURN T2 OFF
   758	000700'	201040	000000*	TRMOD: MOVEI A,SCRATCH##
   759	000701'	202040	000637*	 MOVEM A,T2
   760	000702'	254000	000705'	 JRST REMOD1
   761
   762				;REC.  TURN T1 OFF
   763	000703'	201040	000700*	REMOD: MOVEI A,SCRATCH
   764	000704'	202040	000635*	 MOVEM A,T1
   765	000705'	606400	001000	REMOD1: TRNN F,MOREIN
   766	000706'	254000	032743'	 JRST SYNERR
   767	000707'	201440	000006	 MOVEI N,6
   768	000710'	200540	033246'	 MOVE OPTR,WDPTR
   769	000711'	260740	026461'	 PUSHJ P,GETCHS
   770	000712'	200440	034362'	 MOVE N,[-MODSZ1,,MODT1]
   771	000713'	201500	000663'	 MOVEI N1,MODTB2
   772	000714'	254000	000273'	 JRST GOCMD
   773
   774				;BINARY MODE.  READ FILL, BYTESIZE, AND BLOCKING OPTIONS
   775	000715'	606400	001000	BIMOD: TRNN F,MOREIN    ;ANY MORE ON COMMAND LINE
   776	000716'	254000	001012'	 JRST SEMOD             ;NO, DEFAULT TO SERIAL MODE
   777				; SET DEFAULT FOR 940 (MOST LIKELY TARGET) FILL=LEFT, BLOCKING=3, BYTESIZE=8
   778	000717'	201040	000000*	 MOVEI A,IXMODE##       ;111+0010+1
   779	000720'	202040	000000*	 MOVEM A,T##            ;SAVE TEMPORARILY
   780	000721'	602400	001000	BIM1: TRNE F,MOREIN     ;ANY MORE LEFT
   781	000722'	254000	000726'	 JRST BIM2              ;YES
   782	000723'	201100	000003	 MOVEI B,3              ;MODE = 3
   783	000724'	200040	000720*	 MOVE A,T
   784	000725'	254000	000776'	 JRST MOD6
   785	000726'	201440	000006	BIM2: MOVEI N,6
   786	000727'	200540	033246'	 MOVE OPTR,WDPTR
   787	000730'	260740	026461'	 PUSHJ P,GETCHS         ;READ KEYWORD
   788	000731'	602400	001000	 TRNE F,MOREIN
   789	000732'	302700	000075	 CAIE CH,EQUALS
   790	000733'	254000	032743'	 JRST SYNERR
   791	000734'	200440	034363'	 MOVE N,[-BIOSIZ,,BIOT]
   792	000735'	201500	000675'	 MOVEI N1,BIOT1
   793	000736'	254000	000273'	 JRST GOCMD
   794
   795				;BLOCKING
   796	000737'	260740	026617'	BIM3: PUSHJ P,NUMIN
   797	000740'	307440	000016	 CAIG N,16
   798	000741'	307440	000000	 CAIG N,0
   799	000742'	254000	032743'	 JRST SYNERR
   800	000743'	275440	000001	 SUBI N,1
   801	000744'	137440	034364'	 DPB N,[POINT 4,T,34]
   802	000745'	254000	000721'	 JRST BIM1
   803
   804				;BYTESIZE
   805	000746'	260740	026617'	BIM4: PUSHJ P,NUMIN
   806	000747'	307440	000010	 CAIG N,10
TELECOPY - THE CONTROLLER FOR PDP-10 TELECOPY	MACRO 12.5-46.0 08:11 25-OCT-87 PAGE 15-4
TELECO.MAC	23-DEC-86 12:29		- OTHER COMMANDS

   807	000750'	307440	000000	 CAIG N,0
   808	000751'	254000	032743'	 JRST SYNERR
   809	000752'	275440	000001	 SUBI N,1
   810	000753'	137440	034365'	 DPB N,[POINT 3,T,30]
   811	000754'	254000	000721'	 JRST BIM1
   812
   813				;FILL
   814	000755'	201440	000006	BIM5: MOVEI N,6
   815	000756'	200540	033246'	 MOVE OPTR,WDPTR
   816	000757'	260740	026461'	 PUSHJ P,GETCHS
   817	000760'	200440	034366'	 MOVE N,[-BIM5S,,BIM5T]
   818	000761'	201500	000765'	 MOVEI N1,BIM5T1
   819	000762'	254000	000273'	 JRST GOCMD
   820	000763'	544546	640000	BIM5T: SIXBIT /LEFT/
   821	000764'	625147	506400	 SIXBIT /RIGHT/
   822			000002	BIM5S==.-BIM5T
   823	000765'	000000	000767'	BIM5T1: EXP BIM5L,BIM5R
	000766'	000000	000770'
   824	000767'	334100	034341'	BIM5L: SKIPA B,[1]
   825	000770'	400100	000000	BIM5R: SETZ B,
   826	000771'	137100	034367'	 DPB B,[POINT 1,T,35]
   827	000772'	254000	000721'	 JRST BIM1
   828
   829				;EBCDIC MODE
   830	000773'	334100	034370'	EBCMOD: SKIPA B,[2]
   831				;ASCII MODE
   832	000774'	201100	000001	ASCMOD: MOVEI B,1
   833	000775'	201040	000000*	 MOVEI A,AMODE##
   834
   835				;STORE MODE AND PARAMETERS
   836	000776'	602400	001000	MOD6: TRNE F,MOREIN
   837	000777'	254000	032743'	 JRST SYNERR
   838	001000'	200440	000704*	 MOVE N,T1
   839	001001'	202051	000000	 MOVEM A,(N)
   840	001002'	202111	000001	 MOVEM B,1(N)
   841	001003'	200440	000701*	 MOVE N,T2
   842	001004'	202051	000000	 MOVEM A,(N)
   843	001005'	202111	000001	 MOVEM B,1(N)
   844	001006'	254000	000101'	 JRST GETCMD
   845
   846				;KATAKANA
   847	001007'	201100	000005	KATAKANA: MOVEI B,5
   848	001010'	201040	000000*	 MOVEI A,KMODE##
   849	001011'	254000	000776'	 JRST MOD6
   850
   851				;SERIAL MODE
   852	001012'	334100	034371'	SEMOD: SKIPA B,[3]
   853				;IMAGE MODE
   854	001013'	201100	000006	IMAGE: MOVEI B,6
   855	001014'	201040	000000*	 MOVEI A,SMODE##
   856	001015'	254000	000776'	 JRST MOD6
   857
   858	001016'	201040	000000*	NAMOD: MOVEI A,XMODE
TELECOPY - THE CONTROLLER FOR PDP-10 TELECOPY	MACRO 12.5-46.0 08:11 25-OCT-87 PAGE 15-5
TELECO.MAC	23-DEC-86 12:29		- OTHER COMMANDS

   859	001017'	201100	000003	 MOVEI B,3
   860	001020'	254000	000776'	 JRST MOD6
   861
   862				;COMPRESS COMMAND
   863	001021'	606400	001000	COMPRESS: TRNN F,MOREIN
   864	001022'	254000	032743'	 JRST SYNERR
   865	001023'	200540	033246'	 MOVE OPTR,WDPTR
   866	001024'	201440	000006	 MOVEI N,6
   867	001025'	260740	026461'	 PUSHJ P,GETCHS
   868	001026'	200440	034372'	 MOVE N,[-COMSZ,,COMT]
   869	001027'	201500	001034'	 MOVEI N1,COMT1
   870	001030'	254000	000273'	 JRST GOCMD
   871
   872	001031'	574646	000000	COMT: SIXBIT /OFF/
   873	001032'	446560	545143	 SIXBIT /DUPLIC/
   874	001033'	624156	530000	 SIXBIT /RANK/
   875			000003	COMSZ==.-COMT
   876
   877	001034'	000000	001037'	COMT1: EXP COMT2,COMT3,COMT5
	001035'	000000	001040'
	001036'	000000	001045'
   878
   879	001037'	334040	034373'	COMT2: SKIPA A,[NONE##]
   880	001040'	201040	000001	COMT3: MOVEI A,1
   881	001041'	602400	001000	COMT4: TRNE F,MOREIN
   882	001042'	254000	032743'	 JRST SYNERR
   883	001043'	202040	000627*	 MOVEM A,UCOPT##
   884	001044'	254000	000101'	 JRST GETCMD
   885
   886	001045'	201040	000002	COMT5: MOVEI A,2
   887	001046'	606400	001000	 TRNN F,MOREIN
   888	001047'	254000	001041'	 JRST COMT4
   889	001050'	201440	000006	 MOVEI N,6
   890	001051'	200540	033246'	 MOVE OPTR,WDPTR
   891	001052'	260740	026461'	 PUSHJ P,GETCHS
   892	001053'	200440	034374'	 MOVE N,[-1,,COMT5A]
   893	001054'	201500	001057'	 MOVEI N1,COMT5B
   894	001055'	254000	000273'	 JRST GOCMD
   895	001056'	416564	570000	COMT5A: SIXBIT /AUTO/
   896	001057'	000000	001060'	 COMT5B: EXP .+1
   897	001060'	201040	000003	 MOVEI A,3
   898	001061'	254000	001041'	 JRST COMT4
   899
   900				;WHY COMMAND
   901	001062'	602400	001000	WHY: TRNE F,MOREIN
   902	001063'	254000	032743'	 JRST SYNERR
   903	001064'	332000	000000*	 SKIPE PGMSW##    ;DO WE HAVE A PROGRAM
   904	001065'	336000	000415*	 SKIPN NEWSW##    ;YES, BUT IS IT NEW VARIETY
   905	001066'	254000	000101'	 JRST GETCMD
   906	001067'	402000	000463*	 SETZM TIMFLG   ;ENABLE TIMEOUT
   907	001070'	201700	000000*	 MOVEI CH,WHYCOD##
   908	001071'	260740	001157'	 PUSHJ P,LNKMSG
   909	001072'	200040	034143'	 MOVE A,AUXGET
TELECOPY - THE CONTROLLER FOR PDP-10 TELECOPY	MACRO 12.5-46.0 08:11 25-OCT-87 PAGE 15-6
TELECO.MAC	23-DEC-86 12:29		- OTHER COMMANDS

   910	001073'	260740	001153'	WHY1: PUSHJ P,GAB
   911	001074'	302700	000000*	 CAIE CH,CAN##
   912	001075'	254000	001100'	 JRST WHY2
   913	001076'	260740	001153'	 PUSHJ P,GAB
   914	001077'	254000	001073'	 JRST WHY1
   915	001100'	302700	000000*	WHY2: CAIE CH,EM
   916	001101'	254000	001073'	 JRST WHY1
   917	001102'	260740	001153'	 PUSHJ P,GAB
   918	001103'	302700	000000*	 CAIE CH,RSPCOD##
   919	001104'	254000	000101'	 JRST GETCMD    ;GETCMD TO SET TIMFLG=-1
   920	001105'	260740	001153'	WHY3: PUSHJ P,GAB
   921	001106'	307700	000000	 CAIG CH,0
   922	001107'	254000	002351'	 JRST ABORT
   923	001110'	003000	000016	 OUTCHR CH
   924	001111'	254000	001105'	 JRST WHY3
   925
   926				; SAVE REGISTERS (EXCEPT P)
   927	001112'	202740	001152'	SAVREG: MOVEM P,SAV+17
   928	001113'	551740	001133'	 HRRZI P,SAV
   929	001114'	251740	001151'	 BLT P,SAV+16
   930	001115'	400000	000000	 SETZ R0,
   931	001116'	201740	000001	 MOVEI P,A      ;R1
   932	001117'	251740	000016	 BLT P,16     ;ZERO REGISTERS 1-16
   933	001120'	200740	001152'	 MOVE P,SAV+17
   934	001121'	476000	001132'	 SETOM SAVFG
   935	001122'	263740	000000	 POPJ P,
   936
   937				; RESTORE REGISTERS
   938	001123'	352000	001132'	RESREG: AOSE SAVFG
   939	001124'	263740	000000	 POPJ P,
   940	001125'	202740	001152'	 MOVEM P,SAV+17
   941	001126'	515740	001133'	 HRLZI P,SAV
   942	001127'	251740	000016	 BLT P,16
   943	001130'	200740	001152'	 MOVE P,SAV+17
   944	001131'	263740	000000	 POPJ P,
   945
   946	001132'	000000	000000	SAVFG: 0
   947	001133'			SAV: BLOCK 20
   948
   949				; GET ASCII BYTE (IMAGE CHAR WITHOUT PARITY)
   950				;       A MUST CONTAIN AUXGET
   951	001153'	042040	000016	GAB: AUXCAL A,CH
   952	001154'	254000	001153'	 JRST .-1
   953	001155'	405700	000177	 ANDI CH,177
   954	001156'	263740	000000	 POPJ P,
   955
   956				;SEND LINK MESSAGE.  DUPLICATED FROM NEW MODULES
   957				;       CH CONTAINS MESSAGE TYPE
   958	001157'	200040	034144'	LNKMSG: MOVE A,AUXPUT
   959	001160'	042040	001100*	 AUXCAL A,EM##
   960	001161'	042056	000000	 AUXCAL A,0(CH)
   961	001162'	602400	000001	 TRNE F,F370
   962				 JRST [ AUXCAL A,HT
TELECOPY - THE CONTROLLER FOR PDP-10 TELECOPY	MACRO 12.5-46.0 08:11 25-OCT-87 PAGE 15-7
TELECO.MAC	23-DEC-86 12:29		- OTHER COMMANDS

   963	001163'	254000	034375'	        POPJ P,]
   964	001164'	541040	000000*	 HRRI A,YELLOW##
   965	001165'	042040	000000	 AUXCAL A,
   966	001166'	263740	000000	 POPJ P,
   967
   968				;OPTION TO CAUSE 370 TO CREATE FIXED-LENGTH RECORDS
   969	001167'	201440	000120	FIX1: MOVEI N,^D80
   970	001170'	260740	001203'	 PUSHJ P,VAR2
   971	001171'	202440	000000*	 MOVEM N,VAROPT##
   972	001172'	476000	000000*	 SETOM FIXOPT##
   973	001173'	476000	000000*	 SETOM FIX##
   974	001174'	254000	000101'	 JRST GETCMD
   975
   976				;OPTION TO CAUSE 370 TO CREATE VARIABLE LENGTH RECORDS (DEFAULT)
   977	001175'	201440	200000	VAR1: MOVEI N,^D65536
   978	001176'	260740	001203'	 PUSHJ P,VAR2
   979	001177'	202440	001172*	 MOVEM N,FIXOPT
   980	001200'	402000	001171*	 SETZM VAROPT
   981	001201'	402000	001173*	 SETZM FIX
   982	001202'	254000	000101'	 JRST GETCMD
   983
   984	001203'	606400	001000	VAR2: TRNN F,MOREIN
   985	001204'	254000	001211'	 JRST VAR3
   986	001205'	260740	026617'	 PUSHJ P,NUMIN
   987	001206'	307440	200000	 CAIG N,^D65536
   988	001207'	307440	000000	 CAIG N,0
   989	001210'	254000	032743'	 JRST SYNERR
   990	001211'	202440	000000*	VAR3: MOVEM N,VRECL##
   991	001212'	202440	000000*	 MOVEM N,FRECL##
   992	001213'	263740	000000	 POPJ P,
   993
   994
   995				; Password command.  This command is used with the Gateway command.
   996				;This command saves the password input through the tty for later.
   997
   998	001214'	260740	001225'	PASSWO: pushj   p,clrpas                ;Clear the password
   999	001215'	200640	033251'	        move    ptr,pasptr              ;Points to the block for the password
  1000	001216'	561040	000064	        hrroi   a,64                    ;Want to turn on the no echo
  1001	001217'	042040	000200	        auxcal  a,200                   ;No echo
  1002	001220'	002000	000016	inpas:  inchwl  ch                      ;Now get the password from the tty
  1003	001221'	306700	000015	        cain    ch,carret               ;Check for the end of the password
  1004				          jrst  [inchwl ch              ;Get the line feed character
  1005				                 hrroi  a,64            ;Turn on the echo
  1006				                 auxcal a,0
  1007				                 skipe  pwdcmd          ;Is the password retrieved independent
  1008				                   popj p,              ;of a command? If so, return to origin
  1009	001222'	254000	034377'	                 jrst   getcmd]         ;Otherwise, get the next command
  1010	001223'	136700	000015	        idpb    ch,ptr                  ;Save the password
  1011	001224'	254000	001220'	        jrst    inpas                   ;Get the next character
  1012
  1013				;Clear the data block that stores the password.
  1014
  1015	001225'	402000	033477'	Clrpas: setzm   passwd                  ;Set the first word to zero
TELECOPY - THE CONTROLLER FOR PDP-10 TELECOPY	MACRO 12.5-46.0 08:11 25-OCT-87 PAGE 15-8
TELECO.MAC	23-DEC-86 12:29		- OTHER COMMANDS

  1016	001226'	200040	034405'	        move    a,[xwd passwd,passwd+1] ;Get the moving from and to address
  1017	001227'	251040	033504'	        blt     a,pwdend                ;and zero out the block
  1018	001230'	263740	000000	        popj    p,                      ;End of clear
  1019
  1020				;The password will be put into the login string for logging into another
  1021				;network.
  1022
  1023	001231'	200540	033251'	getpas: move    optr,pasptr             ;Point to the password
  1024	001232'	134700	000013	gp:     ildb    ch,optr                 ;Get a character from the password
  1025	001233'	306700	000000	        cain    ch,0                    ;Is it the end of the password?
  1026	001234'	254000	001225'	          jrst  clrpas                  ;Yes, then clear password & you're done
  1027	001235'	136700	000015	        idpb    ch,bp                   ;Attach it to the login string
  1028	001236'	254000	001232'	        jrst    gp                      ;Get the next character
  1029
  1030
  1031				;The Command command is to let Telecopy know that the rest of the commands
  1032				;will be coming from a commands file.
  1033
  1034	001237'	476000	034155'	COMMAN: setom   noinit#                 ;Do not want to re-init the program
  1035	001240'	306700	000015	        cain    ch,carret               ;Is the commands filename given?
  1036	001241'	254000	000002'	          jrst  reenter+1               ;Begin Telecopy over as if it had a
  1037				                                        ;commands file
  1038	001242'	660400	000074	        tro     f,namflg                ;Prepare to retrieve the filename
  1039	001243'	201440	000006	        movei   n,6                     ;We want only the first six characters
  1040	001244'	200540	033253'	        move    optr,cfnptr             ;Put the commands filename into comfil
  1041	001245'	620400	000010	        trz     f,dotok                 ;Period needed for extension
  1042	001246'	260740	026461'	        pushj   p,getchs                ;Get the filename
  1043	001247'	200600	033507'	        move    wd,comfil               ;Want the filename stored in wd
  1044	001250'	302700	000015	        caie    ch,carret               ;Is there an extension given?
  1045	001251'	260740	026461'	         pushj  p,getchs                ;Yes, don't leave it lying around
  1046	001252'	254000	000003'	        jrst    havnam                  ;Begin executing from the commands file
  1047
  1048
  1049				;The Gateway command is used when interfacing Telecopy with another network.
  1050
  1051	001253'			GATEWA:
  1052				;Get the username for logging into the host on the other network,
  1053				;and save it in auxstr.
  1054
  1055	001253'	260740	001352'	        pushj   p,sysnum                ;Get the system # of the gateway
  1056	001254'	202440	033260'	        movem   n,sysno                 ;Save it
  1057	001255'	302700	000073	        caie    ch,semicol              ;Is the next character a semicolon?
  1058	001256'	254000	032743'	          jrst  synerr                  ;If not, bad input
  1059	001257'	201440	000014	        movei   n,sizusr                ;Username may be up to 14 ascii ch's
  1060	001260'	660400	000074	        tro     f,namflg                ;We will be looking for a name
  1061	001261'	200540	033252'	        move    optr,usrptr             ;The name will be stored in usrnam
  1062	001262'	260740	026461'	        pushj   p,getchs                ;Get the name
  1063	001263'	302700	000072	        caie    ch,colon                ;Is the next character a colon?
  1064	001264'	254000	032743'	          jrst  synerr                  ;If not, bad input
  1065	001265'	260740	001352'	        pushj   p,sysnum                ;Get the system # of the host
  1066	001266'	336000	033477'	        skipn   passwd                  ;If there is already a password, skip
  1067				          pushj p,[outstr [asciz /
  1068				Password: /]
TELECOPY - THE CONTROLLER FOR PDP-10 TELECOPY	MACRO 12.5-46.0 08:11 25-OCT-87 PAGE 15-9
TELECO.MAC	23-DEC-86 12:29		- OTHER COMMANDS

  1069				                 setom  pwdcmd          ;We are not in password command mode
  1070	001267'	260740	034411'	                 jrst   passwo]         ;Retrieve the password
  1071	001270'	202440	034151'	        movem   n,hstsys                ;This system is in another network
  1072	001271'	250440	033260'	        exch   n,sysno                  ;Exchange the gateway # and the host #
  1073	001272'	200040	000011	        move    a,n                     ;Gateway #
  1074
  1075				;Build the circuit to the Gateway.
  1076
  1077	001273'	402000	000106*	        setzm   talksw                  ;Mimic talk mode so that the slave program
  1078				                                        ;doesn't get run yet
  1079	001274'	260740	001774'	        pushj   p,getcir                ;Set up the circuit
  1080	001275'	476000	001273*	        setom   talksw                  ;Get back out of talk mode
  1081
  1082				;Want to build the login string and put it into the output buffer of the aux
  1083				;port.  This will log us into the host on the other network.  Then the slave
  1084				;program is started up.
  1085
  1086	001276'	260740	001331'	        pushj   p,bldstr                ;Get the login string
  1087	001277'	514040	000510*	        hrlz    a,auxprt                ;Get the number of the auxport
  1088	001300'	541040	000005	        hrri    a,auxptr                ;Set up the auxcal to put a string
  1089	001301'	200100	034414'	        move    b,[point 7,auxstr]      ;into the output buffer
  1090	001302'	042040	000002	        auxcal  a,b                     ;Point to the login string
  1091	001303'	260740	002303'	        pushj   p,crouts                ;In case of detached job, cr
  1092	001304'	260740	001312'	        pushj   p,sndbal                ;Get the input from the other system
  1093	001305'	200040	034151'	        move    a,hstsys                ;Get the host # we just logged into
  1094	001306'	202040	034142'	        movem   a,auxcir                ;Aux circuit system number
  1095	001307'	260740	001774'	        pushj   p,getcir                ;Start the slave program
  1096	001310'	260740	002332'	        pushj   p,zerstr                ;Clear out the login string
  1097	001311'	254000	000101'	        jrst    getcmd                  ;Gateway command completed
  1098
  1099				;Send a yellow ball to the auxport and wait until an orange ball is received.
  1100				;This is done to ensure the receipt of all the output from the foreign host
  1101				;after logging into it.
  1102
  1103	001312'	200040	001277*	Sndbal: move    a,auxprt                ;Get the # of the auxport
  1104	001313'	051300	000001	        getlch  a                       ;Get rid of any previous orange balls
  1105	001314'	200040	034415'	getall: move    a,[xwd 40,74]           ;Send a yellow ball and wait for the
  1106	001315'	047040	000072	        hiber   a,                      ;return of an orange ball-sometimes
  1107	001316'	254000	032743'	          jrst synerr                   ;they get lost, so set a time limit
  1108	001317'	200040	001312*	        move    a,auxprt                ;Get the auxport # again to check
  1109	001320'	051300	000001	        getlch  a                       ;for the return of the orange ball
  1110	001321'	603040	002000	        tlne    a,2000                  ;from the host
  1111	001322'	254000	001314'	          jrst  getall                  ;No ball, output from host not finished
  1112
  1113				;Print the input on the command port.
  1114
  1115	001323'	514040	001317*	        hrlz    a,auxprt                ;Get the # of the aux port
  1116	001324'	541040	000001	        hrri    a,auxins                ;Set the auxcal up for input
  1117	001325'	042040	000016	        auxcal  a,ch                    ;Get the input
  1118	001326'	263740	000000	          popj  p,                      ;No more input
  1119	001327'	003000	000016	        outchr  ch                      ;Print it out to the terminal
  1120	001330'	254000	001325'	        jrst    .-3                     ;Get the next character input
  1121
TELECOPY - THE CONTROLLER FOR PDP-10 TELECOPY	MACRO 12.5-46.0 08:11 25-OCT-87 PAGE 15-10
TELECO.MAC	23-DEC-86 12:29		- OTHER COMMANDS

  1122				;Build the login string.
  1123
  1124	001331'	200640	033244'	bldstr: move    bp,strptr               ;Point to the login string
  1125	001332'	200040	033505'	        move    a,usrnam                ;Want the username to be in ascii
  1126	001333'	260740	001562'	        pushj   p,strsix                ;Turn the sixbit string into ascii
  1127	001334'	200040	033506'	        move    a,usrnam+1
  1128	001335'	260740	001562'	        pushj   p,strsix
  1129	001336'	201700	000072	        movei   ch,colon                ;Deposit an ascii colon in the string
  1130	001337'	136700	000015	        idpb    ch,bp                   ;after the username
  1131	001340'	200040	033260'	        move    a,sysno                 ;Convert the system number into ascii
  1132	001341'	260740	001572'	        pushj   p,maksys                ;and put it in the string
  1133	001342'	201700	000073	        movei   ch,semicol              ;After that, place a semicolcolon
  1134	001343'	136700	000015	        idpb    ch,bp                   ;in the string
  1135	001344'	260740	001231'	        pushj   p,getpas                ;Last, put in the password
  1136	001345'	201700	000015	        movei   ch,carret               ;and a crlf
  1137	001346'	136700	000015	        idpb    ch,bp
  1138	001347'	201700	000015	        movei   ch,carret
  1139	001350'	136700	000015	        idpb    ch,bp
  1140	001351'	263740	000000	        popj    p,                      ;Finished with the string
  1141
  1142				;Get the system number to be logged into.
  1143
  1144	001352'	660400	000400	Sysnum: tro     f,allnum                ;We will be looking for a number
  1145	001353'	260740	026617'	        pushj   p,numin                 ;Go get the number
  1146	001354'	307440	023417	        caig    n,hghsys                ;Does it fall within range
  1147	001355'	307440	000000	          caig  n,0
  1148	001356'	254000	032743'	            jrst synerr                 ;If not, command is in error
  1149	001357'	263740	000000	        popj    p,
  1150
  1151
  1152
  1153
  1154
  1155				; Host command.  This command overwrites the system table with system type.
  1156
  1157	001360'	332000	001323*	HOST:   skipe   auxprt          ;See if an aux circuit has been built yet
  1158				          jrst  [outstr [asciz/
  1159				 HOST COMMAND NOT PERMITTED AFTER CIRCUIT HAS BEEN BUILT
  1160				                /]
  1161	001361'	254000	034436'	                jrst    getcmd]
  1162	001362'	606400	001000	        trnn    f,morein        ;Are any more characters to be input?
  1163	001363'	254000	032743'	          jrst  synerr          ;The system number and type are still needed
  1164	001364'	260740	026617'	        pushj   p,numin         ;Get the system number
  1165	001365'	307440	023417	        caig    n,hghsys        ;Check to see if it falls within range
  1166	001366'	307440	000000	          caig  n,0
  1167	001367'	254000	032743'	            jrst synerr         ;The system # is either too big or too small
  1168	001370'	202440	034151'	        movem   n,hstsys#       ;Save the system number
  1169	001371'	606400	001000	        trnn    f,morein        ;More characters to be input?
  1170	001372'	254000	032743'	          jrst  synerr          ;Still need system type
  1171	001373'	201440	000006	        movei   n,6             ;Doesn't deserve a comment
  1172	001374'	200540	033246'	        move    optr,wdptr      ;Optr now points to the next word (which will
  1173				                                ;be in wd) from the command string
  1174	001375'	260740	026461'	        pushj   p,getchs        ;Get the system type
TELECOPY - THE CONTROLLER FOR PDP-10 TELECOPY	MACRO 12.5-46.0 08:11 25-OCT-87 PAGE 15-11
TELECO.MAC	23-DEC-86 12:29		- OTHER COMMANDS

  1175	001376'	200440	032726'	        move    n,typsiz        ;Get the size of the Type System table (typtab)
  1176	001377'	260740	001405'	        pushj   p,fndtyp        ;Search the System Type table for a match
  1177	001400'	321440	032743'	        jumpl   n,synerr        ;None was found
  1178
  1179	001401'	200451	032727'	        move    n,hsttab(n)     ;Change the system table accordingly
  1180	001402'	200040	034151'	        move    a,hstsys        ;Retrieve the system number
  1181	001403'	202441	003032'	        movem   n,systab-1(a)   ;Change the system type
  1182	001404'	254000	000101'	        jrst    getcmd          ;Host command completed
  1183
  1184				;Find the system type
  1185
  1186	001405'	200051	032712'	fndtyp: move    a,typtab(n)     ;Shorten the host type to the number of letters
  1187	001406'	406600	000001	        andm    wd,a            ;typed in
  1188	001407'	312600	000001	        came    wd,a            ;Compare each item of the type table with wd
  1189	001410'	365440	001405'	          sojge n,fndtyp        ;Not found, try again
  1190	001411'	263740	000000	        popj    p,              ;Search done
  1191
  1192				; TALK COMMAND.  USES CHANNELS 1,6, AND 7.   GETCIR CLEARS ALL
  1193				;       CHANNELS AND TAES CARE OF ASSIGNMENTS
  1194				;       ESCAPE INTERRUPT SHOULD CLEAR REMAINING INTERRUPTS
  1195	001412'	336000	000541*	TALK: SKIPN CIN ;TALK NOT PERMITTED FROM COMMANDS FILE
  1196	001413'	254000	001416'	 JRST .+3
  1197				 OUTSTR [ASCIZ"
  1198				TALK NOT PERMITTED FROM COMMANDS FILE
  1199	001414'	001000	034440'	"]
  1200	001415'	254000	000101'	 JRST GETCMD
  1201	001416'	402000	001275*	 SETZM TALKSW## ;NOW DOING TALK
  1202	001417'	332000	001360*	 SKIPE AUXPRT           ;DO WE HAVE A CIRCUIT
  1203	001420'	602400	001000	 TRNE F,MOREIN          ;YES, BUT HE TYPED A SYSTEM NO.
  1204	001421'	254000	001550'	 JRST TALK2             ;GO READ A SYSTEM NO.
  1205	001422'	200040	034142'	 MOVE A,AUXCIR
  1206	001423'	260740	001774'	TALK3: PUSHJ P,GETCIR   ;EXIT PROGRAM PERHAPS.  ALSO SET UP INTERRUPT SYSTEM
  1207				;                       FOR TALK COMMAND
  1208	001424'	200040	034153'	 MOVE A,JBTPRV# ;GETTAB TABLE 6
  1209	001425'	201100	000000*	 MOVEI B,ESC ;ESC FOR GE OR TYMEX MODE
  1210	001426'	302040	000600	 CAIE A,600
  1211	001427'	306040	000000	 CAIN A,0
  1212	001430'	201100	000000*	 MOVEI B,ETX##  ;CONTROL-C FOR SUDS OR PDP MODE
  1213	001431'	200040	034163'	 MOVE A,SLVTYP
  1214	001432'	302040	000003	 CAIE A,X       ;ARE WE TALKING TO X
  1215	001433'	201100	001425*	 MOVEI B,ESC##  ;NO, JUST SEND ESCAPE
  1216	001434'	202100	034146'	 MOVEM B,ESCCHR#
  1217				;POLL REMOTE CONSOLE
  1218	001435'	514040	001417*	OPOLL: HRLZ A,AUXPRT
  1219	001436'	541040	000001	 HRRI A,AUXINS
  1220	001437'	042040	000016	 AUXCAL A,CH
  1221	001440'	254000	001443'	 JRST TSTINL
  1222	001441'	003000	000016	 OUTCHR CH
  1223	001442'	254000	001437'	 JRST .-3
  1224
  1225	001443'	541040	000011	TSTINL: HRRI A,LVDEF    ;LEAVE DEFFERED ECHO
  1226	001444'	042040	000000	 AUXCAL A,
  1227	001445'	561040	000050	 HRROI A,BRKLIN  ;TEST FOR BREAK CHAR ON COMMAND PORT
TELECOPY - THE CONTROLLER FOR PDP-10 TELECOPY	MACRO 12.5-46.0 08:11 25-OCT-87 PAGE 15-12
TELECO.MAC	23-DEC-86 12:29		- OTHER COMMANDS

  1228	001446'	042040	000000	        AUXCAL A,
  1229	001447'	254000	001451'	        JRST IWAIT      ;WAIT FOR SOMETHING TO BE INPUT
  1230	001450'	254000	001510'	        JRST IPOLL      ;READ COMMAND LINE
  1231	001451'	561040	000011	IWAIT: HRROI A,LVDEF
  1232	001452'	042040	000000	 AUXCAL A,
  1233	001453'	201040	000001	 MOVEI A,1
  1234	001454'	047040	000031	 SLEEP A,
  1235	001455'	255000	000000	 JFCL
  1236	001456'	254000	001435'	 JRST OPOLL
  1237
  1238				;ALTMODE TYPED
  1239	001457'	525040	377777	CH4INT: HRLOI A,DISABLE
  1240	001460'	047040	777744	 INTENB A,
  1241	001461'	255000	000000	 JFCL
  1242	001462'	200040	034144'	 MOVE A,AUXPUT
  1243	001463'	200100	034146'	 MOVE B,ESCCHR
  1244	001464'	042042	000000	 AUXCAL A,0(B)
  1245	001465'	254000	001471'	 JRST CH5IN1
  1246
  1247				;CHAR PRESENT ON AUX PORT
  1248	001466'	525040	377777	CH5INT: HRLOI A,DISABLE
  1249	001467'	047040	777744	 INTENB A,
  1250	001470'	255000	000000	 JFCL
  1251	001471'	201040	001435'	CH5IN1: MOVEI A,OPOLL
  1252	001472'	202040	033142'	 MOVEM A,ESCRTN-1
  1253	001473'	205040	620000	 MOVSI A,ENABLE+CH1+CH4
  1254	001474'	047040	777744	 INTENB A,
  1255	001475'	255000	000000	 JFCL
  1256	001476'	047000	777755	 DISMIS
  1257
  1258				;BREAK CHAR PRESENT ON COMMAND PORT
  1259	001477'	525040	377777	CH6INT: HRLOI A,DISABLE
  1260	001500'	047040	777744	 INTENB A,      ;INHIBIT ALL CHANNELS
  1261	001501'	255000	000000	 JFCL
  1262	001502'	201040	001510'	 MOVEI A,IPOLL
  1263	001503'	202040	033146'	 MOVEM A,CH6RTN-1
  1264	001504'	205040	620000	 MOVSI A,ENABLE+CH1+CH4
  1265	001505'	047040	777744	 INTENB A,
  1266	001506'	255000	000000	 JFCL
  1267	001507'	047000	777755	 DISMIS
  1268
  1269	001510'	200040	034144'	IPOLL: MOVE A,AUXPUT
  1270	001511'	002000	000016	IPOLL1: INCHWL CH
  1271	001512'	302700	000045	 CAIE CH,PCT
  1272	001513'	254000	001535'	 JRST IPOLL5
  1273	001514'	002000	000016	 INCHWL CH
  1274	001515'	302700	000045	 CAIE CH,PCT
  1275	001516'	254000	001534'	 JRST IPOLL4
  1276	001517'	002000	000016	 INCHWL CH
  1277	001520'	306700	000126	 CAIN CH,UPSILON
  1278	001521'	254000	001531'	 JRST USEP
  1279	001522'	302700	000106	 CAIE CH,PHI
  1280	001523'	254000	001533'	 JRST IPOLL3
TELECOPY - THE CONTROLLER FOR PDP-10 TELECOPY	MACRO 12.5-46.0 08:11 25-OCT-87 PAGE 15-13
TELECO.MAC	23-DEC-86 12:29		- OTHER COMMANDS

  1281	001524'	002000	000016	 INCHWL CH
  1282	001525'	302700	000015	 CAIE CH,CARRET
  1283	001526'	254000	001524'	 JRST .-2
  1284	001527'	002000	000016	 INCHWL CH
  1285	001530'	254000	000101'	 JRST GETCMD
  1286	001531'	042040	000000*	USEP: AUXCAL A,US##
  1287	001532'	254000	001435'	 JRST OPOLL
  1288	001533'	042040	000045	IPOLL3: AUXCAL A,PCT
  1289	001534'	042040	000045	IPOLL4: AUXCAL A,PCT
  1290	001535'	302700	000012	IPOLL5: CAIE CH,LNFEED
  1291	001536'	254000	001541'	 JRST IPOLL6
  1292	001537'	260740	033124'	 PUSHJ P,CRLF
  1293	001540'	254000	001511'	 JRST IPOLL1
  1294	001541'	306700	000015	IPOLL6: CAIN CH,CARRET
  1295	001542'	254000	001545'	 JRST IPOLL7
  1296	001543'	042056	000000	 AUXCAL A,0(CH)
  1297	001544'	254000	001511'	 JRST IPOLL1
  1298	001545'	002000	000016	IPOLL7: INCHWL CH
  1299	001546'	042040	000015	 AUXCAL A,CARRET
  1300	001547'	254000	001435'	 JRST OPOLL
  1301
  1302	001550'	260740	026617'	TALK2: PUSHJ P,NUMIN
  1303	001551'	602400	001000	 TRNE F,MOREIN
  1304	001552'	254000	032743'	 JRST SYNERR
  1305	001553'	307440	023417	 CAIG N,HGHSYS
  1306	001554'	307440	000000	 CAIG N,0
  1307	001555'	254000	032743'	 JRST SYNERR
  1308	001556'	200051	003032'	 MOVE A,SYSTAB-1(N)
  1309	001557'	556040	034163'	 HLRZM A,SLVTYP#
  1310	001560'	200040	000011	 MOVE A,N
  1311	001561'	254000	001423'	 JRST TALK3
TELECOPY - THE CONTROLLER FOR PDP-10 TELECOPY	MACRO 12.5-46.0 08:11 25-OCT-87 PAGE 16
TELECO.MAC	23-DEC-86 12:29		- OTHER COMMANDS

  1312
  1313				;ROUTINE TO MAKE A SIXBIT STRING ASCII
  1314	001562'	200140	034451'	STRSIX:	MOVE C,[POINT  6,A]
  1315	001563'	201100	000006		MOVEI B,SIZFIL
  1316	001564'	134700	000003	STRS1:	ILDB CH,C
  1317	001565'	322700	001571'		JUMPE CH,RET
  1318	001566'	271700	000040		ADDI CH,ASCSIX	;MAKE ASCII
  1319	001567'	136700	000015		IDPB CH,BP
  1320	001570'	367100	001564'		SOJG B,STRS1
  1321	001571'	263740	000000	RET:	POPJ P,0
  1322
  1323
  1324				;ROUTINE TO MAKE SYSTEM NUMBER ASCII
  1325	001572'	231040	000012	MAKSYS:	IDIVI A,^D10
  1326	001573'	506117	000000		HRLM B,(P)
  1327	001574'	332000	000001		SKIPE A
  1328	001575'	260740	001572'		PUSHJ P,MAKSYS
  1329	001576'	554057	000000		HLRZ A,(P)
  1330	001577'	271040	000060		ADDI A,ASCNUM
  1331	001600'	136040	000015		IDPB A,BP
  1332	001601'	263740	000000		POPJ P,0
  1333
  1334
  1335				;ROUTINE TO DETERMINE THE LENGTH OF A SIXBIT STRING
  1336				;MAX. LENGTH IN "A"
  1337				;PTR IN "BP"
  1338				;RETURN SIZE OF STRING IN "N"
  1339	001602'	403100	000011	GETSIZ:	SETZB B,N
  1340	001603'	134700	000015		ILDB CH,BP
  1341	001604'	322700	001613'		JUMPE CH,GETS2
  1342	001605'	322100	001612'		JUMPE B,GETS1
  1343	001606'	270440	000002		ADD N,B
  1344	001607'	340440	000000		AOJ N,
  1345	001610'	400100	000000		SETZ B,
  1346	001611'	254000	001614'		JRST GETNX1
  1347	001612'	344440	001614'	GETS1:	AOJA N,GETNX1
  1348	001613'	340100	000000	GETS2:	AOJ B,
  1349	001614'	367040	001603'	GETNX1:	SOJG A,GETSIZ+1
  1350	001615'	263740	000000		POPJ P,0
TELECOPY - THE CONTROLLER FOR PDP-10 TELECOPY	MACRO 12.5-46.0 08:11 25-OCT-87 PAGE 17
TELECO.MAC	23-DEC-86 12:29		INITIALIZATION ROUTINES

  1351				SUBTTL INITIALIZATION ROUTINES
  1352
  1353	001616'	400400	000000	INITEL:	SETZ F,
  1354	001617'	402000	034172'		SETZM TRU#
  1355	001620'	047040	000030		pjob	a,		;pick up current trus
  1356	001621'	047040	000027		runtim	a,
  1357	001622'	202040	034164'		movem	a,statru#	;save current tru useage
  1358	001623'	402000	034151'	        setzm   hstsys#		;Host system # for the HOST command
  1359	001624'	402000	034167'	        setzm   strsys#
  1360
  1361	001625'	561040	000006		HRROI A,6		;GETTAB TABLE 6 FOR JBTPRV
  1362	001626'	047040	000041		GETTAB A,
  1363	001627'	047000	000012		 EXIT
  1364	001630'	405040	000600		ANDI A,600		;XEXEC-PDP-GE-SUDS MODE BITS
  1365	001631'	306040	000400		CAIN A,400		;EXCLUDE GE (KDL USERS)
  1366	001632'	047000	000012		 EXIT
  1367	001633'	202040	034153'		MOVEM A,JBTPRV
  1368
  1369	001634'	201040	000125		MOVEI A,ONSUP
  1370	001635'	202040	034170'		MOVEM A,SUP#
  1371	001636'	260740	032526'	        PUSHJ P,ZAPCIR          ;ZERO OUT CIRCUIT CELLS
  1372	001637'	041040	000017		INIT	DISK,17		;INIT SYS IN DUMP MODE
  1373	001640'	637163	000000		SIXBIT	/SYS/
  1374	001641'	000000	000000		0
  1375	001642'	254000	032751'		 JRST SYSERR
  1376
  1377	001643'	561440	777756		HRROI N,JBTUNM
  1378	001644'	047440	000041		GETTAB N,		;GET THIS USERS NAME(FIRST HALF)
  1379	001645'	400440	000000		 SETZ N,		;ZERO IF WE CAN'T GET IT
  1380	001646'	202440	033300'		MOVEM N,THISUSR		;SAVE IT
  1381	001647'	561500	777757		HRROI N1,JBTUN1
  1382	001650'	047500	000041		GETTAB N1,		;GET HIS USERS NAME(2ND HALF)
  1383	001651'	400500	000000		 SETZ N1,		;ZERO IF WE CAN'T GET IT
  1384	001652'	202500	033301'		MOVEM N1,THISUSR+1	;AND SAVE IT
  1385	001653'	260740	002460'		PUSHJ P,GETUSR		;SEE IF TYMSHARE BIT IS ON
  1386	001654'	254000	032751'		JRST SYSERR		;CAN'T FIND USR IN LUD
  1387	001655'	071040	000000		RELEASE DISK,
  1388	001656'	041040	000017		INIT DISK,17
  1389	001657'	446353	000000		SIXBIT /DSK/
  1390	001660'	000000	000000		0
  1391	001661'	254000	032751'		 JRST SYSERR
  1392				;[22]	LOOKUP DISK,GSYS	;[22] We no longer need to look
  1393				;[22]	 JRST NOSYSN		;[22] at (PJ)JOBS.DAT for the system
  1394				;[22]	INPUT DISK,SYSLST	;[22] number.
  1395				;[22]	STATZ DISK,760000
  1396				;[22]	JRST NOSYSN
  1397				;[22]	MOVE A,SYSBLK+1
  1398				;[22]	MOVEM A,THISYS		;SAVE SYSTEM NUMBER
  1399
  1400	001662'	200040	034452'		MOVE	A,[33,,11]	;[22] GETTAB system number from config table
  1401	001663'	047040	000041		GETTAB	A,		;[22] (This is available as far back as /H
  1402	001664'	254000	032751'		 JRST	SYSERR		;[22]  monitors, but not documented.)
  1403	001665'	202040	033277'		MOVEM	A,THISYS	;[22] Save system number
TELECOPY - THE CONTROLLER FOR PDP-10 TELECOPY	MACRO 12.5-46.0 08:11 25-OCT-87 PAGE 17-2
TELECO.MAC	23-DEC-86 12:29		INITIALIZATION ROUTINES

  1404
  1405	001666'	211040	000020		MOVNI A,LICENSE
  1406	001667'	047040	000041		GETTAB A,		;GET LICENSE FOR THIS PROCESS
  1407	001670'	400040	000000		 SETZ A,		;ZERO IF WE CAN'T GET IT
  1408	001671'	660040	000400		TRO A,400		;KEEP AC LICENSE
  1409	001672'	507040	000001		HRLS A,A
  1410	001673'	047040	777770		SETLIC A,		;RETAIN ONLY USERS LICENSE
  1411
  1412	001674'	200040	034453'		MOVE A,[26,,11]
  1413	001675'	047040	000041		GETTAB A,
  1414	001676'	201040	000074		 MOVEI A,^D60
  1415	001677'	202040	000000*		MOVEM A,JFYSEC##      ;JIFFIES/SEC
  1416	001700'	221040	000074		IMULI A,^D60
  1417	001701'	202040	000000*		MOVEM A,JFYMIN##      ;JIFFIES/MIN
  1418	001702'	221040	000074		IMULI A,^D60
  1419	001703'	202040	000000*		MOVEM A,JFYHR##       ;JIFFIES/HR
TELECOPY - THE CONTROLLER FOR PDP-10 TELECOPY	MACRO 12.5-46.0 08:11 25-OCT-87 PAGE 18
TELECO.MAC	23-DEC-86 12:29		INITIALIZATION ROUTINES

  1420	001704'	201040	033134'		MOVEI A,INTTAB		;SET UP INTERRUPTS
  1421	001705'	505040	000006		HRLI A,6		;ENABLE AND CLEAR INTERRUPT SYSTEM
  1422	001706'	047040	777745		INTADR A,
  1423	001707'	255000	000000		 JFCL
  1424	001710'	525040	000004		HRLOI A,4
  1425	001711'	047040	777736		TINASS A,		;ESCAPE(0) ON 4
  1426	001712'	255000	000000		 JFCL
  1427	001713'	205040	420000		MOVSI A,ENABLE+CH4      ;ENABLE CHANNEL 4
  1428	001714'	047040	777744		INTENB A,
  1429	001715'	255000	000000		 JFCL
  1430	001716'	263740	000000		POPJ P,0
TELECOPY - THE CONTROLLER FOR PDP-10 TELECOPY	MACRO 12.5-46.0 08:11 25-OCT-87 PAGE 19
TELECO.MAC	23-DEC-86 12:29		INITIALIZATION ROUTINES

  1431	001717'	550040	001435*	SETCIR:	HRRZ A,AUXPRT
  1432	001720'	505040	007001		HRLI A,7001	;CIR. ZAP (7) ON CHANNEL 1
  1433	001721'	047040	777736		TINASS A,
  1434	001722'	255000	000000		 JFCL
  1435	001723'	505040	000004		HRLI A,4
  1436	001724'	541040	000002		HRRI A,2	;TIMER (4) ON CHANNEL 2
  1437	001725'	047040	777742		INTASS A,
  1438	001726'	255000	000000		 JFCL
  1439	001727'	550040	001717*		HRRZ A,AUXPRT
  1440	001730'	505040	005003		HRLI A,5003	;CHARS. LOST (5) ON CHANNEL 3
  1441	001731'	047040	777736		TINASS A,
  1442	001732'	255000	000000		 JFCL
  1443	001733'	525040	000004	        HRLOI A,4       ;ESCAPE (0) ON CHANNEL 4
  1444	001734'	047040	777736	        TINASS A,
  1445	001735'	255000	000000	        JFCL
  1446	001736'	550040	001727*	        HRRZ A,AUXPRT
  1447	001737'	505040	001005	        HRLI A,1005     ;CHAR PRESENT (1) ON CHANNEL 5
  1448	001740'	047040	777736	        TINASS A,
  1449	001741'	255000	000000	        JFCL
  1450	001742'	525040	002006	        HRLOI A,2006    ;COMMAND PORT BREAK CHAR PRESENT (2) ON CHANNEL 6
  1451	001743'	047040	777736	        TINASS A,
  1452	001744'	255000	000000		 JFCL
  1453				;	HRRZ A,AUXPRT
  1454				;	HRLI A,3007     ;AUX PORT CAUSING TERMINAL WAIT (3) ON CHANNEL 7
  1455				;	TINASS A,
  1456				;	 JFCL
  1457				;	HRRZ A,AUXPRT
  1458				;	HRLI A,4010     ;AUX PORT OUTPUT ROOM (4) ON CHANNEL 8
  1459				;	TINASS A,
  1460				;	 JFCL
  1461	001745'	263740	000000		POPJ P,
  1462
  1463	001746'	400040	000000	SETUPT: SETZ A,
  1464	001747'	047040	777741	        SETTIM A,       ;IN CASE ONGOING TIMER
  1465	001750'	255000	000000	        JFCL
  1466	001751'	200040	034454'		MOVE A,[XWD 1,^D300]	;5 MINUTES
  1467	001752'	047040	777741		SETTIM A,
  1468	001753'	255000	000000		 JFCL
  1469	001754'	263740	000000		POPJ P,0
TELECOPY - THE CONTROLLER FOR PDP-10 TELECOPY	MACRO 12.5-46.0 08:11 25-OCT-87 PAGE 20
TELECO.MAC	23-DEC-86 12:29		- CIRCUIT BUILDING ROUTINE

  1470				SUBTTL - CIRCUIT BUILDING ROUTINE
  1471
  1472				;ROUTINE TO CALCULATE SIZE OF REMOTE USER NAME AND FILE NAME, AND BUILD
  1473				;       CIRCUIT TO REMOTE SYSTEM.
  1474
  1475	001755'	201040	000110	PREP:   MOVEI A,SIZLIN  ;MAXIMUM SIZE OF FILENAME
  1476	001756'	200640	033245'	        MOVE BP,FILPTR
  1477	001757'	260740	001602'	        PUSHJ P,GETSIZ  ;GET SIZE OF FILE NAME
  1478	001760'	202440	000000*	        MOVEM N,FNCT##  ;AND SAVE
  1479	001761'	201040	000014	        MOVEI A,SIZUSR  ;MAXIMUM SIZE OF USERNAME
  1480	001762'	200640	033243'	        MOVE BP,NAMPTR
  1481	001763'	260740	001602'	        PUSHJ P,GETSIZ  ;GET SIZE OF USER NAME
  1482	001764'	202440	000000*	        MOVEM N,UNCT##  ;AND SAVE
  1483	001765'	402000	000414*	        SETZM UPDSW##   ;NOT REPLACING OLD DISC FILE
  1484	001766'	200040	034163'	        MOVE A,SLVTYP
  1485	001767'	306040	000004	        CAIN A,X370
  1486				        JRST [ DMOVE A,THISUSR  ;ON 370 TARGET NAME MUST BE LOGGED IN USERID
  1487				                CAMN A,UNAME(SIDE)
  1488				                CAME B,UNAME+1(SIDE)
  1489				                JRST BADNAM
  1490	001770'	254000	034455'	                JRST .+1]
  1491	001771'	200052	000017	        MOVE A,SYS(SIDE)
  1492	001772'	260740	001774'	        PUSHJ P,GETCIR
  1493	001773'	263740	000000	        POPJ P,
  1494
  1495				;ROUTINE TO BUILD A CIRCUIT, START UP SLAVE AND HANDSHAKE
  1496
  1497	001774'	476000	001067*	GETCIR:	SETOM TIMFLG	;IGNORE TIMEOUTS
  1498	001775'	200101	003032'	        MOVE B,SYSTAB-1(A)
  1499	001776'	556100	034163'	        HLRZM B,SLVTYP
  1500	001777'	552100	034162'	        HRRZM B,SLVMSG
  1501	002000'	316040	034142'		CAMN A,AUXCIR
  1502	002001'	254000	002026'	        JRST GETC1      ;CHANNEL ALREADY EXISTS TO THIS SYSTEM
  1503	002002'	261740	000001	LOSCIR: PUSH P,A        ;SAVE DESIRED SYSTEM NO. ON STACK
  1504	002003'	525100	377777		HRLOI B,DISABLE
  1505	002004'	047100	777744		INTENB B,	;DISABLE ALL CHANNELS
  1506	002005'	255000	000000		 JFCL
  1507	002006'	332000	001736*		SKIPE AUXPRT    ;SKIP IF NO CIRCUIT EXISTS ALREADY
  1508	002007'	260740	032512'		PUSHJ P,ZAPIT   ;CLEAR AUXPRT,AUXCIR,PGMSW
  1509	002010'	332000	002006*	        SKIPE AUXPRT    ;DID WE SHAKE IT OFF
  1510	002011'	254000	033054'	        JRST DEADCR     ;NO, THE BEAST REMAINS
  1511	002012'	260740	002332'		PUSHJ P,ZERSTR		;ZERO AUXSTR BLOCK
  1512	002013'	620400	000001		TRZ F,F370      ;NOT GOING TO 370
  1513	002014'	200700	034163'		MOVE CH,SLVTYP		;GET SLAVE TYPE
  1514	002015'	306700	000004		CAIN CH,X370		;IS IT 370?
  1515	002016'	660400	000001		TRO F,F370		;YES, SET FLAG
  1516	002017'	200640	033244'		MOVE BP,STRPTR
  1517	002020'	200040	033300'		MOVE A,THISUSR
  1518	002021'	260740	001562'		PUSHJ P,STRSIX
  1519	002022'	200040	033301'		MOVE A,THISUSR+1
  1520	002023'	260740	001562'		PUSHJ P,STRSIX
  1521	002024'	262740	034142'	        POP P,AUXCIR
  1522	002025'	260740	002306'		PUSHJ P,BLDIT
TELECOPY - THE CONTROLLER FOR PDP-10 TELECOPY	MACRO 12.5-46.0 08:11 25-OCT-87 PAGE 20-2
TELECO.MAC	23-DEC-86 12:29		- CIRCUIT BUILDING ROUTINE

  1523	002026'	336000	001064*	GETC1:  SKIPN PGMSW     ;DO WE HAVE PROGRAM
  1524	002027'	254000	002064'	        JRST GETC3      ;NO, SEND PROGRAM STRING
  1525	002030'	332000	001416*	        SKIPE TALKSW    ;IS THIS THE TALK COMMAND
  1526	002031'	254000	002162'	        JRST GETCX1     ;NO, EXIT
  1527	002032'	332000	001065*	        SKIPE NEWSW     ;IS PROGRAM NEW VARIETY
  1528	002033'	254000	002036'	        JRST GETC2      ;YES
  1529	002034'	200040	034142'	        MOVE A,AUXCIR   ;NO, MUST LOSE EXISTING CIRCUIT AND START OVER
  1530	002035'	254000	002002'	        JRST LOSCIR
  1531	002036'	201700	000000*	GETC2:  MOVEI CH,QUICOD## ;****** TIMER?
  1532	002037'	260740	001157'	        PUSHJ P,LNKMSG
  1533	002040'	402000	002026*	        SETZM PGMSW     ;NO PROGRAM NOW
  1534	002041'	402000	002032*	        SETZM NEWSW
  1535	002042'	260740	000000*	        PUSHJ P,BIOEND## ;EXIT BLOCK I/O MODE
  1536	002043'	525040	377777	GETCEX: HRLOI A,DISABLE
  1537	002044'	047040	777744	        INTENB A,       ;DISABLE ALL CHANNELS
  1538	002045'	255000	000000	        JFCL
  1539	002046'	201040	001457'	        MOVEI A,CH4INT
  1540	002047'	336000	002030*	        SKIPN TALKSW    ;IS THIS THE TALK COMMAND
  1541	002050'	202040	033143'	        MOVEM A,ESCRTN  ;YES
  1542	002051'	201040	001466'	        MOVEI A,CH5INT
  1543	002052'	202040	033145'	        MOVEM A,GOTRTN
  1544	002053'	201040	033134'	        MOVEI A,INTTAB
  1545	002054'	505040	000006	        HRLI A,6
  1546	002055'	047040	777745	        INTADR A,       ;CLEAR AND REENABLE INTERRUPT SYSTEM
  1547	002056'	255000	000000	        JFCL
  1548	002057'	260740	001717'	        PUSHJ P,SETCIR  ;SET UP INTERRUPT CHANNELS
  1549	002060'	205040	620000	        MOVSI A,ENABLE+CH1+CH4
  1550	002061'	047040	777744	        INTENB A,
  1551	002062'	255000	000000	        JFCL
  1552	002063'	263740	000000	        POPJ P,
  1553	002064'	336000	002047*	GETC3:  SKIPN TALKSW    ;ARE WE IN TALK COMMAND
  1554	002065'	254000	002043'	        JRST GETCEX     ;YES
  1555				; SEND PROGRAM NAME STRING
  1556	002066'	260740	002303'	        PUSHJ P,CROUTS  ;2ND CR LOGS INTO PDP-10 IF A DET JOB EXISTS
  1557	002067'	514040	002010*	        HRLZ A,AUXPRT
  1558	002070'	541040	000005		HRRI A,AUXPTR
  1559	002071'	515100	440700		HRLZI B,440700
  1560	002072'	540100	034162'		HRR B,SLVMSG		;POINTER TO MESSAGE
  1561	002073'	042040	000002		AUXCAL A,B		;SEND START-UP STRING
  1562	002074'	260740	002303'		PUSHJ P,CROUTS
  1563	002075'	602400	000001		TRNE F,F370
  1564					JRST [HRLZI B,440700
  1565						HRRI B,GOME2B
  1566						HRRI A,AUXPTR
  1567						AUXCAL A,B
  1568						PUSHJ P,CROUT
  1569	002076'	254000	034462'			JRST .+1]
  1570	002077'	525040	377777	        HRLOI A,DISABLE
  1571	002100'	047040	777744	        INTENB A,       ;DISABLE ALL CHANNELS
  1572	002101'	255000	000000	        JFCL
  1573	002102'	201040	032424'	        MOVEI A,SYNMSG  ;SET "UNABLE TO SYNCHRONIZE" MESSAGE FOR TIMEOUT
  1574	002103'	202040	034171'	        MOVEM A,TIMMSG
  1575	002104'	201040	033134'		MOVEI A,INTTAB	;INTERRUPT TABLE ADDRESS
TELECOPY - THE CONTROLLER FOR PDP-10 TELECOPY	MACRO 12.5-46.0 08:11 25-OCT-87 PAGE 20-3
TELECO.MAC	23-DEC-86 12:29		- CIRCUIT BUILDING ROUTINE

  1576	002105'	505040	000006		HRLI	A,6
  1577	002106'	047040	777745		INTADR	A,	;CLEAR AND REENABLE INTERRUPT SYSTEM
  1578	002107'	255000	000000		 JFCL
  1579	002110'	260740	001717'		PUSHJ P,SETCIR  ;ASSIGN CHANNELS
  1580	002111'	205040	760000		MOVSI A,ENABLE+CH1+CH2+CH3+CH4
  1581	002112'	047040	777744		INTENB A,	;ENABLE INTERRUPT 1, 2, 3, AND 4
  1582	002113'	255000	000000		 JFCL
  1583	002114'	260740	001746'		PUSHJ P,SETUPT  ;START TIMER GOING
  1584	002115'	402000	001774*		SETZM TIMFLG
  1585
  1586	002116'	200040	034143'		MOVE A,AUXGET#
  1587	002117'	260740	001153'	TRYAGN:	PUSHJ P,GAB
  1588	002120'	302700	000001		CAIE CH,1
  1589	002121'	254000	002117'		JRST TRYAGN
  1590	002122'	260740	001153'	TRYA1:	PUSHJ P,GAB
  1591	002123'	302700	000002		CAIE CH,2
  1592	002124'	254000	002117'		JRST TRYAGN
  1593	002125'	260740	001153'	        PUSHJ P,GAB
  1594	002126'	302700	000003		CAIE CH,3
  1595	002127'	254000	002117'		JRST TRYAGN
  1596	002130'	260740	001153'	        PUSHJ P,GAB
  1597	002131'	302700	000004		CAIE CH,4
  1598	002132'	254000	002117'		JRST TRYAGN
  1599	002133'	260740	002170'	        PUSHJ P,GSYSTYP         ;RETURN CH=LOW ORDER 3 BITS OF SYSTYP
  1600	002134'	301700	000001	        CAIL CH,IX
  1601	002135'	303700	000004	        CAILE CH,X370
  1602	002136'	264000	032466'	        JSR TIMINT    ;FAKE TIMER INTERRUPT
  1603	002137'	202700	034163'	        MOVEM CH,SLVTYP
  1604	002140'	620400	000001	        TRZ F,F370
  1605	002141'	306700	000004	        CAIN CH,X370
  1606	002142'	660400	000001	        TRO F,F370
  1607	002143'	200040	034144'		MOVE A,AUXPUT#
  1608	002144'	042040	000001		AUXCAL A,1
  1609	002145'	042040	000002		AUXCAL A,2
  1610	002146'	042040	000003		AUXCAL A,3
  1611	002147'	042040	000004		AUXCAL A,4
  1612	002150'	260740	002271'	        PUSHJ P,SNDTYP
  1613	002151'	336000	002041*	        SKIPN NEWSW     ;DON'T SEND CR TO NEW SLAVE
  1614	002152'	260740	002301'		PUSHJ P,CROUT
  1615	002153'	476000	002040*	        SETOM PGMSW     ;WE HAVE PROGRAM NOW
  1616	002154'	260740	000000*	        PUSHJ P,BIOMOD## ;ENTER BLOCK I/O MODE
  1617	002155'	525040	377777	        HRLOI A,DISABLE
  1618	002156'	047040	777744	        INTENB A,       ;DISABLE ALL CHANNELS
  1619	002157'	255000	000000	        JFCL
  1620	002160'	201040	032414'	        MOVEI A,RESMSG  ;SET "CIRCUIT NOT RESPONDING" MESSAGE
  1621	002161'	202040	034171'	        MOVEM A,TIMMSG
  1622	002162'	205040	760000	GETCX1: MOVSI A,ENABLE+CH1+CH2+CH3+CH4
  1623	002163'	047040	777744	        INTENB A,
  1624	002164'	255000	000000	        JFCL
  1625	002165'	260740	001746'	        PUSHJ P,SETUPT
  1626	002166'	402000	002115*	        SETZM TIMFLG
  1627	002167'	263740	000000	        POPJ P,
  1628
TELECOPY - THE CONTROLLER FOR PDP-10 TELECOPY	MACRO 12.5-46.0 08:11 25-OCT-87 PAGE 20-4
TELECO.MAC	23-DEC-86 12:29		- CIRCUIT BUILDING ROUTINE

  1629	002170'	260740	001153'	GSYSTYP: PUSHJ P,GAB
  1630	002171'	402000	002151*	        SETZM NEWSW
  1631	002172'	202700	000000*	        MOVEM CH,SYSTYP##
  1632	002173'	606700	000170	        TRNN CH,170
  1633	002174'	263740	000000	        POPJ P,
  1634	002175'	402000	000000*	        SETZM SW10
  1635	002176'	402000	000000*	        SETZM SW940
  1636	002177'	402000	000000*	        SETZM SW370
  1637	002200'	260740	001153'	        PUSHJ P,GAB
  1638	002201'	302700	000000*	        CAIE CH,VERNUM##
  1639	002202'	264000	032466'	GD:    JSR TIMINT    ;FAKE TIMER INTERRUPT
  1640				; ZERO PREVIOUSLY SENT OPTIONS
  1641	002203'	571100	777673	        HRREI B,-^D69
  1642	002204'	200040	034470'	        MOVE A,[-OPTSZ1##,,OPT2##]
  1643	002205'	202101	000000	        MOVEM B,(A)
  1644	002206'	253040	002205'	        AOBJN A,.-1
  1645	002207'	201040	001177*	        MOVEI A,FIXOPT
  1646	002210'	336000	001201*	        SKIPN FIX
  1647	002211'	201040	001200*	        MOVEI A,VAROPT
  1648	002212'	202101	000000	        MOVEM B,(A)
  1649				; SET DEFAULT PARAMETERS FOR THIS TYPE OF SLAVE
  1650	002213'	200040	002172*	        MOVE A,SYSTYP
  1651	002214'	476000	002171*	        SETOM NEWSW
  1652	002215'	405040	000007	        ANDI A,7
  1653	002216'	200100	034163'	        MOVE B,SLVTYP   ;SLAVE TYPE FROM TABLE
  1654	002217'	254001	002220'	        JRST .+1(A)
  1655	002220'	264000	032466'	        JSR TIMINT    ;0
  1656	002221'	254000	002246'	        JRST SET940     ;1
  1657	002222'	264000	032466'	        JSR TIMINT    ;2
  1658	002223'	254000	002235'	        JRST SET10      ;3
  1659	002224'	254000	002230'	        JRST SET370     ;4
  1660	002225'	264000	032466'	        JSR TIMINT    ;5
  1661	002226'	264000	032466'	        JSR TIMINT    ;6
  1662	002227'	264000	032466'	        JSR TIMINT    ;7
  1663	002230'	302100	000004	SET370: CAIE B,X370
  1664	002231'	264000	032466'	        JSR TIMINT
  1665	002232'	476000	002177*	        SETOM SW370##
  1666	002233'	201100	000000*	        MOVEI B,AUTO##
  1667	002234'	254000	002252'	        JRST SET9A
  1668	002235'	302100	000003	SET10:  CAIE B,X
  1669	002236'	264000	032466'	        JSR TIMINT
  1670	002237'	476000	002175*	        SETOM SW10##
  1671	002240'	201040	001016*	        MOVEI A,XMODE##
  1672	002241'	202040	000000*	        MOVEM A,DTPARAM##
  1673	002242'	202040	000000*	        MOVEM A,DRPARAM##
  1674	002243'	201040	000003	        MOVEI A,3       ;BINARY MODE
  1675	002244'	201100	000000*	        MOVEI B,AUTO+ASCII##
  1676	002245'	254000	002260'	        JRST SET9B
  1677	002246'	302100	000001	SET940: CAIE B,IX
  1678	002247'	264000	032466'	        JSR TIMINT
  1679	002250'	476000	002176*	        SETOM SW940##
  1680	002251'	201100	000000*	        MOVEI B,AUTO+ASCII
  1681	002252'	201040	000001	SET9A:  MOVEI A,1
TELECOPY - THE CONTROLLER FOR PDP-10 TELECOPY	MACRO 12.5-46.0 08:11 25-OCT-87 PAGE 20-5
TELECO.MAC	23-DEC-86 12:29		- CIRCUIT BUILDING ROUTINE

  1682	002253'	202040	000000*	        MOVEM A,DTMODE##
  1683	002254'	201040	000775*	        MOVEI A,AMODE
  1684	002255'	202040	002241*	        MOVEM A,DTPARAM
  1685	002256'	202040	002242*	        MOVEM A,DRPARAM
  1686	002257'	334040	002253*	        SKIPA A,DTMODE
  1687	002260'	202040	002257*	SET9B:  MOVEM A,DTMODE
  1688	002261'	202040	000000*	        MOVEM A,DRMODE##
  1689	002262'	202100	000000*	        MOVEM B,DCOPT##
  1690	002263'	201040	001400	        MOVEI A,^D768
  1691	002264'	202040	000000*	        MOVEM A,DTBLOCK##
  1692	002265'	202040	000000*	        MOVEM A,DRBLOCK##
  1693	002266'	200700	002213*	        MOVE CH,SYSTYP
  1694	002267'	405700	000007	        ANDI CH,7
  1695	002270'	263740	000000	        POPJ P,
  1696
  1697	002271'	201700	000003	SNDTYP: MOVEI CH,X
  1698	002272'	332000	002214*	        SKIPE NEWSW
  1699	002273'	435700	000000*	        IORI CH,ACRCAP##+KATCAP##+BINCAP##+UPDCAP##
  1700	002274'	042056	000000	        AUXCAL A,(CH)
  1701	002275'	201700	002201*	        MOVEI CH,VERNUM
  1702	002276'	332000	002272*	        SKIPE NEWSW
  1703	002277'	042056	000000	        AUXCAL A,(CH)
  1704	002300'	263740	000000	        POPJ P,
  1705
  1706	002301'	606400	000001	CROUT:	TRNN F,F370
  1707	002302'	263740	000000		POPJ P,0
  1708	002303'	200540	034144'	CROUTS:	MOVE AUX,AUXPUT
  1709	002304'	042540	000015		AUXCAL AUX,CARRET
  1710	002305'	263740	000000		POPJ P,0
  1711
  1712	002306'	201700	000072	BLDIT:	MOVEI CH,COLON
  1713	002307'	136700	000015		IDPB CH,BP
  1714	002310'	200040	034142'		MOVE A,AUXCIR
  1715	002311'	260740	001572'		PUSHJ P,MAKSYS
  1716	002312'	201700	000073		MOVEI CH,SEMICOL
  1717	002313'	136700	000015		IDPB CH,BP
  1718	002314'	201040	033616'		MOVEI A,AUXSTR
  1719	002315'	047040	777734		CREAUX A,
  1720	002316'	254000	033056'		 JRST NOCIR
  1721	002317'	202040	002067*		MOVEM A,AUXPRT
  1722	002320'	514040	002317*		HRLZ A,AUXPRT
  1723	002321'	541040	000000		HRRI A,AUXIN
  1724	002322'	202040	034143'		MOVEM A,AUXGET
  1725	002323'	541040	000004		HRRI A,AUXOUT
  1726	002324'	202040	034144'		MOVEM A,AUXPUT
  1727	002325'	042040	000015		AUXCAL A,CARRET ;FIRST OF 2 CR'S IN CASE DET JOB ON PDP-10
  1728							;SECOND CR WILL BE SENT WITH PROGRAM NAME
  1729	002326'	260740	002332'		PUSHJ P,ZERSTR
  1730	002327'	200040	034163'	        MOVE A,SLVTYP
  1731	002330'	202040	034145'	        MOVEM A,AUXTYP# ;SAVE TYPE OF CIRCUIT FOR TEARING DOWN
  1732	002331'	263740	000000		POPJ P,0
  1733
  1734	002332'	402000	033616'	ZERSTR:	SETZM AUXSTR
TELECOPY - THE CONTROLLER FOR PDP-10 TELECOPY	MACRO 12.5-46.0 08:11 25-OCT-87 PAGE 20-6
TELECO.MAC	23-DEC-86 12:29		- CIRCUIT BUILDING ROUTINE

  1735	002333'	200040	034471'		MOVE A,[XWD AUXSTR,AUXSTR+1]
  1736	002334'	251040	033633'		BLT A,AUXSTR+SIZLIN/5-1
  1737	002335'	263740	000000		POPJ P,0
TELECOPY - THE CONTROLLER FOR PDP-10 TELECOPY	MACRO 12.5-46.0 08:11 25-OCT-87 PAGE 21
TELECO.MAC	23-DEC-86 12:29		- CIRCUIT BUILDING ROUTINE

  1738				;ROUTINE TO OUTPUT SYNC CHARACTER AND A CODE
  1739	002336'	261740	000016	PUTSPC:	PUSH P,CH
  1740	002337'	201700	000252		MOVEI CH,CONTRL
  1741	002340'	260740	002344'		PUSHJ P,PUTCH
  1742	002341'	262740	000016		POP P,CH
  1743	002342'	260740	002344'		PUSHJ P,PUTCH
  1744	002343'	263740	000000		POPJ P,0
  1745
  1746				;ROUTINE TO OUTPUT 1 CHARACTER OVER AUX. CIRCUIT
  1747	002344'	602400	000001	PUTCH:	TRNE F,F370		;IF 370,
  1748					JUMPE CH,[MOVEI CH,SPACE	;AND SENDING A NULL,
  1749	002345'	322700	034472'			JRST .+1]	;SEND A SPACE INSTEAD
  1750	002346'	200540	034144'		MOVE AUX,AUXPUT
  1751	002347'	042556	000000		AUXCAL AUX,(CH)
  1752	002350'	263740	000000		POPJ P,0
TELECOPY - THE CONTROLLER FOR PDP-10 TELECOPY	MACRO 12.5-46.0 08:11 25-OCT-87 PAGE 22
TELECO.MAC	23-DEC-86 12:29		- CIRCUIT BUILDING ROUTINE

  1753				;TELL SLAVE TO STOP WHAT IT IS DOING
  1754	002351'	260740	002353'	ABORT: PUSHJ P,ABT     ;PRESERVES REGISTERS IN "NEW" CODE
  1755	002352'	254000	000101'	        JRST GETCMD
  1756
  1757	002353'			ABT:
  1758	002353'	261740	000001	CLRIT: PUSH P,A
  1759	002354'	261740	000016	        PUSH P,CH
  1760	002355'	261740	000013	        PUSH P,AUX
  1761	002356'	336000	002153*	        SKIPN PGMSW     ;DO WE HAVE A PROGRAM
  1762	002357'	254000	002373'	        JRST CLR2       ;NO, JUST EMPTY PIPE
  1763	002360'	336000	002276*	        SKIPN NEWSW     ;IS IT NEW VARIETY
  1764	002361'	254000	002365'	        JRST OLDABT     ;NO, OLD
  1765	002362'	201700	000000*	        MOVEI CH,ABTCOD##
  1766	002363'	260740	001157'	        PUSHJ P,LNKMSG
  1767	002364'	254000	002373'	        JRST CLR2
  1768				;SEND 107 AND LOOP TIL ALL CHARACTERS FROM SYSTEM ARE IN
  1769	002365'	200040	034163'	OLDABT: MOVE A,SLVTYP
  1770	002366'	306040	000001	        CAIN A,IX
  1771				        JRST [ MOVEI CH,11
  1772				                PUSHJ P,PUTCH
  1773	002367'	254000	034474'	                JRST CLR2]
  1774	002370'	201700	000107	        MOVEI CH,STAGN
  1775	002371'	260740	002336'		PUSHJ P,PUTSPC
  1776	002372'	260740	002301'		PUSHJ P,CROUT
  1777	002373'	200540	034143'	CLR2: MOVE AUX,AUXGET
  1778	002374'	541540	000001		HRRI AUX,AUXINS ;INPUT AND SKIP IF CHAR THERE
  1779	002375'	201040	000001	CLR1:	MOVEI A,1
  1780	002376'	047040	000031		SLEEP A,
  1781	002377'	042540	000016		AUXCAL AUX,CH
  1782	002400'	334000	000000		SKIPA
  1783	002401'	254000	002375'		JRST CLR1
  1784	002402'	262740	000013	        POP P,AUX
  1785	002403'	262740	000016	        POP P,CH
  1786	002404'	262740	000001	        POP P,A
  1787	002405'	263740	000000		POPJ P,0
TELECOPY - THE CONTROLLER FOR PDP-10 TELECOPY	MACRO 12.5-46.0 08:11 25-OCT-87 PAGE 23
TELECO.MAC	23-DEC-86 12:29		- CIRCUIT BUILDING ROUTINE

  1788				;ASK USER IF ITS OK TO WRITE ON OLD FILE
  1789
  1790	002406'	336000	001412*	CHKOLD:	SKIPN CIN       ;DON'T ASK IF RUNNING FROM COMMANDS FILE
  1791	002407'	332000	000625*	        SKIPE ASK       ;OR IF AUTOMATIC REPLACE/KEEP
  1792	002410'	254000	002412'	        JRST .+2
  1793					OUTSTR	[ASCIZ/
  1794	002411'	001000	034477'	OKAY TO WRITE ON OLD FILE? /]
  1795	002412'	332000	002407*	        SKIPE ASK
  1796	002413'	254000	002417'	        JRST CHKO
  1797	002414'	260740	002432'		PUSHJ P,YESNO
  1798	002415'	254000	002351'	        JRST ABORT
  1799	002416'	263740	000000		POPJ P,0
  1800	002417'	337000	002412*	CHKO:   SKIPG ASK
  1801				        OUTSTR [ASCIZ"
  1802	002420'	001000	034505'	REPLACING FILE "]
  1803	002421'	331000	002417*	        SKIPL ASK
  1804				        OUTSTR [ASCIZ"
  1805	002422'	001000	034511'	KEEPING FILE "]
  1806	002423'	260740	033006'	        PUSHJ P,NAMOUT
  1807	002424'	260740	033033'	        PUSHJ P,SYSOUT
  1808	002425'	260740	033040'	        PUSHJ P,FILOUT
  1809				        OUTSTR [ASCIZ"
  1810	002426'	001000	034203'	"]
  1811	002427'	331000	002421*	        SKIPL ASK
  1812	002430'	254000	002351'	        JRST ABORT
  1813	002431'	263740	000000	        POPJ P,
TELECOPY - THE CONTROLLER FOR PDP-10 TELECOPY	MACRO 12.5-46.0 08:11 25-OCT-87 PAGE 24
TELECO.MAC	23-DEC-86 12:29		MAKE USER ANSWER YES OR NO

  1814				SUBTTL MAKE USER ANSWER YES OR NO
  1815
  1816	002432'	476000	002166*	YESNO: SETOM TIMFLG
  1817	002433'	002000	000016		INCHWL CH
  1818	002434'	261740	000016		PUSH P,CH		;SAVE FIRST CHARACTER INPUT
  1819	002435'	002000	000016		INCHWL CH
  1820	002436'	302700	000012		CAIE CH,LNFEED		;LOOP TIL LINE FEED FOUND
  1821	002437'	254000	002435'		JRST .-2
  1822	002440'	262740	000016		POP P,CH		;GET FIRST CHARACTER INPUT
  1823	002441'	302700	000156		CAIE CH,"N"+40
  1824	002442'	306700	000116		CAIN CH,"N"
  1825	002443'	263740	000000		POPJ P,0
  1826	002444'	302700	000171		CAIE CH,"Y"+40
  1827	002445'	306700	000131		CAIN CH,"Y"
  1828	002446'	254000	002456'		JRST SKPRET
  1829	002447'	332000	002406*	        SKIPE CIN       ;IF RUNNING FROM COMMANDS FILE, EXIT
  1830	002450'	254000	002454'	        JRST YESN2
  1831					OUTSTR [ASCIZ /
  1832	002451'	001000	034515'	PLEASE TYPE 'Y' OR 'N': /]
  1833	002452'	006000	000000		CLRBFI
  1834	002453'	254000	002432'		JRST YESNO
  1835
  1836				YESN2: OUTSTR [ASCIZ"
  1837				COMMANDS FILE NEEDS 'Y' OR 'N' RESPONSE--PROGRAM TERMINATED
  1838	002454'	001000	034523'	"]
  1839	002455'	254000	000507'	 JRST ENDIT
  1840	002456'	350017	000000	SKPRET:	AOS (P)
  1841	002457'	263740	000000		POPJ P,0
TELECOPY - THE CONTROLLER FOR PDP-10 TELECOPY	MACRO 12.5-46.0 08:11 25-OCT-87 PAGE 25
TELECO.MAC	23-DEC-86 12:29		MAKE USER ANSWER YES OR NO

  1842				;GET CONTROLLING USER'S NAME IN LUD AND KEEP HIS TYMSHARE BIT
  1843
  1844	002460'	076040	033126'	GETUSR:	LOOKUP 1,LUDLOK
  1845	002461'	254000	032751'		JRST SYSERR
  1846	002462'	260740	002507'		PUSHJ P,HASHER
  1847	002463'	202440	034152'		MOVEM N,HUNAME#	;HASHED USR NAME
  1848	002464'	202500	034150'		MOVEM N1,HLOC#	;HASH LOCATION
  1849	002465'	074060	034150'	RD:	USETI 1,@HLOC
  1850	002466'	066040	033132'		INPUT 1,SYSLST
  1851	002467'	063040	760000		STATZ 1,760000
  1852	002470'	254000	032751'		JRST SYSERR
  1853	002471'	200040	034152'		MOVE A,HUNAME
  1854	002472'	400640	000000		SETZ INDEX,
  1855	002473'	336015	033634'	SETDEX:	SKIPN ,SYSBLK(INDEX)
  1856	002474'	263740	000000		POPJ P,0
  1857	002475'	135140	034540'		LDB C,[POINT 7,SYSBLK+2(INDEX),35]
  1858	002476'	316055	033640'		CAMN A,SYSBLK+4(INDEX)
  1859					JRST [LDB A,[POINT 1,SYSBLK+3(INDEX),21]
  1860						MOVEM A,TYMBIT
  1861						AOS (P)
  1862	002477'	254000	034542'			POPJ P,0]
  1863	002500'	337015	033634'		SKIPG ,SYSBLK(INDEX)
  1864	002501'	254000	002504'		JRST .+3
  1865	002502'	270640	000003		ADD INDEX,C
  1866	002503'	254000	002473'		JRST SETDEX
  1867	002504'	550155	033634'		HRRZ C,SYSBLK(INDEX)
  1868	002505'	202140	034150'		MOVEM C,HLOC
  1869	002506'	254000	002465'		JRST RD
TELECOPY - THE CONTROLLER FOR PDP-10 TELECOPY	MACRO 12.5-46.0 08:11 25-OCT-87 PAGE 26
TELECO.MAC	23-DEC-86 12:29		MAKE USER ANSWER YES OR NO

  1870	002507'	201100	000000	HASHER:	MOVEI B,0
  1871	002510'	200140	034546'		MOVE C,[555555555555]
  1872	002511'	200200	034547'		MOVE D,[361275431652]
  1873	002512'	200240	034550'		MOVE E,[612754316523]
  1874	002513'	264000	002527'		JSR RND
  1875	002514'	264000	002527'		JSR RND
  1876	002515'	264000	002527'		JSR RND
  1877	002516'	264000	002527'		JSR RND
  1878	002517'	430240	000004		XOR E,D
  1879	002520'	200440	000005		MOVE  N,E
  1880	002521'	621440	400000		TLZ N,400000
  1881	002522'	231440	001567		IDIVI N,^D887
  1882	002523'	200440	000005		MOVE N,E
  1883	002524'	430440	000003		XOR N,C
  1884	002525'	271500	000001		ADDI N1,1
  1885	002526'	263740	000000		POPJ P,0
  1886
  1887	002527'	000000	000000	RND:	0
  1888	002530'	270200	000011		ADD D,N
  1889	002531'	245440	777756		ROTC N,-22
  1890	002532'	201040	000005		MOVEI A,5
  1891	002533'	200542	000004	RND1:	MOVE N2,C+1(B)
  1892	002534'	224540	034551'		MUL N2,[5*5*5*5*5*5*5*5*5*5*5*5*5*5*5]
  1893	002535'	272602	000005		ADDM N3,D+1(B)
  1894	002536'	342100	002544'		AOJE B,RND2
  1895	002537'	211100	000001		MOVNI B,1
  1896	002540'	602200	000001		TRNE D,1
  1897	002541'	331000	000005		SKIPL E
  1898	002542'	201100	000000		MOVEI B,0
  1899	002543'	250140	000005		EXCH C,E
  1900	002544'	367040	002533'	RND2:	SOJG A,RND1
  1901	002545'	254020	002527'		JRST  @RND
TELECOPY - THE CONTROLLER FOR PDP-10 TELECOPY	MACRO 12.5-46.0 08:11 25-OCT-87 PAGE 27
TELECO.MAC	23-DEC-86 12:29		- INPUT INFO ABOUT FILES FROM TELETYP

  1902				SUBTTL - INPUT INFO ABOUT FILES FROM TELETYP
  1903
  1904	002546'	201500	033521'	GETC:	MOVEI SIDE,DBLK		;SET UP FOR FROM SIDE FIRST
  1905	002547'	201440	000006		MOVEI N,SIZFIL
  1906	002550'	200540	033246'		MOVE OPTR,WDPTR
  1907	002551'	260740	026461'		PUSHJ P,GETCHS
  1908	002552'	306700	000050		CAIN CH,LPAREN		;IS IT A LEFT PARENTHESES?
  1909	002553'	254000	002567'		 JRST GTFUN		;YES, GO GET THE FROM USER NAME
  1910	002554'	602400	004000		TRNE F,HAS2BOLD
  1911	002555'	254000	032743'		 JRST SYNERR
  1912	002556'	620400	000200		TRZ F,OLDFORM		;IT IS NOT OF THE OLD STANDARD FORM
  1913	002557'	302700	000040		CAIE CH,SPACE
  1914	002560'	306700	000015		 CAIN CH,CARRET
  1915					  JRST [CAIN CH,CARRET
  1916						 TRZ F,MOREIN
  1917						TRNE F,MOREIN
  1918						 JRST CHKCMD
  1919						MOVE A,WD
  1920						AND A,MASK	;GET FIRST CHARACTER ONLY
  1921						CAME A,YES
  1922						 CAMN A,NO
  1923						  JRST GETCMD	;IGNORE A YES OR NO
  1924	002561'	254000	034552'			JRST CHKCMD]	;GO TO COMMAND DISPATCHER
  1925	002562'	302700	000072		CAIE CH,COLON
  1926	002563'	254000	032743'		 JRST SYNERR
  1927	002564'	602400	000100		TRNE F,CANAGN
  1928	002565'	254000	002627'		 JRST SAMFIL		;NEW SYSTEM ONLY FOR OLD FILES
  1929	002566'	254000	032743'		JRST SYNERR		;ERROR
  1930	002567'	476000	033517'	GTFUN:	SETOM NOPRMT
  1931	002570'	660400	000200		TRO F,OLDFORM		;INPUT MAY BE IN STANDARD FORM
  1932	002571'	260740	026452'		PUSHJ P,GTNSYS		;GET NAME AND SYSTEM
  1933	002572'	402000	034167'	        setzm   strsys
  1934	002573'	260740	002704'		PUSHJ P,GTFNM		;GET FILE NAME
  1935	002574'	306700	000015		CAIN CH,CARRET
  1936					 JRST [TRNE F,OLDFORM
  1937						JRST GETOLD	;GO GET SECOND LINE OF STANDARD FORM
  1938	002575'	254000	034564'			JRST SYNERR]
  1939	002576'	602400	004000		TRNE F,HAS2BOLD
  1940	002577'	254000	032743'		 JRST SYNERR
  1941	002600'	620400	000200		TRZ F,OLDFORM
  1942	002601'	202640	033304'		MOVEM PTR,LSTFPT
  1943	002602'	202700	033306'		MOVEM CH,LSTFCH
  1944	002603'	201500	033560'		MOVEI SIDE,RBLK		;NOW DO TO SIDE
  1945	002604'	260740	002754'		PUSHJ P,FIN2ND		;SCAN TO TO SIDE
  1946	002605'	306700	000050		CAIN CH,LPAREN
  1947					 JRST [PUSHJ P,GTNSYS	;GET NAME AND SYS
  1948	002606'	254000	034567'			JRST GTTFIL]	;AND GO GET TO FILE
  1949	002607'	302700	000072		CAIE CH,COLON
  1950	002610'	254000	032743'		 JRST SYNERR
  1951	002611'	260740	003010'		PUSHJ P,GETSYS		;GET SYSTEM
TELECOPY - THE CONTROLLER FOR PDP-10 TELECOPY	MACRO 12.5-46.0 08:11 25-OCT-87 PAGE 28
TELECO.MAC	23-DEC-86 12:29		- INPUT INFO ABOUT FILES FROM TELETYP

  1952	002612'	260740	002672'	GTTFIL:	PUSHJ P,CHKNXT
  1953	002613'	302040	000015		CAIE A,CARRET
  1954	002614'	306700	000015		 CAIN CH,CARRET
  1955	002615'	334000	000000		  SKIPA
  1956					   JRST [PUSHJ P,GTFNM
  1957	002616'	254000	034571'			 JRST GTTF1]
  1958	002617'	660400	002000		TRO F,NOTOFIL
  1959	002620'	260740	002765'		PUSHJ P,SETTF		;MAKE TO FILE SAME AS FROM FILE
  1960	002621'	260740	003001'	GTTF1:	PUSHJ P,SETUNM
  1961	002622'	336000	033577'		SKIPN RBLK+SYS		;IF NO SYSTEM
  1962	002623'	254000	032743'		 JRST SYNERR		;IT'S AN ERROR
  1963	002624'	202640	033303'		MOVEM PTR,LSTTPT
  1964	002625'	202700	033305'		MOVEM CH,LSTTCH
  1965	002626'	254000	000343'		JRST RUNIT
  1966
  1967
  1968	002627'	201500	033560'	SAMFIL:	MOVEI SIDE,RBLK		;PRETEND WE ARE GETTING NEW "TO" SYSTEM
  1969	002630'	260740	003010'		PUSHJ P,GETSYS		;AND GO GET IT
  1970	002631'	200052	000017		MOVE A,SYS(SIDE)
  1971	002632'	202040	034156'		MOVEM A,NXTSYS		;AND SAVE IT
  1972	002633'	200140	034573'		MOVE C,[XWD OLDCMD,INBLK]
  1973	002634'	251140	033402'		BLT C,INBLK+MAXWDS-1	;AND RESTORE IT
  1974	002635'	660400	041200		TRO F,NEWSYS+MOREIN+OLDFORM
  1975	002636'	200640	033250'		MOVE PTR,INBPTR
  1976	002637'	254000	002546'		JRST GETC
TELECOPY - THE CONTROLLER FOR PDP-10 TELECOPY	MACRO 12.5-46.0 08:11 25-OCT-87 PAGE 29
TELECO.MAC	23-DEC-86 12:29		- INPUT INFO ABOUT FILES FROM TELETYP

  1977	002640'	200640	033304'	GETNXT:	MOVE PTR,LSTFPT
  1978	002641'	200700	033306'		MOVE CH,LSTFCH
  1979	002642'	260740	002672'		PUSHJ P,CHKNXT
  1980	002643'	306700	000054		CAIN CH,COMMA
  1981					 JRST [MOVE A,SAVPTR
  1982						CAME A,FIRPTR
  1983						 JRST GETN1
  1984	002644'	254000	034574'			JRST GETN2]
  1985	002645'	312640	033302'	GETN1:	CAME PTR,FIRPTR
  1986	002646'	254000	002652'		 JRST GETN3
  1987	002647'	621400	000002	GETN2:	TLZ F,MORETR
  1988	002650'	620400	001000		TRZ F,MOREIN
  1989	002651'	254000	000103'		JRST GETCMD+2
  1990
  1991	002652'	201500	033521'	GETN3:	MOVEI SIDE,DBLK
  1992	002653'	660400	001000		TRO F,MOREIN
  1993	002654'	260740	002704'		PUSHJ P,GTFNM
  1994	002655'	202700	033306'		MOVEM CH,LSTFCH
  1995	002656'	202640	033304'		MOVEM PTR,LSTFPT
  1996	002657'	602400	002000		TRNE F,NOTOFIL
  1997					 JRST [PUSHJ P,SETTF+2
  1998	002660'	254000	034600'			JRST RUNIT]
  1999	002661'	201500	033560'		MOVEI SIDE,RBLK
  2000	002662'	200640	033303'		MOVE PTR,LSTTPT
  2001	002663'	200700	033305'		MOVE CH,LSTTCH
  2002	002664'	302700	000054		CAIE CH,COMMA
  2003	002665'	254000	032743'		 JRST SYNERR
  2004	002666'	260740	002704'		PUSHJ P,GTFNM
  2005	002667'	202700	033305'		MOVEM CH,LSTTCH
  2006	002670'	202640	033303'		MOVEM PTR,LSTTPT
  2007	002671'	254000	000343'		JRST RUNIT
  2008
  2009	002672'	202640	034161'	CHKNXT:	MOVEM PTR,SAVPTR#
  2010	002673'	134040	000015		ILDB A,PTR
  2011	002674'	250640	034161'		EXCH PTR,SAVPTR
  2012	002675'	263740	000000		POPJ P,0
  2013
  2014	002676'			GETUNAM:
  2015	002676'	201440	000014		MOVEI N,SIZUSR
  2016	002677'	660400	000074		TRO F,NAMFLG
  2017	002700'	200540	033243'		MOVE OPTR,NAMPTR
  2018	002701'	260740	026461'		PUSHJ P,GETCHS
  2019	002702'	620400	000074		TRZ F,NAMFLG
  2020	002703'	263740	000000		POPJ P,0
TELECOPY - THE CONTROLLER FOR PDP-10 TELECOPY	MACRO 12.5-46.0 08:11 25-OCT-87 PAGE 30
TELECO.MAC	23-DEC-86 12:29		- INPUT INFO ABOUT FILES FROM TELETYP

  2021	002704'	660400	020040	GTFNM:	TRO F,SKPCOM+SPOK	;SKIP A LEADING COMMA
  2022	002705'	200052	000017		MOVE A,SYS(SIDE)
  2023				;[22]	HLRZ A,SYSTAB(A)	;GET SYSTEM TYPE
  2024	002706'	554041	003032'		HLRZ A,SYSTAB-1(A)	;[22] Fencepost error
  2025	002707'	306040	000004		CAIN A,X370		;IF 370,
  2026	002710'	660400	000040		 TRO F,SPOK		;ALLOW SPACES
  2027	002711'	402012	000020		SETZM FNAME(SIDE)
  2028	002712'	201440	000110		MOVEI N,SIZLIN
  2029	002713'	200040	000012		MOVE A,SIDE
  2030	002714'	271040	000020		ADDI A,FNAME
  2031	002715'	507000	000001		HRLS A
  2032	002716'	550100	000001		HRRZ B,A
  2033	002717'	271040	000001		ADDI A,1
  2034	002720'	271100	000014		ADDI B,SIZUSR
  2035	002721'	251060	000002		BLT A,@B		;ZERO ENTIRE FILE NAME
  2036	002722'	660400	010000		TRO F,SPCDEL
  2037	002723'	200540	033245'		MOVE OPTR,FILPTR
  2038	002724'	260740	026461'		PUSHJ P,GETCHS
  2039	002725'	201040	000110		MOVEI A,SIZLIN
  2040	002726'	274040	000011		SUB A,N
  2041	002727'	202052	777777		MOVEM A,FSIZE(SIDE)	;SAVE LENGTH OF FILE NAME
  2042	002730'	402012	000002		SETZM FILE(SIDE)
  2043	002731'	402012	000003		SETZM EXT(SIDE)
  2044	002732'	200540	033245'		MOVE OPTR,FILPTR
  2045	002733'	200100	034602'		MOVE B,[POINT 6,FILE(SIDE)]	;IN CASE PDP10
  2046	002734'	201140	000110		MOVEI C,SIZLIN
  2047	002735'	201040	000006		MOVEI A,SIZFIL
  2048	002736'	134200	000013	FN1:	ILDB D,OPTR
  2049	002737'	306200	000016		CAIN D,DOT-ASCSIX
  2050	002740'	254000	002745'		 JRST SETEXT
  2051	002741'	371000	000001		SOSL A
  2052	002742'	136200	000002		IDPB D,B
  2053	002743'	367140	002736'		SOJG C,FN1
  2054	002744'	263740	000000		POPJ P,0
  2055
  2056	002745'	201040	000003	SETEXT:	MOVEI A,SIZEXT
  2057	002746'	200100	034603'		MOVE B,[POINT 6,EXT(SIDE)]
  2058	002747'	134200	000013	SETEX1:	ILDB D,OPTR
  2059	002750'	371000	000001		SOSL A
  2060	002751'	136200	000002		 IDPB D,B
  2061	002752'	367140	002747'		SOJG C,SETEX1
  2062	002753'	263740	000000		POPJ P,0
  2063
  2064	002754'	202640	033302'	FIN2ND:	MOVEM PTR,FIRPTR
  2065	002755'	302700	000050		CAIE CH,LPAREN
  2066	002756'	306700	000072		 CAIN CH,COLON
  2067	002757'	263740	000000		  POPJ P,0
  2068	002760'	306700	000015		CAIN CH,CARRET
  2069	002761'	254000	032743'		 JRST SYNERR
  2070	002762'	661400	000002		TLO F,MORETR
  2071	002763'	134700	000015		ILDB CH,PTR
  2072	002764'	254000	002754'		JRST FIN2ND
TELECOPY - THE CONTROLLER FOR PDP-10 TELECOPY	MACRO 12.5-46.0 08:11 25-OCT-87 PAGE 31
TELECO.MAC	23-DEC-86 12:29		- INPUT INFO ABOUT FILES FROM TELETYP

  2073	002765'	332000	033562'	SETTF:	SKIPE RBLK+FILE
  2074	002766'	263740	000000		 POPJ P,0
  2075	002767'	200040	033520'		MOVE A,DBLK+FSIZE
  2076	002770'	202040	033557'		MOVEM A,RBLK+FSIZE
  2077	002771'	200040	033523'		MOVE A,DBLK+FILE
  2078	002772'	202040	033562'		MOVEM A,RBLK+FILE
  2079	002773'	200040	033524'		MOVE A,DBLK+EXT
  2080	002774'	202040	033563'		MOVEM A,RBLK+EXT
  2081	002775'	515040	033541'		HRLZI A,DBLK+FNAME
  2082	002776'	541040	033600'		HRRI A,RBLK+FNAME
  2083	002777'	251040	033617'		BLT A,RBLK+FNAME+MAXFIL
  2084	003000'	263740	000000		POPJ P,0
  2085
  2086	003001'	332000	033575'	SETUNM:	SKIPE RBLK+UNAME
  2087	003002'	263740	000000		 POPJ P,0
  2088	003003'	200040	033536'		MOVE A,DBLK+UNAME
  2089	003004'	202040	033575'		MOVEM A,RBLK+UNAME
  2090	003005'	200040	033537'		MOVE A,DBLK+UNAME+1
  2091	003006'	202040	033576'		MOVEM A,RBLK+UNAME+1
  2092	003007'	263740	000000		POPJ P,0
TELECOPY - THE CONTROLLER FOR PDP-10 TELECOPY	MACRO 12.5-46.0 08:11 25-OCT-87 PAGE 32
TELECO.MAC	23-DEC-86 12:29		- INPUT AND CHECK SYSTEM

  2093				SUBTTL - INPUT AND CHECK SYSTEM
  2094
  2095	003010'	260740	026617'	GETSYS:	PUSHJ P,NUMIN
  2096	003011'	326440	003015'		JUMPN N,GETSY1
  2097	003012'	306700	000052		CAIN CH,STAR
  2098					 JRST [MOVE N,THISYS
  2099						MOVEM N,SYS(SIDE)
  2100						ILDB CH,BP
  2101				                setom   strsys
  2102	003013'	254000	034604'			JRST CHKSYS]
  2103	003014'	322440	032743'		JUMPE N,SYNERR
  2104	003015'	303440	023417	GETSY1:	CAILE N,HGHSYS
  2105	003016'	254000	032743'		 JRST SYNERR
  2106	003017'	202452	000017		MOVEM N,SYS(SIDE)
  2107	003020'	306700	000051		CAIN CH,RPAREN
  2108	003021'	134700	000015	CHKSYS:	 ILDB CH,PTR
  2109	003022'	316440	033277'		CAMN N,THISYS		;IF NOT CONTROLLING SYSTEM...
  2110	003023'	263740	000000		 POPJ P,0
  2111	003024'	200051	003032'		MOVE A,SYSTAB-1(N)	;SAVE INFO
  2112	003025'	322040	003031'		JUMPE A,BADSYS
  2113	003026'	556040	034163'		HLRZM A,SLVTYP
  2114	003027'	552040	034162'		HRRZM A,SLVMSG#		;SAVE ADDRESS OF LOGIN MESSAGE
  2115	003030'	263740	000000		POPJ P,0
  2116
  2117				BADSYS: OUTSTR [ASCIZ /
  2118				TELECOPY IS NOT AVAILABLE ON THAT SYSTEM.
  2119	003031'	001000	034611'	/]
  2120	003032'	254000	000101'		JRST GETCMD
TELECOPY - THE CONTROLLER FOR PDP-10 TELECOPY	MACRO 12.5-46.0 08:11 25-OCT-87 PAGE 33
TELECO.MAC	23-DEC-86 12:29		- INPUT AND CHECK SYSTEM

  2121				; [22]  Define the system table (aka system map).
  2122
  2123				define MKSTB(Low,High,SysTyp,SysMsg)<
  2124				 ifn zz-Low+1,<printx Error in macro at SYSTAB:>
  2125				 xlist
  2126				 repeat High-Low+1,< SysTyp,,SysMsg >
  2127				 list
  2128				 zz==zz+High-Low+1
  2129				>
  2130
  2131				; This table is correct as of 9-APR-85 /DJB
  2132
  2133			000000		zz==0
  2134	003033'			SYSTAB:	MKSTB(    ^d1,   ^d21,   IX, GoMes1 )^
  2135					MKSTB(   ^d22,   ^d39,    X, GoMes  )^
  2136					MKSTB(   ^d40,   ^d53, X370, GoMe2A )^
  2137					MKSTB(   ^d54,   ^d60,    X, GoMes  )^
  2138					MKSTB(   ^d61,   ^d64, X370, GoMe2A )^
  2139					MKSTB(   ^d65,   ^d65,    X, GoMes  )^
  2140					MKSTB(   ^d66,   ^d69, X370, GoMe2A )^
  2141					MKSTB(   ^d70,   ^d81,    X, GoMes  )^
  2142					MKSTB(   ^d82,   ^d82, X370, GoMe2A )^
  2143					MKSTB(   ^d83,   ^d84,    X, GoMes  )^
  2144					MKSTB(   ^d85,   ^d85, X370, GoMe2A )^
  2145					MKSTB(   ^d86,  ^d141,    X, GoMes  )^
  2146					MKSTB(  ^d142,  ^d142, X370, GoMe2A )^
  2147					MKSTB(  ^d143,  ^d157,    X, GoMes  )^
  2148					MKSTB(  ^d158,  ^d158, X370, GoMe2A )^
  2149					MKSTB(  ^d159, ^d9999,    X, GoMes  )^
  2150			023417	HGHSYS==.-SYSTAB
TELECOPY - THE CONTROLLER FOR PDP-10 TELECOPY	MACRO 12.5-46.0 08:11 25-OCT-87 PAGE 34
TELECO.MAC	23-DEC-86 12:29		- INPUT AND CHECK SYSTEM

  2151	026452'	260740	002676'	GTNSYS:	PUSHJ P,GETUNAM
  2152	026453'	302700	000072		CAIE CH,COLON
  2153					 JRST [TRZ F,OLDFORM
  2154						TRNE F,HAS2BOLD
  2155						 JRST SYNERR
  2156						MOVE A,THISYS
  2157						MOVEM A,SYS(SIDE)
  2158	026454'	254000	034623'			JRST GETNS1]
  2159	026455'	260740	003010'		PUSHJ P,GETSYS
  2160	026456'	302700	000051	GETNS1:	CAIE CH,RPAREN
  2161	026457'	254000	032743'		 JRST SYNERR
  2162	026460'	263740	000000		POPJ P,0
TELECOPY - THE CONTROLLER FOR PDP-10 TELECOPY	MACRO 12.5-46.0 08:11 25-OCT-87 PAGE 35
TELECO.MAC	23-DEC-86 12:29		- INPUT AND CHECK SYSTEM

  2163				; ROUTINE TO TAKE CHARACTERS FROM THE INPUT LINE AND
  2164				; RETURN THEM IN PTR
  2165				; N/ MAXIMUM NUMBER OF CHARS TO RETAIN(UP TO 72)
  2166				; PTR/ POINTER TO INPUT STRING
  2167				; OPTR/ POINTER TO OUTPUT STRING
  2168
  2169	026461'	620400	200000	GETCHS:	TRZ	F,NONSPC	;HAVE NOT FOUND A NON-SPACE CHAR. YET
  2170	026462'	200040	000013		MOVE	A,OPTR		;ZERO OUT FIRST 2 WORDS
  2171	026463'	402020	000001		SETZM	@A
  2172	026464'	271040	000001		ADDI	A,1
  2173	026465'	303440	000006		CAILE	N,SIZFIL	;IF WE ARE LOOKING FOR MORE THAN 1 WORD,
  2174	026466'	402020	000001		 SETZM	@A		;ZERO THE SECOND
  2175	026467'	606400	001000		TRNN	F,MOREIN
  2176	026470'	260740	026565'		 PUSHJ	P,GETLIN	;IF WE NEED MORE FROM THE TTY, GO GET IT
  2177	026471'	260740	026537'	GTNXTC:	PUSHJ	P,GETONE	;GET THE NEXT CHARACTER
  2178	026472'	254000	026501'		JRST	DELFND		;IT WAS NOT AN ALPHA-NUMERIC
  2179	026473'	660400	200000		TRO	F,NONSPC	;FOUND A NON-SPACE CHARACTER
  2180	026474'	620400	020000	NODEL:	TRZ	F,SKPCOM	;THIS IS NOT A LEADING COMMA
  2181	026475'	275700	000040		SUBI	CH,SPACE	;CONVERT TO SIXBIT
  2182	026476'	361440	026471'		SOJL	N,GTNXTC	;JUST GET ANOTHER IF COUNT HAS NOT BEEN EXHAUSTED
  2183	026477'	136700	000013		IDPB	CH,OPTR		;SAVE CHARACTER
  2184	026500'	254000	026471'		JRST	GTNXTC		;AND GET ANOTHER
  2185	026501'	622400	020000	DELFND:	TRZE	F,SKPCOM	;TURN OFF FIRST TIME THRU
  2186	026502'	302700	000054		CAIE	CH,COMMA	;FOUND A LEADING COMMA!
  2187	026503'	334000	000000		 SKIPA
  2188	026504'	254000	026471'		JRST	GTNXTC		;IGNORE IT
  2189	026505'	306700	000015		CAIN	CH,CARRET	;IF CARRIAGE RETURN
  2190					 JRST	[TRZ F,MOREIN
  2191	026506'	254000	034631'			 JRST RETCHS]
  2192	026507'	306700	000040		CAIN	CH,SPACE	;IF WE HAVE A SPACE
  2193					 JRST	[TRNN F,NONSPC
  2194						  JRST GTNXTC
  2195						 TRNE F,SPOK
  2196						  JRST NODEL
  2197	026510'	254000	034633'			 JRST RETCHS]
  2198	026511'	602400	010000		TRNE	F,SPCDEL	;IF WE ARE WAITING FOR SPECIAL DELIMITER,
  2199	026512'	254000	026526'		 JRST	CHKSPC		;GO SEE IF WE GOT ONE
  2200	026513'	660400	200000		TRO	F,NONSPC
  2201	026514'	306700	000052		CAIN	CH,STAR		;IF WE HAVE A STAR,
  2202					 JRST	[TRNE F,STAROK	;AND IT IS ACCEPTABLE,
  2203						  JRST NODEL	;CONSIDER IT A REGULAR CHARACTER
  2204	026515'	254000	034640'			 JRST RETCHS]
  2205	026516'	306700	000057		CAIN	CH,SLASH	;IF WE HAVE A SLASH,
  2206					JRST	[TRNE F,SLAOK	;AND IT IS ACCEPTABLE,
  2207						  JRST NODEL	;CONSIDER IT A REGULAR CHARACTER
  2208	026517'	254000	034643'			 JRST RETCHS]
  2209	026520'	306700	000056		CAIN	CH,DOT		;IF WE HAVE A PERIOD,
  2210					JRST	[TRNE F,DOTOK	;AND IT IS ACCEPTABLE,
  2211						  JRST NODEL	;CONSIDER IT A REGULAR CHARACTER
  2212	026521'	254000	034646'			 JRST RETCHS]
  2213	026522'	306700	000055	        cain    ch,dash		;A dash may be used in the host type
  2214	026523'	254000	026474'	         jrst	nodel		;If it is a dash, then act natural
  2215	026524'	620400	010474	RETCHS:	TRZ	F,NAMFLG+SPCDEL+ALLNUM
TELECOPY - THE CONTROLLER FOR PDP-10 TELECOPY	MACRO 12.5-46.0 08:11 25-OCT-87 PAGE 35-2
TELECO.MAC	23-DEC-86 12:29		- INPUT AND CHECK SYSTEM

  2216	026525'	263740	000000		POPJ	P,0
TELECOPY - THE CONTROLLER FOR PDP-10 TELECOPY	MACRO 12.5-46.0 08:11 25-OCT-87 PAGE 36
TELECO.MAC	23-DEC-86 12:29		- INPUT AND CHECK SYSTEM

  2217	026526'	200040	034651'	CHKSPC:	MOVE	A,[XWD -SPCLEN,SPCTAB]	;GET TABLE OF SPECIAL DELIMITERS
  2218	026527'	316701	000000		CAMN	CH,0(A)		;IS IT A SPECIAL DELIMITER?
  2219	026530'	254000	026524'		 JRST	RETCHS		;YES, RETURN
  2220	026531'	253040	026527'		AOBJN	A,.-2		;CHECK NEXT ONE
  2221	026532'	254000	026474'		JRST	NODEL		;NO, KEEP LOOING FOR ONE.
  2222
  2223	026533'	000000	000054	SPCTAB:	COMMA
  2224	026534'	000000	000072		COLON
  2225	026535'	000000	000050		LPAREN
  2226	026536'	000000	000015		CARRET
  2227			000004	SPCLEN==.-SPCTAB
  2228
  2229	026537'	202640	034157'	GETONE:	MOVEM	PTR,OLDPTR#	;SAVE IN CASE WE HAVE TO GET LAST NON-NUMERIC
  2230	026540'	134700	000015		ILDB	CH,PTR		;GET NEXT CHAR. FROM BUFFER
  2231	026541'	306700	000077		CAIN	CH,QMARK	;IF A "?" - GO HELP THE POOR SHNOOK
  2232					 JRST	[TRZ F,MOREIN+NAMFLG+SPCDEL+ALLNUM
  2233	026542'	254000	034652'			 JRST HELP]
  2234	026543'	301700	000140		CAIL	CH,140
  2235	026544'	275700	000040		 SUBI	CH,SPACE	;IF LOWER CASE, CONVERT TO UPPPER
  2236	026545'	301700	000060		CAIL	CH,ZEROCH
  2237	026546'	303700	000071		 CAILE	CH,NINECH
  2238	026547'	334000	000000		  SKIPA			;NOT A NUMERIC
  2239	026550'	254000	026563'		JRST	GOTONE		;FOUND A NUMBER!
  2240	026551'	606400	000400		trnn	f,allnum	;are we looking for only numerics?
  2241	026552'	254000	026560'		 jrst	nonum		;no, we are not
  2242	026553'	302700	000073		caie	ch,semicol	;a # and ";" suggest a gateway command
  2243	026554'	306700	000075		 cain	ch,"="		;a # and "=" suggest a host command
  2244	026555'	263740	000000		  popj	p,		;If so, don't restore the poineter
  2245	026556'	200640	034157'		move	ptr,oldptr	;If not, do restore the pointer
  2246	026557'	263740	000000		popj	p,
  2247	026560'	301700	000101	nonum:  CAIL    CH,ALPHA
  2248	026561'	303700	000132		 CAILE	CH,ZETA
  2249	026562'	263740	000000		  POPJ	P,		;NOT AN ALPHANUMERIC
  2250	026563'	350017	000000	GOTONE:	AOS	(P)
  2251	026564'	263740	000000		POPJ	 P,
TELECOPY - THE CONTROLLER FOR PDP-10 TELECOPY	MACRO 12.5-46.0 08:11 25-OCT-87 PAGE 37
TELECO.MAC	23-DEC-86 12:29		- INPUT AND CHECK SYSTEM

  2252	026565'	200140	034654'	GETLIN:	MOVE	C,[XWD INBLK,OLDCMD]	;SAVE THIS COMMAND
  2253	026566'	251140	033476'		BLT	C,OLDCMD+MAXWDS-1	;IN CASE WE NEED TO DO A REPEAT
  2254	026567'	402000	033307'		SETZM	INBLK
  2255	026570'	200140	034655'		MOVE	C,[XWD INBLK,INBLK+1]
  2256	026571'	251140	033402'		BLT	C,INBLK+MAXWDS-1	;ZERO OUT BUFFER AREA
  2257	026572'	200640	033250'		MOVE	PTR,INBPTR		;SET UP POINTER
  2258	026573'	201140	000454		MOVEI	C,MAXCHR		;MAX NUMBER OF CHARACTERS
  2259	026574'	002000	000016	GETLN1:	INCHWL	CH			;GET A CHARACTER FROM USER
  2260	026575'	306700	000012		CAIN	CH,LNFEED		;IGNORE LF WITHOUT A CARRET(LINE CONTINUATION)
  2261					JRST	[PUSHJ P,CRLF		;JUST PUT OUT A CR
  2262	026576'	254000	034656'			 JRST GETLN1]
  2263	026577'	136700	000015		IDPB	CH,PTR			;SAVE IT IN THE BUFFER
  2264	026600'	306700	000015		CAIN	CH,CARRET		;WAS IT A CARRIAGE RETURN?/
  2265					JRST	[INCHWL	CH		;YES - GET LINE FEED
  2266						 CAIN	C,MAXCHR
  2267						  JRST	GETLIN		;IF ONLY A CRLF, WAIT FOR ANOTHER
  2268						 MOVE	PTR,INBPTR	;RESET POINTER TO START OF BUFFER
  2269						 TRO	F,MOREIN+OLDFORM ;AND SET FLAGS
  2270	026601'	254000	034660'			 POPJ	P,]
  2271	026602'	371000	000003		SOSL	C			;DECREMENT COUNT
  2272	026603'	254000	026574'		 JRST	GETLN1			;IF LESS THAN MAXCHR, KEEP GOING...
  2273					OUTSTR [ASCIZ /
  2274				LINE IS RESTRICTED TO 300 CHARACTERS - REENTER IT:
  2275	026604'	001000	034666'	/]
  2276	026605'	254000	026565'		JRST GETLIN
TELECOPY - THE CONTROLLER FOR PDP-10 TELECOPY	MACRO 12.5-46.0 08:11 25-OCT-87 PAGE 38
TELECO.MAC	23-DEC-86 12:29		- INPUT AND CHECK SYSTEM

  2277	026606'	334440	034701'	OUTDEC:	SKIPA N,[^D10]
  2278	026607'	201440	000010	OUTOCT:	MOVEI N,10
  2279	026610'	230040	000011		IDIV A,N
  2280	026611'	506117	000000		HRLM B,(P)
  2281	026612'	332000	000001		SKIPE A
  2282	026613'	260740	026610'		PUSHJ P,OUTOCT+1
  2283	026614'	554057	000000		HLRZ A,(P)
  2284	026615'	004001	000060		OUTCHI "0"(A)
  2285	026616'	263740	000000		POPJ P,0
  2286
  2287
  2288	026617'	660400	000400	NUMIN:	TRO F,ALLNUM
  2289	026620'	201440	000006		MOVEI N,6
  2290	026621'	200540	033246'		MOVE OPTR,WDPTR
  2291	026622'	260740	026461'		PUSHJ P,GETCHS
  2292	026623'	306440	000006		CAIN N,6
  2293					JRST [SETZ N,
  2294	026624'	254000	034702'			POPJ P,0]
  2295	026625'	403440	000002		SETZB N,B
  2296	026626'	261740	000016		PUSH P,CH
  2297	026627'	200540	033246'		MOVE OPTR,WDPTR
  2298	026630'	134140	000013	MAK1:	ILDB C,OPTR
  2299	026631'	322140	026635'		JUMPE C,MAKE2
  2300	026632'	275140	000020		SUBI C,SIXNUM
  2301	026633'	261740	000003		PUSH P,C
  2302	026634'	344100	026630'		AOJA B,MAK1
  2303	026635'	201140	000001	MAKE2:	MOVEI C,1
  2304	026636'	262740	000016		POP P,CH
  2305	026637'	220700	000003		IMUL CH,C
  2306	026640'	272700	000011		ADDM CH,N
  2307	026641'	221140	000012		IMULI C,^D10
  2308	026642'	367100	026636'		SOJG B,MAKE2+1
  2309	026643'	262740	000016		POP P,CH
  2310	026644'	263740	000000		POPJ P,0
TELECOPY - THE CONTROLLER FOR PDP-10 TELECOPY	MACRO 12.5-46.0 08:11 25-OCT-87 PAGE 39
TELECO.MAC	23-DEC-86 12:29		- MESSAGES TO BE SENT OVER CIRCUITS

  2311				SUBTTL - MESSAGES TO BE SENT OVER CIRCUITS
  2312
  2313	026645'	516132	420230	GOMES:	ASCIZ /SET LOGOUT
	026646'	476171	752650
  2314	026647'	064252	220202	R AUXMOX/
	026650'	526611	547660
	026651'	000000	000000
  2315	026652'	406533	046636	GOMES1:	ASCIZ /AUXMOX/
	026653'	540000	000000
  2316	026654'	416404	052212	GOME2A: ASCIZ /CP TERM DISC OFF/
	026655'	512324	042222
	026656'	516064	047614
	026657'	430000	000000
  2317	026660'	406533	046636	GOME2B:	ASCIZ /AUXMOX SLAVE/
	026661'	541012	346202
	026662'	532120	000000
TELECOPY - THE CONTROLLER FOR PDP-10 TELECOPY	MACRO 12.5-46.0 08:11 25-OCT-87 PAGE 40
TELECO.MAC	23-DEC-86 12:29		- INSTRUCTION AND HELP MESSAGES

  2318				SUBTTL - INSTRUCTION AND HELP MESSAGES
  2319
  2320	026663'			HELMSG:	ASCIZ/
  2321
  2322	026663'	064241	505230	LEGAL COMMANDS ARE:
	026664'	426170	146100
	026665'	416371	546602
	026666'	472112	320202
  2323	026667'	512127	206424
  2324	026670'	064252	252634	RUN		BEGINS EXECUTION
	026671'	044230	242616
	026672'	446352	320212
	026673'	542130	352650
  2325	026674'	446371	606424	VERSION		PRINTS VERSION NUMBER
	026675'	532132	251622
	026676'	476341	104640
	026677'	512231	652246
	026700'	202550	551246
	026701'	446371	620234
	026702'	526330	242644
  2326	026703'	064251	747230	ONLC		SET LOWER CASE MODE (FOR TYMCOM X TO TYMCOM 370
	026704'	414221	151612
	026705'	521011	447656
	026706'	426444	041602
	026707'	516124	046636
	026710'	422124	024214
	026711'	476444	052262
	026712'	466071	746500
	026713'	541012	447500
	026714'	522631	541636
	026715'	465006	333540
  2327	026716'	064244	020100	                OR TYMCOM X TO TYMCOM IX FILE TRANSFERS ONLY)
	026717'	201004	020100
	026720'	201004	020100
	026721'	201004	047644
	026722'	202513	146606
	026723'	476324	054100
	026724'	522364	052262
	026725'	466071	746500
	026726'	446604	043222
	026727'	462124	052244
	026730'	406352	343212
	026731'	512464	047634
  2328	026732'	462625	106424	OFFLC		TURN OFF LOWER CASE MODE (DEFAULT)
	026733'	476150	646206
	026734'	044232	452644
	026735'	471011	743214
	026736'	202311	753612
	026737'	511010	340646
	026740'	425011	547610
	026741'	425005	042212
	026742'	432032	546250
  2329	026743'	244321	252244	TRUNCATE NNN	TRUNCATE STARTING AT COLUMN NNN (MIN=2, MAX=255)
TELECOPY - THE CONTROLLER FOR PDP-10 TELECOPY	MACRO 12.5-46.0 08:11 25-OCT-87 PAGE 40-2
TELECO.MAC	23-DEC-86 12:29		- INSTRUCTION AND HELP MESSAGES

	026744'	526350	340650
	026745'	425011	647234
	026746'	046512	252634
	026747'	416032	442500
	026750'	516510	151250
	026751'	446350	720202
	026752'	521010	347630
	026753'	526331	620234
	026754'	472344	024232
	026755'	446347	531130
	026756'	202330	154172
	026757'	311526	524432
  2330	026760'	050221	153620			WHEN TRANSFERRING FILES FROM THE TYMCOM 370
	026761'	426344	052244
	026762'	406352	343212
	026763'	512451	147216
	026764'	202151	146212
	026765'	515010	651236
	026766'	465012	444212
	026767'	202513	146606
	026770'	476324	031556
  2331	026771'	300321	247236	NO TRUNCATE	TURNS OFF TRUNCATE (DEFAULT)
	026772'	202512	252634
	026773'	416032	442422
	026774'	522532	247246
	026775'	202370	643100
	026776'	522452	547206
	026777'	406510	520120
	027000'	422130	640652
  2332	027001'	462505	106424	SUPRESS		REMOVES TRAILING BLANKS WHEN TRANSFERRING FILES FROM
	027002'	516532	051212
	027003'	516461	104644
	027004'	426331	753212
	027005'	515012	451202
	027006'	446311	147216
	027007'	202051	440634
	027010'	456464	053620
	027011'	426344	052244
	027012'	406352	343212
	027013'	512451	147216
	027014'	202151	146212
	027015'	515010	651236
  2333	027016'	464321	204422			THE TYMCOM 370 (DEFAULT)
	027017'	522210	520250
	027020'	546330	347632
	027021'	201466	730100
	027022'	242110	543202
	027023'	526312	424432
  2334	027024'	052351	720246	NO SUPRESS	STOPS THE REMOVAL OF TRAILING BLANKS
	027025'	526412	242646
	027026'	514232	352236
	027027'	502464	052220
	027030'	425012	242632
TELECOPY - THE CONTROLLER FOR PDP-10 TELECOPY	MACRO 12.5-46.0 08:11 25-OCT-87 PAGE 40-3
TELECO.MAC	23-DEC-86 12:29		- INSTRUCTION AND HELP MESSAGES

	027031'	476550	146100
	027032'	476144	052244
	027033'	406231	444634
	027034'	435010	246202
  2335	027035'	472272	306424	FIXED NNN       PADS RECORDS WITH BLANKS WHEN TRANSFERRING FILES TO
	027036'	432233	042610
	027037'	202351	647100
	027040'	201004	020100
	027041'	202410	142246
	027042'	202450	541636
	027043'	512112	320256
	027044'	446511	020204
	027045'	462031	645646
	027046'	202571	042634
	027047'	202512	240634
	027050'	516150	551244
	027051'	446350	720214
	027052'	446310	551500
  2336	027053'	522361	505100	                THE TYMCOM 370 IN ORDER TO PRODUCE FIXED LENGTH
	027054'	201004	020100
	027055'	201004	020100
	027056'	201004	020100
	027057'	522210	520250
	027060'	546330	347632
	027061'	201466	730100
	027062'	446344	047644
	027063'	422132	220250
	027064'	475012	051236
	027065'	422530	342500
	027066'	432233	042610
	027067'	202310	547216
  2337	027070'	522201	505100	                RECORDS OF LENGTH NNN.
	027071'	201004	020100
	027072'	201004	020100
	027073'	201004	020100
	027074'	512130	347644
	027075'	422464	047614
	027076'	202310	547216
	027077'	522204	047234
  2338	027100'	471341	505254	VARIABLE NNN    CAUSES THE TYMCOM 370 TO CREATE VARIABLE
	027101'	406451	140604
	027102'	462124	047234
	027103'	471004	020100
	027104'	416032	551612
	027105'	515012	444212
	027106'	202513	146606
	027107'	476324	031556
	027110'	301012	447500
	027111'	416450	540650
	027112'	425012	640644
	027113'	446030	246212
  2339	027114'	064244	020100	                RATHER THAN FIXED LENGTH RECORDS WHEN TRANSFERRING
	027115'	201004	020100
TELECOPY - THE CONTROLLER FOR PDP-10 TELECOPY	MACRO 12.5-46.0 08:11 25-OCT-87 PAGE 40-4
TELECO.MAC	23-DEC-86 12:29		- INSTRUCTION AND HELP MESSAGES

	027116'	201004	020100
	027117'	201004	051202
	027120'	522210	551100
	027121'	522210	147100
	027122'	432233	042610
	027123'	202310	547216
	027124'	522204	051212
	027125'	416372	242246
	027126'	202571	042634
	027127'	202512	240634
	027130'	516150	551244
  2340	027131'	446350	706424	                FILES TO THE TYMCOM 370.  NNN, IF SPECIFIED, WILL BE
	027132'	201004	020100
	027133'	201004	020100
	027134'	201004	020100
	027135'	202151	146212
	027136'	515012	447500
	027137'	522210	520250
	027140'	546330	347632
	027141'	201466	730134
	027142'	201011	647234
	027143'	261011	143100
	027144'	516410	541622
	027145'	432230	542130
	027146'	202571	146230
  2341	027147'	202050	506424	                THE MAXIMUM RECORD LENGTH ALLOWED. (DEFAULT).
	027150'	201004	020100
	027151'	201004	020100
	027152'	201004	020100
	027153'	202511	042500
	027154'	466033	044632
	027155'	526324	051212
	027156'	416372	242100
	027157'	462131	643650
	027160'	441010	146230
	027161'	476570	542134
	027162'	201210	442614
	027163'	406531	452122
  2342	027164'	270321	246636	MODE (OPTIONS)  USED TO OVERRIDE DEFAULT TRANSMISSION MODES.  THE
	027165'	422124	024236
	027166'	502511	147634
	027167'	515224	020252
	027170'	516130	420250
	027171'	475011	753212
	027172'	512451	142212
	027173'	202110	543202
	027174'	526312	420250
	027175'	512031	651632
	027176'	446472	344636
	027177'	471011	547610
	027200'	426465	620100
  2343	027201'	522210	506424	                ORDINARY USER NEVER NEED USE THIS COMMAND.  FOR MORE
	027202'	201004	020100
TELECOPY - THE CONTROLLER FOR PDP-10 TELECOPY	MACRO 12.5-46.0 08:11 25-OCT-87 PAGE 40-5
TELECO.MAC	23-DEC-86 12:29		- INSTRUCTION AND HELP MESSAGES

	027203'	201004	020100
	027204'	201004	020100
	027205'	202372	242222
	027206'	472032	254500
	027207'	526470	551100
	027210'	472132	642644
	027211'	202350	542610
	027212'	202532	342500
	027213'	522211	151500
	027214'	416371	546602
	027215'	472105	620100
	027216'	432372	220232
  2344	027217'	476450	506424	                INFORMATION, CONTACT YOUR TYMSHARE REPRESENTATIVE.
	027220'	201004	020100
	027221'	201004	020100
	027222'	201004	020100
	027223'	202231	643236
	027224'	512330	152222
	027225'	476345	420206
	027226'	476352	440606
	027227'	521013	147652
	027230'	511012	454632
	027231'	516210	151212
	027232'	202450	550244
	027233'	426470	547250
	027234'	406511	153212
  2345
  2346	027235'	270321	206424	                [ NATIVE ]
	027236'	201004	020100
	027237'	201004	020100
	027240'	201004	020100
	027241'	202664	047202
	027242'	522232	642500
  2347	027243'	564321	220100	                [ SERIAL ]
	027244'	201004	020100
	027245'	201004	020100
	027246'	201004	020266
	027247'	202470	551222
	027250'	406304	056432
  2348	027251'	052331	742212	MODE [TRANSMIT] [ BINARY ] [BLOCKING= N] [FILL= RIGHT] [BYTESIZE= N]
	027252'	202672	451202
	027253'	472471	544650
	027254'	565013	320204
	027255'	446350	151262
	027256'	202724	055604
	027257'	462370	345622
	027260'	472167	520234
	027261'	565013	343222
	027262'	462307	520244
	027263'	446171	052272
	027264'	202670	254650
	027265'	426471	155212
	027266'	365011	656432
TELECOPY - THE CONTROLLER FOR PDP-10 TELECOPY	MACRO 12.5-46.0 08:11 25-OCT-87 PAGE 40-6
TELECO.MAC	23-DEC-86 12:29		- INSTRUCTION AND HELP MESSAGES

  2349	027267'	051004	020100	     [RECEIVE ]                          [FILL= LEFT ]
	027270'	202672	242606
	027271'	426232	642500
	027272'	565004	020100
	027273'	201004	020100
	027274'	201004	020100
	027275'	201004	020100
	027276'	201004	020100
	027277'	201013	343222
	027300'	462307	520230
	027301'	426152	420272
  2350	027302'	064244	020100	                [ ASCII ]
	027303'	201004	020100
	027304'	201004	020100
	027305'	201004	055500
	027306'	406470	344622
  2351	027307'	202721	505100	                [ IMAGE ]
	027310'	201004	020100
	027311'	201004	020100
	027312'	201004	020100
	027313'	555011	146602
	027314'	436124	056432
  2352	027315'	051004	020100	                [ KATAKANA ]
	027316'	201004	020100
	027317'	201004	020100
	027320'	201013	320226
	027321'	406510	145602
	027322'	472024	056432
  2353
  2354	027323'	050321	241636	COMPRESS (OPTIONS)  USE TO OVERRIDE DEFAULT COMPRESSION SELECTION.  THE
	027324'	466412	242646
	027325'	515005	047640
	027326'	522231	747246
	027327'	245004	052646
	027330'	425012	447500
	027331'	476550	551244
	027332'	446110	520210
	027333'	426150	152630
	027334'	521010	347632
	027335'	502450	551646
	027336'	446371	620246
	027337'	426310	541650
	027340'	446371	627100
	027341'	202511	042432
  2355	027342'	051004	020100	                ORDINARY USER NEVER NEED USE THIS COMMAND.  FOR MORE
	027343'	201004	020100
	027344'	201004	020100
	027345'	201011	751210
	027346'	446350	151262
	027347'	202532	342644
	027350'	202350	553212
	027351'	511011	642612
	027352'	421012	551612
TELECOPY - THE CONTROLLER FOR PDP-10 TELECOPY	MACRO 12.5-46.0 08:11 25-OCT-87 PAGE 40-7
TELECO.MAC	23-DEC-86 12:29		- INSTRUCTION AND HELP MESSAGES

	027353'	202511	044646
	027354'	202071	746632
	027355'	406350	427100
	027356'	202151	751100
	027357'	466372	242432
  2356	027360'	051004	020100	                INFORMATION, CONTACT YOUR TYMSHARE REPRESENTATIVE.
	027361'	201004	020100
	027362'	201004	020100
	027363'	201011	147214
	027364'	476451	540650
	027365'	446371	626100
	027366'	416371	652202
	027367'	416504	054636
	027370'	526444	052262
	027371'	466471	040644
	027372'	425012	242640
	027373'	512132	342634
	027374'	522032	444654
  2357	027375'	425341	505032
  2358	027376'	051004	020100	         [ OFF ]
	027377'	201004	020100
	027400'	555011	743214
  2359	027401'	202721	505206	COMPRESS [DUPLICATE]
	027402'	476332	051212
	027403'	516464	055610
	027404'	526411	444606
	027405'	406510	556432
  2360	027406'	051004	020100	         [ RANK ] [ AUTO ]
	027407'	201004	020100
	027410'	555012	240634
	027411'	455013	520266
	027412'	202032	552236
  2361	027413'	202721	505032
  2362	027414'	052470	351202	SCRATCH         CLEARS ALL MODE AND COMPRESSION SETTINGS SO THAT NORMAL
	027415'	522071	020100
	027416'	201004	020100
	027417'	201010	346212
	027420'	406452	320202
	027421'	462304	046636
	027422'	422124	040634
	027423'	421010	347632
	027424'	502450	551646
	027425'	446371	620246
	027426'	426512	444634
	027427'	436464	051636
	027430'	202511	040650
	027431'	202351	751232
  2363	027432'	406301	505100	                DEFAULTS WILL BE REINSTATED.
	027433'	201004	020100
	027434'	201004	020100
	027435'	201004	020100
	027436'	422130	640652
	027437'	462512	320256
TELECOPY - THE CONTROLLER FOR PDP-10 TELECOPY	MACRO 12.5-46.0 08:11 25-OCT-87 PAGE 40-8
TELECO.MAC	23-DEC-86 12:29		- INSTRUCTION AND HELP MESSAGES

	027440'	446311	420204
	027441'	425012	242622
	027442'	472472	440650
  2364	027443'	426105	606424	TALK NN         BUILDS A CIRCUIT TO SYSTEM NN (OR USES EXISTING CIRCUIT
	027444'	522031	445500
	027445'	472344	020100
	027446'	201004	020100
	027447'	202052	544630
	027450'	422464	040500
	027451'	416232	241652
	027452'	446504	052236
	027453'	202473	151650
	027454'	426324	047234
	027455'	201211	751100
	027456'	526470	551500
	027457'	426611	151650
	027460'	446350	720206
	027461'	446450	352622
  2365	027462'	520321	220100	                IF ONE EXISTS.  ALLOWS USER TO CONVERSE WITH REMOTE
	027463'	201004	020100
	027464'	201004	020100
	027465'	201004	020222
	027466'	431011	747212
	027467'	202133	044646
	027470'	522465	620100
	027471'	406311	447656
	027472'	515012	551612
	027473'	511012	447500
	027474'	416371	653212
	027475'	512470	520256
	027476'	446511	020244
	027477'	426331	752212
  2366	027500'	200321	220100	                SYSTEM FROM HIS TERMINAL.  IN GENERAL, ECHO
	027501'	201004	020100
	027502'	201004	020100
	027503'	201004	020246
	027504'	546472	442632
	027505'	202152	247632
	027506'	202211	151500
	027507'	522132	246622
	027510'	472031	427100
	027511'	202231	620216
	027512'	426350	551202
	027513'	461304	042606
  2367	027514'	442361	505100	                WILL OCCUR BOTH LOCALLY AND AT THE REMOTE SYSTEM.
	027515'	201004	020100
	027516'	201004	020100
	027517'	201004	020100
	027520'	536231	446100
	027521'	476070	352644
	027522'	202051	752220
	027523'	202311	741602
	027524'	462313	120202
TELECOPY - THE CONTROLLER FOR PDP-10 TELECOPY	MACRO 12.5-46.0 08:11 25-OCT-87 PAGE 40-9
TELECO.MAC	23-DEC-86 12:29		- INSTRUCTION AND HELP MESSAGES

	027525'	472104	040650
	027526'	202511	042500
	027527'	512131	547650
	027530'	425012	354646
	027531'	522131	527032
  2368	027532'	051004	020100	                TALK MODE MAY BE EXITED BY TYPING %%F(CARRIAGE RETURN).
	027533'	201004	020100
	027534'	201004	020100
	027535'	201012	440630
	027536'	455011	547610
	027537'	425011	540662
	027540'	202050	520212
	027541'	542232	442610
	027542'	202053	120250
	027543'	546411	147216
	027544'	201124	543120
	027545'	416032	251222
	027546'	406170	520244
	027547'	426512	551234
  2369	027550'	245341	505100	                A %%U SENDS A UNIT SEPARATOR TO THE REMOTE SYSTEM.
	027551'	201004	020100
	027552'	201004	020100
	027553'	201004	020100
	027554'	405004	522652
	027555'	202470	547210
	027556'	515010	120252
	027557'	472232	420246
	027560'	426410	151202
	027561'	522372	220250
	027562'	475012	444212
	027563'	202450	546636
	027564'	522124	051662
	027565'	516510	546534
  2370	027566'	064244	020100	                ESCAPES TYPED WILL BE SENT TO THE REMOTE SYSTEM.
	027567'	201004	020100
	027570'	201004	020100
	027571'	201004	042646
	027572'	416032	042646
	027573'	202513	150212
	027574'	421012	744630
	027575'	461010	242500
	027576'	516131	652100
	027577'	522364	052220
	027600'	425012	242632
	027601'	476510	520246
	027602'	546472	442632
  2371	027603'	270321	253620	WHY             CAUSES THE SLAVE PROGRAM TO SEND ITS LATEST ERROR
	027604'	545004	020100
	027605'	201004	020100
	027606'	201004	020206
	027607'	406532	342646
	027610'	202511	042500
	027611'	516310	153212
TELECOPY - THE CONTROLLER FOR PDP-10 TELECOPY	MACRO 12.5-46.0 08:11 25-OCT-87 PAGE 40-10
TELECO.MAC	23-DEC-86 12:29		- INSTRUCTION AND HELP MESSAGES

	027612'	202412	247616
	027613'	512031	520250
	027614'	475012	342634
	027615'	421011	152246
	027616'	202310	152212
	027617'	516504	042644
	027620'	512372	220032
  2372	027621'	051004	020100	                EXPLANATION MESSAGE (370 ONLY).
	027622'	201004	020100
	027623'	201004	020100
	027624'	201010	554240
	027625'	462031	640650
	027626'	446371	620232
	027627'	426472	340616
	027630'	425005	031556
	027631'	301011	747230
  2373	027632'	545225	606424	LOQUACIOUS      CAUSES CHECKPOINT AND OTHER MESSAGES TO BE PRINTED ON
	027633'	462372	152602
	027634'	416231	752646
	027635'	201004	020100
	027636'	202070	152646
	027637'	426464	041620
	027640'	426071	350236
	027641'	446352	420202
	027642'	472104	047650
	027643'	442132	220232
	027644'	426472	340616
	027645'	426464	052236
	027646'	202050	520240
	027647'	512231	652212
	027650'	421011	747032
  2374	027651'	051004	020100	                THE TERMINAL.  USEFUL FOR OBTAINING PROGRESS REPORTS
	027652'	201004	020100
	027653'	201004	020100
	027654'	201012	444212
	027655'	202510	551232
	027656'	446350	146134
	027657'	201012	551612
	027660'	432531	420214
	027661'	476444	047604
	027662'	522031	147222
	027663'	472164	050244
	027664'	476172	242646
	027665'	515012	242640
	027666'	476452	451432
  2375	027667'	051004	020100	                WHEN TELECOPYING VERY LARGE FILES.
	027670'	201004	020100
	027671'	201004	020100
	027672'	201012	744212
	027673'	471012	442630
	027674'	426071	750262
	027675'	446350	720254
	027676'	426453	120230
TELECOPY - THE CONTROLLER FOR PDP-10 TELECOPY	MACRO 12.5-46.0 08:11 25-OCT-87 PAGE 40-11
TELECO.MAC	23-DEC-86 12:29		- INSTRUCTION AND HELP MESSAGES

	027677'	406450	742500
	027700'	432231	442646
  2376	027701'	270321	247236	NOT LOQUACIOUS  STOPS PRINTING OF CHECKPOINT INFORMATION.  (DEFAULT).
	027702'	521011	447642
	027703'	526030	344636
	027704'	526464	020246
	027705'	522372	051500
	027706'	502451	147250
	027707'	446350	720236
	027710'	431010	344212
	027711'	416272	047622
	027712'	472504	044634
	027713'	432372	246602
	027714'	522231	747134
	027715'	201005	042212
	027716'	432032	546250
  2377	027717'	245341	505202	ASK             ASK FOR CONFIRMATION BEFORE REPLACING AN OLD FILE
	027720'	516264	020100
	027721'	201004	020100
	027722'	201004	020100
	027723'	406471	320214
	027724'	476444	041636
	027725'	472151	151232
	027726'	406511	147634
	027727'	202050	543236
	027730'	512124	051212
	027731'	502310	141622
	027732'	472164	040634
	027733'	202371	442100
	027734'	432231	442432
  2378	027735'	051004	020100	                (DEFAULT).
	027736'	201004	020100
	027737'	201004	020100
	027740'	201005	042212
	027741'	432032	546250
  2379	027742'	245341	505244	REPLACE         DO NOT REQUIRE CONFIRMATION WHEN REPLACING AN OLD FILE.
	027743'	426411	440606
	027744'	425004	020100
	027745'	201004	020100
	027746'	422364	047236
	027747'	521012	242642
	027750'	526232	242500
	027751'	416371	643222
	027752'	512330	152222
	027753'	476344	053620
	027754'	426344	051212
	027755'	502310	141622
	027756'	472164	040634
	027757'	202371	442100
	027760'	432231	442534
  2380	027761'	064251	342612	KEEP            KEEP OLD FILES.  NO CONFIRMATION REQUIRED.
	027762'	501004	020100
	027763'	201004	020100
TELECOPY - THE CONTROLLER FOR PDP-10 TELECOPY	MACRO 12.5-46.0 08:11 25-OCT-87 PAGE 40-12
TELECO.MAC	23-DEC-86 12:29		- INSTRUCTION AND HELP MESSAGES

	027764'	201004	045612
	027765'	426404	047630
	027766'	421010	644630
	027767'	426465	620100
	027770'	472364	041636
	027771'	472151	151232
	027772'	406511	147634
	027773'	202450	550652
	027774'	446450	542134
  2381	027775'	064252	550210	UPDATE          USE UPDATE MODE WHEN REPLACING AN OLD FILE (DEFAULT).
	027776'	406510	520100
	027777'	201004	020100
	030000'	201004	052646
	030001'	425012	550210
	030002'	406510	520232
	030003'	476110	520256
	030004'	442131	620244
	030005'	426411	440606
	030006'	446350	720202
	030007'	471011	746210
	030010'	202151	146212
	030011'	201210	442614
	030012'	406531	452122
  2382	030013'	270321	220100	                ONLY PORTIONS OF THE FILE THAT ARE DIFFERENT WILL BE
	030014'	201004	020100
	030015'	201004	020100
	030016'	201004	020236
	030017'	472313	120240
	030020'	476452	444636
	030021'	472464	047614
	030022'	202511	042500
	030023'	432231	442500
	030024'	522210	152100
	030025'	406450	520210
	030026'	446150	642644
	030027'	426352	420256
	030030'	446311	420204
  2383	030031'	424321	220100	                TRANSMITTED.  EFFECTIVE ONLY WHEN TRANSFERRING FILES
	030032'	201004	020100
	030033'	201004	020100
	030034'	201004	020250
	030035'	512031	651632
	030036'	446512	442610
	030037'	271004	042614
	030040'	432130	352222
	030041'	532124	047634
	030042'	462624	053620
	030043'	426344	052244
	030044'	406352	343212
	030045'	512451	147216
	030046'	202151	146212
  2384	030047'	514321	220100	                FROM TYMCOM X TO TYMCOM X, UNLESS ONE OF THE BINARY
	030050'	201004	020100
TELECOPY - THE CONTROLLER FOR PDP-10 TELECOPY	MACRO 12.5-46.0 08:11 25-OCT-87 PAGE 40-13
TELECO.MAC	23-DEC-86 12:29		- INSTRUCTION AND HELP MESSAGES

	030051'	201004	020100
	030052'	201004	020214
	030053'	512371	520250
	030054'	546330	347632
	030055'	202604	052236
	030056'	202513	146606
	030057'	476324	054130
	030060'	202531	646212
	030061'	516464	047634
	030062'	425011	743100
	030063'	522210	520204
	030064'	446350	151262
  2385	030065'	064244	020100	                MODES IS BEING USED.
	030066'	201004	020100
	030067'	201004	020100
	030070'	201004	046636
	030071'	422132	320222
	030072'	515010	242622
	030073'	472164	052646
  2386	030074'	426105	606424	NO UPDATE       FORCES COPYING THE ENTIRE FILE EVEN IF UPDATE
	030075'	472364	052640
	030076'	422032	442500
	030077'	201004	020100
	030100'	202151	751206
	030101'	426464	041636
	030102'	502631	147216
	030103'	202511	042500
	030104'	426352	444644
	030105'	425010	644630
	030106'	425010	553212
	030107'	471011	143100
	030110'	526410	440650
  2387	030111'	424321	220100	                MODE COULD BE USED.  MAY BE FASTER THAN UPDATE MODE IF
	030112'	201004	020100
	030113'	201004	020100
	030114'	201004	020232
	030115'	476110	520206
	030116'	476531	442100
	030117'	412124	052646
	030120'	426105	620100
	030121'	466033	120204
	030122'	425010	640646
	030123'	522132	220250
	030124'	442031	620252
	030125'	502110	152212
	030126'	202331	742212
  2388	030127'	202230	606424	                OLD FILE BEING REPLACED HAS BEEN MODIFIED SEQUENTIALLY
	030130'	201004	020100
	030131'	201004	020100
	030132'	201004	020100
	030133'	202371	442100
	030134'	432231	442500
	030135'	412131	147216
TELECOPY - THE CONTROLLER FOR PDP-10 TELECOPY	MACRO 12.5-46.0 08:11 25-OCT-87 PAGE 40-14
TELECO.MAC	23-DEC-86 12:29		- INSTRUCTION AND HELP MESSAGES

	030136'	202450	550230
	030137'	406070	542100
	030140'	442032	320204
	030141'	426131	620232
	030142'	476111	143222
	030143'	426104	051612
	030144'	506530	547250
	030145'	446031	446262
  2389	030146'	064244	020100	                OR GREATLY DIFFERS FROM THE REPLACEMENT.
	030147'	201004	020100
	030150'	201004	020100
	030151'	201004	047644
	030152'	202172	242602
	030153'	522313	120210
	030154'	446150	642644
	030155'	515010	651236
	030156'	465012	444212
	030157'	202450	550230
	030160'	406070	546612
  2390	030161'	472505	606424	HELP (OR ?)	REPRINTS THIS LIST
	030162'	442131	450100
	030163'	242372	220176
	030164'	244232	242640
	030165'	512231	652246
	030166'	202511	044646
	030167'	202311	151650
  2391	030170'	064251	147246	INSTRUCTIONS	HOW TO EXECUTE THIS PROGRAM
	030171'	522452	541650
	030172'	446371	651422
	030173'	442372	720250
	030174'	475010	554212
	030175'	416532	442500
	030176'	522211	151500
	030177'	502451	743644
  2392	030200'	406321	505246	SYS940		ADDITIONAL INSTRUCTIONS RELATIVE TO TYMCOM IX-TYMCOM X
	030201'	546467	132140
	030202'	044230	142210
	030203'	446511	147634
	030204'	406304	044634
	030205'	516512	252606
	030206'	522231	747246
	030207'	202450	546202
	030210'	522232	642500
	030211'	522364	052262
	030212'	466071	746500
	030213'	446605	552262
	030214'	466071	746500
  2393	030215'	540321	204422			FILE TRANSFERS
	030216'	432231	442500
	030217'	522450	147246
	030220'	432132	251432
  2394	030221'	052473	151546	SYS370		ADDITIONAL INSTRUCTIONS RELATIVE TO TYMCOM 370-TYMCOM X
	030222'	335401	104602
TELECOPY - THE CONTROLLER FOR PDP-10 TELECOPY	MACRO 12.5-46.0 08:11 25-OCT-87 PAGE 40-15
TELECO.MAC	23-DEC-86 12:29		- INSTRUCTION AND HELP MESSAGES

	030223'	422111	152222
	030224'	476350	146100
	030225'	446352	352244
	030226'	526072	444636
	030227'	472464	051212
	030230'	462032	444654
	030231'	425012	447500
	030232'	522631	541636
	030233'	465006	333540
	030234'	266513	146606
	030235'	476324	054032
  2395	030236'	050221	143222			FILE TRANSFERS
	030237'	462124	052244
	030240'	406352	343212
  2396	030241'	512461	505220	HOST NNN=XXXXXX CHANGES THE DEFAULT SYSTEM TYPE OF SYSTEM NNN TO XXXXXX,
	030242'	476472	420234
	030243'	472347	554260
	030244'	542613	054100
	030245'	416210	147216
	030246'	426464	052220
	030247'	425010	442614
	030250'	406531	452100
	030251'	516632	352212
	030252'	465012	454640
	030253'	425011	743100
	030254'	516632	352212
	030255'	465011	647234
	030256'	202511	720260
	030257'	542613	054260
  2397	030260'	260321	220100	                WHERE XXXXXX MAY BE TYM-IX, TYM-X, TYM-XX, TYM370, IX, X,
	030261'	201004	020100
	030262'	201004	020100
	030263'	201004	020256
	030264'	442132	242500
	030265'	542613	054260
	030266'	541011	540662
	030267'	202050	520250
	030270'	546325	544660
	030271'	261012	454632
	030272'	266605	420250
	030273'	546325	554260
	030274'	261012	454632
	030275'	315566	026100
	030276'	446605	420260
  2398	030277'	260321	220100	                XX, 370, TYMCMS, CMS, MVS, OR ANY UNIQUE SUBSET OF THESE.
	030300'	201004	020100
	030301'	201004	020100
	030302'	201004	020260
	030303'	541304	031556
	030304'	301304	052262
	030305'	466071	551530
	030306'	202071	551530
	030307'	202332	651530
TELECOPY - THE CONTROLLER FOR PDP-10 TELECOPY	MACRO 12.5-46.0 08:11 25-OCT-87 PAGE 40-16
TELECO.MAC	23-DEC-86 12:29		- INSTRUCTION AND HELP MESSAGES

	030310'	202372	220202
	030311'	472624	052634
	030312'	446432	542500
	030313'	516530	251612
	030314'	521011	743100
	030315'	522210	551612
  2399	030316'	270321	241636	COMMANDS FILE   CAUSES TELECOPY TO BEGIN EXECUTING FROM A COMMANDS FILE.
	030317'	466330	147210
	030320'	515010	644630
	030321'	425004	020206
	030322'	406532	342646
	030323'	202510	546212
	030324'	416372	054500
	030325'	522364	041212
	030326'	436231	620212
	030327'	542130	352650
	030330'	446350	720214
	030331'	512371	520202
	030332'	202071	746632
	030333'	406350	451500
	030334'	432231	442534
  2400	030335'	064244	020100	                ONLY THE EXTENSIONS ".COM" AND ".TMP" ARE CURRENTLY VALID.
	030336'	201004	020100
	030337'	201004	020100
	030340'	201004	047634
	030341'	462624	052220
	030342'	425010	554250
	030343'	426352	344636
	030344'	472464	021134
	030345'	416371	521100
	030346'	406350	420104
	030347'	272511	550104
	030350'	202032	242500
	030351'	416532	251212
	030352'	472511	454500
	030353'	532031	444610
  2401	030354'	270321	220100	                IF THE EXTENSION IS ".COM" TELECOPY WILL DETACH THE JOB.
	030355'	201004	020100
	030356'	201004	020100
	030357'	201004	020222
	030360'	431012	444212
	030361'	202133	052212
	030362'	472471	147634
	030363'	202232	320104
	030364'	272071	746504
	030365'	202510	546212
	030366'	416372	054500
	030367'	536231	446100
	030370'	422132	440606
	030371'	441012	444212
	030372'	202251	741134
  2402	030373'	064252	040646	PASSWORD        USED IN CONJUNCTION WITH A GATEWAY COMMAND AND A COMMANDS
	030374'	516571	751210
TELECOPY - THE CONTROLLER FOR PDP-10 TELECOPY	MACRO 12.5-46.0 08:11 25-OCT-87 PAGE 40-17
TELECO.MAC	23-DEC-86 12:29		- INSTRUCTION AND HELP MESSAGES

	030375'	201004	020100
	030376'	201004	052646
	030377'	426104	044634
	030400'	202071	747224
	030401'	526350	352222
	030402'	476344	053622
	030403'	522204	040500
	030404'	436032	442656
	030405'	406624	041636
	030406'	466330	147210
	030407'	202031	642100
	030410'	405010	347632
	030411'	466031	642246
  2403	030412'	064244	020100	                COMMAND, THIS ALLOWS THE USER TO PUT THE GATEWAY COMMAND IN A
	030413'	201004	020100
	030414'	201004	020100
	030415'	201004	041636
	030416'	466330	147210
	030417'	261012	444222
	030420'	515010	146230
	030421'	476572	320250
	030422'	442124	052646
	030423'	426444	052236
	030424'	202412	552100
	030425'	522210	520216
	030426'	406510	553602
	030427'	545010	347632
	030430'	466031	642100
	030431'	446344	040432
  2404	030432'	051004	020100	                COMMANDS FILE, AND USE THE PASSWORD COMMAND BEFORE ISSUING
	030433'	201004	020100
	030434'	201004	020100
	030435'	201010	347632
	030436'	466031	642246
	030437'	202151	146212
	030440'	261010	147210
	030441'	202532	342500
	030442'	522210	520240
	030443'	406472	353636
	030444'	512104	041636
	030445'	466330	147210
	030446'	202050	543236
	030447'	512124	044646
	030450'	516531	147216
  2405	030451'	064244	020100	                THE COMMANDS COMMAND TO ENSURE THE SECRECY OF THE PASSWORD
	030452'	201004	020100
	030453'	201004	020100
	030454'	201004	052220
	030455'	425010	347632
	030456'	466031	642246
	030457'	202071	746632
	030460'	406350	420250
	030461'	475010	547246
TELECOPY - THE CONTROLLER FOR PDP-10 TELECOPY	MACRO 12.5-46.0 08:11 25-OCT-87 PAGE 40-18
TELECO.MAC	23-DEC-86 12:29		- INSTRUCTION AND HELP MESSAGES

	030462'	526450	520250
	030463'	442124	051612
	030464'	416450	541662
	030465'	202370	620250
	030466'	442124	050202
	030467'	516472	747644
  2406	030470'	420321	243602	GATEWAY NNN;USERNAME:SSS
	030471'	522132	740662
	030472'	202351	647166
	030473'	526470	551234
	030474'	406330	535246
  2407	030475'	516461	505100	                BUILDS A CIRCUIT TO A SYSTEM IN ANOTHER NETWORK VIA A GATEWAY
	030476'	201004	020100
	030477'	201004	020100
	030500'	201004	020100
	030501'	412531	146210
	030502'	515010	120206
	030503'	446450	352622
	030504'	521012	447500
	030505'	405012	354646
	030506'	522131	520222
	030507'	471010	147236
	030510'	522210	551100
	030511'	472132	453636
	030512'	512264	053222
	030513'	405010	120216
	030514'	406510	553602
  2408	030515'	544321	220100	                NODE, WHERE NNN IS THE GATEWAY NODE NUMBER, AND USERNAME:SSS
	030516'	201004	020100
	030517'	201004	020100
	030520'	201004	020234
	030521'	476110	526100
	030522'	536210	551212
	030523'	202351	647100
	030524'	446464	052220
	030525'	425010	740650
	030526'	426570	154500
	030527'	472370	442500
	030530'	472531	541212
	030531'	511304	040634
	030532'	421012	551612
	030533'	512350	146612
	030534'	352472	351432
  2409	030535'	051004	020100	                IS THE LOGIN STRING TO SYSTEM SSS.  IF A PASSWORD HAS NOT
	030536'	201004	020100
	030537'	201004	020100
	030540'	201011	151500
	030541'	522210	520230
	030542'	476171	147100
	030543'	516512	244634
	030544'	435012	447500
	030545'	516632	352212
	030546'	465012	351646
TELECOPY - THE CONTROLLER FOR PDP-10 TELECOPY	MACRO 12.5-46.0 08:11 25-OCT-87 PAGE 40-19
TELECO.MAC	23-DEC-86 12:29		- INSTRUCTION AND HELP MESSAGES

	030547'	271004	044614
	030550'	202024	050202
	030551'	516472	747644
	030552'	421011	040646
	030553'	202351	752032
  2410	030554'	051004	020100	                ALREADY BEEN GIVEN VIA THE PASSWORD COMMAND, THIS COMMAND WILL
	030555'	201004	020100
	030556'	201004	020100
	030557'	201010	146244
	030560'	426030	454500
	030561'	412130	547100
	030562'	436232	642634
	030563'	202551	140500
	030564'	522210	520240
	030565'	406472	353636
	030566'	512104	041636
	030567'	466330	147210
	030570'	261012	444222
	030571'	515010	347632
	030572'	466031	642100
	030573'	536231	446032
  2411	030574'	051004	020100	                PROMPT FOR ONE
	030575'	201004	020100
	030576'	201004	020100
	030577'	201012	051236
	030600'	466412	420214
	030601'	476444	047634
  2412	030602'	424321	250652	QUIT		EXITS TO EXEC
	030603'	446501	104612
	030604'	542232	451500
	030605'	522364	042660
  2413	030606'	426061	505032
  2414	030607'	052031	654500	ANY OF THESE COMMANDS MAY BE SHORTENED TO THE SHORTEST UNIQUE COMMAND.
	030610'	476144	052220
	030611'	426470	520206
	030612'	476331	540634
	030613'	422464	046602
	030614'	545010	242500
	030615'	516211	751250
	030616'	426350	542100
	030617'	522364	052220
	030620'	425012	344236
	030621'	512510	551650
	030622'	202531	644642
	030623'	526124	041636
	030624'	466330	147210
  2415	030625'	270321	200000	/
  2416
  2417	030626'			TYMHELP:	ASCIZ/
  2418
  2419	030626'	064241	505202	AS TYMSHARE PERSONNEL THERE IS ONE ADDITIONAL LEGAL COMMAND:
	030627'	515012	454632
	030630'	516210	151212
TELECOPY - THE CONTROLLER FOR PDP-10 TELECOPY	MACRO 12.5-46.0 08:11 25-OCT-87 PAGE 40-20
TELECO.MAC	23-DEC-86 12:29		- INSTRUCTION AND HELP MESSAGES

	030631'	202410	551246
	030632'	476351	642630
	030633'	202511	042644
	030634'	425011	151500
	030635'	476350	520202
	030636'	422111	152222
	030637'	476350	146100
	030640'	462130	740630
	030641'	202071	746632
	030642'	406350	435032
  2420
  2421	030643'	050321	220100	  TIME		SETS TIME SWITCH TO PROVIDE PROGRESS REPORTS
	030644'	522231	542422
	030645'	046470	552246
	030646'	202511	146612
	030647'	202472	744650
	030650'	416204	052236
	030651'	202412	247654
	030652'	446110	520240
	030653'	512370	751212
	030654'	516464	051212
	030655'	502372	252246
  2422	030656'	064240	000000	/
  2423
  2424	030657'			INSMSG:	ASCIZ/
  2425
  2426	030657'	064241	505234	NOTE: ADDITIONAL INSTRUCTIONS RELATIVE TO TRANSFERS BETWEEN TYMCOM IX,
	030660'	476510	535100
	030661'	406110	444650
	030662'	446371	640630
	030663'	202231	651650
	030664'	512530	352222
	030665'	476352	320244
	030666'	426310	152222
	030667'	532124	052236
	030670'	202512	240634
	030671'	516150	551246
	030672'	202050	552256
	030673'	426131	620250
	030674'	546330	347632
	030675'	202233	026032
  2427	030676'	052513	146606	TYMCOM 370 AND TYMCOM X ARE AVAILABLE BY ISSUING THE COMMAND SYS940 AND
	030677'	476324	031556
	030700'	301010	147210
	030701'	202513	146606
	030702'	476324	054100
	030703'	406450	520202
	030704'	532031	146202
	030705'	412310	520204
	030706'	545011	151646
	030707'	526231	643500
	030710'	522210	520206
	030711'	476331	540634
TELECOPY - THE CONTROLLER FOR PDP-10 TELECOPY	MACRO 12.5-46.0 08:11 25-OCT-87 PAGE 40-21
TELECO.MAC	23-DEC-86 12:29		- INSTRUCTION AND HELP MESSAGES

	030712'	421012	354646
	030713'	345506	020202
  2428	030714'	472101	505246	SYS370.
	030715'	546466	333540
  2429
  2430	030716'	270321	206424	WHEN THE RUN COMMAND IS ISSUED, THE PROGRAM WILL REQUEST THE
	030717'	536210	547100
	030720'	522210	520244
	030721'	526344	041636
	030722'	466330	147210
	030723'	202232	320222
	030724'	516472	542610
	030725'	261012	444212
	030726'	202412	247616
	030727'	512031	520256
	030730'	446311	420244
	030731'	426432	542646
	030732'	521012	444212
  2431	030733'	064244	241636	"COPY FROM" FILE AND THEN THE "COPY TO" FILE.  THE SYNTAX FOR
	030734'	502624	043244
	030735'	476324	220214
	030736'	446310	520202
	030737'	472104	052220
	030740'	426344	052220
	030741'	425004	241636
	030742'	502624	052236
	030743'	211010	644630
	030744'	425344	020250
	030745'	442124	051662
	030746'	472510	154100
  2432	030747'	432372	206424	ENTERING THIS INFORMATION IS:
	030750'	426352	442644
	030751'	446350	720250
	030752'	442232	320222
	030753'	472151	751232
	030754'	406511	147634
	030755'	202232	335032
  2433
  2434	030756'	050321	204520		(USERNAME:SYSTEM NUMBER)FILE NAME
	030757'	526470	551234
	030760'	406330	535246
	030761'	546472	442632
	030762'	202352	546604
	030763'	426445	143222
	030764'	462124	047202
  2435	030765'	466121	505032
  2436	030766'	052151	751100	FOR EXAMPLE:  (JONES:7)DATA
	030767'	426610	146640
	030770'	462127	220100
	030771'	242251	747212
	030772'	515646	724610
  2437	030773'	406510	106424
  2438	030774'	064252	447500	TO INPUT THE STRING WITHOUT THE PROMPTS, TYPE THE INFORMATION
TELECOPY - THE CONTROLLER FOR PDP-10 TELECOPY	MACRO 12.5-46.0 08:11 25-OCT-87 PAGE 40-22
TELECO.MAC	23-DEC-86 12:29		- INSTRUCTION AND HELP MESSAGES

	030775'	446352	052650
	030776'	202511	042500
	030777'	516512	244634
	031000'	435012	744650
	031001'	442372	552100
	031002'	522210	520240
	031003'	512371	550250
	031004'	515304	052262
	031005'	502124	052220
	031006'	425011	147214
	031007'	476451	540650
  2439	031010'	446371	606424	DIRECTLY AFTER THE ":".
	031011'	422232	242606
	031012'	522313	120202
	031013'	432510	551100
	031014'	522210	520104
  2440	031015'	351045	606424
  2441	031016'	064241	144614		IF THE USER NAME OR FILE NAME IS OMITTED ON THE "TO" SIDE,
	031017'	202511	042500
	031020'	526470	551100
	031021'	472031	542500
	031022'	476444	043222
	031023'	462124	047202
	031024'	466124	044646
	031025'	202371	544650
	031026'	522130	420236
	031027'	471012	444212
	031030'	201052	447504
	031031'	202471	142212
  2442	031032'	260321	252220	THE "FROM" INFORMATION IS USED.  MORE THAN ONE FILE MAY BE TRANSFERRED
	031033'	425004	243244
	031034'	476324	220222
	031035'	472151	751232
	031036'	406511	147634
	031037'	202232	320252
	031040'	516130	427100
	031041'	202331	751212
	031042'	202511	040634
	031043'	202371	642500
	031044'	432231	442500
	031045'	466033	120204
	031046'	425012	451202
	031047'	472470	642644
  2443	031050'	512130	406424	(USING SAME SYSTEM, SAME USER NAME) BY TYPING A STRING OF FILE
	031051'	242532	344634
	031052'	435012	340632
	031053'	425012	354646
	031054'	522131	526100
	031055'	516031	542500
	031056'	526470	551100
	031057'	472031	542522
	031060'	202053	120250
	031061'	546411	147216
TELECOPY - THE CONTROLLER FOR PDP-10 TELECOPY	MACRO 12.5-46.0 08:11 25-OCT-87 PAGE 40-23
TELECO.MAC	23-DEC-86 12:29		- INSTRUCTION AND HELP MESSAGES

	031062'	202024	051650
	031063'	512231	643500
	031064'	476144	043222
  2444	031065'	462121	505234	NAMES SEPARATED BY COMMAS.   AN * MAY BE USED IN PLACE OF THE LOGGED IN
	031066'	406330	551500
	031067'	516132	040644
	031070'	406510	542100
	031071'	412624	041636
	031072'	466330	151534
	031073'	201004	040634
	031074'	201244	046602
	031075'	545010	242500
	031076'	526470	542100
	031077'	446344	050230
	031100'	406070	520236
	031101'	431012	444212
	031102'	202311	743616
	031103'	426104	044634
  2445	031104'	064252	354646	SYSTEM.  IF THE SYSTEM NUMBER IS OMITTED ON THE 'FROM' SIDE, THE
	031105'	522131	527100
	031106'	202230	620250
	031107'	442124	051662
	031110'	516510	546500
	031111'	472531	541212
	031112'	511011	151500
	031113'	476331	152250
	031114'	426104	047634
	031115'	202511	042500
	031116'	236152	247632
	031117'	235012	344610
	031120'	425304	052220
  2446	031121'	425001	505230	LOGGED IN SYSTEM IS ASSUMED.
	031122'	476170	742610
	031123'	202231	620246
	031124'	546472	442632
	031125'	202232	320202
	031126'	516472	546612
  2447	031127'	421341	505032
  2448
  2449	031130'	050321	251636	SOME EXAMPLES:
	031131'	466124	042660
	031132'	406332	046212
  2450	031133'	515641	505032
  2451	031134'	050225	051632		(SMITH:31)FILE,:35
	031135'	446511	035146
	031136'	305230	644630
	031137'	425307	231552
  2452	031140'	064241	104606			COPY THE FILE (SMITH)FILE FROM SYSTEM 31 TO THE FILE
	031141'	476413	120250
	031142'	442124	043222
	031143'	462124	024246
	031144'	466232	444122
	031145'	432231	442500
TELECOPY - THE CONTROLLER FOR PDP-10 TELECOPY	MACRO 12.5-46.0 08:11 25-OCT-87 PAGE 40-24
TELECO.MAC	23-DEC-86 12:29		- INSTRUCTION AND HELP MESSAGES

	031146'	432451	746500
	031147'	516632	352212
	031150'	465006	330500
	031151'	522364	052220
	031152'	425010	644630
  2453	031153'	424321	204422			(SMITH)FILE ON SYSTEM 35.
	031154'	242471	544650
	031155'	441230	644630
	031156'	425011	747100
	031157'	516632	352212
	031160'	465006	332534
  2454
  2455	031161'	064241	505022		(SMITH:*)FILE1,(JONES:32)FILE.NEW
	031162'	242471	544650
	031163'	441645	224614
	031164'	446310	530530
	031165'	242251	747212
	031166'	515646	331122
	031167'	432231	442534
  2456	031170'	472132	706424			COPY THE FILE (SMITH)FILE1 FROM THE SYSTEM THE USER IS
	031171'	044230	347640
	031172'	545012	444212
	031173'	202151	146212
	031174'	201212	346622
	031175'	522205	143222
	031176'	462126	120214
	031177'	512371	520250
	031200'	442124	051662
	031201'	516510	546500
	031202'	522210	520252
	031203'	516132	220222
  2457	031204'	514321	204422			LOGGED IN ON TO THE FILE (JONES)FILE.NEW ON SYSTEM 32.
	031205'	462370	743612
	031206'	421011	147100
	031207'	476344	052236
	031210'	202511	042500
	031211'	432231	442500
	031212'	242251	747212
	031213'	515230	644630
	031214'	425351	642656
	031215'	202371	620246
	031216'	546472	442632
	031217'	201466	227032
  2458
  2459	031220'	050321	204520		(SMITH:*)A,B,:36C,D
	031221'	516331	152220
	031222'	351245	140530
	031223'	411307	231554
  2460	031224'	415310	406424			COPY THE FILE (SMITH)A FROM THE SYSTEM THE USER IS
	031225'	044230	347640
	031226'	545012	444212
	031227'	202151	146212
	031230'	201212	346622
TELECOPY - THE CONTROLLER FOR PDP-10 TELECOPY	MACRO 12.5-46.0 08:11 25-OCT-87 PAGE 40-25
TELECO.MAC	23-DEC-86 12:29		- INSTRUCTION AND HELP MESSAGES

	031231'	522205	140500
	031232'	432451	746500
	031233'	522210	520246
	031234'	546472	442632
	031235'	202511	042500
	031236'	526470	551100
  2461	031237'	446461	505022			LOGGED IN ON TO THE FILE (SMITH)C ON SYSTEM 36.  COPY
	031240'	046311	743616
	031241'	426104	044634
	031242'	202371	620250
	031243'	475012	444212
	031244'	202151	146212
	031245'	201212	346622
	031246'	522205	141500
	031247'	476344	051662
	031250'	516510	546500
	031251'	315545	620100
	031252'	416372	054432
  2462	031253'	050221	152220			THE FILE (SMITH)B FROM THE SYSTEM THE USER IS LOGGED
	031254'	425010	644630
	031255'	425005	051632
	031256'	446511	024604
	031257'	202152	247632
	031260'	202511	042500
	031261'	516632	352212
	031262'	465012	444212
	031263'	202532	342644
	031264'	202232	320230
	031265'	476170	742610
  2463	031266'	064241	104622			IN ON TO THE FILE (SMITH)D ON SYSTEM 36.
	031267'	471011	747100
	031270'	522364	052220
	031271'	425010	644630
	031272'	425005	051632
	031273'	446511	024610
	031274'	202371	620246
	031275'	546472	442632
	031276'	201466	627032
  2464
  2465
  2466	031277'	050321	206424	THE COMMAND STRING IS LIMITED TO 300 CHARACTERS, AND MAY BE TYPED
	031300'	522210	520206
	031301'	476331	540634
	031302'	421012	352244
	031303'	446350	720222
	031304'	515011	444632
	031305'	446510	542100
	031306'	522364	031540
	031307'	301010	344202
	031310'	512030	352212
	031311'	512465	420202
	031312'	472104	046602
	031313'	545010	242500
TELECOPY - THE CONTROLLER FOR PDP-10 TELECOPY	MACRO 12.5-46.0 08:11 25-OCT-87 PAGE 40-26
TELECO.MAC	23-DEC-86 12:29		- INSTRUCTION AND HELP MESSAGES

	031314'	522632	042610
  2467	031315'	064251	747100	ON SEVERAL LINES BY ENDING INTERMEDIATE LINES WITH A LINE FEED.
	031316'	516132	642644
	031317'	406304	046222
	031320'	472132	320204
	031321'	545010	547210
	031322'	446350	720222
	031323'	472510	551232
	031324'	426111	140650
	031325'	425011	444634
	031326'	426464	053622
	031327'	522204	040500
	031330'	462231	642500
	031331'	432130	542134
  2468	031332'	064252	444212	THE STRING IS TERMINATED WHEN A CARRIAGE RETURN IS ENCOUNTERED.
	031333'	202472	451222
	031334'	472164	044646
	031335'	202510	551232
	031336'	446350	152212
	031337'	421012	744212
	031340'	471010	120206
	031341'	406452	244602
	031342'	436124	051212
	031343'	522532	247100
	031344'	446464	042634
	031345'	416372	547250
	031346'	426450	542134
  2469
  2470	031347'	064241	505222	IF AN ATTEMPT IS MADE TO COPY TO AN EXISTING FILE, THE PROGRAM
	031350'	431010	147100
	031351'	406512	442632
	031352'	502504	044646
	031353'	202330	142212
	031354'	202511	720206
	031355'	476413	120250
	031356'	475010	147100
	031357'	426611	151650
	031360'	446350	720214
	031361'	446310	526100
	031362'	522210	520240
	031363'	512370	751202
  2471	031364'	464321	253622	WILL ASK FOR CONFIRMATION.
	031365'	462304	040646
	031366'	455010	647644
	031367'	202071	747214
	031370'	446451	540650
	031371'	446371	627032
  2472
  2473	031372'	050321	252220	THE MESSAGE "COPY STARTING" WILL BE TYPED WHEN THE TRANSFER OF THE
	031373'	425011	542646
	031374'	516030	742500
	031375'	212071	750262
	031376'	202472	440644
TELECOPY - THE CONTROLLER FOR PDP-10 TELECOPY	MACRO 12.5-46.0 08:11 25-OCT-87 PAGE 40-27
TELECO.MAC	23-DEC-86 12:29		- INSTRUCTION AND HELP MESSAGES

	031377'	522231	643504
	031400'	202571	146230
	031401'	202050	520250
	031402'	546410	542100
	031403'	536210	547100
	031404'	522210	520250
	031405'	512031	651614
	031406'	426444	047614
	031407'	202511	042432
  2474	031410'	052110	152202	DATA STARTS.
	031411'	202472	440644
  2475	031412'	522465	606424
  2476	031413'	064252	550236	UPON COMPLETION, THE MESSAGE "FILE COPIED TO FILE" WILL BE DISPLAYED ON
	031414'	471010	347632
	031415'	502310	552222
	031416'	476345	420250
	031417'	442124	046612
	031420'	516470	143612
	031421'	201050	644630
	031422'	425010	347640
	031423'	446130	420250
	031424'	475010	644630
	031425'	425044	053622
	031426'	462304	041212
	031427'	202111	151640
	031430'	462033	142610
  2477	031431'	202371	606424	THE TERMINAL, ALONG WITH THE NUMBER OF CHARACTERS TRANSMITTED.  TWO
	031432'	522210	520250
	031433'	426451	544634
	031434'	406305	420202
	031435'	462371	643500
	031436'	536232	444100
	031437'	522210	520234
	031440'	526330	242644
	031441'	202370	620206
	031442'	442032	240606
	031443'	522132	251500
	031444'	522450	147246
	031445'	466232	452212
	031446'	421344	020250
  2478	031447'	536361	505214	FIGURES ARE GIVEN:  THE NUMBER IN PARENTHESES IS THE NO. OF CHARS
	031450'	446172	551212
	031451'	515010	151212
	031452'	202171	153212
	031453'	471644	020250
	031454'	442124	047252
	031455'	466050	551100
	031456'	446344	050202
	031457'	512131	652220
	031460'	426470	551500
	031461'	446464	052220
	031462'	425011	647534
	031463'	202370	620206
TELECOPY - THE CONTROLLER FOR PDP-10 TELECOPY	MACRO 12.5-46.0 08:11 25-OCT-87 PAGE 40-28
TELECO.MAC	23-DEC-86 12:29		- INSTRUCTION AND HELP MESSAGES

	031464'	442032	251432
  2479	031465'	052512	240634	TRANSMITTED BY THE NETWORK, AND THE OTHER FIGURE IS THE NUMBER OF FILE
	031466'	516331	152250
	031467'	426104	041262
	031470'	202511	042500
	031471'	472132	453636
	031472'	512265	420202
	031473'	472104	052220
	031474'	425011	752220
	031475'	426444	043222
	031476'	436532	242500
	031477'	446464	052220
	031500'	425011	652632
	031501'	412132	220236
	031502'	431010	644630
  2480	031503'	424321	241620	CHARS (IN 8-BIT BYTES) ACTUALLY TRANSMITTED.
	031504'	406452	320120
	031505'	446344	034132
	031506'	412232	420204
	031507'	546510	551522
	031510'	202030	352252
	031511'	406311	454500
	031512'	522450	147246
	031513'	466232	452212
  2481	031514'	421341	505000	/
  2482
  2483	031515'			TYMINS:	ASCIZ/
  2484
  2485	031515'	064241	505262	YOU ARE RECIEVING THE FOLLOWING PRINTOUT BECAUSE YOU HAVE
	031516'	476524	040644
	031517'	425012	242606
	031520'	446132	644634
	031521'	435012	444212
	031522'	202151	746230
	031523'	476571	147216
	031524'	202412	244634
	031525'	522372	552100
	031526'	412130	340652
	031527'	516124	054636
	031530'	525011	040654
  2486	031531'	424321	252262	TYMSHARE LICENSE:
	031532'	466471	040644
	031533'	425011	444606
	031534'	426352	342564
  2487
  2488	031535'	064241	505222	IN ADDITION TO THE COMMANDS LISTED ABOVE, THE FOLLOWING
	031536'	471010	142210
	031537'	446511	147634
	031540'	202511	720250
	031541'	442124	041636
	031542'	466330	147210
	031543'	515011	444646
	031544'	522130	420202
TELECOPY - THE CONTROLLER FOR PDP-10 TELECOPY	MACRO 12.5-46.0 08:11 25-OCT-87 PAGE 40-29
TELECO.MAC	23-DEC-86 12:29		- INSTRUCTION AND HELP MESSAGES

	031545'	412372	642530
	031546'	202511	042500
	031547'	432371	446236
	031550'	536231	643432
  2489	031551'	052032	050230	APPLIES TO TYMSHARE PERSONNEL ONLY:
	031552'	446132	320250
	031553'	475012	454632
	031554'	516210	151212
	031555'	202410	551246
	031556'	476351	642630
	031557'	202371	646262
  2490
  2491	031560'	350321	206424	YOU MAY OBTAIN PROGRESS REPORTS BY ISSUING THE "TIME" COMMAND
	031561'	546372	520232
	031562'	406624	047604
	031563'	522031	147100
	031564'	502451	743644
	031565'	426472	320244
	031566'	426411	751250
	031567'	515010	254500
	031570'	446472	352622
	031571'	472164	052220
	031572'	425004	252222
	031573'	466124	220206
	031574'	476331	540634
  2492	031575'	420321	240650	AT THE COMMAND DISPATCHER.  THIS WILL PRINT THE RATES AT WHICH
	031576'	202511	042500
	031577'	416371	546602
	031600'	472104	042222
	031601'	516410	152206
	031602'	442132	227100
	031603'	202511	044646
	031604'	202571	146230
	031605'	202412	244634
	031606'	521012	444212
	031607'	202450	152212
	031610'	515010	152100
	031611'	536211	141620
  2493	031612'	064250	344202	CHARACTERS ARE BEING TRANSMITTED.  TWO FIGURES WILL BE GIVEN.
	031613'	512030	352212
	031614'	512464	040644
	031615'	425010	242622
	031616'	472164	052244
	031617'	406352	346622
	031620'	522510	542134
	031621'	201012	453636
	031622'	202151	143652
	031623'	512132	320256
	031624'	446311	420204
	031625'	425010	744654
  2494	031626'	426345	606424	THE RATE PER SECOND GIVEN IN PARENTHESES IS THE NETWORK RATE.
	031627'	522210	520244
	031630'	406510	520240
TELECOPY - THE CONTROLLER FOR PDP-10 TELECOPY	MACRO 12.5-46.0 08:11 25-OCT-87 PAGE 40-30
TELECO.MAC	23-DEC-86 12:29		- INSTRUCTION AND HELP MESSAGES

	031631'	426444	051612
	031632'	416371	642100
	031633'	436232	642634
	031634'	202231	620240
	031635'	406450	547250
	031636'	442132	342646
	031637'	202232	320250
	031640'	442124	047212
	031641'	522571	751226
	031642'	202450	152212
  2495	031643'	270321	252220	THE OTHER FIGURE IS THE RATE OF TRANSFER OF INFORMATION IN
	031644'	425011	752220
	031645'	426444	043222
	031646'	436532	242500
	031647'	446464	052220
	031650'	425012	240650
	031651'	425011	743100
	031652'	522450	147246
	031653'	432132	220236
	031654'	431011	147214
	031655'	476451	540650
	031656'	446371	620222
  2496	031657'	470321	234132	8-BIT BYTES.  RATES ARE PRINTED APPROXIMATELY EVERY 120K
	031660'	412232	420204
	031661'	546510	551534
	031662'	201012	240650
	031663'	426464	040644
	031664'	425012	051222
	031665'	472510	542100
	031666'	406412	051236
	031667'	542231	540650
	031670'	426313	120212
	031671'	532132	254500
	031672'	305446	045432
  2497	031673'	052071	040644	CHARACTERS, BUT ONLY IF THE RATE IS MORE THAN 64 CPS.
	031674'	406072	442644
	031675'	515304	041252
	031676'	521011	747230
	031677'	545011	143100
	031700'	522210	520244
	031701'	406510	520222
	031702'	515011	547644
	031703'	425012	444202
	031704'	471006	632100
	031705'	416412	327032
  2498	031706'	050000	000000	/
  2499
  2500	031707'			MSG370:	ASCIZ /
  2501	031707'	064250	142210	ADDITIONAL INSTRUCTIONS FOR TYMCOM X, TYMCOM 370 TRANSFERS:
	031710'	446511	147634
	031711'	406304	044634
	031712'	516512	252606
	031713'	522231	747246
TELECOPY - THE CONTROLLER FOR PDP-10 TELECOPY	MACRO 12.5-46.0 08:11 25-OCT-87 PAGE 40-31
TELECO.MAC	23-DEC-86 12:29		- INSTRUCTION AND HELP MESSAGES

	031714'	202151	751100
	031715'	522631	541636
	031716'	465013	026100
	031717'	522631	541636
	031720'	465006	333540
	031721'	202512	240634
	031722'	516150	551246
  2502
  2503	031723'	350321	206424	THE FOLLOWING DIFFERENCES PREVAIL WHEN USING THIS PROGRAM TO
	031724'	522210	520214
	031725'	476311	447656
	031726'	446350	720210
	031727'	446150	642644
	031730'	426350	342646
	031731'	202412	242654
	031732'	406231	420256
	031733'	442131	620252
	031734'	516231	643500
	031735'	522211	151500
	031736'	502451	743644
	031737'	406324	052236
  2504	031740'	064252	451202	TRANSFER FILES FROM OR TO A TYMCOM 370:
	031741'	472470	642644
	031742'	202151	146212
	031743'	515010	651236
	031744'	465011	751100
	031745'	522364	040500
	031746'	522631	541636
	031747'	465006	333540
  2505
  2506	031750'	350321	206424	ONLY SYMBOLIC FILES MAY BE TRANSFERRED UNLESS THE "MODE" COMMAND IS USED
	031751'	476351	454500
	031752'	516631	541236
	031753'	462230	320214
	031754'	446310	551500
	031755'	466033	120204
	031756'	425012	451202
	031757'	472470	642644
	031760'	512130	420252
	031761'	472310	551646
	031762'	202511	042500
	031763'	212331	742212
	031764'	211010	347632
	031765'	466031	642100
	031766'	446464	052646
  2507	031767'	426101	505250	TO SELECT AN ALTERNATE TRANSMISSION MODE.
	031770'	475012	342630
	031771'	426072	420202
	031772'	471010	146250
	031773'	426451	640650
	031774'	425012	451202
	031775'	472471	544646
	031776'	516231	747100
TELECOPY - THE CONTROLLER FOR PDP-10 TELECOPY	MACRO 12.5-46.0 08:11 25-OCT-87 PAGE 40-32
TELECO.MAC	23-DEC-86 12:29		- INSTRUCTION AND HELP MESSAGES

	031777'	466370	442534
  2508	032000'	064252	454632	TYMCOM X LINE NUMBERED FILES, SUCH AS CREATED WITH LINED, WILL
	032001'	416371	520260
	032002'	202311	147212
	032003'	202352	546604
	032004'	426450	542100
	032005'	432231	442646
	032006'	261012	352606
	032007'	441010	151500
	032010'	416450	540650
	032011'	426104	053622
	032012'	522204	046222
	032013'	472130	426100
	032014'	536231	446032
  2509	032015'	052210	153212	HAVE THE LINE NUMBERS STRIPPED WHEN TRANSFERRING TO THE TYMCOM 370
	032016'	202511	042500
	032017'	462231	642500
	032020'	472531	541212
	032021'	512464	051650
	032022'	512232	050212
	032023'	421012	744212
	032024'	471012	451202
	032025'	472470	642644
	032026'	512231	643500
	032027'	522364	052220
	032030'	425012	454632
	032031'	416371	520146
  2510	032032'	335401	505246	SYSTEM.
	032033'	546472	442632
  2511	032034'	270321	252262	TYMCOM X TABS WILL BE EXPANDED TO SPACES BASED ON STANDARD TAB
	032035'	466071	746500
	032036'	541012	440604
	032037'	515012	744630
	032040'	461010	242500
	032041'	426612	040634
	032042'	422130	420250
	032043'	475012	350202
	032044'	416132	320204
	032045'	406470	542100
	032046'	476344	051650
	032047'	406350	440644
	032050'	421012	440604
  2512	032051'	064252	342650	SETTINGS WHEN TRANSFERREING TO THE TYMCOM 370.
	032052'	522231	643646
	032053'	202571	042634
	032054'	202512	240634
	032055'	516150	551244
	032056'	426231	643500
	032057'	522364	052220
	032060'	425012	454632
	032061'	416371	520146
  2513	032062'	335405	606424	BLANK LINES IN THE TYMCOM X FILE WILL CAUSE A RECORD OF ONE
	032063'	412310	147226
TELECOPY - THE CONTROLLER FOR PDP-10 TELECOPY	MACRO 12.5-46.0 08:11 25-OCT-87 PAGE 40-33
TELECO.MAC	23-DEC-86 12:29		- INSTRUCTION AND HELP MESSAGES

	032064'	202311	147212
	032065'	515011	147100
	032066'	522210	520250
	032067'	546330	347632
	032070'	202604	043222
	032071'	462124	053622
	032072'	462304	041602
	032073'	526470	520202
	032074'	202450	541636
	032075'	512104	047614
	032076'	202371	642432
  2514	032077'	052051	440634	BLANK ON THE TYMCOM 370, AND IF THE FILE IS RETURNED TO
	032100'	455011	747100
	032101'	522210	520250
	032102'	546330	347632
	032103'	201466	730130
	032104'	202031	642100
	032105'	446144	052220
	032106'	425010	644630
	032107'	425011	151500
	032110'	512132	452644
	032111'	472130	420250
  2515	032112'	475001	505250	THE TYMCOM X BY A SUBSEQUENT FILE TRANSFER, THE BLANK WILL BE
	032113'	442124	052262
	032114'	466071	746500
	032115'	541010	254500
	032116'	405012	352604
	032117'	516132	152612
	032120'	472504	043222
	032121'	462124	052244
	032122'	406352	343212
	032123'	511304	052220
	032124'	425010	246202
	032125'	472264	053622
	032126'	462304	041212
  2516	032127'	064252	352640	SUPRESSED UNLESS "NO SUPRESS" HAS BEEN SET.
	032130'	512132	351612
	032131'	421012	547230
	032132'	426472	320104
	032133'	472364	051652
	032134'	502450	551646
	032135'	211011	040646
	032136'	202050	542634
	032137'	202470	552134
  2517	032140'	064250	644630	FILE NAMES MUST MEET THE SYNTAX REQUIREMENTS OF THE APPROPRIATE
	032141'	425011	640632
	032142'	426464	046652
	032143'	516504	046612
	032144'	426504	052220
	032145'	425012	354634
	032146'	522033	020244
	032147'	426432	544644
	032150'	426330	547250
TELECOPY - THE CONTROLLER FOR PDP-10 TELECOPY	MACRO 12.5-46.0 08:11 25-OCT-87 PAGE 40-34
TELECO.MAC	23-DEC-86 12:29		- INSTRUCTION AND HELP MESSAGES

	032151'	515011	743100
	032152'	522210	520202
	032153'	502412	247640
	032154'	512230	152212
  2518	032155'	064252	354646	SYSTEM.
	032156'	522131	527032
  2519	032157'	050000	000000	/
  2520
  2521	032160'			MSG940: ASCIZ /
  2522	032160'	064250	142210	ADDITIONAL INSTRUCTIONS FOR TYMCOM X, TYMCOM IX TRANSFERS:
	032161'	446511	147634
	032162'	406304	044634
	032163'	516512	252606
	032164'	522231	747246
	032165'	202151	751100
	032166'	522631	541636
	032167'	465013	026100
	032170'	522631	541636
	032171'	465011	154100
	032172'	522450	147246
	032173'	432132	251564
  2523
  2524	032174'	064241	505250	THE FOLLOWING DIFFERENCES PREVAIL WHEN USING THIS PROGRAM TO
	032175'	442124	043236
	032176'	462311	753622
	032177'	472164	042222
	032200'	432150	551212
	032201'	472070	551500
	032202'	502450	553202
	032203'	446304	053620
	032204'	426344	052646
	032205'	446350	720250
	032206'	442232	320240
	032207'	512370	751202
	032210'	465012	447432
  2525	032211'	052512	240634	TRANSFER FILES FROM OR TO A TYMCOM IX:
	032212'	516150	551100
	032213'	432231	442646
	032214'	202152	247632
	032215'	202372	220250
	032216'	475010	120250
	032217'	546330	347632
	032220'	202233	035032
  2526
  2527	032221'	050321	247634	ONLY SYMBOLIC FILES MAY BE TRANSFERRED UNLESS THE "MODE" COMMAND IS USED
	032222'	462624	051662
	032223'	466051	746222
	032224'	415010	644630
	032225'	426464	046602
	032226'	545010	242500
	032227'	522450	147246
	032230'	432132	251212
	032231'	421012	547230
TELECOPY - THE CONTROLLER FOR PDP-10 TELECOPY	MACRO 12.5-46.0 08:11 25-OCT-87 PAGE 40-35
TELECO.MAC	23-DEC-86 12:29		- INSTRUCTION AND HELP MESSAGES

	032232'	426472	320250
	032233'	442124	021232
	032234'	476110	521100
	032235'	416371	546602
	032236'	472104	044646
	032237'	202532	342610
  2528	032240'	064252	447500	TO SELECT AN ALTERNATE TRANSMISSION MODE.
	032241'	516131	442606
	032242'	521010	147100
	032243'	406312	442644
	032244'	472032	442500
	032245'	522450	147246
	032246'	466232	351622
	032247'	476344	046636
  2529	032250'	422125	606424	TYMCOM X LINE NUMBERED FILES, SUCH AS CREATED WITH LINED, WILL
	032251'	522631	541636
	032252'	465013	020230
	032253'	446350	520234
	032254'	526330	242644
	032255'	426104	043222
	032256'	462132	326100
	032257'	516530	344100
	032260'	406464	041644
	032261'	426032	442610
	032262'	202571	152220
	032263'	202311	147212
	032264'	421304	053622
  2530	032265'	462301	505220	HAVE THE LINE NUMBERS STRIPPED WHEN TRANSFERRING TO THE TYMCOM IX
	032266'	406550	520250
	032267'	442124	046222
	032270'	472124	047252
	032271'	466050	551246
	032272'	202472	451222
	032273'	502410	542100
	032274'	536210	547100
	032275'	522450	147246
	032276'	432132	251222
	032277'	472164	052236
	032300'	202511	042500
	032301'	522631	541636
	032302'	465011	154032
  2531	032303'	052473	151650	SYSTEM.
  2532	032304'	426325	606424	TYMCOM X TABS WILL BE EXPANDED TO SPACES BASED ON STANDARD TAB
	032305'	522631	541636
	032306'	465013	020250
	032307'	406052	320256
	032310'	446311	420204
	032311'	425010	554240
	032312'	406350	442610
	032313'	202511	720246
	032314'	502030	342646
	032315'	202050	151612
	032316'	421011	747100
TELECOPY - THE CONTROLLER FOR PDP-10 TELECOPY	MACRO 12.5-46.0 08:11 25-OCT-87 PAGE 40-36
TELECO.MAC	23-DEC-86 12:29		- INSTRUCTION AND HELP MESSAGES

	032317'	516510	147210
	032320'	406450	420250
  2533	032321'	406041	505246	SETTINGS WHEN TRANSFERRING TO THE TYMCOM IX.
	032322'	426512	444634
	032323'	436464	053620
	032324'	426344	052244
	032325'	406352	343212
	032326'	512451	147216
	032327'	202511	720250
	032330'	442124	052262
	032331'	466071	746500
  2534	032332'	446605	606424	TYMCOM IX COMPRESSED BLANKS WILL BE EXPANDED WHEN TRANSFERRING TO
	032333'	522631	541636
	032334'	465011	154100
	032335'	416371	550244
	032336'	426472	342610
	032337'	202051	440634
	032340'	456464	053622
	032341'	462304	041212
	032342'	202133	050202
	032343'	472110	542100
	032344'	536210	547100
	032345'	522450	147246
	032346'	432132	251222
	032347'	472164	052236
  2535	032350'	064252	444212	THE TYMCOM X.
	032351'	202513	146606
	032352'	476324	054134
  2536	032353'	064250	644630	FILE NAMES MUST MEET THE SYNTAX REQUIREMENTS OF THE APPROPRIATE
	032354'	425011	640632
	032355'	426464	046652
	032356'	516504	046612
	032357'	426504	052220
	032360'	425012	354634
	032361'	522033	020244
	032362'	426432	544644
	032363'	426330	547250
	032364'	515011	743100
	032365'	522210	520202
	032366'	502412	247640
	032367'	512230	152212
  2537	032370'	064252	354646	SYSTEM.
	032371'	522131	527032
  2538	032372'	050000	000000	/
TELECOPY - THE CONTROLLER FOR PDP-10 TELECOPY	MACRO 12.5-46.0 08:11 25-OCT-87 PAGE 41
TELECO.MAC	23-DEC-86 12:29		- INTERRUPT AND ERROR HANDLING

  2539				SUBTTL - INTERRUPT AND ERROR HANDLING
  2540
  2541	032373'	000000	000101'	ERRRET:	GETCMD
  2542	032374'	000000	032751'		SYSERR	;OUT OF SYNC
  2543	032375'	000000	032751'		SYSERR	;DISK ERROR
  2544	032376'	000000	032751'		SYSERR	;TOO MANY RETRIES
  2545
  2546	032377'	202040	034077'	TIMADR:	MOVEM A,SAVA
  2547	032400'	336040	002432*		SKIPN A,TIMFLG
  2548					JRST	[PUSHJ P,TIMIN1
  2549						SETZM RETFLG
  2550	032401'	254000	034704'			JRST TIMA1]
  2551	032402'	331000	032400*		SKIPL TIMFLG
  2552	032403'	402000	032402*		SETZM TIMFLG
  2553	032404'	476000	034100'		SETOM RETFLG
  2554	032405'	260740	001746'	TIMA1:	PUSHJ P,SETUPT
  2555	032406'	200040	034077'		MOVE A,SAVA
  2556	032407'	332000	034100'		SKIPE RETFLG
  2557	032410'	047000	777755		DISMIS
  2558	032411'	201040	032744'		MOVEI A,RESETIT
  2559	032412'	202040	033136'		MOVEM A,INTTAB+2
  2560	032413'	047000	777755		DISMIS
  2561
  2562	032414'			RESMSG: ASCIZ/
  2563	032414'	064250	344644	CIRCUIT NOT RESPONDING - ABORTING.
	032415'	416531	152100
	032416'	472372	420244
	032417'	426472	047634
	032420'	422231	643500
	032421'	265010	141236
	032422'	512511	147216
  2564	032423'	270321	200000	/
  2565	032424'			SYNMSG: ASCIZ/
  2566	032424'	064252	547202	UNABLE TO SYNCHRONIZE WITH SLAVE PROGRAM - ABORTING.
	032425'	412310	520250
	032426'	475012	354634
	032427'	416212	247634
	032430'	446650	520256
	032431'	446511	020246
	032432'	462032	642500
	032433'	502451	743644
	032434'	406324	026500
	032435'	406051	751250
	032436'	446350	727032
  2567	032437'	050000	000000	/
  2568
  2569				;DUMMY INTERRUPT ROUTINE USED BY ZAPIT
  2570	032440'	201040	032526'	ZAPIT1: MOVEI A,ZAPCIR
  2571	032441'	202040	033134'	 MOVEM A,INTTAB
  2572	032442'	047000	777755	 DISMIS
  2573
  2574				;BUFFER ZAP OCCURRED.  ABANDON CURRENT OPERATION.
  2575	032443'	260740	032502'	ZAPIT3: PUSHJ P,ZAPIN1  ;LOSE CIRCUIT IF POSSIBLE
TELECOPY - THE CONTROLLER FOR PDP-10 TELECOPY	MACRO 12.5-46.0 08:11 25-OCT-87 PAGE 41-2
TELECO.MAC	23-DEC-86 12:29		- INTERRUPT AND ERROR HANDLING

  2576	032444'	201040	032744'	        MOVEI A,RESETIT
  2577	032445'	202040	033140'	        MOVEM A,BUFRTN-1
  2578	032446'	047000	777755	        DISMIS
  2579
  2580				;CIRCUIT LOST.
  2581	032447'	260740	001123'	ZAPADR: PUSHJ P,RESREG  ;RESTORE REGISTERS
  2582	032450'	525040	377777	        HRLOI A,DISABLE
  2583	032451'	047040	777744	        INTENB A,
  2584	032452'	255000	000000	        JFCL
  2585				        OUTSTR  [ASCIZ/
  2586	032453'	001000	034707'	CIRCUIT ZAPPED - ABORTING,  SYSTEM /]
  2587	032454'	200040	034142'		MOVE A,AUXCIR			;[22] tell us who lost
  2588	032455'	260740	026606'		PUSHJ P,OUTDEC			;[22]
  2589	032456'	260740	033124'		PUSHJ P,CRLF			;[22]
  2590	032457'	260740	032526'	        PUSHJ P,ZAPCIR
  2591	032460'	201040	032744'		MOVEI A,RESETIT
  2592	032461'	202040	033134'		MOVEM A,INTTAB
  2593	032462'	047000	777755		DISMIS
  2594
  2595				;HERE TO BAIL OUT OF SERIOUS DIFFICULTY.  TRY TO LOSE CIRCUIT
  2596	032463'	000000	000000	ZAPINT: 0       ;SIMULATE LOSS OF CIRCUIT
  2597	032464'	260740	032502'	 PUSHJ P,ZAPIN1
  2598	032465'	254000	032744'	 JRST RESETIT
  2599
  2600				;HERE IN CASE OF DIFFICULTY WHICH WOULD EVENTUALLY PRODUCE TIMEOUT
  2601	032466'	000000	000000	TIMINT: 0       ;SIMULATE TIMEOUT
  2602	032467'	260740	032471'	 PUSHJ P,TIMIN1
  2603	032470'	254000	032744'	 JRST RESETIT
  2604
  2605	032471'	260740	001123'	TIMIN1: PUSHJ P,RESREG
  2606	032472'	525040	377777	        HRLOI A,DISABLE
  2607	032473'	047040	777744	        INTENB A,
  2608	032474'	255000	000000	        JFCL
  2609	032475'	001020	034171'	        OUTSTR @TIMMSG
  2610	032476'	201040	032414'	        MOVEI A,RESMSG
  2611	032477'	202040	034171'	        MOVEM A,TIMMSG#
  2612	032500'	260740	032512'	        PUSHJ P,ZAPIT
  2613	032501'	263740	000000	        POPJ P,
  2614
  2615	032502'	260740	001123'	ZAPIN1: PUSHJ P,RESREG ;RESTORE REGISTERS
  2616	032503'	525040	377777	 HRLOI A,DISABLE         ;DISABLE ALL CHANNELS
  2617	032504'	047040	777744	 INTENB A,
  2618	032505'	255000	000000	 JFCL
  2619				 OUTSTR [ASCIZ/
  2620				SYNCHRONIZATION PROBLEM--ABORTING.
  2621	032506'	001000	034717'	/]
  2622	032507'	264000	000000*	 IFG TESTNG,<JSR CRASH##>
  2623	032510'	260740	032512'	 PUSHJ P,ZAPIT
  2624	032511'	263740	000000	 POPJ P,
  2625	032512'			CLRCIR:
  2626	032512'	476000	032403*	ZAPIT:	SETOM TIMFLG
  2627	032513'	260740	001123'	        PUSHJ P,RESREG  ;RESTORE REGISTERS MODIFIED BY "NEW" CODE
  2628	032514'	525100	377777		HRLOI B,DISABLE
TELECOPY - THE CONTROLLER FOR PDP-10 TELECOPY	MACRO 12.5-46.0 08:11 25-OCT-87 PAGE 41-3
TELECO.MAC	23-DEC-86 12:29		- INTERRUPT AND ERROR HANDLING

  2629	032515'	047100	777744		INTENB B,       ;DISABLE ALL CHANNELS
  2630	032516'	255000	000000		JFCL
  2631	032517'	201040	032440'	        MOVEI A,ZAPIT1
  2632	032520'	202040	033135'	        MOVEM A,ZAPRTN
  2633	032521'	205100	600000	        MOVSI B,ENABLE+CH1
  2634	032522'	047100	777744	        INTENB B,       ;ENABLE CIRCUIT LOSS
  2635	032523'	255000	000000	        JFCL
  2636	032524'	332000	002320*	        SKIPE AUXPRT
  2637	032525'	254000	032541'	        JRST LOS370
  2638				; RESET ALL CIRCUIT SWITCHES
  2639	032526'	402000	032524*	ZAPCIR: SETZM AUXPRT##          ;AUXILLIARY CHANNEL NO.
  2640	032527'	402000	034145'	        SETZM AUXTYP            ;SLVTYP FOR THIS CIRCUIT
  2641	032530'	402000	034142'	        SETZM AUXCIR#           ;SYSTEM NO. CIRCUIT IS BUILT TO
  2642	032531'	402000	000000*	        SETZM BMOD##    ;NOT IN BLOCK I/O MODE
  2643	032532'	402000	002356*	ZAPC1:  SETZM PGMSW     ;NO PROGRAM
  2644	032533'	402000	002360*	        SETZM NEWSW     ;NOTHING IS NOT NEW
  2645	032534'	261740	000001	        PUSH P,A
  2646	032535'	201040	032447'	        MOVEI A,ZAPADR
  2647	032536'	202040	033135'	        MOVEM A,ZAPRTN
  2648	032537'	262740	000001	        POP P,A
  2649	032540'	263740	000000		POPJ P,
  2650	032541'	200040	034145'	LOS370: MOVE A,AUXTYP
  2651	032542'	302040	000001	        CAIE A,IX       ;IS IT A 940
  2652	032543'	332000	032532*	        SKIPE PGMSW     ;NO, DO WE HAVE A PROGRAM?
  2653	032544'	254000	032552'	        JRST LOS37A     ;JUST SEND ZAPPER
  2654				        OUTSTR [ASCIZ"
  2655	032545'	001000	034727'	CONNECTION REMAINS TO SYSTEM "]
  2656	032546'	200040	034142'	        MOVE A,AUXCIR
  2657	032547'	260740	026606'	        PUSHJ P,OUTDEC
  2658				        OUTSTR [ASCIZ"--USE TALK COMMAND TO LOGOUT
  2659	032550'	001000	034736'	"]
  2660	032551'	254000	032532'	        JRST ZAPC1
  2661	032552'	200040	032526*	LOS37A: MOVE A,AUXPRT
  2662	032553'	047040	777733	        ZAPCIR A,
  2663	032554'	254000	032526'	        JRST ZAPCIR
TELECOPY - THE CONTROLLER FOR PDP-10 TELECOPY	MACRO 12.5-46.0 08:11 25-OCT-87 PAGE 42
TELECO.MAC	23-DEC-86 12:29		- INTERRUPT AND ERROR HANDLING

  2664				; command to track tru usage
  2665
  2666	032555'	260740	032606'	trus:	pushj	p,clrtru		; clear the tru string
  2667	032556'	047040	000030		pjob	a,
  2668	032557'	047040	000027		runtim	a,			; get current trus
  2669	032560'	274040	034164'		sub	a,statru#		; make incremental
  2670	032561'	272040	034164'		addm	a,statru		; store for next command
  2671	032562'	231040	023420		idivi	a,^d10000
  2672	032563'	202100	034147'		movem	b,fracti#		; save fractional trus
  2673	032564'	322040	032570'		jumpe	a,trus1
  2674	032565'	200640	033254'		move	ptr,truptr		; pointer to ascii string
  2675	032566'	260740	001572'		pushj	p,maksys		; convert a to ascii
  2676	032567'	001000	033510'		outstr	trustr			; print it
  2677	032570'	003000	034745'	trus1:	outchr	["."]			; print a decimal point
  2678	032571'	260740	032606'		pushj	p,clrtru
  2679	032572'	200640	033254'		move	ptr,truptr
  2680	032573'	200040	034147'		move	a,fracti		; pick up fractional trus
  2681	032574'	260740	001572'		pushj	p,maksys		; convert to ascii string
  2682	032575'	200100	034147'		move	b,fracti
  2683	032576'	221100	000012	trus2:	imuli	b,^d10			; move fraction a digit
  2684	032577'	301100	023420		cail	b,^d10000		; need to preing leading zeros
  2685	032600'	254000	032603'		 jrst	trus3
  2686	032601'	003000	034746'		outchr	["0"]
  2687	032602'	254000	032576'		jrst	trus2
  2688	032603'	001000	033510'	trus3:	outstr	trustr
  2689	032604'	001000	034747'		outstr	[asciz/ TRUS/]
  2690	032605'	254000	000101'		jrst	getcmd			; done
  2691
  2692	032606'	402000	033510'	clrtru:	setzm	trustr			; clear the tru string
  2693	032607'	200040	034751'		move	a,[trustr,,trustr+1]
  2694	032610'	251040	033515'		blt	a,trustr+5
  2695	032611'	263740	000000		popj	p,
  2696
TELECOPY - THE CONTROLLER FOR PDP-10 TELECOPY	MACRO 12.5-46.0 08:11 25-OCT-87 PAGE 43
TELECO.MAC	23-DEC-86 12:29		- INTERRUPT AND ERROR HANDLING

  2697	032612'	626556	000000	CMDTAB:	SIXBIT /RUN/
  2698	032613'	504554	600000		SIXBIT /HELP/
  2699	032614'	515663	646265		SIXBIT /INSTRU/
  2700	032615'	664562	635157		SIXBIT /VERSIO/
  2701	032616'	616551	640000		SIXBIT /QUIT/
  2702	032617'	575654	430000		SIXBIT /ONLC/
  2703	032620'	574646	544300		SIXBIT /OFFLC/
  2704	032621'	634362	416443	        SIXBIT /SCRATC/
  2705	032622'	555744	450000	        SIXBIT /MODE/
  2706	032623'	435755	606245	        SIXBIT /COMPRE/
  2707	032624'	675071	000000	        SIXBIT /WHY/
  2708	032625'	465170	454400		SIXBIT /FIXED/		;[22] changed from 'fix'
  2709	032626'	664162	514142		SIXBIT /VARIAB/		;[22] changed from 'var'
  2710	032627'	644154	530000	        SIXBIT /TALK/
  2711	032630'	645155	450000		SIXBIT /TIME/
  2712	032631'	637163	312420		SIXBIT /SYS940/
  2713	032632'	637163	232720		SIXBIT /SYS370/
  2714	032633'	534545	600000	        SIXBIT /KEEP/
  2715	032634'	624560	544143	        SIXBIT /REPLAC/
  2716	032635'	416353	000000	        SIXBIT /ASK/
  2717	032636'	565764	000000		SIXBIT /NOT/
  2718	032637'	505763	640000		SIXBIT /HOST/
  2719	032640'	604163	636757		SIXBIT /PASSWO/
  2720	032641'	474164	456741		SIXBIT /GATEWA/
  2721	032642'	435755	554156	        SIXBIT /COMMAN/
  2722	032643'	646265	630000		SIXBIT /TRUS/
  2723	032644'	646265	564341	NEGTAB:	SIXBIT /TRUNCA/
  2724	032645'	636560	624563		SIXBIT /SUPRES/
  2725	032646'	656044	416445	        SIXBIT /UPDATE/
  2726	032647'	545761	654143	        SIXBIT /LOQUAC/
  2727			000036	CMDSIZ==.-CMDTAB
  2728			000004	NEGSIZ==.-NEGTAB
  2729
  2730	032650'	000000	000321'	CMDISP:	RUNROU
  2731	032651'	000000	000434'		HELP
  2732	032652'	000000	000440'		INSTRU
  2733	032653'	000000	000424'		VERSION
  2734	032654'	000000	000507'		ENDIT
  2735	032655'	000000	000502'		SETLC
  2736	032656'	000000	000501'		RESTLC
  2737	032657'	000000	000627'	        SCRAT
  2738	032660'	000000	000634'	        MODE
  2739	032661'	000000	001021'	        COMPRESS
  2740	032662'	000000	001062'	        WHY
  2741	032663'	000000	001167'	        FIX1
  2742	032664'	000000	001175'	        VAR1
  2743	032665'	000000	001412'	        TALK
  2744	032666'	000000	000452'		SETIME
  2745	032667'	000000	000450'		SYS940
  2746	032670'	000000	000446'		SYS370
  2747	032671'	000000	000623'	        KEEP
  2748	032672'	000000	000624'	        REPLACE
  2749	032673'	000000	000621'	        ASKIT
TELECOPY - THE CONTROLLER FOR PDP-10 TELECOPY	MACRO 12.5-46.0 08:11 25-OCT-87 PAGE 43-2
TELECO.MAC	23-DEC-86 12:29		- INTERRUPT AND ERROR HANDLING

  2750	032674'	000000	000553'		NEGATE
  2751	032675'	000000	001360'	        HOST
  2752	032676'	000000	001214'	        PASSWO
  2753	032677'	000000	001253'	        GATEWA
  2754	032700'	000000	001237'	        COMMAN
  2755	032701'	000000	032555'		TRUS
  2756	032702'	000000	000604'		TRUNCA
  2757	032703'	000000	000562'		SUPRES
  2758	032704'	000000	000570'	        UPDATE
  2759	032705'	000000	000573'	        VERBO
  2760
  2761	032706'	000000	000601'	NEGDIS:	NOTRU
  2762	032707'	000000	000561'		NOSUP
  2763	032710'	000000	000567'	        NOUPDA
  2764	032711'	000000	000574'	        NOVER
TELECOPY - THE CONTROLLER FOR PDP-10 TELECOPY	MACRO 12.5-46.0 08:11 25-OCT-87 PAGE 44
TELECO.MAC	23-DEC-86 12:29		- INTERRUPT AND ERROR HANDLING

  2765
  2766	032712'			typtab:
  2767	032712'	647155	157000	        sixbit /tym-x /
  2768	032713'	700000	000000	        sixbit /x     /
  2769	032714'	647155	157070	        sixbit /tym-xx/
  2770	032715'	707000	000000	        sixbit /xx    /
  2771	032716'	232720	000000	        sixbit /370   /
  2772	032717'	435563	000000	        sixbit /cms   /
  2773	032720'	556663	000000	        sixbit /mvs   /
  2774	032721'	647155	232720	        sixbit /tym370/
  2775	032722'	647155	435563	        sixbit /tymcms/
  2776	032723'	312420	000000	        sixbit /940   /
  2777	032724'	647155	517000	        sixbit /tymix /
  2778	032725'	517000	000000	        sixbit /ix    /
  2779	032726'	000000	000013	typsiz: .-typtab-1
  2780
  2781	032727'			hsttab:
  2782	032727'	000003	026645'	        xwd     x,gomes
  2783	032730'	000003	026645'	        xwd     x,gomes
  2784	032731'	000003	026645'	        xwd     x,gomes
  2785	032732'	000003	026645'	        xwd     x,gomes
  2786	032733'	000004	026654'	        xwd     x370,gome2a
  2787	032734'	000004	026654'	        xwd     x370,gome2a
  2788	032735'	000004	026654'	        xwd     x370,gome2a
  2789	032736'	000004	026654'	        xwd     x370,gome2a
  2790	032737'	000004	026654'	        xwd     x370,gome2a
  2791	032740'	000001	026652'	        xwd     ix,gomes1
  2792	032741'	000001	026652'	        xwd     ix,gomes1
  2793	032742'	000001	026652'	        xwd     ix,gomes1
  2794
  2795				SYNERR:	OUTSTR	[ASCIZ/
  2796				? SYNTAX ERROR - PLEASE RE-ENTER OR TYPE INSTRUCTIONS.
  2797	032743'	001000	034752'	/]
  2798	032744'	200140	034573'	RESETIT:	MOVE C,[XWD OLDCMD,INBLK];RESTORE PREVIOUS COMMAND SO
  2799	032745'	251140	033402'		BLT C,INBLK+MAXWDS-1	;WE DON'T LOOSE IT
  2800	032746'	620400	007200		TRZ F,MOREIN+OLDFORM+HAS2BOLD+NOTOFIL	;MAKE HIM TYPE IT OVER
  2801	032747'	621400	000002		TLZ F,MORETR
  2802	032750'	254000	000101'		JRST GETCMD
  2803
  2804				SYSERR:	OUTSTR	[ASCIZ/
  2805				SYSTEM ERROR - ABORTING.
  2806	032751'	001000	034766'	/]
  2807	032752'	260740	032512'		PUSHJ P,ZAPIT
  2808	032753'	254000	032744'		JRST RESETIT
  2809
  2810				CIR2:	OUTSTR	[ASCIZ/
  2811	032754'	001000	034774'	YOU MUST EITHER COPY FROM OR COPY TO SYSTEM /]
  2812	032755'	200040	033277'		MOVE A,THISYS
  2813	032756'	260740	026606'		PUSHJ P,OUTDEC
  2814	032757'	260740	033124'		PUSHJ P,CRLF
  2815	032760'	254000	032744'		JRST RESETIT
  2816
  2817				CIR0:	OUTSTR	[ASCIZ/
TELECOPY - THE CONTROLLER FOR PDP-10 TELECOPY	MACRO 12.5-46.0 08:11 25-OCT-87 PAGE 44-2
TELECO.MAC	23-DEC-86 12:29		- INTERRUPT AND ERROR HANDLING

  2818				"COPY TO" AND "COPY FROM" SYSTEM MUST NOT BE THE SAME.
  2819	032761'	001000	035006'	/]
  2820	032762'	254000	032744'		JRST RESETIT
  2821
  2822				BADNAM:	OUTSTR	[ASCIZ/
  2823	032763'	001000	035022'	USER NAME INVALID OR NO UFD/]
  2824	032764'	254000	033047'		JRST FINERR
  2825
  2826				PROERR:	OUTSTR	[ASCIZ/
  2827	032765'	001000	035030'	ERROR ON FILE /]
  2828	032766'	260740	033040'		PUSHJ P,FILOUT
  2829	032767'	254000	033047'		JRST FINERR
  2830
  2831				NOSYSN:	OUTSTR	[ASCIZ/
  2832				CANNOT GET THIS SYSTEM NUMBER.
  2833				CALL Q.A.
  2834	032770'	001000	035034'	/]
  2835	032771'	047000	000012		EXIT
  2836
  2837				FNFERR:	OUTSTR	[ASCIZ/
  2838	032772'	001000	035046'	UNABLE TO LOCATE FILE /]
  2839	032773'	260740	033040'		PUSHJ P,FILOUT
  2840	032774'	254000	033047'		JRST FINERR
  2841
  2842	032775'	550112	000003	CHKERR:	HRRZ B,ERR(SIDE)
  2843	032776'	322100	032772'		JUMPE B,FNFERR
  2844	032777'	306100	000001		CAIN B,1
  2845	033000'	254000	032763'		JRST BADNAM
  2846	033001'	306040	000002		CAIN A,2
  2847	033002'	254000	032765'		JRST PROERR
  2848					OUTSTR	[ASCIZ/
  2849	033003'	001000	035053'	CANNOT OPEN FILE /]
  2850	033004'	260740	033040'		PUSHJ P,FILOUT
  2851	033005'	254000	033047'		JRST FINERR
TELECOPY - THE CONTROLLER FOR PDP-10 TELECOPY	MACRO 12.5-46.0 08:11 25-OCT-87 PAGE 45
TELECO.MAC	23-DEC-86 12:29		- INTERRUPT AND ERROR HANDLING

  2852				;OUTPUT NAME
  2853	033006'	201700	000050	NAMOUT:	MOVEI CH,LPAREN
  2854	033007'	003000	000016		OUTCHR CH
  2855	033010'	200640	033243'		MOVE BP,NAMPTR
  2856	033011'	201440	000014		MOVEI N,SIZUSR
  2857	033012'	661400	000001		TLO F,NOSPACE
  2858	033013'	134700	000015	NAMO1:	ILDB CH,BP
  2859					JUMPE CH,[TLZE F,NOSPACE
  2860						MOVE C,N
  2861	033014'	322700	035057'			JRST .+2]
  2862	033015'	661400	000001		TLO F,NOSPACE
  2863	033016'	367440	033013'		SOJG N,NAMO1
  2864	033017'	623400	000001		TLZE F,NOSPACE
  2865	033020'	400140	000000		SETZ C,
  2866	033021'	201440	000014		MOVEI N,SIZUSR
  2867	033022'	274440	000003		SUB N,C
  2868	033023'	200640	033243'		MOVE BP,NAMPTR
  2869	033024'	134700	000015		ILDB CH,BP
  2870	033025'	271700	000040		ADDI CH,SPACE
  2871	033026'	003000	000016		OUTCHR CH
  2872	033027'	367440	033024'		SOJG N,.-3
  2873	033030'	201700	000072		MOVEI CH,COLON
  2874	033031'	003000	000016		OUTCHR CH
  2875	033032'	263740	000000		POPJ P,0
  2876
  2877	033033'	200052	000017	SYSOUT:	MOVE A,SYS(SIDE)
  2878	033034'	260740	026606'		PUSHJ P,OUTDEC
  2879	033035'	201700	000051		MOVEI CH,RPAREN
  2880	033036'	003000	000016		OUTCHR CH
  2881	033037'	263740	000000		POPJ P,0
  2882
  2883				;OUTPUT SIXBIT FILE NAME TO TTY
  2884	033040'	200452	777777	FILOUT:	MOVE N,FSIZE(SIDE)		;GET LENGTH OF FILE NAME
  2885	033041'	200640	033245'		MOVE BP,FILPTR
  2886	033042'	134700	000015	FILO1:	ILDB CH,BP	;GET A SIXBIT CHARAACTERR
  2887	033043'	271700	000040		ADDI CH,SPACE	;MAKE ASCII
  2888	033044'	003000	000016		OUTCHR CH	;OUTPUT IT TO TTY
  2889	033045'	367440	033042'		SOJG N,FILO1	;AND GET NEXT
  2890	033046'	263740	000000		POPJ P,0
  2891
  2892	033047'	001000	035062'	FINERR:	OUTSTR [ASCIZ/ ON SYSTEM /]
  2893	033050'	200052	000017		MOVE A,SYS(SIDE)
  2894	033051'	260740	026606'		PUSHJ P,OUTDEC
  2895	033052'	260740	033124'		PUSHJ P,CRLF
  2896	033053'	254000	000101'		JRST GETCMD
TELECOPY - THE CONTROLLER FOR PDP-10 TELECOPY	MACRO 12.5-46.0 08:11 25-OCT-87 PAGE 46
TELECO.MAC	23-DEC-86 12:29		- INTERRUPT AND ERROR HANDLING

  2897				; WE HAVE A CIRCUIT BUT NO WAY TO LOSE IT.
  2898	033054'	621400	000002	DEADCR: TLZ F,MORETR    ;DO NOT TRY ANY MORE XFERS FROM THIS COMMMAND
  2899	033055'	254000	000101'	        JRST GETCMD
  2900				; WE WERE UNABLE TO BUILD A CIRCUIT
  2901	033056'	260740	032526'	NOCIR:	PUSHJ P,ZAPCIR  ;CLEAR CIRCUIT SWITCHES
  2902	033057'	621400	000002		TLZ F,MORETR	;DO NOT TRY ANY MORE XFERS FROM THIS COMMAND
  2903	033060'	554100	000001		HLRZ B,A
  2904	033061'	322100	033103'		JUMPE B,SUPERR
  2905	033062'	301100	000010		CAIL B,ER10NM
  2906	033063'	254000	033066'		JRST ENX10
  2907	033064'	001022	033073'		OUTSTR @ERR10(B)
  2908	033065'	254000	000101'		JRST GETCMD
  2909
  2910				ENX10:	OUTSTR	[ASCIZ/
  2911	033066'	001000	035065'	UNRECOGNIZED ERROR FROM MONITOR NUMBER /]
  2912	033067'	200040	000002		MOVE A,B
  2913	033070'	260740	026606'	COMAXR:	PUSHJ P,OUTDEC
  2914	033071'	260740	033124'		PUSHJ P,CRLF
  2915	033072'	254000	000101'		JRST GETCMD
  2916	033073'	000000	000000	ERR10:	0
  2917					[ASCIZ /
  2918				TOO MANY CIRCUITS
  2919	033074'	000000	035076'	/]
  2920					[ASCIZ/
  2921				BAD USER NAME
  2922	033075'	000000	035103'	/]
  2923					[ASCIZ/
  2924				OUT OF CHANNELS FROM HOST
  2925	033076'	000000	035107'	/]
  2926
  2927					[ASCIZ/
  2928				NO RESPONSE TO REQUEST
  2929	033077'	000000	035115'	/]
  2930					[ASCIZ/
  2931				NO RESPONSE TO STRING
  2932	033100'	000000	035123'	/]
  2933					[ASCIZ/
  2934				NO CIRCUIT ESTABLISHED
  2935	033101'	000000	035131'	/]
  2936					[ASCIZ/
  2937				ERROR RESPONSE TO REQUEST
  2938	033102'	000000	035137'	/]
  2939			000010	ER10NM=.-ERR10
  2940
TELECOPY - THE CONTROLLER FOR PDP-10 TELECOPY	MACRO 12.5-46.0 08:11 25-OCT-87 PAGE 47
TELECO.MAC	23-DEC-86 12:29		- INTERRUPT AND ERROR HANDLING

  2941	033103'	332000	000001	SUPERR:	SKIPE A				;[22]
  2942	033104'	301040	000005		 CAIL A,ERSPNM
  2943	033105'	254000	033115'		  JRST ENXSUP	;UNRECOGNIZED SUP RESPONSE
  2944	033106'	260740	033124'		PUSHJ P,CRLF
  2945	033107'	001021	033117'		OUTSTR @ERRSUP(A)
  2946	033110'	200040	034142'		MOVE A,AUXCIR			;[22]
  2947	033111'	336000	000001		SKIPN A				;[22] don't bother if circuit zapped
  2948	033112'	254000	000101'		  JRST GETCMD			;[22]
  2949	033113'	001000	035145'		OUTSTR [ASCIZ/, SYSTEM /]	;[22] tell us what system
  2950	033114'	254000	033070'		JRST COMAXR			;[22]
  2951
  2952				ENXSUP:	OUTSTR [ASCIZ/
  2953	033115'	001000	035147'	UNRECOGNIZED ERROR FROM SUPERVISOR - NUMBER /]
  2954	033116'	254000	033070'		JRST COMAXR
  2955
  2956	033117'	000000	000000	ERRSUP:	0
  2957	033120'	000000	035161'		[ASCIZ/BAD NAME FORMAT/]
  2958	033121'	000000	035165'		[ASCIZ/NAME NOT IN MUD/]
  2959	033122'	000000	035171'		[ASCIZ/BAD MUD - CONTACT SQA/]
  2960	033123'	000000	035176'		[ASCIZ/SYSTEM UNAVAILABLE/]
  2961			000005	ERSPNM==.-ERRSUP
  2962
  2963				CRLF:	OUTSTR [ASCIZ/
  2964	033124'	001000	034203'	/]
  2965	033125'	263740	000000		POPJ P,0
TELECOPY - THE CONTROLLER FOR PDP-10 TELECOPY	MACRO 12.5-46.0 08:11 25-OCT-87 PAGE 48
TELECO.MAC	23-DEC-86 12:29		- DEFINED WORDS AND POINTERS

  2966				SUBTTL - DEFINED WORDS AND POINTERS
  2967
  2968				;[22] GSYS:	SIXBIT /JOBS/	;[22] left in place for historical
  2969				;[22]	SIXBIT /DAT/		;[22] purposes.
  2970				;[22]	0
  2971				;[22]	XWD 6,214
  2972
  2973	033126'	546544	000000	LUDLOK:	SIXBIT /LUD/
  2974	033127'	637163	000000		SIXBIT /SYS/
  2975	033130'	000000	000000		0
  2976	033131'	000000	000000		0
  2977	033132'	777600	033633'	SYSLST:	IOWD 200,SYSBLK
  2978	033133'	000000	000000		0
  2979	033134'	000000	000000	INTTAB:	0
  2980	033135'	000000	032447'	ZAPRTN: ZAPADR
  2981	033136'	000000	000000		0
  2982	033137'	000000	032377'	TIMRTN:	TIMADR
  2983	033140'	000000	000000		0
  2984	033141'	000000	032443'	BUFRTN: ZAPIT3
  2985	033142'	000000	000000		0
  2986	033143'	000000	000462'	ESCRTN:	ALTTYP
  2987	033144'	000000	000000		0
  2988	033145'	000000	001466'	GOTRTN: CH5INT
  2989	033146'	000000	000000	        0
  2990	033147'	000000	001477'	CH6RTN: CH6INT
  2991	033150'	000000	000000	        0
  2992	033151'	000000	000000	CH7RTN: 0
  2993	033152'	000000	000000	        0
  2994	033153'	000000	000000	CH8RTN: 0
  2995	033154'			        BLOCK ^D54
  2996	033242'			LCOPT:
  2997	033242'	000000	000123	LC:	OFFLC
  2998
  2999				;POINTERS
  3000	033243'	440612	000015	NAMPTR:	POINT 6,UNAME(SIDE)
  3001	033244'	440700	033616'	STRPTR:	POINT 7,AUXSTR
  3002	033245'	440612	000020	FILPTR:	POINT 6,FNAME(SIDE)
  3003	033246'	440600	000014	WDPTR:	POINT 6,WD
  3004
  3005	033247'	777740	034101'	PDLPTR:	IOWD 40,PDL
  3006	033250'	440700	033307'	INBPTR:	POINT 7,INBLK
  3007	033251'	440700	033477'	pasptr: point 7,passwd
  3008	033252'	440600	033505'	usrptr: point   6,usrnam
  3009	033253'	440600	033507'	cfnptr: point   6,comfil
  3010	033254'	440700	033510'	truptr:	point	7,trustr
  3011	033255'	770000	000000	MASK:	770000000000	;MASK FOR FIRST CHARACTER ONLY
  3012	033256'	560000	000000	NO:	560000000000	;N
  3013	033257'	710000	000000	YES:	710000000000	;Y
TELECOPY - THE CONTROLLER FOR PDP-10 TELECOPY	MACRO 12.5-46.0 08:11 25-OCT-87 PAGE 49
TELECO.MAC	23-DEC-86 12:29		- STORAGE LOCATIONS

  3014				SUBTTL - STORAGE LOCATIONS
  3015
  3016	033260'			sysno:  block 1
  3017	033261'	000000	000003	INFIL:  3
  3018	033262'	000000	000000	        0
  3019	033263'	000000	000000	INFNAM: 0
  3020	033264'	000000	000000	INFEXT: 0
  3021	033265'			INBF: BLOCK 3
  3022	033270'	000000	000003	OUTFIL: 3
  3023	033271'	000000	000000	        0
  3024	033272'	000000	000000	OUTNAM: 0
  3025	033273'	576564	000000	OUTEXT: SIXBIT /OUT/
  3026	033274'			OUTBF: BLOCK 3
  3027	033277'	000000	000000	THISYS:	0	;THIS SYSTEM NO.
  3028	033300'			THISUS:	BLOCK 2	;CONTROLLING USER
  3029	033302'	000000	000000	FIRPTR:	0	;FIRST POINTER FOR "TO" SIDE
  3030	033303'	000000	000000	LSTTPT:	0	;LAST "TO" POINTER
  3031	033304'	000000	000000	LSTFPT:	0	;LAST "FROM" POINTER
  3032	033305'	000000	000000	LSTTCH:	0	;LAST "TO" CHARACTER
  3033	033306'	000000	000000	LSTFCH:	0	;LAST "FROM" CHARACTER
  3034	033307'			INBLK:	BLOCK MAXWDS	;BUFFER FOR TTY LINE
  3035	033403'			OLDCMD:	BLOCK MAXWDS	;BACKUP BUFFER FOR PREVIOUS TTY LINE
  3036	033477'			passwd: block 5         ;Buffer for the password
  3037	033504'	000000	033503'	pwdend: .-1             ;The last word of the password string
  3038	033505'			usrnam: block 2
  3039	033507'			comfil: block 1
  3040	033510'			trustr:	block 6		; for building tru string
  3041				;TO BE ZEROED BETWEEN RUNS
  3042	033516'	000000	000000	ZERO:	0
  3043	033517'	000000	000000	NOPRMT:	0	;0 IF PROMPT IS NEDED
  3044	033520'	000000	000000	DSIZE:	0	;SIZE OF DONOR FILE NAME
  3045	033521'			DBLK:	BLOCK SYS+MAXFIL
  3046	033557'	000000	000000	RSIZE:	0	;SIZE OF RECIP FILE NAME
  3047	033560'			RBLK:	BLOCK SYS+MAXFIL
  3048	033616'			AUXSTR:	BLOCK SIZLIN/5
  3049
  3050	033634'			SYSBLK:	BLOCK ^D161
  3051	034075'	000000	000000	SIZDON:	0	;SIZE OF DONOR FILE IN WORDS.
  3052	034076'	000000	000000	RETZAP:	0	;ADDRESS FOR RETURN FROM BUFFER LOST
  3053	034077'	000000	000000	SAVA:	0	;SAVE AC ON INTERRUPT
  3054	034100'	000000	000000	RETFLG:	0	;RETURN TO GETCMD IF = 0, DISMISS IF # 0
  3055	034101'	000000	000000	ZEREND:	0
  3056	034102'			PDL:	BLOCK 40
  3057			000000'	END	START
  3058
NO ERRORS DETECTED
PROGRAM BREAK IS 035202
5K CORE USED
TELECOPY - THE CONTROLLER FOR PDP-10 TELECOPY	MACRO 12.5-46.0 08:11 25-OCT-87 PAGE 50
TELECO.MAC	23-DEC-86 12:29		SYMBOL TABLE

A		000001		BLDIT		002306'		COMMA		000054	SPD	ERRRET		032373'
ABORT		002351'	INT	BLDSTR		001331'		COMMAN		001237'		ERRSUP		033117'
ABT		002353'	ENT	BMOD		032531'	EXT	COMPRE		001021'		ERSPNM		000005	SPD
ABTCOD		002362'	EXT	BP		000015	SPD	COMSZ		000003	SPD	ESC		001433'	EXT
ACRCAP		000000	EXT	BRKLIN		000050	SPD	COMT		001031'		ESCCHR		034146'
ALLNUM		000400	SPD	BUFRTN		033141'		COMT1		001034'		ESCRTN		033143'	INT
ALPHA		000101	SPD	C		000003		COMT2		001037'		ETX		001430'	EXT
ALT1		000476'		CAN		001074'	EXT	COMT3		001040'		EXIT	047000	000012
ALTTYP		000462'		CANAGN		000100	SPD	COMT4		001041'		EXT		000003	SPD
AMODE		002254'	EXT	CARRET		000015	SPD	COMT5		001045'		F		000010
ASCII		000000	EXT	CFNPTR		033253'		COMT5A		001056'		F370		000001	SPD
ASCMOD		000774'		CH		000016		COMT5B		001057'		FILE		000002	SPD
ASCNUM		000060	SPD	CH1		200000	SPD	CONF1		000546'		FILO1		033042'
ASCSIX		000040	SPD	CH2		100000	SPD	CONFIR		000541'		FILOUT		033040'
ASK		002427'	EXT	CH3		040000	SPD	CONTRL		000252	SPD	FILPTR		033245'
ASKIT		000621'		CH4		020000	SPD	COUT		000520'	EXT	FIN2ND		002754'
ASKTRU		000616'		CH4INT		001457'		CRASH		032507'	EXT	FINERR		033047'
ATSIGN		000100	SPD	CH5		010000	SPD	CREAUX	047000	777734		FIRPTR		033302'
ATTACH	047000	777772		CH5IN1		001471'		CRLF		033124'		FIX		002210'	EXT
AUTO		002233'	EXT	CH5INT		001466'		CROUT		002301'	INT	FIX1		001167'
AUX		000013	SPD	CH6		004000	SPD	CROUTS		002303'		FIXOPT		002207'	EXT
AUXCIR		034142'		CH6INT		001477'		D		000004		FN1		002736'
AUXGET		034143'		CH6RTN		033147'		DASH		000055	SPD	FNAME		000020	SPD
AUXIMG		000013	SPD	CH7RTN		033151'	INT	DBLK		033521'	INT	FNCT		001760'	EXT
AUXIN		000000	SPD	CH8RTN		033153'		DCOPT		002262'	EXT	FNDTYP		001405'
AUXINS		000001	SPD	CHKCMD		000271'		DEADCR		033054'		FNFERR		032772'
AUXOUT		000004	SPD	CHKERR		032775'		DELFND		026501'		FORTY		000040	SPD
AUXPRT		032552'	EXT	CHKNXT		002672'		DETACH		000525'	EXT	FORTY1		000041	SPD
AUXPTR		000005	SPD	CHKO		002417'		DISABL		377777	SPD	FRACTI		034147'
AUXPUT		034144'		CHKOLD		002406'		DISK		000001	SPD	FRECL		001212'	EXT
AUXSTR		033616'		CHKSPC		026526'		DISMIS	047000	777755		FSIZE	777777	777777	SPD
AUXTYP		034145'		CHKSYS		003021'		DONOR		000363'		GAB		001153'
B		000002		CIN		002447'	EXT	DOT		000056	SPD	GATEWA		001253'
BADNAM		032763'		CIR0		032761'		DOTOK		000010	SPD	GD		002202'	INT
BADSYS		003031'		CIR2		032754'		DRBLOC		002265'	EXT	GET		000241'
BELL		000007	SPD	CLR1		002375'		DRMODE		002261'	EXT	GETALL		001314'
BIM1		000721'		CLR2		002373'		DRPARA		002256'	EXT	GETBUF		000247'
BIM2		000726'		CLRBFI	006000	000000		DSIZE		033520'		GETC		002546'
BIM3		000737'		CLRBFO	005000	000000		DTBLOC		002264'	EXT	GETC1		002026'
BIM4		000746'		CLRBO		000474'	EXT	DTMODE		002260'	EXT	GETC2		002036'
BIM5		000755'		CLRCIR		032512'	ENT	DTPARA		002255'	EXT	GETC3		002064'
BIM5L		000767'		CLRIT		002353'		E		000005		GETCEX		002043'
BIM5R		000770'		CLRIUU		000236'		EBCMOD		000773'		GETCHS		026461'
BIM5S		000002	SPD	CLROUU		000233'		EM		001160'	EXT	GETCIR		001774'
BIM5T		000763'		CLRPAS		001225'		ENABLE		400000	SPD	GETCMD		000101'
BIM5T1		000765'		CLRTRU		032606'		ENDIT		000507'		GETCX1		002162'
BIMOD		000715'		CMDISP		032650'		ENTERR		000050'		GETLCH	051300	000000
BINCAP		000000	EXT	CMDSIZ		000036	SPD	ENX10		033066'		GETLIN		026565'
BIOEND		002042'	EXT	CMDTAB		032612'		ENXSUP		033115'		GETLN1		026574'
BIOMOD		002154'	EXT	COLON		000072	SPD	EQUALS		000075	SPD	GETMSK		000275'
BIOSIZ		000003	SPD	COM		000003	SPD	ER10NM		000010		GETN1		002645'
BIOT		000672'		COMAXR		033070'		ERR		000003	SPD	GETN2		002647'
BIOT1		000675'		COMFIL		033507'		ERR10		033073'		GETN3		002652'
TELECOPY - THE CONTROLLER FOR PDP-10 TELECOPY	MACRO 12.5-46.0 08:11 25-OCT-87 PAGE 50-2
TELECO.MAC	23-DEC-86 12:29		SYMBOL TABLE

GETNS1		026456'		INFIL		033261'		MASK		033255'		NOVER		000574'
GETNX1		001614'		INFNAM		033263'		MAXCHR		000454	SPD	NOVER1		000576'
GETNXT		002640'		INITEL		001616'		MAXFIL		000017	SPD	NUMIN		026617'
GETOLD		000324'		INPAS		001220'		MAXTRU		000377	SPD	NXTENT		000302'
GETONE		026537'		INSMSG		030657'		MAXWDS		000074	SPD	NXTSYS		034156'
GETPAS		001231'		INSTRU		000440'		MINTRU		000002	SPD	OCHI1		000202'
GETS1		001612'		INTADR	047000	777745		MOD6		000776'		OCHI2		000215'
GETS2		001613'		INTASS	047000	777742		MODE		000634'		OCHIUU		000200'
GETSIZ		001602'		INTENB	047000	777744		MODSZ		000011	SPD	OCHRUU		000207'
GETSY1		003015'		INTTAB		033134'		MODSZ1		000007	SPD	OFFLC		000123	SPD
GETSYS		003010'		IPOLL		001510'		MODT		000650'		OFFSUP		000126	SPD
GETTAB	047000	000041		IPOLL1		001511'		MODT1		000652'		OLDABT		002365'
GETUNA		002676'		IPOLL3		001533'		MODTB1		000661'		OLDCMD		033403'
GETUSR		002460'		IPOLL4		001534'		MODTB2		000663'		OLDFOR		000200	SPD
GOCMD		000273'		IPOLL5		001535'		MOREIN		001000	SPD	OLDPTR		034157'
GOME2A		026654'		IPOLL6		001541'		MORETR		000002	SPD	ONLC		000122	SPD
GOME2B		026660'		IPOLL7		001545'		MSG370		031707'		ONSUP		000125	SPD
GOMES		026645'		IWAIT		001451'		MSG940		032160'		OPOLL		001435'
GOMES1		026652'		IX		000001	SPD	N		000011		OPT2		034470'	EXT
GOTMAT		000313'		IXMODE		000717'	EXT	N1		000012	SPD	OPTR		000013
GOTMSK		000301'		JBTPRV		034153'		N2		000013	SPD	OPTSZ1		000000	EXT
GOTONE		026563'		JBTUN1	777777	777757	SPD	N3		000014	SPD	OSTRUU		000161'
GOTRTN		033145'		JBTUNM	777777	777756	SPD	NAMFLG		000074	SPD	OUT		000004	SPD
GP		001232'		JFYHR		001703'	EXT	NAMO1		033013'		OUTBF		033274'
GSYSTY		002170'		JFYMIN		001701'	EXT	NAMOD		001016'		OUTCHI	004000	000000
GTFNM		002704'		JFYSEC		001677'	EXT	NAMOUT		033006'		OUTCHR	003000	000000
GTFUN		002567'		JOBREN		000124	SPD	NAMPTR		033243'		OUTDEC		026606'
GTNSYS		026452'		KATAKA		001007'		NEEDCT		100000	SPD	OUTEXT		033273'
GTNXTC		026471'		KATCAP		000000	EXT	NEGATE		000553'		OUTFIL		033270'
GTTF1		002621'		KEEP		000623'		NEGDIS		032706'		OUTNAM		033272'
GTTFIL		002612'		KMODE		001010'	EXT	NEGSIZ		000004	SPD	OUTOCT		026607'
HAS2BO		004000	SPD	LC		033242'		NEGTAB		032644'		OUTSTR	001000	000000
HASHER		002507'		LCOPT		033242'	INT	NEWREC		000416'	EXT	P		000017
HAVNAM		000003'		LICENS		000020	SPD	NEWSEN		000376'	EXT	PANIC		000461'	INT
HELMSG		026663'		LKERR		000052'		NEWSW		032533'	EXT	PASPTR		033251'
HELP		000434'		LNFEED		000012	SPD	NEWSYS		040000	SPD	PASSWD		033477'
HGHSYS		023417	SPD	LNKMSG		001157'		NINECH		000071	SPD	PASSWO		001214'
HIBER	047000	000072		LOCVER		000137	SPD	NO		033256'		PCT		000045	SPD
HLOC		034150'		LOS370		032541'		NOCIR		033056'		PDL		034102'
HOST		001360'		LOS37A		032552'		NODEL		026474'		PDLPTR		033247'
HSTSYS		034151'		LOSCIR		002002'		NOINIT		034155'		PGMSW		032543'	EXT
HSTTAB		032727'		LPAREN		000050	SPD	NONE		034373'	EXT	PHI		000106	SPD
HT		000011	SPD	LSTFCH		033306'		NONSPC		200000	SPD	PJOB	047000	000030
HUNAME		034152'		LSTFPT		033304'		NONUM		026560'		PPN		000001	SPD
IMAGE		001013'		LSTIME		034154'		NOOPN		000422'		PREP		001755'
INBF		033265'		LSTTCH		033305'		NOPRMT		033517'		PROERR		032765'
INBLK		033307'		LSTTPT		033303'		NOSPAC		000001	SPD	PROMPT		000276	SPD
INBPTR		033250'		LUDLOK		033126'		NOSTRT		000002	SPD	PTR		000015
INCHU1		000231'		LVDEF		000011	SPD	NOSUP		000561'		PUT		000255'
INCHUU		000217'		MAK1		026630'		NOSYSN		032770'		PUTBUF		000261'
INCHWL	002000	000000		MAKE2		026635'		NOTOFI		002000	SPD	PUTBYT		000257'
INDEX		000015	SPD	MAKJOB		000040'		NOTRU		000601'		PUTCH		002344'
INFEXT		033264'		MAKSYS		001572'		NOUPDA		000567'		PUTSPC		002336'
TELECOPY - THE CONTROLLER FOR PDP-10 TELECOPY	MACRO 12.5-46.0 08:11 25-OCT-87 PAGE 50-3
TELECO.MAC	23-DEC-86 12:29		SYMBOL TABLE

PWDCMD		034160'		SETEX1		002747'		SW370		002232'	EXT	TYPSIZ		032726'
PWDEND		033504'		SETEXT		002745'		SW940		002250'	EXT	TYPTAB		032712'
QMARK		000077	SPD	SETIME		000452'		SYNERR		032743'		TYPTIM		000457'	EXT
QUICOD		002036'	EXT	SETLC		000502'		SYNMSG		032424'		U		000006	SPD
R0		000000		SETLIC	047000	777770		SYS		000017	SPD	UCOPT		001043'	EXT
RBLK		033560'	INT	SETTF		002765'		SYS370		000446'		UNAME		000015	SPD
RD		002465'		SETTIM	047000	777741		SYS940		000450'		UNCT		001764'	EXT
RDERR		000265'		SETTRU		000614'		SYSBLK		033634'	INT	UPDATE		000570'
RECIP		000400'		SETUNM		003001'		SYSERR		032751'		UPDCAP		000000	EXT
RECIP1		000415'		SETUPT		001746'		SYSLST		033132'	INT	UPDNO		000571'	EXT
RECIP2		000417'		SIDE		000012		SYSNO		033260'		UPDSW		001765'	EXT
REENTE		000001'		SIXNUM		000020	SPD	SYSNUM		001352'		UPSILO		000126	SPD
REMOD		000703'		SIZDON		034075'	INT	SYSOUT		033033'		URBLOC		000631'	EXT
REMOD1		000705'		SIZE		000005	SPD	SYSTAB		003033'		URPARA		000636'	EXT
REPLAC		000624'		SIZEXT		000003	SPD	SYSTYP		002266'	EXT	US		001531'	EXT
RESET		000101'	INT	SIZFIL		000006	SPD	T		034367'	EXT	USEP		001531'
RESET	047000	000000		SIZLIN		000110	SPD	T1		001000'	EXT	USRNAM		033505'
RESETI		032744'		SIZUSR		000014	SPD	T2		001003'	EXT	USRPTR		033252'
RESMSG		032414'		SKPCOM		020000	SPD	TALK		001412'		UTPARA		034342'	EXT
RESREG		001123'	ENT	SKPNAM		000025'		TALK2		001550'		UUO		000137'
RESTLC		000501'		SKPRET		002456'		TALK3		001423'		UUOERR		000157'
RET		001571'		SLAOK		000020	SPD	TALKSW		002064'	EXT	UUOFLG		000001	SPD
RETCHS		026524'		SLASH		000057	SPD	TESTNG		000001	SPD	UUORE1		000175'
RETFLG		034100'		SLEEP	047000	000031		THISUS		033300'		UUORET		000176'
RETZAP		034076'	INT	SLVMSG		034162'		THISYS		033277'		UUOTAB		000131'
RND		002527'		SLVTYP		034163'	INT	TIMA1		032405'		VAR1		001175'
RND1		002533'		SMODE		001014'	EXT	TIMADR		032377'		VAR2		001203'
RND2		002544'		SNDBAL		001312'		TIMFLG		032512'	EXT	VAR3		001211'
RPAREN		000051	SPD	SNDTYP		002271'		TIMIN1		032471'		VAROPT		002211'	EXT
RSIZE		033557'		SPACE		000040	SPD	TIMINT		032466'		VERBO		000573'
RSPCOD		001103'	EXT	SPCDEL		010000	SPD	TIMMSG		034171'		VERBOS		000575'	EXT
RUN	047000	000035		SPCLEN		000004	SPD	TIMRTN		033137'		VERNUM		002275'	EXT
RUNBLK		000533'		SPCTAB		026533'		TINASS	047000	777736		VERSIO		000424'
RUNIT		000343'		SPOK		000040	SPD	TRMOD		000700'		VRECL		001211'	EXT
RUNROU		000321'		STAGN		000107	SPD	TRU		034172'		WD		000014
RUNTIM	047000	000027		STAR		000052	SPD	TRUNC1		000606'		WDPTR		033246'
SAMFIL		002627'		STAROK		000004	SPD	TRUNCA		000604'		WHY		001062'
SAV		001133'		START		000000'		TRUPTR		033254'		WHY1		001073'
SAVA		034077'		STATRU		034164'		TRUS		032555'		WHY2		001100'
SAVFG		001132'		STKCNT		034165'		TRUS1		032570'		WHY3		001105'
SAVPTR		034161'		STKPTR		034166'		TRUS2		032576'		WHYCOD		001070'	EXT
SAVREG		001112'	ENT	STPT1		000033'		TRUS3		032603'		WTERR		000267'
SCRAT		000627'		STPT2		000075'		TRUSTR		033510'		X		000003	SPD
SCRATC		000703'	EXT	STPT3		000077'		TRYA1		002122'		X370		000004	SPD
SEMICO		000073	SPD	STRPTR		033244'		TRYAGN		002117'		XMODE		002240'	EXT
SEMOD		001012'		STRS1		001564'		TRYNXT		000307'		YELLOW		001164'	EXT
SET10		002235'		STRSIX		001562'		TSTINL		001443'		YES		033257'
SET370		002230'		STRSYS		034167'		TYMBIT		034173'		YESN2		002454'	ENT
SET940		002246'		SUMEX		000002	SPD	TYMHEL		030626'		YESNO		002432'
SET9A		002252'		SUP		034170'	INT	TYMINS		031515'		ZAPADR		032447'
SET9B		002260'		SUPERR		033103'		TYMSPC		000022	SPD	ZAPC1		032532'
SETCIR		001717'		SUPRES		000562'		TYMVER		000003	SPD	ZAPCIR		032526'
SETDEX		002473'		SW10		002237'	EXT	TYP1		000165'		ZAPCIR	047000	777733
TELECOPY - THE CONTROLLER FOR PDP-10 TELECOPY	MACRO 12.5-46.0 08:11 25-OCT-87 PAGE 50-4
TELECO.MAC	23-DEC-86 12:29		SYMBOL TABLE

ZAPIN1		032502'
ZAPINT		032463'	ENT
ZAPIT		032512'
ZAPIT1		032440'
ZAPIT3		032443'
ZAPRTN		033135'
ZEREND		034101'
ZERO		033516'
ZEROCH		000060	SPD

TELECOPY - THE CONTROLLER FOR PDP-10 TELECOPY	MACRO 12.5-46.0 08:11 25-OCT-87
TELECO.MAC	23-DEC-86 12:29		Symbol cross reference

A	    44#	   204	   206	   208	   224	   255	   256	   258	   259	   272	   273	   282	   283	   284
	   285	   290	   291	   344	   345	   346	   347	   348	   356	   360	   368	   369	   370	   371
	   372	   377	   382	   383	   384	   386	   435	   436	   437	   440	   442	   446	   454	   456
	   457	   486	   487	   488	   491	   492	   493	   500	   507	   508	   510	   511	   522	   523
	   525	   526	   528	   529	   548	   551	   587	   588	   596	   597	   603	   604	   607	   608
	   611	   612	   615	   622	   623	   625	   626	   635	   636	   652	   664	   665	   668	   671
	   672	   673	   676	   677	   678	   709	   710	   711	   716	   717	   722	   723	   724	   725
	   758	   759	   763	   764	   778	   779	   783	   833	   839	   842	   848	   855	   858	   879
	   880	   883	   886	   897	   909	   931	   951	   958	   959	   960	   962	   964	   965	  1000
	  1001	  1005	  1006	  1016	  1017	  1073	  1087	  1088	  1090	  1093	  1094	  1103	  1104	  1105
	  1106	  1108	  1109	  1110	  1115	  1116	  1117	  1125	  1127	  1131	  1180	  1181	  1186	  1187
	  1188	  1205	  1208	  1210	  1211	  1213	  1214	  1218	  1219	  1220	  1225	  1226	  1227	  1228
	  1231	  1232	  1233	  1234	  1239	  1240	  1242	  1244	  1248	  1249	  1251	  1252	  1253	  1254
	  1259	  1260	  1262	  1263	  1264	  1265	  1269	  1286	  1288	  1289	  1296	  1299	  1308	  1309
	  1310	  1314	  1325	  1327	  1329	  1330	  1331	  1349	  1355	  1356	  1357	  1361	  1362	  1364
	  1365	  1367	  1369	  1370	  1400	  1401	  1403	  1405	  1406	  1407	  1408	  1409	  1410	  1412
	  1413	  1414	  1415	  1416	  1417	  1418	  1419	  1420	  1421	  1422	  1424	  1425	  1427	  1428
	  1431	  1432	  1433	  1435	  1436	  1437	  1439	  1440	  1441	  1443	  1444	  1446	  1447	  1448
	  1450	  1451	  1463	  1464	  1466	  1467	  1475	  1479	  1484	  1485	  1486	  1487	  1491	  1498
	  1501	  1503	  1517	  1519	  1529	  1536	  1537	  1539	  1541	  1542	  1543	  1544	  1545	  1546
	  1549	  1550	  1557	  1558	  1561	  1566	  1567	  1570	  1571	  1573	  1574	  1575	  1576	  1577
	  1580	  1581	  1586	  1607	  1608	  1609	  1610	  1611	  1617	  1618	  1620	  1621	  1622	  1623
	  1642	  1643	  1644	  1645	  1647	  1648	  1650	  1652	  1654	  1671	  1672	  1673	  1674	  1681
	  1682	  1683	  1684	  1685	  1686	  1687	  1688	  1690	  1691	  1692	  1700	  1703	  1714	  1718
	  1719	  1721	  1722	  1723	  1724	  1725	  1726	  1727	  1730	  1731	  1735	  1736	  1758	  1769
	  1770	  1779	  1780	  1786	  1853	  1858	  1859	  1860	  1890	  1900	  1919	  1920	  1921	  1922
	  1953	  1970	  1971	  1981	  1982	  2010	  2022	  2024	  2025	  2029	  2030	  2031	  2032	  2033
	  2035	  2039	  2040	  2041	  2047	  2051	  2056	  2059	  2075	  2076	  2077	  2078	  2079	  2080
	  2081	  2082	  2083	  2088	  2089	  2090	  2091	  2111	  2112	  2113	  2114	  2156	  2157	  2170
	  2171	  2172	  2174	  2217	  2218	  2220	  2279	  2281	  2283	  2284	  2546	  2547	  2555	  2558
	  2559	  2570	  2571	  2576	  2577	  2582	  2583	  2587	  2591	  2592	  2606	  2607	  2610	  2611
	  2616	  2617	  2631	  2632	  2645	  2646	  2647	  2648	  2650	  2651	  2656	  2661	  2662	  2667
	  2668	  2669	  2670	  2671	  2673	  2680	  2693	  2694	  2812	  2846	  2877	  2893	  2903	  2912
	  2941	  2942	  2945	  2946	  2947
ABORT	     3	   541	   922	  1754#	  1798	  1812
ABT	     9	   542	  1754	  1757#
ABTCOD	  1765%	  1765
ACRCAP	  1699%	  1699
ALLNUM	    83#	  1144	  2215	  2232	  2240	  2288
ALPHA	   124#	  2247
ALT1	   602	   607#
ALTTYP	   282	   594#	  2986
AMODE	   833%	   833	  1683
ASCII	  1675%	  1675	  1680
ASCMOD	   748	   832#
ASCNUM	   178#	  1330
ASCSIX	   179#	  1318	  2049
ASK	   707%	   707	   711	  1791	  1795	  1800	  1803	  1811
ASKIT	   707#	  2749
ASKTRU	   690	   696	   700#
ATSIGN	   123#
AUTO	  1666%	  1666	  1675	  1680
AUX	    53#	  1708	  1709	  1750	  1751	  1760	  1777	  1778	  1781	  1784
TELECOPY - THE CONTROLLER FOR PDP-10 TELECOPY	MACRO 12.5-46.0 08:11 25-OCT-87
TELECO.MAC	23-DEC-86 12:29		Symbol cross reference

AUXCIR	   652	  1094	  1205	  1501	  1521	  1529	  1714	  2587	  2641#	  2641	  2656	  2946
AUXGET	   909	  1586#	  1586	  1724	  1777
AUXIMG	   164#
AUXIN	   159#	  1723
AUXINS	   160#	  1116	  1219	  1778
AUXOUT	   161#	  1725
AUXPRT	   601	   603	   620	  1087	  1103	  1108	  1115	  1157	  1202	  1218	  1431	  1439	  1446	  1507
	  1509	  1557	  1721	  1722	  2636	  2639%	  2639	  2661
AUXPTR	   162#	  1088	  1558	  1566
AUXPUT	   958	  1242	  1269	  1607#	  1607	  1708	  1726	  1750
AUXSTR	  1089	  1718	  1734	  1735	  1736	  3001	  3048#
AUXTYP	  1731#	  1731	  2640	  2650
B	    45#	   203	   206	   208	   229	   434	   438	   441	   443	   496	   498	   782	   824	   825
	   826	   830	   832	   840	   843	   847	   852	   854	   859	  1089	  1090	  1209	  1212	  1215
	  1216	  1243	  1244	  1315	  1320	  1326	  1339	  1342	  1343	  1345	  1348	  1488	  1498	  1499
	  1500	  1504	  1505	  1559	  1560	  1561	  1564	  1565	  1567	  1641	  1643	  1648	  1653	  1663
	  1666	  1668	  1675	  1677	  1680	  1689	  1870	  1891	  1893	  1894	  1895	  1898	  2032	  2034
	  2035	  2045	  2052	  2057	  2060	  2280	  2295	  2302	  2308	  2628	  2629	  2633	  2634	  2672
	  2682	  2683	  2684	  2842	  2843	  2844	  2903	  2904	  2905	  2907	  2912
BADNAM	  1489	  2822#	  2845
BADSYS	  2112	  2117#
BELL	   104#
BIM1	   780#	   802	   811	   827
BIM2	   781	   785#
BIM3	   755	   796#
BIM4	   755	   805#
BIM5	   755	   814#
BIM5L	   823	   824#
BIM5R	   823	   825#
BIM5S	   817	   822#
BIM5T	   817	   820#	   822
BIM5T1	   818	   823#
BIMOD	   748	   775#
BINCAP	  1699%	  1699
BIOEND	  1535%	  1535
BIOMOD	  1616%	  1616
BIOSIZ	   753#	   791
BIOT	   750#	   753	   791
BIOT1	   755#	   792
BLDIT	  1522	  1712#
BLDSTR	  1086	  1124#
BMOD	  2642%	  2642
BP	    58#	  1027	  1124	  1130	  1134	  1137	  1139	  1319	  1331	  1340	  1476	  1480	  1516	  1713
	  1717	  2100	  2855	  2858	  2868	  2869	  2885	  2886
BRKLIN	   165#	  1227
BUFRTN	  2577	  2984#
C	    46#	   442	   443	   444	  1314	  1316	  1857	  1865	  1867	  1868	  1871	  1883	  1891	  1899
	  1972	  1973	  2046	  2053	  2061	  2252	  2253	  2255	  2256	  2258	  2266	  2271	  2298	  2299
	  2300	  2301	  2303	  2305	  2307	  2798	  2799	  2860	  2865	  2867
CAN	   911%	   911
CANAGN	    81#	   504	   519	  1927
CARRET	   107#	   480	   692	  1003	  1035	  1044	  1136	  1138	  1282	  1294	  1299	  1709	  1727	  1914
	  1915	  1935	  1953	  1954	  2068	  2189	  2226	  2264
TELECOPY - THE CONTROLLER FOR PDP-10 TELECOPY	MACRO 12.5-46.0 08:11 25-OCT-87
TELECO.MAC	23-DEC-86 12:29		Symbol cross reference

CFNPTR	  1040	  3009#
CH	    60#	   476	   480	   692	   789	   907	   911	   915	   918	   921	   923	   951	   953	   960
	  1002	  1003	  1004	  1010	  1024	  1025	  1027	  1035	  1044	  1057	  1063	  1117	  1119	  1129
	  1130	  1133	  1134	  1136	  1137	  1138	  1139	  1220	  1222	  1270	  1271	  1273	  1274	  1276
	  1277	  1279	  1281	  1282	  1284	  1290	  1294	  1296	  1298	  1316	  1317	  1318	  1319	  1340
	  1341	  1513	  1514	  1531	  1588	  1591	  1594	  1597	  1600	  1601	  1603	  1605	  1631	  1632
	  1638	  1693	  1694	  1697	  1699	  1700	  1701	  1703	  1712	  1713	  1716	  1717	  1739	  1740
	  1742	  1748	  1751	  1759	  1765	  1771	  1774	  1781	  1785	  1817	  1818	  1819	  1820	  1822
	  1823	  1824	  1826	  1827	  1908	  1913	  1914	  1915	  1925	  1935	  1943	  1946	  1949	  1954
	  1964	  1978	  1980	  1994	  2001	  2002	  2005	  2065	  2066	  2068	  2071	  2097	  2100	  2107
	  2108	  2152	  2160	  2181	  2183	  2186	  2189	  2192	  2201	  2205	  2209	  2213	  2218	  2230
	  2231	  2234	  2235	  2236	  2237	  2242	  2243	  2247	  2248	  2259	  2260	  2263	  2264	  2265
	  2296	  2304	  2305	  2306	  2309	  2853	  2854	  2858	  2859	  2869	  2870	  2871	  2873	  2874
	  2879	  2880	  2886	  2887	  2888
CH1	   138#	   284	  1253	  1264	  1549	  1580	  1622	  2633
CH2	   139#	   284	  1580	  1622
CH3	   140#	   284	  1580	  1622
CH4	   141#	   284	  1253	  1264	  1427	  1549	  1580	  1622
CH4INT	  1239#	  1539
CH5	   142#
CH5IN1	  1245	  1251#
CH5INT	  1248#	  1542	  2988
CH6	   143#
CH6INT	  1259#	  2990
CH6RTN	  1263	  2990#
CH7RTN	     3	  2992#
CH8RTN	  2994#
CHKCMD	   432#	  1918	  1924
CHKERR	   513	   543	  2842#
CHKNXT	  1952	  1979	  2009#
CHKO	  1796	  1800#
CHKOLD	   533	  1790#
CHKSPC	  2199	  2217#
CHKSYS	  2102	  2108#
CIN	   194%	   194	   217	   378	   380	   395	   630	   644	  1195	  1790	  1829
CIR0	   495	  2817#
CIR2	   490	  2810#
CLR1	  1779#	  1783
CLR2	  1762	  1767	  1773	  1777#
CLRBO	   604%	   604
CLRCIR	     9	  2625#
CLRIT	   606	  1758#
CLRIUU	   317	   395#
CLROUU	   315	   391#
CLRPAS	   998	  1015#	  1026
CLRTRU	  2666	  2678	  2692#
CMDISP	   433	  2730#
CMDSIZ	   432	  2727#
CMDTAB	   432	  2697#	  2727
COLON	   119#	  1063	  1129	  1712	  1925	  1949	  2066	  2152	  2224	  2873
COM	    65#	   197	   215	   218	   239	   405	   406	   408	   631
COMAXR	  2913#	  2950	  2954
COMFIL	  1043	  3009	  3039#
TELECOPY - THE CONTROLLER FOR PDP-10 TELECOPY	MACRO 12.5-46.0 08:11 25-OCT-87
TELECO.MAC	23-DEC-86 12:29		Symbol cross reference

COMMA	   113#	  1980	  2002	  2186	  2223
COMMAN	  1034#	  2754
COMPRE	   863#	  2739
COMSZ	   868	   875#
COMT	   868	   872#	   875
COMT1	   869	   877#
COMT2	   877	   879#
COMT3	   877	   880#
COMT4	   881#	   888	   898
COMT5	   877	   886#
COMT5A	   892	   895#
COMT5B	   893	   896#
CONF1	   645	   650#
CONFIR	   621	   644#
CONTRL	   128#	  1740
COUT	   195%	   195	   254	   351	   353	   362	   364	   391	   628
CRASH	  2622%	  2622
CRLF	  1292	  2261	  2589	  2814	  2895	  2914	  2944	  2963#
CROUT	    12	  1568	  1614	  1706#	  1776
CROUTS	  1091	  1556	  1562	  1708#
D	    47#	  1872	  1878	  1888	  1893	  1896	  2048	  2049	  2052	  2058	  2060
DASH	   115#	  2213
DBLK	     5	   293	   487	   491	   508	   509	   510	   511	   512	   520	  1904	  1991	  2075	  2077
	  2079	  2081	  2088	  2090	  3045#
DCOPT	  1689%	  1689
DEADCR	   649	  1510	  2898#
DELFND	  2178	  2185#
DETACH	   196%	   196	   261%	   261	   633
DISABL	   136#	   272	   622	  1239	  1248	  1259	  1504	  1536	  1570	  1617	  2582	  2606	  2616	  2628
DISK	    64#	   281	   512	   527	   537	   627	  1372	  1387	  1388
DONOR	   504#
DOT	   114#	   550	  2049	  2209
DOTOK	    77#	    80	  1041	  2210
DRBLOC	  1692%	  1692
DRMODE	  1688%	  1688
DRPARA	  1673%	  1673	  1685
DSIZE	  3044#
DTBLOC	  1691%	  1691
DTMODE	  1682%	  1682	  1686	  1687
DTPARA	  1672%	  1672	  1684
E	    48#	  1873	  1878	  1879	  1882	  1897	  1899
EBCMOD	   748	   830#
EM	   915	   959%	   959
ENABLE	   137#	   284	  1253	  1264	  1427	  1549	  1580	  1622	  2633
ENDIT	   409	   424	   429	   619#	  1839	  2734
ENTERR	   232#	   250	   252
ENX10	  2906	  2910#
ENXSUP	  2943	  2952#
EQUALS	   121#	   789
ER10NM	  2905	  2939#
ERR	   172#	   528	  2842
ERR10	  2907	  2916#	  2939
ERRRET	  2541#
TELECOPY - THE CONTROLLER FOR PDP-10 TELECOPY	MACRO 12.5-46.0 08:11 25-OCT-87
TELECO.MAC	23-DEC-86 12:29		Symbol cross reference

ERRSUP	  2945	  2956#	  2961
ERSPNM	  2942	  2961#
ESC	  1209	  1215%	  1215
ESCCHR	  1216#	  1216	  1243
ESCRTN	     3	   283	   608	  1252	  1541	  2986#
ETX	  1212%	  1212
EXT	   171#	  2043	  2057	  2079	  2080
F	    43#	   268	   287	   292	   464	   467	   468	   497	   504	   519	   532	   564	   583	   613
	   666	   679	   682	   689	   700	   726	   765	   775	   780	   788	   836	   863	   881	   887
	   901	   961	   984	  1038	  1041	  1060	  1144	  1162	  1169	  1203	  1303	  1353	  1512	  1515
	  1563	  1604	  1606	  1706	  1747	  1910	  1912	  1916	  1917	  1927	  1931	  1936	  1939	  1941
	  1958	  1974	  1987	  1988	  1992	  1996	  2016	  2019	  2021	  2026	  2036	  2070	  2153	  2154
	  2169	  2175	  2179	  2180	  2185	  2190	  2193	  2195	  2198	  2200	  2202	  2206	  2210	  2215
	  2232	  2240	  2269	  2288	  2800	  2801	  2857	  2859	  2862	  2864	  2898	  2902
F370	    74#	   961	  1512	  1515	  1563	  1604	  1606	  1706	  1747
FILE	   170#	  2042	  2045	  2073	  2077	  2078
FILO1	  2886#	  2889
FILOUT	  1808	  2828	  2839	  2850	  2884#
FILPTR	  1476	  2037	  2044	  2885	  3002#
FIN2ND	  1945	  2064#	  2072
FINERR	  2824	  2829	  2840	  2851	  2892#
FIRPTR	  1982	  1985	  2064	  3029#
FIX	   973%	   973	   981	  1646
FIX1	   969#	  2741
FIXOPT	   972%	   972	   979	  1645
FN1	  2048#	  2053
FNAME	   176#	  2027	  2030	  2081	  2082	  2083	  3002
FNCT	  1478%	  1478
FNDTYP	  1176	  1186#	  1189
FNFERR	  2837#	  2843
FORTY	    70#	   334	   345	   361	   369	   382
FORTY1	    71#	   319
FRACTI	  2672#	  2672	  2680	  2682
FRECL	   991%	   991
FSIZE	   168#	  2041	  2075	  2076	  2884
GAB	   910	   913	   917	   920	   951#	  1587	  1590	  1593	  1596	  1629	  1637
GATEWA	  1051#	  2753
GD	     3	  1639#
GET	   379	   399#	   403	   410
GETALL	  1105#	  1111
GETBUF	   400	   405#
GETC	   296	   465	  1904#	  1976
GETC1	  1502	  1523#
GETC2	  1528	  1531#
GETC3	  1524	  1553#
GETCEX	  1536#	  1554
GETCHS	   475	   659	   730	   769	   787	   816	   867	   891	  1042	  1045	  1062	  1174	  1907	  2018
	  2038	  2169#	  2291
GETCIR	  1079	  1095	  1206	  1492	  1497#
GETCMD	   221	   245	   271#	   452	   555	   569	   574	   579	   589	   607	   616	   669	   681	   698
	   708	   712	   721	   844	   884	   905	   919	   974	   982	  1009	  1097	  1161	  1182	  1200
	  1285	  1755	  1923	  1989	  2120	  2541	  2690	  2802	  2896	  2899	  2908	  2915	  2948
GETCX1	  1526	  1622#
TELECOPY - THE CONTROLLER FOR PDP-10 TELECOPY	MACRO 12.5-46.0 08:11 25-OCT-87
TELECO.MAC	23-DEC-86 12:29		Symbol cross reference

GETLIN	  2176	  2252#	  2267	  2276
GETLN1	  2259#	  2262	  2272
GETMSK	   436#	   439
GETN1	  1983	  1985#
GETN2	  1984	  1987#
GETN3	  1986	  1991#
GETNS1	  2158	  2160#
GETNX1	  1346	  1347	  1349#
GETNXT	   288	  1977#
GETOLD	   467#	  1937
GETONE	  2177	  2229#
GETPAS	  1023#	  1135
GETS1	  1342	  1347#
GETS2	  1341	  1348#
GETSIZ	  1339#	  1349	  1477	  1481
GETSY1	  2096	  2104#
GETSYS	  1951	  1969	  2095#	  2159
GETUNA	  2014#	  2151
GETUSR	  1385	  1844#
GOCMD	   434#	   662	   733	   772	   793	   819	   870	   894
GOME2A	  2137	  2139	  2141	  2143	  2145	  2147	  2149	  2316#	  2786	  2787	  2788	  2789	  2790
GOME2B	  1565	  2317#
GOMES	  2136	  2138	  2140	  2142	  2144	  2146	  2148	  2150	  2313#	  2782	  2783	  2784	  2785
GOMES1	  2135	  2315#	  2791	  2792	  2793
GOTMAT	   445	   454#
GOTMSK	   436	   440#
GOTONE	  2239	  2250#
GOTRTN	  1543	  2988#
GP	  1024#	  1028
GSYSTY	  1599	  1629#
GTFNM	   479	  1934	  1956	  1993	  2004	  2021#
GTFUN	  1909	  1930#
GTNSYS	   478	  1932	  1947	  2151#
GTNXTC	  2177#	  2182	  2184	  2188	  2194
GTTF1	  1957	  1960#
GTTFIL	  1948	  1952#
HAS2BO	    86#	   292	   464	   468	  1910	  1939	  2154	  2800
HASHER	  1846	  1870#
HAVNAM	   193#	  1046
HELMSG	   557	  2320#
HELP	   557#	  2233	  2731
HGHSYS	  1146	  1165	  1305	  2104	  2150#
HLOC	  1848#	  1848	  1849	  1868
HOST	  1157#	  2751
HSTSYS	   493	  1071	  1093	  1168#	  1168	  1180	  1358#	  1358
HSTTAB	  1179	  2781#
HT	   105#	   962
HUNAME	  1847#	  1847	  1853
IMAGE	   748	   854#
INBF	   199	   399	   401	  3021#
INBLK	  1972	  1973	  2252	  2254	  2255	  2256	  2798	  2799	  3006	  3034#
INBPTR	  1975	  2257	  2268	  3006#
INCHU1	   386	   388#
TELECOPY - THE CONTROLLER FOR PDP-10 TELECOPY	MACRO 12.5-46.0 08:11 25-OCT-87
TELECO.MAC	23-DEC-86 12:29		Symbol cross reference

INCHUU	   309	   377#
INDEX	    57#	  1854	  1855	  1857	  1858	  1859	  1863	  1865	  1867
INFEXT	   214	   238	  3020#
INFIL	   215	   239	  3017#
INFNAM	   211	  3019#
INITEL	   269	  1353#
INPAS	  1002#	  1011
INSMSG	   566	  2424#
INSTRU	   564#	  2732
INTTAB	  1420	  1544	  1575	  2559	  2571	  2592	  2979#
IPOLL	  1230	  1262	  1269#
IPOLL1	  1270#	  1293	  1297
IPOLL3	  1280	  1288#
IPOLL4	  1275	  1289#
IPOLL5	  1272	  1290#
IPOLL6	  1291	  1294#
IPOLL7	  1295	  1298#
IWAIT	  1229	  1231#
IX	   145#	  1600	  1677	  1770	  2135	  2651	  2791	  2792	  2793
IXMODE	   778%	   778
JBTPRV	  1208#	  1208	  1367
JBTUN1	   133#	  1381
JBTUNM	   132#	  1377
JFYHR	  1419%	  1419
JFYMIN	  1417%	  1417
JFYSEC	  1415%	  1415
JOBREN	    15#	   186
KATAKA	   748	   847#
KATCAP	  1699%	  1699
KEEP	   709#	  2747
KMODE	   848%	   848
LC	   615	  2997#
LCOPT	     5	  2996#
LICENS	   131#	  1405
LKERR	   216	   237#
LNFEED	   106#	  1290	  1820	  2260
LNKMSG	   908	   958#	  1532	  1766
LOCVER	    16#	    19	   548	   551
LOS370	  2637	  2650#
LOS37A	  2653	  2661#
LOSCIR	  1503#	  1530
LPAREN	   110#	   476	  1908	  1946	  2065	  2225	  2853
LSTFCH	  1943	  1978	  1994	  3033#
LSTFPT	  1942	  1977	  1995	  3031#
LSTIME	   280#	   280
LSTTCH	  1964	  2001	  2005	  3032#
LSTTPT	  1963	  2000	  2006	  3030#
LUDLOK	  1844	  2973#
LVDEF	   163#	  1225	  1231
MAK1	  2298#	  2302
MAKE2	  2299	  2303#	  2308
MAKJOB	   209	   223#	   226
MAKSYS	  1132	  1325#	  1328	  1715	  2675	  2681
TELECOPY - THE CONTROLLER FOR PDP-10 TELECOPY	MACRO 12.5-46.0 08:11 25-OCT-87
TELECO.MAC	23-DEC-86 12:29		Symbol cross reference

MASK	  1920	  3011#
MAXCHR	   100#	   101	  2258	  2266
MAXFIL	    99#	  2083	  3045	  3047
MAXTRU	   686#	   694
MAXWDS	   101#	  1973	  2253	  2256	  2799	  3034	  3035
MINTRU	   687#	   695
MOD6	   784	   836#	   849	   856	   860
MODE	   722#	  2738
MODSZ	   731	   744#
MODSZ1	   745#	   770
MODT	   731	   735#	   744
MODT1	   737#	   745	   770
MODTB1	   732	   747#
MODTB2	   748#	   771
MOREIN	    84#	   467	   564	   583	   613	   666	   679	   682	   689	   700	   726	   765	   775	   780
	   788	   836	   863	   881	   887	   901	   984	  1162	  1169	  1203	  1303	  1916	  1917	  1974
	  1988	  1992	  2175	  2190	  2232	  2269	  2800
MORETR	    95#	   287	  1987	  2070	  2801	  2898	  2902
MSG370	   573	  2500#
MSG940	   578	  2521#
N	    49#	   432	   440	   455	   456	   458	   459	   473	   657	   660	   683	   694	   695	   697
	   729	   731	   767	   770	   785	   791	   797	   798	   800	   801	   806	   807	   809	   810
	   814	   817	   838	   839	   840	   841	   842	   843	   866	   868	   889	   892	   969	   971
	   977	   979	   987	   988	   990	   991	  1039	  1056	  1059	  1071	  1072	  1073	  1146	  1147
	  1165	  1166	  1168	  1171	  1175	  1177	  1179	  1181	  1186	  1189	  1305	  1306	  1308	  1310
	  1339	  1343	  1344	  1347	  1377	  1378	  1379	  1380	  1478	  1482	  1847	  1879	  1880	  1881
	  1882	  1883	  1888	  1889	  1905	  2015	  2028	  2040	  2096	  2098	  2099	  2103	  2104	  2106
	  2109	  2111	  2173	  2182	  2277	  2278	  2279	  2289	  2292	  2293	  2295	  2306	  2856	  2860
	  2863	  2866	  2867	  2872	  2884	  2889
N1	    50#	   433	   457	   458	   661	   732	   771	   792	   818	   869	   893	  1381	  1382	  1383
	  1384	  1848	  1884
N2	    52#	  1891	  1892
N3	    54#	  1893
NAMFLG	    80#	  1038	  1060	  2016	  2019	  2215	  2232
NAMO1	  2858#	  2863
NAMOD	   748	   858#
NAMOUT	  1806	  2853#
NAMPTR	  1480	  2017	  2855	  2868	  3000#
NEEDCT	    90#
NEGATE	   657#	  2750
NEGDIS	   661	  2761#
NEGSIZ	   660	  2728#
NEGTAB	   660	  2723#	  2728
NEWREC	   536%	   536
NEWSEN	   515%	   515
NEWSW	   514	   535	   904%	   904	  1527	  1534	  1613	  1630	  1651	  1698	  1702	  1763	  2644
NEWSYS	    89#	   497	  1974
NINECH	   118#	  2237
NO	  1922	  3012#
NOCIR	  1720	  2901#
NODEL	  2180#	  2196	  2203	  2207	  2211	  2214	  2221
NOINIT	   219#	   219	   240	  1034#	  1034
NONE	   879%	   879
TELECOPY - THE CONTROLLER FOR PDP-10 TELECOPY	MACRO 12.5-46.0 08:11 25-OCT-87
TELECO.MAC	23-DEC-86 12:29		Symbol cross reference

NONSPC	    91#	  2169	  2179	  2193	  2200
NONUM	  2241	  2247#
NOOPN	   529	   542#
NOPRMT	  1930	  3043#
NOSPAC	    94#	  2857	  2859	  2862	  2864
NOSTRT	    75#	   532
NOSUP	   664#	  2762
NOSYSN	  2831#
NOTOFI	    85#	   292	  1958	  1996	  2800
NOTRU	   682#	  2761
NOUPDA	   671#	  2763
NOVER	   677#	  2764
NOVER1	   674	   679#
NUMIN	   691	   796	   805	   986	  1145	  1164	  1302	  2095	  2288#
NXTENT	   441#	   446
NXTSYS	   496#	   496	  1971
OCHI1	   362#	   373
OCHI2	   372	   374#
OCHIUU	   313	   360#
OCHRUU	   311	   368#
OFFLC	   154#	   611	  2997
OFFSUP	   156#	   664
OLDABT	  1764	  1769#
OLDCMD	  1972	  2252	  2253	  2798	  3035#
OLDFOR	    82#	   292	  1912	  1931	  1936	  1941	  1974	  2153	  2269	  2800
OLDPTR	  2229#	  2229	  2245
ONLC	   153#	   612
ONSUP	   155#	   665	  1369
OPOLL	  1218#	  1236	  1251	  1287	  1300
OPT2	  1642%	  1642
OPTR	    56#	   474	   658	   728	   768	   786	   815	   865	   890	  1023	  1024	  1040	  1061	  1172
	  1906	  2017	  2037	  2044	  2048	  2058	  2170	  2183	  2290	  2297	  2298
OPTSZ1	  1642%	  1642
OSTRUU	   307	   344#
OUT	    66#	   247	   251	   253	   416	   417	   629
OUTBF	   249	   412	   414	  3026#
OUTDEC	   653	  2277#	  2588	  2657	  2813	  2878	  2894	  2913
OUTEXT	  3025#
OUTFIL	   251	  3022#
OUTNAM	   212	  3024#
OUTOCT	   549	   552	  2278#	  2282
P	    61#	   193	   209	   224	   226	   227	   230	   267	   269	   271	   275	   320	   324	   325
	   326	   327	   328	   329	   330	   331	   333	   344	   352	   356	   357	   358	   360	   363
	   368	   374	   375	   377	   379	   388	   389	   404	   415	   475	   478	   479	   506	   521
	   533	   542	   549	   552	   593	   594	   606	   619	   621	   648	   653	   656	   659	   691
	   730	   769	   787	   796	   805	   816	   867	   891	   908	   910	   913	   917	   920	   927
	   928	   929	   931	   932	   933	   935	   939	   940	   941	   942	   943	   944	   954	   963
	   966	   970	   978	   986	   992	   998	  1008	  1018	  1042	  1045	  1055	  1062	  1065	  1067
	  1079	  1086	  1091	  1092	  1095	  1096	  1118	  1126	  1128	  1132	  1135	  1140	  1145	  1149
	  1164	  1174	  1176	  1190	  1206	  1292	  1302	  1321	  1326	  1328	  1329	  1332	  1350	  1371
	  1385	  1430	  1461	  1469	  1477	  1481	  1492	  1493	  1503	  1508	  1511	  1518	  1520	  1521
	  1522	  1532	  1535	  1548	  1552	  1556	  1562	  1568	  1579	  1583	  1587	  1590	  1593	  1596
	  1599	  1612	  1614	  1616	  1625	  1627	  1629	  1633	  1637	  1695	  1704	  1707	  1710	  1715
TELECOPY - THE CONTROLLER FOR PDP-10 TELECOPY	MACRO 12.5-46.0 08:11 25-OCT-87
TELECO.MAC	23-DEC-86 12:29		Symbol cross reference

	  1729	  1732	  1737	  1739	  1741	  1742	  1743	  1744	  1752	  1754	  1758	  1759	  1760	  1766	  1772
	  1775	  1776	  1784	  1785	  1786	  1787	  1797	  1799	  1806	  1807	  1808	  1813	  1818	  1822
	  1825	  1840	  1841	  1846	  1856	  1861	  1862	  1885	  1907	  1932	  1934	  1945	  1947	  1951
	  1952	  1956	  1959	  1960	  1969	  1979	  1993	  1997	  2004	  2012	  2018	  2020	  2038	  2054
	  2062	  2067	  2074	  2084	  2087	  2092	  2095	  2110	  2115	  2151	  2159	  2162	  2176	  2177
	  2216	  2244	  2246	  2249	  2250	  2251	  2261	  2270	  2280	  2282	  2283	  2285	  2291	  2294
	  2296	  2301	  2304	  2309	  2310	  2548	  2554	  2575	  2581	  2588	  2589	  2590	  2597	  2602
	  2605	  2612	  2613	  2615	  2623	  2624	  2627	  2645	  2648	  2649	  2657	  2666	  2675	  2678
	  2681	  2695	  2807	  2813	  2814	  2828	  2839	  2850	  2875	  2878	  2881	  2890	  2894	  2895
	  2901	  2913	  2914	  2944	  2965
PANIC	     3	   593#
PASPTR	   999	  1023	  3007#
PASSWD	  1015	  1016	  1066	  3007	  3036#
PASSWO	   998#	  1070	  2752
PCT	   109#	  1271	  1274	  1288	  1289
PDL	  3005	  3056#
PDLPTR	   193	   267	   275	  3005#
PGMSW	   903%	   903	  1523	  1533	  1615	  1761	  2643	  2652
PHI	   125#	  1279
PPN	   169#	   511	   526
PREP	   506	   521	  1475#
PROERR	  2826#	  2847
PROMPT	   129#
PTR	    59#	   999	  1010	  1942	  1963	  1975	  1977	  1985	  1995	  2000	  2006	  2009	  2010	  2011
	  2064	  2071	  2108	  2229	  2230	  2245	  2257	  2263	  2268	  2674	  2679
PUT	   352	   363	   412#
PUTBUF	   413	   416#
PUTBYT	   414#	   419
PUTCH	  1741	  1743	  1747#	  1772
PUTSPC	  1739#	  1775
PWDCMD	   277#	   277	  1007	  1069
PWDEND	  1017	  3037#
QMARK	   122#	  2231
QUICOD	  1531%	  1531
R0	    42#	   202	   205	   207	   223	   225	   227	   228	   229	   323	   327	   330	   332	   333
	   334	   335	   337	   338	   348	   349	   354	   357	   361	   365	   370	   374	   375	   381
	   384	   388	   389	   401	   402	   414	   930
RBLK	     5	   471	   472	   488	   492	   498	   505	   523	   524	   525	   526	   527	   528	   530
	  1944	  1961	  1968	  1999	  2073	  2076	  2078	  2080	  2082	  2083	  2086	  2089	  2091	  3047#
RD	  1849#	  1869
RDERR	   407	   421#
RECIP	   501	   519#
RECIP1	   531	   535#
RECIP2	   516	   537#
REENTE	   187	   190#	  1036
REMOD	   747	   763#
REMOD1	   760	   765#
REPLAC	   710#	  2748
RESET	     3	   270#
RESETI	   560	  2558	  2576	  2591	  2598	  2603	  2798#	  2808	  2815	  2820
RESMSG	  1620	  2562#	  2610
RESREG	     9	   271	   594	   938#	  2581	  2605	  2615	  2627
RESTLC	   611#	  2736
TELECOPY - THE CONTROLLER FOR PDP-10 TELECOPY	MACRO 12.5-46.0 08:11 25-OCT-87
TELECO.MAC	23-DEC-86 12:29		Symbol cross reference

RET	  1317	  1321#
RETCHS	  2191	  2197	  2204	  2208	  2212	  2215#	  2219
RETFLG	  2549	  2553	  2556	  3054#
RETZAP	    12	  3052#
RND	  1874	  1875	  1876	  1877	  1887#	  1901
RND1	  1891#	  1900
RND2	  1894	  1900#
RPAREN	   111#	  2107	  2160	  2879
RSIZE	  3046#
RSPCOD	   918%	   918
RUNBLK	   635	   640#
RUNIT	   482	   486#	  1965	  1998	  2007
RUNROU	   462#	  2730
SAMFIL	  1928	  1968#
SAV	   927	   928	   929	   933	   940	   941	   943	   947#
SAVA	  2546	  2555	  3053#
SAVFG	   934	   938	   946#
SAVPTR	  1981	  2009#	  2009	  2011
SAVREG	     9	   927#
SCRAT	   715#	  2737
SCRATC	   758%	   758	   763
SEMICO	   120#	  1057	  1133	  1716	  2242
SEMOD	   748	   776	   852#
SET10	  1658	  1668#
SET370	  1659	  1663#
SET940	  1656	  1677#
SET9A	  1667	  1681#
SET9B	  1676	  1687#
SETCIR	  1431#	  1548	  1579
SETDEX	  1855#	  1866
SETEX1	  2058#	  2061
SETEXT	  2050	  2056#
SETIME	   583#	  2744
SETLC	   612#	  2735
SETTF	  1959	  1997	  2073#
SETTRU	   684	   697#
SETUNM	  1960	  2086#
SETUPT	  1463#	  1583	  1625	  2554
SIDE	    51#	   293	   471	   472	   505	   509	   520	   524	  1487	  1488	  1491	  1904	  1944	  1968
	  1970	  1991	  1999	  2022	  2027	  2029	  2041	  2042	  2043	  2045	  2057	  2099	  2106	  2157
	  2842	  2877	  2884	  2893	  3000	  3002
SIXNUM	   180#	  2300
SIZDON	    12	  3051#
SIZE	   173#	   530
SIZEXT	   183#	  2056
SIZFIL	   182#	   473	  1315	  1905	  2047	  2173
SIZLIN	    98#	    99	  1475	  1736	  2028	  2039	  2046	  3048
SIZUSR	   181#	  1059	  1479	  2015	  2034	  2856	  2866
SKPCOM	    88#	  2021	  2180	  2185
SKPNAM	   201	   211#
SKPRET	  1828	  1840#
SLAOK	    78#	    80	  2206
SLASH	   116#	  2205
TELECOPY - THE CONTROLLER FOR PDP-10 TELECOPY	MACRO 12.5-46.0 08:11 25-OCT-87
TELECO.MAC	23-DEC-86 12:29		Symbol cross reference

SLVMSG	  1500	  1560	  2114#	  2114
SLVTYP	    11	  1213	  1309#	  1309	  1484	  1499	  1513	  1603	  1653	  1730	  1769	  2113
SMODE	   855%	   855
SNDBAL	  1092	  1103#
SNDTYP	  1612	  1697#
SPACE	   108#	  1748	  1913	  2181	  2192	  2235	  2870	  2887
SPCDEL	    87#	  2036	  2198	  2215	  2232
SPCLEN	  2217	  2227#
SPCTAB	  2217	  2223#	  2227
SPOK	    79#	    80	  2021	  2026	  2195
STAGN	   152#	  1774
STAR	   112#	  2097	  2201
STAROK	    76#	    80	  2202
START	   184#	  3057
STATRU	  1357#	  1357	  2669#	  2669	  2670
STKCNT	   323#	   323	   332
STKPTR	   325	   326#	   326	   328	   329	   331
STPT1	   217#	   262
STPT2	   184	   241	   266#
STPT3	   220	   268#
STRPTR	  1124	  1516	  3001#
STRS1	  1316#	  1320
STRSIX	  1126	  1128	  1314#	  1518	  1520
STRSYS	   499	  1359#	  1359	  1933	  2101
SUMEX	   146#
SUP	     5	   668	  1370#	  1370
SUPERR	  2904	  2941#
SUPRES	   665#	  2757
SW10	  1634	  1670%	  1670
SW370	  1636	  1665%	  1665
SW940	  1635	  1679%	  1679
SYNERR	   450	   477	   481	   565	   584	   614	   667	   680	   693	   727	   766	   790	   799	   808
	   837	   864	   882	   902	   989	  1058	  1064	  1107	  1148	  1163	  1167	  1170	  1177	  1304
	  1307	  1911	  1926	  1929	  1938	  1940	  1950	  1962	  2003	  2069	  2103	  2105	  2155	  2161
	  2795#
SYNMSG	  1573	  2565#
SYS	   175#	   487	   488	   491	   492	   498	  1491	  1961	  1970	  2022	  2099	  2106	  2157	  2877
	  2893	  3045	  3047
SYS370	   573#	  2746
SYS940	   578#	  2745
SYSBLK	    11	  1855	  1857	  1858	  1859	  1863	  1867	  2977	  3050#
SYSERR	  1375	  1386	  1391	  1402	  1845	  1852	  2542	  2543	  2544	  2804#
SYSLST	    11	  1850	  2977#
SYSNO	  1056	  1072	  1131	  3016#
SYSNUM	  1055	  1065	  1144#
SYSOUT	  1807	  2877#
SYSTAB	  1181	  1308	  1498	  2024	  2111	  2134#	  2150
SYSTYP	  1631%	  1631	  1650	  1693
T	   779%	   779	   783	   801	   810	   826
T1	   723%	   723	   764	   838
T2	   725%	   725	   759	   841
TALK	  1195#	  2743
TALK2	  1204	  1302#
TELECOPY - THE CONTROLLER FOR PDP-10 TELECOPY	MACRO 12.5-46.0 08:11 25-OCT-87
TELECO.MAC	23-DEC-86 12:29		Symbol cross reference

TALK3	  1206#	  1311
TALKSW	   276	  1077	  1080	  1201%	  1201	  1525	  1540	  1553
TESTNG	    68#	  2622
THISUS	  1380	  1384	  1486	  1517	  1519	  3028#
THISYS	   486	   500	  1403	  2098	  2109	  2156	  2812	  3027#
TIMA1	  2550	  2554#
TIMADR	  2546#	  2982
TIMFLG	   278%	   278	   595	   906	  1497	  1584	  1626	  1816	  2547	  2551	  2552	  2626
TIMIN1	  2548	  2602	  2605#
TIMINT	  1602	  1639	  1655	  1657	  1660	  1661	  1662	  1664	  1669	  1678	  2601#
TIMMSG	  1574	  1621	  2609	  2611#	  2611
TIMRTN	  2982#
TRMOD	   747	   758#
TRU	   697	  1354#	  1354
TRUNC1	   691#	   703
TRUNCA	   689#	  2756
TRUPTR	  2674	  2679	  3010#
TRUS	  2666#	  2755
TRUS1	  2673	  2677#
TRUS2	  2683#	  2687
TRUS3	  2685	  2688#
TRUSTR	  2676	  2688	  2692	  2693	  2694	  3010	  3040#
TRYA1	  1590#
TRYAGN	  1587#	  1589	  1592	  1595	  1598
TRYNXT	   441	   446#	   586
TSTINL	  1221	  1225#
TYMBIT	   558	   567#	   567	   585	  1860
TYMHEL	   559	  2417#
TYMINS	   568	  2483#
TYMSPC	    17#	    20
TYMVER	    18#	    20
TYP1	   348#	   355
TYPSIZ	  1175	  2779#
TYPTAB	  1186	  2766#	  2779
TYPTIM	   588%	   588
U	   304#	   306	   306#	   307	   308	   308#	   309	   310	   310#	   311	   312	   312#	   313	   314
	   314#	   315	   316	   316#	   317	   335
UCOPT	   715	   716	   883%	   883
UNAME	   174#	   510	   525	  1487	  1488	  2086	  2088	  2089	  2090	  2091	  3000
UNCT	  1482%	  1482
UPDATE	   672#	  2758
UPDCAP	  1699%	  1699
UPDNO	   673%	   673
UPDSW	   534	  1483%	  1483
UPSILO	   126#	  1277
URBLOC	   717%	   717
URPARA	   724%	   724
US	  1286%	  1286
USEP	  1278	  1286#
USRNAM	  1125	  1127	  3008	  3038#
USRPTR	  1061	  3008#
UTPARA	   716	   722%	   722
UUO	   320	   323#
TELECOPY - THE CONTROLLER FOR PDP-10 TELECOPY	MACRO 12.5-46.0 08:11 25-OCT-87
TELECO.MAC	23-DEC-86 12:29		Symbol cross reference

UUOERR	   336	   339#
UUOFLG	    72#	   299	   307	   309	   311	   313	   315	   317
UUORE1	   350	   356#	   366	   385	   387
UUORET	   357#	   393	   397
UUOTAB	   299#	   337
VAR1	   977#	  2742
VAR2	   970	   978	   984#
VAR3	   985	   990#
VAROPT	   971%	   971	   980	  1647
VERBO	   676#	  2759
VERBOS	   678%	   678
VERNUM	  1638%	  1638	  1701
VERSIO	   546#	  2733
VRECL	   990%	   990
WD	    55#	   192	   201	   210	   211	   212	   213	   214	   237	   238	   435	   444	  1043	  1187
	  1188	  1919	  3003
WDPTR	   203	   474	   658	   728	   768	   786	   815	   865	   890	  1172	  1906	  2290	  2297	  3003#
WHY	   901#	  2740
WHY1	   910#	   914	   916
WHY2	   912	   915#
WHY3	   920#	   924
WHYCOD	   907%	   907
WTERR	   418	   426#
X	   147#	  1214	  1668	  1697	  2136	  2138	  2140	  2142	  2144	  2146	  2148	  2150	  2782	  2783
	  2784	  2785
X370	   148#	  1485	  1514	  1601	  1605	  1663	  2025	  2137	  2139	  2141	  2143	  2145	  2147	  2149
	  2786	  2787	  2788	  2789	  2790
XMODE	   858	  1671%	  1671
YELLOW	   964%	   964
YES	  1921	  3013#
YESN2	     9	  1830	  1836#
YESNO	   648	  1797	  1816#	  1834
ZAPADR	  2581#	  2646	  2980
ZAPC1	  2643#	  2660
ZAPCIR	  1371	  2570	  2590	  2639#	  2663	  2901
ZAPIN1	  2575	  2597	  2615#
ZAPINT	     9	  2596#
ZAPIT	   593	   619	  1508	  2612	  2623	  2626#	  2807
ZAPIT1	  2570#	  2631
ZAPIT3	  2575#	  2984
ZAPRTN	  2632	  2647	  2980#
ZEREND	   291	  3055#
ZERO	   289	   290	  3042#
ZEROCH	   117#	  2236
ZERSTR	  1096	  1511	  1729	  1734#
ZETA	   127#	  2248
ZZ	  2133#	  2135	  2135#	  2136	  2136#	  2137	  2137#	  2138	  2138#	  2139	  2139#	  2140	  2140#	  2141
	  2141#	  2142	  2142#	  2143	  2143#	  2144	  2144#	  2145	  2145#	  2146	  2146#	  2147	  2147#	  2148
	  2148#	  2149	  2149#	  2150	  2150#
TELECOPY - THE CONTROLLER FOR PDP-10 TELECOPY	MACRO 12.5-46.0 08:11 25-OCT-87
TELECO.MAC	23-DEC-86 12:29		Macro/Opdef cross reference

ATTACH	   259
CLRBFI	   317#	   451	   599	  1833
CLRBFO	   315#	   600
CREAUX	  1719
DISMIS	   609	  1256	  1267	  2557	  2560	  2572	  2578	  2593
EXIT	   200	   235	   634	   638	  1363	  1366	  2835
GETLCH	  1104	  1109
GETTAB	  1362	  1378	  1382	  1401	  1406	  1413
HIBER	  1106
INCHWL	   309#	  1002	  1004	  1270	  1273	  1276	  1281	  1284	  1298	  1817	  1819	  2259	  2265
INTADR	  1422	  1546	  1577
INTASS	  1437
INTENB	   273	   285	   597	   623	  1240	  1249	  1254	  1260	  1265	  1428	  1505	  1537	  1550	  1571
	  1581	  1618	  1623	  2583	  2607	  2617	  2629	  2634
MKSTB	  2123#	  2134	  2135	  2136	  2137	  2138	  2139	  2140	  2141	  2142	  2143	  2144	  2145	  2146
	  2147	  2148	  2149
OPD	   300#	   306	   308	   310	   312	   314	   316
OUTCHI	   313#	   550	  2284
OUTCHR	   311#	   923	  1119	  1222	  2677	  2686	  2854	  2871	  2874	  2880	  2888
OUTSTR	   232	   242	   294	   307#	   340	   421	   426	   462	   469	   538	   546	   553	   557	   559
	   566	   568	   573	   578	   646	   650	   654	   701	   718	  1067	  1158	  1197	  1793	  1801
	  1804	  1809	  1831	  1836	  2117	  2273	  2585	  2609	  2619	  2654	  2658	  2676	  2688	  2689
	  2795	  2804	  2810	  2817	  2822	  2826	  2831	  2837	  2848	  2892	  2907	  2910	  2945	  2949
	  2952	  2963
PJOB	   202	  1355	  2667
RESET	   191	   266	   632
RUN	   636
RUNTIM	  1356	  2668
SETLIC	  1410
SETTIM	  1464	  1467
SLEEP	  1234	  1780
TINASS	  1425	  1433	  1441	  1444	  1448	  1451
ZAPCIR	   626	  2662
TELECOPY - THE CONTROLLER FOR PDP-10 TELECOPY	MACRO 12.5-46.0 08:11 25-OCT-87
TELECO.MAC	23-DEC-86 12:29		Opcode cross reference

ADD	   457	  1343	  1865	  1888
ADDI	   228	   337	  1318	  1330	  1884	  2030	  2033	  2034	  2172	  2870	  2887
ADDM	  1893	  2306	  2670
AND	  1920
ANDCM	   443
ANDI	   953	  1364	  1652	  1694
ANDM	  1187
AOBJN	   446	  1644	  2220
AOJ	  1344	  1348
AOJA	  1347	  2302
AOJE	  1894
AOS	  1840	  1861	  2250
AOSE	   938
ASCIZ	   232	   242	   256	   294	   340	   421	   426	   462	   469	   538	   546	   553	   646	   650
	   654	   701	   718	  1067	  1158	  1197	  1793	  1801	  1804	  1809	  1831	  1836	  2117	  2273
	  2313	  2315	  2316	  2317	  2320	  2417	  2424	  2483	  2500	  2521	  2562	  2565	  2585	  2619
	  2654	  2658	  2689	  2795	  2804	  2810	  2817	  2822	  2826	  2831	  2837	  2848	  2892	  2910
	  2917	  2920	  2923	  2927	  2930	  2933	  2936	  2949	  2952	  2957	  2958	  2959	  2960	  2963
AUXCAL	   256	   951	   959	   960	   962	   965	  1001	  1006	  1090	  1117	  1220	  1226	  1228	  1232
	  1244	  1286	  1288	  1289	  1296	  1299	  1561	  1567	  1608	  1609	  1610	  1611	  1700	  1703
	  1709	  1727	  1751	  1781
BLOCK	   299	   642	   947	  2995	  3016	  3021	  3026	  3028	  3034	  3035	  3036	  3038	  3039	  3040
	  3045	  3047	  3048	  3050	  3056
BLT	   291	   717	   929	   932	   942	  1017	  1736	  1973	  2035	  2083	  2253	  2256	  2694	  2799
CAIE	   476	   480	   692	   789	   911	   915	   918	  1044	  1057	  1063	  1210	  1214	  1271	  1274
	  1279	  1282	  1290	  1588	  1591	  1594	  1597	  1638	  1663	  1668	  1677	  1820	  1823	  1826
	  1913	  1925	  1949	  1953	  2002	  2065	  2152	  2160	  2186	  2242	  2651
CAIG	   205	   207	   402	   694	   797	   798	   806	   807	   921	   987	   988	  1146	  1147	  1165
	  1166	  1305	  1306
CAIGE	   695
CAIL	  1600	  2234	  2236	  2247	  2684	  2905	  2942
CAILE	   335	  1601	  2104	  2173	  2237	  2248
CAIN	   349	  1003	  1025	  1035	  1211	  1277	  1294	  1365	  1485	  1514	  1605	  1770	  1824	  1827
	  1908	  1914	  1915	  1935	  1946	  1954	  1980	  2025	  2049	  2066	  2068	  2097	  2107	  2189
	  2192	  2201	  2205	  2209	  2213	  2231	  2243	  2260	  2264	  2266	  2292	  2844	  2846
CAME	   327	   487	   500	  1188	  1488	  1921	  1982	  1985
CAMGE	   326
CAMN	   329	   444	   488	   492	   493	  1487	  1501	  1858	  1922	  2109	  2218
CLOSE	   281	   537	   629	   631
DEFINE	   300	  2123
DMOVE	  1486
DPB	   801	   810	   826
END	  3057
ENTER	   251
ENTRY	     9
EXCH	   323	   325	   331	   332	  1072	  1899	  2011
EXP	   747	   748	   755	   823	   877	   896
HLRZ	   227	   548	  1329	  2024	  2283	  2903
HLRZM	  1309	  1499	  2113
HRLI	   346	  1421	  1432	  1435	  1440	  1447	  1545	  1576
HRLM	   224	  1326	  2280
HRLOI	   272	   596	   622	  1239	  1248	  1259	  1424	  1443	  1450	  1504	  1536	  1570	  1617	  2582
	  2606	  2616	  2628
TELECOPY - THE CONTROLLER FOR PDP-10 TELECOPY	MACRO 12.5-46.0 08:11 25-OCT-87
TELECO.MAC	23-DEC-86 12:29		Opcode cross reference

HRLS	  1409	  2031
HRLZ	   603	  1087	  1115	  1218	  1557	  1722
HRLZI	   213	   237	   941	  1559	  1564	  2081
HRR	  1560
HRREI	  1641
HRRI	   210	   604	   964	  1088	  1116	  1219	  1225	  1436	  1558	  1565	  1566	  1723	  1725	  1778
	  2082
HRROI	   255	  1000	  1005	  1227	  1231	  1361	  1377	  1381
HRRZ	   345	   361	   369	   370	   374	   375	   382	   528	   551	  1431	  1439	  1446	  1867	  2032
	  2842
HRRZI	   928
HRRZM	  1500	  2114
HRRZS	   324	   454	   455
IDIV	  2279
IDIVI	   223	  1325	  1881	  2671
IDPB	   206	   208	   229	   414	  1010	  1027	  1130	  1134	  1137	  1139	  1319	  1331	  1713	  1717
	  2052	  2060	  2183	  2263
IFDEF	   299	   307	   309	   311	   313	   315	   317
IFG	  2622
IFN	  2135	  2136	  2137	  2138	  2139	  2140	  2141	  2142	  2143	  2144	  2145	  2146	  2147	  2148
	  2149	  2150
ILDB	   348	   401	  1024	  1316	  1340	  2010	  2048	  2058	  2071	  2100	  2108	  2230	  2298	  2858
	  2869	  2886
IMUL	  2305
IMULI	  1416	  1418	  2307	  2683
INBUF	   218
INIT	   197	   247	  1372	  1388
INPUT	   405	  1850
INTERN	     3	     5	    11	    12
IORI	  1699
IOWD	  2977	  3005
JFCL	   260	   274	   286	   598	   624	   637	  1235	  1241	  1250	  1255	  1261	  1266	  1423	  1426
	  1429	  1434	  1438	  1442	  1445	  1449	  1452	  1465	  1468	  1506	  1538	  1547	  1551	  1572
	  1578	  1582	  1619	  1624	  2584	  2608	  2618	  2630	  2635
JRST	   184	   216	   220	   221	   240	   241	   245	   250	   252	   262	   288	   296	   307	   309
	   311	   313	   315	   317	   336	   338	   350	   355	   366	   373	   384	   385	   387	   393
	   397	   400	   403	   407	   409	   410	   413	   418	   419	   424	   429	   439	   445	   452
	   459	   465	   477	   481	   482	   490	   495	   501	   513	   515	   516	   528	   531	   536
	   541	   543	   555	   560	   565	   569	   574	   579	   584	   586	   589	   602	   614	   616
	   645	   649	   662	   667	   669	   674	   680	   681	   684	   690	   693	   696	   698	   703
	   708	   712	   721	   727	   733	   760	   766	   772	   776	   781	   784	   790	   793	   799
	   802	   808	   811	   819	   827	   837	   844	   849	   856	   860	   864	   870	   882	   884
	   888	   894	   898	   902	   905	   912	   914	   916	   919	   922	   924	   952	   962	   974
	   982	   985	   989	  1004	  1009	  1011	  1026	  1028	  1036	  1046	  1058	  1064	  1070	  1097
	  1107	  1111	  1120	  1148	  1158	  1161	  1163	  1167	  1170	  1182	  1196	  1200	  1204	  1221
	  1223	  1229	  1230	  1236	  1245	  1272	  1275	  1278	  1280	  1283	  1285	  1287	  1291	  1293
	  1295	  1297	  1300	  1304	  1307	  1311	  1346	  1375	  1386	  1391	  1402	  1486	  1489	  1490
	  1502	  1510	  1524	  1526	  1528	  1530	  1554	  1564	  1569	  1589	  1592	  1595	  1598	  1654
	  1656	  1658	  1659	  1667	  1676	  1720	  1749	  1755	  1762	  1764	  1767	  1771	  1773	  1783
	  1792	  1796	  1798	  1812	  1821	  1828	  1830	  1834	  1839	  1845	  1852	  1859	  1864	  1866
	  1869	  1901	  1909	  1911	  1915	  1918	  1923	  1924	  1926	  1928	  1929	  1936	  1937	  1938
	  1940	  1947	  1948	  1950	  1956	  1957	  1962	  1965	  1976	  1981	  1983	  1984	  1986	  1989
	  1997	  1998	  2003	  2007	  2050	  2069	  2072	  2098	  2102	  2105	  2120	  2153	  2155	  2158
TELECOPY - THE CONTROLLER FOR PDP-10 TELECOPY	MACRO 12.5-46.0 08:11 25-OCT-87
TELECO.MAC	23-DEC-86 12:29		Opcode cross reference

	  2161	  2178	  2184	  2188	  2190	  2191	  2193	  2194	  2196	  2197	  2199	  2202	  2203	  2204	  2206
	  2207	  2208	  2210	  2211	  2212	  2214	  2219	  2221	  2232	  2233	  2239	  2241	  2261	  2262
	  2265	  2267	  2272	  2276	  2293	  2548	  2550	  2598	  2603	  2637	  2653	  2660	  2663	  2685
	  2687	  2690	  2802	  2808	  2815	  2820	  2824	  2829	  2840	  2845	  2847	  2851	  2861	  2896
	  2899	  2906	  2908	  2915	  2943	  2948	  2950	  2954
JSR	  1602	  1639	  1655	  1657	  1660	  1661	  1662	  1664	  1669	  1678	  1874	  1875	  1876	  1877
	  2622
JUMPE	   436	  1317	  1341	  1342	  1748	  2103	  2112	  2299	  2673	  2843	  2859	  2904
JUMPL	   441	  1177
JUMPN	   201	   529	  2096
LDB	   334	  1857	  1859
LIST	  2135	  2136	  2137	  2138	  2139	  2140	  2141	  2142	  2143	  2144	  2145	  2146	  2147	  2148
	  2149	  2150
LOC	    19	   186	   319
LOOKUP	   215	   239	   512	   527	  1844
LSH	   437	   438
MOVE	   193	   203	   267	   275	   290	   328	   330	   432	   435	   440	   442	   458	   474	   486
	   491	   496	   635	   652	   658	   660	   716	   728	   731	   768	   770	   783	   786	   791
	   815	   817	   838	   841	   865	   868	   890	   892	   909	   933	   943	   958	   999	  1016
	  1023	  1040	  1043	  1061	  1073	  1089	  1093	  1103	  1105	  1108	  1124	  1125	  1127	  1131
	  1172	  1175	  1179	  1180	  1186	  1205	  1208	  1213	  1242	  1243	  1269	  1308	  1310	  1314
	  1400	  1412	  1466	  1476	  1480	  1484	  1491	  1498	  1513	  1516	  1517	  1519	  1529	  1586
	  1607	  1642	  1650	  1653	  1693	  1708	  1714	  1730	  1735	  1750	  1769	  1777	  1853	  1871
	  1872	  1873	  1879	  1882	  1891	  1906	  1919	  1970	  1972	  1975	  1977	  1978	  1981	  2000
	  2001	  2017	  2022	  2029	  2037	  2044	  2045	  2057	  2075	  2077	  2079	  2088	  2090	  2098
	  2111	  2156	  2170	  2217	  2245	  2252	  2255	  2257	  2268	  2290	  2297	  2555	  2587	  2650
	  2656	  2661	  2674	  2679	  2680	  2682	  2693	  2798	  2812	  2855	  2860	  2868	  2877	  2884
	  2885	  2893	  2912	  2946
MOVEI	   204	   282	   293	   433	   471	   472	   473	   505	   507	   509	   510	   520	   522	   524
	   525	   587	   607	   612	   657	   661	   665	   722	   724	   729	   732	   758	   763	   767
	   771	   778	   782	   785	   792	   814	   818	   832	   833	   847	   848	   854	   855	   858
	   859	   866	   869	   880	   886	   889	   893	   897	   907	   931	   969	   977	  1039	  1059
	  1129	  1133	  1136	  1138	  1171	  1209	  1212	  1215	  1233	  1251	  1262	  1315	  1369	  1414
	  1420	  1475	  1479	  1531	  1539	  1542	  1544	  1573	  1575	  1620	  1645	  1647	  1666	  1671
	  1674	  1675	  1680	  1681	  1683	  1690	  1697	  1701	  1712	  1716	  1718	  1740	  1748	  1765
	  1771	  1774	  1779	  1870	  1890	  1898	  1904	  1905	  1944	  1968	  1991	  1999	  2015	  2028
	  2039	  2046	  2047	  2056	  2258	  2278	  2289	  2303	  2558	  2570	  2576	  2591	  2610	  2631
	  2646	  2853	  2856	  2866	  2873	  2879
MOVEM	   211	   212	   214	   238	   283	   384	   388	   389	   498	   508	   511	   523	   526	   588
	   608	   615	   668	   673	   678	   697	   711	   723	   725	   759	   764	   779	   839	   840
	   842	   843	   883	   927	   940	   971	   979	   990	   991	  1056	  1071	  1094	  1168	  1181
	  1216	  1252	  1263	  1357	  1367	  1370	  1380	  1384	  1403	  1415	  1417	  1419	  1478	  1482
	  1541	  1543	  1574	  1603	  1621	  1631	  1643	  1648	  1672	  1673	  1682	  1684	  1685	  1687
	  1688	  1689	  1691	  1692	  1721	  1724	  1726	  1731	  1847	  1848	  1860	  1868	  1942	  1943
	  1963	  1964	  1971	  1994	  1995	  2005	  2006	  2009	  2041	  2064	  2076	  2078	  2080	  2089
	  2091	  2099	  2106	  2157	  2229	  2546	  2559	  2571	  2577	  2592	  2611	  2632	  2647	  2672
MOVNI	  1405	  1895
MOVSI	   284	  1253	  1264	  1427	  1549	  1580	  1622	  2633
MUL	  1892
OPDEF	   307	   309	   311	   313	   315	   317
OUTBUF	   253
OUTPUT	   416
POINT	   334	   801	   810	   826	  1089	  1314	  1857	  1859	  2045	  2057	  3000	  3001	  3002	  3003
TELECOPY - THE CONTROLLER FOR PDP-10 TELECOPY	MACRO 12.5-46.0 08:11 25-OCT-87
TELECO.MAC	23-DEC-86 12:29		Opcode cross reference

	  3006	  3007	  3008	  3009	  3010
POP	   356	   357	  1521	  1742	  1784	  1785	  1786	  1822	  2304	  2309	  2648
POPJ	   230	   358	   404	   415	   656	   935	   939	   944	   954	   963	   966	   992	  1008	  1018
	  1118	  1140	  1149	  1190	  1321	  1332	  1350	  1430	  1461	  1469	  1493	  1552	  1627	  1633
	  1695	  1704	  1707	  1710	  1732	  1737	  1744	  1752	  1787	  1799	  1813	  1825	  1841	  1856
	  1862	  1885	  2012	  2020	  2054	  2062	  2067	  2074	  2084	  2087	  2092	  2110	  2115	  2162
	  2216	  2244	  2246	  2249	  2251	  2270	  2285	  2294	  2310	  2613	  2624	  2649	  2695	  2875
	  2881	  2890	  2965
PUSH	   333	   344	   360	   368	   377	  1503	  1739	  1758	  1759	  1760	  1818	  2296	  2301	  2645
PUSHJ	   209	   226	   269	   271	   320	   352	   363	   379	   475	   478	   479	   506	   521	   533
	   542	   549	   552	   593	   594	   606	   619	   621	   648	   653	   659	   691	   730	   769
	   787	   796	   805	   816	   867	   891	   908	   910	   913	   917	   920	   970	   978	   986
	   998	  1042	  1045	  1055	  1062	  1065	  1067	  1079	  1086	  1091	  1092	  1095	  1096	  1126
	  1128	  1132	  1135	  1145	  1164	  1174	  1176	  1206	  1292	  1302	  1328	  1371	  1385	  1477
	  1481	  1492	  1508	  1511	  1518	  1520	  1522	  1532	  1535	  1548	  1556	  1562	  1568	  1579
	  1583	  1587	  1590	  1593	  1596	  1599	  1612	  1614	  1616	  1625	  1629	  1637	  1715	  1729
	  1741	  1743	  1754	  1766	  1772	  1775	  1776	  1797	  1806	  1807	  1808	  1846	  1907	  1932
	  1934	  1945	  1947	  1951	  1952	  1956	  1959	  1960	  1969	  1979	  1993	  1997	  2004	  2018
	  2038	  2095	  2151	  2159	  2176	  2177	  2261	  2282	  2291	  2548	  2554	  2575	  2581	  2588
	  2589	  2590	  2597	  2602	  2605	  2612	  2615	  2623	  2627	  2657	  2666	  2675	  2678	  2681
	  2807	  2813	  2814	  2828	  2839	  2850	  2878	  2894	  2895	  2901	  2913	  2914	  2944
RELEAS	   627	  1387
RELOC	    39	   188	   321
REPEAT	  2135	  2136	  2137	  2138	  2139	  2140	  2141	  2142	  2143	  2144	  2145	  2146	  2147	  2148
	  2149	  2150
ROTC	  1889
SETO	   258	   434	   625	   710
SETOM	   217	   254	   261	   276	   278	   534	   595	   934	   972	   973	  1034	  1069	  1080	  1497
	  1615	  1651	  1665	  1670	  1679	  1816	  1930	  2101	  2553	  2626
SETZ	   192	   268	   672	   677	   683	   825	   930	  1345	  1353	  1379	  1383	  1407	  1463	  1854
	  2293	  2865
SETZB	  1339	  2295
SETZM	   194	   195	   196	   277	   280	   289	   339	   530	   707	   715	   906	   980	   981	  1015
	  1077	  1201	  1354	  1358	  1359	  1483	  1533	  1534	  1584	  1626	  1630	  1634	  1635	  1636
	  1734	  1933	  2027	  2042	  2043	  2171	  2174	  2254	  2549	  2552	  2639	  2640	  2641	  2642
	  2643	  2644	  2692
SIXBIT	   198	   210	   213	   237	   248	   640	   641	   735	   736	   737	   738	   739	   740	   741
	   742	   743	   750	   751	   752	   820	   821	   872	   873	   874	   895	  1373	  1389	  2697
	  2698	  2699	  2700	  2701	  2702	  2703	  2704	  2705	  2706	  2707	  2708	  2709	  2710	  2711
	  2712	  2713	  2714	  2715	  2716	  2717	  2718	  2719	  2720	  2721	  2722	  2723	  2724	  2725
	  2726	  2767	  2768	  2769	  2770	  2771	  2772	  2773	  2774	  2775	  2776	  2777	  2778	  2973
	  2974	  3025
SKIPA	   489	   494	   611	   664	   671	   676	   709	   824	   830	   852	   879	  1686	  1782	  1955
	  2187	  2238	  2277
SKIPE	   225	   351	   362	   378	   514	   535	   558	   567	   620	   628	   630	   644	   903	  1007
	  1157	  1202	  1327	  1507	  1509	  1525	  1527	  1698	  1702	  1791	  1795	  1829	  2073	  2086
	  2281	  2556	  2636	  2652	  2941
SKIPG	  1800	  1863
SKIPL	  1803	  1811	  1897	  2551
SKIPN	   219	   240	   353	   364	   380	   391	   395	   499	   585	   601	   633	   904	  1066	  1195
	  1523	  1540	  1553	  1613	  1646	  1761	  1763	  1790	  1855	  1961	  2547	  2947
SOJG	  1320	  1349	  1900	  2053	  2061	  2308	  2863	  2872	  2889
SOJGE	  1189
TELECOPY - THE CONTROLLER FOR PDP-10 TELECOPY	MACRO 12.5-46.0 08:11 25-OCT-87
TELECO.MAC	23-DEC-86 12:29		Opcode cross reference

SOJL	  2182
SOSG	   412
SOSGE	   399
SOSL	  2051	  2059	  2271
STATZ	   406	   408	   417	  1851
SUB	   456	  2040	  2669	  2867
SUBI	   347	   800	   809	  2181	  2235	  2300
SUBTTL	   297	   430	   460	   502	   517	   544	  1351	  1470	  1814	  1902	  2093	  2311	  2318	  2539
	  2966	  3014
TITLE	     1
TLNE	   287	  1110
TLO	  2070	  2857	  2862
TLZ	  1880	  1987	  2801	  2898	  2902
TLZE	  2859	  2864
TRNE	   383	   468	   497	   564	   583	   613	   666	   679	   682	   780	   788	   836	   881	   901
	   961	  1203	  1303	  1563	  1747	  1896	  1910	  1917	  1927	  1936	  1939	  1996	  2154	  2195
	  2198	  2202	  2206	  2210
TRNN	   371	   689	   726	   765	   775	   863	   887	   984	  1162	  1169	  1632	  1706	  2175	  2193
	  2240
TRO	   464	   504	   532	  1038	  1060	  1144	  1408	  1515	  1606	  1931	  1958	  1974	  1992	  2016
	  2021	  2026	  2036	  2179	  2200	  2269	  2288
TRZ	   292	   467	   519	   700	  1041	  1512	  1604	  1912	  1916	  1941	  1988	  2019	  2153	  2169
	  2180	  2190	  2215	  2232	  2800
TRZE	  2185
TTCALL	   354	   365	   381	   392	   396
USETI	  1849
XCT	   372	   386	   450
XLIST	  2135	  2136	  2137	  2138	  2139	  2140	  2141	  2142	  2143	  2144	  2145	  2146	  2147	  2148
	  2149	  2150
XOR	  1878	  1883
XWD	    20	   290	   432	   660	  1016	  1105	  1466	  1735	  1972	  2217	  2252	  2255	  2782	  2783
	  2784	  2785	  2786	  2787	  2788	  2789	  2790	  2791	  2792	  2793	  2798y&-?