VAR -- PROGRAM VARIABLES USED GLOBALLY	MACRO 12.5-46.0 08:13 25-OCT-87 PAGE 1
VAR.MAC	23-DEC-86 12:29

     1				TITLE VAR -- PROGRAM VARIABLES USED GLOBALLY
     2
     3	000000'	000000	000000	SW10:: 0;  COMMUNICATE WITH PDP-10 WHEN NON-ZERO.
     4	000001'	000000	000000	SW370:: 0; COMMUNICATE WITH IBM-370 WHEN NON-ZERO.
     5	000002'	000000	000000	SW940:: 0; SWITCH INDICATES 940 CONTROLLER AND SLAVE WHEN NON-ZERO
     6	000003'	000000	000000	AAR1X:: 0; INSTRUCTION TO BE EXECUTED BY AAR
     7	000004'	000000	000000	AC6:: 0;  SAVED CHAR IN ACTRANS
     8	000005'	000000	000000	ACKROU:: 0; INSTRUCTION TO BE EXECUTED BY DEFER
     9	000006'	000000	000000	ACR1X:: 0; INST. TO BE EXECUTED AT ACR
    10	000007'	000000	000000	ASK:: 0; SWITCH REQUIRES CONFIRMATION OF REPLACING OLD FILE
    11				;       WHEN ZERO.  IF POS., ANSWER IS ASSUMED NO.  IF NEG, ANSWER IS YES
    12	000010'	000000	000000	AUXPRT:: 0; AUXILLIARY PORT
    13	000011'	000000	000000	BADD:: 0;  SAVED 'A' REGISTER FOR UNEXPECTED CONTROL CODE
    14	000012'	000000	000000	BCR1X:: 0; INST. TO EXECUTE (.. PUSHJ P,BGC)
    15	000013'	000000	000000	BF:: 0; BLOCKING FACTOR
    16	000014'	000000	000000	BLKNO:: 0; CURRENT DISC PAGE IN BUFFER
    17	000015'	000000	000000	BLNKSW:: 0 ;SWITCH SUPPRESSES TRAILING BLANKS IF NONZERO.
    18	000016'	000000	000000	BMOD:: 0; SWITCH INDICATES AUX PORT IN BLOCK I/O MODE IF NON-ZERO.
    19	000017'	000000	000000	BP:: 0; BYTE POSITION
    20	000020'	000000	000000	BP0:: 0;  CELL TO INITIALIZE BP
    21	000021'	000000	000000	BPARAM:: 0; BINARY PARAMETERS
    22	000022'	000000	000000	BPG:: 0;  BYTES PER PAGE
    23	000023'	000000	000000	BYTESIZE:: 0; BINARY BYTESIZE (7,8,9 BITS)
    24	000024'	000000	000000	CCNT:: 0;  TOTAL FILE BYTES SENT
    25	000025'	000000	000000	CCR:: 0;  CHARACTER COUNT REMAINING
    26	000026'	000000	000000	CCR0:: 0;  CELL TO INITIALIZE CCR
    27	000027'	000000	000000	CHECK:: 0; OUTPUT RECORD CHECKSUM
    28	000030'	000000	000000	CHKCOUNT:: 0; COUNT OF BLOCKS CHECKSUMMED IN CHECK RECORD
    29	000031'	000000	000000	CHCNT:: 0;* CHARACTER COUNT IN CURRENT MESSAGE
    30	000032'	000000	000000	CIN:: 0; SWITCH INDICATES COMMANDS IN FILE WHEN NONZERO
    31	000033'	000000	000000	COUT:: 0; SWITCH INDICATES COMMANDS OUT FILE WHEN NONZERO
    32				; CONVERSION TABLE FOR DATE UUO.  DO NOT REORDER THRU CNVFMT.
    33	000034'	000000	000000	CNVDAT:: 0; DATE IN DAYS SINCE JAN 1 1964 GMT
    34	000035'	000000	000000	CNVTIM:: 0; JIFFIES SINCE MIDNIGHT GMT
    35	000036'	400020	400000	CNVFMT:: XWD 400020,400000 ;CONVERT TO USER TIME ZONE FROM GMT
    36	000037'	000000	000000	COUNTB:: 0; FILE CHAR QUANTUM FOR LOGICAL RECORD
    37	000040'	000000	000000	CPTOP1:: 0; FILE SIZE IN BYTES
    38	000041'	000000	000000	CPTOP2:: 0; FILE SIZE IN BITS MOD 8
    39	000042'	000000	000000	CPTOP3:: 0;
    40	000043'	000000	000000	CPTOP4:: 0;
    41	000044'	000000	000000	CPTOP5:: 0;
    42	000045'	000000	000000	DCC:: 0;  DNOR COUNT-DOWN
    43	000046'	000000	000000	DCPTR:: 0; DNOR DATA POINTER
    44	000047'	000000	000000	DETACH:: 0; SWITCH INDICATES DETACHED PROGRAM RUNNING
    45	000050'	000000	000000	DONOR:: 0; SWITCH INDICATES WE ARE DONOR WHEN NON-ZERO
    46	000051'	000000	000000	DPTR:: 0;  TEMPORARY DNOR POINTER
    47	000052'	000000	000000	DPTR0:: 0; CELL TO INITIALIZE DPTR
    48	000053'	000000	000000	ETIME:: 0; TIME TRANSMISSION ENDED
    49	000054'	000000	000000	FDLIC:: 0; RBLIC OF DONOR FILE
    50	000055'	000000	000000	FIX:: 0; INDICATES FIXED LENGTH 370 RECORDS WHEN NON-ZERO
    51	000056'	000000	000000	FNCT:: 0;       LENGTH OF FILENAME IN BYTES
    52	000057'	000000	200000	FRECL:: EXP ^D65536 ;FIXED RECORD LENGTH
    53	000060'	000000	000000	G:: 0; INSTRUCTION EXECUTED TO FETCH NEXT FILE BYTE (.. PUSHJ P, GA)
VAR -- PROGRAM VARIABLES USED GLOBALLY	MACRO 12.5-46.0 08:13 25-OCT-87 PAGE 1-2
VAR.MAC	23-DEC-86 12:29

    54	000061'	000000	000000	GA1X:: 0; INST. TO EXECUTE (.. PUSHJ P,GB)
    55	000062'	000000	000000	GWCNT:: 0; DISC BUFFER WORD COUNT-DOWN USED BY GB.
    56	000063'	000000	000000	ICHECK:: 0; INPUT RECORD CHECKSUM
    57	000064'	000000	000000	ICOUNT:: 0; INPUT RECORD BYTE COUNTER
    58	000065'	000000	000000	IRTT:: 0;  INPUT RECORD TERMINATION TYPE.  SAVE FOR DEBUGGING ONLY
    59	000066'	000000	000000	JFYHR:: 0; JIFFIES/HOUR
    60	000067'	000000	000000	JFYMIN:: 0; JIFFIES/MIN
    61	000070'	000000	000000	JFYSEC:: 0; JIFFIES/SECOND
    62	000071'	000000	000000	LCOD:: 0;  LAST CODE RECEIVED BY GCOD
    63	000072'	000000	000000	LCOD1:: 0; LAST CODE RECEIVED BY GBCOD
    64	000073'	000000	000000	LOWSW:: 0; SWITCH PERMITS LOWER CASE OUTPUT IF NONZERO.
    65	000074'	000000	000000	LRECL:: 0; LOGICAL RECORD LENGTH
    66	000075'	000000	000000	MASTER:: 0; SWITCH INDICATES PROGRAM IS MASTER WHEN NON-ZERO
    67	000076'	000000	000000	MBC:: 0;  MULTIPLE BLANK COUNT
    68	000077'	000000	000000	N:: 0; NO. OF BYTES INTO PAGE. SEE UPA
    69	000100'	000000	000000	NAKCTR:: 0; NEGATIVE ACKNOWLEDGE COUNTER
    70	000101'			NARG:: BLOCK 2 ;NO. OF ARGUMENTS
    71	000103'	000000	000000	NEWSW:: 0; SWITCH INDICATES TALKING TO NEW SLAVE WHEN NON-ZERO.
    72	000104'	000000	000000	NONAME:: 0; NO-USER-NAME SWITCH USED BY SLAVE.  CONTAINS FIRST
    73				;               CHAR OF FILENAME IF POS.
    74	000105'	000000	000000	NUM:: 0;  NO. OF DISC BLOCKS DIFFERING ACCORDING TO RDVR AND DNOR
    75	000106'	000000	000000	NUM0:: 0;  CELL TO INITIALIZE NUM
    76	000107'	000000	000000	OFDLIC:: 0;     RBLIC OF RECEIVE FILE
    77	000110'	000000	000000	ORBSIZ:: 0;     FILE SIZE OF FILE BEING REPLACED (WORDS)
    78	000111'	000000	000000	PA1X:: 0;       INST. TO EXECUTE (.. CAIG C,RS)
    79	000112'	000000	000000	PCH:: 0;  INST. TO EXECUTE (.. PUSHJ P, PB)
    80	000113'	000000	000000	PGMSW:: 0; TELECOPY SLAVE PROGRAM PRESENT WHEN NON-ZERO.
    81	000114'	000000	000000	PMSK:: 0; USED TO MASK UNWANTED BIT POSITIONS IN BINARY MODE
    82	000115'	000000	000000	POS:: 0;  LINE POSITION (USED TO CALCULATE TABS)
    83	000116'	000000	000000	PWCNT:: 0; BUFFER WORD COUNT-DOWN USED BY PB
    84	000117'	000000	000000	RLCCNT:: 0; REAL BYTE COUNT FOR STATISTICS (8 BIT INFORMATION BYTES)
    85	000120'	000000	000000	RCPTR:: 0; POINTER INTO RCVR CHECK BLOCK
    86	000121'	000000	000000	RCV:: 0;  INST. TO EXECUTE (.. PUSHJ P, ACR)
    87	000122'	000000	000000	RECL:: 0;  RECORD LENGTH
    88	000123'	000000	000000	RECL1:: 0; RECORD LENGTH FOR DATA RECEIVED
    89	000124'	000000	000000	RECSIZ:: 0; ESTIMATED LOGICAL RECORD SIZE
    90	000125'	000000	000000	RECTYP:: 0; DATA RECORD TYPE
    91	000126'	000000	000000	RTT:: 0;  RECORD TERMINATION TYPE
    92	000127'	000000	000000	RPTR:: 0;  TEMP. PTR INTO RCVR BLOCK
    93	000130'	000000	000000	RPTR0:: 0; CELL TO INITIALIZE RPTR
    94	000131'	000000	000000	SCOD1:: 0; MESSAGE TYPE SAVED BY SCOD
    95	000132'			SCRATCH:: BLOCK 2       ;SCRATCH SPACE OVERWRITTEN
    96	000134'	000000	000000	STIME:: 0;      TIME COPY STARTED
    97	000135'	000000	000000	SYSTYP:: 0; SLAVE CAPABILITIES.  SLAVE TYPE IN LOW ORDER 3 BITS
    98	000136'	000000	000000	T:: 0; TEMP CELLS.  DO NOT REORDER
    99	000137'	000000	000000	TT:: 0
   100	000140'	000000	000000	T1:: 0
   101	000141'	000000	000000	T2:: 0
   102	000142'	000000	000000	T3:: 0
   103	000143'	000000	000000	T4:: 0
   104	000144'	000000	000000	TALKSW:: 0; DOING TALK COMMAND WHEN POS.
   105	000145'	000000	000000	TIMFLG:: 0; ACTIVITY COUNTER TO CONTROL TIMEOUT LOGIC.  IGNORE TIMEOUT IF -1
   106	000146'	000000	000000	TMP:: 0
VAR -- PROGRAM VARIABLES USED GLOBALLY	MACRO 12.5-46.0 08:13 25-OCT-87 PAGE 1-3
VAR.MAC	23-DEC-86 12:29

   107	000147'	000000	000000	TMP1:: 0
   108	000150'	000000	000000	TRANS:: 0; INST. TO EXECUTE (.. PUSHJ P, ACTRANS)
   109	000151'	000000	000000	TOTCCT:: 0; TOTAL CHAR COUNT FOR TRANSMISSION RECORD - WCC
   110	000152'	000000	000000	TRTOT:: 0; TOTAL CHARACTERS TRANSMITTED
   111	000153'	000000	000000	TRU:: 0; SWITCH TRUNCATES OUTPUT AT COLUMN XX IF TRU=XX.  TRU=0 TURNS OFF TRUNCATION.
   112	000154'	000000	000000	TYPTIM:: 0; SWITCH INDICATES TYPE TRANSMISSION RATE WHEN NON-ZERO
   113	000155'	000000	000000	UBP0:: 0;  SAVED BP0 IN UPDATE MODE
   114	000156'	000000	000000	UCCR0:: 0; SAVED CCR0
   115	000157'	000000	000000	UCHAR:: 0; UNEXPECTED CONTROL CODE SEEN AT UCC.
   116	000160'	000000	000000	UNCT:: 0;       LENGTH OF USERNAME IN BYTES
   117	000161'	000000	000000	UPDSW:: 0; SWITCH SET NONZERO INDICATES CONTROLLER IS PULLING A FILE AND
   118				;               REPLACING AN EXISTING FILE.
   119	000162'	000000	000000	UPDNO:: 0; SWITCH SET NONZERO PREVENTS USE OF UPDATE MODE.
   120	000163'	000000	000000	URECL:: 0; SAVED RECL IN UPDATE MODE
   121	000164'	000000	000000	URTT:: 0;  RECORD TERMINATION TYPE TO USE IN UPDATE MODE
   122	000165'	000000	000000	VERBOSE:: 0; SWITCH SET NONZERO CAUSES LOTS OF EXTRA MESSAGES
   123	000166'	000000	000000	VERIF1:: 0; CELL USED BY VERIF
   124	000167'	000000	000000	VERIF2:: 0
   125	000170'	000000	000000	VERIF3:: 0
   126	000171'	000000	200000	VRECL:: EXP ^D65536     ;LIMIT TO VARIABLE RECORD LENGTH (370)
   127				;TRANSMIT AND RECEIVE PARAMETER TABLES.  DO NOT REORDER
   128				;USER-SPECIFIED SET
   129	000172'	000000	000000	UCOPT:: 0
   130	000173'	000000	000000	UTPARAM:: 0
   131	000174'	000000	000000	UTMODE:: 0
   132	000175'	000000	000000	UTBLOCK:: 0
   133	000176'	000000	000000	URPARAM:: 0
   134	000177'	000000	000000	URMODE:: 0
   135	000200'	000000	000000	URBLOCK:: 0
   136			000007	OPTLEN==:.-UCOPT
   137				;FILE-DEPENDENT SET
   138	000201'	000000	000000	FCOPT:: 0
   139	000202'			FTPARAM:: BLOCK 3
   140	000205'			FRPARAM:: BLOCK 3
   141				;ACTIVE SET
   142	000210'	000000	000000	COPT::  0; COMPRESSION OPTIONS
   143	000211'	000000	000000	TPARAM::0; BPARAM FOR TRANSMITTER
   144	000212'	000000	000000	TMODE:: 0; MODE FOR TRANSMITTER
   145	000213'	000000	000000	TBLOCK::0; UPDATE MODE BLOCKSIZE FOR TRANSMITTER
   146	000214'	000000	000000	RPARAM::0; BPARAM FOR RECEIVER
   147	000215'	000000	000000	RMODE:: 0; MODE FOR RECEIVER
   148	000216'	000000	000000	RBLOCK::0; UPDATE MODE BLOCKSIZE FOR RECEIVER
   149				;DEFAULT SET
   150	000217'	000000	000000	DCOPT:: 0
   151	000220'	000000	000000	DTPARAM:: 0
   152	000221'	000000	000000	DTMODE:: 0
   153	000222'	000000	000000	DTBLOCK:: 0
   154	000223'	000000	000000	DRPARAM:: 0
   155	000224'	000000	000000	DRMODE:: 0
   156	000225'	000000	000000	DRBLOCK:: 0
   157				; FILE DIRECTORY ENTRY.
   158	000226'	000000	000014	RBCNT:: 14
   159	000227'	000000	000000	RBPPN:: 0
VAR -- PROGRAM VARIABLES USED GLOBALLY	MACRO 12.5-46.0 08:13 25-OCT-87 PAGE 1-4
VAR.MAC	23-DEC-86 12:29

   160	000230'	000000	000000	RBNAM:: 0
   161	000231'	000000	000000	RBEXT:: 0
   162	000232'	000000	000000	RBPRV:: 0
   163	000233'	000000	000000	RBSIZ:: 0
   164	000234'	000000	000000	RBVER: 0
   165	000235'	000000	000000	RBSPL: 0
   166	000236'	000000	000000	RBEST:: 0
   167	000237'	000000	000000	RBALC:: 0
   168	000240'	000000	000000	RBPOS: 0
   169	000241'	000000	000000	RBFT1: 0
   170	000242'	000000	000000	RBLIC:: 0
   171				 END
   172
NO ERRORS DETECTED
PROGRAM BREAK IS 000243
3K CORE USED
VAR -- PROGRAM VARIABLES USED GLOBALLY	MACRO 12.5-46.0 08:13 25-OCT-87 PAGE 2
VAR.MAC	23-DEC-86 12:29		SYMBOL TABLE

AAR1X		000003'	INT	FRECL		000057'	INT	RECTYP		000125'	INT
AC6		000004'	INT	FRPARA		000205'	INT	RLCCNT		000117'	INT
ACKROU		000005'	INT	FTPARA		000202'	INT	RMODE		000215'	INT
ACR1X		000006'	INT	G		000060'	INT	RPARAM		000214'	INT
ASK		000007'	INT	GA1X		000061'	INT	RPTR		000127'	INT
AUXPRT		000010'	INT	GWCNT		000062'	INT	RPTR0		000130'	INT
BADD		000011'	INT	ICHECK		000063'	INT	RTT		000126'	INT
BCR1X		000012'	INT	ICOUNT		000064'	INT	SCOD1		000131'	INT
BF		000013'	INT	IRTT		000065'	INT	SCRATC		000132'	INT
BLKNO		000014'	INT	JFYHR		000066'	INT	STIME		000134'	INT
BLNKSW		000015'	INT	JFYMIN		000067'	INT	SW10		000000'	INT
BMOD		000016'	INT	JFYSEC		000070'	INT	SW370		000001'	INT
BP		000017'	INT	LCOD		000071'	INT	SW940		000002'	INT
BP0		000020'	INT	LCOD1		000072'	INT	SYSTYP		000135'	INT
BPARAM		000021'	INT	LOWSW		000073'	INT	T		000136'	INT
BPG		000022'	INT	LRECL		000074'	INT	T1		000140'	INT
BYTESI		000023'	INT	MASTER		000075'	INT	T2		000141'	INT
CCNT		000024'	INT	MBC		000076'	INT	T3		000142'	INT
CCR		000025'	INT	N		000077'	INT	T4		000143'	INT
CCR0		000026'	INT	NAKCTR		000100'	INT	TALKSW		000144'	INT
CHCNT		000031'	INT	NARG		000101'	INT	TBLOCK		000213'	INT
CHECK		000027'	INT	NEWSW		000103'	INT	TIMFLG		000145'	INT
CHKCOU		000030'	INT	NONAME		000104'	INT	TMODE		000212'	INT
CIN		000032'	INT	NUM		000105'	INT	TMP		000146'	INT
CNVDAT		000034'	INT	NUM0		000106'	INT	TMP1		000147'	INT
CNVFMT		000036'	INT	OFDLIC		000107'	INT	TOTCCT		000151'	INT
CNVTIM		000035'	INT	OPTLEN		000007	SIN	TPARAM		000211'	INT
COPT		000210'	INT	ORBSIZ		000110'	INT	TRANS		000150'	INT
COUNTB		000037'	INT	PA1X		000111'	INT	TRTOT		000152'	INT
COUT		000033'	INT	PCH		000112'	INT	TRU		000153'	INT
CPTOP1		000040'	INT	PGMSW		000113'	INT	TT		000137'	INT
CPTOP2		000041'	INT	PMSK		000114'	INT	TYPTIM		000154'	INT
CPTOP3		000042'	INT	POS		000115'	INT	UBP0		000155'	INT
CPTOP4		000043'	INT	PWCNT		000116'	INT	UCCR0		000156'	INT
CPTOP5		000044'	INT	RBALC		000237'	INT	UCHAR		000157'	INT
DCC		000045'	INT	RBCNT		000226'	INT	UCOPT		000172'	INT
DCOPT		000217'	INT	RBEST		000236'	INT	UNCT		000160'	INT
DCPTR		000046'	INT	RBEXT		000231'	INT	UPDNO		000162'	INT
DETACH		000047'	INT	RBFT1		000241'		UPDSW		000161'	INT
DONOR		000050'	INT	RBLIC		000242'	INT	URBLOC		000200'	INT
DPTR		000051'	INT	RBLOCK		000216'	INT	URECL		000163'	INT
DPTR0		000052'	INT	RBNAM		000230'	INT	URMODE		000177'	INT
DRBLOC		000225'	INT	RBPOS		000240'		URPARA		000176'	INT
DRMODE		000224'	INT	RBPPN		000227'	INT	URTT		000164'	INT
DRPARA		000223'	INT	RBPRV		000232'	INT	UTBLOC		000175'	INT
DTBLOC		000222'	INT	RBSIZ		000233'	INT	UTMODE		000174'	INT
DTMODE		000221'	INT	RBSPL		000235'		UTPARA		000173'	INT
DTPARA		000220'	INT	RBVER		000234'		VERBOS		000165'	INT
ETIME		000053'	INT	RCPTR		000120'	INT	VERIF1		000166'	INT
FCOPT		000201'	INT	RCV		000121'	INT	VERIF2		000167'	INT
FDLIC		000054'	INT	RECL		000122'	INT	VERIF3		000170'	INT
FIX		000055'	INT	RECL1		000123'	INT	VRECL		000171'	INT
FNCT		000056'	INT	RECSIZ		000124'	INT

VAR -- PROGRAM VARIABLES USED GLOBALLY	MACRO 12.5-46.0 08:13 25-OCT-87
VAR.MAC	23-DEC-86 12:29		Symbol cross reference

AAR1X	     6#
AC6	     7#
ACKROU	     8#
ACR1X	     9#
ASK	    10#
AUXPRT	    12#
BADD	    13#
BCR1X	    14#
BF	    15#
BLKNO	    16#
BLNKSW	    17#
BMOD	    18#
BP	    19#
BP0	    20#
BPARAM	    21#
BPG	    22#
BYTESI	    23#
CCNT	    24#
CCR	    25#
CCR0	    26#
CHCNT	    29#
CHECK	    27#
CHKCOU	    28#
CIN	    30#
CNVDAT	    33#
CNVFMT	    35#
CNVTIM	    34#
COPT	   142#
COUNTB	    36#
COUT	    31#
CPTOP1	    37#
CPTOP2	    38#
CPTOP3	    39#
CPTOP4	    40#
CPTOP5	    41#
DCC	    42#
DCOPT	   150#
DCPTR	    43#
DETACH	    44#
DONOR	    45#
DPTR	    46#
DPTR0	    47#
DRBLOC	   156#
DRMODE	   155#
DRPARA	   154#
DTBLOC	   153#
DTMODE	   152#
DTPARA	   151#
ETIME	    48#
FCOPT	   138#
FDLIC	    49#
FIX	    50#
FNCT	    51#
VAR -- PROGRAM VARIABLES USED GLOBALLY	MACRO 12.5-46.0 08:13 25-OCT-87
VAR.MAC	23-DEC-86 12:29		Symbol cross reference

FRECL	    52#
FRPARA	   140#
FTPARA	   139#
G	    53#
GA1X	    54#
GWCNT	    55#
ICHECK	    56#
ICOUNT	    57#
IRTT	    58#
JFYHR	    59#
JFYMIN	    60#
JFYSEC	    61#
LCOD	    62#
LCOD1	    63#
LOWSW	    64#
LRECL	    65#
MASTER	    66#
MBC	    67#
N	    68#
NAKCTR	    69#
NARG	    70#
NEWSW	    71#
NONAME	    72#
NUM	    74#
NUM0	    75#
OFDLIC	    76#
OPTLEN	   136#
ORBSIZ	    77#
PA1X	    78#
PCH	    79#
PGMSW	    80#
PMSK	    81#
POS	    82#
PWCNT	    83#
RBALC	   167#
RBCNT	   158#
RBEST	   166#
RBEXT	   161#
RBFT1	   169#
RBLIC	   170#
RBLOCK	   148#
RBNAM	   160#
RBPOS	   168#
RBPPN	   159#
RBPRV	   162#
RBSIZ	   163#
RBSPL	   165#
RBVER	   164#
RCPTR	    85#
RCV	    86#
RECL	    87#
RECL1	    88#
RECSIZ	    89#
VAR -- PROGRAM VARIABLES USED GLOBALLY	MACRO 12.5-46.0 08:13 25-OCT-87
VAR.MAC	23-DEC-86 12:29		Symbol cross reference

RECTYP	    90#
RLCCNT	    84#
RMODE	   147#
RPARAM	   146#
RPTR	    92#
RPTR0	    93#
RTT	    91#
SCOD1	    94#
SCRATC	    95#
STIME	    96#
SW10	     3#
SW370	     4#
SW940	     5#
SYSTYP	    97#
T	    98#
T1	   100#
T2	   101#
T3	   102#
T4	   103#
TALKSW	   104#
TBLOCK	   145#
TIMFLG	   105#
TMODE	   144#
TMP	   106#
TMP1	   107#
TOTCCT	   109#
TPARAM	   143#
TRANS	   108#
TRTOT	   110#
TRU	   111#
TT	    99#
TYPTIM	   112#
UBP0	   113#
UCCR0	   114#
UCHAR	   115#
UCOPT	   129#	   136
UNCT	   116#
UPDNO	   119#
UPDSW	   117#
URBLOC	   135#
URECL	   120#
URMODE	   134#
URPARA	   133#
URTT	   121#
UTBLOC	   132#
UTMODE	   131#
UTPARA	   130#
VERBOS	   122#
VERIF1	   123#
VERIF2	   124#
VERIF3	   125#
VRECL	   126#
VAR -- PROGRAM VARIABLES USED GLOBALLY	MACRO 12.5-46.0 08:13 25-OCT-87
VAR.MAC	23-DEC-86 12:29		Opcode cross reference

BLOCK	    70	    95	   139	   140
END	   171
EXP	    52	   126
TITLE	     1
XWD	    35